{"abi":[{"inputs":[],"stateMutability":"nonpayable","type":"constructor"},{"inputs":[],"name":"admin","outputs":[{"internalType":"address","name":"","type":"address"}],"stateMutability":"view","type":"function"},{"inputs":[{"internalType":"string","name":"_name","type":"string"}],"name":"getAllContractAddress","outputs":[{"components":[{"internalType":"string","name":"name","type":"string"},{"internalType":"address","name":"contractAddress","type":"address"}],"internalType":"struct ContractDeployer.ContractAddress[]","name":"data","type":"tuple[]"}],"stateMutability":"view","type":"function"}],"devdoc":{"kind":"dev","methods":{},"version":1},"evm":{"assembly":"    /* \"ElectronicMedicalRecords.sol\":66:1287  contract ContractDeployer {... */\n  mstore(0x40, 0x80)\n    /* \"ElectronicMedicalRecords.sol\":297:1078  constructor() {... */\n  callvalue\n  dup1\n  iszero\n  tag_1\n  jumpi\n  0x00\n  dup1\n  revert\ntag_1:\n  pop\n    /* \"ElectronicMedicalRecords.sol\":330:340  msg.sender */\n  caller\n    /* \"ElectronicMedicalRecords.sol\":322:327  admin */\n  0x01\n  0x00\n    /* \"ElectronicMedicalRecords.sol\":322:340  admin = msg.sender */\n  0x0100\n  exp\n  dup2\n  sload\n  dup2\n  0xffffffffffffffffffffffffffffffffffffffff\n  mul\n  not\n  and\n  swap1\n  dup4\n  0xffffffffffffffffffffffffffffffffffffffff\n  and\n  mul\n  or\n  swap1\n  sstore\n  pop\n    /* \"ElectronicMedicalRecords.sol\":353:368  address patient */\n  0x00\n    /* \"ElectronicMedicalRecords.sol\":398:408  msg.sender */\n  caller\n    /* \"ElectronicMedicalRecords.sol\":379:409  new MedicalRecords(msg.sender) */\n  mload(0x40)\n  tag_4\n  swap1\n  tag_5\n  jump\t// in\ntag_4:\n  tag_6\n  swap2\n  swap1\n  tag_7\n  jump\t// in\ntag_6:\n  mload(0x40)\n  dup1\n  swap2\n  sub\n  swap1\n  0x00\n  create\n  dup1\n  iszero\n  dup1\n  iszero\n  tag_8\n  jumpi\n  returndatasize\n  0x00\n  dup1\n  returndatacopy\n  revert(0x00, returndatasize)\ntag_8:\n  pop\n    /* \"ElectronicMedicalRecords.sol\":353:410  address patient = address(new MedicalRecords(msg.sender)) */\n  swap1\n  pop\n    /* \"ElectronicMedicalRecords.sol\":421:443  bunchOfContractAddress */\n  0x00\n    /* \"ElectronicMedicalRecords.sol\":421:453  bunchOfContractAddress[\"secret\"] */\n  mload(0x40)\n  tag_9\n  swap1\n  tag_10\n  jump\t// in\ntag_9:\n  swap1\n  dup2\n  mstore\n  0x20\n  add\n  mload(0x40)\n  dup1\n  swap2\n  sub\n  swap1\n  keccak256\n    /* \"ElectronicMedicalRecords.sol\":459:511  ContractAddress(\"electronicMedicalRecords\", patient) */\n  mload(0x40)\n  dup1\n  0x40\n  add\n  0x40\n  mstore\n  dup1\n  mload(0x40)\n  dup1\n  0x40\n  add\n  0x40\n  mstore\n  dup1\n  0x18\n  dup2\n  mstore\n  0x20\n  add\n  0x656c656374726f6e69634d65646963616c5265636f7264730000000000000000\n  dup2\n  mstore\n  pop\n  dup2\n  mstore\n  0x20\n  add\n    /* \"ElectronicMedicalRecords.sol\":503:510  patient */\n  dup4\n    /* \"ElectronicMedicalRecords.sol\":459:511  ContractAddress(\"electronicMedicalRecords\", patient) */\n  0xffffffffffffffffffffffffffffffffffffffff\n  and\n  dup2\n  mstore\n  pop\n    /* \"ElectronicMedicalRecords.sol\":421:512  bunchOfContractAddress[\"secret\"].push(ContractAddress(\"electronicMedicalRecords\", patient)) */\n  swap1\n  dup1\n  0x01\n  dup2\n  sload\n  add\n  dup1\n  dup3\n  sstore\n  dup1\n  swap2\n  pop\n  pop\n  0x01\n  swap1\n  sub\n  swap1\n  0x00\n  mstore\n  keccak256(0x00, 0x20)\n  swap1\n  0x02\n  mul\n  add\n  0x00\n  swap1\n  swap2\n  swap1\n  swap2\n  swap1\n  swap2\n  pop\n  0x00\n  dup3\n  add\n  mload\n  dup2\n  0x00\n  add\n  swap1\n  dup2\n  tag_12\n  swap2\n  swap1\n  tag_13\n  jump\t// in\ntag_12:\n  pop\n  0x20\n  dup3\n  add\n  mload\n  dup2\n  0x01\n  add\n  exp(0x0100, 0x00)\n  dup2\n  sload\n  dup2\n  0xffffffffffffffffffffffffffffffffffffffff\n  mul\n  not\n  and\n  swap1\n  dup4\n  0xffffffffffffffffffffffffffffffffffffffff\n  and\n  mul\n  or\n  swap1\n  sstore\n  pop\n  pop\n  pop\n    /* \"ElectronicMedicalRecords.sol\":525:551  address patientVerificator */\n  0x00\n    /* \"ElectronicMedicalRecords.sol\":585:595  msg.sender */\n  caller\n    /* \"ElectronicMedicalRecords.sol\":562:596  new PatientVerificator(msg.sender) */\n  mload(0x40)\n  tag_14\n  swap1\n  tag_15\n  jump\t// in\ntag_14:\n  tag_16\n  swap2\n  swap1\n  tag_7\n  jump\t// in\ntag_16:\n  mload(0x40)\n  dup1\n  swap2\n  sub\n  swap1\n  0x00\n  create\n  dup1\n  iszero\n  dup1\n  iszero\n  tag_17\n  jumpi\n  returndatasize\n  0x00\n  dup1\n  returndatacopy\n  revert(0x00, returndatasize)\ntag_17:\n  pop\n    /* \"ElectronicMedicalRecords.sol\":525:597  address patientVerificator = address(new PatientVerificator(msg.sender)) */\n  swap1\n  pop\n    /* \"ElectronicMedicalRecords.sol\":608:630  bunchOfContractAddress */\n  0x00\n    /* \"ElectronicMedicalRecords.sol\":608:640  bunchOfContractAddress[\"secret\"] */\n  mload(0x40)\n  tag_18\n  swap1\n  tag_10\n  jump\t// in\ntag_18:\n  swap1\n  dup2\n  mstore\n  0x20\n  add\n  mload(0x40)\n  dup1\n  swap2\n  sub\n  swap1\n  keccak256\n    /* \"ElectronicMedicalRecords.sol\":646:703  ContractAddress(\"patientVerificator\", patientVerificator) */\n  mload(0x40)\n  dup1\n  0x40\n  add\n  0x40\n  mstore\n  dup1\n  mload(0x40)\n  dup1\n  0x40\n  add\n  0x40\n  mstore\n  dup1\n  0x12\n  dup2\n  mstore\n  0x20\n  add\n  0x70617469656e745665726966696361746f720000000000000000000000000000\n  dup2\n  mstore\n  pop\n  dup2\n  mstore\n  0x20\n  add\n    /* \"ElectronicMedicalRecords.sol\":684:702  patientVerificator */\n  dup4\n    /* \"ElectronicMedicalRecords.sol\":646:703  ContractAddress(\"patientVerificator\", patientVerificator) */\n  0xffffffffffffffffffffffffffffffffffffffff\n  and\n  dup2\n  mstore\n  pop\n    /* \"ElectronicMedicalRecords.sol\":608:704  bunchOfContractAddress[\"secret\"].push(ContractAddress(\"patientVerificator\", patientVerificator)) */\n  swap1\n  dup1\n  0x01\n  dup2\n  sload\n  add\n  dup1\n  dup3\n  sstore\n  dup1\n  swap2\n  pop\n  pop\n  0x01\n  swap1\n  sub\n  swap1\n  0x00\n  mstore\n  keccak256(0x00, 0x20)\n  swap1\n  0x02\n  mul\n  add\n  0x00\n  swap1\n  swap2\n  swap1\n  swap2\n  swap1\n  swap2\n  pop\n  0x00\n  dup3\n  add\n  mload\n  dup2\n  0x00\n  add\n  swap1\n  dup2\n  tag_20\n  swap2\n  swap1\n  tag_13\n  jump\t// in\ntag_20:\n  pop\n  0x20\n  dup3\n  add\n  mload\n  dup2\n  0x01\n  add\n  exp(0x0100, 0x00)\n  dup2\n  sload\n  dup2\n  0xffffffffffffffffffffffffffffffffffffffff\n  mul\n  not\n  and\n  swap1\n  dup4\n  0xffffffffffffffffffffffffffffffffffffffff\n  and\n  mul\n  or\n  swap1\n  sstore\n  pop\n  pop\n  pop\n    /* \"ElectronicMedicalRecords.sol\":717:742  address doctorVerificator */\n  0x00\n    /* \"ElectronicMedicalRecords.sol\":775:785  msg.sender */\n  caller\n    /* \"ElectronicMedicalRecords.sol\":753:786  new DoctorVerificator(msg.sender) */\n  mload(0x40)\n  tag_21\n  swap1\n  tag_22\n  jump\t// in\ntag_21:\n  tag_23\n  swap2\n  swap1\n  tag_7\n  jump\t// in\ntag_23:\n  mload(0x40)\n  dup1\n  swap2\n  sub\n  swap1\n  0x00\n  create\n  dup1\n  iszero\n  dup1\n  iszero\n  tag_24\n  jumpi\n  returndatasize\n  0x00\n  dup1\n  returndatacopy\n  revert(0x00, returndatasize)\ntag_24:\n  pop\n    /* \"ElectronicMedicalRecords.sol\":717:787  address doctorVerificator = address(new DoctorVerificator(msg.sender)) */\n  swap1\n  pop\n    /* \"ElectronicMedicalRecords.sol\":798:820  bunchOfContractAddress */\n  0x00\n    /* \"ElectronicMedicalRecords.sol\":798:830  bunchOfContractAddress[\"secret\"] */\n  mload(0x40)\n  tag_25\n  swap1\n  tag_10\n  jump\t// in\ntag_25:\n  swap1\n  dup2\n  mstore\n  0x20\n  add\n  mload(0x40)\n  dup1\n  swap2\n  sub\n  swap1\n  keccak256\n    /* \"ElectronicMedicalRecords.sol\":836:891  ContractAddress(\"doctorVerificator\", doctorVerificator) */\n  mload(0x40)\n  dup1\n  0x40\n  add\n  0x40\n  mstore\n  dup1\n  mload(0x40)\n  dup1\n  0x40\n  add\n  0x40\n  mstore\n  dup1\n  0x11\n  dup2\n  mstore\n  0x20\n  add\n  0x646f63746f725665726966696361746f72000000000000000000000000000000\n  dup2\n  mstore\n  pop\n  dup2\n  mstore\n  0x20\n  add\n    /* \"ElectronicMedicalRecords.sol\":873:890  doctorVerificator */\n  dup4\n    /* \"ElectronicMedicalRecords.sol\":836:891  ContractAddress(\"doctorVerificator\", doctorVerificator) */\n  0xffffffffffffffffffffffffffffffffffffffff\n  and\n  dup2\n  mstore\n  pop\n    /* \"ElectronicMedicalRecords.sol\":798:892  bunchOfContractAddress[\"secret\"].push(ContractAddress(\"doctorVerificator\", doctorVerificator)) */\n  swap1\n  dup1\n  0x01\n  dup2\n  sload\n  add\n  dup1\n  dup3\n  sstore\n  dup1\n  swap2\n  pop\n  pop\n  0x01\n  swap1\n  sub\n  swap1\n  0x00\n  mstore\n  keccak256(0x00, 0x20)\n  swap1\n  0x02\n  mul\n  add\n  0x00\n  swap1\n  swap2\n  swap1\n  swap2\n  swap1\n  swap2\n  pop\n  0x00\n  dup3\n  add\n  mload\n  dup2\n  0x00\n  add\n  swap1\n  dup2\n  tag_27\n  swap2\n  swap1\n  tag_13\n  jump\t// in\ntag_27:\n  pop\n  0x20\n  dup3\n  add\n  mload\n  dup2\n  0x01\n  add\n  exp(0x0100, 0x00)\n  dup2\n  sload\n  dup2\n  0xffffffffffffffffffffffffffffffffffffffff\n  mul\n  not\n  and\n  swap1\n  dup4\n  0xffffffffffffffffffffffffffffffffffffffff\n  and\n  mul\n  or\n  swap1\n  sstore\n  pop\n  pop\n  pop\n    /* \"ElectronicMedicalRecords.sol\":905:927  address doctorRelation */\n  0x00\n    /* \"ElectronicMedicalRecords.sol\":957:967  msg.sender */\n  caller\n    /* \"ElectronicMedicalRecords.sol\":938:968  new DoctorRelation(msg.sender) */\n  mload(0x40)\n  tag_28\n  swap1\n  tag_29\n  jump\t// in\ntag_28:\n  tag_30\n  swap2\n  swap1\n  tag_7\n  jump\t// in\ntag_30:\n  mload(0x40)\n  dup1\n  swap2\n  sub\n  swap1\n  0x00\n  create\n  dup1\n  iszero\n  dup1\n  iszero\n  tag_31\n  jumpi\n  returndatasize\n  0x00\n  dup1\n  returndatacopy\n  revert(0x00, returndatasize)\ntag_31:\n  pop\n    /* \"ElectronicMedicalRecords.sol\":905:969  address doctorRelation = address(new DoctorRelation(msg.sender)) */\n  swap1\n  pop\n    /* \"ElectronicMedicalRecords.sol\":980:1002  bunchOfContractAddress */\n  0x00\n    /* \"ElectronicMedicalRecords.sol\":980:1012  bunchOfContractAddress[\"secret\"] */\n  mload(0x40)\n  tag_32\n  swap1\n  tag_10\n  jump\t// in\ntag_32:\n  swap1\n  dup2\n  mstore\n  0x20\n  add\n  mload(0x40)\n  dup1\n  swap2\n  sub\n  swap1\n  keccak256\n    /* \"ElectronicMedicalRecords.sol\":1018:1067  ContractAddress(\"doctorRelation\", doctorRelation) */\n  mload(0x40)\n  dup1\n  0x40\n  add\n  0x40\n  mstore\n  dup1\n  mload(0x40)\n  dup1\n  0x40\n  add\n  0x40\n  mstore\n  dup1\n  0x0e\n  dup2\n  mstore\n  0x20\n  add\n  0x646f63746f7252656c6174696f6e000000000000000000000000000000000000\n  dup2\n  mstore\n  pop\n  dup2\n  mstore\n  0x20\n  add\n    /* \"ElectronicMedicalRecords.sol\":1052:1066  doctorRelation */\n  dup4\n    /* \"ElectronicMedicalRecords.sol\":1018:1067  ContractAddress(\"doctorRelation\", doctorRelation) */\n  0xffffffffffffffffffffffffffffffffffffffff\n  and\n  dup2\n  mstore\n  pop\n    /* \"ElectronicMedicalRecords.sol\":980:1068  bunchOfContractAddress[\"secret\"].push(ContractAddress(\"doctorRelation\", doctorRelation)) */\n  swap1\n  dup1\n  0x01\n  dup2\n  sload\n  add\n  dup1\n  dup3\n  sstore\n  dup1\n  swap2\n  pop\n  pop\n  0x01\n  swap1\n  sub\n  swap1\n  0x00\n  mstore\n  keccak256(0x00, 0x20)\n  swap1\n  0x02\n  mul\n  add\n  0x00\n  swap1\n  swap2\n  swap1\n  swap2\n  swap1\n  swap2\n  pop\n  0x00\n  dup3\n  add\n  mload\n  dup2\n  0x00\n  add\n  swap1\n  dup2\n  tag_34\n  swap2\n  swap1\n  tag_13\n  jump\t// in\ntag_34:\n  pop\n  0x20\n  dup3\n  add\n  mload\n  dup2\n  0x01\n  add\n  exp(0x0100, 0x00)\n  dup2\n  sload\n  dup2\n  0xffffffffffffffffffffffffffffffffffffffff\n  mul\n  not\n  and\n  swap1\n  dup4\n  0xffffffffffffffffffffffffffffffffffffffff\n  and\n  mul\n  or\n  swap1\n  sstore\n  pop\n  pop\n  pop\n    /* \"ElectronicMedicalRecords.sol\":311:1078  {... */\n  pop\n  pop\n  pop\n  pop\n    /* \"ElectronicMedicalRecords.sol\":66:1287  contract ContractDeployer {... */\n  jump(tag_35)\ntag_5:\n  dataSize(sub_1)\n  dup1\n  dataOffset(sub_1)\n  dup4\n  codecopy\n  add\n  swap1\n  jump\t// out\ntag_15:\n  dataSize(sub_2)\n  dup1\n  dataOffset(sub_2)\n  dup4\n  codecopy\n  add\n  swap1\n  jump\t// out\ntag_22:\n  dataSize(sub_3)\n  dup1\n  dataOffset(sub_3)\n  dup4\n  codecopy\n  add\n  swap1\n  jump\t// out\ntag_29:\n  dataSize(sub_4)\n  dup1\n  dataOffset(sub_4)\n  dup4\n  codecopy\n  add\n  swap1\n  jump\t// out\n    /* \"#utility.yul\":7:133   */\ntag_36:\n    /* \"#utility.yul\":44:51   */\n  0x00\n    /* \"#utility.yul\":84:126   */\n  0xffffffffffffffffffffffffffffffffffffffff\n    /* \"#utility.yul\":77:82   */\n  dup3\n    /* \"#utility.yul\":73:127   */\n  and\n    /* \"#utility.yul\":62:127   */\n  swap1\n  pop\n    /* \"#utility.yul\":7:133   */\n  swap2\n  swap1\n  pop\n  jump\t// out\n    /* \"#utility.yul\":139:235   */\ntag_37:\n    /* \"#utility.yul\":176:183   */\n  0x00\n    /* \"#utility.yul\":205:229   */\n  tag_65\n    /* \"#utility.yul\":223:228   */\n  dup3\n    /* \"#utility.yul\":205:229   */\n  tag_36\n  jump\t// in\ntag_65:\n    /* \"#utility.yul\":194:229   */\n  swap1\n  pop\n    /* \"#utility.yul\":139:235   */\n  swap2\n  swap1\n  pop\n  jump\t// out\n    /* \"#utility.yul\":241:359   */\ntag_38:\n    /* \"#utility.yul\":328:352   */\n  tag_67\n    /* \"#utility.yul\":346:351   */\n  dup2\n    /* \"#utility.yul\":328:352   */\n  tag_37\n  jump\t// in\ntag_67:\n    /* \"#utility.yul\":323:326   */\n  dup3\n    /* \"#utility.yul\":316:353   */\n  mstore\n    /* \"#utility.yul\":241:359   */\n  pop\n  pop\n  jump\t// out\n    /* \"#utility.yul\":365:587   */\ntag_7:\n    /* \"#utility.yul\":458:462   */\n  0x00\n    /* \"#utility.yul\":496:498   */\n  0x20\n    /* \"#utility.yul\":485:494   */\n  dup3\n    /* \"#utility.yul\":481:499   */\n  add\n    /* \"#utility.yul\":473:499   */\n  swap1\n  pop\n    /* \"#utility.yul\":509:580   */\n  tag_69\n    /* \"#utility.yul\":577:578   */\n  0x00\n    /* \"#utility.yul\":566:575   */\n  dup4\n    /* \"#utility.yul\":562:579   */\n  add\n    /* \"#utility.yul\":553:559   */\n  dup5\n    /* \"#utility.yul\":509:580   */\n  tag_38\n  jump\t// in\ntag_69:\n    /* \"#utility.yul\":365:587   */\n  swap3\n  swap2\n  pop\n  pop\n  jump\t// out\n    /* \"#utility.yul\":593:741   */\ntag_39:\n    /* \"#utility.yul\":695:706   */\n  0x00\n    /* \"#utility.yul\":732:735   */\n  dup2\n    /* \"#utility.yul\":717:735   */\n  swap1\n  pop\n    /* \"#utility.yul\":593:741   */\n  swap3\n  swap2\n  pop\n  pop\n  jump\t// out\n    /* \"#utility.yul\":747:903   */\ntag_40:\n    /* \"#utility.yul\":887:895   */\n  0x7365637265740000000000000000000000000000000000000000000000000000\n    /* \"#utility.yul\":883:884   */\n  0x00\n    /* \"#utility.yul\":875:881   */\n  dup3\n    /* \"#utility.yul\":871:885   */\n  add\n    /* \"#utility.yul\":864:896   */\n  mstore\n    /* \"#utility.yul\":747:903   */\n  pop\n  jump\t// out\n    /* \"#utility.yul\":909:1309   */\ntag_41:\n    /* \"#utility.yul\":1069:1072   */\n  0x00\n    /* \"#utility.yul\":1090:1174   */\n  tag_73\n    /* \"#utility.yul\":1172:1173   */\n  0x06\n    /* \"#utility.yul\":1167:1170   */\n  dup4\n    /* \"#utility.yul\":1090:1174   */\n  tag_39\n  jump\t// in\ntag_73:\n    /* \"#utility.yul\":1083:1174   */\n  swap2\n  pop\n    /* \"#utility.yul\":1183:1276   */\n  tag_74\n    /* \"#utility.yul\":1272:1275   */\n  dup3\n    /* \"#utility.yul\":1183:1276   */\n  tag_40\n  jump\t// in\ntag_74:\n    /* \"#utility.yul\":1301:1302   */\n  0x06\n    /* \"#utility.yul\":1296:1299   */\n  dup3\n    /* \"#utility.yul\":1292:1303   */\n  add\n    /* \"#utility.yul\":1285:1303   */\n  swap1\n  pop\n    /* \"#utility.yul\":909:1309   */\n  swap2\n  swap1\n  pop\n  jump\t// out\n    /* \"#utility.yul\":1315:1696   */\ntag_10:\n    /* \"#utility.yul\":1500:1503   */\n  0x00\n    /* \"#utility.yul\":1522:1670   */\n  tag_76\n    /* \"#utility.yul\":1666:1669   */\n  dup3\n    /* \"#utility.yul\":1522:1670   */\n  tag_41\n  jump\t// in\ntag_76:\n    /* \"#utility.yul\":1515:1670   */\n  swap2\n  pop\n    /* \"#utility.yul\":1687:1690   */\n  dup2\n    /* \"#utility.yul\":1680:1690   */\n  swap1\n  pop\n    /* \"#utility.yul\":1315:1696   */\n  swap2\n  swap1\n  pop\n  jump\t// out\n    /* \"#utility.yul\":1702:1801   */\ntag_42:\n    /* \"#utility.yul\":1754:1760   */\n  0x00\n    /* \"#utility.yul\":1788:1793   */\n  dup2\n    /* \"#utility.yul\":1782:1794   */\n  mload\n    /* \"#utility.yul\":1772:1794   */\n  swap1\n  pop\n    /* \"#utility.yul\":1702:1801   */\n  swap2\n  swap1\n  pop\n  jump\t// out\n    /* \"#utility.yul\":1807:1987   */\ntag_43:\n    /* \"#utility.yul\":1855:1932   */\n  0x4e487b7100000000000000000000000000000000000000000000000000000000\n    /* \"#utility.yul\":1852:1853   */\n  0x00\n    /* \"#utility.yul\":1845:1933   */\n  mstore\n    /* \"#utility.yul\":1952:1956   */\n  0x41\n    /* \"#utility.yul\":1949:1950   */\n  0x04\n    /* \"#utility.yul\":1942:1957   */\n  mstore\n    /* \"#utility.yul\":1976:1980   */\n  0x24\n    /* \"#utility.yul\":1973:1974   */\n  0x00\n    /* \"#utility.yul\":1966:1981   */\n  revert\n    /* \"#utility.yul\":1993:2173   */\ntag_44:\n    /* \"#utility.yul\":2041:2118   */\n  0x4e487b7100000000000000000000000000000000000000000000000000000000\n    /* \"#utility.yul\":2038:2039   */\n  0x00\n    /* \"#utility.yul\":2031:2119   */\n  mstore\n    /* \"#utility.yul\":2138:2142   */\n  0x22\n    /* \"#utility.yul\":2135:2136   */\n  0x04\n    /* \"#utility.yul\":2128:2143   */\n  mstore\n    /* \"#utility.yul\":2162:2166   */\n  0x24\n    /* \"#utility.yul\":2159:2160   */\n  0x00\n    /* \"#utility.yul\":2152:2167   */\n  revert\n    /* \"#utility.yul\":2179:2499   */\ntag_45:\n    /* \"#utility.yul\":2223:2229   */\n  0x00\n    /* \"#utility.yul\":2260:2261   */\n  0x02\n    /* \"#utility.yul\":2254:2258   */\n  dup3\n    /* \"#utility.yul\":2250:2262   */\n  div\n    /* \"#utility.yul\":2240:2262   */\n  swap1\n  pop\n    /* \"#utility.yul\":2307:2308   */\n  0x01\n    /* \"#utility.yul\":2301:2305   */\n  dup3\n    /* \"#utility.yul\":2297:2309   */\n  and\n    /* \"#utility.yul\":2328:2346   */\n  dup1\n    /* \"#utility.yul\":2318:2399   */\n  tag_81\n  jumpi\n    /* \"#utility.yul\":2384:2388   */\n  0x7f\n    /* \"#utility.yul\":2376:2382   */\n  dup3\n    /* \"#utility.yul\":2372:2389   */\n  and\n    /* \"#utility.yul\":2362:2389   */\n  swap2\n  pop\n    /* \"#utility.yul\":2318:2399   */\ntag_81:\n    /* \"#utility.yul\":2446:2448   */\n  0x20\n    /* \"#utility.yul\":2438:2444   */\n  dup3\n    /* \"#utility.yul\":2435:2449   */\n  lt\n    /* \"#utility.yul\":2415:2433   */\n  dup2\n    /* \"#utility.yul\":2412:2450   */\n  sub\n    /* \"#utility.yul\":2409:2493   */\n  tag_82\n  jumpi\n    /* \"#utility.yul\":2465:2483   */\n  tag_83\n  tag_44\n  jump\t// in\ntag_83:\n    /* \"#utility.yul\":2409:2493   */\ntag_82:\n    /* \"#utility.yul\":2230:2499   */\n  pop\n    /* \"#utility.yul\":2179:2499   */\n  swap2\n  swap1\n  pop\n  jump\t// out\n    /* \"#utility.yul\":2505:2646   */\ntag_46:\n    /* \"#utility.yul\":2554:2558   */\n  0x00\n    /* \"#utility.yul\":2577:2580   */\n  dup2\n    /* \"#utility.yul\":2569:2580   */\n  swap1\n  pop\n    /* \"#utility.yul\":2600:2603   */\n  dup2\n    /* \"#utility.yul\":2597:2598   */\n  0x00\n    /* \"#utility.yul\":2590:2604   */\n  mstore\n    /* \"#utility.yul\":2634:2638   */\n  0x20\n    /* \"#utility.yul\":2631:2632   */\n  0x00\n    /* \"#utility.yul\":2621:2639   */\n  keccak256\n    /* \"#utility.yul\":2613:2639   */\n  swap1\n  pop\n    /* \"#utility.yul\":2505:2646   */\n  swap2\n  swap1\n  pop\n  jump\t// out\n    /* \"#utility.yul\":2652:2745   */\ntag_47:\n    /* \"#utility.yul\":2689:2695   */\n  0x00\n    /* \"#utility.yul\":2736:2738   */\n  0x20\n    /* \"#utility.yul\":2731:2733   */\n  0x1f\n    /* \"#utility.yul\":2724:2729   */\n  dup4\n    /* \"#utility.yul\":2720:2734   */\n  add\n    /* \"#utility.yul\":2716:2739   */\n  div\n    /* \"#utility.yul\":2706:2739   */\n  swap1\n  pop\n    /* \"#utility.yul\":2652:2745   */\n  swap2\n  swap1\n  pop\n  jump\t// out\n    /* \"#utility.yul\":2751:2858   */\ntag_48:\n    /* \"#utility.yul\":2795:2803   */\n  0x00\n    /* \"#utility.yul\":2845:2850   */\n  dup3\n    /* \"#utility.yul\":2839:2843   */\n  dup3\n    /* \"#utility.yul\":2835:2851   */\n  shl\n    /* \"#utility.yul\":2814:2851   */\n  swap1\n  pop\n    /* \"#utility.yul\":2751:2858   */\n  swap3\n  swap2\n  pop\n  pop\n  jump\t// out\n    /* \"#utility.yul\":2864:3257   */\ntag_49:\n    /* \"#utility.yul\":2933:2939   */\n  0x00\n    /* \"#utility.yul\":2983:2984   */\n  0x08\n    /* \"#utility.yul\":2971:2981   */\n  dup4\n    /* \"#utility.yul\":2967:2985   */\n  mul\n    /* \"#utility.yul\":3006:3103   */\n  tag_88\n    /* \"#utility.yul\":3036:3102   */\n  0xffffffffffffffffffffffffffffffffffffffffffffffffffffffffffffffff\n    /* \"#utility.yul\":3025:3034   */\n  dup3\n    /* \"#utility.yul\":3006:3103   */\n  tag_48\n  jump\t// in\ntag_88:\n    /* \"#utility.yul\":3124:3163   */\n  tag_89\n    /* \"#utility.yul\":3154:3162   */\n  dup7\n    /* \"#utility.yul\":3143:3152   */\n  dup4\n    /* \"#utility.yul\":3124:3163   */\n  tag_48\n  jump\t// in\ntag_89:\n    /* \"#utility.yul\":3112:3163   */\n  swap6\n  pop\n    /* \"#utility.yul\":3196:3200   */\n  dup1\n    /* \"#utility.yul\":3192:3201   */\n  not\n    /* \"#utility.yul\":3185:3190   */\n  dup5\n    /* \"#utility.yul\":3181:3202   */\n  and\n    /* \"#utility.yul\":3172:3202   */\n  swap4\n  pop\n    /* \"#utility.yul\":3245:3249   */\n  dup1\n    /* \"#utility.yul\":3235:3243   */\n  dup7\n    /* \"#utility.yul\":3231:3250   */\n  and\n    /* \"#utility.yul\":3224:3229   */\n  dup5\n    /* \"#utility.yul\":3221:3251   */\n  or\n    /* \"#utility.yul\":3211:3251   */\n  swap3\n  pop\n    /* \"#utility.yul\":2940:3257   */\n  pop\n  pop\n    /* \"#utility.yul\":2864:3257   */\n  swap4\n  swap3\n  pop\n  pop\n  pop\n  jump\t// out\n    /* \"#utility.yul\":3263:3340   */\ntag_50:\n    /* \"#utility.yul\":3300:3307   */\n  0x00\n    /* \"#utility.yul\":3329:3334   */\n  dup2\n    /* \"#utility.yul\":3318:3334   */\n  swap1\n  pop\n    /* \"#utility.yul\":3263:3340   */\n  swap2\n  swap1\n  pop\n  jump\t// out\n    /* \"#utility.yul\":3346:3406   */\ntag_51:\n    /* \"#utility.yul\":3374:3377   */\n  0x00\n    /* \"#utility.yul\":3395:3400   */\n  dup2\n    /* \"#utility.yul\":3388:3400   */\n  swap1\n  pop\n    /* \"#utility.yul\":3346:3406   */\n  swap2\n  swap1\n  pop\n  jump\t// out\n    /* \"#utility.yul\":3412:3554   */\ntag_52:\n    /* \"#utility.yul\":3462:3471   */\n  0x00\n    /* \"#utility.yul\":3495:3548   */\n  tag_93\n    /* \"#utility.yul\":3513:3547   */\n  tag_94\n    /* \"#utility.yul\":3522:3546   */\n  tag_95\n    /* \"#utility.yul\":3540:3545   */\n  dup5\n    /* \"#utility.yul\":3522:3546   */\n  tag_50\n  jump\t// in\ntag_95:\n    /* \"#utility.yul\":3513:3547   */\n  tag_51\n  jump\t// in\ntag_94:\n    /* \"#utility.yul\":3495:3548   */\n  tag_50\n  jump\t// in\ntag_93:\n    /* \"#utility.yul\":3482:3548   */\n  swap1\n  pop\n    /* \"#utility.yul\":3412:3554   */\n  swap2\n  swap1\n  pop\n  jump\t// out\n    /* \"#utility.yul\":3560:3635   */\ntag_53:\n    /* \"#utility.yul\":3603:3606   */\n  0x00\n    /* \"#utility.yul\":3624:3629   */\n  dup2\n    /* \"#utility.yul\":3617:3629   */\n  swap1\n  pop\n    /* \"#utility.yul\":3560:3635   */\n  swap2\n  swap1\n  pop\n  jump\t// out\n    /* \"#utility.yul\":3641:3910   */\ntag_54:\n    /* \"#utility.yul\":3751:3790   */\n  tag_98\n    /* \"#utility.yul\":3782:3789   */\n  dup4\n    /* \"#utility.yul\":3751:3790   */\n  tag_52\n  jump\t// in\ntag_98:\n    /* \"#utility.yul\":3812:3903   */\n  tag_99\n    /* \"#utility.yul\":3861:3902   */\n  tag_100\n    /* \"#utility.yul\":3885:3901   */\n  dup3\n    /* \"#utility.yul\":3861:3902   */\n  tag_53\n  jump\t// in\ntag_100:\n    /* \"#utility.yul\":3853:3859   */\n  dup5\n    /* \"#utility.yul\":3846:3850   */\n  dup5\n    /* \"#utility.yul\":3840:3851   */\n  sload\n    /* \"#utility.yul\":3812:3903   */\n  tag_49\n  jump\t// in\ntag_99:\n    /* \"#utility.yul\":3806:3810   */\n  dup3\n    /* \"#utility.yul\":3799:3904   */\n  sstore\n    /* \"#utility.yul\":3717:3910   */\n  pop\n    /* \"#utility.yul\":3641:3910   */\n  pop\n  pop\n  pop\n  jump\t// out\n    /* \"#utility.yul\":3916:3989   */\ntag_55:\n    /* \"#utility.yul\":3961:3964   */\n  0x00\n    /* \"#utility.yul\":3916:3989   */\n  swap1\n  jump\t// out\n    /* \"#utility.yul\":3995:4184   */\ntag_56:\n    /* \"#utility.yul\":4072:4104   */\n  tag_103\n  tag_55\n  jump\t// in\ntag_103:\n    /* \"#utility.yul\":4113:4178   */\n  tag_104\n    /* \"#utility.yul\":4171:4177   */\n  dup2\n    /* \"#utility.yul\":4163:4169   */\n  dup5\n    /* \"#utility.yul\":4157:4161   */\n  dup5\n    /* \"#utility.yul\":4113:4178   */\n  tag_54\n  jump\t// in\ntag_104:\n    /* \"#utility.yul\":4048:4184   */\n  pop\n    /* \"#utility.yul\":3995:4184   */\n  pop\n  pop\n  jump\t// out\n    /* \"#utility.yul\":4190:4376   */\ntag_57:\n    /* \"#utility.yul\":4250:4370   */\ntag_106:\n    /* \"#utility.yul\":4267:4270   */\n  dup2\n    /* \"#utility.yul\":4260:4265   */\n  dup2\n    /* \"#utility.yul\":4257:4271   */\n  lt\n    /* \"#utility.yul\":4250:4370   */\n  iszero\n  tag_108\n  jumpi\n    /* \"#utility.yul\":4321:4360   */\n  tag_109\n    /* \"#utility.yul\":4358:4359   */\n  0x00\n    /* \"#utility.yul\":4351:4356   */\n  dup3\n    /* \"#utility.yul\":4321:4360   */\n  tag_56\n  jump\t// in\ntag_109:\n    /* \"#utility.yul\":4294:4295   */\n  0x01\n    /* \"#utility.yul\":4287:4292   */\n  dup2\n    /* \"#utility.yul\":4283:4296   */\n  add\n    /* \"#utility.yul\":4274:4296   */\n  swap1\n  pop\n    /* \"#utility.yul\":4250:4370   */\n  jump(tag_106)\ntag_108:\n    /* \"#utility.yul\":4190:4376   */\n  pop\n  pop\n  jump\t// out\n    /* \"#utility.yul\":4382:4925   */\ntag_58:\n    /* \"#utility.yul\":4483:4485   */\n  0x1f\n    /* \"#utility.yul\":4478:4481   */\n  dup3\n    /* \"#utility.yul\":4475:4486   */\n  gt\n    /* \"#utility.yul\":4472:4918   */\n  iszero\n  tag_111\n  jumpi\n    /* \"#utility.yul\":4517:4555   */\n  tag_112\n    /* \"#utility.yul\":4549:4554   */\n  dup2\n    /* \"#utility.yul\":4517:4555   */\n  tag_46\n  jump\t// in\ntag_112:\n    /* \"#utility.yul\":4601:4630   */\n  tag_113\n    /* \"#utility.yul\":4619:4629   */\n  dup5\n    /* \"#utility.yul\":4601:4630   */\n  tag_47\n  jump\t// in\ntag_113:\n    /* \"#utility.yul\":4591:4599   */\n  dup2\n    /* \"#utility.yul\":4587:4631   */\n  add\n    /* \"#utility.yul\":4784:4786   */\n  0x20\n    /* \"#utility.yul\":4772:4782   */\n  dup6\n    /* \"#utility.yul\":4769:4787   */\n  lt\n    /* \"#utility.yul\":4766:4815   */\n  iszero\n  tag_114\n  jumpi\n    /* \"#utility.yul\":4805:4813   */\n  dup2\n    /* \"#utility.yul\":4790:4813   */\n  swap1\n  pop\n    /* \"#utility.yul\":4766:4815   */\ntag_114:\n    /* \"#utility.yul\":4828:4908   */\n  tag_115\n    /* \"#utility.yul\":4884:4906   */\n  tag_116\n    /* \"#utility.yul\":4902:4905   */\n  dup6\n    /* \"#utility.yul\":4884:4906   */\n  tag_47\n  jump\t// in\ntag_116:\n    /* \"#utility.yul\":4874:4882   */\n  dup4\n    /* \"#utility.yul\":4870:4907   */\n  add\n    /* \"#utility.yul\":4857:4868   */\n  dup3\n    /* \"#utility.yul\":4828:4908   */\n  tag_57\n  jump\t// in\ntag_115:\n    /* \"#utility.yul\":4487:4918   */\n  pop\n  pop\n    /* \"#utility.yul\":4472:4918   */\ntag_111:\n    /* \"#utility.yul\":4382:4925   */\n  pop\n  pop\n  pop\n  jump\t// out\n    /* \"#utility.yul\":4931:5048   */\ntag_59:\n    /* \"#utility.yul\":4985:4993   */\n  0x00\n    /* \"#utility.yul\":5035:5040   */\n  dup3\n    /* \"#utility.yul\":5029:5033   */\n  dup3\n    /* \"#utility.yul\":5025:5041   */\n  shr\n    /* \"#utility.yul\":5004:5041   */\n  swap1\n  pop\n    /* \"#utility.yul\":4931:5048   */\n  swap3\n  swap2\n  pop\n  pop\n  jump\t// out\n    /* \"#utility.yul\":5054:5223   */\ntag_60:\n    /* \"#utility.yul\":5098:5104   */\n  0x00\n    /* \"#utility.yul\":5131:5182   */\n  tag_119\n    /* \"#utility.yul\":5179:5180   */\n  0x00\n    /* \"#utility.yul\":5175:5181   */\n  not\n    /* \"#utility.yul\":5167:5172   */\n  dup5\n    /* \"#utility.yul\":5164:5165   */\n  0x08\n    /* \"#utility.yul\":5160:5173   */\n  mul\n    /* \"#utility.yul\":5131:5182   */\n  tag_59\n  jump\t// in\ntag_119:\n    /* \"#utility.yul\":5127:5183   */\n  not\n    /* \"#utility.yul\":5212:5216   */\n  dup1\n    /* \"#utility.yul\":5206:5210   */\n  dup4\n    /* \"#utility.yul\":5202:5217   */\n  and\n    /* \"#utility.yul\":5192:5217   */\n  swap2\n  pop\n    /* \"#utility.yul\":5105:5223   */\n  pop\n    /* \"#utility.yul\":5054:5223   */\n  swap3\n  swap2\n  pop\n  pop\n  jump\t// out\n    /* \"#utility.yul\":5228:5523   */\ntag_61:\n    /* \"#utility.yul\":5304:5308   */\n  0x00\n    /* \"#utility.yul\":5450:5479   */\n  tag_121\n    /* \"#utility.yul\":5475:5478   */\n  dup4\n    /* \"#utility.yul\":5469:5473   */\n  dup4\n    /* \"#utility.yul\":5450:5479   */\n  tag_60\n  jump\t// in\ntag_121:\n    /* \"#utility.yul\":5442:5479   */\n  swap2\n  pop\n    /* \"#utility.yul\":5512:5515   */\n  dup3\n    /* \"#utility.yul\":5509:5510   */\n  0x02\n    /* \"#utility.yul\":5505:5516   */\n  mul\n    /* \"#utility.yul\":5499:5503   */\n  dup3\n    /* \"#utility.yul\":5496:5517   */\n  or\n    /* \"#utility.yul\":5488:5517   */\n  swap1\n  pop\n    /* \"#utility.yul\":5228:5523   */\n  swap3\n  swap2\n  pop\n  pop\n  jump\t// out\n    /* \"#utility.yul\":5528:6923   */\ntag_13:\n    /* \"#utility.yul\":5645:5682   */\n  tag_123\n    /* \"#utility.yul\":5678:5681   */\n  dup3\n    /* \"#utility.yul\":5645:5682   */\n  tag_42\n  jump\t// in\ntag_123:\n    /* \"#utility.yul\":5747:5765   */\n  0xffffffffffffffff\n    /* \"#utility.yul\":5739:5745   */\n  dup2\n    /* \"#utility.yul\":5736:5766   */\n  gt\n    /* \"#utility.yul\":5733:5789   */\n  iszero\n  tag_124\n  jumpi\n    /* \"#utility.yul\":5769:5787   */\n  tag_125\n  tag_43\n  jump\t// in\ntag_125:\n    /* \"#utility.yul\":5733:5789   */\ntag_124:\n    /* \"#utility.yul\":5813:5851   */\n  tag_126\n    /* \"#utility.yul\":5845:5849   */\n  dup3\n    /* \"#utility.yul\":5839:5850   */\n  sload\n    /* \"#utility.yul\":5813:5851   */\n  tag_45\n  jump\t// in\ntag_126:\n    /* \"#utility.yul\":5898:5965   */\n  tag_127\n    /* \"#utility.yul\":5958:5964   */\n  dup3\n    /* \"#utility.yul\":5950:5956   */\n  dup3\n    /* \"#utility.yul\":5944:5948   */\n  dup6\n    /* \"#utility.yul\":5898:5965   */\n  tag_58\n  jump\t// in\ntag_127:\n    /* \"#utility.yul\":5992:5993   */\n  0x00\n    /* \"#utility.yul\":6016:6020   */\n  0x20\n    /* \"#utility.yul\":6003:6020   */\n  swap1\n  pop\n    /* \"#utility.yul\":6048:6050   */\n  0x1f\n    /* \"#utility.yul\":6040:6046   */\n  dup4\n    /* \"#utility.yul\":6037:6051   */\n  gt\n    /* \"#utility.yul\":6065:6066   */\n  0x01\n    /* \"#utility.yul\":6060:6678   */\n  dup2\n  eq\n  tag_129\n  jumpi\n    /* \"#utility.yul\":6722:6723   */\n  0x00\n    /* \"#utility.yul\":6739:6745   */\n  dup5\n    /* \"#utility.yul\":6736:6813   */\n  iszero\n  tag_130\n  jumpi\n    /* \"#utility.yul\":6788:6797   */\n  dup3\n    /* \"#utility.yul\":6783:6786   */\n  dup8\n    /* \"#utility.yul\":6779:6798   */\n  add\n    /* \"#utility.yul\":6773:6799   */\n  mload\n    /* \"#utility.yul\":6764:6799   */\n  swap1\n  pop\n    /* \"#utility.yul\":6736:6813   */\ntag_130:\n    /* \"#utility.yul\":6839:6906   */\n  tag_131\n    /* \"#utility.yul\":6899:6905   */\n  dup6\n    /* \"#utility.yul\":6892:6897   */\n  dup3\n    /* \"#utility.yul\":6839:6906   */\n  tag_61\n  jump\t// in\ntag_131:\n    /* \"#utility.yul\":6833:6837   */\n  dup7\n    /* \"#utility.yul\":6826:6907   */\n  sstore\n    /* \"#utility.yul\":6695:6917   */\n  pop\n    /* \"#utility.yul\":6030:6917   */\n  jump(tag_128)\n    /* \"#utility.yul\":6060:6678   */\ntag_129:\n    /* \"#utility.yul\":6112:6116   */\n  0x1f\n    /* \"#utility.yul\":6108:6117   */\n  not\n    /* \"#utility.yul\":6100:6106   */\n  dup5\n    /* \"#utility.yul\":6096:6118   */\n  and\n    /* \"#utility.yul\":6146:6183   */\n  tag_132\n    /* \"#utility.yul\":6178:6182   */\n  dup7\n    /* \"#utility.yul\":6146:6183   */\n  tag_46\n  jump\t// in\ntag_132:\n    /* \"#utility.yul\":6205:6206   */\n  0x00\n    /* \"#utility.yul\":6219:6427   */\ntag_133:\n    /* \"#utility.yul\":6233:6240   */\n  dup3\n    /* \"#utility.yul\":6230:6231   */\n  dup2\n    /* \"#utility.yul\":6227:6241   */\n  lt\n    /* \"#utility.yul\":6219:6427   */\n  iszero\n  tag_135\n  jumpi\n    /* \"#utility.yul\":6312:6321   */\n  dup5\n    /* \"#utility.yul\":6307:6310   */\n  dup10\n    /* \"#utility.yul\":6303:6322   */\n  add\n    /* \"#utility.yul\":6297:6323   */\n  mload\n    /* \"#utility.yul\":6289:6295   */\n  dup3\n    /* \"#utility.yul\":6282:6324   */\n  sstore\n    /* \"#utility.yul\":6363:6364   */\n  0x01\n    /* \"#utility.yul\":6355:6361   */\n  dup3\n    /* \"#utility.yul\":6351:6365   */\n  add\n    /* \"#utility.yul\":6341:6365   */\n  swap2\n  pop\n    /* \"#utility.yul\":6410:6412   */\n  0x20\n    /* \"#utility.yul\":6399:6408   */\n  dup6\n    /* \"#utility.yul\":6395:6413   */\n  add\n    /* \"#utility.yul\":6382:6413   */\n  swap5\n  pop\n    /* \"#utility.yul\":6256:6260   */\n  0x20\n    /* \"#utility.yul\":6253:6254   */\n  dup2\n    /* \"#utility.yul\":6249:6261   */\n  add\n    /* \"#utility.yul\":6244:6261   */\n  swap1\n  pop\n    /* \"#utility.yul\":6219:6427   */\n  jump(tag_133)\ntag_135:\n    /* \"#utility.yul\":6455:6461   */\n  dup7\n    /* \"#utility.yul\":6446:6453   */\n  dup4\n    /* \"#utility.yul\":6443:6462   */\n  lt\n    /* \"#utility.yul\":6440:6619   */\n  iszero\n  tag_136\n  jumpi\n    /* \"#utility.yul\":6513:6522   */\n  dup5\n    /* \"#utility.yul\":6508:6511   */\n  dup10\n    /* \"#utility.yul\":6504:6523   */\n  add\n    /* \"#utility.yul\":6498:6524   */\n  mload\n    /* \"#utility.yul\":6556:6604   */\n  tag_137\n    /* \"#utility.yul\":6598:6602   */\n  0x1f\n    /* \"#utility.yul\":6590:6596   */\n  dup10\n    /* \"#utility.yul\":6586:6603   */\n  and\n    /* \"#utility.yul\":6575:6584   */\n  dup3\n    /* \"#utility.yul\":6556:6604   */\n  tag_60\n  jump\t// in\ntag_137:\n    /* \"#utility.yul\":6548:6554   */\n  dup4\n    /* \"#utility.yul\":6541:6605   */\n  sstore\n    /* \"#utility.yul\":6463:6619   */\n  pop\n    /* \"#utility.yul\":6440:6619   */\ntag_136:\n    /* \"#utility.yul\":6665:6666   */\n  0x01\n    /* \"#utility.yul\":6661:6662   */\n  0x02\n    /* \"#utility.yul\":6653:6659   */\n  dup9\n    /* \"#utility.yul\":6649:6663   */\n  mul\n    /* \"#utility.yul\":6645:6667   */\n  add\n    /* \"#utility.yul\":6639:6643   */\n  dup9\n    /* \"#utility.yul\":6632:6668   */\n  sstore\n    /* \"#utility.yul\":6067:6678   */\n  pop\n  pop\n  pop\n    /* \"#utility.yul\":6030:6917   */\ntag_128:\n  pop\n    /* \"#utility.yul\":5620:6923   */\n  pop\n  pop\n  pop\n    /* \"#utility.yul\":5528:6923   */\n  pop\n  pop\n  jump\t// out\n    /* \"ElectronicMedicalRecords.sol\":66:1287  contract ContractDeployer {... */\ntag_35:\n  dataSize(sub_0)\n  dup1\n  dataOffset(sub_0)\n  0x00\n  codecopy\n  0x00\n  return\nstop\n\nsub_0: assembly {\n        /* \"ElectronicMedicalRecords.sol\":66:1287  contract ContractDeployer {... */\n      mstore(0x40, 0x80)\n      callvalue\n      dup1\n      iszero\n      tag_1\n      jumpi\n      0x00\n      dup1\n      revert\n    tag_1:\n      pop\n      jumpi(tag_2, lt(calldatasize, 0x04))\n      shr(0xe0, calldataload(0x00))\n      dup1\n      0xc4fe354c\n      eq\n      tag_3\n      jumpi\n      dup1\n      0xf851a440\n      eq\n      tag_4\n      jumpi\n    tag_2:\n      0x00\n      dup1\n      revert\n        /* \"ElectronicMedicalRecords.sol\":1086:1284  function getAllContractAddress(string memory _name) public view returns (ContractAddress[] memory data) {... */\n    tag_3:\n      tag_5\n      0x04\n      dup1\n      calldatasize\n      sub\n      dup2\n      add\n      swap1\n      tag_6\n      swap2\n      swap1\n      tag_7\n      jump\t// in\n    tag_6:\n      tag_8\n      jump\t// in\n    tag_5:\n      mload(0x40)\n      tag_9\n      swap2\n      swap1\n      tag_10\n      jump\t// in\n    tag_9:\n      mload(0x40)\n      dup1\n      swap2\n      sub\n      swap1\n      return\n        /* \"ElectronicMedicalRecords.sol\":268:288  address public admin */\n    tag_4:\n      tag_11\n      tag_12\n      jump\t// in\n    tag_11:\n      mload(0x40)\n      tag_13\n      swap2\n      swap1\n      tag_14\n      jump\t// in\n    tag_13:\n      mload(0x40)\n      dup1\n      swap2\n      sub\n      swap1\n      return\n        /* \"ElectronicMedicalRecords.sol\":1086:1284  function getAllContractAddress(string memory _name) public view returns (ContractAddress[] memory data) {... */\n    tag_8:\n        /* \"ElectronicMedicalRecords.sol\":1159:1188  ContractAddress[] memory data */\n      0x60\n        /* \"ElectronicMedicalRecords.sol\":1223:1228  admin */\n      0x01\n      0x00\n      swap1\n      sload\n      swap1\n      0x0100\n      exp\n      swap1\n      div\n      0xffffffffffffffffffffffffffffffffffffffff\n      and\n        /* \"ElectronicMedicalRecords.sol\":1209:1228  msg.sender == admin */\n      0xffffffffffffffffffffffffffffffffffffffff\n      and\n        /* \"ElectronicMedicalRecords.sol\":1209:1219  msg.sender */\n      caller\n        /* \"ElectronicMedicalRecords.sol\":1209:1228  msg.sender == admin */\n      0xffffffffffffffffffffffffffffffffffffffff\n      and\n      eq\n        /* \"ElectronicMedicalRecords.sol\":1201:1229  require(msg.sender == admin) */\n      tag_16\n      jumpi\n      0x00\n      dup1\n      revert\n    tag_16:\n        /* \"ElectronicMedicalRecords.sol\":1247:1269  bunchOfContractAddress */\n      0x00\n        /* \"ElectronicMedicalRecords.sol\":1270:1275  _name */\n      dup3\n        /* \"ElectronicMedicalRecords.sol\":1247:1276  bunchOfContractAddress[_name] */\n      mload(0x40)\n      tag_17\n      swap2\n      swap1\n      tag_18\n      jump\t// in\n    tag_17:\n      swap1\n      dup2\n      mstore\n      0x20\n      add\n      mload(0x40)\n      dup1\n      swap2\n      sub\n      swap1\n      keccak256\n        /* \"ElectronicMedicalRecords.sol\":1240:1276  return bunchOfContractAddress[_name] */\n      dup1\n      sload\n      dup1\n      0x20\n      mul\n      0x20\n      add\n      mload(0x40)\n      swap1\n      dup2\n      add\n      0x40\n      mstore\n      dup1\n      swap3\n      swap2\n      swap1\n      dup2\n      dup2\n      mstore\n      0x20\n      add\n      0x00\n      swap1\n    tag_19:\n      dup3\n      dup3\n      lt\n      iszero\n      tag_20\n      jumpi\n      dup4\n      dup3\n      swap1\n      0x00\n      mstore\n      keccak256(0x00, 0x20)\n      swap1\n      0x02\n      mul\n      add\n      mload(0x40)\n      dup1\n      0x40\n      add\n      0x40\n      mstore\n      swap1\n      dup2\n      0x00\n      dup3\n      add\n      dup1\n      sload\n      tag_22\n      swap1\n      tag_23\n      jump\t// in\n    tag_22:\n      dup1\n      0x1f\n      add\n      0x20\n      dup1\n      swap2\n      div\n      mul\n      0x20\n      add\n      mload(0x40)\n      swap1\n      dup2\n      add\n      0x40\n      mstore\n      dup1\n      swap3\n      swap2\n      swap1\n      dup2\n      dup2\n      mstore\n      0x20\n      add\n      dup3\n      dup1\n      sload\n      tag_24\n      swap1\n      tag_23\n      jump\t// in\n    tag_24:\n      dup1\n      iszero\n      tag_25\n      jumpi\n      dup1\n      0x1f\n      lt\n      tag_26\n      jumpi\n      0x0100\n      dup1\n      dup4\n      sload\n      div\n      mul\n      dup4\n      mstore\n      swap2\n      0x20\n      add\n      swap2\n      jump(tag_25)\n    tag_26:\n      dup3\n      add\n      swap2\n      swap1\n      0x00\n      mstore\n      keccak256(0x00, 0x20)\n      swap1\n    tag_27:\n      dup2\n      sload\n      dup2\n      mstore\n      swap1\n      0x01\n      add\n      swap1\n      0x20\n      add\n      dup1\n      dup4\n      gt\n      tag_27\n      jumpi\n      dup3\n      swap1\n      sub\n      0x1f\n      and\n      dup3\n      add\n      swap2\n    tag_25:\n      pop\n      pop\n      pop\n      pop\n      pop\n      dup2\n      mstore\n      0x20\n      add\n      0x01\n      dup3\n      add\n      0x00\n      swap1\n      sload\n      swap1\n      0x0100\n      exp\n      swap1\n      div\n      0xffffffffffffffffffffffffffffffffffffffff\n      and\n      0xffffffffffffffffffffffffffffffffffffffff\n      and\n      0xffffffffffffffffffffffffffffffffffffffff\n      and\n      dup2\n      mstore\n      pop\n      pop\n      dup2\n      mstore\n      0x20\n      add\n      swap1\n      0x01\n      add\n      swap1\n      jump(tag_19)\n    tag_20:\n      pop\n      pop\n      pop\n      pop\n      swap1\n      pop\n        /* \"ElectronicMedicalRecords.sol\":1086:1284  function getAllContractAddress(string memory _name) public view returns (ContractAddress[] memory data) {... */\n      swap2\n      swap1\n      pop\n      jump\t// out\n        /* \"ElectronicMedicalRecords.sol\":268:288  address public admin */\n    tag_12:\n      0x01\n      0x00\n      swap1\n      sload\n      swap1\n      0x0100\n      exp\n      swap1\n      div\n      0xffffffffffffffffffffffffffffffffffffffff\n      and\n      dup2\n      jump\t// out\n        /* \"#utility.yul\":7:82   */\n    tag_28:\n        /* \"#utility.yul\":40:46   */\n      0x00\n        /* \"#utility.yul\":73:75   */\n      0x40\n        /* \"#utility.yul\":67:76   */\n      mload\n        /* \"#utility.yul\":57:76   */\n      swap1\n      pop\n        /* \"#utility.yul\":7:82   */\n      swap1\n      jump\t// out\n        /* \"#utility.yul\":88:205   */\n    tag_29:\n        /* \"#utility.yul\":197:198   */\n      0x00\n        /* \"#utility.yul\":194:195   */\n      dup1\n        /* \"#utility.yul\":187:199   */\n      revert\n        /* \"#utility.yul\":211:328   */\n    tag_30:\n        /* \"#utility.yul\":320:321   */\n      0x00\n        /* \"#utility.yul\":317:318   */\n      dup1\n        /* \"#utility.yul\":310:322   */\n      revert\n        /* \"#utility.yul\":334:451   */\n    tag_31:\n        /* \"#utility.yul\":443:444   */\n      0x00\n        /* \"#utility.yul\":440:441   */\n      dup1\n        /* \"#utility.yul\":433:445   */\n      revert\n        /* \"#utility.yul\":457:574   */\n    tag_32:\n        /* \"#utility.yul\":566:567   */\n      0x00\n        /* \"#utility.yul\":563:564   */\n      dup1\n        /* \"#utility.yul\":556:568   */\n      revert\n        /* \"#utility.yul\":580:682   */\n    tag_33:\n        /* \"#utility.yul\":621:627   */\n      0x00\n        /* \"#utility.yul\":672:674   */\n      0x1f\n        /* \"#utility.yul\":668:675   */\n      not\n        /* \"#utility.yul\":663:665   */\n      0x1f\n        /* \"#utility.yul\":656:661   */\n      dup4\n        /* \"#utility.yul\":652:666   */\n      add\n        /* \"#utility.yul\":648:676   */\n      and\n        /* \"#utility.yul\":638:676   */\n      swap1\n      pop\n        /* \"#utility.yul\":580:682   */\n      swap2\n      swap1\n      pop\n      jump\t// out\n        /* \"#utility.yul\":688:868   */\n    tag_34:\n        /* \"#utility.yul\":736:813   */\n      0x4e487b7100000000000000000000000000000000000000000000000000000000\n        /* \"#utility.yul\":733:734   */\n      0x00\n        /* \"#utility.yul\":726:814   */\n      mstore\n        /* \"#utility.yul\":833:837   */\n      0x41\n        /* \"#utility.yul\":830:831   */\n      0x04\n        /* \"#utility.yul\":823:838   */\n      mstore\n        /* \"#utility.yul\":857:861   */\n      0x24\n        /* \"#utility.yul\":854:855   */\n      0x00\n        /* \"#utility.yul\":847:862   */\n      revert\n        /* \"#utility.yul\":874:1155   */\n    tag_35:\n        /* \"#utility.yul\":957:984   */\n      tag_68\n        /* \"#utility.yul\":979:983   */\n      dup3\n        /* \"#utility.yul\":957:984   */\n      tag_33\n      jump\t// in\n    tag_68:\n        /* \"#utility.yul\":949:955   */\n      dup2\n        /* \"#utility.yul\":945:985   */\n      add\n        /* \"#utility.yul\":1087:1093   */\n      dup2\n        /* \"#utility.yul\":1075:1085   */\n      dup2\n        /* \"#utility.yul\":1072:1094   */\n      lt\n        /* \"#utility.yul\":1051:1069   */\n      0xffffffffffffffff\n        /* \"#utility.yul\":1039:1049   */\n      dup3\n        /* \"#utility.yul\":1036:1070   */\n      gt\n        /* \"#utility.yul\":1033:1095   */\n      or\n        /* \"#utility.yul\":1030:1118   */\n      iszero\n      tag_69\n      jumpi\n        /* \"#utility.yul\":1098:1116   */\n      tag_70\n      tag_34\n      jump\t// in\n    tag_70:\n        /* \"#utility.yul\":1030:1118   */\n    tag_69:\n        /* \"#utility.yul\":1138:1148   */\n      dup1\n        /* \"#utility.yul\":1134:1136   */\n      0x40\n        /* \"#utility.yul\":1127:1149   */\n      mstore\n        /* \"#utility.yul\":917:1155   */\n      pop\n        /* \"#utility.yul\":874:1155   */\n      pop\n      pop\n      jump\t// out\n        /* \"#utility.yul\":1161:1290   */\n    tag_36:\n        /* \"#utility.yul\":1195:1201   */\n      0x00\n        /* \"#utility.yul\":1222:1242   */\n      tag_72\n      tag_28\n      jump\t// in\n    tag_72:\n        /* \"#utility.yul\":1212:1242   */\n      swap1\n      pop\n        /* \"#utility.yul\":1251:1284   */\n      tag_73\n        /* \"#utility.yul\":1279:1283   */\n      dup3\n        /* \"#utility.yul\":1271:1277   */\n      dup3\n        /* \"#utility.yul\":1251:1284   */\n      tag_35\n      jump\t// in\n    tag_73:\n        /* \"#utility.yul\":1161:1290   */\n      swap2\n      swap1\n      pop\n      jump\t// out\n        /* \"#utility.yul\":1296:1604   */\n    tag_37:\n        /* \"#utility.yul\":1358:1362   */\n      0x00\n        /* \"#utility.yul\":1448:1466   */\n      0xffffffffffffffff\n        /* \"#utility.yul\":1440:1446   */\n      dup3\n        /* \"#utility.yul\":1437:1467   */\n      gt\n        /* \"#utility.yul\":1434:1490   */\n      iszero\n      tag_75\n      jumpi\n        /* \"#utility.yul\":1470:1488   */\n      tag_76\n      tag_34\n      jump\t// in\n    tag_76:\n        /* \"#utility.yul\":1434:1490   */\n    tag_75:\n        /* \"#utility.yul\":1508:1537   */\n      tag_77\n        /* \"#utility.yul\":1530:1536   */\n      dup3\n        /* \"#utility.yul\":1508:1537   */\n      tag_33\n      jump\t// in\n    tag_77:\n        /* \"#utility.yul\":1500:1537   */\n      swap1\n      pop\n        /* \"#utility.yul\":1592:1596   */\n      0x20\n        /* \"#utility.yul\":1586:1590   */\n      dup2\n        /* \"#utility.yul\":1582:1597   */\n      add\n        /* \"#utility.yul\":1574:1597   */\n      swap1\n      pop\n        /* \"#utility.yul\":1296:1604   */\n      swap2\n      swap1\n      pop\n      jump\t// out\n        /* \"#utility.yul\":1610:1756   */\n    tag_38:\n        /* \"#utility.yul\":1707:1713   */\n      dup3\n        /* \"#utility.yul\":1702:1705   */\n      dup2\n        /* \"#utility.yul\":1697:1700   */\n      dup4\n        /* \"#utility.yul\":1684:1714   */\n      calldatacopy\n        /* \"#utility.yul\":1748:1749   */\n      0x00\n        /* \"#utility.yul\":1739:1745   */\n      dup4\n        /* \"#utility.yul\":1734:1737   */\n      dup4\n        /* \"#utility.yul\":1730:1746   */\n      add\n        /* \"#utility.yul\":1723:1750   */\n      mstore\n        /* \"#utility.yul\":1610:1756   */\n      pop\n      pop\n      pop\n      jump\t// out\n        /* \"#utility.yul\":1762:2187   */\n    tag_39:\n        /* \"#utility.yul\":1840:1845   */\n      0x00\n        /* \"#utility.yul\":1865:1931   */\n      tag_80\n        /* \"#utility.yul\":1881:1930   */\n      tag_81\n        /* \"#utility.yul\":1923:1929   */\n      dup5\n        /* \"#utility.yul\":1881:1930   */\n      tag_37\n      jump\t// in\n    tag_81:\n        /* \"#utility.yul\":1865:1931   */\n      tag_36\n      jump\t// in\n    tag_80:\n        /* \"#utility.yul\":1856:1931   */\n      swap1\n      pop\n        /* \"#utility.yul\":1954:1960   */\n      dup3\n        /* \"#utility.yul\":1947:1952   */\n      dup2\n        /* \"#utility.yul\":1940:1961   */\n      mstore\n        /* \"#utility.yul\":1992:1996   */\n      0x20\n        /* \"#utility.yul\":1985:1990   */\n      dup2\n        /* \"#utility.yul\":1981:1997   */\n      add\n        /* \"#utility.yul\":2030:2033   */\n      dup5\n        /* \"#utility.yul\":2021:2027   */\n      dup5\n        /* \"#utility.yul\":2016:2019   */\n      dup5\n        /* \"#utility.yul\":2012:2028   */\n      add\n        /* \"#utility.yul\":2009:2034   */\n      gt\n        /* \"#utility.yul\":2006:2118   */\n      iszero\n      tag_82\n      jumpi\n        /* \"#utility.yul\":2037:2116   */\n      tag_83\n      tag_32\n      jump\t// in\n    tag_83:\n        /* \"#utility.yul\":2006:2118   */\n    tag_82:\n        /* \"#utility.yul\":2127:2181   */\n      tag_84\n        /* \"#utility.yul\":2174:2180   */\n      dup5\n        /* \"#utility.yul\":2169:2172   */\n      dup3\n        /* \"#utility.yul\":2164:2167   */\n      dup6\n        /* \"#utility.yul\":2127:2181   */\n      tag_38\n      jump\t// in\n    tag_84:\n        /* \"#utility.yul\":1846:2187   */\n      pop\n        /* \"#utility.yul\":1762:2187   */\n      swap4\n      swap3\n      pop\n      pop\n      pop\n      jump\t// out\n        /* \"#utility.yul\":2207:2547   */\n    tag_40:\n        /* \"#utility.yul\":2263:2268   */\n      0x00\n        /* \"#utility.yul\":2312:2315   */\n      dup3\n        /* \"#utility.yul\":2305:2309   */\n      0x1f\n        /* \"#utility.yul\":2297:2303   */\n      dup4\n        /* \"#utility.yul\":2293:2310   */\n      add\n        /* \"#utility.yul\":2289:2316   */\n      slt\n        /* \"#utility.yul\":2279:2401   */\n      tag_86\n      jumpi\n        /* \"#utility.yul\":2320:2399   */\n      tag_87\n      tag_31\n      jump\t// in\n    tag_87:\n        /* \"#utility.yul\":2279:2401   */\n    tag_86:\n        /* \"#utility.yul\":2437:2443   */\n      dup2\n        /* \"#utility.yul\":2424:2444   */\n      calldataload\n        /* \"#utility.yul\":2462:2541   */\n      tag_88\n        /* \"#utility.yul\":2537:2540   */\n      dup5\n        /* \"#utility.yul\":2529:2535   */\n      dup3\n        /* \"#utility.yul\":2522:2526   */\n      0x20\n        /* \"#utility.yul\":2514:2520   */\n      dup7\n        /* \"#utility.yul\":2510:2527   */\n      add\n        /* \"#utility.yul\":2462:2541   */\n      tag_39\n      jump\t// in\n    tag_88:\n        /* \"#utility.yul\":2453:2541   */\n      swap2\n      pop\n        /* \"#utility.yul\":2269:2547   */\n      pop\n        /* \"#utility.yul\":2207:2547   */\n      swap3\n      swap2\n      pop\n      pop\n      jump\t// out\n        /* \"#utility.yul\":2553:3062   */\n    tag_7:\n        /* \"#utility.yul\":2622:2628   */\n      0x00\n        /* \"#utility.yul\":2671:2673   */\n      0x20\n        /* \"#utility.yul\":2659:2668   */\n      dup3\n        /* \"#utility.yul\":2650:2657   */\n      dup5\n        /* \"#utility.yul\":2646:2669   */\n      sub\n        /* \"#utility.yul\":2642:2674   */\n      slt\n        /* \"#utility.yul\":2639:2758   */\n      iszero\n      tag_90\n      jumpi\n        /* \"#utility.yul\":2677:2756   */\n      tag_91\n      tag_29\n      jump\t// in\n    tag_91:\n        /* \"#utility.yul\":2639:2758   */\n    tag_90:\n        /* \"#utility.yul\":2825:2826   */\n      0x00\n        /* \"#utility.yul\":2814:2823   */\n      dup3\n        /* \"#utility.yul\":2810:2827   */\n      add\n        /* \"#utility.yul\":2797:2828   */\n      calldataload\n        /* \"#utility.yul\":2855:2873   */\n      0xffffffffffffffff\n        /* \"#utility.yul\":2847:2853   */\n      dup2\n        /* \"#utility.yul\":2844:2874   */\n      gt\n        /* \"#utility.yul\":2841:2958   */\n      iszero\n      tag_92\n      jumpi\n        /* \"#utility.yul\":2877:2956   */\n      tag_93\n      tag_30\n      jump\t// in\n    tag_93:\n        /* \"#utility.yul\":2841:2958   */\n    tag_92:\n        /* \"#utility.yul\":2982:3045   */\n      tag_94\n        /* \"#utility.yul\":3037:3044   */\n      dup5\n        /* \"#utility.yul\":3028:3034   */\n      dup3\n        /* \"#utility.yul\":3017:3026   */\n      dup6\n        /* \"#utility.yul\":3013:3035   */\n      add\n        /* \"#utility.yul\":2982:3045   */\n      tag_40\n      jump\t// in\n    tag_94:\n        /* \"#utility.yul\":2972:3045   */\n      swap2\n      pop\n        /* \"#utility.yul\":2768:3055   */\n      pop\n        /* \"#utility.yul\":2553:3062   */\n      swap3\n      swap2\n      pop\n      pop\n      jump\t// out\n        /* \"#utility.yul\":3068:3212   */\n    tag_41:\n        /* \"#utility.yul\":3165:3171   */\n      0x00\n        /* \"#utility.yul\":3199:3204   */\n      dup2\n        /* \"#utility.yul\":3193:3205   */\n      mload\n        /* \"#utility.yul\":3183:3205   */\n      swap1\n      pop\n        /* \"#utility.yul\":3068:3212   */\n      swap2\n      swap1\n      pop\n      jump\t// out\n        /* \"#utility.yul\":3218:3432   */\n    tag_42:\n        /* \"#utility.yul\":3347:3358   */\n      0x00\n        /* \"#utility.yul\":3381:3387   */\n      dup3\n        /* \"#utility.yul\":3376:3379   */\n      dup3\n        /* \"#utility.yul\":3369:3388   */\n      mstore\n        /* \"#utility.yul\":3421:3425   */\n      0x20\n        /* \"#utility.yul\":3416:3419   */\n      dup3\n        /* \"#utility.yul\":3412:3426   */\n      add\n        /* \"#utility.yul\":3397:3426   */\n      swap1\n      pop\n        /* \"#utility.yul\":3218:3432   */\n      swap3\n      swap2\n      pop\n      pop\n      jump\t// out\n        /* \"#utility.yul\":3438:3600   */\n    tag_43:\n        /* \"#utility.yul\":3535:3539   */\n      0x00\n        /* \"#utility.yul\":3558:3561   */\n      dup2\n        /* \"#utility.yul\":3550:3561   */\n      swap1\n      pop\n        /* \"#utility.yul\":3588:3592   */\n      0x20\n        /* \"#utility.yul\":3583:3586   */\n      dup3\n        /* \"#utility.yul\":3579:3593   */\n      add\n        /* \"#utility.yul\":3571:3593   */\n      swap1\n      pop\n        /* \"#utility.yul\":3438:3600   */\n      swap2\n      swap1\n      pop\n      jump\t// out\n        /* \"#utility.yul\":3606:3705   */\n    tag_44:\n        /* \"#utility.yul\":3658:3664   */\n      0x00\n        /* \"#utility.yul\":3692:3697   */\n      dup2\n        /* \"#utility.yul\":3686:3698   */\n      mload\n        /* \"#utility.yul\":3676:3698   */\n      swap1\n      pop\n        /* \"#utility.yul\":3606:3705   */\n      swap2\n      swap1\n      pop\n      jump\t// out\n        /* \"#utility.yul\":3711:3870   */\n    tag_45:\n        /* \"#utility.yul\":3785:3796   */\n      0x00\n        /* \"#utility.yul\":3819:3825   */\n      dup3\n        /* \"#utility.yul\":3814:3817   */\n      dup3\n        /* \"#utility.yul\":3807:3826   */\n      mstore\n        /* \"#utility.yul\":3859:3863   */\n      0x20\n        /* \"#utility.yul\":3854:3857   */\n      dup3\n        /* \"#utility.yul\":3850:3864   */\n      add\n        /* \"#utility.yul\":3835:3864   */\n      swap1\n      pop\n        /* \"#utility.yul\":3711:3870   */\n      swap3\n      swap2\n      pop\n      pop\n      jump\t// out\n        /* \"#utility.yul\":3876:4122   */\n    tag_46:\n        /* \"#utility.yul\":3957:3958   */\n      0x00\n        /* \"#utility.yul\":3967:4080   */\n    tag_101:\n        /* \"#utility.yul\":3981:3987   */\n      dup4\n        /* \"#utility.yul\":3978:3979   */\n      dup2\n        /* \"#utility.yul\":3975:3988   */\n      lt\n        /* \"#utility.yul\":3967:4080   */\n      iszero\n      tag_103\n      jumpi\n        /* \"#utility.yul\":4066:4067   */\n      dup1\n        /* \"#utility.yul\":4061:4064   */\n      dup3\n        /* \"#utility.yul\":4057:4068   */\n      add\n        /* \"#utility.yul\":4051:4069   */\n      mload\n        /* \"#utility.yul\":4047:4048   */\n      dup2\n        /* \"#utility.yul\":4042:4045   */\n      dup5\n        /* \"#utility.yul\":4038:4049   */\n      add\n        /* \"#utility.yul\":4031:4070   */\n      mstore\n        /* \"#utility.yul\":4003:4005   */\n      0x20\n        /* \"#utility.yul\":4000:4001   */\n      dup2\n        /* \"#utility.yul\":3996:4006   */\n      add\n        /* \"#utility.yul\":3991:4006   */\n      swap1\n      pop\n        /* \"#utility.yul\":3967:4080   */\n      jump(tag_101)\n    tag_103:\n        /* \"#utility.yul\":4114:4115   */\n      0x00\n        /* \"#utility.yul\":4105:4111   */\n      dup5\n        /* \"#utility.yul\":4100:4103   */\n      dup5\n        /* \"#utility.yul\":4096:4112   */\n      add\n        /* \"#utility.yul\":4089:4116   */\n      mstore\n        /* \"#utility.yul\":3938:4122   */\n      pop\n        /* \"#utility.yul\":3876:4122   */\n      pop\n      pop\n      pop\n      jump\t// out\n        /* \"#utility.yul\":4128:4485   */\n    tag_47:\n        /* \"#utility.yul\":4206:4209   */\n      0x00\n        /* \"#utility.yul\":4234:4273   */\n      tag_105\n        /* \"#utility.yul\":4267:4272   */\n      dup3\n        /* \"#utility.yul\":4234:4273   */\n      tag_44\n      jump\t// in\n    tag_105:\n        /* \"#utility.yul\":4289:4350   */\n      tag_106\n        /* \"#utility.yul\":4343:4349   */\n      dup2\n        /* \"#utility.yul\":4338:4341   */\n      dup6\n        /* \"#utility.yul\":4289:4350   */\n      tag_45\n      jump\t// in\n    tag_106:\n        /* \"#utility.yul\":4282:4350   */\n      swap4\n      pop\n        /* \"#utility.yul\":4359:4424   */\n      tag_107\n        /* \"#utility.yul\":4417:4423   */\n      dup2\n        /* \"#utility.yul\":4412:4415   */\n      dup6\n        /* \"#utility.yul\":4405:4409   */\n      0x20\n        /* \"#utility.yul\":4398:4403   */\n      dup7\n        /* \"#utility.yul\":4394:4410   */\n      add\n        /* \"#utility.yul\":4359:4424   */\n      tag_46\n      jump\t// in\n    tag_107:\n        /* \"#utility.yul\":4449:4478   */\n      tag_108\n        /* \"#utility.yul\":4471:4477   */\n      dup2\n        /* \"#utility.yul\":4449:4478   */\n      tag_33\n      jump\t// in\n    tag_108:\n        /* \"#utility.yul\":4444:4447   */\n      dup5\n        /* \"#utility.yul\":4440:4479   */\n      add\n        /* \"#utility.yul\":4433:4479   */\n      swap2\n      pop\n        /* \"#utility.yul\":4210:4485   */\n      pop\n        /* \"#utility.yul\":4128:4485   */\n      swap3\n      swap2\n      pop\n      pop\n      jump\t// out\n        /* \"#utility.yul\":4491:4617   */\n    tag_48:\n        /* \"#utility.yul\":4528:4535   */\n      0x00\n        /* \"#utility.yul\":4568:4610   */\n      0xffffffffffffffffffffffffffffffffffffffff\n        /* \"#utility.yul\":4561:4566   */\n      dup3\n        /* \"#utility.yul\":4557:4611   */\n      and\n        /* \"#utility.yul\":4546:4611   */\n      swap1\n      pop\n        /* \"#utility.yul\":4491:4617   */\n      swap2\n      swap1\n      pop\n      jump\t// out\n        /* \"#utility.yul\":4623:4719   */\n    tag_49:\n        /* \"#utility.yul\":4660:4667   */\n      0x00\n        /* \"#utility.yul\":4689:4713   */\n      tag_111\n        /* \"#utility.yul\":4707:4712   */\n      dup3\n        /* \"#utility.yul\":4689:4713   */\n      tag_48\n      jump\t// in\n    tag_111:\n        /* \"#utility.yul\":4678:4713   */\n      swap1\n      pop\n        /* \"#utility.yul\":4623:4719   */\n      swap2\n      swap1\n      pop\n      jump\t// out\n        /* \"#utility.yul\":4725:4833   */\n    tag_50:\n        /* \"#utility.yul\":4802:4826   */\n      tag_113\n        /* \"#utility.yul\":4820:4825   */\n      dup2\n        /* \"#utility.yul\":4802:4826   */\n      tag_49\n      jump\t// in\n    tag_113:\n        /* \"#utility.yul\":4797:4800   */\n      dup3\n        /* \"#utility.yul\":4790:4827   */\n      mstore\n        /* \"#utility.yul\":4725:4833   */\n      pop\n      pop\n      jump\t// out\n        /* \"#utility.yul\":4929:5546   */\n    tag_51:\n        /* \"#utility.yul\":5048:5051   */\n      0x00\n        /* \"#utility.yul\":5084:5088   */\n      0x40\n        /* \"#utility.yul\":5079:5082   */\n      dup4\n        /* \"#utility.yul\":5075:5089   */\n      add\n        /* \"#utility.yul\":5171:5175   */\n      0x00\n        /* \"#utility.yul\":5164:5169   */\n      dup4\n        /* \"#utility.yul\":5160:5176   */\n      add\n        /* \"#utility.yul\":5154:5177   */\n      mload\n        /* \"#utility.yul\":5224:5227   */\n      dup5\n        /* \"#utility.yul\":5218:5222   */\n      dup3\n        /* \"#utility.yul\":5214:5228   */\n      sub\n        /* \"#utility.yul\":5207:5211   */\n      0x00\n        /* \"#utility.yul\":5202:5205   */\n      dup7\n        /* \"#utility.yul\":5198:5212   */\n      add\n        /* \"#utility.yul\":5191:5229   */\n      mstore\n        /* \"#utility.yul\":5250:5323   */\n      tag_115\n        /* \"#utility.yul\":5318:5322   */\n      dup3\n        /* \"#utility.yul\":5304:5316   */\n      dup3\n        /* \"#utility.yul\":5250:5323   */\n      tag_47\n      jump\t// in\n    tag_115:\n        /* \"#utility.yul\":5242:5323   */\n      swap2\n      pop\n        /* \"#utility.yul\":5099:5334   */\n      pop\n        /* \"#utility.yul\":5427:5431   */\n      0x20\n        /* \"#utility.yul\":5420:5425   */\n      dup4\n        /* \"#utility.yul\":5416:5432   */\n      add\n        /* \"#utility.yul\":5410:5433   */\n      mload\n        /* \"#utility.yul\":5446:5509   */\n      tag_116\n        /* \"#utility.yul\":5503:5507   */\n      0x20\n        /* \"#utility.yul\":5498:5501   */\n      dup7\n        /* \"#utility.yul\":5494:5508   */\n      add\n        /* \"#utility.yul\":5480:5492   */\n      dup3\n        /* \"#utility.yul\":5446:5509   */\n      tag_50\n      jump\t// in\n    tag_116:\n        /* \"#utility.yul\":5344:5519   */\n      pop\n        /* \"#utility.yul\":5536:5540   */\n      dup1\n        /* \"#utility.yul\":5529:5540   */\n      swap2\n      pop\n        /* \"#utility.yul\":5053:5546   */\n      pop\n        /* \"#utility.yul\":4929:5546   */\n      swap3\n      swap2\n      pop\n      pop\n      jump\t// out\n        /* \"#utility.yul\":5552:5828   */\n    tag_52:\n        /* \"#utility.yul\":5681:5691   */\n      0x00\n        /* \"#utility.yul\":5716:5822   */\n      tag_118\n        /* \"#utility.yul\":5818:5821   */\n      dup4\n        /* \"#utility.yul\":5810:5816   */\n      dup4\n        /* \"#utility.yul\":5716:5822   */\n      tag_51\n      jump\t// in\n    tag_118:\n        /* \"#utility.yul\":5702:5822   */\n      swap1\n      pop\n        /* \"#utility.yul\":5552:5828   */\n      swap3\n      swap2\n      pop\n      pop\n      jump\t// out\n        /* \"#utility.yul\":5834:5977   */\n    tag_53:\n        /* \"#utility.yul\":5934:5938   */\n      0x00\n        /* \"#utility.yul\":5966:5970   */\n      0x20\n        /* \"#utility.yul\":5961:5964   */\n      dup3\n        /* \"#utility.yul\":5957:5971   */\n      add\n        /* \"#utility.yul\":5949:5971   */\n      swap1\n      pop\n        /* \"#utility.yul\":5834:5977   */\n      swap2\n      swap1\n      pop\n      jump\t// out\n        /* \"#utility.yul\":6077:7228   */\n    tag_54:\n        /* \"#utility.yul\":6256:6259   */\n      0x00\n        /* \"#utility.yul\":6285:6369   */\n      tag_121\n        /* \"#utility.yul\":6363:6368   */\n      dup3\n        /* \"#utility.yul\":6285:6369   */\n      tag_41\n      jump\t// in\n    tag_121:\n        /* \"#utility.yul\":6385:6501   */\n      tag_122\n        /* \"#utility.yul\":6494:6500   */\n      dup2\n        /* \"#utility.yul\":6489:6492   */\n      dup6\n        /* \"#utility.yul\":6385:6501   */\n      tag_42\n      jump\t// in\n    tag_122:\n        /* \"#utility.yul\":6378:6501   */\n      swap4\n      pop\n        /* \"#utility.yul\":6527:6530   */\n      dup4\n        /* \"#utility.yul\":6572:6576   */\n      0x20\n        /* \"#utility.yul\":6564:6570   */\n      dup3\n        /* \"#utility.yul\":6560:6577   */\n      mul\n        /* \"#utility.yul\":6555:6558   */\n      dup6\n        /* \"#utility.yul\":6551:6578   */\n      add\n        /* \"#utility.yul\":6602:6688   */\n      tag_123\n        /* \"#utility.yul\":6682:6687   */\n      dup6\n        /* \"#utility.yul\":6602:6688   */\n      tag_43\n      jump\t// in\n    tag_123:\n        /* \"#utility.yul\":6711:6718   */\n      dup1\n        /* \"#utility.yul\":6742:6743   */\n      0x00\n        /* \"#utility.yul\":6727:7183   */\n    tag_124:\n        /* \"#utility.yul\":6752:6758   */\n      dup6\n        /* \"#utility.yul\":6749:6750   */\n      dup2\n        /* \"#utility.yul\":6746:6759   */\n      lt\n        /* \"#utility.yul\":6727:7183   */\n      iszero\n      tag_126\n      jumpi\n        /* \"#utility.yul\":6823:6832   */\n      dup5\n        /* \"#utility.yul\":6817:6821   */\n      dup5\n        /* \"#utility.yul\":6813:6833   */\n      sub\n        /* \"#utility.yul\":6808:6811   */\n      dup10\n        /* \"#utility.yul\":6801:6834   */\n      mstore\n        /* \"#utility.yul\":6874:6880   */\n      dup2\n        /* \"#utility.yul\":6868:6881   */\n      mload\n        /* \"#utility.yul\":6902:7026   */\n      tag_127\n        /* \"#utility.yul\":7021:7025   */\n      dup6\n        /* \"#utility.yul\":7006:7019   */\n      dup3\n        /* \"#utility.yul\":6902:7026   */\n      tag_52\n      jump\t// in\n    tag_127:\n        /* \"#utility.yul\":6894:7026   */\n      swap5\n      pop\n        /* \"#utility.yul\":7049:7139   */\n      tag_128\n        /* \"#utility.yul\":7132:7138   */\n      dup4\n        /* \"#utility.yul\":7049:7139   */\n      tag_53\n      jump\t// in\n    tag_128:\n        /* \"#utility.yul\":7039:7139   */\n      swap3\n      pop\n        /* \"#utility.yul\":7168:7172   */\n      0x20\n        /* \"#utility.yul\":7163:7166   */\n      dup11\n        /* \"#utility.yul\":7159:7173   */\n      add\n        /* \"#utility.yul\":7152:7173   */\n      swap10\n      pop\n        /* \"#utility.yul\":6787:7183   */\n      pop\n        /* \"#utility.yul\":6774:6775   */\n      0x01\n        /* \"#utility.yul\":6771:6772   */\n      dup2\n        /* \"#utility.yul\":6767:6776   */\n      add\n        /* \"#utility.yul\":6762:6776   */\n      swap1\n      pop\n        /* \"#utility.yul\":6727:7183   */\n      jump(tag_124)\n    tag_126:\n        /* \"#utility.yul\":6731:6745   */\n      pop\n        /* \"#utility.yul\":7199:7203   */\n      dup3\n        /* \"#utility.yul\":7192:7203   */\n      swap8\n      pop\n        /* \"#utility.yul\":7219:7222   */\n      dup8\n        /* \"#utility.yul\":7212:7222   */\n      swap6\n      pop\n        /* \"#utility.yul\":6261:7228   */\n      pop\n      pop\n      pop\n      pop\n      pop\n        /* \"#utility.yul\":6077:7228   */\n      swap3\n      swap2\n      pop\n      pop\n      jump\t// out\n        /* \"#utility.yul\":7234:7727   */\n    tag_10:\n        /* \"#utility.yul\":7437:7441   */\n      0x00\n        /* \"#utility.yul\":7475:7477   */\n      0x20\n        /* \"#utility.yul\":7464:7473   */\n      dup3\n        /* \"#utility.yul\":7460:7478   */\n      add\n        /* \"#utility.yul\":7452:7478   */\n      swap1\n      pop\n        /* \"#utility.yul\":7524:7533   */\n      dup2\n        /* \"#utility.yul\":7518:7522   */\n      dup2\n        /* \"#utility.yul\":7514:7534   */\n      sub\n        /* \"#utility.yul\":7510:7511   */\n      0x00\n        /* \"#utility.yul\":7499:7508   */\n      dup4\n        /* \"#utility.yul\":7495:7512   */\n      add\n        /* \"#utility.yul\":7488:7535   */\n      mstore\n        /* \"#utility.yul\":7552:7720   */\n      tag_130\n        /* \"#utility.yul\":7715:7719   */\n      dup2\n        /* \"#utility.yul\":7706:7712   */\n      dup5\n        /* \"#utility.yul\":7552:7720   */\n      tag_54\n      jump\t// in\n    tag_130:\n        /* \"#utility.yul\":7544:7720   */\n      swap1\n      pop\n        /* \"#utility.yul\":7234:7727   */\n      swap3\n      swap2\n      pop\n      pop\n      jump\t// out\n        /* \"#utility.yul\":7733:7851   */\n    tag_55:\n        /* \"#utility.yul\":7820:7844   */\n      tag_132\n        /* \"#utility.yul\":7838:7843   */\n      dup2\n        /* \"#utility.yul\":7820:7844   */\n      tag_49\n      jump\t// in\n    tag_132:\n        /* \"#utility.yul\":7815:7818   */\n      dup3\n        /* \"#utility.yul\":7808:7845   */\n      mstore\n        /* \"#utility.yul\":7733:7851   */\n      pop\n      pop\n      jump\t// out\n        /* \"#utility.yul\":7857:8079   */\n    tag_14:\n        /* \"#utility.yul\":7950:7954   */\n      0x00\n        /* \"#utility.yul\":7988:7990   */\n      0x20\n        /* \"#utility.yul\":7977:7986   */\n      dup3\n        /* \"#utility.yul\":7973:7991   */\n      add\n        /* \"#utility.yul\":7965:7991   */\n      swap1\n      pop\n        /* \"#utility.yul\":8001:8072   */\n      tag_134\n        /* \"#utility.yul\":8069:8070   */\n      0x00\n        /* \"#utility.yul\":8058:8067   */\n      dup4\n        /* \"#utility.yul\":8054:8071   */\n      add\n        /* \"#utility.yul\":8045:8051   */\n      dup5\n        /* \"#utility.yul\":8001:8072   */\n      tag_55\n      jump\t// in\n    tag_134:\n        /* \"#utility.yul\":7857:8079   */\n      swap3\n      swap2\n      pop\n      pop\n      jump\t// out\n        /* \"#utility.yul\":8085:8233   */\n    tag_56:\n        /* \"#utility.yul\":8187:8198   */\n      0x00\n        /* \"#utility.yul\":8224:8227   */\n      dup2\n        /* \"#utility.yul\":8209:8227   */\n      swap1\n      pop\n        /* \"#utility.yul\":8085:8233   */\n      swap3\n      swap2\n      pop\n      pop\n      jump\t// out\n        /* \"#utility.yul\":8239:8629   */\n    tag_57:\n        /* \"#utility.yul\":8345:8348   */\n      0x00\n        /* \"#utility.yul\":8373:8412   */\n      tag_137\n        /* \"#utility.yul\":8406:8411   */\n      dup3\n        /* \"#utility.yul\":8373:8412   */\n      tag_44\n      jump\t// in\n    tag_137:\n        /* \"#utility.yul\":8428:8517   */\n      tag_138\n        /* \"#utility.yul\":8510:8516   */\n      dup2\n        /* \"#utility.yul\":8505:8508   */\n      dup6\n        /* \"#utility.yul\":8428:8517   */\n      tag_56\n      jump\t// in\n    tag_138:\n        /* \"#utility.yul\":8421:8517   */\n      swap4\n      pop\n        /* \"#utility.yul\":8526:8591   */\n      tag_139\n        /* \"#utility.yul\":8584:8590   */\n      dup2\n        /* \"#utility.yul\":8579:8582   */\n      dup6\n        /* \"#utility.yul\":8572:8576   */\n      0x20\n        /* \"#utility.yul\":8565:8570   */\n      dup7\n        /* \"#utility.yul\":8561:8577   */\n      add\n        /* \"#utility.yul\":8526:8591   */\n      tag_46\n      jump\t// in\n    tag_139:\n        /* \"#utility.yul\":8616:8622   */\n      dup1\n        /* \"#utility.yul\":8611:8614   */\n      dup5\n        /* \"#utility.yul\":8607:8623   */\n      add\n        /* \"#utility.yul\":8600:8623   */\n      swap2\n      pop\n        /* \"#utility.yul\":8349:8629   */\n      pop\n        /* \"#utility.yul\":8239:8629   */\n      swap3\n      swap2\n      pop\n      pop\n      jump\t// out\n        /* \"#utility.yul\":8635:8910   */\n    tag_18:\n        /* \"#utility.yul\":8767:8770   */\n      0x00\n        /* \"#utility.yul\":8789:8884   */\n      tag_141\n        /* \"#utility.yul\":8880:8883   */\n      dup3\n        /* \"#utility.yul\":8871:8877   */\n      dup5\n        /* \"#utility.yul\":8789:8884   */\n      tag_57\n      jump\t// in\n    tag_141:\n        /* \"#utility.yul\":8782:8884   */\n      swap2\n      pop\n        /* \"#utility.yul\":8901:8904   */\n      dup2\n        /* \"#utility.yul\":8894:8904   */\n      swap1\n      pop\n        /* \"#utility.yul\":8635:8910   */\n      swap3\n      swap2\n      pop\n      pop\n      jump\t// out\n        /* \"#utility.yul\":8916:9096   */\n    tag_58:\n        /* \"#utility.yul\":8964:9041   */\n      0x4e487b7100000000000000000000000000000000000000000000000000000000\n        /* \"#utility.yul\":8961:8962   */\n      0x00\n        /* \"#utility.yul\":8954:9042   */\n      mstore\n        /* \"#utility.yul\":9061:9065   */\n      0x22\n        /* \"#utility.yul\":9058:9059   */\n      0x04\n        /* \"#utility.yul\":9051:9066   */\n      mstore\n        /* \"#utility.yul\":9085:9089   */\n      0x24\n        /* \"#utility.yul\":9082:9083   */\n      0x00\n        /* \"#utility.yul\":9075:9090   */\n      revert\n        /* \"#utility.yul\":9102:9422   */\n    tag_23:\n        /* \"#utility.yul\":9146:9152   */\n      0x00\n        /* \"#utility.yul\":9183:9184   */\n      0x02\n        /* \"#utility.yul\":9177:9181   */\n      dup3\n        /* \"#utility.yul\":9173:9185   */\n      div\n        /* \"#utility.yul\":9163:9185   */\n      swap1\n      pop\n        /* \"#utility.yul\":9230:9231   */\n      0x01\n        /* \"#utility.yul\":9224:9228   */\n      dup3\n        /* \"#utility.yul\":9220:9232   */\n      and\n        /* \"#utility.yul\":9251:9269   */\n      dup1\n        /* \"#utility.yul\":9241:9322   */\n      tag_144\n      jumpi\n        /* \"#utility.yul\":9307:9311   */\n      0x7f\n        /* \"#utility.yul\":9299:9305   */\n      dup3\n        /* \"#utility.yul\":9295:9312   */\n      and\n        /* \"#utility.yul\":9285:9312   */\n      swap2\n      pop\n        /* \"#utility.yul\":9241:9322   */\n    tag_144:\n        /* \"#utility.yul\":9369:9371   */\n      0x20\n        /* \"#utility.yul\":9361:9367   */\n      dup3\n        /* \"#utility.yul\":9358:9372   */\n      lt\n        /* \"#utility.yul\":9338:9356   */\n      dup2\n        /* \"#utility.yul\":9335:9373   */\n      sub\n        /* \"#utility.yul\":9332:9416   */\n      tag_145\n      jumpi\n        /* \"#utility.yul\":9388:9406   */\n      tag_146\n      tag_58\n      jump\t// in\n    tag_146:\n        /* \"#utility.yul\":9332:9416   */\n    tag_145:\n        /* \"#utility.yul\":9153:9422   */\n      pop\n        /* \"#utility.yul\":9102:9422   */\n      swap2\n      swap1\n      pop\n      jump\t// out\n\n    auxdata: 0xa26469706673582212207dd79dd42717d861ece7914cb28b54216eb37333d2737a7311b58f61b5fa9fa864736f6c63430008110033\n}\n\nsub_1: assembly {\n        /* \"ElectronicMedicalRecords.sol\":1291:9994  contract MedicalRecords {... */\n      mstore(0x40, 0x80)\n        /* \"ElectronicMedicalRecords.sol\":4185:4246  constructor(address _admin) {... */\n      callvalue\n      dup1\n      iszero\n      tag_1\n      jumpi\n      0x00\n      dup1\n      revert\n    tag_1:\n      pop\n      mload(0x40)\n      sub(codesize, bytecodeSize)\n      dup1\n      bytecodeSize\n      dup4\n      codecopy\n      dup2\n      dup2\n      add\n      0x40\n      mstore\n      dup2\n      add\n      swap1\n      tag_2\n      swap2\n      swap1\n      tag_3\n      jump\t// in\n    tag_2:\n        /* \"ElectronicMedicalRecords.sol\":4232:4238  _admin */\n      dup1\n        /* \"ElectronicMedicalRecords.sol\":4224:4229  admin */\n      0x05\n      0x00\n        /* \"ElectronicMedicalRecords.sol\":4224:4238  admin = _admin */\n      0x0100\n      exp\n      dup2\n      sload\n      dup2\n      0xffffffffffffffffffffffffffffffffffffffff\n      mul\n      not\n      and\n      swap1\n      dup4\n      0xffffffffffffffffffffffffffffffffffffffff\n      and\n      mul\n      or\n      swap1\n      sstore\n      pop\n        /* \"ElectronicMedicalRecords.sol\":4185:4246  constructor(address _admin) {... */\n      pop\n        /* \"ElectronicMedicalRecords.sol\":1291:9994  contract MedicalRecords {... */\n      jump(tag_6)\n        /* \"#utility.yul\":88:205   */\n    tag_8:\n        /* \"#utility.yul\":197:198   */\n      0x00\n        /* \"#utility.yul\":194:195   */\n      dup1\n        /* \"#utility.yul\":187:199   */\n      revert\n        /* \"#utility.yul\":334:460   */\n    tag_10:\n        /* \"#utility.yul\":371:378   */\n      0x00\n        /* \"#utility.yul\":411:453   */\n      0xffffffffffffffffffffffffffffffffffffffff\n        /* \"#utility.yul\":404:409   */\n      dup3\n        /* \"#utility.yul\":400:454   */\n      and\n        /* \"#utility.yul\":389:454   */\n      swap1\n      pop\n        /* \"#utility.yul\":334:460   */\n      swap2\n      swap1\n      pop\n      jump\t// out\n        /* \"#utility.yul\":466:562   */\n    tag_11:\n        /* \"#utility.yul\":503:510   */\n      0x00\n        /* \"#utility.yul\":532:556   */\n      tag_20\n        /* \"#utility.yul\":550:555   */\n      dup3\n        /* \"#utility.yul\":532:556   */\n      tag_10\n      jump\t// in\n    tag_20:\n        /* \"#utility.yul\":521:556   */\n      swap1\n      pop\n        /* \"#utility.yul\":466:562   */\n      swap2\n      swap1\n      pop\n      jump\t// out\n        /* \"#utility.yul\":568:690   */\n    tag_12:\n        /* \"#utility.yul\":641:665   */\n      tag_22\n        /* \"#utility.yul\":659:664   */\n      dup2\n        /* \"#utility.yul\":641:665   */\n      tag_11\n      jump\t// in\n    tag_22:\n        /* \"#utility.yul\":634:639   */\n      dup2\n        /* \"#utility.yul\":631:666   */\n      eq\n        /* \"#utility.yul\":621:684   */\n      tag_23\n      jumpi\n        /* \"#utility.yul\":680:681   */\n      0x00\n        /* \"#utility.yul\":677:678   */\n      dup1\n        /* \"#utility.yul\":670:682   */\n      revert\n        /* \"#utility.yul\":621:684   */\n    tag_23:\n        /* \"#utility.yul\":568:690   */\n      pop\n      jump\t// out\n        /* \"#utility.yul\":696:839   */\n    tag_13:\n        /* \"#utility.yul\":753:758   */\n      0x00\n        /* \"#utility.yul\":784:790   */\n      dup2\n        /* \"#utility.yul\":778:791   */\n      mload\n        /* \"#utility.yul\":769:791   */\n      swap1\n      pop\n        /* \"#utility.yul\":800:833   */\n      tag_25\n        /* \"#utility.yul\":827:832   */\n      dup2\n        /* \"#utility.yul\":800:833   */\n      tag_12\n      jump\t// in\n    tag_25:\n        /* \"#utility.yul\":696:839   */\n      swap3\n      swap2\n      pop\n      pop\n      jump\t// out\n        /* \"#utility.yul\":845:1196   */\n    tag_3:\n        /* \"#utility.yul\":915:921   */\n      0x00\n        /* \"#utility.yul\":964:966   */\n      0x20\n        /* \"#utility.yul\":952:961   */\n      dup3\n        /* \"#utility.yul\":943:950   */\n      dup5\n        /* \"#utility.yul\":939:962   */\n      sub\n        /* \"#utility.yul\":935:967   */\n      slt\n        /* \"#utility.yul\":932:1051   */\n      iszero\n      tag_27\n      jumpi\n        /* \"#utility.yul\":970:1049   */\n      tag_28\n      tag_8\n      jump\t// in\n    tag_28:\n        /* \"#utility.yul\":932:1051   */\n    tag_27:\n        /* \"#utility.yul\":1090:1091   */\n      0x00\n        /* \"#utility.yul\":1115:1179   */\n      tag_29\n        /* \"#utility.yul\":1171:1178   */\n      dup5\n        /* \"#utility.yul\":1162:1168   */\n      dup3\n        /* \"#utility.yul\":1151:1160   */\n      dup6\n        /* \"#utility.yul\":1147:1169   */\n      add\n        /* \"#utility.yul\":1115:1179   */\n      tag_13\n      jump\t// in\n    tag_29:\n        /* \"#utility.yul\":1105:1179   */\n      swap2\n      pop\n        /* \"#utility.yul\":1061:1189   */\n      pop\n        /* \"#utility.yul\":845:1196   */\n      swap3\n      swap2\n      pop\n      pop\n      jump\t// out\n        /* \"ElectronicMedicalRecords.sol\":1291:9994  contract MedicalRecords {... */\n    tag_6:\n      dataSize(sub_0)\n      dup1\n      dataOffset(sub_0)\n      0x00\n      codecopy\n      0x00\n      return\n    stop\n\n    sub_0: assembly {\n            /* \"ElectronicMedicalRecords.sol\":1291:9994  contract MedicalRecords {... */\n          mstore(0x40, 0x80)\n          callvalue\n          dup1\n          iszero\n          tag_1\n          jumpi\n          0x00\n          dup1\n          revert\n        tag_1:\n          pop\n          jumpi(tag_2, lt(calldatasize, 0x04))\n          shr(0xe0, calldataload(0x00))\n          dup1\n          0x7621df6f\n          gt\n          tag_12\n          jumpi\n          dup1\n          0x7621df6f\n          eq\n          tag_7\n          jumpi\n          dup1\n          0x9cbc4dba\n          eq\n          tag_8\n          jumpi\n          dup1\n          0xb2c24a34\n          eq\n          tag_9\n          jumpi\n          dup1\n          0xeb7353d1\n          eq\n          tag_10\n          jumpi\n          dup1\n          0xf539fe6c\n          eq\n          tag_11\n          jumpi\n          jump(tag_2)\n        tag_12:\n          dup1\n          0x1107747e\n          eq\n          tag_3\n          jumpi\n          dup1\n          0x213134cd\n          eq\n          tag_4\n          jumpi\n          dup1\n          0x4da7580f\n          eq\n          tag_5\n          jumpi\n          dup1\n          0x5db185c7\n          eq\n          tag_6\n          jumpi\n        tag_2:\n          0x00\n          dup1\n          revert\n            /* \"ElectronicMedicalRecords.sol\":4254:4417  function setDoctorVerificatorAddress(address _DoctorVerificatorAddress) public {... */\n        tag_3:\n          tag_13\n          0x04\n          dup1\n          calldatasize\n          sub\n          dup2\n          add\n          swap1\n          tag_14\n          swap2\n          swap1\n          tag_15\n          jump\t// in\n        tag_14:\n          tag_16\n          jump\t// in\n        tag_13:\n          stop\n            /* \"ElectronicMedicalRecords.sol\":7734:9199  function addEmergencyPatient(PengantarPasien memory _pengantar, GawatDarurat memory _gawatDarurat) onlyDoctor public {... */\n        tag_4:\n          tag_17\n          0x04\n          dup1\n          calldatasize\n          sub\n          dup2\n          add\n          swap1\n          tag_18\n          swap2\n          swap1\n          tag_19\n          jump\t// in\n        tag_18:\n          tag_20\n          jump\t// in\n        tag_17:\n          stop\n            /* \"ElectronicMedicalRecords.sol\":4757:6166  function addOutPatient (IdentitasPasien memory _identitasPasien, RawatJalan memory _rawatjalan) onlyDoctor public {... */\n        tag_5:\n          tag_21\n          0x04\n          dup1\n          calldatasize\n          sub\n          dup2\n          add\n          swap1\n          tag_22\n          swap2\n          swap1\n          tag_23\n          jump\t// in\n        tag_22:\n          tag_24\n          jump\t// in\n        tag_21:\n          stop\n            /* \"ElectronicMedicalRecords.sol\":4425:4593  function setPatientVerificatorAddress(address _PatientVerificatorAddress) public {... */\n        tag_6:\n          tag_25\n          0x04\n          dup1\n          calldatasize\n          sub\n          dup2\n          add\n          swap1\n          tag_26\n          swap2\n          swap1\n          tag_15\n          jump\t// in\n        tag_26:\n          tag_27\n          jump\t// in\n        tag_25:\n          stop\n            /* \"ElectronicMedicalRecords.sol\":4601:4749  function setDoctorRelationAddress(address _DoctorRelationAddress) public {... */\n        tag_7:\n          tag_28\n          0x04\n          dup1\n          calldatasize\n          sub\n          dup2\n          add\n          swap1\n          tag_29\n          swap2\n          swap1\n          tag_15\n          jump\t// in\n        tag_29:\n          tag_30\n          jump\t// in\n        tag_28:\n          stop\n            /* \"ElectronicMedicalRecords.sol\":6174:7726  function addInPatient(IdentitasPasien memory _identitasPasien, RawatInap memory _rawatInap) onlyDoctor public {... */\n        tag_8:\n          tag_31\n          0x04\n          dup1\n          calldatasize\n          sub\n          dup2\n          add\n          swap1\n          tag_32\n          swap2\n          swap1\n          tag_33\n          jump\t// in\n        tag_32:\n          tag_34\n          jump\t// in\n        tag_31:\n          stop\n            /* \"ElectronicMedicalRecords.sol\":9207:9371  function getOutPatient(address add) public view returns(IdentitasPasien memory a, RawatJalan[] memory b) {... */\n        tag_9:\n          tag_35\n          0x04\n          dup1\n          calldatasize\n          sub\n          dup2\n          add\n          swap1\n          tag_36\n          swap2\n          swap1\n          tag_15\n          jump\t// in\n        tag_36:\n          tag_37\n          jump\t// in\n        tag_35:\n          mload(0x40)\n          tag_38\n          swap3\n          swap2\n          swap1\n          tag_39\n          jump\t// in\n        tag_38:\n          mload(0x40)\n          dup1\n          swap2\n          sub\n          swap1\n          return\n            /* \"ElectronicMedicalRecords.sol\":9548:9726  function getEmergencyPatient(address add) public view returns(IdentitasPasien memory a, GawatDarurat[] memory b) {... */\n        tag_10:\n          tag_40\n          0x04\n          dup1\n          calldatasize\n          sub\n          dup2\n          add\n          swap1\n          tag_41\n          swap2\n          swap1\n          tag_15\n          jump\t// in\n        tag_41:\n          tag_42\n          jump\t// in\n        tag_40:\n          mload(0x40)\n          tag_43\n          swap3\n          swap2\n          swap1\n          tag_44\n          jump\t// in\n        tag_43:\n          mload(0x40)\n          dup1\n          swap2\n          sub\n          swap1\n          return\n            /* \"ElectronicMedicalRecords.sol\":9379:9540  function getInPatient(address add) public view returns(IdentitasPasien memory a, RawatInap[] memory b) {... */\n        tag_11:\n          tag_45\n          0x04\n          dup1\n          calldatasize\n          sub\n          dup2\n          add\n          swap1\n          tag_46\n          swap2\n          swap1\n          tag_15\n          jump\t// in\n        tag_46:\n          tag_47\n          jump\t// in\n        tag_45:\n          mload(0x40)\n          tag_48\n          swap3\n          swap2\n          swap1\n          tag_49\n          jump\t// in\n        tag_48:\n          mload(0x40)\n          dup1\n          swap2\n          sub\n          swap1\n          return\n            /* \"ElectronicMedicalRecords.sol\":4254:4417  function setDoctorVerificatorAddress(address _DoctorVerificatorAddress) public {... */\n        tag_16:\n            /* \"ElectronicMedicalRecords.sol\":4383:4408  _DoctorVerificatorAddress */\n          dup1\n            /* \"ElectronicMedicalRecords.sol\":4344:4362  doctor_verificator */\n          0x06\n          0x00\n            /* \"ElectronicMedicalRecords.sol\":4344:4409  doctor_verificator = DoctorVerificator(_DoctorVerificatorAddress) */\n          0x0100\n          exp\n          dup2\n          sload\n          dup2\n          0xffffffffffffffffffffffffffffffffffffffff\n          mul\n          not\n          and\n          swap1\n          dup4\n          0xffffffffffffffffffffffffffffffffffffffff\n          and\n          mul\n          or\n          swap1\n          sstore\n          pop\n            /* \"ElectronicMedicalRecords.sol\":4254:4417  function setDoctorVerificatorAddress(address _DoctorVerificatorAddress) public {... */\n          pop\n          jump\t// out\n            /* \"ElectronicMedicalRecords.sol\":7734:9199  function addEmergencyPatient(PengantarPasien memory _pengantar, GawatDarurat memory _gawatDarurat) onlyDoctor public {... */\n        tag_20:\n            /* \"ElectronicMedicalRecords.sol\":9775:9793  doctor_verificator */\n          0x06\n          0x00\n          swap1\n          sload\n          swap1\n          0x0100\n          exp\n          swap1\n          div\n          0xffffffffffffffffffffffffffffffffffffffff\n          and\n            /* \"ElectronicMedicalRecords.sol\":9775:9800  doctor_verificator.verify */\n          0xffffffffffffffffffffffffffffffffffffffff\n          and\n          0x63a9c3d7\n            /* \"ElectronicMedicalRecords.sol\":9801:9811  msg.sender */\n          caller\n            /* \"ElectronicMedicalRecords.sol\":9775:9812  doctor_verificator.verify(msg.sender) */\n          mload(0x40)\n          dup3\n          0xffffffff\n          and\n          0xe0\n          shl\n          dup2\n          mstore\n          0x04\n          add\n          tag_52\n          swap2\n          swap1\n          tag_53\n          jump\t// in\n        tag_52:\n          0x20\n          mload(0x40)\n          dup1\n          dup4\n          sub\n          dup2\n          dup7\n          gas\n          staticcall\n          iszero\n          dup1\n          iszero\n          tag_55\n          jumpi\n          returndatasize\n          0x00\n          dup1\n          returndatacopy\n          revert(0x00, returndatasize)\n        tag_55:\n          pop\n          pop\n          pop\n          pop\n          mload(0x40)\n          returndatasize\n          not(0x1f)\n          0x1f\n          dup3\n          add\n          and\n          dup3\n          add\n          dup1\n          0x40\n          mstore\n          pop\n          dup2\n          add\n          swap1\n          tag_56\n          swap2\n          swap1\n          tag_57\n          jump\t// in\n        tag_56:\n            /* \"ElectronicMedicalRecords.sol\":9767:9813  require(doctor_verificator.verify(msg.sender)) */\n          tag_58\n          jumpi\n          0x00\n          dup1\n          revert\n        tag_58:\n            /* \"ElectronicMedicalRecords.sol\":7862:7900  PengantarPasien memory pengantarPasien */\n          tag_60\n          tag_61\n          jump\t// in\n        tag_60:\n            /* \"ElectronicMedicalRecords.sol\":7946:7956  _pengantar */\n          dup3\n            /* \"ElectronicMedicalRecords.sol\":7946:7973  _pengantar.pengantar_pasien */\n          0x00\n          add\n          mload\n            /* \"ElectronicMedicalRecords.sol\":7911:7926  pengantarPasien */\n          dup2\n            /* \"ElectronicMedicalRecords.sol\":7911:7943  pengantarPasien.pengantar_pasien */\n          0x00\n          add\n            /* \"ElectronicMedicalRecords.sol\":7911:7973  pengantarPasien.pengantar_pasien = _pengantar.pengantar_pasien */\n          dup2\n          swap1\n          mstore\n          pop\n            /* \"ElectronicMedicalRecords.sol\":8015:8025  _pengantar */\n          dup3\n            /* \"ElectronicMedicalRecords.sol\":8015:8038  _pengantar.nama_lengkap */\n          0x20\n          add\n          mload\n            /* \"ElectronicMedicalRecords.sol\":7984:7999  pengantarPasien */\n          dup2\n            /* \"ElectronicMedicalRecords.sol\":7984:8012  pengantarPasien.nama_lengkap */\n          0x20\n          add\n            /* \"ElectronicMedicalRecords.sol\":7984:8038  pengantarPasien.nama_lengkap = _pengantar.nama_lengkap */\n          dup2\n          swap1\n          mstore\n          pop\n            /* \"ElectronicMedicalRecords.sol\":8070:8080  _pengantar */\n          dup3\n            /* \"ElectronicMedicalRecords.sol\":8070:8083  _pengantar.hp */\n          0x40\n          add\n          mload\n            /* \"ElectronicMedicalRecords.sol\":8049:8064  pengantarPasien */\n          dup2\n            /* \"ElectronicMedicalRecords.sol\":8049:8067  pengantarPasien.hp */\n          0x40\n          add\n            /* \"ElectronicMedicalRecords.sol\":8049:8083  pengantarPasien.hp = _pengantar.hp */\n          dup2\n          dup2\n          mstore\n          pop\n          pop\n            /* \"ElectronicMedicalRecords.sol\":8121:8131  _pengantar */\n          dup3\n            /* \"ElectronicMedicalRecords.sol\":8121:8140  _pengantar.hubungan */\n          0x60\n          add\n          mload\n            /* \"ElectronicMedicalRecords.sol\":8094:8109  pengantarPasien */\n          dup2\n            /* \"ElectronicMedicalRecords.sol\":8094:8118  pengantarPasien.hubungan */\n          0x60\n          add\n            /* \"ElectronicMedicalRecords.sol\":8094:8140  pengantarPasien.hubungan = _pengantar.hubungan */\n          dup2\n          swap1\n          mstore\n          pop\n            /* \"ElectronicMedicalRecords.sol\":8203:8218  pengantarPasien */\n          dup1\n            /* \"ElectronicMedicalRecords.sol\":8153:8169  pengantar_pasien */\n          0x01\n            /* \"ElectronicMedicalRecords.sol\":8153:8200  pengantar_pasien[_gawatDarurat.patient_address] */\n          0x00\n            /* \"ElectronicMedicalRecords.sol\":8170:8183  _gawatDarurat */\n          dup5\n            /* \"ElectronicMedicalRecords.sol\":8170:8199  _gawatDarurat.patient_address */\n          0x00\n          add\n          mload\n            /* \"ElectronicMedicalRecords.sol\":8153:8200  pengantar_pasien[_gawatDarurat.patient_address] */\n          0xffffffffffffffffffffffffffffffffffffffff\n          and\n          0xffffffffffffffffffffffffffffffffffffffff\n          and\n          dup2\n          mstore\n          0x20\n          add\n          swap1\n          dup2\n          mstore\n          0x20\n          add\n          0x00\n          keccak256\n            /* \"ElectronicMedicalRecords.sol\":8153:8218  pengantar_pasien[_gawatDarurat.patient_address] = pengantarPasien */\n          0x00\n          dup3\n          add\n          mload\n          dup2\n          0x00\n          add\n          swap1\n          dup2\n          tag_62\n          swap2\n          swap1\n          tag_63\n          jump\t// in\n        tag_62:\n          pop\n          0x20\n          dup3\n          add\n          mload\n          dup2\n          0x01\n          add\n          swap1\n          dup2\n          tag_64\n          swap2\n          swap1\n          tag_63\n          jump\t// in\n        tag_64:\n          pop\n          0x40\n          dup3\n          add\n          mload\n          dup2\n          0x02\n          add\n          sstore\n          0x60\n          dup3\n          add\n          mload\n          dup2\n          0x03\n          add\n          swap1\n          dup2\n          tag_65\n          swap2\n          swap1\n          tag_63\n          jump\t// in\n        tag_65:\n          pop\n          swap1\n          pop\n          pop\n            /* \"ElectronicMedicalRecords.sol\":8231:8263  GawatDarurat memory gawatDarurat */\n          tag_66\n          tag_67\n          jump\t// in\n        tag_66:\n            /* \"ElectronicMedicalRecords.sol\":8305:8318  _gawatDarurat */\n          dup3\n            /* \"ElectronicMedicalRecords.sol\":8305:8334  _gawatDarurat.patient_address */\n          0x00\n          add\n          mload\n            /* \"ElectronicMedicalRecords.sol\":8274:8286  gawatDarurat */\n          dup2\n            /* \"ElectronicMedicalRecords.sol\":8274:8302  gawatDarurat.patient_address */\n          0x00\n          add\n            /* \"ElectronicMedicalRecords.sol\":8274:8334  gawatDarurat.patient_address = _gawatDarurat.patient_address */\n          swap1\n          0xffffffffffffffffffffffffffffffffffffffff\n          and\n          swap1\n          dup2\n          0xffffffffffffffffffffffffffffffffffffffff\n          and\n          dup2\n          mstore\n          pop\n          pop\n            /* \"ElectronicMedicalRecords.sol\":8367:8380  _gawatDarurat */\n          dup3\n            /* \"ElectronicMedicalRecords.sol\":8367:8387  _gawatDarurat.gender */\n          0x40\n          add\n          mload\n            /* \"ElectronicMedicalRecords.sol\":8345:8357  gawatDarurat */\n          dup2\n            /* \"ElectronicMedicalRecords.sol\":8345:8364  gawatDarurat.gender */\n          0x40\n          add\n            /* \"ElectronicMedicalRecords.sol\":8345:8387  gawatDarurat.gender = _gawatDarurat.gender */\n          dup2\n          swap1\n          mstore\n          pop\n            /* \"ElectronicMedicalRecords.sol\":8419:8432  _gawatDarurat */\n          dup3\n            /* \"ElectronicMedicalRecords.sol\":8419:8438  _gawatDarurat.jenis */\n          0x20\n          add\n          mload\n            /* \"ElectronicMedicalRecords.sol\":8398:8410  gawatDarurat */\n          dup2\n            /* \"ElectronicMedicalRecords.sol\":8398:8416  gawatDarurat.jenis */\n          0x20\n          add\n            /* \"ElectronicMedicalRecords.sol\":8398:8438  gawatDarurat.jenis = _gawatDarurat.jenis */\n          dup2\n          swap1\n          mstore\n          pop\n            /* \"ElectronicMedicalRecords.sol\":8472:8485  _gawatDarurat */\n          dup3\n            /* \"ElectronicMedicalRecords.sol\":8472:8493  _gawatDarurat.kondisi */\n          0x60\n          add\n          mload\n            /* \"ElectronicMedicalRecords.sol\":8449:8461  gawatDarurat */\n          dup2\n            /* \"ElectronicMedicalRecords.sol\":8449:8469  gawatDarurat.kondisi */\n          0x60\n          add\n            /* \"ElectronicMedicalRecords.sol\":8449:8493  gawatDarurat.kondisi = _gawatDarurat.kondisi */\n          dup2\n          swap1\n          mstore\n          pop\n            /* \"ElectronicMedicalRecords.sol\":8533:8546  _gawatDarurat */\n          dup3\n            /* \"ElectronicMedicalRecords.sol\":8533:8560  _gawatDarurat.date_and_time */\n          0x80\n          add\n          mload\n            /* \"ElectronicMedicalRecords.sol\":8504:8516  gawatDarurat */\n          dup2\n            /* \"ElectronicMedicalRecords.sol\":8504:8530  gawatDarurat.date_and_time */\n          0x80\n          add\n            /* \"ElectronicMedicalRecords.sol\":8504:8560  gawatDarurat.date_and_time = _gawatDarurat.date_and_time */\n          dup2\n          swap1\n          mstore\n          pop\n            /* \"ElectronicMedicalRecords.sol\":8596:8609  _gawatDarurat */\n          dup3\n            /* \"ElectronicMedicalRecords.sol\":8596:8619  _gawatDarurat.anamnesis */\n          0xa0\n          add\n          mload\n            /* \"ElectronicMedicalRecords.sol\":8571:8583  gawatDarurat */\n          dup2\n            /* \"ElectronicMedicalRecords.sol\":8571:8593  gawatDarurat.anamnesis */\n          0xa0\n          add\n            /* \"ElectronicMedicalRecords.sol\":8571:8619  gawatDarurat.anamnesis = _gawatDarurat.anamnesis */\n          dup2\n          swap1\n          mstore\n          pop\n            /* \"ElectronicMedicalRecords.sol\":8651:8664  _gawatDarurat */\n          dup3\n            /* \"ElectronicMedicalRecords.sol\":8651:8670  _gawatDarurat.fisik */\n          0xc0\n          add\n          mload\n            /* \"ElectronicMedicalRecords.sol\":8630:8642  gawatDarurat */\n          dup2\n            /* \"ElectronicMedicalRecords.sol\":8630:8648  gawatDarurat.fisik */\n          0xc0\n          add\n            /* \"ElectronicMedicalRecords.sol\":8630:8670  gawatDarurat.fisik = _gawatDarurat.fisik */\n          dup2\n          swap1\n          mstore\n          pop\n            /* \"ElectronicMedicalRecords.sol\":8706:8719  _gawatDarurat */\n          dup3\n            /* \"ElectronicMedicalRecords.sol\":8706:8729  _gawatDarurat.diagnosis */\n          0xe0\n          add\n          mload\n            /* \"ElectronicMedicalRecords.sol\":8681:8693  gawatDarurat */\n          dup2\n            /* \"ElectronicMedicalRecords.sol\":8681:8703  gawatDarurat.diagnosis */\n          0xe0\n          add\n            /* \"ElectronicMedicalRecords.sol\":8681:8729  gawatDarurat.diagnosis = _gawatDarurat.diagnosis */\n          dup2\n          swap1\n          mstore\n          pop\n            /* \"ElectronicMedicalRecords.sol\":8766:8779  _gawatDarurat */\n          dup3\n            /* \"ElectronicMedicalRecords.sol\":8766:8790  _gawatDarurat.pengobatan */\n          0x0100\n          add\n          mload\n            /* \"ElectronicMedicalRecords.sol\":8740:8752  gawatDarurat */\n          dup2\n            /* \"ElectronicMedicalRecords.sol\":8740:8763  gawatDarurat.pengobatan */\n          0x0100\n          add\n            /* \"ElectronicMedicalRecords.sol\":8740:8790  gawatDarurat.pengobatan = _gawatDarurat.pengobatan */\n          dup2\n          swap1\n          mstore\n          pop\n            /* \"ElectronicMedicalRecords.sol\":8825:8838  _gawatDarurat */\n          dup3\n            /* \"ElectronicMedicalRecords.sol\":8825:8847  _gawatDarurat.tindakan */\n          0x0120\n          add\n          mload\n            /* \"ElectronicMedicalRecords.sol\":8801:8813  gawatDarurat */\n          dup2\n            /* \"ElectronicMedicalRecords.sol\":8801:8822  gawatDarurat.tindakan */\n          0x0120\n          add\n            /* \"ElectronicMedicalRecords.sol\":8801:8847  gawatDarurat.tindakan = _gawatDarurat.tindakan */\n          dup2\n          swap1\n          mstore\n          pop\n            /* \"ElectronicMedicalRecords.sol\":8876:8889  _gawatDarurat */\n          dup3\n            /* \"ElectronicMedicalRecords.sol\":8876:8892  _gawatDarurat.lc */\n          0x0140\n          add\n          mload\n            /* \"ElectronicMedicalRecords.sol\":8858:8870  gawatDarurat */\n          dup2\n            /* \"ElectronicMedicalRecords.sol\":8858:8873  gawatDarurat.lc */\n          0x0140\n          add\n            /* \"ElectronicMedicalRecords.sol\":8858:8892  gawatDarurat.lc = _gawatDarurat.lc */\n          dup2\n          swap1\n          mstore\n          pop\n            /* \"ElectronicMedicalRecords.sol\":8928:8941  _gawatDarurat */\n          dup3\n            /* \"ElectronicMedicalRecords.sol\":8928:8951  _gawatDarurat.transport */\n          0x0160\n          add\n          mload\n            /* \"ElectronicMedicalRecords.sol\":8903:8915  gawatDarurat */\n          dup2\n            /* \"ElectronicMedicalRecords.sol\":8903:8925  gawatDarurat.transport */\n          0x0160\n          add\n            /* \"ElectronicMedicalRecords.sol\":8903:8951  gawatDarurat.transport = _gawatDarurat.transport */\n          dup2\n          swap1\n          mstore\n          pop\n            /* \"ElectronicMedicalRecords.sol\":8964:8980  emergencyPatient */\n          0x04\n            /* \"ElectronicMedicalRecords.sol\":8964:9011  emergencyPatient[_gawatDarurat.patient_address] */\n          0x00\n            /* \"ElectronicMedicalRecords.sol\":8981:8994  _gawatDarurat */\n          dup5\n            /* \"ElectronicMedicalRecords.sol\":8981:9010  _gawatDarurat.patient_address */\n          0x00\n          add\n          mload\n            /* \"ElectronicMedicalRecords.sol\":8964:9011  emergencyPatient[_gawatDarurat.patient_address] */\n          0xffffffffffffffffffffffffffffffffffffffff\n          and\n          0xffffffffffffffffffffffffffffffffffffffff\n          and\n          dup2\n          mstore\n          0x20\n          add\n          swap1\n          dup2\n          mstore\n          0x20\n          add\n          0x00\n          keccak256\n            /* \"ElectronicMedicalRecords.sol\":9017:9029  gawatDarurat */\n          dup2\n            /* \"ElectronicMedicalRecords.sol\":8964:9030  emergencyPatient[_gawatDarurat.patient_address].push(gawatDarurat) */\n          swap1\n          dup1\n          0x01\n          dup2\n          sload\n          add\n          dup1\n          dup3\n          sstore\n          dup1\n          swap2\n          pop\n          pop\n          0x01\n          swap1\n          sub\n          swap1\n          0x00\n          mstore\n          keccak256(0x00, 0x20)\n          swap1\n          0x0c\n          mul\n          add\n          0x00\n          swap1\n          swap2\n          swap1\n          swap2\n          swap1\n          swap2\n          pop\n          0x00\n          dup3\n          add\n          mload\n          dup2\n          0x00\n          add\n          exp(0x0100, 0x00)\n          dup2\n          sload\n          dup2\n          0xffffffffffffffffffffffffffffffffffffffff\n          mul\n          not\n          and\n          swap1\n          dup4\n          0xffffffffffffffffffffffffffffffffffffffff\n          and\n          mul\n          or\n          swap1\n          sstore\n          pop\n          0x20\n          dup3\n          add\n          mload\n          dup2\n          0x01\n          add\n          swap1\n          dup2\n          tag_69\n          swap2\n          swap1\n          tag_63\n          jump\t// in\n        tag_69:\n          pop\n          0x40\n          dup3\n          add\n          mload\n          dup2\n          0x02\n          add\n          swap1\n          dup2\n          tag_70\n          swap2\n          swap1\n          tag_63\n          jump\t// in\n        tag_70:\n          pop\n          0x60\n          dup3\n          add\n          mload\n          dup2\n          0x03\n          add\n          swap1\n          dup2\n          tag_71\n          swap2\n          swap1\n          tag_63\n          jump\t// in\n        tag_71:\n          pop\n          0x80\n          dup3\n          add\n          mload\n          dup2\n          0x04\n          add\n          swap1\n          dup2\n          tag_72\n          swap2\n          swap1\n          tag_63\n          jump\t// in\n        tag_72:\n          pop\n          0xa0\n          dup3\n          add\n          mload\n          dup2\n          0x05\n          add\n          swap1\n          dup2\n          tag_73\n          swap2\n          swap1\n          tag_63\n          jump\t// in\n        tag_73:\n          pop\n          0xc0\n          dup3\n          add\n          mload\n          dup2\n          0x06\n          add\n          swap1\n          dup2\n          tag_74\n          swap2\n          swap1\n          tag_63\n          jump\t// in\n        tag_74:\n          pop\n          0xe0\n          dup3\n          add\n          mload\n          dup2\n          0x07\n          add\n          swap1\n          dup2\n          tag_75\n          swap2\n          swap1\n          tag_63\n          jump\t// in\n        tag_75:\n          pop\n          0x0100\n          dup3\n          add\n          mload\n          dup2\n          0x08\n          add\n          swap1\n          dup2\n          tag_76\n          swap2\n          swap1\n          tag_63\n          jump\t// in\n        tag_76:\n          pop\n          0x0120\n          dup3\n          add\n          mload\n          dup2\n          0x09\n          add\n          swap1\n          dup2\n          tag_77\n          swap2\n          swap1\n          tag_63\n          jump\t// in\n        tag_77:\n          pop\n          0x0140\n          dup3\n          add\n          mload\n          dup2\n          0x0a\n          add\n          swap1\n          dup2\n          tag_78\n          swap2\n          swap1\n          tag_63\n          jump\t// in\n        tag_78:\n          pop\n          0x0160\n          dup3\n          add\n          mload\n          dup2\n          0x0b\n          add\n          swap1\n          dup2\n          tag_79\n          swap2\n          swap1\n          tag_63\n          jump\t// in\n        tag_79:\n          pop\n          pop\n          pop\n            /* \"ElectronicMedicalRecords.sol\":9043:9062  patient_verificator */\n          0x07\n          0x00\n          swap1\n          sload\n          swap1\n          0x0100\n          exp\n          swap1\n          div\n          0xffffffffffffffffffffffffffffffffffffffff\n          and\n            /* \"ElectronicMedicalRecords.sol\":9043:9073  patient_verificator.addPatient */\n          0xffffffffffffffffffffffffffffffffffffffff\n          and\n          0x6d263ceb\n            /* \"ElectronicMedicalRecords.sol\":9074:9087  _gawatDarurat */\n          dup5\n            /* \"ElectronicMedicalRecords.sol\":9074:9103  _gawatDarurat.patient_address */\n          0x00\n          add\n          mload\n            /* \"ElectronicMedicalRecords.sol\":9043:9104  patient_verificator.addPatient(_gawatDarurat.patient_address) */\n          mload(0x40)\n          dup3\n          0xffffffff\n          and\n          0xe0\n          shl\n          dup2\n          mstore\n          0x04\n          add\n          tag_80\n          swap2\n          swap1\n          tag_53\n          jump\t// in\n        tag_80:\n          0x00\n          mload(0x40)\n          dup1\n          dup4\n          sub\n          dup2\n          0x00\n          dup8\n          dup1\n          extcodesize\n          iszero\n          dup1\n          iszero\n          tag_81\n          jumpi\n          0x00\n          dup1\n          revert\n        tag_81:\n          pop\n          gas\n          call\n          iszero\n          dup1\n          iszero\n          tag_83\n          jumpi\n          returndatasize\n          0x00\n          dup1\n          returndatacopy\n          revert(0x00, returndatasize)\n        tag_83:\n          pop\n          pop\n          pop\n          pop\n            /* \"ElectronicMedicalRecords.sol\":9115:9130  doctor_relation */\n          0x08\n          0x00\n          swap1\n          sload\n          swap1\n          0x0100\n          exp\n          swap1\n          div\n          0xffffffffffffffffffffffffffffffffffffffff\n          and\n            /* \"ElectronicMedicalRecords.sol\":9115:9148  doctor_relation.addDoctorRelation */\n          0xffffffffffffffffffffffffffffffffffffffff\n          and\n          0x8bfc8c71\n            /* \"ElectronicMedicalRecords.sol\":9149:9159  msg.sender */\n          caller\n            /* \"ElectronicMedicalRecords.sol\":9161:9174  _gawatDarurat */\n          dup6\n            /* \"ElectronicMedicalRecords.sol\":9161:9190  _gawatDarurat.patient_address */\n          0x00\n          add\n          mload\n            /* \"ElectronicMedicalRecords.sol\":9115:9191  doctor_relation.addDoctorRelation(msg.sender, _gawatDarurat.patient_address) */\n          mload(0x40)\n          dup4\n          0xffffffff\n          and\n          0xe0\n          shl\n          dup2\n          mstore\n          0x04\n          add\n          tag_84\n          swap3\n          swap2\n          swap1\n          tag_85\n          jump\t// in\n        tag_84:\n          0x00\n          mload(0x40)\n          dup1\n          dup4\n          sub\n          dup2\n          0x00\n          dup8\n          dup1\n          extcodesize\n          iszero\n          dup1\n          iszero\n          tag_86\n          jumpi\n          0x00\n          dup1\n          revert\n        tag_86:\n          pop\n          gas\n          call\n          iszero\n          dup1\n          iszero\n          tag_88\n          jumpi\n          returndatasize\n          0x00\n          dup1\n          returndatacopy\n          revert(0x00, returndatasize)\n        tag_88:\n          pop\n          pop\n          pop\n          pop\n            /* \"ElectronicMedicalRecords.sol\":7851:9199  {... */\n          pop\n          pop\n            /* \"ElectronicMedicalRecords.sol\":7734:9199  function addEmergencyPatient(PengantarPasien memory _pengantar, GawatDarurat memory _gawatDarurat) onlyDoctor public {... */\n          pop\n          pop\n          jump\t// out\n            /* \"ElectronicMedicalRecords.sol\":4757:6166  function addOutPatient (IdentitasPasien memory _identitasPasien, RawatJalan memory _rawatjalan) onlyDoctor public {... */\n        tag_24:\n            /* \"ElectronicMedicalRecords.sol\":9775:9793  doctor_verificator */\n          0x06\n          0x00\n          swap1\n          sload\n          swap1\n          0x0100\n          exp\n          swap1\n          div\n          0xffffffffffffffffffffffffffffffffffffffff\n          and\n            /* \"ElectronicMedicalRecords.sol\":9775:9800  doctor_verificator.verify */\n          0xffffffffffffffffffffffffffffffffffffffff\n          and\n          0x63a9c3d7\n            /* \"ElectronicMedicalRecords.sol\":9801:9811  msg.sender */\n          caller\n            /* \"ElectronicMedicalRecords.sol\":9775:9812  doctor_verificator.verify(msg.sender) */\n          mload(0x40)\n          dup3\n          0xffffffff\n          and\n          0xe0\n          shl\n          dup2\n          mstore\n          0x04\n          add\n          tag_90\n          swap2\n          swap1\n          tag_53\n          jump\t// in\n        tag_90:\n          0x20\n          mload(0x40)\n          dup1\n          dup4\n          sub\n          dup2\n          dup7\n          gas\n          staticcall\n          iszero\n          dup1\n          iszero\n          tag_92\n          jumpi\n          returndatasize\n          0x00\n          dup1\n          returndatacopy\n          revert(0x00, returndatasize)\n        tag_92:\n          pop\n          pop\n          pop\n          pop\n          mload(0x40)\n          returndatasize\n          not(0x1f)\n          0x1f\n          dup3\n          add\n          and\n          dup3\n          add\n          dup1\n          0x40\n          mstore\n          pop\n          dup2\n          add\n          swap1\n          tag_93\n          swap2\n          swap1\n          tag_57\n          jump\t// in\n        tag_93:\n            /* \"ElectronicMedicalRecords.sol\":9767:9813  require(doctor_verificator.verify(msg.sender)) */\n          tag_94\n          jumpi\n          0x00\n          dup1\n          revert\n        tag_94:\n            /* \"ElectronicMedicalRecords.sol\":4882:4920  IdentitasPasien memory identitasPasien */\n          tag_96\n          tag_97\n          jump\t// in\n        tag_96:\n            /* \"ElectronicMedicalRecords.sol\":4965:4981  _identitasPasien */\n          dup3\n            /* \"ElectronicMedicalRecords.sol\":4965:4996  _identitasPasien.patientAddress */\n          0x00\n          add\n          mload\n            /* \"ElectronicMedicalRecords.sol\":4931:4946  identitasPasien */\n          dup2\n            /* \"ElectronicMedicalRecords.sol\":4931:4961  identitasPasien.patientAddress */\n          0x00\n          add\n            /* \"ElectronicMedicalRecords.sol\":4931:4996  identitasPasien.patientAddress =  _identitasPasien.patientAddress */\n          swap1\n          0xffffffffffffffffffffffffffffffffffffffff\n          and\n          swap1\n          dup2\n          0xffffffffffffffffffffffffffffffffffffffff\n          and\n          dup2\n          mstore\n          pop\n          pop\n            /* \"ElectronicMedicalRecords.sol\":5039:5055  _identitasPasien */\n          dup3\n            /* \"ElectronicMedicalRecords.sol\":5039:5068  _identitasPasien.nama_lengkap */\n          0x20\n          add\n          mload\n            /* \"ElectronicMedicalRecords.sol\":5007:5022  identitasPasien */\n          dup2\n            /* \"ElectronicMedicalRecords.sol\":5007:5035  identitasPasien.nama_lengkap */\n          0x20\n          add\n            /* \"ElectronicMedicalRecords.sol\":5007:5068  identitasPasien.nama_lengkap =  _identitasPasien.nama_lengkap */\n          dup2\n          swap1\n          mstore\n          pop\n            /* \"ElectronicMedicalRecords.sol\":5103:5119  _identitasPasien */\n          dup3\n            /* \"ElectronicMedicalRecords.sol\":5103:5124  _identitasPasien.umur */\n          0x40\n          add\n          mload\n            /* \"ElectronicMedicalRecords.sol\":5079:5094  identitasPasien */\n          dup2\n            /* \"ElectronicMedicalRecords.sol\":5079:5099  identitasPasien.umur */\n          0x40\n          add\n            /* \"ElectronicMedicalRecords.sol\":5079:5124  identitasPasien.umur =  _identitasPasien.umur */\n          dup2\n          dup2\n          mstore\n          pop\n          pop\n            /* \"ElectronicMedicalRecords.sol\":5168:5184  _identitasPasien */\n          dup3\n            /* \"ElectronicMedicalRecords.sol\":5168:5198  _identitasPasien.tanggal_lahir */\n          0x60\n          add\n          mload\n            /* \"ElectronicMedicalRecords.sol\":5135:5150  identitasPasien */\n          dup2\n            /* \"ElectronicMedicalRecords.sol\":5135:5164  identitasPasien.tanggal_lahir */\n          0x60\n          add\n            /* \"ElectronicMedicalRecords.sol\":5135:5198  identitasPasien.tanggal_lahir =  _identitasPasien.tanggal_lahir */\n          dup2\n          swap1\n          mstore\n          pop\n            /* \"ElectronicMedicalRecords.sol\":5235:5251  _identitasPasien */\n          dup3\n            /* \"ElectronicMedicalRecords.sol\":5235:5258  _identitasPasien.gender */\n          0x80\n          add\n          mload\n            /* \"ElectronicMedicalRecords.sol\":5209:5224  identitasPasien */\n          dup2\n            /* \"ElectronicMedicalRecords.sol\":5209:5231  identitasPasien.gender */\n          0x80\n          add\n            /* \"ElectronicMedicalRecords.sol\":5209:5258  identitasPasien.gender =  _identitasPasien.gender */\n          dup2\n          swap1\n          mstore\n          pop\n            /* \"ElectronicMedicalRecords.sol\":5316:5331  identitasPasien */\n          dup1\n            /* \"ElectronicMedicalRecords.sol\":5271:5280  patientId */\n          0x00\n            /* \"ElectronicMedicalRecords.sol\":5271:5313  patientId[_identitasPasien.patientAddress] */\n          dup1\n            /* \"ElectronicMedicalRecords.sol\":5281:5297  _identitasPasien */\n          dup6\n            /* \"ElectronicMedicalRecords.sol\":5281:5312  _identitasPasien.patientAddress */\n          0x00\n          add\n          mload\n            /* \"ElectronicMedicalRecords.sol\":5271:5313  patientId[_identitasPasien.patientAddress] */\n          0xffffffffffffffffffffffffffffffffffffffff\n          and\n          0xffffffffffffffffffffffffffffffffffffffff\n          and\n          dup2\n          mstore\n          0x20\n          add\n          swap1\n          dup2\n          mstore\n          0x20\n          add\n          0x00\n          keccak256\n            /* \"ElectronicMedicalRecords.sol\":5271:5331  patientId[_identitasPasien.patientAddress] = identitasPasien */\n          0x00\n          dup3\n          add\n          mload\n          dup2\n          0x00\n          add\n          exp(0x0100, 0x00)\n          dup2\n          sload\n          dup2\n          0xffffffffffffffffffffffffffffffffffffffff\n          mul\n          not\n          and\n          swap1\n          dup4\n          0xffffffffffffffffffffffffffffffffffffffff\n          and\n          mul\n          or\n          swap1\n          sstore\n          pop\n          0x20\n          dup3\n          add\n          mload\n          dup2\n          0x01\n          add\n          swap1\n          dup2\n          tag_98\n          swap2\n          swap1\n          tag_63\n          jump\t// in\n        tag_98:\n          pop\n          0x40\n          dup3\n          add\n          mload\n          dup2\n          0x02\n          add\n          sstore\n          0x60\n          dup3\n          add\n          mload\n          dup2\n          0x03\n          add\n          swap1\n          dup2\n          tag_99\n          swap2\n          swap1\n          tag_63\n          jump\t// in\n        tag_99:\n          pop\n          0x80\n          dup3\n          add\n          mload\n          dup2\n          0x04\n          add\n          swap1\n          dup2\n          tag_100\n          swap2\n          swap1\n          tag_63\n          jump\t// in\n        tag_100:\n          pop\n          swap1\n          pop\n          pop\n            /* \"ElectronicMedicalRecords.sol\":5344:5372  RawatJalan memory rawatJalan */\n          tag_101\n          tag_102\n          jump\t// in\n        tag_101:\n            /* \"ElectronicMedicalRecords.sol\":5412:5423  _rawatjalan */\n          dup3\n            /* \"ElectronicMedicalRecords.sol\":5412:5439  _rawatjalan.patient_address */\n          0x00\n          add\n          mload\n            /* \"ElectronicMedicalRecords.sol\":5383:5393  rawatJalan */\n          dup2\n            /* \"ElectronicMedicalRecords.sol\":5383:5409  rawatJalan.patient_address */\n          0x00\n          add\n            /* \"ElectronicMedicalRecords.sol\":5383:5439  rawatJalan.patient_address = _rawatjalan.patient_address */\n          swap1\n          0xffffffffffffffffffffffffffffffffffffffff\n          and\n          swap1\n          dup2\n          0xffffffffffffffffffffffffffffffffffffffff\n          and\n          dup2\n          mstore\n          pop\n          pop\n            /* \"ElectronicMedicalRecords.sol\":5469:5480  _rawatjalan */\n          dup3\n            /* \"ElectronicMedicalRecords.sol\":5469:5486  _rawatjalan.jenis */\n          0x20\n          add\n          mload\n            /* \"ElectronicMedicalRecords.sol\":5450:5460  rawatJalan */\n          dup2\n            /* \"ElectronicMedicalRecords.sol\":5450:5466  rawatJalan.jenis */\n          0x20\n          add\n            /* \"ElectronicMedicalRecords.sol\":5450:5486  rawatJalan.jenis = _rawatjalan.jenis */\n          dup2\n          swap1\n          mstore\n          pop\n            /* \"ElectronicMedicalRecords.sol\":5524:5535  _rawatjalan */\n          dup3\n            /* \"ElectronicMedicalRecords.sol\":5524:5549  _rawatjalan.date_and_time */\n          0x40\n          add\n          mload\n            /* \"ElectronicMedicalRecords.sol\":5497:5507  rawatJalan */\n          dup2\n            /* \"ElectronicMedicalRecords.sol\":5497:5521  rawatJalan.date_and_time */\n          0x40\n          add\n            /* \"ElectronicMedicalRecords.sol\":5497:5549  rawatJalan.date_and_time = _rawatjalan.date_and_time */\n          dup2\n          swap1\n          mstore\n          pop\n            /* \"ElectronicMedicalRecords.sol\":5583:5594  _rawatjalan */\n          dup3\n            /* \"ElectronicMedicalRecords.sol\":5583:5604  _rawatjalan.anamnesis */\n          0x60\n          add\n          mload\n            /* \"ElectronicMedicalRecords.sol\":5560:5570  rawatJalan */\n          dup2\n            /* \"ElectronicMedicalRecords.sol\":5560:5580  rawatJalan.anamnesis */\n          0x60\n          add\n            /* \"ElectronicMedicalRecords.sol\":5560:5604  rawatJalan.anamnesis = _rawatjalan.anamnesis */\n          dup2\n          swap1\n          mstore\n          pop\n            /* \"ElectronicMedicalRecords.sol\":5638:5649  _rawatjalan */\n          dup3\n            /* \"ElectronicMedicalRecords.sol\":5638:5659  _rawatjalan.diagnosis */\n          0x80\n          add\n          mload\n            /* \"ElectronicMedicalRecords.sol\":5615:5625  rawatJalan */\n          dup2\n            /* \"ElectronicMedicalRecords.sol\":5615:5635  rawatJalan.diagnosis */\n          0x80\n          add\n            /* \"ElectronicMedicalRecords.sol\":5615:5659  rawatJalan.diagnosis = _rawatjalan.diagnosis */\n          dup2\n          swap1\n          mstore\n          pop\n            /* \"ElectronicMedicalRecords.sol\":5686:5697  _rawatjalan */\n          dup3\n            /* \"ElectronicMedicalRecords.sol\":5686:5700  _rawatjalan.rp */\n          0xa0\n          add\n          mload\n            /* \"ElectronicMedicalRecords.sol\":5670:5680  rawatJalan */\n          dup2\n            /* \"ElectronicMedicalRecords.sol\":5670:5683  rawatJalan.rp */\n          0xa0\n          add\n            /* \"ElectronicMedicalRecords.sol\":5670:5700  rawatJalan.rp = _rawatjalan.rp */\n          dup2\n          swap1\n          mstore\n          pop\n            /* \"ElectronicMedicalRecords.sol\":5735:5746  _rawatjalan */\n          dup3\n            /* \"ElectronicMedicalRecords.sol\":5735:5757  _rawatjalan.pengobatan */\n          0xc0\n          add\n          mload\n            /* \"ElectronicMedicalRecords.sol\":5711:5721  rawatJalan */\n          dup2\n            /* \"ElectronicMedicalRecords.sol\":5711:5732  rawatJalan.pengobatan */\n          0xc0\n          add\n            /* \"ElectronicMedicalRecords.sol\":5711:5757  rawatJalan.pengobatan = _rawatjalan.pengobatan */\n          dup2\n          swap1\n          mstore\n          pop\n            /* \"ElectronicMedicalRecords.sol\":5790:5801  _rawatjalan */\n          dup3\n            /* \"ElectronicMedicalRecords.sol\":5790:5810  _rawatjalan.tindakan */\n          0xe0\n          add\n          mload\n            /* \"ElectronicMedicalRecords.sol\":5768:5778  rawatJalan */\n          dup2\n            /* \"ElectronicMedicalRecords.sol\":5768:5787  rawatJalan.tindakan */\n          0xe0\n          add\n            /* \"ElectronicMedicalRecords.sol\":5768:5810  rawatJalan.tindakan = _rawatjalan.tindakan */\n          dup2\n          swap1\n          mstore\n          pop\n            /* \"ElectronicMedicalRecords.sol\":5844:5855  _rawatjalan */\n          dup3\n            /* \"ElectronicMedicalRecords.sol\":5844:5865  _rawatjalan.pelayanan */\n          0x0100\n          add\n          mload\n            /* \"ElectronicMedicalRecords.sol\":5821:5831  rawatJalan */\n          dup2\n            /* \"ElectronicMedicalRecords.sol\":5821:5841  rawatJalan.pelayanan */\n          0x0100\n          add\n            /* \"ElectronicMedicalRecords.sol\":5821:5865  rawatJalan.pelayanan = _rawatjalan.pelayanan */\n          dup2\n          swap1\n          mstore\n          pop\n            /* \"ElectronicMedicalRecords.sol\":5899:5910  _rawatjalan */\n          dup3\n            /* \"ElectronicMedicalRecords.sol\":5899:5920  _rawatjalan.agreement */\n          0x0120\n          add\n          mload\n            /* \"ElectronicMedicalRecords.sol\":5876:5886  rawatJalan */\n          dup2\n            /* \"ElectronicMedicalRecords.sol\":5876:5896  rawatJalan.agreement */\n          0x0120\n          add\n            /* \"ElectronicMedicalRecords.sol\":5876:5920  rawatJalan.agreement = _rawatjalan.agreement */\n          swap1\n          iszero\n          iszero\n          swap1\n          dup2\n          iszero\n          iszero\n          dup2\n          mstore\n          pop\n          pop\n            /* \"ElectronicMedicalRecords.sol\":5933:5943  outPatient */\n          0x02\n            /* \"ElectronicMedicalRecords.sol\":5933:5976  outPatient[_identitasPasien.patientAddress] */\n          0x00\n            /* \"ElectronicMedicalRecords.sol\":5944:5960  _identitasPasien */\n          dup6\n            /* \"ElectronicMedicalRecords.sol\":5944:5975  _identitasPasien.patientAddress */\n          0x00\n          add\n          mload\n            /* \"ElectronicMedicalRecords.sol\":5933:5976  outPatient[_identitasPasien.patientAddress] */\n          0xffffffffffffffffffffffffffffffffffffffff\n          and\n          0xffffffffffffffffffffffffffffffffffffffff\n          and\n          dup2\n          mstore\n          0x20\n          add\n          swap1\n          dup2\n          mstore\n          0x20\n          add\n          0x00\n          keccak256\n            /* \"ElectronicMedicalRecords.sol\":5982:5992  rawatJalan */\n          dup2\n            /* \"ElectronicMedicalRecords.sol\":5933:5993  outPatient[_identitasPasien.patientAddress].push(rawatJalan) */\n          swap1\n          dup1\n          0x01\n          dup2\n          sload\n          add\n          dup1\n          dup3\n          sstore\n          dup1\n          swap2\n          pop\n          pop\n          0x01\n          swap1\n          sub\n          swap1\n          0x00\n          mstore\n          keccak256(0x00, 0x20)\n          swap1\n          0x0a\n          mul\n          add\n          0x00\n          swap1\n          swap2\n          swap1\n          swap2\n          swap1\n          swap2\n          pop\n          0x00\n          dup3\n          add\n          mload\n          dup2\n          0x00\n          add\n          exp(0x0100, 0x00)\n          dup2\n          sload\n          dup2\n          0xffffffffffffffffffffffffffffffffffffffff\n          mul\n          not\n          and\n          swap1\n          dup4\n          0xffffffffffffffffffffffffffffffffffffffff\n          and\n          mul\n          or\n          swap1\n          sstore\n          pop\n          0x20\n          dup3\n          add\n          mload\n          dup2\n          0x01\n          add\n          swap1\n          dup2\n          tag_104\n          swap2\n          swap1\n          tag_63\n          jump\t// in\n        tag_104:\n          pop\n          0x40\n          dup3\n          add\n          mload\n          dup2\n          0x02\n          add\n          swap1\n          dup2\n          tag_105\n          swap2\n          swap1\n          tag_63\n          jump\t// in\n        tag_105:\n          pop\n          0x60\n          dup3\n          add\n          mload\n          dup2\n          0x03\n          add\n          swap1\n          dup2\n          tag_106\n          swap2\n          swap1\n          tag_63\n          jump\t// in\n        tag_106:\n          pop\n          0x80\n          dup3\n          add\n          mload\n          dup2\n          0x04\n          add\n          swap1\n          dup2\n          tag_107\n          swap2\n          swap1\n          tag_63\n          jump\t// in\n        tag_107:\n          pop\n          0xa0\n          dup3\n          add\n          mload\n          dup2\n          0x05\n          add\n          swap1\n          dup2\n          tag_108\n          swap2\n          swap1\n          tag_63\n          jump\t// in\n        tag_108:\n          pop\n          0xc0\n          dup3\n          add\n          mload\n          dup2\n          0x06\n          add\n          swap1\n          dup2\n          tag_109\n          swap2\n          swap1\n          tag_63\n          jump\t// in\n        tag_109:\n          pop\n          0xe0\n          dup3\n          add\n          mload\n          dup2\n          0x07\n          add\n          swap1\n          dup2\n          tag_110\n          swap2\n          swap1\n          tag_63\n          jump\t// in\n        tag_110:\n          pop\n          0x0100\n          dup3\n          add\n          mload\n          dup2\n          0x08\n          add\n          swap1\n          dup2\n          tag_111\n          swap2\n          swap1\n          tag_63\n          jump\t// in\n        tag_111:\n          pop\n          0x0120\n          dup3\n          add\n          mload\n          dup2\n          0x09\n          add\n          exp(0x0100, 0x00)\n          dup2\n          sload\n          dup2\n          0xff\n          mul\n          not\n          and\n          swap1\n          dup4\n          iszero\n          iszero\n          mul\n          or\n          swap1\n          sstore\n          pop\n          pop\n          pop\n            /* \"ElectronicMedicalRecords.sol\":6006:6025  patient_verificator */\n          0x07\n          0x00\n          swap1\n          sload\n          swap1\n          0x0100\n          exp\n          swap1\n          div\n          0xffffffffffffffffffffffffffffffffffffffff\n          and\n            /* \"ElectronicMedicalRecords.sol\":6006:6036  patient_verificator.addPatient */\n          0xffffffffffffffffffffffffffffffffffffffff\n          and\n          0x6d263ceb\n            /* \"ElectronicMedicalRecords.sol\":6037:6053  _identitasPasien */\n          dup6\n            /* \"ElectronicMedicalRecords.sol\":6037:6068  _identitasPasien.patientAddress */\n          0x00\n          add\n          mload\n            /* \"ElectronicMedicalRecords.sol\":6006:6069  patient_verificator.addPatient(_identitasPasien.patientAddress) */\n          mload(0x40)\n          dup3\n          0xffffffff\n          and\n          0xe0\n          shl\n          dup2\n          mstore\n          0x04\n          add\n          tag_112\n          swap2\n          swap1\n          tag_53\n          jump\t// in\n        tag_112:\n          0x00\n          mload(0x40)\n          dup1\n          dup4\n          sub\n          dup2\n          0x00\n          dup8\n          dup1\n          extcodesize\n          iszero\n          dup1\n          iszero\n          tag_113\n          jumpi\n          0x00\n          dup1\n          revert\n        tag_113:\n          pop\n          gas\n          call\n          iszero\n          dup1\n          iszero\n          tag_115\n          jumpi\n          returndatasize\n          0x00\n          dup1\n          returndatacopy\n          revert(0x00, returndatasize)\n        tag_115:\n          pop\n          pop\n          pop\n          pop\n            /* \"ElectronicMedicalRecords.sol\":6080:6095  doctor_relation */\n          0x08\n          0x00\n          swap1\n          sload\n          swap1\n          0x0100\n          exp\n          swap1\n          div\n          0xffffffffffffffffffffffffffffffffffffffff\n          and\n            /* \"ElectronicMedicalRecords.sol\":6080:6113  doctor_relation.addDoctorRelation */\n          0xffffffffffffffffffffffffffffffffffffffff\n          and\n          0x8bfc8c71\n            /* \"ElectronicMedicalRecords.sol\":6114:6124  msg.sender */\n          caller\n            /* \"ElectronicMedicalRecords.sol\":6126:6142  _identitasPasien */\n          dup7\n            /* \"ElectronicMedicalRecords.sol\":6126:6157  _identitasPasien.patientAddress */\n          0x00\n          add\n          mload\n            /* \"ElectronicMedicalRecords.sol\":6080:6158  doctor_relation.addDoctorRelation(msg.sender, _identitasPasien.patientAddress) */\n          mload(0x40)\n          dup4\n          0xffffffff\n          and\n          0xe0\n          shl\n          dup2\n          mstore\n          0x04\n          add\n          tag_116\n          swap3\n          swap2\n          swap1\n          tag_85\n          jump\t// in\n        tag_116:\n          0x00\n          mload(0x40)\n          dup1\n          dup4\n          sub\n          dup2\n          0x00\n          dup8\n          dup1\n          extcodesize\n          iszero\n          dup1\n          iszero\n          tag_117\n          jumpi\n          0x00\n          dup1\n          revert\n        tag_117:\n          pop\n          gas\n          call\n          iszero\n          dup1\n          iszero\n          tag_119\n          jumpi\n          returndatasize\n          0x00\n          dup1\n          returndatacopy\n          revert(0x00, returndatasize)\n        tag_119:\n          pop\n          pop\n          pop\n          pop\n            /* \"ElectronicMedicalRecords.sol\":4871:6166  {... */\n          pop\n          pop\n            /* \"ElectronicMedicalRecords.sol\":4757:6166  function addOutPatient (IdentitasPasien memory _identitasPasien, RawatJalan memory _rawatjalan) onlyDoctor public {... */\n          pop\n          pop\n          jump\t// out\n            /* \"ElectronicMedicalRecords.sol\":4425:4593  function setPatientVerificatorAddress(address _PatientVerificatorAddress) public {... */\n        tag_27:\n            /* \"ElectronicMedicalRecords.sol\":4558:4584  _PatientVerificatorAddress */\n          dup1\n            /* \"ElectronicMedicalRecords.sol\":4517:4536  patient_verificator */\n          0x07\n          0x00\n            /* \"ElectronicMedicalRecords.sol\":4517:4585  patient_verificator = PatientVerificator(_PatientVerificatorAddress) */\n          0x0100\n          exp\n          dup2\n          sload\n          dup2\n          0xffffffffffffffffffffffffffffffffffffffff\n          mul\n          not\n          and\n          swap1\n          dup4\n          0xffffffffffffffffffffffffffffffffffffffff\n          and\n          mul\n          or\n          swap1\n          sstore\n          pop\n            /* \"ElectronicMedicalRecords.sol\":4425:4593  function setPatientVerificatorAddress(address _PatientVerificatorAddress) public {... */\n          pop\n          jump\t// out\n            /* \"ElectronicMedicalRecords.sol\":4601:4749  function setDoctorRelationAddress(address _DoctorRelationAddress) public {... */\n        tag_30:\n            /* \"ElectronicMedicalRecords.sol\":4718:4740  _DoctorRelationAddress */\n          dup1\n            /* \"ElectronicMedicalRecords.sol\":4685:4700  doctor_relation */\n          0x08\n          0x00\n            /* \"ElectronicMedicalRecords.sol\":4685:4741  doctor_relation = DoctorRelation(_DoctorRelationAddress) */\n          0x0100\n          exp\n          dup2\n          sload\n          dup2\n          0xffffffffffffffffffffffffffffffffffffffff\n          mul\n          not\n          and\n          swap1\n          dup4\n          0xffffffffffffffffffffffffffffffffffffffff\n          and\n          mul\n          or\n          swap1\n          sstore\n          pop\n            /* \"ElectronicMedicalRecords.sol\":4601:4749  function setDoctorRelationAddress(address _DoctorRelationAddress) public {... */\n          pop\n          jump\t// out\n            /* \"ElectronicMedicalRecords.sol\":6174:7726  function addInPatient(IdentitasPasien memory _identitasPasien, RawatInap memory _rawatInap) onlyDoctor public {... */\n        tag_34:\n            /* \"ElectronicMedicalRecords.sol\":9775:9793  doctor_verificator */\n          0x06\n          0x00\n          swap1\n          sload\n          swap1\n          0x0100\n          exp\n          swap1\n          div\n          0xffffffffffffffffffffffffffffffffffffffff\n          and\n            /* \"ElectronicMedicalRecords.sol\":9775:9800  doctor_verificator.verify */\n          0xffffffffffffffffffffffffffffffffffffffff\n          and\n          0x63a9c3d7\n            /* \"ElectronicMedicalRecords.sol\":9801:9811  msg.sender */\n          caller\n            /* \"ElectronicMedicalRecords.sol\":9775:9812  doctor_verificator.verify(msg.sender) */\n          mload(0x40)\n          dup3\n          0xffffffff\n          and\n          0xe0\n          shl\n          dup2\n          mstore\n          0x04\n          add\n          tag_123\n          swap2\n          swap1\n          tag_53\n          jump\t// in\n        tag_123:\n          0x20\n          mload(0x40)\n          dup1\n          dup4\n          sub\n          dup2\n          dup7\n          gas\n          staticcall\n          iszero\n          dup1\n          iszero\n          tag_125\n          jumpi\n          returndatasize\n          0x00\n          dup1\n          returndatacopy\n          revert(0x00, returndatasize)\n        tag_125:\n          pop\n          pop\n          pop\n          pop\n          mload(0x40)\n          returndatasize\n          not(0x1f)\n          0x1f\n          dup3\n          add\n          and\n          dup3\n          add\n          dup1\n          0x40\n          mstore\n          pop\n          dup2\n          add\n          swap1\n          tag_126\n          swap2\n          swap1\n          tag_57\n          jump\t// in\n        tag_126:\n            /* \"ElectronicMedicalRecords.sol\":9767:9813  require(doctor_verificator.verify(msg.sender)) */\n          tag_127\n          jumpi\n          0x00\n          dup1\n          revert\n        tag_127:\n            /* \"ElectronicMedicalRecords.sol\":6295:6333  IdentitasPasien memory identitasPasien */\n          tag_129\n          tag_97\n          jump\t// in\n        tag_129:\n            /* \"ElectronicMedicalRecords.sol\":6378:6394  _identitasPasien */\n          dup3\n            /* \"ElectronicMedicalRecords.sol\":6378:6409  _identitasPasien.patientAddress */\n          0x00\n          add\n          mload\n            /* \"ElectronicMedicalRecords.sol\":6344:6359  identitasPasien */\n          dup2\n            /* \"ElectronicMedicalRecords.sol\":6344:6374  identitasPasien.patientAddress */\n          0x00\n          add\n            /* \"ElectronicMedicalRecords.sol\":6344:6409  identitasPasien.patientAddress =  _identitasPasien.patientAddress */\n          swap1\n          0xffffffffffffffffffffffffffffffffffffffff\n          and\n          swap1\n          dup2\n          0xffffffffffffffffffffffffffffffffffffffff\n          and\n          dup2\n          mstore\n          pop\n          pop\n            /* \"ElectronicMedicalRecords.sol\":6452:6468  _identitasPasien */\n          dup3\n            /* \"ElectronicMedicalRecords.sol\":6452:6481  _identitasPasien.nama_lengkap */\n          0x20\n          add\n          mload\n            /* \"ElectronicMedicalRecords.sol\":6420:6435  identitasPasien */\n          dup2\n            /* \"ElectronicMedicalRecords.sol\":6420:6448  identitasPasien.nama_lengkap */\n          0x20\n          add\n            /* \"ElectronicMedicalRecords.sol\":6420:6481  identitasPasien.nama_lengkap =  _identitasPasien.nama_lengkap */\n          dup2\n          swap1\n          mstore\n          pop\n            /* \"ElectronicMedicalRecords.sol\":6516:6532  _identitasPasien */\n          dup3\n            /* \"ElectronicMedicalRecords.sol\":6516:6537  _identitasPasien.umur */\n          0x40\n          add\n          mload\n            /* \"ElectronicMedicalRecords.sol\":6492:6507  identitasPasien */\n          dup2\n            /* \"ElectronicMedicalRecords.sol\":6492:6512  identitasPasien.umur */\n          0x40\n          add\n            /* \"ElectronicMedicalRecords.sol\":6492:6537  identitasPasien.umur =  _identitasPasien.umur */\n          dup2\n          dup2\n          mstore\n          pop\n          pop\n            /* \"ElectronicMedicalRecords.sol\":6581:6597  _identitasPasien */\n          dup3\n            /* \"ElectronicMedicalRecords.sol\":6581:6611  _identitasPasien.tanggal_lahir */\n          0x60\n          add\n          mload\n            /* \"ElectronicMedicalRecords.sol\":6548:6563  identitasPasien */\n          dup2\n            /* \"ElectronicMedicalRecords.sol\":6548:6577  identitasPasien.tanggal_lahir */\n          0x60\n          add\n            /* \"ElectronicMedicalRecords.sol\":6548:6611  identitasPasien.tanggal_lahir =  _identitasPasien.tanggal_lahir */\n          dup2\n          swap1\n          mstore\n          pop\n            /* \"ElectronicMedicalRecords.sol\":6648:6664  _identitasPasien */\n          dup3\n            /* \"ElectronicMedicalRecords.sol\":6648:6671  _identitasPasien.gender */\n          0x80\n          add\n          mload\n            /* \"ElectronicMedicalRecords.sol\":6622:6637  identitasPasien */\n          dup2\n            /* \"ElectronicMedicalRecords.sol\":6622:6644  identitasPasien.gender */\n          0x80\n          add\n            /* \"ElectronicMedicalRecords.sol\":6622:6671  identitasPasien.gender =  _identitasPasien.gender */\n          dup2\n          swap1\n          mstore\n          pop\n            /* \"ElectronicMedicalRecords.sol\":6729:6744  identitasPasien */\n          dup1\n            /* \"ElectronicMedicalRecords.sol\":6684:6693  patientId */\n          0x00\n            /* \"ElectronicMedicalRecords.sol\":6684:6726  patientId[_identitasPasien.patientAddress] */\n          dup1\n            /* \"ElectronicMedicalRecords.sol\":6694:6710  _identitasPasien */\n          dup6\n            /* \"ElectronicMedicalRecords.sol\":6694:6725  _identitasPasien.patientAddress */\n          0x00\n          add\n          mload\n            /* \"ElectronicMedicalRecords.sol\":6684:6726  patientId[_identitasPasien.patientAddress] */\n          0xffffffffffffffffffffffffffffffffffffffff\n          and\n          0xffffffffffffffffffffffffffffffffffffffff\n          and\n          dup2\n          mstore\n          0x20\n          add\n          swap1\n          dup2\n          mstore\n          0x20\n          add\n          0x00\n          keccak256\n            /* \"ElectronicMedicalRecords.sol\":6684:6744  patientId[_identitasPasien.patientAddress] = identitasPasien */\n          0x00\n          dup3\n          add\n          mload\n          dup2\n          0x00\n          add\n          exp(0x0100, 0x00)\n          dup2\n          sload\n          dup2\n          0xffffffffffffffffffffffffffffffffffffffff\n          mul\n          not\n          and\n          swap1\n          dup4\n          0xffffffffffffffffffffffffffffffffffffffff\n          and\n          mul\n          or\n          swap1\n          sstore\n          pop\n          0x20\n          dup3\n          add\n          mload\n          dup2\n          0x01\n          add\n          swap1\n          dup2\n          tag_130\n          swap2\n          swap1\n          tag_63\n          jump\t// in\n        tag_130:\n          pop\n          0x40\n          dup3\n          add\n          mload\n          dup2\n          0x02\n          add\n          sstore\n          0x60\n          dup3\n          add\n          mload\n          dup2\n          0x03\n          add\n          swap1\n          dup2\n          tag_131\n          swap2\n          swap1\n          tag_63\n          jump\t// in\n        tag_131:\n          pop\n          0x80\n          dup3\n          add\n          mload\n          dup2\n          0x04\n          add\n          swap1\n          dup2\n          tag_132\n          swap2\n          swap1\n          tag_63\n          jump\t// in\n        tag_132:\n          pop\n          swap1\n          pop\n          pop\n            /* \"ElectronicMedicalRecords.sol\":6757:6783  RawatInap memory rawatInap */\n          tag_133\n          tag_134\n          jump\t// in\n        tag_133:\n            /* \"ElectronicMedicalRecords.sol\":6822:6832  _rawatInap */\n          dup3\n            /* \"ElectronicMedicalRecords.sol\":6822:6848  _rawatInap.patient_address */\n          0x00\n          add\n          mload\n            /* \"ElectronicMedicalRecords.sol\":6794:6803  rawatInap */\n          dup2\n            /* \"ElectronicMedicalRecords.sol\":6794:6819  rawatInap.patient_address */\n          0x00\n          add\n            /* \"ElectronicMedicalRecords.sol\":6794:6848  rawatInap.patient_address = _rawatInap.patient_address */\n          swap1\n          0xffffffffffffffffffffffffffffffffffffffff\n          and\n          swap1\n          dup2\n          0xffffffffffffffffffffffffffffffffffffffff\n          and\n          dup2\n          mstore\n          pop\n          pop\n            /* \"ElectronicMedicalRecords.sol\":6877:6887  _rawatInap */\n          dup3\n            /* \"ElectronicMedicalRecords.sol\":6877:6893  _rawatInap.jenis */\n          0x20\n          add\n          mload\n            /* \"ElectronicMedicalRecords.sol\":6859:6868  rawatInap */\n          dup2\n            /* \"ElectronicMedicalRecords.sol\":6859:6874  rawatInap.jenis */\n          0x20\n          add\n            /* \"ElectronicMedicalRecords.sol\":6859:6893  rawatInap.jenis = _rawatInap.jenis */\n          dup2\n          swap1\n          mstore\n          pop\n            /* \"ElectronicMedicalRecords.sol\":6931:6941  _rawatInap */\n          dup3\n            /* \"ElectronicMedicalRecords.sol\":6931:6955  _rawatInap.date_and_time */\n          0x40\n          add\n          mload\n            /* \"ElectronicMedicalRecords.sol\":6905:6914  rawatInap */\n          dup2\n            /* \"ElectronicMedicalRecords.sol\":6905:6928  rawatInap.date_and_time */\n          0x40\n          add\n            /* \"ElectronicMedicalRecords.sol\":6905:6955  rawatInap.date_and_time = _rawatInap.date_and_time */\n          dup2\n          swap1\n          mstore\n          pop\n            /* \"ElectronicMedicalRecords.sol\":6988:6998  _rawatInap */\n          dup3\n            /* \"ElectronicMedicalRecords.sol\":6988:7008  _rawatInap.anamnesis */\n          0x60\n          add\n          mload\n            /* \"ElectronicMedicalRecords.sol\":6966:6975  rawatInap */\n          dup2\n            /* \"ElectronicMedicalRecords.sol\":6966:6985  rawatInap.anamnesis */\n          0x60\n          add\n            /* \"ElectronicMedicalRecords.sol\":6966:7008  rawatInap.anamnesis = _rawatInap.anamnesis */\n          dup2\n          swap1\n          mstore\n          pop\n            /* \"ElectronicMedicalRecords.sol\":7038:7048  _rawatInap */\n          dup3\n            /* \"ElectronicMedicalRecords.sol\":7038:7054  _rawatInap.fisik */\n          0x80\n          add\n          mload\n            /* \"ElectronicMedicalRecords.sol\":7020:7029  rawatInap */\n          dup2\n            /* \"ElectronicMedicalRecords.sol\":7020:7035  rawatInap.fisik */\n          0x80\n          add\n            /* \"ElectronicMedicalRecords.sol\":7020:7054  rawatInap.fisik = _rawatInap.fisik */\n          dup2\n          swap1\n          mstore\n          pop\n            /* \"ElectronicMedicalRecords.sol\":7088:7098  _rawatInap */\n          dup3\n            /* \"ElectronicMedicalRecords.sol\":7088:7108  _rawatInap.diagnosis */\n          0xa0\n          add\n          mload\n            /* \"ElectronicMedicalRecords.sol\":7066:7075  rawatInap */\n          dup2\n            /* \"ElectronicMedicalRecords.sol\":7066:7085  rawatInap.diagnosis */\n          0xa0\n          add\n            /* \"ElectronicMedicalRecords.sol\":7066:7108  rawatInap.diagnosis = _rawatInap.diagnosis */\n          dup2\n          swap1\n          mstore\n          pop\n            /* \"ElectronicMedicalRecords.sol\":7134:7144  _rawatInap */\n          dup3\n            /* \"ElectronicMedicalRecords.sol\":7134:7147  _rawatInap.rp */\n          0xc0\n          add\n          mload\n            /* \"ElectronicMedicalRecords.sol\":7119:7128  rawatInap */\n          dup2\n            /* \"ElectronicMedicalRecords.sol\":7119:7131  rawatInap.rp */\n          0xc0\n          add\n            /* \"ElectronicMedicalRecords.sol\":7119:7147  rawatInap.rp = _rawatInap.rp */\n          dup2\n          swap1\n          mstore\n          pop\n            /* \"ElectronicMedicalRecords.sol\":7182:7192  _rawatInap */\n          dup3\n            /* \"ElectronicMedicalRecords.sol\":7182:7203  _rawatInap.pengobatan */\n          0xe0\n          add\n          mload\n            /* \"ElectronicMedicalRecords.sol\":7159:7168  rawatInap */\n          dup2\n            /* \"ElectronicMedicalRecords.sol\":7159:7179  rawatInap.pengobatan */\n          0xe0\n          add\n            /* \"ElectronicMedicalRecords.sol\":7159:7203  rawatInap.pengobatan = _rawatInap.pengobatan */\n          dup2\n          swap1\n          mstore\n          pop\n            /* \"ElectronicMedicalRecords.sol\":7235:7245  _rawatInap */\n          dup3\n            /* \"ElectronicMedicalRecords.sol\":7235:7254  _rawatInap.tindakan */\n          0x0100\n          add\n          mload\n            /* \"ElectronicMedicalRecords.sol\":7214:7223  rawatInap */\n          dup2\n            /* \"ElectronicMedicalRecords.sol\":7214:7232  rawatInap.tindakan */\n          0x0100\n          add\n            /* \"ElectronicMedicalRecords.sol\":7214:7254  rawatInap.tindakan = _rawatInap.tindakan */\n          dup2\n          swap1\n          mstore\n          pop\n            /* \"ElectronicMedicalRecords.sol\":7287:7297  _rawatInap */\n          dup3\n            /* \"ElectronicMedicalRecords.sol\":7287:7307  _rawatInap.agreement */\n          0x0120\n          add\n          mload\n            /* \"ElectronicMedicalRecords.sol\":7265:7274  rawatInap */\n          dup2\n            /* \"ElectronicMedicalRecords.sol\":7265:7284  rawatInap.agreement */\n          0x0120\n          add\n            /* \"ElectronicMedicalRecords.sol\":7265:7307  rawatInap.agreement = _rawatInap.agreement */\n          swap1\n          iszero\n          iszero\n          swap1\n          dup2\n          iszero\n          iszero\n          dup2\n          mstore\n          pop\n          pop\n            /* \"ElectronicMedicalRecords.sol\":7334:7344  _rawatInap */\n          dup3\n            /* \"ElectronicMedicalRecords.sol\":7334:7348  _rawatInap.obs */\n          0x0140\n          add\n          mload\n            /* \"ElectronicMedicalRecords.sol\":7318:7327  rawatInap */\n          dup2\n            /* \"ElectronicMedicalRecords.sol\":7318:7331  rawatInap.obs */\n          0x0140\n          add\n            /* \"ElectronicMedicalRecords.sol\":7318:7348  rawatInap.obs = _rawatInap.obs */\n          dup2\n          swap1\n          mstore\n          pop\n            /* \"ElectronicMedicalRecords.sol\":7374:7384  _rawatInap */\n          dup3\n            /* \"ElectronicMedicalRecords.sol\":7374:7387  _rawatInap.ds */\n          0x0160\n          add\n          mload\n            /* \"ElectronicMedicalRecords.sol\":7359:7368  rawatInap */\n          dup2\n            /* \"ElectronicMedicalRecords.sol\":7359:7371  rawatInap.ds */\n          0x0160\n          add\n            /* \"ElectronicMedicalRecords.sol\":7359:7387  rawatInap.ds = _rawatInap.ds */\n          dup2\n          swap1\n          mstore\n          pop\n            /* \"ElectronicMedicalRecords.sol\":7417:7427  _rawatInap */\n          dup3\n            /* \"ElectronicMedicalRecords.sol\":7417:7434  _rawatInap.doctor */\n          0x0180\n          add\n          mload\n            /* \"ElectronicMedicalRecords.sol\":7398:7407  rawatInap */\n          dup2\n            /* \"ElectronicMedicalRecords.sol\":7398:7414  rawatInap.doctor */\n          0x0180\n          add\n            /* \"ElectronicMedicalRecords.sol\":7398:7434  rawatInap.doctor = _rawatInap.doctor */\n          swap1\n          0xffffffffffffffffffffffffffffffffffffffff\n          and\n          swap1\n          dup2\n          0xffffffffffffffffffffffffffffffffffffffff\n          and\n          dup2\n          mstore\n          pop\n          pop\n            /* \"ElectronicMedicalRecords.sol\":7467:7477  _rawatInap */\n          dup3\n            /* \"ElectronicMedicalRecords.sol\":7467:7487  _rawatInap.pelayanan */\n          0x01a0\n          add\n          mload\n            /* \"ElectronicMedicalRecords.sol\":7445:7454  rawatInap */\n          dup2\n            /* \"ElectronicMedicalRecords.sol\":7445:7464  rawatInap.pelayanan */\n          0x01a0\n          add\n            /* \"ElectronicMedicalRecords.sol\":7445:7487  rawatInap.pelayanan = _rawatInap.pelayanan */\n          dup2\n          swap1\n          mstore\n          pop\n            /* \"ElectronicMedicalRecords.sol\":7500:7509  inPatient */\n          0x03\n            /* \"ElectronicMedicalRecords.sol\":7500:7537  inPatient[_rawatInap.patient_address] */\n          0x00\n            /* \"ElectronicMedicalRecords.sol\":7510:7520  _rawatInap */\n          dup5\n            /* \"ElectronicMedicalRecords.sol\":7510:7536  _rawatInap.patient_address */\n          0x00\n          add\n          mload\n            /* \"ElectronicMedicalRecords.sol\":7500:7537  inPatient[_rawatInap.patient_address] */\n          0xffffffffffffffffffffffffffffffffffffffff\n          and\n          0xffffffffffffffffffffffffffffffffffffffff\n          and\n          dup2\n          mstore\n          0x20\n          add\n          swap1\n          dup2\n          mstore\n          0x20\n          add\n          0x00\n          keccak256\n            /* \"ElectronicMedicalRecords.sol\":7543:7552  rawatInap */\n          dup2\n            /* \"ElectronicMedicalRecords.sol\":7500:7553  inPatient[_rawatInap.patient_address].push(rawatInap) */\n          swap1\n          dup1\n          0x01\n          dup2\n          sload\n          add\n          dup1\n          dup3\n          sstore\n          dup1\n          swap2\n          pop\n          pop\n          0x01\n          swap1\n          sub\n          swap1\n          0x00\n          mstore\n          keccak256(0x00, 0x20)\n          swap1\n          0x0e\n          mul\n          add\n          0x00\n          swap1\n          swap2\n          swap1\n          swap2\n          swap1\n          swap2\n          pop\n          0x00\n          dup3\n          add\n          mload\n          dup2\n          0x00\n          add\n          exp(0x0100, 0x00)\n          dup2\n          sload\n          dup2\n          0xffffffffffffffffffffffffffffffffffffffff\n          mul\n          not\n          and\n          swap1\n          dup4\n          0xffffffffffffffffffffffffffffffffffffffff\n          and\n          mul\n          or\n          swap1\n          sstore\n          pop\n          0x20\n          dup3\n          add\n          mload\n          dup2\n          0x01\n          add\n          swap1\n          dup2\n          tag_136\n          swap2\n          swap1\n          tag_63\n          jump\t// in\n        tag_136:\n          pop\n          0x40\n          dup3\n          add\n          mload\n          dup2\n          0x02\n          add\n          swap1\n          dup2\n          tag_137\n          swap2\n          swap1\n          tag_63\n          jump\t// in\n        tag_137:\n          pop\n          0x60\n          dup3\n          add\n          mload\n          dup2\n          0x03\n          add\n          swap1\n          dup2\n          tag_138\n          swap2\n          swap1\n          tag_63\n          jump\t// in\n        tag_138:\n          pop\n          0x80\n          dup3\n          add\n          mload\n          dup2\n          0x04\n          add\n          swap1\n          dup2\n          tag_139\n          swap2\n          swap1\n          tag_63\n          jump\t// in\n        tag_139:\n          pop\n          0xa0\n          dup3\n          add\n          mload\n          dup2\n          0x05\n          add\n          swap1\n          dup2\n          tag_140\n          swap2\n          swap1\n          tag_63\n          jump\t// in\n        tag_140:\n          pop\n          0xc0\n          dup3\n          add\n          mload\n          dup2\n          0x06\n          add\n          swap1\n          dup2\n          tag_141\n          swap2\n          swap1\n          tag_63\n          jump\t// in\n        tag_141:\n          pop\n          0xe0\n          dup3\n          add\n          mload\n          dup2\n          0x07\n          add\n          swap1\n          dup2\n          tag_142\n          swap2\n          swap1\n          tag_63\n          jump\t// in\n        tag_142:\n          pop\n          0x0100\n          dup3\n          add\n          mload\n          dup2\n          0x08\n          add\n          swap1\n          dup2\n          tag_143\n          swap2\n          swap1\n          tag_63\n          jump\t// in\n        tag_143:\n          pop\n          0x0120\n          dup3\n          add\n          mload\n          dup2\n          0x09\n          add\n          exp(0x0100, 0x00)\n          dup2\n          sload\n          dup2\n          0xff\n          mul\n          not\n          and\n          swap1\n          dup4\n          iszero\n          iszero\n          mul\n          or\n          swap1\n          sstore\n          pop\n          0x0140\n          dup3\n          add\n          mload\n          dup2\n          0x0a\n          add\n          swap1\n          dup2\n          tag_144\n          swap2\n          swap1\n          tag_63\n          jump\t// in\n        tag_144:\n          pop\n          0x0160\n          dup3\n          add\n          mload\n          dup2\n          0x0b\n          add\n          swap1\n          dup2\n          tag_145\n          swap2\n          swap1\n          tag_63\n          jump\t// in\n        tag_145:\n          pop\n          0x0180\n          dup3\n          add\n          mload\n          dup2\n          0x0c\n          add\n          exp(0x0100, 0x00)\n          dup2\n          sload\n          dup2\n          0xffffffffffffffffffffffffffffffffffffffff\n          mul\n          not\n          and\n          swap1\n          dup4\n          0xffffffffffffffffffffffffffffffffffffffff\n          and\n          mul\n          or\n          swap1\n          sstore\n          pop\n          0x01a0\n          dup3\n          add\n          mload\n          dup2\n          0x0d\n          add\n          swap1\n          dup2\n          tag_146\n          swap2\n          swap1\n          tag_63\n          jump\t// in\n        tag_146:\n          pop\n          pop\n          pop\n            /* \"ElectronicMedicalRecords.sol\":7566:7585  patient_verificator */\n          0x07\n          0x00\n          swap1\n          sload\n          swap1\n          0x0100\n          exp\n          swap1\n          div\n          0xffffffffffffffffffffffffffffffffffffffff\n          and\n            /* \"ElectronicMedicalRecords.sol\":7566:7596  patient_verificator.addPatient */\n          0xffffffffffffffffffffffffffffffffffffffff\n          and\n          0x6d263ceb\n            /* \"ElectronicMedicalRecords.sol\":7597:7613  _identitasPasien */\n          dup6\n            /* \"ElectronicMedicalRecords.sol\":7597:7628  _identitasPasien.patientAddress */\n          0x00\n          add\n          mload\n            /* \"ElectronicMedicalRecords.sol\":7566:7629  patient_verificator.addPatient(_identitasPasien.patientAddress) */\n          mload(0x40)\n          dup3\n          0xffffffff\n          and\n          0xe0\n          shl\n          dup2\n          mstore\n          0x04\n          add\n          tag_147\n          swap2\n          swap1\n          tag_53\n          jump\t// in\n        tag_147:\n          0x00\n          mload(0x40)\n          dup1\n          dup4\n          sub\n          dup2\n          0x00\n          dup8\n          dup1\n          extcodesize\n          iszero\n          dup1\n          iszero\n          tag_148\n          jumpi\n          0x00\n          dup1\n          revert\n        tag_148:\n          pop\n          gas\n          call\n          iszero\n          dup1\n          iszero\n          tag_150\n          jumpi\n          returndatasize\n          0x00\n          dup1\n          returndatacopy\n          revert(0x00, returndatasize)\n        tag_150:\n          pop\n          pop\n          pop\n          pop\n            /* \"ElectronicMedicalRecords.sol\":7640:7655  doctor_relation */\n          0x08\n          0x00\n          swap1\n          sload\n          swap1\n          0x0100\n          exp\n          swap1\n          div\n          0xffffffffffffffffffffffffffffffffffffffff\n          and\n            /* \"ElectronicMedicalRecords.sol\":7640:7673  doctor_relation.addDoctorRelation */\n          0xffffffffffffffffffffffffffffffffffffffff\n          and\n          0x8bfc8c71\n            /* \"ElectronicMedicalRecords.sol\":7674:7684  msg.sender */\n          caller\n            /* \"ElectronicMedicalRecords.sol\":7686:7702  _identitasPasien */\n          dup7\n            /* \"ElectronicMedicalRecords.sol\":7686:7717  _identitasPasien.patientAddress */\n          0x00\n          add\n          mload\n            /* \"ElectronicMedicalRecords.sol\":7640:7718  doctor_relation.addDoctorRelation(msg.sender, _identitasPasien.patientAddress) */\n          mload(0x40)\n          dup4\n          0xffffffff\n          and\n          0xe0\n          shl\n          dup2\n          mstore\n          0x04\n          add\n          tag_151\n          swap3\n          swap2\n          swap1\n          tag_85\n          jump\t// in\n        tag_151:\n          0x00\n          mload(0x40)\n          dup1\n          dup4\n          sub\n          dup2\n          0x00\n          dup8\n          dup1\n          extcodesize\n          iszero\n          dup1\n          iszero\n          tag_152\n          jumpi\n          0x00\n          dup1\n          revert\n        tag_152:\n          pop\n          gas\n          call\n          iszero\n          dup1\n          iszero\n          tag_154\n          jumpi\n          returndatasize\n          0x00\n          dup1\n          returndatacopy\n          revert(0x00, returndatasize)\n        tag_154:\n          pop\n          pop\n          pop\n          pop\n            /* \"ElectronicMedicalRecords.sol\":6284:7726  {... */\n          pop\n          pop\n            /* \"ElectronicMedicalRecords.sol\":6174:7726  function addInPatient(IdentitasPasien memory _identitasPasien, RawatInap memory _rawatInap) onlyDoctor public {... */\n          pop\n          pop\n          jump\t// out\n            /* \"ElectronicMedicalRecords.sol\":9207:9371  function getOutPatient(address add) public view returns(IdentitasPasien memory a, RawatJalan[] memory b) {... */\n        tag_37:\n            /* \"ElectronicMedicalRecords.sol\":9263:9287  IdentitasPasien memory a */\n          tag_155\n          tag_97\n          jump\t// in\n        tag_155:\n            /* \"ElectronicMedicalRecords.sol\":9289:9310  RawatJalan[] memory b */\n          0x60\n            /* \"ElectronicMedicalRecords.sol\":9331:9340  patientId */\n          0x00\n            /* \"ElectronicMedicalRecords.sol\":9331:9345  patientId[add] */\n          dup1\n            /* \"ElectronicMedicalRecords.sol\":9341:9344  add */\n          dup5\n            /* \"ElectronicMedicalRecords.sol\":9331:9345  patientId[add] */\n          0xffffffffffffffffffffffffffffffffffffffff\n          and\n          0xffffffffffffffffffffffffffffffffffffffff\n          and\n          dup2\n          mstore\n          0x20\n          add\n          swap1\n          dup2\n          mstore\n          0x20\n          add\n          0x00\n          keccak256\n            /* \"ElectronicMedicalRecords.sol\":9347:9357  outPatient */\n          0x02\n            /* \"ElectronicMedicalRecords.sol\":9347:9362  outPatient[add] */\n          0x00\n            /* \"ElectronicMedicalRecords.sol\":9358:9361  add */\n          dup6\n            /* \"ElectronicMedicalRecords.sol\":9347:9362  outPatient[add] */\n          0xffffffffffffffffffffffffffffffffffffffff\n          and\n          0xffffffffffffffffffffffffffffffffffffffff\n          and\n          dup2\n          mstore\n          0x20\n          add\n          swap1\n          dup2\n          mstore\n          0x20\n          add\n          0x00\n          keccak256\n            /* \"ElectronicMedicalRecords.sol\":9323:9363  return (patientId[add], outPatient[add]) */\n          dup2\n          mload(0x40)\n          dup1\n          0xa0\n          add\n          0x40\n          mstore\n          swap1\n          dup2\n          0x00\n          dup3\n          add\n          0x00\n          swap1\n          sload\n          swap1\n          0x0100\n          exp\n          swap1\n          div\n          0xffffffffffffffffffffffffffffffffffffffff\n          and\n          0xffffffffffffffffffffffffffffffffffffffff\n          and\n          0xffffffffffffffffffffffffffffffffffffffff\n          and\n          dup2\n          mstore\n          0x20\n          add\n          0x01\n          dup3\n          add\n          dup1\n          sload\n          tag_157\n          swap1\n          tag_158\n          jump\t// in\n        tag_157:\n          dup1\n          0x1f\n          add\n          0x20\n          dup1\n          swap2\n          div\n          mul\n          0x20\n          add\n          mload(0x40)\n          swap1\n          dup2\n          add\n          0x40\n          mstore\n          dup1\n          swap3\n          swap2\n          swap1\n          dup2\n          dup2\n          mstore\n          0x20\n          add\n          dup3\n          dup1\n          sload\n          tag_159\n          swap1\n          tag_158\n          jump\t// in\n        tag_159:\n          dup1\n          iszero\n          tag_160\n          jumpi\n          dup1\n          0x1f\n          lt\n          tag_161\n          jumpi\n          0x0100\n          dup1\n          dup4\n          sload\n          div\n          mul\n          dup4\n          mstore\n          swap2\n          0x20\n          add\n          swap2\n          jump(tag_160)\n        tag_161:\n          dup3\n          add\n          swap2\n          swap1\n          0x00\n          mstore\n          keccak256(0x00, 0x20)\n          swap1\n        tag_162:\n          dup2\n          sload\n          dup2\n          mstore\n          swap1\n          0x01\n          add\n          swap1\n          0x20\n          add\n          dup1\n          dup4\n          gt\n          tag_162\n          jumpi\n          dup3\n          swap1\n          sub\n          0x1f\n          and\n          dup3\n          add\n          swap2\n        tag_160:\n          pop\n          pop\n          pop\n          pop\n          pop\n          dup2\n          mstore\n          0x20\n          add\n          0x02\n          dup3\n          add\n          sload\n          dup2\n          mstore\n          0x20\n          add\n          0x03\n          dup3\n          add\n          dup1\n          sload\n          tag_163\n          swap1\n          tag_158\n          jump\t// in\n        tag_163:\n          dup1\n          0x1f\n          add\n          0x20\n          dup1\n          swap2\n          div\n          mul\n          0x20\n          add\n          mload(0x40)\n          swap1\n          dup2\n          add\n          0x40\n          mstore\n          dup1\n          swap3\n          swap2\n          swap1\n          dup2\n          dup2\n          mstore\n          0x20\n          add\n          dup3\n          dup1\n          sload\n          tag_164\n          swap1\n          tag_158\n          jump\t// in\n        tag_164:\n          dup1\n          iszero\n          tag_165\n          jumpi\n          dup1\n          0x1f\n          lt\n          tag_166\n          jumpi\n          0x0100\n          dup1\n          dup4\n          sload\n          div\n          mul\n          dup4\n          mstore\n          swap2\n          0x20\n          add\n          swap2\n          jump(tag_165)\n        tag_166:\n          dup3\n          add\n          swap2\n          swap1\n          0x00\n          mstore\n          keccak256(0x00, 0x20)\n          swap1\n        tag_167:\n          dup2\n          sload\n          dup2\n          mstore\n          swap1\n          0x01\n          add\n          swap1\n          0x20\n          add\n          dup1\n          dup4\n          gt\n          tag_167\n          jumpi\n          dup3\n          swap1\n          sub\n          0x1f\n          and\n          dup3\n          add\n          swap2\n        tag_165:\n          pop\n          pop\n          pop\n          pop\n          pop\n          dup2\n          mstore\n          0x20\n          add\n          0x04\n          dup3\n          add\n          dup1\n          sload\n          tag_168\n          swap1\n          tag_158\n          jump\t// in\n        tag_168:\n          dup1\n          0x1f\n          add\n          0x20\n          dup1\n          swap2\n          div\n          mul\n          0x20\n          add\n          mload(0x40)\n          swap1\n          dup2\n          add\n          0x40\n          mstore\n          dup1\n          swap3\n          swap2\n          swap1\n          dup2\n          dup2\n          mstore\n          0x20\n          add\n          dup3\n          dup1\n          sload\n          tag_169\n          swap1\n          tag_158\n          jump\t// in\n        tag_169:\n          dup1\n          iszero\n          tag_170\n          jumpi\n          dup1\n          0x1f\n          lt\n          tag_171\n          jumpi\n          0x0100\n          dup1\n          dup4\n          sload\n          div\n          mul\n          dup4\n          mstore\n          swap2\n          0x20\n          add\n          swap2\n          jump(tag_170)\n        tag_171:\n          dup3\n          add\n          swap2\n          swap1\n          0x00\n          mstore\n          keccak256(0x00, 0x20)\n          swap1\n        tag_172:\n          dup2\n          sload\n          dup2\n          mstore\n          swap1\n          0x01\n          add\n          swap1\n          0x20\n          add\n          dup1\n          dup4\n          gt\n          tag_172\n          jumpi\n          dup3\n          swap1\n          sub\n          0x1f\n          and\n          dup3\n          add\n          swap2\n        tag_170:\n          pop\n          pop\n          pop\n          pop\n          pop\n          dup2\n          mstore\n          pop\n          pop\n          swap2\n          pop\n          dup1\n          dup1\n          sload\n          dup1\n          0x20\n          mul\n          0x20\n          add\n          mload(0x40)\n          swap1\n          dup2\n          add\n          0x40\n          mstore\n          dup1\n          swap3\n          swap2\n          swap1\n          dup2\n          dup2\n          mstore\n          0x20\n          add\n          0x00\n          swap1\n        tag_173:\n          dup3\n          dup3\n          lt\n          iszero\n          tag_174\n          jumpi\n          dup4\n          dup3\n          swap1\n          0x00\n          mstore\n          keccak256(0x00, 0x20)\n          swap1\n          0x0a\n          mul\n          add\n          mload(0x40)\n          dup1\n          0x0140\n          add\n          0x40\n          mstore\n          swap1\n          dup2\n          0x00\n          dup3\n          add\n          0x00\n          swap1\n          sload\n          swap1\n          0x0100\n          exp\n          swap1\n          div\n          0xffffffffffffffffffffffffffffffffffffffff\n          and\n          0xffffffffffffffffffffffffffffffffffffffff\n          and\n          0xffffffffffffffffffffffffffffffffffffffff\n          and\n          dup2\n          mstore\n          0x20\n          add\n          0x01\n          dup3\n          add\n          dup1\n          sload\n          tag_176\n          swap1\n          tag_158\n          jump\t// in\n        tag_176:\n          dup1\n          0x1f\n          add\n          0x20\n          dup1\n          swap2\n          div\n          mul\n          0x20\n          add\n          mload(0x40)\n          swap1\n          dup2\n          add\n          0x40\n          mstore\n          dup1\n          swap3\n          swap2\n          swap1\n          dup2\n          dup2\n          mstore\n          0x20\n          add\n          dup3\n          dup1\n          sload\n          tag_177\n          swap1\n          tag_158\n          jump\t// in\n        tag_177:\n          dup1\n          iszero\n          tag_178\n          jumpi\n          dup1\n          0x1f\n          lt\n          tag_179\n          jumpi\n          0x0100\n          dup1\n          dup4\n          sload\n          div\n          mul\n          dup4\n          mstore\n          swap2\n          0x20\n          add\n          swap2\n          jump(tag_178)\n        tag_179:\n          dup3\n          add\n          swap2\n          swap1\n          0x00\n          mstore\n          keccak256(0x00, 0x20)\n          swap1\n        tag_180:\n          dup2\n          sload\n          dup2\n          mstore\n          swap1\n          0x01\n          add\n          swap1\n          0x20\n          add\n          dup1\n          dup4\n          gt\n          tag_180\n          jumpi\n          dup3\n          swap1\n          sub\n          0x1f\n          and\n          dup3\n          add\n          swap2\n        tag_178:\n          pop\n          pop\n          pop\n          pop\n          pop\n          dup2\n          mstore\n          0x20\n          add\n          0x02\n          dup3\n          add\n          dup1\n          sload\n          tag_181\n          swap1\n          tag_158\n          jump\t// in\n        tag_181:\n          dup1\n          0x1f\n          add\n          0x20\n          dup1\n          swap2\n          div\n          mul\n          0x20\n          add\n          mload(0x40)\n          swap1\n          dup2\n          add\n          0x40\n          mstore\n          dup1\n          swap3\n          swap2\n          swap1\n          dup2\n          dup2\n          mstore\n          0x20\n          add\n          dup3\n          dup1\n          sload\n          tag_182\n          swap1\n          tag_158\n          jump\t// in\n        tag_182:\n          dup1\n          iszero\n          tag_183\n          jumpi\n          dup1\n          0x1f\n          lt\n          tag_184\n          jumpi\n          0x0100\n          dup1\n          dup4\n          sload\n          div\n          mul\n          dup4\n          mstore\n          swap2\n          0x20\n          add\n          swap2\n          jump(tag_183)\n        tag_184:\n          dup3\n          add\n          swap2\n          swap1\n          0x00\n          mstore\n          keccak256(0x00, 0x20)\n          swap1\n        tag_185:\n          dup2\n          sload\n          dup2\n          mstore\n          swap1\n          0x01\n          add\n          swap1\n          0x20\n          add\n          dup1\n          dup4\n          gt\n          tag_185\n          jumpi\n          dup3\n          swap1\n          sub\n          0x1f\n          and\n          dup3\n          add\n          swap2\n        tag_183:\n          pop\n          pop\n          pop\n          pop\n          pop\n          dup2\n          mstore\n          0x20\n          add\n          0x03\n          dup3\n          add\n          dup1\n          sload\n          tag_186\n          swap1\n          tag_158\n          jump\t// in\n        tag_186:\n          dup1\n          0x1f\n          add\n          0x20\n          dup1\n          swap2\n          div\n          mul\n          0x20\n          add\n          mload(0x40)\n          swap1\n          dup2\n          add\n          0x40\n          mstore\n          dup1\n          swap3\n          swap2\n          swap1\n          dup2\n          dup2\n          mstore\n          0x20\n          add\n          dup3\n          dup1\n          sload\n          tag_187\n          swap1\n          tag_158\n          jump\t// in\n        tag_187:\n          dup1\n          iszero\n          tag_188\n          jumpi\n          dup1\n          0x1f\n          lt\n          tag_189\n          jumpi\n          0x0100\n          dup1\n          dup4\n          sload\n          div\n          mul\n          dup4\n          mstore\n          swap2\n          0x20\n          add\n          swap2\n          jump(tag_188)\n        tag_189:\n          dup3\n          add\n          swap2\n          swap1\n          0x00\n          mstore\n          keccak256(0x00, 0x20)\n          swap1\n        tag_190:\n          dup2\n          sload\n          dup2\n          mstore\n          swap1\n          0x01\n          add\n          swap1\n          0x20\n          add\n          dup1\n          dup4\n          gt\n          tag_190\n          jumpi\n          dup3\n          swap1\n          sub\n          0x1f\n          and\n          dup3\n          add\n          swap2\n        tag_188:\n          pop\n          pop\n          pop\n          pop\n          pop\n          dup2\n          mstore\n          0x20\n          add\n          0x04\n          dup3\n          add\n          dup1\n          sload\n          tag_191\n          swap1\n          tag_158\n          jump\t// in\n        tag_191:\n          dup1\n          0x1f\n          add\n          0x20\n          dup1\n          swap2\n          div\n          mul\n          0x20\n          add\n          mload(0x40)\n          swap1\n          dup2\n          add\n          0x40\n          mstore\n          dup1\n          swap3\n          swap2\n          swap1\n          dup2\n          dup2\n          mstore\n          0x20\n          add\n          dup3\n          dup1\n          sload\n          tag_192\n          swap1\n          tag_158\n          jump\t// in\n        tag_192:\n          dup1\n          iszero\n          tag_193\n          jumpi\n          dup1\n          0x1f\n          lt\n          tag_194\n          jumpi\n          0x0100\n          dup1\n          dup4\n          sload\n          div\n          mul\n          dup4\n          mstore\n          swap2\n          0x20\n          add\n          swap2\n          jump(tag_193)\n        tag_194:\n          dup3\n          add\n          swap2\n          swap1\n          0x00\n          mstore\n          keccak256(0x00, 0x20)\n          swap1\n        tag_195:\n          dup2\n          sload\n          dup2\n          mstore\n          swap1\n          0x01\n          add\n          swap1\n          0x20\n          add\n          dup1\n          dup4\n          gt\n          tag_195\n          jumpi\n          dup3\n          swap1\n          sub\n          0x1f\n          and\n          dup3\n          add\n          swap2\n        tag_193:\n          pop\n          pop\n          pop\n          pop\n          pop\n          dup2\n          mstore\n          0x20\n          add\n          0x05\n          dup3\n          add\n          dup1\n          sload\n          tag_196\n          swap1\n          tag_158\n          jump\t// in\n        tag_196:\n          dup1\n          0x1f\n          add\n          0x20\n          dup1\n          swap2\n          div\n          mul\n          0x20\n          add\n          mload(0x40)\n          swap1\n          dup2\n          add\n          0x40\n          mstore\n          dup1\n          swap3\n          swap2\n          swap1\n          dup2\n          dup2\n          mstore\n          0x20\n          add\n          dup3\n          dup1\n          sload\n          tag_197\n          swap1\n          tag_158\n          jump\t// in\n        tag_197:\n          dup1\n          iszero\n          tag_198\n          jumpi\n          dup1\n          0x1f\n          lt\n          tag_199\n          jumpi\n          0x0100\n          dup1\n          dup4\n          sload\n          div\n          mul\n          dup4\n          mstore\n          swap2\n          0x20\n          add\n          swap2\n          jump(tag_198)\n        tag_199:\n          dup3\n          add\n          swap2\n          swap1\n          0x00\n          mstore\n          keccak256(0x00, 0x20)\n          swap1\n        tag_200:\n          dup2\n          sload\n          dup2\n          mstore\n          swap1\n          0x01\n          add\n          swap1\n          0x20\n          add\n          dup1\n          dup4\n          gt\n          tag_200\n          jumpi\n          dup3\n          swap1\n          sub\n          0x1f\n          and\n          dup3\n          add\n          swap2\n        tag_198:\n          pop\n          pop\n          pop\n          pop\n          pop\n          dup2\n          mstore\n          0x20\n          add\n          0x06\n          dup3\n          add\n          dup1\n          sload\n          tag_201\n          swap1\n          tag_158\n          jump\t// in\n        tag_201:\n          dup1\n          0x1f\n          add\n          0x20\n          dup1\n          swap2\n          div\n          mul\n          0x20\n          add\n          mload(0x40)\n          swap1\n          dup2\n          add\n          0x40\n          mstore\n          dup1\n          swap3\n          swap2\n          swap1\n          dup2\n          dup2\n          mstore\n          0x20\n          add\n          dup3\n          dup1\n          sload\n          tag_202\n          swap1\n          tag_158\n          jump\t// in\n        tag_202:\n          dup1\n          iszero\n          tag_203\n          jumpi\n          dup1\n          0x1f\n          lt\n          tag_204\n          jumpi\n          0x0100\n          dup1\n          dup4\n          sload\n          div\n          mul\n          dup4\n          mstore\n          swap2\n          0x20\n          add\n          swap2\n          jump(tag_203)\n        tag_204:\n          dup3\n          add\n          swap2\n          swap1\n          0x00\n          mstore\n          keccak256(0x00, 0x20)\n          swap1\n        tag_205:\n          dup2\n          sload\n          dup2\n          mstore\n          swap1\n          0x01\n          add\n          swap1\n          0x20\n          add\n          dup1\n          dup4\n          gt\n          tag_205\n          jumpi\n          dup3\n          swap1\n          sub\n          0x1f\n          and\n          dup3\n          add\n          swap2\n        tag_203:\n          pop\n          pop\n          pop\n          pop\n          pop\n          dup2\n          mstore\n          0x20\n          add\n          0x07\n          dup3\n          add\n          dup1\n          sload\n          tag_206\n          swap1\n          tag_158\n          jump\t// in\n        tag_206:\n          dup1\n          0x1f\n          add\n          0x20\n          dup1\n          swap2\n          div\n          mul\n          0x20\n          add\n          mload(0x40)\n          swap1\n          dup2\n          add\n          0x40\n          mstore\n          dup1\n          swap3\n          swap2\n          swap1\n          dup2\n          dup2\n          mstore\n          0x20\n          add\n          dup3\n          dup1\n          sload\n          tag_207\n          swap1\n          tag_158\n          jump\t// in\n        tag_207:\n          dup1\n          iszero\n          tag_208\n          jumpi\n          dup1\n          0x1f\n          lt\n          tag_209\n          jumpi\n          0x0100\n          dup1\n          dup4\n          sload\n          div\n          mul\n          dup4\n          mstore\n          swap2\n          0x20\n          add\n          swap2\n          jump(tag_208)\n        tag_209:\n          dup3\n          add\n          swap2\n          swap1\n          0x00\n          mstore\n          keccak256(0x00, 0x20)\n          swap1\n        tag_210:\n          dup2\n          sload\n          dup2\n          mstore\n          swap1\n          0x01\n          add\n          swap1\n          0x20\n          add\n          dup1\n          dup4\n          gt\n          tag_210\n          jumpi\n          dup3\n          swap1\n          sub\n          0x1f\n          and\n          dup3\n          add\n          swap2\n        tag_208:\n          pop\n          pop\n          pop\n          pop\n          pop\n          dup2\n          mstore\n          0x20\n          add\n          0x08\n          dup3\n          add\n          dup1\n          sload\n          tag_211\n          swap1\n          tag_158\n          jump\t// in\n        tag_211:\n          dup1\n          0x1f\n          add\n          0x20\n          dup1\n          swap2\n          div\n          mul\n          0x20\n          add\n          mload(0x40)\n          swap1\n          dup2\n          add\n          0x40\n          mstore\n          dup1\n          swap3\n          swap2\n          swap1\n          dup2\n          dup2\n          mstore\n          0x20\n          add\n          dup3\n          dup1\n          sload\n          tag_212\n          swap1\n          tag_158\n          jump\t// in\n        tag_212:\n          dup1\n          iszero\n          tag_213\n          jumpi\n          dup1\n          0x1f\n          lt\n          tag_214\n          jumpi\n          0x0100\n          dup1\n          dup4\n          sload\n          div\n          mul\n          dup4\n          mstore\n          swap2\n          0x20\n          add\n          swap2\n          jump(tag_213)\n        tag_214:\n          dup3\n          add\n          swap2\n          swap1\n          0x00\n          mstore\n          keccak256(0x00, 0x20)\n          swap1\n        tag_215:\n          dup2\n          sload\n          dup2\n          mstore\n          swap1\n          0x01\n          add\n          swap1\n          0x20\n          add\n          dup1\n          dup4\n          gt\n          tag_215\n          jumpi\n          dup3\n          swap1\n          sub\n          0x1f\n          and\n          dup3\n          add\n          swap2\n        tag_213:\n          pop\n          pop\n          pop\n          pop\n          pop\n          dup2\n          mstore\n          0x20\n          add\n          0x09\n          dup3\n          add\n          0x00\n          swap1\n          sload\n          swap1\n          0x0100\n          exp\n          swap1\n          div\n          0xff\n          and\n          iszero\n          iszero\n          iszero\n          iszero\n          dup2\n          mstore\n          pop\n          pop\n          dup2\n          mstore\n          0x20\n          add\n          swap1\n          0x01\n          add\n          swap1\n          jump(tag_173)\n        tag_174:\n          pop\n          pop\n          pop\n          pop\n          swap1\n          pop\n          swap2\n          pop\n          swap2\n          pop\n            /* \"ElectronicMedicalRecords.sol\":9207:9371  function getOutPatient(address add) public view returns(IdentitasPasien memory a, RawatJalan[] memory b) {... */\n          swap2\n          pop\n          swap2\n          jump\t// out\n            /* \"ElectronicMedicalRecords.sol\":9548:9726  function getEmergencyPatient(address add) public view returns(IdentitasPasien memory a, GawatDarurat[] memory b) {... */\n        tag_42:\n            /* \"ElectronicMedicalRecords.sol\":9610:9634  IdentitasPasien memory a */\n          tag_216\n          tag_97\n          jump\t// in\n        tag_216:\n            /* \"ElectronicMedicalRecords.sol\":9636:9659  GawatDarurat[] memory b */\n          0x60\n            /* \"ElectronicMedicalRecords.sol\":9680:9689  patientId */\n          0x00\n            /* \"ElectronicMedicalRecords.sol\":9680:9694  patientId[add] */\n          dup1\n            /* \"ElectronicMedicalRecords.sol\":9690:9693  add */\n          dup5\n            /* \"ElectronicMedicalRecords.sol\":9680:9694  patientId[add] */\n          0xffffffffffffffffffffffffffffffffffffffff\n          and\n          0xffffffffffffffffffffffffffffffffffffffff\n          and\n          dup2\n          mstore\n          0x20\n          add\n          swap1\n          dup2\n          mstore\n          0x20\n          add\n          0x00\n          keccak256\n            /* \"ElectronicMedicalRecords.sol\":9696:9712  emergencyPatient */\n          0x04\n            /* \"ElectronicMedicalRecords.sol\":9696:9717  emergencyPatient[add] */\n          0x00\n            /* \"ElectronicMedicalRecords.sol\":9713:9716  add */\n          dup6\n            /* \"ElectronicMedicalRecords.sol\":9696:9717  emergencyPatient[add] */\n          0xffffffffffffffffffffffffffffffffffffffff\n          and\n          0xffffffffffffffffffffffffffffffffffffffff\n          and\n          dup2\n          mstore\n          0x20\n          add\n          swap1\n          dup2\n          mstore\n          0x20\n          add\n          0x00\n          keccak256\n            /* \"ElectronicMedicalRecords.sol\":9672:9718  return (patientId[add], emergencyPatient[add]) */\n          dup2\n          mload(0x40)\n          dup1\n          0xa0\n          add\n          0x40\n          mstore\n          swap1\n          dup2\n          0x00\n          dup3\n          add\n          0x00\n          swap1\n          sload\n          swap1\n          0x0100\n          exp\n          swap1\n          div\n          0xffffffffffffffffffffffffffffffffffffffff\n          and\n          0xffffffffffffffffffffffffffffffffffffffff\n          and\n          0xffffffffffffffffffffffffffffffffffffffff\n          and\n          dup2\n          mstore\n          0x20\n          add\n          0x01\n          dup3\n          add\n          dup1\n          sload\n          tag_218\n          swap1\n          tag_158\n          jump\t// in\n        tag_218:\n          dup1\n          0x1f\n          add\n          0x20\n          dup1\n          swap2\n          div\n          mul\n          0x20\n          add\n          mload(0x40)\n          swap1\n          dup2\n          add\n          0x40\n          mstore\n          dup1\n          swap3\n          swap2\n          swap1\n          dup2\n          dup2\n          mstore\n          0x20\n          add\n          dup3\n          dup1\n          sload\n          tag_219\n          swap1\n          tag_158\n          jump\t// in\n        tag_219:\n          dup1\n          iszero\n          tag_220\n          jumpi\n          dup1\n          0x1f\n          lt\n          tag_221\n          jumpi\n          0x0100\n          dup1\n          dup4\n          sload\n          div\n          mul\n          dup4\n          mstore\n          swap2\n          0x20\n          add\n          swap2\n          jump(tag_220)\n        tag_221:\n          dup3\n          add\n          swap2\n          swap1\n          0x00\n          mstore\n          keccak256(0x00, 0x20)\n          swap1\n        tag_222:\n          dup2\n          sload\n          dup2\n          mstore\n          swap1\n          0x01\n          add\n          swap1\n          0x20\n          add\n          dup1\n          dup4\n          gt\n          tag_222\n          jumpi\n          dup3\n          swap1\n          sub\n          0x1f\n          and\n          dup3\n          add\n          swap2\n        tag_220:\n          pop\n          pop\n          pop\n          pop\n          pop\n          dup2\n          mstore\n          0x20\n          add\n          0x02\n          dup3\n          add\n          sload\n          dup2\n          mstore\n          0x20\n          add\n          0x03\n          dup3\n          add\n          dup1\n          sload\n          tag_223\n          swap1\n          tag_158\n          jump\t// in\n        tag_223:\n          dup1\n          0x1f\n          add\n          0x20\n          dup1\n          swap2\n          div\n          mul\n          0x20\n          add\n          mload(0x40)\n          swap1\n          dup2\n          add\n          0x40\n          mstore\n          dup1\n          swap3\n          swap2\n          swap1\n          dup2\n          dup2\n          mstore\n          0x20\n          add\n          dup3\n          dup1\n          sload\n          tag_224\n          swap1\n          tag_158\n          jump\t// in\n        tag_224:\n          dup1\n          iszero\n          tag_225\n          jumpi\n          dup1\n          0x1f\n          lt\n          tag_226\n          jumpi\n          0x0100\n          dup1\n          dup4\n          sload\n          div\n          mul\n          dup4\n          mstore\n          swap2\n          0x20\n          add\n          swap2\n          jump(tag_225)\n        tag_226:\n          dup3\n          add\n          swap2\n          swap1\n          0x00\n          mstore\n          keccak256(0x00, 0x20)\n          swap1\n        tag_227:\n          dup2\n          sload\n          dup2\n          mstore\n          swap1\n          0x01\n          add\n          swap1\n          0x20\n          add\n          dup1\n          dup4\n          gt\n          tag_227\n          jumpi\n          dup3\n          swap1\n          sub\n          0x1f\n          and\n          dup3\n          add\n          swap2\n        tag_225:\n          pop\n          pop\n          pop\n          pop\n          pop\n          dup2\n          mstore\n          0x20\n          add\n          0x04\n          dup3\n          add\n          dup1\n          sload\n          tag_228\n          swap1\n          tag_158\n          jump\t// in\n        tag_228:\n          dup1\n          0x1f\n          add\n          0x20\n          dup1\n          swap2\n          div\n          mul\n          0x20\n          add\n          mload(0x40)\n          swap1\n          dup2\n          add\n          0x40\n          mstore\n          dup1\n          swap3\n          swap2\n          swap1\n          dup2\n          dup2\n          mstore\n          0x20\n          add\n          dup3\n          dup1\n          sload\n          tag_229\n          swap1\n          tag_158\n          jump\t// in\n        tag_229:\n          dup1\n          iszero\n          tag_230\n          jumpi\n          dup1\n          0x1f\n          lt\n          tag_231\n          jumpi\n          0x0100\n          dup1\n          dup4\n          sload\n          div\n          mul\n          dup4\n          mstore\n          swap2\n          0x20\n          add\n          swap2\n          jump(tag_230)\n        tag_231:\n          dup3\n          add\n          swap2\n          swap1\n          0x00\n          mstore\n          keccak256(0x00, 0x20)\n          swap1\n        tag_232:\n          dup2\n          sload\n          dup2\n          mstore\n          swap1\n          0x01\n          add\n          swap1\n          0x20\n          add\n          dup1\n          dup4\n          gt\n          tag_232\n          jumpi\n          dup3\n          swap1\n          sub\n          0x1f\n          and\n          dup3\n          add\n          swap2\n        tag_230:\n          pop\n          pop\n          pop\n          pop\n          pop\n          dup2\n          mstore\n          pop\n          pop\n          swap2\n          pop\n          dup1\n          dup1\n          sload\n          dup1\n          0x20\n          mul\n          0x20\n          add\n          mload(0x40)\n          swap1\n          dup2\n          add\n          0x40\n          mstore\n          dup1\n          swap3\n          swap2\n          swap1\n          dup2\n          dup2\n          mstore\n          0x20\n          add\n          0x00\n          swap1\n        tag_233:\n          dup3\n          dup3\n          lt\n          iszero\n          tag_234\n          jumpi\n          dup4\n          dup3\n          swap1\n          0x00\n          mstore\n          keccak256(0x00, 0x20)\n          swap1\n          0x0c\n          mul\n          add\n          mload(0x40)\n          dup1\n          0x0180\n          add\n          0x40\n          mstore\n          swap1\n          dup2\n          0x00\n          dup3\n          add\n          0x00\n          swap1\n          sload\n          swap1\n          0x0100\n          exp\n          swap1\n          div\n          0xffffffffffffffffffffffffffffffffffffffff\n          and\n          0xffffffffffffffffffffffffffffffffffffffff\n          and\n          0xffffffffffffffffffffffffffffffffffffffff\n          and\n          dup2\n          mstore\n          0x20\n          add\n          0x01\n          dup3\n          add\n          dup1\n          sload\n          tag_236\n          swap1\n          tag_158\n          jump\t// in\n        tag_236:\n          dup1\n          0x1f\n          add\n          0x20\n          dup1\n          swap2\n          div\n          mul\n          0x20\n          add\n          mload(0x40)\n          swap1\n          dup2\n          add\n          0x40\n          mstore\n          dup1\n          swap3\n          swap2\n          swap1\n          dup2\n          dup2\n          mstore\n          0x20\n          add\n          dup3\n          dup1\n          sload\n          tag_237\n          swap1\n          tag_158\n          jump\t// in\n        tag_237:\n          dup1\n          iszero\n          tag_238\n          jumpi\n          dup1\n          0x1f\n          lt\n          tag_239\n          jumpi\n          0x0100\n          dup1\n          dup4\n          sload\n          div\n          mul\n          dup4\n          mstore\n          swap2\n          0x20\n          add\n          swap2\n          jump(tag_238)\n        tag_239:\n          dup3\n          add\n          swap2\n          swap1\n          0x00\n          mstore\n          keccak256(0x00, 0x20)\n          swap1\n        tag_240:\n          dup2\n          sload\n          dup2\n          mstore\n          swap1\n          0x01\n          add\n          swap1\n          0x20\n          add\n          dup1\n          dup4\n          gt\n          tag_240\n          jumpi\n          dup3\n          swap1\n          sub\n          0x1f\n          and\n          dup3\n          add\n          swap2\n        tag_238:\n          pop\n          pop\n          pop\n          pop\n          pop\n          dup2\n          mstore\n          0x20\n          add\n          0x02\n          dup3\n          add\n          dup1\n          sload\n          tag_241\n          swap1\n          tag_158\n          jump\t// in\n        tag_241:\n          dup1\n          0x1f\n          add\n          0x20\n          dup1\n          swap2\n          div\n          mul\n          0x20\n          add\n          mload(0x40)\n          swap1\n          dup2\n          add\n          0x40\n          mstore\n          dup1\n          swap3\n          swap2\n          swap1\n          dup2\n          dup2\n          mstore\n          0x20\n          add\n          dup3\n          dup1\n          sload\n          tag_242\n          swap1\n          tag_158\n          jump\t// in\n        tag_242:\n          dup1\n          iszero\n          tag_243\n          jumpi\n          dup1\n          0x1f\n          lt\n          tag_244\n          jumpi\n          0x0100\n          dup1\n          dup4\n          sload\n          div\n          mul\n          dup4\n          mstore\n          swap2\n          0x20\n          add\n          swap2\n          jump(tag_243)\n        tag_244:\n          dup3\n          add\n          swap2\n          swap1\n          0x00\n          mstore\n          keccak256(0x00, 0x20)\n          swap1\n        tag_245:\n          dup2\n          sload\n          dup2\n          mstore\n          swap1\n          0x01\n          add\n          swap1\n          0x20\n          add\n          dup1\n          dup4\n          gt\n          tag_245\n          jumpi\n          dup3\n          swap1\n          sub\n          0x1f\n          and\n          dup3\n          add\n          swap2\n        tag_243:\n          pop\n          pop\n          pop\n          pop\n          pop\n          dup2\n          mstore\n          0x20\n          add\n          0x03\n          dup3\n          add\n          dup1\n          sload\n          tag_246\n          swap1\n          tag_158\n          jump\t// in\n        tag_246:\n          dup1\n          0x1f\n          add\n          0x20\n          dup1\n          swap2\n          div\n          mul\n          0x20\n          add\n          mload(0x40)\n          swap1\n          dup2\n          add\n          0x40\n          mstore\n          dup1\n          swap3\n          swap2\n          swap1\n          dup2\n          dup2\n          mstore\n          0x20\n          add\n          dup3\n          dup1\n          sload\n          tag_247\n          swap1\n          tag_158\n          jump\t// in\n        tag_247:\n          dup1\n          iszero\n          tag_248\n          jumpi\n          dup1\n          0x1f\n          lt\n          tag_249\n          jumpi\n          0x0100\n          dup1\n          dup4\n          sload\n          div\n          mul\n          dup4\n          mstore\n          swap2\n          0x20\n          add\n          swap2\n          jump(tag_248)\n        tag_249:\n          dup3\n          add\n          swap2\n          swap1\n          0x00\n          mstore\n          keccak256(0x00, 0x20)\n          swap1\n        tag_250:\n          dup2\n          sload\n          dup2\n          mstore\n          swap1\n          0x01\n          add\n          swap1\n          0x20\n          add\n          dup1\n          dup4\n          gt\n          tag_250\n          jumpi\n          dup3\n          swap1\n          sub\n          0x1f\n          and\n          dup3\n          add\n          swap2\n        tag_248:\n          pop\n          pop\n          pop\n          pop\n          pop\n          dup2\n          mstore\n          0x20\n          add\n          0x04\n          dup3\n          add\n          dup1\n          sload\n          tag_251\n          swap1\n          tag_158\n          jump\t// in\n        tag_251:\n          dup1\n          0x1f\n          add\n          0x20\n          dup1\n          swap2\n          div\n          mul\n          0x20\n          add\n          mload(0x40)\n          swap1\n          dup2\n          add\n          0x40\n          mstore\n          dup1\n          swap3\n          swap2\n          swap1\n          dup2\n          dup2\n          mstore\n          0x20\n          add\n          dup3\n          dup1\n          sload\n          tag_252\n          swap1\n          tag_158\n          jump\t// in\n        tag_252:\n          dup1\n          iszero\n          tag_253\n          jumpi\n          dup1\n          0x1f\n          lt\n          tag_254\n          jumpi\n          0x0100\n          dup1\n          dup4\n          sload\n          div\n          mul\n          dup4\n          mstore\n          swap2\n          0x20\n          add\n          swap2\n          jump(tag_253)\n        tag_254:\n          dup3\n          add\n          swap2\n          swap1\n          0x00\n          mstore\n          keccak256(0x00, 0x20)\n          swap1\n        tag_255:\n          dup2\n          sload\n          dup2\n          mstore\n          swap1\n          0x01\n          add\n          swap1\n          0x20\n          add\n          dup1\n          dup4\n          gt\n          tag_255\n          jumpi\n          dup3\n          swap1\n          sub\n          0x1f\n          and\n          dup3\n          add\n          swap2\n        tag_253:\n          pop\n          pop\n          pop\n          pop\n          pop\n          dup2\n          mstore\n          0x20\n          add\n          0x05\n          dup3\n          add\n          dup1\n          sload\n          tag_256\n          swap1\n          tag_158\n          jump\t// in\n        tag_256:\n          dup1\n          0x1f\n          add\n          0x20\n          dup1\n          swap2\n          div\n          mul\n          0x20\n          add\n          mload(0x40)\n          swap1\n          dup2\n          add\n          0x40\n          mstore\n          dup1\n          swap3\n          swap2\n          swap1\n          dup2\n          dup2\n          mstore\n          0x20\n          add\n          dup3\n          dup1\n          sload\n          tag_257\n          swap1\n          tag_158\n          jump\t// in\n        tag_257:\n          dup1\n          iszero\n          tag_258\n          jumpi\n          dup1\n          0x1f\n          lt\n          tag_259\n          jumpi\n          0x0100\n          dup1\n          dup4\n          sload\n          div\n          mul\n          dup4\n          mstore\n          swap2\n          0x20\n          add\n          swap2\n          jump(tag_258)\n        tag_259:\n          dup3\n          add\n          swap2\n          swap1\n          0x00\n          mstore\n          keccak256(0x00, 0x20)\n          swap1\n        tag_260:\n          dup2\n          sload\n          dup2\n          mstore\n          swap1\n          0x01\n          add\n          swap1\n          0x20\n          add\n          dup1\n          dup4\n          gt\n          tag_260\n          jumpi\n          dup3\n          swap1\n          sub\n          0x1f\n          and\n          dup3\n          add\n          swap2\n        tag_258:\n          pop\n          pop\n          pop\n          pop\n          pop\n          dup2\n          mstore\n          0x20\n          add\n          0x06\n          dup3\n          add\n          dup1\n          sload\n          tag_261\n          swap1\n          tag_158\n          jump\t// in\n        tag_261:\n          dup1\n          0x1f\n          add\n          0x20\n          dup1\n          swap2\n          div\n          mul\n          0x20\n          add\n          mload(0x40)\n          swap1\n          dup2\n          add\n          0x40\n          mstore\n          dup1\n          swap3\n          swap2\n          swap1\n          dup2\n          dup2\n          mstore\n          0x20\n          add\n          dup3\n          dup1\n          sload\n          tag_262\n          swap1\n          tag_158\n          jump\t// in\n        tag_262:\n          dup1\n          iszero\n          tag_263\n          jumpi\n          dup1\n          0x1f\n          lt\n          tag_264\n          jumpi\n          0x0100\n          dup1\n          dup4\n          sload\n          div\n          mul\n          dup4\n          mstore\n          swap2\n          0x20\n          add\n          swap2\n          jump(tag_263)\n        tag_264:\n          dup3\n          add\n          swap2\n          swap1\n          0x00\n          mstore\n          keccak256(0x00, 0x20)\n          swap1\n        tag_265:\n          dup2\n          sload\n          dup2\n          mstore\n          swap1\n          0x01\n          add\n          swap1\n          0x20\n          add\n          dup1\n          dup4\n          gt\n          tag_265\n          jumpi\n          dup3\n          swap1\n          sub\n          0x1f\n          and\n          dup3\n          add\n          swap2\n        tag_263:\n          pop\n          pop\n          pop\n          pop\n          pop\n          dup2\n          mstore\n          0x20\n          add\n          0x07\n          dup3\n          add\n          dup1\n          sload\n          tag_266\n          swap1\n          tag_158\n          jump\t// in\n        tag_266:\n          dup1\n          0x1f\n          add\n          0x20\n          dup1\n          swap2\n          div\n          mul\n          0x20\n          add\n          mload(0x40)\n          swap1\n          dup2\n          add\n          0x40\n          mstore\n          dup1\n          swap3\n          swap2\n          swap1\n          dup2\n          dup2\n          mstore\n          0x20\n          add\n          dup3\n          dup1\n          sload\n          tag_267\n          swap1\n          tag_158\n          jump\t// in\n        tag_267:\n          dup1\n          iszero\n          tag_268\n          jumpi\n          dup1\n          0x1f\n          lt\n          tag_269\n          jumpi\n          0x0100\n          dup1\n          dup4\n          sload\n          div\n          mul\n          dup4\n          mstore\n          swap2\n          0x20\n          add\n          swap2\n          jump(tag_268)\n        tag_269:\n          dup3\n          add\n          swap2\n          swap1\n          0x00\n          mstore\n          keccak256(0x00, 0x20)\n          swap1\n        tag_270:\n          dup2\n          sload\n          dup2\n          mstore\n          swap1\n          0x01\n          add\n          swap1\n          0x20\n          add\n          dup1\n          dup4\n          gt\n          tag_270\n          jumpi\n          dup3\n          swap1\n          sub\n          0x1f\n          and\n          dup3\n          add\n          swap2\n        tag_268:\n          pop\n          pop\n          pop\n          pop\n          pop\n          dup2\n          mstore\n          0x20\n          add\n          0x08\n          dup3\n          add\n          dup1\n          sload\n          tag_271\n          swap1\n          tag_158\n          jump\t// in\n        tag_271:\n          dup1\n          0x1f\n          add\n          0x20\n          dup1\n          swap2\n          div\n          mul\n          0x20\n          add\n          mload(0x40)\n          swap1\n          dup2\n          add\n          0x40\n          mstore\n          dup1\n          swap3\n          swap2\n          swap1\n          dup2\n          dup2\n          mstore\n          0x20\n          add\n          dup3\n          dup1\n          sload\n          tag_272\n          swap1\n          tag_158\n          jump\t// in\n        tag_272:\n          dup1\n          iszero\n          tag_273\n          jumpi\n          dup1\n          0x1f\n          lt\n          tag_274\n          jumpi\n          0x0100\n          dup1\n          dup4\n          sload\n          div\n          mul\n          dup4\n          mstore\n          swap2\n          0x20\n          add\n          swap2\n          jump(tag_273)\n        tag_274:\n          dup3\n          add\n          swap2\n          swap1\n          0x00\n          mstore\n          keccak256(0x00, 0x20)\n          swap1\n        tag_275:\n          dup2\n          sload\n          dup2\n          mstore\n          swap1\n          0x01\n          add\n          swap1\n          0x20\n          add\n          dup1\n          dup4\n          gt\n          tag_275\n          jumpi\n          dup3\n          swap1\n          sub\n          0x1f\n          and\n          dup3\n          add\n          swap2\n        tag_273:\n          pop\n          pop\n          pop\n          pop\n          pop\n          dup2\n          mstore\n          0x20\n          add\n          0x09\n          dup3\n          add\n          dup1\n          sload\n          tag_276\n          swap1\n          tag_158\n          jump\t// in\n        tag_276:\n          dup1\n          0x1f\n          add\n          0x20\n          dup1\n          swap2\n          div\n          mul\n          0x20\n          add\n          mload(0x40)\n          swap1\n          dup2\n          add\n          0x40\n          mstore\n          dup1\n          swap3\n          swap2\n          swap1\n          dup2\n          dup2\n          mstore\n          0x20\n          add\n          dup3\n          dup1\n          sload\n          tag_277\n          swap1\n          tag_158\n          jump\t// in\n        tag_277:\n          dup1\n          iszero\n          tag_278\n          jumpi\n          dup1\n          0x1f\n          lt\n          tag_279\n          jumpi\n          0x0100\n          dup1\n          dup4\n          sload\n          div\n          mul\n          dup4\n          mstore\n          swap2\n          0x20\n          add\n          swap2\n          jump(tag_278)\n        tag_279:\n          dup3\n          add\n          swap2\n          swap1\n          0x00\n          mstore\n          keccak256(0x00, 0x20)\n          swap1\n        tag_280:\n          dup2\n          sload\n          dup2\n          mstore\n          swap1\n          0x01\n          add\n          swap1\n          0x20\n          add\n          dup1\n          dup4\n          gt\n          tag_280\n          jumpi\n          dup3\n          swap1\n          sub\n          0x1f\n          and\n          dup3\n          add\n          swap2\n        tag_278:\n          pop\n          pop\n          pop\n          pop\n          pop\n          dup2\n          mstore\n          0x20\n          add\n          0x0a\n          dup3\n          add\n          dup1\n          sload\n          tag_281\n          swap1\n          tag_158\n          jump\t// in\n        tag_281:\n          dup1\n          0x1f\n          add\n          0x20\n          dup1\n          swap2\n          div\n          mul\n          0x20\n          add\n          mload(0x40)\n          swap1\n          dup2\n          add\n          0x40\n          mstore\n          dup1\n          swap3\n          swap2\n          swap1\n          dup2\n          dup2\n          mstore\n          0x20\n          add\n          dup3\n          dup1\n          sload\n          tag_282\n          swap1\n          tag_158\n          jump\t// in\n        tag_282:\n          dup1\n          iszero\n          tag_283\n          jumpi\n          dup1\n          0x1f\n          lt\n          tag_284\n          jumpi\n          0x0100\n          dup1\n          dup4\n          sload\n          div\n          mul\n          dup4\n          mstore\n          swap2\n          0x20\n          add\n          swap2\n          jump(tag_283)\n        tag_284:\n          dup3\n          add\n          swap2\n          swap1\n          0x00\n          mstore\n          keccak256(0x00, 0x20)\n          swap1\n        tag_285:\n          dup2\n          sload\n          dup2\n          mstore\n          swap1\n          0x01\n          add\n          swap1\n          0x20\n          add\n          dup1\n          dup4\n          gt\n          tag_285\n          jumpi\n          dup3\n          swap1\n          sub\n          0x1f\n          and\n          dup3\n          add\n          swap2\n        tag_283:\n          pop\n          pop\n          pop\n          pop\n          pop\n          dup2\n          mstore\n          0x20\n          add\n          0x0b\n          dup3\n          add\n          dup1\n          sload\n          tag_286\n          swap1\n          tag_158\n          jump\t// in\n        tag_286:\n          dup1\n          0x1f\n          add\n          0x20\n          dup1\n          swap2\n          div\n          mul\n          0x20\n          add\n          mload(0x40)\n          swap1\n          dup2\n          add\n          0x40\n          mstore\n          dup1\n          swap3\n          swap2\n          swap1\n          dup2\n          dup2\n          mstore\n          0x20\n          add\n          dup3\n          dup1\n          sload\n          tag_287\n          swap1\n          tag_158\n          jump\t// in\n        tag_287:\n          dup1\n          iszero\n          tag_288\n          jumpi\n          dup1\n          0x1f\n          lt\n          tag_289\n          jumpi\n          0x0100\n          dup1\n          dup4\n          sload\n          div\n          mul\n          dup4\n          mstore\n          swap2\n          0x20\n          add\n          swap2\n          jump(tag_288)\n        tag_289:\n          dup3\n          add\n          swap2\n          swap1\n          0x00\n          mstore\n          keccak256(0x00, 0x20)\n          swap1\n        tag_290:\n          dup2\n          sload\n          dup2\n          mstore\n          swap1\n          0x01\n          add\n          swap1\n          0x20\n          add\n          dup1\n          dup4\n          gt\n          tag_290\n          jumpi\n          dup3\n          swap1\n          sub\n          0x1f\n          and\n          dup3\n          add\n          swap2\n        tag_288:\n          pop\n          pop\n          pop\n          pop\n          pop\n          dup2\n          mstore\n          pop\n          pop\n          dup2\n          mstore\n          0x20\n          add\n          swap1\n          0x01\n          add\n          swap1\n          jump(tag_233)\n        tag_234:\n          pop\n          pop\n          pop\n          pop\n          swap1\n          pop\n          swap2\n          pop\n          swap2\n          pop\n            /* \"ElectronicMedicalRecords.sol\":9548:9726  function getEmergencyPatient(address add) public view returns(IdentitasPasien memory a, GawatDarurat[] memory b) {... */\n          swap2\n          pop\n          swap2\n          jump\t// out\n            /* \"ElectronicMedicalRecords.sol\":9379:9540  function getInPatient(address add) public view returns(IdentitasPasien memory a, RawatInap[] memory b) {... */\n        tag_47:\n            /* \"ElectronicMedicalRecords.sol\":9434:9458  IdentitasPasien memory a */\n          tag_291\n          tag_97\n          jump\t// in\n        tag_291:\n            /* \"ElectronicMedicalRecords.sol\":9460:9480  RawatInap[] memory b */\n          0x60\n            /* \"ElectronicMedicalRecords.sol\":9501:9510  patientId */\n          0x00\n            /* \"ElectronicMedicalRecords.sol\":9501:9515  patientId[add] */\n          dup1\n            /* \"ElectronicMedicalRecords.sol\":9511:9514  add */\n          dup5\n            /* \"ElectronicMedicalRecords.sol\":9501:9515  patientId[add] */\n          0xffffffffffffffffffffffffffffffffffffffff\n          and\n          0xffffffffffffffffffffffffffffffffffffffff\n          and\n          dup2\n          mstore\n          0x20\n          add\n          swap1\n          dup2\n          mstore\n          0x20\n          add\n          0x00\n          keccak256\n            /* \"ElectronicMedicalRecords.sol\":9517:9526  inPatient */\n          0x03\n            /* \"ElectronicMedicalRecords.sol\":9517:9531  inPatient[add] */\n          0x00\n            /* \"ElectronicMedicalRecords.sol\":9527:9530  add */\n          dup6\n            /* \"ElectronicMedicalRecords.sol\":9517:9531  inPatient[add] */\n          0xffffffffffffffffffffffffffffffffffffffff\n          and\n          0xffffffffffffffffffffffffffffffffffffffff\n          and\n          dup2\n          mstore\n          0x20\n          add\n          swap1\n          dup2\n          mstore\n          0x20\n          add\n          0x00\n          keccak256\n            /* \"ElectronicMedicalRecords.sol\":9493:9532  return (patientId[add], inPatient[add]) */\n          dup2\n          mload(0x40)\n          dup1\n          0xa0\n          add\n          0x40\n          mstore\n          swap1\n          dup2\n          0x00\n          dup3\n          add\n          0x00\n          swap1\n          sload\n          swap1\n          0x0100\n          exp\n          swap1\n          div\n          0xffffffffffffffffffffffffffffffffffffffff\n          and\n          0xffffffffffffffffffffffffffffffffffffffff\n          and\n          0xffffffffffffffffffffffffffffffffffffffff\n          and\n          dup2\n          mstore\n          0x20\n          add\n          0x01\n          dup3\n          add\n          dup1\n          sload\n          tag_293\n          swap1\n          tag_158\n          jump\t// in\n        tag_293:\n          dup1\n          0x1f\n          add\n          0x20\n          dup1\n          swap2\n          div\n          mul\n          0x20\n          add\n          mload(0x40)\n          swap1\n          dup2\n          add\n          0x40\n          mstore\n          dup1\n          swap3\n          swap2\n          swap1\n          dup2\n          dup2\n          mstore\n          0x20\n          add\n          dup3\n          dup1\n          sload\n          tag_294\n          swap1\n          tag_158\n          jump\t// in\n        tag_294:\n          dup1\n          iszero\n          tag_295\n          jumpi\n          dup1\n          0x1f\n          lt\n          tag_296\n          jumpi\n          0x0100\n          dup1\n          dup4\n          sload\n          div\n          mul\n          dup4\n          mstore\n          swap2\n          0x20\n          add\n          swap2\n          jump(tag_295)\n        tag_296:\n          dup3\n          add\n          swap2\n          swap1\n          0x00\n          mstore\n          keccak256(0x00, 0x20)\n          swap1\n        tag_297:\n          dup2\n          sload\n          dup2\n          mstore\n          swap1\n          0x01\n          add\n          swap1\n          0x20\n          add\n          dup1\n          dup4\n          gt\n          tag_297\n          jumpi\n          dup3\n          swap1\n          sub\n          0x1f\n          and\n          dup3\n          add\n          swap2\n        tag_295:\n          pop\n          pop\n          pop\n          pop\n          pop\n          dup2\n          mstore\n          0x20\n          add\n          0x02\n          dup3\n          add\n          sload\n          dup2\n          mstore\n          0x20\n          add\n          0x03\n          dup3\n          add\n          dup1\n          sload\n          tag_298\n          swap1\n          tag_158\n          jump\t// in\n        tag_298:\n          dup1\n          0x1f\n          add\n          0x20\n          dup1\n          swap2\n          div\n          mul\n          0x20\n          add\n          mload(0x40)\n          swap1\n          dup2\n          add\n          0x40\n          mstore\n          dup1\n          swap3\n          swap2\n          swap1\n          dup2\n          dup2\n          mstore\n          0x20\n          add\n          dup3\n          dup1\n          sload\n          tag_299\n          swap1\n          tag_158\n          jump\t// in\n        tag_299:\n          dup1\n          iszero\n          tag_300\n          jumpi\n          dup1\n          0x1f\n          lt\n          tag_301\n          jumpi\n          0x0100\n          dup1\n          dup4\n          sload\n          div\n          mul\n          dup4\n          mstore\n          swap2\n          0x20\n          add\n          swap2\n          jump(tag_300)\n        tag_301:\n          dup3\n          add\n          swap2\n          swap1\n          0x00\n          mstore\n          keccak256(0x00, 0x20)\n          swap1\n        tag_302:\n          dup2\n          sload\n          dup2\n          mstore\n          swap1\n          0x01\n          add\n          swap1\n          0x20\n          add\n          dup1\n          dup4\n          gt\n          tag_302\n          jumpi\n          dup3\n          swap1\n          sub\n          0x1f\n          and\n          dup3\n          add\n          swap2\n        tag_300:\n          pop\n          pop\n          pop\n          pop\n          pop\n          dup2\n          mstore\n          0x20\n          add\n          0x04\n          dup3\n          add\n          dup1\n          sload\n          tag_303\n          swap1\n          tag_158\n          jump\t// in\n        tag_303:\n          dup1\n          0x1f\n          add\n          0x20\n          dup1\n          swap2\n          div\n          mul\n          0x20\n          add\n          mload(0x40)\n          swap1\n          dup2\n          add\n          0x40\n          mstore\n          dup1\n          swap3\n          swap2\n          swap1\n          dup2\n          dup2\n          mstore\n          0x20\n          add\n          dup3\n          dup1\n          sload\n          tag_304\n          swap1\n          tag_158\n          jump\t// in\n        tag_304:\n          dup1\n          iszero\n          tag_305\n          jumpi\n          dup1\n          0x1f\n          lt\n          tag_306\n          jumpi\n          0x0100\n          dup1\n          dup4\n          sload\n          div\n          mul\n          dup4\n          mstore\n          swap2\n          0x20\n          add\n          swap2\n          jump(tag_305)\n        tag_306:\n          dup3\n          add\n          swap2\n          swap1\n          0x00\n          mstore\n          keccak256(0x00, 0x20)\n          swap1\n        tag_307:\n          dup2\n          sload\n          dup2\n          mstore\n          swap1\n          0x01\n          add\n          swap1\n          0x20\n          add\n          dup1\n          dup4\n          gt\n          tag_307\n          jumpi\n          dup3\n          swap1\n          sub\n          0x1f\n          and\n          dup3\n          add\n          swap2\n        tag_305:\n          pop\n          pop\n          pop\n          pop\n          pop\n          dup2\n          mstore\n          pop\n          pop\n          swap2\n          pop\n          dup1\n          dup1\n          sload\n          dup1\n          0x20\n          mul\n          0x20\n          add\n          mload(0x40)\n          swap1\n          dup2\n          add\n          0x40\n          mstore\n          dup1\n          swap3\n          swap2\n          swap1\n          dup2\n          dup2\n          mstore\n          0x20\n          add\n          0x00\n          swap1\n        tag_308:\n          dup3\n          dup3\n          lt\n          iszero\n          tag_309\n          jumpi\n          dup4\n          dup3\n          swap1\n          0x00\n          mstore\n          keccak256(0x00, 0x20)\n          swap1\n          0x0e\n          mul\n          add\n          mload(0x40)\n          dup1\n          0x01c0\n          add\n          0x40\n          mstore\n          swap1\n          dup2\n          0x00\n          dup3\n          add\n          0x00\n          swap1\n          sload\n          swap1\n          0x0100\n          exp\n          swap1\n          div\n          0xffffffffffffffffffffffffffffffffffffffff\n          and\n          0xffffffffffffffffffffffffffffffffffffffff\n          and\n          0xffffffffffffffffffffffffffffffffffffffff\n          and\n          dup2\n          mstore\n          0x20\n          add\n          0x01\n          dup3\n          add\n          dup1\n          sload\n          tag_311\n          swap1\n          tag_158\n          jump\t// in\n        tag_311:\n          dup1\n          0x1f\n          add\n          0x20\n          dup1\n          swap2\n          div\n          mul\n          0x20\n          add\n          mload(0x40)\n          swap1\n          dup2\n          add\n          0x40\n          mstore\n          dup1\n          swap3\n          swap2\n          swap1\n          dup2\n          dup2\n          mstore\n          0x20\n          add\n          dup3\n          dup1\n          sload\n          tag_312\n          swap1\n          tag_158\n          jump\t// in\n        tag_312:\n          dup1\n          iszero\n          tag_313\n          jumpi\n          dup1\n          0x1f\n          lt\n          tag_314\n          jumpi\n          0x0100\n          dup1\n          dup4\n          sload\n          div\n          mul\n          dup4\n          mstore\n          swap2\n          0x20\n          add\n          swap2\n          jump(tag_313)\n        tag_314:\n          dup3\n          add\n          swap2\n          swap1\n          0x00\n          mstore\n          keccak256(0x00, 0x20)\n          swap1\n        tag_315:\n          dup2\n          sload\n          dup2\n          mstore\n          swap1\n          0x01\n          add\n          swap1\n          0x20\n          add\n          dup1\n          dup4\n          gt\n          tag_315\n          jumpi\n          dup3\n          swap1\n          sub\n          0x1f\n          and\n          dup3\n          add\n          swap2\n        tag_313:\n          pop\n          pop\n          pop\n          pop\n          pop\n          dup2\n          mstore\n          0x20\n          add\n          0x02\n          dup3\n          add\n          dup1\n          sload\n          tag_316\n          swap1\n          tag_158\n          jump\t// in\n        tag_316:\n          dup1\n          0x1f\n          add\n          0x20\n          dup1\n          swap2\n          div\n          mul\n          0x20\n          add\n          mload(0x40)\n          swap1\n          dup2\n          add\n          0x40\n          mstore\n          dup1\n          swap3\n          swap2\n          swap1\n          dup2\n          dup2\n          mstore\n          0x20\n          add\n          dup3\n          dup1\n          sload\n          tag_317\n          swap1\n          tag_158\n          jump\t// in\n        tag_317:\n          dup1\n          iszero\n          tag_318\n          jumpi\n          dup1\n          0x1f\n          lt\n          tag_319\n          jumpi\n          0x0100\n          dup1\n          dup4\n          sload\n          div\n          mul\n          dup4\n          mstore\n          swap2\n          0x20\n          add\n          swap2\n          jump(tag_318)\n        tag_319:\n          dup3\n          add\n          swap2\n          swap1\n          0x00\n          mstore\n          keccak256(0x00, 0x20)\n          swap1\n        tag_320:\n          dup2\n          sload\n          dup2\n          mstore\n          swap1\n          0x01\n          add\n          swap1\n          0x20\n          add\n          dup1\n          dup4\n          gt\n          tag_320\n          jumpi\n          dup3\n          swap1\n          sub\n          0x1f\n          and\n          dup3\n          add\n          swap2\n        tag_318:\n          pop\n          pop\n          pop\n          pop\n          pop\n          dup2\n          mstore\n          0x20\n          add\n          0x03\n          dup3\n          add\n          dup1\n          sload\n          tag_321\n          swap1\n          tag_158\n          jump\t// in\n        tag_321:\n          dup1\n          0x1f\n          add\n          0x20\n          dup1\n          swap2\n          div\n          mul\n          0x20\n          add\n          mload(0x40)\n          swap1\n          dup2\n          add\n          0x40\n          mstore\n          dup1\n          swap3\n          swap2\n          swap1\n          dup2\n          dup2\n          mstore\n          0x20\n          add\n          dup3\n          dup1\n          sload\n          tag_322\n          swap1\n          tag_158\n          jump\t// in\n        tag_322:\n          dup1\n          iszero\n          tag_323\n          jumpi\n          dup1\n          0x1f\n          lt\n          tag_324\n          jumpi\n          0x0100\n          dup1\n          dup4\n          sload\n          div\n          mul\n          dup4\n          mstore\n          swap2\n          0x20\n          add\n          swap2\n          jump(tag_323)\n        tag_324:\n          dup3\n          add\n          swap2\n          swap1\n          0x00\n          mstore\n          keccak256(0x00, 0x20)\n          swap1\n        tag_325:\n          dup2\n          sload\n          dup2\n          mstore\n          swap1\n          0x01\n          add\n          swap1\n          0x20\n          add\n          dup1\n          dup4\n          gt\n          tag_325\n          jumpi\n          dup3\n          swap1\n          sub\n          0x1f\n          and\n          dup3\n          add\n          swap2\n        tag_323:\n          pop\n          pop\n          pop\n          pop\n          pop\n          dup2\n          mstore\n          0x20\n          add\n          0x04\n          dup3\n          add\n          dup1\n          sload\n          tag_326\n          swap1\n          tag_158\n          jump\t// in\n        tag_326:\n          dup1\n          0x1f\n          add\n          0x20\n          dup1\n          swap2\n          div\n          mul\n          0x20\n          add\n          mload(0x40)\n          swap1\n          dup2\n          add\n          0x40\n          mstore\n          dup1\n          swap3\n          swap2\n          swap1\n          dup2\n          dup2\n          mstore\n          0x20\n          add\n          dup3\n          dup1\n          sload\n          tag_327\n          swap1\n          tag_158\n          jump\t// in\n        tag_327:\n          dup1\n          iszero\n          tag_328\n          jumpi\n          dup1\n          0x1f\n          lt\n          tag_329\n          jumpi\n          0x0100\n          dup1\n          dup4\n          sload\n          div\n          mul\n          dup4\n          mstore\n          swap2\n          0x20\n          add\n          swap2\n          jump(tag_328)\n        tag_329:\n          dup3\n          add\n          swap2\n          swap1\n          0x00\n          mstore\n          keccak256(0x00, 0x20)\n          swap1\n        tag_330:\n          dup2\n          sload\n          dup2\n          mstore\n          swap1\n          0x01\n          add\n          swap1\n          0x20\n          add\n          dup1\n          dup4\n          gt\n          tag_330\n          jumpi\n          dup3\n          swap1\n          sub\n          0x1f\n          and\n          dup3\n          add\n          swap2\n        tag_328:\n          pop\n          pop\n          pop\n          pop\n          pop\n          dup2\n          mstore\n          0x20\n          add\n          0x05\n          dup3\n          add\n          dup1\n          sload\n          tag_331\n          swap1\n          tag_158\n          jump\t// in\n        tag_331:\n          dup1\n          0x1f\n          add\n          0x20\n          dup1\n          swap2\n          div\n          mul\n          0x20\n          add\n          mload(0x40)\n          swap1\n          dup2\n          add\n          0x40\n          mstore\n          dup1\n          swap3\n          swap2\n          swap1\n          dup2\n          dup2\n          mstore\n          0x20\n          add\n          dup3\n          dup1\n          sload\n          tag_332\n          swap1\n          tag_158\n          jump\t// in\n        tag_332:\n          dup1\n          iszero\n          tag_333\n          jumpi\n          dup1\n          0x1f\n          lt\n          tag_334\n          jumpi\n          0x0100\n          dup1\n          dup4\n          sload\n          div\n          mul\n          dup4\n          mstore\n          swap2\n          0x20\n          add\n          swap2\n          jump(tag_333)\n        tag_334:\n          dup3\n          add\n          swap2\n          swap1\n          0x00\n          mstore\n          keccak256(0x00, 0x20)\n          swap1\n        tag_335:\n          dup2\n          sload\n          dup2\n          mstore\n          swap1\n          0x01\n          add\n          swap1\n          0x20\n          add\n          dup1\n          dup4\n          gt\n          tag_335\n          jumpi\n          dup3\n          swap1\n          sub\n          0x1f\n          and\n          dup3\n          add\n          swap2\n        tag_333:\n          pop\n          pop\n          pop\n          pop\n          pop\n          dup2\n          mstore\n          0x20\n          add\n          0x06\n          dup3\n          add\n          dup1\n          sload\n          tag_336\n          swap1\n          tag_158\n          jump\t// in\n        tag_336:\n          dup1\n          0x1f\n          add\n          0x20\n          dup1\n          swap2\n          div\n          mul\n          0x20\n          add\n          mload(0x40)\n          swap1\n          dup2\n          add\n          0x40\n          mstore\n          dup1\n          swap3\n          swap2\n          swap1\n          dup2\n          dup2\n          mstore\n          0x20\n          add\n          dup3\n          dup1\n          sload\n          tag_337\n          swap1\n          tag_158\n          jump\t// in\n        tag_337:\n          dup1\n          iszero\n          tag_338\n          jumpi\n          dup1\n          0x1f\n          lt\n          tag_339\n          jumpi\n          0x0100\n          dup1\n          dup4\n          sload\n          div\n          mul\n          dup4\n          mstore\n          swap2\n          0x20\n          add\n          swap2\n          jump(tag_338)\n        tag_339:\n          dup3\n          add\n          swap2\n          swap1\n          0x00\n          mstore\n          keccak256(0x00, 0x20)\n          swap1\n        tag_340:\n          dup2\n          sload\n          dup2\n          mstore\n          swap1\n          0x01\n          add\n          swap1\n          0x20\n          add\n          dup1\n          dup4\n          gt\n          tag_340\n          jumpi\n          dup3\n          swap1\n          sub\n          0x1f\n          and\n          dup3\n          add\n          swap2\n        tag_338:\n          pop\n          pop\n          pop\n          pop\n          pop\n          dup2\n          mstore\n          0x20\n          add\n          0x07\n          dup3\n          add\n          dup1\n          sload\n          tag_341\n          swap1\n          tag_158\n          jump\t// in\n        tag_341:\n          dup1\n          0x1f\n          add\n          0x20\n          dup1\n          swap2\n          div\n          mul\n          0x20\n          add\n          mload(0x40)\n          swap1\n          dup2\n          add\n          0x40\n          mstore\n          dup1\n          swap3\n          swap2\n          swap1\n          dup2\n          dup2\n          mstore\n          0x20\n          add\n          dup3\n          dup1\n          sload\n          tag_342\n          swap1\n          tag_158\n          jump\t// in\n        tag_342:\n          dup1\n          iszero\n          tag_343\n          jumpi\n          dup1\n          0x1f\n          lt\n          tag_344\n          jumpi\n          0x0100\n          dup1\n          dup4\n          sload\n          div\n          mul\n          dup4\n          mstore\n          swap2\n          0x20\n          add\n          swap2\n          jump(tag_343)\n        tag_344:\n          dup3\n          add\n          swap2\n          swap1\n          0x00\n          mstore\n          keccak256(0x00, 0x20)\n          swap1\n        tag_345:\n          dup2\n          sload\n          dup2\n          mstore\n          swap1\n          0x01\n          add\n          swap1\n          0x20\n          add\n          dup1\n          dup4\n          gt\n          tag_345\n          jumpi\n          dup3\n          swap1\n          sub\n          0x1f\n          and\n          dup3\n          add\n          swap2\n        tag_343:\n          pop\n          pop\n          pop\n          pop\n          pop\n          dup2\n          mstore\n          0x20\n          add\n          0x08\n          dup3\n          add\n          dup1\n          sload\n          tag_346\n          swap1\n          tag_158\n          jump\t// in\n        tag_346:\n          dup1\n          0x1f\n          add\n          0x20\n          dup1\n          swap2\n          div\n          mul\n          0x20\n          add\n          mload(0x40)\n          swap1\n          dup2\n          add\n          0x40\n          mstore\n          dup1\n          swap3\n          swap2\n          swap1\n          dup2\n          dup2\n          mstore\n          0x20\n          add\n          dup3\n          dup1\n          sload\n          tag_347\n          swap1\n          tag_158\n          jump\t// in\n        tag_347:\n          dup1\n          iszero\n          tag_348\n          jumpi\n          dup1\n          0x1f\n          lt\n          tag_349\n          jumpi\n          0x0100\n          dup1\n          dup4\n          sload\n          div\n          mul\n          dup4\n          mstore\n          swap2\n          0x20\n          add\n          swap2\n          jump(tag_348)\n        tag_349:\n          dup3\n          add\n          swap2\n          swap1\n          0x00\n          mstore\n          keccak256(0x00, 0x20)\n          swap1\n        tag_350:\n          dup2\n          sload\n          dup2\n          mstore\n          swap1\n          0x01\n          add\n          swap1\n          0x20\n          add\n          dup1\n          dup4\n          gt\n          tag_350\n          jumpi\n          dup3\n          swap1\n          sub\n          0x1f\n          and\n          dup3\n          add\n          swap2\n        tag_348:\n          pop\n          pop\n          pop\n          pop\n          pop\n          dup2\n          mstore\n          0x20\n          add\n          0x09\n          dup3\n          add\n          0x00\n          swap1\n          sload\n          swap1\n          0x0100\n          exp\n          swap1\n          div\n          0xff\n          and\n          iszero\n          iszero\n          iszero\n          iszero\n          dup2\n          mstore\n          0x20\n          add\n          0x0a\n          dup3\n          add\n          dup1\n          sload\n          tag_351\n          swap1\n          tag_158\n          jump\t// in\n        tag_351:\n          dup1\n          0x1f\n          add\n          0x20\n          dup1\n          swap2\n          div\n          mul\n          0x20\n          add\n          mload(0x40)\n          swap1\n          dup2\n          add\n          0x40\n          mstore\n          dup1\n          swap3\n          swap2\n          swap1\n          dup2\n          dup2\n          mstore\n          0x20\n          add\n          dup3\n          dup1\n          sload\n          tag_352\n          swap1\n          tag_158\n          jump\t// in\n        tag_352:\n          dup1\n          iszero\n          tag_353\n          jumpi\n          dup1\n          0x1f\n          lt\n          tag_354\n          jumpi\n          0x0100\n          dup1\n          dup4\n          sload\n          div\n          mul\n          dup4\n          mstore\n          swap2\n          0x20\n          add\n          swap2\n          jump(tag_353)\n        tag_354:\n          dup3\n          add\n          swap2\n          swap1\n          0x00\n          mstore\n          keccak256(0x00, 0x20)\n          swap1\n        tag_355:\n          dup2\n          sload\n          dup2\n          mstore\n          swap1\n          0x01\n          add\n          swap1\n          0x20\n          add\n          dup1\n          dup4\n          gt\n          tag_355\n          jumpi\n          dup3\n          swap1\n          sub\n          0x1f\n          and\n          dup3\n          add\n          swap2\n        tag_353:\n          pop\n          pop\n          pop\n          pop\n          pop\n          dup2\n          mstore\n          0x20\n          add\n          0x0b\n          dup3\n          add\n          dup1\n          sload\n          tag_356\n          swap1\n          tag_158\n          jump\t// in\n        tag_356:\n          dup1\n          0x1f\n          add\n          0x20\n          dup1\n          swap2\n          div\n          mul\n          0x20\n          add\n          mload(0x40)\n          swap1\n          dup2\n          add\n          0x40\n          mstore\n          dup1\n          swap3\n          swap2\n          swap1\n          dup2\n          dup2\n          mstore\n          0x20\n          add\n          dup3\n          dup1\n          sload\n          tag_357\n          swap1\n          tag_158\n          jump\t// in\n        tag_357:\n          dup1\n          iszero\n          tag_358\n          jumpi\n          dup1\n          0x1f\n          lt\n          tag_359\n          jumpi\n          0x0100\n          dup1\n          dup4\n          sload\n          div\n          mul\n          dup4\n          mstore\n          swap2\n          0x20\n          add\n          swap2\n          jump(tag_358)\n        tag_359:\n          dup3\n          add\n          swap2\n          swap1\n          0x00\n          mstore\n          keccak256(0x00, 0x20)\n          swap1\n        tag_360:\n          dup2\n          sload\n          dup2\n          mstore\n          swap1\n          0x01\n          add\n          swap1\n          0x20\n          add\n          dup1\n          dup4\n          gt\n          tag_360\n          jumpi\n          dup3\n          swap1\n          sub\n          0x1f\n          and\n          dup3\n          add\n          swap2\n        tag_358:\n          pop\n          pop\n          pop\n          pop\n          pop\n          dup2\n          mstore\n          0x20\n          add\n          0x0c\n          dup3\n          add\n          0x00\n          swap1\n          sload\n          swap1\n          0x0100\n          exp\n          swap1\n          div\n          0xffffffffffffffffffffffffffffffffffffffff\n          and\n          0xffffffffffffffffffffffffffffffffffffffff\n          and\n          0xffffffffffffffffffffffffffffffffffffffff\n          and\n          dup2\n          mstore\n          0x20\n          add\n          0x0d\n          dup3\n          add\n          dup1\n          sload\n          tag_361\n          swap1\n          tag_158\n          jump\t// in\n        tag_361:\n          dup1\n          0x1f\n          add\n          0x20\n          dup1\n          swap2\n          div\n          mul\n          0x20\n          add\n          mload(0x40)\n          swap1\n          dup2\n          add\n          0x40\n          mstore\n          dup1\n          swap3\n          swap2\n          swap1\n          dup2\n          dup2\n          mstore\n          0x20\n          add\n          dup3\n          dup1\n          sload\n          tag_362\n          swap1\n          tag_158\n          jump\t// in\n        tag_362:\n          dup1\n          iszero\n          tag_363\n          jumpi\n          dup1\n          0x1f\n          lt\n          tag_364\n          jumpi\n          0x0100\n          dup1\n          dup4\n          sload\n          div\n          mul\n          dup4\n          mstore\n          swap2\n          0x20\n          add\n          swap2\n          jump(tag_363)\n        tag_364:\n          dup3\n          add\n          swap2\n          swap1\n          0x00\n          mstore\n          keccak256(0x00, 0x20)\n          swap1\n        tag_365:\n          dup2\n          sload\n          dup2\n          mstore\n          swap1\n          0x01\n          add\n          swap1\n          0x20\n          add\n          dup1\n          dup4\n          gt\n          tag_365\n          jumpi\n          dup3\n          swap1\n          sub\n          0x1f\n          and\n          dup3\n          add\n          swap2\n        tag_363:\n          pop\n          pop\n          pop\n          pop\n          pop\n          dup2\n          mstore\n          pop\n          pop\n          dup2\n          mstore\n          0x20\n          add\n          swap1\n          0x01\n          add\n          swap1\n          jump(tag_308)\n        tag_309:\n          pop\n          pop\n          pop\n          pop\n          swap1\n          pop\n          swap2\n          pop\n          swap2\n          pop\n            /* \"ElectronicMedicalRecords.sol\":9379:9540  function getInPatient(address add) public view returns(IdentitasPasien memory a, RawatInap[] memory b) {... */\n          swap2\n          pop\n          swap2\n          jump\t// out\n        tag_61:\n          mload(0x40)\n          dup1\n          0x80\n          add\n          0x40\n          mstore\n          dup1\n          0x60\n          dup2\n          mstore\n          0x20\n          add\n          0x60\n          dup2\n          mstore\n          0x20\n          add\n          0x00\n          dup2\n          mstore\n          0x20\n          add\n          0x60\n          dup2\n          mstore\n          pop\n          swap1\n          jump\t// out\n        tag_67:\n          mload(0x40)\n          dup1\n          0x0180\n          add\n          0x40\n          mstore\n          dup1\n          and(0xffffffffffffffffffffffffffffffffffffffff, 0x00)\n          dup2\n          mstore\n          0x20\n          add\n          0x60\n          dup2\n          mstore\n          0x20\n          add\n          0x60\n          dup2\n          mstore\n          0x20\n          add\n          0x60\n          dup2\n          mstore\n          0x20\n          add\n          0x60\n          dup2\n          mstore\n          0x20\n          add\n          0x60\n          dup2\n          mstore\n          0x20\n          add\n          0x60\n          dup2\n          mstore\n          0x20\n          add\n          0x60\n          dup2\n          mstore\n          0x20\n          add\n          0x60\n          dup2\n          mstore\n          0x20\n          add\n          0x60\n          dup2\n          mstore\n          0x20\n          add\n          0x60\n          dup2\n          mstore\n          0x20\n          add\n          0x60\n          dup2\n          mstore\n          pop\n          swap1\n          jump\t// out\n        tag_97:\n          mload(0x40)\n          dup1\n          0xa0\n          add\n          0x40\n          mstore\n          dup1\n          and(0xffffffffffffffffffffffffffffffffffffffff, 0x00)\n          dup2\n          mstore\n          0x20\n          add\n          0x60\n          dup2\n          mstore\n          0x20\n          add\n          0x00\n          dup2\n          mstore\n          0x20\n          add\n          0x60\n          dup2\n          mstore\n          0x20\n          add\n          0x60\n          dup2\n          mstore\n          pop\n          swap1\n          jump\t// out\n        tag_102:\n          mload(0x40)\n          dup1\n          0x0140\n          add\n          0x40\n          mstore\n          dup1\n          and(0xffffffffffffffffffffffffffffffffffffffff, 0x00)\n          dup2\n          mstore\n          0x20\n          add\n          0x60\n          dup2\n          mstore\n          0x20\n          add\n          0x60\n          dup2\n          mstore\n          0x20\n          add\n          0x60\n          dup2\n          mstore\n          0x20\n          add\n          0x60\n          dup2\n          mstore\n          0x20\n          add\n          0x60\n          dup2\n          mstore\n          0x20\n          add\n          0x60\n          dup2\n          mstore\n          0x20\n          add\n          0x60\n          dup2\n          mstore\n          0x20\n          add\n          0x60\n          dup2\n          mstore\n          0x20\n          add\n          iszero(iszero(0x00))\n          dup2\n          mstore\n          pop\n          swap1\n          jump\t// out\n        tag_134:\n          mload(0x40)\n          dup1\n          0x01c0\n          add\n          0x40\n          mstore\n          dup1\n          and(0xffffffffffffffffffffffffffffffffffffffff, 0x00)\n          dup2\n          mstore\n          0x20\n          add\n          0x60\n          dup2\n          mstore\n          0x20\n          add\n          0x60\n          dup2\n          mstore\n          0x20\n          add\n          0x60\n          dup2\n          mstore\n          0x20\n          add\n          0x60\n          dup2\n          mstore\n          0x20\n          add\n          0x60\n          dup2\n          mstore\n          0x20\n          add\n          0x60\n          dup2\n          mstore\n          0x20\n          add\n          0x60\n          dup2\n          mstore\n          0x20\n          add\n          0x60\n          dup2\n          mstore\n          0x20\n          add\n          iszero(iszero(0x00))\n          dup2\n          mstore\n          0x20\n          add\n          0x60\n          dup2\n          mstore\n          0x20\n          add\n          0x60\n          dup2\n          mstore\n          0x20\n          add\n          and(0xffffffffffffffffffffffffffffffffffffffff, 0x00)\n          dup2\n          mstore\n          0x20\n          add\n          0x60\n          dup2\n          mstore\n          pop\n          swap1\n          jump\t// out\n            /* \"#utility.yul\":7:82   */\n        tag_366:\n            /* \"#utility.yul\":40:46   */\n          0x00\n            /* \"#utility.yul\":73:75   */\n          0x40\n            /* \"#utility.yul\":67:76   */\n          mload\n            /* \"#utility.yul\":57:76   */\n          swap1\n          pop\n            /* \"#utility.yul\":7:82   */\n          swap1\n          jump\t// out\n            /* \"#utility.yul\":88:205   */\n        tag_367:\n            /* \"#utility.yul\":197:198   */\n          0x00\n            /* \"#utility.yul\":194:195   */\n          dup1\n            /* \"#utility.yul\":187:199   */\n          revert\n            /* \"#utility.yul\":211:328   */\n        tag_368:\n            /* \"#utility.yul\":320:321   */\n          0x00\n            /* \"#utility.yul\":317:318   */\n          dup1\n            /* \"#utility.yul\":310:322   */\n          revert\n            /* \"#utility.yul\":334:460   */\n        tag_369:\n            /* \"#utility.yul\":371:378   */\n          0x00\n            /* \"#utility.yul\":411:453   */\n          0xffffffffffffffffffffffffffffffffffffffff\n            /* \"#utility.yul\":404:409   */\n          dup3\n            /* \"#utility.yul\":400:454   */\n          and\n            /* \"#utility.yul\":389:454   */\n          swap1\n          pop\n            /* \"#utility.yul\":334:460   */\n          swap2\n          swap1\n          pop\n          jump\t// out\n            /* \"#utility.yul\":466:562   */\n        tag_370:\n            /* \"#utility.yul\":503:510   */\n          0x00\n            /* \"#utility.yul\":532:556   */\n          tag_449\n            /* \"#utility.yul\":550:555   */\n          dup3\n            /* \"#utility.yul\":532:556   */\n          tag_369\n          jump\t// in\n        tag_449:\n            /* \"#utility.yul\":521:556   */\n          swap1\n          pop\n            /* \"#utility.yul\":466:562   */\n          swap2\n          swap1\n          pop\n          jump\t// out\n            /* \"#utility.yul\":568:690   */\n        tag_371:\n            /* \"#utility.yul\":641:665   */\n          tag_451\n            /* \"#utility.yul\":659:664   */\n          dup2\n            /* \"#utility.yul\":641:665   */\n          tag_370\n          jump\t// in\n        tag_451:\n            /* \"#utility.yul\":634:639   */\n          dup2\n            /* \"#utility.yul\":631:666   */\n          eq\n            /* \"#utility.yul\":621:684   */\n          tag_452\n          jumpi\n            /* \"#utility.yul\":680:681   */\n          0x00\n            /* \"#utility.yul\":677:678   */\n          dup1\n            /* \"#utility.yul\":670:682   */\n          revert\n            /* \"#utility.yul\":621:684   */\n        tag_452:\n            /* \"#utility.yul\":568:690   */\n          pop\n          jump\t// out\n            /* \"#utility.yul\":696:835   */\n        tag_372:\n            /* \"#utility.yul\":742:747   */\n          0x00\n            /* \"#utility.yul\":780:786   */\n          dup2\n            /* \"#utility.yul\":767:787   */\n          calldataload\n            /* \"#utility.yul\":758:787   */\n          swap1\n          pop\n            /* \"#utility.yul\":796:829   */\n          tag_454\n            /* \"#utility.yul\":823:828   */\n          dup2\n            /* \"#utility.yul\":796:829   */\n          tag_371\n          jump\t// in\n        tag_454:\n            /* \"#utility.yul\":696:835   */\n          swap3\n          swap2\n          pop\n          pop\n          jump\t// out\n            /* \"#utility.yul\":841:1170   */\n        tag_15:\n            /* \"#utility.yul\":900:906   */\n          0x00\n            /* \"#utility.yul\":949:951   */\n          0x20\n            /* \"#utility.yul\":937:946   */\n          dup3\n            /* \"#utility.yul\":928:935   */\n          dup5\n            /* \"#utility.yul\":924:947   */\n          sub\n            /* \"#utility.yul\":920:952   */\n          slt\n            /* \"#utility.yul\":917:1036   */\n          iszero\n          tag_456\n          jumpi\n            /* \"#utility.yul\":955:1034   */\n          tag_457\n          tag_367\n          jump\t// in\n        tag_457:\n            /* \"#utility.yul\":917:1036   */\n        tag_456:\n            /* \"#utility.yul\":1075:1076   */\n          0x00\n            /* \"#utility.yul\":1100:1153   */\n          tag_458\n            /* \"#utility.yul\":1145:1152   */\n          dup5\n            /* \"#utility.yul\":1136:1142   */\n          dup3\n            /* \"#utility.yul\":1125:1134   */\n          dup6\n            /* \"#utility.yul\":1121:1143   */\n          add\n            /* \"#utility.yul\":1100:1153   */\n          tag_372\n          jump\t// in\n        tag_458:\n            /* \"#utility.yul\":1090:1153   */\n          swap2\n          pop\n            /* \"#utility.yul\":1046:1163   */\n          pop\n            /* \"#utility.yul\":841:1170   */\n          swap3\n          swap2\n          pop\n          pop\n          jump\t// out\n            /* \"#utility.yul\":1176:1293   */\n        tag_373:\n            /* \"#utility.yul\":1285:1286   */\n          0x00\n            /* \"#utility.yul\":1282:1283   */\n          dup1\n            /* \"#utility.yul\":1275:1287   */\n          revert\n            /* \"#utility.yul\":1299:1401   */\n        tag_374:\n            /* \"#utility.yul\":1340:1346   */\n          0x00\n            /* \"#utility.yul\":1391:1393   */\n          0x1f\n            /* \"#utility.yul\":1387:1394   */\n          not\n            /* \"#utility.yul\":1382:1384   */\n          0x1f\n            /* \"#utility.yul\":1375:1380   */\n          dup4\n            /* \"#utility.yul\":1371:1385   */\n          add\n            /* \"#utility.yul\":1367:1395   */\n          and\n            /* \"#utility.yul\":1357:1395   */\n          swap1\n          pop\n            /* \"#utility.yul\":1299:1401   */\n          swap2\n          swap1\n          pop\n          jump\t// out\n            /* \"#utility.yul\":1407:1587   */\n        tag_375:\n            /* \"#utility.yul\":1455:1532   */\n          0x4e487b7100000000000000000000000000000000000000000000000000000000\n            /* \"#utility.yul\":1452:1453   */\n          0x00\n            /* \"#utility.yul\":1445:1533   */\n          mstore\n            /* \"#utility.yul\":1552:1556   */\n          0x41\n            /* \"#utility.yul\":1549:1550   */\n          0x04\n            /* \"#utility.yul\":1542:1557   */\n          mstore\n            /* \"#utility.yul\":1576:1580   */\n          0x24\n            /* \"#utility.yul\":1573:1574   */\n          0x00\n            /* \"#utility.yul\":1566:1581   */\n          revert\n            /* \"#utility.yul\":1593:1874   */\n        tag_376:\n            /* \"#utility.yul\":1676:1703   */\n          tag_463\n            /* \"#utility.yul\":1698:1702   */\n          dup3\n            /* \"#utility.yul\":1676:1703   */\n          tag_374\n          jump\t// in\n        tag_463:\n            /* \"#utility.yul\":1668:1674   */\n          dup2\n            /* \"#utility.yul\":1664:1704   */\n          add\n            /* \"#utility.yul\":1806:1812   */\n          dup2\n            /* \"#utility.yul\":1794:1804   */\n          dup2\n            /* \"#utility.yul\":1791:1813   */\n          lt\n            /* \"#utility.yul\":1770:1788   */\n          0xffffffffffffffff\n            /* \"#utility.yul\":1758:1768   */\n          dup3\n            /* \"#utility.yul\":1755:1789   */\n          gt\n            /* \"#utility.yul\":1752:1814   */\n          or\n            /* \"#utility.yul\":1749:1837   */\n          iszero\n          tag_464\n          jumpi\n            /* \"#utility.yul\":1817:1835   */\n          tag_465\n          tag_375\n          jump\t// in\n        tag_465:\n            /* \"#utility.yul\":1749:1837   */\n        tag_464:\n            /* \"#utility.yul\":1857:1867   */\n          dup1\n            /* \"#utility.yul\":1853:1855   */\n          0x40\n            /* \"#utility.yul\":1846:1868   */\n          mstore\n            /* \"#utility.yul\":1636:1874   */\n          pop\n            /* \"#utility.yul\":1593:1874   */\n          pop\n          pop\n          jump\t// out\n            /* \"#utility.yul\":1880:2009   */\n        tag_377:\n            /* \"#utility.yul\":1914:1920   */\n          0x00\n            /* \"#utility.yul\":1941:1961   */\n          tag_467\n          tag_366\n          jump\t// in\n        tag_467:\n            /* \"#utility.yul\":1931:1961   */\n          swap1\n          pop\n            /* \"#utility.yul\":1970:2003   */\n          tag_468\n            /* \"#utility.yul\":1998:2002   */\n          dup3\n            /* \"#utility.yul\":1990:1996   */\n          dup3\n            /* \"#utility.yul\":1970:2003   */\n          tag_376\n          jump\t// in\n        tag_468:\n            /* \"#utility.yul\":1880:2009   */\n          swap2\n          swap1\n          pop\n          jump\t// out\n            /* \"#utility.yul\":2015:2132   */\n        tag_378:\n            /* \"#utility.yul\":2124:2125   */\n          0x00\n            /* \"#utility.yul\":2121:2122   */\n          dup1\n            /* \"#utility.yul\":2114:2126   */\n          revert\n            /* \"#utility.yul\":2138:2255   */\n        tag_379:\n            /* \"#utility.yul\":2247:2248   */\n          0x00\n            /* \"#utility.yul\":2244:2245   */\n          dup1\n            /* \"#utility.yul\":2237:2249   */\n          revert\n            /* \"#utility.yul\":2261:2378   */\n        tag_380:\n            /* \"#utility.yul\":2370:2371   */\n          0x00\n            /* \"#utility.yul\":2367:2368   */\n          dup1\n            /* \"#utility.yul\":2360:2372   */\n          revert\n            /* \"#utility.yul\":2384:2692   */\n        tag_381:\n            /* \"#utility.yul\":2446:2450   */\n          0x00\n            /* \"#utility.yul\":2536:2554   */\n          0xffffffffffffffff\n            /* \"#utility.yul\":2528:2534   */\n          dup3\n            /* \"#utility.yul\":2525:2555   */\n          gt\n            /* \"#utility.yul\":2522:2578   */\n          iszero\n          tag_473\n          jumpi\n            /* \"#utility.yul\":2558:2576   */\n          tag_474\n          tag_375\n          jump\t// in\n        tag_474:\n            /* \"#utility.yul\":2522:2578   */\n        tag_473:\n            /* \"#utility.yul\":2596:2625   */\n          tag_475\n            /* \"#utility.yul\":2618:2624   */\n          dup3\n            /* \"#utility.yul\":2596:2625   */\n          tag_374\n          jump\t// in\n        tag_475:\n            /* \"#utility.yul\":2588:2625   */\n          swap1\n          pop\n            /* \"#utility.yul\":2680:2684   */\n          0x20\n            /* \"#utility.yul\":2674:2678   */\n          dup2\n            /* \"#utility.yul\":2670:2685   */\n          add\n            /* \"#utility.yul\":2662:2685   */\n          swap1\n          pop\n            /* \"#utility.yul\":2384:2692   */\n          swap2\n          swap1\n          pop\n          jump\t// out\n            /* \"#utility.yul\":2698:2844   */\n        tag_382:\n            /* \"#utility.yul\":2795:2801   */\n          dup3\n            /* \"#utility.yul\":2790:2793   */\n          dup2\n            /* \"#utility.yul\":2785:2788   */\n          dup4\n            /* \"#utility.yul\":2772:2802   */\n          calldatacopy\n            /* \"#utility.yul\":2836:2837   */\n          0x00\n            /* \"#utility.yul\":2827:2833   */\n          dup4\n            /* \"#utility.yul\":2822:2825   */\n          dup4\n            /* \"#utility.yul\":2818:2834   */\n          add\n            /* \"#utility.yul\":2811:2838   */\n          mstore\n            /* \"#utility.yul\":2698:2844   */\n          pop\n          pop\n          pop\n          jump\t// out\n            /* \"#utility.yul\":2850:3275   */\n        tag_383:\n            /* \"#utility.yul\":2928:2933   */\n          0x00\n            /* \"#utility.yul\":2953:3019   */\n          tag_478\n            /* \"#utility.yul\":2969:3018   */\n          tag_479\n            /* \"#utility.yul\":3011:3017   */\n          dup5\n            /* \"#utility.yul\":2969:3018   */\n          tag_381\n          jump\t// in\n        tag_479:\n            /* \"#utility.yul\":2953:3019   */\n          tag_377\n          jump\t// in\n        tag_478:\n            /* \"#utility.yul\":2944:3019   */\n          swap1\n          pop\n            /* \"#utility.yul\":3042:3048   */\n          dup3\n            /* \"#utility.yul\":3035:3040   */\n          dup2\n            /* \"#utility.yul\":3028:3049   */\n          mstore\n            /* \"#utility.yul\":3080:3084   */\n          0x20\n            /* \"#utility.yul\":3073:3078   */\n          dup2\n            /* \"#utility.yul\":3069:3085   */\n          add\n            /* \"#utility.yul\":3118:3121   */\n          dup5\n            /* \"#utility.yul\":3109:3115   */\n          dup5\n            /* \"#utility.yul\":3104:3107   */\n          dup5\n            /* \"#utility.yul\":3100:3116   */\n          add\n            /* \"#utility.yul\":3097:3122   */\n          gt\n            /* \"#utility.yul\":3094:3206   */\n          iszero\n          tag_480\n          jumpi\n            /* \"#utility.yul\":3125:3204   */\n          tag_481\n          tag_380\n          jump\t// in\n        tag_481:\n            /* \"#utility.yul\":3094:3206   */\n        tag_480:\n            /* \"#utility.yul\":3215:3269   */\n          tag_482\n            /* \"#utility.yul\":3262:3268   */\n          dup5\n            /* \"#utility.yul\":3257:3260   */\n          dup3\n            /* \"#utility.yul\":3252:3255   */\n          dup6\n            /* \"#utility.yul\":3215:3269   */\n          tag_382\n          jump\t// in\n        tag_482:\n            /* \"#utility.yul\":2934:3275   */\n          pop\n            /* \"#utility.yul\":2850:3275   */\n          swap4\n          swap3\n          pop\n          pop\n          pop\n          jump\t// out\n            /* \"#utility.yul\":3295:3635   */\n        tag_384:\n            /* \"#utility.yul\":3351:3356   */\n          0x00\n            /* \"#utility.yul\":3400:3403   */\n          dup3\n            /* \"#utility.yul\":3393:3397   */\n          0x1f\n            /* \"#utility.yul\":3385:3391   */\n          dup4\n            /* \"#utility.yul\":3381:3398   */\n          add\n            /* \"#utility.yul\":3377:3404   */\n          slt\n            /* \"#utility.yul\":3367:3489   */\n          tag_484\n          jumpi\n            /* \"#utility.yul\":3408:3487   */\n          tag_485\n          tag_379\n          jump\t// in\n        tag_485:\n            /* \"#utility.yul\":3367:3489   */\n        tag_484:\n            /* \"#utility.yul\":3525:3531   */\n          dup2\n            /* \"#utility.yul\":3512:3532   */\n          calldataload\n            /* \"#utility.yul\":3550:3629   */\n          tag_486\n            /* \"#utility.yul\":3625:3628   */\n          dup5\n            /* \"#utility.yul\":3617:3623   */\n          dup3\n            /* \"#utility.yul\":3610:3614   */\n          0x20\n            /* \"#utility.yul\":3602:3608   */\n          dup7\n            /* \"#utility.yul\":3598:3615   */\n          add\n            /* \"#utility.yul\":3550:3629   */\n          tag_383\n          jump\t// in\n        tag_486:\n            /* \"#utility.yul\":3541:3629   */\n          swap2\n          pop\n            /* \"#utility.yul\":3357:3635   */\n          pop\n            /* \"#utility.yul\":3295:3635   */\n          swap3\n          swap2\n          pop\n          pop\n          jump\t// out\n            /* \"#utility.yul\":3641:3718   */\n        tag_385:\n            /* \"#utility.yul\":3678:3685   */\n          0x00\n            /* \"#utility.yul\":3707:3712   */\n          dup2\n            /* \"#utility.yul\":3696:3712   */\n          swap1\n          pop\n            /* \"#utility.yul\":3641:3718   */\n          swap2\n          swap1\n          pop\n          jump\t// out\n            /* \"#utility.yul\":3724:3846   */\n        tag_386:\n            /* \"#utility.yul\":3797:3821   */\n          tag_489\n            /* \"#utility.yul\":3815:3820   */\n          dup2\n            /* \"#utility.yul\":3797:3821   */\n          tag_385\n          jump\t// in\n        tag_489:\n            /* \"#utility.yul\":3790:3795   */\n          dup2\n            /* \"#utility.yul\":3787:3822   */\n          eq\n            /* \"#utility.yul\":3777:3840   */\n          tag_490\n          jumpi\n            /* \"#utility.yul\":3836:3837   */\n          0x00\n            /* \"#utility.yul\":3833:3834   */\n          dup1\n            /* \"#utility.yul\":3826:3838   */\n          revert\n            /* \"#utility.yul\":3777:3840   */\n        tag_490:\n            /* \"#utility.yul\":3724:3846   */\n          pop\n          jump\t// out\n            /* \"#utility.yul\":3852:3991   */\n        tag_387:\n            /* \"#utility.yul\":3898:3903   */\n          0x00\n            /* \"#utility.yul\":3936:3942   */\n          dup2\n            /* \"#utility.yul\":3923:3943   */\n          calldataload\n            /* \"#utility.yul\":3914:3943   */\n          swap1\n          pop\n            /* \"#utility.yul\":3952:3985   */\n          tag_492\n            /* \"#utility.yul\":3979:3984   */\n          dup2\n            /* \"#utility.yul\":3952:3985   */\n          tag_386\n          jump\t// in\n        tag_492:\n            /* \"#utility.yul\":3852:3991   */\n          swap3\n          swap2\n          pop\n          pop\n          jump\t// out\n            /* \"#utility.yul\":4042:5477   */\n        tag_388:\n            /* \"#utility.yul\":4123:4128   */\n          0x00\n            /* \"#utility.yul\":4167:4171   */\n          0x80\n            /* \"#utility.yul\":4155:4164   */\n          dup3\n            /* \"#utility.yul\":4150:4153   */\n          dup5\n            /* \"#utility.yul\":4146:4165   */\n          sub\n            /* \"#utility.yul\":4142:4172   */\n          slt\n            /* \"#utility.yul\":4139:4256   */\n          iszero\n          tag_494\n          jumpi\n            /* \"#utility.yul\":4175:4254   */\n          tag_495\n          tag_373\n          jump\t// in\n        tag_495:\n            /* \"#utility.yul\":4139:4256   */\n        tag_494:\n            /* \"#utility.yul\":4274:4295   */\n          tag_496\n            /* \"#utility.yul\":4290:4294   */\n          0x80\n            /* \"#utility.yul\":4274:4295   */\n          tag_377\n          jump\t// in\n        tag_496:\n            /* \"#utility.yul\":4265:4295   */\n          swap1\n          pop\n            /* \"#utility.yul\":4394:4395   */\n          0x00\n            /* \"#utility.yul\":4383:4392   */\n          dup3\n            /* \"#utility.yul\":4379:4396   */\n          add\n            /* \"#utility.yul\":4366:4397   */\n          calldataload\n            /* \"#utility.yul\":4424:4442   */\n          0xffffffffffffffff\n            /* \"#utility.yul\":4416:4422   */\n          dup2\n            /* \"#utility.yul\":4413:4443   */\n          gt\n            /* \"#utility.yul\":4410:4527   */\n          iszero\n          tag_497\n          jumpi\n            /* \"#utility.yul\":4446:4525   */\n          tag_498\n          tag_378\n          jump\t// in\n        tag_498:\n            /* \"#utility.yul\":4410:4527   */\n        tag_497:\n            /* \"#utility.yul\":4566:4625   */\n          tag_499\n            /* \"#utility.yul\":4621:4624   */\n          dup5\n            /* \"#utility.yul\":4612:4618   */\n          dup3\n            /* \"#utility.yul\":4601:4610   */\n          dup6\n            /* \"#utility.yul\":4597:4619   */\n          add\n            /* \"#utility.yul\":4566:4625   */\n          tag_384\n          jump\t// in\n        tag_499:\n            /* \"#utility.yul\":4559:4563   */\n          0x00\n            /* \"#utility.yul\":4552:4557   */\n          dup4\n            /* \"#utility.yul\":4548:4564   */\n          add\n            /* \"#utility.yul\":4541:4626   */\n          mstore\n            /* \"#utility.yul\":4305:4637   */\n          pop\n            /* \"#utility.yul\":4732:4734   */\n          0x20\n            /* \"#utility.yul\":4721:4730   */\n          dup3\n            /* \"#utility.yul\":4717:4735   */\n          add\n            /* \"#utility.yul\":4704:4736   */\n          calldataload\n            /* \"#utility.yul\":4763:4781   */\n          0xffffffffffffffff\n            /* \"#utility.yul\":4755:4761   */\n          dup2\n            /* \"#utility.yul\":4752:4782   */\n          gt\n            /* \"#utility.yul\":4749:4866   */\n          iszero\n          tag_500\n          jumpi\n            /* \"#utility.yul\":4785:4864   */\n          tag_501\n          tag_378\n          jump\t// in\n        tag_501:\n            /* \"#utility.yul\":4749:4866   */\n        tag_500:\n            /* \"#utility.yul\":4905:4964   */\n          tag_502\n            /* \"#utility.yul\":4960:4963   */\n          dup5\n            /* \"#utility.yul\":4951:4957   */\n          dup3\n            /* \"#utility.yul\":4940:4949   */\n          dup6\n            /* \"#utility.yul\":4936:4958   */\n          add\n            /* \"#utility.yul\":4905:4964   */\n          tag_384\n          jump\t// in\n        tag_502:\n            /* \"#utility.yul\":4898:4902   */\n          0x20\n            /* \"#utility.yul\":4891:4896   */\n          dup4\n            /* \"#utility.yul\":4887:4903   */\n          add\n            /* \"#utility.yul\":4880:4965   */\n          mstore\n            /* \"#utility.yul\":4647:4976   */\n          pop\n            /* \"#utility.yul\":5033:5035   */\n          0x40\n            /* \"#utility.yul\":5074:5123   */\n          tag_503\n            /* \"#utility.yul\":5119:5122   */\n          dup5\n            /* \"#utility.yul\":5110:5116   */\n          dup3\n            /* \"#utility.yul\":5099:5108   */\n          dup6\n            /* \"#utility.yul\":5095:5117   */\n          add\n            /* \"#utility.yul\":5074:5123   */\n          tag_387\n          jump\t// in\n        tag_503:\n            /* \"#utility.yul\":5067:5071   */\n          0x40\n            /* \"#utility.yul\":5060:5065   */\n          dup4\n            /* \"#utility.yul\":5056:5072   */\n          add\n            /* \"#utility.yul\":5049:5124   */\n          mstore\n            /* \"#utility.yul\":4986:5135   */\n          pop\n            /* \"#utility.yul\":5226:5228   */\n          0x60\n            /* \"#utility.yul\":5215:5224   */\n          dup3\n            /* \"#utility.yul\":5211:5229   */\n          add\n            /* \"#utility.yul\":5198:5230   */\n          calldataload\n            /* \"#utility.yul\":5257:5275   */\n          0xffffffffffffffff\n            /* \"#utility.yul\":5249:5255   */\n          dup2\n            /* \"#utility.yul\":5246:5276   */\n          gt\n            /* \"#utility.yul\":5243:5360   */\n          iszero\n          tag_504\n          jumpi\n            /* \"#utility.yul\":5279:5358   */\n          tag_505\n          tag_378\n          jump\t// in\n        tag_505:\n            /* \"#utility.yul\":5243:5360   */\n        tag_504:\n            /* \"#utility.yul\":5399:5458   */\n          tag_506\n            /* \"#utility.yul\":5454:5457   */\n          dup5\n            /* \"#utility.yul\":5445:5451   */\n          dup3\n            /* \"#utility.yul\":5434:5443   */\n          dup6\n            /* \"#utility.yul\":5430:5452   */\n          add\n            /* \"#utility.yul\":5399:5458   */\n          tag_384\n          jump\t// in\n        tag_506:\n            /* \"#utility.yul\":5392:5396   */\n          0x60\n            /* \"#utility.yul\":5385:5390   */\n          dup4\n            /* \"#utility.yul\":5381:5397   */\n          add\n            /* \"#utility.yul\":5374:5459   */\n          mstore\n            /* \"#utility.yul\":5145:5470   */\n          pop\n            /* \"#utility.yul\":4042:5477   */\n          swap3\n          swap2\n          pop\n          pop\n          jump\t// out\n            /* \"#utility.yul\":5525:9653   */\n        tag_389:\n            /* \"#utility.yul\":5603:5608   */\n          0x00\n            /* \"#utility.yul\":5647:5653   */\n          0x0180\n            /* \"#utility.yul\":5635:5644   */\n          dup3\n            /* \"#utility.yul\":5630:5633   */\n          dup5\n            /* \"#utility.yul\":5626:5645   */\n          sub\n            /* \"#utility.yul\":5622:5654   */\n          slt\n            /* \"#utility.yul\":5619:5738   */\n          iszero\n          tag_508\n          jumpi\n            /* \"#utility.yul\":5657:5736   */\n          tag_509\n          tag_373\n          jump\t// in\n        tag_509:\n            /* \"#utility.yul\":5619:5738   */\n        tag_508:\n            /* \"#utility.yul\":5756:5779   */\n          tag_510\n            /* \"#utility.yul\":5772:5778   */\n          0x0180\n            /* \"#utility.yul\":5756:5779   */\n          tag_377\n          jump\t// in\n        tag_510:\n            /* \"#utility.yul\":5747:5779   */\n          swap1\n          pop\n            /* \"#utility.yul\":5849:5850   */\n          0x00\n            /* \"#utility.yul\":5889:5938   */\n          tag_511\n            /* \"#utility.yul\":5934:5937   */\n          dup5\n            /* \"#utility.yul\":5925:5931   */\n          dup3\n            /* \"#utility.yul\":5914:5923   */\n          dup6\n            /* \"#utility.yul\":5910:5932   */\n          add\n            /* \"#utility.yul\":5889:5938   */\n          tag_372\n          jump\t// in\n        tag_511:\n            /* \"#utility.yul\":5882:5886   */\n          0x00\n            /* \"#utility.yul\":5875:5880   */\n          dup4\n            /* \"#utility.yul\":5871:5887   */\n          add\n            /* \"#utility.yul\":5864:5939   */\n          mstore\n            /* \"#utility.yul\":5789:5950   */\n          pop\n            /* \"#utility.yul\":6038:6040   */\n          0x20\n            /* \"#utility.yul\":6027:6036   */\n          dup3\n            /* \"#utility.yul\":6023:6041   */\n          add\n            /* \"#utility.yul\":6010:6042   */\n          calldataload\n            /* \"#utility.yul\":6069:6087   */\n          0xffffffffffffffff\n            /* \"#utility.yul\":6061:6067   */\n          dup2\n            /* \"#utility.yul\":6058:6088   */\n          gt\n            /* \"#utility.yul\":6055:6172   */\n          iszero\n          tag_512\n          jumpi\n            /* \"#utility.yul\":6091:6170   */\n          tag_513\n          tag_378\n          jump\t// in\n        tag_513:\n            /* \"#utility.yul\":6055:6172   */\n        tag_512:\n            /* \"#utility.yul\":6211:6270   */\n          tag_514\n            /* \"#utility.yul\":6266:6269   */\n          dup5\n            /* \"#utility.yul\":6257:6263   */\n          dup3\n            /* \"#utility.yul\":6246:6255   */\n          dup6\n            /* \"#utility.yul\":6242:6264   */\n          add\n            /* \"#utility.yul\":6211:6270   */\n          tag_384\n          jump\t// in\n        tag_514:\n            /* \"#utility.yul\":6204:6208   */\n          0x20\n            /* \"#utility.yul\":6197:6202   */\n          dup4\n            /* \"#utility.yul\":6193:6209   */\n          add\n            /* \"#utility.yul\":6186:6271   */\n          mstore\n            /* \"#utility.yul\":5960:6282   */\n          pop\n            /* \"#utility.yul\":6371:6373   */\n          0x40\n            /* \"#utility.yul\":6360:6369   */\n          dup3\n            /* \"#utility.yul\":6356:6374   */\n          add\n            /* \"#utility.yul\":6343:6375   */\n          calldataload\n            /* \"#utility.yul\":6402:6420   */\n          0xffffffffffffffff\n            /* \"#utility.yul\":6394:6400   */\n          dup2\n            /* \"#utility.yul\":6391:6421   */\n          gt\n            /* \"#utility.yul\":6388:6505   */\n          iszero\n          tag_515\n          jumpi\n            /* \"#utility.yul\":6424:6503   */\n          tag_516\n          tag_378\n          jump\t// in\n        tag_516:\n            /* \"#utility.yul\":6388:6505   */\n        tag_515:\n            /* \"#utility.yul\":6544:6603   */\n          tag_517\n            /* \"#utility.yul\":6599:6602   */\n          dup5\n            /* \"#utility.yul\":6590:6596   */\n          dup3\n            /* \"#utility.yul\":6579:6588   */\n          dup6\n            /* \"#utility.yul\":6575:6597   */\n          add\n            /* \"#utility.yul\":6544:6603   */\n          tag_384\n          jump\t// in\n        tag_517:\n            /* \"#utility.yul\":6537:6541   */\n          0x40\n            /* \"#utility.yul\":6530:6535   */\n          dup4\n            /* \"#utility.yul\":6526:6542   */\n          add\n            /* \"#utility.yul\":6519:6604   */\n          mstore\n            /* \"#utility.yul\":6292:6615   */\n          pop\n            /* \"#utility.yul\":6705:6707   */\n          0x60\n            /* \"#utility.yul\":6694:6703   */\n          dup3\n            /* \"#utility.yul\":6690:6708   */\n          add\n            /* \"#utility.yul\":6677:6709   */\n          calldataload\n            /* \"#utility.yul\":6736:6754   */\n          0xffffffffffffffff\n            /* \"#utility.yul\":6728:6734   */\n          dup2\n            /* \"#utility.yul\":6725:6755   */\n          gt\n            /* \"#utility.yul\":6722:6839   */\n          iszero\n          tag_518\n          jumpi\n            /* \"#utility.yul\":6758:6837   */\n          tag_519\n          tag_378\n          jump\t// in\n        tag_519:\n            /* \"#utility.yul\":6722:6839   */\n        tag_518:\n            /* \"#utility.yul\":6878:6937   */\n          tag_520\n            /* \"#utility.yul\":6933:6936   */\n          dup5\n            /* \"#utility.yul\":6924:6930   */\n          dup3\n            /* \"#utility.yul\":6913:6922   */\n          dup6\n            /* \"#utility.yul\":6909:6931   */\n          add\n            /* \"#utility.yul\":6878:6937   */\n          tag_384\n          jump\t// in\n        tag_520:\n            /* \"#utility.yul\":6871:6875   */\n          0x60\n            /* \"#utility.yul\":6864:6869   */\n          dup4\n            /* \"#utility.yul\":6860:6876   */\n          add\n            /* \"#utility.yul\":6853:6938   */\n          mstore\n            /* \"#utility.yul\":6625:6949   */\n          pop\n            /* \"#utility.yul\":7045:7048   */\n          0x80\n            /* \"#utility.yul\":7034:7043   */\n          dup3\n            /* \"#utility.yul\":7030:7049   */\n          add\n            /* \"#utility.yul\":7017:7050   */\n          calldataload\n            /* \"#utility.yul\":7077:7095   */\n          0xffffffffffffffff\n            /* \"#utility.yul\":7069:7075   */\n          dup2\n            /* \"#utility.yul\":7066:7096   */\n          gt\n            /* \"#utility.yul\":7063:7180   */\n          iszero\n          tag_521\n          jumpi\n            /* \"#utility.yul\":7099:7178   */\n          tag_522\n          tag_378\n          jump\t// in\n        tag_522:\n            /* \"#utility.yul\":7063:7180   */\n        tag_521:\n            /* \"#utility.yul\":7219:7278   */\n          tag_523\n            /* \"#utility.yul\":7274:7277   */\n          dup5\n            /* \"#utility.yul\":7265:7271   */\n          dup3\n            /* \"#utility.yul\":7254:7263   */\n          dup6\n            /* \"#utility.yul\":7250:7272   */\n          add\n            /* \"#utility.yul\":7219:7278   */\n          tag_384\n          jump\t// in\n        tag_523:\n            /* \"#utility.yul\":7212:7216   */\n          0x80\n            /* \"#utility.yul\":7205:7210   */\n          dup4\n            /* \"#utility.yul\":7201:7217   */\n          add\n            /* \"#utility.yul\":7194:7279   */\n          mstore\n            /* \"#utility.yul\":6959:7290   */\n          pop\n            /* \"#utility.yul\":7382:7385   */\n          0xa0\n            /* \"#utility.yul\":7371:7380   */\n          dup3\n            /* \"#utility.yul\":7367:7386   */\n          add\n            /* \"#utility.yul\":7354:7387   */\n          calldataload\n            /* \"#utility.yul\":7414:7432   */\n          0xffffffffffffffff\n            /* \"#utility.yul\":7406:7412   */\n          dup2\n            /* \"#utility.yul\":7403:7433   */\n          gt\n            /* \"#utility.yul\":7400:7517   */\n          iszero\n          tag_524\n          jumpi\n            /* \"#utility.yul\":7436:7515   */\n          tag_525\n          tag_378\n          jump\t// in\n        tag_525:\n            /* \"#utility.yul\":7400:7517   */\n        tag_524:\n            /* \"#utility.yul\":7556:7615   */\n          tag_526\n            /* \"#utility.yul\":7611:7614   */\n          dup5\n            /* \"#utility.yul\":7602:7608   */\n          dup3\n            /* \"#utility.yul\":7591:7600   */\n          dup6\n            /* \"#utility.yul\":7587:7609   */\n          add\n            /* \"#utility.yul\":7556:7615   */\n          tag_384\n          jump\t// in\n        tag_526:\n            /* \"#utility.yul\":7549:7553   */\n          0xa0\n            /* \"#utility.yul\":7542:7547   */\n          dup4\n            /* \"#utility.yul\":7538:7554   */\n          add\n            /* \"#utility.yul\":7531:7616   */\n          mstore\n            /* \"#utility.yul\":7300:7627   */\n          pop\n            /* \"#utility.yul\":7715:7718   */\n          0xc0\n            /* \"#utility.yul\":7704:7713   */\n          dup3\n            /* \"#utility.yul\":7700:7719   */\n          add\n            /* \"#utility.yul\":7687:7720   */\n          calldataload\n            /* \"#utility.yul\":7747:7765   */\n          0xffffffffffffffff\n            /* \"#utility.yul\":7739:7745   */\n          dup2\n            /* \"#utility.yul\":7736:7766   */\n          gt\n            /* \"#utility.yul\":7733:7850   */\n          iszero\n          tag_527\n          jumpi\n            /* \"#utility.yul\":7769:7848   */\n          tag_528\n          tag_378\n          jump\t// in\n        tag_528:\n            /* \"#utility.yul\":7733:7850   */\n        tag_527:\n            /* \"#utility.yul\":7889:7948   */\n          tag_529\n            /* \"#utility.yul\":7944:7947   */\n          dup5\n            /* \"#utility.yul\":7935:7941   */\n          dup3\n            /* \"#utility.yul\":7924:7933   */\n          dup6\n            /* \"#utility.yul\":7920:7942   */\n          add\n            /* \"#utility.yul\":7889:7948   */\n          tag_384\n          jump\t// in\n        tag_529:\n            /* \"#utility.yul\":7882:7886   */\n          0xc0\n            /* \"#utility.yul\":7875:7880   */\n          dup4\n            /* \"#utility.yul\":7871:7887   */\n          add\n            /* \"#utility.yul\":7864:7949   */\n          mstore\n            /* \"#utility.yul\":7637:7960   */\n          pop\n            /* \"#utility.yul\":8052:8055   */\n          0xe0\n            /* \"#utility.yul\":8041:8050   */\n          dup3\n            /* \"#utility.yul\":8037:8056   */\n          add\n            /* \"#utility.yul\":8024:8057   */\n          calldataload\n            /* \"#utility.yul\":8084:8102   */\n          0xffffffffffffffff\n            /* \"#utility.yul\":8076:8082   */\n          dup2\n            /* \"#utility.yul\":8073:8103   */\n          gt\n            /* \"#utility.yul\":8070:8187   */\n          iszero\n          tag_530\n          jumpi\n            /* \"#utility.yul\":8106:8185   */\n          tag_531\n          tag_378\n          jump\t// in\n        tag_531:\n            /* \"#utility.yul\":8070:8187   */\n        tag_530:\n            /* \"#utility.yul\":8226:8285   */\n          tag_532\n            /* \"#utility.yul\":8281:8284   */\n          dup5\n            /* \"#utility.yul\":8272:8278   */\n          dup3\n            /* \"#utility.yul\":8261:8270   */\n          dup6\n            /* \"#utility.yul\":8257:8279   */\n          add\n            /* \"#utility.yul\":8226:8285   */\n          tag_384\n          jump\t// in\n        tag_532:\n            /* \"#utility.yul\":8219:8223   */\n          0xe0\n            /* \"#utility.yul\":8212:8217   */\n          dup4\n            /* \"#utility.yul\":8208:8224   */\n          add\n            /* \"#utility.yul\":8201:8286   */\n          mstore\n            /* \"#utility.yul\":7970:8297   */\n          pop\n            /* \"#utility.yul\":8390:8393   */\n          0x0100\n            /* \"#utility.yul\":8379:8388   */\n          dup3\n            /* \"#utility.yul\":8375:8394   */\n          add\n            /* \"#utility.yul\":8362:8395   */\n          calldataload\n            /* \"#utility.yul\":8422:8440   */\n          0xffffffffffffffff\n            /* \"#utility.yul\":8414:8420   */\n          dup2\n            /* \"#utility.yul\":8411:8441   */\n          gt\n            /* \"#utility.yul\":8408:8525   */\n          iszero\n          tag_533\n          jumpi\n            /* \"#utility.yul\":8444:8523   */\n          tag_534\n          tag_378\n          jump\t// in\n        tag_534:\n            /* \"#utility.yul\":8408:8525   */\n        tag_533:\n            /* \"#utility.yul\":8566:8625   */\n          tag_535\n            /* \"#utility.yul\":8621:8624   */\n          dup5\n            /* \"#utility.yul\":8612:8618   */\n          dup3\n            /* \"#utility.yul\":8601:8610   */\n          dup6\n            /* \"#utility.yul\":8597:8619   */\n          add\n            /* \"#utility.yul\":8566:8625   */\n          tag_384\n          jump\t// in\n        tag_535:\n            /* \"#utility.yul\":8557:8563   */\n          0x0100\n            /* \"#utility.yul\":8550:8555   */\n          dup4\n            /* \"#utility.yul\":8546:8564   */\n          add\n            /* \"#utility.yul\":8539:8626   */\n          mstore\n            /* \"#utility.yul\":8307:8637   */\n          pop\n            /* \"#utility.yul\":8728:8731   */\n          0x0120\n            /* \"#utility.yul\":8717:8726   */\n          dup3\n            /* \"#utility.yul\":8713:8732   */\n          add\n            /* \"#utility.yul\":8700:8733   */\n          calldataload\n            /* \"#utility.yul\":8760:8778   */\n          0xffffffffffffffff\n            /* \"#utility.yul\":8752:8758   */\n          dup2\n            /* \"#utility.yul\":8749:8779   */\n          gt\n            /* \"#utility.yul\":8746:8863   */\n          iszero\n          tag_536\n          jumpi\n            /* \"#utility.yul\":8782:8861   */\n          tag_537\n          tag_378\n          jump\t// in\n        tag_537:\n            /* \"#utility.yul\":8746:8863   */\n        tag_536:\n            /* \"#utility.yul\":8904:8963   */\n          tag_538\n            /* \"#utility.yul\":8959:8962   */\n          dup5\n            /* \"#utility.yul\":8950:8956   */\n          dup3\n            /* \"#utility.yul\":8939:8948   */\n          dup6\n            /* \"#utility.yul\":8935:8957   */\n          add\n            /* \"#utility.yul\":8904:8963   */\n          tag_384\n          jump\t// in\n        tag_538:\n            /* \"#utility.yul\":8895:8901   */\n          0x0120\n            /* \"#utility.yul\":8888:8893   */\n          dup4\n            /* \"#utility.yul\":8884:8902   */\n          add\n            /* \"#utility.yul\":8877:8964   */\n          mstore\n            /* \"#utility.yul\":8647:8975   */\n          pop\n            /* \"#utility.yul\":9060:9063   */\n          0x0140\n            /* \"#utility.yul\":9049:9058   */\n          dup3\n            /* \"#utility.yul\":9045:9064   */\n          add\n            /* \"#utility.yul\":9032:9065   */\n          calldataload\n            /* \"#utility.yul\":9092:9110   */\n          0xffffffffffffffff\n            /* \"#utility.yul\":9084:9090   */\n          dup2\n            /* \"#utility.yul\":9081:9111   */\n          gt\n            /* \"#utility.yul\":9078:9195   */\n          iszero\n          tag_539\n          jumpi\n            /* \"#utility.yul\":9114:9193   */\n          tag_540\n          tag_378\n          jump\t// in\n        tag_540:\n            /* \"#utility.yul\":9078:9195   */\n        tag_539:\n            /* \"#utility.yul\":9236:9295   */\n          tag_541\n            /* \"#utility.yul\":9291:9294   */\n          dup5\n            /* \"#utility.yul\":9282:9288   */\n          dup3\n            /* \"#utility.yul\":9271:9280   */\n          dup6\n            /* \"#utility.yul\":9267:9289   */\n          add\n            /* \"#utility.yul\":9236:9295   */\n          tag_384\n          jump\t// in\n        tag_541:\n            /* \"#utility.yul\":9227:9233   */\n          0x0140\n            /* \"#utility.yul\":9220:9225   */\n          dup4\n            /* \"#utility.yul\":9216:9234   */\n          add\n            /* \"#utility.yul\":9209:9296   */\n          mstore\n            /* \"#utility.yul\":8985:9307   */\n          pop\n            /* \"#utility.yul\":9399:9402   */\n          0x0160\n            /* \"#utility.yul\":9388:9397   */\n          dup3\n            /* \"#utility.yul\":9384:9403   */\n          add\n            /* \"#utility.yul\":9371:9404   */\n          calldataload\n            /* \"#utility.yul\":9431:9449   */\n          0xffffffffffffffff\n            /* \"#utility.yul\":9423:9429   */\n          dup2\n            /* \"#utility.yul\":9420:9450   */\n          gt\n            /* \"#utility.yul\":9417:9534   */\n          iszero\n          tag_542\n          jumpi\n            /* \"#utility.yul\":9453:9532   */\n          tag_543\n          tag_378\n          jump\t// in\n        tag_543:\n            /* \"#utility.yul\":9417:9534   */\n        tag_542:\n            /* \"#utility.yul\":9575:9634   */\n          tag_544\n            /* \"#utility.yul\":9630:9633   */\n          dup5\n            /* \"#utility.yul\":9621:9627   */\n          dup3\n            /* \"#utility.yul\":9610:9619   */\n          dup6\n            /* \"#utility.yul\":9606:9628   */\n          add\n            /* \"#utility.yul\":9575:9634   */\n          tag_384\n          jump\t// in\n        tag_544:\n            /* \"#utility.yul\":9566:9572   */\n          0x0160\n            /* \"#utility.yul\":9559:9564   */\n          dup4\n            /* \"#utility.yul\":9555:9573   */\n          add\n            /* \"#utility.yul\":9548:9635   */\n          mstore\n            /* \"#utility.yul\":9317:9646   */\n          pop\n            /* \"#utility.yul\":5525:9653   */\n          swap3\n          swap2\n          pop\n          pop\n          jump\t// out\n            /* \"#utility.yul\":9659:10575   */\n        tag_19:\n            /* \"#utility.yul\":9788:9794   */\n          0x00\n            /* \"#utility.yul\":9796:9802   */\n          dup1\n            /* \"#utility.yul\":9845:9847   */\n          0x40\n            /* \"#utility.yul\":9833:9842   */\n          dup4\n            /* \"#utility.yul\":9824:9831   */\n          dup6\n            /* \"#utility.yul\":9820:9843   */\n          sub\n            /* \"#utility.yul\":9816:9848   */\n          slt\n            /* \"#utility.yul\":9813:9932   */\n          iszero\n          tag_546\n          jumpi\n            /* \"#utility.yul\":9851:9930   */\n          tag_547\n          tag_367\n          jump\t// in\n        tag_547:\n            /* \"#utility.yul\":9813:9932   */\n        tag_546:\n            /* \"#utility.yul\":9999:10000   */\n          0x00\n            /* \"#utility.yul\":9988:9997   */\n          dup4\n            /* \"#utility.yul\":9984:10001   */\n          add\n            /* \"#utility.yul\":9971:10002   */\n          calldataload\n            /* \"#utility.yul\":10029:10047   */\n          0xffffffffffffffff\n            /* \"#utility.yul\":10021:10027   */\n          dup2\n            /* \"#utility.yul\":10018:10048   */\n          gt\n            /* \"#utility.yul\":10015:10132   */\n          iszero\n          tag_548\n          jumpi\n            /* \"#utility.yul\":10051:10130   */\n          tag_549\n          tag_368\n          jump\t// in\n        tag_549:\n            /* \"#utility.yul\":10015:10132   */\n        tag_548:\n            /* \"#utility.yul\":10156:10241   */\n          tag_550\n            /* \"#utility.yul\":10233:10240   */\n          dup6\n            /* \"#utility.yul\":10224:10230   */\n          dup3\n            /* \"#utility.yul\":10213:10222   */\n          dup7\n            /* \"#utility.yul\":10209:10231   */\n          add\n            /* \"#utility.yul\":10156:10241   */\n          tag_388\n          jump\t// in\n        tag_550:\n            /* \"#utility.yul\":10146:10241   */\n          swap3\n          pop\n            /* \"#utility.yul\":9942:10251   */\n          pop\n            /* \"#utility.yul\":10318:10320   */\n          0x20\n            /* \"#utility.yul\":10307:10316   */\n          dup4\n            /* \"#utility.yul\":10303:10321   */\n          add\n            /* \"#utility.yul\":10290:10322   */\n          calldataload\n            /* \"#utility.yul\":10349:10367   */\n          0xffffffffffffffff\n            /* \"#utility.yul\":10341:10347   */\n          dup2\n            /* \"#utility.yul\":10338:10368   */\n          gt\n            /* \"#utility.yul\":10335:10452   */\n          iszero\n          tag_551\n          jumpi\n            /* \"#utility.yul\":10371:10450   */\n          tag_552\n          tag_368\n          jump\t// in\n        tag_552:\n            /* \"#utility.yul\":10335:10452   */\n        tag_551:\n            /* \"#utility.yul\":10476:10558   */\n          tag_553\n            /* \"#utility.yul\":10550:10557   */\n          dup6\n            /* \"#utility.yul\":10541:10547   */\n          dup3\n            /* \"#utility.yul\":10530:10539   */\n          dup7\n            /* \"#utility.yul\":10526:10548   */\n          add\n            /* \"#utility.yul\":10476:10558   */\n          tag_389\n          jump\t// in\n        tag_553:\n            /* \"#utility.yul\":10466:10558   */\n          swap2\n          pop\n            /* \"#utility.yul\":10261:10568   */\n          pop\n            /* \"#utility.yul\":9659:10575   */\n          swap3\n          pop\n          swap3\n          swap1\n          pop\n          jump\t// out\n            /* \"#utility.yul\":10626:12230   */\n        tag_390:\n            /* \"#utility.yul\":10707:10712   */\n          0x00\n            /* \"#utility.yul\":10751:10755   */\n          0xa0\n            /* \"#utility.yul\":10739:10748   */\n          dup3\n            /* \"#utility.yul\":10734:10737   */\n          dup5\n            /* \"#utility.yul\":10730:10749   */\n          sub\n            /* \"#utility.yul\":10726:10756   */\n          slt\n            /* \"#utility.yul\":10723:10840   */\n          iszero\n          tag_555\n          jumpi\n            /* \"#utility.yul\":10759:10838   */\n          tag_556\n          tag_373\n          jump\t// in\n        tag_556:\n            /* \"#utility.yul\":10723:10840   */\n        tag_555:\n            /* \"#utility.yul\":10858:10879   */\n          tag_557\n            /* \"#utility.yul\":10874:10878   */\n          0xa0\n            /* \"#utility.yul\":10858:10879   */\n          tag_377\n          jump\t// in\n        tag_557:\n            /* \"#utility.yul\":10849:10879   */\n          swap1\n          pop\n            /* \"#utility.yul\":10948:10949   */\n          0x00\n            /* \"#utility.yul\":10988:11037   */\n          tag_558\n            /* \"#utility.yul\":11033:11036   */\n          dup5\n            /* \"#utility.yul\":11024:11030   */\n          dup3\n            /* \"#utility.yul\":11013:11022   */\n          dup6\n            /* \"#utility.yul\":11009:11031   */\n          add\n            /* \"#utility.yul\":10988:11037   */\n          tag_372\n          jump\t// in\n        tag_558:\n            /* \"#utility.yul\":10981:10985   */\n          0x00\n            /* \"#utility.yul\":10974:10979   */\n          dup4\n            /* \"#utility.yul\":10970:10986   */\n          add\n            /* \"#utility.yul\":10963:11038   */\n          mstore\n            /* \"#utility.yul\":10889:11049   */\n          pop\n            /* \"#utility.yul\":11144:11146   */\n          0x20\n            /* \"#utility.yul\":11133:11142   */\n          dup3\n            /* \"#utility.yul\":11129:11147   */\n          add\n            /* \"#utility.yul\":11116:11148   */\n          calldataload\n            /* \"#utility.yul\":11175:11193   */\n          0xffffffffffffffff\n            /* \"#utility.yul\":11167:11173   */\n          dup2\n            /* \"#utility.yul\":11164:11194   */\n          gt\n            /* \"#utility.yul\":11161:11278   */\n          iszero\n          tag_559\n          jumpi\n            /* \"#utility.yul\":11197:11276   */\n          tag_560\n          tag_378\n          jump\t// in\n        tag_560:\n            /* \"#utility.yul\":11161:11278   */\n        tag_559:\n            /* \"#utility.yul\":11317:11376   */\n          tag_561\n            /* \"#utility.yul\":11372:11375   */\n          dup5\n            /* \"#utility.yul\":11363:11369   */\n          dup3\n            /* \"#utility.yul\":11352:11361   */\n          dup6\n            /* \"#utility.yul\":11348:11370   */\n          add\n            /* \"#utility.yul\":11317:11376   */\n          tag_384\n          jump\t// in\n        tag_561:\n            /* \"#utility.yul\":11310:11314   */\n          0x20\n            /* \"#utility.yul\":11303:11308   */\n          dup4\n            /* \"#utility.yul\":11299:11315   */\n          add\n            /* \"#utility.yul\":11292:11377   */\n          mstore\n            /* \"#utility.yul\":11059:11388   */\n          pop\n            /* \"#utility.yul\":11447:11449   */\n          0x40\n            /* \"#utility.yul\":11488:11537   */\n          tag_562\n            /* \"#utility.yul\":11533:11536   */\n          dup5\n            /* \"#utility.yul\":11524:11530   */\n          dup3\n            /* \"#utility.yul\":11513:11522   */\n          dup6\n            /* \"#utility.yul\":11509:11531   */\n          add\n            /* \"#utility.yul\":11488:11537   */\n          tag_387\n          jump\t// in\n        tag_562:\n            /* \"#utility.yul\":11481:11485   */\n          0x40\n            /* \"#utility.yul\":11474:11479   */\n          dup4\n            /* \"#utility.yul\":11470:11486   */\n          add\n            /* \"#utility.yul\":11463:11538   */\n          mstore\n            /* \"#utility.yul\":11398:11549   */\n          pop\n            /* \"#utility.yul\":11645:11647   */\n          0x60\n            /* \"#utility.yul\":11634:11643   */\n          dup3\n            /* \"#utility.yul\":11630:11648   */\n          add\n            /* \"#utility.yul\":11617:11649   */\n          calldataload\n            /* \"#utility.yul\":11676:11694   */\n          0xffffffffffffffff\n            /* \"#utility.yul\":11668:11674   */\n          dup2\n            /* \"#utility.yul\":11665:11695   */\n          gt\n            /* \"#utility.yul\":11662:11779   */\n          iszero\n          tag_563\n          jumpi\n            /* \"#utility.yul\":11698:11777   */\n          tag_564\n          tag_378\n          jump\t// in\n        tag_564:\n            /* \"#utility.yul\":11662:11779   */\n        tag_563:\n            /* \"#utility.yul\":11818:11877   */\n          tag_565\n            /* \"#utility.yul\":11873:11876   */\n          dup5\n            /* \"#utility.yul\":11864:11870   */\n          dup3\n            /* \"#utility.yul\":11853:11862   */\n          dup6\n            /* \"#utility.yul\":11849:11871   */\n          add\n            /* \"#utility.yul\":11818:11877   */\n          tag_384\n          jump\t// in\n        tag_565:\n            /* \"#utility.yul\":11811:11815   */\n          0x60\n            /* \"#utility.yul\":11804:11809   */\n          dup4\n            /* \"#utility.yul\":11800:11816   */\n          add\n            /* \"#utility.yul\":11793:11878   */\n          mstore\n            /* \"#utility.yul\":11559:11889   */\n          pop\n            /* \"#utility.yul\":11978:11981   */\n          0x80\n            /* \"#utility.yul\":11967:11976   */\n          dup3\n            /* \"#utility.yul\":11963:11982   */\n          add\n            /* \"#utility.yul\":11950:11983   */\n          calldataload\n            /* \"#utility.yul\":12010:12028   */\n          0xffffffffffffffff\n            /* \"#utility.yul\":12002:12008   */\n          dup2\n            /* \"#utility.yul\":11999:12029   */\n          gt\n            /* \"#utility.yul\":11996:12113   */\n          iszero\n          tag_566\n          jumpi\n            /* \"#utility.yul\":12032:12111   */\n          tag_567\n          tag_378\n          jump\t// in\n        tag_567:\n            /* \"#utility.yul\":11996:12113   */\n        tag_566:\n            /* \"#utility.yul\":12152:12211   */\n          tag_568\n            /* \"#utility.yul\":12207:12210   */\n          dup5\n            /* \"#utility.yul\":12198:12204   */\n          dup3\n            /* \"#utility.yul\":12187:12196   */\n          dup6\n            /* \"#utility.yul\":12183:12205   */\n          add\n            /* \"#utility.yul\":12152:12211   */\n          tag_384\n          jump\t// in\n        tag_568:\n            /* \"#utility.yul\":12145:12149   */\n          0x80\n            /* \"#utility.yul\":12138:12143   */\n          dup4\n            /* \"#utility.yul\":12134:12150   */\n          add\n            /* \"#utility.yul\":12127:12212   */\n          mstore\n            /* \"#utility.yul\":11899:12223   */\n          pop\n            /* \"#utility.yul\":10626:12230   */\n          swap3\n          swap2\n          pop\n          pop\n          jump\t// out\n            /* \"#utility.yul\":12236:12326   */\n        tag_391:\n            /* \"#utility.yul\":12270:12277   */\n          0x00\n            /* \"#utility.yul\":12313:12318   */\n          dup2\n            /* \"#utility.yul\":12306:12319   */\n          iszero\n            /* \"#utility.yul\":12299:12320   */\n          iszero\n            /* \"#utility.yul\":12288:12320   */\n          swap1\n          pop\n            /* \"#utility.yul\":12236:12326   */\n          swap2\n          swap1\n          pop\n          jump\t// out\n            /* \"#utility.yul\":12332:12448   */\n        tag_392:\n            /* \"#utility.yul\":12402:12423   */\n          tag_571\n            /* \"#utility.yul\":12417:12422   */\n          dup2\n            /* \"#utility.yul\":12402:12423   */\n          tag_391\n          jump\t// in\n        tag_571:\n            /* \"#utility.yul\":12395:12400   */\n          dup2\n            /* \"#utility.yul\":12392:12424   */\n          eq\n            /* \"#utility.yul\":12382:12442   */\n          tag_572\n          jumpi\n            /* \"#utility.yul\":12438:12439   */\n          0x00\n            /* \"#utility.yul\":12435:12436   */\n          dup1\n            /* \"#utility.yul\":12428:12440   */\n          revert\n            /* \"#utility.yul\":12382:12442   */\n        tag_572:\n            /* \"#utility.yul\":12332:12448   */\n          pop\n          jump\t// out\n            /* \"#utility.yul\":12454:12587   */\n        tag_393:\n            /* \"#utility.yul\":12497:12502   */\n          0x00\n            /* \"#utility.yul\":12535:12541   */\n          dup2\n            /* \"#utility.yul\":12522:12542   */\n          calldataload\n            /* \"#utility.yul\":12513:12542   */\n          swap1\n          pop\n            /* \"#utility.yul\":12551:12581   */\n          tag_574\n            /* \"#utility.yul\":12575:12580   */\n          dup2\n            /* \"#utility.yul\":12551:12581   */\n          tag_392\n          jump\t// in\n        tag_574:\n            /* \"#utility.yul\":12454:12587   */\n          swap3\n          swap2\n          pop\n          pop\n          jump\t// out\n            /* \"#utility.yul\":12633:15917   */\n        tag_394:\n            /* \"#utility.yul\":12709:12714   */\n          0x00\n            /* \"#utility.yul\":12753:12759   */\n          0x0140\n            /* \"#utility.yul\":12741:12750   */\n          dup3\n            /* \"#utility.yul\":12736:12739   */\n          dup5\n            /* \"#utility.yul\":12732:12751   */\n          sub\n            /* \"#utility.yul\":12728:12760   */\n          slt\n            /* \"#utility.yul\":12725:12844   */\n          iszero\n          tag_576\n          jumpi\n            /* \"#utility.yul\":12763:12842   */\n          tag_577\n          tag_373\n          jump\t// in\n        tag_577:\n            /* \"#utility.yul\":12725:12844   */\n        tag_576:\n            /* \"#utility.yul\":12862:12885   */\n          tag_578\n            /* \"#utility.yul\":12878:12884   */\n          0x0140\n            /* \"#utility.yul\":12862:12885   */\n          tag_377\n          jump\t// in\n        tag_578:\n            /* \"#utility.yul\":12853:12885   */\n          swap1\n          pop\n            /* \"#utility.yul\":12955:12956   */\n          0x00\n            /* \"#utility.yul\":12995:13044   */\n          tag_579\n            /* \"#utility.yul\":13040:13043   */\n          dup5\n            /* \"#utility.yul\":13031:13037   */\n          dup3\n            /* \"#utility.yul\":13020:13029   */\n          dup6\n            /* \"#utility.yul\":13016:13038   */\n          add\n            /* \"#utility.yul\":12995:13044   */\n          tag_372\n          jump\t// in\n        tag_579:\n            /* \"#utility.yul\":12988:12992   */\n          0x00\n            /* \"#utility.yul\":12981:12986   */\n          dup4\n            /* \"#utility.yul\":12977:12993   */\n          add\n            /* \"#utility.yul\":12970:13045   */\n          mstore\n            /* \"#utility.yul\":12895:13056   */\n          pop\n            /* \"#utility.yul\":13144:13146   */\n          0x20\n            /* \"#utility.yul\":13133:13142   */\n          dup3\n            /* \"#utility.yul\":13129:13147   */\n          add\n            /* \"#utility.yul\":13116:13148   */\n          calldataload\n            /* \"#utility.yul\":13175:13193   */\n          0xffffffffffffffff\n            /* \"#utility.yul\":13167:13173   */\n          dup2\n            /* \"#utility.yul\":13164:13194   */\n          gt\n            /* \"#utility.yul\":13161:13278   */\n          iszero\n          tag_580\n          jumpi\n            /* \"#utility.yul\":13197:13276   */\n          tag_581\n          tag_378\n          jump\t// in\n        tag_581:\n            /* \"#utility.yul\":13161:13278   */\n        tag_580:\n            /* \"#utility.yul\":13317:13376   */\n          tag_582\n            /* \"#utility.yul\":13372:13375   */\n          dup5\n            /* \"#utility.yul\":13363:13369   */\n          dup3\n            /* \"#utility.yul\":13352:13361   */\n          dup6\n            /* \"#utility.yul\":13348:13370   */\n          add\n            /* \"#utility.yul\":13317:13376   */\n          tag_384\n          jump\t// in\n        tag_582:\n            /* \"#utility.yul\":13310:13314   */\n          0x20\n            /* \"#utility.yul\":13303:13308   */\n          dup4\n            /* \"#utility.yul\":13299:13315   */\n          add\n            /* \"#utility.yul\":13292:13377   */\n          mstore\n            /* \"#utility.yul\":13066:13388   */\n          pop\n            /* \"#utility.yul\":13484:13486   */\n          0x40\n            /* \"#utility.yul\":13473:13482   */\n          dup3\n            /* \"#utility.yul\":13469:13487   */\n          add\n            /* \"#utility.yul\":13456:13488   */\n          calldataload\n            /* \"#utility.yul\":13515:13533   */\n          0xffffffffffffffff\n            /* \"#utility.yul\":13507:13513   */\n          dup2\n            /* \"#utility.yul\":13504:13534   */\n          gt\n            /* \"#utility.yul\":13501:13618   */\n          iszero\n          tag_583\n          jumpi\n            /* \"#utility.yul\":13537:13616   */\n          tag_584\n          tag_378\n          jump\t// in\n        tag_584:\n            /* \"#utility.yul\":13501:13618   */\n        tag_583:\n            /* \"#utility.yul\":13657:13716   */\n          tag_585\n            /* \"#utility.yul\":13712:13715   */\n          dup5\n            /* \"#utility.yul\":13703:13709   */\n          dup3\n            /* \"#utility.yul\":13692:13701   */\n          dup6\n            /* \"#utility.yul\":13688:13710   */\n          add\n            /* \"#utility.yul\":13657:13716   */\n          tag_384\n          jump\t// in\n        tag_585:\n            /* \"#utility.yul\":13650:13654   */\n          0x40\n            /* \"#utility.yul\":13643:13648   */\n          dup4\n            /* \"#utility.yul\":13639:13655   */\n          add\n            /* \"#utility.yul\":13632:13717   */\n          mstore\n            /* \"#utility.yul\":13398:13728   */\n          pop\n            /* \"#utility.yul\":13820:13822   */\n          0x60\n            /* \"#utility.yul\":13809:13818   */\n          dup3\n            /* \"#utility.yul\":13805:13823   */\n          add\n            /* \"#utility.yul\":13792:13824   */\n          calldataload\n            /* \"#utility.yul\":13851:13869   */\n          0xffffffffffffffff\n            /* \"#utility.yul\":13843:13849   */\n          dup2\n            /* \"#utility.yul\":13840:13870   */\n          gt\n            /* \"#utility.yul\":13837:13954   */\n          iszero\n          tag_586\n          jumpi\n            /* \"#utility.yul\":13873:13952   */\n          tag_587\n          tag_378\n          jump\t// in\n        tag_587:\n            /* \"#utility.yul\":13837:13954   */\n        tag_586:\n            /* \"#utility.yul\":13993:14052   */\n          tag_588\n            /* \"#utility.yul\":14048:14051   */\n          dup5\n            /* \"#utility.yul\":14039:14045   */\n          dup3\n            /* \"#utility.yul\":14028:14037   */\n          dup6\n            /* \"#utility.yul\":14024:14046   */\n          add\n            /* \"#utility.yul\":13993:14052   */\n          tag_384\n          jump\t// in\n        tag_588:\n            /* \"#utility.yul\":13986:13990   */\n          0x60\n            /* \"#utility.yul\":13979:13984   */\n          dup4\n            /* \"#utility.yul\":13975:13991   */\n          add\n            /* \"#utility.yul\":13968:14053   */\n          mstore\n            /* \"#utility.yul\":13738:14064   */\n          pop\n            /* \"#utility.yul\":14156:14159   */\n          0x80\n            /* \"#utility.yul\":14145:14154   */\n          dup3\n            /* \"#utility.yul\":14141:14160   */\n          add\n            /* \"#utility.yul\":14128:14161   */\n          calldataload\n            /* \"#utility.yul\":14188:14206   */\n          0xffffffffffffffff\n            /* \"#utility.yul\":14180:14186   */\n          dup2\n            /* \"#utility.yul\":14177:14207   */\n          gt\n            /* \"#utility.yul\":14174:14291   */\n          iszero\n          tag_589\n          jumpi\n            /* \"#utility.yul\":14210:14289   */\n          tag_590\n          tag_378\n          jump\t// in\n        tag_590:\n            /* \"#utility.yul\":14174:14291   */\n        tag_589:\n            /* \"#utility.yul\":14330:14389   */\n          tag_591\n            /* \"#utility.yul\":14385:14388   */\n          dup5\n            /* \"#utility.yul\":14376:14382   */\n          dup3\n            /* \"#utility.yul\":14365:14374   */\n          dup6\n            /* \"#utility.yul\":14361:14383   */\n          add\n            /* \"#utility.yul\":14330:14389   */\n          tag_384\n          jump\t// in\n        tag_591:\n            /* \"#utility.yul\":14323:14327   */\n          0x80\n            /* \"#utility.yul\":14316:14321   */\n          dup4\n            /* \"#utility.yul\":14312:14328   */\n          add\n            /* \"#utility.yul\":14305:14390   */\n          mstore\n            /* \"#utility.yul\":14074:14401   */\n          pop\n            /* \"#utility.yul\":14486:14489   */\n          0xa0\n            /* \"#utility.yul\":14475:14484   */\n          dup3\n            /* \"#utility.yul\":14471:14490   */\n          add\n            /* \"#utility.yul\":14458:14491   */\n          calldataload\n            /* \"#utility.yul\":14518:14536   */\n          0xffffffffffffffff\n            /* \"#utility.yul\":14510:14516   */\n          dup2\n            /* \"#utility.yul\":14507:14537   */\n          gt\n            /* \"#utility.yul\":14504:14621   */\n          iszero\n          tag_592\n          jumpi\n            /* \"#utility.yul\":14540:14619   */\n          tag_593\n          tag_378\n          jump\t// in\n        tag_593:\n            /* \"#utility.yul\":14504:14621   */\n        tag_592:\n            /* \"#utility.yul\":14660:14719   */\n          tag_594\n            /* \"#utility.yul\":14715:14718   */\n          dup5\n            /* \"#utility.yul\":14706:14712   */\n          dup3\n            /* \"#utility.yul\":14695:14704   */\n          dup6\n            /* \"#utility.yul\":14691:14713   */\n          add\n            /* \"#utility.yul\":14660:14719   */\n          tag_384\n          jump\t// in\n        tag_594:\n            /* \"#utility.yul\":14653:14657   */\n          0xa0\n            /* \"#utility.yul\":14646:14651   */\n          dup4\n            /* \"#utility.yul\":14642:14658   */\n          add\n            /* \"#utility.yul\":14635:14720   */\n          mstore\n            /* \"#utility.yul\":14411:14731   */\n          pop\n            /* \"#utility.yul\":14824:14827   */\n          0xc0\n            /* \"#utility.yul\":14813:14822   */\n          dup3\n            /* \"#utility.yul\":14809:14828   */\n          add\n            /* \"#utility.yul\":14796:14829   */\n          calldataload\n            /* \"#utility.yul\":14856:14874   */\n          0xffffffffffffffff\n            /* \"#utility.yul\":14848:14854   */\n          dup2\n            /* \"#utility.yul\":14845:14875   */\n          gt\n            /* \"#utility.yul\":14842:14959   */\n          iszero\n          tag_595\n          jumpi\n            /* \"#utility.yul\":14878:14957   */\n          tag_596\n          tag_378\n          jump\t// in\n        tag_596:\n            /* \"#utility.yul\":14842:14959   */\n        tag_595:\n            /* \"#utility.yul\":14998:15057   */\n          tag_597\n            /* \"#utility.yul\":15053:15056   */\n          dup5\n            /* \"#utility.yul\":15044:15050   */\n          dup3\n            /* \"#utility.yul\":15033:15042   */\n          dup6\n            /* \"#utility.yul\":15029:15051   */\n          add\n            /* \"#utility.yul\":14998:15057   */\n          tag_384\n          jump\t// in\n        tag_597:\n            /* \"#utility.yul\":14991:14995   */\n          0xc0\n            /* \"#utility.yul\":14984:14989   */\n          dup4\n            /* \"#utility.yul\":14980:14996   */\n          add\n            /* \"#utility.yul\":14973:15058   */\n          mstore\n            /* \"#utility.yul\":14741:15069   */\n          pop\n            /* \"#utility.yul\":15160:15163   */\n          0xe0\n            /* \"#utility.yul\":15149:15158   */\n          dup3\n            /* \"#utility.yul\":15145:15164   */\n          add\n            /* \"#utility.yul\":15132:15165   */\n          calldataload\n            /* \"#utility.yul\":15192:15210   */\n          0xffffffffffffffff\n            /* \"#utility.yul\":15184:15190   */\n          dup2\n            /* \"#utility.yul\":15181:15211   */\n          gt\n            /* \"#utility.yul\":15178:15295   */\n          iszero\n          tag_598\n          jumpi\n            /* \"#utility.yul\":15214:15293   */\n          tag_599\n          tag_378\n          jump\t// in\n        tag_599:\n            /* \"#utility.yul\":15178:15295   */\n        tag_598:\n            /* \"#utility.yul\":15334:15393   */\n          tag_600\n            /* \"#utility.yul\":15389:15392   */\n          dup5\n            /* \"#utility.yul\":15380:15386   */\n          dup3\n            /* \"#utility.yul\":15369:15378   */\n          dup6\n            /* \"#utility.yul\":15365:15387   */\n          add\n            /* \"#utility.yul\":15334:15393   */\n          tag_384\n          jump\t// in\n        tag_600:\n            /* \"#utility.yul\":15327:15331   */\n          0xe0\n            /* \"#utility.yul\":15320:15325   */\n          dup4\n            /* \"#utility.yul\":15316:15332   */\n          add\n            /* \"#utility.yul\":15309:15394   */\n          mstore\n            /* \"#utility.yul\":15079:15405   */\n          pop\n            /* \"#utility.yul\":15497:15500   */\n          0x0100\n            /* \"#utility.yul\":15486:15495   */\n          dup3\n            /* \"#utility.yul\":15482:15501   */\n          add\n            /* \"#utility.yul\":15469:15502   */\n          calldataload\n            /* \"#utility.yul\":15529:15547   */\n          0xffffffffffffffff\n            /* \"#utility.yul\":15521:15527   */\n          dup2\n            /* \"#utility.yul\":15518:15548   */\n          gt\n            /* \"#utility.yul\":15515:15632   */\n          iszero\n          tag_601\n          jumpi\n            /* \"#utility.yul\":15551:15630   */\n          tag_602\n          tag_378\n          jump\t// in\n        tag_602:\n            /* \"#utility.yul\":15515:15632   */\n        tag_601:\n            /* \"#utility.yul\":15673:15732   */\n          tag_603\n            /* \"#utility.yul\":15728:15731   */\n          dup5\n            /* \"#utility.yul\":15719:15725   */\n          dup3\n            /* \"#utility.yul\":15708:15717   */\n          dup6\n            /* \"#utility.yul\":15704:15726   */\n          add\n            /* \"#utility.yul\":15673:15732   */\n          tag_384\n          jump\t// in\n        tag_603:\n            /* \"#utility.yul\":15664:15670   */\n          0x0100\n            /* \"#utility.yul\":15657:15662   */\n          dup4\n            /* \"#utility.yul\":15653:15671   */\n          add\n            /* \"#utility.yul\":15646:15733   */\n          mstore\n            /* \"#utility.yul\":15415:15744   */\n          pop\n            /* \"#utility.yul\":15808:15811   */\n          0x0120\n            /* \"#utility.yul\":15852:15898   */\n          tag_604\n            /* \"#utility.yul\":15894:15897   */\n          dup5\n            /* \"#utility.yul\":15885:15891   */\n          dup3\n            /* \"#utility.yul\":15874:15883   */\n          dup6\n            /* \"#utility.yul\":15870:15892   */\n          add\n            /* \"#utility.yul\":15852:15898   */\n          tag_393\n          jump\t// in\n        tag_604:\n            /* \"#utility.yul\":15843:15849   */\n          0x0120\n            /* \"#utility.yul\":15836:15841   */\n          dup4\n            /* \"#utility.yul\":15832:15850   */\n          add\n            /* \"#utility.yul\":15825:15899   */\n          mstore\n            /* \"#utility.yul\":15754:15910   */\n          pop\n            /* \"#utility.yul\":12633:15917   */\n          swap3\n          swap2\n          pop\n          pop\n          jump\t// out\n            /* \"#utility.yul\":15923:16835   */\n        tag_23:\n            /* \"#utility.yul\":16050:16056   */\n          0x00\n            /* \"#utility.yul\":16058:16064   */\n          dup1\n            /* \"#utility.yul\":16107:16109   */\n          0x40\n            /* \"#utility.yul\":16095:16104   */\n          dup4\n            /* \"#utility.yul\":16086:16093   */\n          dup6\n            /* \"#utility.yul\":16082:16105   */\n          sub\n            /* \"#utility.yul\":16078:16110   */\n          slt\n            /* \"#utility.yul\":16075:16194   */\n          iszero\n          tag_606\n          jumpi\n            /* \"#utility.yul\":16113:16192   */\n          tag_607\n          tag_367\n          jump\t// in\n        tag_607:\n            /* \"#utility.yul\":16075:16194   */\n        tag_606:\n            /* \"#utility.yul\":16261:16262   */\n          0x00\n            /* \"#utility.yul\":16250:16259   */\n          dup4\n            /* \"#utility.yul\":16246:16263   */\n          add\n            /* \"#utility.yul\":16233:16264   */\n          calldataload\n            /* \"#utility.yul\":16291:16309   */\n          0xffffffffffffffff\n            /* \"#utility.yul\":16283:16289   */\n          dup2\n            /* \"#utility.yul\":16280:16310   */\n          gt\n            /* \"#utility.yul\":16277:16394   */\n          iszero\n          tag_608\n          jumpi\n            /* \"#utility.yul\":16313:16392   */\n          tag_609\n          tag_368\n          jump\t// in\n        tag_609:\n            /* \"#utility.yul\":16277:16394   */\n        tag_608:\n            /* \"#utility.yul\":16418:16503   */\n          tag_610\n            /* \"#utility.yul\":16495:16502   */\n          dup6\n            /* \"#utility.yul\":16486:16492   */\n          dup3\n            /* \"#utility.yul\":16475:16484   */\n          dup7\n            /* \"#utility.yul\":16471:16493   */\n          add\n            /* \"#utility.yul\":16418:16503   */\n          tag_390\n          jump\t// in\n        tag_610:\n            /* \"#utility.yul\":16408:16503   */\n          swap3\n          pop\n            /* \"#utility.yul\":16204:16513   */\n          pop\n            /* \"#utility.yul\":16580:16582   */\n          0x20\n            /* \"#utility.yul\":16569:16578   */\n          dup4\n            /* \"#utility.yul\":16565:16583   */\n          add\n            /* \"#utility.yul\":16552:16584   */\n          calldataload\n            /* \"#utility.yul\":16611:16629   */\n          0xffffffffffffffff\n            /* \"#utility.yul\":16603:16609   */\n          dup2\n            /* \"#utility.yul\":16600:16630   */\n          gt\n            /* \"#utility.yul\":16597:16714   */\n          iszero\n          tag_611\n          jumpi\n            /* \"#utility.yul\":16633:16712   */\n          tag_612\n          tag_368\n          jump\t// in\n        tag_612:\n            /* \"#utility.yul\":16597:16714   */\n        tag_611:\n            /* \"#utility.yul\":16738:16818   */\n          tag_613\n            /* \"#utility.yul\":16810:16817   */\n          dup6\n            /* \"#utility.yul\":16801:16807   */\n          dup3\n            /* \"#utility.yul\":16790:16799   */\n          dup7\n            /* \"#utility.yul\":16786:16808   */\n          add\n            /* \"#utility.yul\":16738:16818   */\n          tag_394\n          jump\t// in\n        tag_613:\n            /* \"#utility.yul\":16728:16818   */\n          swap2\n          pop\n            /* \"#utility.yul\":16523:16828   */\n          pop\n            /* \"#utility.yul\":15923:16835   */\n          swap3\n          pop\n          swap3\n          swap1\n          pop\n          jump\t// out\n            /* \"#utility.yul\":16880:21329   */\n        tag_395:\n            /* \"#utility.yul\":16955:16960   */\n          0x00\n            /* \"#utility.yul\":16999:17005   */\n          0x01c0\n            /* \"#utility.yul\":16987:16996   */\n          dup3\n            /* \"#utility.yul\":16982:16985   */\n          dup5\n            /* \"#utility.yul\":16978:16997   */\n          sub\n            /* \"#utility.yul\":16974:17006   */\n          slt\n            /* \"#utility.yul\":16971:17090   */\n          iszero\n          tag_615\n          jumpi\n            /* \"#utility.yul\":17009:17088   */\n          tag_616\n          tag_373\n          jump\t// in\n        tag_616:\n            /* \"#utility.yul\":16971:17090   */\n        tag_615:\n            /* \"#utility.yul\":17108:17131   */\n          tag_617\n            /* \"#utility.yul\":17124:17130   */\n          0x01c0\n            /* \"#utility.yul\":17108:17131   */\n          tag_377\n          jump\t// in\n        tag_617:\n            /* \"#utility.yul\":17099:17131   */\n          swap1\n          pop\n            /* \"#utility.yul\":17201:17202   */\n          0x00\n            /* \"#utility.yul\":17241:17290   */\n          tag_618\n            /* \"#utility.yul\":17286:17289   */\n          dup5\n            /* \"#utility.yul\":17277:17283   */\n          dup3\n            /* \"#utility.yul\":17266:17275   */\n          dup6\n            /* \"#utility.yul\":17262:17284   */\n          add\n            /* \"#utility.yul\":17241:17290   */\n          tag_372\n          jump\t// in\n        tag_618:\n            /* \"#utility.yul\":17234:17238   */\n          0x00\n            /* \"#utility.yul\":17227:17232   */\n          dup4\n            /* \"#utility.yul\":17223:17239   */\n          add\n            /* \"#utility.yul\":17216:17291   */\n          mstore\n            /* \"#utility.yul\":17141:17302   */\n          pop\n            /* \"#utility.yul\":17390:17392   */\n          0x20\n            /* \"#utility.yul\":17379:17388   */\n          dup3\n            /* \"#utility.yul\":17375:17393   */\n          add\n            /* \"#utility.yul\":17362:17394   */\n          calldataload\n            /* \"#utility.yul\":17421:17439   */\n          0xffffffffffffffff\n            /* \"#utility.yul\":17413:17419   */\n          dup2\n            /* \"#utility.yul\":17410:17440   */\n          gt\n            /* \"#utility.yul\":17407:17524   */\n          iszero\n          tag_619\n          jumpi\n            /* \"#utility.yul\":17443:17522   */\n          tag_620\n          tag_378\n          jump\t// in\n        tag_620:\n            /* \"#utility.yul\":17407:17524   */\n        tag_619:\n            /* \"#utility.yul\":17563:17622   */\n          tag_621\n            /* \"#utility.yul\":17618:17621   */\n          dup5\n            /* \"#utility.yul\":17609:17615   */\n          dup3\n            /* \"#utility.yul\":17598:17607   */\n          dup6\n            /* \"#utility.yul\":17594:17616   */\n          add\n            /* \"#utility.yul\":17563:17622   */\n          tag_384\n          jump\t// in\n        tag_621:\n            /* \"#utility.yul\":17556:17560   */\n          0x20\n            /* \"#utility.yul\":17549:17554   */\n          dup4\n            /* \"#utility.yul\":17545:17561   */\n          add\n            /* \"#utility.yul\":17538:17623   */\n          mstore\n            /* \"#utility.yul\":17312:17634   */\n          pop\n            /* \"#utility.yul\":17730:17732   */\n          0x40\n            /* \"#utility.yul\":17719:17728   */\n          dup3\n            /* \"#utility.yul\":17715:17733   */\n          add\n            /* \"#utility.yul\":17702:17734   */\n          calldataload\n            /* \"#utility.yul\":17761:17779   */\n          0xffffffffffffffff\n            /* \"#utility.yul\":17753:17759   */\n          dup2\n            /* \"#utility.yul\":17750:17780   */\n          gt\n            /* \"#utility.yul\":17747:17864   */\n          iszero\n          tag_622\n          jumpi\n            /* \"#utility.yul\":17783:17862   */\n          tag_623\n          tag_378\n          jump\t// in\n        tag_623:\n            /* \"#utility.yul\":17747:17864   */\n        tag_622:\n            /* \"#utility.yul\":17903:17962   */\n          tag_624\n            /* \"#utility.yul\":17958:17961   */\n          dup5\n            /* \"#utility.yul\":17949:17955   */\n          dup3\n            /* \"#utility.yul\":17938:17947   */\n          dup6\n            /* \"#utility.yul\":17934:17956   */\n          add\n            /* \"#utility.yul\":17903:17962   */\n          tag_384\n          jump\t// in\n        tag_624:\n            /* \"#utility.yul\":17896:17900   */\n          0x40\n            /* \"#utility.yul\":17889:17894   */\n          dup4\n            /* \"#utility.yul\":17885:17901   */\n          add\n            /* \"#utility.yul\":17878:17963   */\n          mstore\n            /* \"#utility.yul\":17644:17974   */\n          pop\n            /* \"#utility.yul\":18066:18068   */\n          0x60\n            /* \"#utility.yul\":18055:18064   */\n          dup3\n            /* \"#utility.yul\":18051:18069   */\n          add\n            /* \"#utility.yul\":18038:18070   */\n          calldataload\n            /* \"#utility.yul\":18097:18115   */\n          0xffffffffffffffff\n            /* \"#utility.yul\":18089:18095   */\n          dup2\n            /* \"#utility.yul\":18086:18116   */\n          gt\n            /* \"#utility.yul\":18083:18200   */\n          iszero\n          tag_625\n          jumpi\n            /* \"#utility.yul\":18119:18198   */\n          tag_626\n          tag_378\n          jump\t// in\n        tag_626:\n            /* \"#utility.yul\":18083:18200   */\n        tag_625:\n            /* \"#utility.yul\":18239:18298   */\n          tag_627\n            /* \"#utility.yul\":18294:18297   */\n          dup5\n            /* \"#utility.yul\":18285:18291   */\n          dup3\n            /* \"#utility.yul\":18274:18283   */\n          dup6\n            /* \"#utility.yul\":18270:18292   */\n          add\n            /* \"#utility.yul\":18239:18298   */\n          tag_384\n          jump\t// in\n        tag_627:\n            /* \"#utility.yul\":18232:18236   */\n          0x60\n            /* \"#utility.yul\":18225:18230   */\n          dup4\n            /* \"#utility.yul\":18221:18237   */\n          add\n            /* \"#utility.yul\":18214:18299   */\n          mstore\n            /* \"#utility.yul\":17984:18310   */\n          pop\n            /* \"#utility.yul\":18398:18401   */\n          0x80\n            /* \"#utility.yul\":18387:18396   */\n          dup3\n            /* \"#utility.yul\":18383:18402   */\n          add\n            /* \"#utility.yul\":18370:18403   */\n          calldataload\n            /* \"#utility.yul\":18430:18448   */\n          0xffffffffffffffff\n            /* \"#utility.yul\":18422:18428   */\n          dup2\n            /* \"#utility.yul\":18419:18449   */\n          gt\n            /* \"#utility.yul\":18416:18533   */\n          iszero\n          tag_628\n          jumpi\n            /* \"#utility.yul\":18452:18531   */\n          tag_629\n          tag_378\n          jump\t// in\n        tag_629:\n            /* \"#utility.yul\":18416:18533   */\n        tag_628:\n            /* \"#utility.yul\":18572:18631   */\n          tag_630\n            /* \"#utility.yul\":18627:18630   */\n          dup5\n            /* \"#utility.yul\":18618:18624   */\n          dup3\n            /* \"#utility.yul\":18607:18616   */\n          dup6\n            /* \"#utility.yul\":18603:18625   */\n          add\n            /* \"#utility.yul\":18572:18631   */\n          tag_384\n          jump\t// in\n        tag_630:\n            /* \"#utility.yul\":18565:18569   */\n          0x80\n            /* \"#utility.yul\":18558:18563   */\n          dup4\n            /* \"#utility.yul\":18554:18570   */\n          add\n            /* \"#utility.yul\":18547:18632   */\n          mstore\n            /* \"#utility.yul\":18320:18643   */\n          pop\n            /* \"#utility.yul\":18735:18738   */\n          0xa0\n            /* \"#utility.yul\":18724:18733   */\n          dup3\n            /* \"#utility.yul\":18720:18739   */\n          add\n            /* \"#utility.yul\":18707:18740   */\n          calldataload\n            /* \"#utility.yul\":18767:18785   */\n          0xffffffffffffffff\n            /* \"#utility.yul\":18759:18765   */\n          dup2\n            /* \"#utility.yul\":18756:18786   */\n          gt\n            /* \"#utility.yul\":18753:18870   */\n          iszero\n          tag_631\n          jumpi\n            /* \"#utility.yul\":18789:18868   */\n          tag_632\n          tag_378\n          jump\t// in\n        tag_632:\n            /* \"#utility.yul\":18753:18870   */\n        tag_631:\n            /* \"#utility.yul\":18909:18968   */\n          tag_633\n            /* \"#utility.yul\":18964:18967   */\n          dup5\n            /* \"#utility.yul\":18955:18961   */\n          dup3\n            /* \"#utility.yul\":18944:18953   */\n          dup6\n            /* \"#utility.yul\":18940:18962   */\n          add\n            /* \"#utility.yul\":18909:18968   */\n          tag_384\n          jump\t// in\n        tag_633:\n            /* \"#utility.yul\":18902:18906   */\n          0xa0\n            /* \"#utility.yul\":18895:18900   */\n          dup4\n            /* \"#utility.yul\":18891:18907   */\n          add\n            /* \"#utility.yul\":18884:18969   */\n          mstore\n            /* \"#utility.yul\":18653:18980   */\n          pop\n            /* \"#utility.yul\":19065:19068   */\n          0xc0\n            /* \"#utility.yul\":19054:19063   */\n          dup3\n            /* \"#utility.yul\":19050:19069   */\n          add\n            /* \"#utility.yul\":19037:19070   */\n          calldataload\n            /* \"#utility.yul\":19097:19115   */\n          0xffffffffffffffff\n            /* \"#utility.yul\":19089:19095   */\n          dup2\n            /* \"#utility.yul\":19086:19116   */\n          gt\n            /* \"#utility.yul\":19083:19200   */\n          iszero\n          tag_634\n          jumpi\n            /* \"#utility.yul\":19119:19198   */\n          tag_635\n          tag_378\n          jump\t// in\n        tag_635:\n            /* \"#utility.yul\":19083:19200   */\n        tag_634:\n            /* \"#utility.yul\":19239:19298   */\n          tag_636\n            /* \"#utility.yul\":19294:19297   */\n          dup5\n            /* \"#utility.yul\":19285:19291   */\n          dup3\n            /* \"#utility.yul\":19274:19283   */\n          dup6\n            /* \"#utility.yul\":19270:19292   */\n          add\n            /* \"#utility.yul\":19239:19298   */\n          tag_384\n          jump\t// in\n        tag_636:\n            /* \"#utility.yul\":19232:19236   */\n          0xc0\n            /* \"#utility.yul\":19225:19230   */\n          dup4\n            /* \"#utility.yul\":19221:19237   */\n          add\n            /* \"#utility.yul\":19214:19299   */\n          mstore\n            /* \"#utility.yul\":18990:19310   */\n          pop\n            /* \"#utility.yul\":19403:19406   */\n          0xe0\n            /* \"#utility.yul\":19392:19401   */\n          dup3\n            /* \"#utility.yul\":19388:19407   */\n          add\n            /* \"#utility.yul\":19375:19408   */\n          calldataload\n            /* \"#utility.yul\":19435:19453   */\n          0xffffffffffffffff\n            /* \"#utility.yul\":19427:19433   */\n          dup2\n            /* \"#utility.yul\":19424:19454   */\n          gt\n            /* \"#utility.yul\":19421:19538   */\n          iszero\n          tag_637\n          jumpi\n            /* \"#utility.yul\":19457:19536   */\n          tag_638\n          tag_378\n          jump\t// in\n        tag_638:\n            /* \"#utility.yul\":19421:19538   */\n        tag_637:\n            /* \"#utility.yul\":19577:19636   */\n          tag_639\n            /* \"#utility.yul\":19632:19635   */\n          dup5\n            /* \"#utility.yul\":19623:19629   */\n          dup3\n            /* \"#utility.yul\":19612:19621   */\n          dup6\n            /* \"#utility.yul\":19608:19630   */\n          add\n            /* \"#utility.yul\":19577:19636   */\n          tag_384\n          jump\t// in\n        tag_639:\n            /* \"#utility.yul\":19570:19574   */\n          0xe0\n            /* \"#utility.yul\":19563:19568   */\n          dup4\n            /* \"#utility.yul\":19559:19575   */\n          add\n            /* \"#utility.yul\":19552:19637   */\n          mstore\n            /* \"#utility.yul\":19320:19648   */\n          pop\n            /* \"#utility.yul\":19739:19742   */\n          0x0100\n            /* \"#utility.yul\":19728:19737   */\n          dup3\n            /* \"#utility.yul\":19724:19743   */\n          add\n            /* \"#utility.yul\":19711:19744   */\n          calldataload\n            /* \"#utility.yul\":19771:19789   */\n          0xffffffffffffffff\n            /* \"#utility.yul\":19763:19769   */\n          dup2\n            /* \"#utility.yul\":19760:19790   */\n          gt\n            /* \"#utility.yul\":19757:19874   */\n          iszero\n          tag_640\n          jumpi\n            /* \"#utility.yul\":19793:19872   */\n          tag_641\n          tag_378\n          jump\t// in\n        tag_641:\n            /* \"#utility.yul\":19757:19874   */\n        tag_640:\n            /* \"#utility.yul\":19915:19974   */\n          tag_642\n            /* \"#utility.yul\":19970:19973   */\n          dup5\n            /* \"#utility.yul\":19961:19967   */\n          dup3\n            /* \"#utility.yul\":19950:19959   */\n          dup6\n            /* \"#utility.yul\":19946:19968   */\n          add\n            /* \"#utility.yul\":19915:19974   */\n          tag_384\n          jump\t// in\n        tag_642:\n            /* \"#utility.yul\":19906:19912   */\n          0x0100\n            /* \"#utility.yul\":19899:19904   */\n          dup4\n            /* \"#utility.yul\":19895:19913   */\n          add\n            /* \"#utility.yul\":19888:19975   */\n          mstore\n            /* \"#utility.yul\":19658:19986   */\n          pop\n            /* \"#utility.yul\":20050:20053   */\n          0x0120\n            /* \"#utility.yul\":20094:20140   */\n          tag_643\n            /* \"#utility.yul\":20136:20139   */\n          dup5\n            /* \"#utility.yul\":20127:20133   */\n          dup3\n            /* \"#utility.yul\":20116:20125   */\n          dup6\n            /* \"#utility.yul\":20112:20134   */\n          add\n            /* \"#utility.yul\":20094:20140   */\n          tag_393\n          jump\t// in\n        tag_643:\n            /* \"#utility.yul\":20085:20091   */\n          0x0120\n            /* \"#utility.yul\":20078:20083   */\n          dup4\n            /* \"#utility.yul\":20074:20092   */\n          add\n            /* \"#utility.yul\":20067:20141   */\n          mstore\n            /* \"#utility.yul\":19996:20152   */\n          pop\n            /* \"#utility.yul\":20238:20241   */\n          0x0140\n            /* \"#utility.yul\":20227:20236   */\n          dup3\n            /* \"#utility.yul\":20223:20242   */\n          add\n            /* \"#utility.yul\":20210:20243   */\n          calldataload\n            /* \"#utility.yul\":20270:20288   */\n          0xffffffffffffffff\n            /* \"#utility.yul\":20262:20268   */\n          dup2\n            /* \"#utility.yul\":20259:20289   */\n          gt\n            /* \"#utility.yul\":20256:20373   */\n          iszero\n          tag_644\n          jumpi\n            /* \"#utility.yul\":20292:20371   */\n          tag_645\n          tag_378\n          jump\t// in\n        tag_645:\n            /* \"#utility.yul\":20256:20373   */\n        tag_644:\n            /* \"#utility.yul\":20414:20473   */\n          tag_646\n            /* \"#utility.yul\":20469:20472   */\n          dup5\n            /* \"#utility.yul\":20460:20466   */\n          dup3\n            /* \"#utility.yul\":20449:20458   */\n          dup6\n            /* \"#utility.yul\":20445:20467   */\n          add\n            /* \"#utility.yul\":20414:20473   */\n          tag_384\n          jump\t// in\n        tag_646:\n            /* \"#utility.yul\":20405:20411   */\n          0x0140\n            /* \"#utility.yul\":20398:20403   */\n          dup4\n            /* \"#utility.yul\":20394:20412   */\n          add\n            /* \"#utility.yul\":20387:20474   */\n          mstore\n            /* \"#utility.yul\":20162:20485   */\n          pop\n            /* \"#utility.yul\":20570:20573   */\n          0x0160\n            /* \"#utility.yul\":20559:20568   */\n          dup3\n            /* \"#utility.yul\":20555:20574   */\n          add\n            /* \"#utility.yul\":20542:20575   */\n          calldataload\n            /* \"#utility.yul\":20602:20620   */\n          0xffffffffffffffff\n            /* \"#utility.yul\":20594:20600   */\n          dup2\n            /* \"#utility.yul\":20591:20621   */\n          gt\n            /* \"#utility.yul\":20588:20705   */\n          iszero\n          tag_647\n          jumpi\n            /* \"#utility.yul\":20624:20703   */\n          tag_648\n          tag_378\n          jump\t// in\n        tag_648:\n            /* \"#utility.yul\":20588:20705   */\n        tag_647:\n            /* \"#utility.yul\":20746:20805   */\n          tag_649\n            /* \"#utility.yul\":20801:20804   */\n          dup5\n            /* \"#utility.yul\":20792:20798   */\n          dup3\n            /* \"#utility.yul\":20781:20790   */\n          dup6\n            /* \"#utility.yul\":20777:20799   */\n          add\n            /* \"#utility.yul\":20746:20805   */\n          tag_384\n          jump\t// in\n        tag_649:\n            /* \"#utility.yul\":20737:20743   */\n          0x0160\n            /* \"#utility.yul\":20730:20735   */\n          dup4\n            /* \"#utility.yul\":20726:20744   */\n          add\n            /* \"#utility.yul\":20719:20806   */\n          mstore\n            /* \"#utility.yul\":20495:20817   */\n          pop\n            /* \"#utility.yul\":20878:20881   */\n          0x0180\n            /* \"#utility.yul\":20922:20971   */\n          tag_650\n            /* \"#utility.yul\":20967:20970   */\n          dup5\n            /* \"#utility.yul\":20958:20964   */\n          dup3\n            /* \"#utility.yul\":20947:20956   */\n          dup6\n            /* \"#utility.yul\":20943:20965   */\n          add\n            /* \"#utility.yul\":20922:20971   */\n          tag_372\n          jump\t// in\n        tag_650:\n            /* \"#utility.yul\":20913:20919   */\n          0x0180\n            /* \"#utility.yul\":20906:20911   */\n          dup4\n            /* \"#utility.yul\":20902:20920   */\n          add\n            /* \"#utility.yul\":20895:20972   */\n          mstore\n            /* \"#utility.yul\":20827:20983   */\n          pop\n            /* \"#utility.yul\":21075:21078   */\n          0x01a0\n            /* \"#utility.yul\":21064:21073   */\n          dup3\n            /* \"#utility.yul\":21060:21079   */\n          add\n            /* \"#utility.yul\":21047:21080   */\n          calldataload\n            /* \"#utility.yul\":21107:21125   */\n          0xffffffffffffffff\n            /* \"#utility.yul\":21099:21105   */\n          dup2\n            /* \"#utility.yul\":21096:21126   */\n          gt\n            /* \"#utility.yul\":21093:21210   */\n          iszero\n          tag_651\n          jumpi\n            /* \"#utility.yul\":21129:21208   */\n          tag_652\n          tag_378\n          jump\t// in\n        tag_652:\n            /* \"#utility.yul\":21093:21210   */\n        tag_651:\n            /* \"#utility.yul\":21251:21310   */\n          tag_653\n            /* \"#utility.yul\":21306:21309   */\n          dup5\n            /* \"#utility.yul\":21297:21303   */\n          dup3\n            /* \"#utility.yul\":21286:21295   */\n          dup6\n            /* \"#utility.yul\":21282:21304   */\n          add\n            /* \"#utility.yul\":21251:21310   */\n          tag_384\n          jump\t// in\n        tag_653:\n            /* \"#utility.yul\":21242:21248   */\n          0x01a0\n            /* \"#utility.yul\":21235:21240   */\n          dup4\n            /* \"#utility.yul\":21231:21249   */\n          add\n            /* \"#utility.yul\":21224:21311   */\n          mstore\n            /* \"#utility.yul\":20993:21322   */\n          pop\n            /* \"#utility.yul\":16880:21329   */\n          swap3\n          swap2\n          pop\n          pop\n          jump\t// out\n            /* \"#utility.yul\":21335:22245   */\n        tag_33:\n            /* \"#utility.yul\":21461:21467   */\n          0x00\n            /* \"#utility.yul\":21469:21475   */\n          dup1\n            /* \"#utility.yul\":21518:21520   */\n          0x40\n            /* \"#utility.yul\":21506:21515   */\n          dup4\n            /* \"#utility.yul\":21497:21504   */\n          dup6\n            /* \"#utility.yul\":21493:21516   */\n          sub\n            /* \"#utility.yul\":21489:21521   */\n          slt\n            /* \"#utility.yul\":21486:21605   */\n          iszero\n          tag_655\n          jumpi\n            /* \"#utility.yul\":21524:21603   */\n          tag_656\n          tag_367\n          jump\t// in\n        tag_656:\n            /* \"#utility.yul\":21486:21605   */\n        tag_655:\n            /* \"#utility.yul\":21672:21673   */\n          0x00\n            /* \"#utility.yul\":21661:21670   */\n          dup4\n            /* \"#utility.yul\":21657:21674   */\n          add\n            /* \"#utility.yul\":21644:21675   */\n          calldataload\n            /* \"#utility.yul\":21702:21720   */\n          0xffffffffffffffff\n            /* \"#utility.yul\":21694:21700   */\n          dup2\n            /* \"#utility.yul\":21691:21721   */\n          gt\n            /* \"#utility.yul\":21688:21805   */\n          iszero\n          tag_657\n          jumpi\n            /* \"#utility.yul\":21724:21803   */\n          tag_658\n          tag_368\n          jump\t// in\n        tag_658:\n            /* \"#utility.yul\":21688:21805   */\n        tag_657:\n            /* \"#utility.yul\":21829:21914   */\n          tag_659\n            /* \"#utility.yul\":21906:21913   */\n          dup6\n            /* \"#utility.yul\":21897:21903   */\n          dup3\n            /* \"#utility.yul\":21886:21895   */\n          dup7\n            /* \"#utility.yul\":21882:21904   */\n          add\n            /* \"#utility.yul\":21829:21914   */\n          tag_390\n          jump\t// in\n        tag_659:\n            /* \"#utility.yul\":21819:21914   */\n          swap3\n          pop\n            /* \"#utility.yul\":21615:21924   */\n          pop\n            /* \"#utility.yul\":21991:21993   */\n          0x20\n            /* \"#utility.yul\":21980:21989   */\n          dup4\n            /* \"#utility.yul\":21976:21994   */\n          add\n            /* \"#utility.yul\":21963:21995   */\n          calldataload\n            /* \"#utility.yul\":22022:22040   */\n          0xffffffffffffffff\n            /* \"#utility.yul\":22014:22020   */\n          dup2\n            /* \"#utility.yul\":22011:22041   */\n          gt\n            /* \"#utility.yul\":22008:22125   */\n          iszero\n          tag_660\n          jumpi\n            /* \"#utility.yul\":22044:22123   */\n          tag_661\n          tag_368\n          jump\t// in\n        tag_661:\n            /* \"#utility.yul\":22008:22125   */\n        tag_660:\n            /* \"#utility.yul\":22149:22228   */\n          tag_662\n            /* \"#utility.yul\":22220:22227   */\n          dup6\n            /* \"#utility.yul\":22211:22217   */\n          dup3\n            /* \"#utility.yul\":22200:22209   */\n          dup7\n            /* \"#utility.yul\":22196:22218   */\n          add\n            /* \"#utility.yul\":22149:22228   */\n          tag_395\n          jump\t// in\n        tag_662:\n            /* \"#utility.yul\":22139:22228   */\n          swap2\n          pop\n            /* \"#utility.yul\":21934:22238   */\n          pop\n            /* \"#utility.yul\":21335:22245   */\n          swap3\n          pop\n          swap3\n          swap1\n          pop\n          jump\t// out\n            /* \"#utility.yul\":22251:22359   */\n        tag_396:\n            /* \"#utility.yul\":22328:22352   */\n          tag_664\n            /* \"#utility.yul\":22346:22351   */\n          dup2\n            /* \"#utility.yul\":22328:22352   */\n          tag_370\n          jump\t// in\n        tag_664:\n            /* \"#utility.yul\":22323:22326   */\n          dup3\n            /* \"#utility.yul\":22316:22353   */\n          mstore\n            /* \"#utility.yul\":22251:22359   */\n          pop\n          pop\n          jump\t// out\n            /* \"#utility.yul\":22365:22464   */\n        tag_397:\n            /* \"#utility.yul\":22417:22423   */\n          0x00\n            /* \"#utility.yul\":22451:22456   */\n          dup2\n            /* \"#utility.yul\":22445:22457   */\n          mload\n            /* \"#utility.yul\":22435:22457   */\n          swap1\n          pop\n            /* \"#utility.yul\":22365:22464   */\n          swap2\n          swap1\n          pop\n          jump\t// out\n            /* \"#utility.yul\":22470:22629   */\n        tag_398:\n            /* \"#utility.yul\":22544:22555   */\n          0x00\n            /* \"#utility.yul\":22578:22584   */\n          dup3\n            /* \"#utility.yul\":22573:22576   */\n          dup3\n            /* \"#utility.yul\":22566:22585   */\n          mstore\n            /* \"#utility.yul\":22618:22622   */\n          0x20\n            /* \"#utility.yul\":22613:22616   */\n          dup3\n            /* \"#utility.yul\":22609:22623   */\n          add\n            /* \"#utility.yul\":22594:22623   */\n          swap1\n          pop\n            /* \"#utility.yul\":22470:22629   */\n          swap3\n          swap2\n          pop\n          pop\n          jump\t// out\n            /* \"#utility.yul\":22635:22881   */\n        tag_399:\n            /* \"#utility.yul\":22716:22717   */\n          0x00\n            /* \"#utility.yul\":22726:22839   */\n        tag_668:\n            /* \"#utility.yul\":22740:22746   */\n          dup4\n            /* \"#utility.yul\":22737:22738   */\n          dup2\n            /* \"#utility.yul\":22734:22747   */\n          lt\n            /* \"#utility.yul\":22726:22839   */\n          iszero\n          tag_670\n          jumpi\n            /* \"#utility.yul\":22825:22826   */\n          dup1\n            /* \"#utility.yul\":22820:22823   */\n          dup3\n            /* \"#utility.yul\":22816:22827   */\n          add\n            /* \"#utility.yul\":22810:22828   */\n          mload\n            /* \"#utility.yul\":22806:22807   */\n          dup2\n            /* \"#utility.yul\":22801:22804   */\n          dup5\n            /* \"#utility.yul\":22797:22808   */\n          add\n            /* \"#utility.yul\":22790:22829   */\n          mstore\n            /* \"#utility.yul\":22762:22764   */\n          0x20\n            /* \"#utility.yul\":22759:22760   */\n          dup2\n            /* \"#utility.yul\":22755:22765   */\n          add\n            /* \"#utility.yul\":22750:22765   */\n          swap1\n          pop\n            /* \"#utility.yul\":22726:22839   */\n          jump(tag_668)\n        tag_670:\n            /* \"#utility.yul\":22873:22874   */\n          0x00\n            /* \"#utility.yul\":22864:22870   */\n          dup5\n            /* \"#utility.yul\":22859:22862   */\n          dup5\n            /* \"#utility.yul\":22855:22871   */\n          add\n            /* \"#utility.yul\":22848:22875   */\n          mstore\n            /* \"#utility.yul\":22697:22881   */\n          pop\n            /* \"#utility.yul\":22635:22881   */\n          pop\n          pop\n          pop\n          jump\t// out\n            /* \"#utility.yul\":22887:23244   */\n        tag_400:\n            /* \"#utility.yul\":22965:22968   */\n          0x00\n            /* \"#utility.yul\":22993:23032   */\n          tag_672\n            /* \"#utility.yul\":23026:23031   */\n          dup3\n            /* \"#utility.yul\":22993:23032   */\n          tag_397\n          jump\t// in\n        tag_672:\n            /* \"#utility.yul\":23048:23109   */\n          tag_673\n            /* \"#utility.yul\":23102:23108   */\n          dup2\n            /* \"#utility.yul\":23097:23100   */\n          dup6\n            /* \"#utility.yul\":23048:23109   */\n          tag_398\n          jump\t// in\n        tag_673:\n            /* \"#utility.yul\":23041:23109   */\n          swap4\n          pop\n            /* \"#utility.yul\":23118:23183   */\n          tag_674\n            /* \"#utility.yul\":23176:23182   */\n          dup2\n            /* \"#utility.yul\":23171:23174   */\n          dup6\n            /* \"#utility.yul\":23164:23168   */\n          0x20\n            /* \"#utility.yul\":23157:23162   */\n          dup7\n            /* \"#utility.yul\":23153:23169   */\n          add\n            /* \"#utility.yul\":23118:23183   */\n          tag_399\n          jump\t// in\n        tag_674:\n            /* \"#utility.yul\":23208:23237   */\n          tag_675\n            /* \"#utility.yul\":23230:23236   */\n          dup2\n            /* \"#utility.yul\":23208:23237   */\n          tag_374\n          jump\t// in\n        tag_675:\n            /* \"#utility.yul\":23203:23206   */\n          dup5\n            /* \"#utility.yul\":23199:23238   */\n          add\n            /* \"#utility.yul\":23192:23238   */\n          swap2\n          pop\n            /* \"#utility.yul\":22969:23244   */\n          pop\n            /* \"#utility.yul\":22887:23244   */\n          swap3\n          swap2\n          pop\n          pop\n          jump\t// out\n            /* \"#utility.yul\":23250:23358   */\n        tag_401:\n            /* \"#utility.yul\":23327:23351   */\n          tag_677\n            /* \"#utility.yul\":23345:23350   */\n          dup2\n            /* \"#utility.yul\":23327:23351   */\n          tag_385\n          jump\t// in\n        tag_677:\n            /* \"#utility.yul\":23322:23325   */\n          dup3\n            /* \"#utility.yul\":23315:23352   */\n          mstore\n            /* \"#utility.yul\":23250:23358   */\n          pop\n          pop\n          jump\t// out\n            /* \"#utility.yul\":23450:24763   */\n        tag_402:\n            /* \"#utility.yul\":23583:23586   */\n          0x00\n            /* \"#utility.yul\":23619:23623   */\n          0xa0\n            /* \"#utility.yul\":23614:23617   */\n          dup4\n            /* \"#utility.yul\":23610:23624   */\n          add\n            /* \"#utility.yul\":23716:23720   */\n          0x00\n            /* \"#utility.yul\":23709:23714   */\n          dup4\n            /* \"#utility.yul\":23705:23721   */\n          add\n            /* \"#utility.yul\":23699:23722   */\n          mload\n            /* \"#utility.yul\":23735:23798   */\n          tag_679\n            /* \"#utility.yul\":23792:23796   */\n          0x00\n            /* \"#utility.yul\":23787:23790   */\n          dup7\n            /* \"#utility.yul\":23783:23797   */\n          add\n            /* \"#utility.yul\":23769:23781   */\n          dup3\n            /* \"#utility.yul\":23735:23798   */\n          tag_396\n          jump\t// in\n        tag_679:\n            /* \"#utility.yul\":23634:23808   */\n          pop\n            /* \"#utility.yul\":23898:23902   */\n          0x20\n            /* \"#utility.yul\":23891:23896   */\n          dup4\n            /* \"#utility.yul\":23887:23903   */\n          add\n            /* \"#utility.yul\":23881:23904   */\n          mload\n            /* \"#utility.yul\":23951:23954   */\n          dup5\n            /* \"#utility.yul\":23945:23949   */\n          dup3\n            /* \"#utility.yul\":23941:23955   */\n          sub\n            /* \"#utility.yul\":23934:23938   */\n          0x20\n            /* \"#utility.yul\":23929:23932   */\n          dup7\n            /* \"#utility.yul\":23925:23939   */\n          add\n            /* \"#utility.yul\":23918:23956   */\n          mstore\n            /* \"#utility.yul\":23977:24050   */\n          tag_680\n            /* \"#utility.yul\":24045:24049   */\n          dup3\n            /* \"#utility.yul\":24031:24043   */\n          dup3\n            /* \"#utility.yul\":23977:24050   */\n          tag_400\n          jump\t// in\n        tag_680:\n            /* \"#utility.yul\":23969:24050   */\n          swap2\n          pop\n            /* \"#utility.yul\":23818:24061   */\n          pop\n            /* \"#utility.yul\":24143:24147   */\n          0x40\n            /* \"#utility.yul\":24136:24141   */\n          dup4\n            /* \"#utility.yul\":24132:24148   */\n          add\n            /* \"#utility.yul\":24126:24149   */\n          mload\n            /* \"#utility.yul\":24162:24225   */\n          tag_681\n            /* \"#utility.yul\":24219:24223   */\n          0x40\n            /* \"#utility.yul\":24214:24217   */\n          dup7\n            /* \"#utility.yul\":24210:24224   */\n          add\n            /* \"#utility.yul\":24196:24208   */\n          dup3\n            /* \"#utility.yul\":24162:24225   */\n          tag_401\n          jump\t// in\n        tag_681:\n            /* \"#utility.yul\":24071:24235   */\n          pop\n            /* \"#utility.yul\":24326:24330   */\n          0x60\n            /* \"#utility.yul\":24319:24324   */\n          dup4\n            /* \"#utility.yul\":24315:24331   */\n          add\n            /* \"#utility.yul\":24309:24332   */\n          mload\n            /* \"#utility.yul\":24379:24382   */\n          dup5\n            /* \"#utility.yul\":24373:24377   */\n          dup3\n            /* \"#utility.yul\":24369:24383   */\n          sub\n            /* \"#utility.yul\":24362:24366   */\n          0x60\n            /* \"#utility.yul\":24357:24360   */\n          dup7\n            /* \"#utility.yul\":24353:24367   */\n          add\n            /* \"#utility.yul\":24346:24384   */\n          mstore\n            /* \"#utility.yul\":24405:24478   */\n          tag_682\n            /* \"#utility.yul\":24473:24477   */\n          dup3\n            /* \"#utility.yul\":24459:24471   */\n          dup3\n            /* \"#utility.yul\":24405:24478   */\n          tag_400\n          jump\t// in\n        tag_682:\n            /* \"#utility.yul\":24397:24478   */\n          swap2\n          pop\n            /* \"#utility.yul\":24245:24489   */\n          pop\n            /* \"#utility.yul\":24573:24577   */\n          0x80\n            /* \"#utility.yul\":24566:24571   */\n          dup4\n            /* \"#utility.yul\":24562:24578   */\n          add\n            /* \"#utility.yul\":24556:24579   */\n          mload\n            /* \"#utility.yul\":24626:24629   */\n          dup5\n            /* \"#utility.yul\":24620:24624   */\n          dup3\n            /* \"#utility.yul\":24616:24630   */\n          sub\n            /* \"#utility.yul\":24609:24613   */\n          0x80\n            /* \"#utility.yul\":24604:24607   */\n          dup7\n            /* \"#utility.yul\":24600:24614   */\n          add\n            /* \"#utility.yul\":24593:24631   */\n          mstore\n            /* \"#utility.yul\":24652:24725   */\n          tag_683\n            /* \"#utility.yul\":24720:24724   */\n          dup3\n            /* \"#utility.yul\":24706:24718   */\n          dup3\n            /* \"#utility.yul\":24652:24725   */\n          tag_400\n          jump\t// in\n        tag_683:\n            /* \"#utility.yul\":24644:24725   */\n          swap2\n          pop\n            /* \"#utility.yul\":24499:24736   */\n          pop\n            /* \"#utility.yul\":24753:24757   */\n          dup1\n            /* \"#utility.yul\":24746:24757   */\n          swap2\n          pop\n            /* \"#utility.yul\":23588:24763   */\n          pop\n            /* \"#utility.yul\":23450:24763   */\n          swap3\n          swap2\n          pop\n          pop\n          jump\t// out\n            /* \"#utility.yul\":24769:24910   */\n        tag_403:\n            /* \"#utility.yul\":24863:24869   */\n          0x00\n            /* \"#utility.yul\":24897:24902   */\n          dup2\n            /* \"#utility.yul\":24891:24903   */\n          mload\n            /* \"#utility.yul\":24881:24903   */\n          swap1\n          pop\n            /* \"#utility.yul\":24769:24910   */\n          swap2\n          swap1\n          pop\n          jump\t// out\n            /* \"#utility.yul\":24916:25127   */\n        tag_404:\n            /* \"#utility.yul\":25042:25053   */\n          0x00\n            /* \"#utility.yul\":25076:25082   */\n          dup3\n            /* \"#utility.yul\":25071:25074   */\n          dup3\n            /* \"#utility.yul\":25064:25083   */\n          mstore\n            /* \"#utility.yul\":25116:25120   */\n          0x20\n            /* \"#utility.yul\":25111:25114   */\n          dup3\n            /* \"#utility.yul\":25107:25121   */\n          add\n            /* \"#utility.yul\":25092:25121   */\n          swap1\n          pop\n            /* \"#utility.yul\":24916:25127   */\n          swap3\n          swap2\n          pop\n          pop\n          jump\t// out\n            /* \"#utility.yul\":25133:25292   */\n        tag_405:\n            /* \"#utility.yul\":25227:25231   */\n          0x00\n            /* \"#utility.yul\":25250:25253   */\n          dup2\n            /* \"#utility.yul\":25242:25253   */\n          swap1\n          pop\n            /* \"#utility.yul\":25280:25284   */\n          0x20\n            /* \"#utility.yul\":25275:25278   */\n          dup3\n            /* \"#utility.yul\":25271:25285   */\n          add\n            /* \"#utility.yul\":25263:25285   */\n          swap1\n          pop\n            /* \"#utility.yul\":25133:25292   */\n          swap2\n          swap1\n          pop\n          jump\t// out\n            /* \"#utility.yul\":25298:25397   */\n        tag_406:\n            /* \"#utility.yul\":25369:25390   */\n          tag_688\n            /* \"#utility.yul\":25384:25389   */\n          dup2\n            /* \"#utility.yul\":25369:25390   */\n          tag_391\n          jump\t// in\n        tag_688:\n            /* \"#utility.yul\":25364:25367   */\n          dup3\n            /* \"#utility.yul\":25357:25391   */\n          mstore\n            /* \"#utility.yul\":25298:25397   */\n          pop\n          pop\n          jump\t// out\n            /* \"#utility.yul\":25479:28021   */\n        tag_407:\n            /* \"#utility.yul\":25592:25595   */\n          0x00\n            /* \"#utility.yul\":25628:25634   */\n          0x0140\n            /* \"#utility.yul\":25623:25626   */\n          dup4\n            /* \"#utility.yul\":25619:25635   */\n          add\n            /* \"#utility.yul\":25728:25732   */\n          0x00\n            /* \"#utility.yul\":25721:25726   */\n          dup4\n            /* \"#utility.yul\":25717:25733   */\n          add\n            /* \"#utility.yul\":25711:25734   */\n          mload\n            /* \"#utility.yul\":25747:25810   */\n          tag_690\n            /* \"#utility.yul\":25804:25808   */\n          0x00\n            /* \"#utility.yul\":25799:25802   */\n          dup7\n            /* \"#utility.yul\":25795:25809   */\n          add\n            /* \"#utility.yul\":25781:25793   */\n          dup3\n            /* \"#utility.yul\":25747:25810   */\n          tag_396\n          jump\t// in\n        tag_690:\n            /* \"#utility.yul\":25645:25820   */\n          pop\n            /* \"#utility.yul\":25903:25907   */\n          0x20\n            /* \"#utility.yul\":25896:25901   */\n          dup4\n            /* \"#utility.yul\":25892:25908   */\n          add\n            /* \"#utility.yul\":25886:25909   */\n          mload\n            /* \"#utility.yul\":25956:25959   */\n          dup5\n            /* \"#utility.yul\":25950:25954   */\n          dup3\n            /* \"#utility.yul\":25946:25960   */\n          sub\n            /* \"#utility.yul\":25939:25943   */\n          0x20\n            /* \"#utility.yul\":25934:25937   */\n          dup7\n            /* \"#utility.yul\":25930:25944   */\n          add\n            /* \"#utility.yul\":25923:25961   */\n          mstore\n            /* \"#utility.yul\":25982:26055   */\n          tag_691\n            /* \"#utility.yul\":26050:26054   */\n          dup3\n            /* \"#utility.yul\":26036:26048   */\n          dup3\n            /* \"#utility.yul\":25982:26055   */\n          tag_400\n          jump\t// in\n        tag_691:\n            /* \"#utility.yul\":25974:26055   */\n          swap2\n          pop\n            /* \"#utility.yul\":25830:26066   */\n          pop\n            /* \"#utility.yul\":26157:26161   */\n          0x40\n            /* \"#utility.yul\":26150:26155   */\n          dup4\n            /* \"#utility.yul\":26146:26162   */\n          add\n            /* \"#utility.yul\":26140:26163   */\n          mload\n            /* \"#utility.yul\":26210:26213   */\n          dup5\n            /* \"#utility.yul\":26204:26208   */\n          dup3\n            /* \"#utility.yul\":26200:26214   */\n          sub\n            /* \"#utility.yul\":26193:26197   */\n          0x40\n            /* \"#utility.yul\":26188:26191   */\n          dup7\n            /* \"#utility.yul\":26184:26198   */\n          add\n            /* \"#utility.yul\":26177:26215   */\n          mstore\n            /* \"#utility.yul\":26236:26309   */\n          tag_692\n            /* \"#utility.yul\":26304:26308   */\n          dup3\n            /* \"#utility.yul\":26290:26302   */\n          dup3\n            /* \"#utility.yul\":26236:26309   */\n          tag_400\n          jump\t// in\n        tag_692:\n            /* \"#utility.yul\":26228:26309   */\n          swap2\n          pop\n            /* \"#utility.yul\":26076:26320   */\n          pop\n            /* \"#utility.yul\":26407:26411   */\n          0x60\n            /* \"#utility.yul\":26400:26405   */\n          dup4\n            /* \"#utility.yul\":26396:26412   */\n          add\n            /* \"#utility.yul\":26390:26413   */\n          mload\n            /* \"#utility.yul\":26460:26463   */\n          dup5\n            /* \"#utility.yul\":26454:26458   */\n          dup3\n            /* \"#utility.yul\":26450:26464   */\n          sub\n            /* \"#utility.yul\":26443:26447   */\n          0x60\n            /* \"#utility.yul\":26438:26441   */\n          dup7\n            /* \"#utility.yul\":26434:26448   */\n          add\n            /* \"#utility.yul\":26427:26465   */\n          mstore\n            /* \"#utility.yul\":26486:26559   */\n          tag_693\n            /* \"#utility.yul\":26554:26558   */\n          dup3\n            /* \"#utility.yul\":26540:26552   */\n          dup3\n            /* \"#utility.yul\":26486:26559   */\n          tag_400\n          jump\t// in\n        tag_693:\n            /* \"#utility.yul\":26478:26559   */\n          swap2\n          pop\n            /* \"#utility.yul\":26330:26570   */\n          pop\n            /* \"#utility.yul\":26657:26661   */\n          0x80\n            /* \"#utility.yul\":26650:26655   */\n          dup4\n            /* \"#utility.yul\":26646:26662   */\n          add\n            /* \"#utility.yul\":26640:26663   */\n          mload\n            /* \"#utility.yul\":26710:26713   */\n          dup5\n            /* \"#utility.yul\":26704:26708   */\n          dup3\n            /* \"#utility.yul\":26700:26714   */\n          sub\n            /* \"#utility.yul\":26693:26697   */\n          0x80\n            /* \"#utility.yul\":26688:26691   */\n          dup7\n            /* \"#utility.yul\":26684:26698   */\n          add\n            /* \"#utility.yul\":26677:26715   */\n          mstore\n            /* \"#utility.yul\":26736:26809   */\n          tag_694\n            /* \"#utility.yul\":26804:26808   */\n          dup3\n            /* \"#utility.yul\":26790:26802   */\n          dup3\n            /* \"#utility.yul\":26736:26809   */\n          tag_400\n          jump\t// in\n        tag_694:\n            /* \"#utility.yul\":26728:26809   */\n          swap2\n          pop\n            /* \"#utility.yul\":26580:26820   */\n          pop\n            /* \"#utility.yul\":26900:26904   */\n          0xa0\n            /* \"#utility.yul\":26893:26898   */\n          dup4\n            /* \"#utility.yul\":26889:26905   */\n          add\n            /* \"#utility.yul\":26883:26906   */\n          mload\n            /* \"#utility.yul\":26953:26956   */\n          dup5\n            /* \"#utility.yul\":26947:26951   */\n          dup3\n            /* \"#utility.yul\":26943:26957   */\n          sub\n            /* \"#utility.yul\":26936:26940   */\n          0xa0\n            /* \"#utility.yul\":26931:26934   */\n          dup7\n            /* \"#utility.yul\":26927:26941   */\n          add\n            /* \"#utility.yul\":26920:26958   */\n          mstore\n            /* \"#utility.yul\":26979:27052   */\n          tag_695\n            /* \"#utility.yul\":27047:27051   */\n          dup3\n            /* \"#utility.yul\":27033:27045   */\n          dup3\n            /* \"#utility.yul\":26979:27052   */\n          tag_400\n          jump\t// in\n        tag_695:\n            /* \"#utility.yul\":26971:27052   */\n          swap2\n          pop\n            /* \"#utility.yul\":26830:27063   */\n          pop\n            /* \"#utility.yul\":27151:27155   */\n          0xc0\n            /* \"#utility.yul\":27144:27149   */\n          dup4\n            /* \"#utility.yul\":27140:27156   */\n          add\n            /* \"#utility.yul\":27134:27157   */\n          mload\n            /* \"#utility.yul\":27204:27207   */\n          dup5\n            /* \"#utility.yul\":27198:27202   */\n          dup3\n            /* \"#utility.yul\":27194:27208   */\n          sub\n            /* \"#utility.yul\":27187:27191   */\n          0xc0\n            /* \"#utility.yul\":27182:27185   */\n          dup7\n            /* \"#utility.yul\":27178:27192   */\n          add\n            /* \"#utility.yul\":27171:27209   */\n          mstore\n            /* \"#utility.yul\":27230:27303   */\n          tag_696\n            /* \"#utility.yul\":27298:27302   */\n          dup3\n            /* \"#utility.yul\":27284:27296   */\n          dup3\n            /* \"#utility.yul\":27230:27303   */\n          tag_400\n          jump\t// in\n        tag_696:\n            /* \"#utility.yul\":27222:27303   */\n          swap2\n          pop\n            /* \"#utility.yul\":27073:27314   */\n          pop\n            /* \"#utility.yul\":27400:27404   */\n          0xe0\n            /* \"#utility.yul\":27393:27398   */\n          dup4\n            /* \"#utility.yul\":27389:27405   */\n          add\n            /* \"#utility.yul\":27383:27406   */\n          mload\n            /* \"#utility.yul\":27453:27456   */\n          dup5\n            /* \"#utility.yul\":27447:27451   */\n          dup3\n            /* \"#utility.yul\":27443:27457   */\n          sub\n            /* \"#utility.yul\":27436:27440   */\n          0xe0\n            /* \"#utility.yul\":27431:27434   */\n          dup7\n            /* \"#utility.yul\":27427:27441   */\n          add\n            /* \"#utility.yul\":27420:27458   */\n          mstore\n            /* \"#utility.yul\":27479:27552   */\n          tag_697\n            /* \"#utility.yul\":27547:27551   */\n          dup3\n            /* \"#utility.yul\":27533:27545   */\n          dup3\n            /* \"#utility.yul\":27479:27552   */\n          tag_400\n          jump\t// in\n        tag_697:\n            /* \"#utility.yul\":27471:27552   */\n          swap2\n          pop\n            /* \"#utility.yul\":27324:27563   */\n          pop\n            /* \"#utility.yul\":27650:27656   */\n          0x0100\n            /* \"#utility.yul\":27643:27648   */\n          dup4\n            /* \"#utility.yul\":27639:27657   */\n          add\n            /* \"#utility.yul\":27633:27658   */\n          mload\n            /* \"#utility.yul\":27707:27710   */\n          dup5\n            /* \"#utility.yul\":27701:27705   */\n          dup3\n            /* \"#utility.yul\":27697:27711   */\n          sub\n            /* \"#utility.yul\":27688:27694   */\n          0x0100\n            /* \"#utility.yul\":27683:27686   */\n          dup7\n            /* \"#utility.yul\":27679:27695   */\n          add\n            /* \"#utility.yul\":27672:27712   */\n          mstore\n            /* \"#utility.yul\":27733:27806   */\n          tag_698\n            /* \"#utility.yul\":27801:27805   */\n          dup3\n            /* \"#utility.yul\":27787:27799   */\n          dup3\n            /* \"#utility.yul\":27733:27806   */\n          tag_400\n          jump\t// in\n        tag_698:\n            /* \"#utility.yul\":27725:27806   */\n          swap2\n          pop\n            /* \"#utility.yul\":27573:27817   */\n          pop\n            /* \"#utility.yul\":27904:27910   */\n          0x0120\n            /* \"#utility.yul\":27897:27902   */\n          dup4\n            /* \"#utility.yul\":27893:27911   */\n          add\n            /* \"#utility.yul\":27887:27912   */\n          mload\n            /* \"#utility.yul\":27925:27984   */\n          tag_699\n            /* \"#utility.yul\":27976:27982   */\n          0x0120\n            /* \"#utility.yul\":27971:27974   */\n          dup7\n            /* \"#utility.yul\":27967:27983   */\n          add\n            /* \"#utility.yul\":27953:27965   */\n          dup3\n            /* \"#utility.yul\":27925:27984   */\n          tag_406\n          jump\t// in\n        tag_699:\n            /* \"#utility.yul\":27827:27994   */\n          pop\n            /* \"#utility.yul\":28011:28015   */\n          dup1\n            /* \"#utility.yul\":28004:28015   */\n          swap2\n          pop\n            /* \"#utility.yul\":25597:28021   */\n          pop\n            /* \"#utility.yul\":25479:28021   */\n          swap3\n          swap2\n          pop\n          pop\n          jump\t// out\n            /* \"#utility.yul\":28027:28291   */\n        tag_408:\n            /* \"#utility.yul\":28150:28160   */\n          0x00\n            /* \"#utility.yul\":28185:28285   */\n          tag_701\n            /* \"#utility.yul\":28281:28284   */\n          dup4\n            /* \"#utility.yul\":28273:28279   */\n          dup4\n            /* \"#utility.yul\":28185:28285   */\n          tag_407\n          jump\t// in\n        tag_701:\n            /* \"#utility.yul\":28171:28285   */\n          swap1\n          pop\n            /* \"#utility.yul\":28027:28291   */\n          swap3\n          swap2\n          pop\n          pop\n          jump\t// out\n            /* \"#utility.yul\":28297:28437   */\n        tag_409:\n            /* \"#utility.yul\":28394:28398   */\n          0x00\n            /* \"#utility.yul\":28426:28430   */\n          0x20\n            /* \"#utility.yul\":28421:28424   */\n          dup3\n            /* \"#utility.yul\":28417:28431   */\n          add\n            /* \"#utility.yul\":28409:28431   */\n          swap1\n          pop\n            /* \"#utility.yul\":28297:28437   */\n          swap2\n          swap1\n          pop\n          jump\t// out\n            /* \"#utility.yul\":28523:29650   */\n        tag_410:\n            /* \"#utility.yul\":28696:28699   */\n          0x00\n            /* \"#utility.yul\":28725:28806   */\n          tag_704\n            /* \"#utility.yul\":28800:28805   */\n          dup3\n            /* \"#utility.yul\":28725:28806   */\n          tag_403\n          jump\t// in\n        tag_704:\n            /* \"#utility.yul\":28822:28935   */\n          tag_705\n            /* \"#utility.yul\":28928:28934   */\n          dup2\n            /* \"#utility.yul\":28923:28926   */\n          dup6\n            /* \"#utility.yul\":28822:28935   */\n          tag_404\n          jump\t// in\n        tag_705:\n            /* \"#utility.yul\":28815:28935   */\n          swap4\n          pop\n            /* \"#utility.yul\":28961:28964   */\n          dup4\n            /* \"#utility.yul\":29006:29010   */\n          0x20\n            /* \"#utility.yul\":28998:29004   */\n          dup3\n            /* \"#utility.yul\":28994:29011   */\n          mul\n            /* \"#utility.yul\":28989:28992   */\n          dup6\n            /* \"#utility.yul\":28985:29012   */\n          add\n            /* \"#utility.yul\":29036:29119   */\n          tag_706\n            /* \"#utility.yul\":29113:29118   */\n          dup6\n            /* \"#utility.yul\":29036:29119   */\n          tag_405\n          jump\t// in\n        tag_706:\n            /* \"#utility.yul\":29142:29149   */\n          dup1\n            /* \"#utility.yul\":29173:29174   */\n          0x00\n            /* \"#utility.yul\":29158:29605   */\n        tag_707:\n            /* \"#utility.yul\":29183:29189   */\n          dup6\n            /* \"#utility.yul\":29180:29181   */\n          dup2\n            /* \"#utility.yul\":29177:29190   */\n          lt\n            /* \"#utility.yul\":29158:29605   */\n          iszero\n          tag_709\n          jumpi\n            /* \"#utility.yul\":29254:29263   */\n          dup5\n            /* \"#utility.yul\":29248:29252   */\n          dup5\n            /* \"#utility.yul\":29244:29264   */\n          sub\n            /* \"#utility.yul\":29239:29242   */\n          dup10\n            /* \"#utility.yul\":29232:29265   */\n          mstore\n            /* \"#utility.yul\":29305:29311   */\n          dup2\n            /* \"#utility.yul\":29299:29312   */\n          mload\n            /* \"#utility.yul\":29333:29451   */\n          tag_710\n            /* \"#utility.yul\":29446:29450   */\n          dup6\n            /* \"#utility.yul\":29431:29444   */\n          dup3\n            /* \"#utility.yul\":29333:29451   */\n          tag_408\n          jump\t// in\n        tag_710:\n            /* \"#utility.yul\":29325:29451   */\n          swap5\n          pop\n            /* \"#utility.yul\":29474:29561   */\n          tag_711\n            /* \"#utility.yul\":29554:29560   */\n          dup4\n            /* \"#utility.yul\":29474:29561   */\n          tag_409\n          jump\t// in\n        tag_711:\n            /* \"#utility.yul\":29464:29561   */\n          swap3\n          pop\n            /* \"#utility.yul\":29590:29594   */\n          0x20\n            /* \"#utility.yul\":29585:29588   */\n          dup11\n            /* \"#utility.yul\":29581:29595   */\n          add\n            /* \"#utility.yul\":29574:29595   */\n          swap10\n          pop\n            /* \"#utility.yul\":29218:29605   */\n          pop\n            /* \"#utility.yul\":29205:29206   */\n          0x01\n            /* \"#utility.yul\":29202:29203   */\n          dup2\n            /* \"#utility.yul\":29198:29207   */\n          add\n            /* \"#utility.yul\":29193:29207   */\n          swap1\n          pop\n            /* \"#utility.yul\":29158:29605   */\n          jump(tag_707)\n        tag_709:\n            /* \"#utility.yul\":29162:29176   */\n          pop\n            /* \"#utility.yul\":29621:29625   */\n          dup3\n            /* \"#utility.yul\":29614:29625   */\n          swap8\n          pop\n            /* \"#utility.yul\":29641:29644   */\n          dup8\n            /* \"#utility.yul\":29634:29644   */\n          swap6\n          pop\n            /* \"#utility.yul\":28701:29650   */\n          pop\n          pop\n          pop\n          pop\n          pop\n            /* \"#utility.yul\":28523:29650   */\n          swap3\n          swap2\n          pop\n          pop\n          jump\t// out\n            /* \"#utility.yul\":29656:30426   */\n        tag_39:\n            /* \"#utility.yul\":29945:29949   */\n          0x00\n            /* \"#utility.yul\":29983:29985   */\n          0x40\n            /* \"#utility.yul\":29972:29981   */\n          dup3\n            /* \"#utility.yul\":29968:29986   */\n          add\n            /* \"#utility.yul\":29960:29986   */\n          swap1\n          pop\n            /* \"#utility.yul\":30032:30041   */\n          dup2\n            /* \"#utility.yul\":30026:30030   */\n          dup2\n            /* \"#utility.yul\":30022:30042   */\n          sub\n            /* \"#utility.yul\":30018:30019   */\n          0x00\n            /* \"#utility.yul\":30007:30016   */\n          dup4\n            /* \"#utility.yul\":30003:30020   */\n          add\n            /* \"#utility.yul\":29996:30043   */\n          mstore\n            /* \"#utility.yul\":30060:30182   */\n          tag_713\n            /* \"#utility.yul\":30177:30181   */\n          dup2\n            /* \"#utility.yul\":30168:30174   */\n          dup6\n            /* \"#utility.yul\":30060:30182   */\n          tag_402\n          jump\t// in\n        tag_713:\n            /* \"#utility.yul\":30052:30182   */\n          swap1\n          pop\n            /* \"#utility.yul\":30229:30238   */\n          dup2\n            /* \"#utility.yul\":30223:30227   */\n          dup2\n            /* \"#utility.yul\":30219:30239   */\n          sub\n            /* \"#utility.yul\":30214:30216   */\n          0x20\n            /* \"#utility.yul\":30203:30212   */\n          dup4\n            /* \"#utility.yul\":30199:30217   */\n          add\n            /* \"#utility.yul\":30192:30240   */\n          mstore\n            /* \"#utility.yul\":30257:30419   */\n          tag_714\n            /* \"#utility.yul\":30414:30418   */\n          dup2\n            /* \"#utility.yul\":30405:30411   */\n          dup5\n            /* \"#utility.yul\":30257:30419   */\n          tag_410\n          jump\t// in\n        tag_714:\n            /* \"#utility.yul\":30249:30419   */\n          swap1\n          pop\n            /* \"#utility.yul\":29656:30426   */\n          swap4\n          swap3\n          pop\n          pop\n          pop\n          jump\t// out\n            /* \"#utility.yul\":30432:30575   */\n        tag_411:\n            /* \"#utility.yul\":30528:30534   */\n          0x00\n            /* \"#utility.yul\":30562:30567   */\n          dup2\n            /* \"#utility.yul\":30556:30568   */\n          mload\n            /* \"#utility.yul\":30546:30568   */\n          swap1\n          pop\n            /* \"#utility.yul\":30432:30575   */\n          swap2\n          swap1\n          pop\n          jump\t// out\n            /* \"#utility.yul\":30581:30794   */\n        tag_412:\n            /* \"#utility.yul\":30709:30720   */\n          0x00\n            /* \"#utility.yul\":30743:30749   */\n          dup3\n            /* \"#utility.yul\":30738:30741   */\n          dup3\n            /* \"#utility.yul\":30731:30750   */\n          mstore\n            /* \"#utility.yul\":30783:30787   */\n          0x20\n            /* \"#utility.yul\":30778:30781   */\n          dup3\n            /* \"#utility.yul\":30774:30788   */\n          add\n            /* \"#utility.yul\":30759:30788   */\n          swap1\n          pop\n            /* \"#utility.yul\":30581:30794   */\n          swap3\n          swap2\n          pop\n          pop\n          jump\t// out\n            /* \"#utility.yul\":30800:30961   */\n        tag_413:\n            /* \"#utility.yul\":30896:30900   */\n          0x00\n            /* \"#utility.yul\":30919:30922   */\n          dup2\n            /* \"#utility.yul\":30911:30922   */\n          swap1\n          pop\n            /* \"#utility.yul\":30949:30953   */\n          0x20\n            /* \"#utility.yul\":30944:30947   */\n          dup3\n            /* \"#utility.yul\":30940:30954   */\n          add\n            /* \"#utility.yul\":30932:30954   */\n          swap1\n          pop\n            /* \"#utility.yul\":30800:30961   */\n          swap2\n          swap1\n          pop\n          jump\t// out\n            /* \"#utility.yul\":31047:34169   */\n        tag_414:\n            /* \"#utility.yul\":31164:31167   */\n          0x00\n            /* \"#utility.yul\":31200:31206   */\n          0x0180\n            /* \"#utility.yul\":31195:31198   */\n          dup4\n            /* \"#utility.yul\":31191:31207   */\n          add\n            /* \"#utility.yul\":31300:31304   */\n          0x00\n            /* \"#utility.yul\":31293:31298   */\n          dup4\n            /* \"#utility.yul\":31289:31305   */\n          add\n            /* \"#utility.yul\":31283:31306   */\n          mload\n            /* \"#utility.yul\":31319:31382   */\n          tag_719\n            /* \"#utility.yul\":31376:31380   */\n          0x00\n            /* \"#utility.yul\":31371:31374   */\n          dup7\n            /* \"#utility.yul\":31367:31381   */\n          add\n            /* \"#utility.yul\":31353:31365   */\n          dup3\n            /* \"#utility.yul\":31319:31382   */\n          tag_396\n          jump\t// in\n        tag_719:\n            /* \"#utility.yul\":31217:31392   */\n          pop\n            /* \"#utility.yul\":31475:31479   */\n          0x20\n            /* \"#utility.yul\":31468:31473   */\n          dup4\n            /* \"#utility.yul\":31464:31480   */\n          add\n            /* \"#utility.yul\":31458:31481   */\n          mload\n            /* \"#utility.yul\":31528:31531   */\n          dup5\n            /* \"#utility.yul\":31522:31526   */\n          dup3\n            /* \"#utility.yul\":31518:31532   */\n          sub\n            /* \"#utility.yul\":31511:31515   */\n          0x20\n            /* \"#utility.yul\":31506:31509   */\n          dup7\n            /* \"#utility.yul\":31502:31516   */\n          add\n            /* \"#utility.yul\":31495:31533   */\n          mstore\n            /* \"#utility.yul\":31554:31627   */\n          tag_720\n            /* \"#utility.yul\":31622:31626   */\n          dup3\n            /* \"#utility.yul\":31608:31620   */\n          dup3\n            /* \"#utility.yul\":31554:31627   */\n          tag_400\n          jump\t// in\n        tag_720:\n            /* \"#utility.yul\":31546:31627   */\n          swap2\n          pop\n            /* \"#utility.yul\":31402:31638   */\n          pop\n            /* \"#utility.yul\":31722:31726   */\n          0x40\n            /* \"#utility.yul\":31715:31720   */\n          dup4\n            /* \"#utility.yul\":31711:31727   */\n          add\n            /* \"#utility.yul\":31705:31728   */\n          mload\n            /* \"#utility.yul\":31775:31778   */\n          dup5\n            /* \"#utility.yul\":31769:31773   */\n          dup3\n            /* \"#utility.yul\":31765:31779   */\n          sub\n            /* \"#utility.yul\":31758:31762   */\n          0x40\n            /* \"#utility.yul\":31753:31756   */\n          dup7\n            /* \"#utility.yul\":31749:31763   */\n          add\n            /* \"#utility.yul\":31742:31780   */\n          mstore\n            /* \"#utility.yul\":31801:31874   */\n          tag_721\n            /* \"#utility.yul\":31869:31873   */\n          dup3\n            /* \"#utility.yul\":31855:31867   */\n          dup3\n            /* \"#utility.yul\":31801:31874   */\n          tag_400\n          jump\t// in\n        tag_721:\n            /* \"#utility.yul\":31793:31874   */\n          swap2\n          pop\n            /* \"#utility.yul\":31648:31885   */\n          pop\n            /* \"#utility.yul\":31970:31974   */\n          0x60\n            /* \"#utility.yul\":31963:31968   */\n          dup4\n            /* \"#utility.yul\":31959:31975   */\n          add\n            /* \"#utility.yul\":31953:31976   */\n          mload\n            /* \"#utility.yul\":32023:32026   */\n          dup5\n            /* \"#utility.yul\":32017:32021   */\n          dup3\n            /* \"#utility.yul\":32013:32027   */\n          sub\n            /* \"#utility.yul\":32006:32010   */\n          0x60\n            /* \"#utility.yul\":32001:32004   */\n          dup7\n            /* \"#utility.yul\":31997:32011   */\n          add\n            /* \"#utility.yul\":31990:32028   */\n          mstore\n            /* \"#utility.yul\":32049:32122   */\n          tag_722\n            /* \"#utility.yul\":32117:32121   */\n          dup3\n            /* \"#utility.yul\":32103:32115   */\n          dup3\n            /* \"#utility.yul\":32049:32122   */\n          tag_400\n          jump\t// in\n        tag_722:\n            /* \"#utility.yul\":32041:32122   */\n          swap2\n          pop\n            /* \"#utility.yul\":31895:32133   */\n          pop\n            /* \"#utility.yul\":32224:32228   */\n          0x80\n            /* \"#utility.yul\":32217:32222   */\n          dup4\n            /* \"#utility.yul\":32213:32229   */\n          add\n            /* \"#utility.yul\":32207:32230   */\n          mload\n            /* \"#utility.yul\":32277:32280   */\n          dup5\n            /* \"#utility.yul\":32271:32275   */\n          dup3\n            /* \"#utility.yul\":32267:32281   */\n          sub\n            /* \"#utility.yul\":32260:32264   */\n          0x80\n            /* \"#utility.yul\":32255:32258   */\n          dup7\n            /* \"#utility.yul\":32251:32265   */\n          add\n            /* \"#utility.yul\":32244:32282   */\n          mstore\n            /* \"#utility.yul\":32303:32376   */\n          tag_723\n            /* \"#utility.yul\":32371:32375   */\n          dup3\n            /* \"#utility.yul\":32357:32369   */\n          dup3\n            /* \"#utility.yul\":32303:32376   */\n          tag_400\n          jump\t// in\n        tag_723:\n            /* \"#utility.yul\":32295:32376   */\n          swap2\n          pop\n            /* \"#utility.yul\":32143:32387   */\n          pop\n            /* \"#utility.yul\":32474:32478   */\n          0xa0\n            /* \"#utility.yul\":32467:32472   */\n          dup4\n            /* \"#utility.yul\":32463:32479   */\n          add\n            /* \"#utility.yul\":32457:32480   */\n          mload\n            /* \"#utility.yul\":32527:32530   */\n          dup5\n            /* \"#utility.yul\":32521:32525   */\n          dup3\n            /* \"#utility.yul\":32517:32531   */\n          sub\n            /* \"#utility.yul\":32510:32514   */\n          0xa0\n            /* \"#utility.yul\":32505:32508   */\n          dup7\n            /* \"#utility.yul\":32501:32515   */\n          add\n            /* \"#utility.yul\":32494:32532   */\n          mstore\n            /* \"#utility.yul\":32553:32626   */\n          tag_724\n            /* \"#utility.yul\":32621:32625   */\n          dup3\n            /* \"#utility.yul\":32607:32619   */\n          dup3\n            /* \"#utility.yul\":32553:32626   */\n          tag_400\n          jump\t// in\n        tag_724:\n            /* \"#utility.yul\":32545:32626   */\n          swap2\n          pop\n            /* \"#utility.yul\":32397:32637   */\n          pop\n            /* \"#utility.yul\":32720:32724   */\n          0xc0\n            /* \"#utility.yul\":32713:32718   */\n          dup4\n            /* \"#utility.yul\":32709:32725   */\n          add\n            /* \"#utility.yul\":32703:32726   */\n          mload\n            /* \"#utility.yul\":32773:32776   */\n          dup5\n            /* \"#utility.yul\":32767:32771   */\n          dup3\n            /* \"#utility.yul\":32763:32777   */\n          sub\n            /* \"#utility.yul\":32756:32760   */\n          0xc0\n            /* \"#utility.yul\":32751:32754   */\n          dup7\n            /* \"#utility.yul\":32747:32761   */\n          add\n            /* \"#utility.yul\":32740:32778   */\n          mstore\n            /* \"#utility.yul\":32799:32872   */\n          tag_725\n            /* \"#utility.yul\":32867:32871   */\n          dup3\n            /* \"#utility.yul\":32853:32865   */\n          dup3\n            /* \"#utility.yul\":32799:32872   */\n          tag_400\n          jump\t// in\n        tag_725:\n            /* \"#utility.yul\":32791:32872   */\n          swap2\n          pop\n            /* \"#utility.yul\":32647:32883   */\n          pop\n            /* \"#utility.yul\":32970:32974   */\n          0xe0\n            /* \"#utility.yul\":32963:32968   */\n          dup4\n            /* \"#utility.yul\":32959:32975   */\n          add\n            /* \"#utility.yul\":32953:32976   */\n          mload\n            /* \"#utility.yul\":33023:33026   */\n          dup5\n            /* \"#utility.yul\":33017:33021   */\n          dup3\n            /* \"#utility.yul\":33013:33027   */\n          sub\n            /* \"#utility.yul\":33006:33010   */\n          0xe0\n            /* \"#utility.yul\":33001:33004   */\n          dup7\n            /* \"#utility.yul\":32997:33011   */\n          add\n            /* \"#utility.yul\":32990:33028   */\n          mstore\n            /* \"#utility.yul\":33049:33122   */\n          tag_726\n            /* \"#utility.yul\":33117:33121   */\n          dup3\n            /* \"#utility.yul\":33103:33115   */\n          dup3\n            /* \"#utility.yul\":33049:33122   */\n          tag_400\n          jump\t// in\n        tag_726:\n            /* \"#utility.yul\":33041:33122   */\n          swap2\n          pop\n            /* \"#utility.yul\":32893:33133   */\n          pop\n            /* \"#utility.yul\":33221:33227   */\n          0x0100\n            /* \"#utility.yul\":33214:33219   */\n          dup4\n            /* \"#utility.yul\":33210:33228   */\n          add\n            /* \"#utility.yul\":33204:33229   */\n          mload\n            /* \"#utility.yul\":33278:33281   */\n          dup5\n            /* \"#utility.yul\":33272:33276   */\n          dup3\n            /* \"#utility.yul\":33268:33282   */\n          sub\n            /* \"#utility.yul\":33259:33265   */\n          0x0100\n            /* \"#utility.yul\":33254:33257   */\n          dup7\n            /* \"#utility.yul\":33250:33266   */\n          add\n            /* \"#utility.yul\":33243:33283   */\n          mstore\n            /* \"#utility.yul\":33304:33377   */\n          tag_727\n            /* \"#utility.yul\":33372:33376   */\n          dup3\n            /* \"#utility.yul\":33358:33370   */\n          dup3\n            /* \"#utility.yul\":33304:33377   */\n          tag_400\n          jump\t// in\n        tag_727:\n            /* \"#utility.yul\":33296:33377   */\n          swap2\n          pop\n            /* \"#utility.yul\":33143:33388   */\n          pop\n            /* \"#utility.yul\":33474:33480   */\n          0x0120\n            /* \"#utility.yul\":33467:33472   */\n          dup4\n            /* \"#utility.yul\":33463:33481   */\n          add\n            /* \"#utility.yul\":33457:33482   */\n          mload\n            /* \"#utility.yul\":33531:33534   */\n          dup5\n            /* \"#utility.yul\":33525:33529   */\n          dup3\n            /* \"#utility.yul\":33521:33535   */\n          sub\n            /* \"#utility.yul\":33512:33518   */\n          0x0120\n            /* \"#utility.yul\":33507:33510   */\n          dup7\n            /* \"#utility.yul\":33503:33519   */\n          add\n            /* \"#utility.yul\":33496:33536   */\n          mstore\n            /* \"#utility.yul\":33557:33630   */\n          tag_728\n            /* \"#utility.yul\":33625:33629   */\n          dup3\n            /* \"#utility.yul\":33611:33623   */\n          dup3\n            /* \"#utility.yul\":33557:33630   */\n          tag_400\n          jump\t// in\n        tag_728:\n            /* \"#utility.yul\":33549:33630   */\n          swap2\n          pop\n            /* \"#utility.yul\":33398:33641   */\n          pop\n            /* \"#utility.yul\":33721:33727   */\n          0x0140\n            /* \"#utility.yul\":33714:33719   */\n          dup4\n            /* \"#utility.yul\":33710:33728   */\n          add\n            /* \"#utility.yul\":33704:33729   */\n          mload\n            /* \"#utility.yul\":33778:33781   */\n          dup5\n            /* \"#utility.yul\":33772:33776   */\n          dup3\n            /* \"#utility.yul\":33768:33782   */\n          sub\n            /* \"#utility.yul\":33759:33765   */\n          0x0140\n            /* \"#utility.yul\":33754:33757   */\n          dup7\n            /* \"#utility.yul\":33750:33766   */\n          add\n            /* \"#utility.yul\":33743:33783   */\n          mstore\n            /* \"#utility.yul\":33804:33877   */\n          tag_729\n            /* \"#utility.yul\":33872:33876   */\n          dup3\n            /* \"#utility.yul\":33858:33870   */\n          dup3\n            /* \"#utility.yul\":33804:33877   */\n          tag_400\n          jump\t// in\n        tag_729:\n            /* \"#utility.yul\":33796:33877   */\n          swap2\n          pop\n            /* \"#utility.yul\":33651:33888   */\n          pop\n            /* \"#utility.yul\":33975:33981   */\n          0x0160\n            /* \"#utility.yul\":33968:33973   */\n          dup4\n            /* \"#utility.yul\":33964:33982   */\n          add\n            /* \"#utility.yul\":33958:33983   */\n          mload\n            /* \"#utility.yul\":34032:34035   */\n          dup5\n            /* \"#utility.yul\":34026:34030   */\n          dup3\n            /* \"#utility.yul\":34022:34036   */\n          sub\n            /* \"#utility.yul\":34013:34019   */\n          0x0160\n            /* \"#utility.yul\":34008:34011   */\n          dup7\n            /* \"#utility.yul\":34004:34020   */\n          add\n            /* \"#utility.yul\":33997:34037   */\n          mstore\n            /* \"#utility.yul\":34058:34131   */\n          tag_730\n            /* \"#utility.yul\":34126:34130   */\n          dup3\n            /* \"#utility.yul\":34112:34124   */\n          dup3\n            /* \"#utility.yul\":34058:34131   */\n          tag_400\n          jump\t// in\n        tag_730:\n            /* \"#utility.yul\":34050:34131   */\n          swap2\n          pop\n            /* \"#utility.yul\":33898:34142   */\n          pop\n            /* \"#utility.yul\":34159:34163   */\n          dup1\n            /* \"#utility.yul\":34152:34163   */\n          swap2\n          pop\n            /* \"#utility.yul\":31169:34169   */\n          pop\n            /* \"#utility.yul\":31047:34169   */\n          swap3\n          swap2\n          pop\n          pop\n          jump\t// out\n            /* \"#utility.yul\":34175:34447   */\n        tag_415:\n            /* \"#utility.yul\":34302:34312   */\n          0x00\n            /* \"#utility.yul\":34337:34441   */\n          tag_732\n            /* \"#utility.yul\":34437:34440   */\n          dup4\n            /* \"#utility.yul\":34429:34435   */\n          dup4\n            /* \"#utility.yul\":34337:34441   */\n          tag_414\n          jump\t// in\n        tag_732:\n            /* \"#utility.yul\":34323:34441   */\n          swap1\n          pop\n            /* \"#utility.yul\":34175:34447   */\n          swap3\n          swap2\n          pop\n          pop\n          jump\t// out\n            /* \"#utility.yul\":34453:34595   */\n        tag_416:\n            /* \"#utility.yul\":34552:34556   */\n          0x00\n            /* \"#utility.yul\":34584:34588   */\n          0x20\n            /* \"#utility.yul\":34579:34582   */\n          dup3\n            /* \"#utility.yul\":34575:34589   */\n          add\n            /* \"#utility.yul\":34567:34589   */\n          swap1\n          pop\n            /* \"#utility.yul\":34453:34595   */\n          swap2\n          swap1\n          pop\n          jump\t// out\n            /* \"#utility.yul\":34685:35828   */\n        tag_417:\n            /* \"#utility.yul\":34862:34865   */\n          0x00\n            /* \"#utility.yul\":34891:34974   */\n          tag_735\n            /* \"#utility.yul\":34968:34973   */\n          dup3\n            /* \"#utility.yul\":34891:34974   */\n          tag_411\n          jump\t// in\n        tag_735:\n            /* \"#utility.yul\":34990:35105   */\n          tag_736\n            /* \"#utility.yul\":35098:35104   */\n          dup2\n            /* \"#utility.yul\":35093:35096   */\n          dup6\n            /* \"#utility.yul\":34990:35105   */\n          tag_412\n          jump\t// in\n        tag_736:\n            /* \"#utility.yul\":34983:35105   */\n          swap4\n          pop\n            /* \"#utility.yul\":35131:35134   */\n          dup4\n            /* \"#utility.yul\":35176:35180   */\n          0x20\n            /* \"#utility.yul\":35168:35174   */\n          dup3\n            /* \"#utility.yul\":35164:35181   */\n          mul\n            /* \"#utility.yul\":35159:35162   */\n          dup6\n            /* \"#utility.yul\":35155:35182   */\n          add\n            /* \"#utility.yul\":35206:35291   */\n          tag_737\n            /* \"#utility.yul\":35285:35290   */\n          dup6\n            /* \"#utility.yul\":35206:35291   */\n          tag_413\n          jump\t// in\n        tag_737:\n            /* \"#utility.yul\":35314:35321   */\n          dup1\n            /* \"#utility.yul\":35345:35346   */\n          0x00\n            /* \"#utility.yul\":35330:35783   */\n        tag_738:\n            /* \"#utility.yul\":35355:35361   */\n          dup6\n            /* \"#utility.yul\":35352:35353   */\n          dup2\n            /* \"#utility.yul\":35349:35362   */\n          lt\n            /* \"#utility.yul\":35330:35783   */\n          iszero\n          tag_740\n          jumpi\n            /* \"#utility.yul\":35426:35435   */\n          dup5\n            /* \"#utility.yul\":35420:35424   */\n          dup5\n            /* \"#utility.yul\":35416:35436   */\n          sub\n            /* \"#utility.yul\":35411:35414   */\n          dup10\n            /* \"#utility.yul\":35404:35437   */\n          mstore\n            /* \"#utility.yul\":35477:35483   */\n          dup2\n            /* \"#utility.yul\":35471:35484   */\n          mload\n            /* \"#utility.yul\":35505:35627   */\n          tag_741\n            /* \"#utility.yul\":35622:35626   */\n          dup6\n            /* \"#utility.yul\":35607:35620   */\n          dup3\n            /* \"#utility.yul\":35505:35627   */\n          tag_415\n          jump\t// in\n        tag_741:\n            /* \"#utility.yul\":35497:35627   */\n          swap5\n          pop\n            /* \"#utility.yul\":35650:35739   */\n          tag_742\n            /* \"#utility.yul\":35732:35738   */\n          dup4\n            /* \"#utility.yul\":35650:35739   */\n          tag_416\n          jump\t// in\n        tag_742:\n            /* \"#utility.yul\":35640:35739   */\n          swap3\n          pop\n            /* \"#utility.yul\":35768:35772   */\n          0x20\n            /* \"#utility.yul\":35763:35766   */\n          dup11\n            /* \"#utility.yul\":35759:35773   */\n          add\n            /* \"#utility.yul\":35752:35773   */\n          swap10\n          pop\n            /* \"#utility.yul\":35390:35783   */\n          pop\n            /* \"#utility.yul\":35377:35378   */\n          0x01\n            /* \"#utility.yul\":35374:35375   */\n          dup2\n            /* \"#utility.yul\":35370:35379   */\n          add\n            /* \"#utility.yul\":35365:35379   */\n          swap1\n          pop\n            /* \"#utility.yul\":35330:35783   */\n          jump(tag_738)\n        tag_740:\n            /* \"#utility.yul\":35334:35348   */\n          pop\n            /* \"#utility.yul\":35799:35803   */\n          dup3\n            /* \"#utility.yul\":35792:35803   */\n          swap8\n          pop\n            /* \"#utility.yul\":35819:35822   */\n          dup8\n            /* \"#utility.yul\":35812:35822   */\n          swap6\n          pop\n            /* \"#utility.yul\":34867:35828   */\n          pop\n          pop\n          pop\n          pop\n          pop\n            /* \"#utility.yul\":34685:35828   */\n          swap3\n          swap2\n          pop\n          pop\n          jump\t// out\n            /* \"#utility.yul\":35834:36612   */\n        tag_44:\n            /* \"#utility.yul\":36127:36131   */\n          0x00\n            /* \"#utility.yul\":36165:36167   */\n          0x40\n            /* \"#utility.yul\":36154:36163   */\n          dup3\n            /* \"#utility.yul\":36150:36168   */\n          add\n            /* \"#utility.yul\":36142:36168   */\n          swap1\n          pop\n            /* \"#utility.yul\":36214:36223   */\n          dup2\n            /* \"#utility.yul\":36208:36212   */\n          dup2\n            /* \"#utility.yul\":36204:36224   */\n          sub\n            /* \"#utility.yul\":36200:36201   */\n          0x00\n            /* \"#utility.yul\":36189:36198   */\n          dup4\n            /* \"#utility.yul\":36185:36202   */\n          add\n            /* \"#utility.yul\":36178:36225   */\n          mstore\n            /* \"#utility.yul\":36242:36364   */\n          tag_744\n            /* \"#utility.yul\":36359:36363   */\n          dup2\n            /* \"#utility.yul\":36350:36356   */\n          dup6\n            /* \"#utility.yul\":36242:36364   */\n          tag_402\n          jump\t// in\n        tag_744:\n            /* \"#utility.yul\":36234:36364   */\n          swap1\n          pop\n            /* \"#utility.yul\":36411:36420   */\n          dup2\n            /* \"#utility.yul\":36405:36409   */\n          dup2\n            /* \"#utility.yul\":36401:36421   */\n          sub\n            /* \"#utility.yul\":36396:36398   */\n          0x20\n            /* \"#utility.yul\":36385:36394   */\n          dup4\n            /* \"#utility.yul\":36381:36399   */\n          add\n            /* \"#utility.yul\":36374:36422   */\n          mstore\n            /* \"#utility.yul\":36439:36605   */\n          tag_745\n            /* \"#utility.yul\":36600:36604   */\n          dup2\n            /* \"#utility.yul\":36591:36597   */\n          dup5\n            /* \"#utility.yul\":36439:36605   */\n          tag_417\n          jump\t// in\n        tag_745:\n            /* \"#utility.yul\":36431:36605   */\n          swap1\n          pop\n            /* \"#utility.yul\":35834:36612   */\n          swap4\n          swap3\n          pop\n          pop\n          pop\n          jump\t// out\n            /* \"#utility.yul\":36618:36758   */\n        tag_418:\n            /* \"#utility.yul\":36711:36717   */\n          0x00\n            /* \"#utility.yul\":36745:36750   */\n          dup2\n            /* \"#utility.yul\":36739:36751   */\n          mload\n            /* \"#utility.yul\":36729:36751   */\n          swap1\n          pop\n            /* \"#utility.yul\":36618:36758   */\n          swap2\n          swap1\n          pop\n          jump\t// out\n            /* \"#utility.yul\":36764:36974   */\n        tag_419:\n            /* \"#utility.yul\":36889:36900   */\n          0x00\n            /* \"#utility.yul\":36923:36929   */\n          dup3\n            /* \"#utility.yul\":36918:36921   */\n          dup3\n            /* \"#utility.yul\":36911:36930   */\n          mstore\n            /* \"#utility.yul\":36963:36967   */\n          0x20\n            /* \"#utility.yul\":36958:36961   */\n          dup3\n            /* \"#utility.yul\":36954:36968   */\n          add\n            /* \"#utility.yul\":36939:36968   */\n          swap1\n          pop\n            /* \"#utility.yul\":36764:36974   */\n          swap3\n          swap2\n          pop\n          pop\n          jump\t// out\n            /* \"#utility.yul\":36980:37138   */\n        tag_420:\n            /* \"#utility.yul\":37073:37077   */\n          0x00\n            /* \"#utility.yul\":37096:37099   */\n          dup2\n            /* \"#utility.yul\":37088:37099   */\n          swap1\n          pop\n            /* \"#utility.yul\":37126:37130   */\n          0x20\n            /* \"#utility.yul\":37121:37124   */\n          dup3\n            /* \"#utility.yul\":37117:37131   */\n          add\n            /* \"#utility.yul\":37109:37131   */\n          swap1\n          pop\n            /* \"#utility.yul\":36980:37138   */\n          swap2\n          swap1\n          pop\n          jump\t// out\n            /* \"#utility.yul\":37218:40683   */\n        tag_421:\n            /* \"#utility.yul\":37329:37332   */\n          0x00\n            /* \"#utility.yul\":37365:37371   */\n          0x01c0\n            /* \"#utility.yul\":37360:37363   */\n          dup4\n            /* \"#utility.yul\":37356:37372   */\n          add\n            /* \"#utility.yul\":37465:37469   */\n          0x00\n            /* \"#utility.yul\":37458:37463   */\n          dup4\n            /* \"#utility.yul\":37454:37470   */\n          add\n            /* \"#utility.yul\":37448:37471   */\n          mload\n            /* \"#utility.yul\":37484:37547   */\n          tag_750\n            /* \"#utility.yul\":37541:37545   */\n          0x00\n            /* \"#utility.yul\":37536:37539   */\n          dup7\n            /* \"#utility.yul\":37532:37546   */\n          add\n            /* \"#utility.yul\":37518:37530   */\n          dup3\n            /* \"#utility.yul\":37484:37547   */\n          tag_396\n          jump\t// in\n        tag_750:\n            /* \"#utility.yul\":37382:37557   */\n          pop\n            /* \"#utility.yul\":37640:37644   */\n          0x20\n            /* \"#utility.yul\":37633:37638   */\n          dup4\n            /* \"#utility.yul\":37629:37645   */\n          add\n            /* \"#utility.yul\":37623:37646   */\n          mload\n            /* \"#utility.yul\":37693:37696   */\n          dup5\n            /* \"#utility.yul\":37687:37691   */\n          dup3\n            /* \"#utility.yul\":37683:37697   */\n          sub\n            /* \"#utility.yul\":37676:37680   */\n          0x20\n            /* \"#utility.yul\":37671:37674   */\n          dup7\n            /* \"#utility.yul\":37667:37681   */\n          add\n            /* \"#utility.yul\":37660:37698   */\n          mstore\n            /* \"#utility.yul\":37719:37792   */\n          tag_751\n            /* \"#utility.yul\":37787:37791   */\n          dup3\n            /* \"#utility.yul\":37773:37785   */\n          dup3\n            /* \"#utility.yul\":37719:37792   */\n          tag_400\n          jump\t// in\n        tag_751:\n            /* \"#utility.yul\":37711:37792   */\n          swap2\n          pop\n            /* \"#utility.yul\":37567:37803   */\n          pop\n            /* \"#utility.yul\":37894:37898   */\n          0x40\n            /* \"#utility.yul\":37887:37892   */\n          dup4\n            /* \"#utility.yul\":37883:37899   */\n          add\n            /* \"#utility.yul\":37877:37900   */\n          mload\n            /* \"#utility.yul\":37947:37950   */\n          dup5\n            /* \"#utility.yul\":37941:37945   */\n          dup3\n            /* \"#utility.yul\":37937:37951   */\n          sub\n            /* \"#utility.yul\":37930:37934   */\n          0x40\n            /* \"#utility.yul\":37925:37928   */\n          dup7\n            /* \"#utility.yul\":37921:37935   */\n          add\n            /* \"#utility.yul\":37914:37952   */\n          mstore\n            /* \"#utility.yul\":37973:38046   */\n          tag_752\n            /* \"#utility.yul\":38041:38045   */\n          dup3\n            /* \"#utility.yul\":38027:38039   */\n          dup3\n            /* \"#utility.yul\":37973:38046   */\n          tag_400\n          jump\t// in\n        tag_752:\n            /* \"#utility.yul\":37965:38046   */\n          swap2\n          pop\n            /* \"#utility.yul\":37813:38057   */\n          pop\n            /* \"#utility.yul\":38144:38148   */\n          0x60\n            /* \"#utility.yul\":38137:38142   */\n          dup4\n            /* \"#utility.yul\":38133:38149   */\n          add\n            /* \"#utility.yul\":38127:38150   */\n          mload\n            /* \"#utility.yul\":38197:38200   */\n          dup5\n            /* \"#utility.yul\":38191:38195   */\n          dup3\n            /* \"#utility.yul\":38187:38201   */\n          sub\n            /* \"#utility.yul\":38180:38184   */\n          0x60\n            /* \"#utility.yul\":38175:38178   */\n          dup7\n            /* \"#utility.yul\":38171:38185   */\n          add\n            /* \"#utility.yul\":38164:38202   */\n          mstore\n            /* \"#utility.yul\":38223:38296   */\n          tag_753\n            /* \"#utility.yul\":38291:38295   */\n          dup3\n            /* \"#utility.yul\":38277:38289   */\n          dup3\n            /* \"#utility.yul\":38223:38296   */\n          tag_400\n          jump\t// in\n        tag_753:\n            /* \"#utility.yul\":38215:38296   */\n          swap2\n          pop\n            /* \"#utility.yul\":38067:38307   */\n          pop\n            /* \"#utility.yul\":38390:38394   */\n          0x80\n            /* \"#utility.yul\":38383:38388   */\n          dup4\n            /* \"#utility.yul\":38379:38395   */\n          add\n            /* \"#utility.yul\":38373:38396   */\n          mload\n            /* \"#utility.yul\":38443:38446   */\n          dup5\n            /* \"#utility.yul\":38437:38441   */\n          dup3\n            /* \"#utility.yul\":38433:38447   */\n          sub\n            /* \"#utility.yul\":38426:38430   */\n          0x80\n            /* \"#utility.yul\":38421:38424   */\n          dup7\n            /* \"#utility.yul\":38417:38431   */\n          add\n            /* \"#utility.yul\":38410:38448   */\n          mstore\n            /* \"#utility.yul\":38469:38542   */\n          tag_754\n            /* \"#utility.yul\":38537:38541   */\n          dup3\n            /* \"#utility.yul\":38523:38535   */\n          dup3\n            /* \"#utility.yul\":38469:38542   */\n          tag_400\n          jump\t// in\n        tag_754:\n            /* \"#utility.yul\":38461:38542   */\n          swap2\n          pop\n            /* \"#utility.yul\":38317:38553   */\n          pop\n            /* \"#utility.yul\":38640:38644   */\n          0xa0\n            /* \"#utility.yul\":38633:38638   */\n          dup4\n            /* \"#utility.yul\":38629:38645   */\n          add\n            /* \"#utility.yul\":38623:38646   */\n          mload\n            /* \"#utility.yul\":38693:38696   */\n          dup5\n            /* \"#utility.yul\":38687:38691   */\n          dup3\n            /* \"#utility.yul\":38683:38697   */\n          sub\n            /* \"#utility.yul\":38676:38680   */\n          0xa0\n            /* \"#utility.yul\":38671:38674   */\n          dup7\n            /* \"#utility.yul\":38667:38681   */\n          add\n            /* \"#utility.yul\":38660:38698   */\n          mstore\n            /* \"#utility.yul\":38719:38792   */\n          tag_755\n            /* \"#utility.yul\":38787:38791   */\n          dup3\n            /* \"#utility.yul\":38773:38785   */\n          dup3\n            /* \"#utility.yul\":38719:38792   */\n          tag_400\n          jump\t// in\n        tag_755:\n            /* \"#utility.yul\":38711:38792   */\n          swap2\n          pop\n            /* \"#utility.yul\":38563:38803   */\n          pop\n            /* \"#utility.yul\":38883:38887   */\n          0xc0\n            /* \"#utility.yul\":38876:38881   */\n          dup4\n            /* \"#utility.yul\":38872:38888   */\n          add\n            /* \"#utility.yul\":38866:38889   */\n          mload\n            /* \"#utility.yul\":38936:38939   */\n          dup5\n            /* \"#utility.yul\":38930:38934   */\n          dup3\n            /* \"#utility.yul\":38926:38940   */\n          sub\n            /* \"#utility.yul\":38919:38923   */\n          0xc0\n            /* \"#utility.yul\":38914:38917   */\n          dup7\n            /* \"#utility.yul\":38910:38924   */\n          add\n            /* \"#utility.yul\":38903:38941   */\n          mstore\n            /* \"#utility.yul\":38962:39035   */\n          tag_756\n            /* \"#utility.yul\":39030:39034   */\n          dup3\n            /* \"#utility.yul\":39016:39028   */\n          dup3\n            /* \"#utility.yul\":38962:39035   */\n          tag_400\n          jump\t// in\n        tag_756:\n            /* \"#utility.yul\":38954:39035   */\n          swap2\n          pop\n            /* \"#utility.yul\":38813:39046   */\n          pop\n            /* \"#utility.yul\":39134:39138   */\n          0xe0\n            /* \"#utility.yul\":39127:39132   */\n          dup4\n            /* \"#utility.yul\":39123:39139   */\n          add\n            /* \"#utility.yul\":39117:39140   */\n          mload\n            /* \"#utility.yul\":39187:39190   */\n          dup5\n            /* \"#utility.yul\":39181:39185   */\n          dup3\n            /* \"#utility.yul\":39177:39191   */\n          sub\n            /* \"#utility.yul\":39170:39174   */\n          0xe0\n            /* \"#utility.yul\":39165:39168   */\n          dup7\n            /* \"#utility.yul\":39161:39175   */\n          add\n            /* \"#utility.yul\":39154:39192   */\n          mstore\n            /* \"#utility.yul\":39213:39286   */\n          tag_757\n            /* \"#utility.yul\":39281:39285   */\n          dup3\n            /* \"#utility.yul\":39267:39279   */\n          dup3\n            /* \"#utility.yul\":39213:39286   */\n          tag_400\n          jump\t// in\n        tag_757:\n            /* \"#utility.yul\":39205:39286   */\n          swap2\n          pop\n            /* \"#utility.yul\":39056:39297   */\n          pop\n            /* \"#utility.yul\":39383:39389   */\n          0x0100\n            /* \"#utility.yul\":39376:39381   */\n          dup4\n            /* \"#utility.yul\":39372:39390   */\n          add\n            /* \"#utility.yul\":39366:39391   */\n          mload\n            /* \"#utility.yul\":39440:39443   */\n          dup5\n            /* \"#utility.yul\":39434:39438   */\n          dup3\n            /* \"#utility.yul\":39430:39444   */\n          sub\n            /* \"#utility.yul\":39421:39427   */\n          0x0100\n            /* \"#utility.yul\":39416:39419   */\n          dup7\n            /* \"#utility.yul\":39412:39428   */\n          add\n            /* \"#utility.yul\":39405:39445   */\n          mstore\n            /* \"#utility.yul\":39466:39539   */\n          tag_758\n            /* \"#utility.yul\":39534:39538   */\n          dup3\n            /* \"#utility.yul\":39520:39532   */\n          dup3\n            /* \"#utility.yul\":39466:39539   */\n          tag_400\n          jump\t// in\n        tag_758:\n            /* \"#utility.yul\":39458:39539   */\n          swap2\n          pop\n            /* \"#utility.yul\":39307:39550   */\n          pop\n            /* \"#utility.yul\":39637:39643   */\n          0x0120\n            /* \"#utility.yul\":39630:39635   */\n          dup4\n            /* \"#utility.yul\":39626:39644   */\n          add\n            /* \"#utility.yul\":39620:39645   */\n          mload\n            /* \"#utility.yul\":39658:39717   */\n          tag_759\n            /* \"#utility.yul\":39709:39715   */\n          0x0120\n            /* \"#utility.yul\":39704:39707   */\n          dup7\n            /* \"#utility.yul\":39700:39716   */\n          add\n            /* \"#utility.yul\":39686:39698   */\n          dup3\n            /* \"#utility.yul\":39658:39717   */\n          tag_406\n          jump\t// in\n        tag_759:\n            /* \"#utility.yul\":39560:39727   */\n          pop\n            /* \"#utility.yul\":39808:39814   */\n          0x0140\n            /* \"#utility.yul\":39801:39806   */\n          dup4\n            /* \"#utility.yul\":39797:39815   */\n          add\n            /* \"#utility.yul\":39791:39816   */\n          mload\n            /* \"#utility.yul\":39865:39868   */\n          dup5\n            /* \"#utility.yul\":39859:39863   */\n          dup3\n            /* \"#utility.yul\":39855:39869   */\n          sub\n            /* \"#utility.yul\":39846:39852   */\n          0x0140\n            /* \"#utility.yul\":39841:39844   */\n          dup7\n            /* \"#utility.yul\":39837:39853   */\n          add\n            /* \"#utility.yul\":39830:39870   */\n          mstore\n            /* \"#utility.yul\":39891:39964   */\n          tag_760\n            /* \"#utility.yul\":39959:39963   */\n          dup3\n            /* \"#utility.yul\":39945:39957   */\n          dup3\n            /* \"#utility.yul\":39891:39964   */\n          tag_400\n          jump\t// in\n        tag_760:\n            /* \"#utility.yul\":39883:39964   */\n          swap2\n          pop\n            /* \"#utility.yul\":39737:39975   */\n          pop\n            /* \"#utility.yul\":40055:40061   */\n          0x0160\n            /* \"#utility.yul\":40048:40053   */\n          dup4\n            /* \"#utility.yul\":40044:40062   */\n          add\n            /* \"#utility.yul\":40038:40063   */\n          mload\n            /* \"#utility.yul\":40112:40115   */\n          dup5\n            /* \"#utility.yul\":40106:40110   */\n          dup3\n            /* \"#utility.yul\":40102:40116   */\n          sub\n            /* \"#utility.yul\":40093:40099   */\n          0x0160\n            /* \"#utility.yul\":40088:40091   */\n          dup7\n            /* \"#utility.yul\":40084:40100   */\n          add\n            /* \"#utility.yul\":40077:40117   */\n          mstore\n            /* \"#utility.yul\":40138:40211   */\n          tag_761\n            /* \"#utility.yul\":40206:40210   */\n          dup3\n            /* \"#utility.yul\":40192:40204   */\n          dup3\n            /* \"#utility.yul\":40138:40211   */\n          tag_400\n          jump\t// in\n        tag_761:\n            /* \"#utility.yul\":40130:40211   */\n          swap2\n          pop\n            /* \"#utility.yul\":39985:40222   */\n          pop\n            /* \"#utility.yul\":40306:40312   */\n          0x0180\n            /* \"#utility.yul\":40299:40304   */\n          dup4\n            /* \"#utility.yul\":40295:40313   */\n          add\n            /* \"#utility.yul\":40289:40314   */\n          mload\n            /* \"#utility.yul\":40327:40392   */\n          tag_762\n            /* \"#utility.yul\":40384:40390   */\n          0x0180\n            /* \"#utility.yul\":40379:40382   */\n          dup7\n            /* \"#utility.yul\":40375:40391   */\n          add\n            /* \"#utility.yul\":40361:40373   */\n          dup3\n            /* \"#utility.yul\":40327:40392   */\n          tag_396\n          jump\t// in\n        tag_762:\n            /* \"#utility.yul\":40232:40402   */\n          pop\n            /* \"#utility.yul\":40489:40495   */\n          0x01a0\n            /* \"#utility.yul\":40482:40487   */\n          dup4\n            /* \"#utility.yul\":40478:40496   */\n          add\n            /* \"#utility.yul\":40472:40497   */\n          mload\n            /* \"#utility.yul\":40546:40549   */\n          dup5\n            /* \"#utility.yul\":40540:40544   */\n          dup3\n            /* \"#utility.yul\":40536:40550   */\n          sub\n            /* \"#utility.yul\":40527:40533   */\n          0x01a0\n            /* \"#utility.yul\":40522:40525   */\n          dup7\n            /* \"#utility.yul\":40518:40534   */\n          add\n            /* \"#utility.yul\":40511:40551   */\n          mstore\n            /* \"#utility.yul\":40572:40645   */\n          tag_763\n            /* \"#utility.yul\":40640:40644   */\n          dup3\n            /* \"#utility.yul\":40626:40638   */\n          dup3\n            /* \"#utility.yul\":40572:40645   */\n          tag_400\n          jump\t// in\n        tag_763:\n            /* \"#utility.yul\":40564:40645   */\n          swap2\n          pop\n            /* \"#utility.yul\":40412:40656   */\n          pop\n            /* \"#utility.yul\":40673:40677   */\n          dup1\n            /* \"#utility.yul\":40666:40677   */\n          swap2\n          pop\n            /* \"#utility.yul\":37334:40683   */\n          pop\n            /* \"#utility.yul\":37218:40683   */\n          swap3\n          swap2\n          pop\n          pop\n          jump\t// out\n            /* \"#utility.yul\":40689:40949   */\n        tag_422:\n            /* \"#utility.yul\":40810:40820   */\n          0x00\n            /* \"#utility.yul\":40845:40943   */\n          tag_765\n            /* \"#utility.yul\":40939:40942   */\n          dup4\n            /* \"#utility.yul\":40931:40937   */\n          dup4\n            /* \"#utility.yul\":40845:40943   */\n          tag_421\n          jump\t// in\n        tag_765:\n            /* \"#utility.yul\":40831:40943   */\n          swap1\n          pop\n            /* \"#utility.yul\":40689:40949   */\n          swap3\n          swap2\n          pop\n          pop\n          jump\t// out\n            /* \"#utility.yul\":40955:41094   */\n        tag_423:\n            /* \"#utility.yul\":41051:41055   */\n          0x00\n            /* \"#utility.yul\":41083:41087   */\n          0x20\n            /* \"#utility.yul\":41078:41081   */\n          dup3\n            /* \"#utility.yul\":41074:41088   */\n          add\n            /* \"#utility.yul\":41066:41088   */\n          swap1\n          pop\n            /* \"#utility.yul\":40955:41094   */\n          swap2\n          swap1\n          pop\n          jump\t// out\n            /* \"#utility.yul\":41178:42297   */\n        tag_424:\n            /* \"#utility.yul\":41349:41352   */\n          0x00\n            /* \"#utility.yul\":41378:41458   */\n          tag_768\n            /* \"#utility.yul\":41452:41457   */\n          dup3\n            /* \"#utility.yul\":41378:41458   */\n          tag_418\n          jump\t// in\n        tag_768:\n            /* \"#utility.yul\":41474:41586   */\n          tag_769\n            /* \"#utility.yul\":41579:41585   */\n          dup2\n            /* \"#utility.yul\":41574:41577   */\n          dup6\n            /* \"#utility.yul\":41474:41586   */\n          tag_419\n          jump\t// in\n        tag_769:\n            /* \"#utility.yul\":41467:41586   */\n          swap4\n          pop\n            /* \"#utility.yul\":41612:41615   */\n          dup4\n            /* \"#utility.yul\":41657:41661   */\n          0x20\n            /* \"#utility.yul\":41649:41655   */\n          dup3\n            /* \"#utility.yul\":41645:41662   */\n          mul\n            /* \"#utility.yul\":41640:41643   */\n          dup6\n            /* \"#utility.yul\":41636:41663   */\n          add\n            /* \"#utility.yul\":41687:41769   */\n          tag_770\n            /* \"#utility.yul\":41763:41768   */\n          dup6\n            /* \"#utility.yul\":41687:41769   */\n          tag_420\n          jump\t// in\n        tag_770:\n            /* \"#utility.yul\":41792:41799   */\n          dup1\n            /* \"#utility.yul\":41823:41824   */\n          0x00\n            /* \"#utility.yul\":41808:42252   */\n        tag_771:\n            /* \"#utility.yul\":41833:41839   */\n          dup6\n            /* \"#utility.yul\":41830:41831   */\n          dup2\n            /* \"#utility.yul\":41827:41840   */\n          lt\n            /* \"#utility.yul\":41808:42252   */\n          iszero\n          tag_773\n          jumpi\n            /* \"#utility.yul\":41904:41913   */\n          dup5\n            /* \"#utility.yul\":41898:41902   */\n          dup5\n            /* \"#utility.yul\":41894:41914   */\n          sub\n            /* \"#utility.yul\":41889:41892   */\n          dup10\n            /* \"#utility.yul\":41882:41915   */\n          mstore\n            /* \"#utility.yul\":41955:41961   */\n          dup2\n            /* \"#utility.yul\":41949:41962   */\n          mload\n            /* \"#utility.yul\":41983:42099   */\n          tag_774\n            /* \"#utility.yul\":42094:42098   */\n          dup6\n            /* \"#utility.yul\":42079:42092   */\n          dup3\n            /* \"#utility.yul\":41983:42099   */\n          tag_422\n          jump\t// in\n        tag_774:\n            /* \"#utility.yul\":41975:42099   */\n          swap5\n          pop\n            /* \"#utility.yul\":42122:42208   */\n          tag_775\n            /* \"#utility.yul\":42201:42207   */\n          dup4\n            /* \"#utility.yul\":42122:42208   */\n          tag_423\n          jump\t// in\n        tag_775:\n            /* \"#utility.yul\":42112:42208   */\n          swap3\n          pop\n            /* \"#utility.yul\":42237:42241   */\n          0x20\n            /* \"#utility.yul\":42232:42235   */\n          dup11\n            /* \"#utility.yul\":42228:42242   */\n          add\n            /* \"#utility.yul\":42221:42242   */\n          swap10\n          pop\n            /* \"#utility.yul\":41868:42252   */\n          pop\n            /* \"#utility.yul\":41855:41856   */\n          0x01\n            /* \"#utility.yul\":41852:41853   */\n          dup2\n            /* \"#utility.yul\":41848:41857   */\n          add\n            /* \"#utility.yul\":41843:41857   */\n          swap1\n          pop\n            /* \"#utility.yul\":41808:42252   */\n          jump(tag_771)\n        tag_773:\n            /* \"#utility.yul\":41812:41826   */\n          pop\n            /* \"#utility.yul\":42268:42272   */\n          dup3\n            /* \"#utility.yul\":42261:42272   */\n          swap8\n          pop\n            /* \"#utility.yul\":42288:42291   */\n          dup8\n            /* \"#utility.yul\":42281:42291   */\n          swap6\n          pop\n            /* \"#utility.yul\":41354:42297   */\n          pop\n          pop\n          pop\n          pop\n          pop\n            /* \"#utility.yul\":41178:42297   */\n          swap3\n          swap2\n          pop\n          pop\n          jump\t// out\n            /* \"#utility.yul\":42303:43069   */\n        tag_49:\n            /* \"#utility.yul\":42590:42594   */\n          0x00\n            /* \"#utility.yul\":42628:42630   */\n          0x40\n            /* \"#utility.yul\":42617:42626   */\n          dup3\n            /* \"#utility.yul\":42613:42631   */\n          add\n            /* \"#utility.yul\":42605:42631   */\n          swap1\n          pop\n            /* \"#utility.yul\":42677:42686   */\n          dup2\n            /* \"#utility.yul\":42671:42675   */\n          dup2\n            /* \"#utility.yul\":42667:42687   */\n          sub\n            /* \"#utility.yul\":42663:42664   */\n          0x00\n            /* \"#utility.yul\":42652:42661   */\n          dup4\n            /* \"#utility.yul\":42648:42665   */\n          add\n            /* \"#utility.yul\":42641:42688   */\n          mstore\n            /* \"#utility.yul\":42705:42827   */\n          tag_777\n            /* \"#utility.yul\":42822:42826   */\n          dup2\n            /* \"#utility.yul\":42813:42819   */\n          dup6\n            /* \"#utility.yul\":42705:42827   */\n          tag_402\n          jump\t// in\n        tag_777:\n            /* \"#utility.yul\":42697:42827   */\n          swap1\n          pop\n            /* \"#utility.yul\":42874:42883   */\n          dup2\n            /* \"#utility.yul\":42868:42872   */\n          dup2\n            /* \"#utility.yul\":42864:42884   */\n          sub\n            /* \"#utility.yul\":42859:42861   */\n          0x20\n            /* \"#utility.yul\":42848:42857   */\n          dup4\n            /* \"#utility.yul\":42844:42862   */\n          add\n            /* \"#utility.yul\":42837:42885   */\n          mstore\n            /* \"#utility.yul\":42902:43062   */\n          tag_778\n            /* \"#utility.yul\":43057:43061   */\n          dup2\n            /* \"#utility.yul\":43048:43054   */\n          dup5\n            /* \"#utility.yul\":42902:43062   */\n          tag_424\n          jump\t// in\n        tag_778:\n            /* \"#utility.yul\":42894:43062   */\n          swap1\n          pop\n            /* \"#utility.yul\":42303:43069   */\n          swap4\n          swap3\n          pop\n          pop\n          pop\n          jump\t// out\n            /* \"#utility.yul\":43075:43193   */\n        tag_425:\n            /* \"#utility.yul\":43162:43186   */\n          tag_780\n            /* \"#utility.yul\":43180:43185   */\n          dup2\n            /* \"#utility.yul\":43162:43186   */\n          tag_370\n          jump\t// in\n        tag_780:\n            /* \"#utility.yul\":43157:43160   */\n          dup3\n            /* \"#utility.yul\":43150:43187   */\n          mstore\n            /* \"#utility.yul\":43075:43193   */\n          pop\n          pop\n          jump\t// out\n            /* \"#utility.yul\":43199:43421   */\n        tag_53:\n            /* \"#utility.yul\":43292:43296   */\n          0x00\n            /* \"#utility.yul\":43330:43332   */\n          0x20\n            /* \"#utility.yul\":43319:43328   */\n          dup3\n            /* \"#utility.yul\":43315:43333   */\n          add\n            /* \"#utility.yul\":43307:43333   */\n          swap1\n          pop\n            /* \"#utility.yul\":43343:43414   */\n          tag_782\n            /* \"#utility.yul\":43411:43412   */\n          0x00\n            /* \"#utility.yul\":43400:43409   */\n          dup4\n            /* \"#utility.yul\":43396:43413   */\n          add\n            /* \"#utility.yul\":43387:43393   */\n          dup5\n            /* \"#utility.yul\":43343:43414   */\n          tag_425\n          jump\t// in\n        tag_782:\n            /* \"#utility.yul\":43199:43421   */\n          swap3\n          swap2\n          pop\n          pop\n          jump\t// out\n            /* \"#utility.yul\":43427:43564   */\n        tag_426:\n            /* \"#utility.yul\":43481:43486   */\n          0x00\n            /* \"#utility.yul\":43512:43518   */\n          dup2\n            /* \"#utility.yul\":43506:43519   */\n          mload\n            /* \"#utility.yul\":43497:43519   */\n          swap1\n          pop\n            /* \"#utility.yul\":43528:43558   */\n          tag_784\n            /* \"#utility.yul\":43552:43557   */\n          dup2\n            /* \"#utility.yul\":43528:43558   */\n          tag_392\n          jump\t// in\n        tag_784:\n            /* \"#utility.yul\":43427:43564   */\n          swap3\n          swap2\n          pop\n          pop\n          jump\t// out\n            /* \"#utility.yul\":43570:43915   */\n        tag_57:\n            /* \"#utility.yul\":43637:43643   */\n          0x00\n            /* \"#utility.yul\":43686:43688   */\n          0x20\n            /* \"#utility.yul\":43674:43683   */\n          dup3\n            /* \"#utility.yul\":43665:43672   */\n          dup5\n            /* \"#utility.yul\":43661:43684   */\n          sub\n            /* \"#utility.yul\":43657:43689   */\n          slt\n            /* \"#utility.yul\":43654:43773   */\n          iszero\n          tag_786\n          jumpi\n            /* \"#utility.yul\":43692:43771   */\n          tag_787\n          tag_367\n          jump\t// in\n        tag_787:\n            /* \"#utility.yul\":43654:43773   */\n        tag_786:\n            /* \"#utility.yul\":43812:43813   */\n          0x00\n            /* \"#utility.yul\":43837:43898   */\n          tag_788\n            /* \"#utility.yul\":43890:43897   */\n          dup5\n            /* \"#utility.yul\":43881:43887   */\n          dup3\n            /* \"#utility.yul\":43870:43879   */\n          dup6\n            /* \"#utility.yul\":43866:43888   */\n          add\n            /* \"#utility.yul\":43837:43898   */\n          tag_426\n          jump\t// in\n        tag_788:\n            /* \"#utility.yul\":43827:43898   */\n          swap2\n          pop\n            /* \"#utility.yul\":43783:43908   */\n          pop\n            /* \"#utility.yul\":43570:43915   */\n          swap3\n          swap2\n          pop\n          pop\n          jump\t// out\n            /* \"#utility.yul\":43921:44101   */\n        tag_427:\n            /* \"#utility.yul\":43969:44046   */\n          0x4e487b7100000000000000000000000000000000000000000000000000000000\n            /* \"#utility.yul\":43966:43967   */\n          0x00\n            /* \"#utility.yul\":43959:44047   */\n          mstore\n            /* \"#utility.yul\":44066:44070   */\n          0x22\n            /* \"#utility.yul\":44063:44064   */\n          0x04\n            /* \"#utility.yul\":44056:44071   */\n          mstore\n            /* \"#utility.yul\":44090:44094   */\n          0x24\n            /* \"#utility.yul\":44087:44088   */\n          0x00\n            /* \"#utility.yul\":44080:44095   */\n          revert\n            /* \"#utility.yul\":44107:44427   */\n        tag_158:\n            /* \"#utility.yul\":44151:44157   */\n          0x00\n            /* \"#utility.yul\":44188:44189   */\n          0x02\n            /* \"#utility.yul\":44182:44186   */\n          dup3\n            /* \"#utility.yul\":44178:44190   */\n          div\n            /* \"#utility.yul\":44168:44190   */\n          swap1\n          pop\n            /* \"#utility.yul\":44235:44236   */\n          0x01\n            /* \"#utility.yul\":44229:44233   */\n          dup3\n            /* \"#utility.yul\":44225:44237   */\n          and\n            /* \"#utility.yul\":44256:44274   */\n          dup1\n            /* \"#utility.yul\":44246:44327   */\n          tag_791\n          jumpi\n            /* \"#utility.yul\":44312:44316   */\n          0x7f\n            /* \"#utility.yul\":44304:44310   */\n          dup3\n            /* \"#utility.yul\":44300:44317   */\n          and\n            /* \"#utility.yul\":44290:44317   */\n          swap2\n          pop\n            /* \"#utility.yul\":44246:44327   */\n        tag_791:\n            /* \"#utility.yul\":44374:44376   */\n          0x20\n            /* \"#utility.yul\":44366:44372   */\n          dup3\n            /* \"#utility.yul\":44363:44377   */\n          lt\n            /* \"#utility.yul\":44343:44361   */\n          dup2\n            /* \"#utility.yul\":44340:44378   */\n          sub\n            /* \"#utility.yul\":44337:44421   */\n          tag_792\n          jumpi\n            /* \"#utility.yul\":44393:44411   */\n          tag_793\n          tag_427\n          jump\t// in\n        tag_793:\n            /* \"#utility.yul\":44337:44421   */\n        tag_792:\n            /* \"#utility.yul\":44158:44427   */\n          pop\n            /* \"#utility.yul\":44107:44427   */\n          swap2\n          swap1\n          pop\n          jump\t// out\n            /* \"#utility.yul\":44433:44574   */\n        tag_428:\n            /* \"#utility.yul\":44482:44486   */\n          0x00\n            /* \"#utility.yul\":44505:44508   */\n          dup2\n            /* \"#utility.yul\":44497:44508   */\n          swap1\n          pop\n            /* \"#utility.yul\":44528:44531   */\n          dup2\n            /* \"#utility.yul\":44525:44526   */\n          0x00\n            /* \"#utility.yul\":44518:44532   */\n          mstore\n            /* \"#utility.yul\":44562:44566   */\n          0x20\n            /* \"#utility.yul\":44559:44560   */\n          0x00\n            /* \"#utility.yul\":44549:44567   */\n          keccak256\n            /* \"#utility.yul\":44541:44567   */\n          swap1\n          pop\n            /* \"#utility.yul\":44433:44574   */\n          swap2\n          swap1\n          pop\n          jump\t// out\n            /* \"#utility.yul\":44580:44673   */\n        tag_429:\n            /* \"#utility.yul\":44617:44623   */\n          0x00\n            /* \"#utility.yul\":44664:44666   */\n          0x20\n            /* \"#utility.yul\":44659:44661   */\n          0x1f\n            /* \"#utility.yul\":44652:44657   */\n          dup4\n            /* \"#utility.yul\":44648:44662   */\n          add\n            /* \"#utility.yul\":44644:44667   */\n          div\n            /* \"#utility.yul\":44634:44667   */\n          swap1\n          pop\n            /* \"#utility.yul\":44580:44673   */\n          swap2\n          swap1\n          pop\n          jump\t// out\n            /* \"#utility.yul\":44679:44786   */\n        tag_430:\n            /* \"#utility.yul\":44723:44731   */\n          0x00\n            /* \"#utility.yul\":44773:44778   */\n          dup3\n            /* \"#utility.yul\":44767:44771   */\n          dup3\n            /* \"#utility.yul\":44763:44779   */\n          shl\n            /* \"#utility.yul\":44742:44779   */\n          swap1\n          pop\n            /* \"#utility.yul\":44679:44786   */\n          swap3\n          swap2\n          pop\n          pop\n          jump\t// out\n            /* \"#utility.yul\":44792:45185   */\n        tag_431:\n            /* \"#utility.yul\":44861:44867   */\n          0x00\n            /* \"#utility.yul\":44911:44912   */\n          0x08\n            /* \"#utility.yul\":44899:44909   */\n          dup4\n            /* \"#utility.yul\":44895:44913   */\n          mul\n            /* \"#utility.yul\":44934:45031   */\n          tag_798\n            /* \"#utility.yul\":44964:45030   */\n          0xffffffffffffffffffffffffffffffffffffffffffffffffffffffffffffffff\n            /* \"#utility.yul\":44953:44962   */\n          dup3\n            /* \"#utility.yul\":44934:45031   */\n          tag_430\n          jump\t// in\n        tag_798:\n            /* \"#utility.yul\":45052:45091   */\n          tag_799\n            /* \"#utility.yul\":45082:45090   */\n          dup7\n            /* \"#utility.yul\":45071:45080   */\n          dup4\n            /* \"#utility.yul\":45052:45091   */\n          tag_430\n          jump\t// in\n        tag_799:\n            /* \"#utility.yul\":45040:45091   */\n          swap6\n          pop\n            /* \"#utility.yul\":45124:45128   */\n          dup1\n            /* \"#utility.yul\":45120:45129   */\n          not\n            /* \"#utility.yul\":45113:45118   */\n          dup5\n            /* \"#utility.yul\":45109:45130   */\n          and\n            /* \"#utility.yul\":45100:45130   */\n          swap4\n          pop\n            /* \"#utility.yul\":45173:45177   */\n          dup1\n            /* \"#utility.yul\":45163:45171   */\n          dup7\n            /* \"#utility.yul\":45159:45178   */\n          and\n            /* \"#utility.yul\":45152:45157   */\n          dup5\n            /* \"#utility.yul\":45149:45179   */\n          or\n            /* \"#utility.yul\":45139:45179   */\n          swap3\n          pop\n            /* \"#utility.yul\":44868:45185   */\n          pop\n          pop\n            /* \"#utility.yul\":44792:45185   */\n          swap4\n          swap3\n          pop\n          pop\n          pop\n          jump\t// out\n            /* \"#utility.yul\":45191:45251   */\n        tag_432:\n            /* \"#utility.yul\":45219:45222   */\n          0x00\n            /* \"#utility.yul\":45240:45245   */\n          dup2\n            /* \"#utility.yul\":45233:45245   */\n          swap1\n          pop\n            /* \"#utility.yul\":45191:45251   */\n          swap2\n          swap1\n          pop\n          jump\t// out\n            /* \"#utility.yul\":45257:45399   */\n        tag_433:\n            /* \"#utility.yul\":45307:45316   */\n          0x00\n            /* \"#utility.yul\":45340:45393   */\n          tag_802\n            /* \"#utility.yul\":45358:45392   */\n          tag_803\n            /* \"#utility.yul\":45367:45391   */\n          tag_804\n            /* \"#utility.yul\":45385:45390   */\n          dup5\n            /* \"#utility.yul\":45367:45391   */\n          tag_385\n          jump\t// in\n        tag_804:\n            /* \"#utility.yul\":45358:45392   */\n          tag_432\n          jump\t// in\n        tag_803:\n            /* \"#utility.yul\":45340:45393   */\n          tag_385\n          jump\t// in\n        tag_802:\n            /* \"#utility.yul\":45327:45393   */\n          swap1\n          pop\n            /* \"#utility.yul\":45257:45399   */\n          swap2\n          swap1\n          pop\n          jump\t// out\n            /* \"#utility.yul\":45405:45480   */\n        tag_434:\n            /* \"#utility.yul\":45448:45451   */\n          0x00\n            /* \"#utility.yul\":45469:45474   */\n          dup2\n            /* \"#utility.yul\":45462:45474   */\n          swap1\n          pop\n            /* \"#utility.yul\":45405:45480   */\n          swap2\n          swap1\n          pop\n          jump\t// out\n            /* \"#utility.yul\":45486:45755   */\n        tag_435:\n            /* \"#utility.yul\":45596:45635   */\n          tag_807\n            /* \"#utility.yul\":45627:45634   */\n          dup4\n            /* \"#utility.yul\":45596:45635   */\n          tag_433\n          jump\t// in\n        tag_807:\n            /* \"#utility.yul\":45657:45748   */\n          tag_808\n            /* \"#utility.yul\":45706:45747   */\n          tag_809\n            /* \"#utility.yul\":45730:45746   */\n          dup3\n            /* \"#utility.yul\":45706:45747   */\n          tag_434\n          jump\t// in\n        tag_809:\n            /* \"#utility.yul\":45698:45704   */\n          dup5\n            /* \"#utility.yul\":45691:45695   */\n          dup5\n            /* \"#utility.yul\":45685:45696   */\n          sload\n            /* \"#utility.yul\":45657:45748   */\n          tag_431\n          jump\t// in\n        tag_808:\n            /* \"#utility.yul\":45651:45655   */\n          dup3\n            /* \"#utility.yul\":45644:45749   */\n          sstore\n            /* \"#utility.yul\":45562:45755   */\n          pop\n            /* \"#utility.yul\":45486:45755   */\n          pop\n          pop\n          pop\n          jump\t// out\n            /* \"#utility.yul\":45761:45834   */\n        tag_436:\n            /* \"#utility.yul\":45806:45809   */\n          0x00\n            /* \"#utility.yul\":45761:45834   */\n          swap1\n          jump\t// out\n            /* \"#utility.yul\":45840:46029   */\n        tag_437:\n            /* \"#utility.yul\":45917:45949   */\n          tag_812\n          tag_436\n          jump\t// in\n        tag_812:\n            /* \"#utility.yul\":45958:46023   */\n          tag_813\n            /* \"#utility.yul\":46016:46022   */\n          dup2\n            /* \"#utility.yul\":46008:46014   */\n          dup5\n            /* \"#utility.yul\":46002:46006   */\n          dup5\n            /* \"#utility.yul\":45958:46023   */\n          tag_435\n          jump\t// in\n        tag_813:\n            /* \"#utility.yul\":45893:46029   */\n          pop\n            /* \"#utility.yul\":45840:46029   */\n          pop\n          pop\n          jump\t// out\n            /* \"#utility.yul\":46035:46221   */\n        tag_438:\n            /* \"#utility.yul\":46095:46215   */\n        tag_815:\n            /* \"#utility.yul\":46112:46115   */\n          dup2\n            /* \"#utility.yul\":46105:46110   */\n          dup2\n            /* \"#utility.yul\":46102:46116   */\n          lt\n            /* \"#utility.yul\":46095:46215   */\n          iszero\n          tag_817\n          jumpi\n            /* \"#utility.yul\":46166:46205   */\n          tag_818\n            /* \"#utility.yul\":46203:46204   */\n          0x00\n            /* \"#utility.yul\":46196:46201   */\n          dup3\n            /* \"#utility.yul\":46166:46205   */\n          tag_437\n          jump\t// in\n        tag_818:\n            /* \"#utility.yul\":46139:46140   */\n          0x01\n            /* \"#utility.yul\":46132:46137   */\n          dup2\n            /* \"#utility.yul\":46128:46141   */\n          add\n            /* \"#utility.yul\":46119:46141   */\n          swap1\n          pop\n            /* \"#utility.yul\":46095:46215   */\n          jump(tag_815)\n        tag_817:\n            /* \"#utility.yul\":46035:46221   */\n          pop\n          pop\n          jump\t// out\n            /* \"#utility.yul\":46227:46770   */\n        tag_439:\n            /* \"#utility.yul\":46328:46330   */\n          0x1f\n            /* \"#utility.yul\":46323:46326   */\n          dup3\n            /* \"#utility.yul\":46320:46331   */\n          gt\n            /* \"#utility.yul\":46317:46763   */\n          iszero\n          tag_820\n          jumpi\n            /* \"#utility.yul\":46362:46400   */\n          tag_821\n            /* \"#utility.yul\":46394:46399   */\n          dup2\n            /* \"#utility.yul\":46362:46400   */\n          tag_428\n          jump\t// in\n        tag_821:\n            /* \"#utility.yul\":46446:46475   */\n          tag_822\n            /* \"#utility.yul\":46464:46474   */\n          dup5\n            /* \"#utility.yul\":46446:46475   */\n          tag_429\n          jump\t// in\n        tag_822:\n            /* \"#utility.yul\":46436:46444   */\n          dup2\n            /* \"#utility.yul\":46432:46476   */\n          add\n            /* \"#utility.yul\":46629:46631   */\n          0x20\n            /* \"#utility.yul\":46617:46627   */\n          dup6\n            /* \"#utility.yul\":46614:46632   */\n          lt\n            /* \"#utility.yul\":46611:46660   */\n          iszero\n          tag_823\n          jumpi\n            /* \"#utility.yul\":46650:46658   */\n          dup2\n            /* \"#utility.yul\":46635:46658   */\n          swap1\n          pop\n            /* \"#utility.yul\":46611:46660   */\n        tag_823:\n            /* \"#utility.yul\":46673:46753   */\n          tag_824\n            /* \"#utility.yul\":46729:46751   */\n          tag_825\n            /* \"#utility.yul\":46747:46750   */\n          dup6\n            /* \"#utility.yul\":46729:46751   */\n          tag_429\n          jump\t// in\n        tag_825:\n            /* \"#utility.yul\":46719:46727   */\n          dup4\n            /* \"#utility.yul\":46715:46752   */\n          add\n            /* \"#utility.yul\":46702:46713   */\n          dup3\n            /* \"#utility.yul\":46673:46753   */\n          tag_438\n          jump\t// in\n        tag_824:\n            /* \"#utility.yul\":46332:46763   */\n          pop\n          pop\n            /* \"#utility.yul\":46317:46763   */\n        tag_820:\n            /* \"#utility.yul\":46227:46770   */\n          pop\n          pop\n          pop\n          jump\t// out\n            /* \"#utility.yul\":46776:46893   */\n        tag_440:\n            /* \"#utility.yul\":46830:46838   */\n          0x00\n            /* \"#utility.yul\":46880:46885   */\n          dup3\n            /* \"#utility.yul\":46874:46878   */\n          dup3\n            /* \"#utility.yul\":46870:46886   */\n          shr\n            /* \"#utility.yul\":46849:46886   */\n          swap1\n          pop\n            /* \"#utility.yul\":46776:46893   */\n          swap3\n          swap2\n          pop\n          pop\n          jump\t// out\n            /* \"#utility.yul\":46899:47068   */\n        tag_441:\n            /* \"#utility.yul\":46943:46949   */\n          0x00\n            /* \"#utility.yul\":46976:47027   */\n          tag_828\n            /* \"#utility.yul\":47024:47025   */\n          0x00\n            /* \"#utility.yul\":47020:47026   */\n          not\n            /* \"#utility.yul\":47012:47017   */\n          dup5\n            /* \"#utility.yul\":47009:47010   */\n          0x08\n            /* \"#utility.yul\":47005:47018   */\n          mul\n            /* \"#utility.yul\":46976:47027   */\n          tag_440\n          jump\t// in\n        tag_828:\n            /* \"#utility.yul\":46972:47028   */\n          not\n            /* \"#utility.yul\":47057:47061   */\n          dup1\n            /* \"#utility.yul\":47051:47055   */\n          dup4\n            /* \"#utility.yul\":47047:47062   */\n          and\n            /* \"#utility.yul\":47037:47062   */\n          swap2\n          pop\n            /* \"#utility.yul\":46950:47068   */\n          pop\n            /* \"#utility.yul\":46899:47068   */\n          swap3\n          swap2\n          pop\n          pop\n          jump\t// out\n            /* \"#utility.yul\":47073:47368   */\n        tag_442:\n            /* \"#utility.yul\":47149:47153   */\n          0x00\n            /* \"#utility.yul\":47295:47324   */\n          tag_830\n            /* \"#utility.yul\":47320:47323   */\n          dup4\n            /* \"#utility.yul\":47314:47318   */\n          dup4\n            /* \"#utility.yul\":47295:47324   */\n          tag_441\n          jump\t// in\n        tag_830:\n            /* \"#utility.yul\":47287:47324   */\n          swap2\n          pop\n            /* \"#utility.yul\":47357:47360   */\n          dup3\n            /* \"#utility.yul\":47354:47355   */\n          0x02\n            /* \"#utility.yul\":47350:47361   */\n          mul\n            /* \"#utility.yul\":47344:47348   */\n          dup3\n            /* \"#utility.yul\":47341:47362   */\n          or\n            /* \"#utility.yul\":47333:47362   */\n          swap1\n          pop\n            /* \"#utility.yul\":47073:47368   */\n          swap3\n          swap2\n          pop\n          pop\n          jump\t// out\n            /* \"#utility.yul\":47373:48768   */\n        tag_63:\n            /* \"#utility.yul\":47490:47527   */\n          tag_832\n            /* \"#utility.yul\":47523:47526   */\n          dup3\n            /* \"#utility.yul\":47490:47527   */\n          tag_397\n          jump\t// in\n        tag_832:\n            /* \"#utility.yul\":47592:47610   */\n          0xffffffffffffffff\n            /* \"#utility.yul\":47584:47590   */\n          dup2\n            /* \"#utility.yul\":47581:47611   */\n          gt\n            /* \"#utility.yul\":47578:47634   */\n          iszero\n          tag_833\n          jumpi\n            /* \"#utility.yul\":47614:47632   */\n          tag_834\n          tag_375\n          jump\t// in\n        tag_834:\n            /* \"#utility.yul\":47578:47634   */\n        tag_833:\n            /* \"#utility.yul\":47658:47696   */\n          tag_835\n            /* \"#utility.yul\":47690:47694   */\n          dup3\n            /* \"#utility.yul\":47684:47695   */\n          sload\n            /* \"#utility.yul\":47658:47696   */\n          tag_158\n          jump\t// in\n        tag_835:\n            /* \"#utility.yul\":47743:47810   */\n          tag_836\n            /* \"#utility.yul\":47803:47809   */\n          dup3\n            /* \"#utility.yul\":47795:47801   */\n          dup3\n            /* \"#utility.yul\":47789:47793   */\n          dup6\n            /* \"#utility.yul\":47743:47810   */\n          tag_439\n          jump\t// in\n        tag_836:\n            /* \"#utility.yul\":47837:47838   */\n          0x00\n            /* \"#utility.yul\":47861:47865   */\n          0x20\n            /* \"#utility.yul\":47848:47865   */\n          swap1\n          pop\n            /* \"#utility.yul\":47893:47895   */\n          0x1f\n            /* \"#utility.yul\":47885:47891   */\n          dup4\n            /* \"#utility.yul\":47882:47896   */\n          gt\n            /* \"#utility.yul\":47910:47911   */\n          0x01\n            /* \"#utility.yul\":47905:48523   */\n          dup2\n          eq\n          tag_838\n          jumpi\n            /* \"#utility.yul\":48567:48568   */\n          0x00\n            /* \"#utility.yul\":48584:48590   */\n          dup5\n            /* \"#utility.yul\":48581:48658   */\n          iszero\n          tag_839\n          jumpi\n            /* \"#utility.yul\":48633:48642   */\n          dup3\n            /* \"#utility.yul\":48628:48631   */\n          dup8\n            /* \"#utility.yul\":48624:48643   */\n          add\n            /* \"#utility.yul\":48618:48644   */\n          mload\n            /* \"#utility.yul\":48609:48644   */\n          swap1\n          pop\n            /* \"#utility.yul\":48581:48658   */\n        tag_839:\n            /* \"#utility.yul\":48684:48751   */\n          tag_840\n            /* \"#utility.yul\":48744:48750   */\n          dup6\n            /* \"#utility.yul\":48737:48742   */\n          dup3\n            /* \"#utility.yul\":48684:48751   */\n          tag_442\n          jump\t// in\n        tag_840:\n            /* \"#utility.yul\":48678:48682   */\n          dup7\n            /* \"#utility.yul\":48671:48752   */\n          sstore\n            /* \"#utility.yul\":48540:48762   */\n          pop\n            /* \"#utility.yul\":47875:48762   */\n          jump(tag_837)\n            /* \"#utility.yul\":47905:48523   */\n        tag_838:\n            /* \"#utility.yul\":47957:47961   */\n          0x1f\n            /* \"#utility.yul\":47953:47962   */\n          not\n            /* \"#utility.yul\":47945:47951   */\n          dup5\n            /* \"#utility.yul\":47941:47963   */\n          and\n            /* \"#utility.yul\":47991:48028   */\n          tag_841\n            /* \"#utility.yul\":48023:48027   */\n          dup7\n            /* \"#utility.yul\":47991:48028   */\n          tag_428\n          jump\t// in\n        tag_841:\n            /* \"#utility.yul\":48050:48051   */\n          0x00\n            /* \"#utility.yul\":48064:48272   */\n        tag_842:\n            /* \"#utility.yul\":48078:48085   */\n          dup3\n            /* \"#utility.yul\":48075:48076   */\n          dup2\n            /* \"#utility.yul\":48072:48086   */\n          lt\n            /* \"#utility.yul\":48064:48272   */\n          iszero\n          tag_844\n          jumpi\n            /* \"#utility.yul\":48157:48166   */\n          dup5\n            /* \"#utility.yul\":48152:48155   */\n          dup10\n            /* \"#utility.yul\":48148:48167   */\n          add\n            /* \"#utility.yul\":48142:48168   */\n          mload\n            /* \"#utility.yul\":48134:48140   */\n          dup3\n            /* \"#utility.yul\":48127:48169   */\n          sstore\n            /* \"#utility.yul\":48208:48209   */\n          0x01\n            /* \"#utility.yul\":48200:48206   */\n          dup3\n            /* \"#utility.yul\":48196:48210   */\n          add\n            /* \"#utility.yul\":48186:48210   */\n          swap2\n          pop\n            /* \"#utility.yul\":48255:48257   */\n          0x20\n            /* \"#utility.yul\":48244:48253   */\n          dup6\n            /* \"#utility.yul\":48240:48258   */\n          add\n            /* \"#utility.yul\":48227:48258   */\n          swap5\n          pop\n            /* \"#utility.yul\":48101:48105   */\n          0x20\n            /* \"#utility.yul\":48098:48099   */\n          dup2\n            /* \"#utility.yul\":48094:48106   */\n          add\n            /* \"#utility.yul\":48089:48106   */\n          swap1\n          pop\n            /* \"#utility.yul\":48064:48272   */\n          jump(tag_842)\n        tag_844:\n            /* \"#utility.yul\":48300:48306   */\n          dup7\n            /* \"#utility.yul\":48291:48298   */\n          dup4\n            /* \"#utility.yul\":48288:48307   */\n          lt\n            /* \"#utility.yul\":48285:48464   */\n          iszero\n          tag_845\n          jumpi\n            /* \"#utility.yul\":48358:48367   */\n          dup5\n            /* \"#utility.yul\":48353:48356   */\n          dup10\n            /* \"#utility.yul\":48349:48368   */\n          add\n            /* \"#utility.yul\":48343:48369   */\n          mload\n            /* \"#utility.yul\":48401:48449   */\n          tag_846\n            /* \"#utility.yul\":48443:48447   */\n          0x1f\n            /* \"#utility.yul\":48435:48441   */\n          dup10\n            /* \"#utility.yul\":48431:48448   */\n          and\n            /* \"#utility.yul\":48420:48429   */\n          dup3\n            /* \"#utility.yul\":48401:48449   */\n          tag_441\n          jump\t// in\n        tag_846:\n            /* \"#utility.yul\":48393:48399   */\n          dup4\n            /* \"#utility.yul\":48386:48450   */\n          sstore\n            /* \"#utility.yul\":48308:48464   */\n          pop\n            /* \"#utility.yul\":48285:48464   */\n        tag_845:\n            /* \"#utility.yul\":48510:48511   */\n          0x01\n            /* \"#utility.yul\":48506:48507   */\n          0x02\n            /* \"#utility.yul\":48498:48504   */\n          dup9\n            /* \"#utility.yul\":48494:48508   */\n          mul\n            /* \"#utility.yul\":48490:48512   */\n          add\n            /* \"#utility.yul\":48484:48488   */\n          dup9\n            /* \"#utility.yul\":48477:48513   */\n          sstore\n            /* \"#utility.yul\":47912:48523   */\n          pop\n          pop\n          pop\n            /* \"#utility.yul\":47875:48762   */\n        tag_837:\n          pop\n            /* \"#utility.yul\":47465:48768   */\n          pop\n          pop\n          pop\n            /* \"#utility.yul\":47373:48768   */\n          pop\n          pop\n          jump\t// out\n            /* \"#utility.yul\":48774:49106   */\n        tag_85:\n            /* \"#utility.yul\":48895:48899   */\n          0x00\n            /* \"#utility.yul\":48933:48935   */\n          0x40\n            /* \"#utility.yul\":48922:48931   */\n          dup3\n            /* \"#utility.yul\":48918:48936   */\n          add\n            /* \"#utility.yul\":48910:48936   */\n          swap1\n          pop\n            /* \"#utility.yul\":48946:49017   */\n          tag_848\n            /* \"#utility.yul\":49014:49015   */\n          0x00\n            /* \"#utility.yul\":49003:49012   */\n          dup4\n            /* \"#utility.yul\":48999:49016   */\n          add\n            /* \"#utility.yul\":48990:48996   */\n          dup6\n            /* \"#utility.yul\":48946:49017   */\n          tag_425\n          jump\t// in\n        tag_848:\n            /* \"#utility.yul\":49027:49099   */\n          tag_849\n            /* \"#utility.yul\":49095:49097   */\n          0x20\n            /* \"#utility.yul\":49084:49093   */\n          dup4\n            /* \"#utility.yul\":49080:49098   */\n          add\n            /* \"#utility.yul\":49071:49077   */\n          dup5\n            /* \"#utility.yul\":49027:49099   */\n          tag_425\n          jump\t// in\n        tag_849:\n            /* \"#utility.yul\":48774:49106   */\n          swap4\n          swap3\n          pop\n          pop\n          pop\n          jump\t// out\n\n        auxdata: 0xa2646970667358221220e61353a1fe4c5934575c0364b5aa8479233388dceb9cc5c25fe171673f29457a64736f6c63430008110033\n    }\n}\n\nsub_2: assembly {\n        /* \"ElectronicMedicalRecords.sol\":9998:10813  contract PatientVerificator {... */\n      mstore(0x40, 0x80)\n        /* \"ElectronicMedicalRecords.sol\":10157:10218  constructor(address _admin) {... */\n      callvalue\n      dup1\n      iszero\n      tag_1\n      jumpi\n      0x00\n      dup1\n      revert\n    tag_1:\n      pop\n      mload(0x40)\n      sub(codesize, bytecodeSize)\n      dup1\n      bytecodeSize\n      dup4\n      codecopy\n      dup2\n      dup2\n      add\n      0x40\n      mstore\n      dup2\n      add\n      swap1\n      tag_2\n      swap2\n      swap1\n      tag_3\n      jump\t// in\n    tag_2:\n        /* \"ElectronicMedicalRecords.sol\":10204:10210  _admin */\n      dup1\n        /* \"ElectronicMedicalRecords.sol\":10196:10201  admin */\n      0x00\n      dup1\n        /* \"ElectronicMedicalRecords.sol\":10196:10210  admin = _admin */\n      0x0100\n      exp\n      dup2\n      sload\n      dup2\n      0xffffffffffffffffffffffffffffffffffffffff\n      mul\n      not\n      and\n      swap1\n      dup4\n      0xffffffffffffffffffffffffffffffffffffffff\n      and\n      mul\n      or\n      swap1\n      sstore\n      pop\n        /* \"ElectronicMedicalRecords.sol\":10157:10218  constructor(address _admin) {... */\n      pop\n        /* \"ElectronicMedicalRecords.sol\":9998:10813  contract PatientVerificator {... */\n      jump(tag_6)\n        /* \"#utility.yul\":88:205   */\n    tag_8:\n        /* \"#utility.yul\":197:198   */\n      0x00\n        /* \"#utility.yul\":194:195   */\n      dup1\n        /* \"#utility.yul\":187:199   */\n      revert\n        /* \"#utility.yul\":334:460   */\n    tag_10:\n        /* \"#utility.yul\":371:378   */\n      0x00\n        /* \"#utility.yul\":411:453   */\n      0xffffffffffffffffffffffffffffffffffffffff\n        /* \"#utility.yul\":404:409   */\n      dup3\n        /* \"#utility.yul\":400:454   */\n      and\n        /* \"#utility.yul\":389:454   */\n      swap1\n      pop\n        /* \"#utility.yul\":334:460   */\n      swap2\n      swap1\n      pop\n      jump\t// out\n        /* \"#utility.yul\":466:562   */\n    tag_11:\n        /* \"#utility.yul\":503:510   */\n      0x00\n        /* \"#utility.yul\":532:556   */\n      tag_20\n        /* \"#utility.yul\":550:555   */\n      dup3\n        /* \"#utility.yul\":532:556   */\n      tag_10\n      jump\t// in\n    tag_20:\n        /* \"#utility.yul\":521:556   */\n      swap1\n      pop\n        /* \"#utility.yul\":466:562   */\n      swap2\n      swap1\n      pop\n      jump\t// out\n        /* \"#utility.yul\":568:690   */\n    tag_12:\n        /* \"#utility.yul\":641:665   */\n      tag_22\n        /* \"#utility.yul\":659:664   */\n      dup2\n        /* \"#utility.yul\":641:665   */\n      tag_11\n      jump\t// in\n    tag_22:\n        /* \"#utility.yul\":634:639   */\n      dup2\n        /* \"#utility.yul\":631:666   */\n      eq\n        /* \"#utility.yul\":621:684   */\n      tag_23\n      jumpi\n        /* \"#utility.yul\":680:681   */\n      0x00\n        /* \"#utility.yul\":677:678   */\n      dup1\n        /* \"#utility.yul\":670:682   */\n      revert\n        /* \"#utility.yul\":621:684   */\n    tag_23:\n        /* \"#utility.yul\":568:690   */\n      pop\n      jump\t// out\n        /* \"#utility.yul\":696:839   */\n    tag_13:\n        /* \"#utility.yul\":753:758   */\n      0x00\n        /* \"#utility.yul\":784:790   */\n      dup2\n        /* \"#utility.yul\":778:791   */\n      mload\n        /* \"#utility.yul\":769:791   */\n      swap1\n      pop\n        /* \"#utility.yul\":800:833   */\n      tag_25\n        /* \"#utility.yul\":827:832   */\n      dup2\n        /* \"#utility.yul\":800:833   */\n      tag_12\n      jump\t// in\n    tag_25:\n        /* \"#utility.yul\":696:839   */\n      swap3\n      swap2\n      pop\n      pop\n      jump\t// out\n        /* \"#utility.yul\":845:1196   */\n    tag_3:\n        /* \"#utility.yul\":915:921   */\n      0x00\n        /* \"#utility.yul\":964:966   */\n      0x20\n        /* \"#utility.yul\":952:961   */\n      dup3\n        /* \"#utility.yul\":943:950   */\n      dup5\n        /* \"#utility.yul\":939:962   */\n      sub\n        /* \"#utility.yul\":935:967   */\n      slt\n        /* \"#utility.yul\":932:1051   */\n      iszero\n      tag_27\n      jumpi\n        /* \"#utility.yul\":970:1049   */\n      tag_28\n      tag_8\n      jump\t// in\n    tag_28:\n        /* \"#utility.yul\":932:1051   */\n    tag_27:\n        /* \"#utility.yul\":1090:1091   */\n      0x00\n        /* \"#utility.yul\":1115:1179   */\n      tag_29\n        /* \"#utility.yul\":1171:1178   */\n      dup5\n        /* \"#utility.yul\":1162:1168   */\n      dup3\n        /* \"#utility.yul\":1151:1160   */\n      dup6\n        /* \"#utility.yul\":1147:1169   */\n      add\n        /* \"#utility.yul\":1115:1179   */\n      tag_13\n      jump\t// in\n    tag_29:\n        /* \"#utility.yul\":1105:1179   */\n      swap2\n      pop\n        /* \"#utility.yul\":1061:1189   */\n      pop\n        /* \"#utility.yul\":845:1196   */\n      swap3\n      swap2\n      pop\n      pop\n      jump\t// out\n        /* \"ElectronicMedicalRecords.sol\":9998:10813  contract PatientVerificator {... */\n    tag_6:\n      dataSize(sub_0)\n      dup1\n      dataOffset(sub_0)\n      0x00\n      codecopy\n      0x00\n      return\n    stop\n\n    sub_0: assembly {\n            /* \"ElectronicMedicalRecords.sol\":9998:10813  contract PatientVerificator {... */\n          mstore(0x40, 0x80)\n          callvalue\n          dup1\n          iszero\n          tag_1\n          jumpi\n          0x00\n          dup1\n          revert\n        tag_1:\n          pop\n          jumpi(tag_2, lt(calldatasize, 0x04))\n          shr(0xe0, calldataload(0x00))\n          dup1\n          0x18a231a9\n          eq\n          tag_3\n          jumpi\n          dup1\n          0x63a9c3d7\n          eq\n          tag_4\n          jumpi\n          dup1\n          0x6d263ceb\n          eq\n          tag_5\n          jumpi\n        tag_2:\n          0x00\n          dup1\n          revert\n            /* \"ElectronicMedicalRecords.sol\":10605:10722  function getAllPatients() onlyAdmin public view returns(address[] memory _address) {... */\n        tag_3:\n          tag_6\n          tag_7\n          jump\t// in\n        tag_6:\n          mload(0x40)\n          tag_8\n          swap2\n          swap1\n          tag_9\n          jump\t// in\n        tag_8:\n          mload(0x40)\n          dup1\n          swap2\n          sub\n          swap1\n          return\n            /* \"ElectronicMedicalRecords.sol\":10408:10597  function verify(address _address) public view returns(bool _bool) {... */\n        tag_4:\n          tag_10\n          0x04\n          dup1\n          calldatasize\n          sub\n          dup2\n          add\n          swap1\n          tag_11\n          swap2\n          swap1\n          tag_12\n          jump\t// in\n        tag_11:\n          tag_13\n          jump\t// in\n        tag_10:\n          mload(0x40)\n          tag_14\n          swap2\n          swap1\n          tag_15\n          jump\t// in\n        tag_14:\n          mload(0x40)\n          dup1\n          swap2\n          sub\n          swap1\n          return\n            /* \"ElectronicMedicalRecords.sol\":10226:10400  function addPatient(address _address) public {... */\n        tag_5:\n          tag_16\n          0x04\n          dup1\n          calldatasize\n          sub\n          dup2\n          add\n          swap1\n          tag_17\n          swap2\n          swap1\n          tag_12\n          jump\t// in\n        tag_17:\n          tag_18\n          jump\t// in\n        tag_16:\n          stop\n            /* \"ElectronicMedicalRecords.sol\":10605:10722  function getAllPatients() onlyAdmin public view returns(address[] memory _address) {... */\n        tag_7:\n            /* \"ElectronicMedicalRecords.sol\":10661:10686  address[] memory _address */\n          0x60\n            /* \"ElectronicMedicalRecords.sol\":10784:10789  admin */\n          0x00\n          dup1\n          sload\n          swap1\n          0x0100\n          exp\n          swap1\n          div\n          0xffffffffffffffffffffffffffffffffffffffff\n          and\n            /* \"ElectronicMedicalRecords.sol\":10770:10789  msg.sender == admin */\n          0xffffffffffffffffffffffffffffffffffffffff\n          and\n            /* \"ElectronicMedicalRecords.sol\":10770:10780  msg.sender */\n          caller\n            /* \"ElectronicMedicalRecords.sol\":10770:10789  msg.sender == admin */\n          0xffffffffffffffffffffffffffffffffffffffff\n          and\n          eq\n            /* \"ElectronicMedicalRecords.sol\":10762:10790  require(msg.sender == admin) */\n          tag_20\n          jumpi\n          0x00\n          dup1\n          revert\n        tag_20:\n            /* \"ElectronicMedicalRecords.sol\":10706:10714  patients */\n          0x01\n            /* \"ElectronicMedicalRecords.sol\":10699:10714  return patients */\n          dup1\n          sload\n          dup1\n          0x20\n          mul\n          0x20\n          add\n          mload(0x40)\n          swap1\n          dup2\n          add\n          0x40\n          mstore\n          dup1\n          swap3\n          swap2\n          swap1\n          dup2\n          dup2\n          mstore\n          0x20\n          add\n          dup3\n          dup1\n          sload\n          dup1\n          iszero\n          tag_22\n          jumpi\n          0x20\n          mul\n          dup3\n          add\n          swap2\n          swap1\n          0x00\n          mstore\n          keccak256(0x00, 0x20)\n          swap1\n        tag_23:\n          dup2\n          0x00\n          swap1\n          sload\n          swap1\n          0x0100\n          exp\n          swap1\n          div\n          0xffffffffffffffffffffffffffffffffffffffff\n          and\n          0xffffffffffffffffffffffffffffffffffffffff\n          and\n          dup2\n          mstore\n          0x20\n          add\n          swap1\n          0x01\n          add\n          swap1\n          dup1\n          dup4\n          gt\n          tag_23\n          jumpi\n        tag_22:\n          pop\n          pop\n          pop\n          pop\n          pop\n          swap1\n          pop\n            /* \"ElectronicMedicalRecords.sol\":10605:10722  function getAllPatients() onlyAdmin public view returns(address[] memory _address) {... */\n          swap1\n          jump\t// out\n            /* \"ElectronicMedicalRecords.sol\":10408:10597  function verify(address _address) public view returns(bool _bool) {... */\n        tag_13:\n            /* \"ElectronicMedicalRecords.sol\":10462:10472  bool _bool */\n          0x00\n            /* \"ElectronicMedicalRecords.sol\":10488:10495  patient */\n          0x02\n            /* \"ElectronicMedicalRecords.sol\":10488:10505  patient[_address] */\n          0x00\n            /* \"ElectronicMedicalRecords.sol\":10496:10504  _address */\n          dup4\n            /* \"ElectronicMedicalRecords.sol\":10488:10505  patient[_address] */\n          0xffffffffffffffffffffffffffffffffffffffff\n          and\n          0xffffffffffffffffffffffffffffffffffffffff\n          and\n          dup2\n          mstore\n          0x20\n          add\n          swap1\n          dup2\n          mstore\n          0x20\n          add\n          0x00\n          keccak256\n          0x00\n          swap1\n          sload\n          swap1\n          0x0100\n          exp\n          swap1\n          div\n          0xff\n          and\n            /* \"ElectronicMedicalRecords.sol\":10485:10590  if(patient[_address]) {... */\n          iszero\n          tag_25\n          jumpi\n            /* \"ElectronicMedicalRecords.sol\":10529:10533  true */\n          0x01\n            /* \"ElectronicMedicalRecords.sol\":10522:10533  return true */\n          swap1\n          pop\n          jump(tag_24)\n            /* \"ElectronicMedicalRecords.sol\":10485:10590  if(patient[_address]) {... */\n        tag_25:\n            /* \"ElectronicMedicalRecords.sol\":10573:10578  false */\n          0x00\n            /* \"ElectronicMedicalRecords.sol\":10566:10578  return false */\n          swap1\n          pop\n            /* \"ElectronicMedicalRecords.sol\":10408:10597  function verify(address _address) public view returns(bool _bool) {... */\n        tag_24:\n          swap2\n          swap1\n          pop\n          jump\t// out\n            /* \"ElectronicMedicalRecords.sol\":10226:10400  function addPatient(address _address) public {... */\n        tag_18:\n            /* \"ElectronicMedicalRecords.sol\":10291:10298  patient */\n          0x02\n            /* \"ElectronicMedicalRecords.sol\":10291:10308  patient[_address] */\n          0x00\n            /* \"ElectronicMedicalRecords.sol\":10299:10307  _address */\n          dup3\n            /* \"ElectronicMedicalRecords.sol\":10291:10308  patient[_address] */\n          0xffffffffffffffffffffffffffffffffffffffff\n          and\n          0xffffffffffffffffffffffffffffffffffffffff\n          and\n          dup2\n          mstore\n          0x20\n          add\n          swap1\n          dup2\n          mstore\n          0x20\n          add\n          0x00\n          keccak256\n          0x00\n          swap1\n          sload\n          swap1\n          0x0100\n          exp\n          swap1\n          div\n          0xff\n          and\n            /* \"ElectronicMedicalRecords.sol\":10290:10308  !patient[_address] */\n          iszero\n            /* \"ElectronicMedicalRecords.sol\":10282:10309  require(!patient[_address]) */\n          tag_28\n          jumpi\n          0x00\n          dup1\n          revert\n        tag_28:\n            /* \"ElectronicMedicalRecords.sol\":10346:10350  true */\n          0x01\n            /* \"ElectronicMedicalRecords.sol\":10326:10333  patient */\n          0x02\n            /* \"ElectronicMedicalRecords.sol\":10326:10343  patient[_address] */\n          0x00\n            /* \"ElectronicMedicalRecords.sol\":10334:10342  _address */\n          dup4\n            /* \"ElectronicMedicalRecords.sol\":10326:10343  patient[_address] */\n          0xffffffffffffffffffffffffffffffffffffffff\n          and\n          0xffffffffffffffffffffffffffffffffffffffff\n          and\n          dup2\n          mstore\n          0x20\n          add\n          swap1\n          dup2\n          mstore\n          0x20\n          add\n          0x00\n          keccak256\n          0x00\n            /* \"ElectronicMedicalRecords.sol\":10326:10350  patient[_address] = true */\n          0x0100\n          exp\n          dup2\n          sload\n          dup2\n          0xff\n          mul\n          not\n          and\n          swap1\n          dup4\n          iszero\n          iszero\n          mul\n          or\n          swap1\n          sstore\n          pop\n            /* \"ElectronicMedicalRecords.sol\":10361:10369  patients */\n          0x01\n            /* \"ElectronicMedicalRecords.sol\":10375:10383  _address */\n          dup2\n            /* \"ElectronicMedicalRecords.sol\":10361:10384  patients.push(_address) */\n          swap1\n          dup1\n          0x01\n          dup2\n          sload\n          add\n          dup1\n          dup3\n          sstore\n          dup1\n          swap2\n          pop\n          pop\n          0x01\n          swap1\n          sub\n          swap1\n          0x00\n          mstore\n          keccak256(0x00, 0x20)\n          add\n          0x00\n          swap1\n          swap2\n          swap1\n          swap2\n          swap1\n          swap2\n          0x0100\n          exp\n          dup2\n          sload\n          dup2\n          0xffffffffffffffffffffffffffffffffffffffff\n          mul\n          not\n          and\n          swap1\n          dup4\n          0xffffffffffffffffffffffffffffffffffffffff\n          and\n          mul\n          or\n          swap1\n          sstore\n          pop\n            /* \"ElectronicMedicalRecords.sol\":10226:10400  function addPatient(address _address) public {... */\n          pop\n          jump\t// out\n            /* \"#utility.yul\":7:121   */\n        tag_30:\n            /* \"#utility.yul\":74:80   */\n          0x00\n            /* \"#utility.yul\":108:113   */\n          dup2\n            /* \"#utility.yul\":102:114   */\n          mload\n            /* \"#utility.yul\":92:114   */\n          swap1\n          pop\n            /* \"#utility.yul\":7:121   */\n          swap2\n          swap1\n          pop\n          jump\t// out\n            /* \"#utility.yul\":127:311   */\n        tag_31:\n            /* \"#utility.yul\":226:237   */\n          0x00\n            /* \"#utility.yul\":260:266   */\n          dup3\n            /* \"#utility.yul\":255:258   */\n          dup3\n            /* \"#utility.yul\":248:267   */\n          mstore\n            /* \"#utility.yul\":300:304   */\n          0x20\n            /* \"#utility.yul\":295:298   */\n          dup3\n            /* \"#utility.yul\":291:305   */\n          add\n            /* \"#utility.yul\":276:305   */\n          swap1\n          pop\n            /* \"#utility.yul\":127:311   */\n          swap3\n          swap2\n          pop\n          pop\n          jump\t// out\n            /* \"#utility.yul\":317:449   */\n        tag_32:\n            /* \"#utility.yul\":384:388   */\n          0x00\n            /* \"#utility.yul\":407:410   */\n          dup2\n            /* \"#utility.yul\":399:410   */\n          swap1\n          pop\n            /* \"#utility.yul\":437:441   */\n          0x20\n            /* \"#utility.yul\":432:435   */\n          dup3\n            /* \"#utility.yul\":428:442   */\n          add\n            /* \"#utility.yul\":420:442   */\n          swap1\n          pop\n            /* \"#utility.yul\":317:449   */\n          swap2\n          swap1\n          pop\n          jump\t// out\n            /* \"#utility.yul\":455:581   */\n        tag_33:\n            /* \"#utility.yul\":492:499   */\n          0x00\n            /* \"#utility.yul\":532:574   */\n          0xffffffffffffffffffffffffffffffffffffffff\n            /* \"#utility.yul\":525:530   */\n          dup3\n            /* \"#utility.yul\":521:575   */\n          and\n            /* \"#utility.yul\":510:575   */\n          swap1\n          pop\n            /* \"#utility.yul\":455:581   */\n          swap2\n          swap1\n          pop\n          jump\t// out\n            /* \"#utility.yul\":587:683   */\n        tag_34:\n            /* \"#utility.yul\":624:631   */\n          0x00\n            /* \"#utility.yul\":653:677   */\n          tag_52\n            /* \"#utility.yul\":671:676   */\n          dup3\n            /* \"#utility.yul\":653:677   */\n          tag_33\n          jump\t// in\n        tag_52:\n            /* \"#utility.yul\":642:677   */\n          swap1\n          pop\n            /* \"#utility.yul\":587:683   */\n          swap2\n          swap1\n          pop\n          jump\t// out\n            /* \"#utility.yul\":689:797   */\n        tag_35:\n            /* \"#utility.yul\":766:790   */\n          tag_54\n            /* \"#utility.yul\":784:789   */\n          dup2\n            /* \"#utility.yul\":766:790   */\n          tag_34\n          jump\t// in\n        tag_54:\n            /* \"#utility.yul\":761:764   */\n          dup3\n            /* \"#utility.yul\":754:791   */\n          mstore\n            /* \"#utility.yul\":689:797   */\n          pop\n          pop\n          jump\t// out\n            /* \"#utility.yul\":803:982   */\n        tag_36:\n            /* \"#utility.yul\":872:882   */\n          0x00\n            /* \"#utility.yul\":893:939   */\n          tag_56\n            /* \"#utility.yul\":935:938   */\n          dup4\n            /* \"#utility.yul\":927:933   */\n          dup4\n            /* \"#utility.yul\":893:939   */\n          tag_35\n          jump\t// in\n        tag_56:\n            /* \"#utility.yul\":971:975   */\n          0x20\n            /* \"#utility.yul\":966:969   */\n          dup4\n            /* \"#utility.yul\":962:976   */\n          add\n            /* \"#utility.yul\":948:976   */\n          swap1\n          pop\n            /* \"#utility.yul\":803:982   */\n          swap3\n          swap2\n          pop\n          pop\n          jump\t// out\n            /* \"#utility.yul\":988:1101   */\n        tag_37:\n            /* \"#utility.yul\":1058:1062   */\n          0x00\n            /* \"#utility.yul\":1090:1094   */\n          0x20\n            /* \"#utility.yul\":1085:1088   */\n          dup3\n            /* \"#utility.yul\":1081:1095   */\n          add\n            /* \"#utility.yul\":1073:1095   */\n          swap1\n          pop\n            /* \"#utility.yul\":988:1101   */\n          swap2\n          swap1\n          pop\n          jump\t// out\n            /* \"#utility.yul\":1137:1869   */\n        tag_38:\n            /* \"#utility.yul\":1256:1259   */\n          0x00\n            /* \"#utility.yul\":1285:1339   */\n          tag_59\n            /* \"#utility.yul\":1333:1338   */\n          dup3\n            /* \"#utility.yul\":1285:1339   */\n          tag_30\n          jump\t// in\n        tag_59:\n            /* \"#utility.yul\":1355:1441   */\n          tag_60\n            /* \"#utility.yul\":1434:1440   */\n          dup2\n            /* \"#utility.yul\":1429:1432   */\n          dup6\n            /* \"#utility.yul\":1355:1441   */\n          tag_31\n          jump\t// in\n        tag_60:\n            /* \"#utility.yul\":1348:1441   */\n          swap4\n          pop\n            /* \"#utility.yul\":1465:1521   */\n          tag_61\n            /* \"#utility.yul\":1515:1520   */\n          dup4\n            /* \"#utility.yul\":1465:1521   */\n          tag_32\n          jump\t// in\n        tag_61:\n            /* \"#utility.yul\":1544:1551   */\n          dup1\n            /* \"#utility.yul\":1575:1576   */\n          0x00\n            /* \"#utility.yul\":1560:1844   */\n        tag_62:\n            /* \"#utility.yul\":1585:1591   */\n          dup4\n            /* \"#utility.yul\":1582:1583   */\n          dup2\n            /* \"#utility.yul\":1579:1592   */\n          lt\n            /* \"#utility.yul\":1560:1844   */\n          iszero\n          tag_64\n          jumpi\n            /* \"#utility.yul\":1661:1667   */\n          dup2\n            /* \"#utility.yul\":1655:1668   */\n          mload\n            /* \"#utility.yul\":1688:1751   */\n          tag_65\n            /* \"#utility.yul\":1747:1750   */\n          dup9\n            /* \"#utility.yul\":1732:1745   */\n          dup3\n            /* \"#utility.yul\":1688:1751   */\n          tag_36\n          jump\t// in\n        tag_65:\n            /* \"#utility.yul\":1681:1751   */\n          swap8\n          pop\n            /* \"#utility.yul\":1774:1834   */\n          tag_66\n            /* \"#utility.yul\":1827:1833   */\n          dup4\n            /* \"#utility.yul\":1774:1834   */\n          tag_37\n          jump\t// in\n        tag_66:\n            /* \"#utility.yul\":1764:1834   */\n          swap3\n          pop\n            /* \"#utility.yul\":1620:1844   */\n          pop\n            /* \"#utility.yul\":1607:1608   */\n          0x01\n            /* \"#utility.yul\":1604:1605   */\n          dup2\n            /* \"#utility.yul\":1600:1609   */\n          add\n            /* \"#utility.yul\":1595:1609   */\n          swap1\n          pop\n            /* \"#utility.yul\":1560:1844   */\n          jump(tag_62)\n        tag_64:\n            /* \"#utility.yul\":1564:1578   */\n          pop\n            /* \"#utility.yul\":1860:1863   */\n          dup6\n            /* \"#utility.yul\":1853:1863   */\n          swap4\n          pop\n            /* \"#utility.yul\":1261:1869   */\n          pop\n          pop\n          pop\n            /* \"#utility.yul\":1137:1869   */\n          swap3\n          swap2\n          pop\n          pop\n          jump\t// out\n            /* \"#utility.yul\":1875:2248   */\n        tag_9:\n            /* \"#utility.yul\":2018:2022   */\n          0x00\n            /* \"#utility.yul\":2056:2058   */\n          0x20\n            /* \"#utility.yul\":2045:2054   */\n          dup3\n            /* \"#utility.yul\":2041:2059   */\n          add\n            /* \"#utility.yul\":2033:2059   */\n          swap1\n          pop\n            /* \"#utility.yul\":2105:2114   */\n          dup2\n            /* \"#utility.yul\":2099:2103   */\n          dup2\n            /* \"#utility.yul\":2095:2115   */\n          sub\n            /* \"#utility.yul\":2091:2092   */\n          0x00\n            /* \"#utility.yul\":2080:2089   */\n          dup4\n            /* \"#utility.yul\":2076:2093   */\n          add\n            /* \"#utility.yul\":2069:2116   */\n          mstore\n            /* \"#utility.yul\":2133:2241   */\n          tag_68\n            /* \"#utility.yul\":2236:2240   */\n          dup2\n            /* \"#utility.yul\":2227:2233   */\n          dup5\n            /* \"#utility.yul\":2133:2241   */\n          tag_38\n          jump\t// in\n        tag_68:\n            /* \"#utility.yul\":2125:2241   */\n          swap1\n          pop\n            /* \"#utility.yul\":1875:2248   */\n          swap3\n          swap2\n          pop\n          pop\n          jump\t// out\n            /* \"#utility.yul\":2335:2452   */\n        tag_40:\n            /* \"#utility.yul\":2444:2445   */\n          0x00\n            /* \"#utility.yul\":2441:2442   */\n          dup1\n            /* \"#utility.yul\":2434:2446   */\n          revert\n            /* \"#utility.yul\":2581:2703   */\n        tag_42:\n            /* \"#utility.yul\":2654:2678   */\n          tag_73\n            /* \"#utility.yul\":2672:2677   */\n          dup2\n            /* \"#utility.yul\":2654:2678   */\n          tag_34\n          jump\t// in\n        tag_73:\n            /* \"#utility.yul\":2647:2652   */\n          dup2\n            /* \"#utility.yul\":2644:2679   */\n          eq\n            /* \"#utility.yul\":2634:2697   */\n          tag_74\n          jumpi\n            /* \"#utility.yul\":2693:2694   */\n          0x00\n            /* \"#utility.yul\":2690:2691   */\n          dup1\n            /* \"#utility.yul\":2683:2695   */\n          revert\n            /* \"#utility.yul\":2634:2697   */\n        tag_74:\n            /* \"#utility.yul\":2581:2703   */\n          pop\n          jump\t// out\n            /* \"#utility.yul\":2709:2848   */\n        tag_43:\n            /* \"#utility.yul\":2755:2760   */\n          0x00\n            /* \"#utility.yul\":2793:2799   */\n          dup2\n            /* \"#utility.yul\":2780:2800   */\n          calldataload\n            /* \"#utility.yul\":2771:2800   */\n          swap1\n          pop\n            /* \"#utility.yul\":2809:2842   */\n          tag_76\n            /* \"#utility.yul\":2836:2841   */\n          dup2\n            /* \"#utility.yul\":2809:2842   */\n          tag_42\n          jump\t// in\n        tag_76:\n            /* \"#utility.yul\":2709:2848   */\n          swap3\n          swap2\n          pop\n          pop\n          jump\t// out\n            /* \"#utility.yul\":2854:3183   */\n        tag_12:\n            /* \"#utility.yul\":2913:2919   */\n          0x00\n            /* \"#utility.yul\":2962:2964   */\n          0x20\n            /* \"#utility.yul\":2950:2959   */\n          dup3\n            /* \"#utility.yul\":2941:2948   */\n          dup5\n            /* \"#utility.yul\":2937:2960   */\n          sub\n            /* \"#utility.yul\":2933:2965   */\n          slt\n            /* \"#utility.yul\":2930:3049   */\n          iszero\n          tag_78\n          jumpi\n            /* \"#utility.yul\":2968:3047   */\n          tag_79\n          tag_40\n          jump\t// in\n        tag_79:\n            /* \"#utility.yul\":2930:3049   */\n        tag_78:\n            /* \"#utility.yul\":3088:3089   */\n          0x00\n            /* \"#utility.yul\":3113:3166   */\n          tag_80\n            /* \"#utility.yul\":3158:3165   */\n          dup5\n            /* \"#utility.yul\":3149:3155   */\n          dup3\n            /* \"#utility.yul\":3138:3147   */\n          dup6\n            /* \"#utility.yul\":3134:3156   */\n          add\n            /* \"#utility.yul\":3113:3166   */\n          tag_43\n          jump\t// in\n        tag_80:\n            /* \"#utility.yul\":3103:3166   */\n          swap2\n          pop\n            /* \"#utility.yul\":3059:3176   */\n          pop\n            /* \"#utility.yul\":2854:3183   */\n          swap3\n          swap2\n          pop\n          pop\n          jump\t// out\n            /* \"#utility.yul\":3189:3279   */\n        tag_44:\n            /* \"#utility.yul\":3223:3230   */\n          0x00\n            /* \"#utility.yul\":3266:3271   */\n          dup2\n            /* \"#utility.yul\":3259:3272   */\n          iszero\n            /* \"#utility.yul\":3252:3273   */\n          iszero\n            /* \"#utility.yul\":3241:3273   */\n          swap1\n          pop\n            /* \"#utility.yul\":3189:3279   */\n          swap2\n          swap1\n          pop\n          jump\t// out\n            /* \"#utility.yul\":3285:3394   */\n        tag_45:\n            /* \"#utility.yul\":3366:3387   */\n          tag_83\n            /* \"#utility.yul\":3381:3386   */\n          dup2\n            /* \"#utility.yul\":3366:3387   */\n          tag_44\n          jump\t// in\n        tag_83:\n            /* \"#utility.yul\":3361:3364   */\n          dup3\n            /* \"#utility.yul\":3354:3388   */\n          mstore\n            /* \"#utility.yul\":3285:3394   */\n          pop\n          pop\n          jump\t// out\n            /* \"#utility.yul\":3400:3610   */\n        tag_15:\n            /* \"#utility.yul\":3487:3491   */\n          0x00\n            /* \"#utility.yul\":3525:3527   */\n          0x20\n            /* \"#utility.yul\":3514:3523   */\n          dup3\n            /* \"#utility.yul\":3510:3528   */\n          add\n            /* \"#utility.yul\":3502:3528   */\n          swap1\n          pop\n            /* \"#utility.yul\":3538:3603   */\n          tag_85\n            /* \"#utility.yul\":3600:3601   */\n          0x00\n            /* \"#utility.yul\":3589:3598   */\n          dup4\n            /* \"#utility.yul\":3585:3602   */\n          add\n            /* \"#utility.yul\":3576:3582   */\n          dup5\n            /* \"#utility.yul\":3538:3603   */\n          tag_45\n          jump\t// in\n        tag_85:\n            /* \"#utility.yul\":3400:3610   */\n          swap3\n          swap2\n          pop\n          pop\n          jump\t// out\n\n        auxdata: 0xa26469706673582212204dddc2aa17d77f6cc21ccf5e8ad852c0ca0a2f03eec8f5cfeed6d4c397f8a19064736f6c63430008110033\n    }\n}\n\nsub_3: assembly {\n        /* \"ElectronicMedicalRecords.sol\":10817:11630  contract DoctorVerificator {... */\n      mstore(0x40, 0x80)\n        /* \"ElectronicMedicalRecords.sol\":10973:11034  constructor(address _admin) {... */\n      callvalue\n      dup1\n      iszero\n      tag_1\n      jumpi\n      0x00\n      dup1\n      revert\n    tag_1:\n      pop\n      mload(0x40)\n      sub(codesize, bytecodeSize)\n      dup1\n      bytecodeSize\n      dup4\n      codecopy\n      dup2\n      dup2\n      add\n      0x40\n      mstore\n      dup2\n      add\n      swap1\n      tag_2\n      swap2\n      swap1\n      tag_3\n      jump\t// in\n    tag_2:\n        /* \"ElectronicMedicalRecords.sol\":11020:11026  _admin */\n      dup1\n        /* \"ElectronicMedicalRecords.sol\":11012:11017  admin */\n      0x00\n      dup1\n        /* \"ElectronicMedicalRecords.sol\":11012:11026  admin = _admin */\n      0x0100\n      exp\n      dup2\n      sload\n      dup2\n      0xffffffffffffffffffffffffffffffffffffffff\n      mul\n      not\n      and\n      swap1\n      dup4\n      0xffffffffffffffffffffffffffffffffffffffff\n      and\n      mul\n      or\n      swap1\n      sstore\n      pop\n        /* \"ElectronicMedicalRecords.sol\":10973:11034  constructor(address _admin) {... */\n      pop\n        /* \"ElectronicMedicalRecords.sol\":10817:11630  contract DoctorVerificator {... */\n      jump(tag_6)\n        /* \"#utility.yul\":88:205   */\n    tag_8:\n        /* \"#utility.yul\":197:198   */\n      0x00\n        /* \"#utility.yul\":194:195   */\n      dup1\n        /* \"#utility.yul\":187:199   */\n      revert\n        /* \"#utility.yul\":334:460   */\n    tag_10:\n        /* \"#utility.yul\":371:378   */\n      0x00\n        /* \"#utility.yul\":411:453   */\n      0xffffffffffffffffffffffffffffffffffffffff\n        /* \"#utility.yul\":404:409   */\n      dup3\n        /* \"#utility.yul\":400:454   */\n      and\n        /* \"#utility.yul\":389:454   */\n      swap1\n      pop\n        /* \"#utility.yul\":334:460   */\n      swap2\n      swap1\n      pop\n      jump\t// out\n        /* \"#utility.yul\":466:562   */\n    tag_11:\n        /* \"#utility.yul\":503:510   */\n      0x00\n        /* \"#utility.yul\":532:556   */\n      tag_20\n        /* \"#utility.yul\":550:555   */\n      dup3\n        /* \"#utility.yul\":532:556   */\n      tag_10\n      jump\t// in\n    tag_20:\n        /* \"#utility.yul\":521:556   */\n      swap1\n      pop\n        /* \"#utility.yul\":466:562   */\n      swap2\n      swap1\n      pop\n      jump\t// out\n        /* \"#utility.yul\":568:690   */\n    tag_12:\n        /* \"#utility.yul\":641:665   */\n      tag_22\n        /* \"#utility.yul\":659:664   */\n      dup2\n        /* \"#utility.yul\":641:665   */\n      tag_11\n      jump\t// in\n    tag_22:\n        /* \"#utility.yul\":634:639   */\n      dup2\n        /* \"#utility.yul\":631:666   */\n      eq\n        /* \"#utility.yul\":621:684   */\n      tag_23\n      jumpi\n        /* \"#utility.yul\":680:681   */\n      0x00\n        /* \"#utility.yul\":677:678   */\n      dup1\n        /* \"#utility.yul\":670:682   */\n      revert\n        /* \"#utility.yul\":621:684   */\n    tag_23:\n        /* \"#utility.yul\":568:690   */\n      pop\n      jump\t// out\n        /* \"#utility.yul\":696:839   */\n    tag_13:\n        /* \"#utility.yul\":753:758   */\n      0x00\n        /* \"#utility.yul\":784:790   */\n      dup2\n        /* \"#utility.yul\":778:791   */\n      mload\n        /* \"#utility.yul\":769:791   */\n      swap1\n      pop\n        /* \"#utility.yul\":800:833   */\n      tag_25\n        /* \"#utility.yul\":827:832   */\n      dup2\n        /* \"#utility.yul\":800:833   */\n      tag_12\n      jump\t// in\n    tag_25:\n        /* \"#utility.yul\":696:839   */\n      swap3\n      swap2\n      pop\n      pop\n      jump\t// out\n        /* \"#utility.yul\":845:1196   */\n    tag_3:\n        /* \"#utility.yul\":915:921   */\n      0x00\n        /* \"#utility.yul\":964:966   */\n      0x20\n        /* \"#utility.yul\":952:961   */\n      dup3\n        /* \"#utility.yul\":943:950   */\n      dup5\n        /* \"#utility.yul\":939:962   */\n      sub\n        /* \"#utility.yul\":935:967   */\n      slt\n        /* \"#utility.yul\":932:1051   */\n      iszero\n      tag_27\n      jumpi\n        /* \"#utility.yul\":970:1049   */\n      tag_28\n      tag_8\n      jump\t// in\n    tag_28:\n        /* \"#utility.yul\":932:1051   */\n    tag_27:\n        /* \"#utility.yul\":1090:1091   */\n      0x00\n        /* \"#utility.yul\":1115:1179   */\n      tag_29\n        /* \"#utility.yul\":1171:1178   */\n      dup5\n        /* \"#utility.yul\":1162:1168   */\n      dup3\n        /* \"#utility.yul\":1151:1160   */\n      dup6\n        /* \"#utility.yul\":1147:1169   */\n      add\n        /* \"#utility.yul\":1115:1179   */\n      tag_13\n      jump\t// in\n    tag_29:\n        /* \"#utility.yul\":1105:1179   */\n      swap2\n      pop\n        /* \"#utility.yul\":1061:1189   */\n      pop\n        /* \"#utility.yul\":845:1196   */\n      swap3\n      swap2\n      pop\n      pop\n      jump\t// out\n        /* \"ElectronicMedicalRecords.sol\":10817:11630  contract DoctorVerificator {... */\n    tag_6:\n      dataSize(sub_0)\n      dup1\n      dataOffset(sub_0)\n      0x00\n      codecopy\n      0x00\n      return\n    stop\n\n    sub_0: assembly {\n            /* \"ElectronicMedicalRecords.sol\":10817:11630  contract DoctorVerificator {... */\n          mstore(0x40, 0x80)\n          callvalue\n          dup1\n          iszero\n          tag_1\n          jumpi\n          0x00\n          dup1\n          revert\n        tag_1:\n          pop\n          jumpi(tag_2, lt(calldatasize, 0x04))\n          shr(0xe0, calldataload(0x00))\n          dup1\n          0x4780468f\n          eq\n          tag_3\n          jumpi\n          dup1\n          0x63a9c3d7\n          eq\n          tag_4\n          jumpi\n          dup1\n          0xf0d95090\n          eq\n          tag_5\n          jumpi\n        tag_2:\n          0x00\n          dup1\n          revert\n            /* \"ElectronicMedicalRecords.sol\":11042:11220  function addDoctor(address _address) onlyAdmin public {... */\n        tag_3:\n          tag_6\n          0x04\n          dup1\n          calldatasize\n          sub\n          dup2\n          add\n          swap1\n          tag_7\n          swap2\n          swap1\n          tag_8\n          jump\t// in\n        tag_7:\n          tag_9\n          jump\t// in\n        tag_6:\n          stop\n            /* \"ElectronicMedicalRecords.sol\":11228:11416  function verify(address _address) public view returns(bool _bool) {... */\n        tag_4:\n          tag_10\n          0x04\n          dup1\n          calldatasize\n          sub\n          dup2\n          add\n          swap1\n          tag_11\n          swap2\n          swap1\n          tag_8\n          jump\t// in\n        tag_11:\n          tag_12\n          jump\t// in\n        tag_10:\n          mload(0x40)\n          tag_13\n          swap2\n          swap1\n          tag_14\n          jump\t// in\n        tag_13:\n          mload(0x40)\n          dup1\n          swap2\n          sub\n          swap1\n          return\n            /* \"ElectronicMedicalRecords.sol\":11424:11539  function getAllDoctors() onlyAdmin public view returns(address[] memory _address) {... */\n        tag_5:\n          tag_15\n          tag_16\n          jump\t// in\n        tag_15:\n          mload(0x40)\n          tag_17\n          swap2\n          swap1\n          tag_18\n          jump\t// in\n        tag_17:\n          mload(0x40)\n          dup1\n          swap2\n          sub\n          swap1\n          return\n            /* \"ElectronicMedicalRecords.sol\":11042:11220  function addDoctor(address _address) onlyAdmin public {... */\n        tag_9:\n            /* \"ElectronicMedicalRecords.sol\":11601:11606  admin */\n          0x00\n          dup1\n          sload\n          swap1\n          0x0100\n          exp\n          swap1\n          div\n          0xffffffffffffffffffffffffffffffffffffffff\n          and\n            /* \"ElectronicMedicalRecords.sol\":11587:11606  msg.sender == admin */\n          0xffffffffffffffffffffffffffffffffffffffff\n          and\n            /* \"ElectronicMedicalRecords.sol\":11587:11597  msg.sender */\n          caller\n            /* \"ElectronicMedicalRecords.sol\":11587:11606  msg.sender == admin */\n          0xffffffffffffffffffffffffffffffffffffffff\n          and\n          eq\n            /* \"ElectronicMedicalRecords.sol\":11579:11607  require(msg.sender == admin) */\n          tag_20\n          jumpi\n          0x00\n          dup1\n          revert\n        tag_20:\n            /* \"ElectronicMedicalRecords.sol\":11116:11122  doctor */\n          0x02\n            /* \"ElectronicMedicalRecords.sol\":11116:11132  doctor[_address] */\n          0x00\n            /* \"ElectronicMedicalRecords.sol\":11123:11131  _address */\n          dup3\n            /* \"ElectronicMedicalRecords.sol\":11116:11132  doctor[_address] */\n          0xffffffffffffffffffffffffffffffffffffffff\n          and\n          0xffffffffffffffffffffffffffffffffffffffff\n          and\n          dup2\n          mstore\n          0x20\n          add\n          swap1\n          dup2\n          mstore\n          0x20\n          add\n          0x00\n          keccak256\n          0x00\n          swap1\n          sload\n          swap1\n          0x0100\n          exp\n          swap1\n          div\n          0xff\n          and\n            /* \"ElectronicMedicalRecords.sol\":11115:11132  !doctor[_address] */\n          iszero\n            /* \"ElectronicMedicalRecords.sol\":11107:11133  require(!doctor[_address]) */\n          tag_22\n          jumpi\n          0x00\n          dup1\n          revert\n        tag_22:\n            /* \"ElectronicMedicalRecords.sol\":11169:11173  true */\n          0x01\n            /* \"ElectronicMedicalRecords.sol\":11150:11156  doctor */\n          0x02\n            /* \"ElectronicMedicalRecords.sol\":11150:11166  doctor[_address] */\n          0x00\n            /* \"ElectronicMedicalRecords.sol\":11157:11165  _address */\n          dup4\n            /* \"ElectronicMedicalRecords.sol\":11150:11166  doctor[_address] */\n          0xffffffffffffffffffffffffffffffffffffffff\n          and\n          0xffffffffffffffffffffffffffffffffffffffff\n          and\n          dup2\n          mstore\n          0x20\n          add\n          swap1\n          dup2\n          mstore\n          0x20\n          add\n          0x00\n          keccak256\n          0x00\n            /* \"ElectronicMedicalRecords.sol\":11150:11173  doctor[_address] = true */\n          0x0100\n          exp\n          dup2\n          sload\n          dup2\n          0xff\n          mul\n          not\n          and\n          swap1\n          dup4\n          iszero\n          iszero\n          mul\n          or\n          swap1\n          sstore\n          pop\n            /* \"ElectronicMedicalRecords.sol\":11184:11191  doctors */\n          0x01\n            /* \"ElectronicMedicalRecords.sol\":11197:11205  _address */\n          dup2\n            /* \"ElectronicMedicalRecords.sol\":11184:11206  doctors.push(_address) */\n          swap1\n          dup1\n          0x01\n          dup2\n          sload\n          add\n          dup1\n          dup3\n          sstore\n          dup1\n          swap2\n          pop\n          pop\n          0x01\n          swap1\n          sub\n          swap1\n          0x00\n          mstore\n          keccak256(0x00, 0x20)\n          add\n          0x00\n          swap1\n          swap2\n          swap1\n          swap2\n          swap1\n          swap2\n          0x0100\n          exp\n          dup2\n          sload\n          dup2\n          0xffffffffffffffffffffffffffffffffffffffff\n          mul\n          not\n          and\n          swap1\n          dup4\n          0xffffffffffffffffffffffffffffffffffffffff\n          and\n          mul\n          or\n          swap1\n          sstore\n          pop\n            /* \"ElectronicMedicalRecords.sol\":11042:11220  function addDoctor(address _address) onlyAdmin public {... */\n          pop\n          jump\t// out\n            /* \"ElectronicMedicalRecords.sol\":11228:11416  function verify(address _address) public view returns(bool _bool) {... */\n        tag_12:\n            /* \"ElectronicMedicalRecords.sol\":11282:11292  bool _bool */\n          0x00\n            /* \"ElectronicMedicalRecords.sol\":11308:11314  doctor */\n          0x02\n            /* \"ElectronicMedicalRecords.sol\":11308:11324  doctor[_address] */\n          0x00\n            /* \"ElectronicMedicalRecords.sol\":11315:11323  _address */\n          dup4\n            /* \"ElectronicMedicalRecords.sol\":11308:11324  doctor[_address] */\n          0xffffffffffffffffffffffffffffffffffffffff\n          and\n          0xffffffffffffffffffffffffffffffffffffffff\n          and\n          dup2\n          mstore\n          0x20\n          add\n          swap1\n          dup2\n          mstore\n          0x20\n          add\n          0x00\n          keccak256\n          0x00\n          swap1\n          sload\n          swap1\n          0x0100\n          exp\n          swap1\n          div\n          0xff\n          and\n            /* \"ElectronicMedicalRecords.sol\":11305:11409  if(doctor[_address]) {... */\n          iszero\n          tag_25\n          jumpi\n            /* \"ElectronicMedicalRecords.sol\":11348:11352  true */\n          0x01\n            /* \"ElectronicMedicalRecords.sol\":11341:11352  return true */\n          swap1\n          pop\n          jump(tag_24)\n            /* \"ElectronicMedicalRecords.sol\":11305:11409  if(doctor[_address]) {... */\n        tag_25:\n            /* \"ElectronicMedicalRecords.sol\":11392:11397  false */\n          0x00\n            /* \"ElectronicMedicalRecords.sol\":11385:11397  return false */\n          swap1\n          pop\n            /* \"ElectronicMedicalRecords.sol\":11228:11416  function verify(address _address) public view returns(bool _bool) {... */\n        tag_24:\n          swap2\n          swap1\n          pop\n          jump\t// out\n            /* \"ElectronicMedicalRecords.sol\":11424:11539  function getAllDoctors() onlyAdmin public view returns(address[] memory _address) {... */\n        tag_16:\n            /* \"ElectronicMedicalRecords.sol\":11479:11504  address[] memory _address */\n          0x60\n            /* \"ElectronicMedicalRecords.sol\":11601:11606  admin */\n          0x00\n          dup1\n          sload\n          swap1\n          0x0100\n          exp\n          swap1\n          div\n          0xffffffffffffffffffffffffffffffffffffffff\n          and\n            /* \"ElectronicMedicalRecords.sol\":11587:11606  msg.sender == admin */\n          0xffffffffffffffffffffffffffffffffffffffff\n          and\n            /* \"ElectronicMedicalRecords.sol\":11587:11597  msg.sender */\n          caller\n            /* \"ElectronicMedicalRecords.sol\":11587:11606  msg.sender == admin */\n          0xffffffffffffffffffffffffffffffffffffffff\n          and\n          eq\n            /* \"ElectronicMedicalRecords.sol\":11579:11607  require(msg.sender == admin) */\n          tag_28\n          jumpi\n          0x00\n          dup1\n          revert\n        tag_28:\n            /* \"ElectronicMedicalRecords.sol\":11524:11531  doctors */\n          0x01\n            /* \"ElectronicMedicalRecords.sol\":11517:11531  return doctors */\n          dup1\n          sload\n          dup1\n          0x20\n          mul\n          0x20\n          add\n          mload(0x40)\n          swap1\n          dup2\n          add\n          0x40\n          mstore\n          dup1\n          swap3\n          swap2\n          swap1\n          dup2\n          dup2\n          mstore\n          0x20\n          add\n          dup3\n          dup1\n          sload\n          dup1\n          iszero\n          tag_30\n          jumpi\n          0x20\n          mul\n          dup3\n          add\n          swap2\n          swap1\n          0x00\n          mstore\n          keccak256(0x00, 0x20)\n          swap1\n        tag_31:\n          dup2\n          0x00\n          swap1\n          sload\n          swap1\n          0x0100\n          exp\n          swap1\n          div\n          0xffffffffffffffffffffffffffffffffffffffff\n          and\n          0xffffffffffffffffffffffffffffffffffffffff\n          and\n          dup2\n          mstore\n          0x20\n          add\n          swap1\n          0x01\n          add\n          swap1\n          dup1\n          dup4\n          gt\n          tag_31\n          jumpi\n        tag_30:\n          pop\n          pop\n          pop\n          pop\n          pop\n          swap1\n          pop\n            /* \"ElectronicMedicalRecords.sol\":11424:11539  function getAllDoctors() onlyAdmin public view returns(address[] memory _address) {... */\n          swap1\n          jump\t// out\n            /* \"#utility.yul\":88:205   */\n        tag_33:\n            /* \"#utility.yul\":197:198   */\n          0x00\n            /* \"#utility.yul\":194:195   */\n          dup1\n            /* \"#utility.yul\":187:199   */\n          revert\n            /* \"#utility.yul\":334:460   */\n        tag_35:\n            /* \"#utility.yul\":371:378   */\n          0x00\n            /* \"#utility.yul\":411:453   */\n          0xffffffffffffffffffffffffffffffffffffffff\n            /* \"#utility.yul\":404:409   */\n          dup3\n            /* \"#utility.yul\":400:454   */\n          and\n            /* \"#utility.yul\":389:454   */\n          swap1\n          pop\n            /* \"#utility.yul\":334:460   */\n          swap2\n          swap1\n          pop\n          jump\t// out\n            /* \"#utility.yul\":466:562   */\n        tag_36:\n            /* \"#utility.yul\":503:510   */\n          0x00\n            /* \"#utility.yul\":532:556   */\n          tag_54\n            /* \"#utility.yul\":550:555   */\n          dup3\n            /* \"#utility.yul\":532:556   */\n          tag_35\n          jump\t// in\n        tag_54:\n            /* \"#utility.yul\":521:556   */\n          swap1\n          pop\n            /* \"#utility.yul\":466:562   */\n          swap2\n          swap1\n          pop\n          jump\t// out\n            /* \"#utility.yul\":568:690   */\n        tag_37:\n            /* \"#utility.yul\":641:665   */\n          tag_56\n            /* \"#utility.yul\":659:664   */\n          dup2\n            /* \"#utility.yul\":641:665   */\n          tag_36\n          jump\t// in\n        tag_56:\n            /* \"#utility.yul\":634:639   */\n          dup2\n            /* \"#utility.yul\":631:666   */\n          eq\n            /* \"#utility.yul\":621:684   */\n          tag_57\n          jumpi\n            /* \"#utility.yul\":680:681   */\n          0x00\n            /* \"#utility.yul\":677:678   */\n          dup1\n            /* \"#utility.yul\":670:682   */\n          revert\n            /* \"#utility.yul\":621:684   */\n        tag_57:\n            /* \"#utility.yul\":568:690   */\n          pop\n          jump\t// out\n            /* \"#utility.yul\":696:835   */\n        tag_38:\n            /* \"#utility.yul\":742:747   */\n          0x00\n            /* \"#utility.yul\":780:786   */\n          dup2\n            /* \"#utility.yul\":767:787   */\n          calldataload\n            /* \"#utility.yul\":758:787   */\n          swap1\n          pop\n            /* \"#utility.yul\":796:829   */\n          tag_59\n            /* \"#utility.yul\":823:828   */\n          dup2\n            /* \"#utility.yul\":796:829   */\n          tag_37\n          jump\t// in\n        tag_59:\n            /* \"#utility.yul\":696:835   */\n          swap3\n          swap2\n          pop\n          pop\n          jump\t// out\n            /* \"#utility.yul\":841:1170   */\n        tag_8:\n            /* \"#utility.yul\":900:906   */\n          0x00\n            /* \"#utility.yul\":949:951   */\n          0x20\n            /* \"#utility.yul\":937:946   */\n          dup3\n            /* \"#utility.yul\":928:935   */\n          dup5\n            /* \"#utility.yul\":924:947   */\n          sub\n            /* \"#utility.yul\":920:952   */\n          slt\n            /* \"#utility.yul\":917:1036   */\n          iszero\n          tag_61\n          jumpi\n            /* \"#utility.yul\":955:1034   */\n          tag_62\n          tag_33\n          jump\t// in\n        tag_62:\n            /* \"#utility.yul\":917:1036   */\n        tag_61:\n            /* \"#utility.yul\":1075:1076   */\n          0x00\n            /* \"#utility.yul\":1100:1153   */\n          tag_63\n            /* \"#utility.yul\":1145:1152   */\n          dup5\n            /* \"#utility.yul\":1136:1142   */\n          dup3\n            /* \"#utility.yul\":1125:1134   */\n          dup6\n            /* \"#utility.yul\":1121:1143   */\n          add\n            /* \"#utility.yul\":1100:1153   */\n          tag_38\n          jump\t// in\n        tag_63:\n            /* \"#utility.yul\":1090:1153   */\n          swap2\n          pop\n            /* \"#utility.yul\":1046:1163   */\n          pop\n            /* \"#utility.yul\":841:1170   */\n          swap3\n          swap2\n          pop\n          pop\n          jump\t// out\n            /* \"#utility.yul\":1176:1266   */\n        tag_39:\n            /* \"#utility.yul\":1210:1217   */\n          0x00\n            /* \"#utility.yul\":1253:1258   */\n          dup2\n            /* \"#utility.yul\":1246:1259   */\n          iszero\n            /* \"#utility.yul\":1239:1260   */\n          iszero\n            /* \"#utility.yul\":1228:1260   */\n          swap1\n          pop\n            /* \"#utility.yul\":1176:1266   */\n          swap2\n          swap1\n          pop\n          jump\t// out\n            /* \"#utility.yul\":1272:1381   */\n        tag_40:\n            /* \"#utility.yul\":1353:1374   */\n          tag_66\n            /* \"#utility.yul\":1368:1373   */\n          dup2\n            /* \"#utility.yul\":1353:1374   */\n          tag_39\n          jump\t// in\n        tag_66:\n            /* \"#utility.yul\":1348:1351   */\n          dup3\n            /* \"#utility.yul\":1341:1375   */\n          mstore\n            /* \"#utility.yul\":1272:1381   */\n          pop\n          pop\n          jump\t// out\n            /* \"#utility.yul\":1387:1597   */\n        tag_14:\n            /* \"#utility.yul\":1474:1478   */\n          0x00\n            /* \"#utility.yul\":1512:1514   */\n          0x20\n            /* \"#utility.yul\":1501:1510   */\n          dup3\n            /* \"#utility.yul\":1497:1515   */\n          add\n            /* \"#utility.yul\":1489:1515   */\n          swap1\n          pop\n            /* \"#utility.yul\":1525:1590   */\n          tag_68\n            /* \"#utility.yul\":1587:1588   */\n          0x00\n            /* \"#utility.yul\":1576:1585   */\n          dup4\n            /* \"#utility.yul\":1572:1589   */\n          add\n            /* \"#utility.yul\":1563:1569   */\n          dup5\n            /* \"#utility.yul\":1525:1590   */\n          tag_40\n          jump\t// in\n        tag_68:\n            /* \"#utility.yul\":1387:1597   */\n          swap3\n          swap2\n          pop\n          pop\n          jump\t// out\n            /* \"#utility.yul\":1603:1717   */\n        tag_41:\n            /* \"#utility.yul\":1670:1676   */\n          0x00\n            /* \"#utility.yul\":1704:1709   */\n          dup2\n            /* \"#utility.yul\":1698:1710   */\n          mload\n            /* \"#utility.yul\":1688:1710   */\n          swap1\n          pop\n            /* \"#utility.yul\":1603:1717   */\n          swap2\n          swap1\n          pop\n          jump\t// out\n            /* \"#utility.yul\":1723:1907   */\n        tag_42:\n            /* \"#utility.yul\":1822:1833   */\n          0x00\n            /* \"#utility.yul\":1856:1862   */\n          dup3\n            /* \"#utility.yul\":1851:1854   */\n          dup3\n            /* \"#utility.yul\":1844:1863   */\n          mstore\n            /* \"#utility.yul\":1896:1900   */\n          0x20\n            /* \"#utility.yul\":1891:1894   */\n          dup3\n            /* \"#utility.yul\":1887:1901   */\n          add\n            /* \"#utility.yul\":1872:1901   */\n          swap1\n          pop\n            /* \"#utility.yul\":1723:1907   */\n          swap3\n          swap2\n          pop\n          pop\n          jump\t// out\n            /* \"#utility.yul\":1913:2045   */\n        tag_43:\n            /* \"#utility.yul\":1980:1984   */\n          0x00\n            /* \"#utility.yul\":2003:2006   */\n          dup2\n            /* \"#utility.yul\":1995:2006   */\n          swap1\n          pop\n            /* \"#utility.yul\":2033:2037   */\n          0x20\n            /* \"#utility.yul\":2028:2031   */\n          dup3\n            /* \"#utility.yul\":2024:2038   */\n          add\n            /* \"#utility.yul\":2016:2038   */\n          swap1\n          pop\n            /* \"#utility.yul\":1913:2045   */\n          swap2\n          swap1\n          pop\n          jump\t// out\n            /* \"#utility.yul\":2051:2159   */\n        tag_44:\n            /* \"#utility.yul\":2128:2152   */\n          tag_73\n            /* \"#utility.yul\":2146:2151   */\n          dup2\n            /* \"#utility.yul\":2128:2152   */\n          tag_36\n          jump\t// in\n        tag_73:\n            /* \"#utility.yul\":2123:2126   */\n          dup3\n            /* \"#utility.yul\":2116:2153   */\n          mstore\n            /* \"#utility.yul\":2051:2159   */\n          pop\n          pop\n          jump\t// out\n            /* \"#utility.yul\":2165:2344   */\n        tag_45:\n            /* \"#utility.yul\":2234:2244   */\n          0x00\n            /* \"#utility.yul\":2255:2301   */\n          tag_75\n            /* \"#utility.yul\":2297:2300   */\n          dup4\n            /* \"#utility.yul\":2289:2295   */\n          dup4\n            /* \"#utility.yul\":2255:2301   */\n          tag_44\n          jump\t// in\n        tag_75:\n            /* \"#utility.yul\":2333:2337   */\n          0x20\n            /* \"#utility.yul\":2328:2331   */\n          dup4\n            /* \"#utility.yul\":2324:2338   */\n          add\n            /* \"#utility.yul\":2310:2338   */\n          swap1\n          pop\n            /* \"#utility.yul\":2165:2344   */\n          swap3\n          swap2\n          pop\n          pop\n          jump\t// out\n            /* \"#utility.yul\":2350:2463   */\n        tag_46:\n            /* \"#utility.yul\":2420:2424   */\n          0x00\n            /* \"#utility.yul\":2452:2456   */\n          0x20\n            /* \"#utility.yul\":2447:2450   */\n          dup3\n            /* \"#utility.yul\":2443:2457   */\n          add\n            /* \"#utility.yul\":2435:2457   */\n          swap1\n          pop\n            /* \"#utility.yul\":2350:2463   */\n          swap2\n          swap1\n          pop\n          jump\t// out\n            /* \"#utility.yul\":2499:3231   */\n        tag_47:\n            /* \"#utility.yul\":2618:2621   */\n          0x00\n            /* \"#utility.yul\":2647:2701   */\n          tag_78\n            /* \"#utility.yul\":2695:2700   */\n          dup3\n            /* \"#utility.yul\":2647:2701   */\n          tag_41\n          jump\t// in\n        tag_78:\n            /* \"#utility.yul\":2717:2803   */\n          tag_79\n            /* \"#utility.yul\":2796:2802   */\n          dup2\n            /* \"#utility.yul\":2791:2794   */\n          dup6\n            /* \"#utility.yul\":2717:2803   */\n          tag_42\n          jump\t// in\n        tag_79:\n            /* \"#utility.yul\":2710:2803   */\n          swap4\n          pop\n            /* \"#utility.yul\":2827:2883   */\n          tag_80\n            /* \"#utility.yul\":2877:2882   */\n          dup4\n            /* \"#utility.yul\":2827:2883   */\n          tag_43\n          jump\t// in\n        tag_80:\n            /* \"#utility.yul\":2906:2913   */\n          dup1\n            /* \"#utility.yul\":2937:2938   */\n          0x00\n            /* \"#utility.yul\":2922:3206   */\n        tag_81:\n            /* \"#utility.yul\":2947:2953   */\n          dup4\n            /* \"#utility.yul\":2944:2945   */\n          dup2\n            /* \"#utility.yul\":2941:2954   */\n          lt\n            /* \"#utility.yul\":2922:3206   */\n          iszero\n          tag_83\n          jumpi\n            /* \"#utility.yul\":3023:3029   */\n          dup2\n            /* \"#utility.yul\":3017:3030   */\n          mload\n            /* \"#utility.yul\":3050:3113   */\n          tag_84\n            /* \"#utility.yul\":3109:3112   */\n          dup9\n            /* \"#utility.yul\":3094:3107   */\n          dup3\n            /* \"#utility.yul\":3050:3113   */\n          tag_45\n          jump\t// in\n        tag_84:\n            /* \"#utility.yul\":3043:3113   */\n          swap8\n          pop\n            /* \"#utility.yul\":3136:3196   */\n          tag_85\n            /* \"#utility.yul\":3189:3195   */\n          dup4\n            /* \"#utility.yul\":3136:3196   */\n          tag_46\n          jump\t// in\n        tag_85:\n            /* \"#utility.yul\":3126:3196   */\n          swap3\n          pop\n            /* \"#utility.yul\":2982:3206   */\n          pop\n            /* \"#utility.yul\":2969:2970   */\n          0x01\n            /* \"#utility.yul\":2966:2967   */\n          dup2\n            /* \"#utility.yul\":2962:2971   */\n          add\n            /* \"#utility.yul\":2957:2971   */\n          swap1\n          pop\n            /* \"#utility.yul\":2922:3206   */\n          jump(tag_81)\n        tag_83:\n            /* \"#utility.yul\":2926:2940   */\n          pop\n            /* \"#utility.yul\":3222:3225   */\n          dup6\n            /* \"#utility.yul\":3215:3225   */\n          swap4\n          pop\n            /* \"#utility.yul\":2623:3231   */\n          pop\n          pop\n          pop\n            /* \"#utility.yul\":2499:3231   */\n          swap3\n          swap2\n          pop\n          pop\n          jump\t// out\n            /* \"#utility.yul\":3237:3610   */\n        tag_18:\n            /* \"#utility.yul\":3380:3384   */\n          0x00\n            /* \"#utility.yul\":3418:3420   */\n          0x20\n            /* \"#utility.yul\":3407:3416   */\n          dup3\n            /* \"#utility.yul\":3403:3421   */\n          add\n            /* \"#utility.yul\":3395:3421   */\n          swap1\n          pop\n            /* \"#utility.yul\":3467:3476   */\n          dup2\n            /* \"#utility.yul\":3461:3465   */\n          dup2\n            /* \"#utility.yul\":3457:3477   */\n          sub\n            /* \"#utility.yul\":3453:3454   */\n          0x00\n            /* \"#utility.yul\":3442:3451   */\n          dup4\n            /* \"#utility.yul\":3438:3455   */\n          add\n            /* \"#utility.yul\":3431:3478   */\n          mstore\n            /* \"#utility.yul\":3495:3603   */\n          tag_87\n            /* \"#utility.yul\":3598:3602   */\n          dup2\n            /* \"#utility.yul\":3589:3595   */\n          dup5\n            /* \"#utility.yul\":3495:3603   */\n          tag_47\n          jump\t// in\n        tag_87:\n            /* \"#utility.yul\":3487:3603   */\n          swap1\n          pop\n            /* \"#utility.yul\":3237:3610   */\n          swap3\n          swap2\n          pop\n          pop\n          jump\t// out\n\n        auxdata: 0xa2646970667358221220545420232e2949d5dcce0dea5e86b35c434649125a1d2967443d4eeb1c69fb9064736f6c63430008110033\n    }\n}\n\nsub_4: assembly {\n        /* \"ElectronicMedicalRecords.sol\":11634:12498  contract DoctorRelation {... */\n      mstore(0x40, 0x80)\n        /* \"ElectronicMedicalRecords.sol\":11790:11851  constructor(address _admin) {... */\n      callvalue\n      dup1\n      iszero\n      tag_1\n      jumpi\n      0x00\n      dup1\n      revert\n    tag_1:\n      pop\n      mload(0x40)\n      sub(codesize, bytecodeSize)\n      dup1\n      bytecodeSize\n      dup4\n      codecopy\n      dup2\n      dup2\n      add\n      0x40\n      mstore\n      dup2\n      add\n      swap1\n      tag_2\n      swap2\n      swap1\n      tag_3\n      jump\t// in\n    tag_2:\n        /* \"ElectronicMedicalRecords.sol\":11837:11843  _admin */\n      dup1\n        /* \"ElectronicMedicalRecords.sol\":11829:11834  admin */\n      0x00\n      dup1\n        /* \"ElectronicMedicalRecords.sol\":11829:11843  admin = _admin */\n      0x0100\n      exp\n      dup2\n      sload\n      dup2\n      0xffffffffffffffffffffffffffffffffffffffff\n      mul\n      not\n      and\n      swap1\n      dup4\n      0xffffffffffffffffffffffffffffffffffffffff\n      and\n      mul\n      or\n      swap1\n      sstore\n      pop\n        /* \"ElectronicMedicalRecords.sol\":11790:11851  constructor(address _admin) {... */\n      pop\n        /* \"ElectronicMedicalRecords.sol\":11634:12498  contract DoctorRelation {... */\n      jump(tag_6)\n        /* \"#utility.yul\":88:205   */\n    tag_8:\n        /* \"#utility.yul\":197:198   */\n      0x00\n        /* \"#utility.yul\":194:195   */\n      dup1\n        /* \"#utility.yul\":187:199   */\n      revert\n        /* \"#utility.yul\":334:460   */\n    tag_10:\n        /* \"#utility.yul\":371:378   */\n      0x00\n        /* \"#utility.yul\":411:453   */\n      0xffffffffffffffffffffffffffffffffffffffff\n        /* \"#utility.yul\":404:409   */\n      dup3\n        /* \"#utility.yul\":400:454   */\n      and\n        /* \"#utility.yul\":389:454   */\n      swap1\n      pop\n        /* \"#utility.yul\":334:460   */\n      swap2\n      swap1\n      pop\n      jump\t// out\n        /* \"#utility.yul\":466:562   */\n    tag_11:\n        /* \"#utility.yul\":503:510   */\n      0x00\n        /* \"#utility.yul\":532:556   */\n      tag_20\n        /* \"#utility.yul\":550:555   */\n      dup3\n        /* \"#utility.yul\":532:556   */\n      tag_10\n      jump\t// in\n    tag_20:\n        /* \"#utility.yul\":521:556   */\n      swap1\n      pop\n        /* \"#utility.yul\":466:562   */\n      swap2\n      swap1\n      pop\n      jump\t// out\n        /* \"#utility.yul\":568:690   */\n    tag_12:\n        /* \"#utility.yul\":641:665   */\n      tag_22\n        /* \"#utility.yul\":659:664   */\n      dup2\n        /* \"#utility.yul\":641:665   */\n      tag_11\n      jump\t// in\n    tag_22:\n        /* \"#utility.yul\":634:639   */\n      dup2\n        /* \"#utility.yul\":631:666   */\n      eq\n        /* \"#utility.yul\":621:684   */\n      tag_23\n      jumpi\n        /* \"#utility.yul\":680:681   */\n      0x00\n        /* \"#utility.yul\":677:678   */\n      dup1\n        /* \"#utility.yul\":670:682   */\n      revert\n        /* \"#utility.yul\":621:684   */\n    tag_23:\n        /* \"#utility.yul\":568:690   */\n      pop\n      jump\t// out\n        /* \"#utility.yul\":696:839   */\n    tag_13:\n        /* \"#utility.yul\":753:758   */\n      0x00\n        /* \"#utility.yul\":784:790   */\n      dup2\n        /* \"#utility.yul\":778:791   */\n      mload\n        /* \"#utility.yul\":769:791   */\n      swap1\n      pop\n        /* \"#utility.yul\":800:833   */\n      tag_25\n        /* \"#utility.yul\":827:832   */\n      dup2\n        /* \"#utility.yul\":800:833   */\n      tag_12\n      jump\t// in\n    tag_25:\n        /* \"#utility.yul\":696:839   */\n      swap3\n      swap2\n      pop\n      pop\n      jump\t// out\n        /* \"#utility.yul\":845:1196   */\n    tag_3:\n        /* \"#utility.yul\":915:921   */\n      0x00\n        /* \"#utility.yul\":964:966   */\n      0x20\n        /* \"#utility.yul\":952:961   */\n      dup3\n        /* \"#utility.yul\":943:950   */\n      dup5\n        /* \"#utility.yul\":939:962   */\n      sub\n        /* \"#utility.yul\":935:967   */\n      slt\n        /* \"#utility.yul\":932:1051   */\n      iszero\n      tag_27\n      jumpi\n        /* \"#utility.yul\":970:1049   */\n      tag_28\n      tag_8\n      jump\t// in\n    tag_28:\n        /* \"#utility.yul\":932:1051   */\n    tag_27:\n        /* \"#utility.yul\":1090:1091   */\n      0x00\n        /* \"#utility.yul\":1115:1179   */\n      tag_29\n        /* \"#utility.yul\":1171:1178   */\n      dup5\n        /* \"#utility.yul\":1162:1168   */\n      dup3\n        /* \"#utility.yul\":1151:1160   */\n      dup6\n        /* \"#utility.yul\":1147:1169   */\n      add\n        /* \"#utility.yul\":1115:1179   */\n      tag_13\n      jump\t// in\n    tag_29:\n        /* \"#utility.yul\":1105:1179   */\n      swap2\n      pop\n        /* \"#utility.yul\":1061:1189   */\n      pop\n        /* \"#utility.yul\":845:1196   */\n      swap3\n      swap2\n      pop\n      pop\n      jump\t// out\n        /* \"ElectronicMedicalRecords.sol\":11634:12498  contract DoctorRelation {... */\n    tag_6:\n      dataSize(sub_0)\n      dup1\n      dataOffset(sub_0)\n      0x00\n      codecopy\n      0x00\n      return\n    stop\n\n    sub_0: assembly {\n            /* \"ElectronicMedicalRecords.sol\":11634:12498  contract DoctorRelation {... */\n          mstore(0x40, 0x80)\n          callvalue\n          dup1\n          iszero\n          tag_1\n          jumpi\n          0x00\n          dup1\n          revert\n        tag_1:\n          pop\n          jumpi(tag_2, lt(calldatasize, 0x04))\n          shr(0xe0, calldataload(0x00))\n          dup1\n          0x1107747e\n          eq\n          tag_3\n          jumpi\n          dup1\n          0x8bfc8c71\n          eq\n          tag_4\n          jumpi\n          dup1\n          0xf40941d0\n          eq\n          tag_5\n          jumpi\n        tag_2:\n          0x00\n          dup1\n          revert\n            /* \"ElectronicMedicalRecords.sol\":11859:12061  function setDoctorVerificatorAddress(address _DoctorVerificatorAddress) public {... */\n        tag_3:\n          tag_6\n          0x04\n          dup1\n          calldatasize\n          sub\n          dup2\n          add\n          swap1\n          tag_7\n          swap2\n          swap1\n          tag_8\n          jump\t// in\n        tag_7:\n          tag_9\n          jump\t// in\n        tag_6:\n          stop\n            /* \"ElectronicMedicalRecords.sol\":12069:12214  function addDoctorRelation(address _doctor, address _patient) onlyDoctor(_doctor) public {... */\n        tag_4:\n          tag_10\n          0x04\n          dup1\n          calldatasize\n          sub\n          dup2\n          add\n          swap1\n          tag_11\n          swap2\n          swap1\n          tag_12\n          jump\t// in\n        tag_11:\n          tag_13\n          jump\t// in\n        tag_10:\n          stop\n            /* \"ElectronicMedicalRecords.sol\":12222:12376  function getDoctorRelations(address _doctor) public view onlyDoctor(msg.sender) returns(address[] memory) {... */\n        tag_5:\n          tag_14\n          0x04\n          dup1\n          calldatasize\n          sub\n          dup2\n          add\n          swap1\n          tag_15\n          swap2\n          swap1\n          tag_8\n          jump\t// in\n        tag_15:\n          tag_16\n          jump\t// in\n        tag_14:\n          mload(0x40)\n          tag_17\n          swap2\n          swap1\n          tag_18\n          jump\t// in\n        tag_17:\n          mload(0x40)\n          dup1\n          swap2\n          sub\n          swap1\n          return\n            /* \"ElectronicMedicalRecords.sol\":11859:12061  function setDoctorVerificatorAddress(address _DoctorVerificatorAddress) public {... */\n        tag_9:\n            /* \"ElectronicMedicalRecords.sol\":11971:11976  admin */\n          0x00\n          dup1\n          sload\n          swap1\n          0x0100\n          exp\n          swap1\n          div\n          0xffffffffffffffffffffffffffffffffffffffff\n          and\n            /* \"ElectronicMedicalRecords.sol\":11957:11976  msg.sender == admin */\n          0xffffffffffffffffffffffffffffffffffffffff\n          and\n            /* \"ElectronicMedicalRecords.sol\":11957:11967  msg.sender */\n          caller\n            /* \"ElectronicMedicalRecords.sol\":11957:11976  msg.sender == admin */\n          0xffffffffffffffffffffffffffffffffffffffff\n          and\n          eq\n            /* \"ElectronicMedicalRecords.sol\":11949:11977  require(msg.sender == admin) */\n          tag_20\n          jumpi\n          0x00\n          dup1\n          revert\n        tag_20:\n            /* \"ElectronicMedicalRecords.sol\":12027:12052  _DoctorVerificatorAddress */\n          dup1\n            /* \"ElectronicMedicalRecords.sol\":11988:12006  doctor_verificator */\n          0x02\n          0x00\n            /* \"ElectronicMedicalRecords.sol\":11988:12053  doctor_verificator = DoctorVerificator(_DoctorVerificatorAddress) */\n          0x0100\n          exp\n          dup2\n          sload\n          dup2\n          0xffffffffffffffffffffffffffffffffffffffff\n          mul\n          not\n          and\n          swap1\n          dup4\n          0xffffffffffffffffffffffffffffffffffffffff\n          and\n          mul\n          or\n          swap1\n          sstore\n          pop\n            /* \"ElectronicMedicalRecords.sol\":11859:12061  function setDoctorVerificatorAddress(address _DoctorVerificatorAddress) public {... */\n          pop\n          jump\t// out\n            /* \"ElectronicMedicalRecords.sol\":12069:12214  function addDoctorRelation(address _doctor, address _patient) onlyDoctor(_doctor) public {... */\n        tag_13:\n            /* \"ElectronicMedicalRecords.sol\":12142:12149  _doctor */\n          dup2\n            /* \"ElectronicMedicalRecords.sol\":12440:12458  doctor_verificator */\n          0x02\n          0x00\n          swap1\n          sload\n          swap1\n          0x0100\n          exp\n          swap1\n          div\n          0xffffffffffffffffffffffffffffffffffffffff\n          and\n            /* \"ElectronicMedicalRecords.sol\":12440:12465  doctor_verificator.verify */\n          0xffffffffffffffffffffffffffffffffffffffff\n          and\n          0x63a9c3d7\n            /* \"ElectronicMedicalRecords.sol\":12466:12473  _doctor */\n          dup3\n            /* \"ElectronicMedicalRecords.sol\":12440:12474  doctor_verificator.verify(_doctor) */\n          mload(0x40)\n          dup3\n          0xffffffff\n          and\n          0xe0\n          shl\n          dup2\n          mstore\n          0x04\n          add\n          tag_22\n          swap2\n          swap1\n          tag_23\n          jump\t// in\n        tag_22:\n          0x20\n          mload(0x40)\n          dup1\n          dup4\n          sub\n          dup2\n          dup7\n          gas\n          staticcall\n          iszero\n          dup1\n          iszero\n          tag_25\n          jumpi\n          returndatasize\n          0x00\n          dup1\n          returndatacopy\n          revert(0x00, returndatasize)\n        tag_25:\n          pop\n          pop\n          pop\n          pop\n          mload(0x40)\n          returndatasize\n          not(0x1f)\n          0x1f\n          dup3\n          add\n          and\n          dup3\n          add\n          dup1\n          0x40\n          mstore\n          pop\n          dup2\n          add\n          swap1\n          tag_26\n          swap2\n          swap1\n          tag_27\n          jump\t// in\n        tag_26:\n            /* \"ElectronicMedicalRecords.sol\":12432:12475  require(doctor_verificator.verify(_doctor)) */\n          tag_28\n          jumpi\n          0x00\n          dup1\n          revert\n        tag_28:\n            /* \"ElectronicMedicalRecords.sol\":12169:12182  relatedPatien */\n          0x01\n            /* \"ElectronicMedicalRecords.sol\":12169:12191  relatedPatien[_doctor] */\n          0x00\n            /* \"ElectronicMedicalRecords.sol\":12183:12190  _doctor */\n          dup5\n            /* \"ElectronicMedicalRecords.sol\":12169:12191  relatedPatien[_doctor] */\n          0xffffffffffffffffffffffffffffffffffffffff\n          and\n          0xffffffffffffffffffffffffffffffffffffffff\n          and\n          dup2\n          mstore\n          0x20\n          add\n          swap1\n          dup2\n          mstore\n          0x20\n          add\n          0x00\n          keccak256\n            /* \"ElectronicMedicalRecords.sol\":12197:12205  _patient */\n          dup3\n            /* \"ElectronicMedicalRecords.sol\":12169:12206  relatedPatien[_doctor].push(_patient) */\n          swap1\n          dup1\n          0x01\n          dup2\n          sload\n          add\n          dup1\n          dup3\n          sstore\n          dup1\n          swap2\n          pop\n          pop\n          0x01\n          swap1\n          sub\n          swap1\n          0x00\n          mstore\n          keccak256(0x00, 0x20)\n          add\n          0x00\n          swap1\n          swap2\n          swap1\n          swap2\n          swap1\n          swap2\n          0x0100\n          exp\n          dup2\n          sload\n          dup2\n          0xffffffffffffffffffffffffffffffffffffffff\n          mul\n          not\n          and\n          swap1\n          dup4\n          0xffffffffffffffffffffffffffffffffffffffff\n          and\n          mul\n          or\n          swap1\n          sstore\n          pop\n            /* \"ElectronicMedicalRecords.sol\":12069:12214  function addDoctorRelation(address _doctor, address _patient) onlyDoctor(_doctor) public {... */\n          pop\n          pop\n          pop\n          jump\t// out\n            /* \"ElectronicMedicalRecords.sol\":12222:12376  function getDoctorRelations(address _doctor) public view onlyDoctor(msg.sender) returns(address[] memory) {... */\n        tag_16:\n            /* \"ElectronicMedicalRecords.sol\":12310:12326  address[] memory */\n          0x60\n            /* \"ElectronicMedicalRecords.sol\":12290:12300  msg.sender */\n          caller\n            /* \"ElectronicMedicalRecords.sol\":12440:12458  doctor_verificator */\n          0x02\n          0x00\n          swap1\n          sload\n          swap1\n          0x0100\n          exp\n          swap1\n          div\n          0xffffffffffffffffffffffffffffffffffffffff\n          and\n            /* \"ElectronicMedicalRecords.sol\":12440:12465  doctor_verificator.verify */\n          0xffffffffffffffffffffffffffffffffffffffff\n          and\n          0x63a9c3d7\n            /* \"ElectronicMedicalRecords.sol\":12466:12473  _doctor */\n          dup3\n            /* \"ElectronicMedicalRecords.sol\":12440:12474  doctor_verificator.verify(_doctor) */\n          mload(0x40)\n          dup3\n          0xffffffff\n          and\n          0xe0\n          shl\n          dup2\n          mstore\n          0x04\n          add\n          tag_32\n          swap2\n          swap1\n          tag_23\n          jump\t// in\n        tag_32:\n          0x20\n          mload(0x40)\n          dup1\n          dup4\n          sub\n          dup2\n          dup7\n          gas\n          staticcall\n          iszero\n          dup1\n          iszero\n          tag_34\n          jumpi\n          returndatasize\n          0x00\n          dup1\n          returndatacopy\n          revert(0x00, returndatasize)\n        tag_34:\n          pop\n          pop\n          pop\n          pop\n          mload(0x40)\n          returndatasize\n          not(0x1f)\n          0x1f\n          dup3\n          add\n          and\n          dup3\n          add\n          dup1\n          0x40\n          mstore\n          pop\n          dup2\n          add\n          swap1\n          tag_35\n          swap2\n          swap1\n          tag_27\n          jump\t// in\n        tag_35:\n            /* \"ElectronicMedicalRecords.sol\":12432:12475  require(doctor_verificator.verify(_doctor)) */\n          tag_36\n          jumpi\n          0x00\n          dup1\n          revert\n        tag_36:\n            /* \"ElectronicMedicalRecords.sol\":12346:12359  relatedPatien */\n          0x01\n            /* \"ElectronicMedicalRecords.sol\":12346:12368  relatedPatien[_doctor] */\n          0x00\n            /* \"ElectronicMedicalRecords.sol\":12360:12367  _doctor */\n          dup5\n            /* \"ElectronicMedicalRecords.sol\":12346:12368  relatedPatien[_doctor] */\n          0xffffffffffffffffffffffffffffffffffffffff\n          and\n          0xffffffffffffffffffffffffffffffffffffffff\n          and\n          dup2\n          mstore\n          0x20\n          add\n          swap1\n          dup2\n          mstore\n          0x20\n          add\n          0x00\n          keccak256\n            /* \"ElectronicMedicalRecords.sol\":12339:12368  return relatedPatien[_doctor] */\n          dup1\n          sload\n          dup1\n          0x20\n          mul\n          0x20\n          add\n          mload(0x40)\n          swap1\n          dup2\n          add\n          0x40\n          mstore\n          dup1\n          swap3\n          swap2\n          swap1\n          dup2\n          dup2\n          mstore\n          0x20\n          add\n          dup3\n          dup1\n          sload\n          dup1\n          iszero\n          tag_38\n          jumpi\n          0x20\n          mul\n          dup3\n          add\n          swap2\n          swap1\n          0x00\n          mstore\n          keccak256(0x00, 0x20)\n          swap1\n        tag_39:\n          dup2\n          0x00\n          swap1\n          sload\n          swap1\n          0x0100\n          exp\n          swap1\n          div\n          0xffffffffffffffffffffffffffffffffffffffff\n          and\n          0xffffffffffffffffffffffffffffffffffffffff\n          and\n          dup2\n          mstore\n          0x20\n          add\n          swap1\n          0x01\n          add\n          swap1\n          dup1\n          dup4\n          gt\n          tag_39\n          jumpi\n        tag_38:\n          pop\n          pop\n          pop\n          pop\n          pop\n          swap2\n          pop\n            /* \"ElectronicMedicalRecords.sol\":12222:12376  function getDoctorRelations(address _doctor) public view onlyDoctor(msg.sender) returns(address[] memory) {... */\n          pop\n          swap2\n          swap1\n          pop\n          jump\t// out\n            /* \"#utility.yul\":88:205   */\n        tag_41:\n            /* \"#utility.yul\":197:198   */\n          0x00\n            /* \"#utility.yul\":194:195   */\n          dup1\n            /* \"#utility.yul\":187:199   */\n          revert\n            /* \"#utility.yul\":334:460   */\n        tag_43:\n            /* \"#utility.yul\":371:378   */\n          0x00\n            /* \"#utility.yul\":411:453   */\n          0xffffffffffffffffffffffffffffffffffffffff\n            /* \"#utility.yul\":404:409   */\n          dup3\n            /* \"#utility.yul\":400:454   */\n          and\n            /* \"#utility.yul\":389:454   */\n          swap1\n          pop\n            /* \"#utility.yul\":334:460   */\n          swap2\n          swap1\n          pop\n          jump\t// out\n            /* \"#utility.yul\":466:562   */\n        tag_44:\n            /* \"#utility.yul\":503:510   */\n          0x00\n            /* \"#utility.yul\":532:556   */\n          tag_64\n            /* \"#utility.yul\":550:555   */\n          dup3\n            /* \"#utility.yul\":532:556   */\n          tag_43\n          jump\t// in\n        tag_64:\n            /* \"#utility.yul\":521:556   */\n          swap1\n          pop\n            /* \"#utility.yul\":466:562   */\n          swap2\n          swap1\n          pop\n          jump\t// out\n            /* \"#utility.yul\":568:690   */\n        tag_45:\n            /* \"#utility.yul\":641:665   */\n          tag_66\n            /* \"#utility.yul\":659:664   */\n          dup2\n            /* \"#utility.yul\":641:665   */\n          tag_44\n          jump\t// in\n        tag_66:\n            /* \"#utility.yul\":634:639   */\n          dup2\n            /* \"#utility.yul\":631:666   */\n          eq\n            /* \"#utility.yul\":621:684   */\n          tag_67\n          jumpi\n            /* \"#utility.yul\":680:681   */\n          0x00\n            /* \"#utility.yul\":677:678   */\n          dup1\n            /* \"#utility.yul\":670:682   */\n          revert\n            /* \"#utility.yul\":621:684   */\n        tag_67:\n            /* \"#utility.yul\":568:690   */\n          pop\n          jump\t// out\n            /* \"#utility.yul\":696:835   */\n        tag_46:\n            /* \"#utility.yul\":742:747   */\n          0x00\n            /* \"#utility.yul\":780:786   */\n          dup2\n            /* \"#utility.yul\":767:787   */\n          calldataload\n            /* \"#utility.yul\":758:787   */\n          swap1\n          pop\n            /* \"#utility.yul\":796:829   */\n          tag_69\n            /* \"#utility.yul\":823:828   */\n          dup2\n            /* \"#utility.yul\":796:829   */\n          tag_45\n          jump\t// in\n        tag_69:\n            /* \"#utility.yul\":696:835   */\n          swap3\n          swap2\n          pop\n          pop\n          jump\t// out\n            /* \"#utility.yul\":841:1170   */\n        tag_8:\n            /* \"#utility.yul\":900:906   */\n          0x00\n            /* \"#utility.yul\":949:951   */\n          0x20\n            /* \"#utility.yul\":937:946   */\n          dup3\n            /* \"#utility.yul\":928:935   */\n          dup5\n            /* \"#utility.yul\":924:947   */\n          sub\n            /* \"#utility.yul\":920:952   */\n          slt\n            /* \"#utility.yul\":917:1036   */\n          iszero\n          tag_71\n          jumpi\n            /* \"#utility.yul\":955:1034   */\n          tag_72\n          tag_41\n          jump\t// in\n        tag_72:\n            /* \"#utility.yul\":917:1036   */\n        tag_71:\n            /* \"#utility.yul\":1075:1076   */\n          0x00\n            /* \"#utility.yul\":1100:1153   */\n          tag_73\n            /* \"#utility.yul\":1145:1152   */\n          dup5\n            /* \"#utility.yul\":1136:1142   */\n          dup3\n            /* \"#utility.yul\":1125:1134   */\n          dup6\n            /* \"#utility.yul\":1121:1143   */\n          add\n            /* \"#utility.yul\":1100:1153   */\n          tag_46\n          jump\t// in\n        tag_73:\n            /* \"#utility.yul\":1090:1153   */\n          swap2\n          pop\n            /* \"#utility.yul\":1046:1163   */\n          pop\n            /* \"#utility.yul\":841:1170   */\n          swap3\n          swap2\n          pop\n          pop\n          jump\t// out\n            /* \"#utility.yul\":1176:1650   */\n        tag_12:\n            /* \"#utility.yul\":1244:1250   */\n          0x00\n            /* \"#utility.yul\":1252:1258   */\n          dup1\n            /* \"#utility.yul\":1301:1303   */\n          0x40\n            /* \"#utility.yul\":1289:1298   */\n          dup4\n            /* \"#utility.yul\":1280:1287   */\n          dup6\n            /* \"#utility.yul\":1276:1299   */\n          sub\n            /* \"#utility.yul\":1272:1304   */\n          slt\n            /* \"#utility.yul\":1269:1388   */\n          iszero\n          tag_75\n          jumpi\n            /* \"#utility.yul\":1307:1386   */\n          tag_76\n          tag_41\n          jump\t// in\n        tag_76:\n            /* \"#utility.yul\":1269:1388   */\n        tag_75:\n            /* \"#utility.yul\":1427:1428   */\n          0x00\n            /* \"#utility.yul\":1452:1505   */\n          tag_77\n            /* \"#utility.yul\":1497:1504   */\n          dup6\n            /* \"#utility.yul\":1488:1494   */\n          dup3\n            /* \"#utility.yul\":1477:1486   */\n          dup7\n            /* \"#utility.yul\":1473:1495   */\n          add\n            /* \"#utility.yul\":1452:1505   */\n          tag_46\n          jump\t// in\n        tag_77:\n            /* \"#utility.yul\":1442:1505   */\n          swap3\n          pop\n            /* \"#utility.yul\":1398:1515   */\n          pop\n            /* \"#utility.yul\":1554:1556   */\n          0x20\n            /* \"#utility.yul\":1580:1633   */\n          tag_78\n            /* \"#utility.yul\":1625:1632   */\n          dup6\n            /* \"#utility.yul\":1616:1622   */\n          dup3\n            /* \"#utility.yul\":1605:1614   */\n          dup7\n            /* \"#utility.yul\":1601:1623   */\n          add\n            /* \"#utility.yul\":1580:1633   */\n          tag_46\n          jump\t// in\n        tag_78:\n            /* \"#utility.yul\":1570:1633   */\n          swap2\n          pop\n            /* \"#utility.yul\":1525:1643   */\n          pop\n            /* \"#utility.yul\":1176:1650   */\n          swap3\n          pop\n          swap3\n          swap1\n          pop\n          jump\t// out\n            /* \"#utility.yul\":1656:1770   */\n        tag_47:\n            /* \"#utility.yul\":1723:1729   */\n          0x00\n            /* \"#utility.yul\":1757:1762   */\n          dup2\n            /* \"#utility.yul\":1751:1763   */\n          mload\n            /* \"#utility.yul\":1741:1763   */\n          swap1\n          pop\n            /* \"#utility.yul\":1656:1770   */\n          swap2\n          swap1\n          pop\n          jump\t// out\n            /* \"#utility.yul\":1776:1960   */\n        tag_48:\n            /* \"#utility.yul\":1875:1886   */\n          0x00\n            /* \"#utility.yul\":1909:1915   */\n          dup3\n            /* \"#utility.yul\":1904:1907   */\n          dup3\n            /* \"#utility.yul\":1897:1916   */\n          mstore\n            /* \"#utility.yul\":1949:1953   */\n          0x20\n            /* \"#utility.yul\":1944:1947   */\n          dup3\n            /* \"#utility.yul\":1940:1954   */\n          add\n            /* \"#utility.yul\":1925:1954   */\n          swap1\n          pop\n            /* \"#utility.yul\":1776:1960   */\n          swap3\n          swap2\n          pop\n          pop\n          jump\t// out\n            /* \"#utility.yul\":1966:2098   */\n        tag_49:\n            /* \"#utility.yul\":2033:2037   */\n          0x00\n            /* \"#utility.yul\":2056:2059   */\n          dup2\n            /* \"#utility.yul\":2048:2059   */\n          swap1\n          pop\n            /* \"#utility.yul\":2086:2090   */\n          0x20\n            /* \"#utility.yul\":2081:2084   */\n          dup3\n            /* \"#utility.yul\":2077:2091   */\n          add\n            /* \"#utility.yul\":2069:2091   */\n          swap1\n          pop\n            /* \"#utility.yul\":1966:2098   */\n          swap2\n          swap1\n          pop\n          jump\t// out\n            /* \"#utility.yul\":2104:2212   */\n        tag_50:\n            /* \"#utility.yul\":2181:2205   */\n          tag_83\n            /* \"#utility.yul\":2199:2204   */\n          dup2\n            /* \"#utility.yul\":2181:2205   */\n          tag_44\n          jump\t// in\n        tag_83:\n            /* \"#utility.yul\":2176:2179   */\n          dup3\n            /* \"#utility.yul\":2169:2206   */\n          mstore\n            /* \"#utility.yul\":2104:2212   */\n          pop\n          pop\n          jump\t// out\n            /* \"#utility.yul\":2218:2397   */\n        tag_51:\n            /* \"#utility.yul\":2287:2297   */\n          0x00\n            /* \"#utility.yul\":2308:2354   */\n          tag_85\n            /* \"#utility.yul\":2350:2353   */\n          dup4\n            /* \"#utility.yul\":2342:2348   */\n          dup4\n            /* \"#utility.yul\":2308:2354   */\n          tag_50\n          jump\t// in\n        tag_85:\n            /* \"#utility.yul\":2386:2390   */\n          0x20\n            /* \"#utility.yul\":2381:2384   */\n          dup4\n            /* \"#utility.yul\":2377:2391   */\n          add\n            /* \"#utility.yul\":2363:2391   */\n          swap1\n          pop\n            /* \"#utility.yul\":2218:2397   */\n          swap3\n          swap2\n          pop\n          pop\n          jump\t// out\n            /* \"#utility.yul\":2403:2516   */\n        tag_52:\n            /* \"#utility.yul\":2473:2477   */\n          0x00\n            /* \"#utility.yul\":2505:2509   */\n          0x20\n            /* \"#utility.yul\":2500:2503   */\n          dup3\n            /* \"#utility.yul\":2496:2510   */\n          add\n            /* \"#utility.yul\":2488:2510   */\n          swap1\n          pop\n            /* \"#utility.yul\":2403:2516   */\n          swap2\n          swap1\n          pop\n          jump\t// out\n            /* \"#utility.yul\":2552:3284   */\n        tag_53:\n            /* \"#utility.yul\":2671:2674   */\n          0x00\n            /* \"#utility.yul\":2700:2754   */\n          tag_88\n            /* \"#utility.yul\":2748:2753   */\n          dup3\n            /* \"#utility.yul\":2700:2754   */\n          tag_47\n          jump\t// in\n        tag_88:\n            /* \"#utility.yul\":2770:2856   */\n          tag_89\n            /* \"#utility.yul\":2849:2855   */\n          dup2\n            /* \"#utility.yul\":2844:2847   */\n          dup6\n            /* \"#utility.yul\":2770:2856   */\n          tag_48\n          jump\t// in\n        tag_89:\n            /* \"#utility.yul\":2763:2856   */\n          swap4\n          pop\n            /* \"#utility.yul\":2880:2936   */\n          tag_90\n            /* \"#utility.yul\":2930:2935   */\n          dup4\n            /* \"#utility.yul\":2880:2936   */\n          tag_49\n          jump\t// in\n        tag_90:\n            /* \"#utility.yul\":2959:2966   */\n          dup1\n            /* \"#utility.yul\":2990:2991   */\n          0x00\n            /* \"#utility.yul\":2975:3259   */\n        tag_91:\n            /* \"#utility.yul\":3000:3006   */\n          dup4\n            /* \"#utility.yul\":2997:2998   */\n          dup2\n            /* \"#utility.yul\":2994:3007   */\n          lt\n            /* \"#utility.yul\":2975:3259   */\n          iszero\n          tag_93\n          jumpi\n            /* \"#utility.yul\":3076:3082   */\n          dup2\n            /* \"#utility.yul\":3070:3083   */\n          mload\n            /* \"#utility.yul\":3103:3166   */\n          tag_94\n            /* \"#utility.yul\":3162:3165   */\n          dup9\n            /* \"#utility.yul\":3147:3160   */\n          dup3\n            /* \"#utility.yul\":3103:3166   */\n          tag_51\n          jump\t// in\n        tag_94:\n            /* \"#utility.yul\":3096:3166   */\n          swap8\n          pop\n            /* \"#utility.yul\":3189:3249   */\n          tag_95\n            /* \"#utility.yul\":3242:3248   */\n          dup4\n            /* \"#utility.yul\":3189:3249   */\n          tag_52\n          jump\t// in\n        tag_95:\n            /* \"#utility.yul\":3179:3249   */\n          swap3\n          pop\n            /* \"#utility.yul\":3035:3259   */\n          pop\n            /* \"#utility.yul\":3022:3023   */\n          0x01\n            /* \"#utility.yul\":3019:3020   */\n          dup2\n            /* \"#utility.yul\":3015:3024   */\n          add\n            /* \"#utility.yul\":3010:3024   */\n          swap1\n          pop\n            /* \"#utility.yul\":2975:3259   */\n          jump(tag_91)\n        tag_93:\n            /* \"#utility.yul\":2979:2993   */\n          pop\n            /* \"#utility.yul\":3275:3278   */\n          dup6\n            /* \"#utility.yul\":3268:3278   */\n          swap4\n          pop\n            /* \"#utility.yul\":2676:3284   */\n          pop\n          pop\n          pop\n            /* \"#utility.yul\":2552:3284   */\n          swap3\n          swap2\n          pop\n          pop\n          jump\t// out\n            /* \"#utility.yul\":3290:3663   */\n        tag_18:\n            /* \"#utility.yul\":3433:3437   */\n          0x00\n            /* \"#utility.yul\":3471:3473   */\n          0x20\n            /* \"#utility.yul\":3460:3469   */\n          dup3\n            /* \"#utility.yul\":3456:3474   */\n          add\n            /* \"#utility.yul\":3448:3474   */\n          swap1\n          pop\n            /* \"#utility.yul\":3520:3529   */\n          dup2\n            /* \"#utility.yul\":3514:3518   */\n          dup2\n            /* \"#utility.yul\":3510:3530   */\n          sub\n            /* \"#utility.yul\":3506:3507   */\n          0x00\n            /* \"#utility.yul\":3495:3504   */\n          dup4\n            /* \"#utility.yul\":3491:3508   */\n          add\n            /* \"#utility.yul\":3484:3531   */\n          mstore\n            /* \"#utility.yul\":3548:3656   */\n          tag_97\n            /* \"#utility.yul\":3651:3655   */\n          dup2\n            /* \"#utility.yul\":3642:3648   */\n          dup5\n            /* \"#utility.yul\":3548:3656   */\n          tag_53\n          jump\t// in\n        tag_97:\n            /* \"#utility.yul\":3540:3656   */\n          swap1\n          pop\n            /* \"#utility.yul\":3290:3663   */\n          swap3\n          swap2\n          pop\n          pop\n          jump\t// out\n            /* \"#utility.yul\":3669:3787   */\n        tag_54:\n            /* \"#utility.yul\":3756:3780   */\n          tag_99\n            /* \"#utility.yul\":3774:3779   */\n          dup2\n            /* \"#utility.yul\":3756:3780   */\n          tag_44\n          jump\t// in\n        tag_99:\n            /* \"#utility.yul\":3751:3754   */\n          dup3\n            /* \"#utility.yul\":3744:3781   */\n          mstore\n            /* \"#utility.yul\":3669:3787   */\n          pop\n          pop\n          jump\t// out\n            /* \"#utility.yul\":3793:4015   */\n        tag_23:\n            /* \"#utility.yul\":3886:3890   */\n          0x00\n            /* \"#utility.yul\":3924:3926   */\n          0x20\n            /* \"#utility.yul\":3913:3922   */\n          dup3\n            /* \"#utility.yul\":3909:3927   */\n          add\n            /* \"#utility.yul\":3901:3927   */\n          swap1\n          pop\n            /* \"#utility.yul\":3937:4008   */\n          tag_101\n            /* \"#utility.yul\":4005:4006   */\n          0x00\n            /* \"#utility.yul\":3994:4003   */\n          dup4\n            /* \"#utility.yul\":3990:4007   */\n          add\n            /* \"#utility.yul\":3981:3987   */\n          dup5\n            /* \"#utility.yul\":3937:4008   */\n          tag_54\n          jump\t// in\n        tag_101:\n            /* \"#utility.yul\":3793:4015   */\n          swap3\n          swap2\n          pop\n          pop\n          jump\t// out\n            /* \"#utility.yul\":4021:4111   */\n        tag_55:\n            /* \"#utility.yul\":4055:4062   */\n          0x00\n            /* \"#utility.yul\":4098:4103   */\n          dup2\n            /* \"#utility.yul\":4091:4104   */\n          iszero\n            /* \"#utility.yul\":4084:4105   */\n          iszero\n            /* \"#utility.yul\":4073:4105   */\n          swap1\n          pop\n            /* \"#utility.yul\":4021:4111   */\n          swap2\n          swap1\n          pop\n          jump\t// out\n            /* \"#utility.yul\":4117:4233   */\n        tag_56:\n            /* \"#utility.yul\":4187:4208   */\n          tag_104\n            /* \"#utility.yul\":4202:4207   */\n          dup2\n            /* \"#utility.yul\":4187:4208   */\n          tag_55\n          jump\t// in\n        tag_104:\n            /* \"#utility.yul\":4180:4185   */\n          dup2\n            /* \"#utility.yul\":4177:4209   */\n          eq\n            /* \"#utility.yul\":4167:4227   */\n          tag_105\n          jumpi\n            /* \"#utility.yul\":4223:4224   */\n          0x00\n            /* \"#utility.yul\":4220:4221   */\n          dup1\n            /* \"#utility.yul\":4213:4225   */\n          revert\n            /* \"#utility.yul\":4167:4227   */\n        tag_105:\n            /* \"#utility.yul\":4117:4233   */\n          pop\n          jump\t// out\n            /* \"#utility.yul\":4239:4376   */\n        tag_57:\n            /* \"#utility.yul\":4293:4298   */\n          0x00\n            /* \"#utility.yul\":4324:4330   */\n          dup2\n            /* \"#utility.yul\":4318:4331   */\n          mload\n            /* \"#utility.yul\":4309:4331   */\n          swap1\n          pop\n            /* \"#utility.yul\":4340:4370   */\n          tag_107\n            /* \"#utility.yul\":4364:4369   */\n          dup2\n            /* \"#utility.yul\":4340:4370   */\n          tag_56\n          jump\t// in\n        tag_107:\n            /* \"#utility.yul\":4239:4376   */\n          swap3\n          swap2\n          pop\n          pop\n          jump\t// out\n            /* \"#utility.yul\":4382:4727   */\n        tag_27:\n            /* \"#utility.yul\":4449:4455   */\n          0x00\n            /* \"#utility.yul\":4498:4500   */\n          0x20\n            /* \"#utility.yul\":4486:4495   */\n          dup3\n            /* \"#utility.yul\":4477:4484   */\n          dup5\n            /* \"#utility.yul\":4473:4496   */\n          sub\n            /* \"#utility.yul\":4469:4501   */\n          slt\n            /* \"#utility.yul\":4466:4585   */\n          iszero\n          tag_109\n          jumpi\n            /* \"#utility.yul\":4504:4583   */\n          tag_110\n          tag_41\n          jump\t// in\n        tag_110:\n            /* \"#utility.yul\":4466:4585   */\n        tag_109:\n            /* \"#utility.yul\":4624:4625   */\n          0x00\n            /* \"#utility.yul\":4649:4710   */\n          tag_111\n            /* \"#utility.yul\":4702:4709   */\n          dup5\n            /* \"#utility.yul\":4693:4699   */\n          dup3\n            /* \"#utility.yul\":4682:4691   */\n          dup6\n            /* \"#utility.yul\":4678:4700   */\n          add\n            /* \"#utility.yul\":4649:4710   */\n          tag_57\n          jump\t// in\n        tag_111:\n            /* \"#utility.yul\":4639:4710   */\n          swap2\n          pop\n            /* \"#utility.yul\":4595:4720   */\n          pop\n            /* \"#utility.yul\":4382:4727   */\n          swap3\n          swap2\n          pop\n          pop\n          jump\t// out\n\n        auxdata: 0xa2646970667358221220b9486299f1bc910e106e762a6d9f13da406725333b1779d3d5f8f52f764cd0b764736f6c63430008110033\n    }\n}\n","bytecode":{"linkReferences":{},"object":"60806040523480156200001157600080fd5b5033600160006101000a81548173ffffffffffffffffffffffffffffffffffffffff021916908373ffffffffffffffffffffffffffffffffffffffff160217905550600033604051620000649062000571565b620000709190620005ee565b604051809103906000f0801580156200008d573d6000803e3d6000fd5b5090506000604051620000a09062000666565b908152602001604051809103902060405180604001604052806040518060400160405280601881526020017f656c656374726f6e69634d65646963616c5265636f726473000000000000000081525081526020018373ffffffffffffffffffffffffffffffffffffffff16815250908060018154018082558091505060019003906000526020600020906002020160009091909190915060008201518160000190816200014e9190620008f7565b5060208201518160010160006101000a81548173ffffffffffffffffffffffffffffffffffffffff021916908373ffffffffffffffffffffffffffffffffffffffff1602179055505050600033604051620001a9906200057f565b620001b59190620005ee565b604051809103906000f080158015620001d2573d6000803e3d6000fd5b5090506000604051620001e59062000666565b908152602001604051809103902060405180604001604052806040518060400160405280601281526020017f70617469656e745665726966696361746f72000000000000000000000000000081525081526020018373ffffffffffffffffffffffffffffffffffffffff1681525090806001815401808255809150506001900390600052602060002090600202016000909190919091506000820151816000019081620002939190620008f7565b5060208201518160010160006101000a81548173ffffffffffffffffffffffffffffffffffffffff021916908373ffffffffffffffffffffffffffffffffffffffff1602179055505050600033604051620002ee906200058d565b620002fa9190620005ee565b604051809103906000f08015801562000317573d6000803e3d6000fd5b50905060006040516200032a9062000666565b908152602001604051809103902060405180604001604052806040518060400160405280601181526020017f646f63746f725665726966696361746f7200000000000000000000000000000081525081526020018373ffffffffffffffffffffffffffffffffffffffff1681525090806001815401808255809150506001900390600052602060002090600202016000909190919091506000820151816000019081620003d89190620008f7565b5060208201518160010160006101000a81548173ffffffffffffffffffffffffffffffffffffffff021916908373ffffffffffffffffffffffffffffffffffffffff160217905550505060003360405162000433906200059b565b6200043f9190620005ee565b604051809103906000f0801580156200045c573d6000803e3d6000fd5b50905060006040516200046f9062000666565b908152602001604051809103902060405180604001604052806040518060400160405280600e81526020017f646f63746f7252656c6174696f6e00000000000000000000000000000000000081525081526020018373ffffffffffffffffffffffffffffffffffffffff16815250908060018154018082558091505060019003906000526020600020906002020160009091909190915060008201518160000190816200051d9190620008f7565b5060208201518160010160006101000a81548173ffffffffffffffffffffffffffffffffffffffff021916908373ffffffffffffffffffffffffffffffffffffffff160217905550505050505050620009de565b614a2e80620010f383390190565b6106058062005b2183390190565b61065d806200612683390190565b610795806200678383390190565b600073ffffffffffffffffffffffffffffffffffffffff82169050919050565b6000620005d682620005a9565b9050919050565b620005e881620005c9565b82525050565b6000602082019050620006056000830184620005dd565b92915050565b600081905092915050565b7f7365637265740000000000000000000000000000000000000000000000000000600082015250565b60006200064e6006836200060b565b91506200065b8262000616565b600682019050919050565b600062000673826200063f565b9150819050919050565b600081519050919050565b7f4e487b7100000000000000000000000000000000000000000000000000000000600052604160045260246000fd5b7f4e487b7100000000000000000000000000000000000000000000000000000000600052602260045260246000fd5b60006002820490506001821680620006ff57607f821691505b602082108103620007155762000714620006b7565b5b50919050565b60008190508160005260206000209050919050565b60006020601f8301049050919050565b600082821b905092915050565b6000600883026200077f7fffffffffffffffffffffffffffffffffffffffffffffffffffffffffffffffff8262000740565b6200078b868362000740565b95508019841693508086168417925050509392505050565b6000819050919050565b6000819050919050565b6000620007d8620007d2620007cc84620007a3565b620007ad565b620007a3565b9050919050565b6000819050919050565b620007f483620007b7565b6200080c6200080382620007df565b8484546200074d565b825550505050565b600090565b6200082362000814565b62000830818484620007e9565b505050565b5b8181101562000858576200084c60008262000819565b60018101905062000836565b5050565b601f821115620008a75762000871816200071b565b6200087c8462000730565b810160208510156200088c578190505b620008a46200089b8562000730565b83018262000835565b50505b505050565b600082821c905092915050565b6000620008cc60001984600802620008ac565b1980831691505092915050565b6000620008e78383620008b9565b9150826002028217905092915050565b62000902826200067d565b67ffffffffffffffff8111156200091e576200091d62000688565b5b6200092a8254620006e6565b620009378282856200085c565b600060209050601f8311600181146200096f57600084156200095a578287015190505b620009668582620008d9565b865550620009d6565b601f1984166200097f866200071b565b60005b82811015620009a95784890151825560018201915060208501945060208101905062000982565b86831015620009c95784890151620009c5601f891682620008b9565b8355505b6001600288020188555050505b505050505050565b61070580620009ee6000396000f3fe608060405234801561001057600080fd5b50600436106100365760003560e01c8063c4fe354c1461003b578063f851a4401461006b575b600080fd5b610055600480360381019061005091906103c8565b610089565b60405161006291906105d0565b60405180910390f35b610073610248565b6040516100809190610601565b60405180910390f35b6060600160009054906101000a900473ffffffffffffffffffffffffffffffffffffffff1673ffffffffffffffffffffffffffffffffffffffff163373ffffffffffffffffffffffffffffffffffffffff16146100e557600080fd5b6000826040516100f59190610658565b9081526020016040518091039020805480602002602001604051908101604052809291908181526020016000905b8282101561023d57838290600052602060002090600202016040518060400160405290816000820180546101569061069e565b80601f01602080910402602001604051908101604052809291908181526020018280546101829061069e565b80156101cf5780601f106101a4576101008083540402835291602001916101cf565b820191906000526020600020905b8154815290600101906020018083116101b257829003601f168201915b505050505081526020016001820160009054906101000a900473ffffffffffffffffffffffffffffffffffffffff1673ffffffffffffffffffffffffffffffffffffffff1673ffffffffffffffffffffffffffffffffffffffff168152505081526020019060010190610123565b505050509050919050565b600160009054906101000a900473ffffffffffffffffffffffffffffffffffffffff1681565b6000604051905090565b600080fd5b600080fd5b600080fd5b600080fd5b6000601f19601f8301169050919050565b7f4e487b7100000000000000000000000000000000000000000000000000000000600052604160045260246000fd5b6102d58261028c565b810181811067ffffffffffffffff821117156102f4576102f361029d565b5b80604052505050565b600061030761026e565b905061031382826102cc565b919050565b600067ffffffffffffffff8211156103335761033261029d565b5b61033c8261028c565b9050602081019050919050565b82818337600083830152505050565b600061036b61036684610318565b6102fd565b90508281526020810184848401111561038757610386610287565b5b610392848285610349565b509392505050565b600082601f8301126103af576103ae610282565b5b81356103bf848260208601610358565b91505092915050565b6000602082840312156103de576103dd610278565b5b600082013567ffffffffffffffff8111156103fc576103fb61027d565b5b6104088482850161039a565b91505092915050565b600081519050919050565b600082825260208201905092915050565b6000819050602082019050919050565b600081519050919050565b600082825260208201905092915050565b60005b8381101561047757808201518184015260208101905061045c565b60008484015250505050565b600061048e8261043d565b6104988185610448565b93506104a8818560208601610459565b6104b18161028c565b840191505092915050565b600073ffffffffffffffffffffffffffffffffffffffff82169050919050565b60006104e7826104bc565b9050919050565b6104f7816104dc565b82525050565b6000604083016000830151848203600086015261051a8282610483565b915050602083015161052f60208601826104ee565b508091505092915050565b600061054683836104fd565b905092915050565b6000602082019050919050565b600061056682610411565b610570818561041c565b9350836020820285016105828561042d565b8060005b858110156105be578484038952815161059f858261053a565b94506105aa8361054e565b925060208a01995050600181019050610586565b50829750879550505050505092915050565b600060208201905081810360008301526105ea818461055b565b905092915050565b6105fb816104dc565b82525050565b600060208201905061061660008301846105f2565b92915050565b600081905092915050565b60006106328261043d565b61063c818561061c565b935061064c818560208601610459565b80840191505092915050565b60006106648284610627565b915081905092915050565b7f4e487b7100000000000000000000000000000000000000000000000000000000600052602260045260246000fd5b600060028204905060018216806106b657607f821691505b6020821081036106c9576106c861066f565b5b5091905056fea26469706673582212207dd79dd42717d861ece7914cb28b54216eb37333d2737a7311b58f61b5fa9fa864736f6c6343000811003360806040523480156200001157600080fd5b5060405162004a2e38038062004a2e8339818101604052810190620000379190620000e9565b80600560006101000a81548173ffffffffffffffffffffffffffffffffffffffff021916908373ffffffffffffffffffffffffffffffffffffffff160217905550506200011b565b600080fd5b600073ffffffffffffffffffffffffffffffffffffffff82169050919050565b6000620000b18262000084565b9050919050565b620000c381620000a4565b8114620000cf57600080fd5b50565b600081519050620000e381620000b8565b92915050565b6000602082840312156200010257620001016200007f565b5b60006200011284828501620000d2565b91505092915050565b614903806200012b6000396000f3fe608060405234801561001057600080fd5b50600436106100935760003560e01c80637621df6f116100665780637621df6f146101085780639cbc4dba14610124578063b2c24a3414610140578063eb7353d114610171578063f539fe6c146101a257610093565b80631107747e14610098578063213134cd146100b45780634da7580f146100d05780635db185c7146100ec575b600080fd5b6100b260048036038101906100ad91906131c9565b6101d3565b005b6100ce60048036038101906100c9919061369e565b610217565b005b6100ea60048036038101906100e59190613a04565b61073d565b005b610106600480360381019061010191906131c9565b610caa565b005b610122600480360381019061011d91906131c9565b610cee565b005b61013e60048036038101906101399190613cfe565b610d32565b005b61015a600480360381019061015591906131c9565b611397565b604051610168929190614073565b60405180910390f35b61018b600480360381019061018691906131c9565b611ba6565b6040516101999291906142b6565b60405180910390f35b6101bc60048036038101906101b791906131c9565b612550565b6040516101ca929190614523565b60405180910390f35b80600660006101000a81548173ffffffffffffffffffffffffffffffffffffffff021916908373ffffffffffffffffffffffffffffffffffffffff16021790555050565b600660009054906101000a900473ffffffffffffffffffffffffffffffffffffffff1673ffffffffffffffffffffffffffffffffffffffff166363a9c3d7336040518263ffffffff1660e01b81526004016102729190614569565b602060405180830381865afa15801561028f573d6000803e3d6000fd5b505050506040513d601f19601f820116820180604052508101906102b39190614599565b6102bc57600080fd5b6102c4612f6b565b82600001518160000181905250826020015181602001819052508260400151816040018181525050826060015181606001819052508060016000846000015173ffffffffffffffffffffffffffffffffffffffff1673ffffffffffffffffffffffffffffffffffffffff168152602001908152602001600020600082015181600001908161035291906147d2565b50602082015181600101908161036891906147d2565b5060408201518160020155606082015181600301908161038891906147d2565b50905050610394612f93565b8260000151816000019073ffffffffffffffffffffffffffffffffffffffff16908173ffffffffffffffffffffffffffffffffffffffff1681525050826040015181604001819052508260200151816020018190525082606001518160600181905250826080015181608001819052508260a001518160a001819052508260c001518160c001819052508260e001518160e0018190525082610100015181610100018190525082610120015181610120018190525082610140015181610140018190525082610160015181610160018190525060046000846000015173ffffffffffffffffffffffffffffffffffffffff1673ffffffffffffffffffffffffffffffffffffffff1681526020019081526020016000208190806001815401808255809150506001900390600052602060002090600c020160009091909190915060008201518160000160006101000a81548173ffffffffffffffffffffffffffffffffffffffff021916908373ffffffffffffffffffffffffffffffffffffffff160217905550602082015181600101908161053091906147d2565b50604082015181600201908161054691906147d2565b50606082015181600301908161055c91906147d2565b50608082015181600401908161057291906147d2565b5060a082015181600501908161058891906147d2565b5060c082015181600601908161059e91906147d2565b5060e08201518160070190816105b491906147d2565b506101008201518160080190816105cb91906147d2565b506101208201518160090190816105e291906147d2565b5061014082015181600a0190816105f991906147d2565b5061016082015181600b01908161061091906147d2565b505050600760009054906101000a900473ffffffffffffffffffffffffffffffffffffffff1673ffffffffffffffffffffffffffffffffffffffff16636d263ceb84600001516040518263ffffffff1660e01b81526004016106729190614569565b600060405180830381600087803b15801561068c57600080fd5b505af11580156106a0573d6000803e3d6000fd5b50505050600860009054906101000a900473ffffffffffffffffffffffffffffffffffffffff1673ffffffffffffffffffffffffffffffffffffffff16638bfc8c713385600001516040518363ffffffff1660e01b81526004016107059291906148a4565b600060405180830381600087803b15801561071f57600080fd5b505af1158015610733573d6000803e3d6000fd5b5050505050505050565b600660009054906101000a900473ffffffffffffffffffffffffffffffffffffffff1673ffffffffffffffffffffffffffffffffffffffff166363a9c3d7336040518263ffffffff1660e01b81526004016107989190614569565b602060405180830381865afa1580156107b5573d6000803e3d6000fd5b505050506040513d601f19601f820116820180604052508101906107d99190614599565b6107e257600080fd5b6107ea61300a565b8260000151816000019073ffffffffffffffffffffffffffffffffffffffff16908173ffffffffffffffffffffffffffffffffffffffff1681525050826020015181602001819052508260400151816040018181525050826060015181606001819052508260800151816080018190525080600080856000015173ffffffffffffffffffffffffffffffffffffffff1673ffffffffffffffffffffffffffffffffffffffff16815260200190815260200160002060008201518160000160006101000a81548173ffffffffffffffffffffffffffffffffffffffff021916908373ffffffffffffffffffffffffffffffffffffffff16021790555060208201518160010190816108fa91906147d2565b5060408201518160020155606082015181600301908161091a91906147d2565b50608082015181600401908161093091906147d2565b5090505061093c61304f565b8260000151816000019073ffffffffffffffffffffffffffffffffffffffff16908173ffffffffffffffffffffffffffffffffffffffff1681525050826020015181602001819052508260400151816040018190525082606001518160600181905250826080015181608001819052508260a001518160a001819052508260c001518160c001819052508260e001518160e001819052508261010001518161010001819052508261012001518161012001901515908115158152505060026000856000015173ffffffffffffffffffffffffffffffffffffffff1673ffffffffffffffffffffffffffffffffffffffff1681526020019081526020016000208190806001815401808255809150506001900390600052602060002090600a020160009091909190915060008201518160000160006101000a81548173ffffffffffffffffffffffffffffffffffffffff021916908373ffffffffffffffffffffffffffffffffffffffff1602179055506020820151816001019081610ac191906147d2565b506040820151816002019081610ad791906147d2565b506060820151816003019081610aed91906147d2565b506080820151816004019081610b0391906147d2565b5060a0820151816005019081610b1991906147d2565b5060c0820151816006019081610b2f91906147d2565b5060e0820151816007019081610b4591906147d2565b50610100820151816008019081610b5c91906147d2565b506101208201518160090160006101000a81548160ff0219169083151502179055505050600760009054906101000a900473ffffffffffffffffffffffffffffffffffffffff1673ffffffffffffffffffffffffffffffffffffffff16636d263ceb85600001516040518263ffffffff1660e01b8152600401610bdf9190614569565b600060405180830381600087803b158015610bf957600080fd5b505af1158015610c0d573d6000803e3d6000fd5b50505050600860009054906101000a900473ffffffffffffffffffffffffffffffffffffffff1673ffffffffffffffffffffffffffffffffffffffff16638bfc8c713386600001516040518363ffffffff1660e01b8152600401610c729291906148a4565b600060405180830381600087803b158015610c8c57600080fd5b505af1158015610ca0573d6000803e3d6000fd5b5050505050505050565b80600760006101000a81548173ffffffffffffffffffffffffffffffffffffffff021916908373ffffffffffffffffffffffffffffffffffffffff16021790555050565b80600860006101000a81548173ffffffffffffffffffffffffffffffffffffffff021916908373ffffffffffffffffffffffffffffffffffffffff16021790555050565b600660009054906101000a900473ffffffffffffffffffffffffffffffffffffffff1673ffffffffffffffffffffffffffffffffffffffff166363a9c3d7336040518263ffffffff1660e01b8152600401610d8d9190614569565b602060405180830381865afa158015610daa573d6000803e3d6000fd5b505050506040513d601f19601f82011682018060405250810190610dce9190614599565b610dd757600080fd5b610ddf61300a565b8260000151816000019073ffffffffffffffffffffffffffffffffffffffff16908173ffffffffffffffffffffffffffffffffffffffff1681525050826020015181602001819052508260400151816040018181525050826060015181606001819052508260800151816080018190525080600080856000015173ffffffffffffffffffffffffffffffffffffffff1673ffffffffffffffffffffffffffffffffffffffff16815260200190815260200160002060008201518160000160006101000a81548173ffffffffffffffffffffffffffffffffffffffff021916908373ffffffffffffffffffffffffffffffffffffffff1602179055506020820151816001019081610eef91906147d2565b50604082015181600201556060820151816003019081610f0f91906147d2565b506080820151816004019081610f2591906147d2565b50905050610f316130ba565b8260000151816000019073ffffffffffffffffffffffffffffffffffffffff16908173ffffffffffffffffffffffffffffffffffffffff1681525050826020015181602001819052508260400151816040018190525082606001518160600181905250826080015181608001819052508260a001518160a001819052508260c001518160c001819052508260e001518160e001819052508261010001518161010001819052508261012001518161012001901515908115158152505082610140015181610140018190525082610160015181610160018190525082610180015181610180019073ffffffffffffffffffffffffffffffffffffffff16908173ffffffffffffffffffffffffffffffffffffffff1681525050826101a00151816101a0018190525060036000846000015173ffffffffffffffffffffffffffffffffffffffff1673ffffffffffffffffffffffffffffffffffffffff1681526020019081526020016000208190806001815401808255809150506001900390600052602060002090600e020160009091909190915060008201518160000160006101000a81548173ffffffffffffffffffffffffffffffffffffffff021916908373ffffffffffffffffffffffffffffffffffffffff160217905550602082015181600101908161112191906147d2565b50604082015181600201908161113791906147d2565b50606082015181600301908161114d91906147d2565b50608082015181600401908161116391906147d2565b5060a082015181600501908161117991906147d2565b5060c082015181600601908161118f91906147d2565b5060e08201518160070190816111a591906147d2565b506101008201518160080190816111bc91906147d2565b506101208201518160090160006101000a81548160ff02191690831515021790555061014082015181600a0190816111f491906147d2565b5061016082015181600b01908161120b91906147d2565b5061018082015181600c0160006101000a81548173ffffffffffffffffffffffffffffffffffffffff021916908373ffffffffffffffffffffffffffffffffffffffff1602179055506101a082015181600d01908161126a91906147d2565b505050600760009054906101000a900473ffffffffffffffffffffffffffffffffffffffff1673ffffffffffffffffffffffffffffffffffffffff16636d263ceb85600001516040518263ffffffff1660e01b81526004016112cc9190614569565b600060405180830381600087803b1580156112e657600080fd5b505af11580156112fa573d6000803e3d6000fd5b50505050600860009054906101000a900473ffffffffffffffffffffffffffffffffffffffff1673ffffffffffffffffffffffffffffffffffffffff16638bfc8c713386600001516040518363ffffffff1660e01b815260040161135f9291906148a4565b600060405180830381600087803b15801561137957600080fd5b505af115801561138d573d6000803e3d6000fd5b5050505050505050565b61139f61300a565b60606000808473ffffffffffffffffffffffffffffffffffffffff1673ffffffffffffffffffffffffffffffffffffffff168152602001908152602001600020600260008573ffffffffffffffffffffffffffffffffffffffff1673ffffffffffffffffffffffffffffffffffffffff168152602001908152602001600020816040518060a00160405290816000820160009054906101000a900473ffffffffffffffffffffffffffffffffffffffff1673ffffffffffffffffffffffffffffffffffffffff1673ffffffffffffffffffffffffffffffffffffffff168152602001600182018054611490906145f5565b80601f01602080910402602001604051908101604052809291908181526020018280546114bc906145f5565b80156115095780601f106114de57610100808354040283529160200191611509565b820191906000526020600020905b8154815290600101906020018083116114ec57829003601f168201915b505050505081526020016002820154815260200160038201805461152c906145f5565b80601f0160208091040260200160405190810160405280929190818152602001828054611558906145f5565b80156115a55780601f1061157a576101008083540402835291602001916115a5565b820191906000526020600020905b81548152906001019060200180831161158857829003601f168201915b505050505081526020016004820180546115be906145f5565b80601f01602080910402602001604051908101604052809291908181526020018280546115ea906145f5565b80156116375780601f1061160c57610100808354040283529160200191611637565b820191906000526020600020905b81548152906001019060200180831161161a57829003601f168201915b505050505081525050915080805480602002602001604051908101604052809291908181526020016000905b82821015611b9757838290600052602060002090600a0201604051806101400160405290816000820160009054906101000a900473ffffffffffffffffffffffffffffffffffffffff1673ffffffffffffffffffffffffffffffffffffffff1673ffffffffffffffffffffffffffffffffffffffff1681526020016001820180546116ed906145f5565b80601f0160208091040260200160405190810160405280929190818152602001828054611719906145f5565b80156117665780601f1061173b57610100808354040283529160200191611766565b820191906000526020600020905b81548152906001019060200180831161174957829003601f168201915b5050505050815260200160028201805461177f906145f5565b80601f01602080910402602001604051908101604052809291908181526020018280546117ab906145f5565b80156117f85780601f106117cd576101008083540402835291602001916117f8565b820191906000526020600020905b8154815290600101906020018083116117db57829003601f168201915b50505050508152602001600382018054611811906145f5565b80601f016020809104026020016040519081016040528092919081815260200182805461183d906145f5565b801561188a5780601f1061185f5761010080835404028352916020019161188a565b820191906000526020600020905b81548152906001019060200180831161186d57829003601f168201915b505050505081526020016004820180546118a3906145f5565b80601f01602080910402602001604051908101604052809291908181526020018280546118cf906145f5565b801561191c5780601f106118f15761010080835404028352916020019161191c565b820191906000526020600020905b8154815290600101906020018083116118ff57829003601f168201915b50505050508152602001600582018054611935906145f5565b80601f0160208091040260200160405190810160405280929190818152602001828054611961906145f5565b80156119ae5780601f10611983576101008083540402835291602001916119ae565b820191906000526020600020905b81548152906001019060200180831161199157829003601f168201915b505050505081526020016006820180546119c7906145f5565b80601f01602080910402602001604051908101604052809291908181526020018280546119f3906145f5565b8015611a405780601f10611a1557610100808354040283529160200191611a40565b820191906000526020600020905b815481529060010190602001808311611a2357829003601f168201915b50505050508152602001600782018054611a59906145f5565b80601f0160208091040260200160405190810160405280929190818152602001828054611a85906145f5565b8015611ad25780601f10611aa757610100808354040283529160200191611ad2565b820191906000526020600020905b815481529060010190602001808311611ab557829003601f168201915b50505050508152602001600882018054611aeb906145f5565b80601f0160208091040260200160405190810160405280929190818152602001828054611b17906145f5565b8015611b645780601f10611b3957610100808354040283529160200191611b64565b820191906000526020600020905b815481529060010190602001808311611b4757829003601f168201915b505050505081526020016009820160009054906101000a900460ff16151515158152505081526020019060010190611663565b50505050905091509150915091565b611bae61300a565b60606000808473ffffffffffffffffffffffffffffffffffffffff1673ffffffffffffffffffffffffffffffffffffffff168152602001908152602001600020600460008573ffffffffffffffffffffffffffffffffffffffff1673ffffffffffffffffffffffffffffffffffffffff168152602001908152602001600020816040518060a00160405290816000820160009054906101000a900473ffffffffffffffffffffffffffffffffffffffff1673ffffffffffffffffffffffffffffffffffffffff1673ffffffffffffffffffffffffffffffffffffffff168152602001600182018054611c9f906145f5565b80601f0160208091040260200160405190810160405280929190818152602001828054611ccb906145f5565b8015611d185780601f10611ced57610100808354040283529160200191611d18565b820191906000526020600020905b815481529060010190602001808311611cfb57829003601f168201915b5050505050815260200160028201548152602001600382018054611d3b906145f5565b80601f0160208091040260200160405190810160405280929190818152602001828054611d67906145f5565b8015611db45780601f10611d8957610100808354040283529160200191611db4565b820191906000526020600020905b815481529060010190602001808311611d9757829003601f168201915b50505050508152602001600482018054611dcd906145f5565b80601f0160208091040260200160405190810160405280929190818152602001828054611df9906145f5565b8015611e465780601f10611e1b57610100808354040283529160200191611e46565b820191906000526020600020905b815481529060010190602001808311611e2957829003601f168201915b505050505081525050915080805480602002602001604051908101604052809291908181526020016000905b8282101561254157838290600052602060002090600c0201604051806101800160405290816000820160009054906101000a900473ffffffffffffffffffffffffffffffffffffffff1673ffffffffffffffffffffffffffffffffffffffff1673ffffffffffffffffffffffffffffffffffffffff168152602001600182018054611efc906145f5565b80601f0160208091040260200160405190810160405280929190818152602001828054611f28906145f5565b8015611f755780601f10611f4a57610100808354040283529160200191611f75565b820191906000526020600020905b815481529060010190602001808311611f5857829003601f168201915b50505050508152602001600282018054611f8e906145f5565b80601f0160208091040260200160405190810160405280929190818152602001828054611fba906145f5565b80156120075780601f10611fdc57610100808354040283529160200191612007565b820191906000526020600020905b815481529060010190602001808311611fea57829003601f168201915b50505050508152602001600382018054612020906145f5565b80601f016020809104026020016040519081016040528092919081815260200182805461204c906145f5565b80156120995780601f1061206e57610100808354040283529160200191612099565b820191906000526020600020905b81548152906001019060200180831161207c57829003601f168201915b505050505081526020016004820180546120b2906145f5565b80601f01602080910402602001604051908101604052809291908181526020018280546120de906145f5565b801561212b5780601f106121005761010080835404028352916020019161212b565b820191906000526020600020905b81548152906001019060200180831161210e57829003601f168201915b50505050508152602001600582018054612144906145f5565b80601f0160208091040260200160405190810160405280929190818152602001828054612170906145f5565b80156121bd5780601f10612192576101008083540402835291602001916121bd565b820191906000526020600020905b8154815290600101906020018083116121a057829003601f168201915b505050505081526020016006820180546121d6906145f5565b80601f0160208091040260200160405190810160405280929190818152602001828054612202906145f5565b801561224f5780601f106122245761010080835404028352916020019161224f565b820191906000526020600020905b81548152906001019060200180831161223257829003601f168201915b50505050508152602001600782018054612268906145f5565b80601f0160208091040260200160405190810160405280929190818152602001828054612294906145f5565b80156122e15780601f106122b6576101008083540402835291602001916122e1565b820191906000526020600020905b8154815290600101906020018083116122c457829003601f168201915b505050505081526020016008820180546122fa906145f5565b80601f0160208091040260200160405190810160405280929190818152602001828054612326906145f5565b80156123735780601f1061234857610100808354040283529160200191612373565b820191906000526020600020905b81548152906001019060200180831161235657829003601f168201915b5050505050815260200160098201805461238c906145f5565b80601f01602080910402602001604051908101604052809291908181526020018280546123b8906145f5565b80156124055780601f106123da57610100808354040283529160200191612405565b820191906000526020600020905b8154815290600101906020018083116123e857829003601f168201915b50505050508152602001600a8201805461241e906145f5565b80601f016020809104026020016040519081016040528092919081815260200182805461244a906145f5565b80156124975780601f1061246c57610100808354040283529160200191612497565b820191906000526020600020905b81548152906001019060200180831161247a57829003601f168201915b50505050508152602001600b820180546124b0906145f5565b80601f01602080910402602001604051908101604052809291908181526020018280546124dc906145f5565b80156125295780601f106124fe57610100808354040283529160200191612529565b820191906000526020600020905b81548152906001019060200180831161250c57829003601f168201915b50505050508152505081526020019060010190611e72565b50505050905091509150915091565b61255861300a565b60606000808473ffffffffffffffffffffffffffffffffffffffff1673ffffffffffffffffffffffffffffffffffffffff168152602001908152602001600020600360008573ffffffffffffffffffffffffffffffffffffffff1673ffffffffffffffffffffffffffffffffffffffff168152602001908152602001600020816040518060a00160405290816000820160009054906101000a900473ffffffffffffffffffffffffffffffffffffffff1673ffffffffffffffffffffffffffffffffffffffff1673ffffffffffffffffffffffffffffffffffffffff168152602001600182018054612649906145f5565b80601f0160208091040260200160405190810160405280929190818152602001828054612675906145f5565b80156126c25780601f10612697576101008083540402835291602001916126c2565b820191906000526020600020905b8154815290600101906020018083116126a557829003601f168201915b50505050508152602001600282015481526020016003820180546126e5906145f5565b80601f0160208091040260200160405190810160405280929190818152602001828054612711906145f5565b801561275e5780601f106127335761010080835404028352916020019161275e565b820191906000526020600020905b81548152906001019060200180831161274157829003601f168201915b50505050508152602001600482018054612777906145f5565b80601f01602080910402602001604051908101604052809291908181526020018280546127a3906145f5565b80156127f05780601f106127c5576101008083540402835291602001916127f0565b820191906000526020600020905b8154815290600101906020018083116127d357829003601f168201915b505050505081525050915080805480602002602001604051908101604052809291908181526020016000905b82821015612f5c57838290600052602060002090600e0201604051806101c00160405290816000820160009054906101000a900473ffffffffffffffffffffffffffffffffffffffff1673ffffffffffffffffffffffffffffffffffffffff1673ffffffffffffffffffffffffffffffffffffffff1681526020016001820180546128a6906145f5565b80601f01602080910402602001604051908101604052809291908181526020018280546128d2906145f5565b801561291f5780601f106128f45761010080835404028352916020019161291f565b820191906000526020600020905b81548152906001019060200180831161290257829003601f168201915b50505050508152602001600282018054612938906145f5565b80601f0160208091040260200160405190810160405280929190818152602001828054612964906145f5565b80156129b15780601f10612986576101008083540402835291602001916129b1565b820191906000526020600020905b81548152906001019060200180831161299457829003601f168201915b505050505081526020016003820180546129ca906145f5565b80601f01602080910402602001604051908101604052809291908181526020018280546129f6906145f5565b8015612a435780601f10612a1857610100808354040283529160200191612a43565b820191906000526020600020905b815481529060010190602001808311612a2657829003601f168201915b50505050508152602001600482018054612a5c906145f5565b80601f0160208091040260200160405190810160405280929190818152602001828054612a88906145f5565b8015612ad55780601f10612aaa57610100808354040283529160200191612ad5565b820191906000526020600020905b815481529060010190602001808311612ab857829003601f168201915b50505050508152602001600582018054612aee906145f5565b80601f0160208091040260200160405190810160405280929190818152602001828054612b1a906145f5565b8015612b675780601f10612b3c57610100808354040283529160200191612b67565b820191906000526020600020905b815481529060010190602001808311612b4a57829003601f168201915b50505050508152602001600682018054612b80906145f5565b80601f0160208091040260200160405190810160405280929190818152602001828054612bac906145f5565b8015612bf95780601f10612bce57610100808354040283529160200191612bf9565b820191906000526020600020905b815481529060010190602001808311612bdc57829003601f168201915b50505050508152602001600782018054612c12906145f5565b80601f0160208091040260200160405190810160405280929190818152602001828054612c3e906145f5565b8015612c8b5780601f10612c6057610100808354040283529160200191612c8b565b820191906000526020600020905b815481529060010190602001808311612c6e57829003601f168201915b50505050508152602001600882018054612ca4906145f5565b80601f0160208091040260200160405190810160405280929190818152602001828054612cd0906145f5565b8015612d1d5780601f10612cf257610100808354040283529160200191612d1d565b820191906000526020600020905b815481529060010190602001808311612d0057829003601f168201915b505050505081526020016009820160009054906101000a900460ff16151515158152602001600a82018054612d51906145f5565b80601f0160208091040260200160405190810160405280929190818152602001828054612d7d906145f5565b8015612dca5780601f10612d9f57610100808354040283529160200191612dca565b820191906000526020600020905b815481529060010190602001808311612dad57829003601f168201915b50505050508152602001600b82018054612de3906145f5565b80601f0160208091040260200160405190810160405280929190818152602001828054612e0f906145f5565b8015612e5c5780601f10612e3157610100808354040283529160200191612e5c565b820191906000526020600020905b815481529060010190602001808311612e3f57829003601f168201915b50505050508152602001600c820160009054906101000a900473ffffffffffffffffffffffffffffffffffffffff1673ffffffffffffffffffffffffffffffffffffffff1673ffffffffffffffffffffffffffffffffffffffff168152602001600d82018054612ecb906145f5565b80601f0160208091040260200160405190810160405280929190818152602001828054612ef7906145f5565b8015612f445780601f10612f1957610100808354040283529160200191612f44565b820191906000526020600020905b815481529060010190602001808311612f2757829003601f168201915b5050505050815250508152602001906001019061281c565b50505050905091509150915091565b6040518060800160405280606081526020016060815260200160008152602001606081525090565b604051806101800160405280600073ffffffffffffffffffffffffffffffffffffffff16815260200160608152602001606081526020016060815260200160608152602001606081526020016060815260200160608152602001606081526020016060815260200160608152602001606081525090565b6040518060a00160405280600073ffffffffffffffffffffffffffffffffffffffff168152602001606081526020016000815260200160608152602001606081525090565b604051806101400160405280600073ffffffffffffffffffffffffffffffffffffffff16815260200160608152602001606081526020016060815260200160608152602001606081526020016060815260200160608152602001606081526020016000151581525090565b604051806101c00160405280600073ffffffffffffffffffffffffffffffffffffffff16815260200160608152602001606081526020016060815260200160608152602001606081526020016060815260200160608152602001606081526020016000151581526020016060815260200160608152602001600073ffffffffffffffffffffffffffffffffffffffff168152602001606081525090565b6000604051905090565b600080fd5b600080fd5b600073ffffffffffffffffffffffffffffffffffffffff82169050919050565b60006131968261316b565b9050919050565b6131a68161318b565b81146131b157600080fd5b50565b6000813590506131c38161319d565b92915050565b6000602082840312156131df576131de613161565b5b60006131ed848285016131b4565b91505092915050565b600080fd5b6000601f19601f8301169050919050565b7f4e487b7100000000000000000000000000000000000000000000000000000000600052604160045260246000fd5b613244826131fb565b810181811067ffffffffffffffff821117156132635761326261320c565b5b80604052505050565b6000613276613157565b9050613282828261323b565b919050565b600080fd5b600080fd5b600080fd5b600067ffffffffffffffff8211156132b1576132b061320c565b5b6132ba826131fb565b9050602081019050919050565b82818337600083830152505050565b60006132e96132e484613296565b61326c565b90508281526020810184848401111561330557613304613291565b5b6133108482856132c7565b509392505050565b600082601f83011261332d5761332c61328c565b5b813561333d8482602086016132d6565b91505092915050565b6000819050919050565b61335981613346565b811461336457600080fd5b50565b60008135905061337681613350565b92915050565b600060808284031215613392576133916131f6565b5b61339c608061326c565b9050600082013567ffffffffffffffff8111156133bc576133bb613287565b5b6133c884828501613318565b600083015250602082013567ffffffffffffffff8111156133ec576133eb613287565b5b6133f884828501613318565b602083015250604061340c84828501613367565b604083015250606082013567ffffffffffffffff8111156134305761342f613287565b5b61343c84828501613318565b60608301525092915050565b6000610180828403121561345f5761345e6131f6565b5b61346a61018061326c565b9050600061347a848285016131b4565b600083015250602082013567ffffffffffffffff81111561349e5761349d613287565b5b6134aa84828501613318565b602083015250604082013567ffffffffffffffff8111156134ce576134cd613287565b5b6134da84828501613318565b604083015250606082013567ffffffffffffffff8111156134fe576134fd613287565b5b61350a84828501613318565b606083015250608082013567ffffffffffffffff81111561352e5761352d613287565b5b61353a84828501613318565b60808301525060a082013567ffffffffffffffff81111561355e5761355d613287565b5b61356a84828501613318565b60a08301525060c082013567ffffffffffffffff81111561358e5761358d613287565b5b61359a84828501613318565b60c08301525060e082013567ffffffffffffffff8111156135be576135bd613287565b5b6135ca84828501613318565b60e08301525061010082013567ffffffffffffffff8111156135ef576135ee613287565b5b6135fb84828501613318565b6101008301525061012082013567ffffffffffffffff81111561362157613620613287565b5b61362d84828501613318565b6101208301525061014082013567ffffffffffffffff81111561365357613652613287565b5b61365f84828501613318565b6101408301525061016082013567ffffffffffffffff81111561368557613684613287565b5b61369184828501613318565b6101608301525092915050565b600080604083850312156136b5576136b4613161565b5b600083013567ffffffffffffffff8111156136d3576136d2613166565b5b6136df8582860161337c565b925050602083013567ffffffffffffffff811115613700576136ff613166565b5b61370c85828601613448565b9150509250929050565b600060a0828403121561372c5761372b6131f6565b5b61373660a061326c565b90506000613746848285016131b4565b600083015250602082013567ffffffffffffffff81111561376a57613769613287565b5b61377684828501613318565b602083015250604061378a84828501613367565b604083015250606082013567ffffffffffffffff8111156137ae576137ad613287565b5b6137ba84828501613318565b606083015250608082013567ffffffffffffffff8111156137de576137dd613287565b5b6137ea84828501613318565b60808301525092915050565b60008115159050919050565b61380b816137f6565b811461381657600080fd5b50565b60008135905061382881613802565b92915050565b60006101408284031215613845576138446131f6565b5b61385061014061326c565b90506000613860848285016131b4565b600083015250602082013567ffffffffffffffff81111561388457613883613287565b5b61389084828501613318565b602083015250604082013567ffffffffffffffff8111156138b4576138b3613287565b5b6138c084828501613318565b604083015250606082013567ffffffffffffffff8111156138e4576138e3613287565b5b6138f084828501613318565b606083015250608082013567ffffffffffffffff81111561391457613913613287565b5b61392084828501613318565b60808301525060a082013567ffffffffffffffff81111561394457613943613287565b5b61395084828501613318565b60a08301525060c082013567ffffffffffffffff81111561397457613973613287565b5b61398084828501613318565b60c08301525060e082013567ffffffffffffffff8111156139a4576139a3613287565b5b6139b084828501613318565b60e08301525061010082013567ffffffffffffffff8111156139d5576139d4613287565b5b6139e184828501613318565b610100830152506101206139f784828501613819565b6101208301525092915050565b60008060408385031215613a1b57613a1a613161565b5b600083013567ffffffffffffffff811115613a3957613a38613166565b5b613a4585828601613716565b925050602083013567ffffffffffffffff811115613a6657613a65613166565b5b613a728582860161382e565b9150509250929050565b60006101c08284031215613a9357613a926131f6565b5b613a9e6101c061326c565b90506000613aae848285016131b4565b600083015250602082013567ffffffffffffffff811115613ad257613ad1613287565b5b613ade84828501613318565b602083015250604082013567ffffffffffffffff811115613b0257613b01613287565b5b613b0e84828501613318565b604083015250606082013567ffffffffffffffff811115613b3257613b31613287565b5b613b3e84828501613318565b606083015250608082013567ffffffffffffffff811115613b6257613b61613287565b5b613b6e84828501613318565b60808301525060a082013567ffffffffffffffff811115613b9257613b91613287565b5b613b9e84828501613318565b60a08301525060c082013567ffffffffffffffff811115613bc257613bc1613287565b5b613bce84828501613318565b60c08301525060e082013567ffffffffffffffff811115613bf257613bf1613287565b5b613bfe84828501613318565b60e08301525061010082013567ffffffffffffffff811115613c2357613c22613287565b5b613c2f84828501613318565b61010083015250610120613c4584828501613819565b6101208301525061014082013567ffffffffffffffff811115613c6b57613c6a613287565b5b613c7784828501613318565b6101408301525061016082013567ffffffffffffffff811115613c9d57613c9c613287565b5b613ca984828501613318565b61016083015250610180613cbf848285016131b4565b610180830152506101a082013567ffffffffffffffff811115613ce557613ce4613287565b5b613cf184828501613318565b6101a08301525092915050565b60008060408385031215613d1557613d14613161565b5b600083013567ffffffffffffffff811115613d3357613d32613166565b5b613d3f85828601613716565b925050602083013567ffffffffffffffff811115613d6057613d5f613166565b5b613d6c85828601613a7c565b9150509250929050565b613d7f8161318b565b82525050565b600081519050919050565b600082825260208201905092915050565b60005b83811015613dbf578082015181840152602081019050613da4565b60008484015250505050565b6000613dd682613d85565b613de08185613d90565b9350613df0818560208601613da1565b613df9816131fb565b840191505092915050565b613e0d81613346565b82525050565b600060a083016000830151613e2b6000860182613d76565b5060208301518482036020860152613e438282613dcb565b9150506040830151613e586040860182613e04565b5060608301518482036060860152613e708282613dcb565b91505060808301518482036080860152613e8a8282613dcb565b9150508091505092915050565b600081519050919050565b600082825260208201905092915050565b6000819050602082019050919050565b613ecc816137f6565b82525050565b600061014083016000830151613eeb6000860182613d76565b5060208301518482036020860152613f038282613dcb565b91505060408301518482036040860152613f1d8282613dcb565b91505060608301518482036060860152613f378282613dcb565b91505060808301518482036080860152613f518282613dcb565b91505060a083015184820360a0860152613f6b8282613dcb565b91505060c083015184820360c0860152613f858282613dcb565b91505060e083015184820360e0860152613f9f8282613dcb565b915050610100830151848203610100860152613fbb8282613dcb565b915050610120830151613fd2610120860182613ec3565b508091505092915050565b6000613fe98383613ed2565b905092915050565b6000602082019050919050565b600061400982613e97565b6140138185613ea2565b93508360208202850161402585613eb3565b8060005b8581101561406157848403895281516140428582613fdd565b945061404d83613ff1565b925060208a01995050600181019050614029565b50829750879550505050505092915050565b6000604082019050818103600083015261408d8185613e13565b905081810360208301526140a18184613ffe565b90509392505050565b600081519050919050565b600082825260208201905092915050565b6000819050602082019050919050565b6000610180830160008301516140ef6000860182613d76565b50602083015184820360208601526141078282613dcb565b915050604083015184820360408601526141218282613dcb565b9150506060830151848203606086015261413b8282613dcb565b915050608083015184820360808601526141558282613dcb565b91505060a083015184820360a086015261416f8282613dcb565b91505060c083015184820360c08601526141898282613dcb565b91505060e083015184820360e08601526141a38282613dcb565b9150506101008301518482036101008601526141bf8282613dcb565b9150506101208301518482036101208601526141db8282613dcb565b9150506101408301518482036101408601526141f78282613dcb565b9150506101608301518482036101608601526142138282613dcb565b9150508091505092915050565b600061422c83836140d6565b905092915050565b6000602082019050919050565b600061424c826140aa565b61425681856140b5565b935083602082028501614268856140c6565b8060005b858110156142a457848403895281516142858582614220565b945061429083614234565b925060208a0199505060018101905061426c565b50829750879550505050505092915050565b600060408201905081810360008301526142d08185613e13565b905081810360208301526142e48184614241565b90509392505050565b600081519050919050565b600082825260208201905092915050565b6000819050602082019050919050565b60006101c0830160008301516143326000860182613d76565b506020830151848203602086015261434a8282613dcb565b915050604083015184820360408601526143648282613dcb565b9150506060830151848203606086015261437e8282613dcb565b915050608083015184820360808601526143988282613dcb565b91505060a083015184820360a08601526143b28282613dcb565b91505060c083015184820360c08601526143cc8282613dcb565b91505060e083015184820360e08601526143e68282613dcb565b9150506101008301518482036101008601526144028282613dcb565b915050610120830151614419610120860182613ec3565b506101408301518482036101408601526144338282613dcb565b91505061016083015184820361016086015261444f8282613dcb565b915050610180830151614466610180860182613d76565b506101a08301518482036101a08601526144808282613dcb565b9150508091505092915050565b60006144998383614319565b905092915050565b6000602082019050919050565b60006144b9826142ed565b6144c381856142f8565b9350836020820285016144d585614309565b8060005b8581101561451157848403895281516144f2858261448d565b94506144fd836144a1565b925060208a019950506001810190506144d9565b50829750879550505050505092915050565b6000604082019050818103600083015261453d8185613e13565b9050818103602083015261455181846144ae565b90509392505050565b6145638161318b565b82525050565b600060208201905061457e600083018461455a565b92915050565b60008151905061459381613802565b92915050565b6000602082840312156145af576145ae613161565b5b60006145bd84828501614584565b91505092915050565b7f4e487b7100000000000000000000000000000000000000000000000000000000600052602260045260246000fd5b6000600282049050600182168061460d57607f821691505b6020821081036146205761461f6145c6565b5b50919050565b60008190508160005260206000209050919050565b60006020601f8301049050919050565b600082821b905092915050565b6000600883026146887fffffffffffffffffffffffffffffffffffffffffffffffffffffffffffffffff8261464b565b614692868361464b565b95508019841693508086168417925050509392505050565b6000819050919050565b60006146cf6146ca6146c584613346565b6146aa565b613346565b9050919050565b6000819050919050565b6146e9836146b4565b6146fd6146f5826146d6565b848454614658565b825550505050565b600090565b614712614705565b61471d8184846146e0565b505050565b5b818110156147415761473660008261470a565b600181019050614723565b5050565b601f8211156147865761475781614626565b6147608461463b565b8101602085101561476f578190505b61478361477b8561463b565b830182614722565b50505b505050565b600082821c905092915050565b60006147a96000198460080261478b565b1980831691505092915050565b60006147c28383614798565b9150826002028217905092915050565b6147db82613d85565b67ffffffffffffffff8111156147f4576147f361320c565b5b6147fe82546145f5565b614809828285614745565b600060209050601f83116001811461483c576000841561482a578287015190505b61483485826147b6565b86555061489c565b601f19841661484a86614626565b60005b828110156148725784890151825560018201915060208501945060208101905061484d565b8683101561488f578489015161488b601f891682614798565b8355505b6001600288020188555050505b505050505050565b60006040820190506148b9600083018561455a565b6148c6602083018461455a565b939250505056fea2646970667358221220e61353a1fe4c5934575c0364b5aa8479233388dceb9cc5c25fe171673f29457a64736f6c63430008110033608060405234801561001057600080fd5b50604051610605380380610605833981810160405281019061003291906100db565b806000806101000a81548173ffffffffffffffffffffffffffffffffffffffff021916908373ffffffffffffffffffffffffffffffffffffffff16021790555050610108565b600080fd5b600073ffffffffffffffffffffffffffffffffffffffff82169050919050565b60006100a88261007d565b9050919050565b6100b88161009d565b81146100c357600080fd5b50565b6000815190506100d5816100af565b92915050565b6000602082840312156100f1576100f0610078565b5b60006100ff848285016100c6565b91505092915050565b6104ee806101176000396000f3fe608060405234801561001057600080fd5b50600436106100415760003560e01c806318a231a91461004657806363a9c3d7146100645780636d263ceb14610094575b600080fd5b61004e6100b0565b60405161005b9190610402565b60405180910390f35b61007e60048036038101906100799190610455565b610196565b60405161008b919061049d565b60405180910390f35b6100ae60048036038101906100a99190610455565b6101fd565b005b606060008054906101000a900473ffffffffffffffffffffffffffffffffffffffff1673ffffffffffffffffffffffffffffffffffffffff163373ffffffffffffffffffffffffffffffffffffffff161461010a57600080fd5b600180548060200260200160405190810160405280929190818152602001828054801561018c57602002820191906000526020600020905b8160009054906101000a900473ffffffffffffffffffffffffffffffffffffffff1673ffffffffffffffffffffffffffffffffffffffff1681526020019060010190808311610142575b5050505050905090565b6000600260008373ffffffffffffffffffffffffffffffffffffffff1673ffffffffffffffffffffffffffffffffffffffff16815260200190815260200160002060009054906101000a900460ff16156101f357600190506101f8565b600090505b919050565b600260008273ffffffffffffffffffffffffffffffffffffffff1673ffffffffffffffffffffffffffffffffffffffff16815260200190815260200160002060009054906101000a900460ff161561025457600080fd5b6001600260008373ffffffffffffffffffffffffffffffffffffffff1673ffffffffffffffffffffffffffffffffffffffff16815260200190815260200160002060006101000a81548160ff0219169083151502179055506001819080600181540180825580915050600190039060005260206000200160009091909190916101000a81548173ffffffffffffffffffffffffffffffffffffffff021916908373ffffffffffffffffffffffffffffffffffffffff16021790555050565b600081519050919050565b600082825260208201905092915050565b6000819050602082019050919050565b600073ffffffffffffffffffffffffffffffffffffffff82169050919050565b60006103698261033e565b9050919050565b6103798161035e565b82525050565b600061038b8383610370565b60208301905092915050565b6000602082019050919050565b60006103af82610312565b6103b9818561031d565b93506103c48361032e565b8060005b838110156103f55781516103dc888261037f565b97506103e783610397565b9250506001810190506103c8565b5085935050505092915050565b6000602082019050818103600083015261041c81846103a4565b905092915050565b600080fd5b6104328161035e565b811461043d57600080fd5b50565b60008135905061044f81610429565b92915050565b60006020828403121561046b5761046a610424565b5b600061047984828501610440565b91505092915050565b60008115159050919050565b61049781610482565b82525050565b60006020820190506104b2600083018461048e565b9291505056fea26469706673582212204dddc2aa17d77f6cc21ccf5e8ad852c0ca0a2f03eec8f5cfeed6d4c397f8a19064736f6c63430008110033608060405234801561001057600080fd5b5060405161065d38038061065d833981810160405281019061003291906100db565b806000806101000a81548173ffffffffffffffffffffffffffffffffffffffff021916908373ffffffffffffffffffffffffffffffffffffffff16021790555050610108565b600080fd5b600073ffffffffffffffffffffffffffffffffffffffff82169050919050565b60006100a88261007d565b9050919050565b6100b88161009d565b81146100c357600080fd5b50565b6000815190506100d5816100af565b92915050565b6000602082840312156100f1576100f0610078565b5b60006100ff848285016100c6565b91505092915050565b610546806101176000396000f3fe608060405234801561001057600080fd5b50600436106100415760003560e01c80634780468f1461004657806363a9c3d714610062578063f0d9509014610092575b600080fd5b610060600480360381019061005b91906103cd565b6100b0565b005b61007c600480360381019061007791906103cd565b61021d565b6040516100899190610415565b60405180910390f35b61009a610284565b6040516100a791906104ee565b60405180910390f35b60008054906101000a900473ffffffffffffffffffffffffffffffffffffffff1673ffffffffffffffffffffffffffffffffffffffff163373ffffffffffffffffffffffffffffffffffffffff161461010857600080fd5b600260008273ffffffffffffffffffffffffffffffffffffffff1673ffffffffffffffffffffffffffffffffffffffff16815260200190815260200160002060009054906101000a900460ff161561015f57600080fd5b6001600260008373ffffffffffffffffffffffffffffffffffffffff1673ffffffffffffffffffffffffffffffffffffffff16815260200190815260200160002060006101000a81548160ff0219169083151502179055506001819080600181540180825580915050600190039060005260206000200160009091909190916101000a81548173ffffffffffffffffffffffffffffffffffffffff021916908373ffffffffffffffffffffffffffffffffffffffff16021790555050565b6000600260008373ffffffffffffffffffffffffffffffffffffffff1673ffffffffffffffffffffffffffffffffffffffff16815260200190815260200160002060009054906101000a900460ff161561027a576001905061027f565b600090505b919050565b606060008054906101000a900473ffffffffffffffffffffffffffffffffffffffff1673ffffffffffffffffffffffffffffffffffffffff163373ffffffffffffffffffffffffffffffffffffffff16146102de57600080fd5b600180548060200260200160405190810160405280929190818152602001828054801561036057602002820191906000526020600020905b8160009054906101000a900473ffffffffffffffffffffffffffffffffffffffff1673ffffffffffffffffffffffffffffffffffffffff1681526020019060010190808311610316575b5050505050905090565b600080fd5b600073ffffffffffffffffffffffffffffffffffffffff82169050919050565b600061039a8261036f565b9050919050565b6103aa8161038f565b81146103b557600080fd5b50565b6000813590506103c7816103a1565b92915050565b6000602082840312156103e3576103e261036a565b5b60006103f1848285016103b8565b91505092915050565b60008115159050919050565b61040f816103fa565b82525050565b600060208201905061042a6000830184610406565b92915050565b600081519050919050565b600082825260208201905092915050565b6000819050602082019050919050565b6104658161038f565b82525050565b6000610477838361045c565b60208301905092915050565b6000602082019050919050565b600061049b82610430565b6104a5818561043b565b93506104b08361044c565b8060005b838110156104e15781516104c8888261046b565b97506104d383610483565b9250506001810190506104b4565b5085935050505092915050565b600060208201905081810360008301526105088184610490565b90509291505056fea2646970667358221220545420232e2949d5dcce0dea5e86b35c434649125a1d2967443d4eeb1c69fb9064736f6c63430008110033608060405234801561001057600080fd5b50604051610795380380610795833981810160405281019061003291906100db565b806000806101000a81548173ffffffffffffffffffffffffffffffffffffffff021916908373ffffffffffffffffffffffffffffffffffffffff16021790555050610108565b600080fd5b600073ffffffffffffffffffffffffffffffffffffffff82169050919050565b60006100a88261007d565b9050919050565b6100b88161009d565b81146100c357600080fd5b50565b6000815190506100d5816100af565b92915050565b6000602082840312156100f1576100f0610078565b5b60006100ff848285016100c6565b91505092915050565b61067e806101176000396000f3fe608060405234801561001057600080fd5b50600436106100415760003560e01c80631107747e146100465780638bfc8c7114610062578063f40941d01461007e575b600080fd5b610060600480360381019061005b919061046c565b6100ae565b005b61007c60048036038101906100779190610499565b61014a565b005b6100986004803603810190610093919061046c565b610295565b6040516100a59190610597565b60405180910390f35b60008054906101000a900473ffffffffffffffffffffffffffffffffffffffff1673ffffffffffffffffffffffffffffffffffffffff163373ffffffffffffffffffffffffffffffffffffffff161461010657600080fd5b80600260006101000a81548173ffffffffffffffffffffffffffffffffffffffff021916908373ffffffffffffffffffffffffffffffffffffffff16021790555050565b81600260009054906101000a900473ffffffffffffffffffffffffffffffffffffffff1673ffffffffffffffffffffffffffffffffffffffff166363a9c3d7826040518263ffffffff1660e01b81526004016101a691906105c8565b602060405180830381865afa1580156101c3573d6000803e3d6000fd5b505050506040513d601f19601f820116820180604052508101906101e7919061061b565b6101f057600080fd5b600160008473ffffffffffffffffffffffffffffffffffffffff1673ffffffffffffffffffffffffffffffffffffffff168152602001908152602001600020829080600181540180825580915050600190039060005260206000200160009091909190916101000a81548173ffffffffffffffffffffffffffffffffffffffff021916908373ffffffffffffffffffffffffffffffffffffffff160217905550505050565b606033600260009054906101000a900473ffffffffffffffffffffffffffffffffffffffff1673ffffffffffffffffffffffffffffffffffffffff166363a9c3d7826040518263ffffffff1660e01b81526004016102f391906105c8565b602060405180830381865afa158015610310573d6000803e3d6000fd5b505050506040513d601f19601f82011682018060405250810190610334919061061b565b61033d57600080fd5b600160008473ffffffffffffffffffffffffffffffffffffffff1673ffffffffffffffffffffffffffffffffffffffff1681526020019081526020016000208054806020026020016040519081016040528092919081815260200182805480156103fc57602002820191906000526020600020905b8160009054906101000a900473ffffffffffffffffffffffffffffffffffffffff1673ffffffffffffffffffffffffffffffffffffffff16815260200190600101908083116103b2575b5050505050915050919050565b600080fd5b600073ffffffffffffffffffffffffffffffffffffffff82169050919050565b60006104398261040e565b9050919050565b6104498161042e565b811461045457600080fd5b50565b60008135905061046681610440565b92915050565b60006020828403121561048257610481610409565b5b600061049084828501610457565b91505092915050565b600080604083850312156104b0576104af610409565b5b60006104be85828601610457565b92505060206104cf85828601610457565b9150509250929050565b600081519050919050565b600082825260208201905092915050565b6000819050602082019050919050565b61050e8161042e565b82525050565b60006105208383610505565b60208301905092915050565b6000602082019050919050565b6000610544826104d9565b61054e81856104e4565b9350610559836104f5565b8060005b8381101561058a5781516105718882610514565b975061057c8361052c565b92505060018101905061055d565b5085935050505092915050565b600060208201905081810360008301526105b18184610539565b905092915050565b6105c28161042e565b82525050565b60006020820190506105dd60008301846105b9565b92915050565b60008115159050919050565b6105f8816105e3565b811461060357600080fd5b50565b600081519050610615816105ef565b92915050565b60006020828403121561063157610630610409565b5b600061063f84828501610606565b9150509291505056fea2646970667358221220b9486299f1bc910e106e762a6d9f13da406725333b1779d3d5f8f52f764cd0b764736f6c63430008110033","opcodes":"PUSH1 0x80 PUSH1 0x40 MSTORE CALLVALUE DUP1 ISZERO PUSH3 0x11 JUMPI PUSH1 0x0 DUP1 REVERT JUMPDEST POP CALLER PUSH1 0x1 PUSH1 0x0 PUSH2 0x100 EXP DUP2 SLOAD DUP2 PUSH20 0xFFFFFFFFFFFFFFFFFFFFFFFFFFFFFFFFFFFFFFFF MUL NOT AND SWAP1 DUP4 PUSH20 0xFFFFFFFFFFFFFFFFFFFFFFFFFFFFFFFFFFFFFFFF AND MUL OR SWAP1 SSTORE POP PUSH1 0x0 CALLER PUSH1 0x40 MLOAD PUSH3 0x64 SWAP1 PUSH3 0x571 JUMP JUMPDEST PUSH3 0x70 SWAP2 SWAP1 PUSH3 0x5EE JUMP JUMPDEST PUSH1 0x40 MLOAD DUP1 SWAP2 SUB SWAP1 PUSH1 0x0 CREATE DUP1 ISZERO DUP1 ISZERO PUSH3 0x8D JUMPI RETURNDATASIZE PUSH1 0x0 DUP1 RETURNDATACOPY RETURNDATASIZE PUSH1 0x0 REVERT JUMPDEST POP SWAP1 POP PUSH1 0x0 PUSH1 0x40 MLOAD PUSH3 0xA0 SWAP1 PUSH3 0x666 JUMP JUMPDEST SWAP1 DUP2 MSTORE PUSH1 0x20 ADD PUSH1 0x40 MLOAD DUP1 SWAP2 SUB SWAP1 KECCAK256 PUSH1 0x40 MLOAD DUP1 PUSH1 0x40 ADD PUSH1 0x40 MSTORE DUP1 PUSH1 0x40 MLOAD DUP1 PUSH1 0x40 ADD PUSH1 0x40 MSTORE DUP1 PUSH1 0x18 DUP2 MSTORE PUSH1 0x20 ADD PUSH32 0x656C656374726F6E69634D65646963616C5265636F7264730000000000000000 DUP2 MSTORE POP DUP2 MSTORE PUSH1 0x20 ADD DUP4 PUSH20 0xFFFFFFFFFFFFFFFFFFFFFFFFFFFFFFFFFFFFFFFF AND DUP2 MSTORE POP SWAP1 DUP1 PUSH1 0x1 DUP2 SLOAD ADD DUP1 DUP3 SSTORE DUP1 SWAP2 POP POP PUSH1 0x1 SWAP1 SUB SWAP1 PUSH1 0x0 MSTORE PUSH1 0x20 PUSH1 0x0 KECCAK256 SWAP1 PUSH1 0x2 MUL ADD PUSH1 0x0 SWAP1 SWAP2 SWAP1 SWAP2 SWAP1 SWAP2 POP PUSH1 0x0 DUP3 ADD MLOAD DUP2 PUSH1 0x0 ADD SWAP1 DUP2 PUSH3 0x14E SWAP2 SWAP1 PUSH3 0x8F7 JUMP JUMPDEST POP PUSH1 0x20 DUP3 ADD MLOAD DUP2 PUSH1 0x1 ADD PUSH1 0x0 PUSH2 0x100 EXP DUP2 SLOAD DUP2 PUSH20 0xFFFFFFFFFFFFFFFFFFFFFFFFFFFFFFFFFFFFFFFF MUL NOT AND SWAP1 DUP4 PUSH20 0xFFFFFFFFFFFFFFFFFFFFFFFFFFFFFFFFFFFFFFFF AND MUL OR SWAP1 SSTORE POP POP POP PUSH1 0x0 CALLER PUSH1 0x40 MLOAD PUSH3 0x1A9 SWAP1 PUSH3 0x57F JUMP JUMPDEST PUSH3 0x1B5 SWAP2 SWAP1 PUSH3 0x5EE JUMP JUMPDEST PUSH1 0x40 MLOAD DUP1 SWAP2 SUB SWAP1 PUSH1 0x0 CREATE DUP1 ISZERO DUP1 ISZERO PUSH3 0x1D2 JUMPI RETURNDATASIZE PUSH1 0x0 DUP1 RETURNDATACOPY RETURNDATASIZE PUSH1 0x0 REVERT JUMPDEST POP SWAP1 POP PUSH1 0x0 PUSH1 0x40 MLOAD PUSH3 0x1E5 SWAP1 PUSH3 0x666 JUMP JUMPDEST SWAP1 DUP2 MSTORE PUSH1 0x20 ADD PUSH1 0x40 MLOAD DUP1 SWAP2 SUB SWAP1 KECCAK256 PUSH1 0x40 MLOAD DUP1 PUSH1 0x40 ADD PUSH1 0x40 MSTORE DUP1 PUSH1 0x40 MLOAD DUP1 PUSH1 0x40 ADD PUSH1 0x40 MSTORE DUP1 PUSH1 0x12 DUP2 MSTORE PUSH1 0x20 ADD PUSH32 0x70617469656E745665726966696361746F720000000000000000000000000000 DUP2 MSTORE POP DUP2 MSTORE PUSH1 0x20 ADD DUP4 PUSH20 0xFFFFFFFFFFFFFFFFFFFFFFFFFFFFFFFFFFFFFFFF AND DUP2 MSTORE POP SWAP1 DUP1 PUSH1 0x1 DUP2 SLOAD ADD DUP1 DUP3 SSTORE DUP1 SWAP2 POP POP PUSH1 0x1 SWAP1 SUB SWAP1 PUSH1 0x0 MSTORE PUSH1 0x20 PUSH1 0x0 KECCAK256 SWAP1 PUSH1 0x2 MUL ADD PUSH1 0x0 SWAP1 SWAP2 SWAP1 SWAP2 SWAP1 SWAP2 POP PUSH1 0x0 DUP3 ADD MLOAD DUP2 PUSH1 0x0 ADD SWAP1 DUP2 PUSH3 0x293 SWAP2 SWAP1 PUSH3 0x8F7 JUMP JUMPDEST POP PUSH1 0x20 DUP3 ADD MLOAD DUP2 PUSH1 0x1 ADD PUSH1 0x0 PUSH2 0x100 EXP DUP2 SLOAD DUP2 PUSH20 0xFFFFFFFFFFFFFFFFFFFFFFFFFFFFFFFFFFFFFFFF MUL NOT AND SWAP1 DUP4 PUSH20 0xFFFFFFFFFFFFFFFFFFFFFFFFFFFFFFFFFFFFFFFF AND MUL OR SWAP1 SSTORE POP POP POP PUSH1 0x0 CALLER PUSH1 0x40 MLOAD PUSH3 0x2EE SWAP1 PUSH3 0x58D JUMP JUMPDEST PUSH3 0x2FA SWAP2 SWAP1 PUSH3 0x5EE JUMP JUMPDEST PUSH1 0x40 MLOAD DUP1 SWAP2 SUB SWAP1 PUSH1 0x0 CREATE DUP1 ISZERO DUP1 ISZERO PUSH3 0x317 JUMPI RETURNDATASIZE PUSH1 0x0 DUP1 RETURNDATACOPY RETURNDATASIZE PUSH1 0x0 REVERT JUMPDEST POP SWAP1 POP PUSH1 0x0 PUSH1 0x40 MLOAD PUSH3 0x32A SWAP1 PUSH3 0x666 JUMP JUMPDEST SWAP1 DUP2 MSTORE PUSH1 0x20 ADD PUSH1 0x40 MLOAD DUP1 SWAP2 SUB SWAP1 KECCAK256 PUSH1 0x40 MLOAD DUP1 PUSH1 0x40 ADD PUSH1 0x40 MSTORE DUP1 PUSH1 0x40 MLOAD DUP1 PUSH1 0x40 ADD PUSH1 0x40 MSTORE DUP1 PUSH1 0x11 DUP2 MSTORE PUSH1 0x20 ADD PUSH32 0x646F63746F725665726966696361746F72000000000000000000000000000000 DUP2 MSTORE POP DUP2 MSTORE PUSH1 0x20 ADD DUP4 PUSH20 0xFFFFFFFFFFFFFFFFFFFFFFFFFFFFFFFFFFFFFFFF AND DUP2 MSTORE POP SWAP1 DUP1 PUSH1 0x1 DUP2 SLOAD ADD DUP1 DUP3 SSTORE DUP1 SWAP2 POP POP PUSH1 0x1 SWAP1 SUB SWAP1 PUSH1 0x0 MSTORE PUSH1 0x20 PUSH1 0x0 KECCAK256 SWAP1 PUSH1 0x2 MUL ADD PUSH1 0x0 SWAP1 SWAP2 SWAP1 SWAP2 SWAP1 SWAP2 POP PUSH1 0x0 DUP3 ADD MLOAD DUP2 PUSH1 0x0 ADD SWAP1 DUP2 PUSH3 0x3D8 SWAP2 SWAP1 PUSH3 0x8F7 JUMP JUMPDEST POP PUSH1 0x20 DUP3 ADD MLOAD DUP2 PUSH1 0x1 ADD PUSH1 0x0 PUSH2 0x100 EXP DUP2 SLOAD DUP2 PUSH20 0xFFFFFFFFFFFFFFFFFFFFFFFFFFFFFFFFFFFFFFFF MUL NOT AND SWAP1 DUP4 PUSH20 0xFFFFFFFFFFFFFFFFFFFFFFFFFFFFFFFFFFFFFFFF AND MUL OR SWAP1 SSTORE POP POP POP PUSH1 0x0 CALLER PUSH1 0x40 MLOAD PUSH3 0x433 SWAP1 PUSH3 0x59B JUMP JUMPDEST PUSH3 0x43F SWAP2 SWAP1 PUSH3 0x5EE JUMP JUMPDEST PUSH1 0x40 MLOAD DUP1 SWAP2 SUB SWAP1 PUSH1 0x0 CREATE DUP1 ISZERO DUP1 ISZERO PUSH3 0x45C JUMPI RETURNDATASIZE PUSH1 0x0 DUP1 RETURNDATACOPY RETURNDATASIZE PUSH1 0x0 REVERT JUMPDEST POP SWAP1 POP PUSH1 0x0 PUSH1 0x40 MLOAD PUSH3 0x46F SWAP1 PUSH3 0x666 JUMP JUMPDEST SWAP1 DUP2 MSTORE PUSH1 0x20 ADD PUSH1 0x40 MLOAD DUP1 SWAP2 SUB SWAP1 KECCAK256 PUSH1 0x40 MLOAD DUP1 PUSH1 0x40 ADD PUSH1 0x40 MSTORE DUP1 PUSH1 0x40 MLOAD DUP1 PUSH1 0x40 ADD PUSH1 0x40 MSTORE DUP1 PUSH1 0xE DUP2 MSTORE PUSH1 0x20 ADD PUSH32 0x646F63746F7252656C6174696F6E000000000000000000000000000000000000 DUP2 MSTORE POP DUP2 MSTORE PUSH1 0x20 ADD DUP4 PUSH20 0xFFFFFFFFFFFFFFFFFFFFFFFFFFFFFFFFFFFFFFFF AND DUP2 MSTORE POP SWAP1 DUP1 PUSH1 0x1 DUP2 SLOAD ADD DUP1 DUP3 SSTORE DUP1 SWAP2 POP POP PUSH1 0x1 SWAP1 SUB SWAP1 PUSH1 0x0 MSTORE PUSH1 0x20 PUSH1 0x0 KECCAK256 SWAP1 PUSH1 0x2 MUL ADD PUSH1 0x0 SWAP1 SWAP2 SWAP1 SWAP2 SWAP1 SWAP2 POP PUSH1 0x0 DUP3 ADD MLOAD DUP2 PUSH1 0x0 ADD SWAP1 DUP2 PUSH3 0x51D SWAP2 SWAP1 PUSH3 0x8F7 JUMP JUMPDEST POP PUSH1 0x20 DUP3 ADD MLOAD DUP2 PUSH1 0x1 ADD PUSH1 0x0 PUSH2 0x100 EXP DUP2 SLOAD DUP2 PUSH20 0xFFFFFFFFFFFFFFFFFFFFFFFFFFFFFFFFFFFFFFFF MUL NOT AND SWAP1 DUP4 PUSH20 0xFFFFFFFFFFFFFFFFFFFFFFFFFFFFFFFFFFFFFFFF AND MUL OR SWAP1 SSTORE POP POP POP POP POP POP POP PUSH3 0x9DE JUMP JUMPDEST PUSH2 0x4A2E DUP1 PUSH3 0x10F3 DUP4 CODECOPY ADD SWAP1 JUMP JUMPDEST PUSH2 0x605 DUP1 PUSH3 0x5B21 DUP4 CODECOPY ADD SWAP1 JUMP JUMPDEST PUSH2 0x65D DUP1 PUSH3 0x6126 DUP4 CODECOPY ADD SWAP1 JUMP JUMPDEST PUSH2 0x795 DUP1 PUSH3 0x6783 DUP4 CODECOPY ADD SWAP1 JUMP JUMPDEST PUSH1 0x0 PUSH20 0xFFFFFFFFFFFFFFFFFFFFFFFFFFFFFFFFFFFFFFFF DUP3 AND SWAP1 POP SWAP2 SWAP1 POP JUMP JUMPDEST PUSH1 0x0 PUSH3 0x5D6 DUP3 PUSH3 0x5A9 JUMP JUMPDEST SWAP1 POP SWAP2 SWAP1 POP JUMP JUMPDEST PUSH3 0x5E8 DUP2 PUSH3 0x5C9 JUMP JUMPDEST DUP3 MSTORE POP POP JUMP JUMPDEST PUSH1 0x0 PUSH1 0x20 DUP3 ADD SWAP1 POP PUSH3 0x605 PUSH1 0x0 DUP4 ADD DUP5 PUSH3 0x5DD JUMP JUMPDEST SWAP3 SWAP2 POP POP JUMP JUMPDEST PUSH1 0x0 DUP2 SWAP1 POP SWAP3 SWAP2 POP POP JUMP JUMPDEST PUSH32 0x7365637265740000000000000000000000000000000000000000000000000000 PUSH1 0x0 DUP3 ADD MSTORE POP JUMP JUMPDEST PUSH1 0x0 PUSH3 0x64E PUSH1 0x6 DUP4 PUSH3 0x60B JUMP JUMPDEST SWAP2 POP PUSH3 0x65B DUP3 PUSH3 0x616 JUMP JUMPDEST PUSH1 0x6 DUP3 ADD SWAP1 POP SWAP2 SWAP1 POP JUMP JUMPDEST PUSH1 0x0 PUSH3 0x673 DUP3 PUSH3 0x63F JUMP JUMPDEST SWAP2 POP DUP2 SWAP1 POP SWAP2 SWAP1 POP JUMP JUMPDEST PUSH1 0x0 DUP2 MLOAD SWAP1 POP SWAP2 SWAP1 POP JUMP JUMPDEST PUSH32 0x4E487B7100000000000000000000000000000000000000000000000000000000 PUSH1 0x0 MSTORE PUSH1 0x41 PUSH1 0x4 MSTORE PUSH1 0x24 PUSH1 0x0 REVERT JUMPDEST PUSH32 0x4E487B7100000000000000000000000000000000000000000000000000000000 PUSH1 0x0 MSTORE PUSH1 0x22 PUSH1 0x4 MSTORE PUSH1 0x24 PUSH1 0x0 REVERT JUMPDEST PUSH1 0x0 PUSH1 0x2 DUP3 DIV SWAP1 POP PUSH1 0x1 DUP3 AND DUP1 PUSH3 0x6FF JUMPI PUSH1 0x7F DUP3 AND SWAP2 POP JUMPDEST PUSH1 0x20 DUP3 LT DUP2 SUB PUSH3 0x715 JUMPI PUSH3 0x714 PUSH3 0x6B7 JUMP JUMPDEST JUMPDEST POP SWAP2 SWAP1 POP JUMP JUMPDEST PUSH1 0x0 DUP2 SWAP1 POP DUP2 PUSH1 0x0 MSTORE PUSH1 0x20 PUSH1 0x0 KECCAK256 SWAP1 POP SWAP2 SWAP1 POP JUMP JUMPDEST PUSH1 0x0 PUSH1 0x20 PUSH1 0x1F DUP4 ADD DIV SWAP1 POP SWAP2 SWAP1 POP JUMP JUMPDEST PUSH1 0x0 DUP3 DUP3 SHL SWAP1 POP SWAP3 SWAP2 POP POP JUMP JUMPDEST PUSH1 0x0 PUSH1 0x8 DUP4 MUL PUSH3 0x77F PUSH32 0xFFFFFFFFFFFFFFFFFFFFFFFFFFFFFFFFFFFFFFFFFFFFFFFFFFFFFFFFFFFFFFFF DUP3 PUSH3 0x740 JUMP JUMPDEST PUSH3 0x78B DUP7 DUP4 PUSH3 0x740 JUMP JUMPDEST SWAP6 POP DUP1 NOT DUP5 AND SWAP4 POP DUP1 DUP7 AND DUP5 OR SWAP3 POP POP POP SWAP4 SWAP3 POP POP POP JUMP JUMPDEST PUSH1 0x0 DUP2 SWAP1 POP SWAP2 SWAP1 POP JUMP JUMPDEST PUSH1 0x0 DUP2 SWAP1 POP SWAP2 SWAP1 POP JUMP JUMPDEST PUSH1 0x0 PUSH3 0x7D8 PUSH3 0x7D2 PUSH3 0x7CC DUP5 PUSH3 0x7A3 JUMP JUMPDEST PUSH3 0x7AD JUMP JUMPDEST PUSH3 0x7A3 JUMP JUMPDEST SWAP1 POP SWAP2 SWAP1 POP JUMP JUMPDEST PUSH1 0x0 DUP2 SWAP1 POP SWAP2 SWAP1 POP JUMP JUMPDEST PUSH3 0x7F4 DUP4 PUSH3 0x7B7 JUMP JUMPDEST PUSH3 0x80C PUSH3 0x803 DUP3 PUSH3 0x7DF JUMP JUMPDEST DUP5 DUP5 SLOAD PUSH3 0x74D JUMP JUMPDEST DUP3 SSTORE POP POP POP POP JUMP JUMPDEST PUSH1 0x0 SWAP1 JUMP JUMPDEST PUSH3 0x823 PUSH3 0x814 JUMP JUMPDEST PUSH3 0x830 DUP2 DUP5 DUP5 PUSH3 0x7E9 JUMP JUMPDEST POP POP POP JUMP JUMPDEST JUMPDEST DUP2 DUP2 LT ISZERO PUSH3 0x858 JUMPI PUSH3 0x84C PUSH1 0x0 DUP3 PUSH3 0x819 JUMP JUMPDEST PUSH1 0x1 DUP2 ADD SWAP1 POP PUSH3 0x836 JUMP JUMPDEST POP POP JUMP JUMPDEST PUSH1 0x1F DUP3 GT ISZERO PUSH3 0x8A7 JUMPI PUSH3 0x871 DUP2 PUSH3 0x71B JUMP JUMPDEST PUSH3 0x87C DUP5 PUSH3 0x730 JUMP JUMPDEST DUP2 ADD PUSH1 0x20 DUP6 LT ISZERO PUSH3 0x88C JUMPI DUP2 SWAP1 POP JUMPDEST PUSH3 0x8A4 PUSH3 0x89B DUP6 PUSH3 0x730 JUMP JUMPDEST DUP4 ADD DUP3 PUSH3 0x835 JUMP JUMPDEST POP POP JUMPDEST POP POP POP JUMP JUMPDEST PUSH1 0x0 DUP3 DUP3 SHR SWAP1 POP SWAP3 SWAP2 POP POP JUMP JUMPDEST PUSH1 0x0 PUSH3 0x8CC PUSH1 0x0 NOT DUP5 PUSH1 0x8 MUL PUSH3 0x8AC JUMP JUMPDEST NOT DUP1 DUP4 AND SWAP2 POP POP SWAP3 SWAP2 POP POP JUMP JUMPDEST PUSH1 0x0 PUSH3 0x8E7 DUP4 DUP4 PUSH3 0x8B9 JUMP JUMPDEST SWAP2 POP DUP3 PUSH1 0x2 MUL DUP3 OR SWAP1 POP SWAP3 SWAP2 POP POP JUMP JUMPDEST PUSH3 0x902 DUP3 PUSH3 0x67D JUMP JUMPDEST PUSH8 0xFFFFFFFFFFFFFFFF DUP2 GT ISZERO PUSH3 0x91E JUMPI PUSH3 0x91D PUSH3 0x688 JUMP JUMPDEST JUMPDEST PUSH3 0x92A DUP3 SLOAD PUSH3 0x6E6 JUMP JUMPDEST PUSH3 0x937 DUP3 DUP3 DUP6 PUSH3 0x85C JUMP JUMPDEST PUSH1 0x0 PUSH1 0x20 SWAP1 POP PUSH1 0x1F DUP4 GT PUSH1 0x1 DUP2 EQ PUSH3 0x96F JUMPI PUSH1 0x0 DUP5 ISZERO PUSH3 0x95A JUMPI DUP3 DUP8 ADD MLOAD SWAP1 POP JUMPDEST PUSH3 0x966 DUP6 DUP3 PUSH3 0x8D9 JUMP JUMPDEST DUP7 SSTORE POP PUSH3 0x9D6 JUMP JUMPDEST PUSH1 0x1F NOT DUP5 AND PUSH3 0x97F DUP7 PUSH3 0x71B JUMP JUMPDEST PUSH1 0x0 JUMPDEST DUP3 DUP2 LT ISZERO PUSH3 0x9A9 JUMPI DUP5 DUP10 ADD MLOAD DUP3 SSTORE PUSH1 0x1 DUP3 ADD SWAP2 POP PUSH1 0x20 DUP6 ADD SWAP5 POP PUSH1 0x20 DUP2 ADD SWAP1 POP PUSH3 0x982 JUMP JUMPDEST DUP7 DUP4 LT ISZERO PUSH3 0x9C9 JUMPI DUP5 DUP10 ADD MLOAD PUSH3 0x9C5 PUSH1 0x1F DUP10 AND DUP3 PUSH3 0x8B9 JUMP JUMPDEST DUP4 SSTORE POP JUMPDEST PUSH1 0x1 PUSH1 0x2 DUP9 MUL ADD DUP9 SSTORE POP POP POP JUMPDEST POP POP POP POP POP POP JUMP JUMPDEST PUSH2 0x705 DUP1 PUSH3 0x9EE PUSH1 0x0 CODECOPY PUSH1 0x0 RETURN INVALID PUSH1 0x80 PUSH1 0x40 MSTORE CALLVALUE DUP1 ISZERO PUSH2 0x10 JUMPI PUSH1 0x0 DUP1 REVERT JUMPDEST POP PUSH1 0x4 CALLDATASIZE LT PUSH2 0x36 JUMPI PUSH1 0x0 CALLDATALOAD PUSH1 0xE0 SHR DUP1 PUSH4 0xC4FE354C EQ PUSH2 0x3B JUMPI DUP1 PUSH4 0xF851A440 EQ PUSH2 0x6B JUMPI JUMPDEST PUSH1 0x0 DUP1 REVERT JUMPDEST PUSH2 0x55 PUSH1 0x4 DUP1 CALLDATASIZE SUB DUP2 ADD SWAP1 PUSH2 0x50 SWAP2 SWAP1 PUSH2 0x3C8 JUMP JUMPDEST PUSH2 0x89 JUMP JUMPDEST PUSH1 0x40 MLOAD PUSH2 0x62 SWAP2 SWAP1 PUSH2 0x5D0 JUMP JUMPDEST PUSH1 0x40 MLOAD DUP1 SWAP2 SUB SWAP1 RETURN JUMPDEST PUSH2 0x73 PUSH2 0x248 JUMP JUMPDEST PUSH1 0x40 MLOAD PUSH2 0x80 SWAP2 SWAP1 PUSH2 0x601 JUMP JUMPDEST PUSH1 0x40 MLOAD DUP1 SWAP2 SUB SWAP1 RETURN JUMPDEST PUSH1 0x60 PUSH1 0x1 PUSH1 0x0 SWAP1 SLOAD SWAP1 PUSH2 0x100 EXP SWAP1 DIV PUSH20 0xFFFFFFFFFFFFFFFFFFFFFFFFFFFFFFFFFFFFFFFF AND PUSH20 0xFFFFFFFFFFFFFFFFFFFFFFFFFFFFFFFFFFFFFFFF AND CALLER PUSH20 0xFFFFFFFFFFFFFFFFFFFFFFFFFFFFFFFFFFFFFFFF AND EQ PUSH2 0xE5 JUMPI PUSH1 0x0 DUP1 REVERT JUMPDEST PUSH1 0x0 DUP3 PUSH1 0x40 MLOAD PUSH2 0xF5 SWAP2 SWAP1 PUSH2 0x658 JUMP JUMPDEST SWAP1 DUP2 MSTORE PUSH1 0x20 ADD PUSH1 0x40 MLOAD DUP1 SWAP2 SUB SWAP1 KECCAK256 DUP1 SLOAD DUP1 PUSH1 0x20 MUL PUSH1 0x20 ADD PUSH1 0x40 MLOAD SWAP1 DUP2 ADD PUSH1 0x40 MSTORE DUP1 SWAP3 SWAP2 SWAP1 DUP2 DUP2 MSTORE PUSH1 0x20 ADD PUSH1 0x0 SWAP1 JUMPDEST DUP3 DUP3 LT ISZERO PUSH2 0x23D JUMPI DUP4 DUP3 SWAP1 PUSH1 0x0 MSTORE PUSH1 0x20 PUSH1 0x0 KECCAK256 SWAP1 PUSH1 0x2 MUL ADD PUSH1 0x40 MLOAD DUP1 PUSH1 0x40 ADD PUSH1 0x40 MSTORE SWAP1 DUP2 PUSH1 0x0 DUP3 ADD DUP1 SLOAD PUSH2 0x156 SWAP1 PUSH2 0x69E JUMP JUMPDEST DUP1 PUSH1 0x1F ADD PUSH1 0x20 DUP1 SWAP2 DIV MUL PUSH1 0x20 ADD PUSH1 0x40 MLOAD SWAP1 DUP2 ADD PUSH1 0x40 MSTORE DUP1 SWAP3 SWAP2 SWAP1 DUP2 DUP2 MSTORE PUSH1 0x20 ADD DUP3 DUP1 SLOAD PUSH2 0x182 SWAP1 PUSH2 0x69E JUMP JUMPDEST DUP1 ISZERO PUSH2 0x1CF JUMPI DUP1 PUSH1 0x1F LT PUSH2 0x1A4 JUMPI PUSH2 0x100 DUP1 DUP4 SLOAD DIV MUL DUP4 MSTORE SWAP2 PUSH1 0x20 ADD SWAP2 PUSH2 0x1CF JUMP JUMPDEST DUP3 ADD SWAP2 SWAP1 PUSH1 0x0 MSTORE PUSH1 0x20 PUSH1 0x0 KECCAK256 SWAP1 JUMPDEST DUP2 SLOAD DUP2 MSTORE SWAP1 PUSH1 0x1 ADD SWAP1 PUSH1 0x20 ADD DUP1 DUP4 GT PUSH2 0x1B2 JUMPI DUP3 SWAP1 SUB PUSH1 0x1F AND DUP3 ADD SWAP2 JUMPDEST POP POP POP POP POP DUP2 MSTORE PUSH1 0x20 ADD PUSH1 0x1 DUP3 ADD PUSH1 0x0 SWAP1 SLOAD SWAP1 PUSH2 0x100 EXP SWAP1 DIV PUSH20 0xFFFFFFFFFFFFFFFFFFFFFFFFFFFFFFFFFFFFFFFF AND PUSH20 0xFFFFFFFFFFFFFFFFFFFFFFFFFFFFFFFFFFFFFFFF AND PUSH20 0xFFFFFFFFFFFFFFFFFFFFFFFFFFFFFFFFFFFFFFFF AND DUP2 MSTORE POP POP DUP2 MSTORE PUSH1 0x20 ADD SWAP1 PUSH1 0x1 ADD SWAP1 PUSH2 0x123 JUMP JUMPDEST POP POP POP POP SWAP1 POP SWAP2 SWAP1 POP JUMP JUMPDEST PUSH1 0x1 PUSH1 0x0 SWAP1 SLOAD SWAP1 PUSH2 0x100 EXP SWAP1 DIV PUSH20 0xFFFFFFFFFFFFFFFFFFFFFFFFFFFFFFFFFFFFFFFF AND DUP2 JUMP JUMPDEST PUSH1 0x0 PUSH1 0x40 MLOAD SWAP1 POP SWAP1 JUMP JUMPDEST PUSH1 0x0 DUP1 REVERT JUMPDEST PUSH1 0x0 DUP1 REVERT JUMPDEST PUSH1 0x0 DUP1 REVERT JUMPDEST PUSH1 0x0 DUP1 REVERT JUMPDEST PUSH1 0x0 PUSH1 0x1F NOT PUSH1 0x1F DUP4 ADD AND SWAP1 POP SWAP2 SWAP1 POP JUMP JUMPDEST PUSH32 0x4E487B7100000000000000000000000000000000000000000000000000000000 PUSH1 0x0 MSTORE PUSH1 0x41 PUSH1 0x4 MSTORE PUSH1 0x24 PUSH1 0x0 REVERT JUMPDEST PUSH2 0x2D5 DUP3 PUSH2 0x28C JUMP JUMPDEST DUP2 ADD DUP2 DUP2 LT PUSH8 0xFFFFFFFFFFFFFFFF DUP3 GT OR ISZERO PUSH2 0x2F4 JUMPI PUSH2 0x2F3 PUSH2 0x29D JUMP JUMPDEST JUMPDEST DUP1 PUSH1 0x40 MSTORE POP POP POP JUMP JUMPDEST PUSH1 0x0 PUSH2 0x307 PUSH2 0x26E JUMP JUMPDEST SWAP1 POP PUSH2 0x313 DUP3 DUP3 PUSH2 0x2CC JUMP JUMPDEST SWAP2 SWAP1 POP JUMP JUMPDEST PUSH1 0x0 PUSH8 0xFFFFFFFFFFFFFFFF DUP3 GT ISZERO PUSH2 0x333 JUMPI PUSH2 0x332 PUSH2 0x29D JUMP JUMPDEST JUMPDEST PUSH2 0x33C DUP3 PUSH2 0x28C JUMP JUMPDEST SWAP1 POP PUSH1 0x20 DUP2 ADD SWAP1 POP SWAP2 SWAP1 POP JUMP JUMPDEST DUP3 DUP2 DUP4 CALLDATACOPY PUSH1 0x0 DUP4 DUP4 ADD MSTORE POP POP POP JUMP JUMPDEST PUSH1 0x0 PUSH2 0x36B PUSH2 0x366 DUP5 PUSH2 0x318 JUMP JUMPDEST PUSH2 0x2FD JUMP JUMPDEST SWAP1 POP DUP3 DUP2 MSTORE PUSH1 0x20 DUP2 ADD DUP5 DUP5 DUP5 ADD GT ISZERO PUSH2 0x387 JUMPI PUSH2 0x386 PUSH2 0x287 JUMP JUMPDEST JUMPDEST PUSH2 0x392 DUP5 DUP3 DUP6 PUSH2 0x349 JUMP JUMPDEST POP SWAP4 SWAP3 POP POP POP JUMP JUMPDEST PUSH1 0x0 DUP3 PUSH1 0x1F DUP4 ADD SLT PUSH2 0x3AF JUMPI PUSH2 0x3AE PUSH2 0x282 JUMP JUMPDEST JUMPDEST DUP2 CALLDATALOAD PUSH2 0x3BF DUP5 DUP3 PUSH1 0x20 DUP7 ADD PUSH2 0x358 JUMP JUMPDEST SWAP2 POP POP SWAP3 SWAP2 POP POP JUMP JUMPDEST PUSH1 0x0 PUSH1 0x20 DUP3 DUP5 SUB SLT ISZERO PUSH2 0x3DE JUMPI PUSH2 0x3DD PUSH2 0x278 JUMP JUMPDEST JUMPDEST PUSH1 0x0 DUP3 ADD CALLDATALOAD PUSH8 0xFFFFFFFFFFFFFFFF DUP2 GT ISZERO PUSH2 0x3FC JUMPI PUSH2 0x3FB PUSH2 0x27D JUMP JUMPDEST JUMPDEST PUSH2 0x408 DUP5 DUP3 DUP6 ADD PUSH2 0x39A JUMP JUMPDEST SWAP2 POP POP SWAP3 SWAP2 POP POP JUMP JUMPDEST PUSH1 0x0 DUP2 MLOAD SWAP1 POP SWAP2 SWAP1 POP JUMP JUMPDEST PUSH1 0x0 DUP3 DUP3 MSTORE PUSH1 0x20 DUP3 ADD SWAP1 POP SWAP3 SWAP2 POP POP JUMP JUMPDEST PUSH1 0x0 DUP2 SWAP1 POP PUSH1 0x20 DUP3 ADD SWAP1 POP SWAP2 SWAP1 POP JUMP JUMPDEST PUSH1 0x0 DUP2 MLOAD SWAP1 POP SWAP2 SWAP1 POP JUMP JUMPDEST PUSH1 0x0 DUP3 DUP3 MSTORE PUSH1 0x20 DUP3 ADD SWAP1 POP SWAP3 SWAP2 POP POP JUMP JUMPDEST PUSH1 0x0 JUMPDEST DUP4 DUP2 LT ISZERO PUSH2 0x477 JUMPI DUP1 DUP3 ADD MLOAD DUP2 DUP5 ADD MSTORE PUSH1 0x20 DUP2 ADD SWAP1 POP PUSH2 0x45C JUMP JUMPDEST PUSH1 0x0 DUP5 DUP5 ADD MSTORE POP POP POP POP JUMP JUMPDEST PUSH1 0x0 PUSH2 0x48E DUP3 PUSH2 0x43D JUMP JUMPDEST PUSH2 0x498 DUP2 DUP6 PUSH2 0x448 JUMP JUMPDEST SWAP4 POP PUSH2 0x4A8 DUP2 DUP6 PUSH1 0x20 DUP7 ADD PUSH2 0x459 JUMP JUMPDEST PUSH2 0x4B1 DUP2 PUSH2 0x28C JUMP JUMPDEST DUP5 ADD SWAP2 POP POP SWAP3 SWAP2 POP POP JUMP JUMPDEST PUSH1 0x0 PUSH20 0xFFFFFFFFFFFFFFFFFFFFFFFFFFFFFFFFFFFFFFFF DUP3 AND SWAP1 POP SWAP2 SWAP1 POP JUMP JUMPDEST PUSH1 0x0 PUSH2 0x4E7 DUP3 PUSH2 0x4BC JUMP JUMPDEST SWAP1 POP SWAP2 SWAP1 POP JUMP JUMPDEST PUSH2 0x4F7 DUP2 PUSH2 0x4DC JUMP JUMPDEST DUP3 MSTORE POP POP JUMP JUMPDEST PUSH1 0x0 PUSH1 0x40 DUP4 ADD PUSH1 0x0 DUP4 ADD MLOAD DUP5 DUP3 SUB PUSH1 0x0 DUP7 ADD MSTORE PUSH2 0x51A DUP3 DUP3 PUSH2 0x483 JUMP JUMPDEST SWAP2 POP POP PUSH1 0x20 DUP4 ADD MLOAD PUSH2 0x52F PUSH1 0x20 DUP7 ADD DUP3 PUSH2 0x4EE JUMP JUMPDEST POP DUP1 SWAP2 POP POP SWAP3 SWAP2 POP POP JUMP JUMPDEST PUSH1 0x0 PUSH2 0x546 DUP4 DUP4 PUSH2 0x4FD JUMP JUMPDEST SWAP1 POP SWAP3 SWAP2 POP POP JUMP JUMPDEST PUSH1 0x0 PUSH1 0x20 DUP3 ADD SWAP1 POP SWAP2 SWAP1 POP JUMP JUMPDEST PUSH1 0x0 PUSH2 0x566 DUP3 PUSH2 0x411 JUMP JUMPDEST PUSH2 0x570 DUP2 DUP6 PUSH2 0x41C JUMP JUMPDEST SWAP4 POP DUP4 PUSH1 0x20 DUP3 MUL DUP6 ADD PUSH2 0x582 DUP6 PUSH2 0x42D JUMP JUMPDEST DUP1 PUSH1 0x0 JUMPDEST DUP6 DUP2 LT ISZERO PUSH2 0x5BE JUMPI DUP5 DUP5 SUB DUP10 MSTORE DUP2 MLOAD PUSH2 0x59F DUP6 DUP3 PUSH2 0x53A JUMP JUMPDEST SWAP5 POP PUSH2 0x5AA DUP4 PUSH2 0x54E JUMP JUMPDEST SWAP3 POP PUSH1 0x20 DUP11 ADD SWAP10 POP POP PUSH1 0x1 DUP2 ADD SWAP1 POP PUSH2 0x586 JUMP JUMPDEST POP DUP3 SWAP8 POP DUP8 SWAP6 POP POP POP POP POP POP SWAP3 SWAP2 POP POP JUMP JUMPDEST PUSH1 0x0 PUSH1 0x20 DUP3 ADD SWAP1 POP DUP2 DUP2 SUB PUSH1 0x0 DUP4 ADD MSTORE PUSH2 0x5EA DUP2 DUP5 PUSH2 0x55B JUMP JUMPDEST SWAP1 POP SWAP3 SWAP2 POP POP JUMP JUMPDEST PUSH2 0x5FB DUP2 PUSH2 0x4DC JUMP JUMPDEST DUP3 MSTORE POP POP JUMP JUMPDEST PUSH1 0x0 PUSH1 0x20 DUP3 ADD SWAP1 POP PUSH2 0x616 PUSH1 0x0 DUP4 ADD DUP5 PUSH2 0x5F2 JUMP JUMPDEST SWAP3 SWAP2 POP POP JUMP JUMPDEST PUSH1 0x0 DUP2 SWAP1 POP SWAP3 SWAP2 POP POP JUMP JUMPDEST PUSH1 0x0 PUSH2 0x632 DUP3 PUSH2 0x43D JUMP JUMPDEST PUSH2 0x63C DUP2 DUP6 PUSH2 0x61C JUMP JUMPDEST SWAP4 POP PUSH2 0x64C DUP2 DUP6 PUSH1 0x20 DUP7 ADD PUSH2 0x459 JUMP JUMPDEST DUP1 DUP5 ADD SWAP2 POP POP SWAP3 SWAP2 POP POP JUMP JUMPDEST PUSH1 0x0 PUSH2 0x664 DUP3 DUP5 PUSH2 0x627 JUMP JUMPDEST SWAP2 POP DUP2 SWAP1 POP SWAP3 SWAP2 POP POP JUMP JUMPDEST PUSH32 0x4E487B7100000000000000000000000000000000000000000000000000000000 PUSH1 0x0 MSTORE PUSH1 0x22 PUSH1 0x4 MSTORE PUSH1 0x24 PUSH1 0x0 REVERT JUMPDEST PUSH1 0x0 PUSH1 0x2 DUP3 DIV SWAP1 POP PUSH1 0x1 DUP3 AND DUP1 PUSH2 0x6B6 JUMPI PUSH1 0x7F DUP3 AND SWAP2 POP JUMPDEST PUSH1 0x20 DUP3 LT DUP2 SUB PUSH2 0x6C9 JUMPI PUSH2 0x6C8 PUSH2 0x66F JUMP JUMPDEST JUMPDEST POP SWAP2 SWAP1 POP JUMP INVALID LOG2 PUSH5 0x6970667358 0x22 SLT KECCAK256 PUSH30 0xD79DD42717D861ECE7914CB28B54216EB37333D2737A7311B58F61B5FA9F 0xA8 PUSH5 0x736F6C6343 STOP ADDMOD GT STOP CALLER PUSH1 0x80 PUSH1 0x40 MSTORE CALLVALUE DUP1 ISZERO PUSH3 0x11 JUMPI PUSH1 0x0 DUP1 REVERT JUMPDEST POP PUSH1 0x40 MLOAD PUSH3 0x4A2E CODESIZE SUB DUP1 PUSH3 0x4A2E DUP4 CODECOPY DUP2 DUP2 ADD PUSH1 0x40 MSTORE DUP2 ADD SWAP1 PUSH3 0x37 SWAP2 SWAP1 PUSH3 0xE9 JUMP JUMPDEST DUP1 PUSH1 0x5 PUSH1 0x0 PUSH2 0x100 EXP DUP2 SLOAD DUP2 PUSH20 0xFFFFFFFFFFFFFFFFFFFFFFFFFFFFFFFFFFFFFFFF MUL NOT AND SWAP1 DUP4 PUSH20 0xFFFFFFFFFFFFFFFFFFFFFFFFFFFFFFFFFFFFFFFF AND MUL OR SWAP1 SSTORE POP POP PUSH3 0x11B JUMP JUMPDEST PUSH1 0x0 DUP1 REVERT JUMPDEST PUSH1 0x0 PUSH20 0xFFFFFFFFFFFFFFFFFFFFFFFFFFFFFFFFFFFFFFFF DUP3 AND SWAP1 POP SWAP2 SWAP1 POP JUMP JUMPDEST PUSH1 0x0 PUSH3 0xB1 DUP3 PUSH3 0x84 JUMP JUMPDEST SWAP1 POP SWAP2 SWAP1 POP JUMP JUMPDEST PUSH3 0xC3 DUP2 PUSH3 0xA4 JUMP JUMPDEST DUP2 EQ PUSH3 0xCF JUMPI PUSH1 0x0 DUP1 REVERT JUMPDEST POP JUMP JUMPDEST PUSH1 0x0 DUP2 MLOAD SWAP1 POP PUSH3 0xE3 DUP2 PUSH3 0xB8 JUMP JUMPDEST SWAP3 SWAP2 POP POP JUMP JUMPDEST PUSH1 0x0 PUSH1 0x20 DUP3 DUP5 SUB SLT ISZERO PUSH3 0x102 JUMPI PUSH3 0x101 PUSH3 0x7F JUMP JUMPDEST JUMPDEST PUSH1 0x0 PUSH3 0x112 DUP5 DUP3 DUP6 ADD PUSH3 0xD2 JUMP JUMPDEST SWAP2 POP POP SWAP3 SWAP2 POP POP JUMP JUMPDEST PUSH2 0x4903 DUP1 PUSH3 0x12B PUSH1 0x0 CODECOPY PUSH1 0x0 RETURN INVALID PUSH1 0x80 PUSH1 0x40 MSTORE CALLVALUE DUP1 ISZERO PUSH2 0x10 JUMPI PUSH1 0x0 DUP1 REVERT JUMPDEST POP PUSH1 0x4 CALLDATASIZE LT PUSH2 0x93 JUMPI PUSH1 0x0 CALLDATALOAD PUSH1 0xE0 SHR DUP1 PUSH4 0x7621DF6F GT PUSH2 0x66 JUMPI DUP1 PUSH4 0x7621DF6F EQ PUSH2 0x108 JUMPI DUP1 PUSH4 0x9CBC4DBA EQ PUSH2 0x124 JUMPI DUP1 PUSH4 0xB2C24A34 EQ PUSH2 0x140 JUMPI DUP1 PUSH4 0xEB7353D1 EQ PUSH2 0x171 JUMPI DUP1 PUSH4 0xF539FE6C EQ PUSH2 0x1A2 JUMPI PUSH2 0x93 JUMP JUMPDEST DUP1 PUSH4 0x1107747E EQ PUSH2 0x98 JUMPI DUP1 PUSH4 0x213134CD EQ PUSH2 0xB4 JUMPI DUP1 PUSH4 0x4DA7580F EQ PUSH2 0xD0 JUMPI DUP1 PUSH4 0x5DB185C7 EQ PUSH2 0xEC JUMPI JUMPDEST PUSH1 0x0 DUP1 REVERT JUMPDEST PUSH2 0xB2 PUSH1 0x4 DUP1 CALLDATASIZE SUB DUP2 ADD SWAP1 PUSH2 0xAD SWAP2 SWAP1 PUSH2 0x31C9 JUMP JUMPDEST PUSH2 0x1D3 JUMP JUMPDEST STOP JUMPDEST PUSH2 0xCE PUSH1 0x4 DUP1 CALLDATASIZE SUB DUP2 ADD SWAP1 PUSH2 0xC9 SWAP2 SWAP1 PUSH2 0x369E JUMP JUMPDEST PUSH2 0x217 JUMP JUMPDEST STOP JUMPDEST PUSH2 0xEA PUSH1 0x4 DUP1 CALLDATASIZE SUB DUP2 ADD SWAP1 PUSH2 0xE5 SWAP2 SWAP1 PUSH2 0x3A04 JUMP JUMPDEST PUSH2 0x73D JUMP JUMPDEST STOP JUMPDEST PUSH2 0x106 PUSH1 0x4 DUP1 CALLDATASIZE SUB DUP2 ADD SWAP1 PUSH2 0x101 SWAP2 SWAP1 PUSH2 0x31C9 JUMP JUMPDEST PUSH2 0xCAA JUMP JUMPDEST STOP JUMPDEST PUSH2 0x122 PUSH1 0x4 DUP1 CALLDATASIZE SUB DUP2 ADD SWAP1 PUSH2 0x11D SWAP2 SWAP1 PUSH2 0x31C9 JUMP JUMPDEST PUSH2 0xCEE JUMP JUMPDEST STOP JUMPDEST PUSH2 0x13E PUSH1 0x4 DUP1 CALLDATASIZE SUB DUP2 ADD SWAP1 PUSH2 0x139 SWAP2 SWAP1 PUSH2 0x3CFE JUMP JUMPDEST PUSH2 0xD32 JUMP JUMPDEST STOP JUMPDEST PUSH2 0x15A PUSH1 0x4 DUP1 CALLDATASIZE SUB DUP2 ADD SWAP1 PUSH2 0x155 SWAP2 SWAP1 PUSH2 0x31C9 JUMP JUMPDEST PUSH2 0x1397 JUMP JUMPDEST PUSH1 0x40 MLOAD PUSH2 0x168 SWAP3 SWAP2 SWAP1 PUSH2 0x4073 JUMP JUMPDEST PUSH1 0x40 MLOAD DUP1 SWAP2 SUB SWAP1 RETURN JUMPDEST PUSH2 0x18B PUSH1 0x4 DUP1 CALLDATASIZE SUB DUP2 ADD SWAP1 PUSH2 0x186 SWAP2 SWAP1 PUSH2 0x31C9 JUMP JUMPDEST PUSH2 0x1BA6 JUMP JUMPDEST PUSH1 0x40 MLOAD PUSH2 0x199 SWAP3 SWAP2 SWAP1 PUSH2 0x42B6 JUMP JUMPDEST PUSH1 0x40 MLOAD DUP1 SWAP2 SUB SWAP1 RETURN JUMPDEST PUSH2 0x1BC PUSH1 0x4 DUP1 CALLDATASIZE SUB DUP2 ADD SWAP1 PUSH2 0x1B7 SWAP2 SWAP1 PUSH2 0x31C9 JUMP JUMPDEST PUSH2 0x2550 JUMP JUMPDEST PUSH1 0x40 MLOAD PUSH2 0x1CA SWAP3 SWAP2 SWAP1 PUSH2 0x4523 JUMP JUMPDEST PUSH1 0x40 MLOAD DUP1 SWAP2 SUB SWAP1 RETURN JUMPDEST DUP1 PUSH1 0x6 PUSH1 0x0 PUSH2 0x100 EXP DUP2 SLOAD DUP2 PUSH20 0xFFFFFFFFFFFFFFFFFFFFFFFFFFFFFFFFFFFFFFFF MUL NOT AND SWAP1 DUP4 PUSH20 0xFFFFFFFFFFFFFFFFFFFFFFFFFFFFFFFFFFFFFFFF AND MUL OR SWAP1 SSTORE POP POP JUMP JUMPDEST PUSH1 0x6 PUSH1 0x0 SWAP1 SLOAD SWAP1 PUSH2 0x100 EXP SWAP1 DIV PUSH20 0xFFFFFFFFFFFFFFFFFFFFFFFFFFFFFFFFFFFFFFFF AND PUSH20 0xFFFFFFFFFFFFFFFFFFFFFFFFFFFFFFFFFFFFFFFF AND PUSH4 0x63A9C3D7 CALLER PUSH1 0x40 MLOAD DUP3 PUSH4 0xFFFFFFFF AND PUSH1 0xE0 SHL DUP2 MSTORE PUSH1 0x4 ADD PUSH2 0x272 SWAP2 SWAP1 PUSH2 0x4569 JUMP JUMPDEST PUSH1 0x20 PUSH1 0x40 MLOAD DUP1 DUP4 SUB DUP2 DUP7 GAS STATICCALL ISZERO DUP1 ISZERO PUSH2 0x28F JUMPI RETURNDATASIZE PUSH1 0x0 DUP1 RETURNDATACOPY RETURNDATASIZE PUSH1 0x0 REVERT JUMPDEST POP POP POP POP PUSH1 0x40 MLOAD RETURNDATASIZE PUSH1 0x1F NOT PUSH1 0x1F DUP3 ADD AND DUP3 ADD DUP1 PUSH1 0x40 MSTORE POP DUP2 ADD SWAP1 PUSH2 0x2B3 SWAP2 SWAP1 PUSH2 0x4599 JUMP JUMPDEST PUSH2 0x2BC JUMPI PUSH1 0x0 DUP1 REVERT JUMPDEST PUSH2 0x2C4 PUSH2 0x2F6B JUMP JUMPDEST DUP3 PUSH1 0x0 ADD MLOAD DUP2 PUSH1 0x0 ADD DUP2 SWAP1 MSTORE POP DUP3 PUSH1 0x20 ADD MLOAD DUP2 PUSH1 0x20 ADD DUP2 SWAP1 MSTORE POP DUP3 PUSH1 0x40 ADD MLOAD DUP2 PUSH1 0x40 ADD DUP2 DUP2 MSTORE POP POP DUP3 PUSH1 0x60 ADD MLOAD DUP2 PUSH1 0x60 ADD DUP2 SWAP1 MSTORE POP DUP1 PUSH1 0x1 PUSH1 0x0 DUP5 PUSH1 0x0 ADD MLOAD PUSH20 0xFFFFFFFFFFFFFFFFFFFFFFFFFFFFFFFFFFFFFFFF AND PUSH20 0xFFFFFFFFFFFFFFFFFFFFFFFFFFFFFFFFFFFFFFFF AND DUP2 MSTORE PUSH1 0x20 ADD SWAP1 DUP2 MSTORE PUSH1 0x20 ADD PUSH1 0x0 KECCAK256 PUSH1 0x0 DUP3 ADD MLOAD DUP2 PUSH1 0x0 ADD SWAP1 DUP2 PUSH2 0x352 SWAP2 SWAP1 PUSH2 0x47D2 JUMP JUMPDEST POP PUSH1 0x20 DUP3 ADD MLOAD DUP2 PUSH1 0x1 ADD SWAP1 DUP2 PUSH2 0x368 SWAP2 SWAP1 PUSH2 0x47D2 JUMP JUMPDEST POP PUSH1 0x40 DUP3 ADD MLOAD DUP2 PUSH1 0x2 ADD SSTORE PUSH1 0x60 DUP3 ADD MLOAD DUP2 PUSH1 0x3 ADD SWAP1 DUP2 PUSH2 0x388 SWAP2 SWAP1 PUSH2 0x47D2 JUMP JUMPDEST POP SWAP1 POP POP PUSH2 0x394 PUSH2 0x2F93 JUMP JUMPDEST DUP3 PUSH1 0x0 ADD MLOAD DUP2 PUSH1 0x0 ADD SWAP1 PUSH20 0xFFFFFFFFFFFFFFFFFFFFFFFFFFFFFFFFFFFFFFFF AND SWAP1 DUP2 PUSH20 0xFFFFFFFFFFFFFFFFFFFFFFFFFFFFFFFFFFFFFFFF AND DUP2 MSTORE POP POP DUP3 PUSH1 0x40 ADD MLOAD DUP2 PUSH1 0x40 ADD DUP2 SWAP1 MSTORE POP DUP3 PUSH1 0x20 ADD MLOAD DUP2 PUSH1 0x20 ADD DUP2 SWAP1 MSTORE POP DUP3 PUSH1 0x60 ADD MLOAD DUP2 PUSH1 0x60 ADD DUP2 SWAP1 MSTORE POP DUP3 PUSH1 0x80 ADD MLOAD DUP2 PUSH1 0x80 ADD DUP2 SWAP1 MSTORE POP DUP3 PUSH1 0xA0 ADD MLOAD DUP2 PUSH1 0xA0 ADD DUP2 SWAP1 MSTORE POP DUP3 PUSH1 0xC0 ADD MLOAD DUP2 PUSH1 0xC0 ADD DUP2 SWAP1 MSTORE POP DUP3 PUSH1 0xE0 ADD MLOAD DUP2 PUSH1 0xE0 ADD DUP2 SWAP1 MSTORE POP DUP3 PUSH2 0x100 ADD MLOAD DUP2 PUSH2 0x100 ADD DUP2 SWAP1 MSTORE POP DUP3 PUSH2 0x120 ADD MLOAD DUP2 PUSH2 0x120 ADD DUP2 SWAP1 MSTORE POP DUP3 PUSH2 0x140 ADD MLOAD DUP2 PUSH2 0x140 ADD DUP2 SWAP1 MSTORE POP DUP3 PUSH2 0x160 ADD MLOAD DUP2 PUSH2 0x160 ADD DUP2 SWAP1 MSTORE POP PUSH1 0x4 PUSH1 0x0 DUP5 PUSH1 0x0 ADD MLOAD PUSH20 0xFFFFFFFFFFFFFFFFFFFFFFFFFFFFFFFFFFFFFFFF AND PUSH20 0xFFFFFFFFFFFFFFFFFFFFFFFFFFFFFFFFFFFFFFFF AND DUP2 MSTORE PUSH1 0x20 ADD SWAP1 DUP2 MSTORE PUSH1 0x20 ADD PUSH1 0x0 KECCAK256 DUP2 SWAP1 DUP1 PUSH1 0x1 DUP2 SLOAD ADD DUP1 DUP3 SSTORE DUP1 SWAP2 POP POP PUSH1 0x1 SWAP1 SUB SWAP1 PUSH1 0x0 MSTORE PUSH1 0x20 PUSH1 0x0 KECCAK256 SWAP1 PUSH1 0xC MUL ADD PUSH1 0x0 SWAP1 SWAP2 SWAP1 SWAP2 SWAP1 SWAP2 POP PUSH1 0x0 DUP3 ADD MLOAD DUP2 PUSH1 0x0 ADD PUSH1 0x0 PUSH2 0x100 EXP DUP2 SLOAD DUP2 PUSH20 0xFFFFFFFFFFFFFFFFFFFFFFFFFFFFFFFFFFFFFFFF MUL NOT AND SWAP1 DUP4 PUSH20 0xFFFFFFFFFFFFFFFFFFFFFFFFFFFFFFFFFFFFFFFF AND MUL OR SWAP1 SSTORE POP PUSH1 0x20 DUP3 ADD MLOAD DUP2 PUSH1 0x1 ADD SWAP1 DUP2 PUSH2 0x530 SWAP2 SWAP1 PUSH2 0x47D2 JUMP JUMPDEST POP PUSH1 0x40 DUP3 ADD MLOAD DUP2 PUSH1 0x2 ADD SWAP1 DUP2 PUSH2 0x546 SWAP2 SWAP1 PUSH2 0x47D2 JUMP JUMPDEST POP PUSH1 0x60 DUP3 ADD MLOAD DUP2 PUSH1 0x3 ADD SWAP1 DUP2 PUSH2 0x55C SWAP2 SWAP1 PUSH2 0x47D2 JUMP JUMPDEST POP PUSH1 0x80 DUP3 ADD MLOAD DUP2 PUSH1 0x4 ADD SWAP1 DUP2 PUSH2 0x572 SWAP2 SWAP1 PUSH2 0x47D2 JUMP JUMPDEST POP PUSH1 0xA0 DUP3 ADD MLOAD DUP2 PUSH1 0x5 ADD SWAP1 DUP2 PUSH2 0x588 SWAP2 SWAP1 PUSH2 0x47D2 JUMP JUMPDEST POP PUSH1 0xC0 DUP3 ADD MLOAD DUP2 PUSH1 0x6 ADD SWAP1 DUP2 PUSH2 0x59E SWAP2 SWAP1 PUSH2 0x47D2 JUMP JUMPDEST POP PUSH1 0xE0 DUP3 ADD MLOAD DUP2 PUSH1 0x7 ADD SWAP1 DUP2 PUSH2 0x5B4 SWAP2 SWAP1 PUSH2 0x47D2 JUMP JUMPDEST POP PUSH2 0x100 DUP3 ADD MLOAD DUP2 PUSH1 0x8 ADD SWAP1 DUP2 PUSH2 0x5CB SWAP2 SWAP1 PUSH2 0x47D2 JUMP JUMPDEST POP PUSH2 0x120 DUP3 ADD MLOAD DUP2 PUSH1 0x9 ADD SWAP1 DUP2 PUSH2 0x5E2 SWAP2 SWAP1 PUSH2 0x47D2 JUMP JUMPDEST POP PUSH2 0x140 DUP3 ADD MLOAD DUP2 PUSH1 0xA ADD SWAP1 DUP2 PUSH2 0x5F9 SWAP2 SWAP1 PUSH2 0x47D2 JUMP JUMPDEST POP PUSH2 0x160 DUP3 ADD MLOAD DUP2 PUSH1 0xB ADD SWAP1 DUP2 PUSH2 0x610 SWAP2 SWAP1 PUSH2 0x47D2 JUMP JUMPDEST POP POP POP PUSH1 0x7 PUSH1 0x0 SWAP1 SLOAD SWAP1 PUSH2 0x100 EXP SWAP1 DIV PUSH20 0xFFFFFFFFFFFFFFFFFFFFFFFFFFFFFFFFFFFFFFFF AND PUSH20 0xFFFFFFFFFFFFFFFFFFFFFFFFFFFFFFFFFFFFFFFF AND PUSH4 0x6D263CEB DUP5 PUSH1 0x0 ADD MLOAD PUSH1 0x40 MLOAD DUP3 PUSH4 0xFFFFFFFF AND PUSH1 0xE0 SHL DUP2 MSTORE PUSH1 0x4 ADD PUSH2 0x672 SWAP2 SWAP1 PUSH2 0x4569 JUMP JUMPDEST PUSH1 0x0 PUSH1 0x40 MLOAD DUP1 DUP4 SUB DUP2 PUSH1 0x0 DUP8 DUP1 EXTCODESIZE ISZERO DUP1 ISZERO PUSH2 0x68C JUMPI PUSH1 0x0 DUP1 REVERT JUMPDEST POP GAS CALL ISZERO DUP1 ISZERO PUSH2 0x6A0 JUMPI RETURNDATASIZE PUSH1 0x0 DUP1 RETURNDATACOPY RETURNDATASIZE PUSH1 0x0 REVERT JUMPDEST POP POP POP POP PUSH1 0x8 PUSH1 0x0 SWAP1 SLOAD SWAP1 PUSH2 0x100 EXP SWAP1 DIV PUSH20 0xFFFFFFFFFFFFFFFFFFFFFFFFFFFFFFFFFFFFFFFF AND PUSH20 0xFFFFFFFFFFFFFFFFFFFFFFFFFFFFFFFFFFFFFFFF AND PUSH4 0x8BFC8C71 CALLER DUP6 PUSH1 0x0 ADD MLOAD PUSH1 0x40 MLOAD DUP4 PUSH4 0xFFFFFFFF AND PUSH1 0xE0 SHL DUP2 MSTORE PUSH1 0x4 ADD PUSH2 0x705 SWAP3 SWAP2 SWAP1 PUSH2 0x48A4 JUMP JUMPDEST PUSH1 0x0 PUSH1 0x40 MLOAD DUP1 DUP4 SUB DUP2 PUSH1 0x0 DUP8 DUP1 EXTCODESIZE ISZERO DUP1 ISZERO PUSH2 0x71F JUMPI PUSH1 0x0 DUP1 REVERT JUMPDEST POP GAS CALL ISZERO DUP1 ISZERO PUSH2 0x733 JUMPI RETURNDATASIZE PUSH1 0x0 DUP1 RETURNDATACOPY RETURNDATASIZE PUSH1 0x0 REVERT JUMPDEST POP POP POP POP POP POP POP POP JUMP JUMPDEST PUSH1 0x6 PUSH1 0x0 SWAP1 SLOAD SWAP1 PUSH2 0x100 EXP SWAP1 DIV PUSH20 0xFFFFFFFFFFFFFFFFFFFFFFFFFFFFFFFFFFFFFFFF AND PUSH20 0xFFFFFFFFFFFFFFFFFFFFFFFFFFFFFFFFFFFFFFFF AND PUSH4 0x63A9C3D7 CALLER PUSH1 0x40 MLOAD DUP3 PUSH4 0xFFFFFFFF AND PUSH1 0xE0 SHL DUP2 MSTORE PUSH1 0x4 ADD PUSH2 0x798 SWAP2 SWAP1 PUSH2 0x4569 JUMP JUMPDEST PUSH1 0x20 PUSH1 0x40 MLOAD DUP1 DUP4 SUB DUP2 DUP7 GAS STATICCALL ISZERO DUP1 ISZERO PUSH2 0x7B5 JUMPI RETURNDATASIZE PUSH1 0x0 DUP1 RETURNDATACOPY RETURNDATASIZE PUSH1 0x0 REVERT JUMPDEST POP POP POP POP PUSH1 0x40 MLOAD RETURNDATASIZE PUSH1 0x1F NOT PUSH1 0x1F DUP3 ADD AND DUP3 ADD DUP1 PUSH1 0x40 MSTORE POP DUP2 ADD SWAP1 PUSH2 0x7D9 SWAP2 SWAP1 PUSH2 0x4599 JUMP JUMPDEST PUSH2 0x7E2 JUMPI PUSH1 0x0 DUP1 REVERT JUMPDEST PUSH2 0x7EA PUSH2 0x300A JUMP JUMPDEST DUP3 PUSH1 0x0 ADD MLOAD DUP2 PUSH1 0x0 ADD SWAP1 PUSH20 0xFFFFFFFFFFFFFFFFFFFFFFFFFFFFFFFFFFFFFFFF AND SWAP1 DUP2 PUSH20 0xFFFFFFFFFFFFFFFFFFFFFFFFFFFFFFFFFFFFFFFF AND DUP2 MSTORE POP POP DUP3 PUSH1 0x20 ADD MLOAD DUP2 PUSH1 0x20 ADD DUP2 SWAP1 MSTORE POP DUP3 PUSH1 0x40 ADD MLOAD DUP2 PUSH1 0x40 ADD DUP2 DUP2 MSTORE POP POP DUP3 PUSH1 0x60 ADD MLOAD DUP2 PUSH1 0x60 ADD DUP2 SWAP1 MSTORE POP DUP3 PUSH1 0x80 ADD MLOAD DUP2 PUSH1 0x80 ADD DUP2 SWAP1 MSTORE POP DUP1 PUSH1 0x0 DUP1 DUP6 PUSH1 0x0 ADD MLOAD PUSH20 0xFFFFFFFFFFFFFFFFFFFFFFFFFFFFFFFFFFFFFFFF AND PUSH20 0xFFFFFFFFFFFFFFFFFFFFFFFFFFFFFFFFFFFFFFFF AND DUP2 MSTORE PUSH1 0x20 ADD SWAP1 DUP2 MSTORE PUSH1 0x20 ADD PUSH1 0x0 KECCAK256 PUSH1 0x0 DUP3 ADD MLOAD DUP2 PUSH1 0x0 ADD PUSH1 0x0 PUSH2 0x100 EXP DUP2 SLOAD DUP2 PUSH20 0xFFFFFFFFFFFFFFFFFFFFFFFFFFFFFFFFFFFFFFFF MUL NOT AND SWAP1 DUP4 PUSH20 0xFFFFFFFFFFFFFFFFFFFFFFFFFFFFFFFFFFFFFFFF AND MUL OR SWAP1 SSTORE POP PUSH1 0x20 DUP3 ADD MLOAD DUP2 PUSH1 0x1 ADD SWAP1 DUP2 PUSH2 0x8FA SWAP2 SWAP1 PUSH2 0x47D2 JUMP JUMPDEST POP PUSH1 0x40 DUP3 ADD MLOAD DUP2 PUSH1 0x2 ADD SSTORE PUSH1 0x60 DUP3 ADD MLOAD DUP2 PUSH1 0x3 ADD SWAP1 DUP2 PUSH2 0x91A SWAP2 SWAP1 PUSH2 0x47D2 JUMP JUMPDEST POP PUSH1 0x80 DUP3 ADD MLOAD DUP2 PUSH1 0x4 ADD SWAP1 DUP2 PUSH2 0x930 SWAP2 SWAP1 PUSH2 0x47D2 JUMP JUMPDEST POP SWAP1 POP POP PUSH2 0x93C PUSH2 0x304F JUMP JUMPDEST DUP3 PUSH1 0x0 ADD MLOAD DUP2 PUSH1 0x0 ADD SWAP1 PUSH20 0xFFFFFFFFFFFFFFFFFFFFFFFFFFFFFFFFFFFFFFFF AND SWAP1 DUP2 PUSH20 0xFFFFFFFFFFFFFFFFFFFFFFFFFFFFFFFFFFFFFFFF AND DUP2 MSTORE POP POP DUP3 PUSH1 0x20 ADD MLOAD DUP2 PUSH1 0x20 ADD DUP2 SWAP1 MSTORE POP DUP3 PUSH1 0x40 ADD MLOAD DUP2 PUSH1 0x40 ADD DUP2 SWAP1 MSTORE POP DUP3 PUSH1 0x60 ADD MLOAD DUP2 PUSH1 0x60 ADD DUP2 SWAP1 MSTORE POP DUP3 PUSH1 0x80 ADD MLOAD DUP2 PUSH1 0x80 ADD DUP2 SWAP1 MSTORE POP DUP3 PUSH1 0xA0 ADD MLOAD DUP2 PUSH1 0xA0 ADD DUP2 SWAP1 MSTORE POP DUP3 PUSH1 0xC0 ADD MLOAD DUP2 PUSH1 0xC0 ADD DUP2 SWAP1 MSTORE POP DUP3 PUSH1 0xE0 ADD MLOAD DUP2 PUSH1 0xE0 ADD DUP2 SWAP1 MSTORE POP DUP3 PUSH2 0x100 ADD MLOAD DUP2 PUSH2 0x100 ADD DUP2 SWAP1 MSTORE POP DUP3 PUSH2 0x120 ADD MLOAD DUP2 PUSH2 0x120 ADD SWAP1 ISZERO ISZERO SWAP1 DUP2 ISZERO ISZERO DUP2 MSTORE POP POP PUSH1 0x2 PUSH1 0x0 DUP6 PUSH1 0x0 ADD MLOAD PUSH20 0xFFFFFFFFFFFFFFFFFFFFFFFFFFFFFFFFFFFFFFFF AND PUSH20 0xFFFFFFFFFFFFFFFFFFFFFFFFFFFFFFFFFFFFFFFF AND DUP2 MSTORE PUSH1 0x20 ADD SWAP1 DUP2 MSTORE PUSH1 0x20 ADD PUSH1 0x0 KECCAK256 DUP2 SWAP1 DUP1 PUSH1 0x1 DUP2 SLOAD ADD DUP1 DUP3 SSTORE DUP1 SWAP2 POP POP PUSH1 0x1 SWAP1 SUB SWAP1 PUSH1 0x0 MSTORE PUSH1 0x20 PUSH1 0x0 KECCAK256 SWAP1 PUSH1 0xA MUL ADD PUSH1 0x0 SWAP1 SWAP2 SWAP1 SWAP2 SWAP1 SWAP2 POP PUSH1 0x0 DUP3 ADD MLOAD DUP2 PUSH1 0x0 ADD PUSH1 0x0 PUSH2 0x100 EXP DUP2 SLOAD DUP2 PUSH20 0xFFFFFFFFFFFFFFFFFFFFFFFFFFFFFFFFFFFFFFFF MUL NOT AND SWAP1 DUP4 PUSH20 0xFFFFFFFFFFFFFFFFFFFFFFFFFFFFFFFFFFFFFFFF AND MUL OR SWAP1 SSTORE POP PUSH1 0x20 DUP3 ADD MLOAD DUP2 PUSH1 0x1 ADD SWAP1 DUP2 PUSH2 0xAC1 SWAP2 SWAP1 PUSH2 0x47D2 JUMP JUMPDEST POP PUSH1 0x40 DUP3 ADD MLOAD DUP2 PUSH1 0x2 ADD SWAP1 DUP2 PUSH2 0xAD7 SWAP2 SWAP1 PUSH2 0x47D2 JUMP JUMPDEST POP PUSH1 0x60 DUP3 ADD MLOAD DUP2 PUSH1 0x3 ADD SWAP1 DUP2 PUSH2 0xAED SWAP2 SWAP1 PUSH2 0x47D2 JUMP JUMPDEST POP PUSH1 0x80 DUP3 ADD MLOAD DUP2 PUSH1 0x4 ADD SWAP1 DUP2 PUSH2 0xB03 SWAP2 SWAP1 PUSH2 0x47D2 JUMP JUMPDEST POP PUSH1 0xA0 DUP3 ADD MLOAD DUP2 PUSH1 0x5 ADD SWAP1 DUP2 PUSH2 0xB19 SWAP2 SWAP1 PUSH2 0x47D2 JUMP JUMPDEST POP PUSH1 0xC0 DUP3 ADD MLOAD DUP2 PUSH1 0x6 ADD SWAP1 DUP2 PUSH2 0xB2F SWAP2 SWAP1 PUSH2 0x47D2 JUMP JUMPDEST POP PUSH1 0xE0 DUP3 ADD MLOAD DUP2 PUSH1 0x7 ADD SWAP1 DUP2 PUSH2 0xB45 SWAP2 SWAP1 PUSH2 0x47D2 JUMP JUMPDEST POP PUSH2 0x100 DUP3 ADD MLOAD DUP2 PUSH1 0x8 ADD SWAP1 DUP2 PUSH2 0xB5C SWAP2 SWAP1 PUSH2 0x47D2 JUMP JUMPDEST POP PUSH2 0x120 DUP3 ADD MLOAD DUP2 PUSH1 0x9 ADD PUSH1 0x0 PUSH2 0x100 EXP DUP2 SLOAD DUP2 PUSH1 0xFF MUL NOT AND SWAP1 DUP4 ISZERO ISZERO MUL OR SWAP1 SSTORE POP POP POP PUSH1 0x7 PUSH1 0x0 SWAP1 SLOAD SWAP1 PUSH2 0x100 EXP SWAP1 DIV PUSH20 0xFFFFFFFFFFFFFFFFFFFFFFFFFFFFFFFFFFFFFFFF AND PUSH20 0xFFFFFFFFFFFFFFFFFFFFFFFFFFFFFFFFFFFFFFFF AND PUSH4 0x6D263CEB DUP6 PUSH1 0x0 ADD MLOAD PUSH1 0x40 MLOAD DUP3 PUSH4 0xFFFFFFFF AND PUSH1 0xE0 SHL DUP2 MSTORE PUSH1 0x4 ADD PUSH2 0xBDF SWAP2 SWAP1 PUSH2 0x4569 JUMP JUMPDEST PUSH1 0x0 PUSH1 0x40 MLOAD DUP1 DUP4 SUB DUP2 PUSH1 0x0 DUP8 DUP1 EXTCODESIZE ISZERO DUP1 ISZERO PUSH2 0xBF9 JUMPI PUSH1 0x0 DUP1 REVERT JUMPDEST POP GAS CALL ISZERO DUP1 ISZERO PUSH2 0xC0D JUMPI RETURNDATASIZE PUSH1 0x0 DUP1 RETURNDATACOPY RETURNDATASIZE PUSH1 0x0 REVERT JUMPDEST POP POP POP POP PUSH1 0x8 PUSH1 0x0 SWAP1 SLOAD SWAP1 PUSH2 0x100 EXP SWAP1 DIV PUSH20 0xFFFFFFFFFFFFFFFFFFFFFFFFFFFFFFFFFFFFFFFF AND PUSH20 0xFFFFFFFFFFFFFFFFFFFFFFFFFFFFFFFFFFFFFFFF AND PUSH4 0x8BFC8C71 CALLER DUP7 PUSH1 0x0 ADD MLOAD PUSH1 0x40 MLOAD DUP4 PUSH4 0xFFFFFFFF AND PUSH1 0xE0 SHL DUP2 MSTORE PUSH1 0x4 ADD PUSH2 0xC72 SWAP3 SWAP2 SWAP1 PUSH2 0x48A4 JUMP JUMPDEST PUSH1 0x0 PUSH1 0x40 MLOAD DUP1 DUP4 SUB DUP2 PUSH1 0x0 DUP8 DUP1 EXTCODESIZE ISZERO DUP1 ISZERO PUSH2 0xC8C JUMPI PUSH1 0x0 DUP1 REVERT JUMPDEST POP GAS CALL ISZERO DUP1 ISZERO PUSH2 0xCA0 JUMPI RETURNDATASIZE PUSH1 0x0 DUP1 RETURNDATACOPY RETURNDATASIZE PUSH1 0x0 REVERT JUMPDEST POP POP POP POP POP POP POP POP JUMP JUMPDEST DUP1 PUSH1 0x7 PUSH1 0x0 PUSH2 0x100 EXP DUP2 SLOAD DUP2 PUSH20 0xFFFFFFFFFFFFFFFFFFFFFFFFFFFFFFFFFFFFFFFF MUL NOT AND SWAP1 DUP4 PUSH20 0xFFFFFFFFFFFFFFFFFFFFFFFFFFFFFFFFFFFFFFFF AND MUL OR SWAP1 SSTORE POP POP JUMP JUMPDEST DUP1 PUSH1 0x8 PUSH1 0x0 PUSH2 0x100 EXP DUP2 SLOAD DUP2 PUSH20 0xFFFFFFFFFFFFFFFFFFFFFFFFFFFFFFFFFFFFFFFF MUL NOT AND SWAP1 DUP4 PUSH20 0xFFFFFFFFFFFFFFFFFFFFFFFFFFFFFFFFFFFFFFFF AND MUL OR SWAP1 SSTORE POP POP JUMP JUMPDEST PUSH1 0x6 PUSH1 0x0 SWAP1 SLOAD SWAP1 PUSH2 0x100 EXP SWAP1 DIV PUSH20 0xFFFFFFFFFFFFFFFFFFFFFFFFFFFFFFFFFFFFFFFF AND PUSH20 0xFFFFFFFFFFFFFFFFFFFFFFFFFFFFFFFFFFFFFFFF AND PUSH4 0x63A9C3D7 CALLER PUSH1 0x40 MLOAD DUP3 PUSH4 0xFFFFFFFF AND PUSH1 0xE0 SHL DUP2 MSTORE PUSH1 0x4 ADD PUSH2 0xD8D SWAP2 SWAP1 PUSH2 0x4569 JUMP JUMPDEST PUSH1 0x20 PUSH1 0x40 MLOAD DUP1 DUP4 SUB DUP2 DUP7 GAS STATICCALL ISZERO DUP1 ISZERO PUSH2 0xDAA JUMPI RETURNDATASIZE PUSH1 0x0 DUP1 RETURNDATACOPY RETURNDATASIZE PUSH1 0x0 REVERT JUMPDEST POP POP POP POP PUSH1 0x40 MLOAD RETURNDATASIZE PUSH1 0x1F NOT PUSH1 0x1F DUP3 ADD AND DUP3 ADD DUP1 PUSH1 0x40 MSTORE POP DUP2 ADD SWAP1 PUSH2 0xDCE SWAP2 SWAP1 PUSH2 0x4599 JUMP JUMPDEST PUSH2 0xDD7 JUMPI PUSH1 0x0 DUP1 REVERT JUMPDEST PUSH2 0xDDF PUSH2 0x300A JUMP JUMPDEST DUP3 PUSH1 0x0 ADD MLOAD DUP2 PUSH1 0x0 ADD SWAP1 PUSH20 0xFFFFFFFFFFFFFFFFFFFFFFFFFFFFFFFFFFFFFFFF AND SWAP1 DUP2 PUSH20 0xFFFFFFFFFFFFFFFFFFFFFFFFFFFFFFFFFFFFFFFF AND DUP2 MSTORE POP POP DUP3 PUSH1 0x20 ADD MLOAD DUP2 PUSH1 0x20 ADD DUP2 SWAP1 MSTORE POP DUP3 PUSH1 0x40 ADD MLOAD DUP2 PUSH1 0x40 ADD DUP2 DUP2 MSTORE POP POP DUP3 PUSH1 0x60 ADD MLOAD DUP2 PUSH1 0x60 ADD DUP2 SWAP1 MSTORE POP DUP3 PUSH1 0x80 ADD MLOAD DUP2 PUSH1 0x80 ADD DUP2 SWAP1 MSTORE POP DUP1 PUSH1 0x0 DUP1 DUP6 PUSH1 0x0 ADD MLOAD PUSH20 0xFFFFFFFFFFFFFFFFFFFFFFFFFFFFFFFFFFFFFFFF AND PUSH20 0xFFFFFFFFFFFFFFFFFFFFFFFFFFFFFFFFFFFFFFFF AND DUP2 MSTORE PUSH1 0x20 ADD SWAP1 DUP2 MSTORE PUSH1 0x20 ADD PUSH1 0x0 KECCAK256 PUSH1 0x0 DUP3 ADD MLOAD DUP2 PUSH1 0x0 ADD PUSH1 0x0 PUSH2 0x100 EXP DUP2 SLOAD DUP2 PUSH20 0xFFFFFFFFFFFFFFFFFFFFFFFFFFFFFFFFFFFFFFFF MUL NOT AND SWAP1 DUP4 PUSH20 0xFFFFFFFFFFFFFFFFFFFFFFFFFFFFFFFFFFFFFFFF AND MUL OR SWAP1 SSTORE POP PUSH1 0x20 DUP3 ADD MLOAD DUP2 PUSH1 0x1 ADD SWAP1 DUP2 PUSH2 0xEEF SWAP2 SWAP1 PUSH2 0x47D2 JUMP JUMPDEST POP PUSH1 0x40 DUP3 ADD MLOAD DUP2 PUSH1 0x2 ADD SSTORE PUSH1 0x60 DUP3 ADD MLOAD DUP2 PUSH1 0x3 ADD SWAP1 DUP2 PUSH2 0xF0F SWAP2 SWAP1 PUSH2 0x47D2 JUMP JUMPDEST POP PUSH1 0x80 DUP3 ADD MLOAD DUP2 PUSH1 0x4 ADD SWAP1 DUP2 PUSH2 0xF25 SWAP2 SWAP1 PUSH2 0x47D2 JUMP JUMPDEST POP SWAP1 POP POP PUSH2 0xF31 PUSH2 0x30BA JUMP JUMPDEST DUP3 PUSH1 0x0 ADD MLOAD DUP2 PUSH1 0x0 ADD SWAP1 PUSH20 0xFFFFFFFFFFFFFFFFFFFFFFFFFFFFFFFFFFFFFFFF AND SWAP1 DUP2 PUSH20 0xFFFFFFFFFFFFFFFFFFFFFFFFFFFFFFFFFFFFFFFF AND DUP2 MSTORE POP POP DUP3 PUSH1 0x20 ADD MLOAD DUP2 PUSH1 0x20 ADD DUP2 SWAP1 MSTORE POP DUP3 PUSH1 0x40 ADD MLOAD DUP2 PUSH1 0x40 ADD DUP2 SWAP1 MSTORE POP DUP3 PUSH1 0x60 ADD MLOAD DUP2 PUSH1 0x60 ADD DUP2 SWAP1 MSTORE POP DUP3 PUSH1 0x80 ADD MLOAD DUP2 PUSH1 0x80 ADD DUP2 SWAP1 MSTORE POP DUP3 PUSH1 0xA0 ADD MLOAD DUP2 PUSH1 0xA0 ADD DUP2 SWAP1 MSTORE POP DUP3 PUSH1 0xC0 ADD MLOAD DUP2 PUSH1 0xC0 ADD DUP2 SWAP1 MSTORE POP DUP3 PUSH1 0xE0 ADD MLOAD DUP2 PUSH1 0xE0 ADD DUP2 SWAP1 MSTORE POP DUP3 PUSH2 0x100 ADD MLOAD DUP2 PUSH2 0x100 ADD DUP2 SWAP1 MSTORE POP DUP3 PUSH2 0x120 ADD MLOAD DUP2 PUSH2 0x120 ADD SWAP1 ISZERO ISZERO SWAP1 DUP2 ISZERO ISZERO DUP2 MSTORE POP POP DUP3 PUSH2 0x140 ADD MLOAD DUP2 PUSH2 0x140 ADD DUP2 SWAP1 MSTORE POP DUP3 PUSH2 0x160 ADD MLOAD DUP2 PUSH2 0x160 ADD DUP2 SWAP1 MSTORE POP DUP3 PUSH2 0x180 ADD MLOAD DUP2 PUSH2 0x180 ADD SWAP1 PUSH20 0xFFFFFFFFFFFFFFFFFFFFFFFFFFFFFFFFFFFFFFFF AND SWAP1 DUP2 PUSH20 0xFFFFFFFFFFFFFFFFFFFFFFFFFFFFFFFFFFFFFFFF AND DUP2 MSTORE POP POP DUP3 PUSH2 0x1A0 ADD MLOAD DUP2 PUSH2 0x1A0 ADD DUP2 SWAP1 MSTORE POP PUSH1 0x3 PUSH1 0x0 DUP5 PUSH1 0x0 ADD MLOAD PUSH20 0xFFFFFFFFFFFFFFFFFFFFFFFFFFFFFFFFFFFFFFFF AND PUSH20 0xFFFFFFFFFFFFFFFFFFFFFFFFFFFFFFFFFFFFFFFF AND DUP2 MSTORE PUSH1 0x20 ADD SWAP1 DUP2 MSTORE PUSH1 0x20 ADD PUSH1 0x0 KECCAK256 DUP2 SWAP1 DUP1 PUSH1 0x1 DUP2 SLOAD ADD DUP1 DUP3 SSTORE DUP1 SWAP2 POP POP PUSH1 0x1 SWAP1 SUB SWAP1 PUSH1 0x0 MSTORE PUSH1 0x20 PUSH1 0x0 KECCAK256 SWAP1 PUSH1 0xE MUL ADD PUSH1 0x0 SWAP1 SWAP2 SWAP1 SWAP2 SWAP1 SWAP2 POP PUSH1 0x0 DUP3 ADD MLOAD DUP2 PUSH1 0x0 ADD PUSH1 0x0 PUSH2 0x100 EXP DUP2 SLOAD DUP2 PUSH20 0xFFFFFFFFFFFFFFFFFFFFFFFFFFFFFFFFFFFFFFFF MUL NOT AND SWAP1 DUP4 PUSH20 0xFFFFFFFFFFFFFFFFFFFFFFFFFFFFFFFFFFFFFFFF AND MUL OR SWAP1 SSTORE POP PUSH1 0x20 DUP3 ADD MLOAD DUP2 PUSH1 0x1 ADD SWAP1 DUP2 PUSH2 0x1121 SWAP2 SWAP1 PUSH2 0x47D2 JUMP JUMPDEST POP PUSH1 0x40 DUP3 ADD MLOAD DUP2 PUSH1 0x2 ADD SWAP1 DUP2 PUSH2 0x1137 SWAP2 SWAP1 PUSH2 0x47D2 JUMP JUMPDEST POP PUSH1 0x60 DUP3 ADD MLOAD DUP2 PUSH1 0x3 ADD SWAP1 DUP2 PUSH2 0x114D SWAP2 SWAP1 PUSH2 0x47D2 JUMP JUMPDEST POP PUSH1 0x80 DUP3 ADD MLOAD DUP2 PUSH1 0x4 ADD SWAP1 DUP2 PUSH2 0x1163 SWAP2 SWAP1 PUSH2 0x47D2 JUMP JUMPDEST POP PUSH1 0xA0 DUP3 ADD MLOAD DUP2 PUSH1 0x5 ADD SWAP1 DUP2 PUSH2 0x1179 SWAP2 SWAP1 PUSH2 0x47D2 JUMP JUMPDEST POP PUSH1 0xC0 DUP3 ADD MLOAD DUP2 PUSH1 0x6 ADD SWAP1 DUP2 PUSH2 0x118F SWAP2 SWAP1 PUSH2 0x47D2 JUMP JUMPDEST POP PUSH1 0xE0 DUP3 ADD MLOAD DUP2 PUSH1 0x7 ADD SWAP1 DUP2 PUSH2 0x11A5 SWAP2 SWAP1 PUSH2 0x47D2 JUMP JUMPDEST POP PUSH2 0x100 DUP3 ADD MLOAD DUP2 PUSH1 0x8 ADD SWAP1 DUP2 PUSH2 0x11BC SWAP2 SWAP1 PUSH2 0x47D2 JUMP JUMPDEST POP PUSH2 0x120 DUP3 ADD MLOAD DUP2 PUSH1 0x9 ADD PUSH1 0x0 PUSH2 0x100 EXP DUP2 SLOAD DUP2 PUSH1 0xFF MUL NOT AND SWAP1 DUP4 ISZERO ISZERO MUL OR SWAP1 SSTORE POP PUSH2 0x140 DUP3 ADD MLOAD DUP2 PUSH1 0xA ADD SWAP1 DUP2 PUSH2 0x11F4 SWAP2 SWAP1 PUSH2 0x47D2 JUMP JUMPDEST POP PUSH2 0x160 DUP3 ADD MLOAD DUP2 PUSH1 0xB ADD SWAP1 DUP2 PUSH2 0x120B SWAP2 SWAP1 PUSH2 0x47D2 JUMP JUMPDEST POP PUSH2 0x180 DUP3 ADD MLOAD DUP2 PUSH1 0xC ADD PUSH1 0x0 PUSH2 0x100 EXP DUP2 SLOAD DUP2 PUSH20 0xFFFFFFFFFFFFFFFFFFFFFFFFFFFFFFFFFFFFFFFF MUL NOT AND SWAP1 DUP4 PUSH20 0xFFFFFFFFFFFFFFFFFFFFFFFFFFFFFFFFFFFFFFFF AND MUL OR SWAP1 SSTORE POP PUSH2 0x1A0 DUP3 ADD MLOAD DUP2 PUSH1 0xD ADD SWAP1 DUP2 PUSH2 0x126A SWAP2 SWAP1 PUSH2 0x47D2 JUMP JUMPDEST POP POP POP PUSH1 0x7 PUSH1 0x0 SWAP1 SLOAD SWAP1 PUSH2 0x100 EXP SWAP1 DIV PUSH20 0xFFFFFFFFFFFFFFFFFFFFFFFFFFFFFFFFFFFFFFFF AND PUSH20 0xFFFFFFFFFFFFFFFFFFFFFFFFFFFFFFFFFFFFFFFF AND PUSH4 0x6D263CEB DUP6 PUSH1 0x0 ADD MLOAD PUSH1 0x40 MLOAD DUP3 PUSH4 0xFFFFFFFF AND PUSH1 0xE0 SHL DUP2 MSTORE PUSH1 0x4 ADD PUSH2 0x12CC SWAP2 SWAP1 PUSH2 0x4569 JUMP JUMPDEST PUSH1 0x0 PUSH1 0x40 MLOAD DUP1 DUP4 SUB DUP2 PUSH1 0x0 DUP8 DUP1 EXTCODESIZE ISZERO DUP1 ISZERO PUSH2 0x12E6 JUMPI PUSH1 0x0 DUP1 REVERT JUMPDEST POP GAS CALL ISZERO DUP1 ISZERO PUSH2 0x12FA JUMPI RETURNDATASIZE PUSH1 0x0 DUP1 RETURNDATACOPY RETURNDATASIZE PUSH1 0x0 REVERT JUMPDEST POP POP POP POP PUSH1 0x8 PUSH1 0x0 SWAP1 SLOAD SWAP1 PUSH2 0x100 EXP SWAP1 DIV PUSH20 0xFFFFFFFFFFFFFFFFFFFFFFFFFFFFFFFFFFFFFFFF AND PUSH20 0xFFFFFFFFFFFFFFFFFFFFFFFFFFFFFFFFFFFFFFFF AND PUSH4 0x8BFC8C71 CALLER DUP7 PUSH1 0x0 ADD MLOAD PUSH1 0x40 MLOAD DUP4 PUSH4 0xFFFFFFFF AND PUSH1 0xE0 SHL DUP2 MSTORE PUSH1 0x4 ADD PUSH2 0x135F SWAP3 SWAP2 SWAP1 PUSH2 0x48A4 JUMP JUMPDEST PUSH1 0x0 PUSH1 0x40 MLOAD DUP1 DUP4 SUB DUP2 PUSH1 0x0 DUP8 DUP1 EXTCODESIZE ISZERO DUP1 ISZERO PUSH2 0x1379 JUMPI PUSH1 0x0 DUP1 REVERT JUMPDEST POP GAS CALL ISZERO DUP1 ISZERO PUSH2 0x138D JUMPI RETURNDATASIZE PUSH1 0x0 DUP1 RETURNDATACOPY RETURNDATASIZE PUSH1 0x0 REVERT JUMPDEST POP POP POP POP POP POP POP POP JUMP JUMPDEST PUSH2 0x139F PUSH2 0x300A JUMP JUMPDEST PUSH1 0x60 PUSH1 0x0 DUP1 DUP5 PUSH20 0xFFFFFFFFFFFFFFFFFFFFFFFFFFFFFFFFFFFFFFFF AND PUSH20 0xFFFFFFFFFFFFFFFFFFFFFFFFFFFFFFFFFFFFFFFF AND DUP2 MSTORE PUSH1 0x20 ADD SWAP1 DUP2 MSTORE PUSH1 0x20 ADD PUSH1 0x0 KECCAK256 PUSH1 0x2 PUSH1 0x0 DUP6 PUSH20 0xFFFFFFFFFFFFFFFFFFFFFFFFFFFFFFFFFFFFFFFF AND PUSH20 0xFFFFFFFFFFFFFFFFFFFFFFFFFFFFFFFFFFFFFFFF AND DUP2 MSTORE PUSH1 0x20 ADD SWAP1 DUP2 MSTORE PUSH1 0x20 ADD PUSH1 0x0 KECCAK256 DUP2 PUSH1 0x40 MLOAD DUP1 PUSH1 0xA0 ADD PUSH1 0x40 MSTORE SWAP1 DUP2 PUSH1 0x0 DUP3 ADD PUSH1 0x0 SWAP1 SLOAD SWAP1 PUSH2 0x100 EXP SWAP1 DIV PUSH20 0xFFFFFFFFFFFFFFFFFFFFFFFFFFFFFFFFFFFFFFFF AND PUSH20 0xFFFFFFFFFFFFFFFFFFFFFFFFFFFFFFFFFFFFFFFF AND PUSH20 0xFFFFFFFFFFFFFFFFFFFFFFFFFFFFFFFFFFFFFFFF AND DUP2 MSTORE PUSH1 0x20 ADD PUSH1 0x1 DUP3 ADD DUP1 SLOAD PUSH2 0x1490 SWAP1 PUSH2 0x45F5 JUMP JUMPDEST DUP1 PUSH1 0x1F ADD PUSH1 0x20 DUP1 SWAP2 DIV MUL PUSH1 0x20 ADD PUSH1 0x40 MLOAD SWAP1 DUP2 ADD PUSH1 0x40 MSTORE DUP1 SWAP3 SWAP2 SWAP1 DUP2 DUP2 MSTORE PUSH1 0x20 ADD DUP3 DUP1 SLOAD PUSH2 0x14BC SWAP1 PUSH2 0x45F5 JUMP JUMPDEST DUP1 ISZERO PUSH2 0x1509 JUMPI DUP1 PUSH1 0x1F LT PUSH2 0x14DE JUMPI PUSH2 0x100 DUP1 DUP4 SLOAD DIV MUL DUP4 MSTORE SWAP2 PUSH1 0x20 ADD SWAP2 PUSH2 0x1509 JUMP JUMPDEST DUP3 ADD SWAP2 SWAP1 PUSH1 0x0 MSTORE PUSH1 0x20 PUSH1 0x0 KECCAK256 SWAP1 JUMPDEST DUP2 SLOAD DUP2 MSTORE SWAP1 PUSH1 0x1 ADD SWAP1 PUSH1 0x20 ADD DUP1 DUP4 GT PUSH2 0x14EC JUMPI DUP3 SWAP1 SUB PUSH1 0x1F AND DUP3 ADD SWAP2 JUMPDEST POP POP POP POP POP DUP2 MSTORE PUSH1 0x20 ADD PUSH1 0x2 DUP3 ADD SLOAD DUP2 MSTORE PUSH1 0x20 ADD PUSH1 0x3 DUP3 ADD DUP1 SLOAD PUSH2 0x152C SWAP1 PUSH2 0x45F5 JUMP JUMPDEST DUP1 PUSH1 0x1F ADD PUSH1 0x20 DUP1 SWAP2 DIV MUL PUSH1 0x20 ADD PUSH1 0x40 MLOAD SWAP1 DUP2 ADD PUSH1 0x40 MSTORE DUP1 SWAP3 SWAP2 SWAP1 DUP2 DUP2 MSTORE PUSH1 0x20 ADD DUP3 DUP1 SLOAD PUSH2 0x1558 SWAP1 PUSH2 0x45F5 JUMP JUMPDEST DUP1 ISZERO PUSH2 0x15A5 JUMPI DUP1 PUSH1 0x1F LT PUSH2 0x157A JUMPI PUSH2 0x100 DUP1 DUP4 SLOAD DIV MUL DUP4 MSTORE SWAP2 PUSH1 0x20 ADD SWAP2 PUSH2 0x15A5 JUMP JUMPDEST DUP3 ADD SWAP2 SWAP1 PUSH1 0x0 MSTORE PUSH1 0x20 PUSH1 0x0 KECCAK256 SWAP1 JUMPDEST DUP2 SLOAD DUP2 MSTORE SWAP1 PUSH1 0x1 ADD SWAP1 PUSH1 0x20 ADD DUP1 DUP4 GT PUSH2 0x1588 JUMPI DUP3 SWAP1 SUB PUSH1 0x1F AND DUP3 ADD SWAP2 JUMPDEST POP POP POP POP POP DUP2 MSTORE PUSH1 0x20 ADD PUSH1 0x4 DUP3 ADD DUP1 SLOAD PUSH2 0x15BE SWAP1 PUSH2 0x45F5 JUMP JUMPDEST DUP1 PUSH1 0x1F ADD PUSH1 0x20 DUP1 SWAP2 DIV MUL PUSH1 0x20 ADD PUSH1 0x40 MLOAD SWAP1 DUP2 ADD PUSH1 0x40 MSTORE DUP1 SWAP3 SWAP2 SWAP1 DUP2 DUP2 MSTORE PUSH1 0x20 ADD DUP3 DUP1 SLOAD PUSH2 0x15EA SWAP1 PUSH2 0x45F5 JUMP JUMPDEST DUP1 ISZERO PUSH2 0x1637 JUMPI DUP1 PUSH1 0x1F LT PUSH2 0x160C JUMPI PUSH2 0x100 DUP1 DUP4 SLOAD DIV MUL DUP4 MSTORE SWAP2 PUSH1 0x20 ADD SWAP2 PUSH2 0x1637 JUMP JUMPDEST DUP3 ADD SWAP2 SWAP1 PUSH1 0x0 MSTORE PUSH1 0x20 PUSH1 0x0 KECCAK256 SWAP1 JUMPDEST DUP2 SLOAD DUP2 MSTORE SWAP1 PUSH1 0x1 ADD SWAP1 PUSH1 0x20 ADD DUP1 DUP4 GT PUSH2 0x161A JUMPI DUP3 SWAP1 SUB PUSH1 0x1F AND DUP3 ADD SWAP2 JUMPDEST POP POP POP POP POP DUP2 MSTORE POP POP SWAP2 POP DUP1 DUP1 SLOAD DUP1 PUSH1 0x20 MUL PUSH1 0x20 ADD PUSH1 0x40 MLOAD SWAP1 DUP2 ADD PUSH1 0x40 MSTORE DUP1 SWAP3 SWAP2 SWAP1 DUP2 DUP2 MSTORE PUSH1 0x20 ADD PUSH1 0x0 SWAP1 JUMPDEST DUP3 DUP3 LT ISZERO PUSH2 0x1B97 JUMPI DUP4 DUP3 SWAP1 PUSH1 0x0 MSTORE PUSH1 0x20 PUSH1 0x0 KECCAK256 SWAP1 PUSH1 0xA MUL ADD PUSH1 0x40 MLOAD DUP1 PUSH2 0x140 ADD PUSH1 0x40 MSTORE SWAP1 DUP2 PUSH1 0x0 DUP3 ADD PUSH1 0x0 SWAP1 SLOAD SWAP1 PUSH2 0x100 EXP SWAP1 DIV PUSH20 0xFFFFFFFFFFFFFFFFFFFFFFFFFFFFFFFFFFFFFFFF AND PUSH20 0xFFFFFFFFFFFFFFFFFFFFFFFFFFFFFFFFFFFFFFFF AND PUSH20 0xFFFFFFFFFFFFFFFFFFFFFFFFFFFFFFFFFFFFFFFF AND DUP2 MSTORE PUSH1 0x20 ADD PUSH1 0x1 DUP3 ADD DUP1 SLOAD PUSH2 0x16ED SWAP1 PUSH2 0x45F5 JUMP JUMPDEST DUP1 PUSH1 0x1F ADD PUSH1 0x20 DUP1 SWAP2 DIV MUL PUSH1 0x20 ADD PUSH1 0x40 MLOAD SWAP1 DUP2 ADD PUSH1 0x40 MSTORE DUP1 SWAP3 SWAP2 SWAP1 DUP2 DUP2 MSTORE PUSH1 0x20 ADD DUP3 DUP1 SLOAD PUSH2 0x1719 SWAP1 PUSH2 0x45F5 JUMP JUMPDEST DUP1 ISZERO PUSH2 0x1766 JUMPI DUP1 PUSH1 0x1F LT PUSH2 0x173B JUMPI PUSH2 0x100 DUP1 DUP4 SLOAD DIV MUL DUP4 MSTORE SWAP2 PUSH1 0x20 ADD SWAP2 PUSH2 0x1766 JUMP JUMPDEST DUP3 ADD SWAP2 SWAP1 PUSH1 0x0 MSTORE PUSH1 0x20 PUSH1 0x0 KECCAK256 SWAP1 JUMPDEST DUP2 SLOAD DUP2 MSTORE SWAP1 PUSH1 0x1 ADD SWAP1 PUSH1 0x20 ADD DUP1 DUP4 GT PUSH2 0x1749 JUMPI DUP3 SWAP1 SUB PUSH1 0x1F AND DUP3 ADD SWAP2 JUMPDEST POP POP POP POP POP DUP2 MSTORE PUSH1 0x20 ADD PUSH1 0x2 DUP3 ADD DUP1 SLOAD PUSH2 0x177F SWAP1 PUSH2 0x45F5 JUMP JUMPDEST DUP1 PUSH1 0x1F ADD PUSH1 0x20 DUP1 SWAP2 DIV MUL PUSH1 0x20 ADD PUSH1 0x40 MLOAD SWAP1 DUP2 ADD PUSH1 0x40 MSTORE DUP1 SWAP3 SWAP2 SWAP1 DUP2 DUP2 MSTORE PUSH1 0x20 ADD DUP3 DUP1 SLOAD PUSH2 0x17AB SWAP1 PUSH2 0x45F5 JUMP JUMPDEST DUP1 ISZERO PUSH2 0x17F8 JUMPI DUP1 PUSH1 0x1F LT PUSH2 0x17CD JUMPI PUSH2 0x100 DUP1 DUP4 SLOAD DIV MUL DUP4 MSTORE SWAP2 PUSH1 0x20 ADD SWAP2 PUSH2 0x17F8 JUMP JUMPDEST DUP3 ADD SWAP2 SWAP1 PUSH1 0x0 MSTORE PUSH1 0x20 PUSH1 0x0 KECCAK256 SWAP1 JUMPDEST DUP2 SLOAD DUP2 MSTORE SWAP1 PUSH1 0x1 ADD SWAP1 PUSH1 0x20 ADD DUP1 DUP4 GT PUSH2 0x17DB JUMPI DUP3 SWAP1 SUB PUSH1 0x1F AND DUP3 ADD SWAP2 JUMPDEST POP POP POP POP POP DUP2 MSTORE PUSH1 0x20 ADD PUSH1 0x3 DUP3 ADD DUP1 SLOAD PUSH2 0x1811 SWAP1 PUSH2 0x45F5 JUMP JUMPDEST DUP1 PUSH1 0x1F ADD PUSH1 0x20 DUP1 SWAP2 DIV MUL PUSH1 0x20 ADD PUSH1 0x40 MLOAD SWAP1 DUP2 ADD PUSH1 0x40 MSTORE DUP1 SWAP3 SWAP2 SWAP1 DUP2 DUP2 MSTORE PUSH1 0x20 ADD DUP3 DUP1 SLOAD PUSH2 0x183D SWAP1 PUSH2 0x45F5 JUMP JUMPDEST DUP1 ISZERO PUSH2 0x188A JUMPI DUP1 PUSH1 0x1F LT PUSH2 0x185F JUMPI PUSH2 0x100 DUP1 DUP4 SLOAD DIV MUL DUP4 MSTORE SWAP2 PUSH1 0x20 ADD SWAP2 PUSH2 0x188A JUMP JUMPDEST DUP3 ADD SWAP2 SWAP1 PUSH1 0x0 MSTORE PUSH1 0x20 PUSH1 0x0 KECCAK256 SWAP1 JUMPDEST DUP2 SLOAD DUP2 MSTORE SWAP1 PUSH1 0x1 ADD SWAP1 PUSH1 0x20 ADD DUP1 DUP4 GT PUSH2 0x186D JUMPI DUP3 SWAP1 SUB PUSH1 0x1F AND DUP3 ADD SWAP2 JUMPDEST POP POP POP POP POP DUP2 MSTORE PUSH1 0x20 ADD PUSH1 0x4 DUP3 ADD DUP1 SLOAD PUSH2 0x18A3 SWAP1 PUSH2 0x45F5 JUMP JUMPDEST DUP1 PUSH1 0x1F ADD PUSH1 0x20 DUP1 SWAP2 DIV MUL PUSH1 0x20 ADD PUSH1 0x40 MLOAD SWAP1 DUP2 ADD PUSH1 0x40 MSTORE DUP1 SWAP3 SWAP2 SWAP1 DUP2 DUP2 MSTORE PUSH1 0x20 ADD DUP3 DUP1 SLOAD PUSH2 0x18CF SWAP1 PUSH2 0x45F5 JUMP JUMPDEST DUP1 ISZERO PUSH2 0x191C JUMPI DUP1 PUSH1 0x1F LT PUSH2 0x18F1 JUMPI PUSH2 0x100 DUP1 DUP4 SLOAD DIV MUL DUP4 MSTORE SWAP2 PUSH1 0x20 ADD SWAP2 PUSH2 0x191C JUMP JUMPDEST DUP3 ADD SWAP2 SWAP1 PUSH1 0x0 MSTORE PUSH1 0x20 PUSH1 0x0 KECCAK256 SWAP1 JUMPDEST DUP2 SLOAD DUP2 MSTORE SWAP1 PUSH1 0x1 ADD SWAP1 PUSH1 0x20 ADD DUP1 DUP4 GT PUSH2 0x18FF JUMPI DUP3 SWAP1 SUB PUSH1 0x1F AND DUP3 ADD SWAP2 JUMPDEST POP POP POP POP POP DUP2 MSTORE PUSH1 0x20 ADD PUSH1 0x5 DUP3 ADD DUP1 SLOAD PUSH2 0x1935 SWAP1 PUSH2 0x45F5 JUMP JUMPDEST DUP1 PUSH1 0x1F ADD PUSH1 0x20 DUP1 SWAP2 DIV MUL PUSH1 0x20 ADD PUSH1 0x40 MLOAD SWAP1 DUP2 ADD PUSH1 0x40 MSTORE DUP1 SWAP3 SWAP2 SWAP1 DUP2 DUP2 MSTORE PUSH1 0x20 ADD DUP3 DUP1 SLOAD PUSH2 0x1961 SWAP1 PUSH2 0x45F5 JUMP JUMPDEST DUP1 ISZERO PUSH2 0x19AE JUMPI DUP1 PUSH1 0x1F LT PUSH2 0x1983 JUMPI PUSH2 0x100 DUP1 DUP4 SLOAD DIV MUL DUP4 MSTORE SWAP2 PUSH1 0x20 ADD SWAP2 PUSH2 0x19AE JUMP JUMPDEST DUP3 ADD SWAP2 SWAP1 PUSH1 0x0 MSTORE PUSH1 0x20 PUSH1 0x0 KECCAK256 SWAP1 JUMPDEST DUP2 SLOAD DUP2 MSTORE SWAP1 PUSH1 0x1 ADD SWAP1 PUSH1 0x20 ADD DUP1 DUP4 GT PUSH2 0x1991 JUMPI DUP3 SWAP1 SUB PUSH1 0x1F AND DUP3 ADD SWAP2 JUMPDEST POP POP POP POP POP DUP2 MSTORE PUSH1 0x20 ADD PUSH1 0x6 DUP3 ADD DUP1 SLOAD PUSH2 0x19C7 SWAP1 PUSH2 0x45F5 JUMP JUMPDEST DUP1 PUSH1 0x1F ADD PUSH1 0x20 DUP1 SWAP2 DIV MUL PUSH1 0x20 ADD PUSH1 0x40 MLOAD SWAP1 DUP2 ADD PUSH1 0x40 MSTORE DUP1 SWAP3 SWAP2 SWAP1 DUP2 DUP2 MSTORE PUSH1 0x20 ADD DUP3 DUP1 SLOAD PUSH2 0x19F3 SWAP1 PUSH2 0x45F5 JUMP JUMPDEST DUP1 ISZERO PUSH2 0x1A40 JUMPI DUP1 PUSH1 0x1F LT PUSH2 0x1A15 JUMPI PUSH2 0x100 DUP1 DUP4 SLOAD DIV MUL DUP4 MSTORE SWAP2 PUSH1 0x20 ADD SWAP2 PUSH2 0x1A40 JUMP JUMPDEST DUP3 ADD SWAP2 SWAP1 PUSH1 0x0 MSTORE PUSH1 0x20 PUSH1 0x0 KECCAK256 SWAP1 JUMPDEST DUP2 SLOAD DUP2 MSTORE SWAP1 PUSH1 0x1 ADD SWAP1 PUSH1 0x20 ADD DUP1 DUP4 GT PUSH2 0x1A23 JUMPI DUP3 SWAP1 SUB PUSH1 0x1F AND DUP3 ADD SWAP2 JUMPDEST POP POP POP POP POP DUP2 MSTORE PUSH1 0x20 ADD PUSH1 0x7 DUP3 ADD DUP1 SLOAD PUSH2 0x1A59 SWAP1 PUSH2 0x45F5 JUMP JUMPDEST DUP1 PUSH1 0x1F ADD PUSH1 0x20 DUP1 SWAP2 DIV MUL PUSH1 0x20 ADD PUSH1 0x40 MLOAD SWAP1 DUP2 ADD PUSH1 0x40 MSTORE DUP1 SWAP3 SWAP2 SWAP1 DUP2 DUP2 MSTORE PUSH1 0x20 ADD DUP3 DUP1 SLOAD PUSH2 0x1A85 SWAP1 PUSH2 0x45F5 JUMP JUMPDEST DUP1 ISZERO PUSH2 0x1AD2 JUMPI DUP1 PUSH1 0x1F LT PUSH2 0x1AA7 JUMPI PUSH2 0x100 DUP1 DUP4 SLOAD DIV MUL DUP4 MSTORE SWAP2 PUSH1 0x20 ADD SWAP2 PUSH2 0x1AD2 JUMP JUMPDEST DUP3 ADD SWAP2 SWAP1 PUSH1 0x0 MSTORE PUSH1 0x20 PUSH1 0x0 KECCAK256 SWAP1 JUMPDEST DUP2 SLOAD DUP2 MSTORE SWAP1 PUSH1 0x1 ADD SWAP1 PUSH1 0x20 ADD DUP1 DUP4 GT PUSH2 0x1AB5 JUMPI DUP3 SWAP1 SUB PUSH1 0x1F AND DUP3 ADD SWAP2 JUMPDEST POP POP POP POP POP DUP2 MSTORE PUSH1 0x20 ADD PUSH1 0x8 DUP3 ADD DUP1 SLOAD PUSH2 0x1AEB SWAP1 PUSH2 0x45F5 JUMP JUMPDEST DUP1 PUSH1 0x1F ADD PUSH1 0x20 DUP1 SWAP2 DIV MUL PUSH1 0x20 ADD PUSH1 0x40 MLOAD SWAP1 DUP2 ADD PUSH1 0x40 MSTORE DUP1 SWAP3 SWAP2 SWAP1 DUP2 DUP2 MSTORE PUSH1 0x20 ADD DUP3 DUP1 SLOAD PUSH2 0x1B17 SWAP1 PUSH2 0x45F5 JUMP JUMPDEST DUP1 ISZERO PUSH2 0x1B64 JUMPI DUP1 PUSH1 0x1F LT PUSH2 0x1B39 JUMPI PUSH2 0x100 DUP1 DUP4 SLOAD DIV MUL DUP4 MSTORE SWAP2 PUSH1 0x20 ADD SWAP2 PUSH2 0x1B64 JUMP JUMPDEST DUP3 ADD SWAP2 SWAP1 PUSH1 0x0 MSTORE PUSH1 0x20 PUSH1 0x0 KECCAK256 SWAP1 JUMPDEST DUP2 SLOAD DUP2 MSTORE SWAP1 PUSH1 0x1 ADD SWAP1 PUSH1 0x20 ADD DUP1 DUP4 GT PUSH2 0x1B47 JUMPI DUP3 SWAP1 SUB PUSH1 0x1F AND DUP3 ADD SWAP2 JUMPDEST POP POP POP POP POP DUP2 MSTORE PUSH1 0x20 ADD PUSH1 0x9 DUP3 ADD PUSH1 0x0 SWAP1 SLOAD SWAP1 PUSH2 0x100 EXP SWAP1 DIV PUSH1 0xFF AND ISZERO ISZERO ISZERO ISZERO DUP2 MSTORE POP POP DUP2 MSTORE PUSH1 0x20 ADD SWAP1 PUSH1 0x1 ADD SWAP1 PUSH2 0x1663 JUMP JUMPDEST POP POP POP POP SWAP1 POP SWAP2 POP SWAP2 POP SWAP2 POP SWAP2 JUMP JUMPDEST PUSH2 0x1BAE PUSH2 0x300A JUMP JUMPDEST PUSH1 0x60 PUSH1 0x0 DUP1 DUP5 PUSH20 0xFFFFFFFFFFFFFFFFFFFFFFFFFFFFFFFFFFFFFFFF AND PUSH20 0xFFFFFFFFFFFFFFFFFFFFFFFFFFFFFFFFFFFFFFFF AND DUP2 MSTORE PUSH1 0x20 ADD SWAP1 DUP2 MSTORE PUSH1 0x20 ADD PUSH1 0x0 KECCAK256 PUSH1 0x4 PUSH1 0x0 DUP6 PUSH20 0xFFFFFFFFFFFFFFFFFFFFFFFFFFFFFFFFFFFFFFFF AND PUSH20 0xFFFFFFFFFFFFFFFFFFFFFFFFFFFFFFFFFFFFFFFF AND DUP2 MSTORE PUSH1 0x20 ADD SWAP1 DUP2 MSTORE PUSH1 0x20 ADD PUSH1 0x0 KECCAK256 DUP2 PUSH1 0x40 MLOAD DUP1 PUSH1 0xA0 ADD PUSH1 0x40 MSTORE SWAP1 DUP2 PUSH1 0x0 DUP3 ADD PUSH1 0x0 SWAP1 SLOAD SWAP1 PUSH2 0x100 EXP SWAP1 DIV PUSH20 0xFFFFFFFFFFFFFFFFFFFFFFFFFFFFFFFFFFFFFFFF AND PUSH20 0xFFFFFFFFFFFFFFFFFFFFFFFFFFFFFFFFFFFFFFFF AND PUSH20 0xFFFFFFFFFFFFFFFFFFFFFFFFFFFFFFFFFFFFFFFF AND DUP2 MSTORE PUSH1 0x20 ADD PUSH1 0x1 DUP3 ADD DUP1 SLOAD PUSH2 0x1C9F SWAP1 PUSH2 0x45F5 JUMP JUMPDEST DUP1 PUSH1 0x1F ADD PUSH1 0x20 DUP1 SWAP2 DIV MUL PUSH1 0x20 ADD PUSH1 0x40 MLOAD SWAP1 DUP2 ADD PUSH1 0x40 MSTORE DUP1 SWAP3 SWAP2 SWAP1 DUP2 DUP2 MSTORE PUSH1 0x20 ADD DUP3 DUP1 SLOAD PUSH2 0x1CCB SWAP1 PUSH2 0x45F5 JUMP JUMPDEST DUP1 ISZERO PUSH2 0x1D18 JUMPI DUP1 PUSH1 0x1F LT PUSH2 0x1CED JUMPI PUSH2 0x100 DUP1 DUP4 SLOAD DIV MUL DUP4 MSTORE SWAP2 PUSH1 0x20 ADD SWAP2 PUSH2 0x1D18 JUMP JUMPDEST DUP3 ADD SWAP2 SWAP1 PUSH1 0x0 MSTORE PUSH1 0x20 PUSH1 0x0 KECCAK256 SWAP1 JUMPDEST DUP2 SLOAD DUP2 MSTORE SWAP1 PUSH1 0x1 ADD SWAP1 PUSH1 0x20 ADD DUP1 DUP4 GT PUSH2 0x1CFB JUMPI DUP3 SWAP1 SUB PUSH1 0x1F AND DUP3 ADD SWAP2 JUMPDEST POP POP POP POP POP DUP2 MSTORE PUSH1 0x20 ADD PUSH1 0x2 DUP3 ADD SLOAD DUP2 MSTORE PUSH1 0x20 ADD PUSH1 0x3 DUP3 ADD DUP1 SLOAD PUSH2 0x1D3B SWAP1 PUSH2 0x45F5 JUMP JUMPDEST DUP1 PUSH1 0x1F ADD PUSH1 0x20 DUP1 SWAP2 DIV MUL PUSH1 0x20 ADD PUSH1 0x40 MLOAD SWAP1 DUP2 ADD PUSH1 0x40 MSTORE DUP1 SWAP3 SWAP2 SWAP1 DUP2 DUP2 MSTORE PUSH1 0x20 ADD DUP3 DUP1 SLOAD PUSH2 0x1D67 SWAP1 PUSH2 0x45F5 JUMP JUMPDEST DUP1 ISZERO PUSH2 0x1DB4 JUMPI DUP1 PUSH1 0x1F LT PUSH2 0x1D89 JUMPI PUSH2 0x100 DUP1 DUP4 SLOAD DIV MUL DUP4 MSTORE SWAP2 PUSH1 0x20 ADD SWAP2 PUSH2 0x1DB4 JUMP JUMPDEST DUP3 ADD SWAP2 SWAP1 PUSH1 0x0 MSTORE PUSH1 0x20 PUSH1 0x0 KECCAK256 SWAP1 JUMPDEST DUP2 SLOAD DUP2 MSTORE SWAP1 PUSH1 0x1 ADD SWAP1 PUSH1 0x20 ADD DUP1 DUP4 GT PUSH2 0x1D97 JUMPI DUP3 SWAP1 SUB PUSH1 0x1F AND DUP3 ADD SWAP2 JUMPDEST POP POP POP POP POP DUP2 MSTORE PUSH1 0x20 ADD PUSH1 0x4 DUP3 ADD DUP1 SLOAD PUSH2 0x1DCD SWAP1 PUSH2 0x45F5 JUMP JUMPDEST DUP1 PUSH1 0x1F ADD PUSH1 0x20 DUP1 SWAP2 DIV MUL PUSH1 0x20 ADD PUSH1 0x40 MLOAD SWAP1 DUP2 ADD PUSH1 0x40 MSTORE DUP1 SWAP3 SWAP2 SWAP1 DUP2 DUP2 MSTORE PUSH1 0x20 ADD DUP3 DUP1 SLOAD PUSH2 0x1DF9 SWAP1 PUSH2 0x45F5 JUMP JUMPDEST DUP1 ISZERO PUSH2 0x1E46 JUMPI DUP1 PUSH1 0x1F LT PUSH2 0x1E1B JUMPI PUSH2 0x100 DUP1 DUP4 SLOAD DIV MUL DUP4 MSTORE SWAP2 PUSH1 0x20 ADD SWAP2 PUSH2 0x1E46 JUMP JUMPDEST DUP3 ADD SWAP2 SWAP1 PUSH1 0x0 MSTORE PUSH1 0x20 PUSH1 0x0 KECCAK256 SWAP1 JUMPDEST DUP2 SLOAD DUP2 MSTORE SWAP1 PUSH1 0x1 ADD SWAP1 PUSH1 0x20 ADD DUP1 DUP4 GT PUSH2 0x1E29 JUMPI DUP3 SWAP1 SUB PUSH1 0x1F AND DUP3 ADD SWAP2 JUMPDEST POP POP POP POP POP DUP2 MSTORE POP POP SWAP2 POP DUP1 DUP1 SLOAD DUP1 PUSH1 0x20 MUL PUSH1 0x20 ADD PUSH1 0x40 MLOAD SWAP1 DUP2 ADD PUSH1 0x40 MSTORE DUP1 SWAP3 SWAP2 SWAP1 DUP2 DUP2 MSTORE PUSH1 0x20 ADD PUSH1 0x0 SWAP1 JUMPDEST DUP3 DUP3 LT ISZERO PUSH2 0x2541 JUMPI DUP4 DUP3 SWAP1 PUSH1 0x0 MSTORE PUSH1 0x20 PUSH1 0x0 KECCAK256 SWAP1 PUSH1 0xC MUL ADD PUSH1 0x40 MLOAD DUP1 PUSH2 0x180 ADD PUSH1 0x40 MSTORE SWAP1 DUP2 PUSH1 0x0 DUP3 ADD PUSH1 0x0 SWAP1 SLOAD SWAP1 PUSH2 0x100 EXP SWAP1 DIV PUSH20 0xFFFFFFFFFFFFFFFFFFFFFFFFFFFFFFFFFFFFFFFF AND PUSH20 0xFFFFFFFFFFFFFFFFFFFFFFFFFFFFFFFFFFFFFFFF AND PUSH20 0xFFFFFFFFFFFFFFFFFFFFFFFFFFFFFFFFFFFFFFFF AND DUP2 MSTORE PUSH1 0x20 ADD PUSH1 0x1 DUP3 ADD DUP1 SLOAD PUSH2 0x1EFC SWAP1 PUSH2 0x45F5 JUMP JUMPDEST DUP1 PUSH1 0x1F ADD PUSH1 0x20 DUP1 SWAP2 DIV MUL PUSH1 0x20 ADD PUSH1 0x40 MLOAD SWAP1 DUP2 ADD PUSH1 0x40 MSTORE DUP1 SWAP3 SWAP2 SWAP1 DUP2 DUP2 MSTORE PUSH1 0x20 ADD DUP3 DUP1 SLOAD PUSH2 0x1F28 SWAP1 PUSH2 0x45F5 JUMP JUMPDEST DUP1 ISZERO PUSH2 0x1F75 JUMPI DUP1 PUSH1 0x1F LT PUSH2 0x1F4A JUMPI PUSH2 0x100 DUP1 DUP4 SLOAD DIV MUL DUP4 MSTORE SWAP2 PUSH1 0x20 ADD SWAP2 PUSH2 0x1F75 JUMP JUMPDEST DUP3 ADD SWAP2 SWAP1 PUSH1 0x0 MSTORE PUSH1 0x20 PUSH1 0x0 KECCAK256 SWAP1 JUMPDEST DUP2 SLOAD DUP2 MSTORE SWAP1 PUSH1 0x1 ADD SWAP1 PUSH1 0x20 ADD DUP1 DUP4 GT PUSH2 0x1F58 JUMPI DUP3 SWAP1 SUB PUSH1 0x1F AND DUP3 ADD SWAP2 JUMPDEST POP POP POP POP POP DUP2 MSTORE PUSH1 0x20 ADD PUSH1 0x2 DUP3 ADD DUP1 SLOAD PUSH2 0x1F8E SWAP1 PUSH2 0x45F5 JUMP JUMPDEST DUP1 PUSH1 0x1F ADD PUSH1 0x20 DUP1 SWAP2 DIV MUL PUSH1 0x20 ADD PUSH1 0x40 MLOAD SWAP1 DUP2 ADD PUSH1 0x40 MSTORE DUP1 SWAP3 SWAP2 SWAP1 DUP2 DUP2 MSTORE PUSH1 0x20 ADD DUP3 DUP1 SLOAD PUSH2 0x1FBA SWAP1 PUSH2 0x45F5 JUMP JUMPDEST DUP1 ISZERO PUSH2 0x2007 JUMPI DUP1 PUSH1 0x1F LT PUSH2 0x1FDC JUMPI PUSH2 0x100 DUP1 DUP4 SLOAD DIV MUL DUP4 MSTORE SWAP2 PUSH1 0x20 ADD SWAP2 PUSH2 0x2007 JUMP JUMPDEST DUP3 ADD SWAP2 SWAP1 PUSH1 0x0 MSTORE PUSH1 0x20 PUSH1 0x0 KECCAK256 SWAP1 JUMPDEST DUP2 SLOAD DUP2 MSTORE SWAP1 PUSH1 0x1 ADD SWAP1 PUSH1 0x20 ADD DUP1 DUP4 GT PUSH2 0x1FEA JUMPI DUP3 SWAP1 SUB PUSH1 0x1F AND DUP3 ADD SWAP2 JUMPDEST POP POP POP POP POP DUP2 MSTORE PUSH1 0x20 ADD PUSH1 0x3 DUP3 ADD DUP1 SLOAD PUSH2 0x2020 SWAP1 PUSH2 0x45F5 JUMP JUMPDEST DUP1 PUSH1 0x1F ADD PUSH1 0x20 DUP1 SWAP2 DIV MUL PUSH1 0x20 ADD PUSH1 0x40 MLOAD SWAP1 DUP2 ADD PUSH1 0x40 MSTORE DUP1 SWAP3 SWAP2 SWAP1 DUP2 DUP2 MSTORE PUSH1 0x20 ADD DUP3 DUP1 SLOAD PUSH2 0x204C SWAP1 PUSH2 0x45F5 JUMP JUMPDEST DUP1 ISZERO PUSH2 0x2099 JUMPI DUP1 PUSH1 0x1F LT PUSH2 0x206E JUMPI PUSH2 0x100 DUP1 DUP4 SLOAD DIV MUL DUP4 MSTORE SWAP2 PUSH1 0x20 ADD SWAP2 PUSH2 0x2099 JUMP JUMPDEST DUP3 ADD SWAP2 SWAP1 PUSH1 0x0 MSTORE PUSH1 0x20 PUSH1 0x0 KECCAK256 SWAP1 JUMPDEST DUP2 SLOAD DUP2 MSTORE SWAP1 PUSH1 0x1 ADD SWAP1 PUSH1 0x20 ADD DUP1 DUP4 GT PUSH2 0x207C JUMPI DUP3 SWAP1 SUB PUSH1 0x1F AND DUP3 ADD SWAP2 JUMPDEST POP POP POP POP POP DUP2 MSTORE PUSH1 0x20 ADD PUSH1 0x4 DUP3 ADD DUP1 SLOAD PUSH2 0x20B2 SWAP1 PUSH2 0x45F5 JUMP JUMPDEST DUP1 PUSH1 0x1F ADD PUSH1 0x20 DUP1 SWAP2 DIV MUL PUSH1 0x20 ADD PUSH1 0x40 MLOAD SWAP1 DUP2 ADD PUSH1 0x40 MSTORE DUP1 SWAP3 SWAP2 SWAP1 DUP2 DUP2 MSTORE PUSH1 0x20 ADD DUP3 DUP1 SLOAD PUSH2 0x20DE SWAP1 PUSH2 0x45F5 JUMP JUMPDEST DUP1 ISZERO PUSH2 0x212B JUMPI DUP1 PUSH1 0x1F LT PUSH2 0x2100 JUMPI PUSH2 0x100 DUP1 DUP4 SLOAD DIV MUL DUP4 MSTORE SWAP2 PUSH1 0x20 ADD SWAP2 PUSH2 0x212B JUMP JUMPDEST DUP3 ADD SWAP2 SWAP1 PUSH1 0x0 MSTORE PUSH1 0x20 PUSH1 0x0 KECCAK256 SWAP1 JUMPDEST DUP2 SLOAD DUP2 MSTORE SWAP1 PUSH1 0x1 ADD SWAP1 PUSH1 0x20 ADD DUP1 DUP4 GT PUSH2 0x210E JUMPI DUP3 SWAP1 SUB PUSH1 0x1F AND DUP3 ADD SWAP2 JUMPDEST POP POP POP POP POP DUP2 MSTORE PUSH1 0x20 ADD PUSH1 0x5 DUP3 ADD DUP1 SLOAD PUSH2 0x2144 SWAP1 PUSH2 0x45F5 JUMP JUMPDEST DUP1 PUSH1 0x1F ADD PUSH1 0x20 DUP1 SWAP2 DIV MUL PUSH1 0x20 ADD PUSH1 0x40 MLOAD SWAP1 DUP2 ADD PUSH1 0x40 MSTORE DUP1 SWAP3 SWAP2 SWAP1 DUP2 DUP2 MSTORE PUSH1 0x20 ADD DUP3 DUP1 SLOAD PUSH2 0x2170 SWAP1 PUSH2 0x45F5 JUMP JUMPDEST DUP1 ISZERO PUSH2 0x21BD JUMPI DUP1 PUSH1 0x1F LT PUSH2 0x2192 JUMPI PUSH2 0x100 DUP1 DUP4 SLOAD DIV MUL DUP4 MSTORE SWAP2 PUSH1 0x20 ADD SWAP2 PUSH2 0x21BD JUMP JUMPDEST DUP3 ADD SWAP2 SWAP1 PUSH1 0x0 MSTORE PUSH1 0x20 PUSH1 0x0 KECCAK256 SWAP1 JUMPDEST DUP2 SLOAD DUP2 MSTORE SWAP1 PUSH1 0x1 ADD SWAP1 PUSH1 0x20 ADD DUP1 DUP4 GT PUSH2 0x21A0 JUMPI DUP3 SWAP1 SUB PUSH1 0x1F AND DUP3 ADD SWAP2 JUMPDEST POP POP POP POP POP DUP2 MSTORE PUSH1 0x20 ADD PUSH1 0x6 DUP3 ADD DUP1 SLOAD PUSH2 0x21D6 SWAP1 PUSH2 0x45F5 JUMP JUMPDEST DUP1 PUSH1 0x1F ADD PUSH1 0x20 DUP1 SWAP2 DIV MUL PUSH1 0x20 ADD PUSH1 0x40 MLOAD SWAP1 DUP2 ADD PUSH1 0x40 MSTORE DUP1 SWAP3 SWAP2 SWAP1 DUP2 DUP2 MSTORE PUSH1 0x20 ADD DUP3 DUP1 SLOAD PUSH2 0x2202 SWAP1 PUSH2 0x45F5 JUMP JUMPDEST DUP1 ISZERO PUSH2 0x224F JUMPI DUP1 PUSH1 0x1F LT PUSH2 0x2224 JUMPI PUSH2 0x100 DUP1 DUP4 SLOAD DIV MUL DUP4 MSTORE SWAP2 PUSH1 0x20 ADD SWAP2 PUSH2 0x224F JUMP JUMPDEST DUP3 ADD SWAP2 SWAP1 PUSH1 0x0 MSTORE PUSH1 0x20 PUSH1 0x0 KECCAK256 SWAP1 JUMPDEST DUP2 SLOAD DUP2 MSTORE SWAP1 PUSH1 0x1 ADD SWAP1 PUSH1 0x20 ADD DUP1 DUP4 GT PUSH2 0x2232 JUMPI DUP3 SWAP1 SUB PUSH1 0x1F AND DUP3 ADD SWAP2 JUMPDEST POP POP POP POP POP DUP2 MSTORE PUSH1 0x20 ADD PUSH1 0x7 DUP3 ADD DUP1 SLOAD PUSH2 0x2268 SWAP1 PUSH2 0x45F5 JUMP JUMPDEST DUP1 PUSH1 0x1F ADD PUSH1 0x20 DUP1 SWAP2 DIV MUL PUSH1 0x20 ADD PUSH1 0x40 MLOAD SWAP1 DUP2 ADD PUSH1 0x40 MSTORE DUP1 SWAP3 SWAP2 SWAP1 DUP2 DUP2 MSTORE PUSH1 0x20 ADD DUP3 DUP1 SLOAD PUSH2 0x2294 SWAP1 PUSH2 0x45F5 JUMP JUMPDEST DUP1 ISZERO PUSH2 0x22E1 JUMPI DUP1 PUSH1 0x1F LT PUSH2 0x22B6 JUMPI PUSH2 0x100 DUP1 DUP4 SLOAD DIV MUL DUP4 MSTORE SWAP2 PUSH1 0x20 ADD SWAP2 PUSH2 0x22E1 JUMP JUMPDEST DUP3 ADD SWAP2 SWAP1 PUSH1 0x0 MSTORE PUSH1 0x20 PUSH1 0x0 KECCAK256 SWAP1 JUMPDEST DUP2 SLOAD DUP2 MSTORE SWAP1 PUSH1 0x1 ADD SWAP1 PUSH1 0x20 ADD DUP1 DUP4 GT PUSH2 0x22C4 JUMPI DUP3 SWAP1 SUB PUSH1 0x1F AND DUP3 ADD SWAP2 JUMPDEST POP POP POP POP POP DUP2 MSTORE PUSH1 0x20 ADD PUSH1 0x8 DUP3 ADD DUP1 SLOAD PUSH2 0x22FA SWAP1 PUSH2 0x45F5 JUMP JUMPDEST DUP1 PUSH1 0x1F ADD PUSH1 0x20 DUP1 SWAP2 DIV MUL PUSH1 0x20 ADD PUSH1 0x40 MLOAD SWAP1 DUP2 ADD PUSH1 0x40 MSTORE DUP1 SWAP3 SWAP2 SWAP1 DUP2 DUP2 MSTORE PUSH1 0x20 ADD DUP3 DUP1 SLOAD PUSH2 0x2326 SWAP1 PUSH2 0x45F5 JUMP JUMPDEST DUP1 ISZERO PUSH2 0x2373 JUMPI DUP1 PUSH1 0x1F LT PUSH2 0x2348 JUMPI PUSH2 0x100 DUP1 DUP4 SLOAD DIV MUL DUP4 MSTORE SWAP2 PUSH1 0x20 ADD SWAP2 PUSH2 0x2373 JUMP JUMPDEST DUP3 ADD SWAP2 SWAP1 PUSH1 0x0 MSTORE PUSH1 0x20 PUSH1 0x0 KECCAK256 SWAP1 JUMPDEST DUP2 SLOAD DUP2 MSTORE SWAP1 PUSH1 0x1 ADD SWAP1 PUSH1 0x20 ADD DUP1 DUP4 GT PUSH2 0x2356 JUMPI DUP3 SWAP1 SUB PUSH1 0x1F AND DUP3 ADD SWAP2 JUMPDEST POP POP POP POP POP DUP2 MSTORE PUSH1 0x20 ADD PUSH1 0x9 DUP3 ADD DUP1 SLOAD PUSH2 0x238C SWAP1 PUSH2 0x45F5 JUMP JUMPDEST DUP1 PUSH1 0x1F ADD PUSH1 0x20 DUP1 SWAP2 DIV MUL PUSH1 0x20 ADD PUSH1 0x40 MLOAD SWAP1 DUP2 ADD PUSH1 0x40 MSTORE DUP1 SWAP3 SWAP2 SWAP1 DUP2 DUP2 MSTORE PUSH1 0x20 ADD DUP3 DUP1 SLOAD PUSH2 0x23B8 SWAP1 PUSH2 0x45F5 JUMP JUMPDEST DUP1 ISZERO PUSH2 0x2405 JUMPI DUP1 PUSH1 0x1F LT PUSH2 0x23DA JUMPI PUSH2 0x100 DUP1 DUP4 SLOAD DIV MUL DUP4 MSTORE SWAP2 PUSH1 0x20 ADD SWAP2 PUSH2 0x2405 JUMP JUMPDEST DUP3 ADD SWAP2 SWAP1 PUSH1 0x0 MSTORE PUSH1 0x20 PUSH1 0x0 KECCAK256 SWAP1 JUMPDEST DUP2 SLOAD DUP2 MSTORE SWAP1 PUSH1 0x1 ADD SWAP1 PUSH1 0x20 ADD DUP1 DUP4 GT PUSH2 0x23E8 JUMPI DUP3 SWAP1 SUB PUSH1 0x1F AND DUP3 ADD SWAP2 JUMPDEST POP POP POP POP POP DUP2 MSTORE PUSH1 0x20 ADD PUSH1 0xA DUP3 ADD DUP1 SLOAD PUSH2 0x241E SWAP1 PUSH2 0x45F5 JUMP JUMPDEST DUP1 PUSH1 0x1F ADD PUSH1 0x20 DUP1 SWAP2 DIV MUL PUSH1 0x20 ADD PUSH1 0x40 MLOAD SWAP1 DUP2 ADD PUSH1 0x40 MSTORE DUP1 SWAP3 SWAP2 SWAP1 DUP2 DUP2 MSTORE PUSH1 0x20 ADD DUP3 DUP1 SLOAD PUSH2 0x244A SWAP1 PUSH2 0x45F5 JUMP JUMPDEST DUP1 ISZERO PUSH2 0x2497 JUMPI DUP1 PUSH1 0x1F LT PUSH2 0x246C JUMPI PUSH2 0x100 DUP1 DUP4 SLOAD DIV MUL DUP4 MSTORE SWAP2 PUSH1 0x20 ADD SWAP2 PUSH2 0x2497 JUMP JUMPDEST DUP3 ADD SWAP2 SWAP1 PUSH1 0x0 MSTORE PUSH1 0x20 PUSH1 0x0 KECCAK256 SWAP1 JUMPDEST DUP2 SLOAD DUP2 MSTORE SWAP1 PUSH1 0x1 ADD SWAP1 PUSH1 0x20 ADD DUP1 DUP4 GT PUSH2 0x247A JUMPI DUP3 SWAP1 SUB PUSH1 0x1F AND DUP3 ADD SWAP2 JUMPDEST POP POP POP POP POP DUP2 MSTORE PUSH1 0x20 ADD PUSH1 0xB DUP3 ADD DUP1 SLOAD PUSH2 0x24B0 SWAP1 PUSH2 0x45F5 JUMP JUMPDEST DUP1 PUSH1 0x1F ADD PUSH1 0x20 DUP1 SWAP2 DIV MUL PUSH1 0x20 ADD PUSH1 0x40 MLOAD SWAP1 DUP2 ADD PUSH1 0x40 MSTORE DUP1 SWAP3 SWAP2 SWAP1 DUP2 DUP2 MSTORE PUSH1 0x20 ADD DUP3 DUP1 SLOAD PUSH2 0x24DC SWAP1 PUSH2 0x45F5 JUMP JUMPDEST DUP1 ISZERO PUSH2 0x2529 JUMPI DUP1 PUSH1 0x1F LT PUSH2 0x24FE JUMPI PUSH2 0x100 DUP1 DUP4 SLOAD DIV MUL DUP4 MSTORE SWAP2 PUSH1 0x20 ADD SWAP2 PUSH2 0x2529 JUMP JUMPDEST DUP3 ADD SWAP2 SWAP1 PUSH1 0x0 MSTORE PUSH1 0x20 PUSH1 0x0 KECCAK256 SWAP1 JUMPDEST DUP2 SLOAD DUP2 MSTORE SWAP1 PUSH1 0x1 ADD SWAP1 PUSH1 0x20 ADD DUP1 DUP4 GT PUSH2 0x250C JUMPI DUP3 SWAP1 SUB PUSH1 0x1F AND DUP3 ADD SWAP2 JUMPDEST POP POP POP POP POP DUP2 MSTORE POP POP DUP2 MSTORE PUSH1 0x20 ADD SWAP1 PUSH1 0x1 ADD SWAP1 PUSH2 0x1E72 JUMP JUMPDEST POP POP POP POP SWAP1 POP SWAP2 POP SWAP2 POP SWAP2 POP SWAP2 JUMP JUMPDEST PUSH2 0x2558 PUSH2 0x300A JUMP JUMPDEST PUSH1 0x60 PUSH1 0x0 DUP1 DUP5 PUSH20 0xFFFFFFFFFFFFFFFFFFFFFFFFFFFFFFFFFFFFFFFF AND PUSH20 0xFFFFFFFFFFFFFFFFFFFFFFFFFFFFFFFFFFFFFFFF AND DUP2 MSTORE PUSH1 0x20 ADD SWAP1 DUP2 MSTORE PUSH1 0x20 ADD PUSH1 0x0 KECCAK256 PUSH1 0x3 PUSH1 0x0 DUP6 PUSH20 0xFFFFFFFFFFFFFFFFFFFFFFFFFFFFFFFFFFFFFFFF AND PUSH20 0xFFFFFFFFFFFFFFFFFFFFFFFFFFFFFFFFFFFFFFFF AND DUP2 MSTORE PUSH1 0x20 ADD SWAP1 DUP2 MSTORE PUSH1 0x20 ADD PUSH1 0x0 KECCAK256 DUP2 PUSH1 0x40 MLOAD DUP1 PUSH1 0xA0 ADD PUSH1 0x40 MSTORE SWAP1 DUP2 PUSH1 0x0 DUP3 ADD PUSH1 0x0 SWAP1 SLOAD SWAP1 PUSH2 0x100 EXP SWAP1 DIV PUSH20 0xFFFFFFFFFFFFFFFFFFFFFFFFFFFFFFFFFFFFFFFF AND PUSH20 0xFFFFFFFFFFFFFFFFFFFFFFFFFFFFFFFFFFFFFFFF AND PUSH20 0xFFFFFFFFFFFFFFFFFFFFFFFFFFFFFFFFFFFFFFFF AND DUP2 MSTORE PUSH1 0x20 ADD PUSH1 0x1 DUP3 ADD DUP1 SLOAD PUSH2 0x2649 SWAP1 PUSH2 0x45F5 JUMP JUMPDEST DUP1 PUSH1 0x1F ADD PUSH1 0x20 DUP1 SWAP2 DIV MUL PUSH1 0x20 ADD PUSH1 0x40 MLOAD SWAP1 DUP2 ADD PUSH1 0x40 MSTORE DUP1 SWAP3 SWAP2 SWAP1 DUP2 DUP2 MSTORE PUSH1 0x20 ADD DUP3 DUP1 SLOAD PUSH2 0x2675 SWAP1 PUSH2 0x45F5 JUMP JUMPDEST DUP1 ISZERO PUSH2 0x26C2 JUMPI DUP1 PUSH1 0x1F LT PUSH2 0x2697 JUMPI PUSH2 0x100 DUP1 DUP4 SLOAD DIV MUL DUP4 MSTORE SWAP2 PUSH1 0x20 ADD SWAP2 PUSH2 0x26C2 JUMP JUMPDEST DUP3 ADD SWAP2 SWAP1 PUSH1 0x0 MSTORE PUSH1 0x20 PUSH1 0x0 KECCAK256 SWAP1 JUMPDEST DUP2 SLOAD DUP2 MSTORE SWAP1 PUSH1 0x1 ADD SWAP1 PUSH1 0x20 ADD DUP1 DUP4 GT PUSH2 0x26A5 JUMPI DUP3 SWAP1 SUB PUSH1 0x1F AND DUP3 ADD SWAP2 JUMPDEST POP POP POP POP POP DUP2 MSTORE PUSH1 0x20 ADD PUSH1 0x2 DUP3 ADD SLOAD DUP2 MSTORE PUSH1 0x20 ADD PUSH1 0x3 DUP3 ADD DUP1 SLOAD PUSH2 0x26E5 SWAP1 PUSH2 0x45F5 JUMP JUMPDEST DUP1 PUSH1 0x1F ADD PUSH1 0x20 DUP1 SWAP2 DIV MUL PUSH1 0x20 ADD PUSH1 0x40 MLOAD SWAP1 DUP2 ADD PUSH1 0x40 MSTORE DUP1 SWAP3 SWAP2 SWAP1 DUP2 DUP2 MSTORE PUSH1 0x20 ADD DUP3 DUP1 SLOAD PUSH2 0x2711 SWAP1 PUSH2 0x45F5 JUMP JUMPDEST DUP1 ISZERO PUSH2 0x275E JUMPI DUP1 PUSH1 0x1F LT PUSH2 0x2733 JUMPI PUSH2 0x100 DUP1 DUP4 SLOAD DIV MUL DUP4 MSTORE SWAP2 PUSH1 0x20 ADD SWAP2 PUSH2 0x275E JUMP JUMPDEST DUP3 ADD SWAP2 SWAP1 PUSH1 0x0 MSTORE PUSH1 0x20 PUSH1 0x0 KECCAK256 SWAP1 JUMPDEST DUP2 SLOAD DUP2 MSTORE SWAP1 PUSH1 0x1 ADD SWAP1 PUSH1 0x20 ADD DUP1 DUP4 GT PUSH2 0x2741 JUMPI DUP3 SWAP1 SUB PUSH1 0x1F AND DUP3 ADD SWAP2 JUMPDEST POP POP POP POP POP DUP2 MSTORE PUSH1 0x20 ADD PUSH1 0x4 DUP3 ADD DUP1 SLOAD PUSH2 0x2777 SWAP1 PUSH2 0x45F5 JUMP JUMPDEST DUP1 PUSH1 0x1F ADD PUSH1 0x20 DUP1 SWAP2 DIV MUL PUSH1 0x20 ADD PUSH1 0x40 MLOAD SWAP1 DUP2 ADD PUSH1 0x40 MSTORE DUP1 SWAP3 SWAP2 SWAP1 DUP2 DUP2 MSTORE PUSH1 0x20 ADD DUP3 DUP1 SLOAD PUSH2 0x27A3 SWAP1 PUSH2 0x45F5 JUMP JUMPDEST DUP1 ISZERO PUSH2 0x27F0 JUMPI DUP1 PUSH1 0x1F LT PUSH2 0x27C5 JUMPI PUSH2 0x100 DUP1 DUP4 SLOAD DIV MUL DUP4 MSTORE SWAP2 PUSH1 0x20 ADD SWAP2 PUSH2 0x27F0 JUMP JUMPDEST DUP3 ADD SWAP2 SWAP1 PUSH1 0x0 MSTORE PUSH1 0x20 PUSH1 0x0 KECCAK256 SWAP1 JUMPDEST DUP2 SLOAD DUP2 MSTORE SWAP1 PUSH1 0x1 ADD SWAP1 PUSH1 0x20 ADD DUP1 DUP4 GT PUSH2 0x27D3 JUMPI DUP3 SWAP1 SUB PUSH1 0x1F AND DUP3 ADD SWAP2 JUMPDEST POP POP POP POP POP DUP2 MSTORE POP POP SWAP2 POP DUP1 DUP1 SLOAD DUP1 PUSH1 0x20 MUL PUSH1 0x20 ADD PUSH1 0x40 MLOAD SWAP1 DUP2 ADD PUSH1 0x40 MSTORE DUP1 SWAP3 SWAP2 SWAP1 DUP2 DUP2 MSTORE PUSH1 0x20 ADD PUSH1 0x0 SWAP1 JUMPDEST DUP3 DUP3 LT ISZERO PUSH2 0x2F5C JUMPI DUP4 DUP3 SWAP1 PUSH1 0x0 MSTORE PUSH1 0x20 PUSH1 0x0 KECCAK256 SWAP1 PUSH1 0xE MUL ADD PUSH1 0x40 MLOAD DUP1 PUSH2 0x1C0 ADD PUSH1 0x40 MSTORE SWAP1 DUP2 PUSH1 0x0 DUP3 ADD PUSH1 0x0 SWAP1 SLOAD SWAP1 PUSH2 0x100 EXP SWAP1 DIV PUSH20 0xFFFFFFFFFFFFFFFFFFFFFFFFFFFFFFFFFFFFFFFF AND PUSH20 0xFFFFFFFFFFFFFFFFFFFFFFFFFFFFFFFFFFFFFFFF AND PUSH20 0xFFFFFFFFFFFFFFFFFFFFFFFFFFFFFFFFFFFFFFFF AND DUP2 MSTORE PUSH1 0x20 ADD PUSH1 0x1 DUP3 ADD DUP1 SLOAD PUSH2 0x28A6 SWAP1 PUSH2 0x45F5 JUMP JUMPDEST DUP1 PUSH1 0x1F ADD PUSH1 0x20 DUP1 SWAP2 DIV MUL PUSH1 0x20 ADD PUSH1 0x40 MLOAD SWAP1 DUP2 ADD PUSH1 0x40 MSTORE DUP1 SWAP3 SWAP2 SWAP1 DUP2 DUP2 MSTORE PUSH1 0x20 ADD DUP3 DUP1 SLOAD PUSH2 0x28D2 SWAP1 PUSH2 0x45F5 JUMP JUMPDEST DUP1 ISZERO PUSH2 0x291F JUMPI DUP1 PUSH1 0x1F LT PUSH2 0x28F4 JUMPI PUSH2 0x100 DUP1 DUP4 SLOAD DIV MUL DUP4 MSTORE SWAP2 PUSH1 0x20 ADD SWAP2 PUSH2 0x291F JUMP JUMPDEST DUP3 ADD SWAP2 SWAP1 PUSH1 0x0 MSTORE PUSH1 0x20 PUSH1 0x0 KECCAK256 SWAP1 JUMPDEST DUP2 SLOAD DUP2 MSTORE SWAP1 PUSH1 0x1 ADD SWAP1 PUSH1 0x20 ADD DUP1 DUP4 GT PUSH2 0x2902 JUMPI DUP3 SWAP1 SUB PUSH1 0x1F AND DUP3 ADD SWAP2 JUMPDEST POP POP POP POP POP DUP2 MSTORE PUSH1 0x20 ADD PUSH1 0x2 DUP3 ADD DUP1 SLOAD PUSH2 0x2938 SWAP1 PUSH2 0x45F5 JUMP JUMPDEST DUP1 PUSH1 0x1F ADD PUSH1 0x20 DUP1 SWAP2 DIV MUL PUSH1 0x20 ADD PUSH1 0x40 MLOAD SWAP1 DUP2 ADD PUSH1 0x40 MSTORE DUP1 SWAP3 SWAP2 SWAP1 DUP2 DUP2 MSTORE PUSH1 0x20 ADD DUP3 DUP1 SLOAD PUSH2 0x2964 SWAP1 PUSH2 0x45F5 JUMP JUMPDEST DUP1 ISZERO PUSH2 0x29B1 JUMPI DUP1 PUSH1 0x1F LT PUSH2 0x2986 JUMPI PUSH2 0x100 DUP1 DUP4 SLOAD DIV MUL DUP4 MSTORE SWAP2 PUSH1 0x20 ADD SWAP2 PUSH2 0x29B1 JUMP JUMPDEST DUP3 ADD SWAP2 SWAP1 PUSH1 0x0 MSTORE PUSH1 0x20 PUSH1 0x0 KECCAK256 SWAP1 JUMPDEST DUP2 SLOAD DUP2 MSTORE SWAP1 PUSH1 0x1 ADD SWAP1 PUSH1 0x20 ADD DUP1 DUP4 GT PUSH2 0x2994 JUMPI DUP3 SWAP1 SUB PUSH1 0x1F AND DUP3 ADD SWAP2 JUMPDEST POP POP POP POP POP DUP2 MSTORE PUSH1 0x20 ADD PUSH1 0x3 DUP3 ADD DUP1 SLOAD PUSH2 0x29CA SWAP1 PUSH2 0x45F5 JUMP JUMPDEST DUP1 PUSH1 0x1F ADD PUSH1 0x20 DUP1 SWAP2 DIV MUL PUSH1 0x20 ADD PUSH1 0x40 MLOAD SWAP1 DUP2 ADD PUSH1 0x40 MSTORE DUP1 SWAP3 SWAP2 SWAP1 DUP2 DUP2 MSTORE PUSH1 0x20 ADD DUP3 DUP1 SLOAD PUSH2 0x29F6 SWAP1 PUSH2 0x45F5 JUMP JUMPDEST DUP1 ISZERO PUSH2 0x2A43 JUMPI DUP1 PUSH1 0x1F LT PUSH2 0x2A18 JUMPI PUSH2 0x100 DUP1 DUP4 SLOAD DIV MUL DUP4 MSTORE SWAP2 PUSH1 0x20 ADD SWAP2 PUSH2 0x2A43 JUMP JUMPDEST DUP3 ADD SWAP2 SWAP1 PUSH1 0x0 MSTORE PUSH1 0x20 PUSH1 0x0 KECCAK256 SWAP1 JUMPDEST DUP2 SLOAD DUP2 MSTORE SWAP1 PUSH1 0x1 ADD SWAP1 PUSH1 0x20 ADD DUP1 DUP4 GT PUSH2 0x2A26 JUMPI DUP3 SWAP1 SUB PUSH1 0x1F AND DUP3 ADD SWAP2 JUMPDEST POP POP POP POP POP DUP2 MSTORE PUSH1 0x20 ADD PUSH1 0x4 DUP3 ADD DUP1 SLOAD PUSH2 0x2A5C SWAP1 PUSH2 0x45F5 JUMP JUMPDEST DUP1 PUSH1 0x1F ADD PUSH1 0x20 DUP1 SWAP2 DIV MUL PUSH1 0x20 ADD PUSH1 0x40 MLOAD SWAP1 DUP2 ADD PUSH1 0x40 MSTORE DUP1 SWAP3 SWAP2 SWAP1 DUP2 DUP2 MSTORE PUSH1 0x20 ADD DUP3 DUP1 SLOAD PUSH2 0x2A88 SWAP1 PUSH2 0x45F5 JUMP JUMPDEST DUP1 ISZERO PUSH2 0x2AD5 JUMPI DUP1 PUSH1 0x1F LT PUSH2 0x2AAA JUMPI PUSH2 0x100 DUP1 DUP4 SLOAD DIV MUL DUP4 MSTORE SWAP2 PUSH1 0x20 ADD SWAP2 PUSH2 0x2AD5 JUMP JUMPDEST DUP3 ADD SWAP2 SWAP1 PUSH1 0x0 MSTORE PUSH1 0x20 PUSH1 0x0 KECCAK256 SWAP1 JUMPDEST DUP2 SLOAD DUP2 MSTORE SWAP1 PUSH1 0x1 ADD SWAP1 PUSH1 0x20 ADD DUP1 DUP4 GT PUSH2 0x2AB8 JUMPI DUP3 SWAP1 SUB PUSH1 0x1F AND DUP3 ADD SWAP2 JUMPDEST POP POP POP POP POP DUP2 MSTORE PUSH1 0x20 ADD PUSH1 0x5 DUP3 ADD DUP1 SLOAD PUSH2 0x2AEE SWAP1 PUSH2 0x45F5 JUMP JUMPDEST DUP1 PUSH1 0x1F ADD PUSH1 0x20 DUP1 SWAP2 DIV MUL PUSH1 0x20 ADD PUSH1 0x40 MLOAD SWAP1 DUP2 ADD PUSH1 0x40 MSTORE DUP1 SWAP3 SWAP2 SWAP1 DUP2 DUP2 MSTORE PUSH1 0x20 ADD DUP3 DUP1 SLOAD PUSH2 0x2B1A SWAP1 PUSH2 0x45F5 JUMP JUMPDEST DUP1 ISZERO PUSH2 0x2B67 JUMPI DUP1 PUSH1 0x1F LT PUSH2 0x2B3C JUMPI PUSH2 0x100 DUP1 DUP4 SLOAD DIV MUL DUP4 MSTORE SWAP2 PUSH1 0x20 ADD SWAP2 PUSH2 0x2B67 JUMP JUMPDEST DUP3 ADD SWAP2 SWAP1 PUSH1 0x0 MSTORE PUSH1 0x20 PUSH1 0x0 KECCAK256 SWAP1 JUMPDEST DUP2 SLOAD DUP2 MSTORE SWAP1 PUSH1 0x1 ADD SWAP1 PUSH1 0x20 ADD DUP1 DUP4 GT PUSH2 0x2B4A JUMPI DUP3 SWAP1 SUB PUSH1 0x1F AND DUP3 ADD SWAP2 JUMPDEST POP POP POP POP POP DUP2 MSTORE PUSH1 0x20 ADD PUSH1 0x6 DUP3 ADD DUP1 SLOAD PUSH2 0x2B80 SWAP1 PUSH2 0x45F5 JUMP JUMPDEST DUP1 PUSH1 0x1F ADD PUSH1 0x20 DUP1 SWAP2 DIV MUL PUSH1 0x20 ADD PUSH1 0x40 MLOAD SWAP1 DUP2 ADD PUSH1 0x40 MSTORE DUP1 SWAP3 SWAP2 SWAP1 DUP2 DUP2 MSTORE PUSH1 0x20 ADD DUP3 DUP1 SLOAD PUSH2 0x2BAC SWAP1 PUSH2 0x45F5 JUMP JUMPDEST DUP1 ISZERO PUSH2 0x2BF9 JUMPI DUP1 PUSH1 0x1F LT PUSH2 0x2BCE JUMPI PUSH2 0x100 DUP1 DUP4 SLOAD DIV MUL DUP4 MSTORE SWAP2 PUSH1 0x20 ADD SWAP2 PUSH2 0x2BF9 JUMP JUMPDEST DUP3 ADD SWAP2 SWAP1 PUSH1 0x0 MSTORE PUSH1 0x20 PUSH1 0x0 KECCAK256 SWAP1 JUMPDEST DUP2 SLOAD DUP2 MSTORE SWAP1 PUSH1 0x1 ADD SWAP1 PUSH1 0x20 ADD DUP1 DUP4 GT PUSH2 0x2BDC JUMPI DUP3 SWAP1 SUB PUSH1 0x1F AND DUP3 ADD SWAP2 JUMPDEST POP POP POP POP POP DUP2 MSTORE PUSH1 0x20 ADD PUSH1 0x7 DUP3 ADD DUP1 SLOAD PUSH2 0x2C12 SWAP1 PUSH2 0x45F5 JUMP JUMPDEST DUP1 PUSH1 0x1F ADD PUSH1 0x20 DUP1 SWAP2 DIV MUL PUSH1 0x20 ADD PUSH1 0x40 MLOAD SWAP1 DUP2 ADD PUSH1 0x40 MSTORE DUP1 SWAP3 SWAP2 SWAP1 DUP2 DUP2 MSTORE PUSH1 0x20 ADD DUP3 DUP1 SLOAD PUSH2 0x2C3E SWAP1 PUSH2 0x45F5 JUMP JUMPDEST DUP1 ISZERO PUSH2 0x2C8B JUMPI DUP1 PUSH1 0x1F LT PUSH2 0x2C60 JUMPI PUSH2 0x100 DUP1 DUP4 SLOAD DIV MUL DUP4 MSTORE SWAP2 PUSH1 0x20 ADD SWAP2 PUSH2 0x2C8B JUMP JUMPDEST DUP3 ADD SWAP2 SWAP1 PUSH1 0x0 MSTORE PUSH1 0x20 PUSH1 0x0 KECCAK256 SWAP1 JUMPDEST DUP2 SLOAD DUP2 MSTORE SWAP1 PUSH1 0x1 ADD SWAP1 PUSH1 0x20 ADD DUP1 DUP4 GT PUSH2 0x2C6E JUMPI DUP3 SWAP1 SUB PUSH1 0x1F AND DUP3 ADD SWAP2 JUMPDEST POP POP POP POP POP DUP2 MSTORE PUSH1 0x20 ADD PUSH1 0x8 DUP3 ADD DUP1 SLOAD PUSH2 0x2CA4 SWAP1 PUSH2 0x45F5 JUMP JUMPDEST DUP1 PUSH1 0x1F ADD PUSH1 0x20 DUP1 SWAP2 DIV MUL PUSH1 0x20 ADD PUSH1 0x40 MLOAD SWAP1 DUP2 ADD PUSH1 0x40 MSTORE DUP1 SWAP3 SWAP2 SWAP1 DUP2 DUP2 MSTORE PUSH1 0x20 ADD DUP3 DUP1 SLOAD PUSH2 0x2CD0 SWAP1 PUSH2 0x45F5 JUMP JUMPDEST DUP1 ISZERO PUSH2 0x2D1D JUMPI DUP1 PUSH1 0x1F LT PUSH2 0x2CF2 JUMPI PUSH2 0x100 DUP1 DUP4 SLOAD DIV MUL DUP4 MSTORE SWAP2 PUSH1 0x20 ADD SWAP2 PUSH2 0x2D1D JUMP JUMPDEST DUP3 ADD SWAP2 SWAP1 PUSH1 0x0 MSTORE PUSH1 0x20 PUSH1 0x0 KECCAK256 SWAP1 JUMPDEST DUP2 SLOAD DUP2 MSTORE SWAP1 PUSH1 0x1 ADD SWAP1 PUSH1 0x20 ADD DUP1 DUP4 GT PUSH2 0x2D00 JUMPI DUP3 SWAP1 SUB PUSH1 0x1F AND DUP3 ADD SWAP2 JUMPDEST POP POP POP POP POP DUP2 MSTORE PUSH1 0x20 ADD PUSH1 0x9 DUP3 ADD PUSH1 0x0 SWAP1 SLOAD SWAP1 PUSH2 0x100 EXP SWAP1 DIV PUSH1 0xFF AND ISZERO ISZERO ISZERO ISZERO DUP2 MSTORE PUSH1 0x20 ADD PUSH1 0xA DUP3 ADD DUP1 SLOAD PUSH2 0x2D51 SWAP1 PUSH2 0x45F5 JUMP JUMPDEST DUP1 PUSH1 0x1F ADD PUSH1 0x20 DUP1 SWAP2 DIV MUL PUSH1 0x20 ADD PUSH1 0x40 MLOAD SWAP1 DUP2 ADD PUSH1 0x40 MSTORE DUP1 SWAP3 SWAP2 SWAP1 DUP2 DUP2 MSTORE PUSH1 0x20 ADD DUP3 DUP1 SLOAD PUSH2 0x2D7D SWAP1 PUSH2 0x45F5 JUMP JUMPDEST DUP1 ISZERO PUSH2 0x2DCA JUMPI DUP1 PUSH1 0x1F LT PUSH2 0x2D9F JUMPI PUSH2 0x100 DUP1 DUP4 SLOAD DIV MUL DUP4 MSTORE SWAP2 PUSH1 0x20 ADD SWAP2 PUSH2 0x2DCA JUMP JUMPDEST DUP3 ADD SWAP2 SWAP1 PUSH1 0x0 MSTORE PUSH1 0x20 PUSH1 0x0 KECCAK256 SWAP1 JUMPDEST DUP2 SLOAD DUP2 MSTORE SWAP1 PUSH1 0x1 ADD SWAP1 PUSH1 0x20 ADD DUP1 DUP4 GT PUSH2 0x2DAD JUMPI DUP3 SWAP1 SUB PUSH1 0x1F AND DUP3 ADD SWAP2 JUMPDEST POP POP POP POP POP DUP2 MSTORE PUSH1 0x20 ADD PUSH1 0xB DUP3 ADD DUP1 SLOAD PUSH2 0x2DE3 SWAP1 PUSH2 0x45F5 JUMP JUMPDEST DUP1 PUSH1 0x1F ADD PUSH1 0x20 DUP1 SWAP2 DIV MUL PUSH1 0x20 ADD PUSH1 0x40 MLOAD SWAP1 DUP2 ADD PUSH1 0x40 MSTORE DUP1 SWAP3 SWAP2 SWAP1 DUP2 DUP2 MSTORE PUSH1 0x20 ADD DUP3 DUP1 SLOAD PUSH2 0x2E0F SWAP1 PUSH2 0x45F5 JUMP JUMPDEST DUP1 ISZERO PUSH2 0x2E5C JUMPI DUP1 PUSH1 0x1F LT PUSH2 0x2E31 JUMPI PUSH2 0x100 DUP1 DUP4 SLOAD DIV MUL DUP4 MSTORE SWAP2 PUSH1 0x20 ADD SWAP2 PUSH2 0x2E5C JUMP JUMPDEST DUP3 ADD SWAP2 SWAP1 PUSH1 0x0 MSTORE PUSH1 0x20 PUSH1 0x0 KECCAK256 SWAP1 JUMPDEST DUP2 SLOAD DUP2 MSTORE SWAP1 PUSH1 0x1 ADD SWAP1 PUSH1 0x20 ADD DUP1 DUP4 GT PUSH2 0x2E3F JUMPI DUP3 SWAP1 SUB PUSH1 0x1F AND DUP3 ADD SWAP2 JUMPDEST POP POP POP POP POP DUP2 MSTORE PUSH1 0x20 ADD PUSH1 0xC DUP3 ADD PUSH1 0x0 SWAP1 SLOAD SWAP1 PUSH2 0x100 EXP SWAP1 DIV PUSH20 0xFFFFFFFFFFFFFFFFFFFFFFFFFFFFFFFFFFFFFFFF AND PUSH20 0xFFFFFFFFFFFFFFFFFFFFFFFFFFFFFFFFFFFFFFFF AND PUSH20 0xFFFFFFFFFFFFFFFFFFFFFFFFFFFFFFFFFFFFFFFF AND DUP2 MSTORE PUSH1 0x20 ADD PUSH1 0xD DUP3 ADD DUP1 SLOAD PUSH2 0x2ECB SWAP1 PUSH2 0x45F5 JUMP JUMPDEST DUP1 PUSH1 0x1F ADD PUSH1 0x20 DUP1 SWAP2 DIV MUL PUSH1 0x20 ADD PUSH1 0x40 MLOAD SWAP1 DUP2 ADD PUSH1 0x40 MSTORE DUP1 SWAP3 SWAP2 SWAP1 DUP2 DUP2 MSTORE PUSH1 0x20 ADD DUP3 DUP1 SLOAD PUSH2 0x2EF7 SWAP1 PUSH2 0x45F5 JUMP JUMPDEST DUP1 ISZERO PUSH2 0x2F44 JUMPI DUP1 PUSH1 0x1F LT PUSH2 0x2F19 JUMPI PUSH2 0x100 DUP1 DUP4 SLOAD DIV MUL DUP4 MSTORE SWAP2 PUSH1 0x20 ADD SWAP2 PUSH2 0x2F44 JUMP JUMPDEST DUP3 ADD SWAP2 SWAP1 PUSH1 0x0 MSTORE PUSH1 0x20 PUSH1 0x0 KECCAK256 SWAP1 JUMPDEST DUP2 SLOAD DUP2 MSTORE SWAP1 PUSH1 0x1 ADD SWAP1 PUSH1 0x20 ADD DUP1 DUP4 GT PUSH2 0x2F27 JUMPI DUP3 SWAP1 SUB PUSH1 0x1F AND DUP3 ADD SWAP2 JUMPDEST POP POP POP POP POP DUP2 MSTORE POP POP DUP2 MSTORE PUSH1 0x20 ADD SWAP1 PUSH1 0x1 ADD SWAP1 PUSH2 0x281C JUMP JUMPDEST POP POP POP POP SWAP1 POP SWAP2 POP SWAP2 POP SWAP2 POP SWAP2 JUMP JUMPDEST PUSH1 0x40 MLOAD DUP1 PUSH1 0x80 ADD PUSH1 0x40 MSTORE DUP1 PUSH1 0x60 DUP2 MSTORE PUSH1 0x20 ADD PUSH1 0x60 DUP2 MSTORE PUSH1 0x20 ADD PUSH1 0x0 DUP2 MSTORE PUSH1 0x20 ADD PUSH1 0x60 DUP2 MSTORE POP SWAP1 JUMP JUMPDEST PUSH1 0x40 MLOAD DUP1 PUSH2 0x180 ADD PUSH1 0x40 MSTORE DUP1 PUSH1 0x0 PUSH20 0xFFFFFFFFFFFFFFFFFFFFFFFFFFFFFFFFFFFFFFFF AND DUP2 MSTORE PUSH1 0x20 ADD PUSH1 0x60 DUP2 MSTORE PUSH1 0x20 ADD PUSH1 0x60 DUP2 MSTORE PUSH1 0x20 ADD PUSH1 0x60 DUP2 MSTORE PUSH1 0x20 ADD PUSH1 0x60 DUP2 MSTORE PUSH1 0x20 ADD PUSH1 0x60 DUP2 MSTORE PUSH1 0x20 ADD PUSH1 0x60 DUP2 MSTORE PUSH1 0x20 ADD PUSH1 0x60 DUP2 MSTORE PUSH1 0x20 ADD PUSH1 0x60 DUP2 MSTORE PUSH1 0x20 ADD PUSH1 0x60 DUP2 MSTORE PUSH1 0x20 ADD PUSH1 0x60 DUP2 MSTORE PUSH1 0x20 ADD PUSH1 0x60 DUP2 MSTORE POP SWAP1 JUMP JUMPDEST PUSH1 0x40 MLOAD DUP1 PUSH1 0xA0 ADD PUSH1 0x40 MSTORE DUP1 PUSH1 0x0 PUSH20 0xFFFFFFFFFFFFFFFFFFFFFFFFFFFFFFFFFFFFFFFF AND DUP2 MSTORE PUSH1 0x20 ADD PUSH1 0x60 DUP2 MSTORE PUSH1 0x20 ADD PUSH1 0x0 DUP2 MSTORE PUSH1 0x20 ADD PUSH1 0x60 DUP2 MSTORE PUSH1 0x20 ADD PUSH1 0x60 DUP2 MSTORE POP SWAP1 JUMP JUMPDEST PUSH1 0x40 MLOAD DUP1 PUSH2 0x140 ADD PUSH1 0x40 MSTORE DUP1 PUSH1 0x0 PUSH20 0xFFFFFFFFFFFFFFFFFFFFFFFFFFFFFFFFFFFFFFFF AND DUP2 MSTORE PUSH1 0x20 ADD PUSH1 0x60 DUP2 MSTORE PUSH1 0x20 ADD PUSH1 0x60 DUP2 MSTORE PUSH1 0x20 ADD PUSH1 0x60 DUP2 MSTORE PUSH1 0x20 ADD PUSH1 0x60 DUP2 MSTORE PUSH1 0x20 ADD PUSH1 0x60 DUP2 MSTORE PUSH1 0x20 ADD PUSH1 0x60 DUP2 MSTORE PUSH1 0x20 ADD PUSH1 0x60 DUP2 MSTORE PUSH1 0x20 ADD PUSH1 0x60 DUP2 MSTORE PUSH1 0x20 ADD PUSH1 0x0 ISZERO ISZERO DUP2 MSTORE POP SWAP1 JUMP JUMPDEST PUSH1 0x40 MLOAD DUP1 PUSH2 0x1C0 ADD PUSH1 0x40 MSTORE DUP1 PUSH1 0x0 PUSH20 0xFFFFFFFFFFFFFFFFFFFFFFFFFFFFFFFFFFFFFFFF AND DUP2 MSTORE PUSH1 0x20 ADD PUSH1 0x60 DUP2 MSTORE PUSH1 0x20 ADD PUSH1 0x60 DUP2 MSTORE PUSH1 0x20 ADD PUSH1 0x60 DUP2 MSTORE PUSH1 0x20 ADD PUSH1 0x60 DUP2 MSTORE PUSH1 0x20 ADD PUSH1 0x60 DUP2 MSTORE PUSH1 0x20 ADD PUSH1 0x60 DUP2 MSTORE PUSH1 0x20 ADD PUSH1 0x60 DUP2 MSTORE PUSH1 0x20 ADD PUSH1 0x60 DUP2 MSTORE PUSH1 0x20 ADD PUSH1 0x0 ISZERO ISZERO DUP2 MSTORE PUSH1 0x20 ADD PUSH1 0x60 DUP2 MSTORE PUSH1 0x20 ADD PUSH1 0x60 DUP2 MSTORE PUSH1 0x20 ADD PUSH1 0x0 PUSH20 0xFFFFFFFFFFFFFFFFFFFFFFFFFFFFFFFFFFFFFFFF AND DUP2 MSTORE PUSH1 0x20 ADD PUSH1 0x60 DUP2 MSTORE POP SWAP1 JUMP JUMPDEST PUSH1 0x0 PUSH1 0x40 MLOAD SWAP1 POP SWAP1 JUMP JUMPDEST PUSH1 0x0 DUP1 REVERT JUMPDEST PUSH1 0x0 DUP1 REVERT JUMPDEST PUSH1 0x0 PUSH20 0xFFFFFFFFFFFFFFFFFFFFFFFFFFFFFFFFFFFFFFFF DUP3 AND SWAP1 POP SWAP2 SWAP1 POP JUMP JUMPDEST PUSH1 0x0 PUSH2 0x3196 DUP3 PUSH2 0x316B JUMP JUMPDEST SWAP1 POP SWAP2 SWAP1 POP JUMP JUMPDEST PUSH2 0x31A6 DUP2 PUSH2 0x318B JUMP JUMPDEST DUP2 EQ PUSH2 0x31B1 JUMPI PUSH1 0x0 DUP1 REVERT JUMPDEST POP JUMP JUMPDEST PUSH1 0x0 DUP2 CALLDATALOAD SWAP1 POP PUSH2 0x31C3 DUP2 PUSH2 0x319D JUMP JUMPDEST SWAP3 SWAP2 POP POP JUMP JUMPDEST PUSH1 0x0 PUSH1 0x20 DUP3 DUP5 SUB SLT ISZERO PUSH2 0x31DF JUMPI PUSH2 0x31DE PUSH2 0x3161 JUMP JUMPDEST JUMPDEST PUSH1 0x0 PUSH2 0x31ED DUP5 DUP3 DUP6 ADD PUSH2 0x31B4 JUMP JUMPDEST SWAP2 POP POP SWAP3 SWAP2 POP POP JUMP JUMPDEST PUSH1 0x0 DUP1 REVERT JUMPDEST PUSH1 0x0 PUSH1 0x1F NOT PUSH1 0x1F DUP4 ADD AND SWAP1 POP SWAP2 SWAP1 POP JUMP JUMPDEST PUSH32 0x4E487B7100000000000000000000000000000000000000000000000000000000 PUSH1 0x0 MSTORE PUSH1 0x41 PUSH1 0x4 MSTORE PUSH1 0x24 PUSH1 0x0 REVERT JUMPDEST PUSH2 0x3244 DUP3 PUSH2 0x31FB JUMP JUMPDEST DUP2 ADD DUP2 DUP2 LT PUSH8 0xFFFFFFFFFFFFFFFF DUP3 GT OR ISZERO PUSH2 0x3263 JUMPI PUSH2 0x3262 PUSH2 0x320C JUMP JUMPDEST JUMPDEST DUP1 PUSH1 0x40 MSTORE POP POP POP JUMP JUMPDEST PUSH1 0x0 PUSH2 0x3276 PUSH2 0x3157 JUMP JUMPDEST SWAP1 POP PUSH2 0x3282 DUP3 DUP3 PUSH2 0x323B JUMP JUMPDEST SWAP2 SWAP1 POP JUMP JUMPDEST PUSH1 0x0 DUP1 REVERT JUMPDEST PUSH1 0x0 DUP1 REVERT JUMPDEST PUSH1 0x0 DUP1 REVERT JUMPDEST PUSH1 0x0 PUSH8 0xFFFFFFFFFFFFFFFF DUP3 GT ISZERO PUSH2 0x32B1 JUMPI PUSH2 0x32B0 PUSH2 0x320C JUMP JUMPDEST JUMPDEST PUSH2 0x32BA DUP3 PUSH2 0x31FB JUMP JUMPDEST SWAP1 POP PUSH1 0x20 DUP2 ADD SWAP1 POP SWAP2 SWAP1 POP JUMP JUMPDEST DUP3 DUP2 DUP4 CALLDATACOPY PUSH1 0x0 DUP4 DUP4 ADD MSTORE POP POP POP JUMP JUMPDEST PUSH1 0x0 PUSH2 0x32E9 PUSH2 0x32E4 DUP5 PUSH2 0x3296 JUMP JUMPDEST PUSH2 0x326C JUMP JUMPDEST SWAP1 POP DUP3 DUP2 MSTORE PUSH1 0x20 DUP2 ADD DUP5 DUP5 DUP5 ADD GT ISZERO PUSH2 0x3305 JUMPI PUSH2 0x3304 PUSH2 0x3291 JUMP JUMPDEST JUMPDEST PUSH2 0x3310 DUP5 DUP3 DUP6 PUSH2 0x32C7 JUMP JUMPDEST POP SWAP4 SWAP3 POP POP POP JUMP JUMPDEST PUSH1 0x0 DUP3 PUSH1 0x1F DUP4 ADD SLT PUSH2 0x332D JUMPI PUSH2 0x332C PUSH2 0x328C JUMP JUMPDEST JUMPDEST DUP2 CALLDATALOAD PUSH2 0x333D DUP5 DUP3 PUSH1 0x20 DUP7 ADD PUSH2 0x32D6 JUMP JUMPDEST SWAP2 POP POP SWAP3 SWAP2 POP POP JUMP JUMPDEST PUSH1 0x0 DUP2 SWAP1 POP SWAP2 SWAP1 POP JUMP JUMPDEST PUSH2 0x3359 DUP2 PUSH2 0x3346 JUMP JUMPDEST DUP2 EQ PUSH2 0x3364 JUMPI PUSH1 0x0 DUP1 REVERT JUMPDEST POP JUMP JUMPDEST PUSH1 0x0 DUP2 CALLDATALOAD SWAP1 POP PUSH2 0x3376 DUP2 PUSH2 0x3350 JUMP JUMPDEST SWAP3 SWAP2 POP POP JUMP JUMPDEST PUSH1 0x0 PUSH1 0x80 DUP3 DUP5 SUB SLT ISZERO PUSH2 0x3392 JUMPI PUSH2 0x3391 PUSH2 0x31F6 JUMP JUMPDEST JUMPDEST PUSH2 0x339C PUSH1 0x80 PUSH2 0x326C JUMP JUMPDEST SWAP1 POP PUSH1 0x0 DUP3 ADD CALLDATALOAD PUSH8 0xFFFFFFFFFFFFFFFF DUP2 GT ISZERO PUSH2 0x33BC JUMPI PUSH2 0x33BB PUSH2 0x3287 JUMP JUMPDEST JUMPDEST PUSH2 0x33C8 DUP5 DUP3 DUP6 ADD PUSH2 0x3318 JUMP JUMPDEST PUSH1 0x0 DUP4 ADD MSTORE POP PUSH1 0x20 DUP3 ADD CALLDATALOAD PUSH8 0xFFFFFFFFFFFFFFFF DUP2 GT ISZERO PUSH2 0x33EC JUMPI PUSH2 0x33EB PUSH2 0x3287 JUMP JUMPDEST JUMPDEST PUSH2 0x33F8 DUP5 DUP3 DUP6 ADD PUSH2 0x3318 JUMP JUMPDEST PUSH1 0x20 DUP4 ADD MSTORE POP PUSH1 0x40 PUSH2 0x340C DUP5 DUP3 DUP6 ADD PUSH2 0x3367 JUMP JUMPDEST PUSH1 0x40 DUP4 ADD MSTORE POP PUSH1 0x60 DUP3 ADD CALLDATALOAD PUSH8 0xFFFFFFFFFFFFFFFF DUP2 GT ISZERO PUSH2 0x3430 JUMPI PUSH2 0x342F PUSH2 0x3287 JUMP JUMPDEST JUMPDEST PUSH2 0x343C DUP5 DUP3 DUP6 ADD PUSH2 0x3318 JUMP JUMPDEST PUSH1 0x60 DUP4 ADD MSTORE POP SWAP3 SWAP2 POP POP JUMP JUMPDEST PUSH1 0x0 PUSH2 0x180 DUP3 DUP5 SUB SLT ISZERO PUSH2 0x345F JUMPI PUSH2 0x345E PUSH2 0x31F6 JUMP JUMPDEST JUMPDEST PUSH2 0x346A PUSH2 0x180 PUSH2 0x326C JUMP JUMPDEST SWAP1 POP PUSH1 0x0 PUSH2 0x347A DUP5 DUP3 DUP6 ADD PUSH2 0x31B4 JUMP JUMPDEST PUSH1 0x0 DUP4 ADD MSTORE POP PUSH1 0x20 DUP3 ADD CALLDATALOAD PUSH8 0xFFFFFFFFFFFFFFFF DUP2 GT ISZERO PUSH2 0x349E JUMPI PUSH2 0x349D PUSH2 0x3287 JUMP JUMPDEST JUMPDEST PUSH2 0x34AA DUP5 DUP3 DUP6 ADD PUSH2 0x3318 JUMP JUMPDEST PUSH1 0x20 DUP4 ADD MSTORE POP PUSH1 0x40 DUP3 ADD CALLDATALOAD PUSH8 0xFFFFFFFFFFFFFFFF DUP2 GT ISZERO PUSH2 0x34CE JUMPI PUSH2 0x34CD PUSH2 0x3287 JUMP JUMPDEST JUMPDEST PUSH2 0x34DA DUP5 DUP3 DUP6 ADD PUSH2 0x3318 JUMP JUMPDEST PUSH1 0x40 DUP4 ADD MSTORE POP PUSH1 0x60 DUP3 ADD CALLDATALOAD PUSH8 0xFFFFFFFFFFFFFFFF DUP2 GT ISZERO PUSH2 0x34FE JUMPI PUSH2 0x34FD PUSH2 0x3287 JUMP JUMPDEST JUMPDEST PUSH2 0x350A DUP5 DUP3 DUP6 ADD PUSH2 0x3318 JUMP JUMPDEST PUSH1 0x60 DUP4 ADD MSTORE POP PUSH1 0x80 DUP3 ADD CALLDATALOAD PUSH8 0xFFFFFFFFFFFFFFFF DUP2 GT ISZERO PUSH2 0x352E JUMPI PUSH2 0x352D PUSH2 0x3287 JUMP JUMPDEST JUMPDEST PUSH2 0x353A DUP5 DUP3 DUP6 ADD PUSH2 0x3318 JUMP JUMPDEST PUSH1 0x80 DUP4 ADD MSTORE POP PUSH1 0xA0 DUP3 ADD CALLDATALOAD PUSH8 0xFFFFFFFFFFFFFFFF DUP2 GT ISZERO PUSH2 0x355E JUMPI PUSH2 0x355D PUSH2 0x3287 JUMP JUMPDEST JUMPDEST PUSH2 0x356A DUP5 DUP3 DUP6 ADD PUSH2 0x3318 JUMP JUMPDEST PUSH1 0xA0 DUP4 ADD MSTORE POP PUSH1 0xC0 DUP3 ADD CALLDATALOAD PUSH8 0xFFFFFFFFFFFFFFFF DUP2 GT ISZERO PUSH2 0x358E JUMPI PUSH2 0x358D PUSH2 0x3287 JUMP JUMPDEST JUMPDEST PUSH2 0x359A DUP5 DUP3 DUP6 ADD PUSH2 0x3318 JUMP JUMPDEST PUSH1 0xC0 DUP4 ADD MSTORE POP PUSH1 0xE0 DUP3 ADD CALLDATALOAD PUSH8 0xFFFFFFFFFFFFFFFF DUP2 GT ISZERO PUSH2 0x35BE JUMPI PUSH2 0x35BD PUSH2 0x3287 JUMP JUMPDEST JUMPDEST PUSH2 0x35CA DUP5 DUP3 DUP6 ADD PUSH2 0x3318 JUMP JUMPDEST PUSH1 0xE0 DUP4 ADD MSTORE POP PUSH2 0x100 DUP3 ADD CALLDATALOAD PUSH8 0xFFFFFFFFFFFFFFFF DUP2 GT ISZERO PUSH2 0x35EF JUMPI PUSH2 0x35EE PUSH2 0x3287 JUMP JUMPDEST JUMPDEST PUSH2 0x35FB DUP5 DUP3 DUP6 ADD PUSH2 0x3318 JUMP JUMPDEST PUSH2 0x100 DUP4 ADD MSTORE POP PUSH2 0x120 DUP3 ADD CALLDATALOAD PUSH8 0xFFFFFFFFFFFFFFFF DUP2 GT ISZERO PUSH2 0x3621 JUMPI PUSH2 0x3620 PUSH2 0x3287 JUMP JUMPDEST JUMPDEST PUSH2 0x362D DUP5 DUP3 DUP6 ADD PUSH2 0x3318 JUMP JUMPDEST PUSH2 0x120 DUP4 ADD MSTORE POP PUSH2 0x140 DUP3 ADD CALLDATALOAD PUSH8 0xFFFFFFFFFFFFFFFF DUP2 GT ISZERO PUSH2 0x3653 JUMPI PUSH2 0x3652 PUSH2 0x3287 JUMP JUMPDEST JUMPDEST PUSH2 0x365F DUP5 DUP3 DUP6 ADD PUSH2 0x3318 JUMP JUMPDEST PUSH2 0x140 DUP4 ADD MSTORE POP PUSH2 0x160 DUP3 ADD CALLDATALOAD PUSH8 0xFFFFFFFFFFFFFFFF DUP2 GT ISZERO PUSH2 0x3685 JUMPI PUSH2 0x3684 PUSH2 0x3287 JUMP JUMPDEST JUMPDEST PUSH2 0x3691 DUP5 DUP3 DUP6 ADD PUSH2 0x3318 JUMP JUMPDEST PUSH2 0x160 DUP4 ADD MSTORE POP SWAP3 SWAP2 POP POP JUMP JUMPDEST PUSH1 0x0 DUP1 PUSH1 0x40 DUP4 DUP6 SUB SLT ISZERO PUSH2 0x36B5 JUMPI PUSH2 0x36B4 PUSH2 0x3161 JUMP JUMPDEST JUMPDEST PUSH1 0x0 DUP4 ADD CALLDATALOAD PUSH8 0xFFFFFFFFFFFFFFFF DUP2 GT ISZERO PUSH2 0x36D3 JUMPI PUSH2 0x36D2 PUSH2 0x3166 JUMP JUMPDEST JUMPDEST PUSH2 0x36DF DUP6 DUP3 DUP7 ADD PUSH2 0x337C JUMP JUMPDEST SWAP3 POP POP PUSH1 0x20 DUP4 ADD CALLDATALOAD PUSH8 0xFFFFFFFFFFFFFFFF DUP2 GT ISZERO PUSH2 0x3700 JUMPI PUSH2 0x36FF PUSH2 0x3166 JUMP JUMPDEST JUMPDEST PUSH2 0x370C DUP6 DUP3 DUP7 ADD PUSH2 0x3448 JUMP JUMPDEST SWAP2 POP POP SWAP3 POP SWAP3 SWAP1 POP JUMP JUMPDEST PUSH1 0x0 PUSH1 0xA0 DUP3 DUP5 SUB SLT ISZERO PUSH2 0x372C JUMPI PUSH2 0x372B PUSH2 0x31F6 JUMP JUMPDEST JUMPDEST PUSH2 0x3736 PUSH1 0xA0 PUSH2 0x326C JUMP JUMPDEST SWAP1 POP PUSH1 0x0 PUSH2 0x3746 DUP5 DUP3 DUP6 ADD PUSH2 0x31B4 JUMP JUMPDEST PUSH1 0x0 DUP4 ADD MSTORE POP PUSH1 0x20 DUP3 ADD CALLDATALOAD PUSH8 0xFFFFFFFFFFFFFFFF DUP2 GT ISZERO PUSH2 0x376A JUMPI PUSH2 0x3769 PUSH2 0x3287 JUMP JUMPDEST JUMPDEST PUSH2 0x3776 DUP5 DUP3 DUP6 ADD PUSH2 0x3318 JUMP JUMPDEST PUSH1 0x20 DUP4 ADD MSTORE POP PUSH1 0x40 PUSH2 0x378A DUP5 DUP3 DUP6 ADD PUSH2 0x3367 JUMP JUMPDEST PUSH1 0x40 DUP4 ADD MSTORE POP PUSH1 0x60 DUP3 ADD CALLDATALOAD PUSH8 0xFFFFFFFFFFFFFFFF DUP2 GT ISZERO PUSH2 0x37AE JUMPI PUSH2 0x37AD PUSH2 0x3287 JUMP JUMPDEST JUMPDEST PUSH2 0x37BA DUP5 DUP3 DUP6 ADD PUSH2 0x3318 JUMP JUMPDEST PUSH1 0x60 DUP4 ADD MSTORE POP PUSH1 0x80 DUP3 ADD CALLDATALOAD PUSH8 0xFFFFFFFFFFFFFFFF DUP2 GT ISZERO PUSH2 0x37DE JUMPI PUSH2 0x37DD PUSH2 0x3287 JUMP JUMPDEST JUMPDEST PUSH2 0x37EA DUP5 DUP3 DUP6 ADD PUSH2 0x3318 JUMP JUMPDEST PUSH1 0x80 DUP4 ADD MSTORE POP SWAP3 SWAP2 POP POP JUMP JUMPDEST PUSH1 0x0 DUP2 ISZERO ISZERO SWAP1 POP SWAP2 SWAP1 POP JUMP JUMPDEST PUSH2 0x380B DUP2 PUSH2 0x37F6 JUMP JUMPDEST DUP2 EQ PUSH2 0x3816 JUMPI PUSH1 0x0 DUP1 REVERT JUMPDEST POP JUMP JUMPDEST PUSH1 0x0 DUP2 CALLDATALOAD SWAP1 POP PUSH2 0x3828 DUP2 PUSH2 0x3802 JUMP JUMPDEST SWAP3 SWAP2 POP POP JUMP JUMPDEST PUSH1 0x0 PUSH2 0x140 DUP3 DUP5 SUB SLT ISZERO PUSH2 0x3845 JUMPI PUSH2 0x3844 PUSH2 0x31F6 JUMP JUMPDEST JUMPDEST PUSH2 0x3850 PUSH2 0x140 PUSH2 0x326C JUMP JUMPDEST SWAP1 POP PUSH1 0x0 PUSH2 0x3860 DUP5 DUP3 DUP6 ADD PUSH2 0x31B4 JUMP JUMPDEST PUSH1 0x0 DUP4 ADD MSTORE POP PUSH1 0x20 DUP3 ADD CALLDATALOAD PUSH8 0xFFFFFFFFFFFFFFFF DUP2 GT ISZERO PUSH2 0x3884 JUMPI PUSH2 0x3883 PUSH2 0x3287 JUMP JUMPDEST JUMPDEST PUSH2 0x3890 DUP5 DUP3 DUP6 ADD PUSH2 0x3318 JUMP JUMPDEST PUSH1 0x20 DUP4 ADD MSTORE POP PUSH1 0x40 DUP3 ADD CALLDATALOAD PUSH8 0xFFFFFFFFFFFFFFFF DUP2 GT ISZERO PUSH2 0x38B4 JUMPI PUSH2 0x38B3 PUSH2 0x3287 JUMP JUMPDEST JUMPDEST PUSH2 0x38C0 DUP5 DUP3 DUP6 ADD PUSH2 0x3318 JUMP JUMPDEST PUSH1 0x40 DUP4 ADD MSTORE POP PUSH1 0x60 DUP3 ADD CALLDATALOAD PUSH8 0xFFFFFFFFFFFFFFFF DUP2 GT ISZERO PUSH2 0x38E4 JUMPI PUSH2 0x38E3 PUSH2 0x3287 JUMP JUMPDEST JUMPDEST PUSH2 0x38F0 DUP5 DUP3 DUP6 ADD PUSH2 0x3318 JUMP JUMPDEST PUSH1 0x60 DUP4 ADD MSTORE POP PUSH1 0x80 DUP3 ADD CALLDATALOAD PUSH8 0xFFFFFFFFFFFFFFFF DUP2 GT ISZERO PUSH2 0x3914 JUMPI PUSH2 0x3913 PUSH2 0x3287 JUMP JUMPDEST JUMPDEST PUSH2 0x3920 DUP5 DUP3 DUP6 ADD PUSH2 0x3318 JUMP JUMPDEST PUSH1 0x80 DUP4 ADD MSTORE POP PUSH1 0xA0 DUP3 ADD CALLDATALOAD PUSH8 0xFFFFFFFFFFFFFFFF DUP2 GT ISZERO PUSH2 0x3944 JUMPI PUSH2 0x3943 PUSH2 0x3287 JUMP JUMPDEST JUMPDEST PUSH2 0x3950 DUP5 DUP3 DUP6 ADD PUSH2 0x3318 JUMP JUMPDEST PUSH1 0xA0 DUP4 ADD MSTORE POP PUSH1 0xC0 DUP3 ADD CALLDATALOAD PUSH8 0xFFFFFFFFFFFFFFFF DUP2 GT ISZERO PUSH2 0x3974 JUMPI PUSH2 0x3973 PUSH2 0x3287 JUMP JUMPDEST JUMPDEST PUSH2 0x3980 DUP5 DUP3 DUP6 ADD PUSH2 0x3318 JUMP JUMPDEST PUSH1 0xC0 DUP4 ADD MSTORE POP PUSH1 0xE0 DUP3 ADD CALLDATALOAD PUSH8 0xFFFFFFFFFFFFFFFF DUP2 GT ISZERO PUSH2 0x39A4 JUMPI PUSH2 0x39A3 PUSH2 0x3287 JUMP JUMPDEST JUMPDEST PUSH2 0x39B0 DUP5 DUP3 DUP6 ADD PUSH2 0x3318 JUMP JUMPDEST PUSH1 0xE0 DUP4 ADD MSTORE POP PUSH2 0x100 DUP3 ADD CALLDATALOAD PUSH8 0xFFFFFFFFFFFFFFFF DUP2 GT ISZERO PUSH2 0x39D5 JUMPI PUSH2 0x39D4 PUSH2 0x3287 JUMP JUMPDEST JUMPDEST PUSH2 0x39E1 DUP5 DUP3 DUP6 ADD PUSH2 0x3318 JUMP JUMPDEST PUSH2 0x100 DUP4 ADD MSTORE POP PUSH2 0x120 PUSH2 0x39F7 DUP5 DUP3 DUP6 ADD PUSH2 0x3819 JUMP JUMPDEST PUSH2 0x120 DUP4 ADD MSTORE POP SWAP3 SWAP2 POP POP JUMP JUMPDEST PUSH1 0x0 DUP1 PUSH1 0x40 DUP4 DUP6 SUB SLT ISZERO PUSH2 0x3A1B JUMPI PUSH2 0x3A1A PUSH2 0x3161 JUMP JUMPDEST JUMPDEST PUSH1 0x0 DUP4 ADD CALLDATALOAD PUSH8 0xFFFFFFFFFFFFFFFF DUP2 GT ISZERO PUSH2 0x3A39 JUMPI PUSH2 0x3A38 PUSH2 0x3166 JUMP JUMPDEST JUMPDEST PUSH2 0x3A45 DUP6 DUP3 DUP7 ADD PUSH2 0x3716 JUMP JUMPDEST SWAP3 POP POP PUSH1 0x20 DUP4 ADD CALLDATALOAD PUSH8 0xFFFFFFFFFFFFFFFF DUP2 GT ISZERO PUSH2 0x3A66 JUMPI PUSH2 0x3A65 PUSH2 0x3166 JUMP JUMPDEST JUMPDEST PUSH2 0x3A72 DUP6 DUP3 DUP7 ADD PUSH2 0x382E JUMP JUMPDEST SWAP2 POP POP SWAP3 POP SWAP3 SWAP1 POP JUMP JUMPDEST PUSH1 0x0 PUSH2 0x1C0 DUP3 DUP5 SUB SLT ISZERO PUSH2 0x3A93 JUMPI PUSH2 0x3A92 PUSH2 0x31F6 JUMP JUMPDEST JUMPDEST PUSH2 0x3A9E PUSH2 0x1C0 PUSH2 0x326C JUMP JUMPDEST SWAP1 POP PUSH1 0x0 PUSH2 0x3AAE DUP5 DUP3 DUP6 ADD PUSH2 0x31B4 JUMP JUMPDEST PUSH1 0x0 DUP4 ADD MSTORE POP PUSH1 0x20 DUP3 ADD CALLDATALOAD PUSH8 0xFFFFFFFFFFFFFFFF DUP2 GT ISZERO PUSH2 0x3AD2 JUMPI PUSH2 0x3AD1 PUSH2 0x3287 JUMP JUMPDEST JUMPDEST PUSH2 0x3ADE DUP5 DUP3 DUP6 ADD PUSH2 0x3318 JUMP JUMPDEST PUSH1 0x20 DUP4 ADD MSTORE POP PUSH1 0x40 DUP3 ADD CALLDATALOAD PUSH8 0xFFFFFFFFFFFFFFFF DUP2 GT ISZERO PUSH2 0x3B02 JUMPI PUSH2 0x3B01 PUSH2 0x3287 JUMP JUMPDEST JUMPDEST PUSH2 0x3B0E DUP5 DUP3 DUP6 ADD PUSH2 0x3318 JUMP JUMPDEST PUSH1 0x40 DUP4 ADD MSTORE POP PUSH1 0x60 DUP3 ADD CALLDATALOAD PUSH8 0xFFFFFFFFFFFFFFFF DUP2 GT ISZERO PUSH2 0x3B32 JUMPI PUSH2 0x3B31 PUSH2 0x3287 JUMP JUMPDEST JUMPDEST PUSH2 0x3B3E DUP5 DUP3 DUP6 ADD PUSH2 0x3318 JUMP JUMPDEST PUSH1 0x60 DUP4 ADD MSTORE POP PUSH1 0x80 DUP3 ADD CALLDATALOAD PUSH8 0xFFFFFFFFFFFFFFFF DUP2 GT ISZERO PUSH2 0x3B62 JUMPI PUSH2 0x3B61 PUSH2 0x3287 JUMP JUMPDEST JUMPDEST PUSH2 0x3B6E DUP5 DUP3 DUP6 ADD PUSH2 0x3318 JUMP JUMPDEST PUSH1 0x80 DUP4 ADD MSTORE POP PUSH1 0xA0 DUP3 ADD CALLDATALOAD PUSH8 0xFFFFFFFFFFFFFFFF DUP2 GT ISZERO PUSH2 0x3B92 JUMPI PUSH2 0x3B91 PUSH2 0x3287 JUMP JUMPDEST JUMPDEST PUSH2 0x3B9E DUP5 DUP3 DUP6 ADD PUSH2 0x3318 JUMP JUMPDEST PUSH1 0xA0 DUP4 ADD MSTORE POP PUSH1 0xC0 DUP3 ADD CALLDATALOAD PUSH8 0xFFFFFFFFFFFFFFFF DUP2 GT ISZERO PUSH2 0x3BC2 JUMPI PUSH2 0x3BC1 PUSH2 0x3287 JUMP JUMPDEST JUMPDEST PUSH2 0x3BCE DUP5 DUP3 DUP6 ADD PUSH2 0x3318 JUMP JUMPDEST PUSH1 0xC0 DUP4 ADD MSTORE POP PUSH1 0xE0 DUP3 ADD CALLDATALOAD PUSH8 0xFFFFFFFFFFFFFFFF DUP2 GT ISZERO PUSH2 0x3BF2 JUMPI PUSH2 0x3BF1 PUSH2 0x3287 JUMP JUMPDEST JUMPDEST PUSH2 0x3BFE DUP5 DUP3 DUP6 ADD PUSH2 0x3318 JUMP JUMPDEST PUSH1 0xE0 DUP4 ADD MSTORE POP PUSH2 0x100 DUP3 ADD CALLDATALOAD PUSH8 0xFFFFFFFFFFFFFFFF DUP2 GT ISZERO PUSH2 0x3C23 JUMPI PUSH2 0x3C22 PUSH2 0x3287 JUMP JUMPDEST JUMPDEST PUSH2 0x3C2F DUP5 DUP3 DUP6 ADD PUSH2 0x3318 JUMP JUMPDEST PUSH2 0x100 DUP4 ADD MSTORE POP PUSH2 0x120 PUSH2 0x3C45 DUP5 DUP3 DUP6 ADD PUSH2 0x3819 JUMP JUMPDEST PUSH2 0x120 DUP4 ADD MSTORE POP PUSH2 0x140 DUP3 ADD CALLDATALOAD PUSH8 0xFFFFFFFFFFFFFFFF DUP2 GT ISZERO PUSH2 0x3C6B JUMPI PUSH2 0x3C6A PUSH2 0x3287 JUMP JUMPDEST JUMPDEST PUSH2 0x3C77 DUP5 DUP3 DUP6 ADD PUSH2 0x3318 JUMP JUMPDEST PUSH2 0x140 DUP4 ADD MSTORE POP PUSH2 0x160 DUP3 ADD CALLDATALOAD PUSH8 0xFFFFFFFFFFFFFFFF DUP2 GT ISZERO PUSH2 0x3C9D JUMPI PUSH2 0x3C9C PUSH2 0x3287 JUMP JUMPDEST JUMPDEST PUSH2 0x3CA9 DUP5 DUP3 DUP6 ADD PUSH2 0x3318 JUMP JUMPDEST PUSH2 0x160 DUP4 ADD MSTORE POP PUSH2 0x180 PUSH2 0x3CBF DUP5 DUP3 DUP6 ADD PUSH2 0x31B4 JUMP JUMPDEST PUSH2 0x180 DUP4 ADD MSTORE POP PUSH2 0x1A0 DUP3 ADD CALLDATALOAD PUSH8 0xFFFFFFFFFFFFFFFF DUP2 GT ISZERO PUSH2 0x3CE5 JUMPI PUSH2 0x3CE4 PUSH2 0x3287 JUMP JUMPDEST JUMPDEST PUSH2 0x3CF1 DUP5 DUP3 DUP6 ADD PUSH2 0x3318 JUMP JUMPDEST PUSH2 0x1A0 DUP4 ADD MSTORE POP SWAP3 SWAP2 POP POP JUMP JUMPDEST PUSH1 0x0 DUP1 PUSH1 0x40 DUP4 DUP6 SUB SLT ISZERO PUSH2 0x3D15 JUMPI PUSH2 0x3D14 PUSH2 0x3161 JUMP JUMPDEST JUMPDEST PUSH1 0x0 DUP4 ADD CALLDATALOAD PUSH8 0xFFFFFFFFFFFFFFFF DUP2 GT ISZERO PUSH2 0x3D33 JUMPI PUSH2 0x3D32 PUSH2 0x3166 JUMP JUMPDEST JUMPDEST PUSH2 0x3D3F DUP6 DUP3 DUP7 ADD PUSH2 0x3716 JUMP JUMPDEST SWAP3 POP POP PUSH1 0x20 DUP4 ADD CALLDATALOAD PUSH8 0xFFFFFFFFFFFFFFFF DUP2 GT ISZERO PUSH2 0x3D60 JUMPI PUSH2 0x3D5F PUSH2 0x3166 JUMP JUMPDEST JUMPDEST PUSH2 0x3D6C DUP6 DUP3 DUP7 ADD PUSH2 0x3A7C JUMP JUMPDEST SWAP2 POP POP SWAP3 POP SWAP3 SWAP1 POP JUMP JUMPDEST PUSH2 0x3D7F DUP2 PUSH2 0x318B JUMP JUMPDEST DUP3 MSTORE POP POP JUMP JUMPDEST PUSH1 0x0 DUP2 MLOAD SWAP1 POP SWAP2 SWAP1 POP JUMP JUMPDEST PUSH1 0x0 DUP3 DUP3 MSTORE PUSH1 0x20 DUP3 ADD SWAP1 POP SWAP3 SWAP2 POP POP JUMP JUMPDEST PUSH1 0x0 JUMPDEST DUP4 DUP2 LT ISZERO PUSH2 0x3DBF JUMPI DUP1 DUP3 ADD MLOAD DUP2 DUP5 ADD MSTORE PUSH1 0x20 DUP2 ADD SWAP1 POP PUSH2 0x3DA4 JUMP JUMPDEST PUSH1 0x0 DUP5 DUP5 ADD MSTORE POP POP POP POP JUMP JUMPDEST PUSH1 0x0 PUSH2 0x3DD6 DUP3 PUSH2 0x3D85 JUMP JUMPDEST PUSH2 0x3DE0 DUP2 DUP6 PUSH2 0x3D90 JUMP JUMPDEST SWAP4 POP PUSH2 0x3DF0 DUP2 DUP6 PUSH1 0x20 DUP7 ADD PUSH2 0x3DA1 JUMP JUMPDEST PUSH2 0x3DF9 DUP2 PUSH2 0x31FB JUMP JUMPDEST DUP5 ADD SWAP2 POP POP SWAP3 SWAP2 POP POP JUMP JUMPDEST PUSH2 0x3E0D DUP2 PUSH2 0x3346 JUMP JUMPDEST DUP3 MSTORE POP POP JUMP JUMPDEST PUSH1 0x0 PUSH1 0xA0 DUP4 ADD PUSH1 0x0 DUP4 ADD MLOAD PUSH2 0x3E2B PUSH1 0x0 DUP7 ADD DUP3 PUSH2 0x3D76 JUMP JUMPDEST POP PUSH1 0x20 DUP4 ADD MLOAD DUP5 DUP3 SUB PUSH1 0x20 DUP7 ADD MSTORE PUSH2 0x3E43 DUP3 DUP3 PUSH2 0x3DCB JUMP JUMPDEST SWAP2 POP POP PUSH1 0x40 DUP4 ADD MLOAD PUSH2 0x3E58 PUSH1 0x40 DUP7 ADD DUP3 PUSH2 0x3E04 JUMP JUMPDEST POP PUSH1 0x60 DUP4 ADD MLOAD DUP5 DUP3 SUB PUSH1 0x60 DUP7 ADD MSTORE PUSH2 0x3E70 DUP3 DUP3 PUSH2 0x3DCB JUMP JUMPDEST SWAP2 POP POP PUSH1 0x80 DUP4 ADD MLOAD DUP5 DUP3 SUB PUSH1 0x80 DUP7 ADD MSTORE PUSH2 0x3E8A DUP3 DUP3 PUSH2 0x3DCB JUMP JUMPDEST SWAP2 POP POP DUP1 SWAP2 POP POP SWAP3 SWAP2 POP POP JUMP JUMPDEST PUSH1 0x0 DUP2 MLOAD SWAP1 POP SWAP2 SWAP1 POP JUMP JUMPDEST PUSH1 0x0 DUP3 DUP3 MSTORE PUSH1 0x20 DUP3 ADD SWAP1 POP SWAP3 SWAP2 POP POP JUMP JUMPDEST PUSH1 0x0 DUP2 SWAP1 POP PUSH1 0x20 DUP3 ADD SWAP1 POP SWAP2 SWAP1 POP JUMP JUMPDEST PUSH2 0x3ECC DUP2 PUSH2 0x37F6 JUMP JUMPDEST DUP3 MSTORE POP POP JUMP JUMPDEST PUSH1 0x0 PUSH2 0x140 DUP4 ADD PUSH1 0x0 DUP4 ADD MLOAD PUSH2 0x3EEB PUSH1 0x0 DUP7 ADD DUP3 PUSH2 0x3D76 JUMP JUMPDEST POP PUSH1 0x20 DUP4 ADD MLOAD DUP5 DUP3 SUB PUSH1 0x20 DUP7 ADD MSTORE PUSH2 0x3F03 DUP3 DUP3 PUSH2 0x3DCB JUMP JUMPDEST SWAP2 POP POP PUSH1 0x40 DUP4 ADD MLOAD DUP5 DUP3 SUB PUSH1 0x40 DUP7 ADD MSTORE PUSH2 0x3F1D DUP3 DUP3 PUSH2 0x3DCB JUMP JUMPDEST SWAP2 POP POP PUSH1 0x60 DUP4 ADD MLOAD DUP5 DUP3 SUB PUSH1 0x60 DUP7 ADD MSTORE PUSH2 0x3F37 DUP3 DUP3 PUSH2 0x3DCB JUMP JUMPDEST SWAP2 POP POP PUSH1 0x80 DUP4 ADD MLOAD DUP5 DUP3 SUB PUSH1 0x80 DUP7 ADD MSTORE PUSH2 0x3F51 DUP3 DUP3 PUSH2 0x3DCB JUMP JUMPDEST SWAP2 POP POP PUSH1 0xA0 DUP4 ADD MLOAD DUP5 DUP3 SUB PUSH1 0xA0 DUP7 ADD MSTORE PUSH2 0x3F6B DUP3 DUP3 PUSH2 0x3DCB JUMP JUMPDEST SWAP2 POP POP PUSH1 0xC0 DUP4 ADD MLOAD DUP5 DUP3 SUB PUSH1 0xC0 DUP7 ADD MSTORE PUSH2 0x3F85 DUP3 DUP3 PUSH2 0x3DCB JUMP JUMPDEST SWAP2 POP POP PUSH1 0xE0 DUP4 ADD MLOAD DUP5 DUP3 SUB PUSH1 0xE0 DUP7 ADD MSTORE PUSH2 0x3F9F DUP3 DUP3 PUSH2 0x3DCB JUMP JUMPDEST SWAP2 POP POP PUSH2 0x100 DUP4 ADD MLOAD DUP5 DUP3 SUB PUSH2 0x100 DUP7 ADD MSTORE PUSH2 0x3FBB DUP3 DUP3 PUSH2 0x3DCB JUMP JUMPDEST SWAP2 POP POP PUSH2 0x120 DUP4 ADD MLOAD PUSH2 0x3FD2 PUSH2 0x120 DUP7 ADD DUP3 PUSH2 0x3EC3 JUMP JUMPDEST POP DUP1 SWAP2 POP POP SWAP3 SWAP2 POP POP JUMP JUMPDEST PUSH1 0x0 PUSH2 0x3FE9 DUP4 DUP4 PUSH2 0x3ED2 JUMP JUMPDEST SWAP1 POP SWAP3 SWAP2 POP POP JUMP JUMPDEST PUSH1 0x0 PUSH1 0x20 DUP3 ADD SWAP1 POP SWAP2 SWAP1 POP JUMP JUMPDEST PUSH1 0x0 PUSH2 0x4009 DUP3 PUSH2 0x3E97 JUMP JUMPDEST PUSH2 0x4013 DUP2 DUP6 PUSH2 0x3EA2 JUMP JUMPDEST SWAP4 POP DUP4 PUSH1 0x20 DUP3 MUL DUP6 ADD PUSH2 0x4025 DUP6 PUSH2 0x3EB3 JUMP JUMPDEST DUP1 PUSH1 0x0 JUMPDEST DUP6 DUP2 LT ISZERO PUSH2 0x4061 JUMPI DUP5 DUP5 SUB DUP10 MSTORE DUP2 MLOAD PUSH2 0x4042 DUP6 DUP3 PUSH2 0x3FDD JUMP JUMPDEST SWAP5 POP PUSH2 0x404D DUP4 PUSH2 0x3FF1 JUMP JUMPDEST SWAP3 POP PUSH1 0x20 DUP11 ADD SWAP10 POP POP PUSH1 0x1 DUP2 ADD SWAP1 POP PUSH2 0x4029 JUMP JUMPDEST POP DUP3 SWAP8 POP DUP8 SWAP6 POP POP POP POP POP POP SWAP3 SWAP2 POP POP JUMP JUMPDEST PUSH1 0x0 PUSH1 0x40 DUP3 ADD SWAP1 POP DUP2 DUP2 SUB PUSH1 0x0 DUP4 ADD MSTORE PUSH2 0x408D DUP2 DUP6 PUSH2 0x3E13 JUMP JUMPDEST SWAP1 POP DUP2 DUP2 SUB PUSH1 0x20 DUP4 ADD MSTORE PUSH2 0x40A1 DUP2 DUP5 PUSH2 0x3FFE JUMP JUMPDEST SWAP1 POP SWAP4 SWAP3 POP POP POP JUMP JUMPDEST PUSH1 0x0 DUP2 MLOAD SWAP1 POP SWAP2 SWAP1 POP JUMP JUMPDEST PUSH1 0x0 DUP3 DUP3 MSTORE PUSH1 0x20 DUP3 ADD SWAP1 POP SWAP3 SWAP2 POP POP JUMP JUMPDEST PUSH1 0x0 DUP2 SWAP1 POP PUSH1 0x20 DUP3 ADD SWAP1 POP SWAP2 SWAP1 POP JUMP JUMPDEST PUSH1 0x0 PUSH2 0x180 DUP4 ADD PUSH1 0x0 DUP4 ADD MLOAD PUSH2 0x40EF PUSH1 0x0 DUP7 ADD DUP3 PUSH2 0x3D76 JUMP JUMPDEST POP PUSH1 0x20 DUP4 ADD MLOAD DUP5 DUP3 SUB PUSH1 0x20 DUP7 ADD MSTORE PUSH2 0x4107 DUP3 DUP3 PUSH2 0x3DCB JUMP JUMPDEST SWAP2 POP POP PUSH1 0x40 DUP4 ADD MLOAD DUP5 DUP3 SUB PUSH1 0x40 DUP7 ADD MSTORE PUSH2 0x4121 DUP3 DUP3 PUSH2 0x3DCB JUMP JUMPDEST SWAP2 POP POP PUSH1 0x60 DUP4 ADD MLOAD DUP5 DUP3 SUB PUSH1 0x60 DUP7 ADD MSTORE PUSH2 0x413B DUP3 DUP3 PUSH2 0x3DCB JUMP JUMPDEST SWAP2 POP POP PUSH1 0x80 DUP4 ADD MLOAD DUP5 DUP3 SUB PUSH1 0x80 DUP7 ADD MSTORE PUSH2 0x4155 DUP3 DUP3 PUSH2 0x3DCB JUMP JUMPDEST SWAP2 POP POP PUSH1 0xA0 DUP4 ADD MLOAD DUP5 DUP3 SUB PUSH1 0xA0 DUP7 ADD MSTORE PUSH2 0x416F DUP3 DUP3 PUSH2 0x3DCB JUMP JUMPDEST SWAP2 POP POP PUSH1 0xC0 DUP4 ADD MLOAD DUP5 DUP3 SUB PUSH1 0xC0 DUP7 ADD MSTORE PUSH2 0x4189 DUP3 DUP3 PUSH2 0x3DCB JUMP JUMPDEST SWAP2 POP POP PUSH1 0xE0 DUP4 ADD MLOAD DUP5 DUP3 SUB PUSH1 0xE0 DUP7 ADD MSTORE PUSH2 0x41A3 DUP3 DUP3 PUSH2 0x3DCB JUMP JUMPDEST SWAP2 POP POP PUSH2 0x100 DUP4 ADD MLOAD DUP5 DUP3 SUB PUSH2 0x100 DUP7 ADD MSTORE PUSH2 0x41BF DUP3 DUP3 PUSH2 0x3DCB JUMP JUMPDEST SWAP2 POP POP PUSH2 0x120 DUP4 ADD MLOAD DUP5 DUP3 SUB PUSH2 0x120 DUP7 ADD MSTORE PUSH2 0x41DB DUP3 DUP3 PUSH2 0x3DCB JUMP JUMPDEST SWAP2 POP POP PUSH2 0x140 DUP4 ADD MLOAD DUP5 DUP3 SUB PUSH2 0x140 DUP7 ADD MSTORE PUSH2 0x41F7 DUP3 DUP3 PUSH2 0x3DCB JUMP JUMPDEST SWAP2 POP POP PUSH2 0x160 DUP4 ADD MLOAD DUP5 DUP3 SUB PUSH2 0x160 DUP7 ADD MSTORE PUSH2 0x4213 DUP3 DUP3 PUSH2 0x3DCB JUMP JUMPDEST SWAP2 POP POP DUP1 SWAP2 POP POP SWAP3 SWAP2 POP POP JUMP JUMPDEST PUSH1 0x0 PUSH2 0x422C DUP4 DUP4 PUSH2 0x40D6 JUMP JUMPDEST SWAP1 POP SWAP3 SWAP2 POP POP JUMP JUMPDEST PUSH1 0x0 PUSH1 0x20 DUP3 ADD SWAP1 POP SWAP2 SWAP1 POP JUMP JUMPDEST PUSH1 0x0 PUSH2 0x424C DUP3 PUSH2 0x40AA JUMP JUMPDEST PUSH2 0x4256 DUP2 DUP6 PUSH2 0x40B5 JUMP JUMPDEST SWAP4 POP DUP4 PUSH1 0x20 DUP3 MUL DUP6 ADD PUSH2 0x4268 DUP6 PUSH2 0x40C6 JUMP JUMPDEST DUP1 PUSH1 0x0 JUMPDEST DUP6 DUP2 LT ISZERO PUSH2 0x42A4 JUMPI DUP5 DUP5 SUB DUP10 MSTORE DUP2 MLOAD PUSH2 0x4285 DUP6 DUP3 PUSH2 0x4220 JUMP JUMPDEST SWAP5 POP PUSH2 0x4290 DUP4 PUSH2 0x4234 JUMP JUMPDEST SWAP3 POP PUSH1 0x20 DUP11 ADD SWAP10 POP POP PUSH1 0x1 DUP2 ADD SWAP1 POP PUSH2 0x426C JUMP JUMPDEST POP DUP3 SWAP8 POP DUP8 SWAP6 POP POP POP POP POP POP SWAP3 SWAP2 POP POP JUMP JUMPDEST PUSH1 0x0 PUSH1 0x40 DUP3 ADD SWAP1 POP DUP2 DUP2 SUB PUSH1 0x0 DUP4 ADD MSTORE PUSH2 0x42D0 DUP2 DUP6 PUSH2 0x3E13 JUMP JUMPDEST SWAP1 POP DUP2 DUP2 SUB PUSH1 0x20 DUP4 ADD MSTORE PUSH2 0x42E4 DUP2 DUP5 PUSH2 0x4241 JUMP JUMPDEST SWAP1 POP SWAP4 SWAP3 POP POP POP JUMP JUMPDEST PUSH1 0x0 DUP2 MLOAD SWAP1 POP SWAP2 SWAP1 POP JUMP JUMPDEST PUSH1 0x0 DUP3 DUP3 MSTORE PUSH1 0x20 DUP3 ADD SWAP1 POP SWAP3 SWAP2 POP POP JUMP JUMPDEST PUSH1 0x0 DUP2 SWAP1 POP PUSH1 0x20 DUP3 ADD SWAP1 POP SWAP2 SWAP1 POP JUMP JUMPDEST PUSH1 0x0 PUSH2 0x1C0 DUP4 ADD PUSH1 0x0 DUP4 ADD MLOAD PUSH2 0x4332 PUSH1 0x0 DUP7 ADD DUP3 PUSH2 0x3D76 JUMP JUMPDEST POP PUSH1 0x20 DUP4 ADD MLOAD DUP5 DUP3 SUB PUSH1 0x20 DUP7 ADD MSTORE PUSH2 0x434A DUP3 DUP3 PUSH2 0x3DCB JUMP JUMPDEST SWAP2 POP POP PUSH1 0x40 DUP4 ADD MLOAD DUP5 DUP3 SUB PUSH1 0x40 DUP7 ADD MSTORE PUSH2 0x4364 DUP3 DUP3 PUSH2 0x3DCB JUMP JUMPDEST SWAP2 POP POP PUSH1 0x60 DUP4 ADD MLOAD DUP5 DUP3 SUB PUSH1 0x60 DUP7 ADD MSTORE PUSH2 0x437E DUP3 DUP3 PUSH2 0x3DCB JUMP JUMPDEST SWAP2 POP POP PUSH1 0x80 DUP4 ADD MLOAD DUP5 DUP3 SUB PUSH1 0x80 DUP7 ADD MSTORE PUSH2 0x4398 DUP3 DUP3 PUSH2 0x3DCB JUMP JUMPDEST SWAP2 POP POP PUSH1 0xA0 DUP4 ADD MLOAD DUP5 DUP3 SUB PUSH1 0xA0 DUP7 ADD MSTORE PUSH2 0x43B2 DUP3 DUP3 PUSH2 0x3DCB JUMP JUMPDEST SWAP2 POP POP PUSH1 0xC0 DUP4 ADD MLOAD DUP5 DUP3 SUB PUSH1 0xC0 DUP7 ADD MSTORE PUSH2 0x43CC DUP3 DUP3 PUSH2 0x3DCB JUMP JUMPDEST SWAP2 POP POP PUSH1 0xE0 DUP4 ADD MLOAD DUP5 DUP3 SUB PUSH1 0xE0 DUP7 ADD MSTORE PUSH2 0x43E6 DUP3 DUP3 PUSH2 0x3DCB JUMP JUMPDEST SWAP2 POP POP PUSH2 0x100 DUP4 ADD MLOAD DUP5 DUP3 SUB PUSH2 0x100 DUP7 ADD MSTORE PUSH2 0x4402 DUP3 DUP3 PUSH2 0x3DCB JUMP JUMPDEST SWAP2 POP POP PUSH2 0x120 DUP4 ADD MLOAD PUSH2 0x4419 PUSH2 0x120 DUP7 ADD DUP3 PUSH2 0x3EC3 JUMP JUMPDEST POP PUSH2 0x140 DUP4 ADD MLOAD DUP5 DUP3 SUB PUSH2 0x140 DUP7 ADD MSTORE PUSH2 0x4433 DUP3 DUP3 PUSH2 0x3DCB JUMP JUMPDEST SWAP2 POP POP PUSH2 0x160 DUP4 ADD MLOAD DUP5 DUP3 SUB PUSH2 0x160 DUP7 ADD MSTORE PUSH2 0x444F DUP3 DUP3 PUSH2 0x3DCB JUMP JUMPDEST SWAP2 POP POP PUSH2 0x180 DUP4 ADD MLOAD PUSH2 0x4466 PUSH2 0x180 DUP7 ADD DUP3 PUSH2 0x3D76 JUMP JUMPDEST POP PUSH2 0x1A0 DUP4 ADD MLOAD DUP5 DUP3 SUB PUSH2 0x1A0 DUP7 ADD MSTORE PUSH2 0x4480 DUP3 DUP3 PUSH2 0x3DCB JUMP JUMPDEST SWAP2 POP POP DUP1 SWAP2 POP POP SWAP3 SWAP2 POP POP JUMP JUMPDEST PUSH1 0x0 PUSH2 0x4499 DUP4 DUP4 PUSH2 0x4319 JUMP JUMPDEST SWAP1 POP SWAP3 SWAP2 POP POP JUMP JUMPDEST PUSH1 0x0 PUSH1 0x20 DUP3 ADD SWAP1 POP SWAP2 SWAP1 POP JUMP JUMPDEST PUSH1 0x0 PUSH2 0x44B9 DUP3 PUSH2 0x42ED JUMP JUMPDEST PUSH2 0x44C3 DUP2 DUP6 PUSH2 0x42F8 JUMP JUMPDEST SWAP4 POP DUP4 PUSH1 0x20 DUP3 MUL DUP6 ADD PUSH2 0x44D5 DUP6 PUSH2 0x4309 JUMP JUMPDEST DUP1 PUSH1 0x0 JUMPDEST DUP6 DUP2 LT ISZERO PUSH2 0x4511 JUMPI DUP5 DUP5 SUB DUP10 MSTORE DUP2 MLOAD PUSH2 0x44F2 DUP6 DUP3 PUSH2 0x448D JUMP JUMPDEST SWAP5 POP PUSH2 0x44FD DUP4 PUSH2 0x44A1 JUMP JUMPDEST SWAP3 POP PUSH1 0x20 DUP11 ADD SWAP10 POP POP PUSH1 0x1 DUP2 ADD SWAP1 POP PUSH2 0x44D9 JUMP JUMPDEST POP DUP3 SWAP8 POP DUP8 SWAP6 POP POP POP POP POP POP SWAP3 SWAP2 POP POP JUMP JUMPDEST PUSH1 0x0 PUSH1 0x40 DUP3 ADD SWAP1 POP DUP2 DUP2 SUB PUSH1 0x0 DUP4 ADD MSTORE PUSH2 0x453D DUP2 DUP6 PUSH2 0x3E13 JUMP JUMPDEST SWAP1 POP DUP2 DUP2 SUB PUSH1 0x20 DUP4 ADD MSTORE PUSH2 0x4551 DUP2 DUP5 PUSH2 0x44AE JUMP JUMPDEST SWAP1 POP SWAP4 SWAP3 POP POP POP JUMP JUMPDEST PUSH2 0x4563 DUP2 PUSH2 0x318B JUMP JUMPDEST DUP3 MSTORE POP POP JUMP JUMPDEST PUSH1 0x0 PUSH1 0x20 DUP3 ADD SWAP1 POP PUSH2 0x457E PUSH1 0x0 DUP4 ADD DUP5 PUSH2 0x455A JUMP JUMPDEST SWAP3 SWAP2 POP POP JUMP JUMPDEST PUSH1 0x0 DUP2 MLOAD SWAP1 POP PUSH2 0x4593 DUP2 PUSH2 0x3802 JUMP JUMPDEST SWAP3 SWAP2 POP POP JUMP JUMPDEST PUSH1 0x0 PUSH1 0x20 DUP3 DUP5 SUB SLT ISZERO PUSH2 0x45AF JUMPI PUSH2 0x45AE PUSH2 0x3161 JUMP JUMPDEST JUMPDEST PUSH1 0x0 PUSH2 0x45BD DUP5 DUP3 DUP6 ADD PUSH2 0x4584 JUMP JUMPDEST SWAP2 POP POP SWAP3 SWAP2 POP POP JUMP JUMPDEST PUSH32 0x4E487B7100000000000000000000000000000000000000000000000000000000 PUSH1 0x0 MSTORE PUSH1 0x22 PUSH1 0x4 MSTORE PUSH1 0x24 PUSH1 0x0 REVERT JUMPDEST PUSH1 0x0 PUSH1 0x2 DUP3 DIV SWAP1 POP PUSH1 0x1 DUP3 AND DUP1 PUSH2 0x460D JUMPI PUSH1 0x7F DUP3 AND SWAP2 POP JUMPDEST PUSH1 0x20 DUP3 LT DUP2 SUB PUSH2 0x4620 JUMPI PUSH2 0x461F PUSH2 0x45C6 JUMP JUMPDEST JUMPDEST POP SWAP2 SWAP1 POP JUMP JUMPDEST PUSH1 0x0 DUP2 SWAP1 POP DUP2 PUSH1 0x0 MSTORE PUSH1 0x20 PUSH1 0x0 KECCAK256 SWAP1 POP SWAP2 SWAP1 POP JUMP JUMPDEST PUSH1 0x0 PUSH1 0x20 PUSH1 0x1F DUP4 ADD DIV SWAP1 POP SWAP2 SWAP1 POP JUMP JUMPDEST PUSH1 0x0 DUP3 DUP3 SHL SWAP1 POP SWAP3 SWAP2 POP POP JUMP JUMPDEST PUSH1 0x0 PUSH1 0x8 DUP4 MUL PUSH2 0x4688 PUSH32 0xFFFFFFFFFFFFFFFFFFFFFFFFFFFFFFFFFFFFFFFFFFFFFFFFFFFFFFFFFFFFFFFF DUP3 PUSH2 0x464B JUMP JUMPDEST PUSH2 0x4692 DUP7 DUP4 PUSH2 0x464B JUMP JUMPDEST SWAP6 POP DUP1 NOT DUP5 AND SWAP4 POP DUP1 DUP7 AND DUP5 OR SWAP3 POP POP POP SWAP4 SWAP3 POP POP POP JUMP JUMPDEST PUSH1 0x0 DUP2 SWAP1 POP SWAP2 SWAP1 POP JUMP JUMPDEST PUSH1 0x0 PUSH2 0x46CF PUSH2 0x46CA PUSH2 0x46C5 DUP5 PUSH2 0x3346 JUMP JUMPDEST PUSH2 0x46AA JUMP JUMPDEST PUSH2 0x3346 JUMP JUMPDEST SWAP1 POP SWAP2 SWAP1 POP JUMP JUMPDEST PUSH1 0x0 DUP2 SWAP1 POP SWAP2 SWAP1 POP JUMP JUMPDEST PUSH2 0x46E9 DUP4 PUSH2 0x46B4 JUMP JUMPDEST PUSH2 0x46FD PUSH2 0x46F5 DUP3 PUSH2 0x46D6 JUMP JUMPDEST DUP5 DUP5 SLOAD PUSH2 0x4658 JUMP JUMPDEST DUP3 SSTORE POP POP POP POP JUMP JUMPDEST PUSH1 0x0 SWAP1 JUMP JUMPDEST PUSH2 0x4712 PUSH2 0x4705 JUMP JUMPDEST PUSH2 0x471D DUP2 DUP5 DUP5 PUSH2 0x46E0 JUMP JUMPDEST POP POP POP JUMP JUMPDEST JUMPDEST DUP2 DUP2 LT ISZERO PUSH2 0x4741 JUMPI PUSH2 0x4736 PUSH1 0x0 DUP3 PUSH2 0x470A JUMP JUMPDEST PUSH1 0x1 DUP2 ADD SWAP1 POP PUSH2 0x4723 JUMP JUMPDEST POP POP JUMP JUMPDEST PUSH1 0x1F DUP3 GT ISZERO PUSH2 0x4786 JUMPI PUSH2 0x4757 DUP2 PUSH2 0x4626 JUMP JUMPDEST PUSH2 0x4760 DUP5 PUSH2 0x463B JUMP JUMPDEST DUP2 ADD PUSH1 0x20 DUP6 LT ISZERO PUSH2 0x476F JUMPI DUP2 SWAP1 POP JUMPDEST PUSH2 0x4783 PUSH2 0x477B DUP6 PUSH2 0x463B JUMP JUMPDEST DUP4 ADD DUP3 PUSH2 0x4722 JUMP JUMPDEST POP POP JUMPDEST POP POP POP JUMP JUMPDEST PUSH1 0x0 DUP3 DUP3 SHR SWAP1 POP SWAP3 SWAP2 POP POP JUMP JUMPDEST PUSH1 0x0 PUSH2 0x47A9 PUSH1 0x0 NOT DUP5 PUSH1 0x8 MUL PUSH2 0x478B JUMP JUMPDEST NOT DUP1 DUP4 AND SWAP2 POP POP SWAP3 SWAP2 POP POP JUMP JUMPDEST PUSH1 0x0 PUSH2 0x47C2 DUP4 DUP4 PUSH2 0x4798 JUMP JUMPDEST SWAP2 POP DUP3 PUSH1 0x2 MUL DUP3 OR SWAP1 POP SWAP3 SWAP2 POP POP JUMP JUMPDEST PUSH2 0x47DB DUP3 PUSH2 0x3D85 JUMP JUMPDEST PUSH8 0xFFFFFFFFFFFFFFFF DUP2 GT ISZERO PUSH2 0x47F4 JUMPI PUSH2 0x47F3 PUSH2 0x320C JUMP JUMPDEST JUMPDEST PUSH2 0x47FE DUP3 SLOAD PUSH2 0x45F5 JUMP JUMPDEST PUSH2 0x4809 DUP3 DUP3 DUP6 PUSH2 0x4745 JUMP JUMPDEST PUSH1 0x0 PUSH1 0x20 SWAP1 POP PUSH1 0x1F DUP4 GT PUSH1 0x1 DUP2 EQ PUSH2 0x483C JUMPI PUSH1 0x0 DUP5 ISZERO PUSH2 0x482A JUMPI DUP3 DUP8 ADD MLOAD SWAP1 POP JUMPDEST PUSH2 0x4834 DUP6 DUP3 PUSH2 0x47B6 JUMP JUMPDEST DUP7 SSTORE POP PUSH2 0x489C JUMP JUMPDEST PUSH1 0x1F NOT DUP5 AND PUSH2 0x484A DUP7 PUSH2 0x4626 JUMP JUMPDEST PUSH1 0x0 JUMPDEST DUP3 DUP2 LT ISZERO PUSH2 0x4872 JUMPI DUP5 DUP10 ADD MLOAD DUP3 SSTORE PUSH1 0x1 DUP3 ADD SWAP2 POP PUSH1 0x20 DUP6 ADD SWAP5 POP PUSH1 0x20 DUP2 ADD SWAP1 POP PUSH2 0x484D JUMP JUMPDEST DUP7 DUP4 LT ISZERO PUSH2 0x488F JUMPI DUP5 DUP10 ADD MLOAD PUSH2 0x488B PUSH1 0x1F DUP10 AND DUP3 PUSH2 0x4798 JUMP JUMPDEST DUP4 SSTORE POP JUMPDEST PUSH1 0x1 PUSH1 0x2 DUP9 MUL ADD DUP9 SSTORE POP POP POP JUMPDEST POP POP POP POP POP POP JUMP JUMPDEST PUSH1 0x0 PUSH1 0x40 DUP3 ADD SWAP1 POP PUSH2 0x48B9 PUSH1 0x0 DUP4 ADD DUP6 PUSH2 0x455A JUMP JUMPDEST PUSH2 0x48C6 PUSH1 0x20 DUP4 ADD DUP5 PUSH2 0x455A JUMP JUMPDEST SWAP4 SWAP3 POP POP POP JUMP INVALID LOG2 PUSH5 0x6970667358 0x22 SLT KECCAK256 0xE6 SGT MSTORE8 LOG1 INVALID 0x4C MSIZE CALLVALUE JUMPI 0x5C SUB PUSH5 0xB5AA847923 CALLER DUP9 0xDC 0xEB SWAP13 0xC5 0xC2 0x5F 0xE1 PUSH18 0x673F29457A64736F6C634300081100336080 PUSH1 0x40 MSTORE CALLVALUE DUP1 ISZERO PUSH2 0x10 JUMPI PUSH1 0x0 DUP1 REVERT JUMPDEST POP PUSH1 0x40 MLOAD PUSH2 0x605 CODESIZE SUB DUP1 PUSH2 0x605 DUP4 CODECOPY DUP2 DUP2 ADD PUSH1 0x40 MSTORE DUP2 ADD SWAP1 PUSH2 0x32 SWAP2 SWAP1 PUSH2 0xDB JUMP JUMPDEST DUP1 PUSH1 0x0 DUP1 PUSH2 0x100 EXP DUP2 SLOAD DUP2 PUSH20 0xFFFFFFFFFFFFFFFFFFFFFFFFFFFFFFFFFFFFFFFF MUL NOT AND SWAP1 DUP4 PUSH20 0xFFFFFFFFFFFFFFFFFFFFFFFFFFFFFFFFFFFFFFFF AND MUL OR SWAP1 SSTORE POP POP PUSH2 0x108 JUMP JUMPDEST PUSH1 0x0 DUP1 REVERT JUMPDEST PUSH1 0x0 PUSH20 0xFFFFFFFFFFFFFFFFFFFFFFFFFFFFFFFFFFFFFFFF DUP3 AND SWAP1 POP SWAP2 SWAP1 POP JUMP JUMPDEST PUSH1 0x0 PUSH2 0xA8 DUP3 PUSH2 0x7D JUMP JUMPDEST SWAP1 POP SWAP2 SWAP1 POP JUMP JUMPDEST PUSH2 0xB8 DUP2 PUSH2 0x9D JUMP JUMPDEST DUP2 EQ PUSH2 0xC3 JUMPI PUSH1 0x0 DUP1 REVERT JUMPDEST POP JUMP JUMPDEST PUSH1 0x0 DUP2 MLOAD SWAP1 POP PUSH2 0xD5 DUP2 PUSH2 0xAF JUMP JUMPDEST SWAP3 SWAP2 POP POP JUMP JUMPDEST PUSH1 0x0 PUSH1 0x20 DUP3 DUP5 SUB SLT ISZERO PUSH2 0xF1 JUMPI PUSH2 0xF0 PUSH2 0x78 JUMP JUMPDEST JUMPDEST PUSH1 0x0 PUSH2 0xFF DUP5 DUP3 DUP6 ADD PUSH2 0xC6 JUMP JUMPDEST SWAP2 POP POP SWAP3 SWAP2 POP POP JUMP JUMPDEST PUSH2 0x4EE DUP1 PUSH2 0x117 PUSH1 0x0 CODECOPY PUSH1 0x0 RETURN INVALID PUSH1 0x80 PUSH1 0x40 MSTORE CALLVALUE DUP1 ISZERO PUSH2 0x10 JUMPI PUSH1 0x0 DUP1 REVERT JUMPDEST POP PUSH1 0x4 CALLDATASIZE LT PUSH2 0x41 JUMPI PUSH1 0x0 CALLDATALOAD PUSH1 0xE0 SHR DUP1 PUSH4 0x18A231A9 EQ PUSH2 0x46 JUMPI DUP1 PUSH4 0x63A9C3D7 EQ PUSH2 0x64 JUMPI DUP1 PUSH4 0x6D263CEB EQ PUSH2 0x94 JUMPI JUMPDEST PUSH1 0x0 DUP1 REVERT JUMPDEST PUSH2 0x4E PUSH2 0xB0 JUMP JUMPDEST PUSH1 0x40 MLOAD PUSH2 0x5B SWAP2 SWAP1 PUSH2 0x402 JUMP JUMPDEST PUSH1 0x40 MLOAD DUP1 SWAP2 SUB SWAP1 RETURN JUMPDEST PUSH2 0x7E PUSH1 0x4 DUP1 CALLDATASIZE SUB DUP2 ADD SWAP1 PUSH2 0x79 SWAP2 SWAP1 PUSH2 0x455 JUMP JUMPDEST PUSH2 0x196 JUMP JUMPDEST PUSH1 0x40 MLOAD PUSH2 0x8B SWAP2 SWAP1 PUSH2 0x49D JUMP JUMPDEST PUSH1 0x40 MLOAD DUP1 SWAP2 SUB SWAP1 RETURN JUMPDEST PUSH2 0xAE PUSH1 0x4 DUP1 CALLDATASIZE SUB DUP2 ADD SWAP1 PUSH2 0xA9 SWAP2 SWAP1 PUSH2 0x455 JUMP JUMPDEST PUSH2 0x1FD JUMP JUMPDEST STOP JUMPDEST PUSH1 0x60 PUSH1 0x0 DUP1 SLOAD SWAP1 PUSH2 0x100 EXP SWAP1 DIV PUSH20 0xFFFFFFFFFFFFFFFFFFFFFFFFFFFFFFFFFFFFFFFF AND PUSH20 0xFFFFFFFFFFFFFFFFFFFFFFFFFFFFFFFFFFFFFFFF AND CALLER PUSH20 0xFFFFFFFFFFFFFFFFFFFFFFFFFFFFFFFFFFFFFFFF AND EQ PUSH2 0x10A JUMPI PUSH1 0x0 DUP1 REVERT JUMPDEST PUSH1 0x1 DUP1 SLOAD DUP1 PUSH1 0x20 MUL PUSH1 0x20 ADD PUSH1 0x40 MLOAD SWAP1 DUP2 ADD PUSH1 0x40 MSTORE DUP1 SWAP3 SWAP2 SWAP1 DUP2 DUP2 MSTORE PUSH1 0x20 ADD DUP3 DUP1 SLOAD DUP1 ISZERO PUSH2 0x18C JUMPI PUSH1 0x20 MUL DUP3 ADD SWAP2 SWAP1 PUSH1 0x0 MSTORE PUSH1 0x20 PUSH1 0x0 KECCAK256 SWAP1 JUMPDEST DUP2 PUSH1 0x0 SWAP1 SLOAD SWAP1 PUSH2 0x100 EXP SWAP1 DIV PUSH20 0xFFFFFFFFFFFFFFFFFFFFFFFFFFFFFFFFFFFFFFFF AND PUSH20 0xFFFFFFFFFFFFFFFFFFFFFFFFFFFFFFFFFFFFFFFF AND DUP2 MSTORE PUSH1 0x20 ADD SWAP1 PUSH1 0x1 ADD SWAP1 DUP1 DUP4 GT PUSH2 0x142 JUMPI JUMPDEST POP POP POP POP POP SWAP1 POP SWAP1 JUMP JUMPDEST PUSH1 0x0 PUSH1 0x2 PUSH1 0x0 DUP4 PUSH20 0xFFFFFFFFFFFFFFFFFFFFFFFFFFFFFFFFFFFFFFFF AND PUSH20 0xFFFFFFFFFFFFFFFFFFFFFFFFFFFFFFFFFFFFFFFF AND DUP2 MSTORE PUSH1 0x20 ADD SWAP1 DUP2 MSTORE PUSH1 0x20 ADD PUSH1 0x0 KECCAK256 PUSH1 0x0 SWAP1 SLOAD SWAP1 PUSH2 0x100 EXP SWAP1 DIV PUSH1 0xFF AND ISZERO PUSH2 0x1F3 JUMPI PUSH1 0x1 SWAP1 POP PUSH2 0x1F8 JUMP JUMPDEST PUSH1 0x0 SWAP1 POP JUMPDEST SWAP2 SWAP1 POP JUMP JUMPDEST PUSH1 0x2 PUSH1 0x0 DUP3 PUSH20 0xFFFFFFFFFFFFFFFFFFFFFFFFFFFFFFFFFFFFFFFF AND PUSH20 0xFFFFFFFFFFFFFFFFFFFFFFFFFFFFFFFFFFFFFFFF AND DUP2 MSTORE PUSH1 0x20 ADD SWAP1 DUP2 MSTORE PUSH1 0x20 ADD PUSH1 0x0 KECCAK256 PUSH1 0x0 SWAP1 SLOAD SWAP1 PUSH2 0x100 EXP SWAP1 DIV PUSH1 0xFF AND ISZERO PUSH2 0x254 JUMPI PUSH1 0x0 DUP1 REVERT JUMPDEST PUSH1 0x1 PUSH1 0x2 PUSH1 0x0 DUP4 PUSH20 0xFFFFFFFFFFFFFFFFFFFFFFFFFFFFFFFFFFFFFFFF AND PUSH20 0xFFFFFFFFFFFFFFFFFFFFFFFFFFFFFFFFFFFFFFFF AND DUP2 MSTORE PUSH1 0x20 ADD SWAP1 DUP2 MSTORE PUSH1 0x20 ADD PUSH1 0x0 KECCAK256 PUSH1 0x0 PUSH2 0x100 EXP DUP2 SLOAD DUP2 PUSH1 0xFF MUL NOT AND SWAP1 DUP4 ISZERO ISZERO MUL OR SWAP1 SSTORE POP PUSH1 0x1 DUP2 SWAP1 DUP1 PUSH1 0x1 DUP2 SLOAD ADD DUP1 DUP3 SSTORE DUP1 SWAP2 POP POP PUSH1 0x1 SWAP1 SUB SWAP1 PUSH1 0x0 MSTORE PUSH1 0x20 PUSH1 0x0 KECCAK256 ADD PUSH1 0x0 SWAP1 SWAP2 SWAP1 SWAP2 SWAP1 SWAP2 PUSH2 0x100 EXP DUP2 SLOAD DUP2 PUSH20 0xFFFFFFFFFFFFFFFFFFFFFFFFFFFFFFFFFFFFFFFF MUL NOT AND SWAP1 DUP4 PUSH20 0xFFFFFFFFFFFFFFFFFFFFFFFFFFFFFFFFFFFFFFFF AND MUL OR SWAP1 SSTORE POP POP JUMP JUMPDEST PUSH1 0x0 DUP2 MLOAD SWAP1 POP SWAP2 SWAP1 POP JUMP JUMPDEST PUSH1 0x0 DUP3 DUP3 MSTORE PUSH1 0x20 DUP3 ADD SWAP1 POP SWAP3 SWAP2 POP POP JUMP JUMPDEST PUSH1 0x0 DUP2 SWAP1 POP PUSH1 0x20 DUP3 ADD SWAP1 POP SWAP2 SWAP1 POP JUMP JUMPDEST PUSH1 0x0 PUSH20 0xFFFFFFFFFFFFFFFFFFFFFFFFFFFFFFFFFFFFFFFF DUP3 AND SWAP1 POP SWAP2 SWAP1 POP JUMP JUMPDEST PUSH1 0x0 PUSH2 0x369 DUP3 PUSH2 0x33E JUMP JUMPDEST SWAP1 POP SWAP2 SWAP1 POP JUMP JUMPDEST PUSH2 0x379 DUP2 PUSH2 0x35E JUMP JUMPDEST DUP3 MSTORE POP POP JUMP JUMPDEST PUSH1 0x0 PUSH2 0x38B DUP4 DUP4 PUSH2 0x370 JUMP JUMPDEST PUSH1 0x20 DUP4 ADD SWAP1 POP SWAP3 SWAP2 POP POP JUMP JUMPDEST PUSH1 0x0 PUSH1 0x20 DUP3 ADD SWAP1 POP SWAP2 SWAP1 POP JUMP JUMPDEST PUSH1 0x0 PUSH2 0x3AF DUP3 PUSH2 0x312 JUMP JUMPDEST PUSH2 0x3B9 DUP2 DUP6 PUSH2 0x31D JUMP JUMPDEST SWAP4 POP PUSH2 0x3C4 DUP4 PUSH2 0x32E JUMP JUMPDEST DUP1 PUSH1 0x0 JUMPDEST DUP4 DUP2 LT ISZERO PUSH2 0x3F5 JUMPI DUP2 MLOAD PUSH2 0x3DC DUP9 DUP3 PUSH2 0x37F JUMP JUMPDEST SWAP8 POP PUSH2 0x3E7 DUP4 PUSH2 0x397 JUMP JUMPDEST SWAP3 POP POP PUSH1 0x1 DUP2 ADD SWAP1 POP PUSH2 0x3C8 JUMP JUMPDEST POP DUP6 SWAP4 POP POP POP POP SWAP3 SWAP2 POP POP JUMP JUMPDEST PUSH1 0x0 PUSH1 0x20 DUP3 ADD SWAP1 POP DUP2 DUP2 SUB PUSH1 0x0 DUP4 ADD MSTORE PUSH2 0x41C DUP2 DUP5 PUSH2 0x3A4 JUMP JUMPDEST SWAP1 POP SWAP3 SWAP2 POP POP JUMP JUMPDEST PUSH1 0x0 DUP1 REVERT JUMPDEST PUSH2 0x432 DUP2 PUSH2 0x35E JUMP JUMPDEST DUP2 EQ PUSH2 0x43D JUMPI PUSH1 0x0 DUP1 REVERT JUMPDEST POP JUMP JUMPDEST PUSH1 0x0 DUP2 CALLDATALOAD SWAP1 POP PUSH2 0x44F DUP2 PUSH2 0x429 JUMP JUMPDEST SWAP3 SWAP2 POP POP JUMP JUMPDEST PUSH1 0x0 PUSH1 0x20 DUP3 DUP5 SUB SLT ISZERO PUSH2 0x46B JUMPI PUSH2 0x46A PUSH2 0x424 JUMP JUMPDEST JUMPDEST PUSH1 0x0 PUSH2 0x479 DUP5 DUP3 DUP6 ADD PUSH2 0x440 JUMP JUMPDEST SWAP2 POP POP SWAP3 SWAP2 POP POP JUMP JUMPDEST PUSH1 0x0 DUP2 ISZERO ISZERO SWAP1 POP SWAP2 SWAP1 POP JUMP JUMPDEST PUSH2 0x497 DUP2 PUSH2 0x482 JUMP JUMPDEST DUP3 MSTORE POP POP JUMP JUMPDEST PUSH1 0x0 PUSH1 0x20 DUP3 ADD SWAP1 POP PUSH2 0x4B2 PUSH1 0x0 DUP4 ADD DUP5 PUSH2 0x48E JUMP JUMPDEST SWAP3 SWAP2 POP POP JUMP INVALID LOG2 PUSH5 0x6970667358 0x22 SLT KECCAK256 0x4D 0xDD 0xC2 0xAA OR 0xD7 PUSH32 0x6CC21CCF5E8AD852C0CA0A2F03EEC8F5CFEED6D4C397F8A19064736F6C634300 ADDMOD GT STOP CALLER PUSH1 0x80 PUSH1 0x40 MSTORE CALLVALUE DUP1 ISZERO PUSH2 0x10 JUMPI PUSH1 0x0 DUP1 REVERT JUMPDEST POP PUSH1 0x40 MLOAD PUSH2 0x65D CODESIZE SUB DUP1 PUSH2 0x65D DUP4 CODECOPY DUP2 DUP2 ADD PUSH1 0x40 MSTORE DUP2 ADD SWAP1 PUSH2 0x32 SWAP2 SWAP1 PUSH2 0xDB JUMP JUMPDEST DUP1 PUSH1 0x0 DUP1 PUSH2 0x100 EXP DUP2 SLOAD DUP2 PUSH20 0xFFFFFFFFFFFFFFFFFFFFFFFFFFFFFFFFFFFFFFFF MUL NOT AND SWAP1 DUP4 PUSH20 0xFFFFFFFFFFFFFFFFFFFFFFFFFFFFFFFFFFFFFFFF AND MUL OR SWAP1 SSTORE POP POP PUSH2 0x108 JUMP JUMPDEST PUSH1 0x0 DUP1 REVERT JUMPDEST PUSH1 0x0 PUSH20 0xFFFFFFFFFFFFFFFFFFFFFFFFFFFFFFFFFFFFFFFF DUP3 AND SWAP1 POP SWAP2 SWAP1 POP JUMP JUMPDEST PUSH1 0x0 PUSH2 0xA8 DUP3 PUSH2 0x7D JUMP JUMPDEST SWAP1 POP SWAP2 SWAP1 POP JUMP JUMPDEST PUSH2 0xB8 DUP2 PUSH2 0x9D JUMP JUMPDEST DUP2 EQ PUSH2 0xC3 JUMPI PUSH1 0x0 DUP1 REVERT JUMPDEST POP JUMP JUMPDEST PUSH1 0x0 DUP2 MLOAD SWAP1 POP PUSH2 0xD5 DUP2 PUSH2 0xAF JUMP JUMPDEST SWAP3 SWAP2 POP POP JUMP JUMPDEST PUSH1 0x0 PUSH1 0x20 DUP3 DUP5 SUB SLT ISZERO PUSH2 0xF1 JUMPI PUSH2 0xF0 PUSH2 0x78 JUMP JUMPDEST JUMPDEST PUSH1 0x0 PUSH2 0xFF DUP5 DUP3 DUP6 ADD PUSH2 0xC6 JUMP JUMPDEST SWAP2 POP POP SWAP3 SWAP2 POP POP JUMP JUMPDEST PUSH2 0x546 DUP1 PUSH2 0x117 PUSH1 0x0 CODECOPY PUSH1 0x0 RETURN INVALID PUSH1 0x80 PUSH1 0x40 MSTORE CALLVALUE DUP1 ISZERO PUSH2 0x10 JUMPI PUSH1 0x0 DUP1 REVERT JUMPDEST POP PUSH1 0x4 CALLDATASIZE LT PUSH2 0x41 JUMPI PUSH1 0x0 CALLDATALOAD PUSH1 0xE0 SHR DUP1 PUSH4 0x4780468F EQ PUSH2 0x46 JUMPI DUP1 PUSH4 0x63A9C3D7 EQ PUSH2 0x62 JUMPI DUP1 PUSH4 0xF0D95090 EQ PUSH2 0x92 JUMPI JUMPDEST PUSH1 0x0 DUP1 REVERT JUMPDEST PUSH2 0x60 PUSH1 0x4 DUP1 CALLDATASIZE SUB DUP2 ADD SWAP1 PUSH2 0x5B SWAP2 SWAP1 PUSH2 0x3CD JUMP JUMPDEST PUSH2 0xB0 JUMP JUMPDEST STOP JUMPDEST PUSH2 0x7C PUSH1 0x4 DUP1 CALLDATASIZE SUB DUP2 ADD SWAP1 PUSH2 0x77 SWAP2 SWAP1 PUSH2 0x3CD JUMP JUMPDEST PUSH2 0x21D JUMP JUMPDEST PUSH1 0x40 MLOAD PUSH2 0x89 SWAP2 SWAP1 PUSH2 0x415 JUMP JUMPDEST PUSH1 0x40 MLOAD DUP1 SWAP2 SUB SWAP1 RETURN JUMPDEST PUSH2 0x9A PUSH2 0x284 JUMP JUMPDEST PUSH1 0x40 MLOAD PUSH2 0xA7 SWAP2 SWAP1 PUSH2 0x4EE JUMP JUMPDEST PUSH1 0x40 MLOAD DUP1 SWAP2 SUB SWAP1 RETURN JUMPDEST PUSH1 0x0 DUP1 SLOAD SWAP1 PUSH2 0x100 EXP SWAP1 DIV PUSH20 0xFFFFFFFFFFFFFFFFFFFFFFFFFFFFFFFFFFFFFFFF AND PUSH20 0xFFFFFFFFFFFFFFFFFFFFFFFFFFFFFFFFFFFFFFFF AND CALLER PUSH20 0xFFFFFFFFFFFFFFFFFFFFFFFFFFFFFFFFFFFFFFFF AND EQ PUSH2 0x108 JUMPI PUSH1 0x0 DUP1 REVERT JUMPDEST PUSH1 0x2 PUSH1 0x0 DUP3 PUSH20 0xFFFFFFFFFFFFFFFFFFFFFFFFFFFFFFFFFFFFFFFF AND PUSH20 0xFFFFFFFFFFFFFFFFFFFFFFFFFFFFFFFFFFFFFFFF AND DUP2 MSTORE PUSH1 0x20 ADD SWAP1 DUP2 MSTORE PUSH1 0x20 ADD PUSH1 0x0 KECCAK256 PUSH1 0x0 SWAP1 SLOAD SWAP1 PUSH2 0x100 EXP SWAP1 DIV PUSH1 0xFF AND ISZERO PUSH2 0x15F JUMPI PUSH1 0x0 DUP1 REVERT JUMPDEST PUSH1 0x1 PUSH1 0x2 PUSH1 0x0 DUP4 PUSH20 0xFFFFFFFFFFFFFFFFFFFFFFFFFFFFFFFFFFFFFFFF AND PUSH20 0xFFFFFFFFFFFFFFFFFFFFFFFFFFFFFFFFFFFFFFFF AND DUP2 MSTORE PUSH1 0x20 ADD SWAP1 DUP2 MSTORE PUSH1 0x20 ADD PUSH1 0x0 KECCAK256 PUSH1 0x0 PUSH2 0x100 EXP DUP2 SLOAD DUP2 PUSH1 0xFF MUL NOT AND SWAP1 DUP4 ISZERO ISZERO MUL OR SWAP1 SSTORE POP PUSH1 0x1 DUP2 SWAP1 DUP1 PUSH1 0x1 DUP2 SLOAD ADD DUP1 DUP3 SSTORE DUP1 SWAP2 POP POP PUSH1 0x1 SWAP1 SUB SWAP1 PUSH1 0x0 MSTORE PUSH1 0x20 PUSH1 0x0 KECCAK256 ADD PUSH1 0x0 SWAP1 SWAP2 SWAP1 SWAP2 SWAP1 SWAP2 PUSH2 0x100 EXP DUP2 SLOAD DUP2 PUSH20 0xFFFFFFFFFFFFFFFFFFFFFFFFFFFFFFFFFFFFFFFF MUL NOT AND SWAP1 DUP4 PUSH20 0xFFFFFFFFFFFFFFFFFFFFFFFFFFFFFFFFFFFFFFFF AND MUL OR SWAP1 SSTORE POP POP JUMP JUMPDEST PUSH1 0x0 PUSH1 0x2 PUSH1 0x0 DUP4 PUSH20 0xFFFFFFFFFFFFFFFFFFFFFFFFFFFFFFFFFFFFFFFF AND PUSH20 0xFFFFFFFFFFFFFFFFFFFFFFFFFFFFFFFFFFFFFFFF AND DUP2 MSTORE PUSH1 0x20 ADD SWAP1 DUP2 MSTORE PUSH1 0x20 ADD PUSH1 0x0 KECCAK256 PUSH1 0x0 SWAP1 SLOAD SWAP1 PUSH2 0x100 EXP SWAP1 DIV PUSH1 0xFF AND ISZERO PUSH2 0x27A JUMPI PUSH1 0x1 SWAP1 POP PUSH2 0x27F JUMP JUMPDEST PUSH1 0x0 SWAP1 POP JUMPDEST SWAP2 SWAP1 POP JUMP JUMPDEST PUSH1 0x60 PUSH1 0x0 DUP1 SLOAD SWAP1 PUSH2 0x100 EXP SWAP1 DIV PUSH20 0xFFFFFFFFFFFFFFFFFFFFFFFFFFFFFFFFFFFFFFFF AND PUSH20 0xFFFFFFFFFFFFFFFFFFFFFFFFFFFFFFFFFFFFFFFF AND CALLER PUSH20 0xFFFFFFFFFFFFFFFFFFFFFFFFFFFFFFFFFFFFFFFF AND EQ PUSH2 0x2DE JUMPI PUSH1 0x0 DUP1 REVERT JUMPDEST PUSH1 0x1 DUP1 SLOAD DUP1 PUSH1 0x20 MUL PUSH1 0x20 ADD PUSH1 0x40 MLOAD SWAP1 DUP2 ADD PUSH1 0x40 MSTORE DUP1 SWAP3 SWAP2 SWAP1 DUP2 DUP2 MSTORE PUSH1 0x20 ADD DUP3 DUP1 SLOAD DUP1 ISZERO PUSH2 0x360 JUMPI PUSH1 0x20 MUL DUP3 ADD SWAP2 SWAP1 PUSH1 0x0 MSTORE PUSH1 0x20 PUSH1 0x0 KECCAK256 SWAP1 JUMPDEST DUP2 PUSH1 0x0 SWAP1 SLOAD SWAP1 PUSH2 0x100 EXP SWAP1 DIV PUSH20 0xFFFFFFFFFFFFFFFFFFFFFFFFFFFFFFFFFFFFFFFF AND PUSH20 0xFFFFFFFFFFFFFFFFFFFFFFFFFFFFFFFFFFFFFFFF AND DUP2 MSTORE PUSH1 0x20 ADD SWAP1 PUSH1 0x1 ADD SWAP1 DUP1 DUP4 GT PUSH2 0x316 JUMPI JUMPDEST POP POP POP POP POP SWAP1 POP SWAP1 JUMP JUMPDEST PUSH1 0x0 DUP1 REVERT JUMPDEST PUSH1 0x0 PUSH20 0xFFFFFFFFFFFFFFFFFFFFFFFFFFFFFFFFFFFFFFFF DUP3 AND SWAP1 POP SWAP2 SWAP1 POP JUMP JUMPDEST PUSH1 0x0 PUSH2 0x39A DUP3 PUSH2 0x36F JUMP JUMPDEST SWAP1 POP SWAP2 SWAP1 POP JUMP JUMPDEST PUSH2 0x3AA DUP2 PUSH2 0x38F JUMP JUMPDEST DUP2 EQ PUSH2 0x3B5 JUMPI PUSH1 0x0 DUP1 REVERT JUMPDEST POP JUMP JUMPDEST PUSH1 0x0 DUP2 CALLDATALOAD SWAP1 POP PUSH2 0x3C7 DUP2 PUSH2 0x3A1 JUMP JUMPDEST SWAP3 SWAP2 POP POP JUMP JUMPDEST PUSH1 0x0 PUSH1 0x20 DUP3 DUP5 SUB SLT ISZERO PUSH2 0x3E3 JUMPI PUSH2 0x3E2 PUSH2 0x36A JUMP JUMPDEST JUMPDEST PUSH1 0x0 PUSH2 0x3F1 DUP5 DUP3 DUP6 ADD PUSH2 0x3B8 JUMP JUMPDEST SWAP2 POP POP SWAP3 SWAP2 POP POP JUMP JUMPDEST PUSH1 0x0 DUP2 ISZERO ISZERO SWAP1 POP SWAP2 SWAP1 POP JUMP JUMPDEST PUSH2 0x40F DUP2 PUSH2 0x3FA JUMP JUMPDEST DUP3 MSTORE POP POP JUMP JUMPDEST PUSH1 0x0 PUSH1 0x20 DUP3 ADD SWAP1 POP PUSH2 0x42A PUSH1 0x0 DUP4 ADD DUP5 PUSH2 0x406 JUMP JUMPDEST SWAP3 SWAP2 POP POP JUMP JUMPDEST PUSH1 0x0 DUP2 MLOAD SWAP1 POP SWAP2 SWAP1 POP JUMP JUMPDEST PUSH1 0x0 DUP3 DUP3 MSTORE PUSH1 0x20 DUP3 ADD SWAP1 POP SWAP3 SWAP2 POP POP JUMP JUMPDEST PUSH1 0x0 DUP2 SWAP1 POP PUSH1 0x20 DUP3 ADD SWAP1 POP SWAP2 SWAP1 POP JUMP JUMPDEST PUSH2 0x465 DUP2 PUSH2 0x38F JUMP JUMPDEST DUP3 MSTORE POP POP JUMP JUMPDEST PUSH1 0x0 PUSH2 0x477 DUP4 DUP4 PUSH2 0x45C JUMP JUMPDEST PUSH1 0x20 DUP4 ADD SWAP1 POP SWAP3 SWAP2 POP POP JUMP JUMPDEST PUSH1 0x0 PUSH1 0x20 DUP3 ADD SWAP1 POP SWAP2 SWAP1 POP JUMP JUMPDEST PUSH1 0x0 PUSH2 0x49B DUP3 PUSH2 0x430 JUMP JUMPDEST PUSH2 0x4A5 DUP2 DUP6 PUSH2 0x43B JUMP JUMPDEST SWAP4 POP PUSH2 0x4B0 DUP4 PUSH2 0x44C JUMP JUMPDEST DUP1 PUSH1 0x0 JUMPDEST DUP4 DUP2 LT ISZERO PUSH2 0x4E1 JUMPI DUP2 MLOAD PUSH2 0x4C8 DUP9 DUP3 PUSH2 0x46B JUMP JUMPDEST SWAP8 POP PUSH2 0x4D3 DUP4 PUSH2 0x483 JUMP JUMPDEST SWAP3 POP POP PUSH1 0x1 DUP2 ADD SWAP1 POP PUSH2 0x4B4 JUMP JUMPDEST POP DUP6 SWAP4 POP POP POP POP SWAP3 SWAP2 POP POP JUMP JUMPDEST PUSH1 0x0 PUSH1 0x20 DUP3 ADD SWAP1 POP DUP2 DUP2 SUB PUSH1 0x0 DUP4 ADD MSTORE PUSH2 0x508 DUP2 DUP5 PUSH2 0x490 JUMP JUMPDEST SWAP1 POP SWAP3 SWAP2 POP POP JUMP INVALID LOG2 PUSH5 0x6970667358 0x22 SLT KECCAK256 SLOAD SLOAD KECCAK256 0x23 0x2E 0x29 0x49 0xD5 0xDC 0xCE 0xD 0xEA 0x5E DUP7 0xB3 0x5C NUMBER CHAINID 0x49 SLT GAS SAR 0x29 PUSH8 0x443D4EEB1C69FB90 PUSH5 0x736F6C6343 STOP ADDMOD GT STOP CALLER PUSH1 0x80 PUSH1 0x40 MSTORE CALLVALUE DUP1 ISZERO PUSH2 0x10 JUMPI PUSH1 0x0 DUP1 REVERT JUMPDEST POP PUSH1 0x40 MLOAD PUSH2 0x795 CODESIZE SUB DUP1 PUSH2 0x795 DUP4 CODECOPY DUP2 DUP2 ADD PUSH1 0x40 MSTORE DUP2 ADD SWAP1 PUSH2 0x32 SWAP2 SWAP1 PUSH2 0xDB JUMP JUMPDEST DUP1 PUSH1 0x0 DUP1 PUSH2 0x100 EXP DUP2 SLOAD DUP2 PUSH20 0xFFFFFFFFFFFFFFFFFFFFFFFFFFFFFFFFFFFFFFFF MUL NOT AND SWAP1 DUP4 PUSH20 0xFFFFFFFFFFFFFFFFFFFFFFFFFFFFFFFFFFFFFFFF AND MUL OR SWAP1 SSTORE POP POP PUSH2 0x108 JUMP JUMPDEST PUSH1 0x0 DUP1 REVERT JUMPDEST PUSH1 0x0 PUSH20 0xFFFFFFFFFFFFFFFFFFFFFFFFFFFFFFFFFFFFFFFF DUP3 AND SWAP1 POP SWAP2 SWAP1 POP JUMP JUMPDEST PUSH1 0x0 PUSH2 0xA8 DUP3 PUSH2 0x7D JUMP JUMPDEST SWAP1 POP SWAP2 SWAP1 POP JUMP JUMPDEST PUSH2 0xB8 DUP2 PUSH2 0x9D JUMP JUMPDEST DUP2 EQ PUSH2 0xC3 JUMPI PUSH1 0x0 DUP1 REVERT JUMPDEST POP JUMP JUMPDEST PUSH1 0x0 DUP2 MLOAD SWAP1 POP PUSH2 0xD5 DUP2 PUSH2 0xAF JUMP JUMPDEST SWAP3 SWAP2 POP POP JUMP JUMPDEST PUSH1 0x0 PUSH1 0x20 DUP3 DUP5 SUB SLT ISZERO PUSH2 0xF1 JUMPI PUSH2 0xF0 PUSH2 0x78 JUMP JUMPDEST JUMPDEST PUSH1 0x0 PUSH2 0xFF DUP5 DUP3 DUP6 ADD PUSH2 0xC6 JUMP JUMPDEST SWAP2 POP POP SWAP3 SWAP2 POP POP JUMP JUMPDEST PUSH2 0x67E DUP1 PUSH2 0x117 PUSH1 0x0 CODECOPY PUSH1 0x0 RETURN INVALID PUSH1 0x80 PUSH1 0x40 MSTORE CALLVALUE DUP1 ISZERO PUSH2 0x10 JUMPI PUSH1 0x0 DUP1 REVERT JUMPDEST POP PUSH1 0x4 CALLDATASIZE LT PUSH2 0x41 JUMPI PUSH1 0x0 CALLDATALOAD PUSH1 0xE0 SHR DUP1 PUSH4 0x1107747E EQ PUSH2 0x46 JUMPI DUP1 PUSH4 0x8BFC8C71 EQ PUSH2 0x62 JUMPI DUP1 PUSH4 0xF40941D0 EQ PUSH2 0x7E JUMPI JUMPDEST PUSH1 0x0 DUP1 REVERT JUMPDEST PUSH2 0x60 PUSH1 0x4 DUP1 CALLDATASIZE SUB DUP2 ADD SWAP1 PUSH2 0x5B SWAP2 SWAP1 PUSH2 0x46C JUMP JUMPDEST PUSH2 0xAE JUMP JUMPDEST STOP JUMPDEST PUSH2 0x7C PUSH1 0x4 DUP1 CALLDATASIZE SUB DUP2 ADD SWAP1 PUSH2 0x77 SWAP2 SWAP1 PUSH2 0x499 JUMP JUMPDEST PUSH2 0x14A JUMP JUMPDEST STOP JUMPDEST PUSH2 0x98 PUSH1 0x4 DUP1 CALLDATASIZE SUB DUP2 ADD SWAP1 PUSH2 0x93 SWAP2 SWAP1 PUSH2 0x46C JUMP JUMPDEST PUSH2 0x295 JUMP JUMPDEST PUSH1 0x40 MLOAD PUSH2 0xA5 SWAP2 SWAP1 PUSH2 0x597 JUMP JUMPDEST PUSH1 0x40 MLOAD DUP1 SWAP2 SUB SWAP1 RETURN JUMPDEST PUSH1 0x0 DUP1 SLOAD SWAP1 PUSH2 0x100 EXP SWAP1 DIV PUSH20 0xFFFFFFFFFFFFFFFFFFFFFFFFFFFFFFFFFFFFFFFF AND PUSH20 0xFFFFFFFFFFFFFFFFFFFFFFFFFFFFFFFFFFFFFFFF AND CALLER PUSH20 0xFFFFFFFFFFFFFFFFFFFFFFFFFFFFFFFFFFFFFFFF AND EQ PUSH2 0x106 JUMPI PUSH1 0x0 DUP1 REVERT JUMPDEST DUP1 PUSH1 0x2 PUSH1 0x0 PUSH2 0x100 EXP DUP2 SLOAD DUP2 PUSH20 0xFFFFFFFFFFFFFFFFFFFFFFFFFFFFFFFFFFFFFFFF MUL NOT AND SWAP1 DUP4 PUSH20 0xFFFFFFFFFFFFFFFFFFFFFFFFFFFFFFFFFFFFFFFF AND MUL OR SWAP1 SSTORE POP POP JUMP JUMPDEST DUP2 PUSH1 0x2 PUSH1 0x0 SWAP1 SLOAD SWAP1 PUSH2 0x100 EXP SWAP1 DIV PUSH20 0xFFFFFFFFFFFFFFFFFFFFFFFFFFFFFFFFFFFFFFFF AND PUSH20 0xFFFFFFFFFFFFFFFFFFFFFFFFFFFFFFFFFFFFFFFF AND PUSH4 0x63A9C3D7 DUP3 PUSH1 0x40 MLOAD DUP3 PUSH4 0xFFFFFFFF AND PUSH1 0xE0 SHL DUP2 MSTORE PUSH1 0x4 ADD PUSH2 0x1A6 SWAP2 SWAP1 PUSH2 0x5C8 JUMP JUMPDEST PUSH1 0x20 PUSH1 0x40 MLOAD DUP1 DUP4 SUB DUP2 DUP7 GAS STATICCALL ISZERO DUP1 ISZERO PUSH2 0x1C3 JUMPI RETURNDATASIZE PUSH1 0x0 DUP1 RETURNDATACOPY RETURNDATASIZE PUSH1 0x0 REVERT JUMPDEST POP POP POP POP PUSH1 0x40 MLOAD RETURNDATASIZE PUSH1 0x1F NOT PUSH1 0x1F DUP3 ADD AND DUP3 ADD DUP1 PUSH1 0x40 MSTORE POP DUP2 ADD SWAP1 PUSH2 0x1E7 SWAP2 SWAP1 PUSH2 0x61B JUMP JUMPDEST PUSH2 0x1F0 JUMPI PUSH1 0x0 DUP1 REVERT JUMPDEST PUSH1 0x1 PUSH1 0x0 DUP5 PUSH20 0xFFFFFFFFFFFFFFFFFFFFFFFFFFFFFFFFFFFFFFFF AND PUSH20 0xFFFFFFFFFFFFFFFFFFFFFFFFFFFFFFFFFFFFFFFF AND DUP2 MSTORE PUSH1 0x20 ADD SWAP1 DUP2 MSTORE PUSH1 0x20 ADD PUSH1 0x0 KECCAK256 DUP3 SWAP1 DUP1 PUSH1 0x1 DUP2 SLOAD ADD DUP1 DUP3 SSTORE DUP1 SWAP2 POP POP PUSH1 0x1 SWAP1 SUB SWAP1 PUSH1 0x0 MSTORE PUSH1 0x20 PUSH1 0x0 KECCAK256 ADD PUSH1 0x0 SWAP1 SWAP2 SWAP1 SWAP2 SWAP1 SWAP2 PUSH2 0x100 EXP DUP2 SLOAD DUP2 PUSH20 0xFFFFFFFFFFFFFFFFFFFFFFFFFFFFFFFFFFFFFFFF MUL NOT AND SWAP1 DUP4 PUSH20 0xFFFFFFFFFFFFFFFFFFFFFFFFFFFFFFFFFFFFFFFF AND MUL OR SWAP1 SSTORE POP POP POP POP JUMP JUMPDEST PUSH1 0x60 CALLER PUSH1 0x2 PUSH1 0x0 SWAP1 SLOAD SWAP1 PUSH2 0x100 EXP SWAP1 DIV PUSH20 0xFFFFFFFFFFFFFFFFFFFFFFFFFFFFFFFFFFFFFFFF AND PUSH20 0xFFFFFFFFFFFFFFFFFFFFFFFFFFFFFFFFFFFFFFFF AND PUSH4 0x63A9C3D7 DUP3 PUSH1 0x40 MLOAD DUP3 PUSH4 0xFFFFFFFF AND PUSH1 0xE0 SHL DUP2 MSTORE PUSH1 0x4 ADD PUSH2 0x2F3 SWAP2 SWAP1 PUSH2 0x5C8 JUMP JUMPDEST PUSH1 0x20 PUSH1 0x40 MLOAD DUP1 DUP4 SUB DUP2 DUP7 GAS STATICCALL ISZERO DUP1 ISZERO PUSH2 0x310 JUMPI RETURNDATASIZE PUSH1 0x0 DUP1 RETURNDATACOPY RETURNDATASIZE PUSH1 0x0 REVERT JUMPDEST POP POP POP POP PUSH1 0x40 MLOAD RETURNDATASIZE PUSH1 0x1F NOT PUSH1 0x1F DUP3 ADD AND DUP3 ADD DUP1 PUSH1 0x40 MSTORE POP DUP2 ADD SWAP1 PUSH2 0x334 SWAP2 SWAP1 PUSH2 0x61B JUMP JUMPDEST PUSH2 0x33D JUMPI PUSH1 0x0 DUP1 REVERT JUMPDEST PUSH1 0x1 PUSH1 0x0 DUP5 PUSH20 0xFFFFFFFFFFFFFFFFFFFFFFFFFFFFFFFFFFFFFFFF AND PUSH20 0xFFFFFFFFFFFFFFFFFFFFFFFFFFFFFFFFFFFFFFFF AND DUP2 MSTORE PUSH1 0x20 ADD SWAP1 DUP2 MSTORE PUSH1 0x20 ADD PUSH1 0x0 KECCAK256 DUP1 SLOAD DUP1 PUSH1 0x20 MUL PUSH1 0x20 ADD PUSH1 0x40 MLOAD SWAP1 DUP2 ADD PUSH1 0x40 MSTORE DUP1 SWAP3 SWAP2 SWAP1 DUP2 DUP2 MSTORE PUSH1 0x20 ADD DUP3 DUP1 SLOAD DUP1 ISZERO PUSH2 0x3FC JUMPI PUSH1 0x20 MUL DUP3 ADD SWAP2 SWAP1 PUSH1 0x0 MSTORE PUSH1 0x20 PUSH1 0x0 KECCAK256 SWAP1 JUMPDEST DUP2 PUSH1 0x0 SWAP1 SLOAD SWAP1 PUSH2 0x100 EXP SWAP1 DIV PUSH20 0xFFFFFFFFFFFFFFFFFFFFFFFFFFFFFFFFFFFFFFFF AND PUSH20 0xFFFFFFFFFFFFFFFFFFFFFFFFFFFFFFFFFFFFFFFF AND DUP2 MSTORE PUSH1 0x20 ADD SWAP1 PUSH1 0x1 ADD SWAP1 DUP1 DUP4 GT PUSH2 0x3B2 JUMPI JUMPDEST POP POP POP POP POP SWAP2 POP POP SWAP2 SWAP1 POP JUMP JUMPDEST PUSH1 0x0 DUP1 REVERT JUMPDEST PUSH1 0x0 PUSH20 0xFFFFFFFFFFFFFFFFFFFFFFFFFFFFFFFFFFFFFFFF DUP3 AND SWAP1 POP SWAP2 SWAP1 POP JUMP JUMPDEST PUSH1 0x0 PUSH2 0x439 DUP3 PUSH2 0x40E JUMP JUMPDEST SWAP1 POP SWAP2 SWAP1 POP JUMP JUMPDEST PUSH2 0x449 DUP2 PUSH2 0x42E JUMP JUMPDEST DUP2 EQ PUSH2 0x454 JUMPI PUSH1 0x0 DUP1 REVERT JUMPDEST POP JUMP JUMPDEST PUSH1 0x0 DUP2 CALLDATALOAD SWAP1 POP PUSH2 0x466 DUP2 PUSH2 0x440 JUMP JUMPDEST SWAP3 SWAP2 POP POP JUMP JUMPDEST PUSH1 0x0 PUSH1 0x20 DUP3 DUP5 SUB SLT ISZERO PUSH2 0x482 JUMPI PUSH2 0x481 PUSH2 0x409 JUMP JUMPDEST JUMPDEST PUSH1 0x0 PUSH2 0x490 DUP5 DUP3 DUP6 ADD PUSH2 0x457 JUMP JUMPDEST SWAP2 POP POP SWAP3 SWAP2 POP POP JUMP JUMPDEST PUSH1 0x0 DUP1 PUSH1 0x40 DUP4 DUP6 SUB SLT ISZERO PUSH2 0x4B0 JUMPI PUSH2 0x4AF PUSH2 0x409 JUMP JUMPDEST JUMPDEST PUSH1 0x0 PUSH2 0x4BE DUP6 DUP3 DUP7 ADD PUSH2 0x457 JUMP JUMPDEST SWAP3 POP POP PUSH1 0x20 PUSH2 0x4CF DUP6 DUP3 DUP7 ADD PUSH2 0x457 JUMP JUMPDEST SWAP2 POP POP SWAP3 POP SWAP3 SWAP1 POP JUMP JUMPDEST PUSH1 0x0 DUP2 MLOAD SWAP1 POP SWAP2 SWAP1 POP JUMP JUMPDEST PUSH1 0x0 DUP3 DUP3 MSTORE PUSH1 0x20 DUP3 ADD SWAP1 POP SWAP3 SWAP2 POP POP JUMP JUMPDEST PUSH1 0x0 DUP2 SWAP1 POP PUSH1 0x20 DUP3 ADD SWAP1 POP SWAP2 SWAP1 POP JUMP JUMPDEST PUSH2 0x50E DUP2 PUSH2 0x42E JUMP JUMPDEST DUP3 MSTORE POP POP JUMP JUMPDEST PUSH1 0x0 PUSH2 0x520 DUP4 DUP4 PUSH2 0x505 JUMP JUMPDEST PUSH1 0x20 DUP4 ADD SWAP1 POP SWAP3 SWAP2 POP POP JUMP JUMPDEST PUSH1 0x0 PUSH1 0x20 DUP3 ADD SWAP1 POP SWAP2 SWAP1 POP JUMP JUMPDEST PUSH1 0x0 PUSH2 0x544 DUP3 PUSH2 0x4D9 JUMP JUMPDEST PUSH2 0x54E DUP2 DUP6 PUSH2 0x4E4 JUMP JUMPDEST SWAP4 POP PUSH2 0x559 DUP4 PUSH2 0x4F5 JUMP JUMPDEST DUP1 PUSH1 0x0 JUMPDEST DUP4 DUP2 LT ISZERO PUSH2 0x58A JUMPI DUP2 MLOAD PUSH2 0x571 DUP9 DUP3 PUSH2 0x514 JUMP JUMPDEST SWAP8 POP PUSH2 0x57C DUP4 PUSH2 0x52C JUMP JUMPDEST SWAP3 POP POP PUSH1 0x1 DUP2 ADD SWAP1 POP PUSH2 0x55D JUMP JUMPDEST POP DUP6 SWAP4 POP POP POP POP SWAP3 SWAP2 POP POP JUMP JUMPDEST PUSH1 0x0 PUSH1 0x20 DUP3 ADD SWAP1 POP DUP2 DUP2 SUB PUSH1 0x0 DUP4 ADD MSTORE PUSH2 0x5B1 DUP2 DUP5 PUSH2 0x539 JUMP JUMPDEST SWAP1 POP SWAP3 SWAP2 POP POP JUMP JUMPDEST PUSH2 0x5C2 DUP2 PUSH2 0x42E JUMP JUMPDEST DUP3 MSTORE POP POP JUMP JUMPDEST PUSH1 0x0 PUSH1 0x20 DUP3 ADD SWAP1 POP PUSH2 0x5DD PUSH1 0x0 DUP4 ADD DUP5 PUSH2 0x5B9 JUMP JUMPDEST SWAP3 SWAP2 POP POP JUMP JUMPDEST PUSH1 0x0 DUP2 ISZERO ISZERO SWAP1 POP SWAP2 SWAP1 POP JUMP JUMPDEST PUSH2 0x5F8 DUP2 PUSH2 0x5E3 JUMP JUMPDEST DUP2 EQ PUSH2 0x603 JUMPI PUSH1 0x0 DUP1 REVERT JUMPDEST POP JUMP JUMPDEST PUSH1 0x0 DUP2 MLOAD SWAP1 POP PUSH2 0x615 DUP2 PUSH2 0x5EF JUMP JUMPDEST SWAP3 SWAP2 POP POP JUMP JUMPDEST PUSH1 0x0 PUSH1 0x20 DUP3 DUP5 SUB SLT ISZERO PUSH2 0x631 JUMPI PUSH2 0x630 PUSH2 0x409 JUMP JUMPDEST JUMPDEST PUSH1 0x0 PUSH2 0x63F DUP5 DUP3 DUP6 ADD PUSH2 0x606 JUMP JUMPDEST SWAP2 POP POP SWAP3 SWAP2 POP POP JUMP INVALID LOG2 PUSH5 0x6970667358 0x22 SLT KECCAK256 0xB9 BASEFEE PUSH3 0x99F1BC SWAP2 0xE LT PUSH15 0x762A6D9F13DA406725333B1779D3D5 0xF8 CREATE2 0x2F PUSH23 0x4CD0B764736F6C63430008110033000000000000000000 "},"gasEstimates":{"creation":{"codeDepositCost":"359400","executionCost":"infinite","totalCost":"infinite"},"external":{"admin()":"2514","getAllContractAddress(string)":"infinite"}},"methodIdentifiers":{"admin()":"f851a440","getAllContractAddress(string)":"c4fe354c"}},"storageLayout":{"storage":[{"astId":12,"contract":"ElectronicMedicalRecords.sol:ContractDeployer","label":"bunchOfContractAddress","offset":0,"slot":"0","type":"t_mapping(t_string_memory_ptr,t_array(t_struct(ContractAddress)6_storage)dyn_storage)"},{"astId":14,"contract":"ElectronicMedicalRecords.sol:ContractDeployer","label":"admin","offset":0,"slot":"1","type":"t_address"}],"types":{"t_address":{"encoding":"inplace","label":"address","numberOfBytes":"20"},"t_array(t_struct(ContractAddress)6_storage)dyn_storage":{"base":"t_struct(ContractAddress)6_storage","encoding":"dynamic_array","label":"struct ContractDeployer.ContractAddress[]","numberOfBytes":"32"},"t_mapping(t_string_memory_ptr,t_array(t_struct(ContractAddress)6_storage)dyn_storage)":{"encoding":"mapping","key":"t_string_memory_ptr","label":"mapping(string => struct ContractDeployer.ContractAddress[])","numberOfBytes":"32","value":"t_array(t_struct(ContractAddress)6_storage)dyn_storage"},"t_string_memory_ptr":{"encoding":"bytes","label":"string","numberOfBytes":"32"},"t_string_storage":{"encoding":"bytes","label":"string","numberOfBytes":"32"},"t_struct(ContractAddress)6_storage":{"encoding":"inplace","label":"struct ContractDeployer.ContractAddress","members":[{"astId":3,"contract":"ElectronicMedicalRecords.sol:ContractDeployer","label":"name","offset":0,"slot":"0","type":"t_string_storage"},{"astId":5,"contract":"ElectronicMedicalRecords.sol:ContractDeployer","label":"contractAddress","offset":0,"slot":"1","type":"t_address"}],"numberOfBytes":"64"}}},"userdoc":{"kind":"user","methods":{},"version":1}}