{"abi":[{"inputs":[],"stateMutability":"nonpayable","type":"constructor"},{"inputs":[],"name":"admin","outputs":[{"internalType":"address","name":"","type":"address"}],"stateMutability":"view","type":"function"},{"inputs":[{"internalType":"string","name":"_name","type":"string"}],"name":"getAllContractAddress","outputs":[{"components":[{"internalType":"string","name":"name","type":"string"},{"internalType":"address","name":"contractAddress","type":"address"}],"internalType":"struct ContractDeployer.ContractAddress[]","name":"data","type":"tuple[]"}],"stateMutability":"view","type":"function"}],"devdoc":{"kind":"dev","methods":{},"version":1},"evm":{"assembly":"    /* \"ElectronicMedicalRecords.sol\":66:1287  contract ContractDeployer {... */\n  mstore(0x40, 0x80)\n    /* \"ElectronicMedicalRecords.sol\":297:1078  constructor() {... */\n  callvalue\n  dup1\n  iszero\n  tag_1\n  jumpi\n  0x00\n  dup1\n  revert\ntag_1:\n  pop\n    /* \"ElectronicMedicalRecords.sol\":330:340  msg.sender */\n  caller\n    /* \"ElectronicMedicalRecords.sol\":322:327  admin */\n  0x01\n  0x00\n    /* \"ElectronicMedicalRecords.sol\":322:340  admin = msg.sender */\n  0x0100\n  exp\n  dup2\n  sload\n  dup2\n  0xffffffffffffffffffffffffffffffffffffffff\n  mul\n  not\n  and\n  swap1\n  dup4\n  0xffffffffffffffffffffffffffffffffffffffff\n  and\n  mul\n  or\n  swap1\n  sstore\n  pop\n    /* \"ElectronicMedicalRecords.sol\":353:368  address patient */\n  0x00\n    /* \"ElectronicMedicalRecords.sol\":398:408  msg.sender */\n  caller\n    /* \"ElectronicMedicalRecords.sol\":379:409  new MedicalRecords(msg.sender) */\n  mload(0x40)\n  tag_4\n  swap1\n  tag_5\n  jump\t// in\ntag_4:\n  tag_6\n  swap2\n  swap1\n  tag_7\n  jump\t// in\ntag_6:\n  mload(0x40)\n  dup1\n  swap2\n  sub\n  swap1\n  0x00\n  create\n  dup1\n  iszero\n  dup1\n  iszero\n  tag_8\n  jumpi\n  returndatasize\n  0x00\n  dup1\n  returndatacopy\n  revert(0x00, returndatasize)\ntag_8:\n  pop\n    /* \"ElectronicMedicalRecords.sol\":353:410  address patient = address(new MedicalRecords(msg.sender)) */\n  swap1\n  pop\n    /* \"ElectronicMedicalRecords.sol\":421:443  bunchOfContractAddress */\n  0x00\n    /* \"ElectronicMedicalRecords.sol\":421:453  bunchOfContractAddress[\"secret\"] */\n  mload(0x40)\n  tag_9\n  swap1\n  tag_10\n  jump\t// in\ntag_9:\n  swap1\n  dup2\n  mstore\n  0x20\n  add\n  mload(0x40)\n  dup1\n  swap2\n  sub\n  swap1\n  keccak256\n    /* \"ElectronicMedicalRecords.sol\":459:511  ContractAddress(\"electronicMedicalRecords\", patient) */\n  mload(0x40)\n  dup1\n  0x40\n  add\n  0x40\n  mstore\n  dup1\n  mload(0x40)\n  dup1\n  0x40\n  add\n  0x40\n  mstore\n  dup1\n  0x18\n  dup2\n  mstore\n  0x20\n  add\n  0x656c656374726f6e69634d65646963616c5265636f7264730000000000000000\n  dup2\n  mstore\n  pop\n  dup2\n  mstore\n  0x20\n  add\n    /* \"ElectronicMedicalRecords.sol\":503:510  patient */\n  dup4\n    /* \"ElectronicMedicalRecords.sol\":459:511  ContractAddress(\"electronicMedicalRecords\", patient) */\n  0xffffffffffffffffffffffffffffffffffffffff\n  and\n  dup2\n  mstore\n  pop\n    /* \"ElectronicMedicalRecords.sol\":421:512  bunchOfContractAddress[\"secret\"].push(ContractAddress(\"electronicMedicalRecords\", patient)) */\n  swap1\n  dup1\n  0x01\n  dup2\n  sload\n  add\n  dup1\n  dup3\n  sstore\n  dup1\n  swap2\n  pop\n  pop\n  0x01\n  swap1\n  sub\n  swap1\n  0x00\n  mstore\n  keccak256(0x00, 0x20)\n  swap1\n  0x02\n  mul\n  add\n  0x00\n  swap1\n  swap2\n  swap1\n  swap2\n  swap1\n  swap2\n  pop\n  0x00\n  dup3\n  add\n  mload\n  dup2\n  0x00\n  add\n  swap1\n  dup2\n  tag_12\n  swap2\n  swap1\n  tag_13\n  jump\t// in\ntag_12:\n  pop\n  0x20\n  dup3\n  add\n  mload\n  dup2\n  0x01\n  add\n  exp(0x0100, 0x00)\n  dup2\n  sload\n  dup2\n  0xffffffffffffffffffffffffffffffffffffffff\n  mul\n  not\n  and\n  swap1\n  dup4\n  0xffffffffffffffffffffffffffffffffffffffff\n  and\n  mul\n  or\n  swap1\n  sstore\n  pop\n  pop\n  pop\n    /* \"ElectronicMedicalRecords.sol\":525:551  address patientVerificator */\n  0x00\n    /* \"ElectronicMedicalRecords.sol\":585:595  msg.sender */\n  caller\n    /* \"ElectronicMedicalRecords.sol\":562:596  new PatientVerificator(msg.sender) */\n  mload(0x40)\n  tag_14\n  swap1\n  tag_15\n  jump\t// in\ntag_14:\n  tag_16\n  swap2\n  swap1\n  tag_7\n  jump\t// in\ntag_16:\n  mload(0x40)\n  dup1\n  swap2\n  sub\n  swap1\n  0x00\n  create\n  dup1\n  iszero\n  dup1\n  iszero\n  tag_17\n  jumpi\n  returndatasize\n  0x00\n  dup1\n  returndatacopy\n  revert(0x00, returndatasize)\ntag_17:\n  pop\n    /* \"ElectronicMedicalRecords.sol\":525:597  address patientVerificator = address(new PatientVerificator(msg.sender)) */\n  swap1\n  pop\n    /* \"ElectronicMedicalRecords.sol\":608:630  bunchOfContractAddress */\n  0x00\n    /* \"ElectronicMedicalRecords.sol\":608:640  bunchOfContractAddress[\"secret\"] */\n  mload(0x40)\n  tag_18\n  swap1\n  tag_10\n  jump\t// in\ntag_18:\n  swap1\n  dup2\n  mstore\n  0x20\n  add\n  mload(0x40)\n  dup1\n  swap2\n  sub\n  swap1\n  keccak256\n    /* \"ElectronicMedicalRecords.sol\":646:703  ContractAddress(\"patientVerificator\", patientVerificator) */\n  mload(0x40)\n  dup1\n  0x40\n  add\n  0x40\n  mstore\n  dup1\n  mload(0x40)\n  dup1\n  0x40\n  add\n  0x40\n  mstore\n  dup1\n  0x12\n  dup2\n  mstore\n  0x20\n  add\n  0x70617469656e745665726966696361746f720000000000000000000000000000\n  dup2\n  mstore\n  pop\n  dup2\n  mstore\n  0x20\n  add\n    /* \"ElectronicMedicalRecords.sol\":684:702  patientVerificator */\n  dup4\n    /* \"ElectronicMedicalRecords.sol\":646:703  ContractAddress(\"patientVerificator\", patientVerificator) */\n  0xffffffffffffffffffffffffffffffffffffffff\n  and\n  dup2\n  mstore\n  pop\n    /* \"ElectronicMedicalRecords.sol\":608:704  bunchOfContractAddress[\"secret\"].push(ContractAddress(\"patientVerificator\", patientVerificator)) */\n  swap1\n  dup1\n  0x01\n  dup2\n  sload\n  add\n  dup1\n  dup3\n  sstore\n  dup1\n  swap2\n  pop\n  pop\n  0x01\n  swap1\n  sub\n  swap1\n  0x00\n  mstore\n  keccak256(0x00, 0x20)\n  swap1\n  0x02\n  mul\n  add\n  0x00\n  swap1\n  swap2\n  swap1\n  swap2\n  swap1\n  swap2\n  pop\n  0x00\n  dup3\n  add\n  mload\n  dup2\n  0x00\n  add\n  swap1\n  dup2\n  tag_20\n  swap2\n  swap1\n  tag_13\n  jump\t// in\ntag_20:\n  pop\n  0x20\n  dup3\n  add\n  mload\n  dup2\n  0x01\n  add\n  exp(0x0100, 0x00)\n  dup2\n  sload\n  dup2\n  0xffffffffffffffffffffffffffffffffffffffff\n  mul\n  not\n  and\n  swap1\n  dup4\n  0xffffffffffffffffffffffffffffffffffffffff\n  and\n  mul\n  or\n  swap1\n  sstore\n  pop\n  pop\n  pop\n    /* \"ElectronicMedicalRecords.sol\":717:742  address doctorVerificator */\n  0x00\n    /* \"ElectronicMedicalRecords.sol\":775:785  msg.sender */\n  caller\n    /* \"ElectronicMedicalRecords.sol\":753:786  new DoctorVerificator(msg.sender) */\n  mload(0x40)\n  tag_21\n  swap1\n  tag_22\n  jump\t// in\ntag_21:\n  tag_23\n  swap2\n  swap1\n  tag_7\n  jump\t// in\ntag_23:\n  mload(0x40)\n  dup1\n  swap2\n  sub\n  swap1\n  0x00\n  create\n  dup1\n  iszero\n  dup1\n  iszero\n  tag_24\n  jumpi\n  returndatasize\n  0x00\n  dup1\n  returndatacopy\n  revert(0x00, returndatasize)\ntag_24:\n  pop\n    /* \"ElectronicMedicalRecords.sol\":717:787  address doctorVerificator = address(new DoctorVerificator(msg.sender)) */\n  swap1\n  pop\n    /* \"ElectronicMedicalRecords.sol\":798:820  bunchOfContractAddress */\n  0x00\n    /* \"ElectronicMedicalRecords.sol\":798:830  bunchOfContractAddress[\"secret\"] */\n  mload(0x40)\n  tag_25\n  swap1\n  tag_10\n  jump\t// in\ntag_25:\n  swap1\n  dup2\n  mstore\n  0x20\n  add\n  mload(0x40)\n  dup1\n  swap2\n  sub\n  swap1\n  keccak256\n    /* \"ElectronicMedicalRecords.sol\":836:891  ContractAddress(\"doctorVerificator\", doctorVerificator) */\n  mload(0x40)\n  dup1\n  0x40\n  add\n  0x40\n  mstore\n  dup1\n  mload(0x40)\n  dup1\n  0x40\n  add\n  0x40\n  mstore\n  dup1\n  0x11\n  dup2\n  mstore\n  0x20\n  add\n  0x646f63746f725665726966696361746f72000000000000000000000000000000\n  dup2\n  mstore\n  pop\n  dup2\n  mstore\n  0x20\n  add\n    /* \"ElectronicMedicalRecords.sol\":873:890  doctorVerificator */\n  dup4\n    /* \"ElectronicMedicalRecords.sol\":836:891  ContractAddress(\"doctorVerificator\", doctorVerificator) */\n  0xffffffffffffffffffffffffffffffffffffffff\n  and\n  dup2\n  mstore\n  pop\n    /* \"ElectronicMedicalRecords.sol\":798:892  bunchOfContractAddress[\"secret\"].push(ContractAddress(\"doctorVerificator\", doctorVerificator)) */\n  swap1\n  dup1\n  0x01\n  dup2\n  sload\n  add\n  dup1\n  dup3\n  sstore\n  dup1\n  swap2\n  pop\n  pop\n  0x01\n  swap1\n  sub\n  swap1\n  0x00\n  mstore\n  keccak256(0x00, 0x20)\n  swap1\n  0x02\n  mul\n  add\n  0x00\n  swap1\n  swap2\n  swap1\n  swap2\n  swap1\n  swap2\n  pop\n  0x00\n  dup3\n  add\n  mload\n  dup2\n  0x00\n  add\n  swap1\n  dup2\n  tag_27\n  swap2\n  swap1\n  tag_13\n  jump\t// in\ntag_27:\n  pop\n  0x20\n  dup3\n  add\n  mload\n  dup2\n  0x01\n  add\n  exp(0x0100, 0x00)\n  dup2\n  sload\n  dup2\n  0xffffffffffffffffffffffffffffffffffffffff\n  mul\n  not\n  and\n  swap1\n  dup4\n  0xffffffffffffffffffffffffffffffffffffffff\n  and\n  mul\n  or\n  swap1\n  sstore\n  pop\n  pop\n  pop\n    /* \"ElectronicMedicalRecords.sol\":905:927  address doctorRelation */\n  0x00\n    /* \"ElectronicMedicalRecords.sol\":957:967  msg.sender */\n  caller\n    /* \"ElectronicMedicalRecords.sol\":938:968  new DoctorRelation(msg.sender) */\n  mload(0x40)\n  tag_28\n  swap1\n  tag_29\n  jump\t// in\ntag_28:\n  tag_30\n  swap2\n  swap1\n  tag_7\n  jump\t// in\ntag_30:\n  mload(0x40)\n  dup1\n  swap2\n  sub\n  swap1\n  0x00\n  create\n  dup1\n  iszero\n  dup1\n  iszero\n  tag_31\n  jumpi\n  returndatasize\n  0x00\n  dup1\n  returndatacopy\n  revert(0x00, returndatasize)\ntag_31:\n  pop\n    /* \"ElectronicMedicalRecords.sol\":905:969  address doctorRelation = address(new DoctorRelation(msg.sender)) */\n  swap1\n  pop\n    /* \"ElectronicMedicalRecords.sol\":980:1002  bunchOfContractAddress */\n  0x00\n    /* \"ElectronicMedicalRecords.sol\":980:1012  bunchOfContractAddress[\"secret\"] */\n  mload(0x40)\n  tag_32\n  swap1\n  tag_10\n  jump\t// in\ntag_32:\n  swap1\n  dup2\n  mstore\n  0x20\n  add\n  mload(0x40)\n  dup1\n  swap2\n  sub\n  swap1\n  keccak256\n    /* \"ElectronicMedicalRecords.sol\":1018:1067  ContractAddress(\"doctorRelation\", doctorRelation) */\n  mload(0x40)\n  dup1\n  0x40\n  add\n  0x40\n  mstore\n  dup1\n  mload(0x40)\n  dup1\n  0x40\n  add\n  0x40\n  mstore\n  dup1\n  0x0e\n  dup2\n  mstore\n  0x20\n  add\n  0x646f63746f7252656c6174696f6e000000000000000000000000000000000000\n  dup2\n  mstore\n  pop\n  dup2\n  mstore\n  0x20\n  add\n    /* \"ElectronicMedicalRecords.sol\":1052:1066  doctorRelation */\n  dup4\n    /* \"ElectronicMedicalRecords.sol\":1018:1067  ContractAddress(\"doctorRelation\", doctorRelation) */\n  0xffffffffffffffffffffffffffffffffffffffff\n  and\n  dup2\n  mstore\n  pop\n    /* \"ElectronicMedicalRecords.sol\":980:1068  bunchOfContractAddress[\"secret\"].push(ContractAddress(\"doctorRelation\", doctorRelation)) */\n  swap1\n  dup1\n  0x01\n  dup2\n  sload\n  add\n  dup1\n  dup3\n  sstore\n  dup1\n  swap2\n  pop\n  pop\n  0x01\n  swap1\n  sub\n  swap1\n  0x00\n  mstore\n  keccak256(0x00, 0x20)\n  swap1\n  0x02\n  mul\n  add\n  0x00\n  swap1\n  swap2\n  swap1\n  swap2\n  swap1\n  swap2\n  pop\n  0x00\n  dup3\n  add\n  mload\n  dup2\n  0x00\n  add\n  swap1\n  dup2\n  tag_34\n  swap2\n  swap1\n  tag_13\n  jump\t// in\ntag_34:\n  pop\n  0x20\n  dup3\n  add\n  mload\n  dup2\n  0x01\n  add\n  exp(0x0100, 0x00)\n  dup2\n  sload\n  dup2\n  0xffffffffffffffffffffffffffffffffffffffff\n  mul\n  not\n  and\n  swap1\n  dup4\n  0xffffffffffffffffffffffffffffffffffffffff\n  and\n  mul\n  or\n  swap1\n  sstore\n  pop\n  pop\n  pop\n    /* \"ElectronicMedicalRecords.sol\":311:1078  {... */\n  pop\n  pop\n  pop\n  pop\n    /* \"ElectronicMedicalRecords.sol\":66:1287  contract ContractDeployer {... */\n  jump(tag_35)\ntag_5:\n  dataSize(sub_1)\n  dup1\n  dataOffset(sub_1)\n  dup4\n  codecopy\n  add\n  swap1\n  jump\t// out\ntag_15:\n  dataSize(sub_2)\n  dup1\n  dataOffset(sub_2)\n  dup4\n  codecopy\n  add\n  swap1\n  jump\t// out\ntag_22:\n  dataSize(sub_3)\n  dup1\n  dataOffset(sub_3)\n  dup4\n  codecopy\n  add\n  swap1\n  jump\t// out\ntag_29:\n  dataSize(sub_4)\n  dup1\n  dataOffset(sub_4)\n  dup4\n  codecopy\n  add\n  swap1\n  jump\t// out\n    /* \"#utility.yul\":7:133   */\ntag_36:\n    /* \"#utility.yul\":44:51   */\n  0x00\n    /* \"#utility.yul\":84:126   */\n  0xffffffffffffffffffffffffffffffffffffffff\n    /* \"#utility.yul\":77:82   */\n  dup3\n    /* \"#utility.yul\":73:127   */\n  and\n    /* \"#utility.yul\":62:127   */\n  swap1\n  pop\n    /* \"#utility.yul\":7:133   */\n  swap2\n  swap1\n  pop\n  jump\t// out\n    /* \"#utility.yul\":139:235   */\ntag_37:\n    /* \"#utility.yul\":176:183   */\n  0x00\n    /* \"#utility.yul\":205:229   */\n  tag_65\n    /* \"#utility.yul\":223:228   */\n  dup3\n    /* \"#utility.yul\":205:229   */\n  tag_36\n  jump\t// in\ntag_65:\n    /* \"#utility.yul\":194:229   */\n  swap1\n  pop\n    /* \"#utility.yul\":139:235   */\n  swap2\n  swap1\n  pop\n  jump\t// out\n    /* \"#utility.yul\":241:359   */\ntag_38:\n    /* \"#utility.yul\":328:352   */\n  tag_67\n    /* \"#utility.yul\":346:351   */\n  dup2\n    /* \"#utility.yul\":328:352   */\n  tag_37\n  jump\t// in\ntag_67:\n    /* \"#utility.yul\":323:326   */\n  dup3\n    /* \"#utility.yul\":316:353   */\n  mstore\n    /* \"#utility.yul\":241:359   */\n  pop\n  pop\n  jump\t// out\n    /* \"#utility.yul\":365:587   */\ntag_7:\n    /* \"#utility.yul\":458:462   */\n  0x00\n    /* \"#utility.yul\":496:498   */\n  0x20\n    /* \"#utility.yul\":485:494   */\n  dup3\n    /* \"#utility.yul\":481:499   */\n  add\n    /* \"#utility.yul\":473:499   */\n  swap1\n  pop\n    /* \"#utility.yul\":509:580   */\n  tag_69\n    /* \"#utility.yul\":577:578   */\n  0x00\n    /* \"#utility.yul\":566:575   */\n  dup4\n    /* \"#utility.yul\":562:579   */\n  add\n    /* \"#utility.yul\":553:559   */\n  dup5\n    /* \"#utility.yul\":509:580   */\n  tag_38\n  jump\t// in\ntag_69:\n    /* \"#utility.yul\":365:587   */\n  swap3\n  swap2\n  pop\n  pop\n  jump\t// out\n    /* \"#utility.yul\":593:741   */\ntag_39:\n    /* \"#utility.yul\":695:706   */\n  0x00\n    /* \"#utility.yul\":732:735   */\n  dup2\n    /* \"#utility.yul\":717:735   */\n  swap1\n  pop\n    /* \"#utility.yul\":593:741   */\n  swap3\n  swap2\n  pop\n  pop\n  jump\t// out\n    /* \"#utility.yul\":747:903   */\ntag_40:\n    /* \"#utility.yul\":887:895   */\n  0x7365637265740000000000000000000000000000000000000000000000000000\n    /* \"#utility.yul\":883:884   */\n  0x00\n    /* \"#utility.yul\":875:881   */\n  dup3\n    /* \"#utility.yul\":871:885   */\n  add\n    /* \"#utility.yul\":864:896   */\n  mstore\n    /* \"#utility.yul\":747:903   */\n  pop\n  jump\t// out\n    /* \"#utility.yul\":909:1309   */\ntag_41:\n    /* \"#utility.yul\":1069:1072   */\n  0x00\n    /* \"#utility.yul\":1090:1174   */\n  tag_73\n    /* \"#utility.yul\":1172:1173   */\n  0x06\n    /* \"#utility.yul\":1167:1170   */\n  dup4\n    /* \"#utility.yul\":1090:1174   */\n  tag_39\n  jump\t// in\ntag_73:\n    /* \"#utility.yul\":1083:1174   */\n  swap2\n  pop\n    /* \"#utility.yul\":1183:1276   */\n  tag_74\n    /* \"#utility.yul\":1272:1275   */\n  dup3\n    /* \"#utility.yul\":1183:1276   */\n  tag_40\n  jump\t// in\ntag_74:\n    /* \"#utility.yul\":1301:1302   */\n  0x06\n    /* \"#utility.yul\":1296:1299   */\n  dup3\n    /* \"#utility.yul\":1292:1303   */\n  add\n    /* \"#utility.yul\":1285:1303   */\n  swap1\n  pop\n    /* \"#utility.yul\":909:1309   */\n  swap2\n  swap1\n  pop\n  jump\t// out\n    /* \"#utility.yul\":1315:1696   */\ntag_10:\n    /* \"#utility.yul\":1500:1503   */\n  0x00\n    /* \"#utility.yul\":1522:1670   */\n  tag_76\n    /* \"#utility.yul\":1666:1669   */\n  dup3\n    /* \"#utility.yul\":1522:1670   */\n  tag_41\n  jump\t// in\ntag_76:\n    /* \"#utility.yul\":1515:1670   */\n  swap2\n  pop\n    /* \"#utility.yul\":1687:1690   */\n  dup2\n    /* \"#utility.yul\":1680:1690   */\n  swap1\n  pop\n    /* \"#utility.yul\":1315:1696   */\n  swap2\n  swap1\n  pop\n  jump\t// out\n    /* \"#utility.yul\":1702:1801   */\ntag_42:\n    /* \"#utility.yul\":1754:1760   */\n  0x00\n    /* \"#utility.yul\":1788:1793   */\n  dup2\n    /* \"#utility.yul\":1782:1794   */\n  mload\n    /* \"#utility.yul\":1772:1794   */\n  swap1\n  pop\n    /* \"#utility.yul\":1702:1801   */\n  swap2\n  swap1\n  pop\n  jump\t// out\n    /* \"#utility.yul\":1807:1987   */\ntag_43:\n    /* \"#utility.yul\":1855:1932   */\n  0x4e487b7100000000000000000000000000000000000000000000000000000000\n    /* \"#utility.yul\":1852:1853   */\n  0x00\n    /* \"#utility.yul\":1845:1933   */\n  mstore\n    /* \"#utility.yul\":1952:1956   */\n  0x41\n    /* \"#utility.yul\":1949:1950   */\n  0x04\n    /* \"#utility.yul\":1942:1957   */\n  mstore\n    /* \"#utility.yul\":1976:1980   */\n  0x24\n    /* \"#utility.yul\":1973:1974   */\n  0x00\n    /* \"#utility.yul\":1966:1981   */\n  revert\n    /* \"#utility.yul\":1993:2173   */\ntag_44:\n    /* \"#utility.yul\":2041:2118   */\n  0x4e487b7100000000000000000000000000000000000000000000000000000000\n    /* \"#utility.yul\":2038:2039   */\n  0x00\n    /* \"#utility.yul\":2031:2119   */\n  mstore\n    /* \"#utility.yul\":2138:2142   */\n  0x22\n    /* \"#utility.yul\":2135:2136   */\n  0x04\n    /* \"#utility.yul\":2128:2143   */\n  mstore\n    /* \"#utility.yul\":2162:2166   */\n  0x24\n    /* \"#utility.yul\":2159:2160   */\n  0x00\n    /* \"#utility.yul\":2152:2167   */\n  revert\n    /* \"#utility.yul\":2179:2499   */\ntag_45:\n    /* \"#utility.yul\":2223:2229   */\n  0x00\n    /* \"#utility.yul\":2260:2261   */\n  0x02\n    /* \"#utility.yul\":2254:2258   */\n  dup3\n    /* \"#utility.yul\":2250:2262   */\n  div\n    /* \"#utility.yul\":2240:2262   */\n  swap1\n  pop\n    /* \"#utility.yul\":2307:2308   */\n  0x01\n    /* \"#utility.yul\":2301:2305   */\n  dup3\n    /* \"#utility.yul\":2297:2309   */\n  and\n    /* \"#utility.yul\":2328:2346   */\n  dup1\n    /* \"#utility.yul\":2318:2399   */\n  tag_81\n  jumpi\n    /* \"#utility.yul\":2384:2388   */\n  0x7f\n    /* \"#utility.yul\":2376:2382   */\n  dup3\n    /* \"#utility.yul\":2372:2389   */\n  and\n    /* \"#utility.yul\":2362:2389   */\n  swap2\n  pop\n    /* \"#utility.yul\":2318:2399   */\ntag_81:\n    /* \"#utility.yul\":2446:2448   */\n  0x20\n    /* \"#utility.yul\":2438:2444   */\n  dup3\n    /* \"#utility.yul\":2435:2449   */\n  lt\n    /* \"#utility.yul\":2415:2433   */\n  dup2\n    /* \"#utility.yul\":2412:2450   */\n  sub\n    /* \"#utility.yul\":2409:2493   */\n  tag_82\n  jumpi\n    /* \"#utility.yul\":2465:2483   */\n  tag_83\n  tag_44\n  jump\t// in\ntag_83:\n    /* \"#utility.yul\":2409:2493   */\ntag_82:\n    /* \"#utility.yul\":2230:2499   */\n  pop\n    /* \"#utility.yul\":2179:2499   */\n  swap2\n  swap1\n  pop\n  jump\t// out\n    /* \"#utility.yul\":2505:2646   */\ntag_46:\n    /* \"#utility.yul\":2554:2558   */\n  0x00\n    /* \"#utility.yul\":2577:2580   */\n  dup2\n    /* \"#utility.yul\":2569:2580   */\n  swap1\n  pop\n    /* \"#utility.yul\":2600:2603   */\n  dup2\n    /* \"#utility.yul\":2597:2598   */\n  0x00\n    /* \"#utility.yul\":2590:2604   */\n  mstore\n    /* \"#utility.yul\":2634:2638   */\n  0x20\n    /* \"#utility.yul\":2631:2632   */\n  0x00\n    /* \"#utility.yul\":2621:2639   */\n  keccak256\n    /* \"#utility.yul\":2613:2639   */\n  swap1\n  pop\n    /* \"#utility.yul\":2505:2646   */\n  swap2\n  swap1\n  pop\n  jump\t// out\n    /* \"#utility.yul\":2652:2745   */\ntag_47:\n    /* \"#utility.yul\":2689:2695   */\n  0x00\n    /* \"#utility.yul\":2736:2738   */\n  0x20\n    /* \"#utility.yul\":2731:2733   */\n  0x1f\n    /* \"#utility.yul\":2724:2729   */\n  dup4\n    /* \"#utility.yul\":2720:2734   */\n  add\n    /* \"#utility.yul\":2716:2739   */\n  div\n    /* \"#utility.yul\":2706:2739   */\n  swap1\n  pop\n    /* \"#utility.yul\":2652:2745   */\n  swap2\n  swap1\n  pop\n  jump\t// out\n    /* \"#utility.yul\":2751:2858   */\ntag_48:\n    /* \"#utility.yul\":2795:2803   */\n  0x00\n    /* \"#utility.yul\":2845:2850   */\n  dup3\n    /* \"#utility.yul\":2839:2843   */\n  dup3\n    /* \"#utility.yul\":2835:2851   */\n  shl\n    /* \"#utility.yul\":2814:2851   */\n  swap1\n  pop\n    /* \"#utility.yul\":2751:2858   */\n  swap3\n  swap2\n  pop\n  pop\n  jump\t// out\n    /* \"#utility.yul\":2864:3257   */\ntag_49:\n    /* \"#utility.yul\":2933:2939   */\n  0x00\n    /* \"#utility.yul\":2983:2984   */\n  0x08\n    /* \"#utility.yul\":2971:2981   */\n  dup4\n    /* \"#utility.yul\":2967:2985   */\n  mul\n    /* \"#utility.yul\":3006:3103   */\n  tag_88\n    /* \"#utility.yul\":3036:3102   */\n  0xffffffffffffffffffffffffffffffffffffffffffffffffffffffffffffffff\n    /* \"#utility.yul\":3025:3034   */\n  dup3\n    /* \"#utility.yul\":3006:3103   */\n  tag_48\n  jump\t// in\ntag_88:\n    /* \"#utility.yul\":3124:3163   */\n  tag_89\n    /* \"#utility.yul\":3154:3162   */\n  dup7\n    /* \"#utility.yul\":3143:3152   */\n  dup4\n    /* \"#utility.yul\":3124:3163   */\n  tag_48\n  jump\t// in\ntag_89:\n    /* \"#utility.yul\":3112:3163   */\n  swap6\n  pop\n    /* \"#utility.yul\":3196:3200   */\n  dup1\n    /* \"#utility.yul\":3192:3201   */\n  not\n    /* \"#utility.yul\":3185:3190   */\n  dup5\n    /* \"#utility.yul\":3181:3202   */\n  and\n    /* \"#utility.yul\":3172:3202   */\n  swap4\n  pop\n    /* \"#utility.yul\":3245:3249   */\n  dup1\n    /* \"#utility.yul\":3235:3243   */\n  dup7\n    /* \"#utility.yul\":3231:3250   */\n  and\n    /* \"#utility.yul\":3224:3229   */\n  dup5\n    /* \"#utility.yul\":3221:3251   */\n  or\n    /* \"#utility.yul\":3211:3251   */\n  swap3\n  pop\n    /* \"#utility.yul\":2940:3257   */\n  pop\n  pop\n    /* \"#utility.yul\":2864:3257   */\n  swap4\n  swap3\n  pop\n  pop\n  pop\n  jump\t// out\n    /* \"#utility.yul\":3263:3340   */\ntag_50:\n    /* \"#utility.yul\":3300:3307   */\n  0x00\n    /* \"#utility.yul\":3329:3334   */\n  dup2\n    /* \"#utility.yul\":3318:3334   */\n  swap1\n  pop\n    /* \"#utility.yul\":3263:3340   */\n  swap2\n  swap1\n  pop\n  jump\t// out\n    /* \"#utility.yul\":3346:3406   */\ntag_51:\n    /* \"#utility.yul\":3374:3377   */\n  0x00\n    /* \"#utility.yul\":3395:3400   */\n  dup2\n    /* \"#utility.yul\":3388:3400   */\n  swap1\n  pop\n    /* \"#utility.yul\":3346:3406   */\n  swap2\n  swap1\n  pop\n  jump\t// out\n    /* \"#utility.yul\":3412:3554   */\ntag_52:\n    /* \"#utility.yul\":3462:3471   */\n  0x00\n    /* \"#utility.yul\":3495:3548   */\n  tag_93\n    /* \"#utility.yul\":3513:3547   */\n  tag_94\n    /* \"#utility.yul\":3522:3546   */\n  tag_95\n    /* \"#utility.yul\":3540:3545   */\n  dup5\n    /* \"#utility.yul\":3522:3546   */\n  tag_50\n  jump\t// in\ntag_95:\n    /* \"#utility.yul\":3513:3547   */\n  tag_51\n  jump\t// in\ntag_94:\n    /* \"#utility.yul\":3495:3548   */\n  tag_50\n  jump\t// in\ntag_93:\n    /* \"#utility.yul\":3482:3548   */\n  swap1\n  pop\n    /* \"#utility.yul\":3412:3554   */\n  swap2\n  swap1\n  pop\n  jump\t// out\n    /* \"#utility.yul\":3560:3635   */\ntag_53:\n    /* \"#utility.yul\":3603:3606   */\n  0x00\n    /* \"#utility.yul\":3624:3629   */\n  dup2\n    /* \"#utility.yul\":3617:3629   */\n  swap1\n  pop\n    /* \"#utility.yul\":3560:3635   */\n  swap2\n  swap1\n  pop\n  jump\t// out\n    /* \"#utility.yul\":3641:3910   */\ntag_54:\n    /* \"#utility.yul\":3751:3790   */\n  tag_98\n    /* \"#utility.yul\":3782:3789   */\n  dup4\n    /* \"#utility.yul\":3751:3790   */\n  tag_52\n  jump\t// in\ntag_98:\n    /* \"#utility.yul\":3812:3903   */\n  tag_99\n    /* \"#utility.yul\":3861:3902   */\n  tag_100\n    /* \"#utility.yul\":3885:3901   */\n  dup3\n    /* \"#utility.yul\":3861:3902   */\n  tag_53\n  jump\t// in\ntag_100:\n    /* \"#utility.yul\":3853:3859   */\n  dup5\n    /* \"#utility.yul\":3846:3850   */\n  dup5\n    /* \"#utility.yul\":3840:3851   */\n  sload\n    /* \"#utility.yul\":3812:3903   */\n  tag_49\n  jump\t// in\ntag_99:\n    /* \"#utility.yul\":3806:3810   */\n  dup3\n    /* \"#utility.yul\":3799:3904   */\n  sstore\n    /* \"#utility.yul\":3717:3910   */\n  pop\n    /* \"#utility.yul\":3641:3910   */\n  pop\n  pop\n  pop\n  jump\t// out\n    /* \"#utility.yul\":3916:3989   */\ntag_55:\n    /* \"#utility.yul\":3961:3964   */\n  0x00\n    /* \"#utility.yul\":3916:3989   */\n  swap1\n  jump\t// out\n    /* \"#utility.yul\":3995:4184   */\ntag_56:\n    /* \"#utility.yul\":4072:4104   */\n  tag_103\n  tag_55\n  jump\t// in\ntag_103:\n    /* \"#utility.yul\":4113:4178   */\n  tag_104\n    /* \"#utility.yul\":4171:4177   */\n  dup2\n    /* \"#utility.yul\":4163:4169   */\n  dup5\n    /* \"#utility.yul\":4157:4161   */\n  dup5\n    /* \"#utility.yul\":4113:4178   */\n  tag_54\n  jump\t// in\ntag_104:\n    /* \"#utility.yul\":4048:4184   */\n  pop\n    /* \"#utility.yul\":3995:4184   */\n  pop\n  pop\n  jump\t// out\n    /* \"#utility.yul\":4190:4376   */\ntag_57:\n    /* \"#utility.yul\":4250:4370   */\ntag_106:\n    /* \"#utility.yul\":4267:4270   */\n  dup2\n    /* \"#utility.yul\":4260:4265   */\n  dup2\n    /* \"#utility.yul\":4257:4271   */\n  lt\n    /* \"#utility.yul\":4250:4370   */\n  iszero\n  tag_108\n  jumpi\n    /* \"#utility.yul\":4321:4360   */\n  tag_109\n    /* \"#utility.yul\":4358:4359   */\n  0x00\n    /* \"#utility.yul\":4351:4356   */\n  dup3\n    /* \"#utility.yul\":4321:4360   */\n  tag_56\n  jump\t// in\ntag_109:\n    /* \"#utility.yul\":4294:4295   */\n  0x01\n    /* \"#utility.yul\":4287:4292   */\n  dup2\n    /* \"#utility.yul\":4283:4296   */\n  add\n    /* \"#utility.yul\":4274:4296   */\n  swap1\n  pop\n    /* \"#utility.yul\":4250:4370   */\n  jump(tag_106)\ntag_108:\n    /* \"#utility.yul\":4190:4376   */\n  pop\n  pop\n  jump\t// out\n    /* \"#utility.yul\":4382:4925   */\ntag_58:\n    /* \"#utility.yul\":4483:4485   */\n  0x1f\n    /* \"#utility.yul\":4478:4481   */\n  dup3\n    /* \"#utility.yul\":4475:4486   */\n  gt\n    /* \"#utility.yul\":4472:4918   */\n  iszero\n  tag_111\n  jumpi\n    /* \"#utility.yul\":4517:4555   */\n  tag_112\n    /* \"#utility.yul\":4549:4554   */\n  dup2\n    /* \"#utility.yul\":4517:4555   */\n  tag_46\n  jump\t// in\ntag_112:\n    /* \"#utility.yul\":4601:4630   */\n  tag_113\n    /* \"#utility.yul\":4619:4629   */\n  dup5\n    /* \"#utility.yul\":4601:4630   */\n  tag_47\n  jump\t// in\ntag_113:\n    /* \"#utility.yul\":4591:4599   */\n  dup2\n    /* \"#utility.yul\":4587:4631   */\n  add\n    /* \"#utility.yul\":4784:4786   */\n  0x20\n    /* \"#utility.yul\":4772:4782   */\n  dup6\n    /* \"#utility.yul\":4769:4787   */\n  lt\n    /* \"#utility.yul\":4766:4815   */\n  iszero\n  tag_114\n  jumpi\n    /* \"#utility.yul\":4805:4813   */\n  dup2\n    /* \"#utility.yul\":4790:4813   */\n  swap1\n  pop\n    /* \"#utility.yul\":4766:4815   */\ntag_114:\n    /* \"#utility.yul\":4828:4908   */\n  tag_115\n    /* \"#utility.yul\":4884:4906   */\n  tag_116\n    /* \"#utility.yul\":4902:4905   */\n  dup6\n    /* \"#utility.yul\":4884:4906   */\n  tag_47\n  jump\t// in\ntag_116:\n    /* \"#utility.yul\":4874:4882   */\n  dup4\n    /* \"#utility.yul\":4870:4907   */\n  add\n    /* \"#utility.yul\":4857:4868   */\n  dup3\n    /* \"#utility.yul\":4828:4908   */\n  tag_57\n  jump\t// in\ntag_115:\n    /* \"#utility.yul\":4487:4918   */\n  pop\n  pop\n    /* \"#utility.yul\":4472:4918   */\ntag_111:\n    /* \"#utility.yul\":4382:4925   */\n  pop\n  pop\n  pop\n  jump\t// out\n    /* \"#utility.yul\":4931:5048   */\ntag_59:\n    /* \"#utility.yul\":4985:4993   */\n  0x00\n    /* \"#utility.yul\":5035:5040   */\n  dup3\n    /* \"#utility.yul\":5029:5033   */\n  dup3\n    /* \"#utility.yul\":5025:5041   */\n  shr\n    /* \"#utility.yul\":5004:5041   */\n  swap1\n  pop\n    /* \"#utility.yul\":4931:5048   */\n  swap3\n  swap2\n  pop\n  pop\n  jump\t// out\n    /* \"#utility.yul\":5054:5223   */\ntag_60:\n    /* \"#utility.yul\":5098:5104   */\n  0x00\n    /* \"#utility.yul\":5131:5182   */\n  tag_119\n    /* \"#utility.yul\":5179:5180   */\n  0x00\n    /* \"#utility.yul\":5175:5181   */\n  not\n    /* \"#utility.yul\":5167:5172   */\n  dup5\n    /* \"#utility.yul\":5164:5165   */\n  0x08\n    /* \"#utility.yul\":5160:5173   */\n  mul\n    /* \"#utility.yul\":5131:5182   */\n  tag_59\n  jump\t// in\ntag_119:\n    /* \"#utility.yul\":5127:5183   */\n  not\n    /* \"#utility.yul\":5212:5216   */\n  dup1\n    /* \"#utility.yul\":5206:5210   */\n  dup4\n    /* \"#utility.yul\":5202:5217   */\n  and\n    /* \"#utility.yul\":5192:5217   */\n  swap2\n  pop\n    /* \"#utility.yul\":5105:5223   */\n  pop\n    /* \"#utility.yul\":5054:5223   */\n  swap3\n  swap2\n  pop\n  pop\n  jump\t// out\n    /* \"#utility.yul\":5228:5523   */\ntag_61:\n    /* \"#utility.yul\":5304:5308   */\n  0x00\n    /* \"#utility.yul\":5450:5479   */\n  tag_121\n    /* \"#utility.yul\":5475:5478   */\n  dup4\n    /* \"#utility.yul\":5469:5473   */\n  dup4\n    /* \"#utility.yul\":5450:5479   */\n  tag_60\n  jump\t// in\ntag_121:\n    /* \"#utility.yul\":5442:5479   */\n  swap2\n  pop\n    /* \"#utility.yul\":5512:5515   */\n  dup3\n    /* \"#utility.yul\":5509:5510   */\n  0x02\n    /* \"#utility.yul\":5505:5516   */\n  mul\n    /* \"#utility.yul\":5499:5503   */\n  dup3\n    /* \"#utility.yul\":5496:5517   */\n  or\n    /* \"#utility.yul\":5488:5517   */\n  swap1\n  pop\n    /* \"#utility.yul\":5228:5523   */\n  swap3\n  swap2\n  pop\n  pop\n  jump\t// out\n    /* \"#utility.yul\":5528:6923   */\ntag_13:\n    /* \"#utility.yul\":5645:5682   */\n  tag_123\n    /* \"#utility.yul\":5678:5681   */\n  dup3\n    /* \"#utility.yul\":5645:5682   */\n  tag_42\n  jump\t// in\ntag_123:\n    /* \"#utility.yul\":5747:5765   */\n  0xffffffffffffffff\n    /* \"#utility.yul\":5739:5745   */\n  dup2\n    /* \"#utility.yul\":5736:5766   */\n  gt\n    /* \"#utility.yul\":5733:5789   */\n  iszero\n  tag_124\n  jumpi\n    /* \"#utility.yul\":5769:5787   */\n  tag_125\n  tag_43\n  jump\t// in\ntag_125:\n    /* \"#utility.yul\":5733:5789   */\ntag_124:\n    /* \"#utility.yul\":5813:5851   */\n  tag_126\n    /* \"#utility.yul\":5845:5849   */\n  dup3\n    /* \"#utility.yul\":5839:5850   */\n  sload\n    /* \"#utility.yul\":5813:5851   */\n  tag_45\n  jump\t// in\ntag_126:\n    /* \"#utility.yul\":5898:5965   */\n  tag_127\n    /* \"#utility.yul\":5958:5964   */\n  dup3\n    /* \"#utility.yul\":5950:5956   */\n  dup3\n    /* \"#utility.yul\":5944:5948   */\n  dup6\n    /* \"#utility.yul\":5898:5965   */\n  tag_58\n  jump\t// in\ntag_127:\n    /* \"#utility.yul\":5992:5993   */\n  0x00\n    /* \"#utility.yul\":6016:6020   */\n  0x20\n    /* \"#utility.yul\":6003:6020   */\n  swap1\n  pop\n    /* \"#utility.yul\":6048:6050   */\n  0x1f\n    /* \"#utility.yul\":6040:6046   */\n  dup4\n    /* \"#utility.yul\":6037:6051   */\n  gt\n    /* \"#utility.yul\":6065:6066   */\n  0x01\n    /* \"#utility.yul\":6060:6678   */\n  dup2\n  eq\n  tag_129\n  jumpi\n    /* \"#utility.yul\":6722:6723   */\n  0x00\n    /* \"#utility.yul\":6739:6745   */\n  dup5\n    /* \"#utility.yul\":6736:6813   */\n  iszero\n  tag_130\n  jumpi\n    /* \"#utility.yul\":6788:6797   */\n  dup3\n    /* \"#utility.yul\":6783:6786   */\n  dup8\n    /* \"#utility.yul\":6779:6798   */\n  add\n    /* \"#utility.yul\":6773:6799   */\n  mload\n    /* \"#utility.yul\":6764:6799   */\n  swap1\n  pop\n    /* \"#utility.yul\":6736:6813   */\ntag_130:\n    /* \"#utility.yul\":6839:6906   */\n  tag_131\n    /* \"#utility.yul\":6899:6905   */\n  dup6\n    /* \"#utility.yul\":6892:6897   */\n  dup3\n    /* \"#utility.yul\":6839:6906   */\n  tag_61\n  jump\t// in\ntag_131:\n    /* \"#utility.yul\":6833:6837   */\n  dup7\n    /* \"#utility.yul\":6826:6907   */\n  sstore\n    /* \"#utility.yul\":6695:6917   */\n  pop\n    /* \"#utility.yul\":6030:6917   */\n  jump(tag_128)\n    /* \"#utility.yul\":6060:6678   */\ntag_129:\n    /* \"#utility.yul\":6112:6116   */\n  0x1f\n    /* \"#utility.yul\":6108:6117   */\n  not\n    /* \"#utility.yul\":6100:6106   */\n  dup5\n    /* \"#utility.yul\":6096:6118   */\n  and\n    /* \"#utility.yul\":6146:6183   */\n  tag_132\n    /* \"#utility.yul\":6178:6182   */\n  dup7\n    /* \"#utility.yul\":6146:6183   */\n  tag_46\n  jump\t// in\ntag_132:\n    /* \"#utility.yul\":6205:6206   */\n  0x00\n    /* \"#utility.yul\":6219:6427   */\ntag_133:\n    /* \"#utility.yul\":6233:6240   */\n  dup3\n    /* \"#utility.yul\":6230:6231   */\n  dup2\n    /* \"#utility.yul\":6227:6241   */\n  lt\n    /* \"#utility.yul\":6219:6427   */\n  iszero\n  tag_135\n  jumpi\n    /* \"#utility.yul\":6312:6321   */\n  dup5\n    /* \"#utility.yul\":6307:6310   */\n  dup10\n    /* \"#utility.yul\":6303:6322   */\n  add\n    /* \"#utility.yul\":6297:6323   */\n  mload\n    /* \"#utility.yul\":6289:6295   */\n  dup3\n    /* \"#utility.yul\":6282:6324   */\n  sstore\n    /* \"#utility.yul\":6363:6364   */\n  0x01\n    /* \"#utility.yul\":6355:6361   */\n  dup3\n    /* \"#utility.yul\":6351:6365   */\n  add\n    /* \"#utility.yul\":6341:6365   */\n  swap2\n  pop\n    /* \"#utility.yul\":6410:6412   */\n  0x20\n    /* \"#utility.yul\":6399:6408   */\n  dup6\n    /* \"#utility.yul\":6395:6413   */\n  add\n    /* \"#utility.yul\":6382:6413   */\n  swap5\n  pop\n    /* \"#utility.yul\":6256:6260   */\n  0x20\n    /* \"#utility.yul\":6253:6254   */\n  dup2\n    /* \"#utility.yul\":6249:6261   */\n  add\n    /* \"#utility.yul\":6244:6261   */\n  swap1\n  pop\n    /* \"#utility.yul\":6219:6427   */\n  jump(tag_133)\ntag_135:\n    /* \"#utility.yul\":6455:6461   */\n  dup7\n    /* \"#utility.yul\":6446:6453   */\n  dup4\n    /* \"#utility.yul\":6443:6462   */\n  lt\n    /* \"#utility.yul\":6440:6619   */\n  iszero\n  tag_136\n  jumpi\n    /* \"#utility.yul\":6513:6522   */\n  dup5\n    /* \"#utility.yul\":6508:6511   */\n  dup10\n    /* \"#utility.yul\":6504:6523   */\n  add\n    /* \"#utility.yul\":6498:6524   */\n  mload\n    /* \"#utility.yul\":6556:6604   */\n  tag_137\n    /* \"#utility.yul\":6598:6602   */\n  0x1f\n    /* \"#utility.yul\":6590:6596   */\n  dup10\n    /* \"#utility.yul\":6586:6603   */\n  and\n    /* \"#utility.yul\":6575:6584   */\n  dup3\n    /* \"#utility.yul\":6556:6604   */\n  tag_60\n  jump\t// in\ntag_137:\n    /* \"#utility.yul\":6548:6554   */\n  dup4\n    /* \"#utility.yul\":6541:6605   */\n  sstore\n    /* \"#utility.yul\":6463:6619   */\n  pop\n    /* \"#utility.yul\":6440:6619   */\ntag_136:\n    /* \"#utility.yul\":6665:6666   */\n  0x01\n    /* \"#utility.yul\":6661:6662   */\n  0x02\n    /* \"#utility.yul\":6653:6659   */\n  dup9\n    /* \"#utility.yul\":6649:6663   */\n  mul\n    /* \"#utility.yul\":6645:6667   */\n  add\n    /* \"#utility.yul\":6639:6643   */\n  dup9\n    /* \"#utility.yul\":6632:6668   */\n  sstore\n    /* \"#utility.yul\":6067:6678   */\n  pop\n  pop\n  pop\n    /* \"#utility.yul\":6030:6917   */\ntag_128:\n  pop\n    /* \"#utility.yul\":5620:6923   */\n  pop\n  pop\n  pop\n    /* \"#utility.yul\":5528:6923   */\n  pop\n  pop\n  jump\t// out\n    /* \"ElectronicMedicalRecords.sol\":66:1287  contract ContractDeployer {... */\ntag_35:\n  dataSize(sub_0)\n  dup1\n  dataOffset(sub_0)\n  0x00\n  codecopy\n  0x00\n  return\nstop\n\nsub_0: assembly {\n        /* \"ElectronicMedicalRecords.sol\":66:1287  contract ContractDeployer {... */\n      mstore(0x40, 0x80)\n      callvalue\n      dup1\n      iszero\n      tag_1\n      jumpi\n      0x00\n      dup1\n      revert\n    tag_1:\n      pop\n      jumpi(tag_2, lt(calldatasize, 0x04))\n      shr(0xe0, calldataload(0x00))\n      dup1\n      0xc4fe354c\n      eq\n      tag_3\n      jumpi\n      dup1\n      0xf851a440\n      eq\n      tag_4\n      jumpi\n    tag_2:\n      0x00\n      dup1\n      revert\n        /* \"ElectronicMedicalRecords.sol\":1086:1284  function getAllContractAddress(string memory _name) public view returns (ContractAddress[] memory data) {... */\n    tag_3:\n      tag_5\n      0x04\n      dup1\n      calldatasize\n      sub\n      dup2\n      add\n      swap1\n      tag_6\n      swap2\n      swap1\n      tag_7\n      jump\t// in\n    tag_6:\n      tag_8\n      jump\t// in\n    tag_5:\n      mload(0x40)\n      tag_9\n      swap2\n      swap1\n      tag_10\n      jump\t// in\n    tag_9:\n      mload(0x40)\n      dup1\n      swap2\n      sub\n      swap1\n      return\n        /* \"ElectronicMedicalRecords.sol\":268:288  address public admin */\n    tag_4:\n      tag_11\n      tag_12\n      jump\t// in\n    tag_11:\n      mload(0x40)\n      tag_13\n      swap2\n      swap1\n      tag_14\n      jump\t// in\n    tag_13:\n      mload(0x40)\n      dup1\n      swap2\n      sub\n      swap1\n      return\n        /* \"ElectronicMedicalRecords.sol\":1086:1284  function getAllContractAddress(string memory _name) public view returns (ContractAddress[] memory data) {... */\n    tag_8:\n        /* \"ElectronicMedicalRecords.sol\":1159:1188  ContractAddress[] memory data */\n      0x60\n        /* \"ElectronicMedicalRecords.sol\":1223:1228  admin */\n      0x01\n      0x00\n      swap1\n      sload\n      swap1\n      0x0100\n      exp\n      swap1\n      div\n      0xffffffffffffffffffffffffffffffffffffffff\n      and\n        /* \"ElectronicMedicalRecords.sol\":1209:1228  msg.sender == admin */\n      0xffffffffffffffffffffffffffffffffffffffff\n      and\n        /* \"ElectronicMedicalRecords.sol\":1209:1219  msg.sender */\n      caller\n        /* \"ElectronicMedicalRecords.sol\":1209:1228  msg.sender == admin */\n      0xffffffffffffffffffffffffffffffffffffffff\n      and\n      eq\n        /* \"ElectronicMedicalRecords.sol\":1201:1229  require(msg.sender == admin) */\n      tag_16\n      jumpi\n      0x00\n      dup1\n      revert\n    tag_16:\n        /* \"ElectronicMedicalRecords.sol\":1247:1269  bunchOfContractAddress */\n      0x00\n        /* \"ElectronicMedicalRecords.sol\":1270:1275  _name */\n      dup3\n        /* \"ElectronicMedicalRecords.sol\":1247:1276  bunchOfContractAddress[_name] */\n      mload(0x40)\n      tag_17\n      swap2\n      swap1\n      tag_18\n      jump\t// in\n    tag_17:\n      swap1\n      dup2\n      mstore\n      0x20\n      add\n      mload(0x40)\n      dup1\n      swap2\n      sub\n      swap1\n      keccak256\n        /* \"ElectronicMedicalRecords.sol\":1240:1276  return bunchOfContractAddress[_name] */\n      dup1\n      sload\n      dup1\n      0x20\n      mul\n      0x20\n      add\n      mload(0x40)\n      swap1\n      dup2\n      add\n      0x40\n      mstore\n      dup1\n      swap3\n      swap2\n      swap1\n      dup2\n      dup2\n      mstore\n      0x20\n      add\n      0x00\n      swap1\n    tag_19:\n      dup3\n      dup3\n      lt\n      iszero\n      tag_20\n      jumpi\n      dup4\n      dup3\n      swap1\n      0x00\n      mstore\n      keccak256(0x00, 0x20)\n      swap1\n      0x02\n      mul\n      add\n      mload(0x40)\n      dup1\n      0x40\n      add\n      0x40\n      mstore\n      swap1\n      dup2\n      0x00\n      dup3\n      add\n      dup1\n      sload\n      tag_22\n      swap1\n      tag_23\n      jump\t// in\n    tag_22:\n      dup1\n      0x1f\n      add\n      0x20\n      dup1\n      swap2\n      div\n      mul\n      0x20\n      add\n      mload(0x40)\n      swap1\n      dup2\n      add\n      0x40\n      mstore\n      dup1\n      swap3\n      swap2\n      swap1\n      dup2\n      dup2\n      mstore\n      0x20\n      add\n      dup3\n      dup1\n      sload\n      tag_24\n      swap1\n      tag_23\n      jump\t// in\n    tag_24:\n      dup1\n      iszero\n      tag_25\n      jumpi\n      dup1\n      0x1f\n      lt\n      tag_26\n      jumpi\n      0x0100\n      dup1\n      dup4\n      sload\n      div\n      mul\n      dup4\n      mstore\n      swap2\n      0x20\n      add\n      swap2\n      jump(tag_25)\n    tag_26:\n      dup3\n      add\n      swap2\n      swap1\n      0x00\n      mstore\n      keccak256(0x00, 0x20)\n      swap1\n    tag_27:\n      dup2\n      sload\n      dup2\n      mstore\n      swap1\n      0x01\n      add\n      swap1\n      0x20\n      add\n      dup1\n      dup4\n      gt\n      tag_27\n      jumpi\n      dup3\n      swap1\n      sub\n      0x1f\n      and\n      dup3\n      add\n      swap2\n    tag_25:\n      pop\n      pop\n      pop\n      pop\n      pop\n      dup2\n      mstore\n      0x20\n      add\n      0x01\n      dup3\n      add\n      0x00\n      swap1\n      sload\n      swap1\n      0x0100\n      exp\n      swap1\n      div\n      0xffffffffffffffffffffffffffffffffffffffff\n      and\n      0xffffffffffffffffffffffffffffffffffffffff\n      and\n      0xffffffffffffffffffffffffffffffffffffffff\n      and\n      dup2\n      mstore\n      pop\n      pop\n      dup2\n      mstore\n      0x20\n      add\n      swap1\n      0x01\n      add\n      swap1\n      jump(tag_19)\n    tag_20:\n      pop\n      pop\n      pop\n      pop\n      swap1\n      pop\n        /* \"ElectronicMedicalRecords.sol\":1086:1284  function getAllContractAddress(string memory _name) public view returns (ContractAddress[] memory data) {... */\n      swap2\n      swap1\n      pop\n      jump\t// out\n        /* \"ElectronicMedicalRecords.sol\":268:288  address public admin */\n    tag_12:\n      0x01\n      0x00\n      swap1\n      sload\n      swap1\n      0x0100\n      exp\n      swap1\n      div\n      0xffffffffffffffffffffffffffffffffffffffff\n      and\n      dup2\n      jump\t// out\n        /* \"#utility.yul\":7:82   */\n    tag_28:\n        /* \"#utility.yul\":40:46   */\n      0x00\n        /* \"#utility.yul\":73:75   */\n      0x40\n        /* \"#utility.yul\":67:76   */\n      mload\n        /* \"#utility.yul\":57:76   */\n      swap1\n      pop\n        /* \"#utility.yul\":7:82   */\n      swap1\n      jump\t// out\n        /* \"#utility.yul\":88:205   */\n    tag_29:\n        /* \"#utility.yul\":197:198   */\n      0x00\n        /* \"#utility.yul\":194:195   */\n      dup1\n        /* \"#utility.yul\":187:199   */\n      revert\n        /* \"#utility.yul\":211:328   */\n    tag_30:\n        /* \"#utility.yul\":320:321   */\n      0x00\n        /* \"#utility.yul\":317:318   */\n      dup1\n        /* \"#utility.yul\":310:322   */\n      revert\n        /* \"#utility.yul\":334:451   */\n    tag_31:\n        /* \"#utility.yul\":443:444   */\n      0x00\n        /* \"#utility.yul\":440:441   */\n      dup1\n        /* \"#utility.yul\":433:445   */\n      revert\n        /* \"#utility.yul\":457:574   */\n    tag_32:\n        /* \"#utility.yul\":566:567   */\n      0x00\n        /* \"#utility.yul\":563:564   */\n      dup1\n        /* \"#utility.yul\":556:568   */\n      revert\n        /* \"#utility.yul\":580:682   */\n    tag_33:\n        /* \"#utility.yul\":621:627   */\n      0x00\n        /* \"#utility.yul\":672:674   */\n      0x1f\n        /* \"#utility.yul\":668:675   */\n      not\n        /* \"#utility.yul\":663:665   */\n      0x1f\n        /* \"#utility.yul\":656:661   */\n      dup4\n        /* \"#utility.yul\":652:666   */\n      add\n        /* \"#utility.yul\":648:676   */\n      and\n        /* \"#utility.yul\":638:676   */\n      swap1\n      pop\n        /* \"#utility.yul\":580:682   */\n      swap2\n      swap1\n      pop\n      jump\t// out\n        /* \"#utility.yul\":688:868   */\n    tag_34:\n        /* \"#utility.yul\":736:813   */\n      0x4e487b7100000000000000000000000000000000000000000000000000000000\n        /* \"#utility.yul\":733:734   */\n      0x00\n        /* \"#utility.yul\":726:814   */\n      mstore\n        /* \"#utility.yul\":833:837   */\n      0x41\n        /* \"#utility.yul\":830:831   */\n      0x04\n        /* \"#utility.yul\":823:838   */\n      mstore\n        /* \"#utility.yul\":857:861   */\n      0x24\n        /* \"#utility.yul\":854:855   */\n      0x00\n        /* \"#utility.yul\":847:862   */\n      revert\n        /* \"#utility.yul\":874:1155   */\n    tag_35:\n        /* \"#utility.yul\":957:984   */\n      tag_68\n        /* \"#utility.yul\":979:983   */\n      dup3\n        /* \"#utility.yul\":957:984   */\n      tag_33\n      jump\t// in\n    tag_68:\n        /* \"#utility.yul\":949:955   */\n      dup2\n        /* \"#utility.yul\":945:985   */\n      add\n        /* \"#utility.yul\":1087:1093   */\n      dup2\n        /* \"#utility.yul\":1075:1085   */\n      dup2\n        /* \"#utility.yul\":1072:1094   */\n      lt\n        /* \"#utility.yul\":1051:1069   */\n      0xffffffffffffffff\n        /* \"#utility.yul\":1039:1049   */\n      dup3\n        /* \"#utility.yul\":1036:1070   */\n      gt\n        /* \"#utility.yul\":1033:1095   */\n      or\n        /* \"#utility.yul\":1030:1118   */\n      iszero\n      tag_69\n      jumpi\n        /* \"#utility.yul\":1098:1116   */\n      tag_70\n      tag_34\n      jump\t// in\n    tag_70:\n        /* \"#utility.yul\":1030:1118   */\n    tag_69:\n        /* \"#utility.yul\":1138:1148   */\n      dup1\n        /* \"#utility.yul\":1134:1136   */\n      0x40\n        /* \"#utility.yul\":1127:1149   */\n      mstore\n        /* \"#utility.yul\":917:1155   */\n      pop\n        /* \"#utility.yul\":874:1155   */\n      pop\n      pop\n      jump\t// out\n        /* \"#utility.yul\":1161:1290   */\n    tag_36:\n        /* \"#utility.yul\":1195:1201   */\n      0x00\n        /* \"#utility.yul\":1222:1242   */\n      tag_72\n      tag_28\n      jump\t// in\n    tag_72:\n        /* \"#utility.yul\":1212:1242   */\n      swap1\n      pop\n        /* \"#utility.yul\":1251:1284   */\n      tag_73\n        /* \"#utility.yul\":1279:1283   */\n      dup3\n        /* \"#utility.yul\":1271:1277   */\n      dup3\n        /* \"#utility.yul\":1251:1284   */\n      tag_35\n      jump\t// in\n    tag_73:\n        /* \"#utility.yul\":1161:1290   */\n      swap2\n      swap1\n      pop\n      jump\t// out\n        /* \"#utility.yul\":1296:1604   */\n    tag_37:\n        /* \"#utility.yul\":1358:1362   */\n      0x00\n        /* \"#utility.yul\":1448:1466   */\n      0xffffffffffffffff\n        /* \"#utility.yul\":1440:1446   */\n      dup3\n        /* \"#utility.yul\":1437:1467   */\n      gt\n        /* \"#utility.yul\":1434:1490   */\n      iszero\n      tag_75\n      jumpi\n        /* \"#utility.yul\":1470:1488   */\n      tag_76\n      tag_34\n      jump\t// in\n    tag_76:\n        /* \"#utility.yul\":1434:1490   */\n    tag_75:\n        /* \"#utility.yul\":1508:1537   */\n      tag_77\n        /* \"#utility.yul\":1530:1536   */\n      dup3\n        /* \"#utility.yul\":1508:1537   */\n      tag_33\n      jump\t// in\n    tag_77:\n        /* \"#utility.yul\":1500:1537   */\n      swap1\n      pop\n        /* \"#utility.yul\":1592:1596   */\n      0x20\n        /* \"#utility.yul\":1586:1590   */\n      dup2\n        /* \"#utility.yul\":1582:1597   */\n      add\n        /* \"#utility.yul\":1574:1597   */\n      swap1\n      pop\n        /* \"#utility.yul\":1296:1604   */\n      swap2\n      swap1\n      pop\n      jump\t// out\n        /* \"#utility.yul\":1610:1756   */\n    tag_38:\n        /* \"#utility.yul\":1707:1713   */\n      dup3\n        /* \"#utility.yul\":1702:1705   */\n      dup2\n        /* \"#utility.yul\":1697:1700   */\n      dup4\n        /* \"#utility.yul\":1684:1714   */\n      calldatacopy\n        /* \"#utility.yul\":1748:1749   */\n      0x00\n        /* \"#utility.yul\":1739:1745   */\n      dup4\n        /* \"#utility.yul\":1734:1737   */\n      dup4\n        /* \"#utility.yul\":1730:1746   */\n      add\n        /* \"#utility.yul\":1723:1750   */\n      mstore\n        /* \"#utility.yul\":1610:1756   */\n      pop\n      pop\n      pop\n      jump\t// out\n        /* \"#utility.yul\":1762:2187   */\n    tag_39:\n        /* \"#utility.yul\":1840:1845   */\n      0x00\n        /* \"#utility.yul\":1865:1931   */\n      tag_80\n        /* \"#utility.yul\":1881:1930   */\n      tag_81\n        /* \"#utility.yul\":1923:1929   */\n      dup5\n        /* \"#utility.yul\":1881:1930   */\n      tag_37\n      jump\t// in\n    tag_81:\n        /* \"#utility.yul\":1865:1931   */\n      tag_36\n      jump\t// in\n    tag_80:\n        /* \"#utility.yul\":1856:1931   */\n      swap1\n      pop\n        /* \"#utility.yul\":1954:1960   */\n      dup3\n        /* \"#utility.yul\":1947:1952   */\n      dup2\n        /* \"#utility.yul\":1940:1961   */\n      mstore\n        /* \"#utility.yul\":1992:1996   */\n      0x20\n        /* \"#utility.yul\":1985:1990   */\n      dup2\n        /* \"#utility.yul\":1981:1997   */\n      add\n        /* \"#utility.yul\":2030:2033   */\n      dup5\n        /* \"#utility.yul\":2021:2027   */\n      dup5\n        /* \"#utility.yul\":2016:2019   */\n      dup5\n        /* \"#utility.yul\":2012:2028   */\n      add\n        /* \"#utility.yul\":2009:2034   */\n      gt\n        /* \"#utility.yul\":2006:2118   */\n      iszero\n      tag_82\n      jumpi\n        /* \"#utility.yul\":2037:2116   */\n      tag_83\n      tag_32\n      jump\t// in\n    tag_83:\n        /* \"#utility.yul\":2006:2118   */\n    tag_82:\n        /* \"#utility.yul\":2127:2181   */\n      tag_84\n        /* \"#utility.yul\":2174:2180   */\n      dup5\n        /* \"#utility.yul\":2169:2172   */\n      dup3\n        /* \"#utility.yul\":2164:2167   */\n      dup6\n        /* \"#utility.yul\":2127:2181   */\n      tag_38\n      jump\t// in\n    tag_84:\n        /* \"#utility.yul\":1846:2187   */\n      pop\n        /* \"#utility.yul\":1762:2187   */\n      swap4\n      swap3\n      pop\n      pop\n      pop\n      jump\t// out\n        /* \"#utility.yul\":2207:2547   */\n    tag_40:\n        /* \"#utility.yul\":2263:2268   */\n      0x00\n        /* \"#utility.yul\":2312:2315   */\n      dup3\n        /* \"#utility.yul\":2305:2309   */\n      0x1f\n        /* \"#utility.yul\":2297:2303   */\n      dup4\n        /* \"#utility.yul\":2293:2310   */\n      add\n        /* \"#utility.yul\":2289:2316   */\n      slt\n        /* \"#utility.yul\":2279:2401   */\n      tag_86\n      jumpi\n        /* \"#utility.yul\":2320:2399   */\n      tag_87\n      tag_31\n      jump\t// in\n    tag_87:\n        /* \"#utility.yul\":2279:2401   */\n    tag_86:\n        /* \"#utility.yul\":2437:2443   */\n      dup2\n        /* \"#utility.yul\":2424:2444   */\n      calldataload\n        /* \"#utility.yul\":2462:2541   */\n      tag_88\n        /* \"#utility.yul\":2537:2540   */\n      dup5\n        /* \"#utility.yul\":2529:2535   */\n      dup3\n        /* \"#utility.yul\":2522:2526   */\n      0x20\n        /* \"#utility.yul\":2514:2520   */\n      dup7\n        /* \"#utility.yul\":2510:2527   */\n      add\n        /* \"#utility.yul\":2462:2541   */\n      tag_39\n      jump\t// in\n    tag_88:\n        /* \"#utility.yul\":2453:2541   */\n      swap2\n      pop\n        /* \"#utility.yul\":2269:2547   */\n      pop\n        /* \"#utility.yul\":2207:2547   */\n      swap3\n      swap2\n      pop\n      pop\n      jump\t// out\n        /* \"#utility.yul\":2553:3062   */\n    tag_7:\n        /* \"#utility.yul\":2622:2628   */\n      0x00\n        /* \"#utility.yul\":2671:2673   */\n      0x20\n        /* \"#utility.yul\":2659:2668   */\n      dup3\n        /* \"#utility.yul\":2650:2657   */\n      dup5\n        /* \"#utility.yul\":2646:2669   */\n      sub\n        /* \"#utility.yul\":2642:2674   */\n      slt\n        /* \"#utility.yul\":2639:2758   */\n      iszero\n      tag_90\n      jumpi\n        /* \"#utility.yul\":2677:2756   */\n      tag_91\n      tag_29\n      jump\t// in\n    tag_91:\n        /* \"#utility.yul\":2639:2758   */\n    tag_90:\n        /* \"#utility.yul\":2825:2826   */\n      0x00\n        /* \"#utility.yul\":2814:2823   */\n      dup3\n        /* \"#utility.yul\":2810:2827   */\n      add\n        /* \"#utility.yul\":2797:2828   */\n      calldataload\n        /* \"#utility.yul\":2855:2873   */\n      0xffffffffffffffff\n        /* \"#utility.yul\":2847:2853   */\n      dup2\n        /* \"#utility.yul\":2844:2874   */\n      gt\n        /* \"#utility.yul\":2841:2958   */\n      iszero\n      tag_92\n      jumpi\n        /* \"#utility.yul\":2877:2956   */\n      tag_93\n      tag_30\n      jump\t// in\n    tag_93:\n        /* \"#utility.yul\":2841:2958   */\n    tag_92:\n        /* \"#utility.yul\":2982:3045   */\n      tag_94\n        /* \"#utility.yul\":3037:3044   */\n      dup5\n        /* \"#utility.yul\":3028:3034   */\n      dup3\n        /* \"#utility.yul\":3017:3026   */\n      dup6\n        /* \"#utility.yul\":3013:3035   */\n      add\n        /* \"#utility.yul\":2982:3045   */\n      tag_40\n      jump\t// in\n    tag_94:\n        /* \"#utility.yul\":2972:3045   */\n      swap2\n      pop\n        /* \"#utility.yul\":2768:3055   */\n      pop\n        /* \"#utility.yul\":2553:3062   */\n      swap3\n      swap2\n      pop\n      pop\n      jump\t// out\n        /* \"#utility.yul\":3068:3212   */\n    tag_41:\n        /* \"#utility.yul\":3165:3171   */\n      0x00\n        /* \"#utility.yul\":3199:3204   */\n      dup2\n        /* \"#utility.yul\":3193:3205   */\n      mload\n        /* \"#utility.yul\":3183:3205   */\n      swap1\n      pop\n        /* \"#utility.yul\":3068:3212   */\n      swap2\n      swap1\n      pop\n      jump\t// out\n        /* \"#utility.yul\":3218:3432   */\n    tag_42:\n        /* \"#utility.yul\":3347:3358   */\n      0x00\n        /* \"#utility.yul\":3381:3387   */\n      dup3\n        /* \"#utility.yul\":3376:3379   */\n      dup3\n        /* \"#utility.yul\":3369:3388   */\n      mstore\n        /* \"#utility.yul\":3421:3425   */\n      0x20\n        /* \"#utility.yul\":3416:3419   */\n      dup3\n        /* \"#utility.yul\":3412:3426   */\n      add\n        /* \"#utility.yul\":3397:3426   */\n      swap1\n      pop\n        /* \"#utility.yul\":3218:3432   */\n      swap3\n      swap2\n      pop\n      pop\n      jump\t// out\n        /* \"#utility.yul\":3438:3600   */\n    tag_43:\n        /* \"#utility.yul\":3535:3539   */\n      0x00\n        /* \"#utility.yul\":3558:3561   */\n      dup2\n        /* \"#utility.yul\":3550:3561   */\n      swap1\n      pop\n        /* \"#utility.yul\":3588:3592   */\n      0x20\n        /* \"#utility.yul\":3583:3586   */\n      dup3\n        /* \"#utility.yul\":3579:3593   */\n      add\n        /* \"#utility.yul\":3571:3593   */\n      swap1\n      pop\n        /* \"#utility.yul\":3438:3600   */\n      swap2\n      swap1\n      pop\n      jump\t// out\n        /* \"#utility.yul\":3606:3705   */\n    tag_44:\n        /* \"#utility.yul\":3658:3664   */\n      0x00\n        /* \"#utility.yul\":3692:3697   */\n      dup2\n        /* \"#utility.yul\":3686:3698   */\n      mload\n        /* \"#utility.yul\":3676:3698   */\n      swap1\n      pop\n        /* \"#utility.yul\":3606:3705   */\n      swap2\n      swap1\n      pop\n      jump\t// out\n        /* \"#utility.yul\":3711:3870   */\n    tag_45:\n        /* \"#utility.yul\":3785:3796   */\n      0x00\n        /* \"#utility.yul\":3819:3825   */\n      dup3\n        /* \"#utility.yul\":3814:3817   */\n      dup3\n        /* \"#utility.yul\":3807:3826   */\n      mstore\n        /* \"#utility.yul\":3859:3863   */\n      0x20\n        /* \"#utility.yul\":3854:3857   */\n      dup3\n        /* \"#utility.yul\":3850:3864   */\n      add\n        /* \"#utility.yul\":3835:3864   */\n      swap1\n      pop\n        /* \"#utility.yul\":3711:3870   */\n      swap3\n      swap2\n      pop\n      pop\n      jump\t// out\n        /* \"#utility.yul\":3876:4122   */\n    tag_46:\n        /* \"#utility.yul\":3957:3958   */\n      0x00\n        /* \"#utility.yul\":3967:4080   */\n    tag_101:\n        /* \"#utility.yul\":3981:3987   */\n      dup4\n        /* \"#utility.yul\":3978:3979   */\n      dup2\n        /* \"#utility.yul\":3975:3988   */\n      lt\n        /* \"#utility.yul\":3967:4080   */\n      iszero\n      tag_103\n      jumpi\n        /* \"#utility.yul\":4066:4067   */\n      dup1\n        /* \"#utility.yul\":4061:4064   */\n      dup3\n        /* \"#utility.yul\":4057:4068   */\n      add\n        /* \"#utility.yul\":4051:4069   */\n      mload\n        /* \"#utility.yul\":4047:4048   */\n      dup2\n        /* \"#utility.yul\":4042:4045   */\n      dup5\n        /* \"#utility.yul\":4038:4049   */\n      add\n        /* \"#utility.yul\":4031:4070   */\n      mstore\n        /* \"#utility.yul\":4003:4005   */\n      0x20\n        /* \"#utility.yul\":4000:4001   */\n      dup2\n        /* \"#utility.yul\":3996:4006   */\n      add\n        /* \"#utility.yul\":3991:4006   */\n      swap1\n      pop\n        /* \"#utility.yul\":3967:4080   */\n      jump(tag_101)\n    tag_103:\n        /* \"#utility.yul\":4114:4115   */\n      0x00\n        /* \"#utility.yul\":4105:4111   */\n      dup5\n        /* \"#utility.yul\":4100:4103   */\n      dup5\n        /* \"#utility.yul\":4096:4112   */\n      add\n        /* \"#utility.yul\":4089:4116   */\n      mstore\n        /* \"#utility.yul\":3938:4122   */\n      pop\n        /* \"#utility.yul\":3876:4122   */\n      pop\n      pop\n      pop\n      jump\t// out\n        /* \"#utility.yul\":4128:4485   */\n    tag_47:\n        /* \"#utility.yul\":4206:4209   */\n      0x00\n        /* \"#utility.yul\":4234:4273   */\n      tag_105\n        /* \"#utility.yul\":4267:4272   */\n      dup3\n        /* \"#utility.yul\":4234:4273   */\n      tag_44\n      jump\t// in\n    tag_105:\n        /* \"#utility.yul\":4289:4350   */\n      tag_106\n        /* \"#utility.yul\":4343:4349   */\n      dup2\n        /* \"#utility.yul\":4338:4341   */\n      dup6\n        /* \"#utility.yul\":4289:4350   */\n      tag_45\n      jump\t// in\n    tag_106:\n        /* \"#utility.yul\":4282:4350   */\n      swap4\n      pop\n        /* \"#utility.yul\":4359:4424   */\n      tag_107\n        /* \"#utility.yul\":4417:4423   */\n      dup2\n        /* \"#utility.yul\":4412:4415   */\n      dup6\n        /* \"#utility.yul\":4405:4409   */\n      0x20\n        /* \"#utility.yul\":4398:4403   */\n      dup7\n        /* \"#utility.yul\":4394:4410   */\n      add\n        /* \"#utility.yul\":4359:4424   */\n      tag_46\n      jump\t// in\n    tag_107:\n        /* \"#utility.yul\":4449:4478   */\n      tag_108\n        /* \"#utility.yul\":4471:4477   */\n      dup2\n        /* \"#utility.yul\":4449:4478   */\n      tag_33\n      jump\t// in\n    tag_108:\n        /* \"#utility.yul\":4444:4447   */\n      dup5\n        /* \"#utility.yul\":4440:4479   */\n      add\n        /* \"#utility.yul\":4433:4479   */\n      swap2\n      pop\n        /* \"#utility.yul\":4210:4485   */\n      pop\n        /* \"#utility.yul\":4128:4485   */\n      swap3\n      swap2\n      pop\n      pop\n      jump\t// out\n        /* \"#utility.yul\":4491:4617   */\n    tag_48:\n        /* \"#utility.yul\":4528:4535   */\n      0x00\n        /* \"#utility.yul\":4568:4610   */\n      0xffffffffffffffffffffffffffffffffffffffff\n        /* \"#utility.yul\":4561:4566   */\n      dup3\n        /* \"#utility.yul\":4557:4611   */\n      and\n        /* \"#utility.yul\":4546:4611   */\n      swap1\n      pop\n        /* \"#utility.yul\":4491:4617   */\n      swap2\n      swap1\n      pop\n      jump\t// out\n        /* \"#utility.yul\":4623:4719   */\n    tag_49:\n        /* \"#utility.yul\":4660:4667   */\n      0x00\n        /* \"#utility.yul\":4689:4713   */\n      tag_111\n        /* \"#utility.yul\":4707:4712   */\n      dup3\n        /* \"#utility.yul\":4689:4713   */\n      tag_48\n      jump\t// in\n    tag_111:\n        /* \"#utility.yul\":4678:4713   */\n      swap1\n      pop\n        /* \"#utility.yul\":4623:4719   */\n      swap2\n      swap1\n      pop\n      jump\t// out\n        /* \"#utility.yul\":4725:4833   */\n    tag_50:\n        /* \"#utility.yul\":4802:4826   */\n      tag_113\n        /* \"#utility.yul\":4820:4825   */\n      dup2\n        /* \"#utility.yul\":4802:4826   */\n      tag_49\n      jump\t// in\n    tag_113:\n        /* \"#utility.yul\":4797:4800   */\n      dup3\n        /* \"#utility.yul\":4790:4827   */\n      mstore\n        /* \"#utility.yul\":4725:4833   */\n      pop\n      pop\n      jump\t// out\n        /* \"#utility.yul\":4929:5546   */\n    tag_51:\n        /* \"#utility.yul\":5048:5051   */\n      0x00\n        /* \"#utility.yul\":5084:5088   */\n      0x40\n        /* \"#utility.yul\":5079:5082   */\n      dup4\n        /* \"#utility.yul\":5075:5089   */\n      add\n        /* \"#utility.yul\":5171:5175   */\n      0x00\n        /* \"#utility.yul\":5164:5169   */\n      dup4\n        /* \"#utility.yul\":5160:5176   */\n      add\n        /* \"#utility.yul\":5154:5177   */\n      mload\n        /* \"#utility.yul\":5224:5227   */\n      dup5\n        /* \"#utility.yul\":5218:5222   */\n      dup3\n        /* \"#utility.yul\":5214:5228   */\n      sub\n        /* \"#utility.yul\":5207:5211   */\n      0x00\n        /* \"#utility.yul\":5202:5205   */\n      dup7\n        /* \"#utility.yul\":5198:5212   */\n      add\n        /* \"#utility.yul\":5191:5229   */\n      mstore\n        /* \"#utility.yul\":5250:5323   */\n      tag_115\n        /* \"#utility.yul\":5318:5322   */\n      dup3\n        /* \"#utility.yul\":5304:5316   */\n      dup3\n        /* \"#utility.yul\":5250:5323   */\n      tag_47\n      jump\t// in\n    tag_115:\n        /* \"#utility.yul\":5242:5323   */\n      swap2\n      pop\n        /* \"#utility.yul\":5099:5334   */\n      pop\n        /* \"#utility.yul\":5427:5431   */\n      0x20\n        /* \"#utility.yul\":5420:5425   */\n      dup4\n        /* \"#utility.yul\":5416:5432   */\n      add\n        /* \"#utility.yul\":5410:5433   */\n      mload\n        /* \"#utility.yul\":5446:5509   */\n      tag_116\n        /* \"#utility.yul\":5503:5507   */\n      0x20\n        /* \"#utility.yul\":5498:5501   */\n      dup7\n        /* \"#utility.yul\":5494:5508   */\n      add\n        /* \"#utility.yul\":5480:5492   */\n      dup3\n        /* \"#utility.yul\":5446:5509   */\n      tag_50\n      jump\t// in\n    tag_116:\n        /* \"#utility.yul\":5344:5519   */\n      pop\n        /* \"#utility.yul\":5536:5540   */\n      dup1\n        /* \"#utility.yul\":5529:5540   */\n      swap2\n      pop\n        /* \"#utility.yul\":5053:5546   */\n      pop\n        /* \"#utility.yul\":4929:5546   */\n      swap3\n      swap2\n      pop\n      pop\n      jump\t// out\n        /* \"#utility.yul\":5552:5828   */\n    tag_52:\n        /* \"#utility.yul\":5681:5691   */\n      0x00\n        /* \"#utility.yul\":5716:5822   */\n      tag_118\n        /* \"#utility.yul\":5818:5821   */\n      dup4\n        /* \"#utility.yul\":5810:5816   */\n      dup4\n        /* \"#utility.yul\":5716:5822   */\n      tag_51\n      jump\t// in\n    tag_118:\n        /* \"#utility.yul\":5702:5822   */\n      swap1\n      pop\n        /* \"#utility.yul\":5552:5828   */\n      swap3\n      swap2\n      pop\n      pop\n      jump\t// out\n        /* \"#utility.yul\":5834:5977   */\n    tag_53:\n        /* \"#utility.yul\":5934:5938   */\n      0x00\n        /* \"#utility.yul\":5966:5970   */\n      0x20\n        /* \"#utility.yul\":5961:5964   */\n      dup3\n        /* \"#utility.yul\":5957:5971   */\n      add\n        /* \"#utility.yul\":5949:5971   */\n      swap1\n      pop\n        /* \"#utility.yul\":5834:5977   */\n      swap2\n      swap1\n      pop\n      jump\t// out\n        /* \"#utility.yul\":6077:7228   */\n    tag_54:\n        /* \"#utility.yul\":6256:6259   */\n      0x00\n        /* \"#utility.yul\":6285:6369   */\n      tag_121\n        /* \"#utility.yul\":6363:6368   */\n      dup3\n        /* \"#utility.yul\":6285:6369   */\n      tag_41\n      jump\t// in\n    tag_121:\n        /* \"#utility.yul\":6385:6501   */\n      tag_122\n        /* \"#utility.yul\":6494:6500   */\n      dup2\n        /* \"#utility.yul\":6489:6492   */\n      dup6\n        /* \"#utility.yul\":6385:6501   */\n      tag_42\n      jump\t// in\n    tag_122:\n        /* \"#utility.yul\":6378:6501   */\n      swap4\n      pop\n        /* \"#utility.yul\":6527:6530   */\n      dup4\n        /* \"#utility.yul\":6572:6576   */\n      0x20\n        /* \"#utility.yul\":6564:6570   */\n      dup3\n        /* \"#utility.yul\":6560:6577   */\n      mul\n        /* \"#utility.yul\":6555:6558   */\n      dup6\n        /* \"#utility.yul\":6551:6578   */\n      add\n        /* \"#utility.yul\":6602:6688   */\n      tag_123\n        /* \"#utility.yul\":6682:6687   */\n      dup6\n        /* \"#utility.yul\":6602:6688   */\n      tag_43\n      jump\t// in\n    tag_123:\n        /* \"#utility.yul\":6711:6718   */\n      dup1\n        /* \"#utility.yul\":6742:6743   */\n      0x00\n        /* \"#utility.yul\":6727:7183   */\n    tag_124:\n        /* \"#utility.yul\":6752:6758   */\n      dup6\n        /* \"#utility.yul\":6749:6750   */\n      dup2\n        /* \"#utility.yul\":6746:6759   */\n      lt\n        /* \"#utility.yul\":6727:7183   */\n      iszero\n      tag_126\n      jumpi\n        /* \"#utility.yul\":6823:6832   */\n      dup5\n        /* \"#utility.yul\":6817:6821   */\n      dup5\n        /* \"#utility.yul\":6813:6833   */\n      sub\n        /* \"#utility.yul\":6808:6811   */\n      dup10\n        /* \"#utility.yul\":6801:6834   */\n      mstore\n        /* \"#utility.yul\":6874:6880   */\n      dup2\n        /* \"#utility.yul\":6868:6881   */\n      mload\n        /* \"#utility.yul\":6902:7026   */\n      tag_127\n        /* \"#utility.yul\":7021:7025   */\n      dup6\n        /* \"#utility.yul\":7006:7019   */\n      dup3\n        /* \"#utility.yul\":6902:7026   */\n      tag_52\n      jump\t// in\n    tag_127:\n        /* \"#utility.yul\":6894:7026   */\n      swap5\n      pop\n        /* \"#utility.yul\":7049:7139   */\n      tag_128\n        /* \"#utility.yul\":7132:7138   */\n      dup4\n        /* \"#utility.yul\":7049:7139   */\n      tag_53\n      jump\t// in\n    tag_128:\n        /* \"#utility.yul\":7039:7139   */\n      swap3\n      pop\n        /* \"#utility.yul\":7168:7172   */\n      0x20\n        /* \"#utility.yul\":7163:7166   */\n      dup11\n        /* \"#utility.yul\":7159:7173   */\n      add\n        /* \"#utility.yul\":7152:7173   */\n      swap10\n      pop\n        /* \"#utility.yul\":6787:7183   */\n      pop\n        /* \"#utility.yul\":6774:6775   */\n      0x01\n        /* \"#utility.yul\":6771:6772   */\n      dup2\n        /* \"#utility.yul\":6767:6776   */\n      add\n        /* \"#utility.yul\":6762:6776   */\n      swap1\n      pop\n        /* \"#utility.yul\":6727:7183   */\n      jump(tag_124)\n    tag_126:\n        /* \"#utility.yul\":6731:6745   */\n      pop\n        /* \"#utility.yul\":7199:7203   */\n      dup3\n        /* \"#utility.yul\":7192:7203   */\n      swap8\n      pop\n        /* \"#utility.yul\":7219:7222   */\n      dup8\n        /* \"#utility.yul\":7212:7222   */\n      swap6\n      pop\n        /* \"#utility.yul\":6261:7228   */\n      pop\n      pop\n      pop\n      pop\n      pop\n        /* \"#utility.yul\":6077:7228   */\n      swap3\n      swap2\n      pop\n      pop\n      jump\t// out\n        /* \"#utility.yul\":7234:7727   */\n    tag_10:\n        /* \"#utility.yul\":7437:7441   */\n      0x00\n        /* \"#utility.yul\":7475:7477   */\n      0x20\n        /* \"#utility.yul\":7464:7473   */\n      dup3\n        /* \"#utility.yul\":7460:7478   */\n      add\n        /* \"#utility.yul\":7452:7478   */\n      swap1\n      pop\n        /* \"#utility.yul\":7524:7533   */\n      dup2\n        /* \"#utility.yul\":7518:7522   */\n      dup2\n        /* \"#utility.yul\":7514:7534   */\n      sub\n        /* \"#utility.yul\":7510:7511   */\n      0x00\n        /* \"#utility.yul\":7499:7508   */\n      dup4\n        /* \"#utility.yul\":7495:7512   */\n      add\n        /* \"#utility.yul\":7488:7535   */\n      mstore\n        /* \"#utility.yul\":7552:7720   */\n      tag_130\n        /* \"#utility.yul\":7715:7719   */\n      dup2\n        /* \"#utility.yul\":7706:7712   */\n      dup5\n        /* \"#utility.yul\":7552:7720   */\n      tag_54\n      jump\t// in\n    tag_130:\n        /* \"#utility.yul\":7544:7720   */\n      swap1\n      pop\n        /* \"#utility.yul\":7234:7727   */\n      swap3\n      swap2\n      pop\n      pop\n      jump\t// out\n        /* \"#utility.yul\":7733:7851   */\n    tag_55:\n        /* \"#utility.yul\":7820:7844   */\n      tag_132\n        /* \"#utility.yul\":7838:7843   */\n      dup2\n        /* \"#utility.yul\":7820:7844   */\n      tag_49\n      jump\t// in\n    tag_132:\n        /* \"#utility.yul\":7815:7818   */\n      dup3\n        /* \"#utility.yul\":7808:7845   */\n      mstore\n        /* \"#utility.yul\":7733:7851   */\n      pop\n      pop\n      jump\t// out\n        /* \"#utility.yul\":7857:8079   */\n    tag_14:\n        /* \"#utility.yul\":7950:7954   */\n      0x00\n        /* \"#utility.yul\":7988:7990   */\n      0x20\n        /* \"#utility.yul\":7977:7986   */\n      dup3\n        /* \"#utility.yul\":7973:7991   */\n      add\n        /* \"#utility.yul\":7965:7991   */\n      swap1\n      pop\n        /* \"#utility.yul\":8001:8072   */\n      tag_134\n        /* \"#utility.yul\":8069:8070   */\n      0x00\n        /* \"#utility.yul\":8058:8067   */\n      dup4\n        /* \"#utility.yul\":8054:8071   */\n      add\n        /* \"#utility.yul\":8045:8051   */\n      dup5\n        /* \"#utility.yul\":8001:8072   */\n      tag_55\n      jump\t// in\n    tag_134:\n        /* \"#utility.yul\":7857:8079   */\n      swap3\n      swap2\n      pop\n      pop\n      jump\t// out\n        /* \"#utility.yul\":8085:8233   */\n    tag_56:\n        /* \"#utility.yul\":8187:8198   */\n      0x00\n        /* \"#utility.yul\":8224:8227   */\n      dup2\n        /* \"#utility.yul\":8209:8227   */\n      swap1\n      pop\n        /* \"#utility.yul\":8085:8233   */\n      swap3\n      swap2\n      pop\n      pop\n      jump\t// out\n        /* \"#utility.yul\":8239:8629   */\n    tag_57:\n        /* \"#utility.yul\":8345:8348   */\n      0x00\n        /* \"#utility.yul\":8373:8412   */\n      tag_137\n        /* \"#utility.yul\":8406:8411   */\n      dup3\n        /* \"#utility.yul\":8373:8412   */\n      tag_44\n      jump\t// in\n    tag_137:\n        /* \"#utility.yul\":8428:8517   */\n      tag_138\n        /* \"#utility.yul\":8510:8516   */\n      dup2\n        /* \"#utility.yul\":8505:8508   */\n      dup6\n        /* \"#utility.yul\":8428:8517   */\n      tag_56\n      jump\t// in\n    tag_138:\n        /* \"#utility.yul\":8421:8517   */\n      swap4\n      pop\n        /* \"#utility.yul\":8526:8591   */\n      tag_139\n        /* \"#utility.yul\":8584:8590   */\n      dup2\n        /* \"#utility.yul\":8579:8582   */\n      dup6\n        /* \"#utility.yul\":8572:8576   */\n      0x20\n        /* \"#utility.yul\":8565:8570   */\n      dup7\n        /* \"#utility.yul\":8561:8577   */\n      add\n        /* \"#utility.yul\":8526:8591   */\n      tag_46\n      jump\t// in\n    tag_139:\n        /* \"#utility.yul\":8616:8622   */\n      dup1\n        /* \"#utility.yul\":8611:8614   */\n      dup5\n        /* \"#utility.yul\":8607:8623   */\n      add\n        /* \"#utility.yul\":8600:8623   */\n      swap2\n      pop\n        /* \"#utility.yul\":8349:8629   */\n      pop\n        /* \"#utility.yul\":8239:8629   */\n      swap3\n      swap2\n      pop\n      pop\n      jump\t// out\n        /* \"#utility.yul\":8635:8910   */\n    tag_18:\n        /* \"#utility.yul\":8767:8770   */\n      0x00\n        /* \"#utility.yul\":8789:8884   */\n      tag_141\n        /* \"#utility.yul\":8880:8883   */\n      dup3\n        /* \"#utility.yul\":8871:8877   */\n      dup5\n        /* \"#utility.yul\":8789:8884   */\n      tag_57\n      jump\t// in\n    tag_141:\n        /* \"#utility.yul\":8782:8884   */\n      swap2\n      pop\n        /* \"#utility.yul\":8901:8904   */\n      dup2\n        /* \"#utility.yul\":8894:8904   */\n      swap1\n      pop\n        /* \"#utility.yul\":8635:8910   */\n      swap3\n      swap2\n      pop\n      pop\n      jump\t// out\n        /* \"#utility.yul\":8916:9096   */\n    tag_58:\n        /* \"#utility.yul\":8964:9041   */\n      0x4e487b7100000000000000000000000000000000000000000000000000000000\n        /* \"#utility.yul\":8961:8962   */\n      0x00\n        /* \"#utility.yul\":8954:9042   */\n      mstore\n        /* \"#utility.yul\":9061:9065   */\n      0x22\n        /* \"#utility.yul\":9058:9059   */\n      0x04\n        /* \"#utility.yul\":9051:9066   */\n      mstore\n        /* \"#utility.yul\":9085:9089   */\n      0x24\n        /* \"#utility.yul\":9082:9083   */\n      0x00\n        /* \"#utility.yul\":9075:9090   */\n      revert\n        /* \"#utility.yul\":9102:9422   */\n    tag_23:\n        /* \"#utility.yul\":9146:9152   */\n      0x00\n        /* \"#utility.yul\":9183:9184   */\n      0x02\n        /* \"#utility.yul\":9177:9181   */\n      dup3\n        /* \"#utility.yul\":9173:9185   */\n      div\n        /* \"#utility.yul\":9163:9185   */\n      swap1\n      pop\n        /* \"#utility.yul\":9230:9231   */\n      0x01\n        /* \"#utility.yul\":9224:9228   */\n      dup3\n        /* \"#utility.yul\":9220:9232   */\n      and\n        /* \"#utility.yul\":9251:9269   */\n      dup1\n        /* \"#utility.yul\":9241:9322   */\n      tag_144\n      jumpi\n        /* \"#utility.yul\":9307:9311   */\n      0x7f\n        /* \"#utility.yul\":9299:9305   */\n      dup3\n        /* \"#utility.yul\":9295:9312   */\n      and\n        /* \"#utility.yul\":9285:9312   */\n      swap2\n      pop\n        /* \"#utility.yul\":9241:9322   */\n    tag_144:\n        /* \"#utility.yul\":9369:9371   */\n      0x20\n        /* \"#utility.yul\":9361:9367   */\n      dup3\n        /* \"#utility.yul\":9358:9372   */\n      lt\n        /* \"#utility.yul\":9338:9356   */\n      dup2\n        /* \"#utility.yul\":9335:9373   */\n      sub\n        /* \"#utility.yul\":9332:9416   */\n      tag_145\n      jumpi\n        /* \"#utility.yul\":9388:9406   */\n      tag_146\n      tag_58\n      jump\t// in\n    tag_146:\n        /* \"#utility.yul\":9332:9416   */\n    tag_145:\n        /* \"#utility.yul\":9153:9422   */\n      pop\n        /* \"#utility.yul\":9102:9422   */\n      swap2\n      swap1\n      pop\n      jump\t// out\n\n    auxdata: 0xa264697066735822122090f1c6fe648eb049ff0d08c308657fefaa55a75860834bb00ea16faa0da2a84364736f6c63430008110033\n}\n\nsub_1: assembly {\n        /* \"ElectronicMedicalRecords.sol\":1291:10176  contract MedicalRecords {... */\n      mstore(0x40, 0x80)\n        /* \"ElectronicMedicalRecords.sol\":4154:4215  constructor(address _admin) {... */\n      callvalue\n      dup1\n      iszero\n      tag_1\n      jumpi\n      0x00\n      dup1\n      revert\n    tag_1:\n      pop\n      mload(0x40)\n      sub(codesize, bytecodeSize)\n      dup1\n      bytecodeSize\n      dup4\n      codecopy\n      dup2\n      dup2\n      add\n      0x40\n      mstore\n      dup2\n      add\n      swap1\n      tag_2\n      swap2\n      swap1\n      tag_3\n      jump\t// in\n    tag_2:\n        /* \"ElectronicMedicalRecords.sol\":4201:4207  _admin */\n      dup1\n        /* \"ElectronicMedicalRecords.sol\":4193:4198  admin */\n      0x05\n      0x00\n        /* \"ElectronicMedicalRecords.sol\":4193:4207  admin = _admin */\n      0x0100\n      exp\n      dup2\n      sload\n      dup2\n      0xffffffffffffffffffffffffffffffffffffffff\n      mul\n      not\n      and\n      swap1\n      dup4\n      0xffffffffffffffffffffffffffffffffffffffff\n      and\n      mul\n      or\n      swap1\n      sstore\n      pop\n        /* \"ElectronicMedicalRecords.sol\":4154:4215  constructor(address _admin) {... */\n      pop\n        /* \"ElectronicMedicalRecords.sol\":1291:10176  contract MedicalRecords {... */\n      jump(tag_6)\n        /* \"#utility.yul\":88:205   */\n    tag_8:\n        /* \"#utility.yul\":197:198   */\n      0x00\n        /* \"#utility.yul\":194:195   */\n      dup1\n        /* \"#utility.yul\":187:199   */\n      revert\n        /* \"#utility.yul\":334:460   */\n    tag_10:\n        /* \"#utility.yul\":371:378   */\n      0x00\n        /* \"#utility.yul\":411:453   */\n      0xffffffffffffffffffffffffffffffffffffffff\n        /* \"#utility.yul\":404:409   */\n      dup3\n        /* \"#utility.yul\":400:454   */\n      and\n        /* \"#utility.yul\":389:454   */\n      swap1\n      pop\n        /* \"#utility.yul\":334:460   */\n      swap2\n      swap1\n      pop\n      jump\t// out\n        /* \"#utility.yul\":466:562   */\n    tag_11:\n        /* \"#utility.yul\":503:510   */\n      0x00\n        /* \"#utility.yul\":532:556   */\n      tag_20\n        /* \"#utility.yul\":550:555   */\n      dup3\n        /* \"#utility.yul\":532:556   */\n      tag_10\n      jump\t// in\n    tag_20:\n        /* \"#utility.yul\":521:556   */\n      swap1\n      pop\n        /* \"#utility.yul\":466:562   */\n      swap2\n      swap1\n      pop\n      jump\t// out\n        /* \"#utility.yul\":568:690   */\n    tag_12:\n        /* \"#utility.yul\":641:665   */\n      tag_22\n        /* \"#utility.yul\":659:664   */\n      dup2\n        /* \"#utility.yul\":641:665   */\n      tag_11\n      jump\t// in\n    tag_22:\n        /* \"#utility.yul\":634:639   */\n      dup2\n        /* \"#utility.yul\":631:666   */\n      eq\n        /* \"#utility.yul\":621:684   */\n      tag_23\n      jumpi\n        /* \"#utility.yul\":680:681   */\n      0x00\n        /* \"#utility.yul\":677:678   */\n      dup1\n        /* \"#utility.yul\":670:682   */\n      revert\n        /* \"#utility.yul\":621:684   */\n    tag_23:\n        /* \"#utility.yul\":568:690   */\n      pop\n      jump\t// out\n        /* \"#utility.yul\":696:839   */\n    tag_13:\n        /* \"#utility.yul\":753:758   */\n      0x00\n        /* \"#utility.yul\":784:790   */\n      dup2\n        /* \"#utility.yul\":778:791   */\n      mload\n        /* \"#utility.yul\":769:791   */\n      swap1\n      pop\n        /* \"#utility.yul\":800:833   */\n      tag_25\n        /* \"#utility.yul\":827:832   */\n      dup2\n        /* \"#utility.yul\":800:833   */\n      tag_12\n      jump\t// in\n    tag_25:\n        /* \"#utility.yul\":696:839   */\n      swap3\n      swap2\n      pop\n      pop\n      jump\t// out\n        /* \"#utility.yul\":845:1196   */\n    tag_3:\n        /* \"#utility.yul\":915:921   */\n      0x00\n        /* \"#utility.yul\":964:966   */\n      0x20\n        /* \"#utility.yul\":952:961   */\n      dup3\n        /* \"#utility.yul\":943:950   */\n      dup5\n        /* \"#utility.yul\":939:962   */\n      sub\n        /* \"#utility.yul\":935:967   */\n      slt\n        /* \"#utility.yul\":932:1051   */\n      iszero\n      tag_27\n      jumpi\n        /* \"#utility.yul\":970:1049   */\n      tag_28\n      tag_8\n      jump\t// in\n    tag_28:\n        /* \"#utility.yul\":932:1051   */\n    tag_27:\n        /* \"#utility.yul\":1090:1091   */\n      0x00\n        /* \"#utility.yul\":1115:1179   */\n      tag_29\n        /* \"#utility.yul\":1171:1178   */\n      dup5\n        /* \"#utility.yul\":1162:1168   */\n      dup3\n        /* \"#utility.yul\":1151:1160   */\n      dup6\n        /* \"#utility.yul\":1147:1169   */\n      add\n        /* \"#utility.yul\":1115:1179   */\n      tag_13\n      jump\t// in\n    tag_29:\n        /* \"#utility.yul\":1105:1179   */\n      swap2\n      pop\n        /* \"#utility.yul\":1061:1189   */\n      pop\n        /* \"#utility.yul\":845:1196   */\n      swap3\n      swap2\n      pop\n      pop\n      jump\t// out\n        /* \"ElectronicMedicalRecords.sol\":1291:10176  contract MedicalRecords {... */\n    tag_6:\n      dataSize(sub_0)\n      dup1\n      dataOffset(sub_0)\n      0x00\n      codecopy\n      0x00\n      return\n    stop\n\n    sub_0: assembly {\n            /* \"ElectronicMedicalRecords.sol\":1291:10176  contract MedicalRecords {... */\n          mstore(0x40, 0x80)\n          callvalue\n          dup1\n          iszero\n          tag_1\n          jumpi\n          0x00\n          dup1\n          revert\n        tag_1:\n          pop\n          jumpi(tag_2, lt(calldatasize, 0x04))\n          shr(0xe0, calldataload(0x00))\n          dup1\n          0x7621df6f\n          gt\n          tag_12\n          jumpi\n          dup1\n          0x7621df6f\n          eq\n          tag_7\n          jumpi\n          dup1\n          0x9cbc4dba\n          eq\n          tag_8\n          jumpi\n          dup1\n          0xb2c24a34\n          eq\n          tag_9\n          jumpi\n          dup1\n          0xeb7353d1\n          eq\n          tag_10\n          jumpi\n          dup1\n          0xf539fe6c\n          eq\n          tag_11\n          jumpi\n          jump(tag_2)\n        tag_12:\n          dup1\n          0x1107747e\n          eq\n          tag_3\n          jumpi\n          dup1\n          0x1feb7146\n          eq\n          tag_4\n          jumpi\n          dup1\n          0x4da7580f\n          eq\n          tag_5\n          jumpi\n          dup1\n          0x5db185c7\n          eq\n          tag_6\n          jumpi\n        tag_2:\n          0x00\n          dup1\n          revert\n            /* \"ElectronicMedicalRecords.sol\":4223:4386  function setDoctorVerificatorAddress(address _DoctorVerificatorAddress) public {... */\n        tag_3:\n          tag_13\n          0x04\n          dup1\n          calldatasize\n          sub\n          dup2\n          add\n          swap1\n          tag_14\n          swap2\n          swap1\n          tag_15\n          jump\t// in\n        tag_14:\n          tag_16\n          jump\t// in\n        tag_13:\n          stop\n            /* \"ElectronicMedicalRecords.sol\":7802:9381  function addEmergencyPatient(PengantarPasien memory _pengantar, GawatDarurat memory _gawatDarurat) onlyDoctor public {... */\n        tag_4:\n          tag_17\n          0x04\n          dup1\n          calldatasize\n          sub\n          dup2\n          add\n          swap1\n          tag_18\n          swap2\n          swap1\n          tag_19\n          jump\t// in\n        tag_18:\n          tag_20\n          jump\t// in\n        tag_17:\n          stop\n            /* \"ElectronicMedicalRecords.sol\":4726:6185  function addOutPatient (IdentitasPasien memory _identitasPasien, RawatJalan memory _rawatjalan) onlyDoctor public {... */\n        tag_5:\n          tag_21\n          0x04\n          dup1\n          calldatasize\n          sub\n          dup2\n          add\n          swap1\n          tag_22\n          swap2\n          swap1\n          tag_23\n          jump\t// in\n        tag_22:\n          tag_24\n          jump\t// in\n        tag_21:\n          stop\n            /* \"ElectronicMedicalRecords.sol\":4394:4562  function setPatientVerificatorAddress(address _PatientVerificatorAddress) public {... */\n        tag_6:\n          tag_25\n          0x04\n          dup1\n          calldatasize\n          sub\n          dup2\n          add\n          swap1\n          tag_26\n          swap2\n          swap1\n          tag_15\n          jump\t// in\n        tag_26:\n          tag_27\n          jump\t// in\n        tag_25:\n          stop\n            /* \"ElectronicMedicalRecords.sol\":4570:4718  function setDoctorRelationAddress(address _DoctorRelationAddress) public {... */\n        tag_7:\n          tag_28\n          0x04\n          dup1\n          calldatasize\n          sub\n          dup2\n          add\n          swap1\n          tag_29\n          swap2\n          swap1\n          tag_15\n          jump\t// in\n        tag_29:\n          tag_30\n          jump\t// in\n        tag_28:\n          stop\n            /* \"ElectronicMedicalRecords.sol\":6193:7794  function addInPatient(IdentitasPasien memory _identitasPasien, RawatInap memory _rawatInap) onlyDoctor public {... */\n        tag_8:\n          tag_31\n          0x04\n          dup1\n          calldatasize\n          sub\n          dup2\n          add\n          swap1\n          tag_32\n          swap2\n          swap1\n          tag_33\n          jump\t// in\n        tag_32:\n          tag_34\n          jump\t// in\n        tag_31:\n          stop\n            /* \"ElectronicMedicalRecords.sol\":9389:9553  function getOutPatient(address add) public view returns(IdentitasPasien memory a, RawatJalan[] memory b) {... */\n        tag_9:\n          tag_35\n          0x04\n          dup1\n          calldatasize\n          sub\n          dup2\n          add\n          swap1\n          tag_36\n          swap2\n          swap1\n          tag_15\n          jump\t// in\n        tag_36:\n          tag_37\n          jump\t// in\n        tag_35:\n          mload(0x40)\n          tag_38\n          swap3\n          swap2\n          swap1\n          tag_39\n          jump\t// in\n        tag_38:\n          mload(0x40)\n          dup1\n          swap2\n          sub\n          swap1\n          return\n            /* \"ElectronicMedicalRecords.sol\":9730:9908  function getEmergencyPatient(address add) public view returns(IdentitasPasien memory a, GawatDarurat[] memory b) {... */\n        tag_10:\n          tag_40\n          0x04\n          dup1\n          calldatasize\n          sub\n          dup2\n          add\n          swap1\n          tag_41\n          swap2\n          swap1\n          tag_15\n          jump\t// in\n        tag_41:\n          tag_42\n          jump\t// in\n        tag_40:\n          mload(0x40)\n          tag_43\n          swap3\n          swap2\n          swap1\n          tag_44\n          jump\t// in\n        tag_43:\n          mload(0x40)\n          dup1\n          swap2\n          sub\n          swap1\n          return\n            /* \"ElectronicMedicalRecords.sol\":9561:9722  function getInPatient(address add) public view returns(IdentitasPasien memory a, RawatInap[] memory b) {... */\n        tag_11:\n          tag_45\n          0x04\n          dup1\n          calldatasize\n          sub\n          dup2\n          add\n          swap1\n          tag_46\n          swap2\n          swap1\n          tag_15\n          jump\t// in\n        tag_46:\n          tag_47\n          jump\t// in\n        tag_45:\n          mload(0x40)\n          tag_48\n          swap3\n          swap2\n          swap1\n          tag_49\n          jump\t// in\n        tag_48:\n          mload(0x40)\n          dup1\n          swap2\n          sub\n          swap1\n          return\n            /* \"ElectronicMedicalRecords.sol\":4223:4386  function setDoctorVerificatorAddress(address _DoctorVerificatorAddress) public {... */\n        tag_16:\n            /* \"ElectronicMedicalRecords.sol\":4352:4377  _DoctorVerificatorAddress */\n          dup1\n            /* \"ElectronicMedicalRecords.sol\":4313:4331  doctor_verificator */\n          0x06\n          0x00\n            /* \"ElectronicMedicalRecords.sol\":4313:4378  doctor_verificator = DoctorVerificator(_DoctorVerificatorAddress) */\n          0x0100\n          exp\n          dup2\n          sload\n          dup2\n          0xffffffffffffffffffffffffffffffffffffffff\n          mul\n          not\n          and\n          swap1\n          dup4\n          0xffffffffffffffffffffffffffffffffffffffff\n          and\n          mul\n          or\n          swap1\n          sstore\n          pop\n            /* \"ElectronicMedicalRecords.sol\":4223:4386  function setDoctorVerificatorAddress(address _DoctorVerificatorAddress) public {... */\n          pop\n          jump\t// out\n            /* \"ElectronicMedicalRecords.sol\":7802:9381  function addEmergencyPatient(PengantarPasien memory _pengantar, GawatDarurat memory _gawatDarurat) onlyDoctor public {... */\n        tag_20:\n            /* \"ElectronicMedicalRecords.sol\":9957:9975  doctor_verificator */\n          0x06\n          0x00\n          swap1\n          sload\n          swap1\n          0x0100\n          exp\n          swap1\n          div\n          0xffffffffffffffffffffffffffffffffffffffff\n          and\n            /* \"ElectronicMedicalRecords.sol\":9957:9982  doctor_verificator.verify */\n          0xffffffffffffffffffffffffffffffffffffffff\n          and\n          0x63a9c3d7\n            /* \"ElectronicMedicalRecords.sol\":9983:9993  msg.sender */\n          caller\n            /* \"ElectronicMedicalRecords.sol\":9957:9994  doctor_verificator.verify(msg.sender) */\n          mload(0x40)\n          dup3\n          0xffffffff\n          and\n          0xe0\n          shl\n          dup2\n          mstore\n          0x04\n          add\n          tag_52\n          swap2\n          swap1\n          tag_53\n          jump\t// in\n        tag_52:\n          0x20\n          mload(0x40)\n          dup1\n          dup4\n          sub\n          dup2\n          dup7\n          gas\n          staticcall\n          iszero\n          dup1\n          iszero\n          tag_55\n          jumpi\n          returndatasize\n          0x00\n          dup1\n          returndatacopy\n          revert(0x00, returndatasize)\n        tag_55:\n          pop\n          pop\n          pop\n          pop\n          mload(0x40)\n          returndatasize\n          not(0x1f)\n          0x1f\n          dup3\n          add\n          and\n          dup3\n          add\n          dup1\n          0x40\n          mstore\n          pop\n          dup2\n          add\n          swap1\n          tag_56\n          swap2\n          swap1\n          tag_57\n          jump\t// in\n        tag_56:\n            /* \"ElectronicMedicalRecords.sol\":9949:9995  require(doctor_verificator.verify(msg.sender)) */\n          tag_58\n          jumpi\n          0x00\n          dup1\n          revert\n        tag_58:\n            /* \"ElectronicMedicalRecords.sol\":7930:7968  PengantarPasien memory pengantarPasien */\n          tag_60\n          tag_61\n          jump\t// in\n        tag_60:\n            /* \"ElectronicMedicalRecords.sol\":8014:8024  _pengantar */\n          dup3\n            /* \"ElectronicMedicalRecords.sol\":8014:8041  _pengantar.pengantar_pasien */\n          0x00\n          add\n          mload\n            /* \"ElectronicMedicalRecords.sol\":7979:7994  pengantarPasien */\n          dup2\n            /* \"ElectronicMedicalRecords.sol\":7979:8011  pengantarPasien.pengantar_pasien */\n          0x00\n          add\n            /* \"ElectronicMedicalRecords.sol\":7979:8041  pengantarPasien.pengantar_pasien = _pengantar.pengantar_pasien */\n          dup2\n          swap1\n          mstore\n          pop\n            /* \"ElectronicMedicalRecords.sol\":8083:8093  _pengantar */\n          dup3\n            /* \"ElectronicMedicalRecords.sol\":8083:8106  _pengantar.nama_lengkap */\n          0x20\n          add\n          mload\n            /* \"ElectronicMedicalRecords.sol\":8052:8067  pengantarPasien */\n          dup2\n            /* \"ElectronicMedicalRecords.sol\":8052:8080  pengantarPasien.nama_lengkap */\n          0x20\n          add\n            /* \"ElectronicMedicalRecords.sol\":8052:8106  pengantarPasien.nama_lengkap = _pengantar.nama_lengkap */\n          dup2\n          swap1\n          mstore\n          pop\n            /* \"ElectronicMedicalRecords.sol\":8138:8148  _pengantar */\n          dup3\n            /* \"ElectronicMedicalRecords.sol\":8138:8151  _pengantar.hp */\n          0x40\n          add\n          mload\n            /* \"ElectronicMedicalRecords.sol\":8117:8132  pengantarPasien */\n          dup2\n            /* \"ElectronicMedicalRecords.sol\":8117:8135  pengantarPasien.hp */\n          0x40\n          add\n            /* \"ElectronicMedicalRecords.sol\":8117:8151  pengantarPasien.hp = _pengantar.hp */\n          dup2\n          dup2\n          mstore\n          pop\n          pop\n            /* \"ElectronicMedicalRecords.sol\":8189:8199  _pengantar */\n          dup3\n            /* \"ElectronicMedicalRecords.sol\":8189:8208  _pengantar.hubungan */\n          0x60\n          add\n          mload\n            /* \"ElectronicMedicalRecords.sol\":8162:8177  pengantarPasien */\n          dup2\n            /* \"ElectronicMedicalRecords.sol\":8162:8186  pengantarPasien.hubungan */\n          0x60\n          add\n            /* \"ElectronicMedicalRecords.sol\":8162:8208  pengantarPasien.hubungan = _pengantar.hubungan */\n          dup2\n          swap1\n          mstore\n          pop\n            /* \"ElectronicMedicalRecords.sol\":8271:8286  pengantarPasien */\n          dup1\n            /* \"ElectronicMedicalRecords.sol\":8221:8237  pengantar_pasien */\n          0x01\n            /* \"ElectronicMedicalRecords.sol\":8221:8268  pengantar_pasien[_gawatDarurat.patient_address] */\n          0x00\n            /* \"ElectronicMedicalRecords.sol\":8238:8251  _gawatDarurat */\n          dup5\n            /* \"ElectronicMedicalRecords.sol\":8238:8267  _gawatDarurat.patient_address */\n          0x00\n          add\n          mload\n            /* \"ElectronicMedicalRecords.sol\":8221:8268  pengantar_pasien[_gawatDarurat.patient_address] */\n          0xffffffffffffffffffffffffffffffffffffffff\n          and\n          0xffffffffffffffffffffffffffffffffffffffff\n          and\n          dup2\n          mstore\n          0x20\n          add\n          swap1\n          dup2\n          mstore\n          0x20\n          add\n          0x00\n          keccak256\n            /* \"ElectronicMedicalRecords.sol\":8221:8286  pengantar_pasien[_gawatDarurat.patient_address] = pengantarPasien */\n          0x00\n          dup3\n          add\n          mload\n          dup2\n          0x00\n          add\n          swap1\n          dup2\n          tag_62\n          swap2\n          swap1\n          tag_63\n          jump\t// in\n        tag_62:\n          pop\n          0x20\n          dup3\n          add\n          mload\n          dup2\n          0x01\n          add\n          swap1\n          dup2\n          tag_64\n          swap2\n          swap1\n          tag_63\n          jump\t// in\n        tag_64:\n          pop\n          0x40\n          dup3\n          add\n          mload\n          dup2\n          0x02\n          add\n          sstore\n          0x60\n          dup3\n          add\n          mload\n          dup2\n          0x03\n          add\n          swap1\n          dup2\n          tag_65\n          swap2\n          swap1\n          tag_63\n          jump\t// in\n        tag_65:\n          pop\n          swap1\n          pop\n          pop\n            /* \"ElectronicMedicalRecords.sol\":8299:8331  GawatDarurat memory gawatDarurat */\n          tag_66\n          tag_67\n          jump\t// in\n        tag_66:\n            /* \"ElectronicMedicalRecords.sol\":8373:8386  _gawatDarurat */\n          dup3\n            /* \"ElectronicMedicalRecords.sol\":8373:8402  _gawatDarurat.patient_address */\n          0x00\n          add\n          mload\n            /* \"ElectronicMedicalRecords.sol\":8342:8354  gawatDarurat */\n          dup2\n            /* \"ElectronicMedicalRecords.sol\":8342:8370  gawatDarurat.patient_address */\n          0x00\n          add\n            /* \"ElectronicMedicalRecords.sol\":8342:8402  gawatDarurat.patient_address = _gawatDarurat.patient_address */\n          swap1\n          0xffffffffffffffffffffffffffffffffffffffff\n          and\n          swap1\n          dup2\n          0xffffffffffffffffffffffffffffffffffffffff\n          and\n          dup2\n          mstore\n          pop\n          pop\n            /* \"ElectronicMedicalRecords.sol\":8441:8454  _gawatDarurat */\n          dup3\n            /* \"ElectronicMedicalRecords.sol\":8441:8467  _gawatDarurat.nama_lengkap */\n          0x40\n          add\n          mload\n            /* \"ElectronicMedicalRecords.sol\":8413:8425  gawatDarurat */\n          dup2\n            /* \"ElectronicMedicalRecords.sol\":8413:8438  gawatDarurat.nama_lengkap */\n          0x40\n          add\n            /* \"ElectronicMedicalRecords.sol\":8413:8467  gawatDarurat.nama_lengkap = _gawatDarurat.nama_lengkap */\n          dup2\n          swap1\n          mstore\n          pop\n            /* \"ElectronicMedicalRecords.sol\":8500:8513  _gawatDarurat */\n          dup3\n            /* \"ElectronicMedicalRecords.sol\":8500:8520  _gawatDarurat.gender */\n          0x60\n          add\n          mload\n            /* \"ElectronicMedicalRecords.sol\":8478:8490  gawatDarurat */\n          dup2\n            /* \"ElectronicMedicalRecords.sol\":8478:8497  gawatDarurat.gender */\n          0x60\n          add\n            /* \"ElectronicMedicalRecords.sol\":8478:8520  gawatDarurat.gender = _gawatDarurat.gender */\n          dup2\n          swap1\n          mstore\n          pop\n            /* \"ElectronicMedicalRecords.sol\":8552:8565  _gawatDarurat */\n          dup3\n            /* \"ElectronicMedicalRecords.sol\":8552:8571  _gawatDarurat.jenis */\n          0x20\n          add\n          mload\n            /* \"ElectronicMedicalRecords.sol\":8531:8543  gawatDarurat */\n          dup2\n            /* \"ElectronicMedicalRecords.sol\":8531:8549  gawatDarurat.jenis */\n          0x20\n          add\n            /* \"ElectronicMedicalRecords.sol\":8531:8571  gawatDarurat.jenis = _gawatDarurat.jenis */\n          dup2\n          swap1\n          mstore\n          pop\n            /* \"ElectronicMedicalRecords.sol\":8605:8618  _gawatDarurat */\n          dup3\n            /* \"ElectronicMedicalRecords.sol\":8605:8626  _gawatDarurat.kondisi */\n          0x80\n          add\n          mload\n            /* \"ElectronicMedicalRecords.sol\":8582:8594  gawatDarurat */\n          dup2\n            /* \"ElectronicMedicalRecords.sol\":8582:8602  gawatDarurat.kondisi */\n          0x80\n          add\n            /* \"ElectronicMedicalRecords.sol\":8582:8626  gawatDarurat.kondisi = _gawatDarurat.kondisi */\n          dup2\n          swap1\n          mstore\n          pop\n            /* \"ElectronicMedicalRecords.sol\":8666:8679  _gawatDarurat */\n          dup3\n            /* \"ElectronicMedicalRecords.sol\":8666:8693  _gawatDarurat.date_and_time */\n          0xa0\n          add\n          mload\n            /* \"ElectronicMedicalRecords.sol\":8637:8649  gawatDarurat */\n          dup2\n            /* \"ElectronicMedicalRecords.sol\":8637:8663  gawatDarurat.date_and_time */\n          0xa0\n          add\n            /* \"ElectronicMedicalRecords.sol\":8637:8693  gawatDarurat.date_and_time = _gawatDarurat.date_and_time */\n          dup2\n          swap1\n          mstore\n          pop\n            /* \"ElectronicMedicalRecords.sol\":8729:8742  _gawatDarurat */\n          dup3\n            /* \"ElectronicMedicalRecords.sol\":8729:8752  _gawatDarurat.anamnesis */\n          0xc0\n          add\n          mload\n            /* \"ElectronicMedicalRecords.sol\":8704:8716  gawatDarurat */\n          dup2\n            /* \"ElectronicMedicalRecords.sol\":8704:8726  gawatDarurat.anamnesis */\n          0xc0\n          add\n            /* \"ElectronicMedicalRecords.sol\":8704:8752  gawatDarurat.anamnesis = _gawatDarurat.anamnesis */\n          dup2\n          swap1\n          mstore\n          pop\n            /* \"ElectronicMedicalRecords.sol\":8784:8797  _gawatDarurat */\n          dup3\n            /* \"ElectronicMedicalRecords.sol\":8784:8803  _gawatDarurat.fisik */\n          0xe0\n          add\n          mload\n            /* \"ElectronicMedicalRecords.sol\":8763:8775  gawatDarurat */\n          dup2\n            /* \"ElectronicMedicalRecords.sol\":8763:8781  gawatDarurat.fisik */\n          0xe0\n          add\n            /* \"ElectronicMedicalRecords.sol\":8763:8803  gawatDarurat.fisik = _gawatDarurat.fisik */\n          dup2\n          swap1\n          mstore\n          pop\n            /* \"ElectronicMedicalRecords.sol\":8839:8852  _gawatDarurat */\n          dup3\n            /* \"ElectronicMedicalRecords.sol\":8839:8862  _gawatDarurat.diagnosis */\n          0x0100\n          add\n          mload\n            /* \"ElectronicMedicalRecords.sol\":8814:8826  gawatDarurat */\n          dup2\n            /* \"ElectronicMedicalRecords.sol\":8814:8836  gawatDarurat.diagnosis */\n          0x0100\n          add\n            /* \"ElectronicMedicalRecords.sol\":8814:8862  gawatDarurat.diagnosis = _gawatDarurat.diagnosis */\n          dup2\n          swap1\n          mstore\n          pop\n            /* \"ElectronicMedicalRecords.sol\":8899:8912  _gawatDarurat */\n          dup3\n            /* \"ElectronicMedicalRecords.sol\":8899:8923  _gawatDarurat.pengobatan */\n          0x0120\n          add\n          mload\n            /* \"ElectronicMedicalRecords.sol\":8873:8885  gawatDarurat */\n          dup2\n            /* \"ElectronicMedicalRecords.sol\":8873:8896  gawatDarurat.pengobatan */\n          0x0120\n          add\n            /* \"ElectronicMedicalRecords.sol\":8873:8923  gawatDarurat.pengobatan = _gawatDarurat.pengobatan */\n          dup2\n          swap1\n          mstore\n          pop\n            /* \"ElectronicMedicalRecords.sol\":8958:8971  _gawatDarurat */\n          dup3\n            /* \"ElectronicMedicalRecords.sol\":8958:8980  _gawatDarurat.tindakan */\n          0x0140\n          add\n          mload\n            /* \"ElectronicMedicalRecords.sol\":8934:8946  gawatDarurat */\n          dup2\n            /* \"ElectronicMedicalRecords.sol\":8934:8955  gawatDarurat.tindakan */\n          0x0140\n          add\n            /* \"ElectronicMedicalRecords.sol\":8934:8980  gawatDarurat.tindakan = _gawatDarurat.tindakan */\n          dup2\n          swap1\n          mstore\n          pop\n            /* \"ElectronicMedicalRecords.sol\":9009:9022  _gawatDarurat */\n          dup3\n            /* \"ElectronicMedicalRecords.sol\":9009:9025  _gawatDarurat.lc */\n          0x0160\n          add\n          mload\n            /* \"ElectronicMedicalRecords.sol\":8991:9003  gawatDarurat */\n          dup2\n            /* \"ElectronicMedicalRecords.sol\":8991:9006  gawatDarurat.lc */\n          0x0160\n          add\n            /* \"ElectronicMedicalRecords.sol\":8991:9025  gawatDarurat.lc = _gawatDarurat.lc */\n          dup2\n          swap1\n          mstore\n          pop\n            /* \"ElectronicMedicalRecords.sol\":9061:9074  _gawatDarurat */\n          dup3\n            /* \"ElectronicMedicalRecords.sol\":9061:9084  _gawatDarurat.transport */\n          0x0180\n          add\n          mload\n            /* \"ElectronicMedicalRecords.sol\":9036:9048  gawatDarurat */\n          dup2\n            /* \"ElectronicMedicalRecords.sol\":9036:9058  gawatDarurat.transport */\n          0x0180\n          add\n            /* \"ElectronicMedicalRecords.sol\":9036:9084  gawatDarurat.transport = _gawatDarurat.transport */\n          dup2\n          swap1\n          mstore\n          pop\n            /* \"ElectronicMedicalRecords.sol\":9097:9113  emergencyPatient */\n          0x04\n            /* \"ElectronicMedicalRecords.sol\":9097:9144  emergencyPatient[_gawatDarurat.patient_address] */\n          0x00\n            /* \"ElectronicMedicalRecords.sol\":9114:9127  _gawatDarurat */\n          dup5\n            /* \"ElectronicMedicalRecords.sol\":9114:9143  _gawatDarurat.patient_address */\n          0x00\n          add\n          mload\n            /* \"ElectronicMedicalRecords.sol\":9097:9144  emergencyPatient[_gawatDarurat.patient_address] */\n          0xffffffffffffffffffffffffffffffffffffffff\n          and\n          0xffffffffffffffffffffffffffffffffffffffff\n          and\n          dup2\n          mstore\n          0x20\n          add\n          swap1\n          dup2\n          mstore\n          0x20\n          add\n          0x00\n          keccak256\n            /* \"ElectronicMedicalRecords.sol\":9150:9162  gawatDarurat */\n          dup2\n            /* \"ElectronicMedicalRecords.sol\":9097:9163  emergencyPatient[_gawatDarurat.patient_address].push(gawatDarurat) */\n          swap1\n          dup1\n          0x01\n          dup2\n          sload\n          add\n          dup1\n          dup3\n          sstore\n          dup1\n          swap2\n          pop\n          pop\n          0x01\n          swap1\n          sub\n          swap1\n          0x00\n          mstore\n          keccak256(0x00, 0x20)\n          swap1\n          0x0d\n          mul\n          add\n          0x00\n          swap1\n          swap2\n          swap1\n          swap2\n          swap1\n          swap2\n          pop\n          0x00\n          dup3\n          add\n          mload\n          dup2\n          0x00\n          add\n          exp(0x0100, 0x00)\n          dup2\n          sload\n          dup2\n          0xffffffffffffffffffffffffffffffffffffffff\n          mul\n          not\n          and\n          swap1\n          dup4\n          0xffffffffffffffffffffffffffffffffffffffff\n          and\n          mul\n          or\n          swap1\n          sstore\n          pop\n          0x20\n          dup3\n          add\n          mload\n          dup2\n          0x01\n          add\n          swap1\n          dup2\n          tag_69\n          swap2\n          swap1\n          tag_63\n          jump\t// in\n        tag_69:\n          pop\n          0x40\n          dup3\n          add\n          mload\n          dup2\n          0x02\n          add\n          swap1\n          dup2\n          tag_70\n          swap2\n          swap1\n          tag_63\n          jump\t// in\n        tag_70:\n          pop\n          0x60\n          dup3\n          add\n          mload\n          dup2\n          0x03\n          add\n          swap1\n          dup2\n          tag_71\n          swap2\n          swap1\n          tag_63\n          jump\t// in\n        tag_71:\n          pop\n          0x80\n          dup3\n          add\n          mload\n          dup2\n          0x04\n          add\n          swap1\n          dup2\n          tag_72\n          swap2\n          swap1\n          tag_63\n          jump\t// in\n        tag_72:\n          pop\n          0xa0\n          dup3\n          add\n          mload\n          dup2\n          0x05\n          add\n          swap1\n          dup2\n          tag_73\n          swap2\n          swap1\n          tag_63\n          jump\t// in\n        tag_73:\n          pop\n          0xc0\n          dup3\n          add\n          mload\n          dup2\n          0x06\n          add\n          swap1\n          dup2\n          tag_74\n          swap2\n          swap1\n          tag_63\n          jump\t// in\n        tag_74:\n          pop\n          0xe0\n          dup3\n          add\n          mload\n          dup2\n          0x07\n          add\n          swap1\n          dup2\n          tag_75\n          swap2\n          swap1\n          tag_63\n          jump\t// in\n        tag_75:\n          pop\n          0x0100\n          dup3\n          add\n          mload\n          dup2\n          0x08\n          add\n          swap1\n          dup2\n          tag_76\n          swap2\n          swap1\n          tag_63\n          jump\t// in\n        tag_76:\n          pop\n          0x0120\n          dup3\n          add\n          mload\n          dup2\n          0x09\n          add\n          swap1\n          dup2\n          tag_77\n          swap2\n          swap1\n          tag_63\n          jump\t// in\n        tag_77:\n          pop\n          0x0140\n          dup3\n          add\n          mload\n          dup2\n          0x0a\n          add\n          swap1\n          dup2\n          tag_78\n          swap2\n          swap1\n          tag_63\n          jump\t// in\n        tag_78:\n          pop\n          0x0160\n          dup3\n          add\n          mload\n          dup2\n          0x0b\n          add\n          swap1\n          dup2\n          tag_79\n          swap2\n          swap1\n          tag_63\n          jump\t// in\n        tag_79:\n          pop\n          0x0180\n          dup3\n          add\n          mload\n          dup2\n          0x0c\n          add\n          swap1\n          dup2\n          tag_80\n          swap2\n          swap1\n          tag_63\n          jump\t// in\n        tag_80:\n          pop\n          pop\n          pop\n            /* \"ElectronicMedicalRecords.sol\":9176:9195  patient_verificator */\n          0x07\n          0x00\n          swap1\n          sload\n          swap1\n          0x0100\n          exp\n          swap1\n          div\n          0xffffffffffffffffffffffffffffffffffffffff\n          and\n            /* \"ElectronicMedicalRecords.sol\":9176:9206  patient_verificator.addPatient */\n          0xffffffffffffffffffffffffffffffffffffffff\n          and\n          0x6d263ceb\n            /* \"ElectronicMedicalRecords.sol\":9207:9220  _gawatDarurat */\n          dup5\n            /* \"ElectronicMedicalRecords.sol\":9207:9236  _gawatDarurat.patient_address */\n          0x00\n          add\n          mload\n            /* \"ElectronicMedicalRecords.sol\":9176:9237  patient_verificator.addPatient(_gawatDarurat.patient_address) */\n          mload(0x40)\n          dup3\n          0xffffffff\n          and\n          0xe0\n          shl\n          dup2\n          mstore\n          0x04\n          add\n          tag_81\n          swap2\n          swap1\n          tag_53\n          jump\t// in\n        tag_81:\n          0x00\n          mload(0x40)\n          dup1\n          dup4\n          sub\n          dup2\n          0x00\n          dup8\n          dup1\n          extcodesize\n          iszero\n          dup1\n          iszero\n          tag_82\n          jumpi\n          0x00\n          dup1\n          revert\n        tag_82:\n          pop\n          gas\n          call\n          iszero\n          dup1\n          iszero\n          tag_84\n          jumpi\n          returndatasize\n          0x00\n          dup1\n          returndatacopy\n          revert(0x00, returndatasize)\n        tag_84:\n          pop\n          pop\n          pop\n          pop\n            /* \"ElectronicMedicalRecords.sol\":9248:9263  doctor_relation */\n          0x08\n          0x00\n          swap1\n          sload\n          swap1\n          0x0100\n          exp\n          swap1\n          div\n          0xffffffffffffffffffffffffffffffffffffffff\n          and\n            /* \"ElectronicMedicalRecords.sol\":9248:9281  doctor_relation.addDoctorRelation */\n          0xffffffffffffffffffffffffffffffffffffffff\n          and\n          0x43a0e44a\n            /* \"ElectronicMedicalRecords.sol\":9282:9292  msg.sender */\n          caller\n            /* \"ElectronicMedicalRecords.sol\":9294:9307  _gawatDarurat */\n          dup6\n            /* \"ElectronicMedicalRecords.sol\":9294:9320  _gawatDarurat.nama_lengkap */\n          0x40\n          add\n          mload\n            /* \"ElectronicMedicalRecords.sol\":9322:9335  _gawatDarurat */\n          dup7\n            /* \"ElectronicMedicalRecords.sol\":9322:9341  _gawatDarurat.jenis */\n          0x20\n          add\n          mload\n            /* \"ElectronicMedicalRecords.sol\":9343:9356  _gawatDarurat */\n          dup8\n            /* \"ElectronicMedicalRecords.sol\":9343:9372  _gawatDarurat.patient_address */\n          0x00\n          add\n          mload\n            /* \"ElectronicMedicalRecords.sol\":9248:9373  doctor_relation.addDoctorRelation(msg.sender, _gawatDarurat.nama_lengkap, _gawatDarurat.jenis, _gawatDarurat.patient_address) */\n          mload(0x40)\n          dup6\n          0xffffffff\n          and\n          0xe0\n          shl\n          dup2\n          mstore\n          0x04\n          add\n          tag_85\n          swap5\n          swap4\n          swap3\n          swap2\n          swap1\n          tag_86\n          jump\t// in\n        tag_85:\n          0x00\n          mload(0x40)\n          dup1\n          dup4\n          sub\n          dup2\n          0x00\n          dup8\n          dup1\n          extcodesize\n          iszero\n          dup1\n          iszero\n          tag_87\n          jumpi\n          0x00\n          dup1\n          revert\n        tag_87:\n          pop\n          gas\n          call\n          iszero\n          dup1\n          iszero\n          tag_89\n          jumpi\n          returndatasize\n          0x00\n          dup1\n          returndatacopy\n          revert(0x00, returndatasize)\n        tag_89:\n          pop\n          pop\n          pop\n          pop\n            /* \"ElectronicMedicalRecords.sol\":7919:9381  {... */\n          pop\n          pop\n            /* \"ElectronicMedicalRecords.sol\":7802:9381  function addEmergencyPatient(PengantarPasien memory _pengantar, GawatDarurat memory _gawatDarurat) onlyDoctor public {... */\n          pop\n          pop\n          jump\t// out\n            /* \"ElectronicMedicalRecords.sol\":4726:6185  function addOutPatient (IdentitasPasien memory _identitasPasien, RawatJalan memory _rawatjalan) onlyDoctor public {... */\n        tag_24:\n            /* \"ElectronicMedicalRecords.sol\":9957:9975  doctor_verificator */\n          0x06\n          0x00\n          swap1\n          sload\n          swap1\n          0x0100\n          exp\n          swap1\n          div\n          0xffffffffffffffffffffffffffffffffffffffff\n          and\n            /* \"ElectronicMedicalRecords.sol\":9957:9982  doctor_verificator.verify */\n          0xffffffffffffffffffffffffffffffffffffffff\n          and\n          0x63a9c3d7\n            /* \"ElectronicMedicalRecords.sol\":9983:9993  msg.sender */\n          caller\n            /* \"ElectronicMedicalRecords.sol\":9957:9994  doctor_verificator.verify(msg.sender) */\n          mload(0x40)\n          dup3\n          0xffffffff\n          and\n          0xe0\n          shl\n          dup2\n          mstore\n          0x04\n          add\n          tag_91\n          swap2\n          swap1\n          tag_53\n          jump\t// in\n        tag_91:\n          0x20\n          mload(0x40)\n          dup1\n          dup4\n          sub\n          dup2\n          dup7\n          gas\n          staticcall\n          iszero\n          dup1\n          iszero\n          tag_93\n          jumpi\n          returndatasize\n          0x00\n          dup1\n          returndatacopy\n          revert(0x00, returndatasize)\n        tag_93:\n          pop\n          pop\n          pop\n          pop\n          mload(0x40)\n          returndatasize\n          not(0x1f)\n          0x1f\n          dup3\n          add\n          and\n          dup3\n          add\n          dup1\n          0x40\n          mstore\n          pop\n          dup2\n          add\n          swap1\n          tag_94\n          swap2\n          swap1\n          tag_57\n          jump\t// in\n        tag_94:\n            /* \"ElectronicMedicalRecords.sol\":9949:9995  require(doctor_verificator.verify(msg.sender)) */\n          tag_95\n          jumpi\n          0x00\n          dup1\n          revert\n        tag_95:\n            /* \"ElectronicMedicalRecords.sol\":4851:4889  IdentitasPasien memory identitasPasien */\n          tag_97\n          tag_98\n          jump\t// in\n        tag_97:\n            /* \"ElectronicMedicalRecords.sol\":4934:4950  _identitasPasien */\n          dup3\n            /* \"ElectronicMedicalRecords.sol\":4934:4965  _identitasPasien.patientAddress */\n          0x00\n          add\n          mload\n            /* \"ElectronicMedicalRecords.sol\":4900:4915  identitasPasien */\n          dup2\n            /* \"ElectronicMedicalRecords.sol\":4900:4930  identitasPasien.patientAddress */\n          0x00\n          add\n            /* \"ElectronicMedicalRecords.sol\":4900:4965  identitasPasien.patientAddress =  _identitasPasien.patientAddress */\n          swap1\n          0xffffffffffffffffffffffffffffffffffffffff\n          and\n          swap1\n          dup2\n          0xffffffffffffffffffffffffffffffffffffffff\n          and\n          dup2\n          mstore\n          pop\n          pop\n            /* \"ElectronicMedicalRecords.sol\":5008:5024  _identitasPasien */\n          dup3\n            /* \"ElectronicMedicalRecords.sol\":5008:5037  _identitasPasien.nama_lengkap */\n          0x20\n          add\n          mload\n            /* \"ElectronicMedicalRecords.sol\":4976:4991  identitasPasien */\n          dup2\n            /* \"ElectronicMedicalRecords.sol\":4976:5004  identitasPasien.nama_lengkap */\n          0x20\n          add\n            /* \"ElectronicMedicalRecords.sol\":4976:5037  identitasPasien.nama_lengkap =  _identitasPasien.nama_lengkap */\n          dup2\n          swap1\n          mstore\n          pop\n            /* \"ElectronicMedicalRecords.sol\":5072:5088  _identitasPasien */\n          dup3\n            /* \"ElectronicMedicalRecords.sol\":5072:5093  _identitasPasien.umur */\n          0x40\n          add\n          mload\n            /* \"ElectronicMedicalRecords.sol\":5048:5063  identitasPasien */\n          dup2\n            /* \"ElectronicMedicalRecords.sol\":5048:5068  identitasPasien.umur */\n          0x40\n          add\n            /* \"ElectronicMedicalRecords.sol\":5048:5093  identitasPasien.umur =  _identitasPasien.umur */\n          dup2\n          dup2\n          mstore\n          pop\n          pop\n            /* \"ElectronicMedicalRecords.sol\":5137:5153  _identitasPasien */\n          dup3\n            /* \"ElectronicMedicalRecords.sol\":5137:5167  _identitasPasien.tanggal_lahir */\n          0x60\n          add\n          mload\n            /* \"ElectronicMedicalRecords.sol\":5104:5119  identitasPasien */\n          dup2\n            /* \"ElectronicMedicalRecords.sol\":5104:5133  identitasPasien.tanggal_lahir */\n          0x60\n          add\n            /* \"ElectronicMedicalRecords.sol\":5104:5167  identitasPasien.tanggal_lahir =  _identitasPasien.tanggal_lahir */\n          dup2\n          swap1\n          mstore\n          pop\n            /* \"ElectronicMedicalRecords.sol\":5204:5220  _identitasPasien */\n          dup3\n            /* \"ElectronicMedicalRecords.sol\":5204:5227  _identitasPasien.gender */\n          0x80\n          add\n          mload\n            /* \"ElectronicMedicalRecords.sol\":5178:5193  identitasPasien */\n          dup2\n            /* \"ElectronicMedicalRecords.sol\":5178:5200  identitasPasien.gender */\n          0x80\n          add\n            /* \"ElectronicMedicalRecords.sol\":5178:5227  identitasPasien.gender =  _identitasPasien.gender */\n          dup2\n          swap1\n          mstore\n          pop\n            /* \"ElectronicMedicalRecords.sol\":5285:5300  identitasPasien */\n          dup1\n            /* \"ElectronicMedicalRecords.sol\":5240:5249  patientId */\n          0x00\n            /* \"ElectronicMedicalRecords.sol\":5240:5282  patientId[_identitasPasien.patientAddress] */\n          dup1\n            /* \"ElectronicMedicalRecords.sol\":5250:5266  _identitasPasien */\n          dup6\n            /* \"ElectronicMedicalRecords.sol\":5250:5281  _identitasPasien.patientAddress */\n          0x00\n          add\n          mload\n            /* \"ElectronicMedicalRecords.sol\":5240:5282  patientId[_identitasPasien.patientAddress] */\n          0xffffffffffffffffffffffffffffffffffffffff\n          and\n          0xffffffffffffffffffffffffffffffffffffffff\n          and\n          dup2\n          mstore\n          0x20\n          add\n          swap1\n          dup2\n          mstore\n          0x20\n          add\n          0x00\n          keccak256\n            /* \"ElectronicMedicalRecords.sol\":5240:5300  patientId[_identitasPasien.patientAddress] = identitasPasien */\n          0x00\n          dup3\n          add\n          mload\n          dup2\n          0x00\n          add\n          exp(0x0100, 0x00)\n          dup2\n          sload\n          dup2\n          0xffffffffffffffffffffffffffffffffffffffff\n          mul\n          not\n          and\n          swap1\n          dup4\n          0xffffffffffffffffffffffffffffffffffffffff\n          and\n          mul\n          or\n          swap1\n          sstore\n          pop\n          0x20\n          dup3\n          add\n          mload\n          dup2\n          0x01\n          add\n          swap1\n          dup2\n          tag_99\n          swap2\n          swap1\n          tag_63\n          jump\t// in\n        tag_99:\n          pop\n          0x40\n          dup3\n          add\n          mload\n          dup2\n          0x02\n          add\n          sstore\n          0x60\n          dup3\n          add\n          mload\n          dup2\n          0x03\n          add\n          swap1\n          dup2\n          tag_100\n          swap2\n          swap1\n          tag_63\n          jump\t// in\n        tag_100:\n          pop\n          0x80\n          dup3\n          add\n          mload\n          dup2\n          0x04\n          add\n          swap1\n          dup2\n          tag_101\n          swap2\n          swap1\n          tag_63\n          jump\t// in\n        tag_101:\n          pop\n          swap1\n          pop\n          pop\n            /* \"ElectronicMedicalRecords.sol\":5313:5341  RawatJalan memory rawatJalan */\n          tag_102\n          tag_103\n          jump\t// in\n        tag_102:\n            /* \"ElectronicMedicalRecords.sol\":5381:5392  _rawatjalan */\n          dup3\n            /* \"ElectronicMedicalRecords.sol\":5381:5408  _rawatjalan.patient_address */\n          0x00\n          add\n          mload\n            /* \"ElectronicMedicalRecords.sol\":5352:5362  rawatJalan */\n          dup2\n            /* \"ElectronicMedicalRecords.sol\":5352:5378  rawatJalan.patient_address */\n          0x00\n          add\n            /* \"ElectronicMedicalRecords.sol\":5352:5408  rawatJalan.patient_address = _rawatjalan.patient_address */\n          swap1\n          0xffffffffffffffffffffffffffffffffffffffff\n          and\n          swap1\n          dup2\n          0xffffffffffffffffffffffffffffffffffffffff\n          and\n          dup2\n          mstore\n          pop\n          pop\n            /* \"ElectronicMedicalRecords.sol\":5438:5449  _rawatjalan */\n          dup3\n            /* \"ElectronicMedicalRecords.sol\":5438:5455  _rawatjalan.jenis */\n          0x20\n          add\n          mload\n            /* \"ElectronicMedicalRecords.sol\":5419:5429  rawatJalan */\n          dup2\n            /* \"ElectronicMedicalRecords.sol\":5419:5435  rawatJalan.jenis */\n          0x20\n          add\n            /* \"ElectronicMedicalRecords.sol\":5419:5455  rawatJalan.jenis = _rawatjalan.jenis */\n          dup2\n          swap1\n          mstore\n          pop\n            /* \"ElectronicMedicalRecords.sol\":5493:5504  _rawatjalan */\n          dup3\n            /* \"ElectronicMedicalRecords.sol\":5493:5518  _rawatjalan.date_and_time */\n          0x40\n          add\n          mload\n            /* \"ElectronicMedicalRecords.sol\":5466:5476  rawatJalan */\n          dup2\n            /* \"ElectronicMedicalRecords.sol\":5466:5490  rawatJalan.date_and_time */\n          0x40\n          add\n            /* \"ElectronicMedicalRecords.sol\":5466:5518  rawatJalan.date_and_time = _rawatjalan.date_and_time */\n          dup2\n          swap1\n          mstore\n          pop\n            /* \"ElectronicMedicalRecords.sol\":5552:5563  _rawatjalan */\n          dup3\n            /* \"ElectronicMedicalRecords.sol\":5552:5573  _rawatjalan.anamnesis */\n          0x60\n          add\n          mload\n            /* \"ElectronicMedicalRecords.sol\":5529:5539  rawatJalan */\n          dup2\n            /* \"ElectronicMedicalRecords.sol\":5529:5549  rawatJalan.anamnesis */\n          0x60\n          add\n            /* \"ElectronicMedicalRecords.sol\":5529:5573  rawatJalan.anamnesis = _rawatjalan.anamnesis */\n          dup2\n          swap1\n          mstore\n          pop\n            /* \"ElectronicMedicalRecords.sol\":5607:5618  _rawatjalan */\n          dup3\n            /* \"ElectronicMedicalRecords.sol\":5607:5628  _rawatjalan.diagnosis */\n          0x80\n          add\n          mload\n            /* \"ElectronicMedicalRecords.sol\":5584:5594  rawatJalan */\n          dup2\n            /* \"ElectronicMedicalRecords.sol\":5584:5604  rawatJalan.diagnosis */\n          0x80\n          add\n            /* \"ElectronicMedicalRecords.sol\":5584:5628  rawatJalan.diagnosis = _rawatjalan.diagnosis */\n          dup2\n          swap1\n          mstore\n          pop\n            /* \"ElectronicMedicalRecords.sol\":5655:5666  _rawatjalan */\n          dup3\n            /* \"ElectronicMedicalRecords.sol\":5655:5669  _rawatjalan.rp */\n          0xa0\n          add\n          mload\n            /* \"ElectronicMedicalRecords.sol\":5639:5649  rawatJalan */\n          dup2\n            /* \"ElectronicMedicalRecords.sol\":5639:5652  rawatJalan.rp */\n          0xa0\n          add\n            /* \"ElectronicMedicalRecords.sol\":5639:5669  rawatJalan.rp = _rawatjalan.rp */\n          dup2\n          swap1\n          mstore\n          pop\n            /* \"ElectronicMedicalRecords.sol\":5704:5715  _rawatjalan */\n          dup3\n            /* \"ElectronicMedicalRecords.sol\":5704:5726  _rawatjalan.pengobatan */\n          0xc0\n          add\n          mload\n            /* \"ElectronicMedicalRecords.sol\":5680:5690  rawatJalan */\n          dup2\n            /* \"ElectronicMedicalRecords.sol\":5680:5701  rawatJalan.pengobatan */\n          0xc0\n          add\n            /* \"ElectronicMedicalRecords.sol\":5680:5726  rawatJalan.pengobatan = _rawatjalan.pengobatan */\n          dup2\n          swap1\n          mstore\n          pop\n            /* \"ElectronicMedicalRecords.sol\":5759:5770  _rawatjalan */\n          dup3\n            /* \"ElectronicMedicalRecords.sol\":5759:5779  _rawatjalan.tindakan */\n          0xe0\n          add\n          mload\n            /* \"ElectronicMedicalRecords.sol\":5737:5747  rawatJalan */\n          dup2\n            /* \"ElectronicMedicalRecords.sol\":5737:5756  rawatJalan.tindakan */\n          0xe0\n          add\n            /* \"ElectronicMedicalRecords.sol\":5737:5779  rawatJalan.tindakan = _rawatjalan.tindakan */\n          dup2\n          swap1\n          mstore\n          pop\n            /* \"ElectronicMedicalRecords.sol\":5813:5824  _rawatjalan */\n          dup3\n            /* \"ElectronicMedicalRecords.sol\":5813:5834  _rawatjalan.pelayanan */\n          0x0100\n          add\n          mload\n            /* \"ElectronicMedicalRecords.sol\":5790:5800  rawatJalan */\n          dup2\n            /* \"ElectronicMedicalRecords.sol\":5790:5810  rawatJalan.pelayanan */\n          0x0100\n          add\n            /* \"ElectronicMedicalRecords.sol\":5790:5834  rawatJalan.pelayanan = _rawatjalan.pelayanan */\n          dup2\n          swap1\n          mstore\n          pop\n            /* \"ElectronicMedicalRecords.sol\":5868:5879  _rawatjalan */\n          dup3\n            /* \"ElectronicMedicalRecords.sol\":5868:5889  _rawatjalan.agreement */\n          0x0120\n          add\n          mload\n            /* \"ElectronicMedicalRecords.sol\":5845:5855  rawatJalan */\n          dup2\n            /* \"ElectronicMedicalRecords.sol\":5845:5865  rawatJalan.agreement */\n          0x0120\n          add\n            /* \"ElectronicMedicalRecords.sol\":5845:5889  rawatJalan.agreement = _rawatjalan.agreement */\n          swap1\n          iszero\n          iszero\n          swap1\n          dup2\n          iszero\n          iszero\n          dup2\n          mstore\n          pop\n          pop\n            /* \"ElectronicMedicalRecords.sol\":5902:5912  outPatient */\n          0x02\n            /* \"ElectronicMedicalRecords.sol\":5902:5945  outPatient[_identitasPasien.patientAddress] */\n          0x00\n            /* \"ElectronicMedicalRecords.sol\":5913:5929  _identitasPasien */\n          dup6\n            /* \"ElectronicMedicalRecords.sol\":5913:5944  _identitasPasien.patientAddress */\n          0x00\n          add\n          mload\n            /* \"ElectronicMedicalRecords.sol\":5902:5945  outPatient[_identitasPasien.patientAddress] */\n          0xffffffffffffffffffffffffffffffffffffffff\n          and\n          0xffffffffffffffffffffffffffffffffffffffff\n          and\n          dup2\n          mstore\n          0x20\n          add\n          swap1\n          dup2\n          mstore\n          0x20\n          add\n          0x00\n          keccak256\n            /* \"ElectronicMedicalRecords.sol\":5951:5961  rawatJalan */\n          dup2\n            /* \"ElectronicMedicalRecords.sol\":5902:5962  outPatient[_identitasPasien.patientAddress].push(rawatJalan) */\n          swap1\n          dup1\n          0x01\n          dup2\n          sload\n          add\n          dup1\n          dup3\n          sstore\n          dup1\n          swap2\n          pop\n          pop\n          0x01\n          swap1\n          sub\n          swap1\n          0x00\n          mstore\n          keccak256(0x00, 0x20)\n          swap1\n          0x0a\n          mul\n          add\n          0x00\n          swap1\n          swap2\n          swap1\n          swap2\n          swap1\n          swap2\n          pop\n          0x00\n          dup3\n          add\n          mload\n          dup2\n          0x00\n          add\n          exp(0x0100, 0x00)\n          dup2\n          sload\n          dup2\n          0xffffffffffffffffffffffffffffffffffffffff\n          mul\n          not\n          and\n          swap1\n          dup4\n          0xffffffffffffffffffffffffffffffffffffffff\n          and\n          mul\n          or\n          swap1\n          sstore\n          pop\n          0x20\n          dup3\n          add\n          mload\n          dup2\n          0x01\n          add\n          swap1\n          dup2\n          tag_105\n          swap2\n          swap1\n          tag_63\n          jump\t// in\n        tag_105:\n          pop\n          0x40\n          dup3\n          add\n          mload\n          dup2\n          0x02\n          add\n          swap1\n          dup2\n          tag_106\n          swap2\n          swap1\n          tag_63\n          jump\t// in\n        tag_106:\n          pop\n          0x60\n          dup3\n          add\n          mload\n          dup2\n          0x03\n          add\n          swap1\n          dup2\n          tag_107\n          swap2\n          swap1\n          tag_63\n          jump\t// in\n        tag_107:\n          pop\n          0x80\n          dup3\n          add\n          mload\n          dup2\n          0x04\n          add\n          swap1\n          dup2\n          tag_108\n          swap2\n          swap1\n          tag_63\n          jump\t// in\n        tag_108:\n          pop\n          0xa0\n          dup3\n          add\n          mload\n          dup2\n          0x05\n          add\n          swap1\n          dup2\n          tag_109\n          swap2\n          swap1\n          tag_63\n          jump\t// in\n        tag_109:\n          pop\n          0xc0\n          dup3\n          add\n          mload\n          dup2\n          0x06\n          add\n          swap1\n          dup2\n          tag_110\n          swap2\n          swap1\n          tag_63\n          jump\t// in\n        tag_110:\n          pop\n          0xe0\n          dup3\n          add\n          mload\n          dup2\n          0x07\n          add\n          swap1\n          dup2\n          tag_111\n          swap2\n          swap1\n          tag_63\n          jump\t// in\n        tag_111:\n          pop\n          0x0100\n          dup3\n          add\n          mload\n          dup2\n          0x08\n          add\n          swap1\n          dup2\n          tag_112\n          swap2\n          swap1\n          tag_63\n          jump\t// in\n        tag_112:\n          pop\n          0x0120\n          dup3\n          add\n          mload\n          dup2\n          0x09\n          add\n          exp(0x0100, 0x00)\n          dup2\n          sload\n          dup2\n          0xff\n          mul\n          not\n          and\n          swap1\n          dup4\n          iszero\n          iszero\n          mul\n          or\n          swap1\n          sstore\n          pop\n          pop\n          pop\n            /* \"ElectronicMedicalRecords.sol\":5975:5994  patient_verificator */\n          0x07\n          0x00\n          swap1\n          sload\n          swap1\n          0x0100\n          exp\n          swap1\n          div\n          0xffffffffffffffffffffffffffffffffffffffff\n          and\n            /* \"ElectronicMedicalRecords.sol\":5975:6005  patient_verificator.addPatient */\n          0xffffffffffffffffffffffffffffffffffffffff\n          and\n          0x6d263ceb\n            /* \"ElectronicMedicalRecords.sol\":6006:6022  _identitasPasien */\n          dup6\n            /* \"ElectronicMedicalRecords.sol\":6006:6037  _identitasPasien.patientAddress */\n          0x00\n          add\n          mload\n            /* \"ElectronicMedicalRecords.sol\":5975:6038  patient_verificator.addPatient(_identitasPasien.patientAddress) */\n          mload(0x40)\n          dup3\n          0xffffffff\n          and\n          0xe0\n          shl\n          dup2\n          mstore\n          0x04\n          add\n          tag_113\n          swap2\n          swap1\n          tag_53\n          jump\t// in\n        tag_113:\n          0x00\n          mload(0x40)\n          dup1\n          dup4\n          sub\n          dup2\n          0x00\n          dup8\n          dup1\n          extcodesize\n          iszero\n          dup1\n          iszero\n          tag_114\n          jumpi\n          0x00\n          dup1\n          revert\n        tag_114:\n          pop\n          gas\n          call\n          iszero\n          dup1\n          iszero\n          tag_116\n          jumpi\n          returndatasize\n          0x00\n          dup1\n          returndatacopy\n          revert(0x00, returndatasize)\n        tag_116:\n          pop\n          pop\n          pop\n          pop\n            /* \"ElectronicMedicalRecords.sol\":6049:6064  doctor_relation */\n          0x08\n          0x00\n          swap1\n          sload\n          swap1\n          0x0100\n          exp\n          swap1\n          div\n          0xffffffffffffffffffffffffffffffffffffffff\n          and\n            /* \"ElectronicMedicalRecords.sol\":6049:6082  doctor_relation.addDoctorRelation */\n          0xffffffffffffffffffffffffffffffffffffffff\n          and\n          0x43a0e44a\n            /* \"ElectronicMedicalRecords.sol\":6083:6093  msg.sender */\n          caller\n            /* \"ElectronicMedicalRecords.sol\":6095:6111  _identitasPasien */\n          dup7\n            /* \"ElectronicMedicalRecords.sol\":6095:6124  _identitasPasien.nama_lengkap */\n          0x20\n          add\n          mload\n            /* \"ElectronicMedicalRecords.sol\":6126:6137  _rawatjalan */\n          dup7\n            /* \"ElectronicMedicalRecords.sol\":6126:6143  _rawatjalan.jenis */\n          0x20\n          add\n          mload\n            /* \"ElectronicMedicalRecords.sol\":6145:6161  _identitasPasien */\n          dup9\n            /* \"ElectronicMedicalRecords.sol\":6145:6176  _identitasPasien.patientAddress */\n          0x00\n          add\n          mload\n            /* \"ElectronicMedicalRecords.sol\":6049:6177  doctor_relation.addDoctorRelation(msg.sender, _identitasPasien.nama_lengkap, _rawatjalan.jenis, _identitasPasien.patientAddress) */\n          mload(0x40)\n          dup6\n          0xffffffff\n          and\n          0xe0\n          shl\n          dup2\n          mstore\n          0x04\n          add\n          tag_117\n          swap5\n          swap4\n          swap3\n          swap2\n          swap1\n          tag_86\n          jump\t// in\n        tag_117:\n          0x00\n          mload(0x40)\n          dup1\n          dup4\n          sub\n          dup2\n          0x00\n          dup8\n          dup1\n          extcodesize\n          iszero\n          dup1\n          iszero\n          tag_118\n          jumpi\n          0x00\n          dup1\n          revert\n        tag_118:\n          pop\n          gas\n          call\n          iszero\n          dup1\n          iszero\n          tag_120\n          jumpi\n          returndatasize\n          0x00\n          dup1\n          returndatacopy\n          revert(0x00, returndatasize)\n        tag_120:\n          pop\n          pop\n          pop\n          pop\n            /* \"ElectronicMedicalRecords.sol\":4840:6185  {... */\n          pop\n          pop\n            /* \"ElectronicMedicalRecords.sol\":4726:6185  function addOutPatient (IdentitasPasien memory _identitasPasien, RawatJalan memory _rawatjalan) onlyDoctor public {... */\n          pop\n          pop\n          jump\t// out\n            /* \"ElectronicMedicalRecords.sol\":4394:4562  function setPatientVerificatorAddress(address _PatientVerificatorAddress) public {... */\n        tag_27:\n            /* \"ElectronicMedicalRecords.sol\":4527:4553  _PatientVerificatorAddress */\n          dup1\n            /* \"ElectronicMedicalRecords.sol\":4486:4505  patient_verificator */\n          0x07\n          0x00\n            /* \"ElectronicMedicalRecords.sol\":4486:4554  patient_verificator = PatientVerificator(_PatientVerificatorAddress) */\n          0x0100\n          exp\n          dup2\n          sload\n          dup2\n          0xffffffffffffffffffffffffffffffffffffffff\n          mul\n          not\n          and\n          swap1\n          dup4\n          0xffffffffffffffffffffffffffffffffffffffff\n          and\n          mul\n          or\n          swap1\n          sstore\n          pop\n            /* \"ElectronicMedicalRecords.sol\":4394:4562  function setPatientVerificatorAddress(address _PatientVerificatorAddress) public {... */\n          pop\n          jump\t// out\n            /* \"ElectronicMedicalRecords.sol\":4570:4718  function setDoctorRelationAddress(address _DoctorRelationAddress) public {... */\n        tag_30:\n            /* \"ElectronicMedicalRecords.sol\":4687:4709  _DoctorRelationAddress */\n          dup1\n            /* \"ElectronicMedicalRecords.sol\":4654:4669  doctor_relation */\n          0x08\n          0x00\n            /* \"ElectronicMedicalRecords.sol\":4654:4710  doctor_relation = DoctorRelation(_DoctorRelationAddress) */\n          0x0100\n          exp\n          dup2\n          sload\n          dup2\n          0xffffffffffffffffffffffffffffffffffffffff\n          mul\n          not\n          and\n          swap1\n          dup4\n          0xffffffffffffffffffffffffffffffffffffffff\n          and\n          mul\n          or\n          swap1\n          sstore\n          pop\n            /* \"ElectronicMedicalRecords.sol\":4570:4718  function setDoctorRelationAddress(address _DoctorRelationAddress) public {... */\n          pop\n          jump\t// out\n            /* \"ElectronicMedicalRecords.sol\":6193:7794  function addInPatient(IdentitasPasien memory _identitasPasien, RawatInap memory _rawatInap) onlyDoctor public {... */\n        tag_34:\n            /* \"ElectronicMedicalRecords.sol\":9957:9975  doctor_verificator */\n          0x06\n          0x00\n          swap1\n          sload\n          swap1\n          0x0100\n          exp\n          swap1\n          div\n          0xffffffffffffffffffffffffffffffffffffffff\n          and\n            /* \"ElectronicMedicalRecords.sol\":9957:9982  doctor_verificator.verify */\n          0xffffffffffffffffffffffffffffffffffffffff\n          and\n          0x63a9c3d7\n            /* \"ElectronicMedicalRecords.sol\":9983:9993  msg.sender */\n          caller\n            /* \"ElectronicMedicalRecords.sol\":9957:9994  doctor_verificator.verify(msg.sender) */\n          mload(0x40)\n          dup3\n          0xffffffff\n          and\n          0xe0\n          shl\n          dup2\n          mstore\n          0x04\n          add\n          tag_124\n          swap2\n          swap1\n          tag_53\n          jump\t// in\n        tag_124:\n          0x20\n          mload(0x40)\n          dup1\n          dup4\n          sub\n          dup2\n          dup7\n          gas\n          staticcall\n          iszero\n          dup1\n          iszero\n          tag_126\n          jumpi\n          returndatasize\n          0x00\n          dup1\n          returndatacopy\n          revert(0x00, returndatasize)\n        tag_126:\n          pop\n          pop\n          pop\n          pop\n          mload(0x40)\n          returndatasize\n          not(0x1f)\n          0x1f\n          dup3\n          add\n          and\n          dup3\n          add\n          dup1\n          0x40\n          mstore\n          pop\n          dup2\n          add\n          swap1\n          tag_127\n          swap2\n          swap1\n          tag_57\n          jump\t// in\n        tag_127:\n            /* \"ElectronicMedicalRecords.sol\":9949:9995  require(doctor_verificator.verify(msg.sender)) */\n          tag_128\n          jumpi\n          0x00\n          dup1\n          revert\n        tag_128:\n            /* \"ElectronicMedicalRecords.sol\":6314:6352  IdentitasPasien memory identitasPasien */\n          tag_130\n          tag_98\n          jump\t// in\n        tag_130:\n            /* \"ElectronicMedicalRecords.sol\":6397:6413  _identitasPasien */\n          dup3\n            /* \"ElectronicMedicalRecords.sol\":6397:6428  _identitasPasien.patientAddress */\n          0x00\n          add\n          mload\n            /* \"ElectronicMedicalRecords.sol\":6363:6378  identitasPasien */\n          dup2\n            /* \"ElectronicMedicalRecords.sol\":6363:6393  identitasPasien.patientAddress */\n          0x00\n          add\n            /* \"ElectronicMedicalRecords.sol\":6363:6428  identitasPasien.patientAddress =  _identitasPasien.patientAddress */\n          swap1\n          0xffffffffffffffffffffffffffffffffffffffff\n          and\n          swap1\n          dup2\n          0xffffffffffffffffffffffffffffffffffffffff\n          and\n          dup2\n          mstore\n          pop\n          pop\n            /* \"ElectronicMedicalRecords.sol\":6471:6487  _identitasPasien */\n          dup3\n            /* \"ElectronicMedicalRecords.sol\":6471:6500  _identitasPasien.nama_lengkap */\n          0x20\n          add\n          mload\n            /* \"ElectronicMedicalRecords.sol\":6439:6454  identitasPasien */\n          dup2\n            /* \"ElectronicMedicalRecords.sol\":6439:6467  identitasPasien.nama_lengkap */\n          0x20\n          add\n            /* \"ElectronicMedicalRecords.sol\":6439:6500  identitasPasien.nama_lengkap =  _identitasPasien.nama_lengkap */\n          dup2\n          swap1\n          mstore\n          pop\n            /* \"ElectronicMedicalRecords.sol\":6535:6551  _identitasPasien */\n          dup3\n            /* \"ElectronicMedicalRecords.sol\":6535:6556  _identitasPasien.umur */\n          0x40\n          add\n          mload\n            /* \"ElectronicMedicalRecords.sol\":6511:6526  identitasPasien */\n          dup2\n            /* \"ElectronicMedicalRecords.sol\":6511:6531  identitasPasien.umur */\n          0x40\n          add\n            /* \"ElectronicMedicalRecords.sol\":6511:6556  identitasPasien.umur =  _identitasPasien.umur */\n          dup2\n          dup2\n          mstore\n          pop\n          pop\n            /* \"ElectronicMedicalRecords.sol\":6600:6616  _identitasPasien */\n          dup3\n            /* \"ElectronicMedicalRecords.sol\":6600:6630  _identitasPasien.tanggal_lahir */\n          0x60\n          add\n          mload\n            /* \"ElectronicMedicalRecords.sol\":6567:6582  identitasPasien */\n          dup2\n            /* \"ElectronicMedicalRecords.sol\":6567:6596  identitasPasien.tanggal_lahir */\n          0x60\n          add\n            /* \"ElectronicMedicalRecords.sol\":6567:6630  identitasPasien.tanggal_lahir =  _identitasPasien.tanggal_lahir */\n          dup2\n          swap1\n          mstore\n          pop\n            /* \"ElectronicMedicalRecords.sol\":6667:6683  _identitasPasien */\n          dup3\n            /* \"ElectronicMedicalRecords.sol\":6667:6690  _identitasPasien.gender */\n          0x80\n          add\n          mload\n            /* \"ElectronicMedicalRecords.sol\":6641:6656  identitasPasien */\n          dup2\n            /* \"ElectronicMedicalRecords.sol\":6641:6663  identitasPasien.gender */\n          0x80\n          add\n            /* \"ElectronicMedicalRecords.sol\":6641:6690  identitasPasien.gender =  _identitasPasien.gender */\n          dup2\n          swap1\n          mstore\n          pop\n            /* \"ElectronicMedicalRecords.sol\":6748:6763  identitasPasien */\n          dup1\n            /* \"ElectronicMedicalRecords.sol\":6703:6712  patientId */\n          0x00\n            /* \"ElectronicMedicalRecords.sol\":6703:6745  patientId[_identitasPasien.patientAddress] */\n          dup1\n            /* \"ElectronicMedicalRecords.sol\":6713:6729  _identitasPasien */\n          dup6\n            /* \"ElectronicMedicalRecords.sol\":6713:6744  _identitasPasien.patientAddress */\n          0x00\n          add\n          mload\n            /* \"ElectronicMedicalRecords.sol\":6703:6745  patientId[_identitasPasien.patientAddress] */\n          0xffffffffffffffffffffffffffffffffffffffff\n          and\n          0xffffffffffffffffffffffffffffffffffffffff\n          and\n          dup2\n          mstore\n          0x20\n          add\n          swap1\n          dup2\n          mstore\n          0x20\n          add\n          0x00\n          keccak256\n            /* \"ElectronicMedicalRecords.sol\":6703:6763  patientId[_identitasPasien.patientAddress] = identitasPasien */\n          0x00\n          dup3\n          add\n          mload\n          dup2\n          0x00\n          add\n          exp(0x0100, 0x00)\n          dup2\n          sload\n          dup2\n          0xffffffffffffffffffffffffffffffffffffffff\n          mul\n          not\n          and\n          swap1\n          dup4\n          0xffffffffffffffffffffffffffffffffffffffff\n          and\n          mul\n          or\n          swap1\n          sstore\n          pop\n          0x20\n          dup3\n          add\n          mload\n          dup2\n          0x01\n          add\n          swap1\n          dup2\n          tag_131\n          swap2\n          swap1\n          tag_63\n          jump\t// in\n        tag_131:\n          pop\n          0x40\n          dup3\n          add\n          mload\n          dup2\n          0x02\n          add\n          sstore\n          0x60\n          dup3\n          add\n          mload\n          dup2\n          0x03\n          add\n          swap1\n          dup2\n          tag_132\n          swap2\n          swap1\n          tag_63\n          jump\t// in\n        tag_132:\n          pop\n          0x80\n          dup3\n          add\n          mload\n          dup2\n          0x04\n          add\n          swap1\n          dup2\n          tag_133\n          swap2\n          swap1\n          tag_63\n          jump\t// in\n        tag_133:\n          pop\n          swap1\n          pop\n          pop\n            /* \"ElectronicMedicalRecords.sol\":6776:6802  RawatInap memory rawatInap */\n          tag_134\n          tag_135\n          jump\t// in\n        tag_134:\n            /* \"ElectronicMedicalRecords.sol\":6841:6851  _rawatInap */\n          dup3\n            /* \"ElectronicMedicalRecords.sol\":6841:6867  _rawatInap.patient_address */\n          0x00\n          add\n          mload\n            /* \"ElectronicMedicalRecords.sol\":6813:6822  rawatInap */\n          dup2\n            /* \"ElectronicMedicalRecords.sol\":6813:6838  rawatInap.patient_address */\n          0x00\n          add\n            /* \"ElectronicMedicalRecords.sol\":6813:6867  rawatInap.patient_address = _rawatInap.patient_address */\n          swap1\n          0xffffffffffffffffffffffffffffffffffffffff\n          and\n          swap1\n          dup2\n          0xffffffffffffffffffffffffffffffffffffffff\n          and\n          dup2\n          mstore\n          pop\n          pop\n            /* \"ElectronicMedicalRecords.sol\":6896:6906  _rawatInap */\n          dup3\n            /* \"ElectronicMedicalRecords.sol\":6896:6912  _rawatInap.jenis */\n          0x20\n          add\n          mload\n            /* \"ElectronicMedicalRecords.sol\":6878:6887  rawatInap */\n          dup2\n            /* \"ElectronicMedicalRecords.sol\":6878:6893  rawatInap.jenis */\n          0x20\n          add\n            /* \"ElectronicMedicalRecords.sol\":6878:6912  rawatInap.jenis = _rawatInap.jenis */\n          dup2\n          swap1\n          mstore\n          pop\n            /* \"ElectronicMedicalRecords.sol\":6950:6960  _rawatInap */\n          dup3\n            /* \"ElectronicMedicalRecords.sol\":6950:6974  _rawatInap.date_and_time */\n          0x40\n          add\n          mload\n            /* \"ElectronicMedicalRecords.sol\":6924:6933  rawatInap */\n          dup2\n            /* \"ElectronicMedicalRecords.sol\":6924:6947  rawatInap.date_and_time */\n          0x40\n          add\n            /* \"ElectronicMedicalRecords.sol\":6924:6974  rawatInap.date_and_time = _rawatInap.date_and_time */\n          dup2\n          swap1\n          mstore\n          pop\n            /* \"ElectronicMedicalRecords.sol\":7007:7017  _rawatInap */\n          dup3\n            /* \"ElectronicMedicalRecords.sol\":7007:7027  _rawatInap.anamnesis */\n          0x60\n          add\n          mload\n            /* \"ElectronicMedicalRecords.sol\":6985:6994  rawatInap */\n          dup2\n            /* \"ElectronicMedicalRecords.sol\":6985:7004  rawatInap.anamnesis */\n          0x60\n          add\n            /* \"ElectronicMedicalRecords.sol\":6985:7027  rawatInap.anamnesis = _rawatInap.anamnesis */\n          dup2\n          swap1\n          mstore\n          pop\n            /* \"ElectronicMedicalRecords.sol\":7057:7067  _rawatInap */\n          dup3\n            /* \"ElectronicMedicalRecords.sol\":7057:7073  _rawatInap.fisik */\n          0x80\n          add\n          mload\n            /* \"ElectronicMedicalRecords.sol\":7039:7048  rawatInap */\n          dup2\n            /* \"ElectronicMedicalRecords.sol\":7039:7054  rawatInap.fisik */\n          0x80\n          add\n            /* \"ElectronicMedicalRecords.sol\":7039:7073  rawatInap.fisik = _rawatInap.fisik */\n          dup2\n          swap1\n          mstore\n          pop\n            /* \"ElectronicMedicalRecords.sol\":7107:7117  _rawatInap */\n          dup3\n            /* \"ElectronicMedicalRecords.sol\":7107:7127  _rawatInap.diagnosis */\n          0xa0\n          add\n          mload\n            /* \"ElectronicMedicalRecords.sol\":7085:7094  rawatInap */\n          dup2\n            /* \"ElectronicMedicalRecords.sol\":7085:7104  rawatInap.diagnosis */\n          0xa0\n          add\n            /* \"ElectronicMedicalRecords.sol\":7085:7127  rawatInap.diagnosis = _rawatInap.diagnosis */\n          dup2\n          swap1\n          mstore\n          pop\n            /* \"ElectronicMedicalRecords.sol\":7153:7163  _rawatInap */\n          dup3\n            /* \"ElectronicMedicalRecords.sol\":7153:7166  _rawatInap.rp */\n          0xc0\n          add\n          mload\n            /* \"ElectronicMedicalRecords.sol\":7138:7147  rawatInap */\n          dup2\n            /* \"ElectronicMedicalRecords.sol\":7138:7150  rawatInap.rp */\n          0xc0\n          add\n            /* \"ElectronicMedicalRecords.sol\":7138:7166  rawatInap.rp = _rawatInap.rp */\n          dup2\n          swap1\n          mstore\n          pop\n            /* \"ElectronicMedicalRecords.sol\":7201:7211  _rawatInap */\n          dup3\n            /* \"ElectronicMedicalRecords.sol\":7201:7222  _rawatInap.pengobatan */\n          0xe0\n          add\n          mload\n            /* \"ElectronicMedicalRecords.sol\":7178:7187  rawatInap */\n          dup2\n            /* \"ElectronicMedicalRecords.sol\":7178:7198  rawatInap.pengobatan */\n          0xe0\n          add\n            /* \"ElectronicMedicalRecords.sol\":7178:7222  rawatInap.pengobatan = _rawatInap.pengobatan */\n          dup2\n          swap1\n          mstore\n          pop\n            /* \"ElectronicMedicalRecords.sol\":7254:7264  _rawatInap */\n          dup3\n            /* \"ElectronicMedicalRecords.sol\":7254:7273  _rawatInap.tindakan */\n          0x0100\n          add\n          mload\n            /* \"ElectronicMedicalRecords.sol\":7233:7242  rawatInap */\n          dup2\n            /* \"ElectronicMedicalRecords.sol\":7233:7251  rawatInap.tindakan */\n          0x0100\n          add\n            /* \"ElectronicMedicalRecords.sol\":7233:7273  rawatInap.tindakan = _rawatInap.tindakan */\n          dup2\n          swap1\n          mstore\n          pop\n            /* \"ElectronicMedicalRecords.sol\":7306:7316  _rawatInap */\n          dup3\n            /* \"ElectronicMedicalRecords.sol\":7306:7326  _rawatInap.agreement */\n          0x0120\n          add\n          mload\n            /* \"ElectronicMedicalRecords.sol\":7284:7293  rawatInap */\n          dup2\n            /* \"ElectronicMedicalRecords.sol\":7284:7303  rawatInap.agreement */\n          0x0120\n          add\n            /* \"ElectronicMedicalRecords.sol\":7284:7326  rawatInap.agreement = _rawatInap.agreement */\n          swap1\n          iszero\n          iszero\n          swap1\n          dup2\n          iszero\n          iszero\n          dup2\n          mstore\n          pop\n          pop\n            /* \"ElectronicMedicalRecords.sol\":7353:7363  _rawatInap */\n          dup3\n            /* \"ElectronicMedicalRecords.sol\":7353:7367  _rawatInap.obs */\n          0x0140\n          add\n          mload\n            /* \"ElectronicMedicalRecords.sol\":7337:7346  rawatInap */\n          dup2\n            /* \"ElectronicMedicalRecords.sol\":7337:7350  rawatInap.obs */\n          0x0140\n          add\n            /* \"ElectronicMedicalRecords.sol\":7337:7367  rawatInap.obs = _rawatInap.obs */\n          dup2\n          swap1\n          mstore\n          pop\n            /* \"ElectronicMedicalRecords.sol\":7393:7403  _rawatInap */\n          dup3\n            /* \"ElectronicMedicalRecords.sol\":7393:7406  _rawatInap.ds */\n          0x0160\n          add\n          mload\n            /* \"ElectronicMedicalRecords.sol\":7378:7387  rawatInap */\n          dup2\n            /* \"ElectronicMedicalRecords.sol\":7378:7390  rawatInap.ds */\n          0x0160\n          add\n            /* \"ElectronicMedicalRecords.sol\":7378:7406  rawatInap.ds = _rawatInap.ds */\n          dup2\n          swap1\n          mstore\n          pop\n            /* \"ElectronicMedicalRecords.sol\":7436:7446  _rawatInap */\n          dup3\n            /* \"ElectronicMedicalRecords.sol\":7436:7453  _rawatInap.doctor */\n          0x0180\n          add\n          mload\n            /* \"ElectronicMedicalRecords.sol\":7417:7426  rawatInap */\n          dup2\n            /* \"ElectronicMedicalRecords.sol\":7417:7433  rawatInap.doctor */\n          0x0180\n          add\n            /* \"ElectronicMedicalRecords.sol\":7417:7453  rawatInap.doctor = _rawatInap.doctor */\n          swap1\n          0xffffffffffffffffffffffffffffffffffffffff\n          and\n          swap1\n          dup2\n          0xffffffffffffffffffffffffffffffffffffffff\n          and\n          dup2\n          mstore\n          pop\n          pop\n            /* \"ElectronicMedicalRecords.sol\":7486:7496  _rawatInap */\n          dup3\n            /* \"ElectronicMedicalRecords.sol\":7486:7506  _rawatInap.pelayanan */\n          0x01a0\n          add\n          mload\n            /* \"ElectronicMedicalRecords.sol\":7464:7473  rawatInap */\n          dup2\n            /* \"ElectronicMedicalRecords.sol\":7464:7483  rawatInap.pelayanan */\n          0x01a0\n          add\n            /* \"ElectronicMedicalRecords.sol\":7464:7506  rawatInap.pelayanan = _rawatInap.pelayanan */\n          dup2\n          swap1\n          mstore\n          pop\n            /* \"ElectronicMedicalRecords.sol\":7519:7528  inPatient */\n          0x03\n            /* \"ElectronicMedicalRecords.sol\":7519:7556  inPatient[_rawatInap.patient_address] */\n          0x00\n            /* \"ElectronicMedicalRecords.sol\":7529:7539  _rawatInap */\n          dup5\n            /* \"ElectronicMedicalRecords.sol\":7529:7555  _rawatInap.patient_address */\n          0x00\n          add\n          mload\n            /* \"ElectronicMedicalRecords.sol\":7519:7556  inPatient[_rawatInap.patient_address] */\n          0xffffffffffffffffffffffffffffffffffffffff\n          and\n          0xffffffffffffffffffffffffffffffffffffffff\n          and\n          dup2\n          mstore\n          0x20\n          add\n          swap1\n          dup2\n          mstore\n          0x20\n          add\n          0x00\n          keccak256\n            /* \"ElectronicMedicalRecords.sol\":7562:7571  rawatInap */\n          dup2\n            /* \"ElectronicMedicalRecords.sol\":7519:7572  inPatient[_rawatInap.patient_address].push(rawatInap) */\n          swap1\n          dup1\n          0x01\n          dup2\n          sload\n          add\n          dup1\n          dup3\n          sstore\n          dup1\n          swap2\n          pop\n          pop\n          0x01\n          swap1\n          sub\n          swap1\n          0x00\n          mstore\n          keccak256(0x00, 0x20)\n          swap1\n          0x0e\n          mul\n          add\n          0x00\n          swap1\n          swap2\n          swap1\n          swap2\n          swap1\n          swap2\n          pop\n          0x00\n          dup3\n          add\n          mload\n          dup2\n          0x00\n          add\n          exp(0x0100, 0x00)\n          dup2\n          sload\n          dup2\n          0xffffffffffffffffffffffffffffffffffffffff\n          mul\n          not\n          and\n          swap1\n          dup4\n          0xffffffffffffffffffffffffffffffffffffffff\n          and\n          mul\n          or\n          swap1\n          sstore\n          pop\n          0x20\n          dup3\n          add\n          mload\n          dup2\n          0x01\n          add\n          swap1\n          dup2\n          tag_137\n          swap2\n          swap1\n          tag_63\n          jump\t// in\n        tag_137:\n          pop\n          0x40\n          dup3\n          add\n          mload\n          dup2\n          0x02\n          add\n          swap1\n          dup2\n          tag_138\n          swap2\n          swap1\n          tag_63\n          jump\t// in\n        tag_138:\n          pop\n          0x60\n          dup3\n          add\n          mload\n          dup2\n          0x03\n          add\n          swap1\n          dup2\n          tag_139\n          swap2\n          swap1\n          tag_63\n          jump\t// in\n        tag_139:\n          pop\n          0x80\n          dup3\n          add\n          mload\n          dup2\n          0x04\n          add\n          swap1\n          dup2\n          tag_140\n          swap2\n          swap1\n          tag_63\n          jump\t// in\n        tag_140:\n          pop\n          0xa0\n          dup3\n          add\n          mload\n          dup2\n          0x05\n          add\n          swap1\n          dup2\n          tag_141\n          swap2\n          swap1\n          tag_63\n          jump\t// in\n        tag_141:\n          pop\n          0xc0\n          dup3\n          add\n          mload\n          dup2\n          0x06\n          add\n          swap1\n          dup2\n          tag_142\n          swap2\n          swap1\n          tag_63\n          jump\t// in\n        tag_142:\n          pop\n          0xe0\n          dup3\n          add\n          mload\n          dup2\n          0x07\n          add\n          swap1\n          dup2\n          tag_143\n          swap2\n          swap1\n          tag_63\n          jump\t// in\n        tag_143:\n          pop\n          0x0100\n          dup3\n          add\n          mload\n          dup2\n          0x08\n          add\n          swap1\n          dup2\n          tag_144\n          swap2\n          swap1\n          tag_63\n          jump\t// in\n        tag_144:\n          pop\n          0x0120\n          dup3\n          add\n          mload\n          dup2\n          0x09\n          add\n          exp(0x0100, 0x00)\n          dup2\n          sload\n          dup2\n          0xff\n          mul\n          not\n          and\n          swap1\n          dup4\n          iszero\n          iszero\n          mul\n          or\n          swap1\n          sstore\n          pop\n          0x0140\n          dup3\n          add\n          mload\n          dup2\n          0x0a\n          add\n          swap1\n          dup2\n          tag_145\n          swap2\n          swap1\n          tag_63\n          jump\t// in\n        tag_145:\n          pop\n          0x0160\n          dup3\n          add\n          mload\n          dup2\n          0x0b\n          add\n          swap1\n          dup2\n          tag_146\n          swap2\n          swap1\n          tag_63\n          jump\t// in\n        tag_146:\n          pop\n          0x0180\n          dup3\n          add\n          mload\n          dup2\n          0x0c\n          add\n          exp(0x0100, 0x00)\n          dup2\n          sload\n          dup2\n          0xffffffffffffffffffffffffffffffffffffffff\n          mul\n          not\n          and\n          swap1\n          dup4\n          0xffffffffffffffffffffffffffffffffffffffff\n          and\n          mul\n          or\n          swap1\n          sstore\n          pop\n          0x01a0\n          dup3\n          add\n          mload\n          dup2\n          0x0d\n          add\n          swap1\n          dup2\n          tag_147\n          swap2\n          swap1\n          tag_63\n          jump\t// in\n        tag_147:\n          pop\n          pop\n          pop\n            /* \"ElectronicMedicalRecords.sol\":7585:7604  patient_verificator */\n          0x07\n          0x00\n          swap1\n          sload\n          swap1\n          0x0100\n          exp\n          swap1\n          div\n          0xffffffffffffffffffffffffffffffffffffffff\n          and\n            /* \"ElectronicMedicalRecords.sol\":7585:7615  patient_verificator.addPatient */\n          0xffffffffffffffffffffffffffffffffffffffff\n          and\n          0x6d263ceb\n            /* \"ElectronicMedicalRecords.sol\":7616:7632  _identitasPasien */\n          dup6\n            /* \"ElectronicMedicalRecords.sol\":7616:7647  _identitasPasien.patientAddress */\n          0x00\n          add\n          mload\n            /* \"ElectronicMedicalRecords.sol\":7585:7648  patient_verificator.addPatient(_identitasPasien.patientAddress) */\n          mload(0x40)\n          dup3\n          0xffffffff\n          and\n          0xe0\n          shl\n          dup2\n          mstore\n          0x04\n          add\n          tag_148\n          swap2\n          swap1\n          tag_53\n          jump\t// in\n        tag_148:\n          0x00\n          mload(0x40)\n          dup1\n          dup4\n          sub\n          dup2\n          0x00\n          dup8\n          dup1\n          extcodesize\n          iszero\n          dup1\n          iszero\n          tag_149\n          jumpi\n          0x00\n          dup1\n          revert\n        tag_149:\n          pop\n          gas\n          call\n          iszero\n          dup1\n          iszero\n          tag_151\n          jumpi\n          returndatasize\n          0x00\n          dup1\n          returndatacopy\n          revert(0x00, returndatasize)\n        tag_151:\n          pop\n          pop\n          pop\n          pop\n            /* \"ElectronicMedicalRecords.sol\":7659:7674  doctor_relation */\n          0x08\n          0x00\n          swap1\n          sload\n          swap1\n          0x0100\n          exp\n          swap1\n          div\n          0xffffffffffffffffffffffffffffffffffffffff\n          and\n            /* \"ElectronicMedicalRecords.sol\":7659:7692  doctor_relation.addDoctorRelation */\n          0xffffffffffffffffffffffffffffffffffffffff\n          and\n          0x43a0e44a\n            /* \"ElectronicMedicalRecords.sol\":7693:7703  msg.sender */\n          caller\n            /* \"ElectronicMedicalRecords.sol\":7705:7721  _identitasPasien */\n          dup7\n            /* \"ElectronicMedicalRecords.sol\":7705:7734  _identitasPasien.nama_lengkap */\n          0x20\n          add\n          mload\n            /* \"ElectronicMedicalRecords.sol\":7736:7746  _rawatInap */\n          dup7\n            /* \"ElectronicMedicalRecords.sol\":7736:7752  _rawatInap.jenis */\n          0x20\n          add\n          mload\n            /* \"ElectronicMedicalRecords.sol\":7754:7770  _identitasPasien */\n          dup9\n            /* \"ElectronicMedicalRecords.sol\":7754:7785  _identitasPasien.patientAddress */\n          0x00\n          add\n          mload\n            /* \"ElectronicMedicalRecords.sol\":7659:7786  doctor_relation.addDoctorRelation(msg.sender, _identitasPasien.nama_lengkap, _rawatInap.jenis, _identitasPasien.patientAddress) */\n          mload(0x40)\n          dup6\n          0xffffffff\n          and\n          0xe0\n          shl\n          dup2\n          mstore\n          0x04\n          add\n          tag_152\n          swap5\n          swap4\n          swap3\n          swap2\n          swap1\n          tag_86\n          jump\t// in\n        tag_152:\n          0x00\n          mload(0x40)\n          dup1\n          dup4\n          sub\n          dup2\n          0x00\n          dup8\n          dup1\n          extcodesize\n          iszero\n          dup1\n          iszero\n          tag_153\n          jumpi\n          0x00\n          dup1\n          revert\n        tag_153:\n          pop\n          gas\n          call\n          iszero\n          dup1\n          iszero\n          tag_155\n          jumpi\n          returndatasize\n          0x00\n          dup1\n          returndatacopy\n          revert(0x00, returndatasize)\n        tag_155:\n          pop\n          pop\n          pop\n          pop\n            /* \"ElectronicMedicalRecords.sol\":6303:7794  {... */\n          pop\n          pop\n            /* \"ElectronicMedicalRecords.sol\":6193:7794  function addInPatient(IdentitasPasien memory _identitasPasien, RawatInap memory _rawatInap) onlyDoctor public {... */\n          pop\n          pop\n          jump\t// out\n            /* \"ElectronicMedicalRecords.sol\":9389:9553  function getOutPatient(address add) public view returns(IdentitasPasien memory a, RawatJalan[] memory b) {... */\n        tag_37:\n            /* \"ElectronicMedicalRecords.sol\":9445:9469  IdentitasPasien memory a */\n          tag_156\n          tag_98\n          jump\t// in\n        tag_156:\n            /* \"ElectronicMedicalRecords.sol\":9471:9492  RawatJalan[] memory b */\n          0x60\n            /* \"ElectronicMedicalRecords.sol\":9513:9522  patientId */\n          0x00\n            /* \"ElectronicMedicalRecords.sol\":9513:9527  patientId[add] */\n          dup1\n            /* \"ElectronicMedicalRecords.sol\":9523:9526  add */\n          dup5\n            /* \"ElectronicMedicalRecords.sol\":9513:9527  patientId[add] */\n          0xffffffffffffffffffffffffffffffffffffffff\n          and\n          0xffffffffffffffffffffffffffffffffffffffff\n          and\n          dup2\n          mstore\n          0x20\n          add\n          swap1\n          dup2\n          mstore\n          0x20\n          add\n          0x00\n          keccak256\n            /* \"ElectronicMedicalRecords.sol\":9529:9539  outPatient */\n          0x02\n            /* \"ElectronicMedicalRecords.sol\":9529:9544  outPatient[add] */\n          0x00\n            /* \"ElectronicMedicalRecords.sol\":9540:9543  add */\n          dup6\n            /* \"ElectronicMedicalRecords.sol\":9529:9544  outPatient[add] */\n          0xffffffffffffffffffffffffffffffffffffffff\n          and\n          0xffffffffffffffffffffffffffffffffffffffff\n          and\n          dup2\n          mstore\n          0x20\n          add\n          swap1\n          dup2\n          mstore\n          0x20\n          add\n          0x00\n          keccak256\n            /* \"ElectronicMedicalRecords.sol\":9505:9545  return (patientId[add], outPatient[add]) */\n          dup2\n          mload(0x40)\n          dup1\n          0xa0\n          add\n          0x40\n          mstore\n          swap1\n          dup2\n          0x00\n          dup3\n          add\n          0x00\n          swap1\n          sload\n          swap1\n          0x0100\n          exp\n          swap1\n          div\n          0xffffffffffffffffffffffffffffffffffffffff\n          and\n          0xffffffffffffffffffffffffffffffffffffffff\n          and\n          0xffffffffffffffffffffffffffffffffffffffff\n          and\n          dup2\n          mstore\n          0x20\n          add\n          0x01\n          dup3\n          add\n          dup1\n          sload\n          tag_158\n          swap1\n          tag_159\n          jump\t// in\n        tag_158:\n          dup1\n          0x1f\n          add\n          0x20\n          dup1\n          swap2\n          div\n          mul\n          0x20\n          add\n          mload(0x40)\n          swap1\n          dup2\n          add\n          0x40\n          mstore\n          dup1\n          swap3\n          swap2\n          swap1\n          dup2\n          dup2\n          mstore\n          0x20\n          add\n          dup3\n          dup1\n          sload\n          tag_160\n          swap1\n          tag_159\n          jump\t// in\n        tag_160:\n          dup1\n          iszero\n          tag_161\n          jumpi\n          dup1\n          0x1f\n          lt\n          tag_162\n          jumpi\n          0x0100\n          dup1\n          dup4\n          sload\n          div\n          mul\n          dup4\n          mstore\n          swap2\n          0x20\n          add\n          swap2\n          jump(tag_161)\n        tag_162:\n          dup3\n          add\n          swap2\n          swap1\n          0x00\n          mstore\n          keccak256(0x00, 0x20)\n          swap1\n        tag_163:\n          dup2\n          sload\n          dup2\n          mstore\n          swap1\n          0x01\n          add\n          swap1\n          0x20\n          add\n          dup1\n          dup4\n          gt\n          tag_163\n          jumpi\n          dup3\n          swap1\n          sub\n          0x1f\n          and\n          dup3\n          add\n          swap2\n        tag_161:\n          pop\n          pop\n          pop\n          pop\n          pop\n          dup2\n          mstore\n          0x20\n          add\n          0x02\n          dup3\n          add\n          sload\n          dup2\n          mstore\n          0x20\n          add\n          0x03\n          dup3\n          add\n          dup1\n          sload\n          tag_164\n          swap1\n          tag_159\n          jump\t// in\n        tag_164:\n          dup1\n          0x1f\n          add\n          0x20\n          dup1\n          swap2\n          div\n          mul\n          0x20\n          add\n          mload(0x40)\n          swap1\n          dup2\n          add\n          0x40\n          mstore\n          dup1\n          swap3\n          swap2\n          swap1\n          dup2\n          dup2\n          mstore\n          0x20\n          add\n          dup3\n          dup1\n          sload\n          tag_165\n          swap1\n          tag_159\n          jump\t// in\n        tag_165:\n          dup1\n          iszero\n          tag_166\n          jumpi\n          dup1\n          0x1f\n          lt\n          tag_167\n          jumpi\n          0x0100\n          dup1\n          dup4\n          sload\n          div\n          mul\n          dup4\n          mstore\n          swap2\n          0x20\n          add\n          swap2\n          jump(tag_166)\n        tag_167:\n          dup3\n          add\n          swap2\n          swap1\n          0x00\n          mstore\n          keccak256(0x00, 0x20)\n          swap1\n        tag_168:\n          dup2\n          sload\n          dup2\n          mstore\n          swap1\n          0x01\n          add\n          swap1\n          0x20\n          add\n          dup1\n          dup4\n          gt\n          tag_168\n          jumpi\n          dup3\n          swap1\n          sub\n          0x1f\n          and\n          dup3\n          add\n          swap2\n        tag_166:\n          pop\n          pop\n          pop\n          pop\n          pop\n          dup2\n          mstore\n          0x20\n          add\n          0x04\n          dup3\n          add\n          dup1\n          sload\n          tag_169\n          swap1\n          tag_159\n          jump\t// in\n        tag_169:\n          dup1\n          0x1f\n          add\n          0x20\n          dup1\n          swap2\n          div\n          mul\n          0x20\n          add\n          mload(0x40)\n          swap1\n          dup2\n          add\n          0x40\n          mstore\n          dup1\n          swap3\n          swap2\n          swap1\n          dup2\n          dup2\n          mstore\n          0x20\n          add\n          dup3\n          dup1\n          sload\n          tag_170\n          swap1\n          tag_159\n          jump\t// in\n        tag_170:\n          dup1\n          iszero\n          tag_171\n          jumpi\n          dup1\n          0x1f\n          lt\n          tag_172\n          jumpi\n          0x0100\n          dup1\n          dup4\n          sload\n          div\n          mul\n          dup4\n          mstore\n          swap2\n          0x20\n          add\n          swap2\n          jump(tag_171)\n        tag_172:\n          dup3\n          add\n          swap2\n          swap1\n          0x00\n          mstore\n          keccak256(0x00, 0x20)\n          swap1\n        tag_173:\n          dup2\n          sload\n          dup2\n          mstore\n          swap1\n          0x01\n          add\n          swap1\n          0x20\n          add\n          dup1\n          dup4\n          gt\n          tag_173\n          jumpi\n          dup3\n          swap1\n          sub\n          0x1f\n          and\n          dup3\n          add\n          swap2\n        tag_171:\n          pop\n          pop\n          pop\n          pop\n          pop\n          dup2\n          mstore\n          pop\n          pop\n          swap2\n          pop\n          dup1\n          dup1\n          sload\n          dup1\n          0x20\n          mul\n          0x20\n          add\n          mload(0x40)\n          swap1\n          dup2\n          add\n          0x40\n          mstore\n          dup1\n          swap3\n          swap2\n          swap1\n          dup2\n          dup2\n          mstore\n          0x20\n          add\n          0x00\n          swap1\n        tag_174:\n          dup3\n          dup3\n          lt\n          iszero\n          tag_175\n          jumpi\n          dup4\n          dup3\n          swap1\n          0x00\n          mstore\n          keccak256(0x00, 0x20)\n          swap1\n          0x0a\n          mul\n          add\n          mload(0x40)\n          dup1\n          0x0140\n          add\n          0x40\n          mstore\n          swap1\n          dup2\n          0x00\n          dup3\n          add\n          0x00\n          swap1\n          sload\n          swap1\n          0x0100\n          exp\n          swap1\n          div\n          0xffffffffffffffffffffffffffffffffffffffff\n          and\n          0xffffffffffffffffffffffffffffffffffffffff\n          and\n          0xffffffffffffffffffffffffffffffffffffffff\n          and\n          dup2\n          mstore\n          0x20\n          add\n          0x01\n          dup3\n          add\n          dup1\n          sload\n          tag_177\n          swap1\n          tag_159\n          jump\t// in\n        tag_177:\n          dup1\n          0x1f\n          add\n          0x20\n          dup1\n          swap2\n          div\n          mul\n          0x20\n          add\n          mload(0x40)\n          swap1\n          dup2\n          add\n          0x40\n          mstore\n          dup1\n          swap3\n          swap2\n          swap1\n          dup2\n          dup2\n          mstore\n          0x20\n          add\n          dup3\n          dup1\n          sload\n          tag_178\n          swap1\n          tag_159\n          jump\t// in\n        tag_178:\n          dup1\n          iszero\n          tag_179\n          jumpi\n          dup1\n          0x1f\n          lt\n          tag_180\n          jumpi\n          0x0100\n          dup1\n          dup4\n          sload\n          div\n          mul\n          dup4\n          mstore\n          swap2\n          0x20\n          add\n          swap2\n          jump(tag_179)\n        tag_180:\n          dup3\n          add\n          swap2\n          swap1\n          0x00\n          mstore\n          keccak256(0x00, 0x20)\n          swap1\n        tag_181:\n          dup2\n          sload\n          dup2\n          mstore\n          swap1\n          0x01\n          add\n          swap1\n          0x20\n          add\n          dup1\n          dup4\n          gt\n          tag_181\n          jumpi\n          dup3\n          swap1\n          sub\n          0x1f\n          and\n          dup3\n          add\n          swap2\n        tag_179:\n          pop\n          pop\n          pop\n          pop\n          pop\n          dup2\n          mstore\n          0x20\n          add\n          0x02\n          dup3\n          add\n          dup1\n          sload\n          tag_182\n          swap1\n          tag_159\n          jump\t// in\n        tag_182:\n          dup1\n          0x1f\n          add\n          0x20\n          dup1\n          swap2\n          div\n          mul\n          0x20\n          add\n          mload(0x40)\n          swap1\n          dup2\n          add\n          0x40\n          mstore\n          dup1\n          swap3\n          swap2\n          swap1\n          dup2\n          dup2\n          mstore\n          0x20\n          add\n          dup3\n          dup1\n          sload\n          tag_183\n          swap1\n          tag_159\n          jump\t// in\n        tag_183:\n          dup1\n          iszero\n          tag_184\n          jumpi\n          dup1\n          0x1f\n          lt\n          tag_185\n          jumpi\n          0x0100\n          dup1\n          dup4\n          sload\n          div\n          mul\n          dup4\n          mstore\n          swap2\n          0x20\n          add\n          swap2\n          jump(tag_184)\n        tag_185:\n          dup3\n          add\n          swap2\n          swap1\n          0x00\n          mstore\n          keccak256(0x00, 0x20)\n          swap1\n        tag_186:\n          dup2\n          sload\n          dup2\n          mstore\n          swap1\n          0x01\n          add\n          swap1\n          0x20\n          add\n          dup1\n          dup4\n          gt\n          tag_186\n          jumpi\n          dup3\n          swap1\n          sub\n          0x1f\n          and\n          dup3\n          add\n          swap2\n        tag_184:\n          pop\n          pop\n          pop\n          pop\n          pop\n          dup2\n          mstore\n          0x20\n          add\n          0x03\n          dup3\n          add\n          dup1\n          sload\n          tag_187\n          swap1\n          tag_159\n          jump\t// in\n        tag_187:\n          dup1\n          0x1f\n          add\n          0x20\n          dup1\n          swap2\n          div\n          mul\n          0x20\n          add\n          mload(0x40)\n          swap1\n          dup2\n          add\n          0x40\n          mstore\n          dup1\n          swap3\n          swap2\n          swap1\n          dup2\n          dup2\n          mstore\n          0x20\n          add\n          dup3\n          dup1\n          sload\n          tag_188\n          swap1\n          tag_159\n          jump\t// in\n        tag_188:\n          dup1\n          iszero\n          tag_189\n          jumpi\n          dup1\n          0x1f\n          lt\n          tag_190\n          jumpi\n          0x0100\n          dup1\n          dup4\n          sload\n          div\n          mul\n          dup4\n          mstore\n          swap2\n          0x20\n          add\n          swap2\n          jump(tag_189)\n        tag_190:\n          dup3\n          add\n          swap2\n          swap1\n          0x00\n          mstore\n          keccak256(0x00, 0x20)\n          swap1\n        tag_191:\n          dup2\n          sload\n          dup2\n          mstore\n          swap1\n          0x01\n          add\n          swap1\n          0x20\n          add\n          dup1\n          dup4\n          gt\n          tag_191\n          jumpi\n          dup3\n          swap1\n          sub\n          0x1f\n          and\n          dup3\n          add\n          swap2\n        tag_189:\n          pop\n          pop\n          pop\n          pop\n          pop\n          dup2\n          mstore\n          0x20\n          add\n          0x04\n          dup3\n          add\n          dup1\n          sload\n          tag_192\n          swap1\n          tag_159\n          jump\t// in\n        tag_192:\n          dup1\n          0x1f\n          add\n          0x20\n          dup1\n          swap2\n          div\n          mul\n          0x20\n          add\n          mload(0x40)\n          swap1\n          dup2\n          add\n          0x40\n          mstore\n          dup1\n          swap3\n          swap2\n          swap1\n          dup2\n          dup2\n          mstore\n          0x20\n          add\n          dup3\n          dup1\n          sload\n          tag_193\n          swap1\n          tag_159\n          jump\t// in\n        tag_193:\n          dup1\n          iszero\n          tag_194\n          jumpi\n          dup1\n          0x1f\n          lt\n          tag_195\n          jumpi\n          0x0100\n          dup1\n          dup4\n          sload\n          div\n          mul\n          dup4\n          mstore\n          swap2\n          0x20\n          add\n          swap2\n          jump(tag_194)\n        tag_195:\n          dup3\n          add\n          swap2\n          swap1\n          0x00\n          mstore\n          keccak256(0x00, 0x20)\n          swap1\n        tag_196:\n          dup2\n          sload\n          dup2\n          mstore\n          swap1\n          0x01\n          add\n          swap1\n          0x20\n          add\n          dup1\n          dup4\n          gt\n          tag_196\n          jumpi\n          dup3\n          swap1\n          sub\n          0x1f\n          and\n          dup3\n          add\n          swap2\n        tag_194:\n          pop\n          pop\n          pop\n          pop\n          pop\n          dup2\n          mstore\n          0x20\n          add\n          0x05\n          dup3\n          add\n          dup1\n          sload\n          tag_197\n          swap1\n          tag_159\n          jump\t// in\n        tag_197:\n          dup1\n          0x1f\n          add\n          0x20\n          dup1\n          swap2\n          div\n          mul\n          0x20\n          add\n          mload(0x40)\n          swap1\n          dup2\n          add\n          0x40\n          mstore\n          dup1\n          swap3\n          swap2\n          swap1\n          dup2\n          dup2\n          mstore\n          0x20\n          add\n          dup3\n          dup1\n          sload\n          tag_198\n          swap1\n          tag_159\n          jump\t// in\n        tag_198:\n          dup1\n          iszero\n          tag_199\n          jumpi\n          dup1\n          0x1f\n          lt\n          tag_200\n          jumpi\n          0x0100\n          dup1\n          dup4\n          sload\n          div\n          mul\n          dup4\n          mstore\n          swap2\n          0x20\n          add\n          swap2\n          jump(tag_199)\n        tag_200:\n          dup3\n          add\n          swap2\n          swap1\n          0x00\n          mstore\n          keccak256(0x00, 0x20)\n          swap1\n        tag_201:\n          dup2\n          sload\n          dup2\n          mstore\n          swap1\n          0x01\n          add\n          swap1\n          0x20\n          add\n          dup1\n          dup4\n          gt\n          tag_201\n          jumpi\n          dup3\n          swap1\n          sub\n          0x1f\n          and\n          dup3\n          add\n          swap2\n        tag_199:\n          pop\n          pop\n          pop\n          pop\n          pop\n          dup2\n          mstore\n          0x20\n          add\n          0x06\n          dup3\n          add\n          dup1\n          sload\n          tag_202\n          swap1\n          tag_159\n          jump\t// in\n        tag_202:\n          dup1\n          0x1f\n          add\n          0x20\n          dup1\n          swap2\n          div\n          mul\n          0x20\n          add\n          mload(0x40)\n          swap1\n          dup2\n          add\n          0x40\n          mstore\n          dup1\n          swap3\n          swap2\n          swap1\n          dup2\n          dup2\n          mstore\n          0x20\n          add\n          dup3\n          dup1\n          sload\n          tag_203\n          swap1\n          tag_159\n          jump\t// in\n        tag_203:\n          dup1\n          iszero\n          tag_204\n          jumpi\n          dup1\n          0x1f\n          lt\n          tag_205\n          jumpi\n          0x0100\n          dup1\n          dup4\n          sload\n          div\n          mul\n          dup4\n          mstore\n          swap2\n          0x20\n          add\n          swap2\n          jump(tag_204)\n        tag_205:\n          dup3\n          add\n          swap2\n          swap1\n          0x00\n          mstore\n          keccak256(0x00, 0x20)\n          swap1\n        tag_206:\n          dup2\n          sload\n          dup2\n          mstore\n          swap1\n          0x01\n          add\n          swap1\n          0x20\n          add\n          dup1\n          dup4\n          gt\n          tag_206\n          jumpi\n          dup3\n          swap1\n          sub\n          0x1f\n          and\n          dup3\n          add\n          swap2\n        tag_204:\n          pop\n          pop\n          pop\n          pop\n          pop\n          dup2\n          mstore\n          0x20\n          add\n          0x07\n          dup3\n          add\n          dup1\n          sload\n          tag_207\n          swap1\n          tag_159\n          jump\t// in\n        tag_207:\n          dup1\n          0x1f\n          add\n          0x20\n          dup1\n          swap2\n          div\n          mul\n          0x20\n          add\n          mload(0x40)\n          swap1\n          dup2\n          add\n          0x40\n          mstore\n          dup1\n          swap3\n          swap2\n          swap1\n          dup2\n          dup2\n          mstore\n          0x20\n          add\n          dup3\n          dup1\n          sload\n          tag_208\n          swap1\n          tag_159\n          jump\t// in\n        tag_208:\n          dup1\n          iszero\n          tag_209\n          jumpi\n          dup1\n          0x1f\n          lt\n          tag_210\n          jumpi\n          0x0100\n          dup1\n          dup4\n          sload\n          div\n          mul\n          dup4\n          mstore\n          swap2\n          0x20\n          add\n          swap2\n          jump(tag_209)\n        tag_210:\n          dup3\n          add\n          swap2\n          swap1\n          0x00\n          mstore\n          keccak256(0x00, 0x20)\n          swap1\n        tag_211:\n          dup2\n          sload\n          dup2\n          mstore\n          swap1\n          0x01\n          add\n          swap1\n          0x20\n          add\n          dup1\n          dup4\n          gt\n          tag_211\n          jumpi\n          dup3\n          swap1\n          sub\n          0x1f\n          and\n          dup3\n          add\n          swap2\n        tag_209:\n          pop\n          pop\n          pop\n          pop\n          pop\n          dup2\n          mstore\n          0x20\n          add\n          0x08\n          dup3\n          add\n          dup1\n          sload\n          tag_212\n          swap1\n          tag_159\n          jump\t// in\n        tag_212:\n          dup1\n          0x1f\n          add\n          0x20\n          dup1\n          swap2\n          div\n          mul\n          0x20\n          add\n          mload(0x40)\n          swap1\n          dup2\n          add\n          0x40\n          mstore\n          dup1\n          swap3\n          swap2\n          swap1\n          dup2\n          dup2\n          mstore\n          0x20\n          add\n          dup3\n          dup1\n          sload\n          tag_213\n          swap1\n          tag_159\n          jump\t// in\n        tag_213:\n          dup1\n          iszero\n          tag_214\n          jumpi\n          dup1\n          0x1f\n          lt\n          tag_215\n          jumpi\n          0x0100\n          dup1\n          dup4\n          sload\n          div\n          mul\n          dup4\n          mstore\n          swap2\n          0x20\n          add\n          swap2\n          jump(tag_214)\n        tag_215:\n          dup3\n          add\n          swap2\n          swap1\n          0x00\n          mstore\n          keccak256(0x00, 0x20)\n          swap1\n        tag_216:\n          dup2\n          sload\n          dup2\n          mstore\n          swap1\n          0x01\n          add\n          swap1\n          0x20\n          add\n          dup1\n          dup4\n          gt\n          tag_216\n          jumpi\n          dup3\n          swap1\n          sub\n          0x1f\n          and\n          dup3\n          add\n          swap2\n        tag_214:\n          pop\n          pop\n          pop\n          pop\n          pop\n          dup2\n          mstore\n          0x20\n          add\n          0x09\n          dup3\n          add\n          0x00\n          swap1\n          sload\n          swap1\n          0x0100\n          exp\n          swap1\n          div\n          0xff\n          and\n          iszero\n          iszero\n          iszero\n          iszero\n          dup2\n          mstore\n          pop\n          pop\n          dup2\n          mstore\n          0x20\n          add\n          swap1\n          0x01\n          add\n          swap1\n          jump(tag_174)\n        tag_175:\n          pop\n          pop\n          pop\n          pop\n          swap1\n          pop\n          swap2\n          pop\n          swap2\n          pop\n            /* \"ElectronicMedicalRecords.sol\":9389:9553  function getOutPatient(address add) public view returns(IdentitasPasien memory a, RawatJalan[] memory b) {... */\n          swap2\n          pop\n          swap2\n          jump\t// out\n            /* \"ElectronicMedicalRecords.sol\":9730:9908  function getEmergencyPatient(address add) public view returns(IdentitasPasien memory a, GawatDarurat[] memory b) {... */\n        tag_42:\n            /* \"ElectronicMedicalRecords.sol\":9792:9816  IdentitasPasien memory a */\n          tag_217\n          tag_98\n          jump\t// in\n        tag_217:\n            /* \"ElectronicMedicalRecords.sol\":9818:9841  GawatDarurat[] memory b */\n          0x60\n            /* \"ElectronicMedicalRecords.sol\":9862:9871  patientId */\n          0x00\n            /* \"ElectronicMedicalRecords.sol\":9862:9876  patientId[add] */\n          dup1\n            /* \"ElectronicMedicalRecords.sol\":9872:9875  add */\n          dup5\n            /* \"ElectronicMedicalRecords.sol\":9862:9876  patientId[add] */\n          0xffffffffffffffffffffffffffffffffffffffff\n          and\n          0xffffffffffffffffffffffffffffffffffffffff\n          and\n          dup2\n          mstore\n          0x20\n          add\n          swap1\n          dup2\n          mstore\n          0x20\n          add\n          0x00\n          keccak256\n            /* \"ElectronicMedicalRecords.sol\":9878:9894  emergencyPatient */\n          0x04\n            /* \"ElectronicMedicalRecords.sol\":9878:9899  emergencyPatient[add] */\n          0x00\n            /* \"ElectronicMedicalRecords.sol\":9895:9898  add */\n          dup6\n            /* \"ElectronicMedicalRecords.sol\":9878:9899  emergencyPatient[add] */\n          0xffffffffffffffffffffffffffffffffffffffff\n          and\n          0xffffffffffffffffffffffffffffffffffffffff\n          and\n          dup2\n          mstore\n          0x20\n          add\n          swap1\n          dup2\n          mstore\n          0x20\n          add\n          0x00\n          keccak256\n            /* \"ElectronicMedicalRecords.sol\":9854:9900  return (patientId[add], emergencyPatient[add]) */\n          dup2\n          mload(0x40)\n          dup1\n          0xa0\n          add\n          0x40\n          mstore\n          swap1\n          dup2\n          0x00\n          dup3\n          add\n          0x00\n          swap1\n          sload\n          swap1\n          0x0100\n          exp\n          swap1\n          div\n          0xffffffffffffffffffffffffffffffffffffffff\n          and\n          0xffffffffffffffffffffffffffffffffffffffff\n          and\n          0xffffffffffffffffffffffffffffffffffffffff\n          and\n          dup2\n          mstore\n          0x20\n          add\n          0x01\n          dup3\n          add\n          dup1\n          sload\n          tag_219\n          swap1\n          tag_159\n          jump\t// in\n        tag_219:\n          dup1\n          0x1f\n          add\n          0x20\n          dup1\n          swap2\n          div\n          mul\n          0x20\n          add\n          mload(0x40)\n          swap1\n          dup2\n          add\n          0x40\n          mstore\n          dup1\n          swap3\n          swap2\n          swap1\n          dup2\n          dup2\n          mstore\n          0x20\n          add\n          dup3\n          dup1\n          sload\n          tag_220\n          swap1\n          tag_159\n          jump\t// in\n        tag_220:\n          dup1\n          iszero\n          tag_221\n          jumpi\n          dup1\n          0x1f\n          lt\n          tag_222\n          jumpi\n          0x0100\n          dup1\n          dup4\n          sload\n          div\n          mul\n          dup4\n          mstore\n          swap2\n          0x20\n          add\n          swap2\n          jump(tag_221)\n        tag_222:\n          dup3\n          add\n          swap2\n          swap1\n          0x00\n          mstore\n          keccak256(0x00, 0x20)\n          swap1\n        tag_223:\n          dup2\n          sload\n          dup2\n          mstore\n          swap1\n          0x01\n          add\n          swap1\n          0x20\n          add\n          dup1\n          dup4\n          gt\n          tag_223\n          jumpi\n          dup3\n          swap1\n          sub\n          0x1f\n          and\n          dup3\n          add\n          swap2\n        tag_221:\n          pop\n          pop\n          pop\n          pop\n          pop\n          dup2\n          mstore\n          0x20\n          add\n          0x02\n          dup3\n          add\n          sload\n          dup2\n          mstore\n          0x20\n          add\n          0x03\n          dup3\n          add\n          dup1\n          sload\n          tag_224\n          swap1\n          tag_159\n          jump\t// in\n        tag_224:\n          dup1\n          0x1f\n          add\n          0x20\n          dup1\n          swap2\n          div\n          mul\n          0x20\n          add\n          mload(0x40)\n          swap1\n          dup2\n          add\n          0x40\n          mstore\n          dup1\n          swap3\n          swap2\n          swap1\n          dup2\n          dup2\n          mstore\n          0x20\n          add\n          dup3\n          dup1\n          sload\n          tag_225\n          swap1\n          tag_159\n          jump\t// in\n        tag_225:\n          dup1\n          iszero\n          tag_226\n          jumpi\n          dup1\n          0x1f\n          lt\n          tag_227\n          jumpi\n          0x0100\n          dup1\n          dup4\n          sload\n          div\n          mul\n          dup4\n          mstore\n          swap2\n          0x20\n          add\n          swap2\n          jump(tag_226)\n        tag_227:\n          dup3\n          add\n          swap2\n          swap1\n          0x00\n          mstore\n          keccak256(0x00, 0x20)\n          swap1\n        tag_228:\n          dup2\n          sload\n          dup2\n          mstore\n          swap1\n          0x01\n          add\n          swap1\n          0x20\n          add\n          dup1\n          dup4\n          gt\n          tag_228\n          jumpi\n          dup3\n          swap1\n          sub\n          0x1f\n          and\n          dup3\n          add\n          swap2\n        tag_226:\n          pop\n          pop\n          pop\n          pop\n          pop\n          dup2\n          mstore\n          0x20\n          add\n          0x04\n          dup3\n          add\n          dup1\n          sload\n          tag_229\n          swap1\n          tag_159\n          jump\t// in\n        tag_229:\n          dup1\n          0x1f\n          add\n          0x20\n          dup1\n          swap2\n          div\n          mul\n          0x20\n          add\n          mload(0x40)\n          swap1\n          dup2\n          add\n          0x40\n          mstore\n          dup1\n          swap3\n          swap2\n          swap1\n          dup2\n          dup2\n          mstore\n          0x20\n          add\n          dup3\n          dup1\n          sload\n          tag_230\n          swap1\n          tag_159\n          jump\t// in\n        tag_230:\n          dup1\n          iszero\n          tag_231\n          jumpi\n          dup1\n          0x1f\n          lt\n          tag_232\n          jumpi\n          0x0100\n          dup1\n          dup4\n          sload\n          div\n          mul\n          dup4\n          mstore\n          swap2\n          0x20\n          add\n          swap2\n          jump(tag_231)\n        tag_232:\n          dup3\n          add\n          swap2\n          swap1\n          0x00\n          mstore\n          keccak256(0x00, 0x20)\n          swap1\n        tag_233:\n          dup2\n          sload\n          dup2\n          mstore\n          swap1\n          0x01\n          add\n          swap1\n          0x20\n          add\n          dup1\n          dup4\n          gt\n          tag_233\n          jumpi\n          dup3\n          swap1\n          sub\n          0x1f\n          and\n          dup3\n          add\n          swap2\n        tag_231:\n          pop\n          pop\n          pop\n          pop\n          pop\n          dup2\n          mstore\n          pop\n          pop\n          swap2\n          pop\n          dup1\n          dup1\n          sload\n          dup1\n          0x20\n          mul\n          0x20\n          add\n          mload(0x40)\n          swap1\n          dup2\n          add\n          0x40\n          mstore\n          dup1\n          swap3\n          swap2\n          swap1\n          dup2\n          dup2\n          mstore\n          0x20\n          add\n          0x00\n          swap1\n        tag_234:\n          dup3\n          dup3\n          lt\n          iszero\n          tag_235\n          jumpi\n          dup4\n          dup3\n          swap1\n          0x00\n          mstore\n          keccak256(0x00, 0x20)\n          swap1\n          0x0d\n          mul\n          add\n          mload(0x40)\n          dup1\n          0x01a0\n          add\n          0x40\n          mstore\n          swap1\n          dup2\n          0x00\n          dup3\n          add\n          0x00\n          swap1\n          sload\n          swap1\n          0x0100\n          exp\n          swap1\n          div\n          0xffffffffffffffffffffffffffffffffffffffff\n          and\n          0xffffffffffffffffffffffffffffffffffffffff\n          and\n          0xffffffffffffffffffffffffffffffffffffffff\n          and\n          dup2\n          mstore\n          0x20\n          add\n          0x01\n          dup3\n          add\n          dup1\n          sload\n          tag_237\n          swap1\n          tag_159\n          jump\t// in\n        tag_237:\n          dup1\n          0x1f\n          add\n          0x20\n          dup1\n          swap2\n          div\n          mul\n          0x20\n          add\n          mload(0x40)\n          swap1\n          dup2\n          add\n          0x40\n          mstore\n          dup1\n          swap3\n          swap2\n          swap1\n          dup2\n          dup2\n          mstore\n          0x20\n          add\n          dup3\n          dup1\n          sload\n          tag_238\n          swap1\n          tag_159\n          jump\t// in\n        tag_238:\n          dup1\n          iszero\n          tag_239\n          jumpi\n          dup1\n          0x1f\n          lt\n          tag_240\n          jumpi\n          0x0100\n          dup1\n          dup4\n          sload\n          div\n          mul\n          dup4\n          mstore\n          swap2\n          0x20\n          add\n          swap2\n          jump(tag_239)\n        tag_240:\n          dup3\n          add\n          swap2\n          swap1\n          0x00\n          mstore\n          keccak256(0x00, 0x20)\n          swap1\n        tag_241:\n          dup2\n          sload\n          dup2\n          mstore\n          swap1\n          0x01\n          add\n          swap1\n          0x20\n          add\n          dup1\n          dup4\n          gt\n          tag_241\n          jumpi\n          dup3\n          swap1\n          sub\n          0x1f\n          and\n          dup3\n          add\n          swap2\n        tag_239:\n          pop\n          pop\n          pop\n          pop\n          pop\n          dup2\n          mstore\n          0x20\n          add\n          0x02\n          dup3\n          add\n          dup1\n          sload\n          tag_242\n          swap1\n          tag_159\n          jump\t// in\n        tag_242:\n          dup1\n          0x1f\n          add\n          0x20\n          dup1\n          swap2\n          div\n          mul\n          0x20\n          add\n          mload(0x40)\n          swap1\n          dup2\n          add\n          0x40\n          mstore\n          dup1\n          swap3\n          swap2\n          swap1\n          dup2\n          dup2\n          mstore\n          0x20\n          add\n          dup3\n          dup1\n          sload\n          tag_243\n          swap1\n          tag_159\n          jump\t// in\n        tag_243:\n          dup1\n          iszero\n          tag_244\n          jumpi\n          dup1\n          0x1f\n          lt\n          tag_245\n          jumpi\n          0x0100\n          dup1\n          dup4\n          sload\n          div\n          mul\n          dup4\n          mstore\n          swap2\n          0x20\n          add\n          swap2\n          jump(tag_244)\n        tag_245:\n          dup3\n          add\n          swap2\n          swap1\n          0x00\n          mstore\n          keccak256(0x00, 0x20)\n          swap1\n        tag_246:\n          dup2\n          sload\n          dup2\n          mstore\n          swap1\n          0x01\n          add\n          swap1\n          0x20\n          add\n          dup1\n          dup4\n          gt\n          tag_246\n          jumpi\n          dup3\n          swap1\n          sub\n          0x1f\n          and\n          dup3\n          add\n          swap2\n        tag_244:\n          pop\n          pop\n          pop\n          pop\n          pop\n          dup2\n          mstore\n          0x20\n          add\n          0x03\n          dup3\n          add\n          dup1\n          sload\n          tag_247\n          swap1\n          tag_159\n          jump\t// in\n        tag_247:\n          dup1\n          0x1f\n          add\n          0x20\n          dup1\n          swap2\n          div\n          mul\n          0x20\n          add\n          mload(0x40)\n          swap1\n          dup2\n          add\n          0x40\n          mstore\n          dup1\n          swap3\n          swap2\n          swap1\n          dup2\n          dup2\n          mstore\n          0x20\n          add\n          dup3\n          dup1\n          sload\n          tag_248\n          swap1\n          tag_159\n          jump\t// in\n        tag_248:\n          dup1\n          iszero\n          tag_249\n          jumpi\n          dup1\n          0x1f\n          lt\n          tag_250\n          jumpi\n          0x0100\n          dup1\n          dup4\n          sload\n          div\n          mul\n          dup4\n          mstore\n          swap2\n          0x20\n          add\n          swap2\n          jump(tag_249)\n        tag_250:\n          dup3\n          add\n          swap2\n          swap1\n          0x00\n          mstore\n          keccak256(0x00, 0x20)\n          swap1\n        tag_251:\n          dup2\n          sload\n          dup2\n          mstore\n          swap1\n          0x01\n          add\n          swap1\n          0x20\n          add\n          dup1\n          dup4\n          gt\n          tag_251\n          jumpi\n          dup3\n          swap1\n          sub\n          0x1f\n          and\n          dup3\n          add\n          swap2\n        tag_249:\n          pop\n          pop\n          pop\n          pop\n          pop\n          dup2\n          mstore\n          0x20\n          add\n          0x04\n          dup3\n          add\n          dup1\n          sload\n          tag_252\n          swap1\n          tag_159\n          jump\t// in\n        tag_252:\n          dup1\n          0x1f\n          add\n          0x20\n          dup1\n          swap2\n          div\n          mul\n          0x20\n          add\n          mload(0x40)\n          swap1\n          dup2\n          add\n          0x40\n          mstore\n          dup1\n          swap3\n          swap2\n          swap1\n          dup2\n          dup2\n          mstore\n          0x20\n          add\n          dup3\n          dup1\n          sload\n          tag_253\n          swap1\n          tag_159\n          jump\t// in\n        tag_253:\n          dup1\n          iszero\n          tag_254\n          jumpi\n          dup1\n          0x1f\n          lt\n          tag_255\n          jumpi\n          0x0100\n          dup1\n          dup4\n          sload\n          div\n          mul\n          dup4\n          mstore\n          swap2\n          0x20\n          add\n          swap2\n          jump(tag_254)\n        tag_255:\n          dup3\n          add\n          swap2\n          swap1\n          0x00\n          mstore\n          keccak256(0x00, 0x20)\n          swap1\n        tag_256:\n          dup2\n          sload\n          dup2\n          mstore\n          swap1\n          0x01\n          add\n          swap1\n          0x20\n          add\n          dup1\n          dup4\n          gt\n          tag_256\n          jumpi\n          dup3\n          swap1\n          sub\n          0x1f\n          and\n          dup3\n          add\n          swap2\n        tag_254:\n          pop\n          pop\n          pop\n          pop\n          pop\n          dup2\n          mstore\n          0x20\n          add\n          0x05\n          dup3\n          add\n          dup1\n          sload\n          tag_257\n          swap1\n          tag_159\n          jump\t// in\n        tag_257:\n          dup1\n          0x1f\n          add\n          0x20\n          dup1\n          swap2\n          div\n          mul\n          0x20\n          add\n          mload(0x40)\n          swap1\n          dup2\n          add\n          0x40\n          mstore\n          dup1\n          swap3\n          swap2\n          swap1\n          dup2\n          dup2\n          mstore\n          0x20\n          add\n          dup3\n          dup1\n          sload\n          tag_258\n          swap1\n          tag_159\n          jump\t// in\n        tag_258:\n          dup1\n          iszero\n          tag_259\n          jumpi\n          dup1\n          0x1f\n          lt\n          tag_260\n          jumpi\n          0x0100\n          dup1\n          dup4\n          sload\n          div\n          mul\n          dup4\n          mstore\n          swap2\n          0x20\n          add\n          swap2\n          jump(tag_259)\n        tag_260:\n          dup3\n          add\n          swap2\n          swap1\n          0x00\n          mstore\n          keccak256(0x00, 0x20)\n          swap1\n        tag_261:\n          dup2\n          sload\n          dup2\n          mstore\n          swap1\n          0x01\n          add\n          swap1\n          0x20\n          add\n          dup1\n          dup4\n          gt\n          tag_261\n          jumpi\n          dup3\n          swap1\n          sub\n          0x1f\n          and\n          dup3\n          add\n          swap2\n        tag_259:\n          pop\n          pop\n          pop\n          pop\n          pop\n          dup2\n          mstore\n          0x20\n          add\n          0x06\n          dup3\n          add\n          dup1\n          sload\n          tag_262\n          swap1\n          tag_159\n          jump\t// in\n        tag_262:\n          dup1\n          0x1f\n          add\n          0x20\n          dup1\n          swap2\n          div\n          mul\n          0x20\n          add\n          mload(0x40)\n          swap1\n          dup2\n          add\n          0x40\n          mstore\n          dup1\n          swap3\n          swap2\n          swap1\n          dup2\n          dup2\n          mstore\n          0x20\n          add\n          dup3\n          dup1\n          sload\n          tag_263\n          swap1\n          tag_159\n          jump\t// in\n        tag_263:\n          dup1\n          iszero\n          tag_264\n          jumpi\n          dup1\n          0x1f\n          lt\n          tag_265\n          jumpi\n          0x0100\n          dup1\n          dup4\n          sload\n          div\n          mul\n          dup4\n          mstore\n          swap2\n          0x20\n          add\n          swap2\n          jump(tag_264)\n        tag_265:\n          dup3\n          add\n          swap2\n          swap1\n          0x00\n          mstore\n          keccak256(0x00, 0x20)\n          swap1\n        tag_266:\n          dup2\n          sload\n          dup2\n          mstore\n          swap1\n          0x01\n          add\n          swap1\n          0x20\n          add\n          dup1\n          dup4\n          gt\n          tag_266\n          jumpi\n          dup3\n          swap1\n          sub\n          0x1f\n          and\n          dup3\n          add\n          swap2\n        tag_264:\n          pop\n          pop\n          pop\n          pop\n          pop\n          dup2\n          mstore\n          0x20\n          add\n          0x07\n          dup3\n          add\n          dup1\n          sload\n          tag_267\n          swap1\n          tag_159\n          jump\t// in\n        tag_267:\n          dup1\n          0x1f\n          add\n          0x20\n          dup1\n          swap2\n          div\n          mul\n          0x20\n          add\n          mload(0x40)\n          swap1\n          dup2\n          add\n          0x40\n          mstore\n          dup1\n          swap3\n          swap2\n          swap1\n          dup2\n          dup2\n          mstore\n          0x20\n          add\n          dup3\n          dup1\n          sload\n          tag_268\n          swap1\n          tag_159\n          jump\t// in\n        tag_268:\n          dup1\n          iszero\n          tag_269\n          jumpi\n          dup1\n          0x1f\n          lt\n          tag_270\n          jumpi\n          0x0100\n          dup1\n          dup4\n          sload\n          div\n          mul\n          dup4\n          mstore\n          swap2\n          0x20\n          add\n          swap2\n          jump(tag_269)\n        tag_270:\n          dup3\n          add\n          swap2\n          swap1\n          0x00\n          mstore\n          keccak256(0x00, 0x20)\n          swap1\n        tag_271:\n          dup2\n          sload\n          dup2\n          mstore\n          swap1\n          0x01\n          add\n          swap1\n          0x20\n          add\n          dup1\n          dup4\n          gt\n          tag_271\n          jumpi\n          dup3\n          swap1\n          sub\n          0x1f\n          and\n          dup3\n          add\n          swap2\n        tag_269:\n          pop\n          pop\n          pop\n          pop\n          pop\n          dup2\n          mstore\n          0x20\n          add\n          0x08\n          dup3\n          add\n          dup1\n          sload\n          tag_272\n          swap1\n          tag_159\n          jump\t// in\n        tag_272:\n          dup1\n          0x1f\n          add\n          0x20\n          dup1\n          swap2\n          div\n          mul\n          0x20\n          add\n          mload(0x40)\n          swap1\n          dup2\n          add\n          0x40\n          mstore\n          dup1\n          swap3\n          swap2\n          swap1\n          dup2\n          dup2\n          mstore\n          0x20\n          add\n          dup3\n          dup1\n          sload\n          tag_273\n          swap1\n          tag_159\n          jump\t// in\n        tag_273:\n          dup1\n          iszero\n          tag_274\n          jumpi\n          dup1\n          0x1f\n          lt\n          tag_275\n          jumpi\n          0x0100\n          dup1\n          dup4\n          sload\n          div\n          mul\n          dup4\n          mstore\n          swap2\n          0x20\n          add\n          swap2\n          jump(tag_274)\n        tag_275:\n          dup3\n          add\n          swap2\n          swap1\n          0x00\n          mstore\n          keccak256(0x00, 0x20)\n          swap1\n        tag_276:\n          dup2\n          sload\n          dup2\n          mstore\n          swap1\n          0x01\n          add\n          swap1\n          0x20\n          add\n          dup1\n          dup4\n          gt\n          tag_276\n          jumpi\n          dup3\n          swap1\n          sub\n          0x1f\n          and\n          dup3\n          add\n          swap2\n        tag_274:\n          pop\n          pop\n          pop\n          pop\n          pop\n          dup2\n          mstore\n          0x20\n          add\n          0x09\n          dup3\n          add\n          dup1\n          sload\n          tag_277\n          swap1\n          tag_159\n          jump\t// in\n        tag_277:\n          dup1\n          0x1f\n          add\n          0x20\n          dup1\n          swap2\n          div\n          mul\n          0x20\n          add\n          mload(0x40)\n          swap1\n          dup2\n          add\n          0x40\n          mstore\n          dup1\n          swap3\n          swap2\n          swap1\n          dup2\n          dup2\n          mstore\n          0x20\n          add\n          dup3\n          dup1\n          sload\n          tag_278\n          swap1\n          tag_159\n          jump\t// in\n        tag_278:\n          dup1\n          iszero\n          tag_279\n          jumpi\n          dup1\n          0x1f\n          lt\n          tag_280\n          jumpi\n          0x0100\n          dup1\n          dup4\n          sload\n          div\n          mul\n          dup4\n          mstore\n          swap2\n          0x20\n          add\n          swap2\n          jump(tag_279)\n        tag_280:\n          dup3\n          add\n          swap2\n          swap1\n          0x00\n          mstore\n          keccak256(0x00, 0x20)\n          swap1\n        tag_281:\n          dup2\n          sload\n          dup2\n          mstore\n          swap1\n          0x01\n          add\n          swap1\n          0x20\n          add\n          dup1\n          dup4\n          gt\n          tag_281\n          jumpi\n          dup3\n          swap1\n          sub\n          0x1f\n          and\n          dup3\n          add\n          swap2\n        tag_279:\n          pop\n          pop\n          pop\n          pop\n          pop\n          dup2\n          mstore\n          0x20\n          add\n          0x0a\n          dup3\n          add\n          dup1\n          sload\n          tag_282\n          swap1\n          tag_159\n          jump\t// in\n        tag_282:\n          dup1\n          0x1f\n          add\n          0x20\n          dup1\n          swap2\n          div\n          mul\n          0x20\n          add\n          mload(0x40)\n          swap1\n          dup2\n          add\n          0x40\n          mstore\n          dup1\n          swap3\n          swap2\n          swap1\n          dup2\n          dup2\n          mstore\n          0x20\n          add\n          dup3\n          dup1\n          sload\n          tag_283\n          swap1\n          tag_159\n          jump\t// in\n        tag_283:\n          dup1\n          iszero\n          tag_284\n          jumpi\n          dup1\n          0x1f\n          lt\n          tag_285\n          jumpi\n          0x0100\n          dup1\n          dup4\n          sload\n          div\n          mul\n          dup4\n          mstore\n          swap2\n          0x20\n          add\n          swap2\n          jump(tag_284)\n        tag_285:\n          dup3\n          add\n          swap2\n          swap1\n          0x00\n          mstore\n          keccak256(0x00, 0x20)\n          swap1\n        tag_286:\n          dup2\n          sload\n          dup2\n          mstore\n          swap1\n          0x01\n          add\n          swap1\n          0x20\n          add\n          dup1\n          dup4\n          gt\n          tag_286\n          jumpi\n          dup3\n          swap1\n          sub\n          0x1f\n          and\n          dup3\n          add\n          swap2\n        tag_284:\n          pop\n          pop\n          pop\n          pop\n          pop\n          dup2\n          mstore\n          0x20\n          add\n          0x0b\n          dup3\n          add\n          dup1\n          sload\n          tag_287\n          swap1\n          tag_159\n          jump\t// in\n        tag_287:\n          dup1\n          0x1f\n          add\n          0x20\n          dup1\n          swap2\n          div\n          mul\n          0x20\n          add\n          mload(0x40)\n          swap1\n          dup2\n          add\n          0x40\n          mstore\n          dup1\n          swap3\n          swap2\n          swap1\n          dup2\n          dup2\n          mstore\n          0x20\n          add\n          dup3\n          dup1\n          sload\n          tag_288\n          swap1\n          tag_159\n          jump\t// in\n        tag_288:\n          dup1\n          iszero\n          tag_289\n          jumpi\n          dup1\n          0x1f\n          lt\n          tag_290\n          jumpi\n          0x0100\n          dup1\n          dup4\n          sload\n          div\n          mul\n          dup4\n          mstore\n          swap2\n          0x20\n          add\n          swap2\n          jump(tag_289)\n        tag_290:\n          dup3\n          add\n          swap2\n          swap1\n          0x00\n          mstore\n          keccak256(0x00, 0x20)\n          swap1\n        tag_291:\n          dup2\n          sload\n          dup2\n          mstore\n          swap1\n          0x01\n          add\n          swap1\n          0x20\n          add\n          dup1\n          dup4\n          gt\n          tag_291\n          jumpi\n          dup3\n          swap1\n          sub\n          0x1f\n          and\n          dup3\n          add\n          swap2\n        tag_289:\n          pop\n          pop\n          pop\n          pop\n          pop\n          dup2\n          mstore\n          0x20\n          add\n          0x0c\n          dup3\n          add\n          dup1\n          sload\n          tag_292\n          swap1\n          tag_159\n          jump\t// in\n        tag_292:\n          dup1\n          0x1f\n          add\n          0x20\n          dup1\n          swap2\n          div\n          mul\n          0x20\n          add\n          mload(0x40)\n          swap1\n          dup2\n          add\n          0x40\n          mstore\n          dup1\n          swap3\n          swap2\n          swap1\n          dup2\n          dup2\n          mstore\n          0x20\n          add\n          dup3\n          dup1\n          sload\n          tag_293\n          swap1\n          tag_159\n          jump\t// in\n        tag_293:\n          dup1\n          iszero\n          tag_294\n          jumpi\n          dup1\n          0x1f\n          lt\n          tag_295\n          jumpi\n          0x0100\n          dup1\n          dup4\n          sload\n          div\n          mul\n          dup4\n          mstore\n          swap2\n          0x20\n          add\n          swap2\n          jump(tag_294)\n        tag_295:\n          dup3\n          add\n          swap2\n          swap1\n          0x00\n          mstore\n          keccak256(0x00, 0x20)\n          swap1\n        tag_296:\n          dup2\n          sload\n          dup2\n          mstore\n          swap1\n          0x01\n          add\n          swap1\n          0x20\n          add\n          dup1\n          dup4\n          gt\n          tag_296\n          jumpi\n          dup3\n          swap1\n          sub\n          0x1f\n          and\n          dup3\n          add\n          swap2\n        tag_294:\n          pop\n          pop\n          pop\n          pop\n          pop\n          dup2\n          mstore\n          pop\n          pop\n          dup2\n          mstore\n          0x20\n          add\n          swap1\n          0x01\n          add\n          swap1\n          jump(tag_234)\n        tag_235:\n          pop\n          pop\n          pop\n          pop\n          swap1\n          pop\n          swap2\n          pop\n          swap2\n          pop\n            /* \"ElectronicMedicalRecords.sol\":9730:9908  function getEmergencyPatient(address add) public view returns(IdentitasPasien memory a, GawatDarurat[] memory b) {... */\n          swap2\n          pop\n          swap2\n          jump\t// out\n            /* \"ElectronicMedicalRecords.sol\":9561:9722  function getInPatient(address add) public view returns(IdentitasPasien memory a, RawatInap[] memory b) {... */\n        tag_47:\n            /* \"ElectronicMedicalRecords.sol\":9616:9640  IdentitasPasien memory a */\n          tag_297\n          tag_98\n          jump\t// in\n        tag_297:\n            /* \"ElectronicMedicalRecords.sol\":9642:9662  RawatInap[] memory b */\n          0x60\n            /* \"ElectronicMedicalRecords.sol\":9683:9692  patientId */\n          0x00\n            /* \"ElectronicMedicalRecords.sol\":9683:9697  patientId[add] */\n          dup1\n            /* \"ElectronicMedicalRecords.sol\":9693:9696  add */\n          dup5\n            /* \"ElectronicMedicalRecords.sol\":9683:9697  patientId[add] */\n          0xffffffffffffffffffffffffffffffffffffffff\n          and\n          0xffffffffffffffffffffffffffffffffffffffff\n          and\n          dup2\n          mstore\n          0x20\n          add\n          swap1\n          dup2\n          mstore\n          0x20\n          add\n          0x00\n          keccak256\n            /* \"ElectronicMedicalRecords.sol\":9699:9708  inPatient */\n          0x03\n            /* \"ElectronicMedicalRecords.sol\":9699:9713  inPatient[add] */\n          0x00\n            /* \"ElectronicMedicalRecords.sol\":9709:9712  add */\n          dup6\n            /* \"ElectronicMedicalRecords.sol\":9699:9713  inPatient[add] */\n          0xffffffffffffffffffffffffffffffffffffffff\n          and\n          0xffffffffffffffffffffffffffffffffffffffff\n          and\n          dup2\n          mstore\n          0x20\n          add\n          swap1\n          dup2\n          mstore\n          0x20\n          add\n          0x00\n          keccak256\n            /* \"ElectronicMedicalRecords.sol\":9675:9714  return (patientId[add], inPatient[add]) */\n          dup2\n          mload(0x40)\n          dup1\n          0xa0\n          add\n          0x40\n          mstore\n          swap1\n          dup2\n          0x00\n          dup3\n          add\n          0x00\n          swap1\n          sload\n          swap1\n          0x0100\n          exp\n          swap1\n          div\n          0xffffffffffffffffffffffffffffffffffffffff\n          and\n          0xffffffffffffffffffffffffffffffffffffffff\n          and\n          0xffffffffffffffffffffffffffffffffffffffff\n          and\n          dup2\n          mstore\n          0x20\n          add\n          0x01\n          dup3\n          add\n          dup1\n          sload\n          tag_299\n          swap1\n          tag_159\n          jump\t// in\n        tag_299:\n          dup1\n          0x1f\n          add\n          0x20\n          dup1\n          swap2\n          div\n          mul\n          0x20\n          add\n          mload(0x40)\n          swap1\n          dup2\n          add\n          0x40\n          mstore\n          dup1\n          swap3\n          swap2\n          swap1\n          dup2\n          dup2\n          mstore\n          0x20\n          add\n          dup3\n          dup1\n          sload\n          tag_300\n          swap1\n          tag_159\n          jump\t// in\n        tag_300:\n          dup1\n          iszero\n          tag_301\n          jumpi\n          dup1\n          0x1f\n          lt\n          tag_302\n          jumpi\n          0x0100\n          dup1\n          dup4\n          sload\n          div\n          mul\n          dup4\n          mstore\n          swap2\n          0x20\n          add\n          swap2\n          jump(tag_301)\n        tag_302:\n          dup3\n          add\n          swap2\n          swap1\n          0x00\n          mstore\n          keccak256(0x00, 0x20)\n          swap1\n        tag_303:\n          dup2\n          sload\n          dup2\n          mstore\n          swap1\n          0x01\n          add\n          swap1\n          0x20\n          add\n          dup1\n          dup4\n          gt\n          tag_303\n          jumpi\n          dup3\n          swap1\n          sub\n          0x1f\n          and\n          dup3\n          add\n          swap2\n        tag_301:\n          pop\n          pop\n          pop\n          pop\n          pop\n          dup2\n          mstore\n          0x20\n          add\n          0x02\n          dup3\n          add\n          sload\n          dup2\n          mstore\n          0x20\n          add\n          0x03\n          dup3\n          add\n          dup1\n          sload\n          tag_304\n          swap1\n          tag_159\n          jump\t// in\n        tag_304:\n          dup1\n          0x1f\n          add\n          0x20\n          dup1\n          swap2\n          div\n          mul\n          0x20\n          add\n          mload(0x40)\n          swap1\n          dup2\n          add\n          0x40\n          mstore\n          dup1\n          swap3\n          swap2\n          swap1\n          dup2\n          dup2\n          mstore\n          0x20\n          add\n          dup3\n          dup1\n          sload\n          tag_305\n          swap1\n          tag_159\n          jump\t// in\n        tag_305:\n          dup1\n          iszero\n          tag_306\n          jumpi\n          dup1\n          0x1f\n          lt\n          tag_307\n          jumpi\n          0x0100\n          dup1\n          dup4\n          sload\n          div\n          mul\n          dup4\n          mstore\n          swap2\n          0x20\n          add\n          swap2\n          jump(tag_306)\n        tag_307:\n          dup3\n          add\n          swap2\n          swap1\n          0x00\n          mstore\n          keccak256(0x00, 0x20)\n          swap1\n        tag_308:\n          dup2\n          sload\n          dup2\n          mstore\n          swap1\n          0x01\n          add\n          swap1\n          0x20\n          add\n          dup1\n          dup4\n          gt\n          tag_308\n          jumpi\n          dup3\n          swap1\n          sub\n          0x1f\n          and\n          dup3\n          add\n          swap2\n        tag_306:\n          pop\n          pop\n          pop\n          pop\n          pop\n          dup2\n          mstore\n          0x20\n          add\n          0x04\n          dup3\n          add\n          dup1\n          sload\n          tag_309\n          swap1\n          tag_159\n          jump\t// in\n        tag_309:\n          dup1\n          0x1f\n          add\n          0x20\n          dup1\n          swap2\n          div\n          mul\n          0x20\n          add\n          mload(0x40)\n          swap1\n          dup2\n          add\n          0x40\n          mstore\n          dup1\n          swap3\n          swap2\n          swap1\n          dup2\n          dup2\n          mstore\n          0x20\n          add\n          dup3\n          dup1\n          sload\n          tag_310\n          swap1\n          tag_159\n          jump\t// in\n        tag_310:\n          dup1\n          iszero\n          tag_311\n          jumpi\n          dup1\n          0x1f\n          lt\n          tag_312\n          jumpi\n          0x0100\n          dup1\n          dup4\n          sload\n          div\n          mul\n          dup4\n          mstore\n          swap2\n          0x20\n          add\n          swap2\n          jump(tag_311)\n        tag_312:\n          dup3\n          add\n          swap2\n          swap1\n          0x00\n          mstore\n          keccak256(0x00, 0x20)\n          swap1\n        tag_313:\n          dup2\n          sload\n          dup2\n          mstore\n          swap1\n          0x01\n          add\n          swap1\n          0x20\n          add\n          dup1\n          dup4\n          gt\n          tag_313\n          jumpi\n          dup3\n          swap1\n          sub\n          0x1f\n          and\n          dup3\n          add\n          swap2\n        tag_311:\n          pop\n          pop\n          pop\n          pop\n          pop\n          dup2\n          mstore\n          pop\n          pop\n          swap2\n          pop\n          dup1\n          dup1\n          sload\n          dup1\n          0x20\n          mul\n          0x20\n          add\n          mload(0x40)\n          swap1\n          dup2\n          add\n          0x40\n          mstore\n          dup1\n          swap3\n          swap2\n          swap1\n          dup2\n          dup2\n          mstore\n          0x20\n          add\n          0x00\n          swap1\n        tag_314:\n          dup3\n          dup3\n          lt\n          iszero\n          tag_315\n          jumpi\n          dup4\n          dup3\n          swap1\n          0x00\n          mstore\n          keccak256(0x00, 0x20)\n          swap1\n          0x0e\n          mul\n          add\n          mload(0x40)\n          dup1\n          0x01c0\n          add\n          0x40\n          mstore\n          swap1\n          dup2\n          0x00\n          dup3\n          add\n          0x00\n          swap1\n          sload\n          swap1\n          0x0100\n          exp\n          swap1\n          div\n          0xffffffffffffffffffffffffffffffffffffffff\n          and\n          0xffffffffffffffffffffffffffffffffffffffff\n          and\n          0xffffffffffffffffffffffffffffffffffffffff\n          and\n          dup2\n          mstore\n          0x20\n          add\n          0x01\n          dup3\n          add\n          dup1\n          sload\n          tag_317\n          swap1\n          tag_159\n          jump\t// in\n        tag_317:\n          dup1\n          0x1f\n          add\n          0x20\n          dup1\n          swap2\n          div\n          mul\n          0x20\n          add\n          mload(0x40)\n          swap1\n          dup2\n          add\n          0x40\n          mstore\n          dup1\n          swap3\n          swap2\n          swap1\n          dup2\n          dup2\n          mstore\n          0x20\n          add\n          dup3\n          dup1\n          sload\n          tag_318\n          swap1\n          tag_159\n          jump\t// in\n        tag_318:\n          dup1\n          iszero\n          tag_319\n          jumpi\n          dup1\n          0x1f\n          lt\n          tag_320\n          jumpi\n          0x0100\n          dup1\n          dup4\n          sload\n          div\n          mul\n          dup4\n          mstore\n          swap2\n          0x20\n          add\n          swap2\n          jump(tag_319)\n        tag_320:\n          dup3\n          add\n          swap2\n          swap1\n          0x00\n          mstore\n          keccak256(0x00, 0x20)\n          swap1\n        tag_321:\n          dup2\n          sload\n          dup2\n          mstore\n          swap1\n          0x01\n          add\n          swap1\n          0x20\n          add\n          dup1\n          dup4\n          gt\n          tag_321\n          jumpi\n          dup3\n          swap1\n          sub\n          0x1f\n          and\n          dup3\n          add\n          swap2\n        tag_319:\n          pop\n          pop\n          pop\n          pop\n          pop\n          dup2\n          mstore\n          0x20\n          add\n          0x02\n          dup3\n          add\n          dup1\n          sload\n          tag_322\n          swap1\n          tag_159\n          jump\t// in\n        tag_322:\n          dup1\n          0x1f\n          add\n          0x20\n          dup1\n          swap2\n          div\n          mul\n          0x20\n          add\n          mload(0x40)\n          swap1\n          dup2\n          add\n          0x40\n          mstore\n          dup1\n          swap3\n          swap2\n          swap1\n          dup2\n          dup2\n          mstore\n          0x20\n          add\n          dup3\n          dup1\n          sload\n          tag_323\n          swap1\n          tag_159\n          jump\t// in\n        tag_323:\n          dup1\n          iszero\n          tag_324\n          jumpi\n          dup1\n          0x1f\n          lt\n          tag_325\n          jumpi\n          0x0100\n          dup1\n          dup4\n          sload\n          div\n          mul\n          dup4\n          mstore\n          swap2\n          0x20\n          add\n          swap2\n          jump(tag_324)\n        tag_325:\n          dup3\n          add\n          swap2\n          swap1\n          0x00\n          mstore\n          keccak256(0x00, 0x20)\n          swap1\n        tag_326:\n          dup2\n          sload\n          dup2\n          mstore\n          swap1\n          0x01\n          add\n          swap1\n          0x20\n          add\n          dup1\n          dup4\n          gt\n          tag_326\n          jumpi\n          dup3\n          swap1\n          sub\n          0x1f\n          and\n          dup3\n          add\n          swap2\n        tag_324:\n          pop\n          pop\n          pop\n          pop\n          pop\n          dup2\n          mstore\n          0x20\n          add\n          0x03\n          dup3\n          add\n          dup1\n          sload\n          tag_327\n          swap1\n          tag_159\n          jump\t// in\n        tag_327:\n          dup1\n          0x1f\n          add\n          0x20\n          dup1\n          swap2\n          div\n          mul\n          0x20\n          add\n          mload(0x40)\n          swap1\n          dup2\n          add\n          0x40\n          mstore\n          dup1\n          swap3\n          swap2\n          swap1\n          dup2\n          dup2\n          mstore\n          0x20\n          add\n          dup3\n          dup1\n          sload\n          tag_328\n          swap1\n          tag_159\n          jump\t// in\n        tag_328:\n          dup1\n          iszero\n          tag_329\n          jumpi\n          dup1\n          0x1f\n          lt\n          tag_330\n          jumpi\n          0x0100\n          dup1\n          dup4\n          sload\n          div\n          mul\n          dup4\n          mstore\n          swap2\n          0x20\n          add\n          swap2\n          jump(tag_329)\n        tag_330:\n          dup3\n          add\n          swap2\n          swap1\n          0x00\n          mstore\n          keccak256(0x00, 0x20)\n          swap1\n        tag_331:\n          dup2\n          sload\n          dup2\n          mstore\n          swap1\n          0x01\n          add\n          swap1\n          0x20\n          add\n          dup1\n          dup4\n          gt\n          tag_331\n          jumpi\n          dup3\n          swap1\n          sub\n          0x1f\n          and\n          dup3\n          add\n          swap2\n        tag_329:\n          pop\n          pop\n          pop\n          pop\n          pop\n          dup2\n          mstore\n          0x20\n          add\n          0x04\n          dup3\n          add\n          dup1\n          sload\n          tag_332\n          swap1\n          tag_159\n          jump\t// in\n        tag_332:\n          dup1\n          0x1f\n          add\n          0x20\n          dup1\n          swap2\n          div\n          mul\n          0x20\n          add\n          mload(0x40)\n          swap1\n          dup2\n          add\n          0x40\n          mstore\n          dup1\n          swap3\n          swap2\n          swap1\n          dup2\n          dup2\n          mstore\n          0x20\n          add\n          dup3\n          dup1\n          sload\n          tag_333\n          swap1\n          tag_159\n          jump\t// in\n        tag_333:\n          dup1\n          iszero\n          tag_334\n          jumpi\n          dup1\n          0x1f\n          lt\n          tag_335\n          jumpi\n          0x0100\n          dup1\n          dup4\n          sload\n          div\n          mul\n          dup4\n          mstore\n          swap2\n          0x20\n          add\n          swap2\n          jump(tag_334)\n        tag_335:\n          dup3\n          add\n          swap2\n          swap1\n          0x00\n          mstore\n          keccak256(0x00, 0x20)\n          swap1\n        tag_336:\n          dup2\n          sload\n          dup2\n          mstore\n          swap1\n          0x01\n          add\n          swap1\n          0x20\n          add\n          dup1\n          dup4\n          gt\n          tag_336\n          jumpi\n          dup3\n          swap1\n          sub\n          0x1f\n          and\n          dup3\n          add\n          swap2\n        tag_334:\n          pop\n          pop\n          pop\n          pop\n          pop\n          dup2\n          mstore\n          0x20\n          add\n          0x05\n          dup3\n          add\n          dup1\n          sload\n          tag_337\n          swap1\n          tag_159\n          jump\t// in\n        tag_337:\n          dup1\n          0x1f\n          add\n          0x20\n          dup1\n          swap2\n          div\n          mul\n          0x20\n          add\n          mload(0x40)\n          swap1\n          dup2\n          add\n          0x40\n          mstore\n          dup1\n          swap3\n          swap2\n          swap1\n          dup2\n          dup2\n          mstore\n          0x20\n          add\n          dup3\n          dup1\n          sload\n          tag_338\n          swap1\n          tag_159\n          jump\t// in\n        tag_338:\n          dup1\n          iszero\n          tag_339\n          jumpi\n          dup1\n          0x1f\n          lt\n          tag_340\n          jumpi\n          0x0100\n          dup1\n          dup4\n          sload\n          div\n          mul\n          dup4\n          mstore\n          swap2\n          0x20\n          add\n          swap2\n          jump(tag_339)\n        tag_340:\n          dup3\n          add\n          swap2\n          swap1\n          0x00\n          mstore\n          keccak256(0x00, 0x20)\n          swap1\n        tag_341:\n          dup2\n          sload\n          dup2\n          mstore\n          swap1\n          0x01\n          add\n          swap1\n          0x20\n          add\n          dup1\n          dup4\n          gt\n          tag_341\n          jumpi\n          dup3\n          swap1\n          sub\n          0x1f\n          and\n          dup3\n          add\n          swap2\n        tag_339:\n          pop\n          pop\n          pop\n          pop\n          pop\n          dup2\n          mstore\n          0x20\n          add\n          0x06\n          dup3\n          add\n          dup1\n          sload\n          tag_342\n          swap1\n          tag_159\n          jump\t// in\n        tag_342:\n          dup1\n          0x1f\n          add\n          0x20\n          dup1\n          swap2\n          div\n          mul\n          0x20\n          add\n          mload(0x40)\n          swap1\n          dup2\n          add\n          0x40\n          mstore\n          dup1\n          swap3\n          swap2\n          swap1\n          dup2\n          dup2\n          mstore\n          0x20\n          add\n          dup3\n          dup1\n          sload\n          tag_343\n          swap1\n          tag_159\n          jump\t// in\n        tag_343:\n          dup1\n          iszero\n          tag_344\n          jumpi\n          dup1\n          0x1f\n          lt\n          tag_345\n          jumpi\n          0x0100\n          dup1\n          dup4\n          sload\n          div\n          mul\n          dup4\n          mstore\n          swap2\n          0x20\n          add\n          swap2\n          jump(tag_344)\n        tag_345:\n          dup3\n          add\n          swap2\n          swap1\n          0x00\n          mstore\n          keccak256(0x00, 0x20)\n          swap1\n        tag_346:\n          dup2\n          sload\n          dup2\n          mstore\n          swap1\n          0x01\n          add\n          swap1\n          0x20\n          add\n          dup1\n          dup4\n          gt\n          tag_346\n          jumpi\n          dup3\n          swap1\n          sub\n          0x1f\n          and\n          dup3\n          add\n          swap2\n        tag_344:\n          pop\n          pop\n          pop\n          pop\n          pop\n          dup2\n          mstore\n          0x20\n          add\n          0x07\n          dup3\n          add\n          dup1\n          sload\n          tag_347\n          swap1\n          tag_159\n          jump\t// in\n        tag_347:\n          dup1\n          0x1f\n          add\n          0x20\n          dup1\n          swap2\n          div\n          mul\n          0x20\n          add\n          mload(0x40)\n          swap1\n          dup2\n          add\n          0x40\n          mstore\n          dup1\n          swap3\n          swap2\n          swap1\n          dup2\n          dup2\n          mstore\n          0x20\n          add\n          dup3\n          dup1\n          sload\n          tag_348\n          swap1\n          tag_159\n          jump\t// in\n        tag_348:\n          dup1\n          iszero\n          tag_349\n          jumpi\n          dup1\n          0x1f\n          lt\n          tag_350\n          jumpi\n          0x0100\n          dup1\n          dup4\n          sload\n          div\n          mul\n          dup4\n          mstore\n          swap2\n          0x20\n          add\n          swap2\n          jump(tag_349)\n        tag_350:\n          dup3\n          add\n          swap2\n          swap1\n          0x00\n          mstore\n          keccak256(0x00, 0x20)\n          swap1\n        tag_351:\n          dup2\n          sload\n          dup2\n          mstore\n          swap1\n          0x01\n          add\n          swap1\n          0x20\n          add\n          dup1\n          dup4\n          gt\n          tag_351\n          jumpi\n          dup3\n          swap1\n          sub\n          0x1f\n          and\n          dup3\n          add\n          swap2\n        tag_349:\n          pop\n          pop\n          pop\n          pop\n          pop\n          dup2\n          mstore\n          0x20\n          add\n          0x08\n          dup3\n          add\n          dup1\n          sload\n          tag_352\n          swap1\n          tag_159\n          jump\t// in\n        tag_352:\n          dup1\n          0x1f\n          add\n          0x20\n          dup1\n          swap2\n          div\n          mul\n          0x20\n          add\n          mload(0x40)\n          swap1\n          dup2\n          add\n          0x40\n          mstore\n          dup1\n          swap3\n          swap2\n          swap1\n          dup2\n          dup2\n          mstore\n          0x20\n          add\n          dup3\n          dup1\n          sload\n          tag_353\n          swap1\n          tag_159\n          jump\t// in\n        tag_353:\n          dup1\n          iszero\n          tag_354\n          jumpi\n          dup1\n          0x1f\n          lt\n          tag_355\n          jumpi\n          0x0100\n          dup1\n          dup4\n          sload\n          div\n          mul\n          dup4\n          mstore\n          swap2\n          0x20\n          add\n          swap2\n          jump(tag_354)\n        tag_355:\n          dup3\n          add\n          swap2\n          swap1\n          0x00\n          mstore\n          keccak256(0x00, 0x20)\n          swap1\n        tag_356:\n          dup2\n          sload\n          dup2\n          mstore\n          swap1\n          0x01\n          add\n          swap1\n          0x20\n          add\n          dup1\n          dup4\n          gt\n          tag_356\n          jumpi\n          dup3\n          swap1\n          sub\n          0x1f\n          and\n          dup3\n          add\n          swap2\n        tag_354:\n          pop\n          pop\n          pop\n          pop\n          pop\n          dup2\n          mstore\n          0x20\n          add\n          0x09\n          dup3\n          add\n          0x00\n          swap1\n          sload\n          swap1\n          0x0100\n          exp\n          swap1\n          div\n          0xff\n          and\n          iszero\n          iszero\n          iszero\n          iszero\n          dup2\n          mstore\n          0x20\n          add\n          0x0a\n          dup3\n          add\n          dup1\n          sload\n          tag_357\n          swap1\n          tag_159\n          jump\t// in\n        tag_357:\n          dup1\n          0x1f\n          add\n          0x20\n          dup1\n          swap2\n          div\n          mul\n          0x20\n          add\n          mload(0x40)\n          swap1\n          dup2\n          add\n          0x40\n          mstore\n          dup1\n          swap3\n          swap2\n          swap1\n          dup2\n          dup2\n          mstore\n          0x20\n          add\n          dup3\n          dup1\n          sload\n          tag_358\n          swap1\n          tag_159\n          jump\t// in\n        tag_358:\n          dup1\n          iszero\n          tag_359\n          jumpi\n          dup1\n          0x1f\n          lt\n          tag_360\n          jumpi\n          0x0100\n          dup1\n          dup4\n          sload\n          div\n          mul\n          dup4\n          mstore\n          swap2\n          0x20\n          add\n          swap2\n          jump(tag_359)\n        tag_360:\n          dup3\n          add\n          swap2\n          swap1\n          0x00\n          mstore\n          keccak256(0x00, 0x20)\n          swap1\n        tag_361:\n          dup2\n          sload\n          dup2\n          mstore\n          swap1\n          0x01\n          add\n          swap1\n          0x20\n          add\n          dup1\n          dup4\n          gt\n          tag_361\n          jumpi\n          dup3\n          swap1\n          sub\n          0x1f\n          and\n          dup3\n          add\n          swap2\n        tag_359:\n          pop\n          pop\n          pop\n          pop\n          pop\n          dup2\n          mstore\n          0x20\n          add\n          0x0b\n          dup3\n          add\n          dup1\n          sload\n          tag_362\n          swap1\n          tag_159\n          jump\t// in\n        tag_362:\n          dup1\n          0x1f\n          add\n          0x20\n          dup1\n          swap2\n          div\n          mul\n          0x20\n          add\n          mload(0x40)\n          swap1\n          dup2\n          add\n          0x40\n          mstore\n          dup1\n          swap3\n          swap2\n          swap1\n          dup2\n          dup2\n          mstore\n          0x20\n          add\n          dup3\n          dup1\n          sload\n          tag_363\n          swap1\n          tag_159\n          jump\t// in\n        tag_363:\n          dup1\n          iszero\n          tag_364\n          jumpi\n          dup1\n          0x1f\n          lt\n          tag_365\n          jumpi\n          0x0100\n          dup1\n          dup4\n          sload\n          div\n          mul\n          dup4\n          mstore\n          swap2\n          0x20\n          add\n          swap2\n          jump(tag_364)\n        tag_365:\n          dup3\n          add\n          swap2\n          swap1\n          0x00\n          mstore\n          keccak256(0x00, 0x20)\n          swap1\n        tag_366:\n          dup2\n          sload\n          dup2\n          mstore\n          swap1\n          0x01\n          add\n          swap1\n          0x20\n          add\n          dup1\n          dup4\n          gt\n          tag_366\n          jumpi\n          dup3\n          swap1\n          sub\n          0x1f\n          and\n          dup3\n          add\n          swap2\n        tag_364:\n          pop\n          pop\n          pop\n          pop\n          pop\n          dup2\n          mstore\n          0x20\n          add\n          0x0c\n          dup3\n          add\n          0x00\n          swap1\n          sload\n          swap1\n          0x0100\n          exp\n          swap1\n          div\n          0xffffffffffffffffffffffffffffffffffffffff\n          and\n          0xffffffffffffffffffffffffffffffffffffffff\n          and\n          0xffffffffffffffffffffffffffffffffffffffff\n          and\n          dup2\n          mstore\n          0x20\n          add\n          0x0d\n          dup3\n          add\n          dup1\n          sload\n          tag_367\n          swap1\n          tag_159\n          jump\t// in\n        tag_367:\n          dup1\n          0x1f\n          add\n          0x20\n          dup1\n          swap2\n          div\n          mul\n          0x20\n          add\n          mload(0x40)\n          swap1\n          dup2\n          add\n          0x40\n          mstore\n          dup1\n          swap3\n          swap2\n          swap1\n          dup2\n          dup2\n          mstore\n          0x20\n          add\n          dup3\n          dup1\n          sload\n          tag_368\n          swap1\n          tag_159\n          jump\t// in\n        tag_368:\n          dup1\n          iszero\n          tag_369\n          jumpi\n          dup1\n          0x1f\n          lt\n          tag_370\n          jumpi\n          0x0100\n          dup1\n          dup4\n          sload\n          div\n          mul\n          dup4\n          mstore\n          swap2\n          0x20\n          add\n          swap2\n          jump(tag_369)\n        tag_370:\n          dup3\n          add\n          swap2\n          swap1\n          0x00\n          mstore\n          keccak256(0x00, 0x20)\n          swap1\n        tag_371:\n          dup2\n          sload\n          dup2\n          mstore\n          swap1\n          0x01\n          add\n          swap1\n          0x20\n          add\n          dup1\n          dup4\n          gt\n          tag_371\n          jumpi\n          dup3\n          swap1\n          sub\n          0x1f\n          and\n          dup3\n          add\n          swap2\n        tag_369:\n          pop\n          pop\n          pop\n          pop\n          pop\n          dup2\n          mstore\n          pop\n          pop\n          dup2\n          mstore\n          0x20\n          add\n          swap1\n          0x01\n          add\n          swap1\n          jump(tag_314)\n        tag_315:\n          pop\n          pop\n          pop\n          pop\n          swap1\n          pop\n          swap2\n          pop\n          swap2\n          pop\n            /* \"ElectronicMedicalRecords.sol\":9561:9722  function getInPatient(address add) public view returns(IdentitasPasien memory a, RawatInap[] memory b) {... */\n          swap2\n          pop\n          swap2\n          jump\t// out\n        tag_61:\n          mload(0x40)\n          dup1\n          0x80\n          add\n          0x40\n          mstore\n          dup1\n          0x60\n          dup2\n          mstore\n          0x20\n          add\n          0x60\n          dup2\n          mstore\n          0x20\n          add\n          0x00\n          dup2\n          mstore\n          0x20\n          add\n          0x60\n          dup2\n          mstore\n          pop\n          swap1\n          jump\t// out\n        tag_67:\n          mload(0x40)\n          dup1\n          0x01a0\n          add\n          0x40\n          mstore\n          dup1\n          and(0xffffffffffffffffffffffffffffffffffffffff, 0x00)\n          dup2\n          mstore\n          0x20\n          add\n          0x60\n          dup2\n          mstore\n          0x20\n          add\n          0x60\n          dup2\n          mstore\n          0x20\n          add\n          0x60\n          dup2\n          mstore\n          0x20\n          add\n          0x60\n          dup2\n          mstore\n          0x20\n          add\n          0x60\n          dup2\n          mstore\n          0x20\n          add\n          0x60\n          dup2\n          mstore\n          0x20\n          add\n          0x60\n          dup2\n          mstore\n          0x20\n          add\n          0x60\n          dup2\n          mstore\n          0x20\n          add\n          0x60\n          dup2\n          mstore\n          0x20\n          add\n          0x60\n          dup2\n          mstore\n          0x20\n          add\n          0x60\n          dup2\n          mstore\n          0x20\n          add\n          0x60\n          dup2\n          mstore\n          pop\n          swap1\n          jump\t// out\n        tag_98:\n          mload(0x40)\n          dup1\n          0xa0\n          add\n          0x40\n          mstore\n          dup1\n          and(0xffffffffffffffffffffffffffffffffffffffff, 0x00)\n          dup2\n          mstore\n          0x20\n          add\n          0x60\n          dup2\n          mstore\n          0x20\n          add\n          0x00\n          dup2\n          mstore\n          0x20\n          add\n          0x60\n          dup2\n          mstore\n          0x20\n          add\n          0x60\n          dup2\n          mstore\n          pop\n          swap1\n          jump\t// out\n        tag_103:\n          mload(0x40)\n          dup1\n          0x0140\n          add\n          0x40\n          mstore\n          dup1\n          and(0xffffffffffffffffffffffffffffffffffffffff, 0x00)\n          dup2\n          mstore\n          0x20\n          add\n          0x60\n          dup2\n          mstore\n          0x20\n          add\n          0x60\n          dup2\n          mstore\n          0x20\n          add\n          0x60\n          dup2\n          mstore\n          0x20\n          add\n          0x60\n          dup2\n          mstore\n          0x20\n          add\n          0x60\n          dup2\n          mstore\n          0x20\n          add\n          0x60\n          dup2\n          mstore\n          0x20\n          add\n          0x60\n          dup2\n          mstore\n          0x20\n          add\n          0x60\n          dup2\n          mstore\n          0x20\n          add\n          iszero(iszero(0x00))\n          dup2\n          mstore\n          pop\n          swap1\n          jump\t// out\n        tag_135:\n          mload(0x40)\n          dup1\n          0x01c0\n          add\n          0x40\n          mstore\n          dup1\n          and(0xffffffffffffffffffffffffffffffffffffffff, 0x00)\n          dup2\n          mstore\n          0x20\n          add\n          0x60\n          dup2\n          mstore\n          0x20\n          add\n          0x60\n          dup2\n          mstore\n          0x20\n          add\n          0x60\n          dup2\n          mstore\n          0x20\n          add\n          0x60\n          dup2\n          mstore\n          0x20\n          add\n          0x60\n          dup2\n          mstore\n          0x20\n          add\n          0x60\n          dup2\n          mstore\n          0x20\n          add\n          0x60\n          dup2\n          mstore\n          0x20\n          add\n          0x60\n          dup2\n          mstore\n          0x20\n          add\n          iszero(iszero(0x00))\n          dup2\n          mstore\n          0x20\n          add\n          0x60\n          dup2\n          mstore\n          0x20\n          add\n          0x60\n          dup2\n          mstore\n          0x20\n          add\n          and(0xffffffffffffffffffffffffffffffffffffffff, 0x00)\n          dup2\n          mstore\n          0x20\n          add\n          0x60\n          dup2\n          mstore\n          pop\n          swap1\n          jump\t// out\n            /* \"#utility.yul\":7:82   */\n        tag_372:\n            /* \"#utility.yul\":40:46   */\n          0x00\n            /* \"#utility.yul\":73:75   */\n          0x40\n            /* \"#utility.yul\":67:76   */\n          mload\n            /* \"#utility.yul\":57:76   */\n          swap1\n          pop\n            /* \"#utility.yul\":7:82   */\n          swap1\n          jump\t// out\n            /* \"#utility.yul\":88:205   */\n        tag_373:\n            /* \"#utility.yul\":197:198   */\n          0x00\n            /* \"#utility.yul\":194:195   */\n          dup1\n            /* \"#utility.yul\":187:199   */\n          revert\n            /* \"#utility.yul\":211:328   */\n        tag_374:\n            /* \"#utility.yul\":320:321   */\n          0x00\n            /* \"#utility.yul\":317:318   */\n          dup1\n            /* \"#utility.yul\":310:322   */\n          revert\n            /* \"#utility.yul\":334:460   */\n        tag_375:\n            /* \"#utility.yul\":371:378   */\n          0x00\n            /* \"#utility.yul\":411:453   */\n          0xffffffffffffffffffffffffffffffffffffffff\n            /* \"#utility.yul\":404:409   */\n          dup3\n            /* \"#utility.yul\":400:454   */\n          and\n            /* \"#utility.yul\":389:454   */\n          swap1\n          pop\n            /* \"#utility.yul\":334:460   */\n          swap2\n          swap1\n          pop\n          jump\t// out\n            /* \"#utility.yul\":466:562   */\n        tag_376:\n            /* \"#utility.yul\":503:510   */\n          0x00\n            /* \"#utility.yul\":532:556   */\n          tag_457\n            /* \"#utility.yul\":550:555   */\n          dup3\n            /* \"#utility.yul\":532:556   */\n          tag_375\n          jump\t// in\n        tag_457:\n            /* \"#utility.yul\":521:556   */\n          swap1\n          pop\n            /* \"#utility.yul\":466:562   */\n          swap2\n          swap1\n          pop\n          jump\t// out\n            /* \"#utility.yul\":568:690   */\n        tag_377:\n            /* \"#utility.yul\":641:665   */\n          tag_459\n            /* \"#utility.yul\":659:664   */\n          dup2\n            /* \"#utility.yul\":641:665   */\n          tag_376\n          jump\t// in\n        tag_459:\n            /* \"#utility.yul\":634:639   */\n          dup2\n            /* \"#utility.yul\":631:666   */\n          eq\n            /* \"#utility.yul\":621:684   */\n          tag_460\n          jumpi\n            /* \"#utility.yul\":680:681   */\n          0x00\n            /* \"#utility.yul\":677:678   */\n          dup1\n            /* \"#utility.yul\":670:682   */\n          revert\n            /* \"#utility.yul\":621:684   */\n        tag_460:\n            /* \"#utility.yul\":568:690   */\n          pop\n          jump\t// out\n            /* \"#utility.yul\":696:835   */\n        tag_378:\n            /* \"#utility.yul\":742:747   */\n          0x00\n            /* \"#utility.yul\":780:786   */\n          dup2\n            /* \"#utility.yul\":767:787   */\n          calldataload\n            /* \"#utility.yul\":758:787   */\n          swap1\n          pop\n            /* \"#utility.yul\":796:829   */\n          tag_462\n            /* \"#utility.yul\":823:828   */\n          dup2\n            /* \"#utility.yul\":796:829   */\n          tag_377\n          jump\t// in\n        tag_462:\n            /* \"#utility.yul\":696:835   */\n          swap3\n          swap2\n          pop\n          pop\n          jump\t// out\n            /* \"#utility.yul\":841:1170   */\n        tag_15:\n            /* \"#utility.yul\":900:906   */\n          0x00\n            /* \"#utility.yul\":949:951   */\n          0x20\n            /* \"#utility.yul\":937:946   */\n          dup3\n            /* \"#utility.yul\":928:935   */\n          dup5\n            /* \"#utility.yul\":924:947   */\n          sub\n            /* \"#utility.yul\":920:952   */\n          slt\n            /* \"#utility.yul\":917:1036   */\n          iszero\n          tag_464\n          jumpi\n            /* \"#utility.yul\":955:1034   */\n          tag_465\n          tag_373\n          jump\t// in\n        tag_465:\n            /* \"#utility.yul\":917:1036   */\n        tag_464:\n            /* \"#utility.yul\":1075:1076   */\n          0x00\n            /* \"#utility.yul\":1100:1153   */\n          tag_466\n            /* \"#utility.yul\":1145:1152   */\n          dup5\n            /* \"#utility.yul\":1136:1142   */\n          dup3\n            /* \"#utility.yul\":1125:1134   */\n          dup6\n            /* \"#utility.yul\":1121:1143   */\n          add\n            /* \"#utility.yul\":1100:1153   */\n          tag_378\n          jump\t// in\n        tag_466:\n            /* \"#utility.yul\":1090:1153   */\n          swap2\n          pop\n            /* \"#utility.yul\":1046:1163   */\n          pop\n            /* \"#utility.yul\":841:1170   */\n          swap3\n          swap2\n          pop\n          pop\n          jump\t// out\n            /* \"#utility.yul\":1176:1293   */\n        tag_379:\n            /* \"#utility.yul\":1285:1286   */\n          0x00\n            /* \"#utility.yul\":1282:1283   */\n          dup1\n            /* \"#utility.yul\":1275:1287   */\n          revert\n            /* \"#utility.yul\":1299:1401   */\n        tag_380:\n            /* \"#utility.yul\":1340:1346   */\n          0x00\n            /* \"#utility.yul\":1391:1393   */\n          0x1f\n            /* \"#utility.yul\":1387:1394   */\n          not\n            /* \"#utility.yul\":1382:1384   */\n          0x1f\n            /* \"#utility.yul\":1375:1380   */\n          dup4\n            /* \"#utility.yul\":1371:1385   */\n          add\n            /* \"#utility.yul\":1367:1395   */\n          and\n            /* \"#utility.yul\":1357:1395   */\n          swap1\n          pop\n            /* \"#utility.yul\":1299:1401   */\n          swap2\n          swap1\n          pop\n          jump\t// out\n            /* \"#utility.yul\":1407:1587   */\n        tag_381:\n            /* \"#utility.yul\":1455:1532   */\n          0x4e487b7100000000000000000000000000000000000000000000000000000000\n            /* \"#utility.yul\":1452:1453   */\n          0x00\n            /* \"#utility.yul\":1445:1533   */\n          mstore\n            /* \"#utility.yul\":1552:1556   */\n          0x41\n            /* \"#utility.yul\":1549:1550   */\n          0x04\n            /* \"#utility.yul\":1542:1557   */\n          mstore\n            /* \"#utility.yul\":1576:1580   */\n          0x24\n            /* \"#utility.yul\":1573:1574   */\n          0x00\n            /* \"#utility.yul\":1566:1581   */\n          revert\n            /* \"#utility.yul\":1593:1874   */\n        tag_382:\n            /* \"#utility.yul\":1676:1703   */\n          tag_471\n            /* \"#utility.yul\":1698:1702   */\n          dup3\n            /* \"#utility.yul\":1676:1703   */\n          tag_380\n          jump\t// in\n        tag_471:\n            /* \"#utility.yul\":1668:1674   */\n          dup2\n            /* \"#utility.yul\":1664:1704   */\n          add\n            /* \"#utility.yul\":1806:1812   */\n          dup2\n            /* \"#utility.yul\":1794:1804   */\n          dup2\n            /* \"#utility.yul\":1791:1813   */\n          lt\n            /* \"#utility.yul\":1770:1788   */\n          0xffffffffffffffff\n            /* \"#utility.yul\":1758:1768   */\n          dup3\n            /* \"#utility.yul\":1755:1789   */\n          gt\n            /* \"#utility.yul\":1752:1814   */\n          or\n            /* \"#utility.yul\":1749:1837   */\n          iszero\n          tag_472\n          jumpi\n            /* \"#utility.yul\":1817:1835   */\n          tag_473\n          tag_381\n          jump\t// in\n        tag_473:\n            /* \"#utility.yul\":1749:1837   */\n        tag_472:\n            /* \"#utility.yul\":1857:1867   */\n          dup1\n            /* \"#utility.yul\":1853:1855   */\n          0x40\n            /* \"#utility.yul\":1846:1868   */\n          mstore\n            /* \"#utility.yul\":1636:1874   */\n          pop\n            /* \"#utility.yul\":1593:1874   */\n          pop\n          pop\n          jump\t// out\n            /* \"#utility.yul\":1880:2009   */\n        tag_383:\n            /* \"#utility.yul\":1914:1920   */\n          0x00\n            /* \"#utility.yul\":1941:1961   */\n          tag_475\n          tag_372\n          jump\t// in\n        tag_475:\n            /* \"#utility.yul\":1931:1961   */\n          swap1\n          pop\n            /* \"#utility.yul\":1970:2003   */\n          tag_476\n            /* \"#utility.yul\":1998:2002   */\n          dup3\n            /* \"#utility.yul\":1990:1996   */\n          dup3\n            /* \"#utility.yul\":1970:2003   */\n          tag_382\n          jump\t// in\n        tag_476:\n            /* \"#utility.yul\":1880:2009   */\n          swap2\n          swap1\n          pop\n          jump\t// out\n            /* \"#utility.yul\":2015:2132   */\n        tag_384:\n            /* \"#utility.yul\":2124:2125   */\n          0x00\n            /* \"#utility.yul\":2121:2122   */\n          dup1\n            /* \"#utility.yul\":2114:2126   */\n          revert\n            /* \"#utility.yul\":2138:2255   */\n        tag_385:\n            /* \"#utility.yul\":2247:2248   */\n          0x00\n            /* \"#utility.yul\":2244:2245   */\n          dup1\n            /* \"#utility.yul\":2237:2249   */\n          revert\n            /* \"#utility.yul\":2261:2378   */\n        tag_386:\n            /* \"#utility.yul\":2370:2371   */\n          0x00\n            /* \"#utility.yul\":2367:2368   */\n          dup1\n            /* \"#utility.yul\":2360:2372   */\n          revert\n            /* \"#utility.yul\":2384:2692   */\n        tag_387:\n            /* \"#utility.yul\":2446:2450   */\n          0x00\n            /* \"#utility.yul\":2536:2554   */\n          0xffffffffffffffff\n            /* \"#utility.yul\":2528:2534   */\n          dup3\n            /* \"#utility.yul\":2525:2555   */\n          gt\n            /* \"#utility.yul\":2522:2578   */\n          iszero\n          tag_481\n          jumpi\n            /* \"#utility.yul\":2558:2576   */\n          tag_482\n          tag_381\n          jump\t// in\n        tag_482:\n            /* \"#utility.yul\":2522:2578   */\n        tag_481:\n            /* \"#utility.yul\":2596:2625   */\n          tag_483\n            /* \"#utility.yul\":2618:2624   */\n          dup3\n            /* \"#utility.yul\":2596:2625   */\n          tag_380\n          jump\t// in\n        tag_483:\n            /* \"#utility.yul\":2588:2625   */\n          swap1\n          pop\n            /* \"#utility.yul\":2680:2684   */\n          0x20\n            /* \"#utility.yul\":2674:2678   */\n          dup2\n            /* \"#utility.yul\":2670:2685   */\n          add\n            /* \"#utility.yul\":2662:2685   */\n          swap1\n          pop\n            /* \"#utility.yul\":2384:2692   */\n          swap2\n          swap1\n          pop\n          jump\t// out\n            /* \"#utility.yul\":2698:2844   */\n        tag_388:\n            /* \"#utility.yul\":2795:2801   */\n          dup3\n            /* \"#utility.yul\":2790:2793   */\n          dup2\n            /* \"#utility.yul\":2785:2788   */\n          dup4\n            /* \"#utility.yul\":2772:2802   */\n          calldatacopy\n            /* \"#utility.yul\":2836:2837   */\n          0x00\n            /* \"#utility.yul\":2827:2833   */\n          dup4\n            /* \"#utility.yul\":2822:2825   */\n          dup4\n            /* \"#utility.yul\":2818:2834   */\n          add\n            /* \"#utility.yul\":2811:2838   */\n          mstore\n            /* \"#utility.yul\":2698:2844   */\n          pop\n          pop\n          pop\n          jump\t// out\n            /* \"#utility.yul\":2850:3275   */\n        tag_389:\n            /* \"#utility.yul\":2928:2933   */\n          0x00\n            /* \"#utility.yul\":2953:3019   */\n          tag_486\n            /* \"#utility.yul\":2969:3018   */\n          tag_487\n            /* \"#utility.yul\":3011:3017   */\n          dup5\n            /* \"#utility.yul\":2969:3018   */\n          tag_387\n          jump\t// in\n        tag_487:\n            /* \"#utility.yul\":2953:3019   */\n          tag_383\n          jump\t// in\n        tag_486:\n            /* \"#utility.yul\":2944:3019   */\n          swap1\n          pop\n            /* \"#utility.yul\":3042:3048   */\n          dup3\n            /* \"#utility.yul\":3035:3040   */\n          dup2\n            /* \"#utility.yul\":3028:3049   */\n          mstore\n            /* \"#utility.yul\":3080:3084   */\n          0x20\n            /* \"#utility.yul\":3073:3078   */\n          dup2\n            /* \"#utility.yul\":3069:3085   */\n          add\n            /* \"#utility.yul\":3118:3121   */\n          dup5\n            /* \"#utility.yul\":3109:3115   */\n          dup5\n            /* \"#utility.yul\":3104:3107   */\n          dup5\n            /* \"#utility.yul\":3100:3116   */\n          add\n            /* \"#utility.yul\":3097:3122   */\n          gt\n            /* \"#utility.yul\":3094:3206   */\n          iszero\n          tag_488\n          jumpi\n            /* \"#utility.yul\":3125:3204   */\n          tag_489\n          tag_386\n          jump\t// in\n        tag_489:\n            /* \"#utility.yul\":3094:3206   */\n        tag_488:\n            /* \"#utility.yul\":3215:3269   */\n          tag_490\n            /* \"#utility.yul\":3262:3268   */\n          dup5\n            /* \"#utility.yul\":3257:3260   */\n          dup3\n            /* \"#utility.yul\":3252:3255   */\n          dup6\n            /* \"#utility.yul\":3215:3269   */\n          tag_388\n          jump\t// in\n        tag_490:\n            /* \"#utility.yul\":2934:3275   */\n          pop\n            /* \"#utility.yul\":2850:3275   */\n          swap4\n          swap3\n          pop\n          pop\n          pop\n          jump\t// out\n            /* \"#utility.yul\":3295:3635   */\n        tag_390:\n            /* \"#utility.yul\":3351:3356   */\n          0x00\n            /* \"#utility.yul\":3400:3403   */\n          dup3\n            /* \"#utility.yul\":3393:3397   */\n          0x1f\n            /* \"#utility.yul\":3385:3391   */\n          dup4\n            /* \"#utility.yul\":3381:3398   */\n          add\n            /* \"#utility.yul\":3377:3404   */\n          slt\n            /* \"#utility.yul\":3367:3489   */\n          tag_492\n          jumpi\n            /* \"#utility.yul\":3408:3487   */\n          tag_493\n          tag_385\n          jump\t// in\n        tag_493:\n            /* \"#utility.yul\":3367:3489   */\n        tag_492:\n            /* \"#utility.yul\":3525:3531   */\n          dup2\n            /* \"#utility.yul\":3512:3532   */\n          calldataload\n            /* \"#utility.yul\":3550:3629   */\n          tag_494\n            /* \"#utility.yul\":3625:3628   */\n          dup5\n            /* \"#utility.yul\":3617:3623   */\n          dup3\n            /* \"#utility.yul\":3610:3614   */\n          0x20\n            /* \"#utility.yul\":3602:3608   */\n          dup7\n            /* \"#utility.yul\":3598:3615   */\n          add\n            /* \"#utility.yul\":3550:3629   */\n          tag_389\n          jump\t// in\n        tag_494:\n            /* \"#utility.yul\":3541:3629   */\n          swap2\n          pop\n            /* \"#utility.yul\":3357:3635   */\n          pop\n            /* \"#utility.yul\":3295:3635   */\n          swap3\n          swap2\n          pop\n          pop\n          jump\t// out\n            /* \"#utility.yul\":3641:3718   */\n        tag_391:\n            /* \"#utility.yul\":3678:3685   */\n          0x00\n            /* \"#utility.yul\":3707:3712   */\n          dup2\n            /* \"#utility.yul\":3696:3712   */\n          swap1\n          pop\n            /* \"#utility.yul\":3641:3718   */\n          swap2\n          swap1\n          pop\n          jump\t// out\n            /* \"#utility.yul\":3724:3846   */\n        tag_392:\n            /* \"#utility.yul\":3797:3821   */\n          tag_497\n            /* \"#utility.yul\":3815:3820   */\n          dup2\n            /* \"#utility.yul\":3797:3821   */\n          tag_391\n          jump\t// in\n        tag_497:\n            /* \"#utility.yul\":3790:3795   */\n          dup2\n            /* \"#utility.yul\":3787:3822   */\n          eq\n            /* \"#utility.yul\":3777:3840   */\n          tag_498\n          jumpi\n            /* \"#utility.yul\":3836:3837   */\n          0x00\n            /* \"#utility.yul\":3833:3834   */\n          dup1\n            /* \"#utility.yul\":3826:3838   */\n          revert\n            /* \"#utility.yul\":3777:3840   */\n        tag_498:\n            /* \"#utility.yul\":3724:3846   */\n          pop\n          jump\t// out\n            /* \"#utility.yul\":3852:3991   */\n        tag_393:\n            /* \"#utility.yul\":3898:3903   */\n          0x00\n            /* \"#utility.yul\":3936:3942   */\n          dup2\n            /* \"#utility.yul\":3923:3943   */\n          calldataload\n            /* \"#utility.yul\":3914:3943   */\n          swap1\n          pop\n            /* \"#utility.yul\":3952:3985   */\n          tag_500\n            /* \"#utility.yul\":3979:3984   */\n          dup2\n            /* \"#utility.yul\":3952:3985   */\n          tag_392\n          jump\t// in\n        tag_500:\n            /* \"#utility.yul\":3852:3991   */\n          swap3\n          swap2\n          pop\n          pop\n          jump\t// out\n            /* \"#utility.yul\":4042:5477   */\n        tag_394:\n            /* \"#utility.yul\":4123:4128   */\n          0x00\n            /* \"#utility.yul\":4167:4171   */\n          0x80\n            /* \"#utility.yul\":4155:4164   */\n          dup3\n            /* \"#utility.yul\":4150:4153   */\n          dup5\n            /* \"#utility.yul\":4146:4165   */\n          sub\n            /* \"#utility.yul\":4142:4172   */\n          slt\n            /* \"#utility.yul\":4139:4256   */\n          iszero\n          tag_502\n          jumpi\n            /* \"#utility.yul\":4175:4254   */\n          tag_503\n          tag_379\n          jump\t// in\n        tag_503:\n            /* \"#utility.yul\":4139:4256   */\n        tag_502:\n            /* \"#utility.yul\":4274:4295   */\n          tag_504\n            /* \"#utility.yul\":4290:4294   */\n          0x80\n            /* \"#utility.yul\":4274:4295   */\n          tag_383\n          jump\t// in\n        tag_504:\n            /* \"#utility.yul\":4265:4295   */\n          swap1\n          pop\n            /* \"#utility.yul\":4394:4395   */\n          0x00\n            /* \"#utility.yul\":4383:4392   */\n          dup3\n            /* \"#utility.yul\":4379:4396   */\n          add\n            /* \"#utility.yul\":4366:4397   */\n          calldataload\n            /* \"#utility.yul\":4424:4442   */\n          0xffffffffffffffff\n            /* \"#utility.yul\":4416:4422   */\n          dup2\n            /* \"#utility.yul\":4413:4443   */\n          gt\n            /* \"#utility.yul\":4410:4527   */\n          iszero\n          tag_505\n          jumpi\n            /* \"#utility.yul\":4446:4525   */\n          tag_506\n          tag_384\n          jump\t// in\n        tag_506:\n            /* \"#utility.yul\":4410:4527   */\n        tag_505:\n            /* \"#utility.yul\":4566:4625   */\n          tag_507\n            /* \"#utility.yul\":4621:4624   */\n          dup5\n            /* \"#utility.yul\":4612:4618   */\n          dup3\n            /* \"#utility.yul\":4601:4610   */\n          dup6\n            /* \"#utility.yul\":4597:4619   */\n          add\n            /* \"#utility.yul\":4566:4625   */\n          tag_390\n          jump\t// in\n        tag_507:\n            /* \"#utility.yul\":4559:4563   */\n          0x00\n            /* \"#utility.yul\":4552:4557   */\n          dup4\n            /* \"#utility.yul\":4548:4564   */\n          add\n            /* \"#utility.yul\":4541:4626   */\n          mstore\n            /* \"#utility.yul\":4305:4637   */\n          pop\n            /* \"#utility.yul\":4732:4734   */\n          0x20\n            /* \"#utility.yul\":4721:4730   */\n          dup3\n            /* \"#utility.yul\":4717:4735   */\n          add\n            /* \"#utility.yul\":4704:4736   */\n          calldataload\n            /* \"#utility.yul\":4763:4781   */\n          0xffffffffffffffff\n            /* \"#utility.yul\":4755:4761   */\n          dup2\n            /* \"#utility.yul\":4752:4782   */\n          gt\n            /* \"#utility.yul\":4749:4866   */\n          iszero\n          tag_508\n          jumpi\n            /* \"#utility.yul\":4785:4864   */\n          tag_509\n          tag_384\n          jump\t// in\n        tag_509:\n            /* \"#utility.yul\":4749:4866   */\n        tag_508:\n            /* \"#utility.yul\":4905:4964   */\n          tag_510\n            /* \"#utility.yul\":4960:4963   */\n          dup5\n            /* \"#utility.yul\":4951:4957   */\n          dup3\n            /* \"#utility.yul\":4940:4949   */\n          dup6\n            /* \"#utility.yul\":4936:4958   */\n          add\n            /* \"#utility.yul\":4905:4964   */\n          tag_390\n          jump\t// in\n        tag_510:\n            /* \"#utility.yul\":4898:4902   */\n          0x20\n            /* \"#utility.yul\":4891:4896   */\n          dup4\n            /* \"#utility.yul\":4887:4903   */\n          add\n            /* \"#utility.yul\":4880:4965   */\n          mstore\n            /* \"#utility.yul\":4647:4976   */\n          pop\n            /* \"#utility.yul\":5033:5035   */\n          0x40\n            /* \"#utility.yul\":5074:5123   */\n          tag_511\n            /* \"#utility.yul\":5119:5122   */\n          dup5\n            /* \"#utility.yul\":5110:5116   */\n          dup3\n            /* \"#utility.yul\":5099:5108   */\n          dup6\n            /* \"#utility.yul\":5095:5117   */\n          add\n            /* \"#utility.yul\":5074:5123   */\n          tag_393\n          jump\t// in\n        tag_511:\n            /* \"#utility.yul\":5067:5071   */\n          0x40\n            /* \"#utility.yul\":5060:5065   */\n          dup4\n            /* \"#utility.yul\":5056:5072   */\n          add\n            /* \"#utility.yul\":5049:5124   */\n          mstore\n            /* \"#utility.yul\":4986:5135   */\n          pop\n            /* \"#utility.yul\":5226:5228   */\n          0x60\n            /* \"#utility.yul\":5215:5224   */\n          dup3\n            /* \"#utility.yul\":5211:5229   */\n          add\n            /* \"#utility.yul\":5198:5230   */\n          calldataload\n            /* \"#utility.yul\":5257:5275   */\n          0xffffffffffffffff\n            /* \"#utility.yul\":5249:5255   */\n          dup2\n            /* \"#utility.yul\":5246:5276   */\n          gt\n            /* \"#utility.yul\":5243:5360   */\n          iszero\n          tag_512\n          jumpi\n            /* \"#utility.yul\":5279:5358   */\n          tag_513\n          tag_384\n          jump\t// in\n        tag_513:\n            /* \"#utility.yul\":5243:5360   */\n        tag_512:\n            /* \"#utility.yul\":5399:5458   */\n          tag_514\n            /* \"#utility.yul\":5454:5457   */\n          dup5\n            /* \"#utility.yul\":5445:5451   */\n          dup3\n            /* \"#utility.yul\":5434:5443   */\n          dup6\n            /* \"#utility.yul\":5430:5452   */\n          add\n            /* \"#utility.yul\":5399:5458   */\n          tag_390\n          jump\t// in\n        tag_514:\n            /* \"#utility.yul\":5392:5396   */\n          0x60\n            /* \"#utility.yul\":5385:5390   */\n          dup4\n            /* \"#utility.yul\":5381:5397   */\n          add\n            /* \"#utility.yul\":5374:5459   */\n          mstore\n            /* \"#utility.yul\":5145:5470   */\n          pop\n            /* \"#utility.yul\":4042:5477   */\n          swap3\n          swap2\n          pop\n          pop\n          jump\t// out\n            /* \"#utility.yul\":5525:9995   */\n        tag_395:\n            /* \"#utility.yul\":5603:5608   */\n          0x00\n            /* \"#utility.yul\":5647:5653   */\n          0x01a0\n            /* \"#utility.yul\":5635:5644   */\n          dup3\n            /* \"#utility.yul\":5630:5633   */\n          dup5\n            /* \"#utility.yul\":5626:5645   */\n          sub\n            /* \"#utility.yul\":5622:5654   */\n          slt\n            /* \"#utility.yul\":5619:5738   */\n          iszero\n          tag_516\n          jumpi\n            /* \"#utility.yul\":5657:5736   */\n          tag_517\n          tag_379\n          jump\t// in\n        tag_517:\n            /* \"#utility.yul\":5619:5738   */\n        tag_516:\n            /* \"#utility.yul\":5756:5779   */\n          tag_518\n            /* \"#utility.yul\":5772:5778   */\n          0x01a0\n            /* \"#utility.yul\":5756:5779   */\n          tag_383\n          jump\t// in\n        tag_518:\n            /* \"#utility.yul\":5747:5779   */\n          swap1\n          pop\n            /* \"#utility.yul\":5849:5850   */\n          0x00\n            /* \"#utility.yul\":5889:5938   */\n          tag_519\n            /* \"#utility.yul\":5934:5937   */\n          dup5\n            /* \"#utility.yul\":5925:5931   */\n          dup3\n            /* \"#utility.yul\":5914:5923   */\n          dup6\n            /* \"#utility.yul\":5910:5932   */\n          add\n            /* \"#utility.yul\":5889:5938   */\n          tag_378\n          jump\t// in\n        tag_519:\n            /* \"#utility.yul\":5882:5886   */\n          0x00\n            /* \"#utility.yul\":5875:5880   */\n          dup4\n            /* \"#utility.yul\":5871:5887   */\n          add\n            /* \"#utility.yul\":5864:5939   */\n          mstore\n            /* \"#utility.yul\":5789:5950   */\n          pop\n            /* \"#utility.yul\":6038:6040   */\n          0x20\n            /* \"#utility.yul\":6027:6036   */\n          dup3\n            /* \"#utility.yul\":6023:6041   */\n          add\n            /* \"#utility.yul\":6010:6042   */\n          calldataload\n            /* \"#utility.yul\":6069:6087   */\n          0xffffffffffffffff\n            /* \"#utility.yul\":6061:6067   */\n          dup2\n            /* \"#utility.yul\":6058:6088   */\n          gt\n            /* \"#utility.yul\":6055:6172   */\n          iszero\n          tag_520\n          jumpi\n            /* \"#utility.yul\":6091:6170   */\n          tag_521\n          tag_384\n          jump\t// in\n        tag_521:\n            /* \"#utility.yul\":6055:6172   */\n        tag_520:\n            /* \"#utility.yul\":6211:6270   */\n          tag_522\n            /* \"#utility.yul\":6266:6269   */\n          dup5\n            /* \"#utility.yul\":6257:6263   */\n          dup3\n            /* \"#utility.yul\":6246:6255   */\n          dup6\n            /* \"#utility.yul\":6242:6264   */\n          add\n            /* \"#utility.yul\":6211:6270   */\n          tag_390\n          jump\t// in\n        tag_522:\n            /* \"#utility.yul\":6204:6208   */\n          0x20\n            /* \"#utility.yul\":6197:6202   */\n          dup4\n            /* \"#utility.yul\":6193:6209   */\n          add\n            /* \"#utility.yul\":6186:6271   */\n          mstore\n            /* \"#utility.yul\":5960:6282   */\n          pop\n            /* \"#utility.yul\":6377:6379   */\n          0x40\n            /* \"#utility.yul\":6366:6375   */\n          dup3\n            /* \"#utility.yul\":6362:6380   */\n          add\n            /* \"#utility.yul\":6349:6381   */\n          calldataload\n            /* \"#utility.yul\":6408:6426   */\n          0xffffffffffffffff\n            /* \"#utility.yul\":6400:6406   */\n          dup2\n            /* \"#utility.yul\":6397:6427   */\n          gt\n            /* \"#utility.yul\":6394:6511   */\n          iszero\n          tag_523\n          jumpi\n            /* \"#utility.yul\":6430:6509   */\n          tag_524\n          tag_384\n          jump\t// in\n        tag_524:\n            /* \"#utility.yul\":6394:6511   */\n        tag_523:\n            /* \"#utility.yul\":6550:6609   */\n          tag_525\n            /* \"#utility.yul\":6605:6608   */\n          dup5\n            /* \"#utility.yul\":6596:6602   */\n          dup3\n            /* \"#utility.yul\":6585:6594   */\n          dup6\n            /* \"#utility.yul\":6581:6603   */\n          add\n            /* \"#utility.yul\":6550:6609   */\n          tag_390\n          jump\t// in\n        tag_525:\n            /* \"#utility.yul\":6543:6547   */\n          0x40\n            /* \"#utility.yul\":6536:6541   */\n          dup4\n            /* \"#utility.yul\":6532:6548   */\n          add\n            /* \"#utility.yul\":6525:6610   */\n          mstore\n            /* \"#utility.yul\":6292:6621   */\n          pop\n            /* \"#utility.yul\":6710:6712   */\n          0x60\n            /* \"#utility.yul\":6699:6708   */\n          dup3\n            /* \"#utility.yul\":6695:6713   */\n          add\n            /* \"#utility.yul\":6682:6714   */\n          calldataload\n            /* \"#utility.yul\":6741:6759   */\n          0xffffffffffffffff\n            /* \"#utility.yul\":6733:6739   */\n          dup2\n            /* \"#utility.yul\":6730:6760   */\n          gt\n            /* \"#utility.yul\":6727:6844   */\n          iszero\n          tag_526\n          jumpi\n            /* \"#utility.yul\":6763:6842   */\n          tag_527\n          tag_384\n          jump\t// in\n        tag_527:\n            /* \"#utility.yul\":6727:6844   */\n        tag_526:\n            /* \"#utility.yul\":6883:6942   */\n          tag_528\n            /* \"#utility.yul\":6938:6941   */\n          dup5\n            /* \"#utility.yul\":6929:6935   */\n          dup3\n            /* \"#utility.yul\":6918:6927   */\n          dup6\n            /* \"#utility.yul\":6914:6936   */\n          add\n            /* \"#utility.yul\":6883:6942   */\n          tag_390\n          jump\t// in\n        tag_528:\n            /* \"#utility.yul\":6876:6880   */\n          0x60\n            /* \"#utility.yul\":6869:6874   */\n          dup4\n            /* \"#utility.yul\":6865:6881   */\n          add\n            /* \"#utility.yul\":6858:6943   */\n          mstore\n            /* \"#utility.yul\":6631:6954   */\n          pop\n            /* \"#utility.yul\":7044:7047   */\n          0x80\n            /* \"#utility.yul\":7033:7042   */\n          dup3\n            /* \"#utility.yul\":7029:7048   */\n          add\n            /* \"#utility.yul\":7016:7049   */\n          calldataload\n            /* \"#utility.yul\":7076:7094   */\n          0xffffffffffffffff\n            /* \"#utility.yul\":7068:7074   */\n          dup2\n            /* \"#utility.yul\":7065:7095   */\n          gt\n            /* \"#utility.yul\":7062:7179   */\n          iszero\n          tag_529\n          jumpi\n            /* \"#utility.yul\":7098:7177   */\n          tag_530\n          tag_384\n          jump\t// in\n        tag_530:\n            /* \"#utility.yul\":7062:7179   */\n        tag_529:\n            /* \"#utility.yul\":7218:7277   */\n          tag_531\n            /* \"#utility.yul\":7273:7276   */\n          dup5\n            /* \"#utility.yul\":7264:7270   */\n          dup3\n            /* \"#utility.yul\":7253:7262   */\n          dup6\n            /* \"#utility.yul\":7249:7271   */\n          add\n            /* \"#utility.yul\":7218:7277   */\n          tag_390\n          jump\t// in\n        tag_531:\n            /* \"#utility.yul\":7211:7215   */\n          0x80\n            /* \"#utility.yul\":7204:7209   */\n          dup4\n            /* \"#utility.yul\":7200:7216   */\n          add\n            /* \"#utility.yul\":7193:7278   */\n          mstore\n            /* \"#utility.yul\":6964:7289   */\n          pop\n            /* \"#utility.yul\":7385:7388   */\n          0xa0\n            /* \"#utility.yul\":7374:7383   */\n          dup3\n            /* \"#utility.yul\":7370:7389   */\n          add\n            /* \"#utility.yul\":7357:7390   */\n          calldataload\n            /* \"#utility.yul\":7417:7435   */\n          0xffffffffffffffff\n            /* \"#utility.yul\":7409:7415   */\n          dup2\n            /* \"#utility.yul\":7406:7436   */\n          gt\n            /* \"#utility.yul\":7403:7520   */\n          iszero\n          tag_532\n          jumpi\n            /* \"#utility.yul\":7439:7518   */\n          tag_533\n          tag_384\n          jump\t// in\n        tag_533:\n            /* \"#utility.yul\":7403:7520   */\n        tag_532:\n            /* \"#utility.yul\":7559:7618   */\n          tag_534\n            /* \"#utility.yul\":7614:7617   */\n          dup5\n            /* \"#utility.yul\":7605:7611   */\n          dup3\n            /* \"#utility.yul\":7594:7603   */\n          dup6\n            /* \"#utility.yul\":7590:7612   */\n          add\n            /* \"#utility.yul\":7559:7618   */\n          tag_390\n          jump\t// in\n        tag_534:\n            /* \"#utility.yul\":7552:7556   */\n          0xa0\n            /* \"#utility.yul\":7545:7550   */\n          dup4\n            /* \"#utility.yul\":7541:7557   */\n          add\n            /* \"#utility.yul\":7534:7619   */\n          mstore\n            /* \"#utility.yul\":7299:7630   */\n          pop\n            /* \"#utility.yul\":7722:7725   */\n          0xc0\n            /* \"#utility.yul\":7711:7720   */\n          dup3\n            /* \"#utility.yul\":7707:7726   */\n          add\n            /* \"#utility.yul\":7694:7727   */\n          calldataload\n            /* \"#utility.yul\":7754:7772   */\n          0xffffffffffffffff\n            /* \"#utility.yul\":7746:7752   */\n          dup2\n            /* \"#utility.yul\":7743:7773   */\n          gt\n            /* \"#utility.yul\":7740:7857   */\n          iszero\n          tag_535\n          jumpi\n            /* \"#utility.yul\":7776:7855   */\n          tag_536\n          tag_384\n          jump\t// in\n        tag_536:\n            /* \"#utility.yul\":7740:7857   */\n        tag_535:\n            /* \"#utility.yul\":7896:7955   */\n          tag_537\n            /* \"#utility.yul\":7951:7954   */\n          dup5\n            /* \"#utility.yul\":7942:7948   */\n          dup3\n            /* \"#utility.yul\":7931:7940   */\n          dup6\n            /* \"#utility.yul\":7927:7949   */\n          add\n            /* \"#utility.yul\":7896:7955   */\n          tag_390\n          jump\t// in\n        tag_537:\n            /* \"#utility.yul\":7889:7893   */\n          0xc0\n            /* \"#utility.yul\":7882:7887   */\n          dup4\n            /* \"#utility.yul\":7878:7894   */\n          add\n            /* \"#utility.yul\":7871:7956   */\n          mstore\n            /* \"#utility.yul\":7640:7967   */\n          pop\n            /* \"#utility.yul\":8055:8058   */\n          0xe0\n            /* \"#utility.yul\":8044:8053   */\n          dup3\n            /* \"#utility.yul\":8040:8059   */\n          add\n            /* \"#utility.yul\":8027:8060   */\n          calldataload\n            /* \"#utility.yul\":8087:8105   */\n          0xffffffffffffffff\n            /* \"#utility.yul\":8079:8085   */\n          dup2\n            /* \"#utility.yul\":8076:8106   */\n          gt\n            /* \"#utility.yul\":8073:8190   */\n          iszero\n          tag_538\n          jumpi\n            /* \"#utility.yul\":8109:8188   */\n          tag_539\n          tag_384\n          jump\t// in\n        tag_539:\n            /* \"#utility.yul\":8073:8190   */\n        tag_538:\n            /* \"#utility.yul\":8229:8288   */\n          tag_540\n            /* \"#utility.yul\":8284:8287   */\n          dup5\n            /* \"#utility.yul\":8275:8281   */\n          dup3\n            /* \"#utility.yul\":8264:8273   */\n          dup6\n            /* \"#utility.yul\":8260:8282   */\n          add\n            /* \"#utility.yul\":8229:8288   */\n          tag_390\n          jump\t// in\n        tag_540:\n            /* \"#utility.yul\":8222:8226   */\n          0xe0\n            /* \"#utility.yul\":8215:8220   */\n          dup4\n            /* \"#utility.yul\":8211:8227   */\n          add\n            /* \"#utility.yul\":8204:8289   */\n          mstore\n            /* \"#utility.yul\":7977:8300   */\n          pop\n            /* \"#utility.yul\":8392:8395   */\n          0x0100\n            /* \"#utility.yul\":8381:8390   */\n          dup3\n            /* \"#utility.yul\":8377:8396   */\n          add\n            /* \"#utility.yul\":8364:8397   */\n          calldataload\n            /* \"#utility.yul\":8424:8442   */\n          0xffffffffffffffff\n            /* \"#utility.yul\":8416:8422   */\n          dup2\n            /* \"#utility.yul\":8413:8443   */\n          gt\n            /* \"#utility.yul\":8410:8527   */\n          iszero\n          tag_541\n          jumpi\n            /* \"#utility.yul\":8446:8525   */\n          tag_542\n          tag_384\n          jump\t// in\n        tag_542:\n            /* \"#utility.yul\":8410:8527   */\n        tag_541:\n            /* \"#utility.yul\":8568:8627   */\n          tag_543\n            /* \"#utility.yul\":8623:8626   */\n          dup5\n            /* \"#utility.yul\":8614:8620   */\n          dup3\n            /* \"#utility.yul\":8603:8612   */\n          dup6\n            /* \"#utility.yul\":8599:8621   */\n          add\n            /* \"#utility.yul\":8568:8627   */\n          tag_390\n          jump\t// in\n        tag_543:\n            /* \"#utility.yul\":8559:8565   */\n          0x0100\n            /* \"#utility.yul\":8552:8557   */\n          dup4\n            /* \"#utility.yul\":8548:8566   */\n          add\n            /* \"#utility.yul\":8541:8628   */\n          mstore\n            /* \"#utility.yul\":8310:8639   */\n          pop\n            /* \"#utility.yul\":8732:8735   */\n          0x0120\n            /* \"#utility.yul\":8721:8730   */\n          dup3\n            /* \"#utility.yul\":8717:8736   */\n          add\n            /* \"#utility.yul\":8704:8737   */\n          calldataload\n            /* \"#utility.yul\":8764:8782   */\n          0xffffffffffffffff\n            /* \"#utility.yul\":8756:8762   */\n          dup2\n            /* \"#utility.yul\":8753:8783   */\n          gt\n            /* \"#utility.yul\":8750:8867   */\n          iszero\n          tag_544\n          jumpi\n            /* \"#utility.yul\":8786:8865   */\n          tag_545\n          tag_384\n          jump\t// in\n        tag_545:\n            /* \"#utility.yul\":8750:8867   */\n        tag_544:\n            /* \"#utility.yul\":8908:8967   */\n          tag_546\n            /* \"#utility.yul\":8963:8966   */\n          dup5\n            /* \"#utility.yul\":8954:8960   */\n          dup3\n            /* \"#utility.yul\":8943:8952   */\n          dup6\n            /* \"#utility.yul\":8939:8961   */\n          add\n            /* \"#utility.yul\":8908:8967   */\n          tag_390\n          jump\t// in\n        tag_546:\n            /* \"#utility.yul\":8899:8905   */\n          0x0120\n            /* \"#utility.yul\":8892:8897   */\n          dup4\n            /* \"#utility.yul\":8888:8906   */\n          add\n            /* \"#utility.yul\":8881:8968   */\n          mstore\n            /* \"#utility.yul\":8649:8979   */\n          pop\n            /* \"#utility.yul\":9070:9073   */\n          0x0140\n            /* \"#utility.yul\":9059:9068   */\n          dup3\n            /* \"#utility.yul\":9055:9074   */\n          add\n            /* \"#utility.yul\":9042:9075   */\n          calldataload\n            /* \"#utility.yul\":9102:9120   */\n          0xffffffffffffffff\n            /* \"#utility.yul\":9094:9100   */\n          dup2\n            /* \"#utility.yul\":9091:9121   */\n          gt\n            /* \"#utility.yul\":9088:9205   */\n          iszero\n          tag_547\n          jumpi\n            /* \"#utility.yul\":9124:9203   */\n          tag_548\n          tag_384\n          jump\t// in\n        tag_548:\n            /* \"#utility.yul\":9088:9205   */\n        tag_547:\n            /* \"#utility.yul\":9246:9305   */\n          tag_549\n            /* \"#utility.yul\":9301:9304   */\n          dup5\n            /* \"#utility.yul\":9292:9298   */\n          dup3\n            /* \"#utility.yul\":9281:9290   */\n          dup6\n            /* \"#utility.yul\":9277:9299   */\n          add\n            /* \"#utility.yul\":9246:9305   */\n          tag_390\n          jump\t// in\n        tag_549:\n            /* \"#utility.yul\":9237:9243   */\n          0x0140\n            /* \"#utility.yul\":9230:9235   */\n          dup4\n            /* \"#utility.yul\":9226:9244   */\n          add\n            /* \"#utility.yul\":9219:9306   */\n          mstore\n            /* \"#utility.yul\":8989:9317   */\n          pop\n            /* \"#utility.yul\":9402:9405   */\n          0x0160\n            /* \"#utility.yul\":9391:9400   */\n          dup3\n            /* \"#utility.yul\":9387:9406   */\n          add\n            /* \"#utility.yul\":9374:9407   */\n          calldataload\n            /* \"#utility.yul\":9434:9452   */\n          0xffffffffffffffff\n            /* \"#utility.yul\":9426:9432   */\n          dup2\n            /* \"#utility.yul\":9423:9453   */\n          gt\n            /* \"#utility.yul\":9420:9537   */\n          iszero\n          tag_550\n          jumpi\n            /* \"#utility.yul\":9456:9535   */\n          tag_551\n          tag_384\n          jump\t// in\n        tag_551:\n            /* \"#utility.yul\":9420:9537   */\n        tag_550:\n            /* \"#utility.yul\":9578:9637   */\n          tag_552\n            /* \"#utility.yul\":9633:9636   */\n          dup5\n            /* \"#utility.yul\":9624:9630   */\n          dup3\n            /* \"#utility.yul\":9613:9622   */\n          dup6\n            /* \"#utility.yul\":9609:9631   */\n          add\n            /* \"#utility.yul\":9578:9637   */\n          tag_390\n          jump\t// in\n        tag_552:\n            /* \"#utility.yul\":9569:9575   */\n          0x0160\n            /* \"#utility.yul\":9562:9567   */\n          dup4\n            /* \"#utility.yul\":9558:9576   */\n          add\n            /* \"#utility.yul\":9551:9638   */\n          mstore\n            /* \"#utility.yul\":9327:9649   */\n          pop\n            /* \"#utility.yul\":9741:9744   */\n          0x0180\n            /* \"#utility.yul\":9730:9739   */\n          dup3\n            /* \"#utility.yul\":9726:9745   */\n          add\n            /* \"#utility.yul\":9713:9746   */\n          calldataload\n            /* \"#utility.yul\":9773:9791   */\n          0xffffffffffffffff\n            /* \"#utility.yul\":9765:9771   */\n          dup2\n            /* \"#utility.yul\":9762:9792   */\n          gt\n            /* \"#utility.yul\":9759:9876   */\n          iszero\n          tag_553\n          jumpi\n            /* \"#utility.yul\":9795:9874   */\n          tag_554\n          tag_384\n          jump\t// in\n        tag_554:\n            /* \"#utility.yul\":9759:9876   */\n        tag_553:\n            /* \"#utility.yul\":9917:9976   */\n          tag_555\n            /* \"#utility.yul\":9972:9975   */\n          dup5\n            /* \"#utility.yul\":9963:9969   */\n          dup3\n            /* \"#utility.yul\":9952:9961   */\n          dup6\n            /* \"#utility.yul\":9948:9970   */\n          add\n            /* \"#utility.yul\":9917:9976   */\n          tag_390\n          jump\t// in\n        tag_555:\n            /* \"#utility.yul\":9908:9914   */\n          0x0180\n            /* \"#utility.yul\":9901:9906   */\n          dup4\n            /* \"#utility.yul\":9897:9915   */\n          add\n            /* \"#utility.yul\":9890:9977   */\n          mstore\n            /* \"#utility.yul\":9659:9988   */\n          pop\n            /* \"#utility.yul\":5525:9995   */\n          swap3\n          swap2\n          pop\n          pop\n          jump\t// out\n            /* \"#utility.yul\":10001:10917   */\n        tag_19:\n            /* \"#utility.yul\":10130:10136   */\n          0x00\n            /* \"#utility.yul\":10138:10144   */\n          dup1\n            /* \"#utility.yul\":10187:10189   */\n          0x40\n            /* \"#utility.yul\":10175:10184   */\n          dup4\n            /* \"#utility.yul\":10166:10173   */\n          dup6\n            /* \"#utility.yul\":10162:10185   */\n          sub\n            /* \"#utility.yul\":10158:10190   */\n          slt\n            /* \"#utility.yul\":10155:10274   */\n          iszero\n          tag_557\n          jumpi\n            /* \"#utility.yul\":10193:10272   */\n          tag_558\n          tag_373\n          jump\t// in\n        tag_558:\n            /* \"#utility.yul\":10155:10274   */\n        tag_557:\n            /* \"#utility.yul\":10341:10342   */\n          0x00\n            /* \"#utility.yul\":10330:10339   */\n          dup4\n            /* \"#utility.yul\":10326:10343   */\n          add\n            /* \"#utility.yul\":10313:10344   */\n          calldataload\n            /* \"#utility.yul\":10371:10389   */\n          0xffffffffffffffff\n            /* \"#utility.yul\":10363:10369   */\n          dup2\n            /* \"#utility.yul\":10360:10390   */\n          gt\n            /* \"#utility.yul\":10357:10474   */\n          iszero\n          tag_559\n          jumpi\n            /* \"#utility.yul\":10393:10472   */\n          tag_560\n          tag_374\n          jump\t// in\n        tag_560:\n            /* \"#utility.yul\":10357:10474   */\n        tag_559:\n            /* \"#utility.yul\":10498:10583   */\n          tag_561\n            /* \"#utility.yul\":10575:10582   */\n          dup6\n            /* \"#utility.yul\":10566:10572   */\n          dup3\n            /* \"#utility.yul\":10555:10564   */\n          dup7\n            /* \"#utility.yul\":10551:10573   */\n          add\n            /* \"#utility.yul\":10498:10583   */\n          tag_394\n          jump\t// in\n        tag_561:\n            /* \"#utility.yul\":10488:10583   */\n          swap3\n          pop\n            /* \"#utility.yul\":10284:10593   */\n          pop\n            /* \"#utility.yul\":10660:10662   */\n          0x20\n            /* \"#utility.yul\":10649:10658   */\n          dup4\n            /* \"#utility.yul\":10645:10663   */\n          add\n            /* \"#utility.yul\":10632:10664   */\n          calldataload\n            /* \"#utility.yul\":10691:10709   */\n          0xffffffffffffffff\n            /* \"#utility.yul\":10683:10689   */\n          dup2\n            /* \"#utility.yul\":10680:10710   */\n          gt\n            /* \"#utility.yul\":10677:10794   */\n          iszero\n          tag_562\n          jumpi\n            /* \"#utility.yul\":10713:10792   */\n          tag_563\n          tag_374\n          jump\t// in\n        tag_563:\n            /* \"#utility.yul\":10677:10794   */\n        tag_562:\n            /* \"#utility.yul\":10818:10900   */\n          tag_564\n            /* \"#utility.yul\":10892:10899   */\n          dup6\n            /* \"#utility.yul\":10883:10889   */\n          dup3\n            /* \"#utility.yul\":10872:10881   */\n          dup7\n            /* \"#utility.yul\":10868:10890   */\n          add\n            /* \"#utility.yul\":10818:10900   */\n          tag_395\n          jump\t// in\n        tag_564:\n            /* \"#utility.yul\":10808:10900   */\n          swap2\n          pop\n            /* \"#utility.yul\":10603:10910   */\n          pop\n            /* \"#utility.yul\":10001:10917   */\n          swap3\n          pop\n          swap3\n          swap1\n          pop\n          jump\t// out\n            /* \"#utility.yul\":10968:12572   */\n        tag_396:\n            /* \"#utility.yul\":11049:11054   */\n          0x00\n            /* \"#utility.yul\":11093:11097   */\n          0xa0\n            /* \"#utility.yul\":11081:11090   */\n          dup3\n            /* \"#utility.yul\":11076:11079   */\n          dup5\n            /* \"#utility.yul\":11072:11091   */\n          sub\n            /* \"#utility.yul\":11068:11098   */\n          slt\n            /* \"#utility.yul\":11065:11182   */\n          iszero\n          tag_566\n          jumpi\n            /* \"#utility.yul\":11101:11180   */\n          tag_567\n          tag_379\n          jump\t// in\n        tag_567:\n            /* \"#utility.yul\":11065:11182   */\n        tag_566:\n            /* \"#utility.yul\":11200:11221   */\n          tag_568\n            /* \"#utility.yul\":11216:11220   */\n          0xa0\n            /* \"#utility.yul\":11200:11221   */\n          tag_383\n          jump\t// in\n        tag_568:\n            /* \"#utility.yul\":11191:11221   */\n          swap1\n          pop\n            /* \"#utility.yul\":11290:11291   */\n          0x00\n            /* \"#utility.yul\":11330:11379   */\n          tag_569\n            /* \"#utility.yul\":11375:11378   */\n          dup5\n            /* \"#utility.yul\":11366:11372   */\n          dup3\n            /* \"#utility.yul\":11355:11364   */\n          dup6\n            /* \"#utility.yul\":11351:11373   */\n          add\n            /* \"#utility.yul\":11330:11379   */\n          tag_378\n          jump\t// in\n        tag_569:\n            /* \"#utility.yul\":11323:11327   */\n          0x00\n            /* \"#utility.yul\":11316:11321   */\n          dup4\n            /* \"#utility.yul\":11312:11328   */\n          add\n            /* \"#utility.yul\":11305:11380   */\n          mstore\n            /* \"#utility.yul\":11231:11391   */\n          pop\n            /* \"#utility.yul\":11486:11488   */\n          0x20\n            /* \"#utility.yul\":11475:11484   */\n          dup3\n            /* \"#utility.yul\":11471:11489   */\n          add\n            /* \"#utility.yul\":11458:11490   */\n          calldataload\n            /* \"#utility.yul\":11517:11535   */\n          0xffffffffffffffff\n            /* \"#utility.yul\":11509:11515   */\n          dup2\n            /* \"#utility.yul\":11506:11536   */\n          gt\n            /* \"#utility.yul\":11503:11620   */\n          iszero\n          tag_570\n          jumpi\n            /* \"#utility.yul\":11539:11618   */\n          tag_571\n          tag_384\n          jump\t// in\n        tag_571:\n            /* \"#utility.yul\":11503:11620   */\n        tag_570:\n            /* \"#utility.yul\":11659:11718   */\n          tag_572\n            /* \"#utility.yul\":11714:11717   */\n          dup5\n            /* \"#utility.yul\":11705:11711   */\n          dup3\n            /* \"#utility.yul\":11694:11703   */\n          dup6\n            /* \"#utility.yul\":11690:11712   */\n          add\n            /* \"#utility.yul\":11659:11718   */\n          tag_390\n          jump\t// in\n        tag_572:\n            /* \"#utility.yul\":11652:11656   */\n          0x20\n            /* \"#utility.yul\":11645:11650   */\n          dup4\n            /* \"#utility.yul\":11641:11657   */\n          add\n            /* \"#utility.yul\":11634:11719   */\n          mstore\n            /* \"#utility.yul\":11401:11730   */\n          pop\n            /* \"#utility.yul\":11789:11791   */\n          0x40\n            /* \"#utility.yul\":11830:11879   */\n          tag_573\n            /* \"#utility.yul\":11875:11878   */\n          dup5\n            /* \"#utility.yul\":11866:11872   */\n          dup3\n            /* \"#utility.yul\":11855:11864   */\n          dup6\n            /* \"#utility.yul\":11851:11873   */\n          add\n            /* \"#utility.yul\":11830:11879   */\n          tag_393\n          jump\t// in\n        tag_573:\n            /* \"#utility.yul\":11823:11827   */\n          0x40\n            /* \"#utility.yul\":11816:11821   */\n          dup4\n            /* \"#utility.yul\":11812:11828   */\n          add\n            /* \"#utility.yul\":11805:11880   */\n          mstore\n            /* \"#utility.yul\":11740:11891   */\n          pop\n            /* \"#utility.yul\":11987:11989   */\n          0x60\n            /* \"#utility.yul\":11976:11985   */\n          dup3\n            /* \"#utility.yul\":11972:11990   */\n          add\n            /* \"#utility.yul\":11959:11991   */\n          calldataload\n            /* \"#utility.yul\":12018:12036   */\n          0xffffffffffffffff\n            /* \"#utility.yul\":12010:12016   */\n          dup2\n            /* \"#utility.yul\":12007:12037   */\n          gt\n            /* \"#utility.yul\":12004:12121   */\n          iszero\n          tag_574\n          jumpi\n            /* \"#utility.yul\":12040:12119   */\n          tag_575\n          tag_384\n          jump\t// in\n        tag_575:\n            /* \"#utility.yul\":12004:12121   */\n        tag_574:\n            /* \"#utility.yul\":12160:12219   */\n          tag_576\n            /* \"#utility.yul\":12215:12218   */\n          dup5\n            /* \"#utility.yul\":12206:12212   */\n          dup3\n            /* \"#utility.yul\":12195:12204   */\n          dup6\n            /* \"#utility.yul\":12191:12213   */\n          add\n            /* \"#utility.yul\":12160:12219   */\n          tag_390\n          jump\t// in\n        tag_576:\n            /* \"#utility.yul\":12153:12157   */\n          0x60\n            /* \"#utility.yul\":12146:12151   */\n          dup4\n            /* \"#utility.yul\":12142:12158   */\n          add\n            /* \"#utility.yul\":12135:12220   */\n          mstore\n            /* \"#utility.yul\":11901:12231   */\n          pop\n            /* \"#utility.yul\":12320:12323   */\n          0x80\n            /* \"#utility.yul\":12309:12318   */\n          dup3\n            /* \"#utility.yul\":12305:12324   */\n          add\n            /* \"#utility.yul\":12292:12325   */\n          calldataload\n            /* \"#utility.yul\":12352:12370   */\n          0xffffffffffffffff\n            /* \"#utility.yul\":12344:12350   */\n          dup2\n            /* \"#utility.yul\":12341:12371   */\n          gt\n            /* \"#utility.yul\":12338:12455   */\n          iszero\n          tag_577\n          jumpi\n            /* \"#utility.yul\":12374:12453   */\n          tag_578\n          tag_384\n          jump\t// in\n        tag_578:\n            /* \"#utility.yul\":12338:12455   */\n        tag_577:\n            /* \"#utility.yul\":12494:12553   */\n          tag_579\n            /* \"#utility.yul\":12549:12552   */\n          dup5\n            /* \"#utility.yul\":12540:12546   */\n          dup3\n            /* \"#utility.yul\":12529:12538   */\n          dup6\n            /* \"#utility.yul\":12525:12547   */\n          add\n            /* \"#utility.yul\":12494:12553   */\n          tag_390\n          jump\t// in\n        tag_579:\n            /* \"#utility.yul\":12487:12491   */\n          0x80\n            /* \"#utility.yul\":12480:12485   */\n          dup4\n            /* \"#utility.yul\":12476:12492   */\n          add\n            /* \"#utility.yul\":12469:12554   */\n          mstore\n            /* \"#utility.yul\":12241:12565   */\n          pop\n            /* \"#utility.yul\":10968:12572   */\n          swap3\n          swap2\n          pop\n          pop\n          jump\t// out\n            /* \"#utility.yul\":12578:12668   */\n        tag_397:\n            /* \"#utility.yul\":12612:12619   */\n          0x00\n            /* \"#utility.yul\":12655:12660   */\n          dup2\n            /* \"#utility.yul\":12648:12661   */\n          iszero\n            /* \"#utility.yul\":12641:12662   */\n          iszero\n            /* \"#utility.yul\":12630:12662   */\n          swap1\n          pop\n            /* \"#utility.yul\":12578:12668   */\n          swap2\n          swap1\n          pop\n          jump\t// out\n            /* \"#utility.yul\":12674:12790   */\n        tag_398:\n            /* \"#utility.yul\":12744:12765   */\n          tag_582\n            /* \"#utility.yul\":12759:12764   */\n          dup2\n            /* \"#utility.yul\":12744:12765   */\n          tag_397\n          jump\t// in\n        tag_582:\n            /* \"#utility.yul\":12737:12742   */\n          dup2\n            /* \"#utility.yul\":12734:12766   */\n          eq\n            /* \"#utility.yul\":12724:12784   */\n          tag_583\n          jumpi\n            /* \"#utility.yul\":12780:12781   */\n          0x00\n            /* \"#utility.yul\":12777:12778   */\n          dup1\n            /* \"#utility.yul\":12770:12782   */\n          revert\n            /* \"#utility.yul\":12724:12784   */\n        tag_583:\n            /* \"#utility.yul\":12674:12790   */\n          pop\n          jump\t// out\n            /* \"#utility.yul\":12796:12929   */\n        tag_399:\n            /* \"#utility.yul\":12839:12844   */\n          0x00\n            /* \"#utility.yul\":12877:12883   */\n          dup2\n            /* \"#utility.yul\":12864:12884   */\n          calldataload\n            /* \"#utility.yul\":12855:12884   */\n          swap1\n          pop\n            /* \"#utility.yul\":12893:12923   */\n          tag_585\n            /* \"#utility.yul\":12917:12922   */\n          dup2\n            /* \"#utility.yul\":12893:12923   */\n          tag_398\n          jump\t// in\n        tag_585:\n            /* \"#utility.yul\":12796:12929   */\n          swap3\n          swap2\n          pop\n          pop\n          jump\t// out\n            /* \"#utility.yul\":12975:16259   */\n        tag_400:\n            /* \"#utility.yul\":13051:13056   */\n          0x00\n            /* \"#utility.yul\":13095:13101   */\n          0x0140\n            /* \"#utility.yul\":13083:13092   */\n          dup3\n            /* \"#utility.yul\":13078:13081   */\n          dup5\n            /* \"#utility.yul\":13074:13093   */\n          sub\n            /* \"#utility.yul\":13070:13102   */\n          slt\n            /* \"#utility.yul\":13067:13186   */\n          iszero\n          tag_587\n          jumpi\n            /* \"#utility.yul\":13105:13184   */\n          tag_588\n          tag_379\n          jump\t// in\n        tag_588:\n            /* \"#utility.yul\":13067:13186   */\n        tag_587:\n            /* \"#utility.yul\":13204:13227   */\n          tag_589\n            /* \"#utility.yul\":13220:13226   */\n          0x0140\n            /* \"#utility.yul\":13204:13227   */\n          tag_383\n          jump\t// in\n        tag_589:\n            /* \"#utility.yul\":13195:13227   */\n          swap1\n          pop\n            /* \"#utility.yul\":13297:13298   */\n          0x00\n            /* \"#utility.yul\":13337:13386   */\n          tag_590\n            /* \"#utility.yul\":13382:13385   */\n          dup5\n            /* \"#utility.yul\":13373:13379   */\n          dup3\n            /* \"#utility.yul\":13362:13371   */\n          dup6\n            /* \"#utility.yul\":13358:13380   */\n          add\n            /* \"#utility.yul\":13337:13386   */\n          tag_378\n          jump\t// in\n        tag_590:\n            /* \"#utility.yul\":13330:13334   */\n          0x00\n            /* \"#utility.yul\":13323:13328   */\n          dup4\n            /* \"#utility.yul\":13319:13335   */\n          add\n            /* \"#utility.yul\":13312:13387   */\n          mstore\n            /* \"#utility.yul\":13237:13398   */\n          pop\n            /* \"#utility.yul\":13486:13488   */\n          0x20\n            /* \"#utility.yul\":13475:13484   */\n          dup3\n            /* \"#utility.yul\":13471:13489   */\n          add\n            /* \"#utility.yul\":13458:13490   */\n          calldataload\n            /* \"#utility.yul\":13517:13535   */\n          0xffffffffffffffff\n            /* \"#utility.yul\":13509:13515   */\n          dup2\n            /* \"#utility.yul\":13506:13536   */\n          gt\n            /* \"#utility.yul\":13503:13620   */\n          iszero\n          tag_591\n          jumpi\n            /* \"#utility.yul\":13539:13618   */\n          tag_592\n          tag_384\n          jump\t// in\n        tag_592:\n            /* \"#utility.yul\":13503:13620   */\n        tag_591:\n            /* \"#utility.yul\":13659:13718   */\n          tag_593\n            /* \"#utility.yul\":13714:13717   */\n          dup5\n            /* \"#utility.yul\":13705:13711   */\n          dup3\n            /* \"#utility.yul\":13694:13703   */\n          dup6\n            /* \"#utility.yul\":13690:13712   */\n          add\n            /* \"#utility.yul\":13659:13718   */\n          tag_390\n          jump\t// in\n        tag_593:\n            /* \"#utility.yul\":13652:13656   */\n          0x20\n            /* \"#utility.yul\":13645:13650   */\n          dup4\n            /* \"#utility.yul\":13641:13657   */\n          add\n            /* \"#utility.yul\":13634:13719   */\n          mstore\n            /* \"#utility.yul\":13408:13730   */\n          pop\n            /* \"#utility.yul\":13826:13828   */\n          0x40\n            /* \"#utility.yul\":13815:13824   */\n          dup3\n            /* \"#utility.yul\":13811:13829   */\n          add\n            /* \"#utility.yul\":13798:13830   */\n          calldataload\n            /* \"#utility.yul\":13857:13875   */\n          0xffffffffffffffff\n            /* \"#utility.yul\":13849:13855   */\n          dup2\n            /* \"#utility.yul\":13846:13876   */\n          gt\n            /* \"#utility.yul\":13843:13960   */\n          iszero\n          tag_594\n          jumpi\n            /* \"#utility.yul\":13879:13958   */\n          tag_595\n          tag_384\n          jump\t// in\n        tag_595:\n            /* \"#utility.yul\":13843:13960   */\n        tag_594:\n            /* \"#utility.yul\":13999:14058   */\n          tag_596\n            /* \"#utility.yul\":14054:14057   */\n          dup5\n            /* \"#utility.yul\":14045:14051   */\n          dup3\n            /* \"#utility.yul\":14034:14043   */\n          dup6\n            /* \"#utility.yul\":14030:14052   */\n          add\n            /* \"#utility.yul\":13999:14058   */\n          tag_390\n          jump\t// in\n        tag_596:\n            /* \"#utility.yul\":13992:13996   */\n          0x40\n            /* \"#utility.yul\":13985:13990   */\n          dup4\n            /* \"#utility.yul\":13981:13997   */\n          add\n            /* \"#utility.yul\":13974:14059   */\n          mstore\n            /* \"#utility.yul\":13740:14070   */\n          pop\n            /* \"#utility.yul\":14162:14164   */\n          0x60\n            /* \"#utility.yul\":14151:14160   */\n          dup3\n            /* \"#utility.yul\":14147:14165   */\n          add\n            /* \"#utility.yul\":14134:14166   */\n          calldataload\n            /* \"#utility.yul\":14193:14211   */\n          0xffffffffffffffff\n            /* \"#utility.yul\":14185:14191   */\n          dup2\n            /* \"#utility.yul\":14182:14212   */\n          gt\n            /* \"#utility.yul\":14179:14296   */\n          iszero\n          tag_597\n          jumpi\n            /* \"#utility.yul\":14215:14294   */\n          tag_598\n          tag_384\n          jump\t// in\n        tag_598:\n            /* \"#utility.yul\":14179:14296   */\n        tag_597:\n            /* \"#utility.yul\":14335:14394   */\n          tag_599\n            /* \"#utility.yul\":14390:14393   */\n          dup5\n            /* \"#utility.yul\":14381:14387   */\n          dup3\n            /* \"#utility.yul\":14370:14379   */\n          dup6\n            /* \"#utility.yul\":14366:14388   */\n          add\n            /* \"#utility.yul\":14335:14394   */\n          tag_390\n          jump\t// in\n        tag_599:\n            /* \"#utility.yul\":14328:14332   */\n          0x60\n            /* \"#utility.yul\":14321:14326   */\n          dup4\n            /* \"#utility.yul\":14317:14333   */\n          add\n            /* \"#utility.yul\":14310:14395   */\n          mstore\n            /* \"#utility.yul\":14080:14406   */\n          pop\n            /* \"#utility.yul\":14498:14501   */\n          0x80\n            /* \"#utility.yul\":14487:14496   */\n          dup3\n            /* \"#utility.yul\":14483:14502   */\n          add\n            /* \"#utility.yul\":14470:14503   */\n          calldataload\n            /* \"#utility.yul\":14530:14548   */\n          0xffffffffffffffff\n            /* \"#utility.yul\":14522:14528   */\n          dup2\n            /* \"#utility.yul\":14519:14549   */\n          gt\n            /* \"#utility.yul\":14516:14633   */\n          iszero\n          tag_600\n          jumpi\n            /* \"#utility.yul\":14552:14631   */\n          tag_601\n          tag_384\n          jump\t// in\n        tag_601:\n            /* \"#utility.yul\":14516:14633   */\n        tag_600:\n            /* \"#utility.yul\":14672:14731   */\n          tag_602\n            /* \"#utility.yul\":14727:14730   */\n          dup5\n            /* \"#utility.yul\":14718:14724   */\n          dup3\n            /* \"#utility.yul\":14707:14716   */\n          dup6\n            /* \"#utility.yul\":14703:14725   */\n          add\n            /* \"#utility.yul\":14672:14731   */\n          tag_390\n          jump\t// in\n        tag_602:\n            /* \"#utility.yul\":14665:14669   */\n          0x80\n            /* \"#utility.yul\":14658:14663   */\n          dup4\n            /* \"#utility.yul\":14654:14670   */\n          add\n            /* \"#utility.yul\":14647:14732   */\n          mstore\n            /* \"#utility.yul\":14416:14743   */\n          pop\n            /* \"#utility.yul\":14828:14831   */\n          0xa0\n            /* \"#utility.yul\":14817:14826   */\n          dup3\n            /* \"#utility.yul\":14813:14832   */\n          add\n            /* \"#utility.yul\":14800:14833   */\n          calldataload\n            /* \"#utility.yul\":14860:14878   */\n          0xffffffffffffffff\n            /* \"#utility.yul\":14852:14858   */\n          dup2\n            /* \"#utility.yul\":14849:14879   */\n          gt\n            /* \"#utility.yul\":14846:14963   */\n          iszero\n          tag_603\n          jumpi\n            /* \"#utility.yul\":14882:14961   */\n          tag_604\n          tag_384\n          jump\t// in\n        tag_604:\n            /* \"#utility.yul\":14846:14963   */\n        tag_603:\n            /* \"#utility.yul\":15002:15061   */\n          tag_605\n            /* \"#utility.yul\":15057:15060   */\n          dup5\n            /* \"#utility.yul\":15048:15054   */\n          dup3\n            /* \"#utility.yul\":15037:15046   */\n          dup6\n            /* \"#utility.yul\":15033:15055   */\n          add\n            /* \"#utility.yul\":15002:15061   */\n          tag_390\n          jump\t// in\n        tag_605:\n            /* \"#utility.yul\":14995:14999   */\n          0xa0\n            /* \"#utility.yul\":14988:14993   */\n          dup4\n            /* \"#utility.yul\":14984:15000   */\n          add\n            /* \"#utility.yul\":14977:15062   */\n          mstore\n            /* \"#utility.yul\":14753:15073   */\n          pop\n            /* \"#utility.yul\":15166:15169   */\n          0xc0\n            /* \"#utility.yul\":15155:15164   */\n          dup3\n            /* \"#utility.yul\":15151:15170   */\n          add\n            /* \"#utility.yul\":15138:15171   */\n          calldataload\n            /* \"#utility.yul\":15198:15216   */\n          0xffffffffffffffff\n            /* \"#utility.yul\":15190:15196   */\n          dup2\n            /* \"#utility.yul\":15187:15217   */\n          gt\n            /* \"#utility.yul\":15184:15301   */\n          iszero\n          tag_606\n          jumpi\n            /* \"#utility.yul\":15220:15299   */\n          tag_607\n          tag_384\n          jump\t// in\n        tag_607:\n            /* \"#utility.yul\":15184:15301   */\n        tag_606:\n            /* \"#utility.yul\":15340:15399   */\n          tag_608\n            /* \"#utility.yul\":15395:15398   */\n          dup5\n            /* \"#utility.yul\":15386:15392   */\n          dup3\n            /* \"#utility.yul\":15375:15384   */\n          dup6\n            /* \"#utility.yul\":15371:15393   */\n          add\n            /* \"#utility.yul\":15340:15399   */\n          tag_390\n          jump\t// in\n        tag_608:\n            /* \"#utility.yul\":15333:15337   */\n          0xc0\n            /* \"#utility.yul\":15326:15331   */\n          dup4\n            /* \"#utility.yul\":15322:15338   */\n          add\n            /* \"#utility.yul\":15315:15400   */\n          mstore\n            /* \"#utility.yul\":15083:15411   */\n          pop\n            /* \"#utility.yul\":15502:15505   */\n          0xe0\n            /* \"#utility.yul\":15491:15500   */\n          dup3\n            /* \"#utility.yul\":15487:15506   */\n          add\n            /* \"#utility.yul\":15474:15507   */\n          calldataload\n            /* \"#utility.yul\":15534:15552   */\n          0xffffffffffffffff\n            /* \"#utility.yul\":15526:15532   */\n          dup2\n            /* \"#utility.yul\":15523:15553   */\n          gt\n            /* \"#utility.yul\":15520:15637   */\n          iszero\n          tag_609\n          jumpi\n            /* \"#utility.yul\":15556:15635   */\n          tag_610\n          tag_384\n          jump\t// in\n        tag_610:\n            /* \"#utility.yul\":15520:15637   */\n        tag_609:\n            /* \"#utility.yul\":15676:15735   */\n          tag_611\n            /* \"#utility.yul\":15731:15734   */\n          dup5\n            /* \"#utility.yul\":15722:15728   */\n          dup3\n            /* \"#utility.yul\":15711:15720   */\n          dup6\n            /* \"#utility.yul\":15707:15729   */\n          add\n            /* \"#utility.yul\":15676:15735   */\n          tag_390\n          jump\t// in\n        tag_611:\n            /* \"#utility.yul\":15669:15673   */\n          0xe0\n            /* \"#utility.yul\":15662:15667   */\n          dup4\n            /* \"#utility.yul\":15658:15674   */\n          add\n            /* \"#utility.yul\":15651:15736   */\n          mstore\n            /* \"#utility.yul\":15421:15747   */\n          pop\n            /* \"#utility.yul\":15839:15842   */\n          0x0100\n            /* \"#utility.yul\":15828:15837   */\n          dup3\n            /* \"#utility.yul\":15824:15843   */\n          add\n            /* \"#utility.yul\":15811:15844   */\n          calldataload\n            /* \"#utility.yul\":15871:15889   */\n          0xffffffffffffffff\n            /* \"#utility.yul\":15863:15869   */\n          dup2\n            /* \"#utility.yul\":15860:15890   */\n          gt\n            /* \"#utility.yul\":15857:15974   */\n          iszero\n          tag_612\n          jumpi\n            /* \"#utility.yul\":15893:15972   */\n          tag_613\n          tag_384\n          jump\t// in\n        tag_613:\n            /* \"#utility.yul\":15857:15974   */\n        tag_612:\n            /* \"#utility.yul\":16015:16074   */\n          tag_614\n            /* \"#utility.yul\":16070:16073   */\n          dup5\n            /* \"#utility.yul\":16061:16067   */\n          dup3\n            /* \"#utility.yul\":16050:16059   */\n          dup6\n            /* \"#utility.yul\":16046:16068   */\n          add\n            /* \"#utility.yul\":16015:16074   */\n          tag_390\n          jump\t// in\n        tag_614:\n            /* \"#utility.yul\":16006:16012   */\n          0x0100\n            /* \"#utility.yul\":15999:16004   */\n          dup4\n            /* \"#utility.yul\":15995:16013   */\n          add\n            /* \"#utility.yul\":15988:16075   */\n          mstore\n            /* \"#utility.yul\":15757:16086   */\n          pop\n            /* \"#utility.yul\":16150:16153   */\n          0x0120\n            /* \"#utility.yul\":16194:16240   */\n          tag_615\n            /* \"#utility.yul\":16236:16239   */\n          dup5\n            /* \"#utility.yul\":16227:16233   */\n          dup3\n            /* \"#utility.yul\":16216:16225   */\n          dup6\n            /* \"#utility.yul\":16212:16234   */\n          add\n            /* \"#utility.yul\":16194:16240   */\n          tag_399\n          jump\t// in\n        tag_615:\n            /* \"#utility.yul\":16185:16191   */\n          0x0120\n            /* \"#utility.yul\":16178:16183   */\n          dup4\n            /* \"#utility.yul\":16174:16192   */\n          add\n            /* \"#utility.yul\":16167:16241   */\n          mstore\n            /* \"#utility.yul\":16096:16252   */\n          pop\n            /* \"#utility.yul\":12975:16259   */\n          swap3\n          swap2\n          pop\n          pop\n          jump\t// out\n            /* \"#utility.yul\":16265:17177   */\n        tag_23:\n            /* \"#utility.yul\":16392:16398   */\n          0x00\n            /* \"#utility.yul\":16400:16406   */\n          dup1\n            /* \"#utility.yul\":16449:16451   */\n          0x40\n            /* \"#utility.yul\":16437:16446   */\n          dup4\n            /* \"#utility.yul\":16428:16435   */\n          dup6\n            /* \"#utility.yul\":16424:16447   */\n          sub\n            /* \"#utility.yul\":16420:16452   */\n          slt\n            /* \"#utility.yul\":16417:16536   */\n          iszero\n          tag_617\n          jumpi\n            /* \"#utility.yul\":16455:16534   */\n          tag_618\n          tag_373\n          jump\t// in\n        tag_618:\n            /* \"#utility.yul\":16417:16536   */\n        tag_617:\n            /* \"#utility.yul\":16603:16604   */\n          0x00\n            /* \"#utility.yul\":16592:16601   */\n          dup4\n            /* \"#utility.yul\":16588:16605   */\n          add\n            /* \"#utility.yul\":16575:16606   */\n          calldataload\n            /* \"#utility.yul\":16633:16651   */\n          0xffffffffffffffff\n            /* \"#utility.yul\":16625:16631   */\n          dup2\n            /* \"#utility.yul\":16622:16652   */\n          gt\n            /* \"#utility.yul\":16619:16736   */\n          iszero\n          tag_619\n          jumpi\n            /* \"#utility.yul\":16655:16734   */\n          tag_620\n          tag_374\n          jump\t// in\n        tag_620:\n            /* \"#utility.yul\":16619:16736   */\n        tag_619:\n            /* \"#utility.yul\":16760:16845   */\n          tag_621\n            /* \"#utility.yul\":16837:16844   */\n          dup6\n            /* \"#utility.yul\":16828:16834   */\n          dup3\n            /* \"#utility.yul\":16817:16826   */\n          dup7\n            /* \"#utility.yul\":16813:16835   */\n          add\n            /* \"#utility.yul\":16760:16845   */\n          tag_396\n          jump\t// in\n        tag_621:\n            /* \"#utility.yul\":16750:16845   */\n          swap3\n          pop\n            /* \"#utility.yul\":16546:16855   */\n          pop\n            /* \"#utility.yul\":16922:16924   */\n          0x20\n            /* \"#utility.yul\":16911:16920   */\n          dup4\n            /* \"#utility.yul\":16907:16925   */\n          add\n            /* \"#utility.yul\":16894:16926   */\n          calldataload\n            /* \"#utility.yul\":16953:16971   */\n          0xffffffffffffffff\n            /* \"#utility.yul\":16945:16951   */\n          dup2\n            /* \"#utility.yul\":16942:16972   */\n          gt\n            /* \"#utility.yul\":16939:17056   */\n          iszero\n          tag_622\n          jumpi\n            /* \"#utility.yul\":16975:17054   */\n          tag_623\n          tag_374\n          jump\t// in\n        tag_623:\n            /* \"#utility.yul\":16939:17056   */\n        tag_622:\n            /* \"#utility.yul\":17080:17160   */\n          tag_624\n            /* \"#utility.yul\":17152:17159   */\n          dup6\n            /* \"#utility.yul\":17143:17149   */\n          dup3\n            /* \"#utility.yul\":17132:17141   */\n          dup7\n            /* \"#utility.yul\":17128:17150   */\n          add\n            /* \"#utility.yul\":17080:17160   */\n          tag_400\n          jump\t// in\n        tag_624:\n            /* \"#utility.yul\":17070:17160   */\n          swap2\n          pop\n            /* \"#utility.yul\":16865:17170   */\n          pop\n            /* \"#utility.yul\":16265:17177   */\n          swap3\n          pop\n          swap3\n          swap1\n          pop\n          jump\t// out\n            /* \"#utility.yul\":17222:21671   */\n        tag_401:\n            /* \"#utility.yul\":17297:17302   */\n          0x00\n            /* \"#utility.yul\":17341:17347   */\n          0x01c0\n            /* \"#utility.yul\":17329:17338   */\n          dup3\n            /* \"#utility.yul\":17324:17327   */\n          dup5\n            /* \"#utility.yul\":17320:17339   */\n          sub\n            /* \"#utility.yul\":17316:17348   */\n          slt\n            /* \"#utility.yul\":17313:17432   */\n          iszero\n          tag_626\n          jumpi\n            /* \"#utility.yul\":17351:17430   */\n          tag_627\n          tag_379\n          jump\t// in\n        tag_627:\n            /* \"#utility.yul\":17313:17432   */\n        tag_626:\n            /* \"#utility.yul\":17450:17473   */\n          tag_628\n            /* \"#utility.yul\":17466:17472   */\n          0x01c0\n            /* \"#utility.yul\":17450:17473   */\n          tag_383\n          jump\t// in\n        tag_628:\n            /* \"#utility.yul\":17441:17473   */\n          swap1\n          pop\n            /* \"#utility.yul\":17543:17544   */\n          0x00\n            /* \"#utility.yul\":17583:17632   */\n          tag_629\n            /* \"#utility.yul\":17628:17631   */\n          dup5\n            /* \"#utility.yul\":17619:17625   */\n          dup3\n            /* \"#utility.yul\":17608:17617   */\n          dup6\n            /* \"#utility.yul\":17604:17626   */\n          add\n            /* \"#utility.yul\":17583:17632   */\n          tag_378\n          jump\t// in\n        tag_629:\n            /* \"#utility.yul\":17576:17580   */\n          0x00\n            /* \"#utility.yul\":17569:17574   */\n          dup4\n            /* \"#utility.yul\":17565:17581   */\n          add\n            /* \"#utility.yul\":17558:17633   */\n          mstore\n            /* \"#utility.yul\":17483:17644   */\n          pop\n            /* \"#utility.yul\":17732:17734   */\n          0x20\n            /* \"#utility.yul\":17721:17730   */\n          dup3\n            /* \"#utility.yul\":17717:17735   */\n          add\n            /* \"#utility.yul\":17704:17736   */\n          calldataload\n            /* \"#utility.yul\":17763:17781   */\n          0xffffffffffffffff\n            /* \"#utility.yul\":17755:17761   */\n          dup2\n            /* \"#utility.yul\":17752:17782   */\n          gt\n            /* \"#utility.yul\":17749:17866   */\n          iszero\n          tag_630\n          jumpi\n            /* \"#utility.yul\":17785:17864   */\n          tag_631\n          tag_384\n          jump\t// in\n        tag_631:\n            /* \"#utility.yul\":17749:17866   */\n        tag_630:\n            /* \"#utility.yul\":17905:17964   */\n          tag_632\n            /* \"#utility.yul\":17960:17963   */\n          dup5\n            /* \"#utility.yul\":17951:17957   */\n          dup3\n            /* \"#utility.yul\":17940:17949   */\n          dup6\n            /* \"#utility.yul\":17936:17958   */\n          add\n            /* \"#utility.yul\":17905:17964   */\n          tag_390\n          jump\t// in\n        tag_632:\n            /* \"#utility.yul\":17898:17902   */\n          0x20\n            /* \"#utility.yul\":17891:17896   */\n          dup4\n            /* \"#utility.yul\":17887:17903   */\n          add\n            /* \"#utility.yul\":17880:17965   */\n          mstore\n            /* \"#utility.yul\":17654:17976   */\n          pop\n            /* \"#utility.yul\":18072:18074   */\n          0x40\n            /* \"#utility.yul\":18061:18070   */\n          dup3\n            /* \"#utility.yul\":18057:18075   */\n          add\n            /* \"#utility.yul\":18044:18076   */\n          calldataload\n            /* \"#utility.yul\":18103:18121   */\n          0xffffffffffffffff\n            /* \"#utility.yul\":18095:18101   */\n          dup2\n            /* \"#utility.yul\":18092:18122   */\n          gt\n            /* \"#utility.yul\":18089:18206   */\n          iszero\n          tag_633\n          jumpi\n            /* \"#utility.yul\":18125:18204   */\n          tag_634\n          tag_384\n          jump\t// in\n        tag_634:\n            /* \"#utility.yul\":18089:18206   */\n        tag_633:\n            /* \"#utility.yul\":18245:18304   */\n          tag_635\n            /* \"#utility.yul\":18300:18303   */\n          dup5\n            /* \"#utility.yul\":18291:18297   */\n          dup3\n            /* \"#utility.yul\":18280:18289   */\n          dup6\n            /* \"#utility.yul\":18276:18298   */\n          add\n            /* \"#utility.yul\":18245:18304   */\n          tag_390\n          jump\t// in\n        tag_635:\n            /* \"#utility.yul\":18238:18242   */\n          0x40\n            /* \"#utility.yul\":18231:18236   */\n          dup4\n            /* \"#utility.yul\":18227:18243   */\n          add\n            /* \"#utility.yul\":18220:18305   */\n          mstore\n            /* \"#utility.yul\":17986:18316   */\n          pop\n            /* \"#utility.yul\":18408:18410   */\n          0x60\n            /* \"#utility.yul\":18397:18406   */\n          dup3\n            /* \"#utility.yul\":18393:18411   */\n          add\n            /* \"#utility.yul\":18380:18412   */\n          calldataload\n            /* \"#utility.yul\":18439:18457   */\n          0xffffffffffffffff\n            /* \"#utility.yul\":18431:18437   */\n          dup2\n            /* \"#utility.yul\":18428:18458   */\n          gt\n            /* \"#utility.yul\":18425:18542   */\n          iszero\n          tag_636\n          jumpi\n            /* \"#utility.yul\":18461:18540   */\n          tag_637\n          tag_384\n          jump\t// in\n        tag_637:\n            /* \"#utility.yul\":18425:18542   */\n        tag_636:\n            /* \"#utility.yul\":18581:18640   */\n          tag_638\n            /* \"#utility.yul\":18636:18639   */\n          dup5\n            /* \"#utility.yul\":18627:18633   */\n          dup3\n            /* \"#utility.yul\":18616:18625   */\n          dup6\n            /* \"#utility.yul\":18612:18634   */\n          add\n            /* \"#utility.yul\":18581:18640   */\n          tag_390\n          jump\t// in\n        tag_638:\n            /* \"#utility.yul\":18574:18578   */\n          0x60\n            /* \"#utility.yul\":18567:18572   */\n          dup4\n            /* \"#utility.yul\":18563:18579   */\n          add\n            /* \"#utility.yul\":18556:18641   */\n          mstore\n            /* \"#utility.yul\":18326:18652   */\n          pop\n            /* \"#utility.yul\":18740:18743   */\n          0x80\n            /* \"#utility.yul\":18729:18738   */\n          dup3\n            /* \"#utility.yul\":18725:18744   */\n          add\n            /* \"#utility.yul\":18712:18745   */\n          calldataload\n            /* \"#utility.yul\":18772:18790   */\n          0xffffffffffffffff\n            /* \"#utility.yul\":18764:18770   */\n          dup2\n            /* \"#utility.yul\":18761:18791   */\n          gt\n            /* \"#utility.yul\":18758:18875   */\n          iszero\n          tag_639\n          jumpi\n            /* \"#utility.yul\":18794:18873   */\n          tag_640\n          tag_384\n          jump\t// in\n        tag_640:\n            /* \"#utility.yul\":18758:18875   */\n        tag_639:\n            /* \"#utility.yul\":18914:18973   */\n          tag_641\n            /* \"#utility.yul\":18969:18972   */\n          dup5\n            /* \"#utility.yul\":18960:18966   */\n          dup3\n            /* \"#utility.yul\":18949:18958   */\n          dup6\n            /* \"#utility.yul\":18945:18967   */\n          add\n            /* \"#utility.yul\":18914:18973   */\n          tag_390\n          jump\t// in\n        tag_641:\n            /* \"#utility.yul\":18907:18911   */\n          0x80\n            /* \"#utility.yul\":18900:18905   */\n          dup4\n            /* \"#utility.yul\":18896:18912   */\n          add\n            /* \"#utility.yul\":18889:18974   */\n          mstore\n            /* \"#utility.yul\":18662:18985   */\n          pop\n            /* \"#utility.yul\":19077:19080   */\n          0xa0\n            /* \"#utility.yul\":19066:19075   */\n          dup3\n            /* \"#utility.yul\":19062:19081   */\n          add\n            /* \"#utility.yul\":19049:19082   */\n          calldataload\n            /* \"#utility.yul\":19109:19127   */\n          0xffffffffffffffff\n            /* \"#utility.yul\":19101:19107   */\n          dup2\n            /* \"#utility.yul\":19098:19128   */\n          gt\n            /* \"#utility.yul\":19095:19212   */\n          iszero\n          tag_642\n          jumpi\n            /* \"#utility.yul\":19131:19210   */\n          tag_643\n          tag_384\n          jump\t// in\n        tag_643:\n            /* \"#utility.yul\":19095:19212   */\n        tag_642:\n            /* \"#utility.yul\":19251:19310   */\n          tag_644\n            /* \"#utility.yul\":19306:19309   */\n          dup5\n            /* \"#utility.yul\":19297:19303   */\n          dup3\n            /* \"#utility.yul\":19286:19295   */\n          dup6\n            /* \"#utility.yul\":19282:19304   */\n          add\n            /* \"#utility.yul\":19251:19310   */\n          tag_390\n          jump\t// in\n        tag_644:\n            /* \"#utility.yul\":19244:19248   */\n          0xa0\n            /* \"#utility.yul\":19237:19242   */\n          dup4\n            /* \"#utility.yul\":19233:19249   */\n          add\n            /* \"#utility.yul\":19226:19311   */\n          mstore\n            /* \"#utility.yul\":18995:19322   */\n          pop\n            /* \"#utility.yul\":19407:19410   */\n          0xc0\n            /* \"#utility.yul\":19396:19405   */\n          dup3\n            /* \"#utility.yul\":19392:19411   */\n          add\n            /* \"#utility.yul\":19379:19412   */\n          calldataload\n            /* \"#utility.yul\":19439:19457   */\n          0xffffffffffffffff\n            /* \"#utility.yul\":19431:19437   */\n          dup2\n            /* \"#utility.yul\":19428:19458   */\n          gt\n            /* \"#utility.yul\":19425:19542   */\n          iszero\n          tag_645\n          jumpi\n            /* \"#utility.yul\":19461:19540   */\n          tag_646\n          tag_384\n          jump\t// in\n        tag_646:\n            /* \"#utility.yul\":19425:19542   */\n        tag_645:\n            /* \"#utility.yul\":19581:19640   */\n          tag_647\n            /* \"#utility.yul\":19636:19639   */\n          dup5\n            /* \"#utility.yul\":19627:19633   */\n          dup3\n            /* \"#utility.yul\":19616:19625   */\n          dup6\n            /* \"#utility.yul\":19612:19634   */\n          add\n            /* \"#utility.yul\":19581:19640   */\n          tag_390\n          jump\t// in\n        tag_647:\n            /* \"#utility.yul\":19574:19578   */\n          0xc0\n            /* \"#utility.yul\":19567:19572   */\n          dup4\n            /* \"#utility.yul\":19563:19579   */\n          add\n            /* \"#utility.yul\":19556:19641   */\n          mstore\n            /* \"#utility.yul\":19332:19652   */\n          pop\n            /* \"#utility.yul\":19745:19748   */\n          0xe0\n            /* \"#utility.yul\":19734:19743   */\n          dup3\n            /* \"#utility.yul\":19730:19749   */\n          add\n            /* \"#utility.yul\":19717:19750   */\n          calldataload\n            /* \"#utility.yul\":19777:19795   */\n          0xffffffffffffffff\n            /* \"#utility.yul\":19769:19775   */\n          dup2\n            /* \"#utility.yul\":19766:19796   */\n          gt\n            /* \"#utility.yul\":19763:19880   */\n          iszero\n          tag_648\n          jumpi\n            /* \"#utility.yul\":19799:19878   */\n          tag_649\n          tag_384\n          jump\t// in\n        tag_649:\n            /* \"#utility.yul\":19763:19880   */\n        tag_648:\n            /* \"#utility.yul\":19919:19978   */\n          tag_650\n            /* \"#utility.yul\":19974:19977   */\n          dup5\n            /* \"#utility.yul\":19965:19971   */\n          dup3\n            /* \"#utility.yul\":19954:19963   */\n          dup6\n            /* \"#utility.yul\":19950:19972   */\n          add\n            /* \"#utility.yul\":19919:19978   */\n          tag_390\n          jump\t// in\n        tag_650:\n            /* \"#utility.yul\":19912:19916   */\n          0xe0\n            /* \"#utility.yul\":19905:19910   */\n          dup4\n            /* \"#utility.yul\":19901:19917   */\n          add\n            /* \"#utility.yul\":19894:19979   */\n          mstore\n            /* \"#utility.yul\":19662:19990   */\n          pop\n            /* \"#utility.yul\":20081:20084   */\n          0x0100\n            /* \"#utility.yul\":20070:20079   */\n          dup3\n            /* \"#utility.yul\":20066:20085   */\n          add\n            /* \"#utility.yul\":20053:20086   */\n          calldataload\n            /* \"#utility.yul\":20113:20131   */\n          0xffffffffffffffff\n            /* \"#utility.yul\":20105:20111   */\n          dup2\n            /* \"#utility.yul\":20102:20132   */\n          gt\n            /* \"#utility.yul\":20099:20216   */\n          iszero\n          tag_651\n          jumpi\n            /* \"#utility.yul\":20135:20214   */\n          tag_652\n          tag_384\n          jump\t// in\n        tag_652:\n            /* \"#utility.yul\":20099:20216   */\n        tag_651:\n            /* \"#utility.yul\":20257:20316   */\n          tag_653\n            /* \"#utility.yul\":20312:20315   */\n          dup5\n            /* \"#utility.yul\":20303:20309   */\n          dup3\n            /* \"#utility.yul\":20292:20301   */\n          dup6\n            /* \"#utility.yul\":20288:20310   */\n          add\n            /* \"#utility.yul\":20257:20316   */\n          tag_390\n          jump\t// in\n        tag_653:\n            /* \"#utility.yul\":20248:20254   */\n          0x0100\n            /* \"#utility.yul\":20241:20246   */\n          dup4\n            /* \"#utility.yul\":20237:20255   */\n          add\n            /* \"#utility.yul\":20230:20317   */\n          mstore\n            /* \"#utility.yul\":20000:20328   */\n          pop\n            /* \"#utility.yul\":20392:20395   */\n          0x0120\n            /* \"#utility.yul\":20436:20482   */\n          tag_654\n            /* \"#utility.yul\":20478:20481   */\n          dup5\n            /* \"#utility.yul\":20469:20475   */\n          dup3\n            /* \"#utility.yul\":20458:20467   */\n          dup6\n            /* \"#utility.yul\":20454:20476   */\n          add\n            /* \"#utility.yul\":20436:20482   */\n          tag_399\n          jump\t// in\n        tag_654:\n            /* \"#utility.yul\":20427:20433   */\n          0x0120\n            /* \"#utility.yul\":20420:20425   */\n          dup4\n            /* \"#utility.yul\":20416:20434   */\n          add\n            /* \"#utility.yul\":20409:20483   */\n          mstore\n            /* \"#utility.yul\":20338:20494   */\n          pop\n            /* \"#utility.yul\":20580:20583   */\n          0x0140\n            /* \"#utility.yul\":20569:20578   */\n          dup3\n            /* \"#utility.yul\":20565:20584   */\n          add\n            /* \"#utility.yul\":20552:20585   */\n          calldataload\n            /* \"#utility.yul\":20612:20630   */\n          0xffffffffffffffff\n            /* \"#utility.yul\":20604:20610   */\n          dup2\n            /* \"#utility.yul\":20601:20631   */\n          gt\n            /* \"#utility.yul\":20598:20715   */\n          iszero\n          tag_655\n          jumpi\n            /* \"#utility.yul\":20634:20713   */\n          tag_656\n          tag_384\n          jump\t// in\n        tag_656:\n            /* \"#utility.yul\":20598:20715   */\n        tag_655:\n            /* \"#utility.yul\":20756:20815   */\n          tag_657\n            /* \"#utility.yul\":20811:20814   */\n          dup5\n            /* \"#utility.yul\":20802:20808   */\n          dup3\n            /* \"#utility.yul\":20791:20800   */\n          dup6\n            /* \"#utility.yul\":20787:20809   */\n          add\n            /* \"#utility.yul\":20756:20815   */\n          tag_390\n          jump\t// in\n        tag_657:\n            /* \"#utility.yul\":20747:20753   */\n          0x0140\n            /* \"#utility.yul\":20740:20745   */\n          dup4\n            /* \"#utility.yul\":20736:20754   */\n          add\n            /* \"#utility.yul\":20729:20816   */\n          mstore\n            /* \"#utility.yul\":20504:20827   */\n          pop\n            /* \"#utility.yul\":20912:20915   */\n          0x0160\n            /* \"#utility.yul\":20901:20910   */\n          dup3\n            /* \"#utility.yul\":20897:20916   */\n          add\n            /* \"#utility.yul\":20884:20917   */\n          calldataload\n            /* \"#utility.yul\":20944:20962   */\n          0xffffffffffffffff\n            /* \"#utility.yul\":20936:20942   */\n          dup2\n            /* \"#utility.yul\":20933:20963   */\n          gt\n            /* \"#utility.yul\":20930:21047   */\n          iszero\n          tag_658\n          jumpi\n            /* \"#utility.yul\":20966:21045   */\n          tag_659\n          tag_384\n          jump\t// in\n        tag_659:\n            /* \"#utility.yul\":20930:21047   */\n        tag_658:\n            /* \"#utility.yul\":21088:21147   */\n          tag_660\n            /* \"#utility.yul\":21143:21146   */\n          dup5\n            /* \"#utility.yul\":21134:21140   */\n          dup3\n            /* \"#utility.yul\":21123:21132   */\n          dup6\n            /* \"#utility.yul\":21119:21141   */\n          add\n            /* \"#utility.yul\":21088:21147   */\n          tag_390\n          jump\t// in\n        tag_660:\n            /* \"#utility.yul\":21079:21085   */\n          0x0160\n            /* \"#utility.yul\":21072:21077   */\n          dup4\n            /* \"#utility.yul\":21068:21086   */\n          add\n            /* \"#utility.yul\":21061:21148   */\n          mstore\n            /* \"#utility.yul\":20837:21159   */\n          pop\n            /* \"#utility.yul\":21220:21223   */\n          0x0180\n            /* \"#utility.yul\":21264:21313   */\n          tag_661\n            /* \"#utility.yul\":21309:21312   */\n          dup5\n            /* \"#utility.yul\":21300:21306   */\n          dup3\n            /* \"#utility.yul\":21289:21298   */\n          dup6\n            /* \"#utility.yul\":21285:21307   */\n          add\n            /* \"#utility.yul\":21264:21313   */\n          tag_378\n          jump\t// in\n        tag_661:\n            /* \"#utility.yul\":21255:21261   */\n          0x0180\n            /* \"#utility.yul\":21248:21253   */\n          dup4\n            /* \"#utility.yul\":21244:21262   */\n          add\n            /* \"#utility.yul\":21237:21314   */\n          mstore\n            /* \"#utility.yul\":21169:21325   */\n          pop\n            /* \"#utility.yul\":21417:21420   */\n          0x01a0\n            /* \"#utility.yul\":21406:21415   */\n          dup3\n            /* \"#utility.yul\":21402:21421   */\n          add\n            /* \"#utility.yul\":21389:21422   */\n          calldataload\n            /* \"#utility.yul\":21449:21467   */\n          0xffffffffffffffff\n            /* \"#utility.yul\":21441:21447   */\n          dup2\n            /* \"#utility.yul\":21438:21468   */\n          gt\n            /* \"#utility.yul\":21435:21552   */\n          iszero\n          tag_662\n          jumpi\n            /* \"#utility.yul\":21471:21550   */\n          tag_663\n          tag_384\n          jump\t// in\n        tag_663:\n            /* \"#utility.yul\":21435:21552   */\n        tag_662:\n            /* \"#utility.yul\":21593:21652   */\n          tag_664\n            /* \"#utility.yul\":21648:21651   */\n          dup5\n            /* \"#utility.yul\":21639:21645   */\n          dup3\n            /* \"#utility.yul\":21628:21637   */\n          dup6\n            /* \"#utility.yul\":21624:21646   */\n          add\n            /* \"#utility.yul\":21593:21652   */\n          tag_390\n          jump\t// in\n        tag_664:\n            /* \"#utility.yul\":21584:21590   */\n          0x01a0\n            /* \"#utility.yul\":21577:21582   */\n          dup4\n            /* \"#utility.yul\":21573:21591   */\n          add\n            /* \"#utility.yul\":21566:21653   */\n          mstore\n            /* \"#utility.yul\":21335:21664   */\n          pop\n            /* \"#utility.yul\":17222:21671   */\n          swap3\n          swap2\n          pop\n          pop\n          jump\t// out\n            /* \"#utility.yul\":21677:22587   */\n        tag_33:\n            /* \"#utility.yul\":21803:21809   */\n          0x00\n            /* \"#utility.yul\":21811:21817   */\n          dup1\n            /* \"#utility.yul\":21860:21862   */\n          0x40\n            /* \"#utility.yul\":21848:21857   */\n          dup4\n            /* \"#utility.yul\":21839:21846   */\n          dup6\n            /* \"#utility.yul\":21835:21858   */\n          sub\n            /* \"#utility.yul\":21831:21863   */\n          slt\n            /* \"#utility.yul\":21828:21947   */\n          iszero\n          tag_666\n          jumpi\n            /* \"#utility.yul\":21866:21945   */\n          tag_667\n          tag_373\n          jump\t// in\n        tag_667:\n            /* \"#utility.yul\":21828:21947   */\n        tag_666:\n            /* \"#utility.yul\":22014:22015   */\n          0x00\n            /* \"#utility.yul\":22003:22012   */\n          dup4\n            /* \"#utility.yul\":21999:22016   */\n          add\n            /* \"#utility.yul\":21986:22017   */\n          calldataload\n            /* \"#utility.yul\":22044:22062   */\n          0xffffffffffffffff\n            /* \"#utility.yul\":22036:22042   */\n          dup2\n            /* \"#utility.yul\":22033:22063   */\n          gt\n            /* \"#utility.yul\":22030:22147   */\n          iszero\n          tag_668\n          jumpi\n            /* \"#utility.yul\":22066:22145   */\n          tag_669\n          tag_374\n          jump\t// in\n        tag_669:\n            /* \"#utility.yul\":22030:22147   */\n        tag_668:\n            /* \"#utility.yul\":22171:22256   */\n          tag_670\n            /* \"#utility.yul\":22248:22255   */\n          dup6\n            /* \"#utility.yul\":22239:22245   */\n          dup3\n            /* \"#utility.yul\":22228:22237   */\n          dup7\n            /* \"#utility.yul\":22224:22246   */\n          add\n            /* \"#utility.yul\":22171:22256   */\n          tag_396\n          jump\t// in\n        tag_670:\n            /* \"#utility.yul\":22161:22256   */\n          swap3\n          pop\n            /* \"#utility.yul\":21957:22266   */\n          pop\n            /* \"#utility.yul\":22333:22335   */\n          0x20\n            /* \"#utility.yul\":22322:22331   */\n          dup4\n            /* \"#utility.yul\":22318:22336   */\n          add\n            /* \"#utility.yul\":22305:22337   */\n          calldataload\n            /* \"#utility.yul\":22364:22382   */\n          0xffffffffffffffff\n            /* \"#utility.yul\":22356:22362   */\n          dup2\n            /* \"#utility.yul\":22353:22383   */\n          gt\n            /* \"#utility.yul\":22350:22467   */\n          iszero\n          tag_671\n          jumpi\n            /* \"#utility.yul\":22386:22465   */\n          tag_672\n          tag_374\n          jump\t// in\n        tag_672:\n            /* \"#utility.yul\":22350:22467   */\n        tag_671:\n            /* \"#utility.yul\":22491:22570   */\n          tag_673\n            /* \"#utility.yul\":22562:22569   */\n          dup6\n            /* \"#utility.yul\":22553:22559   */\n          dup3\n            /* \"#utility.yul\":22542:22551   */\n          dup7\n            /* \"#utility.yul\":22538:22560   */\n          add\n            /* \"#utility.yul\":22491:22570   */\n          tag_401\n          jump\t// in\n        tag_673:\n            /* \"#utility.yul\":22481:22570   */\n          swap2\n          pop\n            /* \"#utility.yul\":22276:22580   */\n          pop\n            /* \"#utility.yul\":21677:22587   */\n          swap3\n          pop\n          swap3\n          swap1\n          pop\n          jump\t// out\n            /* \"#utility.yul\":22593:22701   */\n        tag_402:\n            /* \"#utility.yul\":22670:22694   */\n          tag_675\n            /* \"#utility.yul\":22688:22693   */\n          dup2\n            /* \"#utility.yul\":22670:22694   */\n          tag_376\n          jump\t// in\n        tag_675:\n            /* \"#utility.yul\":22665:22668   */\n          dup3\n            /* \"#utility.yul\":22658:22695   */\n          mstore\n            /* \"#utility.yul\":22593:22701   */\n          pop\n          pop\n          jump\t// out\n            /* \"#utility.yul\":22707:22806   */\n        tag_403:\n            /* \"#utility.yul\":22759:22765   */\n          0x00\n            /* \"#utility.yul\":22793:22798   */\n          dup2\n            /* \"#utility.yul\":22787:22799   */\n          mload\n            /* \"#utility.yul\":22777:22799   */\n          swap1\n          pop\n            /* \"#utility.yul\":22707:22806   */\n          swap2\n          swap1\n          pop\n          jump\t// out\n            /* \"#utility.yul\":22812:22971   */\n        tag_404:\n            /* \"#utility.yul\":22886:22897   */\n          0x00\n            /* \"#utility.yul\":22920:22926   */\n          dup3\n            /* \"#utility.yul\":22915:22918   */\n          dup3\n            /* \"#utility.yul\":22908:22927   */\n          mstore\n            /* \"#utility.yul\":22960:22964   */\n          0x20\n            /* \"#utility.yul\":22955:22958   */\n          dup3\n            /* \"#utility.yul\":22951:22965   */\n          add\n            /* \"#utility.yul\":22936:22965   */\n          swap1\n          pop\n            /* \"#utility.yul\":22812:22971   */\n          swap3\n          swap2\n          pop\n          pop\n          jump\t// out\n            /* \"#utility.yul\":22977:23223   */\n        tag_405:\n            /* \"#utility.yul\":23058:23059   */\n          0x00\n            /* \"#utility.yul\":23068:23181   */\n        tag_679:\n            /* \"#utility.yul\":23082:23088   */\n          dup4\n            /* \"#utility.yul\":23079:23080   */\n          dup2\n            /* \"#utility.yul\":23076:23089   */\n          lt\n            /* \"#utility.yul\":23068:23181   */\n          iszero\n          tag_681\n          jumpi\n            /* \"#utility.yul\":23167:23168   */\n          dup1\n            /* \"#utility.yul\":23162:23165   */\n          dup3\n            /* \"#utility.yul\":23158:23169   */\n          add\n            /* \"#utility.yul\":23152:23170   */\n          mload\n            /* \"#utility.yul\":23148:23149   */\n          dup2\n            /* \"#utility.yul\":23143:23146   */\n          dup5\n            /* \"#utility.yul\":23139:23150   */\n          add\n            /* \"#utility.yul\":23132:23171   */\n          mstore\n            /* \"#utility.yul\":23104:23106   */\n          0x20\n            /* \"#utility.yul\":23101:23102   */\n          dup2\n            /* \"#utility.yul\":23097:23107   */\n          add\n            /* \"#utility.yul\":23092:23107   */\n          swap1\n          pop\n            /* \"#utility.yul\":23068:23181   */\n          jump(tag_679)\n        tag_681:\n            /* \"#utility.yul\":23215:23216   */\n          0x00\n            /* \"#utility.yul\":23206:23212   */\n          dup5\n            /* \"#utility.yul\":23201:23204   */\n          dup5\n            /* \"#utility.yul\":23197:23213   */\n          add\n            /* \"#utility.yul\":23190:23217   */\n          mstore\n            /* \"#utility.yul\":23039:23223   */\n          pop\n            /* \"#utility.yul\":22977:23223   */\n          pop\n          pop\n          pop\n          jump\t// out\n            /* \"#utility.yul\":23229:23586   */\n        tag_406:\n            /* \"#utility.yul\":23307:23310   */\n          0x00\n            /* \"#utility.yul\":23335:23374   */\n          tag_683\n            /* \"#utility.yul\":23368:23373   */\n          dup3\n            /* \"#utility.yul\":23335:23374   */\n          tag_403\n          jump\t// in\n        tag_683:\n            /* \"#utility.yul\":23390:23451   */\n          tag_684\n            /* \"#utility.yul\":23444:23450   */\n          dup2\n            /* \"#utility.yul\":23439:23442   */\n          dup6\n            /* \"#utility.yul\":23390:23451   */\n          tag_404\n          jump\t// in\n        tag_684:\n            /* \"#utility.yul\":23383:23451   */\n          swap4\n          pop\n            /* \"#utility.yul\":23460:23525   */\n          tag_685\n            /* \"#utility.yul\":23518:23524   */\n          dup2\n            /* \"#utility.yul\":23513:23516   */\n          dup6\n            /* \"#utility.yul\":23506:23510   */\n          0x20\n            /* \"#utility.yul\":23499:23504   */\n          dup7\n            /* \"#utility.yul\":23495:23511   */\n          add\n            /* \"#utility.yul\":23460:23525   */\n          tag_405\n          jump\t// in\n        tag_685:\n            /* \"#utility.yul\":23550:23579   */\n          tag_686\n            /* \"#utility.yul\":23572:23578   */\n          dup2\n            /* \"#utility.yul\":23550:23579   */\n          tag_380\n          jump\t// in\n        tag_686:\n            /* \"#utility.yul\":23545:23548   */\n          dup5\n            /* \"#utility.yul\":23541:23580   */\n          add\n            /* \"#utility.yul\":23534:23580   */\n          swap2\n          pop\n            /* \"#utility.yul\":23311:23586   */\n          pop\n            /* \"#utility.yul\":23229:23586   */\n          swap3\n          swap2\n          pop\n          pop\n          jump\t// out\n            /* \"#utility.yul\":23592:23700   */\n        tag_407:\n            /* \"#utility.yul\":23669:23693   */\n          tag_688\n            /* \"#utility.yul\":23687:23692   */\n          dup2\n            /* \"#utility.yul\":23669:23693   */\n          tag_391\n          jump\t// in\n        tag_688:\n            /* \"#utility.yul\":23664:23667   */\n          dup3\n            /* \"#utility.yul\":23657:23694   */\n          mstore\n            /* \"#utility.yul\":23592:23700   */\n          pop\n          pop\n          jump\t// out\n            /* \"#utility.yul\":23792:25105   */\n        tag_408:\n            /* \"#utility.yul\":23925:23928   */\n          0x00\n            /* \"#utility.yul\":23961:23965   */\n          0xa0\n            /* \"#utility.yul\":23956:23959   */\n          dup4\n            /* \"#utility.yul\":23952:23966   */\n          add\n            /* \"#utility.yul\":24058:24062   */\n          0x00\n            /* \"#utility.yul\":24051:24056   */\n          dup4\n            /* \"#utility.yul\":24047:24063   */\n          add\n            /* \"#utility.yul\":24041:24064   */\n          mload\n            /* \"#utility.yul\":24077:24140   */\n          tag_690\n            /* \"#utility.yul\":24134:24138   */\n          0x00\n            /* \"#utility.yul\":24129:24132   */\n          dup7\n            /* \"#utility.yul\":24125:24139   */\n          add\n            /* \"#utility.yul\":24111:24123   */\n          dup3\n            /* \"#utility.yul\":24077:24140   */\n          tag_402\n          jump\t// in\n        tag_690:\n            /* \"#utility.yul\":23976:24150   */\n          pop\n            /* \"#utility.yul\":24240:24244   */\n          0x20\n            /* \"#utility.yul\":24233:24238   */\n          dup4\n            /* \"#utility.yul\":24229:24245   */\n          add\n            /* \"#utility.yul\":24223:24246   */\n          mload\n            /* \"#utility.yul\":24293:24296   */\n          dup5\n            /* \"#utility.yul\":24287:24291   */\n          dup3\n            /* \"#utility.yul\":24283:24297   */\n          sub\n            /* \"#utility.yul\":24276:24280   */\n          0x20\n            /* \"#utility.yul\":24271:24274   */\n          dup7\n            /* \"#utility.yul\":24267:24281   */\n          add\n            /* \"#utility.yul\":24260:24298   */\n          mstore\n            /* \"#utility.yul\":24319:24392   */\n          tag_691\n            /* \"#utility.yul\":24387:24391   */\n          dup3\n            /* \"#utility.yul\":24373:24385   */\n          dup3\n            /* \"#utility.yul\":24319:24392   */\n          tag_406\n          jump\t// in\n        tag_691:\n            /* \"#utility.yul\":24311:24392   */\n          swap2\n          pop\n            /* \"#utility.yul\":24160:24403   */\n          pop\n            /* \"#utility.yul\":24485:24489   */\n          0x40\n            /* \"#utility.yul\":24478:24483   */\n          dup4\n            /* \"#utility.yul\":24474:24490   */\n          add\n            /* \"#utility.yul\":24468:24491   */\n          mload\n            /* \"#utility.yul\":24504:24567   */\n          tag_692\n            /* \"#utility.yul\":24561:24565   */\n          0x40\n            /* \"#utility.yul\":24556:24559   */\n          dup7\n            /* \"#utility.yul\":24552:24566   */\n          add\n            /* \"#utility.yul\":24538:24550   */\n          dup3\n            /* \"#utility.yul\":24504:24567   */\n          tag_407\n          jump\t// in\n        tag_692:\n            /* \"#utility.yul\":24413:24577   */\n          pop\n            /* \"#utility.yul\":24668:24672   */\n          0x60\n            /* \"#utility.yul\":24661:24666   */\n          dup4\n            /* \"#utility.yul\":24657:24673   */\n          add\n            /* \"#utility.yul\":24651:24674   */\n          mload\n            /* \"#utility.yul\":24721:24724   */\n          dup5\n            /* \"#utility.yul\":24715:24719   */\n          dup3\n            /* \"#utility.yul\":24711:24725   */\n          sub\n            /* \"#utility.yul\":24704:24708   */\n          0x60\n            /* \"#utility.yul\":24699:24702   */\n          dup7\n            /* \"#utility.yul\":24695:24709   */\n          add\n            /* \"#utility.yul\":24688:24726   */\n          mstore\n            /* \"#utility.yul\":24747:24820   */\n          tag_693\n            /* \"#utility.yul\":24815:24819   */\n          dup3\n            /* \"#utility.yul\":24801:24813   */\n          dup3\n            /* \"#utility.yul\":24747:24820   */\n          tag_406\n          jump\t// in\n        tag_693:\n            /* \"#utility.yul\":24739:24820   */\n          swap2\n          pop\n            /* \"#utility.yul\":24587:24831   */\n          pop\n            /* \"#utility.yul\":24915:24919   */\n          0x80\n            /* \"#utility.yul\":24908:24913   */\n          dup4\n            /* \"#utility.yul\":24904:24920   */\n          add\n            /* \"#utility.yul\":24898:24921   */\n          mload\n            /* \"#utility.yul\":24968:24971   */\n          dup5\n            /* \"#utility.yul\":24962:24966   */\n          dup3\n            /* \"#utility.yul\":24958:24972   */\n          sub\n            /* \"#utility.yul\":24951:24955   */\n          0x80\n            /* \"#utility.yul\":24946:24949   */\n          dup7\n            /* \"#utility.yul\":24942:24956   */\n          add\n            /* \"#utility.yul\":24935:24973   */\n          mstore\n            /* \"#utility.yul\":24994:25067   */\n          tag_694\n            /* \"#utility.yul\":25062:25066   */\n          dup3\n            /* \"#utility.yul\":25048:25060   */\n          dup3\n            /* \"#utility.yul\":24994:25067   */\n          tag_406\n          jump\t// in\n        tag_694:\n            /* \"#utility.yul\":24986:25067   */\n          swap2\n          pop\n            /* \"#utility.yul\":24841:25078   */\n          pop\n            /* \"#utility.yul\":25095:25099   */\n          dup1\n            /* \"#utility.yul\":25088:25099   */\n          swap2\n          pop\n            /* \"#utility.yul\":23930:25105   */\n          pop\n            /* \"#utility.yul\":23792:25105   */\n          swap3\n          swap2\n          pop\n          pop\n          jump\t// out\n            /* \"#utility.yul\":25111:25252   */\n        tag_409:\n            /* \"#utility.yul\":25205:25211   */\n          0x00\n            /* \"#utility.yul\":25239:25244   */\n          dup2\n            /* \"#utility.yul\":25233:25245   */\n          mload\n            /* \"#utility.yul\":25223:25245   */\n          swap1\n          pop\n            /* \"#utility.yul\":25111:25252   */\n          swap2\n          swap1\n          pop\n          jump\t// out\n            /* \"#utility.yul\":25258:25469   */\n        tag_410:\n            /* \"#utility.yul\":25384:25395   */\n          0x00\n            /* \"#utility.yul\":25418:25424   */\n          dup3\n            /* \"#utility.yul\":25413:25416   */\n          dup3\n            /* \"#utility.yul\":25406:25425   */\n          mstore\n            /* \"#utility.yul\":25458:25462   */\n          0x20\n            /* \"#utility.yul\":25453:25456   */\n          dup3\n            /* \"#utility.yul\":25449:25463   */\n          add\n            /* \"#utility.yul\":25434:25463   */\n          swap1\n          pop\n            /* \"#utility.yul\":25258:25469   */\n          swap3\n          swap2\n          pop\n          pop\n          jump\t// out\n            /* \"#utility.yul\":25475:25634   */\n        tag_411:\n            /* \"#utility.yul\":25569:25573   */\n          0x00\n            /* \"#utility.yul\":25592:25595   */\n          dup2\n            /* \"#utility.yul\":25584:25595   */\n          swap1\n          pop\n            /* \"#utility.yul\":25622:25626   */\n          0x20\n            /* \"#utility.yul\":25617:25620   */\n          dup3\n            /* \"#utility.yul\":25613:25627   */\n          add\n            /* \"#utility.yul\":25605:25627   */\n          swap1\n          pop\n            /* \"#utility.yul\":25475:25634   */\n          swap2\n          swap1\n          pop\n          jump\t// out\n            /* \"#utility.yul\":25640:25739   */\n        tag_412:\n            /* \"#utility.yul\":25711:25732   */\n          tag_699\n            /* \"#utility.yul\":25726:25731   */\n          dup2\n            /* \"#utility.yul\":25711:25732   */\n          tag_397\n          jump\t// in\n        tag_699:\n            /* \"#utility.yul\":25706:25709   */\n          dup3\n            /* \"#utility.yul\":25699:25733   */\n          mstore\n            /* \"#utility.yul\":25640:25739   */\n          pop\n          pop\n          jump\t// out\n            /* \"#utility.yul\":25821:28363   */\n        tag_413:\n            /* \"#utility.yul\":25934:25937   */\n          0x00\n            /* \"#utility.yul\":25970:25976   */\n          0x0140\n            /* \"#utility.yul\":25965:25968   */\n          dup4\n            /* \"#utility.yul\":25961:25977   */\n          add\n            /* \"#utility.yul\":26070:26074   */\n          0x00\n            /* \"#utility.yul\":26063:26068   */\n          dup4\n            /* \"#utility.yul\":26059:26075   */\n          add\n            /* \"#utility.yul\":26053:26076   */\n          mload\n            /* \"#utility.yul\":26089:26152   */\n          tag_701\n            /* \"#utility.yul\":26146:26150   */\n          0x00\n            /* \"#utility.yul\":26141:26144   */\n          dup7\n            /* \"#utility.yul\":26137:26151   */\n          add\n            /* \"#utility.yul\":26123:26135   */\n          dup3\n            /* \"#utility.yul\":26089:26152   */\n          tag_402\n          jump\t// in\n        tag_701:\n            /* \"#utility.yul\":25987:26162   */\n          pop\n            /* \"#utility.yul\":26245:26249   */\n          0x20\n            /* \"#utility.yul\":26238:26243   */\n          dup4\n            /* \"#utility.yul\":26234:26250   */\n          add\n            /* \"#utility.yul\":26228:26251   */\n          mload\n            /* \"#utility.yul\":26298:26301   */\n          dup5\n            /* \"#utility.yul\":26292:26296   */\n          dup3\n            /* \"#utility.yul\":26288:26302   */\n          sub\n            /* \"#utility.yul\":26281:26285   */\n          0x20\n            /* \"#utility.yul\":26276:26279   */\n          dup7\n            /* \"#utility.yul\":26272:26286   */\n          add\n            /* \"#utility.yul\":26265:26303   */\n          mstore\n            /* \"#utility.yul\":26324:26397   */\n          tag_702\n            /* \"#utility.yul\":26392:26396   */\n          dup3\n            /* \"#utility.yul\":26378:26390   */\n          dup3\n            /* \"#utility.yul\":26324:26397   */\n          tag_406\n          jump\t// in\n        tag_702:\n            /* \"#utility.yul\":26316:26397   */\n          swap2\n          pop\n            /* \"#utility.yul\":26172:26408   */\n          pop\n            /* \"#utility.yul\":26499:26503   */\n          0x40\n            /* \"#utility.yul\":26492:26497   */\n          dup4\n            /* \"#utility.yul\":26488:26504   */\n          add\n            /* \"#utility.yul\":26482:26505   */\n          mload\n            /* \"#utility.yul\":26552:26555   */\n          dup5\n            /* \"#utility.yul\":26546:26550   */\n          dup3\n            /* \"#utility.yul\":26542:26556   */\n          sub\n            /* \"#utility.yul\":26535:26539   */\n          0x40\n            /* \"#utility.yul\":26530:26533   */\n          dup7\n            /* \"#utility.yul\":26526:26540   */\n          add\n            /* \"#utility.yul\":26519:26557   */\n          mstore\n            /* \"#utility.yul\":26578:26651   */\n          tag_703\n            /* \"#utility.yul\":26646:26650   */\n          dup3\n            /* \"#utility.yul\":26632:26644   */\n          dup3\n            /* \"#utility.yul\":26578:26651   */\n          tag_406\n          jump\t// in\n        tag_703:\n            /* \"#utility.yul\":26570:26651   */\n          swap2\n          pop\n            /* \"#utility.yul\":26418:26662   */\n          pop\n            /* \"#utility.yul\":26749:26753   */\n          0x60\n            /* \"#utility.yul\":26742:26747   */\n          dup4\n            /* \"#utility.yul\":26738:26754   */\n          add\n            /* \"#utility.yul\":26732:26755   */\n          mload\n            /* \"#utility.yul\":26802:26805   */\n          dup5\n            /* \"#utility.yul\":26796:26800   */\n          dup3\n            /* \"#utility.yul\":26792:26806   */\n          sub\n            /* \"#utility.yul\":26785:26789   */\n          0x60\n            /* \"#utility.yul\":26780:26783   */\n          dup7\n            /* \"#utility.yul\":26776:26790   */\n          add\n            /* \"#utility.yul\":26769:26807   */\n          mstore\n            /* \"#utility.yul\":26828:26901   */\n          tag_704\n            /* \"#utility.yul\":26896:26900   */\n          dup3\n            /* \"#utility.yul\":26882:26894   */\n          dup3\n            /* \"#utility.yul\":26828:26901   */\n          tag_406\n          jump\t// in\n        tag_704:\n            /* \"#utility.yul\":26820:26901   */\n          swap2\n          pop\n            /* \"#utility.yul\":26672:26912   */\n          pop\n            /* \"#utility.yul\":26999:27003   */\n          0x80\n            /* \"#utility.yul\":26992:26997   */\n          dup4\n            /* \"#utility.yul\":26988:27004   */\n          add\n            /* \"#utility.yul\":26982:27005   */\n          mload\n            /* \"#utility.yul\":27052:27055   */\n          dup5\n            /* \"#utility.yul\":27046:27050   */\n          dup3\n            /* \"#utility.yul\":27042:27056   */\n          sub\n            /* \"#utility.yul\":27035:27039   */\n          0x80\n            /* \"#utility.yul\":27030:27033   */\n          dup7\n            /* \"#utility.yul\":27026:27040   */\n          add\n            /* \"#utility.yul\":27019:27057   */\n          mstore\n            /* \"#utility.yul\":27078:27151   */\n          tag_705\n            /* \"#utility.yul\":27146:27150   */\n          dup3\n            /* \"#utility.yul\":27132:27144   */\n          dup3\n            /* \"#utility.yul\":27078:27151   */\n          tag_406\n          jump\t// in\n        tag_705:\n            /* \"#utility.yul\":27070:27151   */\n          swap2\n          pop\n            /* \"#utility.yul\":26922:27162   */\n          pop\n            /* \"#utility.yul\":27242:27246   */\n          0xa0\n            /* \"#utility.yul\":27235:27240   */\n          dup4\n            /* \"#utility.yul\":27231:27247   */\n          add\n            /* \"#utility.yul\":27225:27248   */\n          mload\n            /* \"#utility.yul\":27295:27298   */\n          dup5\n            /* \"#utility.yul\":27289:27293   */\n          dup3\n            /* \"#utility.yul\":27285:27299   */\n          sub\n            /* \"#utility.yul\":27278:27282   */\n          0xa0\n            /* \"#utility.yul\":27273:27276   */\n          dup7\n            /* \"#utility.yul\":27269:27283   */\n          add\n            /* \"#utility.yul\":27262:27300   */\n          mstore\n            /* \"#utility.yul\":27321:27394   */\n          tag_706\n            /* \"#utility.yul\":27389:27393   */\n          dup3\n            /* \"#utility.yul\":27375:27387   */\n          dup3\n            /* \"#utility.yul\":27321:27394   */\n          tag_406\n          jump\t// in\n        tag_706:\n            /* \"#utility.yul\":27313:27394   */\n          swap2\n          pop\n            /* \"#utility.yul\":27172:27405   */\n          pop\n            /* \"#utility.yul\":27493:27497   */\n          0xc0\n            /* \"#utility.yul\":27486:27491   */\n          dup4\n            /* \"#utility.yul\":27482:27498   */\n          add\n            /* \"#utility.yul\":27476:27499   */\n          mload\n            /* \"#utility.yul\":27546:27549   */\n          dup5\n            /* \"#utility.yul\":27540:27544   */\n          dup3\n            /* \"#utility.yul\":27536:27550   */\n          sub\n            /* \"#utility.yul\":27529:27533   */\n          0xc0\n            /* \"#utility.yul\":27524:27527   */\n          dup7\n            /* \"#utility.yul\":27520:27534   */\n          add\n            /* \"#utility.yul\":27513:27551   */\n          mstore\n            /* \"#utility.yul\":27572:27645   */\n          tag_707\n            /* \"#utility.yul\":27640:27644   */\n          dup3\n            /* \"#utility.yul\":27626:27638   */\n          dup3\n            /* \"#utility.yul\":27572:27645   */\n          tag_406\n          jump\t// in\n        tag_707:\n            /* \"#utility.yul\":27564:27645   */\n          swap2\n          pop\n            /* \"#utility.yul\":27415:27656   */\n          pop\n            /* \"#utility.yul\":27742:27746   */\n          0xe0\n            /* \"#utility.yul\":27735:27740   */\n          dup4\n            /* \"#utility.yul\":27731:27747   */\n          add\n            /* \"#utility.yul\":27725:27748   */\n          mload\n            /* \"#utility.yul\":27795:27798   */\n          dup5\n            /* \"#utility.yul\":27789:27793   */\n          dup3\n            /* \"#utility.yul\":27785:27799   */\n          sub\n            /* \"#utility.yul\":27778:27782   */\n          0xe0\n            /* \"#utility.yul\":27773:27776   */\n          dup7\n            /* \"#utility.yul\":27769:27783   */\n          add\n            /* \"#utility.yul\":27762:27800   */\n          mstore\n            /* \"#utility.yul\":27821:27894   */\n          tag_708\n            /* \"#utility.yul\":27889:27893   */\n          dup3\n            /* \"#utility.yul\":27875:27887   */\n          dup3\n            /* \"#utility.yul\":27821:27894   */\n          tag_406\n          jump\t// in\n        tag_708:\n            /* \"#utility.yul\":27813:27894   */\n          swap2\n          pop\n            /* \"#utility.yul\":27666:27905   */\n          pop\n            /* \"#utility.yul\":27992:27998   */\n          0x0100\n            /* \"#utility.yul\":27985:27990   */\n          dup4\n            /* \"#utility.yul\":27981:27999   */\n          add\n            /* \"#utility.yul\":27975:28000   */\n          mload\n            /* \"#utility.yul\":28049:28052   */\n          dup5\n            /* \"#utility.yul\":28043:28047   */\n          dup3\n            /* \"#utility.yul\":28039:28053   */\n          sub\n            /* \"#utility.yul\":28030:28036   */\n          0x0100\n            /* \"#utility.yul\":28025:28028   */\n          dup7\n            /* \"#utility.yul\":28021:28037   */\n          add\n            /* \"#utility.yul\":28014:28054   */\n          mstore\n            /* \"#utility.yul\":28075:28148   */\n          tag_709\n            /* \"#utility.yul\":28143:28147   */\n          dup3\n            /* \"#utility.yul\":28129:28141   */\n          dup3\n            /* \"#utility.yul\":28075:28148   */\n          tag_406\n          jump\t// in\n        tag_709:\n            /* \"#utility.yul\":28067:28148   */\n          swap2\n          pop\n            /* \"#utility.yul\":27915:28159   */\n          pop\n            /* \"#utility.yul\":28246:28252   */\n          0x0120\n            /* \"#utility.yul\":28239:28244   */\n          dup4\n            /* \"#utility.yul\":28235:28253   */\n          add\n            /* \"#utility.yul\":28229:28254   */\n          mload\n            /* \"#utility.yul\":28267:28326   */\n          tag_710\n            /* \"#utility.yul\":28318:28324   */\n          0x0120\n            /* \"#utility.yul\":28313:28316   */\n          dup7\n            /* \"#utility.yul\":28309:28325   */\n          add\n            /* \"#utility.yul\":28295:28307   */\n          dup3\n            /* \"#utility.yul\":28267:28326   */\n          tag_412\n          jump\t// in\n        tag_710:\n            /* \"#utility.yul\":28169:28336   */\n          pop\n            /* \"#utility.yul\":28353:28357   */\n          dup1\n            /* \"#utility.yul\":28346:28357   */\n          swap2\n          pop\n            /* \"#utility.yul\":25939:28363   */\n          pop\n            /* \"#utility.yul\":25821:28363   */\n          swap3\n          swap2\n          pop\n          pop\n          jump\t// out\n            /* \"#utility.yul\":28369:28633   */\n        tag_414:\n            /* \"#utility.yul\":28492:28502   */\n          0x00\n            /* \"#utility.yul\":28527:28627   */\n          tag_712\n            /* \"#utility.yul\":28623:28626   */\n          dup4\n            /* \"#utility.yul\":28615:28621   */\n          dup4\n            /* \"#utility.yul\":28527:28627   */\n          tag_413\n          jump\t// in\n        tag_712:\n            /* \"#utility.yul\":28513:28627   */\n          swap1\n          pop\n            /* \"#utility.yul\":28369:28633   */\n          swap3\n          swap2\n          pop\n          pop\n          jump\t// out\n            /* \"#utility.yul\":28639:28779   */\n        tag_415:\n            /* \"#utility.yul\":28736:28740   */\n          0x00\n            /* \"#utility.yul\":28768:28772   */\n          0x20\n            /* \"#utility.yul\":28763:28766   */\n          dup3\n            /* \"#utility.yul\":28759:28773   */\n          add\n            /* \"#utility.yul\":28751:28773   */\n          swap1\n          pop\n            /* \"#utility.yul\":28639:28779   */\n          swap2\n          swap1\n          pop\n          jump\t// out\n            /* \"#utility.yul\":28865:29992   */\n        tag_416:\n            /* \"#utility.yul\":29038:29041   */\n          0x00\n            /* \"#utility.yul\":29067:29148   */\n          tag_715\n            /* \"#utility.yul\":29142:29147   */\n          dup3\n            /* \"#utility.yul\":29067:29148   */\n          tag_409\n          jump\t// in\n        tag_715:\n            /* \"#utility.yul\":29164:29277   */\n          tag_716\n            /* \"#utility.yul\":29270:29276   */\n          dup2\n            /* \"#utility.yul\":29265:29268   */\n          dup6\n            /* \"#utility.yul\":29164:29277   */\n          tag_410\n          jump\t// in\n        tag_716:\n            /* \"#utility.yul\":29157:29277   */\n          swap4\n          pop\n            /* \"#utility.yul\":29303:29306   */\n          dup4\n            /* \"#utility.yul\":29348:29352   */\n          0x20\n            /* \"#utility.yul\":29340:29346   */\n          dup3\n            /* \"#utility.yul\":29336:29353   */\n          mul\n            /* \"#utility.yul\":29331:29334   */\n          dup6\n            /* \"#utility.yul\":29327:29354   */\n          add\n            /* \"#utility.yul\":29378:29461   */\n          tag_717\n            /* \"#utility.yul\":29455:29460   */\n          dup6\n            /* \"#utility.yul\":29378:29461   */\n          tag_411\n          jump\t// in\n        tag_717:\n            /* \"#utility.yul\":29484:29491   */\n          dup1\n            /* \"#utility.yul\":29515:29516   */\n          0x00\n            /* \"#utility.yul\":29500:29947   */\n        tag_718:\n            /* \"#utility.yul\":29525:29531   */\n          dup6\n            /* \"#utility.yul\":29522:29523   */\n          dup2\n            /* \"#utility.yul\":29519:29532   */\n          lt\n            /* \"#utility.yul\":29500:29947   */\n          iszero\n          tag_720\n          jumpi\n            /* \"#utility.yul\":29596:29605   */\n          dup5\n            /* \"#utility.yul\":29590:29594   */\n          dup5\n            /* \"#utility.yul\":29586:29606   */\n          sub\n            /* \"#utility.yul\":29581:29584   */\n          dup10\n            /* \"#utility.yul\":29574:29607   */\n          mstore\n            /* \"#utility.yul\":29647:29653   */\n          dup2\n            /* \"#utility.yul\":29641:29654   */\n          mload\n            /* \"#utility.yul\":29675:29793   */\n          tag_721\n            /* \"#utility.yul\":29788:29792   */\n          dup6\n            /* \"#utility.yul\":29773:29786   */\n          dup3\n            /* \"#utility.yul\":29675:29793   */\n          tag_414\n          jump\t// in\n        tag_721:\n            /* \"#utility.yul\":29667:29793   */\n          swap5\n          pop\n            /* \"#utility.yul\":29816:29903   */\n          tag_722\n            /* \"#utility.yul\":29896:29902   */\n          dup4\n            /* \"#utility.yul\":29816:29903   */\n          tag_415\n          jump\t// in\n        tag_722:\n            /* \"#utility.yul\":29806:29903   */\n          swap3\n          pop\n            /* \"#utility.yul\":29932:29936   */\n          0x20\n            /* \"#utility.yul\":29927:29930   */\n          dup11\n            /* \"#utility.yul\":29923:29937   */\n          add\n            /* \"#utility.yul\":29916:29937   */\n          swap10\n          pop\n            /* \"#utility.yul\":29560:29947   */\n          pop\n            /* \"#utility.yul\":29547:29548   */\n          0x01\n            /* \"#utility.yul\":29544:29545   */\n          dup2\n            /* \"#utility.yul\":29540:29549   */\n          add\n            /* \"#utility.yul\":29535:29549   */\n          swap1\n          pop\n            /* \"#utility.yul\":29500:29947   */\n          jump(tag_718)\n        tag_720:\n            /* \"#utility.yul\":29504:29518   */\n          pop\n            /* \"#utility.yul\":29963:29967   */\n          dup3\n            /* \"#utility.yul\":29956:29967   */\n          swap8\n          pop\n            /* \"#utility.yul\":29983:29986   */\n          dup8\n            /* \"#utility.yul\":29976:29986   */\n          swap6\n          pop\n            /* \"#utility.yul\":29043:29992   */\n          pop\n          pop\n          pop\n          pop\n          pop\n            /* \"#utility.yul\":28865:29992   */\n          swap3\n          swap2\n          pop\n          pop\n          jump\t// out\n            /* \"#utility.yul\":29998:30768   */\n        tag_39:\n            /* \"#utility.yul\":30287:30291   */\n          0x00\n            /* \"#utility.yul\":30325:30327   */\n          0x40\n            /* \"#utility.yul\":30314:30323   */\n          dup3\n            /* \"#utility.yul\":30310:30328   */\n          add\n            /* \"#utility.yul\":30302:30328   */\n          swap1\n          pop\n            /* \"#utility.yul\":30374:30383   */\n          dup2\n            /* \"#utility.yul\":30368:30372   */\n          dup2\n            /* \"#utility.yul\":30364:30384   */\n          sub\n            /* \"#utility.yul\":30360:30361   */\n          0x00\n            /* \"#utility.yul\":30349:30358   */\n          dup4\n            /* \"#utility.yul\":30345:30362   */\n          add\n            /* \"#utility.yul\":30338:30385   */\n          mstore\n            /* \"#utility.yul\":30402:30524   */\n          tag_724\n            /* \"#utility.yul\":30519:30523   */\n          dup2\n            /* \"#utility.yul\":30510:30516   */\n          dup6\n            /* \"#utility.yul\":30402:30524   */\n          tag_408\n          jump\t// in\n        tag_724:\n            /* \"#utility.yul\":30394:30524   */\n          swap1\n          pop\n            /* \"#utility.yul\":30571:30580   */\n          dup2\n            /* \"#utility.yul\":30565:30569   */\n          dup2\n            /* \"#utility.yul\":30561:30581   */\n          sub\n            /* \"#utility.yul\":30556:30558   */\n          0x20\n            /* \"#utility.yul\":30545:30554   */\n          dup4\n            /* \"#utility.yul\":30541:30559   */\n          add\n            /* \"#utility.yul\":30534:30582   */\n          mstore\n            /* \"#utility.yul\":30599:30761   */\n          tag_725\n            /* \"#utility.yul\":30756:30760   */\n          dup2\n            /* \"#utility.yul\":30747:30753   */\n          dup5\n            /* \"#utility.yul\":30599:30761   */\n          tag_416\n          jump\t// in\n        tag_725:\n            /* \"#utility.yul\":30591:30761   */\n          swap1\n          pop\n            /* \"#utility.yul\":29998:30768   */\n          swap4\n          swap3\n          pop\n          pop\n          pop\n          jump\t// out\n            /* \"#utility.yul\":30774:30917   */\n        tag_417:\n            /* \"#utility.yul\":30870:30876   */\n          0x00\n            /* \"#utility.yul\":30904:30909   */\n          dup2\n            /* \"#utility.yul\":30898:30910   */\n          mload\n            /* \"#utility.yul\":30888:30910   */\n          swap1\n          pop\n            /* \"#utility.yul\":30774:30917   */\n          swap2\n          swap1\n          pop\n          jump\t// out\n            /* \"#utility.yul\":30923:31136   */\n        tag_418:\n            /* \"#utility.yul\":31051:31062   */\n          0x00\n            /* \"#utility.yul\":31085:31091   */\n          dup3\n            /* \"#utility.yul\":31080:31083   */\n          dup3\n            /* \"#utility.yul\":31073:31092   */\n          mstore\n            /* \"#utility.yul\":31125:31129   */\n          0x20\n            /* \"#utility.yul\":31120:31123   */\n          dup3\n            /* \"#utility.yul\":31116:31130   */\n          add\n            /* \"#utility.yul\":31101:31130   */\n          swap1\n          pop\n            /* \"#utility.yul\":30923:31136   */\n          swap3\n          swap2\n          pop\n          pop\n          jump\t// out\n            /* \"#utility.yul\":31142:31303   */\n        tag_419:\n            /* \"#utility.yul\":31238:31242   */\n          0x00\n            /* \"#utility.yul\":31261:31264   */\n          dup2\n            /* \"#utility.yul\":31253:31264   */\n          swap1\n          pop\n            /* \"#utility.yul\":31291:31295   */\n          0x20\n            /* \"#utility.yul\":31286:31289   */\n          dup3\n            /* \"#utility.yul\":31282:31296   */\n          add\n            /* \"#utility.yul\":31274:31296   */\n          swap1\n          pop\n            /* \"#utility.yul\":31142:31303   */\n          swap2\n          swap1\n          pop\n          jump\t// out\n            /* \"#utility.yul\":31389:34768   */\n        tag_420:\n            /* \"#utility.yul\":31506:31509   */\n          0x00\n            /* \"#utility.yul\":31542:31548   */\n          0x01a0\n            /* \"#utility.yul\":31537:31540   */\n          dup4\n            /* \"#utility.yul\":31533:31549   */\n          add\n            /* \"#utility.yul\":31642:31646   */\n          0x00\n            /* \"#utility.yul\":31635:31640   */\n          dup4\n            /* \"#utility.yul\":31631:31647   */\n          add\n            /* \"#utility.yul\":31625:31648   */\n          mload\n            /* \"#utility.yul\":31661:31724   */\n          tag_730\n            /* \"#utility.yul\":31718:31722   */\n          0x00\n            /* \"#utility.yul\":31713:31716   */\n          dup7\n            /* \"#utility.yul\":31709:31723   */\n          add\n            /* \"#utility.yul\":31695:31707   */\n          dup3\n            /* \"#utility.yul\":31661:31724   */\n          tag_402\n          jump\t// in\n        tag_730:\n            /* \"#utility.yul\":31559:31734   */\n          pop\n            /* \"#utility.yul\":31817:31821   */\n          0x20\n            /* \"#utility.yul\":31810:31815   */\n          dup4\n            /* \"#utility.yul\":31806:31822   */\n          add\n            /* \"#utility.yul\":31800:31823   */\n          mload\n            /* \"#utility.yul\":31870:31873   */\n          dup5\n            /* \"#utility.yul\":31864:31868   */\n          dup3\n            /* \"#utility.yul\":31860:31874   */\n          sub\n            /* \"#utility.yul\":31853:31857   */\n          0x20\n            /* \"#utility.yul\":31848:31851   */\n          dup7\n            /* \"#utility.yul\":31844:31858   */\n          add\n            /* \"#utility.yul\":31837:31875   */\n          mstore\n            /* \"#utility.yul\":31896:31969   */\n          tag_731\n            /* \"#utility.yul\":31964:31968   */\n          dup3\n            /* \"#utility.yul\":31950:31962   */\n          dup3\n            /* \"#utility.yul\":31896:31969   */\n          tag_406\n          jump\t// in\n        tag_731:\n            /* \"#utility.yul\":31888:31969   */\n          swap2\n          pop\n            /* \"#utility.yul\":31744:31980   */\n          pop\n            /* \"#utility.yul\":32070:32074   */\n          0x40\n            /* \"#utility.yul\":32063:32068   */\n          dup4\n            /* \"#utility.yul\":32059:32075   */\n          add\n            /* \"#utility.yul\":32053:32076   */\n          mload\n            /* \"#utility.yul\":32123:32126   */\n          dup5\n            /* \"#utility.yul\":32117:32121   */\n          dup3\n            /* \"#utility.yul\":32113:32127   */\n          sub\n            /* \"#utility.yul\":32106:32110   */\n          0x40\n            /* \"#utility.yul\":32101:32104   */\n          dup7\n            /* \"#utility.yul\":32097:32111   */\n          add\n            /* \"#utility.yul\":32090:32128   */\n          mstore\n            /* \"#utility.yul\":32149:32222   */\n          tag_732\n            /* \"#utility.yul\":32217:32221   */\n          dup3\n            /* \"#utility.yul\":32203:32215   */\n          dup3\n            /* \"#utility.yul\":32149:32222   */\n          tag_406\n          jump\t// in\n        tag_732:\n            /* \"#utility.yul\":32141:32222   */\n          swap2\n          pop\n            /* \"#utility.yul\":31990:32233   */\n          pop\n            /* \"#utility.yul\":32317:32321   */\n          0x60\n            /* \"#utility.yul\":32310:32315   */\n          dup4\n            /* \"#utility.yul\":32306:32322   */\n          add\n            /* \"#utility.yul\":32300:32323   */\n          mload\n            /* \"#utility.yul\":32370:32373   */\n          dup5\n            /* \"#utility.yul\":32364:32368   */\n          dup3\n            /* \"#utility.yul\":32360:32374   */\n          sub\n            /* \"#utility.yul\":32353:32357   */\n          0x60\n            /* \"#utility.yul\":32348:32351   */\n          dup7\n            /* \"#utility.yul\":32344:32358   */\n          add\n            /* \"#utility.yul\":32337:32375   */\n          mstore\n            /* \"#utility.yul\":32396:32469   */\n          tag_733\n            /* \"#utility.yul\":32464:32468   */\n          dup3\n            /* \"#utility.yul\":32450:32462   */\n          dup3\n            /* \"#utility.yul\":32396:32469   */\n          tag_406\n          jump\t// in\n        tag_733:\n            /* \"#utility.yul\":32388:32469   */\n          swap2\n          pop\n            /* \"#utility.yul\":32243:32480   */\n          pop\n            /* \"#utility.yul\":32565:32569   */\n          0x80\n            /* \"#utility.yul\":32558:32563   */\n          dup4\n            /* \"#utility.yul\":32554:32570   */\n          add\n            /* \"#utility.yul\":32548:32571   */\n          mload\n            /* \"#utility.yul\":32618:32621   */\n          dup5\n            /* \"#utility.yul\":32612:32616   */\n          dup3\n            /* \"#utility.yul\":32608:32622   */\n          sub\n            /* \"#utility.yul\":32601:32605   */\n          0x80\n            /* \"#utility.yul\":32596:32599   */\n          dup7\n            /* \"#utility.yul\":32592:32606   */\n          add\n            /* \"#utility.yul\":32585:32623   */\n          mstore\n            /* \"#utility.yul\":32644:32717   */\n          tag_734\n            /* \"#utility.yul\":32712:32716   */\n          dup3\n            /* \"#utility.yul\":32698:32710   */\n          dup3\n            /* \"#utility.yul\":32644:32717   */\n          tag_406\n          jump\t// in\n        tag_734:\n            /* \"#utility.yul\":32636:32717   */\n          swap2\n          pop\n            /* \"#utility.yul\":32490:32728   */\n          pop\n            /* \"#utility.yul\":32819:32823   */\n          0xa0\n            /* \"#utility.yul\":32812:32817   */\n          dup4\n            /* \"#utility.yul\":32808:32824   */\n          add\n            /* \"#utility.yul\":32802:32825   */\n          mload\n            /* \"#utility.yul\":32872:32875   */\n          dup5\n            /* \"#utility.yul\":32866:32870   */\n          dup3\n            /* \"#utility.yul\":32862:32876   */\n          sub\n            /* \"#utility.yul\":32855:32859   */\n          0xa0\n            /* \"#utility.yul\":32850:32853   */\n          dup7\n            /* \"#utility.yul\":32846:32860   */\n          add\n            /* \"#utility.yul\":32839:32877   */\n          mstore\n            /* \"#utility.yul\":32898:32971   */\n          tag_735\n            /* \"#utility.yul\":32966:32970   */\n          dup3\n            /* \"#utility.yul\":32952:32964   */\n          dup3\n            /* \"#utility.yul\":32898:32971   */\n          tag_406\n          jump\t// in\n        tag_735:\n            /* \"#utility.yul\":32890:32971   */\n          swap2\n          pop\n            /* \"#utility.yul\":32738:32982   */\n          pop\n            /* \"#utility.yul\":33069:33073   */\n          0xc0\n            /* \"#utility.yul\":33062:33067   */\n          dup4\n            /* \"#utility.yul\":33058:33074   */\n          add\n            /* \"#utility.yul\":33052:33075   */\n          mload\n            /* \"#utility.yul\":33122:33125   */\n          dup5\n            /* \"#utility.yul\":33116:33120   */\n          dup3\n            /* \"#utility.yul\":33112:33126   */\n          sub\n            /* \"#utility.yul\":33105:33109   */\n          0xc0\n            /* \"#utility.yul\":33100:33103   */\n          dup7\n            /* \"#utility.yul\":33096:33110   */\n          add\n            /* \"#utility.yul\":33089:33127   */\n          mstore\n            /* \"#utility.yul\":33148:33221   */\n          tag_736\n            /* \"#utility.yul\":33216:33220   */\n          dup3\n            /* \"#utility.yul\":33202:33214   */\n          dup3\n            /* \"#utility.yul\":33148:33221   */\n          tag_406\n          jump\t// in\n        tag_736:\n            /* \"#utility.yul\":33140:33221   */\n          swap2\n          pop\n            /* \"#utility.yul\":32992:33232   */\n          pop\n            /* \"#utility.yul\":33315:33319   */\n          0xe0\n            /* \"#utility.yul\":33308:33313   */\n          dup4\n            /* \"#utility.yul\":33304:33320   */\n          add\n            /* \"#utility.yul\":33298:33321   */\n          mload\n            /* \"#utility.yul\":33368:33371   */\n          dup5\n            /* \"#utility.yul\":33362:33366   */\n          dup3\n            /* \"#utility.yul\":33358:33372   */\n          sub\n            /* \"#utility.yul\":33351:33355   */\n          0xe0\n            /* \"#utility.yul\":33346:33349   */\n          dup7\n            /* \"#utility.yul\":33342:33356   */\n          add\n            /* \"#utility.yul\":33335:33373   */\n          mstore\n            /* \"#utility.yul\":33394:33467   */\n          tag_737\n            /* \"#utility.yul\":33462:33466   */\n          dup3\n            /* \"#utility.yul\":33448:33460   */\n          dup3\n            /* \"#utility.yul\":33394:33467   */\n          tag_406\n          jump\t// in\n        tag_737:\n            /* \"#utility.yul\":33386:33467   */\n          swap2\n          pop\n            /* \"#utility.yul\":33242:33478   */\n          pop\n            /* \"#utility.yul\":33565:33571   */\n          0x0100\n            /* \"#utility.yul\":33558:33563   */\n          dup4\n            /* \"#utility.yul\":33554:33572   */\n          add\n            /* \"#utility.yul\":33548:33573   */\n          mload\n            /* \"#utility.yul\":33622:33625   */\n          dup5\n            /* \"#utility.yul\":33616:33620   */\n          dup3\n            /* \"#utility.yul\":33612:33626   */\n          sub\n            /* \"#utility.yul\":33603:33609   */\n          0x0100\n            /* \"#utility.yul\":33598:33601   */\n          dup7\n            /* \"#utility.yul\":33594:33610   */\n          add\n            /* \"#utility.yul\":33587:33627   */\n          mstore\n            /* \"#utility.yul\":33648:33721   */\n          tag_738\n            /* \"#utility.yul\":33716:33720   */\n          dup3\n            /* \"#utility.yul\":33702:33714   */\n          dup3\n            /* \"#utility.yul\":33648:33721   */\n          tag_406\n          jump\t// in\n        tag_738:\n            /* \"#utility.yul\":33640:33721   */\n          swap2\n          pop\n            /* \"#utility.yul\":33488:33732   */\n          pop\n            /* \"#utility.yul\":33820:33826   */\n          0x0120\n            /* \"#utility.yul\":33813:33818   */\n          dup4\n            /* \"#utility.yul\":33809:33827   */\n          add\n            /* \"#utility.yul\":33803:33828   */\n          mload\n            /* \"#utility.yul\":33877:33880   */\n          dup5\n            /* \"#utility.yul\":33871:33875   */\n          dup3\n            /* \"#utility.yul\":33867:33881   */\n          sub\n            /* \"#utility.yul\":33858:33864   */\n          0x0120\n            /* \"#utility.yul\":33853:33856   */\n          dup7\n            /* \"#utility.yul\":33849:33865   */\n          add\n            /* \"#utility.yul\":33842:33882   */\n          mstore\n            /* \"#utility.yul\":33903:33976   */\n          tag_739\n            /* \"#utility.yul\":33971:33975   */\n          dup3\n            /* \"#utility.yul\":33957:33969   */\n          dup3\n            /* \"#utility.yul\":33903:33976   */\n          tag_406\n          jump\t// in\n        tag_739:\n            /* \"#utility.yul\":33895:33976   */\n          swap2\n          pop\n            /* \"#utility.yul\":33742:33987   */\n          pop\n            /* \"#utility.yul\":34073:34079   */\n          0x0140\n            /* \"#utility.yul\":34066:34071   */\n          dup4\n            /* \"#utility.yul\":34062:34080   */\n          add\n            /* \"#utility.yul\":34056:34081   */\n          mload\n            /* \"#utility.yul\":34130:34133   */\n          dup5\n            /* \"#utility.yul\":34124:34128   */\n          dup3\n            /* \"#utility.yul\":34120:34134   */\n          sub\n            /* \"#utility.yul\":34111:34117   */\n          0x0140\n            /* \"#utility.yul\":34106:34109   */\n          dup7\n            /* \"#utility.yul\":34102:34118   */\n          add\n            /* \"#utility.yul\":34095:34135   */\n          mstore\n            /* \"#utility.yul\":34156:34229   */\n          tag_740\n            /* \"#utility.yul\":34224:34228   */\n          dup3\n            /* \"#utility.yul\":34210:34222   */\n          dup3\n            /* \"#utility.yul\":34156:34229   */\n          tag_406\n          jump\t// in\n        tag_740:\n            /* \"#utility.yul\":34148:34229   */\n          swap2\n          pop\n            /* \"#utility.yul\":33997:34240   */\n          pop\n            /* \"#utility.yul\":34320:34326   */\n          0x0160\n            /* \"#utility.yul\":34313:34318   */\n          dup4\n            /* \"#utility.yul\":34309:34327   */\n          add\n            /* \"#utility.yul\":34303:34328   */\n          mload\n            /* \"#utility.yul\":34377:34380   */\n          dup5\n            /* \"#utility.yul\":34371:34375   */\n          dup3\n            /* \"#utility.yul\":34367:34381   */\n          sub\n            /* \"#utility.yul\":34358:34364   */\n          0x0160\n            /* \"#utility.yul\":34353:34356   */\n          dup7\n            /* \"#utility.yul\":34349:34365   */\n          add\n            /* \"#utility.yul\":34342:34382   */\n          mstore\n            /* \"#utility.yul\":34403:34476   */\n          tag_741\n            /* \"#utility.yul\":34471:34475   */\n          dup3\n            /* \"#utility.yul\":34457:34469   */\n          dup3\n            /* \"#utility.yul\":34403:34476   */\n          tag_406\n          jump\t// in\n        tag_741:\n            /* \"#utility.yul\":34395:34476   */\n          swap2\n          pop\n            /* \"#utility.yul\":34250:34487   */\n          pop\n            /* \"#utility.yul\":34574:34580   */\n          0x0180\n            /* \"#utility.yul\":34567:34572   */\n          dup4\n            /* \"#utility.yul\":34563:34581   */\n          add\n            /* \"#utility.yul\":34557:34582   */\n          mload\n            /* \"#utility.yul\":34631:34634   */\n          dup5\n            /* \"#utility.yul\":34625:34629   */\n          dup3\n            /* \"#utility.yul\":34621:34635   */\n          sub\n            /* \"#utility.yul\":34612:34618   */\n          0x0180\n            /* \"#utility.yul\":34607:34610   */\n          dup7\n            /* \"#utility.yul\":34603:34619   */\n          add\n            /* \"#utility.yul\":34596:34636   */\n          mstore\n            /* \"#utility.yul\":34657:34730   */\n          tag_742\n            /* \"#utility.yul\":34725:34729   */\n          dup3\n            /* \"#utility.yul\":34711:34723   */\n          dup3\n            /* \"#utility.yul\":34657:34730   */\n          tag_406\n          jump\t// in\n        tag_742:\n            /* \"#utility.yul\":34649:34730   */\n          swap2\n          pop\n            /* \"#utility.yul\":34497:34741   */\n          pop\n            /* \"#utility.yul\":34758:34762   */\n          dup1\n            /* \"#utility.yul\":34751:34762   */\n          swap2\n          pop\n            /* \"#utility.yul\":31511:34768   */\n          pop\n            /* \"#utility.yul\":31389:34768   */\n          swap3\n          swap2\n          pop\n          pop\n          jump\t// out\n            /* \"#utility.yul\":34774:35046   */\n        tag_421:\n            /* \"#utility.yul\":34901:34911   */\n          0x00\n            /* \"#utility.yul\":34936:35040   */\n          tag_744\n            /* \"#utility.yul\":35036:35039   */\n          dup4\n            /* \"#utility.yul\":35028:35034   */\n          dup4\n            /* \"#utility.yul\":34936:35040   */\n          tag_420\n          jump\t// in\n        tag_744:\n            /* \"#utility.yul\":34922:35040   */\n          swap1\n          pop\n            /* \"#utility.yul\":34774:35046   */\n          swap3\n          swap2\n          pop\n          pop\n          jump\t// out\n            /* \"#utility.yul\":35052:35194   */\n        tag_422:\n            /* \"#utility.yul\":35151:35155   */\n          0x00\n            /* \"#utility.yul\":35183:35187   */\n          0x20\n            /* \"#utility.yul\":35178:35181   */\n          dup3\n            /* \"#utility.yul\":35174:35188   */\n          add\n            /* \"#utility.yul\":35166:35188   */\n          swap1\n          pop\n            /* \"#utility.yul\":35052:35194   */\n          swap2\n          swap1\n          pop\n          jump\t// out\n            /* \"#utility.yul\":35284:36427   */\n        tag_423:\n            /* \"#utility.yul\":35461:35464   */\n          0x00\n            /* \"#utility.yul\":35490:35573   */\n          tag_747\n            /* \"#utility.yul\":35567:35572   */\n          dup3\n            /* \"#utility.yul\":35490:35573   */\n          tag_417\n          jump\t// in\n        tag_747:\n            /* \"#utility.yul\":35589:35704   */\n          tag_748\n            /* \"#utility.yul\":35697:35703   */\n          dup2\n            /* \"#utility.yul\":35692:35695   */\n          dup6\n            /* \"#utility.yul\":35589:35704   */\n          tag_418\n          jump\t// in\n        tag_748:\n            /* \"#utility.yul\":35582:35704   */\n          swap4\n          pop\n            /* \"#utility.yul\":35730:35733   */\n          dup4\n            /* \"#utility.yul\":35775:35779   */\n          0x20\n            /* \"#utility.yul\":35767:35773   */\n          dup3\n            /* \"#utility.yul\":35763:35780   */\n          mul\n            /* \"#utility.yul\":35758:35761   */\n          dup6\n            /* \"#utility.yul\":35754:35781   */\n          add\n            /* \"#utility.yul\":35805:35890   */\n          tag_749\n            /* \"#utility.yul\":35884:35889   */\n          dup6\n            /* \"#utility.yul\":35805:35890   */\n          tag_419\n          jump\t// in\n        tag_749:\n            /* \"#utility.yul\":35913:35920   */\n          dup1\n            /* \"#utility.yul\":35944:35945   */\n          0x00\n            /* \"#utility.yul\":35929:36382   */\n        tag_750:\n            /* \"#utility.yul\":35954:35960   */\n          dup6\n            /* \"#utility.yul\":35951:35952   */\n          dup2\n            /* \"#utility.yul\":35948:35961   */\n          lt\n            /* \"#utility.yul\":35929:36382   */\n          iszero\n          tag_752\n          jumpi\n            /* \"#utility.yul\":36025:36034   */\n          dup5\n            /* \"#utility.yul\":36019:36023   */\n          dup5\n            /* \"#utility.yul\":36015:36035   */\n          sub\n            /* \"#utility.yul\":36010:36013   */\n          dup10\n            /* \"#utility.yul\":36003:36036   */\n          mstore\n            /* \"#utility.yul\":36076:36082   */\n          dup2\n            /* \"#utility.yul\":36070:36083   */\n          mload\n            /* \"#utility.yul\":36104:36226   */\n          tag_753\n            /* \"#utility.yul\":36221:36225   */\n          dup6\n            /* \"#utility.yul\":36206:36219   */\n          dup3\n            /* \"#utility.yul\":36104:36226   */\n          tag_421\n          jump\t// in\n        tag_753:\n            /* \"#utility.yul\":36096:36226   */\n          swap5\n          pop\n            /* \"#utility.yul\":36249:36338   */\n          tag_754\n            /* \"#utility.yul\":36331:36337   */\n          dup4\n            /* \"#utility.yul\":36249:36338   */\n          tag_422\n          jump\t// in\n        tag_754:\n            /* \"#utility.yul\":36239:36338   */\n          swap3\n          pop\n            /* \"#utility.yul\":36367:36371   */\n          0x20\n            /* \"#utility.yul\":36362:36365   */\n          dup11\n            /* \"#utility.yul\":36358:36372   */\n          add\n            /* \"#utility.yul\":36351:36372   */\n          swap10\n          pop\n            /* \"#utility.yul\":35989:36382   */\n          pop\n            /* \"#utility.yul\":35976:35977   */\n          0x01\n            /* \"#utility.yul\":35973:35974   */\n          dup2\n            /* \"#utility.yul\":35969:35978   */\n          add\n            /* \"#utility.yul\":35964:35978   */\n          swap1\n          pop\n            /* \"#utility.yul\":35929:36382   */\n          jump(tag_750)\n        tag_752:\n            /* \"#utility.yul\":35933:35947   */\n          pop\n            /* \"#utility.yul\":36398:36402   */\n          dup3\n            /* \"#utility.yul\":36391:36402   */\n          swap8\n          pop\n            /* \"#utility.yul\":36418:36421   */\n          dup8\n            /* \"#utility.yul\":36411:36421   */\n          swap6\n          pop\n            /* \"#utility.yul\":35466:36427   */\n          pop\n          pop\n          pop\n          pop\n          pop\n            /* \"#utility.yul\":35284:36427   */\n          swap3\n          swap2\n          pop\n          pop\n          jump\t// out\n            /* \"#utility.yul\":36433:37211   */\n        tag_44:\n            /* \"#utility.yul\":36726:36730   */\n          0x00\n            /* \"#utility.yul\":36764:36766   */\n          0x40\n            /* \"#utility.yul\":36753:36762   */\n          dup3\n            /* \"#utility.yul\":36749:36767   */\n          add\n            /* \"#utility.yul\":36741:36767   */\n          swap1\n          pop\n            /* \"#utility.yul\":36813:36822   */\n          dup2\n            /* \"#utility.yul\":36807:36811   */\n          dup2\n            /* \"#utility.yul\":36803:36823   */\n          sub\n            /* \"#utility.yul\":36799:36800   */\n          0x00\n            /* \"#utility.yul\":36788:36797   */\n          dup4\n            /* \"#utility.yul\":36784:36801   */\n          add\n            /* \"#utility.yul\":36777:36824   */\n          mstore\n            /* \"#utility.yul\":36841:36963   */\n          tag_756\n            /* \"#utility.yul\":36958:36962   */\n          dup2\n            /* \"#utility.yul\":36949:36955   */\n          dup6\n            /* \"#utility.yul\":36841:36963   */\n          tag_408\n          jump\t// in\n        tag_756:\n            /* \"#utility.yul\":36833:36963   */\n          swap1\n          pop\n            /* \"#utility.yul\":37010:37019   */\n          dup2\n            /* \"#utility.yul\":37004:37008   */\n          dup2\n            /* \"#utility.yul\":37000:37020   */\n          sub\n            /* \"#utility.yul\":36995:36997   */\n          0x20\n            /* \"#utility.yul\":36984:36993   */\n          dup4\n            /* \"#utility.yul\":36980:36998   */\n          add\n            /* \"#utility.yul\":36973:37021   */\n          mstore\n            /* \"#utility.yul\":37038:37204   */\n          tag_757\n            /* \"#utility.yul\":37199:37203   */\n          dup2\n            /* \"#utility.yul\":37190:37196   */\n          dup5\n            /* \"#utility.yul\":37038:37204   */\n          tag_423\n          jump\t// in\n        tag_757:\n            /* \"#utility.yul\":37030:37204   */\n          swap1\n          pop\n            /* \"#utility.yul\":36433:37211   */\n          swap4\n          swap3\n          pop\n          pop\n          pop\n          jump\t// out\n            /* \"#utility.yul\":37217:37357   */\n        tag_424:\n            /* \"#utility.yul\":37310:37316   */\n          0x00\n            /* \"#utility.yul\":37344:37349   */\n          dup2\n            /* \"#utility.yul\":37338:37350   */\n          mload\n            /* \"#utility.yul\":37328:37350   */\n          swap1\n          pop\n            /* \"#utility.yul\":37217:37357   */\n          swap2\n          swap1\n          pop\n          jump\t// out\n            /* \"#utility.yul\":37363:37573   */\n        tag_425:\n            /* \"#utility.yul\":37488:37499   */\n          0x00\n            /* \"#utility.yul\":37522:37528   */\n          dup3\n            /* \"#utility.yul\":37517:37520   */\n          dup3\n            /* \"#utility.yul\":37510:37529   */\n          mstore\n            /* \"#utility.yul\":37562:37566   */\n          0x20\n            /* \"#utility.yul\":37557:37560   */\n          dup3\n            /* \"#utility.yul\":37553:37567   */\n          add\n            /* \"#utility.yul\":37538:37567   */\n          swap1\n          pop\n            /* \"#utility.yul\":37363:37573   */\n          swap3\n          swap2\n          pop\n          pop\n          jump\t// out\n            /* \"#utility.yul\":37579:37737   */\n        tag_426:\n            /* \"#utility.yul\":37672:37676   */\n          0x00\n            /* \"#utility.yul\":37695:37698   */\n          dup2\n            /* \"#utility.yul\":37687:37698   */\n          swap1\n          pop\n            /* \"#utility.yul\":37725:37729   */\n          0x20\n            /* \"#utility.yul\":37720:37723   */\n          dup3\n            /* \"#utility.yul\":37716:37730   */\n          add\n            /* \"#utility.yul\":37708:37730   */\n          swap1\n          pop\n            /* \"#utility.yul\":37579:37737   */\n          swap2\n          swap1\n          pop\n          jump\t// out\n            /* \"#utility.yul\":37817:41282   */\n        tag_427:\n            /* \"#utility.yul\":37928:37931   */\n          0x00\n            /* \"#utility.yul\":37964:37970   */\n          0x01c0\n            /* \"#utility.yul\":37959:37962   */\n          dup4\n            /* \"#utility.yul\":37955:37971   */\n          add\n            /* \"#utility.yul\":38064:38068   */\n          0x00\n            /* \"#utility.yul\":38057:38062   */\n          dup4\n            /* \"#utility.yul\":38053:38069   */\n          add\n            /* \"#utility.yul\":38047:38070   */\n          mload\n            /* \"#utility.yul\":38083:38146   */\n          tag_762\n            /* \"#utility.yul\":38140:38144   */\n          0x00\n            /* \"#utility.yul\":38135:38138   */\n          dup7\n            /* \"#utility.yul\":38131:38145   */\n          add\n            /* \"#utility.yul\":38117:38129   */\n          dup3\n            /* \"#utility.yul\":38083:38146   */\n          tag_402\n          jump\t// in\n        tag_762:\n            /* \"#utility.yul\":37981:38156   */\n          pop\n            /* \"#utility.yul\":38239:38243   */\n          0x20\n            /* \"#utility.yul\":38232:38237   */\n          dup4\n            /* \"#utility.yul\":38228:38244   */\n          add\n            /* \"#utility.yul\":38222:38245   */\n          mload\n            /* \"#utility.yul\":38292:38295   */\n          dup5\n            /* \"#utility.yul\":38286:38290   */\n          dup3\n            /* \"#utility.yul\":38282:38296   */\n          sub\n            /* \"#utility.yul\":38275:38279   */\n          0x20\n            /* \"#utility.yul\":38270:38273   */\n          dup7\n            /* \"#utility.yul\":38266:38280   */\n          add\n            /* \"#utility.yul\":38259:38297   */\n          mstore\n            /* \"#utility.yul\":38318:38391   */\n          tag_763\n            /* \"#utility.yul\":38386:38390   */\n          dup3\n            /* \"#utility.yul\":38372:38384   */\n          dup3\n            /* \"#utility.yul\":38318:38391   */\n          tag_406\n          jump\t// in\n        tag_763:\n            /* \"#utility.yul\":38310:38391   */\n          swap2\n          pop\n            /* \"#utility.yul\":38166:38402   */\n          pop\n            /* \"#utility.yul\":38493:38497   */\n          0x40\n            /* \"#utility.yul\":38486:38491   */\n          dup4\n            /* \"#utility.yul\":38482:38498   */\n          add\n            /* \"#utility.yul\":38476:38499   */\n          mload\n            /* \"#utility.yul\":38546:38549   */\n          dup5\n            /* \"#utility.yul\":38540:38544   */\n          dup3\n            /* \"#utility.yul\":38536:38550   */\n          sub\n            /* \"#utility.yul\":38529:38533   */\n          0x40\n            /* \"#utility.yul\":38524:38527   */\n          dup7\n            /* \"#utility.yul\":38520:38534   */\n          add\n            /* \"#utility.yul\":38513:38551   */\n          mstore\n            /* \"#utility.yul\":38572:38645   */\n          tag_764\n            /* \"#utility.yul\":38640:38644   */\n          dup3\n            /* \"#utility.yul\":38626:38638   */\n          dup3\n            /* \"#utility.yul\":38572:38645   */\n          tag_406\n          jump\t// in\n        tag_764:\n            /* \"#utility.yul\":38564:38645   */\n          swap2\n          pop\n            /* \"#utility.yul\":38412:38656   */\n          pop\n            /* \"#utility.yul\":38743:38747   */\n          0x60\n            /* \"#utility.yul\":38736:38741   */\n          dup4\n            /* \"#utility.yul\":38732:38748   */\n          add\n            /* \"#utility.yul\":38726:38749   */\n          mload\n            /* \"#utility.yul\":38796:38799   */\n          dup5\n            /* \"#utility.yul\":38790:38794   */\n          dup3\n            /* \"#utility.yul\":38786:38800   */\n          sub\n            /* \"#utility.yul\":38779:38783   */\n          0x60\n            /* \"#utility.yul\":38774:38777   */\n          dup7\n            /* \"#utility.yul\":38770:38784   */\n          add\n            /* \"#utility.yul\":38763:38801   */\n          mstore\n            /* \"#utility.yul\":38822:38895   */\n          tag_765\n            /* \"#utility.yul\":38890:38894   */\n          dup3\n            /* \"#utility.yul\":38876:38888   */\n          dup3\n            /* \"#utility.yul\":38822:38895   */\n          tag_406\n          jump\t// in\n        tag_765:\n            /* \"#utility.yul\":38814:38895   */\n          swap2\n          pop\n            /* \"#utility.yul\":38666:38906   */\n          pop\n            /* \"#utility.yul\":38989:38993   */\n          0x80\n            /* \"#utility.yul\":38982:38987   */\n          dup4\n            /* \"#utility.yul\":38978:38994   */\n          add\n            /* \"#utility.yul\":38972:38995   */\n          mload\n            /* \"#utility.yul\":39042:39045   */\n          dup5\n            /* \"#utility.yul\":39036:39040   */\n          dup3\n            /* \"#utility.yul\":39032:39046   */\n          sub\n            /* \"#utility.yul\":39025:39029   */\n          0x80\n            /* \"#utility.yul\":39020:39023   */\n          dup7\n            /* \"#utility.yul\":39016:39030   */\n          add\n            /* \"#utility.yul\":39009:39047   */\n          mstore\n            /* \"#utility.yul\":39068:39141   */\n          tag_766\n            /* \"#utility.yul\":39136:39140   */\n          dup3\n            /* \"#utility.yul\":39122:39134   */\n          dup3\n            /* \"#utility.yul\":39068:39141   */\n          tag_406\n          jump\t// in\n        tag_766:\n            /* \"#utility.yul\":39060:39141   */\n          swap2\n          pop\n            /* \"#utility.yul\":38916:39152   */\n          pop\n            /* \"#utility.yul\":39239:39243   */\n          0xa0\n            /* \"#utility.yul\":39232:39237   */\n          dup4\n            /* \"#utility.yul\":39228:39244   */\n          add\n            /* \"#utility.yul\":39222:39245   */\n          mload\n            /* \"#utility.yul\":39292:39295   */\n          dup5\n            /* \"#utility.yul\":39286:39290   */\n          dup3\n            /* \"#utility.yul\":39282:39296   */\n          sub\n            /* \"#utility.yul\":39275:39279   */\n          0xa0\n            /* \"#utility.yul\":39270:39273   */\n          dup7\n            /* \"#utility.yul\":39266:39280   */\n          add\n            /* \"#utility.yul\":39259:39297   */\n          mstore\n            /* \"#utility.yul\":39318:39391   */\n          tag_767\n            /* \"#utility.yul\":39386:39390   */\n          dup3\n            /* \"#utility.yul\":39372:39384   */\n          dup3\n            /* \"#utility.yul\":39318:39391   */\n          tag_406\n          jump\t// in\n        tag_767:\n            /* \"#utility.yul\":39310:39391   */\n          swap2\n          pop\n            /* \"#utility.yul\":39162:39402   */\n          pop\n            /* \"#utility.yul\":39482:39486   */\n          0xc0\n            /* \"#utility.yul\":39475:39480   */\n          dup4\n            /* \"#utility.yul\":39471:39487   */\n          add\n            /* \"#utility.yul\":39465:39488   */\n          mload\n            /* \"#utility.yul\":39535:39538   */\n          dup5\n            /* \"#utility.yul\":39529:39533   */\n          dup3\n            /* \"#utility.yul\":39525:39539   */\n          sub\n            /* \"#utility.yul\":39518:39522   */\n          0xc0\n            /* \"#utility.yul\":39513:39516   */\n          dup7\n            /* \"#utility.yul\":39509:39523   */\n          add\n            /* \"#utility.yul\":39502:39540   */\n          mstore\n            /* \"#utility.yul\":39561:39634   */\n          tag_768\n            /* \"#utility.yul\":39629:39633   */\n          dup3\n            /* \"#utility.yul\":39615:39627   */\n          dup3\n            /* \"#utility.yul\":39561:39634   */\n          tag_406\n          jump\t// in\n        tag_768:\n            /* \"#utility.yul\":39553:39634   */\n          swap2\n          pop\n            /* \"#utility.yul\":39412:39645   */\n          pop\n            /* \"#utility.yul\":39733:39737   */\n          0xe0\n            /* \"#utility.yul\":39726:39731   */\n          dup4\n            /* \"#utility.yul\":39722:39738   */\n          add\n            /* \"#utility.yul\":39716:39739   */\n          mload\n            /* \"#utility.yul\":39786:39789   */\n          dup5\n            /* \"#utility.yul\":39780:39784   */\n          dup3\n            /* \"#utility.yul\":39776:39790   */\n          sub\n            /* \"#utility.yul\":39769:39773   */\n          0xe0\n            /* \"#utility.yul\":39764:39767   */\n          dup7\n            /* \"#utility.yul\":39760:39774   */\n          add\n            /* \"#utility.yul\":39753:39791   */\n          mstore\n            /* \"#utility.yul\":39812:39885   */\n          tag_769\n            /* \"#utility.yul\":39880:39884   */\n          dup3\n            /* \"#utility.yul\":39866:39878   */\n          dup3\n            /* \"#utility.yul\":39812:39885   */\n          tag_406\n          jump\t// in\n        tag_769:\n            /* \"#utility.yul\":39804:39885   */\n          swap2\n          pop\n            /* \"#utility.yul\":39655:39896   */\n          pop\n            /* \"#utility.yul\":39982:39988   */\n          0x0100\n            /* \"#utility.yul\":39975:39980   */\n          dup4\n            /* \"#utility.yul\":39971:39989   */\n          add\n            /* \"#utility.yul\":39965:39990   */\n          mload\n            /* \"#utility.yul\":40039:40042   */\n          dup5\n            /* \"#utility.yul\":40033:40037   */\n          dup3\n            /* \"#utility.yul\":40029:40043   */\n          sub\n            /* \"#utility.yul\":40020:40026   */\n          0x0100\n            /* \"#utility.yul\":40015:40018   */\n          dup7\n            /* \"#utility.yul\":40011:40027   */\n          add\n            /* \"#utility.yul\":40004:40044   */\n          mstore\n            /* \"#utility.yul\":40065:40138   */\n          tag_770\n            /* \"#utility.yul\":40133:40137   */\n          dup3\n            /* \"#utility.yul\":40119:40131   */\n          dup3\n            /* \"#utility.yul\":40065:40138   */\n          tag_406\n          jump\t// in\n        tag_770:\n            /* \"#utility.yul\":40057:40138   */\n          swap2\n          pop\n            /* \"#utility.yul\":39906:40149   */\n          pop\n            /* \"#utility.yul\":40236:40242   */\n          0x0120\n            /* \"#utility.yul\":40229:40234   */\n          dup4\n            /* \"#utility.yul\":40225:40243   */\n          add\n            /* \"#utility.yul\":40219:40244   */\n          mload\n            /* \"#utility.yul\":40257:40316   */\n          tag_771\n            /* \"#utility.yul\":40308:40314   */\n          0x0120\n            /* \"#utility.yul\":40303:40306   */\n          dup7\n            /* \"#utility.yul\":40299:40315   */\n          add\n            /* \"#utility.yul\":40285:40297   */\n          dup3\n            /* \"#utility.yul\":40257:40316   */\n          tag_412\n          jump\t// in\n        tag_771:\n            /* \"#utility.yul\":40159:40326   */\n          pop\n            /* \"#utility.yul\":40407:40413   */\n          0x0140\n            /* \"#utility.yul\":40400:40405   */\n          dup4\n            /* \"#utility.yul\":40396:40414   */\n          add\n            /* \"#utility.yul\":40390:40415   */\n          mload\n            /* \"#utility.yul\":40464:40467   */\n          dup5\n            /* \"#utility.yul\":40458:40462   */\n          dup3\n            /* \"#utility.yul\":40454:40468   */\n          sub\n            /* \"#utility.yul\":40445:40451   */\n          0x0140\n            /* \"#utility.yul\":40440:40443   */\n          dup7\n            /* \"#utility.yul\":40436:40452   */\n          add\n            /* \"#utility.yul\":40429:40469   */\n          mstore\n            /* \"#utility.yul\":40490:40563   */\n          tag_772\n            /* \"#utility.yul\":40558:40562   */\n          dup3\n            /* \"#utility.yul\":40544:40556   */\n          dup3\n            /* \"#utility.yul\":40490:40563   */\n          tag_406\n          jump\t// in\n        tag_772:\n            /* \"#utility.yul\":40482:40563   */\n          swap2\n          pop\n            /* \"#utility.yul\":40336:40574   */\n          pop\n            /* \"#utility.yul\":40654:40660   */\n          0x0160\n            /* \"#utility.yul\":40647:40652   */\n          dup4\n            /* \"#utility.yul\":40643:40661   */\n          add\n            /* \"#utility.yul\":40637:40662   */\n          mload\n            /* \"#utility.yul\":40711:40714   */\n          dup5\n            /* \"#utility.yul\":40705:40709   */\n          dup3\n            /* \"#utility.yul\":40701:40715   */\n          sub\n            /* \"#utility.yul\":40692:40698   */\n          0x0160\n            /* \"#utility.yul\":40687:40690   */\n          dup7\n            /* \"#utility.yul\":40683:40699   */\n          add\n            /* \"#utility.yul\":40676:40716   */\n          mstore\n            /* \"#utility.yul\":40737:40810   */\n          tag_773\n            /* \"#utility.yul\":40805:40809   */\n          dup3\n            /* \"#utility.yul\":40791:40803   */\n          dup3\n            /* \"#utility.yul\":40737:40810   */\n          tag_406\n          jump\t// in\n        tag_773:\n            /* \"#utility.yul\":40729:40810   */\n          swap2\n          pop\n            /* \"#utility.yul\":40584:40821   */\n          pop\n            /* \"#utility.yul\":40905:40911   */\n          0x0180\n            /* \"#utility.yul\":40898:40903   */\n          dup4\n            /* \"#utility.yul\":40894:40912   */\n          add\n            /* \"#utility.yul\":40888:40913   */\n          mload\n            /* \"#utility.yul\":40926:40991   */\n          tag_774\n            /* \"#utility.yul\":40983:40989   */\n          0x0180\n            /* \"#utility.yul\":40978:40981   */\n          dup7\n            /* \"#utility.yul\":40974:40990   */\n          add\n            /* \"#utility.yul\":40960:40972   */\n          dup3\n            /* \"#utility.yul\":40926:40991   */\n          tag_402\n          jump\t// in\n        tag_774:\n            /* \"#utility.yul\":40831:41001   */\n          pop\n            /* \"#utility.yul\":41088:41094   */\n          0x01a0\n            /* \"#utility.yul\":41081:41086   */\n          dup4\n            /* \"#utility.yul\":41077:41095   */\n          add\n            /* \"#utility.yul\":41071:41096   */\n          mload\n            /* \"#utility.yul\":41145:41148   */\n          dup5\n            /* \"#utility.yul\":41139:41143   */\n          dup3\n            /* \"#utility.yul\":41135:41149   */\n          sub\n            /* \"#utility.yul\":41126:41132   */\n          0x01a0\n            /* \"#utility.yul\":41121:41124   */\n          dup7\n            /* \"#utility.yul\":41117:41133   */\n          add\n            /* \"#utility.yul\":41110:41150   */\n          mstore\n            /* \"#utility.yul\":41171:41244   */\n          tag_775\n            /* \"#utility.yul\":41239:41243   */\n          dup3\n            /* \"#utility.yul\":41225:41237   */\n          dup3\n            /* \"#utility.yul\":41171:41244   */\n          tag_406\n          jump\t// in\n        tag_775:\n            /* \"#utility.yul\":41163:41244   */\n          swap2\n          pop\n            /* \"#utility.yul\":41011:41255   */\n          pop\n            /* \"#utility.yul\":41272:41276   */\n          dup1\n            /* \"#utility.yul\":41265:41276   */\n          swap2\n          pop\n            /* \"#utility.yul\":37933:41282   */\n          pop\n            /* \"#utility.yul\":37817:41282   */\n          swap3\n          swap2\n          pop\n          pop\n          jump\t// out\n            /* \"#utility.yul\":41288:41548   */\n        tag_428:\n            /* \"#utility.yul\":41409:41419   */\n          0x00\n            /* \"#utility.yul\":41444:41542   */\n          tag_777\n            /* \"#utility.yul\":41538:41541   */\n          dup4\n            /* \"#utility.yul\":41530:41536   */\n          dup4\n            /* \"#utility.yul\":41444:41542   */\n          tag_427\n          jump\t// in\n        tag_777:\n            /* \"#utility.yul\":41430:41542   */\n          swap1\n          pop\n            /* \"#utility.yul\":41288:41548   */\n          swap3\n          swap2\n          pop\n          pop\n          jump\t// out\n            /* \"#utility.yul\":41554:41693   */\n        tag_429:\n            /* \"#utility.yul\":41650:41654   */\n          0x00\n            /* \"#utility.yul\":41682:41686   */\n          0x20\n            /* \"#utility.yul\":41677:41680   */\n          dup3\n            /* \"#utility.yul\":41673:41687   */\n          add\n            /* \"#utility.yul\":41665:41687   */\n          swap1\n          pop\n            /* \"#utility.yul\":41554:41693   */\n          swap2\n          swap1\n          pop\n          jump\t// out\n            /* \"#utility.yul\":41777:42896   */\n        tag_430:\n            /* \"#utility.yul\":41948:41951   */\n          0x00\n            /* \"#utility.yul\":41977:42057   */\n          tag_780\n            /* \"#utility.yul\":42051:42056   */\n          dup3\n            /* \"#utility.yul\":41977:42057   */\n          tag_424\n          jump\t// in\n        tag_780:\n            /* \"#utility.yul\":42073:42185   */\n          tag_781\n            /* \"#utility.yul\":42178:42184   */\n          dup2\n            /* \"#utility.yul\":42173:42176   */\n          dup6\n            /* \"#utility.yul\":42073:42185   */\n          tag_425\n          jump\t// in\n        tag_781:\n            /* \"#utility.yul\":42066:42185   */\n          swap4\n          pop\n            /* \"#utility.yul\":42211:42214   */\n          dup4\n            /* \"#utility.yul\":42256:42260   */\n          0x20\n            /* \"#utility.yul\":42248:42254   */\n          dup3\n            /* \"#utility.yul\":42244:42261   */\n          mul\n            /* \"#utility.yul\":42239:42242   */\n          dup6\n            /* \"#utility.yul\":42235:42262   */\n          add\n            /* \"#utility.yul\":42286:42368   */\n          tag_782\n            /* \"#utility.yul\":42362:42367   */\n          dup6\n            /* \"#utility.yul\":42286:42368   */\n          tag_426\n          jump\t// in\n        tag_782:\n            /* \"#utility.yul\":42391:42398   */\n          dup1\n            /* \"#utility.yul\":42422:42423   */\n          0x00\n            /* \"#utility.yul\":42407:42851   */\n        tag_783:\n            /* \"#utility.yul\":42432:42438   */\n          dup6\n            /* \"#utility.yul\":42429:42430   */\n          dup2\n            /* \"#utility.yul\":42426:42439   */\n          lt\n            /* \"#utility.yul\":42407:42851   */\n          iszero\n          tag_785\n          jumpi\n            /* \"#utility.yul\":42503:42512   */\n          dup5\n            /* \"#utility.yul\":42497:42501   */\n          dup5\n            /* \"#utility.yul\":42493:42513   */\n          sub\n            /* \"#utility.yul\":42488:42491   */\n          dup10\n            /* \"#utility.yul\":42481:42514   */\n          mstore\n            /* \"#utility.yul\":42554:42560   */\n          dup2\n            /* \"#utility.yul\":42548:42561   */\n          mload\n            /* \"#utility.yul\":42582:42698   */\n          tag_786\n            /* \"#utility.yul\":42693:42697   */\n          dup6\n            /* \"#utility.yul\":42678:42691   */\n          dup3\n            /* \"#utility.yul\":42582:42698   */\n          tag_428\n          jump\t// in\n        tag_786:\n            /* \"#utility.yul\":42574:42698   */\n          swap5\n          pop\n            /* \"#utility.yul\":42721:42807   */\n          tag_787\n            /* \"#utility.yul\":42800:42806   */\n          dup4\n            /* \"#utility.yul\":42721:42807   */\n          tag_429\n          jump\t// in\n        tag_787:\n            /* \"#utility.yul\":42711:42807   */\n          swap3\n          pop\n            /* \"#utility.yul\":42836:42840   */\n          0x20\n            /* \"#utility.yul\":42831:42834   */\n          dup11\n            /* \"#utility.yul\":42827:42841   */\n          add\n            /* \"#utility.yul\":42820:42841   */\n          swap10\n          pop\n            /* \"#utility.yul\":42467:42851   */\n          pop\n            /* \"#utility.yul\":42454:42455   */\n          0x01\n            /* \"#utility.yul\":42451:42452   */\n          dup2\n            /* \"#utility.yul\":42447:42456   */\n          add\n            /* \"#utility.yul\":42442:42456   */\n          swap1\n          pop\n            /* \"#utility.yul\":42407:42851   */\n          jump(tag_783)\n        tag_785:\n            /* \"#utility.yul\":42411:42425   */\n          pop\n            /* \"#utility.yul\":42867:42871   */\n          dup3\n            /* \"#utility.yul\":42860:42871   */\n          swap8\n          pop\n            /* \"#utility.yul\":42887:42890   */\n          dup8\n            /* \"#utility.yul\":42880:42890   */\n          swap6\n          pop\n            /* \"#utility.yul\":41953:42896   */\n          pop\n          pop\n          pop\n          pop\n          pop\n            /* \"#utility.yul\":41777:42896   */\n          swap3\n          swap2\n          pop\n          pop\n          jump\t// out\n            /* \"#utility.yul\":42902:43668   */\n        tag_49:\n            /* \"#utility.yul\":43189:43193   */\n          0x00\n            /* \"#utility.yul\":43227:43229   */\n          0x40\n            /* \"#utility.yul\":43216:43225   */\n          dup3\n            /* \"#utility.yul\":43212:43230   */\n          add\n            /* \"#utility.yul\":43204:43230   */\n          swap1\n          pop\n            /* \"#utility.yul\":43276:43285   */\n          dup2\n            /* \"#utility.yul\":43270:43274   */\n          dup2\n            /* \"#utility.yul\":43266:43286   */\n          sub\n            /* \"#utility.yul\":43262:43263   */\n          0x00\n            /* \"#utility.yul\":43251:43260   */\n          dup4\n            /* \"#utility.yul\":43247:43264   */\n          add\n            /* \"#utility.yul\":43240:43287   */\n          mstore\n            /* \"#utility.yul\":43304:43426   */\n          tag_789\n            /* \"#utility.yul\":43421:43425   */\n          dup2\n            /* \"#utility.yul\":43412:43418   */\n          dup6\n            /* \"#utility.yul\":43304:43426   */\n          tag_408\n          jump\t// in\n        tag_789:\n            /* \"#utility.yul\":43296:43426   */\n          swap1\n          pop\n            /* \"#utility.yul\":43473:43482   */\n          dup2\n            /* \"#utility.yul\":43467:43471   */\n          dup2\n            /* \"#utility.yul\":43463:43483   */\n          sub\n            /* \"#utility.yul\":43458:43460   */\n          0x20\n            /* \"#utility.yul\":43447:43456   */\n          dup4\n            /* \"#utility.yul\":43443:43461   */\n          add\n            /* \"#utility.yul\":43436:43484   */\n          mstore\n            /* \"#utility.yul\":43501:43661   */\n          tag_790\n            /* \"#utility.yul\":43656:43660   */\n          dup2\n            /* \"#utility.yul\":43647:43653   */\n          dup5\n            /* \"#utility.yul\":43501:43661   */\n          tag_430\n          jump\t// in\n        tag_790:\n            /* \"#utility.yul\":43493:43661   */\n          swap1\n          pop\n            /* \"#utility.yul\":42902:43668   */\n          swap4\n          swap3\n          pop\n          pop\n          pop\n          jump\t// out\n            /* \"#utility.yul\":43674:43792   */\n        tag_431:\n            /* \"#utility.yul\":43761:43785   */\n          tag_792\n            /* \"#utility.yul\":43779:43784   */\n          dup2\n            /* \"#utility.yul\":43761:43785   */\n          tag_376\n          jump\t// in\n        tag_792:\n            /* \"#utility.yul\":43756:43759   */\n          dup3\n            /* \"#utility.yul\":43749:43786   */\n          mstore\n            /* \"#utility.yul\":43674:43792   */\n          pop\n          pop\n          jump\t// out\n            /* \"#utility.yul\":43798:44020   */\n        tag_53:\n            /* \"#utility.yul\":43891:43895   */\n          0x00\n            /* \"#utility.yul\":43929:43931   */\n          0x20\n            /* \"#utility.yul\":43918:43927   */\n          dup3\n            /* \"#utility.yul\":43914:43932   */\n          add\n            /* \"#utility.yul\":43906:43932   */\n          swap1\n          pop\n            /* \"#utility.yul\":43942:44013   */\n          tag_794\n            /* \"#utility.yul\":44010:44011   */\n          0x00\n            /* \"#utility.yul\":43999:44008   */\n          dup4\n            /* \"#utility.yul\":43995:44012   */\n          add\n            /* \"#utility.yul\":43986:43992   */\n          dup5\n            /* \"#utility.yul\":43942:44013   */\n          tag_431\n          jump\t// in\n        tag_794:\n            /* \"#utility.yul\":43798:44020   */\n          swap3\n          swap2\n          pop\n          pop\n          jump\t// out\n            /* \"#utility.yul\":44026:44163   */\n        tag_432:\n            /* \"#utility.yul\":44080:44085   */\n          0x00\n            /* \"#utility.yul\":44111:44117   */\n          dup2\n            /* \"#utility.yul\":44105:44118   */\n          mload\n            /* \"#utility.yul\":44096:44118   */\n          swap1\n          pop\n            /* \"#utility.yul\":44127:44157   */\n          tag_796\n            /* \"#utility.yul\":44151:44156   */\n          dup2\n            /* \"#utility.yul\":44127:44157   */\n          tag_398\n          jump\t// in\n        tag_796:\n            /* \"#utility.yul\":44026:44163   */\n          swap3\n          swap2\n          pop\n          pop\n          jump\t// out\n            /* \"#utility.yul\":44169:44514   */\n        tag_57:\n            /* \"#utility.yul\":44236:44242   */\n          0x00\n            /* \"#utility.yul\":44285:44287   */\n          0x20\n            /* \"#utility.yul\":44273:44282   */\n          dup3\n            /* \"#utility.yul\":44264:44271   */\n          dup5\n            /* \"#utility.yul\":44260:44283   */\n          sub\n            /* \"#utility.yul\":44256:44288   */\n          slt\n            /* \"#utility.yul\":44253:44372   */\n          iszero\n          tag_798\n          jumpi\n            /* \"#utility.yul\":44291:44370   */\n          tag_799\n          tag_373\n          jump\t// in\n        tag_799:\n            /* \"#utility.yul\":44253:44372   */\n        tag_798:\n            /* \"#utility.yul\":44411:44412   */\n          0x00\n            /* \"#utility.yul\":44436:44497   */\n          tag_800\n            /* \"#utility.yul\":44489:44496   */\n          dup5\n            /* \"#utility.yul\":44480:44486   */\n          dup3\n            /* \"#utility.yul\":44469:44478   */\n          dup6\n            /* \"#utility.yul\":44465:44487   */\n          add\n            /* \"#utility.yul\":44436:44497   */\n          tag_432\n          jump\t// in\n        tag_800:\n            /* \"#utility.yul\":44426:44497   */\n          swap2\n          pop\n            /* \"#utility.yul\":44382:44507   */\n          pop\n            /* \"#utility.yul\":44169:44514   */\n          swap3\n          swap2\n          pop\n          pop\n          jump\t// out\n            /* \"#utility.yul\":44520:44700   */\n        tag_433:\n            /* \"#utility.yul\":44568:44645   */\n          0x4e487b7100000000000000000000000000000000000000000000000000000000\n            /* \"#utility.yul\":44565:44566   */\n          0x00\n            /* \"#utility.yul\":44558:44646   */\n          mstore\n            /* \"#utility.yul\":44665:44669   */\n          0x22\n            /* \"#utility.yul\":44662:44663   */\n          0x04\n            /* \"#utility.yul\":44655:44670   */\n          mstore\n            /* \"#utility.yul\":44689:44693   */\n          0x24\n            /* \"#utility.yul\":44686:44687   */\n          0x00\n            /* \"#utility.yul\":44679:44694   */\n          revert\n            /* \"#utility.yul\":44706:45026   */\n        tag_159:\n            /* \"#utility.yul\":44750:44756   */\n          0x00\n            /* \"#utility.yul\":44787:44788   */\n          0x02\n            /* \"#utility.yul\":44781:44785   */\n          dup3\n            /* \"#utility.yul\":44777:44789   */\n          div\n            /* \"#utility.yul\":44767:44789   */\n          swap1\n          pop\n            /* \"#utility.yul\":44834:44835   */\n          0x01\n            /* \"#utility.yul\":44828:44832   */\n          dup3\n            /* \"#utility.yul\":44824:44836   */\n          and\n            /* \"#utility.yul\":44855:44873   */\n          dup1\n            /* \"#utility.yul\":44845:44926   */\n          tag_803\n          jumpi\n            /* \"#utility.yul\":44911:44915   */\n          0x7f\n            /* \"#utility.yul\":44903:44909   */\n          dup3\n            /* \"#utility.yul\":44899:44916   */\n          and\n            /* \"#utility.yul\":44889:44916   */\n          swap2\n          pop\n            /* \"#utility.yul\":44845:44926   */\n        tag_803:\n            /* \"#utility.yul\":44973:44975   */\n          0x20\n            /* \"#utility.yul\":44965:44971   */\n          dup3\n            /* \"#utility.yul\":44962:44976   */\n          lt\n            /* \"#utility.yul\":44942:44960   */\n          dup2\n            /* \"#utility.yul\":44939:44977   */\n          sub\n            /* \"#utility.yul\":44936:45020   */\n          tag_804\n          jumpi\n            /* \"#utility.yul\":44992:45010   */\n          tag_805\n          tag_433\n          jump\t// in\n        tag_805:\n            /* \"#utility.yul\":44936:45020   */\n        tag_804:\n            /* \"#utility.yul\":44757:45026   */\n          pop\n            /* \"#utility.yul\":44706:45026   */\n          swap2\n          swap1\n          pop\n          jump\t// out\n            /* \"#utility.yul\":45032:45173   */\n        tag_434:\n            /* \"#utility.yul\":45081:45085   */\n          0x00\n            /* \"#utility.yul\":45104:45107   */\n          dup2\n            /* \"#utility.yul\":45096:45107   */\n          swap1\n          pop\n            /* \"#utility.yul\":45127:45130   */\n          dup2\n            /* \"#utility.yul\":45124:45125   */\n          0x00\n            /* \"#utility.yul\":45117:45131   */\n          mstore\n            /* \"#utility.yul\":45161:45165   */\n          0x20\n            /* \"#utility.yul\":45158:45159   */\n          0x00\n            /* \"#utility.yul\":45148:45166   */\n          keccak256\n            /* \"#utility.yul\":45140:45166   */\n          swap1\n          pop\n            /* \"#utility.yul\":45032:45173   */\n          swap2\n          swap1\n          pop\n          jump\t// out\n            /* \"#utility.yul\":45179:45272   */\n        tag_435:\n            /* \"#utility.yul\":45216:45222   */\n          0x00\n            /* \"#utility.yul\":45263:45265   */\n          0x20\n            /* \"#utility.yul\":45258:45260   */\n          0x1f\n            /* \"#utility.yul\":45251:45256   */\n          dup4\n            /* \"#utility.yul\":45247:45261   */\n          add\n            /* \"#utility.yul\":45243:45266   */\n          div\n            /* \"#utility.yul\":45233:45266   */\n          swap1\n          pop\n            /* \"#utility.yul\":45179:45272   */\n          swap2\n          swap1\n          pop\n          jump\t// out\n            /* \"#utility.yul\":45278:45385   */\n        tag_436:\n            /* \"#utility.yul\":45322:45330   */\n          0x00\n            /* \"#utility.yul\":45372:45377   */\n          dup3\n            /* \"#utility.yul\":45366:45370   */\n          dup3\n            /* \"#utility.yul\":45362:45378   */\n          shl\n            /* \"#utility.yul\":45341:45378   */\n          swap1\n          pop\n            /* \"#utility.yul\":45278:45385   */\n          swap3\n          swap2\n          pop\n          pop\n          jump\t// out\n            /* \"#utility.yul\":45391:45784   */\n        tag_437:\n            /* \"#utility.yul\":45460:45466   */\n          0x00\n            /* \"#utility.yul\":45510:45511   */\n          0x08\n            /* \"#utility.yul\":45498:45508   */\n          dup4\n            /* \"#utility.yul\":45494:45512   */\n          mul\n            /* \"#utility.yul\":45533:45630   */\n          tag_810\n            /* \"#utility.yul\":45563:45629   */\n          0xffffffffffffffffffffffffffffffffffffffffffffffffffffffffffffffff\n            /* \"#utility.yul\":45552:45561   */\n          dup3\n            /* \"#utility.yul\":45533:45630   */\n          tag_436\n          jump\t// in\n        tag_810:\n            /* \"#utility.yul\":45651:45690   */\n          tag_811\n            /* \"#utility.yul\":45681:45689   */\n          dup7\n            /* \"#utility.yul\":45670:45679   */\n          dup4\n            /* \"#utility.yul\":45651:45690   */\n          tag_436\n          jump\t// in\n        tag_811:\n            /* \"#utility.yul\":45639:45690   */\n          swap6\n          pop\n            /* \"#utility.yul\":45723:45727   */\n          dup1\n            /* \"#utility.yul\":45719:45728   */\n          not\n            /* \"#utility.yul\":45712:45717   */\n          dup5\n            /* \"#utility.yul\":45708:45729   */\n          and\n            /* \"#utility.yul\":45699:45729   */\n          swap4\n          pop\n            /* \"#utility.yul\":45772:45776   */\n          dup1\n            /* \"#utility.yul\":45762:45770   */\n          dup7\n            /* \"#utility.yul\":45758:45777   */\n          and\n            /* \"#utility.yul\":45751:45756   */\n          dup5\n            /* \"#utility.yul\":45748:45778   */\n          or\n            /* \"#utility.yul\":45738:45778   */\n          swap3\n          pop\n            /* \"#utility.yul\":45467:45784   */\n          pop\n          pop\n            /* \"#utility.yul\":45391:45784   */\n          swap4\n          swap3\n          pop\n          pop\n          pop\n          jump\t// out\n            /* \"#utility.yul\":45790:45850   */\n        tag_438:\n            /* \"#utility.yul\":45818:45821   */\n          0x00\n            /* \"#utility.yul\":45839:45844   */\n          dup2\n            /* \"#utility.yul\":45832:45844   */\n          swap1\n          pop\n            /* \"#utility.yul\":45790:45850   */\n          swap2\n          swap1\n          pop\n          jump\t// out\n            /* \"#utility.yul\":45856:45998   */\n        tag_439:\n            /* \"#utility.yul\":45906:45915   */\n          0x00\n            /* \"#utility.yul\":45939:45992   */\n          tag_814\n            /* \"#utility.yul\":45957:45991   */\n          tag_815\n            /* \"#utility.yul\":45966:45990   */\n          tag_816\n            /* \"#utility.yul\":45984:45989   */\n          dup5\n            /* \"#utility.yul\":45966:45990   */\n          tag_391\n          jump\t// in\n        tag_816:\n            /* \"#utility.yul\":45957:45991   */\n          tag_438\n          jump\t// in\n        tag_815:\n            /* \"#utility.yul\":45939:45992   */\n          tag_391\n          jump\t// in\n        tag_814:\n            /* \"#utility.yul\":45926:45992   */\n          swap1\n          pop\n            /* \"#utility.yul\":45856:45998   */\n          swap2\n          swap1\n          pop\n          jump\t// out\n            /* \"#utility.yul\":46004:46079   */\n        tag_440:\n            /* \"#utility.yul\":46047:46050   */\n          0x00\n            /* \"#utility.yul\":46068:46073   */\n          dup2\n            /* \"#utility.yul\":46061:46073   */\n          swap1\n          pop\n            /* \"#utility.yul\":46004:46079   */\n          swap2\n          swap1\n          pop\n          jump\t// out\n            /* \"#utility.yul\":46085:46354   */\n        tag_441:\n            /* \"#utility.yul\":46195:46234   */\n          tag_819\n            /* \"#utility.yul\":46226:46233   */\n          dup4\n            /* \"#utility.yul\":46195:46234   */\n          tag_439\n          jump\t// in\n        tag_819:\n            /* \"#utility.yul\":46256:46347   */\n          tag_820\n            /* \"#utility.yul\":46305:46346   */\n          tag_821\n            /* \"#utility.yul\":46329:46345   */\n          dup3\n            /* \"#utility.yul\":46305:46346   */\n          tag_440\n          jump\t// in\n        tag_821:\n            /* \"#utility.yul\":46297:46303   */\n          dup5\n            /* \"#utility.yul\":46290:46294   */\n          dup5\n            /* \"#utility.yul\":46284:46295   */\n          sload\n            /* \"#utility.yul\":46256:46347   */\n          tag_437\n          jump\t// in\n        tag_820:\n            /* \"#utility.yul\":46250:46254   */\n          dup3\n            /* \"#utility.yul\":46243:46348   */\n          sstore\n            /* \"#utility.yul\":46161:46354   */\n          pop\n            /* \"#utility.yul\":46085:46354   */\n          pop\n          pop\n          pop\n          jump\t// out\n            /* \"#utility.yul\":46360:46433   */\n        tag_442:\n            /* \"#utility.yul\":46405:46408   */\n          0x00\n            /* \"#utility.yul\":46360:46433   */\n          swap1\n          jump\t// out\n            /* \"#utility.yul\":46439:46628   */\n        tag_443:\n            /* \"#utility.yul\":46516:46548   */\n          tag_824\n          tag_442\n          jump\t// in\n        tag_824:\n            /* \"#utility.yul\":46557:46622   */\n          tag_825\n            /* \"#utility.yul\":46615:46621   */\n          dup2\n            /* \"#utility.yul\":46607:46613   */\n          dup5\n            /* \"#utility.yul\":46601:46605   */\n          dup5\n            /* \"#utility.yul\":46557:46622   */\n          tag_441\n          jump\t// in\n        tag_825:\n            /* \"#utility.yul\":46492:46628   */\n          pop\n            /* \"#utility.yul\":46439:46628   */\n          pop\n          pop\n          jump\t// out\n            /* \"#utility.yul\":46634:46820   */\n        tag_444:\n            /* \"#utility.yul\":46694:46814   */\n        tag_827:\n            /* \"#utility.yul\":46711:46714   */\n          dup2\n            /* \"#utility.yul\":46704:46709   */\n          dup2\n            /* \"#utility.yul\":46701:46715   */\n          lt\n            /* \"#utility.yul\":46694:46814   */\n          iszero\n          tag_829\n          jumpi\n            /* \"#utility.yul\":46765:46804   */\n          tag_830\n            /* \"#utility.yul\":46802:46803   */\n          0x00\n            /* \"#utility.yul\":46795:46800   */\n          dup3\n            /* \"#utility.yul\":46765:46804   */\n          tag_443\n          jump\t// in\n        tag_830:\n            /* \"#utility.yul\":46738:46739   */\n          0x01\n            /* \"#utility.yul\":46731:46736   */\n          dup2\n            /* \"#utility.yul\":46727:46740   */\n          add\n            /* \"#utility.yul\":46718:46740   */\n          swap1\n          pop\n            /* \"#utility.yul\":46694:46814   */\n          jump(tag_827)\n        tag_829:\n            /* \"#utility.yul\":46634:46820   */\n          pop\n          pop\n          jump\t// out\n            /* \"#utility.yul\":46826:47369   */\n        tag_445:\n            /* \"#utility.yul\":46927:46929   */\n          0x1f\n            /* \"#utility.yul\":46922:46925   */\n          dup3\n            /* \"#utility.yul\":46919:46930   */\n          gt\n            /* \"#utility.yul\":46916:47362   */\n          iszero\n          tag_832\n          jumpi\n            /* \"#utility.yul\":46961:46999   */\n          tag_833\n            /* \"#utility.yul\":46993:46998   */\n          dup2\n            /* \"#utility.yul\":46961:46999   */\n          tag_434\n          jump\t// in\n        tag_833:\n            /* \"#utility.yul\":47045:47074   */\n          tag_834\n            /* \"#utility.yul\":47063:47073   */\n          dup5\n            /* \"#utility.yul\":47045:47074   */\n          tag_435\n          jump\t// in\n        tag_834:\n            /* \"#utility.yul\":47035:47043   */\n          dup2\n            /* \"#utility.yul\":47031:47075   */\n          add\n            /* \"#utility.yul\":47228:47230   */\n          0x20\n            /* \"#utility.yul\":47216:47226   */\n          dup6\n            /* \"#utility.yul\":47213:47231   */\n          lt\n            /* \"#utility.yul\":47210:47259   */\n          iszero\n          tag_835\n          jumpi\n            /* \"#utility.yul\":47249:47257   */\n          dup2\n            /* \"#utility.yul\":47234:47257   */\n          swap1\n          pop\n            /* \"#utility.yul\":47210:47259   */\n        tag_835:\n            /* \"#utility.yul\":47272:47352   */\n          tag_836\n            /* \"#utility.yul\":47328:47350   */\n          tag_837\n            /* \"#utility.yul\":47346:47349   */\n          dup6\n            /* \"#utility.yul\":47328:47350   */\n          tag_435\n          jump\t// in\n        tag_837:\n            /* \"#utility.yul\":47318:47326   */\n          dup4\n            /* \"#utility.yul\":47314:47351   */\n          add\n            /* \"#utility.yul\":47301:47312   */\n          dup3\n            /* \"#utility.yul\":47272:47352   */\n          tag_444\n          jump\t// in\n        tag_836:\n            /* \"#utility.yul\":46931:47362   */\n          pop\n          pop\n            /* \"#utility.yul\":46916:47362   */\n        tag_832:\n            /* \"#utility.yul\":46826:47369   */\n          pop\n          pop\n          pop\n          jump\t// out\n            /* \"#utility.yul\":47375:47492   */\n        tag_446:\n            /* \"#utility.yul\":47429:47437   */\n          0x00\n            /* \"#utility.yul\":47479:47484   */\n          dup3\n            /* \"#utility.yul\":47473:47477   */\n          dup3\n            /* \"#utility.yul\":47469:47485   */\n          shr\n            /* \"#utility.yul\":47448:47485   */\n          swap1\n          pop\n            /* \"#utility.yul\":47375:47492   */\n          swap3\n          swap2\n          pop\n          pop\n          jump\t// out\n            /* \"#utility.yul\":47498:47667   */\n        tag_447:\n            /* \"#utility.yul\":47542:47548   */\n          0x00\n            /* \"#utility.yul\":47575:47626   */\n          tag_840\n            /* \"#utility.yul\":47623:47624   */\n          0x00\n            /* \"#utility.yul\":47619:47625   */\n          not\n            /* \"#utility.yul\":47611:47616   */\n          dup5\n            /* \"#utility.yul\":47608:47609   */\n          0x08\n            /* \"#utility.yul\":47604:47617   */\n          mul\n            /* \"#utility.yul\":47575:47626   */\n          tag_446\n          jump\t// in\n        tag_840:\n            /* \"#utility.yul\":47571:47627   */\n          not\n            /* \"#utility.yul\":47656:47660   */\n          dup1\n            /* \"#utility.yul\":47650:47654   */\n          dup4\n            /* \"#utility.yul\":47646:47661   */\n          and\n            /* \"#utility.yul\":47636:47661   */\n          swap2\n          pop\n            /* \"#utility.yul\":47549:47667   */\n          pop\n            /* \"#utility.yul\":47498:47667   */\n          swap3\n          swap2\n          pop\n          pop\n          jump\t// out\n            /* \"#utility.yul\":47672:47967   */\n        tag_448:\n            /* \"#utility.yul\":47748:47752   */\n          0x00\n            /* \"#utility.yul\":47894:47923   */\n          tag_842\n            /* \"#utility.yul\":47919:47922   */\n          dup4\n            /* \"#utility.yul\":47913:47917   */\n          dup4\n            /* \"#utility.yul\":47894:47923   */\n          tag_447\n          jump\t// in\n        tag_842:\n            /* \"#utility.yul\":47886:47923   */\n          swap2\n          pop\n            /* \"#utility.yul\":47956:47959   */\n          dup3\n            /* \"#utility.yul\":47953:47954   */\n          0x02\n            /* \"#utility.yul\":47949:47960   */\n          mul\n            /* \"#utility.yul\":47943:47947   */\n          dup3\n            /* \"#utility.yul\":47940:47961   */\n          or\n            /* \"#utility.yul\":47932:47961   */\n          swap1\n          pop\n            /* \"#utility.yul\":47672:47967   */\n          swap3\n          swap2\n          pop\n          pop\n          jump\t// out\n            /* \"#utility.yul\":47972:49367   */\n        tag_63:\n            /* \"#utility.yul\":48089:48126   */\n          tag_844\n            /* \"#utility.yul\":48122:48125   */\n          dup3\n            /* \"#utility.yul\":48089:48126   */\n          tag_403\n          jump\t// in\n        tag_844:\n            /* \"#utility.yul\":48191:48209   */\n          0xffffffffffffffff\n            /* \"#utility.yul\":48183:48189   */\n          dup2\n            /* \"#utility.yul\":48180:48210   */\n          gt\n            /* \"#utility.yul\":48177:48233   */\n          iszero\n          tag_845\n          jumpi\n            /* \"#utility.yul\":48213:48231   */\n          tag_846\n          tag_381\n          jump\t// in\n        tag_846:\n            /* \"#utility.yul\":48177:48233   */\n        tag_845:\n            /* \"#utility.yul\":48257:48295   */\n          tag_847\n            /* \"#utility.yul\":48289:48293   */\n          dup3\n            /* \"#utility.yul\":48283:48294   */\n          sload\n            /* \"#utility.yul\":48257:48295   */\n          tag_159\n          jump\t// in\n        tag_847:\n            /* \"#utility.yul\":48342:48409   */\n          tag_848\n            /* \"#utility.yul\":48402:48408   */\n          dup3\n            /* \"#utility.yul\":48394:48400   */\n          dup3\n            /* \"#utility.yul\":48388:48392   */\n          dup6\n            /* \"#utility.yul\":48342:48409   */\n          tag_445\n          jump\t// in\n        tag_848:\n            /* \"#utility.yul\":48436:48437   */\n          0x00\n            /* \"#utility.yul\":48460:48464   */\n          0x20\n            /* \"#utility.yul\":48447:48464   */\n          swap1\n          pop\n            /* \"#utility.yul\":48492:48494   */\n          0x1f\n            /* \"#utility.yul\":48484:48490   */\n          dup4\n            /* \"#utility.yul\":48481:48495   */\n          gt\n            /* \"#utility.yul\":48509:48510   */\n          0x01\n            /* \"#utility.yul\":48504:49122   */\n          dup2\n          eq\n          tag_850\n          jumpi\n            /* \"#utility.yul\":49166:49167   */\n          0x00\n            /* \"#utility.yul\":49183:49189   */\n          dup5\n            /* \"#utility.yul\":49180:49257   */\n          iszero\n          tag_851\n          jumpi\n            /* \"#utility.yul\":49232:49241   */\n          dup3\n            /* \"#utility.yul\":49227:49230   */\n          dup8\n            /* \"#utility.yul\":49223:49242   */\n          add\n            /* \"#utility.yul\":49217:49243   */\n          mload\n            /* \"#utility.yul\":49208:49243   */\n          swap1\n          pop\n            /* \"#utility.yul\":49180:49257   */\n        tag_851:\n            /* \"#utility.yul\":49283:49350   */\n          tag_852\n            /* \"#utility.yul\":49343:49349   */\n          dup6\n            /* \"#utility.yul\":49336:49341   */\n          dup3\n            /* \"#utility.yul\":49283:49350   */\n          tag_448\n          jump\t// in\n        tag_852:\n            /* \"#utility.yul\":49277:49281   */\n          dup7\n            /* \"#utility.yul\":49270:49351   */\n          sstore\n            /* \"#utility.yul\":49139:49361   */\n          pop\n            /* \"#utility.yul\":48474:49361   */\n          jump(tag_849)\n            /* \"#utility.yul\":48504:49122   */\n        tag_850:\n            /* \"#utility.yul\":48556:48560   */\n          0x1f\n            /* \"#utility.yul\":48552:48561   */\n          not\n            /* \"#utility.yul\":48544:48550   */\n          dup5\n            /* \"#utility.yul\":48540:48562   */\n          and\n            /* \"#utility.yul\":48590:48627   */\n          tag_853\n            /* \"#utility.yul\":48622:48626   */\n          dup7\n            /* \"#utility.yul\":48590:48627   */\n          tag_434\n          jump\t// in\n        tag_853:\n            /* \"#utility.yul\":48649:48650   */\n          0x00\n            /* \"#utility.yul\":48663:48871   */\n        tag_854:\n            /* \"#utility.yul\":48677:48684   */\n          dup3\n            /* \"#utility.yul\":48674:48675   */\n          dup2\n            /* \"#utility.yul\":48671:48685   */\n          lt\n            /* \"#utility.yul\":48663:48871   */\n          iszero\n          tag_856\n          jumpi\n            /* \"#utility.yul\":48756:48765   */\n          dup5\n            /* \"#utility.yul\":48751:48754   */\n          dup10\n            /* \"#utility.yul\":48747:48766   */\n          add\n            /* \"#utility.yul\":48741:48767   */\n          mload\n            /* \"#utility.yul\":48733:48739   */\n          dup3\n            /* \"#utility.yul\":48726:48768   */\n          sstore\n            /* \"#utility.yul\":48807:48808   */\n          0x01\n            /* \"#utility.yul\":48799:48805   */\n          dup3\n            /* \"#utility.yul\":48795:48809   */\n          add\n            /* \"#utility.yul\":48785:48809   */\n          swap2\n          pop\n            /* \"#utility.yul\":48854:48856   */\n          0x20\n            /* \"#utility.yul\":48843:48852   */\n          dup6\n            /* \"#utility.yul\":48839:48857   */\n          add\n            /* \"#utility.yul\":48826:48857   */\n          swap5\n          pop\n            /* \"#utility.yul\":48700:48704   */\n          0x20\n            /* \"#utility.yul\":48697:48698   */\n          dup2\n            /* \"#utility.yul\":48693:48705   */\n          add\n            /* \"#utility.yul\":48688:48705   */\n          swap1\n          pop\n            /* \"#utility.yul\":48663:48871   */\n          jump(tag_854)\n        tag_856:\n            /* \"#utility.yul\":48899:48905   */\n          dup7\n            /* \"#utility.yul\":48890:48897   */\n          dup4\n            /* \"#utility.yul\":48887:48906   */\n          lt\n            /* \"#utility.yul\":48884:49063   */\n          iszero\n          tag_857\n          jumpi\n            /* \"#utility.yul\":48957:48966   */\n          dup5\n            /* \"#utility.yul\":48952:48955   */\n          dup10\n            /* \"#utility.yul\":48948:48967   */\n          add\n            /* \"#utility.yul\":48942:48968   */\n          mload\n            /* \"#utility.yul\":49000:49048   */\n          tag_858\n            /* \"#utility.yul\":49042:49046   */\n          0x1f\n            /* \"#utility.yul\":49034:49040   */\n          dup10\n            /* \"#utility.yul\":49030:49047   */\n          and\n            /* \"#utility.yul\":49019:49028   */\n          dup3\n            /* \"#utility.yul\":49000:49048   */\n          tag_447\n          jump\t// in\n        tag_858:\n            /* \"#utility.yul\":48992:48998   */\n          dup4\n            /* \"#utility.yul\":48985:49049   */\n          sstore\n            /* \"#utility.yul\":48907:49063   */\n          pop\n            /* \"#utility.yul\":48884:49063   */\n        tag_857:\n            /* \"#utility.yul\":49109:49110   */\n          0x01\n            /* \"#utility.yul\":49105:49106   */\n          0x02\n            /* \"#utility.yul\":49097:49103   */\n          dup9\n            /* \"#utility.yul\":49093:49107   */\n          mul\n            /* \"#utility.yul\":49089:49111   */\n          add\n            /* \"#utility.yul\":49083:49087   */\n          dup9\n            /* \"#utility.yul\":49076:49112   */\n          sstore\n            /* \"#utility.yul\":48511:49122   */\n          pop\n          pop\n          pop\n            /* \"#utility.yul\":48474:49361   */\n        tag_849:\n          pop\n            /* \"#utility.yul\":48064:49367   */\n          pop\n          pop\n          pop\n            /* \"#utility.yul\":47972:49367   */\n          pop\n          pop\n          jump\t// out\n            /* \"#utility.yul\":49373:49542   */\n        tag_449:\n            /* \"#utility.yul\":49457:49468   */\n          0x00\n            /* \"#utility.yul\":49491:49497   */\n          dup3\n            /* \"#utility.yul\":49486:49489   */\n          dup3\n            /* \"#utility.yul\":49479:49498   */\n          mstore\n            /* \"#utility.yul\":49531:49535   */\n          0x20\n            /* \"#utility.yul\":49526:49529   */\n          dup3\n            /* \"#utility.yul\":49522:49536   */\n          add\n            /* \"#utility.yul\":49507:49536   */\n          swap1\n          pop\n            /* \"#utility.yul\":49373:49542   */\n          swap3\n          swap2\n          pop\n          pop\n          jump\t// out\n            /* \"#utility.yul\":49548:49925   */\n        tag_450:\n            /* \"#utility.yul\":49636:49639   */\n          0x00\n            /* \"#utility.yul\":49664:49703   */\n          tag_861\n            /* \"#utility.yul\":49697:49702   */\n          dup3\n            /* \"#utility.yul\":49664:49703   */\n          tag_403\n          jump\t// in\n        tag_861:\n            /* \"#utility.yul\":49719:49790   */\n          tag_862\n            /* \"#utility.yul\":49783:49789   */\n          dup2\n            /* \"#utility.yul\":49778:49781   */\n          dup6\n            /* \"#utility.yul\":49719:49790   */\n          tag_449\n          jump\t// in\n        tag_862:\n            /* \"#utility.yul\":49712:49790   */\n          swap4\n          pop\n            /* \"#utility.yul\":49799:49864   */\n          tag_863\n            /* \"#utility.yul\":49857:49863   */\n          dup2\n            /* \"#utility.yul\":49852:49855   */\n          dup6\n            /* \"#utility.yul\":49845:49849   */\n          0x20\n            /* \"#utility.yul\":49838:49843   */\n          dup7\n            /* \"#utility.yul\":49834:49850   */\n          add\n            /* \"#utility.yul\":49799:49864   */\n          tag_405\n          jump\t// in\n        tag_863:\n            /* \"#utility.yul\":49889:49918   */\n          tag_864\n            /* \"#utility.yul\":49911:49917   */\n          dup2\n            /* \"#utility.yul\":49889:49918   */\n          tag_380\n          jump\t// in\n        tag_864:\n            /* \"#utility.yul\":49884:49887   */\n          dup5\n            /* \"#utility.yul\":49880:49919   */\n          add\n            /* \"#utility.yul\":49873:49919   */\n          swap2\n          pop\n            /* \"#utility.yul\":49640:49925   */\n          pop\n            /* \"#utility.yul\":49548:49925   */\n          swap3\n          swap2\n          pop\n          pop\n          jump\t// out\n            /* \"#utility.yul\":49931:50666   */\n        tag_86:\n            /* \"#utility.yul\":50148:50152   */\n          0x00\n            /* \"#utility.yul\":50186:50189   */\n          0x80\n            /* \"#utility.yul\":50175:50184   */\n          dup3\n            /* \"#utility.yul\":50171:50190   */\n          add\n            /* \"#utility.yul\":50163:50190   */\n          swap1\n          pop\n            /* \"#utility.yul\":50200:50271   */\n          tag_866\n            /* \"#utility.yul\":50268:50269   */\n          0x00\n            /* \"#utility.yul\":50257:50266   */\n          dup4\n            /* \"#utility.yul\":50253:50270   */\n          add\n            /* \"#utility.yul\":50244:50250   */\n          dup8\n            /* \"#utility.yul\":50200:50271   */\n          tag_431\n          jump\t// in\n        tag_866:\n            /* \"#utility.yul\":50318:50327   */\n          dup2\n            /* \"#utility.yul\":50312:50316   */\n          dup2\n            /* \"#utility.yul\":50308:50328   */\n          sub\n            /* \"#utility.yul\":50303:50305   */\n          0x20\n            /* \"#utility.yul\":50292:50301   */\n          dup4\n            /* \"#utility.yul\":50288:50306   */\n          add\n            /* \"#utility.yul\":50281:50329   */\n          mstore\n            /* \"#utility.yul\":50346:50424   */\n          tag_867\n            /* \"#utility.yul\":50419:50423   */\n          dup2\n            /* \"#utility.yul\":50410:50416   */\n          dup7\n            /* \"#utility.yul\":50346:50424   */\n          tag_450\n          jump\t// in\n        tag_867:\n            /* \"#utility.yul\":50338:50424   */\n          swap1\n          pop\n            /* \"#utility.yul\":50471:50480   */\n          dup2\n            /* \"#utility.yul\":50465:50469   */\n          dup2\n            /* \"#utility.yul\":50461:50481   */\n          sub\n            /* \"#utility.yul\":50456:50458   */\n          0x40\n            /* \"#utility.yul\":50445:50454   */\n          dup4\n            /* \"#utility.yul\":50441:50459   */\n          add\n            /* \"#utility.yul\":50434:50482   */\n          mstore\n            /* \"#utility.yul\":50499:50577   */\n          tag_868\n            /* \"#utility.yul\":50572:50576   */\n          dup2\n            /* \"#utility.yul\":50563:50569   */\n          dup6\n            /* \"#utility.yul\":50499:50577   */\n          tag_450\n          jump\t// in\n        tag_868:\n            /* \"#utility.yul\":50491:50577   */\n          swap1\n          pop\n            /* \"#utility.yul\":50587:50659   */\n          tag_869\n            /* \"#utility.yul\":50655:50657   */\n          0x60\n            /* \"#utility.yul\":50644:50653   */\n          dup4\n            /* \"#utility.yul\":50640:50658   */\n          add\n            /* \"#utility.yul\":50631:50637   */\n          dup5\n            /* \"#utility.yul\":50587:50659   */\n          tag_431\n          jump\t// in\n        tag_869:\n            /* \"#utility.yul\":49931:50666   */\n          swap6\n          swap5\n          pop\n          pop\n          pop\n          pop\n          pop\n          jump\t// out\n\n        auxdata: 0xa26469706673582212206ef32735405f9ba47712587c707a7944792965af3003fb74260656d027175a1564736f6c63430008110033\n    }\n}\n\nsub_2: assembly {\n        /* \"ElectronicMedicalRecords.sol\":10180:10995  contract PatientVerificator {... */\n      mstore(0x40, 0x80)\n        /* \"ElectronicMedicalRecords.sol\":10339:10400  constructor(address _admin) {... */\n      callvalue\n      dup1\n      iszero\n      tag_1\n      jumpi\n      0x00\n      dup1\n      revert\n    tag_1:\n      pop\n      mload(0x40)\n      sub(codesize, bytecodeSize)\n      dup1\n      bytecodeSize\n      dup4\n      codecopy\n      dup2\n      dup2\n      add\n      0x40\n      mstore\n      dup2\n      add\n      swap1\n      tag_2\n      swap2\n      swap1\n      tag_3\n      jump\t// in\n    tag_2:\n        /* \"ElectronicMedicalRecords.sol\":10386:10392  _admin */\n      dup1\n        /* \"ElectronicMedicalRecords.sol\":10378:10383  admin */\n      0x00\n      dup1\n        /* \"ElectronicMedicalRecords.sol\":10378:10392  admin = _admin */\n      0x0100\n      exp\n      dup2\n      sload\n      dup2\n      0xffffffffffffffffffffffffffffffffffffffff\n      mul\n      not\n      and\n      swap1\n      dup4\n      0xffffffffffffffffffffffffffffffffffffffff\n      and\n      mul\n      or\n      swap1\n      sstore\n      pop\n        /* \"ElectronicMedicalRecords.sol\":10339:10400  constructor(address _admin) {... */\n      pop\n        /* \"ElectronicMedicalRecords.sol\":10180:10995  contract PatientVerificator {... */\n      jump(tag_6)\n        /* \"#utility.yul\":88:205   */\n    tag_8:\n        /* \"#utility.yul\":197:198   */\n      0x00\n        /* \"#utility.yul\":194:195   */\n      dup1\n        /* \"#utility.yul\":187:199   */\n      revert\n        /* \"#utility.yul\":334:460   */\n    tag_10:\n        /* \"#utility.yul\":371:378   */\n      0x00\n        /* \"#utility.yul\":411:453   */\n      0xffffffffffffffffffffffffffffffffffffffff\n        /* \"#utility.yul\":404:409   */\n      dup3\n        /* \"#utility.yul\":400:454   */\n      and\n        /* \"#utility.yul\":389:454   */\n      swap1\n      pop\n        /* \"#utility.yul\":334:460   */\n      swap2\n      swap1\n      pop\n      jump\t// out\n        /* \"#utility.yul\":466:562   */\n    tag_11:\n        /* \"#utility.yul\":503:510   */\n      0x00\n        /* \"#utility.yul\":532:556   */\n      tag_20\n        /* \"#utility.yul\":550:555   */\n      dup3\n        /* \"#utility.yul\":532:556   */\n      tag_10\n      jump\t// in\n    tag_20:\n        /* \"#utility.yul\":521:556   */\n      swap1\n      pop\n        /* \"#utility.yul\":466:562   */\n      swap2\n      swap1\n      pop\n      jump\t// out\n        /* \"#utility.yul\":568:690   */\n    tag_12:\n        /* \"#utility.yul\":641:665   */\n      tag_22\n        /* \"#utility.yul\":659:664   */\n      dup2\n        /* \"#utility.yul\":641:665   */\n      tag_11\n      jump\t// in\n    tag_22:\n        /* \"#utility.yul\":634:639   */\n      dup2\n        /* \"#utility.yul\":631:666   */\n      eq\n        /* \"#utility.yul\":621:684   */\n      tag_23\n      jumpi\n        /* \"#utility.yul\":680:681   */\n      0x00\n        /* \"#utility.yul\":677:678   */\n      dup1\n        /* \"#utility.yul\":670:682   */\n      revert\n        /* \"#utility.yul\":621:684   */\n    tag_23:\n        /* \"#utility.yul\":568:690   */\n      pop\n      jump\t// out\n        /* \"#utility.yul\":696:839   */\n    tag_13:\n        /* \"#utility.yul\":753:758   */\n      0x00\n        /* \"#utility.yul\":784:790   */\n      dup2\n        /* \"#utility.yul\":778:791   */\n      mload\n        /* \"#utility.yul\":769:791   */\n      swap1\n      pop\n        /* \"#utility.yul\":800:833   */\n      tag_25\n        /* \"#utility.yul\":827:832   */\n      dup2\n        /* \"#utility.yul\":800:833   */\n      tag_12\n      jump\t// in\n    tag_25:\n        /* \"#utility.yul\":696:839   */\n      swap3\n      swap2\n      pop\n      pop\n      jump\t// out\n        /* \"#utility.yul\":845:1196   */\n    tag_3:\n        /* \"#utility.yul\":915:921   */\n      0x00\n        /* \"#utility.yul\":964:966   */\n      0x20\n        /* \"#utility.yul\":952:961   */\n      dup3\n        /* \"#utility.yul\":943:950   */\n      dup5\n        /* \"#utility.yul\":939:962   */\n      sub\n        /* \"#utility.yul\":935:967   */\n      slt\n        /* \"#utility.yul\":932:1051   */\n      iszero\n      tag_27\n      jumpi\n        /* \"#utility.yul\":970:1049   */\n      tag_28\n      tag_8\n      jump\t// in\n    tag_28:\n        /* \"#utility.yul\":932:1051   */\n    tag_27:\n        /* \"#utility.yul\":1090:1091   */\n      0x00\n        /* \"#utility.yul\":1115:1179   */\n      tag_29\n        /* \"#utility.yul\":1171:1178   */\n      dup5\n        /* \"#utility.yul\":1162:1168   */\n      dup3\n        /* \"#utility.yul\":1151:1160   */\n      dup6\n        /* \"#utility.yul\":1147:1169   */\n      add\n        /* \"#utility.yul\":1115:1179   */\n      tag_13\n      jump\t// in\n    tag_29:\n        /* \"#utility.yul\":1105:1179   */\n      swap2\n      pop\n        /* \"#utility.yul\":1061:1189   */\n      pop\n        /* \"#utility.yul\":845:1196   */\n      swap3\n      swap2\n      pop\n      pop\n      jump\t// out\n        /* \"ElectronicMedicalRecords.sol\":10180:10995  contract PatientVerificator {... */\n    tag_6:\n      dataSize(sub_0)\n      dup1\n      dataOffset(sub_0)\n      0x00\n      codecopy\n      0x00\n      return\n    stop\n\n    sub_0: assembly {\n            /* \"ElectronicMedicalRecords.sol\":10180:10995  contract PatientVerificator {... */\n          mstore(0x40, 0x80)\n          callvalue\n          dup1\n          iszero\n          tag_1\n          jumpi\n          0x00\n          dup1\n          revert\n        tag_1:\n          pop\n          jumpi(tag_2, lt(calldatasize, 0x04))\n          shr(0xe0, calldataload(0x00))\n          dup1\n          0x18a231a9\n          eq\n          tag_3\n          jumpi\n          dup1\n          0x63a9c3d7\n          eq\n          tag_4\n          jumpi\n          dup1\n          0x6d263ceb\n          eq\n          tag_5\n          jumpi\n        tag_2:\n          0x00\n          dup1\n          revert\n            /* \"ElectronicMedicalRecords.sol\":10787:10904  function getAllPatients() onlyAdmin public view returns(address[] memory _address) {... */\n        tag_3:\n          tag_6\n          tag_7\n          jump\t// in\n        tag_6:\n          mload(0x40)\n          tag_8\n          swap2\n          swap1\n          tag_9\n          jump\t// in\n        tag_8:\n          mload(0x40)\n          dup1\n          swap2\n          sub\n          swap1\n          return\n            /* \"ElectronicMedicalRecords.sol\":10590:10779  function verify(address _address) public view returns(bool _bool) {... */\n        tag_4:\n          tag_10\n          0x04\n          dup1\n          calldatasize\n          sub\n          dup2\n          add\n          swap1\n          tag_11\n          swap2\n          swap1\n          tag_12\n          jump\t// in\n        tag_11:\n          tag_13\n          jump\t// in\n        tag_10:\n          mload(0x40)\n          tag_14\n          swap2\n          swap1\n          tag_15\n          jump\t// in\n        tag_14:\n          mload(0x40)\n          dup1\n          swap2\n          sub\n          swap1\n          return\n            /* \"ElectronicMedicalRecords.sol\":10408:10582  function addPatient(address _address) public {... */\n        tag_5:\n          tag_16\n          0x04\n          dup1\n          calldatasize\n          sub\n          dup2\n          add\n          swap1\n          tag_17\n          swap2\n          swap1\n          tag_12\n          jump\t// in\n        tag_17:\n          tag_18\n          jump\t// in\n        tag_16:\n          stop\n            /* \"ElectronicMedicalRecords.sol\":10787:10904  function getAllPatients() onlyAdmin public view returns(address[] memory _address) {... */\n        tag_7:\n            /* \"ElectronicMedicalRecords.sol\":10843:10868  address[] memory _address */\n          0x60\n            /* \"ElectronicMedicalRecords.sol\":10966:10971  admin */\n          0x00\n          dup1\n          sload\n          swap1\n          0x0100\n          exp\n          swap1\n          div\n          0xffffffffffffffffffffffffffffffffffffffff\n          and\n            /* \"ElectronicMedicalRecords.sol\":10952:10971  msg.sender == admin */\n          0xffffffffffffffffffffffffffffffffffffffff\n          and\n            /* \"ElectronicMedicalRecords.sol\":10952:10962  msg.sender */\n          caller\n            /* \"ElectronicMedicalRecords.sol\":10952:10971  msg.sender == admin */\n          0xffffffffffffffffffffffffffffffffffffffff\n          and\n          eq\n            /* \"ElectronicMedicalRecords.sol\":10944:10972  require(msg.sender == admin) */\n          tag_20\n          jumpi\n          0x00\n          dup1\n          revert\n        tag_20:\n            /* \"ElectronicMedicalRecords.sol\":10888:10896  patients */\n          0x01\n            /* \"ElectronicMedicalRecords.sol\":10881:10896  return patients */\n          dup1\n          sload\n          dup1\n          0x20\n          mul\n          0x20\n          add\n          mload(0x40)\n          swap1\n          dup2\n          add\n          0x40\n          mstore\n          dup1\n          swap3\n          swap2\n          swap1\n          dup2\n          dup2\n          mstore\n          0x20\n          add\n          dup3\n          dup1\n          sload\n          dup1\n          iszero\n          tag_22\n          jumpi\n          0x20\n          mul\n          dup3\n          add\n          swap2\n          swap1\n          0x00\n          mstore\n          keccak256(0x00, 0x20)\n          swap1\n        tag_23:\n          dup2\n          0x00\n          swap1\n          sload\n          swap1\n          0x0100\n          exp\n          swap1\n          div\n          0xffffffffffffffffffffffffffffffffffffffff\n          and\n          0xffffffffffffffffffffffffffffffffffffffff\n          and\n          dup2\n          mstore\n          0x20\n          add\n          swap1\n          0x01\n          add\n          swap1\n          dup1\n          dup4\n          gt\n          tag_23\n          jumpi\n        tag_22:\n          pop\n          pop\n          pop\n          pop\n          pop\n          swap1\n          pop\n            /* \"ElectronicMedicalRecords.sol\":10787:10904  function getAllPatients() onlyAdmin public view returns(address[] memory _address) {... */\n          swap1\n          jump\t// out\n            /* \"ElectronicMedicalRecords.sol\":10590:10779  function verify(address _address) public view returns(bool _bool) {... */\n        tag_13:\n            /* \"ElectronicMedicalRecords.sol\":10644:10654  bool _bool */\n          0x00\n            /* \"ElectronicMedicalRecords.sol\":10670:10677  patient */\n          0x02\n            /* \"ElectronicMedicalRecords.sol\":10670:10687  patient[_address] */\n          0x00\n            /* \"ElectronicMedicalRecords.sol\":10678:10686  _address */\n          dup4\n            /* \"ElectronicMedicalRecords.sol\":10670:10687  patient[_address] */\n          0xffffffffffffffffffffffffffffffffffffffff\n          and\n          0xffffffffffffffffffffffffffffffffffffffff\n          and\n          dup2\n          mstore\n          0x20\n          add\n          swap1\n          dup2\n          mstore\n          0x20\n          add\n          0x00\n          keccak256\n          0x00\n          swap1\n          sload\n          swap1\n          0x0100\n          exp\n          swap1\n          div\n          0xff\n          and\n            /* \"ElectronicMedicalRecords.sol\":10667:10772  if(patient[_address]) {... */\n          iszero\n          tag_25\n          jumpi\n            /* \"ElectronicMedicalRecords.sol\":10711:10715  true */\n          0x01\n            /* \"ElectronicMedicalRecords.sol\":10704:10715  return true */\n          swap1\n          pop\n          jump(tag_24)\n            /* \"ElectronicMedicalRecords.sol\":10667:10772  if(patient[_address]) {... */\n        tag_25:\n            /* \"ElectronicMedicalRecords.sol\":10755:10760  false */\n          0x00\n            /* \"ElectronicMedicalRecords.sol\":10748:10760  return false */\n          swap1\n          pop\n            /* \"ElectronicMedicalRecords.sol\":10590:10779  function verify(address _address) public view returns(bool _bool) {... */\n        tag_24:\n          swap2\n          swap1\n          pop\n          jump\t// out\n            /* \"ElectronicMedicalRecords.sol\":10408:10582  function addPatient(address _address) public {... */\n        tag_18:\n            /* \"ElectronicMedicalRecords.sol\":10473:10480  patient */\n          0x02\n            /* \"ElectronicMedicalRecords.sol\":10473:10490  patient[_address] */\n          0x00\n            /* \"ElectronicMedicalRecords.sol\":10481:10489  _address */\n          dup3\n            /* \"ElectronicMedicalRecords.sol\":10473:10490  patient[_address] */\n          0xffffffffffffffffffffffffffffffffffffffff\n          and\n          0xffffffffffffffffffffffffffffffffffffffff\n          and\n          dup2\n          mstore\n          0x20\n          add\n          swap1\n          dup2\n          mstore\n          0x20\n          add\n          0x00\n          keccak256\n          0x00\n          swap1\n          sload\n          swap1\n          0x0100\n          exp\n          swap1\n          div\n          0xff\n          and\n            /* \"ElectronicMedicalRecords.sol\":10472:10490  !patient[_address] */\n          iszero\n            /* \"ElectronicMedicalRecords.sol\":10464:10491  require(!patient[_address]) */\n          tag_28\n          jumpi\n          0x00\n          dup1\n          revert\n        tag_28:\n            /* \"ElectronicMedicalRecords.sol\":10528:10532  true */\n          0x01\n            /* \"ElectronicMedicalRecords.sol\":10508:10515  patient */\n          0x02\n            /* \"ElectronicMedicalRecords.sol\":10508:10525  patient[_address] */\n          0x00\n            /* \"ElectronicMedicalRecords.sol\":10516:10524  _address */\n          dup4\n            /* \"ElectronicMedicalRecords.sol\":10508:10525  patient[_address] */\n          0xffffffffffffffffffffffffffffffffffffffff\n          and\n          0xffffffffffffffffffffffffffffffffffffffff\n          and\n          dup2\n          mstore\n          0x20\n          add\n          swap1\n          dup2\n          mstore\n          0x20\n          add\n          0x00\n          keccak256\n          0x00\n            /* \"ElectronicMedicalRecords.sol\":10508:10532  patient[_address] = true */\n          0x0100\n          exp\n          dup2\n          sload\n          dup2\n          0xff\n          mul\n          not\n          and\n          swap1\n          dup4\n          iszero\n          iszero\n          mul\n          or\n          swap1\n          sstore\n          pop\n            /* \"ElectronicMedicalRecords.sol\":10543:10551  patients */\n          0x01\n            /* \"ElectronicMedicalRecords.sol\":10557:10565  _address */\n          dup2\n            /* \"ElectronicMedicalRecords.sol\":10543:10566  patients.push(_address) */\n          swap1\n          dup1\n          0x01\n          dup2\n          sload\n          add\n          dup1\n          dup3\n          sstore\n          dup1\n          swap2\n          pop\n          pop\n          0x01\n          swap1\n          sub\n          swap1\n          0x00\n          mstore\n          keccak256(0x00, 0x20)\n          add\n          0x00\n          swap1\n          swap2\n          swap1\n          swap2\n          swap1\n          swap2\n          0x0100\n          exp\n          dup2\n          sload\n          dup2\n          0xffffffffffffffffffffffffffffffffffffffff\n          mul\n          not\n          and\n          swap1\n          dup4\n          0xffffffffffffffffffffffffffffffffffffffff\n          and\n          mul\n          or\n          swap1\n          sstore\n          pop\n            /* \"ElectronicMedicalRecords.sol\":10408:10582  function addPatient(address _address) public {... */\n          pop\n          jump\t// out\n            /* \"#utility.yul\":7:121   */\n        tag_30:\n            /* \"#utility.yul\":74:80   */\n          0x00\n            /* \"#utility.yul\":108:113   */\n          dup2\n            /* \"#utility.yul\":102:114   */\n          mload\n            /* \"#utility.yul\":92:114   */\n          swap1\n          pop\n            /* \"#utility.yul\":7:121   */\n          swap2\n          swap1\n          pop\n          jump\t// out\n            /* \"#utility.yul\":127:311   */\n        tag_31:\n            /* \"#utility.yul\":226:237   */\n          0x00\n            /* \"#utility.yul\":260:266   */\n          dup3\n            /* \"#utility.yul\":255:258   */\n          dup3\n            /* \"#utility.yul\":248:267   */\n          mstore\n            /* \"#utility.yul\":300:304   */\n          0x20\n            /* \"#utility.yul\":295:298   */\n          dup3\n            /* \"#utility.yul\":291:305   */\n          add\n            /* \"#utility.yul\":276:305   */\n          swap1\n          pop\n            /* \"#utility.yul\":127:311   */\n          swap3\n          swap2\n          pop\n          pop\n          jump\t// out\n            /* \"#utility.yul\":317:449   */\n        tag_32:\n            /* \"#utility.yul\":384:388   */\n          0x00\n            /* \"#utility.yul\":407:410   */\n          dup2\n            /* \"#utility.yul\":399:410   */\n          swap1\n          pop\n            /* \"#utility.yul\":437:441   */\n          0x20\n            /* \"#utility.yul\":432:435   */\n          dup3\n            /* \"#utility.yul\":428:442   */\n          add\n            /* \"#utility.yul\":420:442   */\n          swap1\n          pop\n            /* \"#utility.yul\":317:449   */\n          swap2\n          swap1\n          pop\n          jump\t// out\n            /* \"#utility.yul\":455:581   */\n        tag_33:\n            /* \"#utility.yul\":492:499   */\n          0x00\n            /* \"#utility.yul\":532:574   */\n          0xffffffffffffffffffffffffffffffffffffffff\n            /* \"#utility.yul\":525:530   */\n          dup3\n            /* \"#utility.yul\":521:575   */\n          and\n            /* \"#utility.yul\":510:575   */\n          swap1\n          pop\n            /* \"#utility.yul\":455:581   */\n          swap2\n          swap1\n          pop\n          jump\t// out\n            /* \"#utility.yul\":587:683   */\n        tag_34:\n            /* \"#utility.yul\":624:631   */\n          0x00\n            /* \"#utility.yul\":653:677   */\n          tag_52\n            /* \"#utility.yul\":671:676   */\n          dup3\n            /* \"#utility.yul\":653:677   */\n          tag_33\n          jump\t// in\n        tag_52:\n            /* \"#utility.yul\":642:677   */\n          swap1\n          pop\n            /* \"#utility.yul\":587:683   */\n          swap2\n          swap1\n          pop\n          jump\t// out\n            /* \"#utility.yul\":689:797   */\n        tag_35:\n            /* \"#utility.yul\":766:790   */\n          tag_54\n            /* \"#utility.yul\":784:789   */\n          dup2\n            /* \"#utility.yul\":766:790   */\n          tag_34\n          jump\t// in\n        tag_54:\n            /* \"#utility.yul\":761:764   */\n          dup3\n            /* \"#utility.yul\":754:791   */\n          mstore\n            /* \"#utility.yul\":689:797   */\n          pop\n          pop\n          jump\t// out\n            /* \"#utility.yul\":803:982   */\n        tag_36:\n            /* \"#utility.yul\":872:882   */\n          0x00\n            /* \"#utility.yul\":893:939   */\n          tag_56\n            /* \"#utility.yul\":935:938   */\n          dup4\n            /* \"#utility.yul\":927:933   */\n          dup4\n            /* \"#utility.yul\":893:939   */\n          tag_35\n          jump\t// in\n        tag_56:\n            /* \"#utility.yul\":971:975   */\n          0x20\n            /* \"#utility.yul\":966:969   */\n          dup4\n            /* \"#utility.yul\":962:976   */\n          add\n            /* \"#utility.yul\":948:976   */\n          swap1\n          pop\n            /* \"#utility.yul\":803:982   */\n          swap3\n          swap2\n          pop\n          pop\n          jump\t// out\n            /* \"#utility.yul\":988:1101   */\n        tag_37:\n            /* \"#utility.yul\":1058:1062   */\n          0x00\n            /* \"#utility.yul\":1090:1094   */\n          0x20\n            /* \"#utility.yul\":1085:1088   */\n          dup3\n            /* \"#utility.yul\":1081:1095   */\n          add\n            /* \"#utility.yul\":1073:1095   */\n          swap1\n          pop\n            /* \"#utility.yul\":988:1101   */\n          swap2\n          swap1\n          pop\n          jump\t// out\n            /* \"#utility.yul\":1137:1869   */\n        tag_38:\n            /* \"#utility.yul\":1256:1259   */\n          0x00\n            /* \"#utility.yul\":1285:1339   */\n          tag_59\n            /* \"#utility.yul\":1333:1338   */\n          dup3\n            /* \"#utility.yul\":1285:1339   */\n          tag_30\n          jump\t// in\n        tag_59:\n            /* \"#utility.yul\":1355:1441   */\n          tag_60\n            /* \"#utility.yul\":1434:1440   */\n          dup2\n            /* \"#utility.yul\":1429:1432   */\n          dup6\n            /* \"#utility.yul\":1355:1441   */\n          tag_31\n          jump\t// in\n        tag_60:\n            /* \"#utility.yul\":1348:1441   */\n          swap4\n          pop\n            /* \"#utility.yul\":1465:1521   */\n          tag_61\n            /* \"#utility.yul\":1515:1520   */\n          dup4\n            /* \"#utility.yul\":1465:1521   */\n          tag_32\n          jump\t// in\n        tag_61:\n            /* \"#utility.yul\":1544:1551   */\n          dup1\n            /* \"#utility.yul\":1575:1576   */\n          0x00\n            /* \"#utility.yul\":1560:1844   */\n        tag_62:\n            /* \"#utility.yul\":1585:1591   */\n          dup4\n            /* \"#utility.yul\":1582:1583   */\n          dup2\n            /* \"#utility.yul\":1579:1592   */\n          lt\n            /* \"#utility.yul\":1560:1844   */\n          iszero\n          tag_64\n          jumpi\n            /* \"#utility.yul\":1661:1667   */\n          dup2\n            /* \"#utility.yul\":1655:1668   */\n          mload\n            /* \"#utility.yul\":1688:1751   */\n          tag_65\n            /* \"#utility.yul\":1747:1750   */\n          dup9\n            /* \"#utility.yul\":1732:1745   */\n          dup3\n            /* \"#utility.yul\":1688:1751   */\n          tag_36\n          jump\t// in\n        tag_65:\n            /* \"#utility.yul\":1681:1751   */\n          swap8\n          pop\n            /* \"#utility.yul\":1774:1834   */\n          tag_66\n            /* \"#utility.yul\":1827:1833   */\n          dup4\n            /* \"#utility.yul\":1774:1834   */\n          tag_37\n          jump\t// in\n        tag_66:\n            /* \"#utility.yul\":1764:1834   */\n          swap3\n          pop\n            /* \"#utility.yul\":1620:1844   */\n          pop\n            /* \"#utility.yul\":1607:1608   */\n          0x01\n            /* \"#utility.yul\":1604:1605   */\n          dup2\n            /* \"#utility.yul\":1600:1609   */\n          add\n            /* \"#utility.yul\":1595:1609   */\n          swap1\n          pop\n            /* \"#utility.yul\":1560:1844   */\n          jump(tag_62)\n        tag_64:\n            /* \"#utility.yul\":1564:1578   */\n          pop\n            /* \"#utility.yul\":1860:1863   */\n          dup6\n            /* \"#utility.yul\":1853:1863   */\n          swap4\n          pop\n            /* \"#utility.yul\":1261:1869   */\n          pop\n          pop\n          pop\n            /* \"#utility.yul\":1137:1869   */\n          swap3\n          swap2\n          pop\n          pop\n          jump\t// out\n            /* \"#utility.yul\":1875:2248   */\n        tag_9:\n            /* \"#utility.yul\":2018:2022   */\n          0x00\n            /* \"#utility.yul\":2056:2058   */\n          0x20\n            /* \"#utility.yul\":2045:2054   */\n          dup3\n            /* \"#utility.yul\":2041:2059   */\n          add\n            /* \"#utility.yul\":2033:2059   */\n          swap1\n          pop\n            /* \"#utility.yul\":2105:2114   */\n          dup2\n            /* \"#utility.yul\":2099:2103   */\n          dup2\n            /* \"#utility.yul\":2095:2115   */\n          sub\n            /* \"#utility.yul\":2091:2092   */\n          0x00\n            /* \"#utility.yul\":2080:2089   */\n          dup4\n            /* \"#utility.yul\":2076:2093   */\n          add\n            /* \"#utility.yul\":2069:2116   */\n          mstore\n            /* \"#utility.yul\":2133:2241   */\n          tag_68\n            /* \"#utility.yul\":2236:2240   */\n          dup2\n            /* \"#utility.yul\":2227:2233   */\n          dup5\n            /* \"#utility.yul\":2133:2241   */\n          tag_38\n          jump\t// in\n        tag_68:\n            /* \"#utility.yul\":2125:2241   */\n          swap1\n          pop\n            /* \"#utility.yul\":1875:2248   */\n          swap3\n          swap2\n          pop\n          pop\n          jump\t// out\n            /* \"#utility.yul\":2335:2452   */\n        tag_40:\n            /* \"#utility.yul\":2444:2445   */\n          0x00\n            /* \"#utility.yul\":2441:2442   */\n          dup1\n            /* \"#utility.yul\":2434:2446   */\n          revert\n            /* \"#utility.yul\":2581:2703   */\n        tag_42:\n            /* \"#utility.yul\":2654:2678   */\n          tag_73\n            /* \"#utility.yul\":2672:2677   */\n          dup2\n            /* \"#utility.yul\":2654:2678   */\n          tag_34\n          jump\t// in\n        tag_73:\n            /* \"#utility.yul\":2647:2652   */\n          dup2\n            /* \"#utility.yul\":2644:2679   */\n          eq\n            /* \"#utility.yul\":2634:2697   */\n          tag_74\n          jumpi\n            /* \"#utility.yul\":2693:2694   */\n          0x00\n            /* \"#utility.yul\":2690:2691   */\n          dup1\n            /* \"#utility.yul\":2683:2695   */\n          revert\n            /* \"#utility.yul\":2634:2697   */\n        tag_74:\n            /* \"#utility.yul\":2581:2703   */\n          pop\n          jump\t// out\n            /* \"#utility.yul\":2709:2848   */\n        tag_43:\n            /* \"#utility.yul\":2755:2760   */\n          0x00\n            /* \"#utility.yul\":2793:2799   */\n          dup2\n            /* \"#utility.yul\":2780:2800   */\n          calldataload\n            /* \"#utility.yul\":2771:2800   */\n          swap1\n          pop\n            /* \"#utility.yul\":2809:2842   */\n          tag_76\n            /* \"#utility.yul\":2836:2841   */\n          dup2\n            /* \"#utility.yul\":2809:2842   */\n          tag_42\n          jump\t// in\n        tag_76:\n            /* \"#utility.yul\":2709:2848   */\n          swap3\n          swap2\n          pop\n          pop\n          jump\t// out\n            /* \"#utility.yul\":2854:3183   */\n        tag_12:\n            /* \"#utility.yul\":2913:2919   */\n          0x00\n            /* \"#utility.yul\":2962:2964   */\n          0x20\n            /* \"#utility.yul\":2950:2959   */\n          dup3\n            /* \"#utility.yul\":2941:2948   */\n          dup5\n            /* \"#utility.yul\":2937:2960   */\n          sub\n            /* \"#utility.yul\":2933:2965   */\n          slt\n            /* \"#utility.yul\":2930:3049   */\n          iszero\n          tag_78\n          jumpi\n            /* \"#utility.yul\":2968:3047   */\n          tag_79\n          tag_40\n          jump\t// in\n        tag_79:\n            /* \"#utility.yul\":2930:3049   */\n        tag_78:\n            /* \"#utility.yul\":3088:3089   */\n          0x00\n            /* \"#utility.yul\":3113:3166   */\n          tag_80\n            /* \"#utility.yul\":3158:3165   */\n          dup5\n            /* \"#utility.yul\":3149:3155   */\n          dup3\n            /* \"#utility.yul\":3138:3147   */\n          dup6\n            /* \"#utility.yul\":3134:3156   */\n          add\n            /* \"#utility.yul\":3113:3166   */\n          tag_43\n          jump\t// in\n        tag_80:\n            /* \"#utility.yul\":3103:3166   */\n          swap2\n          pop\n            /* \"#utility.yul\":3059:3176   */\n          pop\n            /* \"#utility.yul\":2854:3183   */\n          swap3\n          swap2\n          pop\n          pop\n          jump\t// out\n            /* \"#utility.yul\":3189:3279   */\n        tag_44:\n            /* \"#utility.yul\":3223:3230   */\n          0x00\n            /* \"#utility.yul\":3266:3271   */\n          dup2\n            /* \"#utility.yul\":3259:3272   */\n          iszero\n            /* \"#utility.yul\":3252:3273   */\n          iszero\n            /* \"#utility.yul\":3241:3273   */\n          swap1\n          pop\n            /* \"#utility.yul\":3189:3279   */\n          swap2\n          swap1\n          pop\n          jump\t// out\n            /* \"#utility.yul\":3285:3394   */\n        tag_45:\n            /* \"#utility.yul\":3366:3387   */\n          tag_83\n            /* \"#utility.yul\":3381:3386   */\n          dup2\n            /* \"#utility.yul\":3366:3387   */\n          tag_44\n          jump\t// in\n        tag_83:\n            /* \"#utility.yul\":3361:3364   */\n          dup3\n            /* \"#utility.yul\":3354:3388   */\n          mstore\n            /* \"#utility.yul\":3285:3394   */\n          pop\n          pop\n          jump\t// out\n            /* \"#utility.yul\":3400:3610   */\n        tag_15:\n            /* \"#utility.yul\":3487:3491   */\n          0x00\n            /* \"#utility.yul\":3525:3527   */\n          0x20\n            /* \"#utility.yul\":3514:3523   */\n          dup3\n            /* \"#utility.yul\":3510:3528   */\n          add\n            /* \"#utility.yul\":3502:3528   */\n          swap1\n          pop\n            /* \"#utility.yul\":3538:3603   */\n          tag_85\n            /* \"#utility.yul\":3600:3601   */\n          0x00\n            /* \"#utility.yul\":3589:3598   */\n          dup4\n            /* \"#utility.yul\":3585:3602   */\n          add\n            /* \"#utility.yul\":3576:3582   */\n          dup5\n            /* \"#utility.yul\":3538:3603   */\n          tag_45\n          jump\t// in\n        tag_85:\n            /* \"#utility.yul\":3400:3610   */\n          swap3\n          swap2\n          pop\n          pop\n          jump\t// out\n\n        auxdata: 0xa264697066735822122028d56d823202d87af350499879e2fb0cb18b7c7c6f3ee56e052a9e4f92b3edf964736f6c63430008110033\n    }\n}\n\nsub_3: assembly {\n        /* \"ElectronicMedicalRecords.sol\":10999:11812  contract DoctorVerificator {... */\n      mstore(0x40, 0x80)\n        /* \"ElectronicMedicalRecords.sol\":11155:11216  constructor(address _admin) {... */\n      callvalue\n      dup1\n      iszero\n      tag_1\n      jumpi\n      0x00\n      dup1\n      revert\n    tag_1:\n      pop\n      mload(0x40)\n      sub(codesize, bytecodeSize)\n      dup1\n      bytecodeSize\n      dup4\n      codecopy\n      dup2\n      dup2\n      add\n      0x40\n      mstore\n      dup2\n      add\n      swap1\n      tag_2\n      swap2\n      swap1\n      tag_3\n      jump\t// in\n    tag_2:\n        /* \"ElectronicMedicalRecords.sol\":11202:11208  _admin */\n      dup1\n        /* \"ElectronicMedicalRecords.sol\":11194:11199  admin */\n      0x00\n      dup1\n        /* \"ElectronicMedicalRecords.sol\":11194:11208  admin = _admin */\n      0x0100\n      exp\n      dup2\n      sload\n      dup2\n      0xffffffffffffffffffffffffffffffffffffffff\n      mul\n      not\n      and\n      swap1\n      dup4\n      0xffffffffffffffffffffffffffffffffffffffff\n      and\n      mul\n      or\n      swap1\n      sstore\n      pop\n        /* \"ElectronicMedicalRecords.sol\":11155:11216  constructor(address _admin) {... */\n      pop\n        /* \"ElectronicMedicalRecords.sol\":10999:11812  contract DoctorVerificator {... */\n      jump(tag_6)\n        /* \"#utility.yul\":88:205   */\n    tag_8:\n        /* \"#utility.yul\":197:198   */\n      0x00\n        /* \"#utility.yul\":194:195   */\n      dup1\n        /* \"#utility.yul\":187:199   */\n      revert\n        /* \"#utility.yul\":334:460   */\n    tag_10:\n        /* \"#utility.yul\":371:378   */\n      0x00\n        /* \"#utility.yul\":411:453   */\n      0xffffffffffffffffffffffffffffffffffffffff\n        /* \"#utility.yul\":404:409   */\n      dup3\n        /* \"#utility.yul\":400:454   */\n      and\n        /* \"#utility.yul\":389:454   */\n      swap1\n      pop\n        /* \"#utility.yul\":334:460   */\n      swap2\n      swap1\n      pop\n      jump\t// out\n        /* \"#utility.yul\":466:562   */\n    tag_11:\n        /* \"#utility.yul\":503:510   */\n      0x00\n        /* \"#utility.yul\":532:556   */\n      tag_20\n        /* \"#utility.yul\":550:555   */\n      dup3\n        /* \"#utility.yul\":532:556   */\n      tag_10\n      jump\t// in\n    tag_20:\n        /* \"#utility.yul\":521:556   */\n      swap1\n      pop\n        /* \"#utility.yul\":466:562   */\n      swap2\n      swap1\n      pop\n      jump\t// out\n        /* \"#utility.yul\":568:690   */\n    tag_12:\n        /* \"#utility.yul\":641:665   */\n      tag_22\n        /* \"#utility.yul\":659:664   */\n      dup2\n        /* \"#utility.yul\":641:665   */\n      tag_11\n      jump\t// in\n    tag_22:\n        /* \"#utility.yul\":634:639   */\n      dup2\n        /* \"#utility.yul\":631:666   */\n      eq\n        /* \"#utility.yul\":621:684   */\n      tag_23\n      jumpi\n        /* \"#utility.yul\":680:681   */\n      0x00\n        /* \"#utility.yul\":677:678   */\n      dup1\n        /* \"#utility.yul\":670:682   */\n      revert\n        /* \"#utility.yul\":621:684   */\n    tag_23:\n        /* \"#utility.yul\":568:690   */\n      pop\n      jump\t// out\n        /* \"#utility.yul\":696:839   */\n    tag_13:\n        /* \"#utility.yul\":753:758   */\n      0x00\n        /* \"#utility.yul\":784:790   */\n      dup2\n        /* \"#utility.yul\":778:791   */\n      mload\n        /* \"#utility.yul\":769:791   */\n      swap1\n      pop\n        /* \"#utility.yul\":800:833   */\n      tag_25\n        /* \"#utility.yul\":827:832   */\n      dup2\n        /* \"#utility.yul\":800:833   */\n      tag_12\n      jump\t// in\n    tag_25:\n        /* \"#utility.yul\":696:839   */\n      swap3\n      swap2\n      pop\n      pop\n      jump\t// out\n        /* \"#utility.yul\":845:1196   */\n    tag_3:\n        /* \"#utility.yul\":915:921   */\n      0x00\n        /* \"#utility.yul\":964:966   */\n      0x20\n        /* \"#utility.yul\":952:961   */\n      dup3\n        /* \"#utility.yul\":943:950   */\n      dup5\n        /* \"#utility.yul\":939:962   */\n      sub\n        /* \"#utility.yul\":935:967   */\n      slt\n        /* \"#utility.yul\":932:1051   */\n      iszero\n      tag_27\n      jumpi\n        /* \"#utility.yul\":970:1049   */\n      tag_28\n      tag_8\n      jump\t// in\n    tag_28:\n        /* \"#utility.yul\":932:1051   */\n    tag_27:\n        /* \"#utility.yul\":1090:1091   */\n      0x00\n        /* \"#utility.yul\":1115:1179   */\n      tag_29\n        /* \"#utility.yul\":1171:1178   */\n      dup5\n        /* \"#utility.yul\":1162:1168   */\n      dup3\n        /* \"#utility.yul\":1151:1160   */\n      dup6\n        /* \"#utility.yul\":1147:1169   */\n      add\n        /* \"#utility.yul\":1115:1179   */\n      tag_13\n      jump\t// in\n    tag_29:\n        /* \"#utility.yul\":1105:1179   */\n      swap2\n      pop\n        /* \"#utility.yul\":1061:1189   */\n      pop\n        /* \"#utility.yul\":845:1196   */\n      swap3\n      swap2\n      pop\n      pop\n      jump\t// out\n        /* \"ElectronicMedicalRecords.sol\":10999:11812  contract DoctorVerificator {... */\n    tag_6:\n      dataSize(sub_0)\n      dup1\n      dataOffset(sub_0)\n      0x00\n      codecopy\n      0x00\n      return\n    stop\n\n    sub_0: assembly {\n            /* \"ElectronicMedicalRecords.sol\":10999:11812  contract DoctorVerificator {... */\n          mstore(0x40, 0x80)\n          callvalue\n          dup1\n          iszero\n          tag_1\n          jumpi\n          0x00\n          dup1\n          revert\n        tag_1:\n          pop\n          jumpi(tag_2, lt(calldatasize, 0x04))\n          shr(0xe0, calldataload(0x00))\n          dup1\n          0x4780468f\n          eq\n          tag_3\n          jumpi\n          dup1\n          0x63a9c3d7\n          eq\n          tag_4\n          jumpi\n          dup1\n          0xf0d95090\n          eq\n          tag_5\n          jumpi\n        tag_2:\n          0x00\n          dup1\n          revert\n            /* \"ElectronicMedicalRecords.sol\":11224:11402  function addDoctor(address _address) onlyAdmin public {... */\n        tag_3:\n          tag_6\n          0x04\n          dup1\n          calldatasize\n          sub\n          dup2\n          add\n          swap1\n          tag_7\n          swap2\n          swap1\n          tag_8\n          jump\t// in\n        tag_7:\n          tag_9\n          jump\t// in\n        tag_6:\n          stop\n            /* \"ElectronicMedicalRecords.sol\":11410:11598  function verify(address _address) public view returns(bool _bool) {... */\n        tag_4:\n          tag_10\n          0x04\n          dup1\n          calldatasize\n          sub\n          dup2\n          add\n          swap1\n          tag_11\n          swap2\n          swap1\n          tag_8\n          jump\t// in\n        tag_11:\n          tag_12\n          jump\t// in\n        tag_10:\n          mload(0x40)\n          tag_13\n          swap2\n          swap1\n          tag_14\n          jump\t// in\n        tag_13:\n          mload(0x40)\n          dup1\n          swap2\n          sub\n          swap1\n          return\n            /* \"ElectronicMedicalRecords.sol\":11606:11721  function getAllDoctors() onlyAdmin public view returns(address[] memory _address) {... */\n        tag_5:\n          tag_15\n          tag_16\n          jump\t// in\n        tag_15:\n          mload(0x40)\n          tag_17\n          swap2\n          swap1\n          tag_18\n          jump\t// in\n        tag_17:\n          mload(0x40)\n          dup1\n          swap2\n          sub\n          swap1\n          return\n            /* \"ElectronicMedicalRecords.sol\":11224:11402  function addDoctor(address _address) onlyAdmin public {... */\n        tag_9:\n            /* \"ElectronicMedicalRecords.sol\":11783:11788  admin */\n          0x00\n          dup1\n          sload\n          swap1\n          0x0100\n          exp\n          swap1\n          div\n          0xffffffffffffffffffffffffffffffffffffffff\n          and\n            /* \"ElectronicMedicalRecords.sol\":11769:11788  msg.sender == admin */\n          0xffffffffffffffffffffffffffffffffffffffff\n          and\n            /* \"ElectronicMedicalRecords.sol\":11769:11779  msg.sender */\n          caller\n            /* \"ElectronicMedicalRecords.sol\":11769:11788  msg.sender == admin */\n          0xffffffffffffffffffffffffffffffffffffffff\n          and\n          eq\n            /* \"ElectronicMedicalRecords.sol\":11761:11789  require(msg.sender == admin) */\n          tag_20\n          jumpi\n          0x00\n          dup1\n          revert\n        tag_20:\n            /* \"ElectronicMedicalRecords.sol\":11298:11304  doctor */\n          0x02\n            /* \"ElectronicMedicalRecords.sol\":11298:11314  doctor[_address] */\n          0x00\n            /* \"ElectronicMedicalRecords.sol\":11305:11313  _address */\n          dup3\n            /* \"ElectronicMedicalRecords.sol\":11298:11314  doctor[_address] */\n          0xffffffffffffffffffffffffffffffffffffffff\n          and\n          0xffffffffffffffffffffffffffffffffffffffff\n          and\n          dup2\n          mstore\n          0x20\n          add\n          swap1\n          dup2\n          mstore\n          0x20\n          add\n          0x00\n          keccak256\n          0x00\n          swap1\n          sload\n          swap1\n          0x0100\n          exp\n          swap1\n          div\n          0xff\n          and\n            /* \"ElectronicMedicalRecords.sol\":11297:11314  !doctor[_address] */\n          iszero\n            /* \"ElectronicMedicalRecords.sol\":11289:11315  require(!doctor[_address]) */\n          tag_22\n          jumpi\n          0x00\n          dup1\n          revert\n        tag_22:\n            /* \"ElectronicMedicalRecords.sol\":11351:11355  true */\n          0x01\n            /* \"ElectronicMedicalRecords.sol\":11332:11338  doctor */\n          0x02\n            /* \"ElectronicMedicalRecords.sol\":11332:11348  doctor[_address] */\n          0x00\n            /* \"ElectronicMedicalRecords.sol\":11339:11347  _address */\n          dup4\n            /* \"ElectronicMedicalRecords.sol\":11332:11348  doctor[_address] */\n          0xffffffffffffffffffffffffffffffffffffffff\n          and\n          0xffffffffffffffffffffffffffffffffffffffff\n          and\n          dup2\n          mstore\n          0x20\n          add\n          swap1\n          dup2\n          mstore\n          0x20\n          add\n          0x00\n          keccak256\n          0x00\n            /* \"ElectronicMedicalRecords.sol\":11332:11355  doctor[_address] = true */\n          0x0100\n          exp\n          dup2\n          sload\n          dup2\n          0xff\n          mul\n          not\n          and\n          swap1\n          dup4\n          iszero\n          iszero\n          mul\n          or\n          swap1\n          sstore\n          pop\n            /* \"ElectronicMedicalRecords.sol\":11366:11373  doctors */\n          0x01\n            /* \"ElectronicMedicalRecords.sol\":11379:11387  _address */\n          dup2\n            /* \"ElectronicMedicalRecords.sol\":11366:11388  doctors.push(_address) */\n          swap1\n          dup1\n          0x01\n          dup2\n          sload\n          add\n          dup1\n          dup3\n          sstore\n          dup1\n          swap2\n          pop\n          pop\n          0x01\n          swap1\n          sub\n          swap1\n          0x00\n          mstore\n          keccak256(0x00, 0x20)\n          add\n          0x00\n          swap1\n          swap2\n          swap1\n          swap2\n          swap1\n          swap2\n          0x0100\n          exp\n          dup2\n          sload\n          dup2\n          0xffffffffffffffffffffffffffffffffffffffff\n          mul\n          not\n          and\n          swap1\n          dup4\n          0xffffffffffffffffffffffffffffffffffffffff\n          and\n          mul\n          or\n          swap1\n          sstore\n          pop\n            /* \"ElectronicMedicalRecords.sol\":11224:11402  function addDoctor(address _address) onlyAdmin public {... */\n          pop\n          jump\t// out\n            /* \"ElectronicMedicalRecords.sol\":11410:11598  function verify(address _address) public view returns(bool _bool) {... */\n        tag_12:\n            /* \"ElectronicMedicalRecords.sol\":11464:11474  bool _bool */\n          0x00\n            /* \"ElectronicMedicalRecords.sol\":11490:11496  doctor */\n          0x02\n            /* \"ElectronicMedicalRecords.sol\":11490:11506  doctor[_address] */\n          0x00\n            /* \"ElectronicMedicalRecords.sol\":11497:11505  _address */\n          dup4\n            /* \"ElectronicMedicalRecords.sol\":11490:11506  doctor[_address] */\n          0xffffffffffffffffffffffffffffffffffffffff\n          and\n          0xffffffffffffffffffffffffffffffffffffffff\n          and\n          dup2\n          mstore\n          0x20\n          add\n          swap1\n          dup2\n          mstore\n          0x20\n          add\n          0x00\n          keccak256\n          0x00\n          swap1\n          sload\n          swap1\n          0x0100\n          exp\n          swap1\n          div\n          0xff\n          and\n            /* \"ElectronicMedicalRecords.sol\":11487:11591  if(doctor[_address]) {... */\n          iszero\n          tag_25\n          jumpi\n            /* \"ElectronicMedicalRecords.sol\":11530:11534  true */\n          0x01\n            /* \"ElectronicMedicalRecords.sol\":11523:11534  return true */\n          swap1\n          pop\n          jump(tag_24)\n            /* \"ElectronicMedicalRecords.sol\":11487:11591  if(doctor[_address]) {... */\n        tag_25:\n            /* \"ElectronicMedicalRecords.sol\":11574:11579  false */\n          0x00\n            /* \"ElectronicMedicalRecords.sol\":11567:11579  return false */\n          swap1\n          pop\n            /* \"ElectronicMedicalRecords.sol\":11410:11598  function verify(address _address) public view returns(bool _bool) {... */\n        tag_24:\n          swap2\n          swap1\n          pop\n          jump\t// out\n            /* \"ElectronicMedicalRecords.sol\":11606:11721  function getAllDoctors() onlyAdmin public view returns(address[] memory _address) {... */\n        tag_16:\n            /* \"ElectronicMedicalRecords.sol\":11661:11686  address[] memory _address */\n          0x60\n            /* \"ElectronicMedicalRecords.sol\":11783:11788  admin */\n          0x00\n          dup1\n          sload\n          swap1\n          0x0100\n          exp\n          swap1\n          div\n          0xffffffffffffffffffffffffffffffffffffffff\n          and\n            /* \"ElectronicMedicalRecords.sol\":11769:11788  msg.sender == admin */\n          0xffffffffffffffffffffffffffffffffffffffff\n          and\n            /* \"ElectronicMedicalRecords.sol\":11769:11779  msg.sender */\n          caller\n            /* \"ElectronicMedicalRecords.sol\":11769:11788  msg.sender == admin */\n          0xffffffffffffffffffffffffffffffffffffffff\n          and\n          eq\n            /* \"ElectronicMedicalRecords.sol\":11761:11789  require(msg.sender == admin) */\n          tag_28\n          jumpi\n          0x00\n          dup1\n          revert\n        tag_28:\n            /* \"ElectronicMedicalRecords.sol\":11706:11713  doctors */\n          0x01\n            /* \"ElectronicMedicalRecords.sol\":11699:11713  return doctors */\n          dup1\n          sload\n          dup1\n          0x20\n          mul\n          0x20\n          add\n          mload(0x40)\n          swap1\n          dup2\n          add\n          0x40\n          mstore\n          dup1\n          swap3\n          swap2\n          swap1\n          dup2\n          dup2\n          mstore\n          0x20\n          add\n          dup3\n          dup1\n          sload\n          dup1\n          iszero\n          tag_30\n          jumpi\n          0x20\n          mul\n          dup3\n          add\n          swap2\n          swap1\n          0x00\n          mstore\n          keccak256(0x00, 0x20)\n          swap1\n        tag_31:\n          dup2\n          0x00\n          swap1\n          sload\n          swap1\n          0x0100\n          exp\n          swap1\n          div\n          0xffffffffffffffffffffffffffffffffffffffff\n          and\n          0xffffffffffffffffffffffffffffffffffffffff\n          and\n          dup2\n          mstore\n          0x20\n          add\n          swap1\n          0x01\n          add\n          swap1\n          dup1\n          dup4\n          gt\n          tag_31\n          jumpi\n        tag_30:\n          pop\n          pop\n          pop\n          pop\n          pop\n          swap1\n          pop\n            /* \"ElectronicMedicalRecords.sol\":11606:11721  function getAllDoctors() onlyAdmin public view returns(address[] memory _address) {... */\n          swap1\n          jump\t// out\n            /* \"#utility.yul\":88:205   */\n        tag_33:\n            /* \"#utility.yul\":197:198   */\n          0x00\n            /* \"#utility.yul\":194:195   */\n          dup1\n            /* \"#utility.yul\":187:199   */\n          revert\n            /* \"#utility.yul\":334:460   */\n        tag_35:\n            /* \"#utility.yul\":371:378   */\n          0x00\n            /* \"#utility.yul\":411:453   */\n          0xffffffffffffffffffffffffffffffffffffffff\n            /* \"#utility.yul\":404:409   */\n          dup3\n            /* \"#utility.yul\":400:454   */\n          and\n            /* \"#utility.yul\":389:454   */\n          swap1\n          pop\n            /* \"#utility.yul\":334:460   */\n          swap2\n          swap1\n          pop\n          jump\t// out\n            /* \"#utility.yul\":466:562   */\n        tag_36:\n            /* \"#utility.yul\":503:510   */\n          0x00\n            /* \"#utility.yul\":532:556   */\n          tag_54\n            /* \"#utility.yul\":550:555   */\n          dup3\n            /* \"#utility.yul\":532:556   */\n          tag_35\n          jump\t// in\n        tag_54:\n            /* \"#utility.yul\":521:556   */\n          swap1\n          pop\n            /* \"#utility.yul\":466:562   */\n          swap2\n          swap1\n          pop\n          jump\t// out\n            /* \"#utility.yul\":568:690   */\n        tag_37:\n            /* \"#utility.yul\":641:665   */\n          tag_56\n            /* \"#utility.yul\":659:664   */\n          dup2\n            /* \"#utility.yul\":641:665   */\n          tag_36\n          jump\t// in\n        tag_56:\n            /* \"#utility.yul\":634:639   */\n          dup2\n            /* \"#utility.yul\":631:666   */\n          eq\n            /* \"#utility.yul\":621:684   */\n          tag_57\n          jumpi\n            /* \"#utility.yul\":680:681   */\n          0x00\n            /* \"#utility.yul\":677:678   */\n          dup1\n            /* \"#utility.yul\":670:682   */\n          revert\n            /* \"#utility.yul\":621:684   */\n        tag_57:\n            /* \"#utility.yul\":568:690   */\n          pop\n          jump\t// out\n            /* \"#utility.yul\":696:835   */\n        tag_38:\n            /* \"#utility.yul\":742:747   */\n          0x00\n            /* \"#utility.yul\":780:786   */\n          dup2\n            /* \"#utility.yul\":767:787   */\n          calldataload\n            /* \"#utility.yul\":758:787   */\n          swap1\n          pop\n            /* \"#utility.yul\":796:829   */\n          tag_59\n            /* \"#utility.yul\":823:828   */\n          dup2\n            /* \"#utility.yul\":796:829   */\n          tag_37\n          jump\t// in\n        tag_59:\n            /* \"#utility.yul\":696:835   */\n          swap3\n          swap2\n          pop\n          pop\n          jump\t// out\n            /* \"#utility.yul\":841:1170   */\n        tag_8:\n            /* \"#utility.yul\":900:906   */\n          0x00\n            /* \"#utility.yul\":949:951   */\n          0x20\n            /* \"#utility.yul\":937:946   */\n          dup3\n            /* \"#utility.yul\":928:935   */\n          dup5\n            /* \"#utility.yul\":924:947   */\n          sub\n            /* \"#utility.yul\":920:952   */\n          slt\n            /* \"#utility.yul\":917:1036   */\n          iszero\n          tag_61\n          jumpi\n            /* \"#utility.yul\":955:1034   */\n          tag_62\n          tag_33\n          jump\t// in\n        tag_62:\n            /* \"#utility.yul\":917:1036   */\n        tag_61:\n            /* \"#utility.yul\":1075:1076   */\n          0x00\n            /* \"#utility.yul\":1100:1153   */\n          tag_63\n            /* \"#utility.yul\":1145:1152   */\n          dup5\n            /* \"#utility.yul\":1136:1142   */\n          dup3\n            /* \"#utility.yul\":1125:1134   */\n          dup6\n            /* \"#utility.yul\":1121:1143   */\n          add\n            /* \"#utility.yul\":1100:1153   */\n          tag_38\n          jump\t// in\n        tag_63:\n            /* \"#utility.yul\":1090:1153   */\n          swap2\n          pop\n            /* \"#utility.yul\":1046:1163   */\n          pop\n            /* \"#utility.yul\":841:1170   */\n          swap3\n          swap2\n          pop\n          pop\n          jump\t// out\n            /* \"#utility.yul\":1176:1266   */\n        tag_39:\n            /* \"#utility.yul\":1210:1217   */\n          0x00\n            /* \"#utility.yul\":1253:1258   */\n          dup2\n            /* \"#utility.yul\":1246:1259   */\n          iszero\n            /* \"#utility.yul\":1239:1260   */\n          iszero\n            /* \"#utility.yul\":1228:1260   */\n          swap1\n          pop\n            /* \"#utility.yul\":1176:1266   */\n          swap2\n          swap1\n          pop\n          jump\t// out\n            /* \"#utility.yul\":1272:1381   */\n        tag_40:\n            /* \"#utility.yul\":1353:1374   */\n          tag_66\n            /* \"#utility.yul\":1368:1373   */\n          dup2\n            /* \"#utility.yul\":1353:1374   */\n          tag_39\n          jump\t// in\n        tag_66:\n            /* \"#utility.yul\":1348:1351   */\n          dup3\n            /* \"#utility.yul\":1341:1375   */\n          mstore\n            /* \"#utility.yul\":1272:1381   */\n          pop\n          pop\n          jump\t// out\n            /* \"#utility.yul\":1387:1597   */\n        tag_14:\n            /* \"#utility.yul\":1474:1478   */\n          0x00\n            /* \"#utility.yul\":1512:1514   */\n          0x20\n            /* \"#utility.yul\":1501:1510   */\n          dup3\n            /* \"#utility.yul\":1497:1515   */\n          add\n            /* \"#utility.yul\":1489:1515   */\n          swap1\n          pop\n            /* \"#utility.yul\":1525:1590   */\n          tag_68\n            /* \"#utility.yul\":1587:1588   */\n          0x00\n            /* \"#utility.yul\":1576:1585   */\n          dup4\n            /* \"#utility.yul\":1572:1589   */\n          add\n            /* \"#utility.yul\":1563:1569   */\n          dup5\n            /* \"#utility.yul\":1525:1590   */\n          tag_40\n          jump\t// in\n        tag_68:\n            /* \"#utility.yul\":1387:1597   */\n          swap3\n          swap2\n          pop\n          pop\n          jump\t// out\n            /* \"#utility.yul\":1603:1717   */\n        tag_41:\n            /* \"#utility.yul\":1670:1676   */\n          0x00\n            /* \"#utility.yul\":1704:1709   */\n          dup2\n            /* \"#utility.yul\":1698:1710   */\n          mload\n            /* \"#utility.yul\":1688:1710   */\n          swap1\n          pop\n            /* \"#utility.yul\":1603:1717   */\n          swap2\n          swap1\n          pop\n          jump\t// out\n            /* \"#utility.yul\":1723:1907   */\n        tag_42:\n            /* \"#utility.yul\":1822:1833   */\n          0x00\n            /* \"#utility.yul\":1856:1862   */\n          dup3\n            /* \"#utility.yul\":1851:1854   */\n          dup3\n            /* \"#utility.yul\":1844:1863   */\n          mstore\n            /* \"#utility.yul\":1896:1900   */\n          0x20\n            /* \"#utility.yul\":1891:1894   */\n          dup3\n            /* \"#utility.yul\":1887:1901   */\n          add\n            /* \"#utility.yul\":1872:1901   */\n          swap1\n          pop\n            /* \"#utility.yul\":1723:1907   */\n          swap3\n          swap2\n          pop\n          pop\n          jump\t// out\n            /* \"#utility.yul\":1913:2045   */\n        tag_43:\n            /* \"#utility.yul\":1980:1984   */\n          0x00\n            /* \"#utility.yul\":2003:2006   */\n          dup2\n            /* \"#utility.yul\":1995:2006   */\n          swap1\n          pop\n            /* \"#utility.yul\":2033:2037   */\n          0x20\n            /* \"#utility.yul\":2028:2031   */\n          dup3\n            /* \"#utility.yul\":2024:2038   */\n          add\n            /* \"#utility.yul\":2016:2038   */\n          swap1\n          pop\n            /* \"#utility.yul\":1913:2045   */\n          swap2\n          swap1\n          pop\n          jump\t// out\n            /* \"#utility.yul\":2051:2159   */\n        tag_44:\n            /* \"#utility.yul\":2128:2152   */\n          tag_73\n            /* \"#utility.yul\":2146:2151   */\n          dup2\n            /* \"#utility.yul\":2128:2152   */\n          tag_36\n          jump\t// in\n        tag_73:\n            /* \"#utility.yul\":2123:2126   */\n          dup3\n            /* \"#utility.yul\":2116:2153   */\n          mstore\n            /* \"#utility.yul\":2051:2159   */\n          pop\n          pop\n          jump\t// out\n            /* \"#utility.yul\":2165:2344   */\n        tag_45:\n            /* \"#utility.yul\":2234:2244   */\n          0x00\n            /* \"#utility.yul\":2255:2301   */\n          tag_75\n            /* \"#utility.yul\":2297:2300   */\n          dup4\n            /* \"#utility.yul\":2289:2295   */\n          dup4\n            /* \"#utility.yul\":2255:2301   */\n          tag_44\n          jump\t// in\n        tag_75:\n            /* \"#utility.yul\":2333:2337   */\n          0x20\n            /* \"#utility.yul\":2328:2331   */\n          dup4\n            /* \"#utility.yul\":2324:2338   */\n          add\n            /* \"#utility.yul\":2310:2338   */\n          swap1\n          pop\n            /* \"#utility.yul\":2165:2344   */\n          swap3\n          swap2\n          pop\n          pop\n          jump\t// out\n            /* \"#utility.yul\":2350:2463   */\n        tag_46:\n            /* \"#utility.yul\":2420:2424   */\n          0x00\n            /* \"#utility.yul\":2452:2456   */\n          0x20\n            /* \"#utility.yul\":2447:2450   */\n          dup3\n            /* \"#utility.yul\":2443:2457   */\n          add\n            /* \"#utility.yul\":2435:2457   */\n          swap1\n          pop\n            /* \"#utility.yul\":2350:2463   */\n          swap2\n          swap1\n          pop\n          jump\t// out\n            /* \"#utility.yul\":2499:3231   */\n        tag_47:\n            /* \"#utility.yul\":2618:2621   */\n          0x00\n            /* \"#utility.yul\":2647:2701   */\n          tag_78\n            /* \"#utility.yul\":2695:2700   */\n          dup3\n            /* \"#utility.yul\":2647:2701   */\n          tag_41\n          jump\t// in\n        tag_78:\n            /* \"#utility.yul\":2717:2803   */\n          tag_79\n            /* \"#utility.yul\":2796:2802   */\n          dup2\n            /* \"#utility.yul\":2791:2794   */\n          dup6\n            /* \"#utility.yul\":2717:2803   */\n          tag_42\n          jump\t// in\n        tag_79:\n            /* \"#utility.yul\":2710:2803   */\n          swap4\n          pop\n            /* \"#utility.yul\":2827:2883   */\n          tag_80\n            /* \"#utility.yul\":2877:2882   */\n          dup4\n            /* \"#utility.yul\":2827:2883   */\n          tag_43\n          jump\t// in\n        tag_80:\n            /* \"#utility.yul\":2906:2913   */\n          dup1\n            /* \"#utility.yul\":2937:2938   */\n          0x00\n            /* \"#utility.yul\":2922:3206   */\n        tag_81:\n            /* \"#utility.yul\":2947:2953   */\n          dup4\n            /* \"#utility.yul\":2944:2945   */\n          dup2\n            /* \"#utility.yul\":2941:2954   */\n          lt\n            /* \"#utility.yul\":2922:3206   */\n          iszero\n          tag_83\n          jumpi\n            /* \"#utility.yul\":3023:3029   */\n          dup2\n            /* \"#utility.yul\":3017:3030   */\n          mload\n            /* \"#utility.yul\":3050:3113   */\n          tag_84\n            /* \"#utility.yul\":3109:3112   */\n          dup9\n            /* \"#utility.yul\":3094:3107   */\n          dup3\n            /* \"#utility.yul\":3050:3113   */\n          tag_45\n          jump\t// in\n        tag_84:\n            /* \"#utility.yul\":3043:3113   */\n          swap8\n          pop\n            /* \"#utility.yul\":3136:3196   */\n          tag_85\n            /* \"#utility.yul\":3189:3195   */\n          dup4\n            /* \"#utility.yul\":3136:3196   */\n          tag_46\n          jump\t// in\n        tag_85:\n            /* \"#utility.yul\":3126:3196   */\n          swap3\n          pop\n            /* \"#utility.yul\":2982:3206   */\n          pop\n            /* \"#utility.yul\":2969:2970   */\n          0x01\n            /* \"#utility.yul\":2966:2967   */\n          dup2\n            /* \"#utility.yul\":2962:2971   */\n          add\n            /* \"#utility.yul\":2957:2971   */\n          swap1\n          pop\n            /* \"#utility.yul\":2922:3206   */\n          jump(tag_81)\n        tag_83:\n            /* \"#utility.yul\":2926:2940   */\n          pop\n            /* \"#utility.yul\":3222:3225   */\n          dup6\n            /* \"#utility.yul\":3215:3225   */\n          swap4\n          pop\n            /* \"#utility.yul\":2623:3231   */\n          pop\n          pop\n          pop\n            /* \"#utility.yul\":2499:3231   */\n          swap3\n          swap2\n          pop\n          pop\n          jump\t// out\n            /* \"#utility.yul\":3237:3610   */\n        tag_18:\n            /* \"#utility.yul\":3380:3384   */\n          0x00\n            /* \"#utility.yul\":3418:3420   */\n          0x20\n            /* \"#utility.yul\":3407:3416   */\n          dup3\n            /* \"#utility.yul\":3403:3421   */\n          add\n            /* \"#utility.yul\":3395:3421   */\n          swap1\n          pop\n            /* \"#utility.yul\":3467:3476   */\n          dup2\n            /* \"#utility.yul\":3461:3465   */\n          dup2\n            /* \"#utility.yul\":3457:3477   */\n          sub\n            /* \"#utility.yul\":3453:3454   */\n          0x00\n            /* \"#utility.yul\":3442:3451   */\n          dup4\n            /* \"#utility.yul\":3438:3455   */\n          add\n            /* \"#utility.yul\":3431:3478   */\n          mstore\n            /* \"#utility.yul\":3495:3603   */\n          tag_87\n            /* \"#utility.yul\":3598:3602   */\n          dup2\n            /* \"#utility.yul\":3589:3595   */\n          dup5\n            /* \"#utility.yul\":3495:3603   */\n          tag_47\n          jump\t// in\n        tag_87:\n            /* \"#utility.yul\":3487:3603   */\n          swap1\n          pop\n            /* \"#utility.yul\":3237:3610   */\n          swap3\n          swap2\n          pop\n          pop\n          jump\t// out\n\n        auxdata: 0xa2646970667358221220f4c0702a1a7b29fa8ced84d3212e38c079b518c7f281805c5a57bd44f7eac7c264736f6c63430008110033\n    }\n}\n\nsub_4: assembly {\n        /* \"ElectronicMedicalRecords.sol\":11816:12952  contract DoctorRelation {... */\n      mstore(0x40, 0x80)\n        /* \"ElectronicMedicalRecords.sol\":12072:12133  constructor(address _admin) {... */\n      callvalue\n      dup1\n      iszero\n      tag_1\n      jumpi\n      0x00\n      dup1\n      revert\n    tag_1:\n      pop\n      mload(0x40)\n      sub(codesize, bytecodeSize)\n      dup1\n      bytecodeSize\n      dup4\n      codecopy\n      dup2\n      dup2\n      add\n      0x40\n      mstore\n      dup2\n      add\n      swap1\n      tag_2\n      swap2\n      swap1\n      tag_3\n      jump\t// in\n    tag_2:\n        /* \"ElectronicMedicalRecords.sol\":12119:12125  _admin */\n      dup1\n        /* \"ElectronicMedicalRecords.sol\":12111:12116  admin */\n      0x00\n      dup1\n        /* \"ElectronicMedicalRecords.sol\":12111:12125  admin = _admin */\n      0x0100\n      exp\n      dup2\n      sload\n      dup2\n      0xffffffffffffffffffffffffffffffffffffffff\n      mul\n      not\n      and\n      swap1\n      dup4\n      0xffffffffffffffffffffffffffffffffffffffff\n      and\n      mul\n      or\n      swap1\n      sstore\n      pop\n        /* \"ElectronicMedicalRecords.sol\":12072:12133  constructor(address _admin) {... */\n      pop\n        /* \"ElectronicMedicalRecords.sol\":11816:12952  contract DoctorRelation {... */\n      jump(tag_6)\n        /* \"#utility.yul\":88:205   */\n    tag_8:\n        /* \"#utility.yul\":197:198   */\n      0x00\n        /* \"#utility.yul\":194:195   */\n      dup1\n        /* \"#utility.yul\":187:199   */\n      revert\n        /* \"#utility.yul\":334:460   */\n    tag_10:\n        /* \"#utility.yul\":371:378   */\n      0x00\n        /* \"#utility.yul\":411:453   */\n      0xffffffffffffffffffffffffffffffffffffffff\n        /* \"#utility.yul\":404:409   */\n      dup3\n        /* \"#utility.yul\":400:454   */\n      and\n        /* \"#utility.yul\":389:454   */\n      swap1\n      pop\n        /* \"#utility.yul\":334:460   */\n      swap2\n      swap1\n      pop\n      jump\t// out\n        /* \"#utility.yul\":466:562   */\n    tag_11:\n        /* \"#utility.yul\":503:510   */\n      0x00\n        /* \"#utility.yul\":532:556   */\n      tag_20\n        /* \"#utility.yul\":550:555   */\n      dup3\n        /* \"#utility.yul\":532:556   */\n      tag_10\n      jump\t// in\n    tag_20:\n        /* \"#utility.yul\":521:556   */\n      swap1\n      pop\n        /* \"#utility.yul\":466:562   */\n      swap2\n      swap1\n      pop\n      jump\t// out\n        /* \"#utility.yul\":568:690   */\n    tag_12:\n        /* \"#utility.yul\":641:665   */\n      tag_22\n        /* \"#utility.yul\":659:664   */\n      dup2\n        /* \"#utility.yul\":641:665   */\n      tag_11\n      jump\t// in\n    tag_22:\n        /* \"#utility.yul\":634:639   */\n      dup2\n        /* \"#utility.yul\":631:666   */\n      eq\n        /* \"#utility.yul\":621:684   */\n      tag_23\n      jumpi\n        /* \"#utility.yul\":680:681   */\n      0x00\n        /* \"#utility.yul\":677:678   */\n      dup1\n        /* \"#utility.yul\":670:682   */\n      revert\n        /* \"#utility.yul\":621:684   */\n    tag_23:\n        /* \"#utility.yul\":568:690   */\n      pop\n      jump\t// out\n        /* \"#utility.yul\":696:839   */\n    tag_13:\n        /* \"#utility.yul\":753:758   */\n      0x00\n        /* \"#utility.yul\":784:790   */\n      dup2\n        /* \"#utility.yul\":778:791   */\n      mload\n        /* \"#utility.yul\":769:791   */\n      swap1\n      pop\n        /* \"#utility.yul\":800:833   */\n      tag_25\n        /* \"#utility.yul\":827:832   */\n      dup2\n        /* \"#utility.yul\":800:833   */\n      tag_12\n      jump\t// in\n    tag_25:\n        /* \"#utility.yul\":696:839   */\n      swap3\n      swap2\n      pop\n      pop\n      jump\t// out\n        /* \"#utility.yul\":845:1196   */\n    tag_3:\n        /* \"#utility.yul\":915:921   */\n      0x00\n        /* \"#utility.yul\":964:966   */\n      0x20\n        /* \"#utility.yul\":952:961   */\n      dup3\n        /* \"#utility.yul\":943:950   */\n      dup5\n        /* \"#utility.yul\":939:962   */\n      sub\n        /* \"#utility.yul\":935:967   */\n      slt\n        /* \"#utility.yul\":932:1051   */\n      iszero\n      tag_27\n      jumpi\n        /* \"#utility.yul\":970:1049   */\n      tag_28\n      tag_8\n      jump\t// in\n    tag_28:\n        /* \"#utility.yul\":932:1051   */\n    tag_27:\n        /* \"#utility.yul\":1090:1091   */\n      0x00\n        /* \"#utility.yul\":1115:1179   */\n      tag_29\n        /* \"#utility.yul\":1171:1178   */\n      dup5\n        /* \"#utility.yul\":1162:1168   */\n      dup3\n        /* \"#utility.yul\":1151:1160   */\n      dup6\n        /* \"#utility.yul\":1147:1169   */\n      add\n        /* \"#utility.yul\":1115:1179   */\n      tag_13\n      jump\t// in\n    tag_29:\n        /* \"#utility.yul\":1105:1179   */\n      swap2\n      pop\n        /* \"#utility.yul\":1061:1189   */\n      pop\n        /* \"#utility.yul\":845:1196   */\n      swap3\n      swap2\n      pop\n      pop\n      jump\t// out\n        /* \"ElectronicMedicalRecords.sol\":11816:12952  contract DoctorRelation {... */\n    tag_6:\n      dataSize(sub_0)\n      dup1\n      dataOffset(sub_0)\n      0x00\n      codecopy\n      0x00\n      return\n    stop\n\n    sub_0: assembly {\n            /* \"ElectronicMedicalRecords.sol\":11816:12952  contract DoctorRelation {... */\n          mstore(0x40, 0x80)\n          callvalue\n          dup1\n          iszero\n          tag_1\n          jumpi\n          0x00\n          dup1\n          revert\n        tag_1:\n          pop\n          jumpi(tag_2, lt(calldatasize, 0x04))\n          shr(0xe0, calldataload(0x00))\n          dup1\n          0x1107747e\n          eq\n          tag_3\n          jumpi\n          dup1\n          0x43a0e44a\n          eq\n          tag_4\n          jumpi\n          dup1\n          0xf40941d0\n          eq\n          tag_5\n          jumpi\n        tag_2:\n          0x00\n          dup1\n          revert\n            /* \"ElectronicMedicalRecords.sol\":12141:12343  function setDoctorVerificatorAddress(address _DoctorVerificatorAddress) public {... */\n        tag_3:\n          tag_6\n          0x04\n          dup1\n          calldatasize\n          sub\n          dup2\n          add\n          swap1\n          tag_7\n          swap2\n          swap1\n          tag_8\n          jump\t// in\n        tag_7:\n          tag_9\n          jump\t// in\n        tag_6:\n          stop\n            /* \"ElectronicMedicalRecords.sol\":12351:12668  function addDoctorRelation(address _doctor, string memory _fullname, string memory _jenis, address _add) onlyDoctor(_doctor) public {... */\n        tag_4:\n          tag_10\n          0x04\n          dup1\n          calldatasize\n          sub\n          dup2\n          add\n          swap1\n          tag_11\n          swap2\n          swap1\n          tag_12\n          jump\t// in\n        tag_11:\n          tag_13\n          jump\t// in\n        tag_10:\n          stop\n            /* \"ElectronicMedicalRecords.sol\":12676:12830  function getDoctorRelations(address _doctor) public view onlyDoctor(msg.sender) returns(Patient[] memory) {... */\n        tag_5:\n          tag_14\n          0x04\n          dup1\n          calldatasize\n          sub\n          dup2\n          add\n          swap1\n          tag_15\n          swap2\n          swap1\n          tag_8\n          jump\t// in\n        tag_15:\n          tag_16\n          jump\t// in\n        tag_14:\n          mload(0x40)\n          tag_17\n          swap2\n          swap1\n          tag_18\n          jump\t// in\n        tag_17:\n          mload(0x40)\n          dup1\n          swap2\n          sub\n          swap1\n          return\n            /* \"ElectronicMedicalRecords.sol\":12141:12343  function setDoctorVerificatorAddress(address _DoctorVerificatorAddress) public {... */\n        tag_9:\n            /* \"ElectronicMedicalRecords.sol\":12253:12258  admin */\n          0x00\n          dup1\n          sload\n          swap1\n          0x0100\n          exp\n          swap1\n          div\n          0xffffffffffffffffffffffffffffffffffffffff\n          and\n            /* \"ElectronicMedicalRecords.sol\":12239:12258  msg.sender == admin */\n          0xffffffffffffffffffffffffffffffffffffffff\n          and\n            /* \"ElectronicMedicalRecords.sol\":12239:12249  msg.sender */\n          caller\n            /* \"ElectronicMedicalRecords.sol\":12239:12258  msg.sender == admin */\n          0xffffffffffffffffffffffffffffffffffffffff\n          and\n          eq\n            /* \"ElectronicMedicalRecords.sol\":12231:12259  require(msg.sender == admin) */\n          tag_20\n          jumpi\n          0x00\n          dup1\n          revert\n        tag_20:\n            /* \"ElectronicMedicalRecords.sol\":12309:12334  _DoctorVerificatorAddress */\n          dup1\n            /* \"ElectronicMedicalRecords.sol\":12270:12288  doctor_verificator */\n          0x02\n          0x00\n            /* \"ElectronicMedicalRecords.sol\":12270:12335  doctor_verificator = DoctorVerificator(_DoctorVerificatorAddress) */\n          0x0100\n          exp\n          dup2\n          sload\n          dup2\n          0xffffffffffffffffffffffffffffffffffffffff\n          mul\n          not\n          and\n          swap1\n          dup4\n          0xffffffffffffffffffffffffffffffffffffffff\n          and\n          mul\n          or\n          swap1\n          sstore\n          pop\n            /* \"ElectronicMedicalRecords.sol\":12141:12343  function setDoctorVerificatorAddress(address _DoctorVerificatorAddress) public {... */\n          pop\n          jump\t// out\n            /* \"ElectronicMedicalRecords.sol\":12351:12668  function addDoctorRelation(address _doctor, string memory _fullname, string memory _jenis, address _add) onlyDoctor(_doctor) public {... */\n        tag_13:\n            /* \"ElectronicMedicalRecords.sol\":12467:12474  _doctor */\n          dup4\n            /* \"ElectronicMedicalRecords.sol\":12894:12912  doctor_verificator */\n          0x02\n          0x00\n          swap1\n          sload\n          swap1\n          0x0100\n          exp\n          swap1\n          div\n          0xffffffffffffffffffffffffffffffffffffffff\n          and\n            /* \"ElectronicMedicalRecords.sol\":12894:12919  doctor_verificator.verify */\n          0xffffffffffffffffffffffffffffffffffffffff\n          and\n          0x63a9c3d7\n            /* \"ElectronicMedicalRecords.sol\":12920:12927  _doctor */\n          dup3\n            /* \"ElectronicMedicalRecords.sol\":12894:12928  doctor_verificator.verify(_doctor) */\n          mload(0x40)\n          dup3\n          0xffffffff\n          and\n          0xe0\n          shl\n          dup2\n          mstore\n          0x04\n          add\n          tag_22\n          swap2\n          swap1\n          tag_23\n          jump\t// in\n        tag_22:\n          0x20\n          mload(0x40)\n          dup1\n          dup4\n          sub\n          dup2\n          dup7\n          gas\n          staticcall\n          iszero\n          dup1\n          iszero\n          tag_25\n          jumpi\n          returndatasize\n          0x00\n          dup1\n          returndatacopy\n          revert(0x00, returndatasize)\n        tag_25:\n          pop\n          pop\n          pop\n          pop\n          mload(0x40)\n          returndatasize\n          not(0x1f)\n          0x1f\n          dup3\n          add\n          and\n          dup3\n          add\n          dup1\n          0x40\n          mstore\n          pop\n          dup2\n          add\n          swap1\n          tag_26\n          swap2\n          swap1\n          tag_27\n          jump\t// in\n        tag_26:\n            /* \"ElectronicMedicalRecords.sol\":12886:12929  require(doctor_verificator.verify(_doctor)) */\n          tag_28\n          jumpi\n          0x00\n          dup1\n          revert\n        tag_28:\n            /* \"ElectronicMedicalRecords.sol\":12494:12516  Patient memory patient */\n          tag_30\n          tag_31\n          jump\t// in\n        tag_30:\n            /* \"ElectronicMedicalRecords.sol\":12542:12551  _fullname */\n          dup5\n            /* \"ElectronicMedicalRecords.sol\":12527:12534  patient */\n          dup2\n            /* \"ElectronicMedicalRecords.sol\":12527:12539  patient.name */\n          0x00\n          add\n            /* \"ElectronicMedicalRecords.sol\":12527:12551  patient.name = _fullname */\n          dup2\n          swap1\n          mstore\n          pop\n            /* \"ElectronicMedicalRecords.sol\":12578:12584  _jenis */\n          dup4\n            /* \"ElectronicMedicalRecords.sol\":12562:12569  patient */\n          dup2\n            /* \"ElectronicMedicalRecords.sol\":12562:12575  patient.jenis */\n          0x20\n          add\n            /* \"ElectronicMedicalRecords.sol\":12562:12584  patient.jenis = _jenis */\n          dup2\n          swap1\n          mstore\n          pop\n            /* \"ElectronicMedicalRecords.sol\":12609:12613  _add */\n          dup3\n            /* \"ElectronicMedicalRecords.sol\":12595:12602  patient */\n          dup2\n            /* \"ElectronicMedicalRecords.sol\":12595:12606  patient.add */\n          0x40\n          add\n            /* \"ElectronicMedicalRecords.sol\":12595:12613  patient.add = _add */\n          swap1\n          0xffffffffffffffffffffffffffffffffffffffff\n          and\n          swap1\n          dup2\n          0xffffffffffffffffffffffffffffffffffffffff\n          and\n          dup2\n          mstore\n          pop\n          pop\n            /* \"ElectronicMedicalRecords.sol\":12624:12637  relatedPatien */\n          0x01\n            /* \"ElectronicMedicalRecords.sol\":12624:12646  relatedPatien[_doctor] */\n          0x00\n            /* \"ElectronicMedicalRecords.sol\":12638:12645  _doctor */\n          dup8\n            /* \"ElectronicMedicalRecords.sol\":12624:12646  relatedPatien[_doctor] */\n          0xffffffffffffffffffffffffffffffffffffffff\n          and\n          0xffffffffffffffffffffffffffffffffffffffff\n          and\n          dup2\n          mstore\n          0x20\n          add\n          swap1\n          dup2\n          mstore\n          0x20\n          add\n          0x00\n          keccak256\n            /* \"ElectronicMedicalRecords.sol\":12652:12659  patient */\n          dup2\n            /* \"ElectronicMedicalRecords.sol\":12624:12660  relatedPatien[_doctor].push(patient) */\n          swap1\n          dup1\n          0x01\n          dup2\n          sload\n          add\n          dup1\n          dup3\n          sstore\n          dup1\n          swap2\n          pop\n          pop\n          0x01\n          swap1\n          sub\n          swap1\n          0x00\n          mstore\n          keccak256(0x00, 0x20)\n          swap1\n          0x03\n          mul\n          add\n          0x00\n          swap1\n          swap2\n          swap1\n          swap2\n          swap1\n          swap2\n          pop\n          0x00\n          dup3\n          add\n          mload\n          dup2\n          0x00\n          add\n          swap1\n          dup2\n          tag_33\n          swap2\n          swap1\n          tag_34\n          jump\t// in\n        tag_33:\n          pop\n          0x20\n          dup3\n          add\n          mload\n          dup2\n          0x01\n          add\n          swap1\n          dup2\n          tag_35\n          swap2\n          swap1\n          tag_34\n          jump\t// in\n        tag_35:\n          pop\n          0x40\n          dup3\n          add\n          mload\n          dup2\n          0x02\n          add\n          exp(0x0100, 0x00)\n          dup2\n          sload\n          dup2\n          0xffffffffffffffffffffffffffffffffffffffff\n          mul\n          not\n          and\n          swap1\n          dup4\n          0xffffffffffffffffffffffffffffffffffffffff\n          and\n          mul\n          or\n          swap1\n          sstore\n          pop\n          pop\n          pop\n            /* \"ElectronicMedicalRecords.sol\":12483:12668  {... */\n          pop\n            /* \"ElectronicMedicalRecords.sol\":12351:12668  function addDoctorRelation(address _doctor, string memory _fullname, string memory _jenis, address _add) onlyDoctor(_doctor) public {... */\n          pop\n          pop\n          pop\n          pop\n          pop\n          jump\t// out\n            /* \"ElectronicMedicalRecords.sol\":12676:12830  function getDoctorRelations(address _doctor) public view onlyDoctor(msg.sender) returns(Patient[] memory) {... */\n        tag_16:\n            /* \"ElectronicMedicalRecords.sol\":12764:12780  Patient[] memory */\n          0x60\n            /* \"ElectronicMedicalRecords.sol\":12744:12754  msg.sender */\n          caller\n            /* \"ElectronicMedicalRecords.sol\":12894:12912  doctor_verificator */\n          0x02\n          0x00\n          swap1\n          sload\n          swap1\n          0x0100\n          exp\n          swap1\n          div\n          0xffffffffffffffffffffffffffffffffffffffff\n          and\n            /* \"ElectronicMedicalRecords.sol\":12894:12919  doctor_verificator.verify */\n          0xffffffffffffffffffffffffffffffffffffffff\n          and\n          0x63a9c3d7\n            /* \"ElectronicMedicalRecords.sol\":12920:12927  _doctor */\n          dup3\n            /* \"ElectronicMedicalRecords.sol\":12894:12928  doctor_verificator.verify(_doctor) */\n          mload(0x40)\n          dup3\n          0xffffffff\n          and\n          0xe0\n          shl\n          dup2\n          mstore\n          0x04\n          add\n          tag_37\n          swap2\n          swap1\n          tag_23\n          jump\t// in\n        tag_37:\n          0x20\n          mload(0x40)\n          dup1\n          dup4\n          sub\n          dup2\n          dup7\n          gas\n          staticcall\n          iszero\n          dup1\n          iszero\n          tag_39\n          jumpi\n          returndatasize\n          0x00\n          dup1\n          returndatacopy\n          revert(0x00, returndatasize)\n        tag_39:\n          pop\n          pop\n          pop\n          pop\n          mload(0x40)\n          returndatasize\n          not(0x1f)\n          0x1f\n          dup3\n          add\n          and\n          dup3\n          add\n          dup1\n          0x40\n          mstore\n          pop\n          dup2\n          add\n          swap1\n          tag_40\n          swap2\n          swap1\n          tag_27\n          jump\t// in\n        tag_40:\n            /* \"ElectronicMedicalRecords.sol\":12886:12929  require(doctor_verificator.verify(_doctor)) */\n          tag_41\n          jumpi\n          0x00\n          dup1\n          revert\n        tag_41:\n            /* \"ElectronicMedicalRecords.sol\":12800:12813  relatedPatien */\n          0x01\n            /* \"ElectronicMedicalRecords.sol\":12800:12822  relatedPatien[_doctor] */\n          0x00\n            /* \"ElectronicMedicalRecords.sol\":12814:12821  _doctor */\n          dup5\n            /* \"ElectronicMedicalRecords.sol\":12800:12822  relatedPatien[_doctor] */\n          0xffffffffffffffffffffffffffffffffffffffff\n          and\n          0xffffffffffffffffffffffffffffffffffffffff\n          and\n          dup2\n          mstore\n          0x20\n          add\n          swap1\n          dup2\n          mstore\n          0x20\n          add\n          0x00\n          keccak256\n            /* \"ElectronicMedicalRecords.sol\":12793:12822  return relatedPatien[_doctor] */\n          dup1\n          sload\n          dup1\n          0x20\n          mul\n          0x20\n          add\n          mload(0x40)\n          swap1\n          dup2\n          add\n          0x40\n          mstore\n          dup1\n          swap3\n          swap2\n          swap1\n          dup2\n          dup2\n          mstore\n          0x20\n          add\n          0x00\n          swap1\n        tag_43:\n          dup3\n          dup3\n          lt\n          iszero\n          tag_44\n          jumpi\n          dup4\n          dup3\n          swap1\n          0x00\n          mstore\n          keccak256(0x00, 0x20)\n          swap1\n          0x03\n          mul\n          add\n          mload(0x40)\n          dup1\n          0x60\n          add\n          0x40\n          mstore\n          swap1\n          dup2\n          0x00\n          dup3\n          add\n          dup1\n          sload\n          tag_46\n          swap1\n          tag_47\n          jump\t// in\n        tag_46:\n          dup1\n          0x1f\n          add\n          0x20\n          dup1\n          swap2\n          div\n          mul\n          0x20\n          add\n          mload(0x40)\n          swap1\n          dup2\n          add\n          0x40\n          mstore\n          dup1\n          swap3\n          swap2\n          swap1\n          dup2\n          dup2\n          mstore\n          0x20\n          add\n          dup3\n          dup1\n          sload\n          tag_48\n          swap1\n          tag_47\n          jump\t// in\n        tag_48:\n          dup1\n          iszero\n          tag_49\n          jumpi\n          dup1\n          0x1f\n          lt\n          tag_50\n          jumpi\n          0x0100\n          dup1\n          dup4\n          sload\n          div\n          mul\n          dup4\n          mstore\n          swap2\n          0x20\n          add\n          swap2\n          jump(tag_49)\n        tag_50:\n          dup3\n          add\n          swap2\n          swap1\n          0x00\n          mstore\n          keccak256(0x00, 0x20)\n          swap1\n        tag_51:\n          dup2\n          sload\n          dup2\n          mstore\n          swap1\n          0x01\n          add\n          swap1\n          0x20\n          add\n          dup1\n          dup4\n          gt\n          tag_51\n          jumpi\n          dup3\n          swap1\n          sub\n          0x1f\n          and\n          dup3\n          add\n          swap2\n        tag_49:\n          pop\n          pop\n          pop\n          pop\n          pop\n          dup2\n          mstore\n          0x20\n          add\n          0x01\n          dup3\n          add\n          dup1\n          sload\n          tag_52\n          swap1\n          tag_47\n          jump\t// in\n        tag_52:\n          dup1\n          0x1f\n          add\n          0x20\n          dup1\n          swap2\n          div\n          mul\n          0x20\n          add\n          mload(0x40)\n          swap1\n          dup2\n          add\n          0x40\n          mstore\n          dup1\n          swap3\n          swap2\n          swap1\n          dup2\n          dup2\n          mstore\n          0x20\n          add\n          dup3\n          dup1\n          sload\n          tag_53\n          swap1\n          tag_47\n          jump\t// in\n        tag_53:\n          dup1\n          iszero\n          tag_54\n          jumpi\n          dup1\n          0x1f\n          lt\n          tag_55\n          jumpi\n          0x0100\n          dup1\n          dup4\n          sload\n          div\n          mul\n          dup4\n          mstore\n          swap2\n          0x20\n          add\n          swap2\n          jump(tag_54)\n        tag_55:\n          dup3\n          add\n          swap2\n          swap1\n          0x00\n          mstore\n          keccak256(0x00, 0x20)\n          swap1\n        tag_56:\n          dup2\n          sload\n          dup2\n          mstore\n          swap1\n          0x01\n          add\n          swap1\n          0x20\n          add\n          dup1\n          dup4\n          gt\n          tag_56\n          jumpi\n          dup3\n          swap1\n          sub\n          0x1f\n          and\n          dup3\n          add\n          swap2\n        tag_54:\n          pop\n          pop\n          pop\n          pop\n          pop\n          dup2\n          mstore\n          0x20\n          add\n          0x02\n          dup3\n          add\n          0x00\n          swap1\n          sload\n          swap1\n          0x0100\n          exp\n          swap1\n          div\n          0xffffffffffffffffffffffffffffffffffffffff\n          and\n          0xffffffffffffffffffffffffffffffffffffffff\n          and\n          0xffffffffffffffffffffffffffffffffffffffff\n          and\n          dup2\n          mstore\n          pop\n          pop\n          dup2\n          mstore\n          0x20\n          add\n          swap1\n          0x01\n          add\n          swap1\n          jump(tag_43)\n        tag_44:\n          pop\n          pop\n          pop\n          pop\n          swap2\n          pop\n            /* \"ElectronicMedicalRecords.sol\":12676:12830  function getDoctorRelations(address _doctor) public view onlyDoctor(msg.sender) returns(Patient[] memory) {... */\n          pop\n          swap2\n          swap1\n          pop\n          jump\t// out\n        tag_31:\n          mload(0x40)\n          dup1\n          0x60\n          add\n          0x40\n          mstore\n          dup1\n          0x60\n          dup2\n          mstore\n          0x20\n          add\n          0x60\n          dup2\n          mstore\n          0x20\n          add\n          and(0xffffffffffffffffffffffffffffffffffffffff, 0x00)\n          dup2\n          mstore\n          pop\n          swap1\n          jump\t// out\n            /* \"#utility.yul\":7:82   */\n        tag_57:\n            /* \"#utility.yul\":40:46   */\n          0x00\n            /* \"#utility.yul\":73:75   */\n          0x40\n            /* \"#utility.yul\":67:76   */\n          mload\n            /* \"#utility.yul\":57:76   */\n          swap1\n          pop\n            /* \"#utility.yul\":7:82   */\n          swap1\n          jump\t// out\n            /* \"#utility.yul\":88:205   */\n        tag_58:\n            /* \"#utility.yul\":197:198   */\n          0x00\n            /* \"#utility.yul\":194:195   */\n          dup1\n            /* \"#utility.yul\":187:199   */\n          revert\n            /* \"#utility.yul\":211:328   */\n        tag_59:\n            /* \"#utility.yul\":320:321   */\n          0x00\n            /* \"#utility.yul\":317:318   */\n          dup1\n            /* \"#utility.yul\":310:322   */\n          revert\n            /* \"#utility.yul\":334:460   */\n        tag_60:\n            /* \"#utility.yul\":371:378   */\n          0x00\n            /* \"#utility.yul\":411:453   */\n          0xffffffffffffffffffffffffffffffffffffffff\n            /* \"#utility.yul\":404:409   */\n          dup3\n            /* \"#utility.yul\":400:454   */\n          and\n            /* \"#utility.yul\":389:454   */\n          swap1\n          pop\n            /* \"#utility.yul\":334:460   */\n          swap2\n          swap1\n          pop\n          jump\t// out\n            /* \"#utility.yul\":466:562   */\n        tag_61:\n            /* \"#utility.yul\":503:510   */\n          0x00\n            /* \"#utility.yul\":532:556   */\n          tag_113\n            /* \"#utility.yul\":550:555   */\n          dup3\n            /* \"#utility.yul\":532:556   */\n          tag_60\n          jump\t// in\n        tag_113:\n            /* \"#utility.yul\":521:556   */\n          swap1\n          pop\n            /* \"#utility.yul\":466:562   */\n          swap2\n          swap1\n          pop\n          jump\t// out\n            /* \"#utility.yul\":568:690   */\n        tag_62:\n            /* \"#utility.yul\":641:665   */\n          tag_115\n            /* \"#utility.yul\":659:664   */\n          dup2\n            /* \"#utility.yul\":641:665   */\n          tag_61\n          jump\t// in\n        tag_115:\n            /* \"#utility.yul\":634:639   */\n          dup2\n            /* \"#utility.yul\":631:666   */\n          eq\n            /* \"#utility.yul\":621:684   */\n          tag_116\n          jumpi\n            /* \"#utility.yul\":680:681   */\n          0x00\n            /* \"#utility.yul\":677:678   */\n          dup1\n            /* \"#utility.yul\":670:682   */\n          revert\n            /* \"#utility.yul\":621:684   */\n        tag_116:\n            /* \"#utility.yul\":568:690   */\n          pop\n          jump\t// out\n            /* \"#utility.yul\":696:835   */\n        tag_63:\n            /* \"#utility.yul\":742:747   */\n          0x00\n            /* \"#utility.yul\":780:786   */\n          dup2\n            /* \"#utility.yul\":767:787   */\n          calldataload\n            /* \"#utility.yul\":758:787   */\n          swap1\n          pop\n            /* \"#utility.yul\":796:829   */\n          tag_118\n            /* \"#utility.yul\":823:828   */\n          dup2\n            /* \"#utility.yul\":796:829   */\n          tag_62\n          jump\t// in\n        tag_118:\n            /* \"#utility.yul\":696:835   */\n          swap3\n          swap2\n          pop\n          pop\n          jump\t// out\n            /* \"#utility.yul\":841:1170   */\n        tag_8:\n            /* \"#utility.yul\":900:906   */\n          0x00\n            /* \"#utility.yul\":949:951   */\n          0x20\n            /* \"#utility.yul\":937:946   */\n          dup3\n            /* \"#utility.yul\":928:935   */\n          dup5\n            /* \"#utility.yul\":924:947   */\n          sub\n            /* \"#utility.yul\":920:952   */\n          slt\n            /* \"#utility.yul\":917:1036   */\n          iszero\n          tag_120\n          jumpi\n            /* \"#utility.yul\":955:1034   */\n          tag_121\n          tag_58\n          jump\t// in\n        tag_121:\n            /* \"#utility.yul\":917:1036   */\n        tag_120:\n            /* \"#utility.yul\":1075:1076   */\n          0x00\n            /* \"#utility.yul\":1100:1153   */\n          tag_122\n            /* \"#utility.yul\":1145:1152   */\n          dup5\n            /* \"#utility.yul\":1136:1142   */\n          dup3\n            /* \"#utility.yul\":1125:1134   */\n          dup6\n            /* \"#utility.yul\":1121:1143   */\n          add\n            /* \"#utility.yul\":1100:1153   */\n          tag_63\n          jump\t// in\n        tag_122:\n            /* \"#utility.yul\":1090:1153   */\n          swap2\n          pop\n            /* \"#utility.yul\":1046:1163   */\n          pop\n            /* \"#utility.yul\":841:1170   */\n          swap3\n          swap2\n          pop\n          pop\n          jump\t// out\n            /* \"#utility.yul\":1176:1293   */\n        tag_64:\n            /* \"#utility.yul\":1285:1286   */\n          0x00\n            /* \"#utility.yul\":1282:1283   */\n          dup1\n            /* \"#utility.yul\":1275:1287   */\n          revert\n            /* \"#utility.yul\":1299:1416   */\n        tag_65:\n            /* \"#utility.yul\":1408:1409   */\n          0x00\n            /* \"#utility.yul\":1405:1406   */\n          dup1\n            /* \"#utility.yul\":1398:1410   */\n          revert\n            /* \"#utility.yul\":1422:1524   */\n        tag_66:\n            /* \"#utility.yul\":1463:1469   */\n          0x00\n            /* \"#utility.yul\":1514:1516   */\n          0x1f\n            /* \"#utility.yul\":1510:1517   */\n          not\n            /* \"#utility.yul\":1505:1507   */\n          0x1f\n            /* \"#utility.yul\":1498:1503   */\n          dup4\n            /* \"#utility.yul\":1494:1508   */\n          add\n            /* \"#utility.yul\":1490:1518   */\n          and\n            /* \"#utility.yul\":1480:1518   */\n          swap1\n          pop\n            /* \"#utility.yul\":1422:1524   */\n          swap2\n          swap1\n          pop\n          jump\t// out\n            /* \"#utility.yul\":1530:1710   */\n        tag_67:\n            /* \"#utility.yul\":1578:1655   */\n          0x4e487b7100000000000000000000000000000000000000000000000000000000\n            /* \"#utility.yul\":1575:1576   */\n          0x00\n            /* \"#utility.yul\":1568:1656   */\n          mstore\n            /* \"#utility.yul\":1675:1679   */\n          0x41\n            /* \"#utility.yul\":1672:1673   */\n          0x04\n            /* \"#utility.yul\":1665:1680   */\n          mstore\n            /* \"#utility.yul\":1699:1703   */\n          0x24\n            /* \"#utility.yul\":1696:1697   */\n          0x00\n            /* \"#utility.yul\":1689:1704   */\n          revert\n            /* \"#utility.yul\":1716:1997   */\n        tag_68:\n            /* \"#utility.yul\":1799:1826   */\n          tag_128\n            /* \"#utility.yul\":1821:1825   */\n          dup3\n            /* \"#utility.yul\":1799:1826   */\n          tag_66\n          jump\t// in\n        tag_128:\n            /* \"#utility.yul\":1791:1797   */\n          dup2\n            /* \"#utility.yul\":1787:1827   */\n          add\n            /* \"#utility.yul\":1929:1935   */\n          dup2\n            /* \"#utility.yul\":1917:1927   */\n          dup2\n            /* \"#utility.yul\":1914:1936   */\n          lt\n            /* \"#utility.yul\":1893:1911   */\n          0xffffffffffffffff\n            /* \"#utility.yul\":1881:1891   */\n          dup3\n            /* \"#utility.yul\":1878:1912   */\n          gt\n            /* \"#utility.yul\":1875:1937   */\n          or\n            /* \"#utility.yul\":1872:1960   */\n          iszero\n          tag_129\n          jumpi\n            /* \"#utility.yul\":1940:1958   */\n          tag_130\n          tag_67\n          jump\t// in\n        tag_130:\n            /* \"#utility.yul\":1872:1960   */\n        tag_129:\n            /* \"#utility.yul\":1980:1990   */\n          dup1\n            /* \"#utility.yul\":1976:1978   */\n          0x40\n            /* \"#utility.yul\":1969:1991   */\n          mstore\n            /* \"#utility.yul\":1759:1997   */\n          pop\n            /* \"#utility.yul\":1716:1997   */\n          pop\n          pop\n          jump\t// out\n            /* \"#utility.yul\":2003:2132   */\n        tag_69:\n            /* \"#utility.yul\":2037:2043   */\n          0x00\n            /* \"#utility.yul\":2064:2084   */\n          tag_132\n          tag_57\n          jump\t// in\n        tag_132:\n            /* \"#utility.yul\":2054:2084   */\n          swap1\n          pop\n            /* \"#utility.yul\":2093:2126   */\n          tag_133\n            /* \"#utility.yul\":2121:2125   */\n          dup3\n            /* \"#utility.yul\":2113:2119   */\n          dup3\n            /* \"#utility.yul\":2093:2126   */\n          tag_68\n          jump\t// in\n        tag_133:\n            /* \"#utility.yul\":2003:2132   */\n          swap2\n          swap1\n          pop\n          jump\t// out\n            /* \"#utility.yul\":2138:2446   */\n        tag_70:\n            /* \"#utility.yul\":2200:2204   */\n          0x00\n            /* \"#utility.yul\":2290:2308   */\n          0xffffffffffffffff\n            /* \"#utility.yul\":2282:2288   */\n          dup3\n            /* \"#utility.yul\":2279:2309   */\n          gt\n            /* \"#utility.yul\":2276:2332   */\n          iszero\n          tag_135\n          jumpi\n            /* \"#utility.yul\":2312:2330   */\n          tag_136\n          tag_67\n          jump\t// in\n        tag_136:\n            /* \"#utility.yul\":2276:2332   */\n        tag_135:\n            /* \"#utility.yul\":2350:2379   */\n          tag_137\n            /* \"#utility.yul\":2372:2378   */\n          dup3\n            /* \"#utility.yul\":2350:2379   */\n          tag_66\n          jump\t// in\n        tag_137:\n            /* \"#utility.yul\":2342:2379   */\n          swap1\n          pop\n            /* \"#utility.yul\":2434:2438   */\n          0x20\n            /* \"#utility.yul\":2428:2432   */\n          dup2\n            /* \"#utility.yul\":2424:2439   */\n          add\n            /* \"#utility.yul\":2416:2439   */\n          swap1\n          pop\n            /* \"#utility.yul\":2138:2446   */\n          swap2\n          swap1\n          pop\n          jump\t// out\n            /* \"#utility.yul\":2452:2598   */\n        tag_71:\n            /* \"#utility.yul\":2549:2555   */\n          dup3\n            /* \"#utility.yul\":2544:2547   */\n          dup2\n            /* \"#utility.yul\":2539:2542   */\n          dup4\n            /* \"#utility.yul\":2526:2556   */\n          calldatacopy\n            /* \"#utility.yul\":2590:2591   */\n          0x00\n            /* \"#utility.yul\":2581:2587   */\n          dup4\n            /* \"#utility.yul\":2576:2579   */\n          dup4\n            /* \"#utility.yul\":2572:2588   */\n          add\n            /* \"#utility.yul\":2565:2592   */\n          mstore\n            /* \"#utility.yul\":2452:2598   */\n          pop\n          pop\n          pop\n          jump\t// out\n            /* \"#utility.yul\":2604:3029   */\n        tag_72:\n            /* \"#utility.yul\":2682:2687   */\n          0x00\n            /* \"#utility.yul\":2707:2773   */\n          tag_140\n            /* \"#utility.yul\":2723:2772   */\n          tag_141\n            /* \"#utility.yul\":2765:2771   */\n          dup5\n            /* \"#utility.yul\":2723:2772   */\n          tag_70\n          jump\t// in\n        tag_141:\n            /* \"#utility.yul\":2707:2773   */\n          tag_69\n          jump\t// in\n        tag_140:\n            /* \"#utility.yul\":2698:2773   */\n          swap1\n          pop\n            /* \"#utility.yul\":2796:2802   */\n          dup3\n            /* \"#utility.yul\":2789:2794   */\n          dup2\n            /* \"#utility.yul\":2782:2803   */\n          mstore\n            /* \"#utility.yul\":2834:2838   */\n          0x20\n            /* \"#utility.yul\":2827:2832   */\n          dup2\n            /* \"#utility.yul\":2823:2839   */\n          add\n            /* \"#utility.yul\":2872:2875   */\n          dup5\n            /* \"#utility.yul\":2863:2869   */\n          dup5\n            /* \"#utility.yul\":2858:2861   */\n          dup5\n            /* \"#utility.yul\":2854:2870   */\n          add\n            /* \"#utility.yul\":2851:2876   */\n          gt\n            /* \"#utility.yul\":2848:2960   */\n          iszero\n          tag_142\n          jumpi\n            /* \"#utility.yul\":2879:2958   */\n          tag_143\n          tag_65\n          jump\t// in\n        tag_143:\n            /* \"#utility.yul\":2848:2960   */\n        tag_142:\n            /* \"#utility.yul\":2969:3023   */\n          tag_144\n            /* \"#utility.yul\":3016:3022   */\n          dup5\n            /* \"#utility.yul\":3011:3014   */\n          dup3\n            /* \"#utility.yul\":3006:3009   */\n          dup6\n            /* \"#utility.yul\":2969:3023   */\n          tag_71\n          jump\t// in\n        tag_144:\n            /* \"#utility.yul\":2688:3029   */\n          pop\n            /* \"#utility.yul\":2604:3029   */\n          swap4\n          swap3\n          pop\n          pop\n          pop\n          jump\t// out\n            /* \"#utility.yul\":3049:3389   */\n        tag_73:\n            /* \"#utility.yul\":3105:3110   */\n          0x00\n            /* \"#utility.yul\":3154:3157   */\n          dup3\n            /* \"#utility.yul\":3147:3151   */\n          0x1f\n            /* \"#utility.yul\":3139:3145   */\n          dup4\n            /* \"#utility.yul\":3135:3152   */\n          add\n            /* \"#utility.yul\":3131:3158   */\n          slt\n            /* \"#utility.yul\":3121:3243   */\n          tag_146\n          jumpi\n            /* \"#utility.yul\":3162:3241   */\n          tag_147\n          tag_64\n          jump\t// in\n        tag_147:\n            /* \"#utility.yul\":3121:3243   */\n        tag_146:\n            /* \"#utility.yul\":3279:3285   */\n          dup2\n            /* \"#utility.yul\":3266:3286   */\n          calldataload\n            /* \"#utility.yul\":3304:3383   */\n          tag_148\n            /* \"#utility.yul\":3379:3382   */\n          dup5\n            /* \"#utility.yul\":3371:3377   */\n          dup3\n            /* \"#utility.yul\":3364:3368   */\n          0x20\n            /* \"#utility.yul\":3356:3362   */\n          dup7\n            /* \"#utility.yul\":3352:3369   */\n          add\n            /* \"#utility.yul\":3304:3383   */\n          tag_72\n          jump\t// in\n        tag_148:\n            /* \"#utility.yul\":3295:3383   */\n          swap2\n          pop\n            /* \"#utility.yul\":3111:3389   */\n          pop\n            /* \"#utility.yul\":3049:3389   */\n          swap3\n          swap2\n          pop\n          pop\n          jump\t// out\n            /* \"#utility.yul\":3395:4520   */\n        tag_12:\n            /* \"#utility.yul\":3501:3507   */\n          0x00\n            /* \"#utility.yul\":3509:3515   */\n          dup1\n            /* \"#utility.yul\":3517:3523   */\n          0x00\n            /* \"#utility.yul\":3525:3531   */\n          dup1\n            /* \"#utility.yul\":3574:3577   */\n          0x80\n            /* \"#utility.yul\":3562:3571   */\n          dup6\n            /* \"#utility.yul\":3553:3560   */\n          dup8\n            /* \"#utility.yul\":3549:3572   */\n          sub\n            /* \"#utility.yul\":3545:3578   */\n          slt\n            /* \"#utility.yul\":3542:3662   */\n          iszero\n          tag_150\n          jumpi\n            /* \"#utility.yul\":3581:3660   */\n          tag_151\n          tag_58\n          jump\t// in\n        tag_151:\n            /* \"#utility.yul\":3542:3662   */\n        tag_150:\n            /* \"#utility.yul\":3701:3702   */\n          0x00\n            /* \"#utility.yul\":3726:3779   */\n          tag_152\n            /* \"#utility.yul\":3771:3778   */\n          dup8\n            /* \"#utility.yul\":3762:3768   */\n          dup3\n            /* \"#utility.yul\":3751:3760   */\n          dup9\n            /* \"#utility.yul\":3747:3769   */\n          add\n            /* \"#utility.yul\":3726:3779   */\n          tag_63\n          jump\t// in\n        tag_152:\n            /* \"#utility.yul\":3716:3779   */\n          swap5\n          pop\n            /* \"#utility.yul\":3672:3789   */\n          pop\n            /* \"#utility.yul\":3856:3858   */\n          0x20\n            /* \"#utility.yul\":3845:3854   */\n          dup6\n            /* \"#utility.yul\":3841:3859   */\n          add\n            /* \"#utility.yul\":3828:3860   */\n          calldataload\n            /* \"#utility.yul\":3887:3905   */\n          0xffffffffffffffff\n            /* \"#utility.yul\":3879:3885   */\n          dup2\n            /* \"#utility.yul\":3876:3906   */\n          gt\n            /* \"#utility.yul\":3873:3990   */\n          iszero\n          tag_153\n          jumpi\n            /* \"#utility.yul\":3909:3988   */\n          tag_154\n          tag_59\n          jump\t// in\n        tag_154:\n            /* \"#utility.yul\":3873:3990   */\n        tag_153:\n            /* \"#utility.yul\":4014:4077   */\n          tag_155\n            /* \"#utility.yul\":4069:4076   */\n          dup8\n            /* \"#utility.yul\":4060:4066   */\n          dup3\n            /* \"#utility.yul\":4049:4058   */\n          dup9\n            /* \"#utility.yul\":4045:4067   */\n          add\n            /* \"#utility.yul\":4014:4077   */\n          tag_73\n          jump\t// in\n        tag_155:\n            /* \"#utility.yul\":4004:4077   */\n          swap4\n          pop\n            /* \"#utility.yul\":3799:4087   */\n          pop\n            /* \"#utility.yul\":4154:4156   */\n          0x40\n            /* \"#utility.yul\":4143:4152   */\n          dup6\n            /* \"#utility.yul\":4139:4157   */\n          add\n            /* \"#utility.yul\":4126:4158   */\n          calldataload\n            /* \"#utility.yul\":4185:4203   */\n          0xffffffffffffffff\n            /* \"#utility.yul\":4177:4183   */\n          dup2\n            /* \"#utility.yul\":4174:4204   */\n          gt\n            /* \"#utility.yul\":4171:4288   */\n          iszero\n          tag_156\n          jumpi\n            /* \"#utility.yul\":4207:4286   */\n          tag_157\n          tag_59\n          jump\t// in\n        tag_157:\n            /* \"#utility.yul\":4171:4288   */\n        tag_156:\n            /* \"#utility.yul\":4312:4375   */\n          tag_158\n            /* \"#utility.yul\":4367:4374   */\n          dup8\n            /* \"#utility.yul\":4358:4364   */\n          dup3\n            /* \"#utility.yul\":4347:4356   */\n          dup9\n            /* \"#utility.yul\":4343:4365   */\n          add\n            /* \"#utility.yul\":4312:4375   */\n          tag_73\n          jump\t// in\n        tag_158:\n            /* \"#utility.yul\":4302:4375   */\n          swap3\n          pop\n            /* \"#utility.yul\":4097:4385   */\n          pop\n            /* \"#utility.yul\":4424:4426   */\n          0x60\n            /* \"#utility.yul\":4450:4503   */\n          tag_159\n            /* \"#utility.yul\":4495:4502   */\n          dup8\n            /* \"#utility.yul\":4486:4492   */\n          dup3\n            /* \"#utility.yul\":4475:4484   */\n          dup9\n            /* \"#utility.yul\":4471:4493   */\n          add\n            /* \"#utility.yul\":4450:4503   */\n          tag_63\n          jump\t// in\n        tag_159:\n            /* \"#utility.yul\":4440:4503   */\n          swap2\n          pop\n            /* \"#utility.yul\":4395:4513   */\n          pop\n            /* \"#utility.yul\":3395:4520   */\n          swap3\n          swap6\n          swap2\n          swap5\n          pop\n          swap3\n          pop\n          jump\t// out\n            /* \"#utility.yul\":4526:4665   */\n        tag_74:\n            /* \"#utility.yul\":4618:4624   */\n          0x00\n            /* \"#utility.yul\":4652:4657   */\n          dup2\n            /* \"#utility.yul\":4646:4658   */\n          mload\n            /* \"#utility.yul\":4636:4658   */\n          swap1\n          pop\n            /* \"#utility.yul\":4526:4665   */\n          swap2\n          swap1\n          pop\n          jump\t// out\n            /* \"#utility.yul\":4671:4880   */\n        tag_75:\n            /* \"#utility.yul\":4795:4806   */\n          0x00\n            /* \"#utility.yul\":4829:4835   */\n          dup3\n            /* \"#utility.yul\":4824:4827   */\n          dup3\n            /* \"#utility.yul\":4817:4836   */\n          mstore\n            /* \"#utility.yul\":4869:4873   */\n          0x20\n            /* \"#utility.yul\":4864:4867   */\n          dup3\n            /* \"#utility.yul\":4860:4874   */\n          add\n            /* \"#utility.yul\":4845:4874   */\n          swap1\n          pop\n            /* \"#utility.yul\":4671:4880   */\n          swap3\n          swap2\n          pop\n          pop\n          jump\t// out\n            /* \"#utility.yul\":4886:5043   */\n        tag_76:\n            /* \"#utility.yul\":4978:4982   */\n          0x00\n            /* \"#utility.yul\":5001:5004   */\n          dup2\n            /* \"#utility.yul\":4993:5004   */\n          swap1\n          pop\n            /* \"#utility.yul\":5031:5035   */\n          0x20\n            /* \"#utility.yul\":5026:5029   */\n          dup3\n            /* \"#utility.yul\":5022:5036   */\n          add\n            /* \"#utility.yul\":5014:5036   */\n          swap1\n          pop\n            /* \"#utility.yul\":4886:5043   */\n          swap2\n          swap1\n          pop\n          jump\t// out\n            /* \"#utility.yul\":5049:5148   */\n        tag_77:\n            /* \"#utility.yul\":5101:5107   */\n          0x00\n            /* \"#utility.yul\":5135:5140   */\n          dup2\n            /* \"#utility.yul\":5129:5141   */\n          mload\n            /* \"#utility.yul\":5119:5141   */\n          swap1\n          pop\n            /* \"#utility.yul\":5049:5148   */\n          swap2\n          swap1\n          pop\n          jump\t// out\n            /* \"#utility.yul\":5154:5313   */\n        tag_78:\n            /* \"#utility.yul\":5228:5239   */\n          0x00\n            /* \"#utility.yul\":5262:5268   */\n          dup3\n            /* \"#utility.yul\":5257:5260   */\n          dup3\n            /* \"#utility.yul\":5250:5269   */\n          mstore\n            /* \"#utility.yul\":5302:5306   */\n          0x20\n            /* \"#utility.yul\":5297:5300   */\n          dup3\n            /* \"#utility.yul\":5293:5307   */\n          add\n            /* \"#utility.yul\":5278:5307   */\n          swap1\n          pop\n            /* \"#utility.yul\":5154:5313   */\n          swap3\n          swap2\n          pop\n          pop\n          jump\t// out\n            /* \"#utility.yul\":5319:5565   */\n        tag_79:\n            /* \"#utility.yul\":5400:5401   */\n          0x00\n            /* \"#utility.yul\":5410:5523   */\n        tag_166:\n            /* \"#utility.yul\":5424:5430   */\n          dup4\n            /* \"#utility.yul\":5421:5422   */\n          dup2\n            /* \"#utility.yul\":5418:5431   */\n          lt\n            /* \"#utility.yul\":5410:5523   */\n          iszero\n          tag_168\n          jumpi\n            /* \"#utility.yul\":5509:5510   */\n          dup1\n            /* \"#utility.yul\":5504:5507   */\n          dup3\n            /* \"#utility.yul\":5500:5511   */\n          add\n            /* \"#utility.yul\":5494:5512   */\n          mload\n            /* \"#utility.yul\":5490:5491   */\n          dup2\n            /* \"#utility.yul\":5485:5488   */\n          dup5\n            /* \"#utility.yul\":5481:5492   */\n          add\n            /* \"#utility.yul\":5474:5513   */\n          mstore\n            /* \"#utility.yul\":5446:5448   */\n          0x20\n            /* \"#utility.yul\":5443:5444   */\n          dup2\n            /* \"#utility.yul\":5439:5449   */\n          add\n            /* \"#utility.yul\":5434:5449   */\n          swap1\n          pop\n            /* \"#utility.yul\":5410:5523   */\n          jump(tag_166)\n        tag_168:\n            /* \"#utility.yul\":5557:5558   */\n          0x00\n            /* \"#utility.yul\":5548:5554   */\n          dup5\n            /* \"#utility.yul\":5543:5546   */\n          dup5\n            /* \"#utility.yul\":5539:5555   */\n          add\n            /* \"#utility.yul\":5532:5559   */\n          mstore\n            /* \"#utility.yul\":5381:5565   */\n          pop\n            /* \"#utility.yul\":5319:5565   */\n          pop\n          pop\n          pop\n          jump\t// out\n            /* \"#utility.yul\":5571:5928   */\n        tag_80:\n            /* \"#utility.yul\":5649:5652   */\n          0x00\n            /* \"#utility.yul\":5677:5716   */\n          tag_170\n            /* \"#utility.yul\":5710:5715   */\n          dup3\n            /* \"#utility.yul\":5677:5716   */\n          tag_77\n          jump\t// in\n        tag_170:\n            /* \"#utility.yul\":5732:5793   */\n          tag_171\n            /* \"#utility.yul\":5786:5792   */\n          dup2\n            /* \"#utility.yul\":5781:5784   */\n          dup6\n            /* \"#utility.yul\":5732:5793   */\n          tag_78\n          jump\t// in\n        tag_171:\n            /* \"#utility.yul\":5725:5793   */\n          swap4\n          pop\n            /* \"#utility.yul\":5802:5867   */\n          tag_172\n            /* \"#utility.yul\":5860:5866   */\n          dup2\n            /* \"#utility.yul\":5855:5858   */\n          dup6\n            /* \"#utility.yul\":5848:5852   */\n          0x20\n            /* \"#utility.yul\":5841:5846   */\n          dup7\n            /* \"#utility.yul\":5837:5853   */\n          add\n            /* \"#utility.yul\":5802:5867   */\n          tag_79\n          jump\t// in\n        tag_172:\n            /* \"#utility.yul\":5892:5921   */\n          tag_173\n            /* \"#utility.yul\":5914:5920   */\n          dup2\n            /* \"#utility.yul\":5892:5921   */\n          tag_66\n          jump\t// in\n        tag_173:\n            /* \"#utility.yul\":5887:5890   */\n          dup5\n            /* \"#utility.yul\":5883:5922   */\n          add\n            /* \"#utility.yul\":5876:5922   */\n          swap2\n          pop\n            /* \"#utility.yul\":5653:5928   */\n          pop\n            /* \"#utility.yul\":5571:5928   */\n          swap3\n          swap2\n          pop\n          pop\n          jump\t// out\n            /* \"#utility.yul\":5934:6042   */\n        tag_81:\n            /* \"#utility.yul\":6011:6035   */\n          tag_175\n            /* \"#utility.yul\":6029:6034   */\n          dup2\n            /* \"#utility.yul\":6011:6035   */\n          tag_61\n          jump\t// in\n        tag_175:\n            /* \"#utility.yul\":6006:6009   */\n          dup3\n            /* \"#utility.yul\":5999:6036   */\n          mstore\n            /* \"#utility.yul\":5934:6042   */\n          pop\n          pop\n          jump\t// out\n            /* \"#utility.yul\":6118:6959   */\n        tag_82:\n            /* \"#utility.yul\":6227:6230   */\n          0x00\n            /* \"#utility.yul\":6263:6267   */\n          0x60\n            /* \"#utility.yul\":6258:6261   */\n          dup4\n            /* \"#utility.yul\":6254:6268   */\n          add\n            /* \"#utility.yul\":6350:6354   */\n          0x00\n            /* \"#utility.yul\":6343:6348   */\n          dup4\n            /* \"#utility.yul\":6339:6355   */\n          add\n            /* \"#utility.yul\":6333:6356   */\n          mload\n            /* \"#utility.yul\":6403:6406   */\n          dup5\n            /* \"#utility.yul\":6397:6401   */\n          dup3\n            /* \"#utility.yul\":6393:6407   */\n          sub\n            /* \"#utility.yul\":6386:6390   */\n          0x00\n            /* \"#utility.yul\":6381:6384   */\n          dup7\n            /* \"#utility.yul\":6377:6391   */\n          add\n            /* \"#utility.yul\":6370:6408   */\n          mstore\n            /* \"#utility.yul\":6429:6502   */\n          tag_177\n            /* \"#utility.yul\":6497:6501   */\n          dup3\n            /* \"#utility.yul\":6483:6495   */\n          dup3\n            /* \"#utility.yul\":6429:6502   */\n          tag_80\n          jump\t// in\n        tag_177:\n            /* \"#utility.yul\":6421:6502   */\n          swap2\n          pop\n            /* \"#utility.yul\":6278:6513   */\n          pop\n            /* \"#utility.yul\":6596:6600   */\n          0x20\n            /* \"#utility.yul\":6589:6594   */\n          dup4\n            /* \"#utility.yul\":6585:6601   */\n          add\n            /* \"#utility.yul\":6579:6602   */\n          mload\n            /* \"#utility.yul\":6649:6652   */\n          dup5\n            /* \"#utility.yul\":6643:6647   */\n          dup3\n            /* \"#utility.yul\":6639:6653   */\n          sub\n            /* \"#utility.yul\":6632:6636   */\n          0x20\n            /* \"#utility.yul\":6627:6630   */\n          dup7\n            /* \"#utility.yul\":6623:6637   */\n          add\n            /* \"#utility.yul\":6616:6654   */\n          mstore\n            /* \"#utility.yul\":6675:6748   */\n          tag_178\n            /* \"#utility.yul\":6743:6747   */\n          dup3\n            /* \"#utility.yul\":6729:6741   */\n          dup3\n            /* \"#utility.yul\":6675:6748   */\n          tag_80\n          jump\t// in\n        tag_178:\n            /* \"#utility.yul\":6667:6748   */\n          swap2\n          pop\n            /* \"#utility.yul\":6523:6759   */\n          pop\n            /* \"#utility.yul\":6840:6844   */\n          0x40\n            /* \"#utility.yul\":6833:6838   */\n          dup4\n            /* \"#utility.yul\":6829:6845   */\n          add\n            /* \"#utility.yul\":6823:6846   */\n          mload\n            /* \"#utility.yul\":6859:6922   */\n          tag_179\n            /* \"#utility.yul\":6916:6920   */\n          0x40\n            /* \"#utility.yul\":6911:6914   */\n          dup7\n            /* \"#utility.yul\":6907:6921   */\n          add\n            /* \"#utility.yul\":6893:6905   */\n          dup3\n            /* \"#utility.yul\":6859:6922   */\n          tag_81\n          jump\t// in\n        tag_179:\n            /* \"#utility.yul\":6769:6932   */\n          pop\n            /* \"#utility.yul\":6949:6953   */\n          dup1\n            /* \"#utility.yul\":6942:6953   */\n          swap2\n          pop\n            /* \"#utility.yul\":6232:6959   */\n          pop\n            /* \"#utility.yul\":6118:6959   */\n          swap3\n          swap2\n          pop\n          pop\n          jump\t// out\n            /* \"#utility.yul\":6965:7221   */\n        tag_83:\n            /* \"#utility.yul\":7084:7094   */\n          0x00\n            /* \"#utility.yul\":7119:7215   */\n          tag_181\n            /* \"#utility.yul\":7211:7214   */\n          dup4\n            /* \"#utility.yul\":7203:7209   */\n          dup4\n            /* \"#utility.yul\":7119:7215   */\n          tag_82\n          jump\t// in\n        tag_181:\n            /* \"#utility.yul\":7105:7215   */\n          swap1\n          pop\n            /* \"#utility.yul\":6965:7221   */\n          swap3\n          swap2\n          pop\n          pop\n          jump\t// out\n            /* \"#utility.yul\":7227:7365   */\n        tag_84:\n            /* \"#utility.yul\":7322:7326   */\n          0x00\n            /* \"#utility.yul\":7354:7358   */\n          0x20\n            /* \"#utility.yul\":7349:7352   */\n          dup3\n            /* \"#utility.yul\":7345:7359   */\n          add\n            /* \"#utility.yul\":7337:7359   */\n          swap1\n          pop\n            /* \"#utility.yul\":7227:7365   */\n          swap2\n          swap1\n          pop\n          jump\t// out\n            /* \"#utility.yul\":7445:8556   */\n        tag_85:\n            /* \"#utility.yul\":7614:7617   */\n          0x00\n            /* \"#utility.yul\":7643:7722   */\n          tag_184\n            /* \"#utility.yul\":7716:7721   */\n          dup3\n            /* \"#utility.yul\":7643:7722   */\n          tag_74\n          jump\t// in\n        tag_184:\n            /* \"#utility.yul\":7738:7849   */\n          tag_185\n            /* \"#utility.yul\":7842:7848   */\n          dup2\n            /* \"#utility.yul\":7837:7840   */\n          dup6\n            /* \"#utility.yul\":7738:7849   */\n          tag_75\n          jump\t// in\n        tag_185:\n            /* \"#utility.yul\":7731:7849   */\n          swap4\n          pop\n            /* \"#utility.yul\":7875:7878   */\n          dup4\n            /* \"#utility.yul\":7920:7924   */\n          0x20\n            /* \"#utility.yul\":7912:7918   */\n          dup3\n            /* \"#utility.yul\":7908:7925   */\n          mul\n            /* \"#utility.yul\":7903:7906   */\n          dup6\n            /* \"#utility.yul\":7899:7926   */\n          add\n            /* \"#utility.yul\":7950:8031   */\n          tag_186\n            /* \"#utility.yul\":8025:8030   */\n          dup6\n            /* \"#utility.yul\":7950:8031   */\n          tag_76\n          jump\t// in\n        tag_186:\n            /* \"#utility.yul\":8054:8061   */\n          dup1\n            /* \"#utility.yul\":8085:8086   */\n          0x00\n            /* \"#utility.yul\":8070:8511   */\n        tag_187:\n            /* \"#utility.yul\":8095:8101   */\n          dup6\n            /* \"#utility.yul\":8092:8093   */\n          dup2\n            /* \"#utility.yul\":8089:8102   */\n          lt\n            /* \"#utility.yul\":8070:8511   */\n          iszero\n          tag_189\n          jumpi\n            /* \"#utility.yul\":8166:8175   */\n          dup5\n            /* \"#utility.yul\":8160:8164   */\n          dup5\n            /* \"#utility.yul\":8156:8176   */\n          sub\n            /* \"#utility.yul\":8151:8154   */\n          dup10\n            /* \"#utility.yul\":8144:8177   */\n          mstore\n            /* \"#utility.yul\":8217:8223   */\n          dup2\n            /* \"#utility.yul\":8211:8224   */\n          mload\n            /* \"#utility.yul\":8245:8359   */\n          tag_190\n            /* \"#utility.yul\":8354:8358   */\n          dup6\n            /* \"#utility.yul\":8339:8352   */\n          dup3\n            /* \"#utility.yul\":8245:8359   */\n          tag_83\n          jump\t// in\n        tag_190:\n            /* \"#utility.yul\":8237:8359   */\n          swap5\n          pop\n            /* \"#utility.yul\":8382:8467   */\n          tag_191\n            /* \"#utility.yul\":8460:8466   */\n          dup4\n            /* \"#utility.yul\":8382:8467   */\n          tag_84\n          jump\t// in\n        tag_191:\n            /* \"#utility.yul\":8372:8467   */\n          swap3\n          pop\n            /* \"#utility.yul\":8496:8500   */\n          0x20\n            /* \"#utility.yul\":8491:8494   */\n          dup11\n            /* \"#utility.yul\":8487:8501   */\n          add\n            /* \"#utility.yul\":8480:8501   */\n          swap10\n          pop\n            /* \"#utility.yul\":8130:8511   */\n          pop\n            /* \"#utility.yul\":8117:8118   */\n          0x01\n            /* \"#utility.yul\":8114:8115   */\n          dup2\n            /* \"#utility.yul\":8110:8119   */\n          add\n            /* \"#utility.yul\":8105:8119   */\n          swap1\n          pop\n            /* \"#utility.yul\":8070:8511   */\n          jump(tag_187)\n        tag_189:\n            /* \"#utility.yul\":8074:8088   */\n          pop\n            /* \"#utility.yul\":8527:8531   */\n          dup3\n            /* \"#utility.yul\":8520:8531   */\n          swap8\n          pop\n            /* \"#utility.yul\":8547:8550   */\n          dup8\n            /* \"#utility.yul\":8540:8550   */\n          swap6\n          pop\n            /* \"#utility.yul\":7619:8556   */\n          pop\n          pop\n          pop\n          pop\n          pop\n            /* \"#utility.yul\":7445:8556   */\n          swap3\n          swap2\n          pop\n          pop\n          jump\t// out\n            /* \"#utility.yul\":8562:9035   */\n        tag_18:\n            /* \"#utility.yul\":8755:8759   */\n          0x00\n            /* \"#utility.yul\":8793:8795   */\n          0x20\n            /* \"#utility.yul\":8782:8791   */\n          dup3\n            /* \"#utility.yul\":8778:8796   */\n          add\n            /* \"#utility.yul\":8770:8796   */\n          swap1\n          pop\n            /* \"#utility.yul\":8842:8851   */\n          dup2\n            /* \"#utility.yul\":8836:8840   */\n          dup2\n            /* \"#utility.yul\":8832:8852   */\n          sub\n            /* \"#utility.yul\":8828:8829   */\n          0x00\n            /* \"#utility.yul\":8817:8826   */\n          dup4\n            /* \"#utility.yul\":8813:8830   */\n          add\n            /* \"#utility.yul\":8806:8853   */\n          mstore\n            /* \"#utility.yul\":8870:9028   */\n          tag_193\n            /* \"#utility.yul\":9023:9027   */\n          dup2\n            /* \"#utility.yul\":9014:9020   */\n          dup5\n            /* \"#utility.yul\":8870:9028   */\n          tag_85\n          jump\t// in\n        tag_193:\n            /* \"#utility.yul\":8862:9028   */\n          swap1\n          pop\n            /* \"#utility.yul\":8562:9035   */\n          swap3\n          swap2\n          pop\n          pop\n          jump\t// out\n            /* \"#utility.yul\":9041:9159   */\n        tag_86:\n            /* \"#utility.yul\":9128:9152   */\n          tag_195\n            /* \"#utility.yul\":9146:9151   */\n          dup2\n            /* \"#utility.yul\":9128:9152   */\n          tag_61\n          jump\t// in\n        tag_195:\n            /* \"#utility.yul\":9123:9126   */\n          dup3\n            /* \"#utility.yul\":9116:9153   */\n          mstore\n            /* \"#utility.yul\":9041:9159   */\n          pop\n          pop\n          jump\t// out\n            /* \"#utility.yul\":9165:9387   */\n        tag_23:\n            /* \"#utility.yul\":9258:9262   */\n          0x00\n            /* \"#utility.yul\":9296:9298   */\n          0x20\n            /* \"#utility.yul\":9285:9294   */\n          dup3\n            /* \"#utility.yul\":9281:9299   */\n          add\n            /* \"#utility.yul\":9273:9299   */\n          swap1\n          pop\n            /* \"#utility.yul\":9309:9380   */\n          tag_197\n            /* \"#utility.yul\":9377:9378   */\n          0x00\n            /* \"#utility.yul\":9366:9375   */\n          dup4\n            /* \"#utility.yul\":9362:9379   */\n          add\n            /* \"#utility.yul\":9353:9359   */\n          dup5\n            /* \"#utility.yul\":9309:9380   */\n          tag_86\n          jump\t// in\n        tag_197:\n            /* \"#utility.yul\":9165:9387   */\n          swap3\n          swap2\n          pop\n          pop\n          jump\t// out\n            /* \"#utility.yul\":9393:9483   */\n        tag_87:\n            /* \"#utility.yul\":9427:9434   */\n          0x00\n            /* \"#utility.yul\":9470:9475   */\n          dup2\n            /* \"#utility.yul\":9463:9476   */\n          iszero\n            /* \"#utility.yul\":9456:9477   */\n          iszero\n            /* \"#utility.yul\":9445:9477   */\n          swap1\n          pop\n            /* \"#utility.yul\":9393:9483   */\n          swap2\n          swap1\n          pop\n          jump\t// out\n            /* \"#utility.yul\":9489:9605   */\n        tag_88:\n            /* \"#utility.yul\":9559:9580   */\n          tag_200\n            /* \"#utility.yul\":9574:9579   */\n          dup2\n            /* \"#utility.yul\":9559:9580   */\n          tag_87\n          jump\t// in\n        tag_200:\n            /* \"#utility.yul\":9552:9557   */\n          dup2\n            /* \"#utility.yul\":9549:9581   */\n          eq\n            /* \"#utility.yul\":9539:9599   */\n          tag_201\n          jumpi\n            /* \"#utility.yul\":9595:9596   */\n          0x00\n            /* \"#utility.yul\":9592:9593   */\n          dup1\n            /* \"#utility.yul\":9585:9597   */\n          revert\n            /* \"#utility.yul\":9539:9599   */\n        tag_201:\n            /* \"#utility.yul\":9489:9605   */\n          pop\n          jump\t// out\n            /* \"#utility.yul\":9611:9748   */\n        tag_89:\n            /* \"#utility.yul\":9665:9670   */\n          0x00\n            /* \"#utility.yul\":9696:9702   */\n          dup2\n            /* \"#utility.yul\":9690:9703   */\n          mload\n            /* \"#utility.yul\":9681:9703   */\n          swap1\n          pop\n            /* \"#utility.yul\":9712:9742   */\n          tag_203\n            /* \"#utility.yul\":9736:9741   */\n          dup2\n            /* \"#utility.yul\":9712:9742   */\n          tag_88\n          jump\t// in\n        tag_203:\n            /* \"#utility.yul\":9611:9748   */\n          swap3\n          swap2\n          pop\n          pop\n          jump\t// out\n            /* \"#utility.yul\":9754:10099   */\n        tag_27:\n            /* \"#utility.yul\":9821:9827   */\n          0x00\n            /* \"#utility.yul\":9870:9872   */\n          0x20\n            /* \"#utility.yul\":9858:9867   */\n          dup3\n            /* \"#utility.yul\":9849:9856   */\n          dup5\n            /* \"#utility.yul\":9845:9868   */\n          sub\n            /* \"#utility.yul\":9841:9873   */\n          slt\n            /* \"#utility.yul\":9838:9957   */\n          iszero\n          tag_205\n          jumpi\n            /* \"#utility.yul\":9876:9955   */\n          tag_206\n          tag_58\n          jump\t// in\n        tag_206:\n            /* \"#utility.yul\":9838:9957   */\n        tag_205:\n            /* \"#utility.yul\":9996:9997   */\n          0x00\n            /* \"#utility.yul\":10021:10082   */\n          tag_207\n            /* \"#utility.yul\":10074:10081   */\n          dup5\n            /* \"#utility.yul\":10065:10071   */\n          dup3\n            /* \"#utility.yul\":10054:10063   */\n          dup6\n            /* \"#utility.yul\":10050:10072   */\n          add\n            /* \"#utility.yul\":10021:10082   */\n          tag_89\n          jump\t// in\n        tag_207:\n            /* \"#utility.yul\":10011:10082   */\n          swap2\n          pop\n            /* \"#utility.yul\":9967:10092   */\n          pop\n            /* \"#utility.yul\":9754:10099   */\n          swap3\n          swap2\n          pop\n          pop\n          jump\t// out\n            /* \"#utility.yul\":10105:10285   */\n        tag_90:\n            /* \"#utility.yul\":10153:10230   */\n          0x4e487b7100000000000000000000000000000000000000000000000000000000\n            /* \"#utility.yul\":10150:10151   */\n          0x00\n            /* \"#utility.yul\":10143:10231   */\n          mstore\n            /* \"#utility.yul\":10250:10254   */\n          0x22\n            /* \"#utility.yul\":10247:10248   */\n          0x04\n            /* \"#utility.yul\":10240:10255   */\n          mstore\n            /* \"#utility.yul\":10274:10278   */\n          0x24\n            /* \"#utility.yul\":10271:10272   */\n          0x00\n            /* \"#utility.yul\":10264:10279   */\n          revert\n            /* \"#utility.yul\":10291:10611   */\n        tag_47:\n            /* \"#utility.yul\":10335:10341   */\n          0x00\n            /* \"#utility.yul\":10372:10373   */\n          0x02\n            /* \"#utility.yul\":10366:10370   */\n          dup3\n            /* \"#utility.yul\":10362:10374   */\n          div\n            /* \"#utility.yul\":10352:10374   */\n          swap1\n          pop\n            /* \"#utility.yul\":10419:10420   */\n          0x01\n            /* \"#utility.yul\":10413:10417   */\n          dup3\n            /* \"#utility.yul\":10409:10421   */\n          and\n            /* \"#utility.yul\":10440:10458   */\n          dup1\n            /* \"#utility.yul\":10430:10511   */\n          tag_210\n          jumpi\n            /* \"#utility.yul\":10496:10500   */\n          0x7f\n            /* \"#utility.yul\":10488:10494   */\n          dup3\n            /* \"#utility.yul\":10484:10501   */\n          and\n            /* \"#utility.yul\":10474:10501   */\n          swap2\n          pop\n            /* \"#utility.yul\":10430:10511   */\n        tag_210:\n            /* \"#utility.yul\":10558:10560   */\n          0x20\n            /* \"#utility.yul\":10550:10556   */\n          dup3\n            /* \"#utility.yul\":10547:10561   */\n          lt\n            /* \"#utility.yul\":10527:10545   */\n          dup2\n            /* \"#utility.yul\":10524:10562   */\n          sub\n            /* \"#utility.yul\":10521:10605   */\n          tag_211\n          jumpi\n            /* \"#utility.yul\":10577:10595   */\n          tag_212\n          tag_90\n          jump\t// in\n        tag_212:\n            /* \"#utility.yul\":10521:10605   */\n        tag_211:\n            /* \"#utility.yul\":10342:10611   */\n          pop\n            /* \"#utility.yul\":10291:10611   */\n          swap2\n          swap1\n          pop\n          jump\t// out\n            /* \"#utility.yul\":10617:10758   */\n        tag_91:\n            /* \"#utility.yul\":10666:10670   */\n          0x00\n            /* \"#utility.yul\":10689:10692   */\n          dup2\n            /* \"#utility.yul\":10681:10692   */\n          swap1\n          pop\n            /* \"#utility.yul\":10712:10715   */\n          dup2\n            /* \"#utility.yul\":10709:10710   */\n          0x00\n            /* \"#utility.yul\":10702:10716   */\n          mstore\n            /* \"#utility.yul\":10746:10750   */\n          0x20\n            /* \"#utility.yul\":10743:10744   */\n          0x00\n            /* \"#utility.yul\":10733:10751   */\n          keccak256\n            /* \"#utility.yul\":10725:10751   */\n          swap1\n          pop\n            /* \"#utility.yul\":10617:10758   */\n          swap2\n          swap1\n          pop\n          jump\t// out\n            /* \"#utility.yul\":10764:10857   */\n        tag_92:\n            /* \"#utility.yul\":10801:10807   */\n          0x00\n            /* \"#utility.yul\":10848:10850   */\n          0x20\n            /* \"#utility.yul\":10843:10845   */\n          0x1f\n            /* \"#utility.yul\":10836:10841   */\n          dup4\n            /* \"#utility.yul\":10832:10846   */\n          add\n            /* \"#utility.yul\":10828:10851   */\n          div\n            /* \"#utility.yul\":10818:10851   */\n          swap1\n          pop\n            /* \"#utility.yul\":10764:10857   */\n          swap2\n          swap1\n          pop\n          jump\t// out\n            /* \"#utility.yul\":10863:10970   */\n        tag_93:\n            /* \"#utility.yul\":10907:10915   */\n          0x00\n            /* \"#utility.yul\":10957:10962   */\n          dup3\n            /* \"#utility.yul\":10951:10955   */\n          dup3\n            /* \"#utility.yul\":10947:10963   */\n          shl\n            /* \"#utility.yul\":10926:10963   */\n          swap1\n          pop\n            /* \"#utility.yul\":10863:10970   */\n          swap3\n          swap2\n          pop\n          pop\n          jump\t// out\n            /* \"#utility.yul\":10976:11369   */\n        tag_94:\n            /* \"#utility.yul\":11045:11051   */\n          0x00\n            /* \"#utility.yul\":11095:11096   */\n          0x08\n            /* \"#utility.yul\":11083:11093   */\n          dup4\n            /* \"#utility.yul\":11079:11097   */\n          mul\n            /* \"#utility.yul\":11118:11215   */\n          tag_217\n            /* \"#utility.yul\":11148:11214   */\n          0xffffffffffffffffffffffffffffffffffffffffffffffffffffffffffffffff\n            /* \"#utility.yul\":11137:11146   */\n          dup3\n            /* \"#utility.yul\":11118:11215   */\n          tag_93\n          jump\t// in\n        tag_217:\n            /* \"#utility.yul\":11236:11275   */\n          tag_218\n            /* \"#utility.yul\":11266:11274   */\n          dup7\n            /* \"#utility.yul\":11255:11264   */\n          dup4\n            /* \"#utility.yul\":11236:11275   */\n          tag_93\n          jump\t// in\n        tag_218:\n            /* \"#utility.yul\":11224:11275   */\n          swap6\n          pop\n            /* \"#utility.yul\":11308:11312   */\n          dup1\n            /* \"#utility.yul\":11304:11313   */\n          not\n            /* \"#utility.yul\":11297:11302   */\n          dup5\n            /* \"#utility.yul\":11293:11314   */\n          and\n            /* \"#utility.yul\":11284:11314   */\n          swap4\n          pop\n            /* \"#utility.yul\":11357:11361   */\n          dup1\n            /* \"#utility.yul\":11347:11355   */\n          dup7\n            /* \"#utility.yul\":11343:11362   */\n          and\n            /* \"#utility.yul\":11336:11341   */\n          dup5\n            /* \"#utility.yul\":11333:11363   */\n          or\n            /* \"#utility.yul\":11323:11363   */\n          swap3\n          pop\n            /* \"#utility.yul\":11052:11369   */\n          pop\n          pop\n            /* \"#utility.yul\":10976:11369   */\n          swap4\n          swap3\n          pop\n          pop\n          pop\n          jump\t// out\n            /* \"#utility.yul\":11375:11452   */\n        tag_95:\n            /* \"#utility.yul\":11412:11419   */\n          0x00\n            /* \"#utility.yul\":11441:11446   */\n          dup2\n            /* \"#utility.yul\":11430:11446   */\n          swap1\n          pop\n            /* \"#utility.yul\":11375:11452   */\n          swap2\n          swap1\n          pop\n          jump\t// out\n            /* \"#utility.yul\":11458:11518   */\n        tag_96:\n            /* \"#utility.yul\":11486:11489   */\n          0x00\n            /* \"#utility.yul\":11507:11512   */\n          dup2\n            /* \"#utility.yul\":11500:11512   */\n          swap1\n          pop\n            /* \"#utility.yul\":11458:11518   */\n          swap2\n          swap1\n          pop\n          jump\t// out\n            /* \"#utility.yul\":11524:11666   */\n        tag_97:\n            /* \"#utility.yul\":11574:11583   */\n          0x00\n            /* \"#utility.yul\":11607:11660   */\n          tag_222\n            /* \"#utility.yul\":11625:11659   */\n          tag_223\n            /* \"#utility.yul\":11634:11658   */\n          tag_224\n            /* \"#utility.yul\":11652:11657   */\n          dup5\n            /* \"#utility.yul\":11634:11658   */\n          tag_95\n          jump\t// in\n        tag_224:\n            /* \"#utility.yul\":11625:11659   */\n          tag_96\n          jump\t// in\n        tag_223:\n            /* \"#utility.yul\":11607:11660   */\n          tag_95\n          jump\t// in\n        tag_222:\n            /* \"#utility.yul\":11594:11660   */\n          swap1\n          pop\n            /* \"#utility.yul\":11524:11666   */\n          swap2\n          swap1\n          pop\n          jump\t// out\n            /* \"#utility.yul\":11672:11747   */\n        tag_98:\n            /* \"#utility.yul\":11715:11718   */\n          0x00\n            /* \"#utility.yul\":11736:11741   */\n          dup2\n            /* \"#utility.yul\":11729:11741   */\n          swap1\n          pop\n            /* \"#utility.yul\":11672:11747   */\n          swap2\n          swap1\n          pop\n          jump\t// out\n            /* \"#utility.yul\":11753:12022   */\n        tag_99:\n            /* \"#utility.yul\":11863:11902   */\n          tag_227\n            /* \"#utility.yul\":11894:11901   */\n          dup4\n            /* \"#utility.yul\":11863:11902   */\n          tag_97\n          jump\t// in\n        tag_227:\n            /* \"#utility.yul\":11924:12015   */\n          tag_228\n            /* \"#utility.yul\":11973:12014   */\n          tag_229\n            /* \"#utility.yul\":11997:12013   */\n          dup3\n            /* \"#utility.yul\":11973:12014   */\n          tag_98\n          jump\t// in\n        tag_229:\n            /* \"#utility.yul\":11965:11971   */\n          dup5\n            /* \"#utility.yul\":11958:11962   */\n          dup5\n            /* \"#utility.yul\":11952:11963   */\n          sload\n            /* \"#utility.yul\":11924:12015   */\n          tag_94\n          jump\t// in\n        tag_228:\n            /* \"#utility.yul\":11918:11922   */\n          dup3\n            /* \"#utility.yul\":11911:12016   */\n          sstore\n            /* \"#utility.yul\":11829:12022   */\n          pop\n            /* \"#utility.yul\":11753:12022   */\n          pop\n          pop\n          pop\n          jump\t// out\n            /* \"#utility.yul\":12028:12101   */\n        tag_100:\n            /* \"#utility.yul\":12073:12076   */\n          0x00\n            /* \"#utility.yul\":12028:12101   */\n          swap1\n          jump\t// out\n            /* \"#utility.yul\":12107:12296   */\n        tag_101:\n            /* \"#utility.yul\":12184:12216   */\n          tag_232\n          tag_100\n          jump\t// in\n        tag_232:\n            /* \"#utility.yul\":12225:12290   */\n          tag_233\n            /* \"#utility.yul\":12283:12289   */\n          dup2\n            /* \"#utility.yul\":12275:12281   */\n          dup5\n            /* \"#utility.yul\":12269:12273   */\n          dup5\n            /* \"#utility.yul\":12225:12290   */\n          tag_99\n          jump\t// in\n        tag_233:\n            /* \"#utility.yul\":12160:12296   */\n          pop\n            /* \"#utility.yul\":12107:12296   */\n          pop\n          pop\n          jump\t// out\n            /* \"#utility.yul\":12302:12488   */\n        tag_102:\n            /* \"#utility.yul\":12362:12482   */\n        tag_235:\n            /* \"#utility.yul\":12379:12382   */\n          dup2\n            /* \"#utility.yul\":12372:12377   */\n          dup2\n            /* \"#utility.yul\":12369:12383   */\n          lt\n            /* \"#utility.yul\":12362:12482   */\n          iszero\n          tag_237\n          jumpi\n            /* \"#utility.yul\":12433:12472   */\n          tag_238\n            /* \"#utility.yul\":12470:12471   */\n          0x00\n            /* \"#utility.yul\":12463:12468   */\n          dup3\n            /* \"#utility.yul\":12433:12472   */\n          tag_101\n          jump\t// in\n        tag_238:\n            /* \"#utility.yul\":12406:12407   */\n          0x01\n            /* \"#utility.yul\":12399:12404   */\n          dup2\n            /* \"#utility.yul\":12395:12408   */\n          add\n            /* \"#utility.yul\":12386:12408   */\n          swap1\n          pop\n            /* \"#utility.yul\":12362:12482   */\n          jump(tag_235)\n        tag_237:\n            /* \"#utility.yul\":12302:12488   */\n          pop\n          pop\n          jump\t// out\n            /* \"#utility.yul\":12494:13037   */\n        tag_103:\n            /* \"#utility.yul\":12595:12597   */\n          0x1f\n            /* \"#utility.yul\":12590:12593   */\n          dup3\n            /* \"#utility.yul\":12587:12598   */\n          gt\n            /* \"#utility.yul\":12584:13030   */\n          iszero\n          tag_240\n          jumpi\n            /* \"#utility.yul\":12629:12667   */\n          tag_241\n            /* \"#utility.yul\":12661:12666   */\n          dup2\n            /* \"#utility.yul\":12629:12667   */\n          tag_91\n          jump\t// in\n        tag_241:\n            /* \"#utility.yul\":12713:12742   */\n          tag_242\n            /* \"#utility.yul\":12731:12741   */\n          dup5\n            /* \"#utility.yul\":12713:12742   */\n          tag_92\n          jump\t// in\n        tag_242:\n            /* \"#utility.yul\":12703:12711   */\n          dup2\n            /* \"#utility.yul\":12699:12743   */\n          add\n            /* \"#utility.yul\":12896:12898   */\n          0x20\n            /* \"#utility.yul\":12884:12894   */\n          dup6\n            /* \"#utility.yul\":12881:12899   */\n          lt\n            /* \"#utility.yul\":12878:12927   */\n          iszero\n          tag_243\n          jumpi\n            /* \"#utility.yul\":12917:12925   */\n          dup2\n            /* \"#utility.yul\":12902:12925   */\n          swap1\n          pop\n            /* \"#utility.yul\":12878:12927   */\n        tag_243:\n            /* \"#utility.yul\":12940:13020   */\n          tag_244\n            /* \"#utility.yul\":12996:13018   */\n          tag_245\n            /* \"#utility.yul\":13014:13017   */\n          dup6\n            /* \"#utility.yul\":12996:13018   */\n          tag_92\n          jump\t// in\n        tag_245:\n            /* \"#utility.yul\":12986:12994   */\n          dup4\n            /* \"#utility.yul\":12982:13019   */\n          add\n            /* \"#utility.yul\":12969:12980   */\n          dup3\n            /* \"#utility.yul\":12940:13020   */\n          tag_102\n          jump\t// in\n        tag_244:\n            /* \"#utility.yul\":12599:13030   */\n          pop\n          pop\n            /* \"#utility.yul\":12584:13030   */\n        tag_240:\n            /* \"#utility.yul\":12494:13037   */\n          pop\n          pop\n          pop\n          jump\t// out\n            /* \"#utility.yul\":13043:13160   */\n        tag_104:\n            /* \"#utility.yul\":13097:13105   */\n          0x00\n            /* \"#utility.yul\":13147:13152   */\n          dup3\n            /* \"#utility.yul\":13141:13145   */\n          dup3\n            /* \"#utility.yul\":13137:13153   */\n          shr\n            /* \"#utility.yul\":13116:13153   */\n          swap1\n          pop\n            /* \"#utility.yul\":13043:13160   */\n          swap3\n          swap2\n          pop\n          pop\n          jump\t// out\n            /* \"#utility.yul\":13166:13335   */\n        tag_105:\n            /* \"#utility.yul\":13210:13216   */\n          0x00\n            /* \"#utility.yul\":13243:13294   */\n          tag_248\n            /* \"#utility.yul\":13291:13292   */\n          0x00\n            /* \"#utility.yul\":13287:13293   */\n          not\n            /* \"#utility.yul\":13279:13284   */\n          dup5\n            /* \"#utility.yul\":13276:13277   */\n          0x08\n            /* \"#utility.yul\":13272:13285   */\n          mul\n            /* \"#utility.yul\":13243:13294   */\n          tag_104\n          jump\t// in\n        tag_248:\n            /* \"#utility.yul\":13239:13295   */\n          not\n            /* \"#utility.yul\":13324:13328   */\n          dup1\n            /* \"#utility.yul\":13318:13322   */\n          dup4\n            /* \"#utility.yul\":13314:13329   */\n          and\n            /* \"#utility.yul\":13304:13329   */\n          swap2\n          pop\n            /* \"#utility.yul\":13217:13335   */\n          pop\n            /* \"#utility.yul\":13166:13335   */\n          swap3\n          swap2\n          pop\n          pop\n          jump\t// out\n            /* \"#utility.yul\":13340:13635   */\n        tag_106:\n            /* \"#utility.yul\":13416:13420   */\n          0x00\n            /* \"#utility.yul\":13562:13591   */\n          tag_250\n            /* \"#utility.yul\":13587:13590   */\n          dup4\n            /* \"#utility.yul\":13581:13585   */\n          dup4\n            /* \"#utility.yul\":13562:13591   */\n          tag_105\n          jump\t// in\n        tag_250:\n            /* \"#utility.yul\":13554:13591   */\n          swap2\n          pop\n            /* \"#utility.yul\":13624:13627   */\n          dup3\n            /* \"#utility.yul\":13621:13622   */\n          0x02\n            /* \"#utility.yul\":13617:13628   */\n          mul\n            /* \"#utility.yul\":13611:13615   */\n          dup3\n            /* \"#utility.yul\":13608:13629   */\n          or\n            /* \"#utility.yul\":13600:13629   */\n          swap1\n          pop\n            /* \"#utility.yul\":13340:13635   */\n          swap3\n          swap2\n          pop\n          pop\n          jump\t// out\n            /* \"#utility.yul\":13640:15035   */\n        tag_34:\n            /* \"#utility.yul\":13757:13794   */\n          tag_252\n            /* \"#utility.yul\":13790:13793   */\n          dup3\n            /* \"#utility.yul\":13757:13794   */\n          tag_77\n          jump\t// in\n        tag_252:\n            /* \"#utility.yul\":13859:13877   */\n          0xffffffffffffffff\n            /* \"#utility.yul\":13851:13857   */\n          dup2\n            /* \"#utility.yul\":13848:13878   */\n          gt\n            /* \"#utility.yul\":13845:13901   */\n          iszero\n          tag_253\n          jumpi\n            /* \"#utility.yul\":13881:13899   */\n          tag_254\n          tag_67\n          jump\t// in\n        tag_254:\n            /* \"#utility.yul\":13845:13901   */\n        tag_253:\n            /* \"#utility.yul\":13925:13963   */\n          tag_255\n            /* \"#utility.yul\":13957:13961   */\n          dup3\n            /* \"#utility.yul\":13951:13962   */\n          sload\n            /* \"#utility.yul\":13925:13963   */\n          tag_47\n          jump\t// in\n        tag_255:\n            /* \"#utility.yul\":14010:14077   */\n          tag_256\n            /* \"#utility.yul\":14070:14076   */\n          dup3\n            /* \"#utility.yul\":14062:14068   */\n          dup3\n            /* \"#utility.yul\":14056:14060   */\n          dup6\n            /* \"#utility.yul\":14010:14077   */\n          tag_103\n          jump\t// in\n        tag_256:\n            /* \"#utility.yul\":14104:14105   */\n          0x00\n            /* \"#utility.yul\":14128:14132   */\n          0x20\n            /* \"#utility.yul\":14115:14132   */\n          swap1\n          pop\n            /* \"#utility.yul\":14160:14162   */\n          0x1f\n            /* \"#utility.yul\":14152:14158   */\n          dup4\n            /* \"#utility.yul\":14149:14163   */\n          gt\n            /* \"#utility.yul\":14177:14178   */\n          0x01\n            /* \"#utility.yul\":14172:14790   */\n          dup2\n          eq\n          tag_258\n          jumpi\n            /* \"#utility.yul\":14834:14835   */\n          0x00\n            /* \"#utility.yul\":14851:14857   */\n          dup5\n            /* \"#utility.yul\":14848:14925   */\n          iszero\n          tag_259\n          jumpi\n            /* \"#utility.yul\":14900:14909   */\n          dup3\n            /* \"#utility.yul\":14895:14898   */\n          dup8\n            /* \"#utility.yul\":14891:14910   */\n          add\n            /* \"#utility.yul\":14885:14911   */\n          mload\n            /* \"#utility.yul\":14876:14911   */\n          swap1\n          pop\n            /* \"#utility.yul\":14848:14925   */\n        tag_259:\n            /* \"#utility.yul\":14951:15018   */\n          tag_260\n            /* \"#utility.yul\":15011:15017   */\n          dup6\n            /* \"#utility.yul\":15004:15009   */\n          dup3\n            /* \"#utility.yul\":14951:15018   */\n          tag_106\n          jump\t// in\n        tag_260:\n            /* \"#utility.yul\":14945:14949   */\n          dup7\n            /* \"#utility.yul\":14938:15019   */\n          sstore\n            /* \"#utility.yul\":14807:15029   */\n          pop\n            /* \"#utility.yul\":14142:15029   */\n          jump(tag_257)\n            /* \"#utility.yul\":14172:14790   */\n        tag_258:\n            /* \"#utility.yul\":14224:14228   */\n          0x1f\n            /* \"#utility.yul\":14220:14229   */\n          not\n            /* \"#utility.yul\":14212:14218   */\n          dup5\n            /* \"#utility.yul\":14208:14230   */\n          and\n            /* \"#utility.yul\":14258:14295   */\n          tag_261\n            /* \"#utility.yul\":14290:14294   */\n          dup7\n            /* \"#utility.yul\":14258:14295   */\n          tag_91\n          jump\t// in\n        tag_261:\n            /* \"#utility.yul\":14317:14318   */\n          0x00\n            /* \"#utility.yul\":14331:14539   */\n        tag_262:\n            /* \"#utility.yul\":14345:14352   */\n          dup3\n            /* \"#utility.yul\":14342:14343   */\n          dup2\n            /* \"#utility.yul\":14339:14353   */\n          lt\n            /* \"#utility.yul\":14331:14539   */\n          iszero\n          tag_264\n          jumpi\n            /* \"#utility.yul\":14424:14433   */\n          dup5\n            /* \"#utility.yul\":14419:14422   */\n          dup10\n            /* \"#utility.yul\":14415:14434   */\n          add\n            /* \"#utility.yul\":14409:14435   */\n          mload\n            /* \"#utility.yul\":14401:14407   */\n          dup3\n            /* \"#utility.yul\":14394:14436   */\n          sstore\n            /* \"#utility.yul\":14475:14476   */\n          0x01\n            /* \"#utility.yul\":14467:14473   */\n          dup3\n            /* \"#utility.yul\":14463:14477   */\n          add\n            /* \"#utility.yul\":14453:14477   */\n          swap2\n          pop\n            /* \"#utility.yul\":14522:14524   */\n          0x20\n            /* \"#utility.yul\":14511:14520   */\n          dup6\n            /* \"#utility.yul\":14507:14525   */\n          add\n            /* \"#utility.yul\":14494:14525   */\n          swap5\n          pop\n            /* \"#utility.yul\":14368:14372   */\n          0x20\n            /* \"#utility.yul\":14365:14366   */\n          dup2\n            /* \"#utility.yul\":14361:14373   */\n          add\n            /* \"#utility.yul\":14356:14373   */\n          swap1\n          pop\n            /* \"#utility.yul\":14331:14539   */\n          jump(tag_262)\n        tag_264:\n            /* \"#utility.yul\":14567:14573   */\n          dup7\n            /* \"#utility.yul\":14558:14565   */\n          dup4\n            /* \"#utility.yul\":14555:14574   */\n          lt\n            /* \"#utility.yul\":14552:14731   */\n          iszero\n          tag_265\n          jumpi\n            /* \"#utility.yul\":14625:14634   */\n          dup5\n            /* \"#utility.yul\":14620:14623   */\n          dup10\n            /* \"#utility.yul\":14616:14635   */\n          add\n            /* \"#utility.yul\":14610:14636   */\n          mload\n            /* \"#utility.yul\":14668:14716   */\n          tag_266\n            /* \"#utility.yul\":14710:14714   */\n          0x1f\n            /* \"#utility.yul\":14702:14708   */\n          dup10\n            /* \"#utility.yul\":14698:14715   */\n          and\n            /* \"#utility.yul\":14687:14696   */\n          dup3\n            /* \"#utility.yul\":14668:14716   */\n          tag_105\n          jump\t// in\n        tag_266:\n            /* \"#utility.yul\":14660:14666   */\n          dup4\n            /* \"#utility.yul\":14653:14717   */\n          sstore\n            /* \"#utility.yul\":14575:14731   */\n          pop\n            /* \"#utility.yul\":14552:14731   */\n        tag_265:\n            /* \"#utility.yul\":14777:14778   */\n          0x01\n            /* \"#utility.yul\":14773:14774   */\n          0x02\n            /* \"#utility.yul\":14765:14771   */\n          dup9\n            /* \"#utility.yul\":14761:14775   */\n          mul\n            /* \"#utility.yul\":14757:14779   */\n          add\n            /* \"#utility.yul\":14751:14755   */\n          dup9\n            /* \"#utility.yul\":14744:14780   */\n          sstore\n            /* \"#utility.yul\":14179:14790   */\n          pop\n          pop\n          pop\n            /* \"#utility.yul\":14142:15029   */\n        tag_257:\n          pop\n            /* \"#utility.yul\":13732:15035   */\n          pop\n          pop\n          pop\n            /* \"#utility.yul\":13640:15035   */\n          pop\n          pop\n          jump\t// out\n\n        auxdata: 0xa2646970667358221220e166aeb4433a518d8183bd683ce3bd1acccc4de4ebacc2c83a8c22c258955ae764736f6c63430008110033\n    }\n}\n","bytecode":{"linkReferences":{},"object":"60806040523480156200001157600080fd5b5033600160006101000a81548173ffffffffffffffffffffffffffffffffffffffff021916908373ffffffffffffffffffffffffffffffffffffffff160217905550600033604051620000649062000571565b620000709190620005ee565b604051809103906000f0801580156200008d573d6000803e3d6000fd5b5090506000604051620000a09062000666565b908152602001604051809103902060405180604001604052806040518060400160405280601881526020017f656c656374726f6e69634d65646963616c5265636f726473000000000000000081525081526020018373ffffffffffffffffffffffffffffffffffffffff16815250908060018154018082558091505060019003906000526020600020906002020160009091909190915060008201518160000190816200014e9190620008f7565b5060208201518160010160006101000a81548173ffffffffffffffffffffffffffffffffffffffff021916908373ffffffffffffffffffffffffffffffffffffffff1602179055505050600033604051620001a9906200057f565b620001b59190620005ee565b604051809103906000f080158015620001d2573d6000803e3d6000fd5b5090506000604051620001e59062000666565b908152602001604051809103902060405180604001604052806040518060400160405280601281526020017f70617469656e745665726966696361746f72000000000000000000000000000081525081526020018373ffffffffffffffffffffffffffffffffffffffff1681525090806001815401808255809150506001900390600052602060002090600202016000909190919091506000820151816000019081620002939190620008f7565b5060208201518160010160006101000a81548173ffffffffffffffffffffffffffffffffffffffff021916908373ffffffffffffffffffffffffffffffffffffffff1602179055505050600033604051620002ee906200058d565b620002fa9190620005ee565b604051809103906000f08015801562000317573d6000803e3d6000fd5b50905060006040516200032a9062000666565b908152602001604051809103902060405180604001604052806040518060400160405280601181526020017f646f63746f725665726966696361746f7200000000000000000000000000000081525081526020018373ffffffffffffffffffffffffffffffffffffffff1681525090806001815401808255809150506001900390600052602060002090600202016000909190919091506000820151816000019081620003d89190620008f7565b5060208201518160010160006101000a81548173ffffffffffffffffffffffffffffffffffffffff021916908373ffffffffffffffffffffffffffffffffffffffff160217905550505060003360405162000433906200059b565b6200043f9190620005ee565b604051809103906000f0801580156200045c573d6000803e3d6000fd5b50905060006040516200046f9062000666565b908152602001604051809103902060405180604001604052806040518060400160405280600e81526020017f646f63746f7252656c6174696f6e00000000000000000000000000000000000081525081526020018373ffffffffffffffffffffffffffffffffffffffff16815250908060018154018082558091505060019003906000526020600020906002020160009091909190915060008201518160000190816200051d9190620008f7565b5060208201518160010160006101000a81548173ffffffffffffffffffffffffffffffffffffffff021916908373ffffffffffffffffffffffffffffffffffffffff160217905550505050505050620009de565b614bd380620010f383390190565b6106058062005cc683390190565b61065d80620062cb83390190565b610f2f806200692883390190565b600073ffffffffffffffffffffffffffffffffffffffff82169050919050565b6000620005d682620005a9565b9050919050565b620005e881620005c9565b82525050565b6000602082019050620006056000830184620005dd565b92915050565b600081905092915050565b7f7365637265740000000000000000000000000000000000000000000000000000600082015250565b60006200064e6006836200060b565b91506200065b8262000616565b600682019050919050565b600062000673826200063f565b9150819050919050565b600081519050919050565b7f4e487b7100000000000000000000000000000000000000000000000000000000600052604160045260246000fd5b7f4e487b7100000000000000000000000000000000000000000000000000000000600052602260045260246000fd5b60006002820490506001821680620006ff57607f821691505b602082108103620007155762000714620006b7565b5b50919050565b60008190508160005260206000209050919050565b60006020601f8301049050919050565b600082821b905092915050565b6000600883026200077f7fffffffffffffffffffffffffffffffffffffffffffffffffffffffffffffffff8262000740565b6200078b868362000740565b95508019841693508086168417925050509392505050565b6000819050919050565b6000819050919050565b6000620007d8620007d2620007cc84620007a3565b620007ad565b620007a3565b9050919050565b6000819050919050565b620007f483620007b7565b6200080c6200080382620007df565b8484546200074d565b825550505050565b600090565b6200082362000814565b62000830818484620007e9565b505050565b5b8181101562000858576200084c60008262000819565b60018101905062000836565b5050565b601f821115620008a75762000871816200071b565b6200087c8462000730565b810160208510156200088c578190505b620008a46200089b8562000730565b83018262000835565b50505b505050565b600082821c905092915050565b6000620008cc60001984600802620008ac565b1980831691505092915050565b6000620008e78383620008b9565b9150826002028217905092915050565b62000902826200067d565b67ffffffffffffffff8111156200091e576200091d62000688565b5b6200092a8254620006e6565b620009378282856200085c565b600060209050601f8311600181146200096f57600084156200095a578287015190505b620009668582620008d9565b865550620009d6565b601f1984166200097f866200071b565b60005b82811015620009a95784890151825560018201915060208501945060208101905062000982565b86831015620009c95784890151620009c5601f891682620008b9565b8355505b6001600288020188555050505b505050505050565b61070580620009ee6000396000f3fe608060405234801561001057600080fd5b50600436106100365760003560e01c8063c4fe354c1461003b578063f851a4401461006b575b600080fd5b610055600480360381019061005091906103c8565b610089565b60405161006291906105d0565b60405180910390f35b610073610248565b6040516100809190610601565b60405180910390f35b6060600160009054906101000a900473ffffffffffffffffffffffffffffffffffffffff1673ffffffffffffffffffffffffffffffffffffffff163373ffffffffffffffffffffffffffffffffffffffff16146100e557600080fd5b6000826040516100f59190610658565b9081526020016040518091039020805480602002602001604051908101604052809291908181526020016000905b8282101561023d57838290600052602060002090600202016040518060400160405290816000820180546101569061069e565b80601f01602080910402602001604051908101604052809291908181526020018280546101829061069e565b80156101cf5780601f106101a4576101008083540402835291602001916101cf565b820191906000526020600020905b8154815290600101906020018083116101b257829003601f168201915b505050505081526020016001820160009054906101000a900473ffffffffffffffffffffffffffffffffffffffff1673ffffffffffffffffffffffffffffffffffffffff1673ffffffffffffffffffffffffffffffffffffffff168152505081526020019060010190610123565b505050509050919050565b600160009054906101000a900473ffffffffffffffffffffffffffffffffffffffff1681565b6000604051905090565b600080fd5b600080fd5b600080fd5b600080fd5b6000601f19601f8301169050919050565b7f4e487b7100000000000000000000000000000000000000000000000000000000600052604160045260246000fd5b6102d58261028c565b810181811067ffffffffffffffff821117156102f4576102f361029d565b5b80604052505050565b600061030761026e565b905061031382826102cc565b919050565b600067ffffffffffffffff8211156103335761033261029d565b5b61033c8261028c565b9050602081019050919050565b82818337600083830152505050565b600061036b61036684610318565b6102fd565b90508281526020810184848401111561038757610386610287565b5b610392848285610349565b509392505050565b600082601f8301126103af576103ae610282565b5b81356103bf848260208601610358565b91505092915050565b6000602082840312156103de576103dd610278565b5b600082013567ffffffffffffffff8111156103fc576103fb61027d565b5b6104088482850161039a565b91505092915050565b600081519050919050565b600082825260208201905092915050565b6000819050602082019050919050565b600081519050919050565b600082825260208201905092915050565b60005b8381101561047757808201518184015260208101905061045c565b60008484015250505050565b600061048e8261043d565b6104988185610448565b93506104a8818560208601610459565b6104b18161028c565b840191505092915050565b600073ffffffffffffffffffffffffffffffffffffffff82169050919050565b60006104e7826104bc565b9050919050565b6104f7816104dc565b82525050565b6000604083016000830151848203600086015261051a8282610483565b915050602083015161052f60208601826104ee565b508091505092915050565b600061054683836104fd565b905092915050565b6000602082019050919050565b600061056682610411565b610570818561041c565b9350836020820285016105828561042d565b8060005b858110156105be578484038952815161059f858261053a565b94506105aa8361054e565b925060208a01995050600181019050610586565b50829750879550505050505092915050565b600060208201905081810360008301526105ea818461055b565b905092915050565b6105fb816104dc565b82525050565b600060208201905061061660008301846105f2565b92915050565b600081905092915050565b60006106328261043d565b61063c818561061c565b935061064c818560208601610459565b80840191505092915050565b60006106648284610627565b915081905092915050565b7f4e487b7100000000000000000000000000000000000000000000000000000000600052602260045260246000fd5b600060028204905060018216806106b657607f821691505b6020821081036106c9576106c861066f565b5b5091905056fea264697066735822122090f1c6fe648eb049ff0d08c308657fefaa55a75860834bb00ea16faa0da2a84364736f6c6343000811003360806040523480156200001157600080fd5b5060405162004bd338038062004bd38339818101604052810190620000379190620000e9565b80600560006101000a81548173ffffffffffffffffffffffffffffffffffffffff021916908373ffffffffffffffffffffffffffffffffffffffff160217905550506200011b565b600080fd5b600073ffffffffffffffffffffffffffffffffffffffff82169050919050565b6000620000b18262000084565b9050919050565b620000c381620000a4565b8114620000cf57600080fd5b50565b600081519050620000e381620000b8565b92915050565b6000602082840312156200010257620001016200007f565b5b60006200011284828501620000d2565b91505092915050565b614aa8806200012b6000396000f3fe608060405234801561001057600080fd5b50600436106100935760003560e01c80637621df6f116100665780637621df6f146101085780639cbc4dba14610124578063b2c24a3414610140578063eb7353d114610171578063f539fe6c146101a257610093565b80631107747e146100985780631feb7146146100b45780634da7580f146100d05780635db185c7146100ec575b600080fd5b6100b260048036038101906100ad91906132ac565b6101d3565b005b6100ce60048036038101906100c991906137b3565b610217565b005b6100ea60048036038101906100e59190613b19565b61076f565b005b610106600480360381019061010191906132ac565b610ce8565b005b610122600480360381019061011d91906132ac565b610d2c565b005b61013e60048036038101906101399190613e13565b610d70565b005b61015a600480360381019061015591906132ac565b6113e1565b604051610168929190614188565b60405180910390f35b61018b600480360381019061018691906132ac565b611bf0565b6040516101999291906143e7565b60405180910390f35b6101bc60048036038101906101b791906132ac565b61262c565b6040516101ca929190614654565b60405180910390f35b80600660006101000a81548173ffffffffffffffffffffffffffffffffffffffff021916908373ffffffffffffffffffffffffffffffffffffffff16021790555050565b600660009054906101000a900473ffffffffffffffffffffffffffffffffffffffff1673ffffffffffffffffffffffffffffffffffffffff166363a9c3d7336040518263ffffffff1660e01b8152600401610272919061469a565b602060405180830381865afa15801561028f573d6000803e3d6000fd5b505050506040513d601f19601f820116820180604052508101906102b391906146ca565b6102bc57600080fd5b6102c4613047565b82600001518160000181905250826020015181602001819052508260400151816040018181525050826060015181606001819052508060016000846000015173ffffffffffffffffffffffffffffffffffffffff1673ffffffffffffffffffffffffffffffffffffffff16815260200190815260200160002060008201518160000190816103529190614903565b5060208201518160010190816103689190614903565b506040820151816002015560608201518160030190816103889190614903565b5090505061039461306f565b8260000151816000019073ffffffffffffffffffffffffffffffffffffffff16908173ffffffffffffffffffffffffffffffffffffffff1681525050826040015181604001819052508260600151816060018190525082602001518160200181905250826080015181608001819052508260a001518160a001819052508260c001518160c001819052508260e001518160e0018190525082610100015181610100018190525082610120015181610120018190525082610140015181610140018190525082610160015181610160018190525082610180015181610180018190525060046000846000015173ffffffffffffffffffffffffffffffffffffffff1673ffffffffffffffffffffffffffffffffffffffff1681526020019081526020016000208190806001815401808255809150506001900390600052602060002090600d020160009091909190915060008201518160000160006101000a81548173ffffffffffffffffffffffffffffffffffffffff021916908373ffffffffffffffffffffffffffffffffffffffff160217905550602082015181600101908161053f9190614903565b5060408201518160020190816105559190614903565b50606082015181600301908161056b9190614903565b5060808201518160040190816105819190614903565b5060a08201518160050190816105979190614903565b5060c08201518160060190816105ad9190614903565b5060e08201518160070190816105c39190614903565b506101008201518160080190816105da9190614903565b506101208201518160090190816105f19190614903565b5061014082015181600a0190816106089190614903565b5061016082015181600b01908161061f9190614903565b5061018082015181600c0190816106369190614903565b505050600760009054906101000a900473ffffffffffffffffffffffffffffffffffffffff1673ffffffffffffffffffffffffffffffffffffffff16636d263ceb84600001516040518263ffffffff1660e01b8152600401610698919061469a565b600060405180830381600087803b1580156106b257600080fd5b505af11580156106c6573d6000803e3d6000fd5b50505050600860009054906101000a900473ffffffffffffffffffffffffffffffffffffffff1673ffffffffffffffffffffffffffffffffffffffff166343a0e44a338560400151866020015187600001516040518563ffffffff1660e01b81526004016107379493929190614a1f565b600060405180830381600087803b15801561075157600080fd5b505af1158015610765573d6000803e3d6000fd5b5050505050505050565b600660009054906101000a900473ffffffffffffffffffffffffffffffffffffffff1673ffffffffffffffffffffffffffffffffffffffff166363a9c3d7336040518263ffffffff1660e01b81526004016107ca919061469a565b602060405180830381865afa1580156107e7573d6000803e3d6000fd5b505050506040513d601f19601f8201168201806040525081019061080b91906146ca565b61081457600080fd5b61081c6130ed565b8260000151816000019073ffffffffffffffffffffffffffffffffffffffff16908173ffffffffffffffffffffffffffffffffffffffff1681525050826020015181602001819052508260400151816040018181525050826060015181606001819052508260800151816080018190525080600080856000015173ffffffffffffffffffffffffffffffffffffffff1673ffffffffffffffffffffffffffffffffffffffff16815260200190815260200160002060008201518160000160006101000a81548173ffffffffffffffffffffffffffffffffffffffff021916908373ffffffffffffffffffffffffffffffffffffffff160217905550602082015181600101908161092c9190614903565b5060408201518160020155606082015181600301908161094c9190614903565b5060808201518160040190816109629190614903565b5090505061096e613132565b8260000151816000019073ffffffffffffffffffffffffffffffffffffffff16908173ffffffffffffffffffffffffffffffffffffffff1681525050826020015181602001819052508260400151816040018190525082606001518160600181905250826080015181608001819052508260a001518160a001819052508260c001518160c001819052508260e001518160e001819052508261010001518161010001819052508261012001518161012001901515908115158152505060026000856000015173ffffffffffffffffffffffffffffffffffffffff1673ffffffffffffffffffffffffffffffffffffffff1681526020019081526020016000208190806001815401808255809150506001900390600052602060002090600a020160009091909190915060008201518160000160006101000a81548173ffffffffffffffffffffffffffffffffffffffff021916908373ffffffffffffffffffffffffffffffffffffffff1602179055506020820151816001019081610af39190614903565b506040820151816002019081610b099190614903565b506060820151816003019081610b1f9190614903565b506080820151816004019081610b359190614903565b5060a0820151816005019081610b4b9190614903565b5060c0820151816006019081610b619190614903565b5060e0820151816007019081610b779190614903565b50610100820151816008019081610b8e9190614903565b506101208201518160090160006101000a81548160ff0219169083151502179055505050600760009054906101000a900473ffffffffffffffffffffffffffffffffffffffff1673ffffffffffffffffffffffffffffffffffffffff16636d263ceb85600001516040518263ffffffff1660e01b8152600401610c11919061469a565b600060405180830381600087803b158015610c2b57600080fd5b505af1158015610c3f573d6000803e3d6000fd5b50505050600860009054906101000a900473ffffffffffffffffffffffffffffffffffffffff1673ffffffffffffffffffffffffffffffffffffffff166343a0e44a338660200151866020015188600001516040518563ffffffff1660e01b8152600401610cb09493929190614a1f565b600060405180830381600087803b158015610cca57600080fd5b505af1158015610cde573d6000803e3d6000fd5b5050505050505050565b80600760006101000a81548173ffffffffffffffffffffffffffffffffffffffff021916908373ffffffffffffffffffffffffffffffffffffffff16021790555050565b80600860006101000a81548173ffffffffffffffffffffffffffffffffffffffff021916908373ffffffffffffffffffffffffffffffffffffffff16021790555050565b600660009054906101000a900473ffffffffffffffffffffffffffffffffffffffff1673ffffffffffffffffffffffffffffffffffffffff166363a9c3d7336040518263ffffffff1660e01b8152600401610dcb919061469a565b602060405180830381865afa158015610de8573d6000803e3d6000fd5b505050506040513d601f19601f82011682018060405250810190610e0c91906146ca565b610e1557600080fd5b610e1d6130ed565b8260000151816000019073ffffffffffffffffffffffffffffffffffffffff16908173ffffffffffffffffffffffffffffffffffffffff1681525050826020015181602001819052508260400151816040018181525050826060015181606001819052508260800151816080018190525080600080856000015173ffffffffffffffffffffffffffffffffffffffff1673ffffffffffffffffffffffffffffffffffffffff16815260200190815260200160002060008201518160000160006101000a81548173ffffffffffffffffffffffffffffffffffffffff021916908373ffffffffffffffffffffffffffffffffffffffff1602179055506020820151816001019081610f2d9190614903565b50604082015181600201556060820151816003019081610f4d9190614903565b506080820151816004019081610f639190614903565b50905050610f6f61319d565b8260000151816000019073ffffffffffffffffffffffffffffffffffffffff16908173ffffffffffffffffffffffffffffffffffffffff1681525050826020015181602001819052508260400151816040018190525082606001518160600181905250826080015181608001819052508260a001518160a001819052508260c001518160c001819052508260e001518160e001819052508261010001518161010001819052508261012001518161012001901515908115158152505082610140015181610140018190525082610160015181610160018190525082610180015181610180019073ffffffffffffffffffffffffffffffffffffffff16908173ffffffffffffffffffffffffffffffffffffffff1681525050826101a00151816101a0018190525060036000846000015173ffffffffffffffffffffffffffffffffffffffff1673ffffffffffffffffffffffffffffffffffffffff1681526020019081526020016000208190806001815401808255809150506001900390600052602060002090600e020160009091909190915060008201518160000160006101000a81548173ffffffffffffffffffffffffffffffffffffffff021916908373ffffffffffffffffffffffffffffffffffffffff160217905550602082015181600101908161115f9190614903565b5060408201518160020190816111759190614903565b50606082015181600301908161118b9190614903565b5060808201518160040190816111a19190614903565b5060a08201518160050190816111b79190614903565b5060c08201518160060190816111cd9190614903565b5060e08201518160070190816111e39190614903565b506101008201518160080190816111fa9190614903565b506101208201518160090160006101000a81548160ff02191690831515021790555061014082015181600a0190816112329190614903565b5061016082015181600b0190816112499190614903565b5061018082015181600c0160006101000a81548173ffffffffffffffffffffffffffffffffffffffff021916908373ffffffffffffffffffffffffffffffffffffffff1602179055506101a082015181600d0190816112a89190614903565b505050600760009054906101000a900473ffffffffffffffffffffffffffffffffffffffff1673ffffffffffffffffffffffffffffffffffffffff16636d263ceb85600001516040518263ffffffff1660e01b815260040161130a919061469a565b600060405180830381600087803b15801561132457600080fd5b505af1158015611338573d6000803e3d6000fd5b50505050600860009054906101000a900473ffffffffffffffffffffffffffffffffffffffff1673ffffffffffffffffffffffffffffffffffffffff166343a0e44a338660200151866020015188600001516040518563ffffffff1660e01b81526004016113a99493929190614a1f565b600060405180830381600087803b1580156113c357600080fd5b505af11580156113d7573d6000803e3d6000fd5b5050505050505050565b6113e96130ed565b60606000808473ffffffffffffffffffffffffffffffffffffffff1673ffffffffffffffffffffffffffffffffffffffff168152602001908152602001600020600260008573ffffffffffffffffffffffffffffffffffffffff1673ffffffffffffffffffffffffffffffffffffffff168152602001908152602001600020816040518060a00160405290816000820160009054906101000a900473ffffffffffffffffffffffffffffffffffffffff1673ffffffffffffffffffffffffffffffffffffffff1673ffffffffffffffffffffffffffffffffffffffff1681526020016001820180546114da90614726565b80601f016020809104026020016040519081016040528092919081815260200182805461150690614726565b80156115535780601f1061152857610100808354040283529160200191611553565b820191906000526020600020905b81548152906001019060200180831161153657829003601f168201915b505050505081526020016002820154815260200160038201805461157690614726565b80601f01602080910402602001604051908101604052809291908181526020018280546115a290614726565b80156115ef5780601f106115c4576101008083540402835291602001916115ef565b820191906000526020600020905b8154815290600101906020018083116115d257829003601f168201915b5050505050815260200160048201805461160890614726565b80601f016020809104026020016040519081016040528092919081815260200182805461163490614726565b80156116815780601f1061165657610100808354040283529160200191611681565b820191906000526020600020905b81548152906001019060200180831161166457829003601f168201915b505050505081525050915080805480602002602001604051908101604052809291908181526020016000905b82821015611be157838290600052602060002090600a0201604051806101400160405290816000820160009054906101000a900473ffffffffffffffffffffffffffffffffffffffff1673ffffffffffffffffffffffffffffffffffffffff1673ffffffffffffffffffffffffffffffffffffffff16815260200160018201805461173790614726565b80601f016020809104026020016040519081016040528092919081815260200182805461176390614726565b80156117b05780601f10611785576101008083540402835291602001916117b0565b820191906000526020600020905b81548152906001019060200180831161179357829003601f168201915b505050505081526020016002820180546117c990614726565b80601f01602080910402602001604051908101604052809291908181526020018280546117f590614726565b80156118425780601f1061181757610100808354040283529160200191611842565b820191906000526020600020905b81548152906001019060200180831161182557829003601f168201915b5050505050815260200160038201805461185b90614726565b80601f016020809104026020016040519081016040528092919081815260200182805461188790614726565b80156118d45780601f106118a9576101008083540402835291602001916118d4565b820191906000526020600020905b8154815290600101906020018083116118b757829003601f168201915b505050505081526020016004820180546118ed90614726565b80601f016020809104026020016040519081016040528092919081815260200182805461191990614726565b80156119665780601f1061193b57610100808354040283529160200191611966565b820191906000526020600020905b81548152906001019060200180831161194957829003601f168201915b5050505050815260200160058201805461197f90614726565b80601f01602080910402602001604051908101604052809291908181526020018280546119ab90614726565b80156119f85780601f106119cd576101008083540402835291602001916119f8565b820191906000526020600020905b8154815290600101906020018083116119db57829003601f168201915b50505050508152602001600682018054611a1190614726565b80601f0160208091040260200160405190810160405280929190818152602001828054611a3d90614726565b8015611a8a5780601f10611a5f57610100808354040283529160200191611a8a565b820191906000526020600020905b815481529060010190602001808311611a6d57829003601f168201915b50505050508152602001600782018054611aa390614726565b80601f0160208091040260200160405190810160405280929190818152602001828054611acf90614726565b8015611b1c5780601f10611af157610100808354040283529160200191611b1c565b820191906000526020600020905b815481529060010190602001808311611aff57829003601f168201915b50505050508152602001600882018054611b3590614726565b80601f0160208091040260200160405190810160405280929190818152602001828054611b6190614726565b8015611bae5780601f10611b8357610100808354040283529160200191611bae565b820191906000526020600020905b815481529060010190602001808311611b9157829003601f168201915b505050505081526020016009820160009054906101000a900460ff161515151581525050815260200190600101906116ad565b50505050905091509150915091565b611bf86130ed565b60606000808473ffffffffffffffffffffffffffffffffffffffff1673ffffffffffffffffffffffffffffffffffffffff168152602001908152602001600020600460008573ffffffffffffffffffffffffffffffffffffffff1673ffffffffffffffffffffffffffffffffffffffff168152602001908152602001600020816040518060a00160405290816000820160009054906101000a900473ffffffffffffffffffffffffffffffffffffffff1673ffffffffffffffffffffffffffffffffffffffff1673ffffffffffffffffffffffffffffffffffffffff168152602001600182018054611ce990614726565b80601f0160208091040260200160405190810160405280929190818152602001828054611d1590614726565b8015611d625780601f10611d3757610100808354040283529160200191611d62565b820191906000526020600020905b815481529060010190602001808311611d4557829003601f168201915b5050505050815260200160028201548152602001600382018054611d8590614726565b80601f0160208091040260200160405190810160405280929190818152602001828054611db190614726565b8015611dfe5780601f10611dd357610100808354040283529160200191611dfe565b820191906000526020600020905b815481529060010190602001808311611de157829003601f168201915b50505050508152602001600482018054611e1790614726565b80601f0160208091040260200160405190810160405280929190818152602001828054611e4390614726565b8015611e905780601f10611e6557610100808354040283529160200191611e90565b820191906000526020600020905b815481529060010190602001808311611e7357829003601f168201915b505050505081525050915080805480602002602001604051908101604052809291908181526020016000905b8282101561261d57838290600052602060002090600d0201604051806101a00160405290816000820160009054906101000a900473ffffffffffffffffffffffffffffffffffffffff1673ffffffffffffffffffffffffffffffffffffffff1673ffffffffffffffffffffffffffffffffffffffff168152602001600182018054611f4690614726565b80601f0160208091040260200160405190810160405280929190818152602001828054611f7290614726565b8015611fbf5780601f10611f9457610100808354040283529160200191611fbf565b820191906000526020600020905b815481529060010190602001808311611fa257829003601f168201915b50505050508152602001600282018054611fd890614726565b80601f016020809104026020016040519081016040528092919081815260200182805461200490614726565b80156120515780601f1061202657610100808354040283529160200191612051565b820191906000526020600020905b81548152906001019060200180831161203457829003601f168201915b5050505050815260200160038201805461206a90614726565b80601f016020809104026020016040519081016040528092919081815260200182805461209690614726565b80156120e35780601f106120b8576101008083540402835291602001916120e3565b820191906000526020600020905b8154815290600101906020018083116120c657829003601f168201915b505050505081526020016004820180546120fc90614726565b80601f016020809104026020016040519081016040528092919081815260200182805461212890614726565b80156121755780601f1061214a57610100808354040283529160200191612175565b820191906000526020600020905b81548152906001019060200180831161215857829003601f168201915b5050505050815260200160058201805461218e90614726565b80601f01602080910402602001604051908101604052809291908181526020018280546121ba90614726565b80156122075780601f106121dc57610100808354040283529160200191612207565b820191906000526020600020905b8154815290600101906020018083116121ea57829003601f168201915b5050505050815260200160068201805461222090614726565b80601f016020809104026020016040519081016040528092919081815260200182805461224c90614726565b80156122995780601f1061226e57610100808354040283529160200191612299565b820191906000526020600020905b81548152906001019060200180831161227c57829003601f168201915b505050505081526020016007820180546122b290614726565b80601f01602080910402602001604051908101604052809291908181526020018280546122de90614726565b801561232b5780601f106123005761010080835404028352916020019161232b565b820191906000526020600020905b81548152906001019060200180831161230e57829003601f168201915b5050505050815260200160088201805461234490614726565b80601f016020809104026020016040519081016040528092919081815260200182805461237090614726565b80156123bd5780601f10612392576101008083540402835291602001916123bd565b820191906000526020600020905b8154815290600101906020018083116123a057829003601f168201915b505050505081526020016009820180546123d690614726565b80601f016020809104026020016040519081016040528092919081815260200182805461240290614726565b801561244f5780601f106124245761010080835404028352916020019161244f565b820191906000526020600020905b81548152906001019060200180831161243257829003601f168201915b50505050508152602001600a8201805461246890614726565b80601f016020809104026020016040519081016040528092919081815260200182805461249490614726565b80156124e15780601f106124b6576101008083540402835291602001916124e1565b820191906000526020600020905b8154815290600101906020018083116124c457829003601f168201915b50505050508152602001600b820180546124fa90614726565b80601f016020809104026020016040519081016040528092919081815260200182805461252690614726565b80156125735780601f1061254857610100808354040283529160200191612573565b820191906000526020600020905b81548152906001019060200180831161255657829003601f168201915b50505050508152602001600c8201805461258c90614726565b80601f01602080910402602001604051908101604052809291908181526020018280546125b890614726565b80156126055780601f106125da57610100808354040283529160200191612605565b820191906000526020600020905b8154815290600101906020018083116125e857829003601f168201915b50505050508152505081526020019060010190611ebc565b50505050905091509150915091565b6126346130ed565b60606000808473ffffffffffffffffffffffffffffffffffffffff1673ffffffffffffffffffffffffffffffffffffffff168152602001908152602001600020600360008573ffffffffffffffffffffffffffffffffffffffff1673ffffffffffffffffffffffffffffffffffffffff168152602001908152602001600020816040518060a00160405290816000820160009054906101000a900473ffffffffffffffffffffffffffffffffffffffff1673ffffffffffffffffffffffffffffffffffffffff1673ffffffffffffffffffffffffffffffffffffffff16815260200160018201805461272590614726565b80601f016020809104026020016040519081016040528092919081815260200182805461275190614726565b801561279e5780601f106127735761010080835404028352916020019161279e565b820191906000526020600020905b81548152906001019060200180831161278157829003601f168201915b50505050508152602001600282015481526020016003820180546127c190614726565b80601f01602080910402602001604051908101604052809291908181526020018280546127ed90614726565b801561283a5780601f1061280f5761010080835404028352916020019161283a565b820191906000526020600020905b81548152906001019060200180831161281d57829003601f168201915b5050505050815260200160048201805461285390614726565b80601f016020809104026020016040519081016040528092919081815260200182805461287f90614726565b80156128cc5780601f106128a1576101008083540402835291602001916128cc565b820191906000526020600020905b8154815290600101906020018083116128af57829003601f168201915b505050505081525050915080805480602002602001604051908101604052809291908181526020016000905b8282101561303857838290600052602060002090600e0201604051806101c00160405290816000820160009054906101000a900473ffffffffffffffffffffffffffffffffffffffff1673ffffffffffffffffffffffffffffffffffffffff1673ffffffffffffffffffffffffffffffffffffffff16815260200160018201805461298290614726565b80601f01602080910402602001604051908101604052809291908181526020018280546129ae90614726565b80156129fb5780601f106129d0576101008083540402835291602001916129fb565b820191906000526020600020905b8154815290600101906020018083116129de57829003601f168201915b50505050508152602001600282018054612a1490614726565b80601f0160208091040260200160405190810160405280929190818152602001828054612a4090614726565b8015612a8d5780601f10612a6257610100808354040283529160200191612a8d565b820191906000526020600020905b815481529060010190602001808311612a7057829003601f168201915b50505050508152602001600382018054612aa690614726565b80601f0160208091040260200160405190810160405280929190818152602001828054612ad290614726565b8015612b1f5780601f10612af457610100808354040283529160200191612b1f565b820191906000526020600020905b815481529060010190602001808311612b0257829003601f168201915b50505050508152602001600482018054612b3890614726565b80601f0160208091040260200160405190810160405280929190818152602001828054612b6490614726565b8015612bb15780601f10612b8657610100808354040283529160200191612bb1565b820191906000526020600020905b815481529060010190602001808311612b9457829003601f168201915b50505050508152602001600582018054612bca90614726565b80601f0160208091040260200160405190810160405280929190818152602001828054612bf690614726565b8015612c435780601f10612c1857610100808354040283529160200191612c43565b820191906000526020600020905b815481529060010190602001808311612c2657829003601f168201915b50505050508152602001600682018054612c5c90614726565b80601f0160208091040260200160405190810160405280929190818152602001828054612c8890614726565b8015612cd55780601f10612caa57610100808354040283529160200191612cd5565b820191906000526020600020905b815481529060010190602001808311612cb857829003601f168201915b50505050508152602001600782018054612cee90614726565b80601f0160208091040260200160405190810160405280929190818152602001828054612d1a90614726565b8015612d675780601f10612d3c57610100808354040283529160200191612d67565b820191906000526020600020905b815481529060010190602001808311612d4a57829003601f168201915b50505050508152602001600882018054612d8090614726565b80601f0160208091040260200160405190810160405280929190818152602001828054612dac90614726565b8015612df95780601f10612dce57610100808354040283529160200191612df9565b820191906000526020600020905b815481529060010190602001808311612ddc57829003601f168201915b505050505081526020016009820160009054906101000a900460ff16151515158152602001600a82018054612e2d90614726565b80601f0160208091040260200160405190810160405280929190818152602001828054612e5990614726565b8015612ea65780601f10612e7b57610100808354040283529160200191612ea6565b820191906000526020600020905b815481529060010190602001808311612e8957829003601f168201915b50505050508152602001600b82018054612ebf90614726565b80601f0160208091040260200160405190810160405280929190818152602001828054612eeb90614726565b8015612f385780601f10612f0d57610100808354040283529160200191612f38565b820191906000526020600020905b815481529060010190602001808311612f1b57829003601f168201915b50505050508152602001600c820160009054906101000a900473ffffffffffffffffffffffffffffffffffffffff1673ffffffffffffffffffffffffffffffffffffffff1673ffffffffffffffffffffffffffffffffffffffff168152602001600d82018054612fa790614726565b80601f0160208091040260200160405190810160405280929190818152602001828054612fd390614726565b80156130205780601f10612ff557610100808354040283529160200191613020565b820191906000526020600020905b81548152906001019060200180831161300357829003601f168201915b505050505081525050815260200190600101906128f8565b50505050905091509150915091565b6040518060800160405280606081526020016060815260200160008152602001606081525090565b604051806101a00160405280600073ffffffffffffffffffffffffffffffffffffffff1681526020016060815260200160608152602001606081526020016060815260200160608152602001606081526020016060815260200160608152602001606081526020016060815260200160608152602001606081525090565b6040518060a00160405280600073ffffffffffffffffffffffffffffffffffffffff168152602001606081526020016000815260200160608152602001606081525090565b604051806101400160405280600073ffffffffffffffffffffffffffffffffffffffff16815260200160608152602001606081526020016060815260200160608152602001606081526020016060815260200160608152602001606081526020016000151581525090565b604051806101c00160405280600073ffffffffffffffffffffffffffffffffffffffff16815260200160608152602001606081526020016060815260200160608152602001606081526020016060815260200160608152602001606081526020016000151581526020016060815260200160608152602001600073ffffffffffffffffffffffffffffffffffffffff168152602001606081525090565b6000604051905090565b600080fd5b600080fd5b600073ffffffffffffffffffffffffffffffffffffffff82169050919050565b60006132798261324e565b9050919050565b6132898161326e565b811461329457600080fd5b50565b6000813590506132a681613280565b92915050565b6000602082840312156132c2576132c1613244565b5b60006132d084828501613297565b91505092915050565b600080fd5b6000601f19601f8301169050919050565b7f4e487b7100000000000000000000000000000000000000000000000000000000600052604160045260246000fd5b613327826132de565b810181811067ffffffffffffffff82111715613346576133456132ef565b5b80604052505050565b600061335961323a565b9050613365828261331e565b919050565b600080fd5b600080fd5b600080fd5b600067ffffffffffffffff821115613394576133936132ef565b5b61339d826132de565b9050602081019050919050565b82818337600083830152505050565b60006133cc6133c784613379565b61334f565b9050828152602081018484840111156133e8576133e7613374565b5b6133f38482856133aa565b509392505050565b600082601f8301126134105761340f61336f565b5b81356134208482602086016133b9565b91505092915050565b6000819050919050565b61343c81613429565b811461344757600080fd5b50565b60008135905061345981613433565b92915050565b600060808284031215613475576134746132d9565b5b61347f608061334f565b9050600082013567ffffffffffffffff81111561349f5761349e61336a565b5b6134ab848285016133fb565b600083015250602082013567ffffffffffffffff8111156134cf576134ce61336a565b5b6134db848285016133fb565b60208301525060406134ef8482850161344a565b604083015250606082013567ffffffffffffffff8111156135135761351261336a565b5b61351f848285016133fb565b60608301525092915050565b60006101a08284031215613542576135416132d9565b5b61354d6101a061334f565b9050600061355d84828501613297565b600083015250602082013567ffffffffffffffff8111156135815761358061336a565b5b61358d848285016133fb565b602083015250604082013567ffffffffffffffff8111156135b1576135b061336a565b5b6135bd848285016133fb565b604083015250606082013567ffffffffffffffff8111156135e1576135e061336a565b5b6135ed848285016133fb565b606083015250608082013567ffffffffffffffff8111156136115761361061336a565b5b61361d848285016133fb565b60808301525060a082013567ffffffffffffffff8111156136415761364061336a565b5b61364d848285016133fb565b60a08301525060c082013567ffffffffffffffff8111156136715761367061336a565b5b61367d848285016133fb565b60c08301525060e082013567ffffffffffffffff8111156136a1576136a061336a565b5b6136ad848285016133fb565b60e08301525061010082013567ffffffffffffffff8111156136d2576136d161336a565b5b6136de848285016133fb565b6101008301525061012082013567ffffffffffffffff8111156137045761370361336a565b5b613710848285016133fb565b6101208301525061014082013567ffffffffffffffff8111156137365761373561336a565b5b613742848285016133fb565b6101408301525061016082013567ffffffffffffffff8111156137685761376761336a565b5b613774848285016133fb565b6101608301525061018082013567ffffffffffffffff81111561379a5761379961336a565b5b6137a6848285016133fb565b6101808301525092915050565b600080604083850312156137ca576137c9613244565b5b600083013567ffffffffffffffff8111156137e8576137e7613249565b5b6137f48582860161345f565b925050602083013567ffffffffffffffff81111561381557613814613249565b5b6138218582860161352b565b9150509250929050565b600060a08284031215613841576138406132d9565b5b61384b60a061334f565b9050600061385b84828501613297565b600083015250602082013567ffffffffffffffff81111561387f5761387e61336a565b5b61388b848285016133fb565b602083015250604061389f8482850161344a565b604083015250606082013567ffffffffffffffff8111156138c3576138c261336a565b5b6138cf848285016133fb565b606083015250608082013567ffffffffffffffff8111156138f3576138f261336a565b5b6138ff848285016133fb565b60808301525092915050565b60008115159050919050565b6139208161390b565b811461392b57600080fd5b50565b60008135905061393d81613917565b92915050565b6000610140828403121561395a576139596132d9565b5b61396561014061334f565b9050600061397584828501613297565b600083015250602082013567ffffffffffffffff8111156139995761399861336a565b5b6139a5848285016133fb565b602083015250604082013567ffffffffffffffff8111156139c9576139c861336a565b5b6139d5848285016133fb565b604083015250606082013567ffffffffffffffff8111156139f9576139f861336a565b5b613a05848285016133fb565b606083015250608082013567ffffffffffffffff811115613a2957613a2861336a565b5b613a35848285016133fb565b60808301525060a082013567ffffffffffffffff811115613a5957613a5861336a565b5b613a65848285016133fb565b60a08301525060c082013567ffffffffffffffff811115613a8957613a8861336a565b5b613a95848285016133fb565b60c08301525060e082013567ffffffffffffffff811115613ab957613ab861336a565b5b613ac5848285016133fb565b60e08301525061010082013567ffffffffffffffff811115613aea57613ae961336a565b5b613af6848285016133fb565b61010083015250610120613b0c8482850161392e565b6101208301525092915050565b60008060408385031215613b3057613b2f613244565b5b600083013567ffffffffffffffff811115613b4e57613b4d613249565b5b613b5a8582860161382b565b925050602083013567ffffffffffffffff811115613b7b57613b7a613249565b5b613b8785828601613943565b9150509250929050565b60006101c08284031215613ba857613ba76132d9565b5b613bb36101c061334f565b90506000613bc384828501613297565b600083015250602082013567ffffffffffffffff811115613be757613be661336a565b5b613bf3848285016133fb565b602083015250604082013567ffffffffffffffff811115613c1757613c1661336a565b5b613c23848285016133fb565b604083015250606082013567ffffffffffffffff811115613c4757613c4661336a565b5b613c53848285016133fb565b606083015250608082013567ffffffffffffffff811115613c7757613c7661336a565b5b613c83848285016133fb565b60808301525060a082013567ffffffffffffffff811115613ca757613ca661336a565b5b613cb3848285016133fb565b60a08301525060c082013567ffffffffffffffff811115613cd757613cd661336a565b5b613ce3848285016133fb565b60c08301525060e082013567ffffffffffffffff811115613d0757613d0661336a565b5b613d13848285016133fb565b60e08301525061010082013567ffffffffffffffff811115613d3857613d3761336a565b5b613d44848285016133fb565b61010083015250610120613d5a8482850161392e565b6101208301525061014082013567ffffffffffffffff811115613d8057613d7f61336a565b5b613d8c848285016133fb565b6101408301525061016082013567ffffffffffffffff811115613db257613db161336a565b5b613dbe848285016133fb565b61016083015250610180613dd484828501613297565b610180830152506101a082013567ffffffffffffffff811115613dfa57613df961336a565b5b613e06848285016133fb565b6101a08301525092915050565b60008060408385031215613e2a57613e29613244565b5b600083013567ffffffffffffffff811115613e4857613e47613249565b5b613e548582860161382b565b925050602083013567ffffffffffffffff811115613e7557613e74613249565b5b613e8185828601613b91565b9150509250929050565b613e948161326e565b82525050565b600081519050919050565b600082825260208201905092915050565b60005b83811015613ed4578082015181840152602081019050613eb9565b60008484015250505050565b6000613eeb82613e9a565b613ef58185613ea5565b9350613f05818560208601613eb6565b613f0e816132de565b840191505092915050565b613f2281613429565b82525050565b600060a083016000830151613f406000860182613e8b565b5060208301518482036020860152613f588282613ee0565b9150506040830151613f6d6040860182613f19565b5060608301518482036060860152613f858282613ee0565b91505060808301518482036080860152613f9f8282613ee0565b9150508091505092915050565b600081519050919050565b600082825260208201905092915050565b6000819050602082019050919050565b613fe18161390b565b82525050565b6000610140830160008301516140006000860182613e8b565b50602083015184820360208601526140188282613ee0565b915050604083015184820360408601526140328282613ee0565b9150506060830151848203606086015261404c8282613ee0565b915050608083015184820360808601526140668282613ee0565b91505060a083015184820360a08601526140808282613ee0565b91505060c083015184820360c086015261409a8282613ee0565b91505060e083015184820360e08601526140b48282613ee0565b9150506101008301518482036101008601526140d08282613ee0565b9150506101208301516140e7610120860182613fd8565b508091505092915050565b60006140fe8383613fe7565b905092915050565b6000602082019050919050565b600061411e82613fac565b6141288185613fb7565b93508360208202850161413a85613fc8565b8060005b85811015614176578484038952815161415785826140f2565b945061416283614106565b925060208a0199505060018101905061413e565b50829750879550505050505092915050565b600060408201905081810360008301526141a28185613f28565b905081810360208301526141b68184614113565b90509392505050565b600081519050919050565b600082825260208201905092915050565b6000819050602082019050919050565b60006101a0830160008301516142046000860182613e8b565b506020830151848203602086015261421c8282613ee0565b915050604083015184820360408601526142368282613ee0565b915050606083015184820360608601526142508282613ee0565b9150506080830151848203608086015261426a8282613ee0565b91505060a083015184820360a08601526142848282613ee0565b91505060c083015184820360c086015261429e8282613ee0565b91505060e083015184820360e08601526142b88282613ee0565b9150506101008301518482036101008601526142d48282613ee0565b9150506101208301518482036101208601526142f08282613ee0565b91505061014083015184820361014086015261430c8282613ee0565b9150506101608301518482036101608601526143288282613ee0565b9150506101808301518482036101808601526143448282613ee0565b9150508091505092915050565b600061435d83836141eb565b905092915050565b6000602082019050919050565b600061437d826141bf565b61438781856141ca565b935083602082028501614399856141db565b8060005b858110156143d557848403895281516143b68582614351565b94506143c183614365565b925060208a0199505060018101905061439d565b50829750879550505050505092915050565b600060408201905081810360008301526144018185613f28565b905081810360208301526144158184614372565b90509392505050565b600081519050919050565b600082825260208201905092915050565b6000819050602082019050919050565b60006101c0830160008301516144636000860182613e8b565b506020830151848203602086015261447b8282613ee0565b915050604083015184820360408601526144958282613ee0565b915050606083015184820360608601526144af8282613ee0565b915050608083015184820360808601526144c98282613ee0565b91505060a083015184820360a08601526144e38282613ee0565b91505060c083015184820360c08601526144fd8282613ee0565b91505060e083015184820360e08601526145178282613ee0565b9150506101008301518482036101008601526145338282613ee0565b91505061012083015161454a610120860182613fd8565b506101408301518482036101408601526145648282613ee0565b9150506101608301518482036101608601526145808282613ee0565b915050610180830151614597610180860182613e8b565b506101a08301518482036101a08601526145b18282613ee0565b9150508091505092915050565b60006145ca838361444a565b905092915050565b6000602082019050919050565b60006145ea8261441e565b6145f48185614429565b9350836020820285016146068561443a565b8060005b85811015614642578484038952815161462385826145be565b945061462e836145d2565b925060208a0199505060018101905061460a565b50829750879550505050505092915050565b6000604082019050818103600083015261466e8185613f28565b9050818103602083015261468281846145df565b90509392505050565b6146948161326e565b82525050565b60006020820190506146af600083018461468b565b92915050565b6000815190506146c481613917565b92915050565b6000602082840312156146e0576146df613244565b5b60006146ee848285016146b5565b91505092915050565b7f4e487b7100000000000000000000000000000000000000000000000000000000600052602260045260246000fd5b6000600282049050600182168061473e57607f821691505b602082108103614751576147506146f7565b5b50919050565b60008190508160005260206000209050919050565b60006020601f8301049050919050565b600082821b905092915050565b6000600883026147b97fffffffffffffffffffffffffffffffffffffffffffffffffffffffffffffffff8261477c565b6147c3868361477c565b95508019841693508086168417925050509392505050565b6000819050919050565b60006148006147fb6147f684613429565b6147db565b613429565b9050919050565b6000819050919050565b61481a836147e5565b61482e61482682614807565b848454614789565b825550505050565b600090565b614843614836565b61484e818484614811565b505050565b5b818110156148725761486760008261483b565b600181019050614854565b5050565b601f8211156148b75761488881614757565b6148918461476c565b810160208510156148a0578190505b6148b46148ac8561476c565b830182614853565b50505b505050565b600082821c905092915050565b60006148da600019846008026148bc565b1980831691505092915050565b60006148f383836148c9565b9150826002028217905092915050565b61490c82613e9a565b67ffffffffffffffff811115614925576149246132ef565b5b61492f8254614726565b61493a828285614876565b600060209050601f83116001811461496d576000841561495b578287015190505b61496585826148e7565b8655506149cd565b601f19841661497b86614757565b60005b828110156149a35784890151825560018201915060208501945060208101905061497e565b868310156149c057848901516149bc601f8916826148c9565b8355505b6001600288020188555050505b505050505050565b600082825260208201905092915050565b60006149f182613e9a565b6149fb81856149d5565b9350614a0b818560208601613eb6565b614a14816132de565b840191505092915050565b6000608082019050614a34600083018761468b565b8181036020830152614a4681866149e6565b90508181036040830152614a5a81856149e6565b9050614a69606083018461468b565b9594505050505056fea26469706673582212206ef32735405f9ba47712587c707a7944792965af3003fb74260656d027175a1564736f6c63430008110033608060405234801561001057600080fd5b50604051610605380380610605833981810160405281019061003291906100db565b806000806101000a81548173ffffffffffffffffffffffffffffffffffffffff021916908373ffffffffffffffffffffffffffffffffffffffff16021790555050610108565b600080fd5b600073ffffffffffffffffffffffffffffffffffffffff82169050919050565b60006100a88261007d565b9050919050565b6100b88161009d565b81146100c357600080fd5b50565b6000815190506100d5816100af565b92915050565b6000602082840312156100f1576100f0610078565b5b60006100ff848285016100c6565b91505092915050565b6104ee806101176000396000f3fe608060405234801561001057600080fd5b50600436106100415760003560e01c806318a231a91461004657806363a9c3d7146100645780636d263ceb14610094575b600080fd5b61004e6100b0565b60405161005b9190610402565b60405180910390f35b61007e60048036038101906100799190610455565b610196565b60405161008b919061049d565b60405180910390f35b6100ae60048036038101906100a99190610455565b6101fd565b005b606060008054906101000a900473ffffffffffffffffffffffffffffffffffffffff1673ffffffffffffffffffffffffffffffffffffffff163373ffffffffffffffffffffffffffffffffffffffff161461010a57600080fd5b600180548060200260200160405190810160405280929190818152602001828054801561018c57602002820191906000526020600020905b8160009054906101000a900473ffffffffffffffffffffffffffffffffffffffff1673ffffffffffffffffffffffffffffffffffffffff1681526020019060010190808311610142575b5050505050905090565b6000600260008373ffffffffffffffffffffffffffffffffffffffff1673ffffffffffffffffffffffffffffffffffffffff16815260200190815260200160002060009054906101000a900460ff16156101f357600190506101f8565b600090505b919050565b600260008273ffffffffffffffffffffffffffffffffffffffff1673ffffffffffffffffffffffffffffffffffffffff16815260200190815260200160002060009054906101000a900460ff161561025457600080fd5b6001600260008373ffffffffffffffffffffffffffffffffffffffff1673ffffffffffffffffffffffffffffffffffffffff16815260200190815260200160002060006101000a81548160ff0219169083151502179055506001819080600181540180825580915050600190039060005260206000200160009091909190916101000a81548173ffffffffffffffffffffffffffffffffffffffff021916908373ffffffffffffffffffffffffffffffffffffffff16021790555050565b600081519050919050565b600082825260208201905092915050565b6000819050602082019050919050565b600073ffffffffffffffffffffffffffffffffffffffff82169050919050565b60006103698261033e565b9050919050565b6103798161035e565b82525050565b600061038b8383610370565b60208301905092915050565b6000602082019050919050565b60006103af82610312565b6103b9818561031d565b93506103c48361032e565b8060005b838110156103f55781516103dc888261037f565b97506103e783610397565b9250506001810190506103c8565b5085935050505092915050565b6000602082019050818103600083015261041c81846103a4565b905092915050565b600080fd5b6104328161035e565b811461043d57600080fd5b50565b60008135905061044f81610429565b92915050565b60006020828403121561046b5761046a610424565b5b600061047984828501610440565b91505092915050565b60008115159050919050565b61049781610482565b82525050565b60006020820190506104b2600083018461048e565b9291505056fea264697066735822122028d56d823202d87af350499879e2fb0cb18b7c7c6f3ee56e052a9e4f92b3edf964736f6c63430008110033608060405234801561001057600080fd5b5060405161065d38038061065d833981810160405281019061003291906100db565b806000806101000a81548173ffffffffffffffffffffffffffffffffffffffff021916908373ffffffffffffffffffffffffffffffffffffffff16021790555050610108565b600080fd5b600073ffffffffffffffffffffffffffffffffffffffff82169050919050565b60006100a88261007d565b9050919050565b6100b88161009d565b81146100c357600080fd5b50565b6000815190506100d5816100af565b92915050565b6000602082840312156100f1576100f0610078565b5b60006100ff848285016100c6565b91505092915050565b610546806101176000396000f3fe608060405234801561001057600080fd5b50600436106100415760003560e01c80634780468f1461004657806363a9c3d714610062578063f0d9509014610092575b600080fd5b610060600480360381019061005b91906103cd565b6100b0565b005b61007c600480360381019061007791906103cd565b61021d565b6040516100899190610415565b60405180910390f35b61009a610284565b6040516100a791906104ee565b60405180910390f35b60008054906101000a900473ffffffffffffffffffffffffffffffffffffffff1673ffffffffffffffffffffffffffffffffffffffff163373ffffffffffffffffffffffffffffffffffffffff161461010857600080fd5b600260008273ffffffffffffffffffffffffffffffffffffffff1673ffffffffffffffffffffffffffffffffffffffff16815260200190815260200160002060009054906101000a900460ff161561015f57600080fd5b6001600260008373ffffffffffffffffffffffffffffffffffffffff1673ffffffffffffffffffffffffffffffffffffffff16815260200190815260200160002060006101000a81548160ff0219169083151502179055506001819080600181540180825580915050600190039060005260206000200160009091909190916101000a81548173ffffffffffffffffffffffffffffffffffffffff021916908373ffffffffffffffffffffffffffffffffffffffff16021790555050565b6000600260008373ffffffffffffffffffffffffffffffffffffffff1673ffffffffffffffffffffffffffffffffffffffff16815260200190815260200160002060009054906101000a900460ff161561027a576001905061027f565b600090505b919050565b606060008054906101000a900473ffffffffffffffffffffffffffffffffffffffff1673ffffffffffffffffffffffffffffffffffffffff163373ffffffffffffffffffffffffffffffffffffffff16146102de57600080fd5b600180548060200260200160405190810160405280929190818152602001828054801561036057602002820191906000526020600020905b8160009054906101000a900473ffffffffffffffffffffffffffffffffffffffff1673ffffffffffffffffffffffffffffffffffffffff1681526020019060010190808311610316575b5050505050905090565b600080fd5b600073ffffffffffffffffffffffffffffffffffffffff82169050919050565b600061039a8261036f565b9050919050565b6103aa8161038f565b81146103b557600080fd5b50565b6000813590506103c7816103a1565b92915050565b6000602082840312156103e3576103e261036a565b5b60006103f1848285016103b8565b91505092915050565b60008115159050919050565b61040f816103fa565b82525050565b600060208201905061042a6000830184610406565b92915050565b600081519050919050565b600082825260208201905092915050565b6000819050602082019050919050565b6104658161038f565b82525050565b6000610477838361045c565b60208301905092915050565b6000602082019050919050565b600061049b82610430565b6104a5818561043b565b93506104b08361044c565b8060005b838110156104e15781516104c8888261046b565b97506104d383610483565b9250506001810190506104b4565b5085935050505092915050565b600060208201905081810360008301526105088184610490565b90509291505056fea2646970667358221220f4c0702a1a7b29fa8ced84d3212e38c079b518c7f281805c5a57bd44f7eac7c264736f6c63430008110033608060405234801561001057600080fd5b50604051610f2f380380610f2f833981810160405281019061003291906100db565b806000806101000a81548173ffffffffffffffffffffffffffffffffffffffff021916908373ffffffffffffffffffffffffffffffffffffffff16021790555050610108565b600080fd5b600073ffffffffffffffffffffffffffffffffffffffff82169050919050565b60006100a88261007d565b9050919050565b6100b88161009d565b81146100c357600080fd5b50565b6000815190506100d5816100af565b92915050565b6000602082840312156100f1576100f0610078565b5b60006100ff848285016100c6565b91505092915050565b610e18806101176000396000f3fe608060405234801561001057600080fd5b50600436106100415760003560e01c80631107747e1461004657806343a0e44a14610062578063f40941d01461007e575b600080fd5b610060600480360381019061005b9190610690565b6100ae565b005b61007c60048036038101906100779190610803565b61014a565b005b61009860048036038101906100939190610690565b610328565b6040516100a59190610a49565b60405180910390f35b60008054906101000a900473ffffffffffffffffffffffffffffffffffffffff1673ffffffffffffffffffffffffffffffffffffffff163373ffffffffffffffffffffffffffffffffffffffff161461010657600080fd5b80600260006101000a81548173ffffffffffffffffffffffffffffffffffffffff021916908373ffffffffffffffffffffffffffffffffffffffff16021790555050565b83600260009054906101000a900473ffffffffffffffffffffffffffffffffffffffff1673ffffffffffffffffffffffffffffffffffffffff166363a9c3d7826040518263ffffffff1660e01b81526004016101a69190610a7a565b602060405180830381865afa1580156101c3573d6000803e3d6000fd5b505050506040513d601f19601f820116820180604052508101906101e79190610acd565b6101f057600080fd5b6101f86105e7565b84816000018190525083816020018190525082816040019073ffffffffffffffffffffffffffffffffffffffff16908173ffffffffffffffffffffffffffffffffffffffff1681525050600160008773ffffffffffffffffffffffffffffffffffffffff1673ffffffffffffffffffffffffffffffffffffffff16815260200190815260200160002081908060018154018082558091505060019003906000526020600020906003020160009091909190915060008201518160000190816102c09190610d10565b5060208201518160010190816102d69190610d10565b5060408201518160020160006101000a81548173ffffffffffffffffffffffffffffffffffffffff021916908373ffffffffffffffffffffffffffffffffffffffff1602179055505050505050505050565b606033600260009054906101000a900473ffffffffffffffffffffffffffffffffffffffff1673ffffffffffffffffffffffffffffffffffffffff166363a9c3d7826040518263ffffffff1660e01b81526004016103869190610a7a565b602060405180830381865afa1580156103a3573d6000803e3d6000fd5b505050506040513d601f19601f820116820180604052508101906103c79190610acd565b6103d057600080fd5b600160008473ffffffffffffffffffffffffffffffffffffffff1673ffffffffffffffffffffffffffffffffffffffff168152602001908152602001600020805480602002602001604051908101604052809291908181526020016000905b828210156105db578382906000526020600020906003020160405180606001604052908160008201805461046290610b29565b80601f016020809104026020016040519081016040528092919081815260200182805461048e90610b29565b80156104db5780601f106104b0576101008083540402835291602001916104db565b820191906000526020600020905b8154815290600101906020018083116104be57829003601f168201915b505050505081526020016001820180546104f490610b29565b80601f016020809104026020016040519081016040528092919081815260200182805461052090610b29565b801561056d5780601f106105425761010080835404028352916020019161056d565b820191906000526020600020905b81548152906001019060200180831161055057829003601f168201915b505050505081526020016002820160009054906101000a900473ffffffffffffffffffffffffffffffffffffffff1673ffffffffffffffffffffffffffffffffffffffff1673ffffffffffffffffffffffffffffffffffffffff16815250508152602001906001019061042f565b50505050915050919050565b60405180606001604052806060815260200160608152602001600073ffffffffffffffffffffffffffffffffffffffff1681525090565b6000604051905090565b600080fd5b600080fd5b600073ffffffffffffffffffffffffffffffffffffffff82169050919050565b600061065d82610632565b9050919050565b61066d81610652565b811461067857600080fd5b50565b60008135905061068a81610664565b92915050565b6000602082840312156106a6576106a5610628565b5b60006106b48482850161067b565b91505092915050565b600080fd5b600080fd5b6000601f19601f8301169050919050565b7f4e487b7100000000000000000000000000000000000000000000000000000000600052604160045260246000fd5b610710826106c7565b810181811067ffffffffffffffff8211171561072f5761072e6106d8565b5b80604052505050565b600061074261061e565b905061074e8282610707565b919050565b600067ffffffffffffffff82111561076e5761076d6106d8565b5b610777826106c7565b9050602081019050919050565b82818337600083830152505050565b60006107a66107a184610753565b610738565b9050828152602081018484840111156107c2576107c16106c2565b5b6107cd848285610784565b509392505050565b600082601f8301126107ea576107e96106bd565b5b81356107fa848260208601610793565b91505092915050565b6000806000806080858703121561081d5761081c610628565b5b600061082b8782880161067b565b945050602085013567ffffffffffffffff81111561084c5761084b61062d565b5b610858878288016107d5565b935050604085013567ffffffffffffffff8111156108795761087861062d565b5b610885878288016107d5565b92505060606108968782880161067b565b91505092959194509250565b600081519050919050565b600082825260208201905092915050565b6000819050602082019050919050565b600081519050919050565b600082825260208201905092915050565b60005b838110156109085780820151818401526020810190506108ed565b60008484015250505050565b600061091f826108ce565b61092981856108d9565b93506109398185602086016108ea565b610942816106c7565b840191505092915050565b61095681610652565b82525050565b600060608301600083015184820360008601526109798282610914565b915050602083015184820360208601526109938282610914565b91505060408301516109a8604086018261094d565b508091505092915050565b60006109bf838361095c565b905092915050565b6000602082019050919050565b60006109df826108a2565b6109e981856108ad565b9350836020820285016109fb856108be565b8060005b85811015610a375784840389528151610a1885826109b3565b9450610a23836109c7565b925060208a019950506001810190506109ff565b50829750879550505050505092915050565b60006020820190508181036000830152610a6381846109d4565b905092915050565b610a7481610652565b82525050565b6000602082019050610a8f6000830184610a6b565b92915050565b60008115159050919050565b610aaa81610a95565b8114610ab557600080fd5b50565b600081519050610ac781610aa1565b92915050565b600060208284031215610ae357610ae2610628565b5b6000610af184828501610ab8565b91505092915050565b7f4e487b7100000000000000000000000000000000000000000000000000000000600052602260045260246000fd5b60006002820490506001821680610b4157607f821691505b602082108103610b5457610b53610afa565b5b50919050565b60008190508160005260206000209050919050565b60006020601f8301049050919050565b600082821b905092915050565b600060088302610bbc7fffffffffffffffffffffffffffffffffffffffffffffffffffffffffffffffff82610b7f565b610bc68683610b7f565b95508019841693508086168417925050509392505050565b6000819050919050565b6000819050919050565b6000610c0d610c08610c0384610bde565b610be8565b610bde565b9050919050565b6000819050919050565b610c2783610bf2565b610c3b610c3382610c14565b848454610b8c565b825550505050565b600090565b610c50610c43565b610c5b818484610c1e565b505050565b5b81811015610c7f57610c74600082610c48565b600181019050610c61565b5050565b601f821115610cc457610c9581610b5a565b610c9e84610b6f565b81016020851015610cad578190505b610cc1610cb985610b6f565b830182610c60565b50505b505050565b600082821c905092915050565b6000610ce760001984600802610cc9565b1980831691505092915050565b6000610d008383610cd6565b9150826002028217905092915050565b610d19826108ce565b67ffffffffffffffff811115610d3257610d316106d8565b5b610d3c8254610b29565b610d47828285610c83565b600060209050601f831160018114610d7a5760008415610d68578287015190505b610d728582610cf4565b865550610dda565b601f198416610d8886610b5a565b60005b82811015610db057848901518255600182019150602085019450602081019050610d8b565b86831015610dcd5784890151610dc9601f891682610cd6565b8355505b6001600288020188555050505b50505050505056fea2646970667358221220e166aeb4433a518d8183bd683ce3bd1acccc4de4ebacc2c83a8c22c258955ae764736f6c63430008110033","opcodes":"PUSH1 0x80 PUSH1 0x40 MSTORE CALLVALUE DUP1 ISZERO PUSH3 0x11 JUMPI PUSH1 0x0 DUP1 REVERT JUMPDEST POP CALLER PUSH1 0x1 PUSH1 0x0 PUSH2 0x100 EXP DUP2 SLOAD DUP2 PUSH20 0xFFFFFFFFFFFFFFFFFFFFFFFFFFFFFFFFFFFFFFFF MUL NOT AND SWAP1 DUP4 PUSH20 0xFFFFFFFFFFFFFFFFFFFFFFFFFFFFFFFFFFFFFFFF AND MUL OR SWAP1 SSTORE POP PUSH1 0x0 CALLER PUSH1 0x40 MLOAD PUSH3 0x64 SWAP1 PUSH3 0x571 JUMP JUMPDEST PUSH3 0x70 SWAP2 SWAP1 PUSH3 0x5EE JUMP JUMPDEST PUSH1 0x40 MLOAD DUP1 SWAP2 SUB SWAP1 PUSH1 0x0 CREATE DUP1 ISZERO DUP1 ISZERO PUSH3 0x8D JUMPI RETURNDATASIZE PUSH1 0x0 DUP1 RETURNDATACOPY RETURNDATASIZE PUSH1 0x0 REVERT JUMPDEST POP SWAP1 POP PUSH1 0x0 PUSH1 0x40 MLOAD PUSH3 0xA0 SWAP1 PUSH3 0x666 JUMP JUMPDEST SWAP1 DUP2 MSTORE PUSH1 0x20 ADD PUSH1 0x40 MLOAD DUP1 SWAP2 SUB SWAP1 KECCAK256 PUSH1 0x40 MLOAD DUP1 PUSH1 0x40 ADD PUSH1 0x40 MSTORE DUP1 PUSH1 0x40 MLOAD DUP1 PUSH1 0x40 ADD PUSH1 0x40 MSTORE DUP1 PUSH1 0x18 DUP2 MSTORE PUSH1 0x20 ADD PUSH32 0x656C656374726F6E69634D65646963616C5265636F7264730000000000000000 DUP2 MSTORE POP DUP2 MSTORE PUSH1 0x20 ADD DUP4 PUSH20 0xFFFFFFFFFFFFFFFFFFFFFFFFFFFFFFFFFFFFFFFF AND DUP2 MSTORE POP SWAP1 DUP1 PUSH1 0x1 DUP2 SLOAD ADD DUP1 DUP3 SSTORE DUP1 SWAP2 POP POP PUSH1 0x1 SWAP1 SUB SWAP1 PUSH1 0x0 MSTORE PUSH1 0x20 PUSH1 0x0 KECCAK256 SWAP1 PUSH1 0x2 MUL ADD PUSH1 0x0 SWAP1 SWAP2 SWAP1 SWAP2 SWAP1 SWAP2 POP PUSH1 0x0 DUP3 ADD MLOAD DUP2 PUSH1 0x0 ADD SWAP1 DUP2 PUSH3 0x14E SWAP2 SWAP1 PUSH3 0x8F7 JUMP JUMPDEST POP PUSH1 0x20 DUP3 ADD MLOAD DUP2 PUSH1 0x1 ADD PUSH1 0x0 PUSH2 0x100 EXP DUP2 SLOAD DUP2 PUSH20 0xFFFFFFFFFFFFFFFFFFFFFFFFFFFFFFFFFFFFFFFF MUL NOT AND SWAP1 DUP4 PUSH20 0xFFFFFFFFFFFFFFFFFFFFFFFFFFFFFFFFFFFFFFFF AND MUL OR SWAP1 SSTORE POP POP POP PUSH1 0x0 CALLER PUSH1 0x40 MLOAD PUSH3 0x1A9 SWAP1 PUSH3 0x57F JUMP JUMPDEST PUSH3 0x1B5 SWAP2 SWAP1 PUSH3 0x5EE JUMP JUMPDEST PUSH1 0x40 MLOAD DUP1 SWAP2 SUB SWAP1 PUSH1 0x0 CREATE DUP1 ISZERO DUP1 ISZERO PUSH3 0x1D2 JUMPI RETURNDATASIZE PUSH1 0x0 DUP1 RETURNDATACOPY RETURNDATASIZE PUSH1 0x0 REVERT JUMPDEST POP SWAP1 POP PUSH1 0x0 PUSH1 0x40 MLOAD PUSH3 0x1E5 SWAP1 PUSH3 0x666 JUMP JUMPDEST SWAP1 DUP2 MSTORE PUSH1 0x20 ADD PUSH1 0x40 MLOAD DUP1 SWAP2 SUB SWAP1 KECCAK256 PUSH1 0x40 MLOAD DUP1 PUSH1 0x40 ADD PUSH1 0x40 MSTORE DUP1 PUSH1 0x40 MLOAD DUP1 PUSH1 0x40 ADD PUSH1 0x40 MSTORE DUP1 PUSH1 0x12 DUP2 MSTORE PUSH1 0x20 ADD PUSH32 0x70617469656E745665726966696361746F720000000000000000000000000000 DUP2 MSTORE POP DUP2 MSTORE PUSH1 0x20 ADD DUP4 PUSH20 0xFFFFFFFFFFFFFFFFFFFFFFFFFFFFFFFFFFFFFFFF AND DUP2 MSTORE POP SWAP1 DUP1 PUSH1 0x1 DUP2 SLOAD ADD DUP1 DUP3 SSTORE DUP1 SWAP2 POP POP PUSH1 0x1 SWAP1 SUB SWAP1 PUSH1 0x0 MSTORE PUSH1 0x20 PUSH1 0x0 KECCAK256 SWAP1 PUSH1 0x2 MUL ADD PUSH1 0x0 SWAP1 SWAP2 SWAP1 SWAP2 SWAP1 SWAP2 POP PUSH1 0x0 DUP3 ADD MLOAD DUP2 PUSH1 0x0 ADD SWAP1 DUP2 PUSH3 0x293 SWAP2 SWAP1 PUSH3 0x8F7 JUMP JUMPDEST POP PUSH1 0x20 DUP3 ADD MLOAD DUP2 PUSH1 0x1 ADD PUSH1 0x0 PUSH2 0x100 EXP DUP2 SLOAD DUP2 PUSH20 0xFFFFFFFFFFFFFFFFFFFFFFFFFFFFFFFFFFFFFFFF MUL NOT AND SWAP1 DUP4 PUSH20 0xFFFFFFFFFFFFFFFFFFFFFFFFFFFFFFFFFFFFFFFF AND MUL OR SWAP1 SSTORE POP POP POP PUSH1 0x0 CALLER PUSH1 0x40 MLOAD PUSH3 0x2EE SWAP1 PUSH3 0x58D JUMP JUMPDEST PUSH3 0x2FA SWAP2 SWAP1 PUSH3 0x5EE JUMP JUMPDEST PUSH1 0x40 MLOAD DUP1 SWAP2 SUB SWAP1 PUSH1 0x0 CREATE DUP1 ISZERO DUP1 ISZERO PUSH3 0x317 JUMPI RETURNDATASIZE PUSH1 0x0 DUP1 RETURNDATACOPY RETURNDATASIZE PUSH1 0x0 REVERT JUMPDEST POP SWAP1 POP PUSH1 0x0 PUSH1 0x40 MLOAD PUSH3 0x32A SWAP1 PUSH3 0x666 JUMP JUMPDEST SWAP1 DUP2 MSTORE PUSH1 0x20 ADD PUSH1 0x40 MLOAD DUP1 SWAP2 SUB SWAP1 KECCAK256 PUSH1 0x40 MLOAD DUP1 PUSH1 0x40 ADD PUSH1 0x40 MSTORE DUP1 PUSH1 0x40 MLOAD DUP1 PUSH1 0x40 ADD PUSH1 0x40 MSTORE DUP1 PUSH1 0x11 DUP2 MSTORE PUSH1 0x20 ADD PUSH32 0x646F63746F725665726966696361746F72000000000000000000000000000000 DUP2 MSTORE POP DUP2 MSTORE PUSH1 0x20 ADD DUP4 PUSH20 0xFFFFFFFFFFFFFFFFFFFFFFFFFFFFFFFFFFFFFFFF AND DUP2 MSTORE POP SWAP1 DUP1 PUSH1 0x1 DUP2 SLOAD ADD DUP1 DUP3 SSTORE DUP1 SWAP2 POP POP PUSH1 0x1 SWAP1 SUB SWAP1 PUSH1 0x0 MSTORE PUSH1 0x20 PUSH1 0x0 KECCAK256 SWAP1 PUSH1 0x2 MUL ADD PUSH1 0x0 SWAP1 SWAP2 SWAP1 SWAP2 SWAP1 SWAP2 POP PUSH1 0x0 DUP3 ADD MLOAD DUP2 PUSH1 0x0 ADD SWAP1 DUP2 PUSH3 0x3D8 SWAP2 SWAP1 PUSH3 0x8F7 JUMP JUMPDEST POP PUSH1 0x20 DUP3 ADD MLOAD DUP2 PUSH1 0x1 ADD PUSH1 0x0 PUSH2 0x100 EXP DUP2 SLOAD DUP2 PUSH20 0xFFFFFFFFFFFFFFFFFFFFFFFFFFFFFFFFFFFFFFFF MUL NOT AND SWAP1 DUP4 PUSH20 0xFFFFFFFFFFFFFFFFFFFFFFFFFFFFFFFFFFFFFFFF AND MUL OR SWAP1 SSTORE POP POP POP PUSH1 0x0 CALLER PUSH1 0x40 MLOAD PUSH3 0x433 SWAP1 PUSH3 0x59B JUMP JUMPDEST PUSH3 0x43F SWAP2 SWAP1 PUSH3 0x5EE JUMP JUMPDEST PUSH1 0x40 MLOAD DUP1 SWAP2 SUB SWAP1 PUSH1 0x0 CREATE DUP1 ISZERO DUP1 ISZERO PUSH3 0x45C JUMPI RETURNDATASIZE PUSH1 0x0 DUP1 RETURNDATACOPY RETURNDATASIZE PUSH1 0x0 REVERT JUMPDEST POP SWAP1 POP PUSH1 0x0 PUSH1 0x40 MLOAD PUSH3 0x46F SWAP1 PUSH3 0x666 JUMP JUMPDEST SWAP1 DUP2 MSTORE PUSH1 0x20 ADD PUSH1 0x40 MLOAD DUP1 SWAP2 SUB SWAP1 KECCAK256 PUSH1 0x40 MLOAD DUP1 PUSH1 0x40 ADD PUSH1 0x40 MSTORE DUP1 PUSH1 0x40 MLOAD DUP1 PUSH1 0x40 ADD PUSH1 0x40 MSTORE DUP1 PUSH1 0xE DUP2 MSTORE PUSH1 0x20 ADD PUSH32 0x646F63746F7252656C6174696F6E000000000000000000000000000000000000 DUP2 MSTORE POP DUP2 MSTORE PUSH1 0x20 ADD DUP4 PUSH20 0xFFFFFFFFFFFFFFFFFFFFFFFFFFFFFFFFFFFFFFFF AND DUP2 MSTORE POP SWAP1 DUP1 PUSH1 0x1 DUP2 SLOAD ADD DUP1 DUP3 SSTORE DUP1 SWAP2 POP POP PUSH1 0x1 SWAP1 SUB SWAP1 PUSH1 0x0 MSTORE PUSH1 0x20 PUSH1 0x0 KECCAK256 SWAP1 PUSH1 0x2 MUL ADD PUSH1 0x0 SWAP1 SWAP2 SWAP1 SWAP2 SWAP1 SWAP2 POP PUSH1 0x0 DUP3 ADD MLOAD DUP2 PUSH1 0x0 ADD SWAP1 DUP2 PUSH3 0x51D SWAP2 SWAP1 PUSH3 0x8F7 JUMP JUMPDEST POP PUSH1 0x20 DUP3 ADD MLOAD DUP2 PUSH1 0x1 ADD PUSH1 0x0 PUSH2 0x100 EXP DUP2 SLOAD DUP2 PUSH20 0xFFFFFFFFFFFFFFFFFFFFFFFFFFFFFFFFFFFFFFFF MUL NOT AND SWAP1 DUP4 PUSH20 0xFFFFFFFFFFFFFFFFFFFFFFFFFFFFFFFFFFFFFFFF AND MUL OR SWAP1 SSTORE POP POP POP POP POP POP POP PUSH3 0x9DE JUMP JUMPDEST PUSH2 0x4BD3 DUP1 PUSH3 0x10F3 DUP4 CODECOPY ADD SWAP1 JUMP JUMPDEST PUSH2 0x605 DUP1 PUSH3 0x5CC6 DUP4 CODECOPY ADD SWAP1 JUMP JUMPDEST PUSH2 0x65D DUP1 PUSH3 0x62CB DUP4 CODECOPY ADD SWAP1 JUMP JUMPDEST PUSH2 0xF2F DUP1 PUSH3 0x6928 DUP4 CODECOPY ADD SWAP1 JUMP JUMPDEST PUSH1 0x0 PUSH20 0xFFFFFFFFFFFFFFFFFFFFFFFFFFFFFFFFFFFFFFFF DUP3 AND SWAP1 POP SWAP2 SWAP1 POP JUMP JUMPDEST PUSH1 0x0 PUSH3 0x5D6 DUP3 PUSH3 0x5A9 JUMP JUMPDEST SWAP1 POP SWAP2 SWAP1 POP JUMP JUMPDEST PUSH3 0x5E8 DUP2 PUSH3 0x5C9 JUMP JUMPDEST DUP3 MSTORE POP POP JUMP JUMPDEST PUSH1 0x0 PUSH1 0x20 DUP3 ADD SWAP1 POP PUSH3 0x605 PUSH1 0x0 DUP4 ADD DUP5 PUSH3 0x5DD JUMP JUMPDEST SWAP3 SWAP2 POP POP JUMP JUMPDEST PUSH1 0x0 DUP2 SWAP1 POP SWAP3 SWAP2 POP POP JUMP JUMPDEST PUSH32 0x7365637265740000000000000000000000000000000000000000000000000000 PUSH1 0x0 DUP3 ADD MSTORE POP JUMP JUMPDEST PUSH1 0x0 PUSH3 0x64E PUSH1 0x6 DUP4 PUSH3 0x60B JUMP JUMPDEST SWAP2 POP PUSH3 0x65B DUP3 PUSH3 0x616 JUMP JUMPDEST PUSH1 0x6 DUP3 ADD SWAP1 POP SWAP2 SWAP1 POP JUMP JUMPDEST PUSH1 0x0 PUSH3 0x673 DUP3 PUSH3 0x63F JUMP JUMPDEST SWAP2 POP DUP2 SWAP1 POP SWAP2 SWAP1 POP JUMP JUMPDEST PUSH1 0x0 DUP2 MLOAD SWAP1 POP SWAP2 SWAP1 POP JUMP JUMPDEST PUSH32 0x4E487B7100000000000000000000000000000000000000000000000000000000 PUSH1 0x0 MSTORE PUSH1 0x41 PUSH1 0x4 MSTORE PUSH1 0x24 PUSH1 0x0 REVERT JUMPDEST PUSH32 0x4E487B7100000000000000000000000000000000000000000000000000000000 PUSH1 0x0 MSTORE PUSH1 0x22 PUSH1 0x4 MSTORE PUSH1 0x24 PUSH1 0x0 REVERT JUMPDEST PUSH1 0x0 PUSH1 0x2 DUP3 DIV SWAP1 POP PUSH1 0x1 DUP3 AND DUP1 PUSH3 0x6FF JUMPI PUSH1 0x7F DUP3 AND SWAP2 POP JUMPDEST PUSH1 0x20 DUP3 LT DUP2 SUB PUSH3 0x715 JUMPI PUSH3 0x714 PUSH3 0x6B7 JUMP JUMPDEST JUMPDEST POP SWAP2 SWAP1 POP JUMP JUMPDEST PUSH1 0x0 DUP2 SWAP1 POP DUP2 PUSH1 0x0 MSTORE PUSH1 0x20 PUSH1 0x0 KECCAK256 SWAP1 POP SWAP2 SWAP1 POP JUMP JUMPDEST PUSH1 0x0 PUSH1 0x20 PUSH1 0x1F DUP4 ADD DIV SWAP1 POP SWAP2 SWAP1 POP JUMP JUMPDEST PUSH1 0x0 DUP3 DUP3 SHL SWAP1 POP SWAP3 SWAP2 POP POP JUMP JUMPDEST PUSH1 0x0 PUSH1 0x8 DUP4 MUL PUSH3 0x77F PUSH32 0xFFFFFFFFFFFFFFFFFFFFFFFFFFFFFFFFFFFFFFFFFFFFFFFFFFFFFFFFFFFFFFFF DUP3 PUSH3 0x740 JUMP JUMPDEST PUSH3 0x78B DUP7 DUP4 PUSH3 0x740 JUMP JUMPDEST SWAP6 POP DUP1 NOT DUP5 AND SWAP4 POP DUP1 DUP7 AND DUP5 OR SWAP3 POP POP POP SWAP4 SWAP3 POP POP POP JUMP JUMPDEST PUSH1 0x0 DUP2 SWAP1 POP SWAP2 SWAP1 POP JUMP JUMPDEST PUSH1 0x0 DUP2 SWAP1 POP SWAP2 SWAP1 POP JUMP JUMPDEST PUSH1 0x0 PUSH3 0x7D8 PUSH3 0x7D2 PUSH3 0x7CC DUP5 PUSH3 0x7A3 JUMP JUMPDEST PUSH3 0x7AD JUMP JUMPDEST PUSH3 0x7A3 JUMP JUMPDEST SWAP1 POP SWAP2 SWAP1 POP JUMP JUMPDEST PUSH1 0x0 DUP2 SWAP1 POP SWAP2 SWAP1 POP JUMP JUMPDEST PUSH3 0x7F4 DUP4 PUSH3 0x7B7 JUMP JUMPDEST PUSH3 0x80C PUSH3 0x803 DUP3 PUSH3 0x7DF JUMP JUMPDEST DUP5 DUP5 SLOAD PUSH3 0x74D JUMP JUMPDEST DUP3 SSTORE POP POP POP POP JUMP JUMPDEST PUSH1 0x0 SWAP1 JUMP JUMPDEST PUSH3 0x823 PUSH3 0x814 JUMP JUMPDEST PUSH3 0x830 DUP2 DUP5 DUP5 PUSH3 0x7E9 JUMP JUMPDEST POP POP POP JUMP JUMPDEST JUMPDEST DUP2 DUP2 LT ISZERO PUSH3 0x858 JUMPI PUSH3 0x84C PUSH1 0x0 DUP3 PUSH3 0x819 JUMP JUMPDEST PUSH1 0x1 DUP2 ADD SWAP1 POP PUSH3 0x836 JUMP JUMPDEST POP POP JUMP JUMPDEST PUSH1 0x1F DUP3 GT ISZERO PUSH3 0x8A7 JUMPI PUSH3 0x871 DUP2 PUSH3 0x71B JUMP JUMPDEST PUSH3 0x87C DUP5 PUSH3 0x730 JUMP JUMPDEST DUP2 ADD PUSH1 0x20 DUP6 LT ISZERO PUSH3 0x88C JUMPI DUP2 SWAP1 POP JUMPDEST PUSH3 0x8A4 PUSH3 0x89B DUP6 PUSH3 0x730 JUMP JUMPDEST DUP4 ADD DUP3 PUSH3 0x835 JUMP JUMPDEST POP POP JUMPDEST POP POP POP JUMP JUMPDEST PUSH1 0x0 DUP3 DUP3 SHR SWAP1 POP SWAP3 SWAP2 POP POP JUMP JUMPDEST PUSH1 0x0 PUSH3 0x8CC PUSH1 0x0 NOT DUP5 PUSH1 0x8 MUL PUSH3 0x8AC JUMP JUMPDEST NOT DUP1 DUP4 AND SWAP2 POP POP SWAP3 SWAP2 POP POP JUMP JUMPDEST PUSH1 0x0 PUSH3 0x8E7 DUP4 DUP4 PUSH3 0x8B9 JUMP JUMPDEST SWAP2 POP DUP3 PUSH1 0x2 MUL DUP3 OR SWAP1 POP SWAP3 SWAP2 POP POP JUMP JUMPDEST PUSH3 0x902 DUP3 PUSH3 0x67D JUMP JUMPDEST PUSH8 0xFFFFFFFFFFFFFFFF DUP2 GT ISZERO PUSH3 0x91E JUMPI PUSH3 0x91D PUSH3 0x688 JUMP JUMPDEST JUMPDEST PUSH3 0x92A DUP3 SLOAD PUSH3 0x6E6 JUMP JUMPDEST PUSH3 0x937 DUP3 DUP3 DUP6 PUSH3 0x85C JUMP JUMPDEST PUSH1 0x0 PUSH1 0x20 SWAP1 POP PUSH1 0x1F DUP4 GT PUSH1 0x1 DUP2 EQ PUSH3 0x96F JUMPI PUSH1 0x0 DUP5 ISZERO PUSH3 0x95A JUMPI DUP3 DUP8 ADD MLOAD SWAP1 POP JUMPDEST PUSH3 0x966 DUP6 DUP3 PUSH3 0x8D9 JUMP JUMPDEST DUP7 SSTORE POP PUSH3 0x9D6 JUMP JUMPDEST PUSH1 0x1F NOT DUP5 AND PUSH3 0x97F DUP7 PUSH3 0x71B JUMP JUMPDEST PUSH1 0x0 JUMPDEST DUP3 DUP2 LT ISZERO PUSH3 0x9A9 JUMPI DUP5 DUP10 ADD MLOAD DUP3 SSTORE PUSH1 0x1 DUP3 ADD SWAP2 POP PUSH1 0x20 DUP6 ADD SWAP5 POP PUSH1 0x20 DUP2 ADD SWAP1 POP PUSH3 0x982 JUMP JUMPDEST DUP7 DUP4 LT ISZERO PUSH3 0x9C9 JUMPI DUP5 DUP10 ADD MLOAD PUSH3 0x9C5 PUSH1 0x1F DUP10 AND DUP3 PUSH3 0x8B9 JUMP JUMPDEST DUP4 SSTORE POP JUMPDEST PUSH1 0x1 PUSH1 0x2 DUP9 MUL ADD DUP9 SSTORE POP POP POP JUMPDEST POP POP POP POP POP POP JUMP JUMPDEST PUSH2 0x705 DUP1 PUSH3 0x9EE PUSH1 0x0 CODECOPY PUSH1 0x0 RETURN INVALID PUSH1 0x80 PUSH1 0x40 MSTORE CALLVALUE DUP1 ISZERO PUSH2 0x10 JUMPI PUSH1 0x0 DUP1 REVERT JUMPDEST POP PUSH1 0x4 CALLDATASIZE LT PUSH2 0x36 JUMPI PUSH1 0x0 CALLDATALOAD PUSH1 0xE0 SHR DUP1 PUSH4 0xC4FE354C EQ PUSH2 0x3B JUMPI DUP1 PUSH4 0xF851A440 EQ PUSH2 0x6B JUMPI JUMPDEST PUSH1 0x0 DUP1 REVERT JUMPDEST PUSH2 0x55 PUSH1 0x4 DUP1 CALLDATASIZE SUB DUP2 ADD SWAP1 PUSH2 0x50 SWAP2 SWAP1 PUSH2 0x3C8 JUMP JUMPDEST PUSH2 0x89 JUMP JUMPDEST PUSH1 0x40 MLOAD PUSH2 0x62 SWAP2 SWAP1 PUSH2 0x5D0 JUMP JUMPDEST PUSH1 0x40 MLOAD DUP1 SWAP2 SUB SWAP1 RETURN JUMPDEST PUSH2 0x73 PUSH2 0x248 JUMP JUMPDEST PUSH1 0x40 MLOAD PUSH2 0x80 SWAP2 SWAP1 PUSH2 0x601 JUMP JUMPDEST PUSH1 0x40 MLOAD DUP1 SWAP2 SUB SWAP1 RETURN JUMPDEST PUSH1 0x60 PUSH1 0x1 PUSH1 0x0 SWAP1 SLOAD SWAP1 PUSH2 0x100 EXP SWAP1 DIV PUSH20 0xFFFFFFFFFFFFFFFFFFFFFFFFFFFFFFFFFFFFFFFF AND PUSH20 0xFFFFFFFFFFFFFFFFFFFFFFFFFFFFFFFFFFFFFFFF AND CALLER PUSH20 0xFFFFFFFFFFFFFFFFFFFFFFFFFFFFFFFFFFFFFFFF AND EQ PUSH2 0xE5 JUMPI PUSH1 0x0 DUP1 REVERT JUMPDEST PUSH1 0x0 DUP3 PUSH1 0x40 MLOAD PUSH2 0xF5 SWAP2 SWAP1 PUSH2 0x658 JUMP JUMPDEST SWAP1 DUP2 MSTORE PUSH1 0x20 ADD PUSH1 0x40 MLOAD DUP1 SWAP2 SUB SWAP1 KECCAK256 DUP1 SLOAD DUP1 PUSH1 0x20 MUL PUSH1 0x20 ADD PUSH1 0x40 MLOAD SWAP1 DUP2 ADD PUSH1 0x40 MSTORE DUP1 SWAP3 SWAP2 SWAP1 DUP2 DUP2 MSTORE PUSH1 0x20 ADD PUSH1 0x0 SWAP1 JUMPDEST DUP3 DUP3 LT ISZERO PUSH2 0x23D JUMPI DUP4 DUP3 SWAP1 PUSH1 0x0 MSTORE PUSH1 0x20 PUSH1 0x0 KECCAK256 SWAP1 PUSH1 0x2 MUL ADD PUSH1 0x40 MLOAD DUP1 PUSH1 0x40 ADD PUSH1 0x40 MSTORE SWAP1 DUP2 PUSH1 0x0 DUP3 ADD DUP1 SLOAD PUSH2 0x156 SWAP1 PUSH2 0x69E JUMP JUMPDEST DUP1 PUSH1 0x1F ADD PUSH1 0x20 DUP1 SWAP2 DIV MUL PUSH1 0x20 ADD PUSH1 0x40 MLOAD SWAP1 DUP2 ADD PUSH1 0x40 MSTORE DUP1 SWAP3 SWAP2 SWAP1 DUP2 DUP2 MSTORE PUSH1 0x20 ADD DUP3 DUP1 SLOAD PUSH2 0x182 SWAP1 PUSH2 0x69E JUMP JUMPDEST DUP1 ISZERO PUSH2 0x1CF JUMPI DUP1 PUSH1 0x1F LT PUSH2 0x1A4 JUMPI PUSH2 0x100 DUP1 DUP4 SLOAD DIV MUL DUP4 MSTORE SWAP2 PUSH1 0x20 ADD SWAP2 PUSH2 0x1CF JUMP JUMPDEST DUP3 ADD SWAP2 SWAP1 PUSH1 0x0 MSTORE PUSH1 0x20 PUSH1 0x0 KECCAK256 SWAP1 JUMPDEST DUP2 SLOAD DUP2 MSTORE SWAP1 PUSH1 0x1 ADD SWAP1 PUSH1 0x20 ADD DUP1 DUP4 GT PUSH2 0x1B2 JUMPI DUP3 SWAP1 SUB PUSH1 0x1F AND DUP3 ADD SWAP2 JUMPDEST POP POP POP POP POP DUP2 MSTORE PUSH1 0x20 ADD PUSH1 0x1 DUP3 ADD PUSH1 0x0 SWAP1 SLOAD SWAP1 PUSH2 0x100 EXP SWAP1 DIV PUSH20 0xFFFFFFFFFFFFFFFFFFFFFFFFFFFFFFFFFFFFFFFF AND PUSH20 0xFFFFFFFFFFFFFFFFFFFFFFFFFFFFFFFFFFFFFFFF AND PUSH20 0xFFFFFFFFFFFFFFFFFFFFFFFFFFFFFFFFFFFFFFFF AND DUP2 MSTORE POP POP DUP2 MSTORE PUSH1 0x20 ADD SWAP1 PUSH1 0x1 ADD SWAP1 PUSH2 0x123 JUMP JUMPDEST POP POP POP POP SWAP1 POP SWAP2 SWAP1 POP JUMP JUMPDEST PUSH1 0x1 PUSH1 0x0 SWAP1 SLOAD SWAP1 PUSH2 0x100 EXP SWAP1 DIV PUSH20 0xFFFFFFFFFFFFFFFFFFFFFFFFFFFFFFFFFFFFFFFF AND DUP2 JUMP JUMPDEST PUSH1 0x0 PUSH1 0x40 MLOAD SWAP1 POP SWAP1 JUMP JUMPDEST PUSH1 0x0 DUP1 REVERT JUMPDEST PUSH1 0x0 DUP1 REVERT JUMPDEST PUSH1 0x0 DUP1 REVERT JUMPDEST PUSH1 0x0 DUP1 REVERT JUMPDEST PUSH1 0x0 PUSH1 0x1F NOT PUSH1 0x1F DUP4 ADD AND SWAP1 POP SWAP2 SWAP1 POP JUMP JUMPDEST PUSH32 0x4E487B7100000000000000000000000000000000000000000000000000000000 PUSH1 0x0 MSTORE PUSH1 0x41 PUSH1 0x4 MSTORE PUSH1 0x24 PUSH1 0x0 REVERT JUMPDEST PUSH2 0x2D5 DUP3 PUSH2 0x28C JUMP JUMPDEST DUP2 ADD DUP2 DUP2 LT PUSH8 0xFFFFFFFFFFFFFFFF DUP3 GT OR ISZERO PUSH2 0x2F4 JUMPI PUSH2 0x2F3 PUSH2 0x29D JUMP JUMPDEST JUMPDEST DUP1 PUSH1 0x40 MSTORE POP POP POP JUMP JUMPDEST PUSH1 0x0 PUSH2 0x307 PUSH2 0x26E JUMP JUMPDEST SWAP1 POP PUSH2 0x313 DUP3 DUP3 PUSH2 0x2CC JUMP JUMPDEST SWAP2 SWAP1 POP JUMP JUMPDEST PUSH1 0x0 PUSH8 0xFFFFFFFFFFFFFFFF DUP3 GT ISZERO PUSH2 0x333 JUMPI PUSH2 0x332 PUSH2 0x29D JUMP JUMPDEST JUMPDEST PUSH2 0x33C DUP3 PUSH2 0x28C JUMP JUMPDEST SWAP1 POP PUSH1 0x20 DUP2 ADD SWAP1 POP SWAP2 SWAP1 POP JUMP JUMPDEST DUP3 DUP2 DUP4 CALLDATACOPY PUSH1 0x0 DUP4 DUP4 ADD MSTORE POP POP POP JUMP JUMPDEST PUSH1 0x0 PUSH2 0x36B PUSH2 0x366 DUP5 PUSH2 0x318 JUMP JUMPDEST PUSH2 0x2FD JUMP JUMPDEST SWAP1 POP DUP3 DUP2 MSTORE PUSH1 0x20 DUP2 ADD DUP5 DUP5 DUP5 ADD GT ISZERO PUSH2 0x387 JUMPI PUSH2 0x386 PUSH2 0x287 JUMP JUMPDEST JUMPDEST PUSH2 0x392 DUP5 DUP3 DUP6 PUSH2 0x349 JUMP JUMPDEST POP SWAP4 SWAP3 POP POP POP JUMP JUMPDEST PUSH1 0x0 DUP3 PUSH1 0x1F DUP4 ADD SLT PUSH2 0x3AF JUMPI PUSH2 0x3AE PUSH2 0x282 JUMP JUMPDEST JUMPDEST DUP2 CALLDATALOAD PUSH2 0x3BF DUP5 DUP3 PUSH1 0x20 DUP7 ADD PUSH2 0x358 JUMP JUMPDEST SWAP2 POP POP SWAP3 SWAP2 POP POP JUMP JUMPDEST PUSH1 0x0 PUSH1 0x20 DUP3 DUP5 SUB SLT ISZERO PUSH2 0x3DE JUMPI PUSH2 0x3DD PUSH2 0x278 JUMP JUMPDEST JUMPDEST PUSH1 0x0 DUP3 ADD CALLDATALOAD PUSH8 0xFFFFFFFFFFFFFFFF DUP2 GT ISZERO PUSH2 0x3FC JUMPI PUSH2 0x3FB PUSH2 0x27D JUMP JUMPDEST JUMPDEST PUSH2 0x408 DUP5 DUP3 DUP6 ADD PUSH2 0x39A JUMP JUMPDEST SWAP2 POP POP SWAP3 SWAP2 POP POP JUMP JUMPDEST PUSH1 0x0 DUP2 MLOAD SWAP1 POP SWAP2 SWAP1 POP JUMP JUMPDEST PUSH1 0x0 DUP3 DUP3 MSTORE PUSH1 0x20 DUP3 ADD SWAP1 POP SWAP3 SWAP2 POP POP JUMP JUMPDEST PUSH1 0x0 DUP2 SWAP1 POP PUSH1 0x20 DUP3 ADD SWAP1 POP SWAP2 SWAP1 POP JUMP JUMPDEST PUSH1 0x0 DUP2 MLOAD SWAP1 POP SWAP2 SWAP1 POP JUMP JUMPDEST PUSH1 0x0 DUP3 DUP3 MSTORE PUSH1 0x20 DUP3 ADD SWAP1 POP SWAP3 SWAP2 POP POP JUMP JUMPDEST PUSH1 0x0 JUMPDEST DUP4 DUP2 LT ISZERO PUSH2 0x477 JUMPI DUP1 DUP3 ADD MLOAD DUP2 DUP5 ADD MSTORE PUSH1 0x20 DUP2 ADD SWAP1 POP PUSH2 0x45C JUMP JUMPDEST PUSH1 0x0 DUP5 DUP5 ADD MSTORE POP POP POP POP JUMP JUMPDEST PUSH1 0x0 PUSH2 0x48E DUP3 PUSH2 0x43D JUMP JUMPDEST PUSH2 0x498 DUP2 DUP6 PUSH2 0x448 JUMP JUMPDEST SWAP4 POP PUSH2 0x4A8 DUP2 DUP6 PUSH1 0x20 DUP7 ADD PUSH2 0x459 JUMP JUMPDEST PUSH2 0x4B1 DUP2 PUSH2 0x28C JUMP JUMPDEST DUP5 ADD SWAP2 POP POP SWAP3 SWAP2 POP POP JUMP JUMPDEST PUSH1 0x0 PUSH20 0xFFFFFFFFFFFFFFFFFFFFFFFFFFFFFFFFFFFFFFFF DUP3 AND SWAP1 POP SWAP2 SWAP1 POP JUMP JUMPDEST PUSH1 0x0 PUSH2 0x4E7 DUP3 PUSH2 0x4BC JUMP JUMPDEST SWAP1 POP SWAP2 SWAP1 POP JUMP JUMPDEST PUSH2 0x4F7 DUP2 PUSH2 0x4DC JUMP JUMPDEST DUP3 MSTORE POP POP JUMP JUMPDEST PUSH1 0x0 PUSH1 0x40 DUP4 ADD PUSH1 0x0 DUP4 ADD MLOAD DUP5 DUP3 SUB PUSH1 0x0 DUP7 ADD MSTORE PUSH2 0x51A DUP3 DUP3 PUSH2 0x483 JUMP JUMPDEST SWAP2 POP POP PUSH1 0x20 DUP4 ADD MLOAD PUSH2 0x52F PUSH1 0x20 DUP7 ADD DUP3 PUSH2 0x4EE JUMP JUMPDEST POP DUP1 SWAP2 POP POP SWAP3 SWAP2 POP POP JUMP JUMPDEST PUSH1 0x0 PUSH2 0x546 DUP4 DUP4 PUSH2 0x4FD JUMP JUMPDEST SWAP1 POP SWAP3 SWAP2 POP POP JUMP JUMPDEST PUSH1 0x0 PUSH1 0x20 DUP3 ADD SWAP1 POP SWAP2 SWAP1 POP JUMP JUMPDEST PUSH1 0x0 PUSH2 0x566 DUP3 PUSH2 0x411 JUMP JUMPDEST PUSH2 0x570 DUP2 DUP6 PUSH2 0x41C JUMP JUMPDEST SWAP4 POP DUP4 PUSH1 0x20 DUP3 MUL DUP6 ADD PUSH2 0x582 DUP6 PUSH2 0x42D JUMP JUMPDEST DUP1 PUSH1 0x0 JUMPDEST DUP6 DUP2 LT ISZERO PUSH2 0x5BE JUMPI DUP5 DUP5 SUB DUP10 MSTORE DUP2 MLOAD PUSH2 0x59F DUP6 DUP3 PUSH2 0x53A JUMP JUMPDEST SWAP5 POP PUSH2 0x5AA DUP4 PUSH2 0x54E JUMP JUMPDEST SWAP3 POP PUSH1 0x20 DUP11 ADD SWAP10 POP POP PUSH1 0x1 DUP2 ADD SWAP1 POP PUSH2 0x586 JUMP JUMPDEST POP DUP3 SWAP8 POP DUP8 SWAP6 POP POP POP POP POP POP SWAP3 SWAP2 POP POP JUMP JUMPDEST PUSH1 0x0 PUSH1 0x20 DUP3 ADD SWAP1 POP DUP2 DUP2 SUB PUSH1 0x0 DUP4 ADD MSTORE PUSH2 0x5EA DUP2 DUP5 PUSH2 0x55B JUMP JUMPDEST SWAP1 POP SWAP3 SWAP2 POP POP JUMP JUMPDEST PUSH2 0x5FB DUP2 PUSH2 0x4DC JUMP JUMPDEST DUP3 MSTORE POP POP JUMP JUMPDEST PUSH1 0x0 PUSH1 0x20 DUP3 ADD SWAP1 POP PUSH2 0x616 PUSH1 0x0 DUP4 ADD DUP5 PUSH2 0x5F2 JUMP JUMPDEST SWAP3 SWAP2 POP POP JUMP JUMPDEST PUSH1 0x0 DUP2 SWAP1 POP SWAP3 SWAP2 POP POP JUMP JUMPDEST PUSH1 0x0 PUSH2 0x632 DUP3 PUSH2 0x43D JUMP JUMPDEST PUSH2 0x63C DUP2 DUP6 PUSH2 0x61C JUMP JUMPDEST SWAP4 POP PUSH2 0x64C DUP2 DUP6 PUSH1 0x20 DUP7 ADD PUSH2 0x459 JUMP JUMPDEST DUP1 DUP5 ADD SWAP2 POP POP SWAP3 SWAP2 POP POP JUMP JUMPDEST PUSH1 0x0 PUSH2 0x664 DUP3 DUP5 PUSH2 0x627 JUMP JUMPDEST SWAP2 POP DUP2 SWAP1 POP SWAP3 SWAP2 POP POP JUMP JUMPDEST PUSH32 0x4E487B7100000000000000000000000000000000000000000000000000000000 PUSH1 0x0 MSTORE PUSH1 0x22 PUSH1 0x4 MSTORE PUSH1 0x24 PUSH1 0x0 REVERT JUMPDEST PUSH1 0x0 PUSH1 0x2 DUP3 DIV SWAP1 POP PUSH1 0x1 DUP3 AND DUP1 PUSH2 0x6B6 JUMPI PUSH1 0x7F DUP3 AND SWAP2 POP JUMPDEST PUSH1 0x20 DUP3 LT DUP2 SUB PUSH2 0x6C9 JUMPI PUSH2 0x6C8 PUSH2 0x66F JUMP JUMPDEST JUMPDEST POP SWAP2 SWAP1 POP JUMP INVALID LOG2 PUSH5 0x6970667358 0x22 SLT KECCAK256 SWAP1 CALL 0xC6 INVALID PUSH5 0x8EB049FF0D ADDMOD 0xC3 ADDMOD PUSH6 0x7FEFAA55A758 PUSH1 0x83 0x4B 0xB0 0xE LOG1 PUSH16 0xAA0DA2A84364736F6C63430008110033 PUSH1 0x80 PUSH1 0x40 MSTORE CALLVALUE DUP1 ISZERO PUSH3 0x11 JUMPI PUSH1 0x0 DUP1 REVERT JUMPDEST POP PUSH1 0x40 MLOAD PUSH3 0x4BD3 CODESIZE SUB DUP1 PUSH3 0x4BD3 DUP4 CODECOPY DUP2 DUP2 ADD PUSH1 0x40 MSTORE DUP2 ADD SWAP1 PUSH3 0x37 SWAP2 SWAP1 PUSH3 0xE9 JUMP JUMPDEST DUP1 PUSH1 0x5 PUSH1 0x0 PUSH2 0x100 EXP DUP2 SLOAD DUP2 PUSH20 0xFFFFFFFFFFFFFFFFFFFFFFFFFFFFFFFFFFFFFFFF MUL NOT AND SWAP1 DUP4 PUSH20 0xFFFFFFFFFFFFFFFFFFFFFFFFFFFFFFFFFFFFFFFF AND MUL OR SWAP1 SSTORE POP POP PUSH3 0x11B JUMP JUMPDEST PUSH1 0x0 DUP1 REVERT JUMPDEST PUSH1 0x0 PUSH20 0xFFFFFFFFFFFFFFFFFFFFFFFFFFFFFFFFFFFFFFFF DUP3 AND SWAP1 POP SWAP2 SWAP1 POP JUMP JUMPDEST PUSH1 0x0 PUSH3 0xB1 DUP3 PUSH3 0x84 JUMP JUMPDEST SWAP1 POP SWAP2 SWAP1 POP JUMP JUMPDEST PUSH3 0xC3 DUP2 PUSH3 0xA4 JUMP JUMPDEST DUP2 EQ PUSH3 0xCF JUMPI PUSH1 0x0 DUP1 REVERT JUMPDEST POP JUMP JUMPDEST PUSH1 0x0 DUP2 MLOAD SWAP1 POP PUSH3 0xE3 DUP2 PUSH3 0xB8 JUMP JUMPDEST SWAP3 SWAP2 POP POP JUMP JUMPDEST PUSH1 0x0 PUSH1 0x20 DUP3 DUP5 SUB SLT ISZERO PUSH3 0x102 JUMPI PUSH3 0x101 PUSH3 0x7F JUMP JUMPDEST JUMPDEST PUSH1 0x0 PUSH3 0x112 DUP5 DUP3 DUP6 ADD PUSH3 0xD2 JUMP JUMPDEST SWAP2 POP POP SWAP3 SWAP2 POP POP JUMP JUMPDEST PUSH2 0x4AA8 DUP1 PUSH3 0x12B PUSH1 0x0 CODECOPY PUSH1 0x0 RETURN INVALID PUSH1 0x80 PUSH1 0x40 MSTORE CALLVALUE DUP1 ISZERO PUSH2 0x10 JUMPI PUSH1 0x0 DUP1 REVERT JUMPDEST POP PUSH1 0x4 CALLDATASIZE LT PUSH2 0x93 JUMPI PUSH1 0x0 CALLDATALOAD PUSH1 0xE0 SHR DUP1 PUSH4 0x7621DF6F GT PUSH2 0x66 JUMPI DUP1 PUSH4 0x7621DF6F EQ PUSH2 0x108 JUMPI DUP1 PUSH4 0x9CBC4DBA EQ PUSH2 0x124 JUMPI DUP1 PUSH4 0xB2C24A34 EQ PUSH2 0x140 JUMPI DUP1 PUSH4 0xEB7353D1 EQ PUSH2 0x171 JUMPI DUP1 PUSH4 0xF539FE6C EQ PUSH2 0x1A2 JUMPI PUSH2 0x93 JUMP JUMPDEST DUP1 PUSH4 0x1107747E EQ PUSH2 0x98 JUMPI DUP1 PUSH4 0x1FEB7146 EQ PUSH2 0xB4 JUMPI DUP1 PUSH4 0x4DA7580F EQ PUSH2 0xD0 JUMPI DUP1 PUSH4 0x5DB185C7 EQ PUSH2 0xEC JUMPI JUMPDEST PUSH1 0x0 DUP1 REVERT JUMPDEST PUSH2 0xB2 PUSH1 0x4 DUP1 CALLDATASIZE SUB DUP2 ADD SWAP1 PUSH2 0xAD SWAP2 SWAP1 PUSH2 0x32AC JUMP JUMPDEST PUSH2 0x1D3 JUMP JUMPDEST STOP JUMPDEST PUSH2 0xCE PUSH1 0x4 DUP1 CALLDATASIZE SUB DUP2 ADD SWAP1 PUSH2 0xC9 SWAP2 SWAP1 PUSH2 0x37B3 JUMP JUMPDEST PUSH2 0x217 JUMP JUMPDEST STOP JUMPDEST PUSH2 0xEA PUSH1 0x4 DUP1 CALLDATASIZE SUB DUP2 ADD SWAP1 PUSH2 0xE5 SWAP2 SWAP1 PUSH2 0x3B19 JUMP JUMPDEST PUSH2 0x76F JUMP JUMPDEST STOP JUMPDEST PUSH2 0x106 PUSH1 0x4 DUP1 CALLDATASIZE SUB DUP2 ADD SWAP1 PUSH2 0x101 SWAP2 SWAP1 PUSH2 0x32AC JUMP JUMPDEST PUSH2 0xCE8 JUMP JUMPDEST STOP JUMPDEST PUSH2 0x122 PUSH1 0x4 DUP1 CALLDATASIZE SUB DUP2 ADD SWAP1 PUSH2 0x11D SWAP2 SWAP1 PUSH2 0x32AC JUMP JUMPDEST PUSH2 0xD2C JUMP JUMPDEST STOP JUMPDEST PUSH2 0x13E PUSH1 0x4 DUP1 CALLDATASIZE SUB DUP2 ADD SWAP1 PUSH2 0x139 SWAP2 SWAP1 PUSH2 0x3E13 JUMP JUMPDEST PUSH2 0xD70 JUMP JUMPDEST STOP JUMPDEST PUSH2 0x15A PUSH1 0x4 DUP1 CALLDATASIZE SUB DUP2 ADD SWAP1 PUSH2 0x155 SWAP2 SWAP1 PUSH2 0x32AC JUMP JUMPDEST PUSH2 0x13E1 JUMP JUMPDEST PUSH1 0x40 MLOAD PUSH2 0x168 SWAP3 SWAP2 SWAP1 PUSH2 0x4188 JUMP JUMPDEST PUSH1 0x40 MLOAD DUP1 SWAP2 SUB SWAP1 RETURN JUMPDEST PUSH2 0x18B PUSH1 0x4 DUP1 CALLDATASIZE SUB DUP2 ADD SWAP1 PUSH2 0x186 SWAP2 SWAP1 PUSH2 0x32AC JUMP JUMPDEST PUSH2 0x1BF0 JUMP JUMPDEST PUSH1 0x40 MLOAD PUSH2 0x199 SWAP3 SWAP2 SWAP1 PUSH2 0x43E7 JUMP JUMPDEST PUSH1 0x40 MLOAD DUP1 SWAP2 SUB SWAP1 RETURN JUMPDEST PUSH2 0x1BC PUSH1 0x4 DUP1 CALLDATASIZE SUB DUP2 ADD SWAP1 PUSH2 0x1B7 SWAP2 SWAP1 PUSH2 0x32AC JUMP JUMPDEST PUSH2 0x262C JUMP JUMPDEST PUSH1 0x40 MLOAD PUSH2 0x1CA SWAP3 SWAP2 SWAP1 PUSH2 0x4654 JUMP JUMPDEST PUSH1 0x40 MLOAD DUP1 SWAP2 SUB SWAP1 RETURN JUMPDEST DUP1 PUSH1 0x6 PUSH1 0x0 PUSH2 0x100 EXP DUP2 SLOAD DUP2 PUSH20 0xFFFFFFFFFFFFFFFFFFFFFFFFFFFFFFFFFFFFFFFF MUL NOT AND SWAP1 DUP4 PUSH20 0xFFFFFFFFFFFFFFFFFFFFFFFFFFFFFFFFFFFFFFFF AND MUL OR SWAP1 SSTORE POP POP JUMP JUMPDEST PUSH1 0x6 PUSH1 0x0 SWAP1 SLOAD SWAP1 PUSH2 0x100 EXP SWAP1 DIV PUSH20 0xFFFFFFFFFFFFFFFFFFFFFFFFFFFFFFFFFFFFFFFF AND PUSH20 0xFFFFFFFFFFFFFFFFFFFFFFFFFFFFFFFFFFFFFFFF AND PUSH4 0x63A9C3D7 CALLER PUSH1 0x40 MLOAD DUP3 PUSH4 0xFFFFFFFF AND PUSH1 0xE0 SHL DUP2 MSTORE PUSH1 0x4 ADD PUSH2 0x272 SWAP2 SWAP1 PUSH2 0x469A JUMP JUMPDEST PUSH1 0x20 PUSH1 0x40 MLOAD DUP1 DUP4 SUB DUP2 DUP7 GAS STATICCALL ISZERO DUP1 ISZERO PUSH2 0x28F JUMPI RETURNDATASIZE PUSH1 0x0 DUP1 RETURNDATACOPY RETURNDATASIZE PUSH1 0x0 REVERT JUMPDEST POP POP POP POP PUSH1 0x40 MLOAD RETURNDATASIZE PUSH1 0x1F NOT PUSH1 0x1F DUP3 ADD AND DUP3 ADD DUP1 PUSH1 0x40 MSTORE POP DUP2 ADD SWAP1 PUSH2 0x2B3 SWAP2 SWAP1 PUSH2 0x46CA JUMP JUMPDEST PUSH2 0x2BC JUMPI PUSH1 0x0 DUP1 REVERT JUMPDEST PUSH2 0x2C4 PUSH2 0x3047 JUMP JUMPDEST DUP3 PUSH1 0x0 ADD MLOAD DUP2 PUSH1 0x0 ADD DUP2 SWAP1 MSTORE POP DUP3 PUSH1 0x20 ADD MLOAD DUP2 PUSH1 0x20 ADD DUP2 SWAP1 MSTORE POP DUP3 PUSH1 0x40 ADD MLOAD DUP2 PUSH1 0x40 ADD DUP2 DUP2 MSTORE POP POP DUP3 PUSH1 0x60 ADD MLOAD DUP2 PUSH1 0x60 ADD DUP2 SWAP1 MSTORE POP DUP1 PUSH1 0x1 PUSH1 0x0 DUP5 PUSH1 0x0 ADD MLOAD PUSH20 0xFFFFFFFFFFFFFFFFFFFFFFFFFFFFFFFFFFFFFFFF AND PUSH20 0xFFFFFFFFFFFFFFFFFFFFFFFFFFFFFFFFFFFFFFFF AND DUP2 MSTORE PUSH1 0x20 ADD SWAP1 DUP2 MSTORE PUSH1 0x20 ADD PUSH1 0x0 KECCAK256 PUSH1 0x0 DUP3 ADD MLOAD DUP2 PUSH1 0x0 ADD SWAP1 DUP2 PUSH2 0x352 SWAP2 SWAP1 PUSH2 0x4903 JUMP JUMPDEST POP PUSH1 0x20 DUP3 ADD MLOAD DUP2 PUSH1 0x1 ADD SWAP1 DUP2 PUSH2 0x368 SWAP2 SWAP1 PUSH2 0x4903 JUMP JUMPDEST POP PUSH1 0x40 DUP3 ADD MLOAD DUP2 PUSH1 0x2 ADD SSTORE PUSH1 0x60 DUP3 ADD MLOAD DUP2 PUSH1 0x3 ADD SWAP1 DUP2 PUSH2 0x388 SWAP2 SWAP1 PUSH2 0x4903 JUMP JUMPDEST POP SWAP1 POP POP PUSH2 0x394 PUSH2 0x306F JUMP JUMPDEST DUP3 PUSH1 0x0 ADD MLOAD DUP2 PUSH1 0x0 ADD SWAP1 PUSH20 0xFFFFFFFFFFFFFFFFFFFFFFFFFFFFFFFFFFFFFFFF AND SWAP1 DUP2 PUSH20 0xFFFFFFFFFFFFFFFFFFFFFFFFFFFFFFFFFFFFFFFF AND DUP2 MSTORE POP POP DUP3 PUSH1 0x40 ADD MLOAD DUP2 PUSH1 0x40 ADD DUP2 SWAP1 MSTORE POP DUP3 PUSH1 0x60 ADD MLOAD DUP2 PUSH1 0x60 ADD DUP2 SWAP1 MSTORE POP DUP3 PUSH1 0x20 ADD MLOAD DUP2 PUSH1 0x20 ADD DUP2 SWAP1 MSTORE POP DUP3 PUSH1 0x80 ADD MLOAD DUP2 PUSH1 0x80 ADD DUP2 SWAP1 MSTORE POP DUP3 PUSH1 0xA0 ADD MLOAD DUP2 PUSH1 0xA0 ADD DUP2 SWAP1 MSTORE POP DUP3 PUSH1 0xC0 ADD MLOAD DUP2 PUSH1 0xC0 ADD DUP2 SWAP1 MSTORE POP DUP3 PUSH1 0xE0 ADD MLOAD DUP2 PUSH1 0xE0 ADD DUP2 SWAP1 MSTORE POP DUP3 PUSH2 0x100 ADD MLOAD DUP2 PUSH2 0x100 ADD DUP2 SWAP1 MSTORE POP DUP3 PUSH2 0x120 ADD MLOAD DUP2 PUSH2 0x120 ADD DUP2 SWAP1 MSTORE POP DUP3 PUSH2 0x140 ADD MLOAD DUP2 PUSH2 0x140 ADD DUP2 SWAP1 MSTORE POP DUP3 PUSH2 0x160 ADD MLOAD DUP2 PUSH2 0x160 ADD DUP2 SWAP1 MSTORE POP DUP3 PUSH2 0x180 ADD MLOAD DUP2 PUSH2 0x180 ADD DUP2 SWAP1 MSTORE POP PUSH1 0x4 PUSH1 0x0 DUP5 PUSH1 0x0 ADD MLOAD PUSH20 0xFFFFFFFFFFFFFFFFFFFFFFFFFFFFFFFFFFFFFFFF AND PUSH20 0xFFFFFFFFFFFFFFFFFFFFFFFFFFFFFFFFFFFFFFFF AND DUP2 MSTORE PUSH1 0x20 ADD SWAP1 DUP2 MSTORE PUSH1 0x20 ADD PUSH1 0x0 KECCAK256 DUP2 SWAP1 DUP1 PUSH1 0x1 DUP2 SLOAD ADD DUP1 DUP3 SSTORE DUP1 SWAP2 POP POP PUSH1 0x1 SWAP1 SUB SWAP1 PUSH1 0x0 MSTORE PUSH1 0x20 PUSH1 0x0 KECCAK256 SWAP1 PUSH1 0xD MUL ADD PUSH1 0x0 SWAP1 SWAP2 SWAP1 SWAP2 SWAP1 SWAP2 POP PUSH1 0x0 DUP3 ADD MLOAD DUP2 PUSH1 0x0 ADD PUSH1 0x0 PUSH2 0x100 EXP DUP2 SLOAD DUP2 PUSH20 0xFFFFFFFFFFFFFFFFFFFFFFFFFFFFFFFFFFFFFFFF MUL NOT AND SWAP1 DUP4 PUSH20 0xFFFFFFFFFFFFFFFFFFFFFFFFFFFFFFFFFFFFFFFF AND MUL OR SWAP1 SSTORE POP PUSH1 0x20 DUP3 ADD MLOAD DUP2 PUSH1 0x1 ADD SWAP1 DUP2 PUSH2 0x53F SWAP2 SWAP1 PUSH2 0x4903 JUMP JUMPDEST POP PUSH1 0x40 DUP3 ADD MLOAD DUP2 PUSH1 0x2 ADD SWAP1 DUP2 PUSH2 0x555 SWAP2 SWAP1 PUSH2 0x4903 JUMP JUMPDEST POP PUSH1 0x60 DUP3 ADD MLOAD DUP2 PUSH1 0x3 ADD SWAP1 DUP2 PUSH2 0x56B SWAP2 SWAP1 PUSH2 0x4903 JUMP JUMPDEST POP PUSH1 0x80 DUP3 ADD MLOAD DUP2 PUSH1 0x4 ADD SWAP1 DUP2 PUSH2 0x581 SWAP2 SWAP1 PUSH2 0x4903 JUMP JUMPDEST POP PUSH1 0xA0 DUP3 ADD MLOAD DUP2 PUSH1 0x5 ADD SWAP1 DUP2 PUSH2 0x597 SWAP2 SWAP1 PUSH2 0x4903 JUMP JUMPDEST POP PUSH1 0xC0 DUP3 ADD MLOAD DUP2 PUSH1 0x6 ADD SWAP1 DUP2 PUSH2 0x5AD SWAP2 SWAP1 PUSH2 0x4903 JUMP JUMPDEST POP PUSH1 0xE0 DUP3 ADD MLOAD DUP2 PUSH1 0x7 ADD SWAP1 DUP2 PUSH2 0x5C3 SWAP2 SWAP1 PUSH2 0x4903 JUMP JUMPDEST POP PUSH2 0x100 DUP3 ADD MLOAD DUP2 PUSH1 0x8 ADD SWAP1 DUP2 PUSH2 0x5DA SWAP2 SWAP1 PUSH2 0x4903 JUMP JUMPDEST POP PUSH2 0x120 DUP3 ADD MLOAD DUP2 PUSH1 0x9 ADD SWAP1 DUP2 PUSH2 0x5F1 SWAP2 SWAP1 PUSH2 0x4903 JUMP JUMPDEST POP PUSH2 0x140 DUP3 ADD MLOAD DUP2 PUSH1 0xA ADD SWAP1 DUP2 PUSH2 0x608 SWAP2 SWAP1 PUSH2 0x4903 JUMP JUMPDEST POP PUSH2 0x160 DUP3 ADD MLOAD DUP2 PUSH1 0xB ADD SWAP1 DUP2 PUSH2 0x61F SWAP2 SWAP1 PUSH2 0x4903 JUMP JUMPDEST POP PUSH2 0x180 DUP3 ADD MLOAD DUP2 PUSH1 0xC ADD SWAP1 DUP2 PUSH2 0x636 SWAP2 SWAP1 PUSH2 0x4903 JUMP JUMPDEST POP POP POP PUSH1 0x7 PUSH1 0x0 SWAP1 SLOAD SWAP1 PUSH2 0x100 EXP SWAP1 DIV PUSH20 0xFFFFFFFFFFFFFFFFFFFFFFFFFFFFFFFFFFFFFFFF AND PUSH20 0xFFFFFFFFFFFFFFFFFFFFFFFFFFFFFFFFFFFFFFFF AND PUSH4 0x6D263CEB DUP5 PUSH1 0x0 ADD MLOAD PUSH1 0x40 MLOAD DUP3 PUSH4 0xFFFFFFFF AND PUSH1 0xE0 SHL DUP2 MSTORE PUSH1 0x4 ADD PUSH2 0x698 SWAP2 SWAP1 PUSH2 0x469A JUMP JUMPDEST PUSH1 0x0 PUSH1 0x40 MLOAD DUP1 DUP4 SUB DUP2 PUSH1 0x0 DUP8 DUP1 EXTCODESIZE ISZERO DUP1 ISZERO PUSH2 0x6B2 JUMPI PUSH1 0x0 DUP1 REVERT JUMPDEST POP GAS CALL ISZERO DUP1 ISZERO PUSH2 0x6C6 JUMPI RETURNDATASIZE PUSH1 0x0 DUP1 RETURNDATACOPY RETURNDATASIZE PUSH1 0x0 REVERT JUMPDEST POP POP POP POP PUSH1 0x8 PUSH1 0x0 SWAP1 SLOAD SWAP1 PUSH2 0x100 EXP SWAP1 DIV PUSH20 0xFFFFFFFFFFFFFFFFFFFFFFFFFFFFFFFFFFFFFFFF AND PUSH20 0xFFFFFFFFFFFFFFFFFFFFFFFFFFFFFFFFFFFFFFFF AND PUSH4 0x43A0E44A CALLER DUP6 PUSH1 0x40 ADD MLOAD DUP7 PUSH1 0x20 ADD MLOAD DUP8 PUSH1 0x0 ADD MLOAD PUSH1 0x40 MLOAD DUP6 PUSH4 0xFFFFFFFF AND PUSH1 0xE0 SHL DUP2 MSTORE PUSH1 0x4 ADD PUSH2 0x737 SWAP5 SWAP4 SWAP3 SWAP2 SWAP1 PUSH2 0x4A1F JUMP JUMPDEST PUSH1 0x0 PUSH1 0x40 MLOAD DUP1 DUP4 SUB DUP2 PUSH1 0x0 DUP8 DUP1 EXTCODESIZE ISZERO DUP1 ISZERO PUSH2 0x751 JUMPI PUSH1 0x0 DUP1 REVERT JUMPDEST POP GAS CALL ISZERO DUP1 ISZERO PUSH2 0x765 JUMPI RETURNDATASIZE PUSH1 0x0 DUP1 RETURNDATACOPY RETURNDATASIZE PUSH1 0x0 REVERT JUMPDEST POP POP POP POP POP POP POP POP JUMP JUMPDEST PUSH1 0x6 PUSH1 0x0 SWAP1 SLOAD SWAP1 PUSH2 0x100 EXP SWAP1 DIV PUSH20 0xFFFFFFFFFFFFFFFFFFFFFFFFFFFFFFFFFFFFFFFF AND PUSH20 0xFFFFFFFFFFFFFFFFFFFFFFFFFFFFFFFFFFFFFFFF AND PUSH4 0x63A9C3D7 CALLER PUSH1 0x40 MLOAD DUP3 PUSH4 0xFFFFFFFF AND PUSH1 0xE0 SHL DUP2 MSTORE PUSH1 0x4 ADD PUSH2 0x7CA SWAP2 SWAP1 PUSH2 0x469A JUMP JUMPDEST PUSH1 0x20 PUSH1 0x40 MLOAD DUP1 DUP4 SUB DUP2 DUP7 GAS STATICCALL ISZERO DUP1 ISZERO PUSH2 0x7E7 JUMPI RETURNDATASIZE PUSH1 0x0 DUP1 RETURNDATACOPY RETURNDATASIZE PUSH1 0x0 REVERT JUMPDEST POP POP POP POP PUSH1 0x40 MLOAD RETURNDATASIZE PUSH1 0x1F NOT PUSH1 0x1F DUP3 ADD AND DUP3 ADD DUP1 PUSH1 0x40 MSTORE POP DUP2 ADD SWAP1 PUSH2 0x80B SWAP2 SWAP1 PUSH2 0x46CA JUMP JUMPDEST PUSH2 0x814 JUMPI PUSH1 0x0 DUP1 REVERT JUMPDEST PUSH2 0x81C PUSH2 0x30ED JUMP JUMPDEST DUP3 PUSH1 0x0 ADD MLOAD DUP2 PUSH1 0x0 ADD SWAP1 PUSH20 0xFFFFFFFFFFFFFFFFFFFFFFFFFFFFFFFFFFFFFFFF AND SWAP1 DUP2 PUSH20 0xFFFFFFFFFFFFFFFFFFFFFFFFFFFFFFFFFFFFFFFF AND DUP2 MSTORE POP POP DUP3 PUSH1 0x20 ADD MLOAD DUP2 PUSH1 0x20 ADD DUP2 SWAP1 MSTORE POP DUP3 PUSH1 0x40 ADD MLOAD DUP2 PUSH1 0x40 ADD DUP2 DUP2 MSTORE POP POP DUP3 PUSH1 0x60 ADD MLOAD DUP2 PUSH1 0x60 ADD DUP2 SWAP1 MSTORE POP DUP3 PUSH1 0x80 ADD MLOAD DUP2 PUSH1 0x80 ADD DUP2 SWAP1 MSTORE POP DUP1 PUSH1 0x0 DUP1 DUP6 PUSH1 0x0 ADD MLOAD PUSH20 0xFFFFFFFFFFFFFFFFFFFFFFFFFFFFFFFFFFFFFFFF AND PUSH20 0xFFFFFFFFFFFFFFFFFFFFFFFFFFFFFFFFFFFFFFFF AND DUP2 MSTORE PUSH1 0x20 ADD SWAP1 DUP2 MSTORE PUSH1 0x20 ADD PUSH1 0x0 KECCAK256 PUSH1 0x0 DUP3 ADD MLOAD DUP2 PUSH1 0x0 ADD PUSH1 0x0 PUSH2 0x100 EXP DUP2 SLOAD DUP2 PUSH20 0xFFFFFFFFFFFFFFFFFFFFFFFFFFFFFFFFFFFFFFFF MUL NOT AND SWAP1 DUP4 PUSH20 0xFFFFFFFFFFFFFFFFFFFFFFFFFFFFFFFFFFFFFFFF AND MUL OR SWAP1 SSTORE POP PUSH1 0x20 DUP3 ADD MLOAD DUP2 PUSH1 0x1 ADD SWAP1 DUP2 PUSH2 0x92C SWAP2 SWAP1 PUSH2 0x4903 JUMP JUMPDEST POP PUSH1 0x40 DUP3 ADD MLOAD DUP2 PUSH1 0x2 ADD SSTORE PUSH1 0x60 DUP3 ADD MLOAD DUP2 PUSH1 0x3 ADD SWAP1 DUP2 PUSH2 0x94C SWAP2 SWAP1 PUSH2 0x4903 JUMP JUMPDEST POP PUSH1 0x80 DUP3 ADD MLOAD DUP2 PUSH1 0x4 ADD SWAP1 DUP2 PUSH2 0x962 SWAP2 SWAP1 PUSH2 0x4903 JUMP JUMPDEST POP SWAP1 POP POP PUSH2 0x96E PUSH2 0x3132 JUMP JUMPDEST DUP3 PUSH1 0x0 ADD MLOAD DUP2 PUSH1 0x0 ADD SWAP1 PUSH20 0xFFFFFFFFFFFFFFFFFFFFFFFFFFFFFFFFFFFFFFFF AND SWAP1 DUP2 PUSH20 0xFFFFFFFFFFFFFFFFFFFFFFFFFFFFFFFFFFFFFFFF AND DUP2 MSTORE POP POP DUP3 PUSH1 0x20 ADD MLOAD DUP2 PUSH1 0x20 ADD DUP2 SWAP1 MSTORE POP DUP3 PUSH1 0x40 ADD MLOAD DUP2 PUSH1 0x40 ADD DUP2 SWAP1 MSTORE POP DUP3 PUSH1 0x60 ADD MLOAD DUP2 PUSH1 0x60 ADD DUP2 SWAP1 MSTORE POP DUP3 PUSH1 0x80 ADD MLOAD DUP2 PUSH1 0x80 ADD DUP2 SWAP1 MSTORE POP DUP3 PUSH1 0xA0 ADD MLOAD DUP2 PUSH1 0xA0 ADD DUP2 SWAP1 MSTORE POP DUP3 PUSH1 0xC0 ADD MLOAD DUP2 PUSH1 0xC0 ADD DUP2 SWAP1 MSTORE POP DUP3 PUSH1 0xE0 ADD MLOAD DUP2 PUSH1 0xE0 ADD DUP2 SWAP1 MSTORE POP DUP3 PUSH2 0x100 ADD MLOAD DUP2 PUSH2 0x100 ADD DUP2 SWAP1 MSTORE POP DUP3 PUSH2 0x120 ADD MLOAD DUP2 PUSH2 0x120 ADD SWAP1 ISZERO ISZERO SWAP1 DUP2 ISZERO ISZERO DUP2 MSTORE POP POP PUSH1 0x2 PUSH1 0x0 DUP6 PUSH1 0x0 ADD MLOAD PUSH20 0xFFFFFFFFFFFFFFFFFFFFFFFFFFFFFFFFFFFFFFFF AND PUSH20 0xFFFFFFFFFFFFFFFFFFFFFFFFFFFFFFFFFFFFFFFF AND DUP2 MSTORE PUSH1 0x20 ADD SWAP1 DUP2 MSTORE PUSH1 0x20 ADD PUSH1 0x0 KECCAK256 DUP2 SWAP1 DUP1 PUSH1 0x1 DUP2 SLOAD ADD DUP1 DUP3 SSTORE DUP1 SWAP2 POP POP PUSH1 0x1 SWAP1 SUB SWAP1 PUSH1 0x0 MSTORE PUSH1 0x20 PUSH1 0x0 KECCAK256 SWAP1 PUSH1 0xA MUL ADD PUSH1 0x0 SWAP1 SWAP2 SWAP1 SWAP2 SWAP1 SWAP2 POP PUSH1 0x0 DUP3 ADD MLOAD DUP2 PUSH1 0x0 ADD PUSH1 0x0 PUSH2 0x100 EXP DUP2 SLOAD DUP2 PUSH20 0xFFFFFFFFFFFFFFFFFFFFFFFFFFFFFFFFFFFFFFFF MUL NOT AND SWAP1 DUP4 PUSH20 0xFFFFFFFFFFFFFFFFFFFFFFFFFFFFFFFFFFFFFFFF AND MUL OR SWAP1 SSTORE POP PUSH1 0x20 DUP3 ADD MLOAD DUP2 PUSH1 0x1 ADD SWAP1 DUP2 PUSH2 0xAF3 SWAP2 SWAP1 PUSH2 0x4903 JUMP JUMPDEST POP PUSH1 0x40 DUP3 ADD MLOAD DUP2 PUSH1 0x2 ADD SWAP1 DUP2 PUSH2 0xB09 SWAP2 SWAP1 PUSH2 0x4903 JUMP JUMPDEST POP PUSH1 0x60 DUP3 ADD MLOAD DUP2 PUSH1 0x3 ADD SWAP1 DUP2 PUSH2 0xB1F SWAP2 SWAP1 PUSH2 0x4903 JUMP JUMPDEST POP PUSH1 0x80 DUP3 ADD MLOAD DUP2 PUSH1 0x4 ADD SWAP1 DUP2 PUSH2 0xB35 SWAP2 SWAP1 PUSH2 0x4903 JUMP JUMPDEST POP PUSH1 0xA0 DUP3 ADD MLOAD DUP2 PUSH1 0x5 ADD SWAP1 DUP2 PUSH2 0xB4B SWAP2 SWAP1 PUSH2 0x4903 JUMP JUMPDEST POP PUSH1 0xC0 DUP3 ADD MLOAD DUP2 PUSH1 0x6 ADD SWAP1 DUP2 PUSH2 0xB61 SWAP2 SWAP1 PUSH2 0x4903 JUMP JUMPDEST POP PUSH1 0xE0 DUP3 ADD MLOAD DUP2 PUSH1 0x7 ADD SWAP1 DUP2 PUSH2 0xB77 SWAP2 SWAP1 PUSH2 0x4903 JUMP JUMPDEST POP PUSH2 0x100 DUP3 ADD MLOAD DUP2 PUSH1 0x8 ADD SWAP1 DUP2 PUSH2 0xB8E SWAP2 SWAP1 PUSH2 0x4903 JUMP JUMPDEST POP PUSH2 0x120 DUP3 ADD MLOAD DUP2 PUSH1 0x9 ADD PUSH1 0x0 PUSH2 0x100 EXP DUP2 SLOAD DUP2 PUSH1 0xFF MUL NOT AND SWAP1 DUP4 ISZERO ISZERO MUL OR SWAP1 SSTORE POP POP POP PUSH1 0x7 PUSH1 0x0 SWAP1 SLOAD SWAP1 PUSH2 0x100 EXP SWAP1 DIV PUSH20 0xFFFFFFFFFFFFFFFFFFFFFFFFFFFFFFFFFFFFFFFF AND PUSH20 0xFFFFFFFFFFFFFFFFFFFFFFFFFFFFFFFFFFFFFFFF AND PUSH4 0x6D263CEB DUP6 PUSH1 0x0 ADD MLOAD PUSH1 0x40 MLOAD DUP3 PUSH4 0xFFFFFFFF AND PUSH1 0xE0 SHL DUP2 MSTORE PUSH1 0x4 ADD PUSH2 0xC11 SWAP2 SWAP1 PUSH2 0x469A JUMP JUMPDEST PUSH1 0x0 PUSH1 0x40 MLOAD DUP1 DUP4 SUB DUP2 PUSH1 0x0 DUP8 DUP1 EXTCODESIZE ISZERO DUP1 ISZERO PUSH2 0xC2B JUMPI PUSH1 0x0 DUP1 REVERT JUMPDEST POP GAS CALL ISZERO DUP1 ISZERO PUSH2 0xC3F JUMPI RETURNDATASIZE PUSH1 0x0 DUP1 RETURNDATACOPY RETURNDATASIZE PUSH1 0x0 REVERT JUMPDEST POP POP POP POP PUSH1 0x8 PUSH1 0x0 SWAP1 SLOAD SWAP1 PUSH2 0x100 EXP SWAP1 DIV PUSH20 0xFFFFFFFFFFFFFFFFFFFFFFFFFFFFFFFFFFFFFFFF AND PUSH20 0xFFFFFFFFFFFFFFFFFFFFFFFFFFFFFFFFFFFFFFFF AND PUSH4 0x43A0E44A CALLER DUP7 PUSH1 0x20 ADD MLOAD DUP7 PUSH1 0x20 ADD MLOAD DUP9 PUSH1 0x0 ADD MLOAD PUSH1 0x40 MLOAD DUP6 PUSH4 0xFFFFFFFF AND PUSH1 0xE0 SHL DUP2 MSTORE PUSH1 0x4 ADD PUSH2 0xCB0 SWAP5 SWAP4 SWAP3 SWAP2 SWAP1 PUSH2 0x4A1F JUMP JUMPDEST PUSH1 0x0 PUSH1 0x40 MLOAD DUP1 DUP4 SUB DUP2 PUSH1 0x0 DUP8 DUP1 EXTCODESIZE ISZERO DUP1 ISZERO PUSH2 0xCCA JUMPI PUSH1 0x0 DUP1 REVERT JUMPDEST POP GAS CALL ISZERO DUP1 ISZERO PUSH2 0xCDE JUMPI RETURNDATASIZE PUSH1 0x0 DUP1 RETURNDATACOPY RETURNDATASIZE PUSH1 0x0 REVERT JUMPDEST POP POP POP POP POP POP POP POP JUMP JUMPDEST DUP1 PUSH1 0x7 PUSH1 0x0 PUSH2 0x100 EXP DUP2 SLOAD DUP2 PUSH20 0xFFFFFFFFFFFFFFFFFFFFFFFFFFFFFFFFFFFFFFFF MUL NOT AND SWAP1 DUP4 PUSH20 0xFFFFFFFFFFFFFFFFFFFFFFFFFFFFFFFFFFFFFFFF AND MUL OR SWAP1 SSTORE POP POP JUMP JUMPDEST DUP1 PUSH1 0x8 PUSH1 0x0 PUSH2 0x100 EXP DUP2 SLOAD DUP2 PUSH20 0xFFFFFFFFFFFFFFFFFFFFFFFFFFFFFFFFFFFFFFFF MUL NOT AND SWAP1 DUP4 PUSH20 0xFFFFFFFFFFFFFFFFFFFFFFFFFFFFFFFFFFFFFFFF AND MUL OR SWAP1 SSTORE POP POP JUMP JUMPDEST PUSH1 0x6 PUSH1 0x0 SWAP1 SLOAD SWAP1 PUSH2 0x100 EXP SWAP1 DIV PUSH20 0xFFFFFFFFFFFFFFFFFFFFFFFFFFFFFFFFFFFFFFFF AND PUSH20 0xFFFFFFFFFFFFFFFFFFFFFFFFFFFFFFFFFFFFFFFF AND PUSH4 0x63A9C3D7 CALLER PUSH1 0x40 MLOAD DUP3 PUSH4 0xFFFFFFFF AND PUSH1 0xE0 SHL DUP2 MSTORE PUSH1 0x4 ADD PUSH2 0xDCB SWAP2 SWAP1 PUSH2 0x469A JUMP JUMPDEST PUSH1 0x20 PUSH1 0x40 MLOAD DUP1 DUP4 SUB DUP2 DUP7 GAS STATICCALL ISZERO DUP1 ISZERO PUSH2 0xDE8 JUMPI RETURNDATASIZE PUSH1 0x0 DUP1 RETURNDATACOPY RETURNDATASIZE PUSH1 0x0 REVERT JUMPDEST POP POP POP POP PUSH1 0x40 MLOAD RETURNDATASIZE PUSH1 0x1F NOT PUSH1 0x1F DUP3 ADD AND DUP3 ADD DUP1 PUSH1 0x40 MSTORE POP DUP2 ADD SWAP1 PUSH2 0xE0C SWAP2 SWAP1 PUSH2 0x46CA JUMP JUMPDEST PUSH2 0xE15 JUMPI PUSH1 0x0 DUP1 REVERT JUMPDEST PUSH2 0xE1D PUSH2 0x30ED JUMP JUMPDEST DUP3 PUSH1 0x0 ADD MLOAD DUP2 PUSH1 0x0 ADD SWAP1 PUSH20 0xFFFFFFFFFFFFFFFFFFFFFFFFFFFFFFFFFFFFFFFF AND SWAP1 DUP2 PUSH20 0xFFFFFFFFFFFFFFFFFFFFFFFFFFFFFFFFFFFFFFFF AND DUP2 MSTORE POP POP DUP3 PUSH1 0x20 ADD MLOAD DUP2 PUSH1 0x20 ADD DUP2 SWAP1 MSTORE POP DUP3 PUSH1 0x40 ADD MLOAD DUP2 PUSH1 0x40 ADD DUP2 DUP2 MSTORE POP POP DUP3 PUSH1 0x60 ADD MLOAD DUP2 PUSH1 0x60 ADD DUP2 SWAP1 MSTORE POP DUP3 PUSH1 0x80 ADD MLOAD DUP2 PUSH1 0x80 ADD DUP2 SWAP1 MSTORE POP DUP1 PUSH1 0x0 DUP1 DUP6 PUSH1 0x0 ADD MLOAD PUSH20 0xFFFFFFFFFFFFFFFFFFFFFFFFFFFFFFFFFFFFFFFF AND PUSH20 0xFFFFFFFFFFFFFFFFFFFFFFFFFFFFFFFFFFFFFFFF AND DUP2 MSTORE PUSH1 0x20 ADD SWAP1 DUP2 MSTORE PUSH1 0x20 ADD PUSH1 0x0 KECCAK256 PUSH1 0x0 DUP3 ADD MLOAD DUP2 PUSH1 0x0 ADD PUSH1 0x0 PUSH2 0x100 EXP DUP2 SLOAD DUP2 PUSH20 0xFFFFFFFFFFFFFFFFFFFFFFFFFFFFFFFFFFFFFFFF MUL NOT AND SWAP1 DUP4 PUSH20 0xFFFFFFFFFFFFFFFFFFFFFFFFFFFFFFFFFFFFFFFF AND MUL OR SWAP1 SSTORE POP PUSH1 0x20 DUP3 ADD MLOAD DUP2 PUSH1 0x1 ADD SWAP1 DUP2 PUSH2 0xF2D SWAP2 SWAP1 PUSH2 0x4903 JUMP JUMPDEST POP PUSH1 0x40 DUP3 ADD MLOAD DUP2 PUSH1 0x2 ADD SSTORE PUSH1 0x60 DUP3 ADD MLOAD DUP2 PUSH1 0x3 ADD SWAP1 DUP2 PUSH2 0xF4D SWAP2 SWAP1 PUSH2 0x4903 JUMP JUMPDEST POP PUSH1 0x80 DUP3 ADD MLOAD DUP2 PUSH1 0x4 ADD SWAP1 DUP2 PUSH2 0xF63 SWAP2 SWAP1 PUSH2 0x4903 JUMP JUMPDEST POP SWAP1 POP POP PUSH2 0xF6F PUSH2 0x319D JUMP JUMPDEST DUP3 PUSH1 0x0 ADD MLOAD DUP2 PUSH1 0x0 ADD SWAP1 PUSH20 0xFFFFFFFFFFFFFFFFFFFFFFFFFFFFFFFFFFFFFFFF AND SWAP1 DUP2 PUSH20 0xFFFFFFFFFFFFFFFFFFFFFFFFFFFFFFFFFFFFFFFF AND DUP2 MSTORE POP POP DUP3 PUSH1 0x20 ADD MLOAD DUP2 PUSH1 0x20 ADD DUP2 SWAP1 MSTORE POP DUP3 PUSH1 0x40 ADD MLOAD DUP2 PUSH1 0x40 ADD DUP2 SWAP1 MSTORE POP DUP3 PUSH1 0x60 ADD MLOAD DUP2 PUSH1 0x60 ADD DUP2 SWAP1 MSTORE POP DUP3 PUSH1 0x80 ADD MLOAD DUP2 PUSH1 0x80 ADD DUP2 SWAP1 MSTORE POP DUP3 PUSH1 0xA0 ADD MLOAD DUP2 PUSH1 0xA0 ADD DUP2 SWAP1 MSTORE POP DUP3 PUSH1 0xC0 ADD MLOAD DUP2 PUSH1 0xC0 ADD DUP2 SWAP1 MSTORE POP DUP3 PUSH1 0xE0 ADD MLOAD DUP2 PUSH1 0xE0 ADD DUP2 SWAP1 MSTORE POP DUP3 PUSH2 0x100 ADD MLOAD DUP2 PUSH2 0x100 ADD DUP2 SWAP1 MSTORE POP DUP3 PUSH2 0x120 ADD MLOAD DUP2 PUSH2 0x120 ADD SWAP1 ISZERO ISZERO SWAP1 DUP2 ISZERO ISZERO DUP2 MSTORE POP POP DUP3 PUSH2 0x140 ADD MLOAD DUP2 PUSH2 0x140 ADD DUP2 SWAP1 MSTORE POP DUP3 PUSH2 0x160 ADD MLOAD DUP2 PUSH2 0x160 ADD DUP2 SWAP1 MSTORE POP DUP3 PUSH2 0x180 ADD MLOAD DUP2 PUSH2 0x180 ADD SWAP1 PUSH20 0xFFFFFFFFFFFFFFFFFFFFFFFFFFFFFFFFFFFFFFFF AND SWAP1 DUP2 PUSH20 0xFFFFFFFFFFFFFFFFFFFFFFFFFFFFFFFFFFFFFFFF AND DUP2 MSTORE POP POP DUP3 PUSH2 0x1A0 ADD MLOAD DUP2 PUSH2 0x1A0 ADD DUP2 SWAP1 MSTORE POP PUSH1 0x3 PUSH1 0x0 DUP5 PUSH1 0x0 ADD MLOAD PUSH20 0xFFFFFFFFFFFFFFFFFFFFFFFFFFFFFFFFFFFFFFFF AND PUSH20 0xFFFFFFFFFFFFFFFFFFFFFFFFFFFFFFFFFFFFFFFF AND DUP2 MSTORE PUSH1 0x20 ADD SWAP1 DUP2 MSTORE PUSH1 0x20 ADD PUSH1 0x0 KECCAK256 DUP2 SWAP1 DUP1 PUSH1 0x1 DUP2 SLOAD ADD DUP1 DUP3 SSTORE DUP1 SWAP2 POP POP PUSH1 0x1 SWAP1 SUB SWAP1 PUSH1 0x0 MSTORE PUSH1 0x20 PUSH1 0x0 KECCAK256 SWAP1 PUSH1 0xE MUL ADD PUSH1 0x0 SWAP1 SWAP2 SWAP1 SWAP2 SWAP1 SWAP2 POP PUSH1 0x0 DUP3 ADD MLOAD DUP2 PUSH1 0x0 ADD PUSH1 0x0 PUSH2 0x100 EXP DUP2 SLOAD DUP2 PUSH20 0xFFFFFFFFFFFFFFFFFFFFFFFFFFFFFFFFFFFFFFFF MUL NOT AND SWAP1 DUP4 PUSH20 0xFFFFFFFFFFFFFFFFFFFFFFFFFFFFFFFFFFFFFFFF AND MUL OR SWAP1 SSTORE POP PUSH1 0x20 DUP3 ADD MLOAD DUP2 PUSH1 0x1 ADD SWAP1 DUP2 PUSH2 0x115F SWAP2 SWAP1 PUSH2 0x4903 JUMP JUMPDEST POP PUSH1 0x40 DUP3 ADD MLOAD DUP2 PUSH1 0x2 ADD SWAP1 DUP2 PUSH2 0x1175 SWAP2 SWAP1 PUSH2 0x4903 JUMP JUMPDEST POP PUSH1 0x60 DUP3 ADD MLOAD DUP2 PUSH1 0x3 ADD SWAP1 DUP2 PUSH2 0x118B SWAP2 SWAP1 PUSH2 0x4903 JUMP JUMPDEST POP PUSH1 0x80 DUP3 ADD MLOAD DUP2 PUSH1 0x4 ADD SWAP1 DUP2 PUSH2 0x11A1 SWAP2 SWAP1 PUSH2 0x4903 JUMP JUMPDEST POP PUSH1 0xA0 DUP3 ADD MLOAD DUP2 PUSH1 0x5 ADD SWAP1 DUP2 PUSH2 0x11B7 SWAP2 SWAP1 PUSH2 0x4903 JUMP JUMPDEST POP PUSH1 0xC0 DUP3 ADD MLOAD DUP2 PUSH1 0x6 ADD SWAP1 DUP2 PUSH2 0x11CD SWAP2 SWAP1 PUSH2 0x4903 JUMP JUMPDEST POP PUSH1 0xE0 DUP3 ADD MLOAD DUP2 PUSH1 0x7 ADD SWAP1 DUP2 PUSH2 0x11E3 SWAP2 SWAP1 PUSH2 0x4903 JUMP JUMPDEST POP PUSH2 0x100 DUP3 ADD MLOAD DUP2 PUSH1 0x8 ADD SWAP1 DUP2 PUSH2 0x11FA SWAP2 SWAP1 PUSH2 0x4903 JUMP JUMPDEST POP PUSH2 0x120 DUP3 ADD MLOAD DUP2 PUSH1 0x9 ADD PUSH1 0x0 PUSH2 0x100 EXP DUP2 SLOAD DUP2 PUSH1 0xFF MUL NOT AND SWAP1 DUP4 ISZERO ISZERO MUL OR SWAP1 SSTORE POP PUSH2 0x140 DUP3 ADD MLOAD DUP2 PUSH1 0xA ADD SWAP1 DUP2 PUSH2 0x1232 SWAP2 SWAP1 PUSH2 0x4903 JUMP JUMPDEST POP PUSH2 0x160 DUP3 ADD MLOAD DUP2 PUSH1 0xB ADD SWAP1 DUP2 PUSH2 0x1249 SWAP2 SWAP1 PUSH2 0x4903 JUMP JUMPDEST POP PUSH2 0x180 DUP3 ADD MLOAD DUP2 PUSH1 0xC ADD PUSH1 0x0 PUSH2 0x100 EXP DUP2 SLOAD DUP2 PUSH20 0xFFFFFFFFFFFFFFFFFFFFFFFFFFFFFFFFFFFFFFFF MUL NOT AND SWAP1 DUP4 PUSH20 0xFFFFFFFFFFFFFFFFFFFFFFFFFFFFFFFFFFFFFFFF AND MUL OR SWAP1 SSTORE POP PUSH2 0x1A0 DUP3 ADD MLOAD DUP2 PUSH1 0xD ADD SWAP1 DUP2 PUSH2 0x12A8 SWAP2 SWAP1 PUSH2 0x4903 JUMP JUMPDEST POP POP POP PUSH1 0x7 PUSH1 0x0 SWAP1 SLOAD SWAP1 PUSH2 0x100 EXP SWAP1 DIV PUSH20 0xFFFFFFFFFFFFFFFFFFFFFFFFFFFFFFFFFFFFFFFF AND PUSH20 0xFFFFFFFFFFFFFFFFFFFFFFFFFFFFFFFFFFFFFFFF AND PUSH4 0x6D263CEB DUP6 PUSH1 0x0 ADD MLOAD PUSH1 0x40 MLOAD DUP3 PUSH4 0xFFFFFFFF AND PUSH1 0xE0 SHL DUP2 MSTORE PUSH1 0x4 ADD PUSH2 0x130A SWAP2 SWAP1 PUSH2 0x469A JUMP JUMPDEST PUSH1 0x0 PUSH1 0x40 MLOAD DUP1 DUP4 SUB DUP2 PUSH1 0x0 DUP8 DUP1 EXTCODESIZE ISZERO DUP1 ISZERO PUSH2 0x1324 JUMPI PUSH1 0x0 DUP1 REVERT JUMPDEST POP GAS CALL ISZERO DUP1 ISZERO PUSH2 0x1338 JUMPI RETURNDATASIZE PUSH1 0x0 DUP1 RETURNDATACOPY RETURNDATASIZE PUSH1 0x0 REVERT JUMPDEST POP POP POP POP PUSH1 0x8 PUSH1 0x0 SWAP1 SLOAD SWAP1 PUSH2 0x100 EXP SWAP1 DIV PUSH20 0xFFFFFFFFFFFFFFFFFFFFFFFFFFFFFFFFFFFFFFFF AND PUSH20 0xFFFFFFFFFFFFFFFFFFFFFFFFFFFFFFFFFFFFFFFF AND PUSH4 0x43A0E44A CALLER DUP7 PUSH1 0x20 ADD MLOAD DUP7 PUSH1 0x20 ADD MLOAD DUP9 PUSH1 0x0 ADD MLOAD PUSH1 0x40 MLOAD DUP6 PUSH4 0xFFFFFFFF AND PUSH1 0xE0 SHL DUP2 MSTORE PUSH1 0x4 ADD PUSH2 0x13A9 SWAP5 SWAP4 SWAP3 SWAP2 SWAP1 PUSH2 0x4A1F JUMP JUMPDEST PUSH1 0x0 PUSH1 0x40 MLOAD DUP1 DUP4 SUB DUP2 PUSH1 0x0 DUP8 DUP1 EXTCODESIZE ISZERO DUP1 ISZERO PUSH2 0x13C3 JUMPI PUSH1 0x0 DUP1 REVERT JUMPDEST POP GAS CALL ISZERO DUP1 ISZERO PUSH2 0x13D7 JUMPI RETURNDATASIZE PUSH1 0x0 DUP1 RETURNDATACOPY RETURNDATASIZE PUSH1 0x0 REVERT JUMPDEST POP POP POP POP POP POP POP POP JUMP JUMPDEST PUSH2 0x13E9 PUSH2 0x30ED JUMP JUMPDEST PUSH1 0x60 PUSH1 0x0 DUP1 DUP5 PUSH20 0xFFFFFFFFFFFFFFFFFFFFFFFFFFFFFFFFFFFFFFFF AND PUSH20 0xFFFFFFFFFFFFFFFFFFFFFFFFFFFFFFFFFFFFFFFF AND DUP2 MSTORE PUSH1 0x20 ADD SWAP1 DUP2 MSTORE PUSH1 0x20 ADD PUSH1 0x0 KECCAK256 PUSH1 0x2 PUSH1 0x0 DUP6 PUSH20 0xFFFFFFFFFFFFFFFFFFFFFFFFFFFFFFFFFFFFFFFF AND PUSH20 0xFFFFFFFFFFFFFFFFFFFFFFFFFFFFFFFFFFFFFFFF AND DUP2 MSTORE PUSH1 0x20 ADD SWAP1 DUP2 MSTORE PUSH1 0x20 ADD PUSH1 0x0 KECCAK256 DUP2 PUSH1 0x40 MLOAD DUP1 PUSH1 0xA0 ADD PUSH1 0x40 MSTORE SWAP1 DUP2 PUSH1 0x0 DUP3 ADD PUSH1 0x0 SWAP1 SLOAD SWAP1 PUSH2 0x100 EXP SWAP1 DIV PUSH20 0xFFFFFFFFFFFFFFFFFFFFFFFFFFFFFFFFFFFFFFFF AND PUSH20 0xFFFFFFFFFFFFFFFFFFFFFFFFFFFFFFFFFFFFFFFF AND PUSH20 0xFFFFFFFFFFFFFFFFFFFFFFFFFFFFFFFFFFFFFFFF AND DUP2 MSTORE PUSH1 0x20 ADD PUSH1 0x1 DUP3 ADD DUP1 SLOAD PUSH2 0x14DA SWAP1 PUSH2 0x4726 JUMP JUMPDEST DUP1 PUSH1 0x1F ADD PUSH1 0x20 DUP1 SWAP2 DIV MUL PUSH1 0x20 ADD PUSH1 0x40 MLOAD SWAP1 DUP2 ADD PUSH1 0x40 MSTORE DUP1 SWAP3 SWAP2 SWAP1 DUP2 DUP2 MSTORE PUSH1 0x20 ADD DUP3 DUP1 SLOAD PUSH2 0x1506 SWAP1 PUSH2 0x4726 JUMP JUMPDEST DUP1 ISZERO PUSH2 0x1553 JUMPI DUP1 PUSH1 0x1F LT PUSH2 0x1528 JUMPI PUSH2 0x100 DUP1 DUP4 SLOAD DIV MUL DUP4 MSTORE SWAP2 PUSH1 0x20 ADD SWAP2 PUSH2 0x1553 JUMP JUMPDEST DUP3 ADD SWAP2 SWAP1 PUSH1 0x0 MSTORE PUSH1 0x20 PUSH1 0x0 KECCAK256 SWAP1 JUMPDEST DUP2 SLOAD DUP2 MSTORE SWAP1 PUSH1 0x1 ADD SWAP1 PUSH1 0x20 ADD DUP1 DUP4 GT PUSH2 0x1536 JUMPI DUP3 SWAP1 SUB PUSH1 0x1F AND DUP3 ADD SWAP2 JUMPDEST POP POP POP POP POP DUP2 MSTORE PUSH1 0x20 ADD PUSH1 0x2 DUP3 ADD SLOAD DUP2 MSTORE PUSH1 0x20 ADD PUSH1 0x3 DUP3 ADD DUP1 SLOAD PUSH2 0x1576 SWAP1 PUSH2 0x4726 JUMP JUMPDEST DUP1 PUSH1 0x1F ADD PUSH1 0x20 DUP1 SWAP2 DIV MUL PUSH1 0x20 ADD PUSH1 0x40 MLOAD SWAP1 DUP2 ADD PUSH1 0x40 MSTORE DUP1 SWAP3 SWAP2 SWAP1 DUP2 DUP2 MSTORE PUSH1 0x20 ADD DUP3 DUP1 SLOAD PUSH2 0x15A2 SWAP1 PUSH2 0x4726 JUMP JUMPDEST DUP1 ISZERO PUSH2 0x15EF JUMPI DUP1 PUSH1 0x1F LT PUSH2 0x15C4 JUMPI PUSH2 0x100 DUP1 DUP4 SLOAD DIV MUL DUP4 MSTORE SWAP2 PUSH1 0x20 ADD SWAP2 PUSH2 0x15EF JUMP JUMPDEST DUP3 ADD SWAP2 SWAP1 PUSH1 0x0 MSTORE PUSH1 0x20 PUSH1 0x0 KECCAK256 SWAP1 JUMPDEST DUP2 SLOAD DUP2 MSTORE SWAP1 PUSH1 0x1 ADD SWAP1 PUSH1 0x20 ADD DUP1 DUP4 GT PUSH2 0x15D2 JUMPI DUP3 SWAP1 SUB PUSH1 0x1F AND DUP3 ADD SWAP2 JUMPDEST POP POP POP POP POP DUP2 MSTORE PUSH1 0x20 ADD PUSH1 0x4 DUP3 ADD DUP1 SLOAD PUSH2 0x1608 SWAP1 PUSH2 0x4726 JUMP JUMPDEST DUP1 PUSH1 0x1F ADD PUSH1 0x20 DUP1 SWAP2 DIV MUL PUSH1 0x20 ADD PUSH1 0x40 MLOAD SWAP1 DUP2 ADD PUSH1 0x40 MSTORE DUP1 SWAP3 SWAP2 SWAP1 DUP2 DUP2 MSTORE PUSH1 0x20 ADD DUP3 DUP1 SLOAD PUSH2 0x1634 SWAP1 PUSH2 0x4726 JUMP JUMPDEST DUP1 ISZERO PUSH2 0x1681 JUMPI DUP1 PUSH1 0x1F LT PUSH2 0x1656 JUMPI PUSH2 0x100 DUP1 DUP4 SLOAD DIV MUL DUP4 MSTORE SWAP2 PUSH1 0x20 ADD SWAP2 PUSH2 0x1681 JUMP JUMPDEST DUP3 ADD SWAP2 SWAP1 PUSH1 0x0 MSTORE PUSH1 0x20 PUSH1 0x0 KECCAK256 SWAP1 JUMPDEST DUP2 SLOAD DUP2 MSTORE SWAP1 PUSH1 0x1 ADD SWAP1 PUSH1 0x20 ADD DUP1 DUP4 GT PUSH2 0x1664 JUMPI DUP3 SWAP1 SUB PUSH1 0x1F AND DUP3 ADD SWAP2 JUMPDEST POP POP POP POP POP DUP2 MSTORE POP POP SWAP2 POP DUP1 DUP1 SLOAD DUP1 PUSH1 0x20 MUL PUSH1 0x20 ADD PUSH1 0x40 MLOAD SWAP1 DUP2 ADD PUSH1 0x40 MSTORE DUP1 SWAP3 SWAP2 SWAP1 DUP2 DUP2 MSTORE PUSH1 0x20 ADD PUSH1 0x0 SWAP1 JUMPDEST DUP3 DUP3 LT ISZERO PUSH2 0x1BE1 JUMPI DUP4 DUP3 SWAP1 PUSH1 0x0 MSTORE PUSH1 0x20 PUSH1 0x0 KECCAK256 SWAP1 PUSH1 0xA MUL ADD PUSH1 0x40 MLOAD DUP1 PUSH2 0x140 ADD PUSH1 0x40 MSTORE SWAP1 DUP2 PUSH1 0x0 DUP3 ADD PUSH1 0x0 SWAP1 SLOAD SWAP1 PUSH2 0x100 EXP SWAP1 DIV PUSH20 0xFFFFFFFFFFFFFFFFFFFFFFFFFFFFFFFFFFFFFFFF AND PUSH20 0xFFFFFFFFFFFFFFFFFFFFFFFFFFFFFFFFFFFFFFFF AND PUSH20 0xFFFFFFFFFFFFFFFFFFFFFFFFFFFFFFFFFFFFFFFF AND DUP2 MSTORE PUSH1 0x20 ADD PUSH1 0x1 DUP3 ADD DUP1 SLOAD PUSH2 0x1737 SWAP1 PUSH2 0x4726 JUMP JUMPDEST DUP1 PUSH1 0x1F ADD PUSH1 0x20 DUP1 SWAP2 DIV MUL PUSH1 0x20 ADD PUSH1 0x40 MLOAD SWAP1 DUP2 ADD PUSH1 0x40 MSTORE DUP1 SWAP3 SWAP2 SWAP1 DUP2 DUP2 MSTORE PUSH1 0x20 ADD DUP3 DUP1 SLOAD PUSH2 0x1763 SWAP1 PUSH2 0x4726 JUMP JUMPDEST DUP1 ISZERO PUSH2 0x17B0 JUMPI DUP1 PUSH1 0x1F LT PUSH2 0x1785 JUMPI PUSH2 0x100 DUP1 DUP4 SLOAD DIV MUL DUP4 MSTORE SWAP2 PUSH1 0x20 ADD SWAP2 PUSH2 0x17B0 JUMP JUMPDEST DUP3 ADD SWAP2 SWAP1 PUSH1 0x0 MSTORE PUSH1 0x20 PUSH1 0x0 KECCAK256 SWAP1 JUMPDEST DUP2 SLOAD DUP2 MSTORE SWAP1 PUSH1 0x1 ADD SWAP1 PUSH1 0x20 ADD DUP1 DUP4 GT PUSH2 0x1793 JUMPI DUP3 SWAP1 SUB PUSH1 0x1F AND DUP3 ADD SWAP2 JUMPDEST POP POP POP POP POP DUP2 MSTORE PUSH1 0x20 ADD PUSH1 0x2 DUP3 ADD DUP1 SLOAD PUSH2 0x17C9 SWAP1 PUSH2 0x4726 JUMP JUMPDEST DUP1 PUSH1 0x1F ADD PUSH1 0x20 DUP1 SWAP2 DIV MUL PUSH1 0x20 ADD PUSH1 0x40 MLOAD SWAP1 DUP2 ADD PUSH1 0x40 MSTORE DUP1 SWAP3 SWAP2 SWAP1 DUP2 DUP2 MSTORE PUSH1 0x20 ADD DUP3 DUP1 SLOAD PUSH2 0x17F5 SWAP1 PUSH2 0x4726 JUMP JUMPDEST DUP1 ISZERO PUSH2 0x1842 JUMPI DUP1 PUSH1 0x1F LT PUSH2 0x1817 JUMPI PUSH2 0x100 DUP1 DUP4 SLOAD DIV MUL DUP4 MSTORE SWAP2 PUSH1 0x20 ADD SWAP2 PUSH2 0x1842 JUMP JUMPDEST DUP3 ADD SWAP2 SWAP1 PUSH1 0x0 MSTORE PUSH1 0x20 PUSH1 0x0 KECCAK256 SWAP1 JUMPDEST DUP2 SLOAD DUP2 MSTORE SWAP1 PUSH1 0x1 ADD SWAP1 PUSH1 0x20 ADD DUP1 DUP4 GT PUSH2 0x1825 JUMPI DUP3 SWAP1 SUB PUSH1 0x1F AND DUP3 ADD SWAP2 JUMPDEST POP POP POP POP POP DUP2 MSTORE PUSH1 0x20 ADD PUSH1 0x3 DUP3 ADD DUP1 SLOAD PUSH2 0x185B SWAP1 PUSH2 0x4726 JUMP JUMPDEST DUP1 PUSH1 0x1F ADD PUSH1 0x20 DUP1 SWAP2 DIV MUL PUSH1 0x20 ADD PUSH1 0x40 MLOAD SWAP1 DUP2 ADD PUSH1 0x40 MSTORE DUP1 SWAP3 SWAP2 SWAP1 DUP2 DUP2 MSTORE PUSH1 0x20 ADD DUP3 DUP1 SLOAD PUSH2 0x1887 SWAP1 PUSH2 0x4726 JUMP JUMPDEST DUP1 ISZERO PUSH2 0x18D4 JUMPI DUP1 PUSH1 0x1F LT PUSH2 0x18A9 JUMPI PUSH2 0x100 DUP1 DUP4 SLOAD DIV MUL DUP4 MSTORE SWAP2 PUSH1 0x20 ADD SWAP2 PUSH2 0x18D4 JUMP JUMPDEST DUP3 ADD SWAP2 SWAP1 PUSH1 0x0 MSTORE PUSH1 0x20 PUSH1 0x0 KECCAK256 SWAP1 JUMPDEST DUP2 SLOAD DUP2 MSTORE SWAP1 PUSH1 0x1 ADD SWAP1 PUSH1 0x20 ADD DUP1 DUP4 GT PUSH2 0x18B7 JUMPI DUP3 SWAP1 SUB PUSH1 0x1F AND DUP3 ADD SWAP2 JUMPDEST POP POP POP POP POP DUP2 MSTORE PUSH1 0x20 ADD PUSH1 0x4 DUP3 ADD DUP1 SLOAD PUSH2 0x18ED SWAP1 PUSH2 0x4726 JUMP JUMPDEST DUP1 PUSH1 0x1F ADD PUSH1 0x20 DUP1 SWAP2 DIV MUL PUSH1 0x20 ADD PUSH1 0x40 MLOAD SWAP1 DUP2 ADD PUSH1 0x40 MSTORE DUP1 SWAP3 SWAP2 SWAP1 DUP2 DUP2 MSTORE PUSH1 0x20 ADD DUP3 DUP1 SLOAD PUSH2 0x1919 SWAP1 PUSH2 0x4726 JUMP JUMPDEST DUP1 ISZERO PUSH2 0x1966 JUMPI DUP1 PUSH1 0x1F LT PUSH2 0x193B JUMPI PUSH2 0x100 DUP1 DUP4 SLOAD DIV MUL DUP4 MSTORE SWAP2 PUSH1 0x20 ADD SWAP2 PUSH2 0x1966 JUMP JUMPDEST DUP3 ADD SWAP2 SWAP1 PUSH1 0x0 MSTORE PUSH1 0x20 PUSH1 0x0 KECCAK256 SWAP1 JUMPDEST DUP2 SLOAD DUP2 MSTORE SWAP1 PUSH1 0x1 ADD SWAP1 PUSH1 0x20 ADD DUP1 DUP4 GT PUSH2 0x1949 JUMPI DUP3 SWAP1 SUB PUSH1 0x1F AND DUP3 ADD SWAP2 JUMPDEST POP POP POP POP POP DUP2 MSTORE PUSH1 0x20 ADD PUSH1 0x5 DUP3 ADD DUP1 SLOAD PUSH2 0x197F SWAP1 PUSH2 0x4726 JUMP JUMPDEST DUP1 PUSH1 0x1F ADD PUSH1 0x20 DUP1 SWAP2 DIV MUL PUSH1 0x20 ADD PUSH1 0x40 MLOAD SWAP1 DUP2 ADD PUSH1 0x40 MSTORE DUP1 SWAP3 SWAP2 SWAP1 DUP2 DUP2 MSTORE PUSH1 0x20 ADD DUP3 DUP1 SLOAD PUSH2 0x19AB SWAP1 PUSH2 0x4726 JUMP JUMPDEST DUP1 ISZERO PUSH2 0x19F8 JUMPI DUP1 PUSH1 0x1F LT PUSH2 0x19CD JUMPI PUSH2 0x100 DUP1 DUP4 SLOAD DIV MUL DUP4 MSTORE SWAP2 PUSH1 0x20 ADD SWAP2 PUSH2 0x19F8 JUMP JUMPDEST DUP3 ADD SWAP2 SWAP1 PUSH1 0x0 MSTORE PUSH1 0x20 PUSH1 0x0 KECCAK256 SWAP1 JUMPDEST DUP2 SLOAD DUP2 MSTORE SWAP1 PUSH1 0x1 ADD SWAP1 PUSH1 0x20 ADD DUP1 DUP4 GT PUSH2 0x19DB JUMPI DUP3 SWAP1 SUB PUSH1 0x1F AND DUP3 ADD SWAP2 JUMPDEST POP POP POP POP POP DUP2 MSTORE PUSH1 0x20 ADD PUSH1 0x6 DUP3 ADD DUP1 SLOAD PUSH2 0x1A11 SWAP1 PUSH2 0x4726 JUMP JUMPDEST DUP1 PUSH1 0x1F ADD PUSH1 0x20 DUP1 SWAP2 DIV MUL PUSH1 0x20 ADD PUSH1 0x40 MLOAD SWAP1 DUP2 ADD PUSH1 0x40 MSTORE DUP1 SWAP3 SWAP2 SWAP1 DUP2 DUP2 MSTORE PUSH1 0x20 ADD DUP3 DUP1 SLOAD PUSH2 0x1A3D SWAP1 PUSH2 0x4726 JUMP JUMPDEST DUP1 ISZERO PUSH2 0x1A8A JUMPI DUP1 PUSH1 0x1F LT PUSH2 0x1A5F JUMPI PUSH2 0x100 DUP1 DUP4 SLOAD DIV MUL DUP4 MSTORE SWAP2 PUSH1 0x20 ADD SWAP2 PUSH2 0x1A8A JUMP JUMPDEST DUP3 ADD SWAP2 SWAP1 PUSH1 0x0 MSTORE PUSH1 0x20 PUSH1 0x0 KECCAK256 SWAP1 JUMPDEST DUP2 SLOAD DUP2 MSTORE SWAP1 PUSH1 0x1 ADD SWAP1 PUSH1 0x20 ADD DUP1 DUP4 GT PUSH2 0x1A6D JUMPI DUP3 SWAP1 SUB PUSH1 0x1F AND DUP3 ADD SWAP2 JUMPDEST POP POP POP POP POP DUP2 MSTORE PUSH1 0x20 ADD PUSH1 0x7 DUP3 ADD DUP1 SLOAD PUSH2 0x1AA3 SWAP1 PUSH2 0x4726 JUMP JUMPDEST DUP1 PUSH1 0x1F ADD PUSH1 0x20 DUP1 SWAP2 DIV MUL PUSH1 0x20 ADD PUSH1 0x40 MLOAD SWAP1 DUP2 ADD PUSH1 0x40 MSTORE DUP1 SWAP3 SWAP2 SWAP1 DUP2 DUP2 MSTORE PUSH1 0x20 ADD DUP3 DUP1 SLOAD PUSH2 0x1ACF SWAP1 PUSH2 0x4726 JUMP JUMPDEST DUP1 ISZERO PUSH2 0x1B1C JUMPI DUP1 PUSH1 0x1F LT PUSH2 0x1AF1 JUMPI PUSH2 0x100 DUP1 DUP4 SLOAD DIV MUL DUP4 MSTORE SWAP2 PUSH1 0x20 ADD SWAP2 PUSH2 0x1B1C JUMP JUMPDEST DUP3 ADD SWAP2 SWAP1 PUSH1 0x0 MSTORE PUSH1 0x20 PUSH1 0x0 KECCAK256 SWAP1 JUMPDEST DUP2 SLOAD DUP2 MSTORE SWAP1 PUSH1 0x1 ADD SWAP1 PUSH1 0x20 ADD DUP1 DUP4 GT PUSH2 0x1AFF JUMPI DUP3 SWAP1 SUB PUSH1 0x1F AND DUP3 ADD SWAP2 JUMPDEST POP POP POP POP POP DUP2 MSTORE PUSH1 0x20 ADD PUSH1 0x8 DUP3 ADD DUP1 SLOAD PUSH2 0x1B35 SWAP1 PUSH2 0x4726 JUMP JUMPDEST DUP1 PUSH1 0x1F ADD PUSH1 0x20 DUP1 SWAP2 DIV MUL PUSH1 0x20 ADD PUSH1 0x40 MLOAD SWAP1 DUP2 ADD PUSH1 0x40 MSTORE DUP1 SWAP3 SWAP2 SWAP1 DUP2 DUP2 MSTORE PUSH1 0x20 ADD DUP3 DUP1 SLOAD PUSH2 0x1B61 SWAP1 PUSH2 0x4726 JUMP JUMPDEST DUP1 ISZERO PUSH2 0x1BAE JUMPI DUP1 PUSH1 0x1F LT PUSH2 0x1B83 JUMPI PUSH2 0x100 DUP1 DUP4 SLOAD DIV MUL DUP4 MSTORE SWAP2 PUSH1 0x20 ADD SWAP2 PUSH2 0x1BAE JUMP JUMPDEST DUP3 ADD SWAP2 SWAP1 PUSH1 0x0 MSTORE PUSH1 0x20 PUSH1 0x0 KECCAK256 SWAP1 JUMPDEST DUP2 SLOAD DUP2 MSTORE SWAP1 PUSH1 0x1 ADD SWAP1 PUSH1 0x20 ADD DUP1 DUP4 GT PUSH2 0x1B91 JUMPI DUP3 SWAP1 SUB PUSH1 0x1F AND DUP3 ADD SWAP2 JUMPDEST POP POP POP POP POP DUP2 MSTORE PUSH1 0x20 ADD PUSH1 0x9 DUP3 ADD PUSH1 0x0 SWAP1 SLOAD SWAP1 PUSH2 0x100 EXP SWAP1 DIV PUSH1 0xFF AND ISZERO ISZERO ISZERO ISZERO DUP2 MSTORE POP POP DUP2 MSTORE PUSH1 0x20 ADD SWAP1 PUSH1 0x1 ADD SWAP1 PUSH2 0x16AD JUMP JUMPDEST POP POP POP POP SWAP1 POP SWAP2 POP SWAP2 POP SWAP2 POP SWAP2 JUMP JUMPDEST PUSH2 0x1BF8 PUSH2 0x30ED JUMP JUMPDEST PUSH1 0x60 PUSH1 0x0 DUP1 DUP5 PUSH20 0xFFFFFFFFFFFFFFFFFFFFFFFFFFFFFFFFFFFFFFFF AND PUSH20 0xFFFFFFFFFFFFFFFFFFFFFFFFFFFFFFFFFFFFFFFF AND DUP2 MSTORE PUSH1 0x20 ADD SWAP1 DUP2 MSTORE PUSH1 0x20 ADD PUSH1 0x0 KECCAK256 PUSH1 0x4 PUSH1 0x0 DUP6 PUSH20 0xFFFFFFFFFFFFFFFFFFFFFFFFFFFFFFFFFFFFFFFF AND PUSH20 0xFFFFFFFFFFFFFFFFFFFFFFFFFFFFFFFFFFFFFFFF AND DUP2 MSTORE PUSH1 0x20 ADD SWAP1 DUP2 MSTORE PUSH1 0x20 ADD PUSH1 0x0 KECCAK256 DUP2 PUSH1 0x40 MLOAD DUP1 PUSH1 0xA0 ADD PUSH1 0x40 MSTORE SWAP1 DUP2 PUSH1 0x0 DUP3 ADD PUSH1 0x0 SWAP1 SLOAD SWAP1 PUSH2 0x100 EXP SWAP1 DIV PUSH20 0xFFFFFFFFFFFFFFFFFFFFFFFFFFFFFFFFFFFFFFFF AND PUSH20 0xFFFFFFFFFFFFFFFFFFFFFFFFFFFFFFFFFFFFFFFF AND PUSH20 0xFFFFFFFFFFFFFFFFFFFFFFFFFFFFFFFFFFFFFFFF AND DUP2 MSTORE PUSH1 0x20 ADD PUSH1 0x1 DUP3 ADD DUP1 SLOAD PUSH2 0x1CE9 SWAP1 PUSH2 0x4726 JUMP JUMPDEST DUP1 PUSH1 0x1F ADD PUSH1 0x20 DUP1 SWAP2 DIV MUL PUSH1 0x20 ADD PUSH1 0x40 MLOAD SWAP1 DUP2 ADD PUSH1 0x40 MSTORE DUP1 SWAP3 SWAP2 SWAP1 DUP2 DUP2 MSTORE PUSH1 0x20 ADD DUP3 DUP1 SLOAD PUSH2 0x1D15 SWAP1 PUSH2 0x4726 JUMP JUMPDEST DUP1 ISZERO PUSH2 0x1D62 JUMPI DUP1 PUSH1 0x1F LT PUSH2 0x1D37 JUMPI PUSH2 0x100 DUP1 DUP4 SLOAD DIV MUL DUP4 MSTORE SWAP2 PUSH1 0x20 ADD SWAP2 PUSH2 0x1D62 JUMP JUMPDEST DUP3 ADD SWAP2 SWAP1 PUSH1 0x0 MSTORE PUSH1 0x20 PUSH1 0x0 KECCAK256 SWAP1 JUMPDEST DUP2 SLOAD DUP2 MSTORE SWAP1 PUSH1 0x1 ADD SWAP1 PUSH1 0x20 ADD DUP1 DUP4 GT PUSH2 0x1D45 JUMPI DUP3 SWAP1 SUB PUSH1 0x1F AND DUP3 ADD SWAP2 JUMPDEST POP POP POP POP POP DUP2 MSTORE PUSH1 0x20 ADD PUSH1 0x2 DUP3 ADD SLOAD DUP2 MSTORE PUSH1 0x20 ADD PUSH1 0x3 DUP3 ADD DUP1 SLOAD PUSH2 0x1D85 SWAP1 PUSH2 0x4726 JUMP JUMPDEST DUP1 PUSH1 0x1F ADD PUSH1 0x20 DUP1 SWAP2 DIV MUL PUSH1 0x20 ADD PUSH1 0x40 MLOAD SWAP1 DUP2 ADD PUSH1 0x40 MSTORE DUP1 SWAP3 SWAP2 SWAP1 DUP2 DUP2 MSTORE PUSH1 0x20 ADD DUP3 DUP1 SLOAD PUSH2 0x1DB1 SWAP1 PUSH2 0x4726 JUMP JUMPDEST DUP1 ISZERO PUSH2 0x1DFE JUMPI DUP1 PUSH1 0x1F LT PUSH2 0x1DD3 JUMPI PUSH2 0x100 DUP1 DUP4 SLOAD DIV MUL DUP4 MSTORE SWAP2 PUSH1 0x20 ADD SWAP2 PUSH2 0x1DFE JUMP JUMPDEST DUP3 ADD SWAP2 SWAP1 PUSH1 0x0 MSTORE PUSH1 0x20 PUSH1 0x0 KECCAK256 SWAP1 JUMPDEST DUP2 SLOAD DUP2 MSTORE SWAP1 PUSH1 0x1 ADD SWAP1 PUSH1 0x20 ADD DUP1 DUP4 GT PUSH2 0x1DE1 JUMPI DUP3 SWAP1 SUB PUSH1 0x1F AND DUP3 ADD SWAP2 JUMPDEST POP POP POP POP POP DUP2 MSTORE PUSH1 0x20 ADD PUSH1 0x4 DUP3 ADD DUP1 SLOAD PUSH2 0x1E17 SWAP1 PUSH2 0x4726 JUMP JUMPDEST DUP1 PUSH1 0x1F ADD PUSH1 0x20 DUP1 SWAP2 DIV MUL PUSH1 0x20 ADD PUSH1 0x40 MLOAD SWAP1 DUP2 ADD PUSH1 0x40 MSTORE DUP1 SWAP3 SWAP2 SWAP1 DUP2 DUP2 MSTORE PUSH1 0x20 ADD DUP3 DUP1 SLOAD PUSH2 0x1E43 SWAP1 PUSH2 0x4726 JUMP JUMPDEST DUP1 ISZERO PUSH2 0x1E90 JUMPI DUP1 PUSH1 0x1F LT PUSH2 0x1E65 JUMPI PUSH2 0x100 DUP1 DUP4 SLOAD DIV MUL DUP4 MSTORE SWAP2 PUSH1 0x20 ADD SWAP2 PUSH2 0x1E90 JUMP JUMPDEST DUP3 ADD SWAP2 SWAP1 PUSH1 0x0 MSTORE PUSH1 0x20 PUSH1 0x0 KECCAK256 SWAP1 JUMPDEST DUP2 SLOAD DUP2 MSTORE SWAP1 PUSH1 0x1 ADD SWAP1 PUSH1 0x20 ADD DUP1 DUP4 GT PUSH2 0x1E73 JUMPI DUP3 SWAP1 SUB PUSH1 0x1F AND DUP3 ADD SWAP2 JUMPDEST POP POP POP POP POP DUP2 MSTORE POP POP SWAP2 POP DUP1 DUP1 SLOAD DUP1 PUSH1 0x20 MUL PUSH1 0x20 ADD PUSH1 0x40 MLOAD SWAP1 DUP2 ADD PUSH1 0x40 MSTORE DUP1 SWAP3 SWAP2 SWAP1 DUP2 DUP2 MSTORE PUSH1 0x20 ADD PUSH1 0x0 SWAP1 JUMPDEST DUP3 DUP3 LT ISZERO PUSH2 0x261D JUMPI DUP4 DUP3 SWAP1 PUSH1 0x0 MSTORE PUSH1 0x20 PUSH1 0x0 KECCAK256 SWAP1 PUSH1 0xD MUL ADD PUSH1 0x40 MLOAD DUP1 PUSH2 0x1A0 ADD PUSH1 0x40 MSTORE SWAP1 DUP2 PUSH1 0x0 DUP3 ADD PUSH1 0x0 SWAP1 SLOAD SWAP1 PUSH2 0x100 EXP SWAP1 DIV PUSH20 0xFFFFFFFFFFFFFFFFFFFFFFFFFFFFFFFFFFFFFFFF AND PUSH20 0xFFFFFFFFFFFFFFFFFFFFFFFFFFFFFFFFFFFFFFFF AND PUSH20 0xFFFFFFFFFFFFFFFFFFFFFFFFFFFFFFFFFFFFFFFF AND DUP2 MSTORE PUSH1 0x20 ADD PUSH1 0x1 DUP3 ADD DUP1 SLOAD PUSH2 0x1F46 SWAP1 PUSH2 0x4726 JUMP JUMPDEST DUP1 PUSH1 0x1F ADD PUSH1 0x20 DUP1 SWAP2 DIV MUL PUSH1 0x20 ADD PUSH1 0x40 MLOAD SWAP1 DUP2 ADD PUSH1 0x40 MSTORE DUP1 SWAP3 SWAP2 SWAP1 DUP2 DUP2 MSTORE PUSH1 0x20 ADD DUP3 DUP1 SLOAD PUSH2 0x1F72 SWAP1 PUSH2 0x4726 JUMP JUMPDEST DUP1 ISZERO PUSH2 0x1FBF JUMPI DUP1 PUSH1 0x1F LT PUSH2 0x1F94 JUMPI PUSH2 0x100 DUP1 DUP4 SLOAD DIV MUL DUP4 MSTORE SWAP2 PUSH1 0x20 ADD SWAP2 PUSH2 0x1FBF JUMP JUMPDEST DUP3 ADD SWAP2 SWAP1 PUSH1 0x0 MSTORE PUSH1 0x20 PUSH1 0x0 KECCAK256 SWAP1 JUMPDEST DUP2 SLOAD DUP2 MSTORE SWAP1 PUSH1 0x1 ADD SWAP1 PUSH1 0x20 ADD DUP1 DUP4 GT PUSH2 0x1FA2 JUMPI DUP3 SWAP1 SUB PUSH1 0x1F AND DUP3 ADD SWAP2 JUMPDEST POP POP POP POP POP DUP2 MSTORE PUSH1 0x20 ADD PUSH1 0x2 DUP3 ADD DUP1 SLOAD PUSH2 0x1FD8 SWAP1 PUSH2 0x4726 JUMP JUMPDEST DUP1 PUSH1 0x1F ADD PUSH1 0x20 DUP1 SWAP2 DIV MUL PUSH1 0x20 ADD PUSH1 0x40 MLOAD SWAP1 DUP2 ADD PUSH1 0x40 MSTORE DUP1 SWAP3 SWAP2 SWAP1 DUP2 DUP2 MSTORE PUSH1 0x20 ADD DUP3 DUP1 SLOAD PUSH2 0x2004 SWAP1 PUSH2 0x4726 JUMP JUMPDEST DUP1 ISZERO PUSH2 0x2051 JUMPI DUP1 PUSH1 0x1F LT PUSH2 0x2026 JUMPI PUSH2 0x100 DUP1 DUP4 SLOAD DIV MUL DUP4 MSTORE SWAP2 PUSH1 0x20 ADD SWAP2 PUSH2 0x2051 JUMP JUMPDEST DUP3 ADD SWAP2 SWAP1 PUSH1 0x0 MSTORE PUSH1 0x20 PUSH1 0x0 KECCAK256 SWAP1 JUMPDEST DUP2 SLOAD DUP2 MSTORE SWAP1 PUSH1 0x1 ADD SWAP1 PUSH1 0x20 ADD DUP1 DUP4 GT PUSH2 0x2034 JUMPI DUP3 SWAP1 SUB PUSH1 0x1F AND DUP3 ADD SWAP2 JUMPDEST POP POP POP POP POP DUP2 MSTORE PUSH1 0x20 ADD PUSH1 0x3 DUP3 ADD DUP1 SLOAD PUSH2 0x206A SWAP1 PUSH2 0x4726 JUMP JUMPDEST DUP1 PUSH1 0x1F ADD PUSH1 0x20 DUP1 SWAP2 DIV MUL PUSH1 0x20 ADD PUSH1 0x40 MLOAD SWAP1 DUP2 ADD PUSH1 0x40 MSTORE DUP1 SWAP3 SWAP2 SWAP1 DUP2 DUP2 MSTORE PUSH1 0x20 ADD DUP3 DUP1 SLOAD PUSH2 0x2096 SWAP1 PUSH2 0x4726 JUMP JUMPDEST DUP1 ISZERO PUSH2 0x20E3 JUMPI DUP1 PUSH1 0x1F LT PUSH2 0x20B8 JUMPI PUSH2 0x100 DUP1 DUP4 SLOAD DIV MUL DUP4 MSTORE SWAP2 PUSH1 0x20 ADD SWAP2 PUSH2 0x20E3 JUMP JUMPDEST DUP3 ADD SWAP2 SWAP1 PUSH1 0x0 MSTORE PUSH1 0x20 PUSH1 0x0 KECCAK256 SWAP1 JUMPDEST DUP2 SLOAD DUP2 MSTORE SWAP1 PUSH1 0x1 ADD SWAP1 PUSH1 0x20 ADD DUP1 DUP4 GT PUSH2 0x20C6 JUMPI DUP3 SWAP1 SUB PUSH1 0x1F AND DUP3 ADD SWAP2 JUMPDEST POP POP POP POP POP DUP2 MSTORE PUSH1 0x20 ADD PUSH1 0x4 DUP3 ADD DUP1 SLOAD PUSH2 0x20FC SWAP1 PUSH2 0x4726 JUMP JUMPDEST DUP1 PUSH1 0x1F ADD PUSH1 0x20 DUP1 SWAP2 DIV MUL PUSH1 0x20 ADD PUSH1 0x40 MLOAD SWAP1 DUP2 ADD PUSH1 0x40 MSTORE DUP1 SWAP3 SWAP2 SWAP1 DUP2 DUP2 MSTORE PUSH1 0x20 ADD DUP3 DUP1 SLOAD PUSH2 0x2128 SWAP1 PUSH2 0x4726 JUMP JUMPDEST DUP1 ISZERO PUSH2 0x2175 JUMPI DUP1 PUSH1 0x1F LT PUSH2 0x214A JUMPI PUSH2 0x100 DUP1 DUP4 SLOAD DIV MUL DUP4 MSTORE SWAP2 PUSH1 0x20 ADD SWAP2 PUSH2 0x2175 JUMP JUMPDEST DUP3 ADD SWAP2 SWAP1 PUSH1 0x0 MSTORE PUSH1 0x20 PUSH1 0x0 KECCAK256 SWAP1 JUMPDEST DUP2 SLOAD DUP2 MSTORE SWAP1 PUSH1 0x1 ADD SWAP1 PUSH1 0x20 ADD DUP1 DUP4 GT PUSH2 0x2158 JUMPI DUP3 SWAP1 SUB PUSH1 0x1F AND DUP3 ADD SWAP2 JUMPDEST POP POP POP POP POP DUP2 MSTORE PUSH1 0x20 ADD PUSH1 0x5 DUP3 ADD DUP1 SLOAD PUSH2 0x218E SWAP1 PUSH2 0x4726 JUMP JUMPDEST DUP1 PUSH1 0x1F ADD PUSH1 0x20 DUP1 SWAP2 DIV MUL PUSH1 0x20 ADD PUSH1 0x40 MLOAD SWAP1 DUP2 ADD PUSH1 0x40 MSTORE DUP1 SWAP3 SWAP2 SWAP1 DUP2 DUP2 MSTORE PUSH1 0x20 ADD DUP3 DUP1 SLOAD PUSH2 0x21BA SWAP1 PUSH2 0x4726 JUMP JUMPDEST DUP1 ISZERO PUSH2 0x2207 JUMPI DUP1 PUSH1 0x1F LT PUSH2 0x21DC JUMPI PUSH2 0x100 DUP1 DUP4 SLOAD DIV MUL DUP4 MSTORE SWAP2 PUSH1 0x20 ADD SWAP2 PUSH2 0x2207 JUMP JUMPDEST DUP3 ADD SWAP2 SWAP1 PUSH1 0x0 MSTORE PUSH1 0x20 PUSH1 0x0 KECCAK256 SWAP1 JUMPDEST DUP2 SLOAD DUP2 MSTORE SWAP1 PUSH1 0x1 ADD SWAP1 PUSH1 0x20 ADD DUP1 DUP4 GT PUSH2 0x21EA JUMPI DUP3 SWAP1 SUB PUSH1 0x1F AND DUP3 ADD SWAP2 JUMPDEST POP POP POP POP POP DUP2 MSTORE PUSH1 0x20 ADD PUSH1 0x6 DUP3 ADD DUP1 SLOAD PUSH2 0x2220 SWAP1 PUSH2 0x4726 JUMP JUMPDEST DUP1 PUSH1 0x1F ADD PUSH1 0x20 DUP1 SWAP2 DIV MUL PUSH1 0x20 ADD PUSH1 0x40 MLOAD SWAP1 DUP2 ADD PUSH1 0x40 MSTORE DUP1 SWAP3 SWAP2 SWAP1 DUP2 DUP2 MSTORE PUSH1 0x20 ADD DUP3 DUP1 SLOAD PUSH2 0x224C SWAP1 PUSH2 0x4726 JUMP JUMPDEST DUP1 ISZERO PUSH2 0x2299 JUMPI DUP1 PUSH1 0x1F LT PUSH2 0x226E JUMPI PUSH2 0x100 DUP1 DUP4 SLOAD DIV MUL DUP4 MSTORE SWAP2 PUSH1 0x20 ADD SWAP2 PUSH2 0x2299 JUMP JUMPDEST DUP3 ADD SWAP2 SWAP1 PUSH1 0x0 MSTORE PUSH1 0x20 PUSH1 0x0 KECCAK256 SWAP1 JUMPDEST DUP2 SLOAD DUP2 MSTORE SWAP1 PUSH1 0x1 ADD SWAP1 PUSH1 0x20 ADD DUP1 DUP4 GT PUSH2 0x227C JUMPI DUP3 SWAP1 SUB PUSH1 0x1F AND DUP3 ADD SWAP2 JUMPDEST POP POP POP POP POP DUP2 MSTORE PUSH1 0x20 ADD PUSH1 0x7 DUP3 ADD DUP1 SLOAD PUSH2 0x22B2 SWAP1 PUSH2 0x4726 JUMP JUMPDEST DUP1 PUSH1 0x1F ADD PUSH1 0x20 DUP1 SWAP2 DIV MUL PUSH1 0x20 ADD PUSH1 0x40 MLOAD SWAP1 DUP2 ADD PUSH1 0x40 MSTORE DUP1 SWAP3 SWAP2 SWAP1 DUP2 DUP2 MSTORE PUSH1 0x20 ADD DUP3 DUP1 SLOAD PUSH2 0x22DE SWAP1 PUSH2 0x4726 JUMP JUMPDEST DUP1 ISZERO PUSH2 0x232B JUMPI DUP1 PUSH1 0x1F LT PUSH2 0x2300 JUMPI PUSH2 0x100 DUP1 DUP4 SLOAD DIV MUL DUP4 MSTORE SWAP2 PUSH1 0x20 ADD SWAP2 PUSH2 0x232B JUMP JUMPDEST DUP3 ADD SWAP2 SWAP1 PUSH1 0x0 MSTORE PUSH1 0x20 PUSH1 0x0 KECCAK256 SWAP1 JUMPDEST DUP2 SLOAD DUP2 MSTORE SWAP1 PUSH1 0x1 ADD SWAP1 PUSH1 0x20 ADD DUP1 DUP4 GT PUSH2 0x230E JUMPI DUP3 SWAP1 SUB PUSH1 0x1F AND DUP3 ADD SWAP2 JUMPDEST POP POP POP POP POP DUP2 MSTORE PUSH1 0x20 ADD PUSH1 0x8 DUP3 ADD DUP1 SLOAD PUSH2 0x2344 SWAP1 PUSH2 0x4726 JUMP JUMPDEST DUP1 PUSH1 0x1F ADD PUSH1 0x20 DUP1 SWAP2 DIV MUL PUSH1 0x20 ADD PUSH1 0x40 MLOAD SWAP1 DUP2 ADD PUSH1 0x40 MSTORE DUP1 SWAP3 SWAP2 SWAP1 DUP2 DUP2 MSTORE PUSH1 0x20 ADD DUP3 DUP1 SLOAD PUSH2 0x2370 SWAP1 PUSH2 0x4726 JUMP JUMPDEST DUP1 ISZERO PUSH2 0x23BD JUMPI DUP1 PUSH1 0x1F LT PUSH2 0x2392 JUMPI PUSH2 0x100 DUP1 DUP4 SLOAD DIV MUL DUP4 MSTORE SWAP2 PUSH1 0x20 ADD SWAP2 PUSH2 0x23BD JUMP JUMPDEST DUP3 ADD SWAP2 SWAP1 PUSH1 0x0 MSTORE PUSH1 0x20 PUSH1 0x0 KECCAK256 SWAP1 JUMPDEST DUP2 SLOAD DUP2 MSTORE SWAP1 PUSH1 0x1 ADD SWAP1 PUSH1 0x20 ADD DUP1 DUP4 GT PUSH2 0x23A0 JUMPI DUP3 SWAP1 SUB PUSH1 0x1F AND DUP3 ADD SWAP2 JUMPDEST POP POP POP POP POP DUP2 MSTORE PUSH1 0x20 ADD PUSH1 0x9 DUP3 ADD DUP1 SLOAD PUSH2 0x23D6 SWAP1 PUSH2 0x4726 JUMP JUMPDEST DUP1 PUSH1 0x1F ADD PUSH1 0x20 DUP1 SWAP2 DIV MUL PUSH1 0x20 ADD PUSH1 0x40 MLOAD SWAP1 DUP2 ADD PUSH1 0x40 MSTORE DUP1 SWAP3 SWAP2 SWAP1 DUP2 DUP2 MSTORE PUSH1 0x20 ADD DUP3 DUP1 SLOAD PUSH2 0x2402 SWAP1 PUSH2 0x4726 JUMP JUMPDEST DUP1 ISZERO PUSH2 0x244F JUMPI DUP1 PUSH1 0x1F LT PUSH2 0x2424 JUMPI PUSH2 0x100 DUP1 DUP4 SLOAD DIV MUL DUP4 MSTORE SWAP2 PUSH1 0x20 ADD SWAP2 PUSH2 0x244F JUMP JUMPDEST DUP3 ADD SWAP2 SWAP1 PUSH1 0x0 MSTORE PUSH1 0x20 PUSH1 0x0 KECCAK256 SWAP1 JUMPDEST DUP2 SLOAD DUP2 MSTORE SWAP1 PUSH1 0x1 ADD SWAP1 PUSH1 0x20 ADD DUP1 DUP4 GT PUSH2 0x2432 JUMPI DUP3 SWAP1 SUB PUSH1 0x1F AND DUP3 ADD SWAP2 JUMPDEST POP POP POP POP POP DUP2 MSTORE PUSH1 0x20 ADD PUSH1 0xA DUP3 ADD DUP1 SLOAD PUSH2 0x2468 SWAP1 PUSH2 0x4726 JUMP JUMPDEST DUP1 PUSH1 0x1F ADD PUSH1 0x20 DUP1 SWAP2 DIV MUL PUSH1 0x20 ADD PUSH1 0x40 MLOAD SWAP1 DUP2 ADD PUSH1 0x40 MSTORE DUP1 SWAP3 SWAP2 SWAP1 DUP2 DUP2 MSTORE PUSH1 0x20 ADD DUP3 DUP1 SLOAD PUSH2 0x2494 SWAP1 PUSH2 0x4726 JUMP JUMPDEST DUP1 ISZERO PUSH2 0x24E1 JUMPI DUP1 PUSH1 0x1F LT PUSH2 0x24B6 JUMPI PUSH2 0x100 DUP1 DUP4 SLOAD DIV MUL DUP4 MSTORE SWAP2 PUSH1 0x20 ADD SWAP2 PUSH2 0x24E1 JUMP JUMPDEST DUP3 ADD SWAP2 SWAP1 PUSH1 0x0 MSTORE PUSH1 0x20 PUSH1 0x0 KECCAK256 SWAP1 JUMPDEST DUP2 SLOAD DUP2 MSTORE SWAP1 PUSH1 0x1 ADD SWAP1 PUSH1 0x20 ADD DUP1 DUP4 GT PUSH2 0x24C4 JUMPI DUP3 SWAP1 SUB PUSH1 0x1F AND DUP3 ADD SWAP2 JUMPDEST POP POP POP POP POP DUP2 MSTORE PUSH1 0x20 ADD PUSH1 0xB DUP3 ADD DUP1 SLOAD PUSH2 0x24FA SWAP1 PUSH2 0x4726 JUMP JUMPDEST DUP1 PUSH1 0x1F ADD PUSH1 0x20 DUP1 SWAP2 DIV MUL PUSH1 0x20 ADD PUSH1 0x40 MLOAD SWAP1 DUP2 ADD PUSH1 0x40 MSTORE DUP1 SWAP3 SWAP2 SWAP1 DUP2 DUP2 MSTORE PUSH1 0x20 ADD DUP3 DUP1 SLOAD PUSH2 0x2526 SWAP1 PUSH2 0x4726 JUMP JUMPDEST DUP1 ISZERO PUSH2 0x2573 JUMPI DUP1 PUSH1 0x1F LT PUSH2 0x2548 JUMPI PUSH2 0x100 DUP1 DUP4 SLOAD DIV MUL DUP4 MSTORE SWAP2 PUSH1 0x20 ADD SWAP2 PUSH2 0x2573 JUMP JUMPDEST DUP3 ADD SWAP2 SWAP1 PUSH1 0x0 MSTORE PUSH1 0x20 PUSH1 0x0 KECCAK256 SWAP1 JUMPDEST DUP2 SLOAD DUP2 MSTORE SWAP1 PUSH1 0x1 ADD SWAP1 PUSH1 0x20 ADD DUP1 DUP4 GT PUSH2 0x2556 JUMPI DUP3 SWAP1 SUB PUSH1 0x1F AND DUP3 ADD SWAP2 JUMPDEST POP POP POP POP POP DUP2 MSTORE PUSH1 0x20 ADD PUSH1 0xC DUP3 ADD DUP1 SLOAD PUSH2 0x258C SWAP1 PUSH2 0x4726 JUMP JUMPDEST DUP1 PUSH1 0x1F ADD PUSH1 0x20 DUP1 SWAP2 DIV MUL PUSH1 0x20 ADD PUSH1 0x40 MLOAD SWAP1 DUP2 ADD PUSH1 0x40 MSTORE DUP1 SWAP3 SWAP2 SWAP1 DUP2 DUP2 MSTORE PUSH1 0x20 ADD DUP3 DUP1 SLOAD PUSH2 0x25B8 SWAP1 PUSH2 0x4726 JUMP JUMPDEST DUP1 ISZERO PUSH2 0x2605 JUMPI DUP1 PUSH1 0x1F LT PUSH2 0x25DA JUMPI PUSH2 0x100 DUP1 DUP4 SLOAD DIV MUL DUP4 MSTORE SWAP2 PUSH1 0x20 ADD SWAP2 PUSH2 0x2605 JUMP JUMPDEST DUP3 ADD SWAP2 SWAP1 PUSH1 0x0 MSTORE PUSH1 0x20 PUSH1 0x0 KECCAK256 SWAP1 JUMPDEST DUP2 SLOAD DUP2 MSTORE SWAP1 PUSH1 0x1 ADD SWAP1 PUSH1 0x20 ADD DUP1 DUP4 GT PUSH2 0x25E8 JUMPI DUP3 SWAP1 SUB PUSH1 0x1F AND DUP3 ADD SWAP2 JUMPDEST POP POP POP POP POP DUP2 MSTORE POP POP DUP2 MSTORE PUSH1 0x20 ADD SWAP1 PUSH1 0x1 ADD SWAP1 PUSH2 0x1EBC JUMP JUMPDEST POP POP POP POP SWAP1 POP SWAP2 POP SWAP2 POP SWAP2 POP SWAP2 JUMP JUMPDEST PUSH2 0x2634 PUSH2 0x30ED JUMP JUMPDEST PUSH1 0x60 PUSH1 0x0 DUP1 DUP5 PUSH20 0xFFFFFFFFFFFFFFFFFFFFFFFFFFFFFFFFFFFFFFFF AND PUSH20 0xFFFFFFFFFFFFFFFFFFFFFFFFFFFFFFFFFFFFFFFF AND DUP2 MSTORE PUSH1 0x20 ADD SWAP1 DUP2 MSTORE PUSH1 0x20 ADD PUSH1 0x0 KECCAK256 PUSH1 0x3 PUSH1 0x0 DUP6 PUSH20 0xFFFFFFFFFFFFFFFFFFFFFFFFFFFFFFFFFFFFFFFF AND PUSH20 0xFFFFFFFFFFFFFFFFFFFFFFFFFFFFFFFFFFFFFFFF AND DUP2 MSTORE PUSH1 0x20 ADD SWAP1 DUP2 MSTORE PUSH1 0x20 ADD PUSH1 0x0 KECCAK256 DUP2 PUSH1 0x40 MLOAD DUP1 PUSH1 0xA0 ADD PUSH1 0x40 MSTORE SWAP1 DUP2 PUSH1 0x0 DUP3 ADD PUSH1 0x0 SWAP1 SLOAD SWAP1 PUSH2 0x100 EXP SWAP1 DIV PUSH20 0xFFFFFFFFFFFFFFFFFFFFFFFFFFFFFFFFFFFFFFFF AND PUSH20 0xFFFFFFFFFFFFFFFFFFFFFFFFFFFFFFFFFFFFFFFF AND PUSH20 0xFFFFFFFFFFFFFFFFFFFFFFFFFFFFFFFFFFFFFFFF AND DUP2 MSTORE PUSH1 0x20 ADD PUSH1 0x1 DUP3 ADD DUP1 SLOAD PUSH2 0x2725 SWAP1 PUSH2 0x4726 JUMP JUMPDEST DUP1 PUSH1 0x1F ADD PUSH1 0x20 DUP1 SWAP2 DIV MUL PUSH1 0x20 ADD PUSH1 0x40 MLOAD SWAP1 DUP2 ADD PUSH1 0x40 MSTORE DUP1 SWAP3 SWAP2 SWAP1 DUP2 DUP2 MSTORE PUSH1 0x20 ADD DUP3 DUP1 SLOAD PUSH2 0x2751 SWAP1 PUSH2 0x4726 JUMP JUMPDEST DUP1 ISZERO PUSH2 0x279E JUMPI DUP1 PUSH1 0x1F LT PUSH2 0x2773 JUMPI PUSH2 0x100 DUP1 DUP4 SLOAD DIV MUL DUP4 MSTORE SWAP2 PUSH1 0x20 ADD SWAP2 PUSH2 0x279E JUMP JUMPDEST DUP3 ADD SWAP2 SWAP1 PUSH1 0x0 MSTORE PUSH1 0x20 PUSH1 0x0 KECCAK256 SWAP1 JUMPDEST DUP2 SLOAD DUP2 MSTORE SWAP1 PUSH1 0x1 ADD SWAP1 PUSH1 0x20 ADD DUP1 DUP4 GT PUSH2 0x2781 JUMPI DUP3 SWAP1 SUB PUSH1 0x1F AND DUP3 ADD SWAP2 JUMPDEST POP POP POP POP POP DUP2 MSTORE PUSH1 0x20 ADD PUSH1 0x2 DUP3 ADD SLOAD DUP2 MSTORE PUSH1 0x20 ADD PUSH1 0x3 DUP3 ADD DUP1 SLOAD PUSH2 0x27C1 SWAP1 PUSH2 0x4726 JUMP JUMPDEST DUP1 PUSH1 0x1F ADD PUSH1 0x20 DUP1 SWAP2 DIV MUL PUSH1 0x20 ADD PUSH1 0x40 MLOAD SWAP1 DUP2 ADD PUSH1 0x40 MSTORE DUP1 SWAP3 SWAP2 SWAP1 DUP2 DUP2 MSTORE PUSH1 0x20 ADD DUP3 DUP1 SLOAD PUSH2 0x27ED SWAP1 PUSH2 0x4726 JUMP JUMPDEST DUP1 ISZERO PUSH2 0x283A JUMPI DUP1 PUSH1 0x1F LT PUSH2 0x280F JUMPI PUSH2 0x100 DUP1 DUP4 SLOAD DIV MUL DUP4 MSTORE SWAP2 PUSH1 0x20 ADD SWAP2 PUSH2 0x283A JUMP JUMPDEST DUP3 ADD SWAP2 SWAP1 PUSH1 0x0 MSTORE PUSH1 0x20 PUSH1 0x0 KECCAK256 SWAP1 JUMPDEST DUP2 SLOAD DUP2 MSTORE SWAP1 PUSH1 0x1 ADD SWAP1 PUSH1 0x20 ADD DUP1 DUP4 GT PUSH2 0x281D JUMPI DUP3 SWAP1 SUB PUSH1 0x1F AND DUP3 ADD SWAP2 JUMPDEST POP POP POP POP POP DUP2 MSTORE PUSH1 0x20 ADD PUSH1 0x4 DUP3 ADD DUP1 SLOAD PUSH2 0x2853 SWAP1 PUSH2 0x4726 JUMP JUMPDEST DUP1 PUSH1 0x1F ADD PUSH1 0x20 DUP1 SWAP2 DIV MUL PUSH1 0x20 ADD PUSH1 0x40 MLOAD SWAP1 DUP2 ADD PUSH1 0x40 MSTORE DUP1 SWAP3 SWAP2 SWAP1 DUP2 DUP2 MSTORE PUSH1 0x20 ADD DUP3 DUP1 SLOAD PUSH2 0x287F SWAP1 PUSH2 0x4726 JUMP JUMPDEST DUP1 ISZERO PUSH2 0x28CC JUMPI DUP1 PUSH1 0x1F LT PUSH2 0x28A1 JUMPI PUSH2 0x100 DUP1 DUP4 SLOAD DIV MUL DUP4 MSTORE SWAP2 PUSH1 0x20 ADD SWAP2 PUSH2 0x28CC JUMP JUMPDEST DUP3 ADD SWAP2 SWAP1 PUSH1 0x0 MSTORE PUSH1 0x20 PUSH1 0x0 KECCAK256 SWAP1 JUMPDEST DUP2 SLOAD DUP2 MSTORE SWAP1 PUSH1 0x1 ADD SWAP1 PUSH1 0x20 ADD DUP1 DUP4 GT PUSH2 0x28AF JUMPI DUP3 SWAP1 SUB PUSH1 0x1F AND DUP3 ADD SWAP2 JUMPDEST POP POP POP POP POP DUP2 MSTORE POP POP SWAP2 POP DUP1 DUP1 SLOAD DUP1 PUSH1 0x20 MUL PUSH1 0x20 ADD PUSH1 0x40 MLOAD SWAP1 DUP2 ADD PUSH1 0x40 MSTORE DUP1 SWAP3 SWAP2 SWAP1 DUP2 DUP2 MSTORE PUSH1 0x20 ADD PUSH1 0x0 SWAP1 JUMPDEST DUP3 DUP3 LT ISZERO PUSH2 0x3038 JUMPI DUP4 DUP3 SWAP1 PUSH1 0x0 MSTORE PUSH1 0x20 PUSH1 0x0 KECCAK256 SWAP1 PUSH1 0xE MUL ADD PUSH1 0x40 MLOAD DUP1 PUSH2 0x1C0 ADD PUSH1 0x40 MSTORE SWAP1 DUP2 PUSH1 0x0 DUP3 ADD PUSH1 0x0 SWAP1 SLOAD SWAP1 PUSH2 0x100 EXP SWAP1 DIV PUSH20 0xFFFFFFFFFFFFFFFFFFFFFFFFFFFFFFFFFFFFFFFF AND PUSH20 0xFFFFFFFFFFFFFFFFFFFFFFFFFFFFFFFFFFFFFFFF AND PUSH20 0xFFFFFFFFFFFFFFFFFFFFFFFFFFFFFFFFFFFFFFFF AND DUP2 MSTORE PUSH1 0x20 ADD PUSH1 0x1 DUP3 ADD DUP1 SLOAD PUSH2 0x2982 SWAP1 PUSH2 0x4726 JUMP JUMPDEST DUP1 PUSH1 0x1F ADD PUSH1 0x20 DUP1 SWAP2 DIV MUL PUSH1 0x20 ADD PUSH1 0x40 MLOAD SWAP1 DUP2 ADD PUSH1 0x40 MSTORE DUP1 SWAP3 SWAP2 SWAP1 DUP2 DUP2 MSTORE PUSH1 0x20 ADD DUP3 DUP1 SLOAD PUSH2 0x29AE SWAP1 PUSH2 0x4726 JUMP JUMPDEST DUP1 ISZERO PUSH2 0x29FB JUMPI DUP1 PUSH1 0x1F LT PUSH2 0x29D0 JUMPI PUSH2 0x100 DUP1 DUP4 SLOAD DIV MUL DUP4 MSTORE SWAP2 PUSH1 0x20 ADD SWAP2 PUSH2 0x29FB JUMP JUMPDEST DUP3 ADD SWAP2 SWAP1 PUSH1 0x0 MSTORE PUSH1 0x20 PUSH1 0x0 KECCAK256 SWAP1 JUMPDEST DUP2 SLOAD DUP2 MSTORE SWAP1 PUSH1 0x1 ADD SWAP1 PUSH1 0x20 ADD DUP1 DUP4 GT PUSH2 0x29DE JUMPI DUP3 SWAP1 SUB PUSH1 0x1F AND DUP3 ADD SWAP2 JUMPDEST POP POP POP POP POP DUP2 MSTORE PUSH1 0x20 ADD PUSH1 0x2 DUP3 ADD DUP1 SLOAD PUSH2 0x2A14 SWAP1 PUSH2 0x4726 JUMP JUMPDEST DUP1 PUSH1 0x1F ADD PUSH1 0x20 DUP1 SWAP2 DIV MUL PUSH1 0x20 ADD PUSH1 0x40 MLOAD SWAP1 DUP2 ADD PUSH1 0x40 MSTORE DUP1 SWAP3 SWAP2 SWAP1 DUP2 DUP2 MSTORE PUSH1 0x20 ADD DUP3 DUP1 SLOAD PUSH2 0x2A40 SWAP1 PUSH2 0x4726 JUMP JUMPDEST DUP1 ISZERO PUSH2 0x2A8D JUMPI DUP1 PUSH1 0x1F LT PUSH2 0x2A62 JUMPI PUSH2 0x100 DUP1 DUP4 SLOAD DIV MUL DUP4 MSTORE SWAP2 PUSH1 0x20 ADD SWAP2 PUSH2 0x2A8D JUMP JUMPDEST DUP3 ADD SWAP2 SWAP1 PUSH1 0x0 MSTORE PUSH1 0x20 PUSH1 0x0 KECCAK256 SWAP1 JUMPDEST DUP2 SLOAD DUP2 MSTORE SWAP1 PUSH1 0x1 ADD SWAP1 PUSH1 0x20 ADD DUP1 DUP4 GT PUSH2 0x2A70 JUMPI DUP3 SWAP1 SUB PUSH1 0x1F AND DUP3 ADD SWAP2 JUMPDEST POP POP POP POP POP DUP2 MSTORE PUSH1 0x20 ADD PUSH1 0x3 DUP3 ADD DUP1 SLOAD PUSH2 0x2AA6 SWAP1 PUSH2 0x4726 JUMP JUMPDEST DUP1 PUSH1 0x1F ADD PUSH1 0x20 DUP1 SWAP2 DIV MUL PUSH1 0x20 ADD PUSH1 0x40 MLOAD SWAP1 DUP2 ADD PUSH1 0x40 MSTORE DUP1 SWAP3 SWAP2 SWAP1 DUP2 DUP2 MSTORE PUSH1 0x20 ADD DUP3 DUP1 SLOAD PUSH2 0x2AD2 SWAP1 PUSH2 0x4726 JUMP JUMPDEST DUP1 ISZERO PUSH2 0x2B1F JUMPI DUP1 PUSH1 0x1F LT PUSH2 0x2AF4 JUMPI PUSH2 0x100 DUP1 DUP4 SLOAD DIV MUL DUP4 MSTORE SWAP2 PUSH1 0x20 ADD SWAP2 PUSH2 0x2B1F JUMP JUMPDEST DUP3 ADD SWAP2 SWAP1 PUSH1 0x0 MSTORE PUSH1 0x20 PUSH1 0x0 KECCAK256 SWAP1 JUMPDEST DUP2 SLOAD DUP2 MSTORE SWAP1 PUSH1 0x1 ADD SWAP1 PUSH1 0x20 ADD DUP1 DUP4 GT PUSH2 0x2B02 JUMPI DUP3 SWAP1 SUB PUSH1 0x1F AND DUP3 ADD SWAP2 JUMPDEST POP POP POP POP POP DUP2 MSTORE PUSH1 0x20 ADD PUSH1 0x4 DUP3 ADD DUP1 SLOAD PUSH2 0x2B38 SWAP1 PUSH2 0x4726 JUMP JUMPDEST DUP1 PUSH1 0x1F ADD PUSH1 0x20 DUP1 SWAP2 DIV MUL PUSH1 0x20 ADD PUSH1 0x40 MLOAD SWAP1 DUP2 ADD PUSH1 0x40 MSTORE DUP1 SWAP3 SWAP2 SWAP1 DUP2 DUP2 MSTORE PUSH1 0x20 ADD DUP3 DUP1 SLOAD PUSH2 0x2B64 SWAP1 PUSH2 0x4726 JUMP JUMPDEST DUP1 ISZERO PUSH2 0x2BB1 JUMPI DUP1 PUSH1 0x1F LT PUSH2 0x2B86 JUMPI PUSH2 0x100 DUP1 DUP4 SLOAD DIV MUL DUP4 MSTORE SWAP2 PUSH1 0x20 ADD SWAP2 PUSH2 0x2BB1 JUMP JUMPDEST DUP3 ADD SWAP2 SWAP1 PUSH1 0x0 MSTORE PUSH1 0x20 PUSH1 0x0 KECCAK256 SWAP1 JUMPDEST DUP2 SLOAD DUP2 MSTORE SWAP1 PUSH1 0x1 ADD SWAP1 PUSH1 0x20 ADD DUP1 DUP4 GT PUSH2 0x2B94 JUMPI DUP3 SWAP1 SUB PUSH1 0x1F AND DUP3 ADD SWAP2 JUMPDEST POP POP POP POP POP DUP2 MSTORE PUSH1 0x20 ADD PUSH1 0x5 DUP3 ADD DUP1 SLOAD PUSH2 0x2BCA SWAP1 PUSH2 0x4726 JUMP JUMPDEST DUP1 PUSH1 0x1F ADD PUSH1 0x20 DUP1 SWAP2 DIV MUL PUSH1 0x20 ADD PUSH1 0x40 MLOAD SWAP1 DUP2 ADD PUSH1 0x40 MSTORE DUP1 SWAP3 SWAP2 SWAP1 DUP2 DUP2 MSTORE PUSH1 0x20 ADD DUP3 DUP1 SLOAD PUSH2 0x2BF6 SWAP1 PUSH2 0x4726 JUMP JUMPDEST DUP1 ISZERO PUSH2 0x2C43 JUMPI DUP1 PUSH1 0x1F LT PUSH2 0x2C18 JUMPI PUSH2 0x100 DUP1 DUP4 SLOAD DIV MUL DUP4 MSTORE SWAP2 PUSH1 0x20 ADD SWAP2 PUSH2 0x2C43 JUMP JUMPDEST DUP3 ADD SWAP2 SWAP1 PUSH1 0x0 MSTORE PUSH1 0x20 PUSH1 0x0 KECCAK256 SWAP1 JUMPDEST DUP2 SLOAD DUP2 MSTORE SWAP1 PUSH1 0x1 ADD SWAP1 PUSH1 0x20 ADD DUP1 DUP4 GT PUSH2 0x2C26 JUMPI DUP3 SWAP1 SUB PUSH1 0x1F AND DUP3 ADD SWAP2 JUMPDEST POP POP POP POP POP DUP2 MSTORE PUSH1 0x20 ADD PUSH1 0x6 DUP3 ADD DUP1 SLOAD PUSH2 0x2C5C SWAP1 PUSH2 0x4726 JUMP JUMPDEST DUP1 PUSH1 0x1F ADD PUSH1 0x20 DUP1 SWAP2 DIV MUL PUSH1 0x20 ADD PUSH1 0x40 MLOAD SWAP1 DUP2 ADD PUSH1 0x40 MSTORE DUP1 SWAP3 SWAP2 SWAP1 DUP2 DUP2 MSTORE PUSH1 0x20 ADD DUP3 DUP1 SLOAD PUSH2 0x2C88 SWAP1 PUSH2 0x4726 JUMP JUMPDEST DUP1 ISZERO PUSH2 0x2CD5 JUMPI DUP1 PUSH1 0x1F LT PUSH2 0x2CAA JUMPI PUSH2 0x100 DUP1 DUP4 SLOAD DIV MUL DUP4 MSTORE SWAP2 PUSH1 0x20 ADD SWAP2 PUSH2 0x2CD5 JUMP JUMPDEST DUP3 ADD SWAP2 SWAP1 PUSH1 0x0 MSTORE PUSH1 0x20 PUSH1 0x0 KECCAK256 SWAP1 JUMPDEST DUP2 SLOAD DUP2 MSTORE SWAP1 PUSH1 0x1 ADD SWAP1 PUSH1 0x20 ADD DUP1 DUP4 GT PUSH2 0x2CB8 JUMPI DUP3 SWAP1 SUB PUSH1 0x1F AND DUP3 ADD SWAP2 JUMPDEST POP POP POP POP POP DUP2 MSTORE PUSH1 0x20 ADD PUSH1 0x7 DUP3 ADD DUP1 SLOAD PUSH2 0x2CEE SWAP1 PUSH2 0x4726 JUMP JUMPDEST DUP1 PUSH1 0x1F ADD PUSH1 0x20 DUP1 SWAP2 DIV MUL PUSH1 0x20 ADD PUSH1 0x40 MLOAD SWAP1 DUP2 ADD PUSH1 0x40 MSTORE DUP1 SWAP3 SWAP2 SWAP1 DUP2 DUP2 MSTORE PUSH1 0x20 ADD DUP3 DUP1 SLOAD PUSH2 0x2D1A SWAP1 PUSH2 0x4726 JUMP JUMPDEST DUP1 ISZERO PUSH2 0x2D67 JUMPI DUP1 PUSH1 0x1F LT PUSH2 0x2D3C JUMPI PUSH2 0x100 DUP1 DUP4 SLOAD DIV MUL DUP4 MSTORE SWAP2 PUSH1 0x20 ADD SWAP2 PUSH2 0x2D67 JUMP JUMPDEST DUP3 ADD SWAP2 SWAP1 PUSH1 0x0 MSTORE PUSH1 0x20 PUSH1 0x0 KECCAK256 SWAP1 JUMPDEST DUP2 SLOAD DUP2 MSTORE SWAP1 PUSH1 0x1 ADD SWAP1 PUSH1 0x20 ADD DUP1 DUP4 GT PUSH2 0x2D4A JUMPI DUP3 SWAP1 SUB PUSH1 0x1F AND DUP3 ADD SWAP2 JUMPDEST POP POP POP POP POP DUP2 MSTORE PUSH1 0x20 ADD PUSH1 0x8 DUP3 ADD DUP1 SLOAD PUSH2 0x2D80 SWAP1 PUSH2 0x4726 JUMP JUMPDEST DUP1 PUSH1 0x1F ADD PUSH1 0x20 DUP1 SWAP2 DIV MUL PUSH1 0x20 ADD PUSH1 0x40 MLOAD SWAP1 DUP2 ADD PUSH1 0x40 MSTORE DUP1 SWAP3 SWAP2 SWAP1 DUP2 DUP2 MSTORE PUSH1 0x20 ADD DUP3 DUP1 SLOAD PUSH2 0x2DAC SWAP1 PUSH2 0x4726 JUMP JUMPDEST DUP1 ISZERO PUSH2 0x2DF9 JUMPI DUP1 PUSH1 0x1F LT PUSH2 0x2DCE JUMPI PUSH2 0x100 DUP1 DUP4 SLOAD DIV MUL DUP4 MSTORE SWAP2 PUSH1 0x20 ADD SWAP2 PUSH2 0x2DF9 JUMP JUMPDEST DUP3 ADD SWAP2 SWAP1 PUSH1 0x0 MSTORE PUSH1 0x20 PUSH1 0x0 KECCAK256 SWAP1 JUMPDEST DUP2 SLOAD DUP2 MSTORE SWAP1 PUSH1 0x1 ADD SWAP1 PUSH1 0x20 ADD DUP1 DUP4 GT PUSH2 0x2DDC JUMPI DUP3 SWAP1 SUB PUSH1 0x1F AND DUP3 ADD SWAP2 JUMPDEST POP POP POP POP POP DUP2 MSTORE PUSH1 0x20 ADD PUSH1 0x9 DUP3 ADD PUSH1 0x0 SWAP1 SLOAD SWAP1 PUSH2 0x100 EXP SWAP1 DIV PUSH1 0xFF AND ISZERO ISZERO ISZERO ISZERO DUP2 MSTORE PUSH1 0x20 ADD PUSH1 0xA DUP3 ADD DUP1 SLOAD PUSH2 0x2E2D SWAP1 PUSH2 0x4726 JUMP JUMPDEST DUP1 PUSH1 0x1F ADD PUSH1 0x20 DUP1 SWAP2 DIV MUL PUSH1 0x20 ADD PUSH1 0x40 MLOAD SWAP1 DUP2 ADD PUSH1 0x40 MSTORE DUP1 SWAP3 SWAP2 SWAP1 DUP2 DUP2 MSTORE PUSH1 0x20 ADD DUP3 DUP1 SLOAD PUSH2 0x2E59 SWAP1 PUSH2 0x4726 JUMP JUMPDEST DUP1 ISZERO PUSH2 0x2EA6 JUMPI DUP1 PUSH1 0x1F LT PUSH2 0x2E7B JUMPI PUSH2 0x100 DUP1 DUP4 SLOAD DIV MUL DUP4 MSTORE SWAP2 PUSH1 0x20 ADD SWAP2 PUSH2 0x2EA6 JUMP JUMPDEST DUP3 ADD SWAP2 SWAP1 PUSH1 0x0 MSTORE PUSH1 0x20 PUSH1 0x0 KECCAK256 SWAP1 JUMPDEST DUP2 SLOAD DUP2 MSTORE SWAP1 PUSH1 0x1 ADD SWAP1 PUSH1 0x20 ADD DUP1 DUP4 GT PUSH2 0x2E89 JUMPI DUP3 SWAP1 SUB PUSH1 0x1F AND DUP3 ADD SWAP2 JUMPDEST POP POP POP POP POP DUP2 MSTORE PUSH1 0x20 ADD PUSH1 0xB DUP3 ADD DUP1 SLOAD PUSH2 0x2EBF SWAP1 PUSH2 0x4726 JUMP JUMPDEST DUP1 PUSH1 0x1F ADD PUSH1 0x20 DUP1 SWAP2 DIV MUL PUSH1 0x20 ADD PUSH1 0x40 MLOAD SWAP1 DUP2 ADD PUSH1 0x40 MSTORE DUP1 SWAP3 SWAP2 SWAP1 DUP2 DUP2 MSTORE PUSH1 0x20 ADD DUP3 DUP1 SLOAD PUSH2 0x2EEB SWAP1 PUSH2 0x4726 JUMP JUMPDEST DUP1 ISZERO PUSH2 0x2F38 JUMPI DUP1 PUSH1 0x1F LT PUSH2 0x2F0D JUMPI PUSH2 0x100 DUP1 DUP4 SLOAD DIV MUL DUP4 MSTORE SWAP2 PUSH1 0x20 ADD SWAP2 PUSH2 0x2F38 JUMP JUMPDEST DUP3 ADD SWAP2 SWAP1 PUSH1 0x0 MSTORE PUSH1 0x20 PUSH1 0x0 KECCAK256 SWAP1 JUMPDEST DUP2 SLOAD DUP2 MSTORE SWAP1 PUSH1 0x1 ADD SWAP1 PUSH1 0x20 ADD DUP1 DUP4 GT PUSH2 0x2F1B JUMPI DUP3 SWAP1 SUB PUSH1 0x1F AND DUP3 ADD SWAP2 JUMPDEST POP POP POP POP POP DUP2 MSTORE PUSH1 0x20 ADD PUSH1 0xC DUP3 ADD PUSH1 0x0 SWAP1 SLOAD SWAP1 PUSH2 0x100 EXP SWAP1 DIV PUSH20 0xFFFFFFFFFFFFFFFFFFFFFFFFFFFFFFFFFFFFFFFF AND PUSH20 0xFFFFFFFFFFFFFFFFFFFFFFFFFFFFFFFFFFFFFFFF AND PUSH20 0xFFFFFFFFFFFFFFFFFFFFFFFFFFFFFFFFFFFFFFFF AND DUP2 MSTORE PUSH1 0x20 ADD PUSH1 0xD DUP3 ADD DUP1 SLOAD PUSH2 0x2FA7 SWAP1 PUSH2 0x4726 JUMP JUMPDEST DUP1 PUSH1 0x1F ADD PUSH1 0x20 DUP1 SWAP2 DIV MUL PUSH1 0x20 ADD PUSH1 0x40 MLOAD SWAP1 DUP2 ADD PUSH1 0x40 MSTORE DUP1 SWAP3 SWAP2 SWAP1 DUP2 DUP2 MSTORE PUSH1 0x20 ADD DUP3 DUP1 SLOAD PUSH2 0x2FD3 SWAP1 PUSH2 0x4726 JUMP JUMPDEST DUP1 ISZERO PUSH2 0x3020 JUMPI DUP1 PUSH1 0x1F LT PUSH2 0x2FF5 JUMPI PUSH2 0x100 DUP1 DUP4 SLOAD DIV MUL DUP4 MSTORE SWAP2 PUSH1 0x20 ADD SWAP2 PUSH2 0x3020 JUMP JUMPDEST DUP3 ADD SWAP2 SWAP1 PUSH1 0x0 MSTORE PUSH1 0x20 PUSH1 0x0 KECCAK256 SWAP1 JUMPDEST DUP2 SLOAD DUP2 MSTORE SWAP1 PUSH1 0x1 ADD SWAP1 PUSH1 0x20 ADD DUP1 DUP4 GT PUSH2 0x3003 JUMPI DUP3 SWAP1 SUB PUSH1 0x1F AND DUP3 ADD SWAP2 JUMPDEST POP POP POP POP POP DUP2 MSTORE POP POP DUP2 MSTORE PUSH1 0x20 ADD SWAP1 PUSH1 0x1 ADD SWAP1 PUSH2 0x28F8 JUMP JUMPDEST POP POP POP POP SWAP1 POP SWAP2 POP SWAP2 POP SWAP2 POP SWAP2 JUMP JUMPDEST PUSH1 0x40 MLOAD DUP1 PUSH1 0x80 ADD PUSH1 0x40 MSTORE DUP1 PUSH1 0x60 DUP2 MSTORE PUSH1 0x20 ADD PUSH1 0x60 DUP2 MSTORE PUSH1 0x20 ADD PUSH1 0x0 DUP2 MSTORE PUSH1 0x20 ADD PUSH1 0x60 DUP2 MSTORE POP SWAP1 JUMP JUMPDEST PUSH1 0x40 MLOAD DUP1 PUSH2 0x1A0 ADD PUSH1 0x40 MSTORE DUP1 PUSH1 0x0 PUSH20 0xFFFFFFFFFFFFFFFFFFFFFFFFFFFFFFFFFFFFFFFF AND DUP2 MSTORE PUSH1 0x20 ADD PUSH1 0x60 DUP2 MSTORE PUSH1 0x20 ADD PUSH1 0x60 DUP2 MSTORE PUSH1 0x20 ADD PUSH1 0x60 DUP2 MSTORE PUSH1 0x20 ADD PUSH1 0x60 DUP2 MSTORE PUSH1 0x20 ADD PUSH1 0x60 DUP2 MSTORE PUSH1 0x20 ADD PUSH1 0x60 DUP2 MSTORE PUSH1 0x20 ADD PUSH1 0x60 DUP2 MSTORE PUSH1 0x20 ADD PUSH1 0x60 DUP2 MSTORE PUSH1 0x20 ADD PUSH1 0x60 DUP2 MSTORE PUSH1 0x20 ADD PUSH1 0x60 DUP2 MSTORE PUSH1 0x20 ADD PUSH1 0x60 DUP2 MSTORE PUSH1 0x20 ADD PUSH1 0x60 DUP2 MSTORE POP SWAP1 JUMP JUMPDEST PUSH1 0x40 MLOAD DUP1 PUSH1 0xA0 ADD PUSH1 0x40 MSTORE DUP1 PUSH1 0x0 PUSH20 0xFFFFFFFFFFFFFFFFFFFFFFFFFFFFFFFFFFFFFFFF AND DUP2 MSTORE PUSH1 0x20 ADD PUSH1 0x60 DUP2 MSTORE PUSH1 0x20 ADD PUSH1 0x0 DUP2 MSTORE PUSH1 0x20 ADD PUSH1 0x60 DUP2 MSTORE PUSH1 0x20 ADD PUSH1 0x60 DUP2 MSTORE POP SWAP1 JUMP JUMPDEST PUSH1 0x40 MLOAD DUP1 PUSH2 0x140 ADD PUSH1 0x40 MSTORE DUP1 PUSH1 0x0 PUSH20 0xFFFFFFFFFFFFFFFFFFFFFFFFFFFFFFFFFFFFFFFF AND DUP2 MSTORE PUSH1 0x20 ADD PUSH1 0x60 DUP2 MSTORE PUSH1 0x20 ADD PUSH1 0x60 DUP2 MSTORE PUSH1 0x20 ADD PUSH1 0x60 DUP2 MSTORE PUSH1 0x20 ADD PUSH1 0x60 DUP2 MSTORE PUSH1 0x20 ADD PUSH1 0x60 DUP2 MSTORE PUSH1 0x20 ADD PUSH1 0x60 DUP2 MSTORE PUSH1 0x20 ADD PUSH1 0x60 DUP2 MSTORE PUSH1 0x20 ADD PUSH1 0x60 DUP2 MSTORE PUSH1 0x20 ADD PUSH1 0x0 ISZERO ISZERO DUP2 MSTORE POP SWAP1 JUMP JUMPDEST PUSH1 0x40 MLOAD DUP1 PUSH2 0x1C0 ADD PUSH1 0x40 MSTORE DUP1 PUSH1 0x0 PUSH20 0xFFFFFFFFFFFFFFFFFFFFFFFFFFFFFFFFFFFFFFFF AND DUP2 MSTORE PUSH1 0x20 ADD PUSH1 0x60 DUP2 MSTORE PUSH1 0x20 ADD PUSH1 0x60 DUP2 MSTORE PUSH1 0x20 ADD PUSH1 0x60 DUP2 MSTORE PUSH1 0x20 ADD PUSH1 0x60 DUP2 MSTORE PUSH1 0x20 ADD PUSH1 0x60 DUP2 MSTORE PUSH1 0x20 ADD PUSH1 0x60 DUP2 MSTORE PUSH1 0x20 ADD PUSH1 0x60 DUP2 MSTORE PUSH1 0x20 ADD PUSH1 0x60 DUP2 MSTORE PUSH1 0x20 ADD PUSH1 0x0 ISZERO ISZERO DUP2 MSTORE PUSH1 0x20 ADD PUSH1 0x60 DUP2 MSTORE PUSH1 0x20 ADD PUSH1 0x60 DUP2 MSTORE PUSH1 0x20 ADD PUSH1 0x0 PUSH20 0xFFFFFFFFFFFFFFFFFFFFFFFFFFFFFFFFFFFFFFFF AND DUP2 MSTORE PUSH1 0x20 ADD PUSH1 0x60 DUP2 MSTORE POP SWAP1 JUMP JUMPDEST PUSH1 0x0 PUSH1 0x40 MLOAD SWAP1 POP SWAP1 JUMP JUMPDEST PUSH1 0x0 DUP1 REVERT JUMPDEST PUSH1 0x0 DUP1 REVERT JUMPDEST PUSH1 0x0 PUSH20 0xFFFFFFFFFFFFFFFFFFFFFFFFFFFFFFFFFFFFFFFF DUP3 AND SWAP1 POP SWAP2 SWAP1 POP JUMP JUMPDEST PUSH1 0x0 PUSH2 0x3279 DUP3 PUSH2 0x324E JUMP JUMPDEST SWAP1 POP SWAP2 SWAP1 POP JUMP JUMPDEST PUSH2 0x3289 DUP2 PUSH2 0x326E JUMP JUMPDEST DUP2 EQ PUSH2 0x3294 JUMPI PUSH1 0x0 DUP1 REVERT JUMPDEST POP JUMP JUMPDEST PUSH1 0x0 DUP2 CALLDATALOAD SWAP1 POP PUSH2 0x32A6 DUP2 PUSH2 0x3280 JUMP JUMPDEST SWAP3 SWAP2 POP POP JUMP JUMPDEST PUSH1 0x0 PUSH1 0x20 DUP3 DUP5 SUB SLT ISZERO PUSH2 0x32C2 JUMPI PUSH2 0x32C1 PUSH2 0x3244 JUMP JUMPDEST JUMPDEST PUSH1 0x0 PUSH2 0x32D0 DUP5 DUP3 DUP6 ADD PUSH2 0x3297 JUMP JUMPDEST SWAP2 POP POP SWAP3 SWAP2 POP POP JUMP JUMPDEST PUSH1 0x0 DUP1 REVERT JUMPDEST PUSH1 0x0 PUSH1 0x1F NOT PUSH1 0x1F DUP4 ADD AND SWAP1 POP SWAP2 SWAP1 POP JUMP JUMPDEST PUSH32 0x4E487B7100000000000000000000000000000000000000000000000000000000 PUSH1 0x0 MSTORE PUSH1 0x41 PUSH1 0x4 MSTORE PUSH1 0x24 PUSH1 0x0 REVERT JUMPDEST PUSH2 0x3327 DUP3 PUSH2 0x32DE JUMP JUMPDEST DUP2 ADD DUP2 DUP2 LT PUSH8 0xFFFFFFFFFFFFFFFF DUP3 GT OR ISZERO PUSH2 0x3346 JUMPI PUSH2 0x3345 PUSH2 0x32EF JUMP JUMPDEST JUMPDEST DUP1 PUSH1 0x40 MSTORE POP POP POP JUMP JUMPDEST PUSH1 0x0 PUSH2 0x3359 PUSH2 0x323A JUMP JUMPDEST SWAP1 POP PUSH2 0x3365 DUP3 DUP3 PUSH2 0x331E JUMP JUMPDEST SWAP2 SWAP1 POP JUMP JUMPDEST PUSH1 0x0 DUP1 REVERT JUMPDEST PUSH1 0x0 DUP1 REVERT JUMPDEST PUSH1 0x0 DUP1 REVERT JUMPDEST PUSH1 0x0 PUSH8 0xFFFFFFFFFFFFFFFF DUP3 GT ISZERO PUSH2 0x3394 JUMPI PUSH2 0x3393 PUSH2 0x32EF JUMP JUMPDEST JUMPDEST PUSH2 0x339D DUP3 PUSH2 0x32DE JUMP JUMPDEST SWAP1 POP PUSH1 0x20 DUP2 ADD SWAP1 POP SWAP2 SWAP1 POP JUMP JUMPDEST DUP3 DUP2 DUP4 CALLDATACOPY PUSH1 0x0 DUP4 DUP4 ADD MSTORE POP POP POP JUMP JUMPDEST PUSH1 0x0 PUSH2 0x33CC PUSH2 0x33C7 DUP5 PUSH2 0x3379 JUMP JUMPDEST PUSH2 0x334F JUMP JUMPDEST SWAP1 POP DUP3 DUP2 MSTORE PUSH1 0x20 DUP2 ADD DUP5 DUP5 DUP5 ADD GT ISZERO PUSH2 0x33E8 JUMPI PUSH2 0x33E7 PUSH2 0x3374 JUMP JUMPDEST JUMPDEST PUSH2 0x33F3 DUP5 DUP3 DUP6 PUSH2 0x33AA JUMP JUMPDEST POP SWAP4 SWAP3 POP POP POP JUMP JUMPDEST PUSH1 0x0 DUP3 PUSH1 0x1F DUP4 ADD SLT PUSH2 0x3410 JUMPI PUSH2 0x340F PUSH2 0x336F JUMP JUMPDEST JUMPDEST DUP2 CALLDATALOAD PUSH2 0x3420 DUP5 DUP3 PUSH1 0x20 DUP7 ADD PUSH2 0x33B9 JUMP JUMPDEST SWAP2 POP POP SWAP3 SWAP2 POP POP JUMP JUMPDEST PUSH1 0x0 DUP2 SWAP1 POP SWAP2 SWAP1 POP JUMP JUMPDEST PUSH2 0x343C DUP2 PUSH2 0x3429 JUMP JUMPDEST DUP2 EQ PUSH2 0x3447 JUMPI PUSH1 0x0 DUP1 REVERT JUMPDEST POP JUMP JUMPDEST PUSH1 0x0 DUP2 CALLDATALOAD SWAP1 POP PUSH2 0x3459 DUP2 PUSH2 0x3433 JUMP JUMPDEST SWAP3 SWAP2 POP POP JUMP JUMPDEST PUSH1 0x0 PUSH1 0x80 DUP3 DUP5 SUB SLT ISZERO PUSH2 0x3475 JUMPI PUSH2 0x3474 PUSH2 0x32D9 JUMP JUMPDEST JUMPDEST PUSH2 0x347F PUSH1 0x80 PUSH2 0x334F JUMP JUMPDEST SWAP1 POP PUSH1 0x0 DUP3 ADD CALLDATALOAD PUSH8 0xFFFFFFFFFFFFFFFF DUP2 GT ISZERO PUSH2 0x349F JUMPI PUSH2 0x349E PUSH2 0x336A JUMP JUMPDEST JUMPDEST PUSH2 0x34AB DUP5 DUP3 DUP6 ADD PUSH2 0x33FB JUMP JUMPDEST PUSH1 0x0 DUP4 ADD MSTORE POP PUSH1 0x20 DUP3 ADD CALLDATALOAD PUSH8 0xFFFFFFFFFFFFFFFF DUP2 GT ISZERO PUSH2 0x34CF JUMPI PUSH2 0x34CE PUSH2 0x336A JUMP JUMPDEST JUMPDEST PUSH2 0x34DB DUP5 DUP3 DUP6 ADD PUSH2 0x33FB JUMP JUMPDEST PUSH1 0x20 DUP4 ADD MSTORE POP PUSH1 0x40 PUSH2 0x34EF DUP5 DUP3 DUP6 ADD PUSH2 0x344A JUMP JUMPDEST PUSH1 0x40 DUP4 ADD MSTORE POP PUSH1 0x60 DUP3 ADD CALLDATALOAD PUSH8 0xFFFFFFFFFFFFFFFF DUP2 GT ISZERO PUSH2 0x3513 JUMPI PUSH2 0x3512 PUSH2 0x336A JUMP JUMPDEST JUMPDEST PUSH2 0x351F DUP5 DUP3 DUP6 ADD PUSH2 0x33FB JUMP JUMPDEST PUSH1 0x60 DUP4 ADD MSTORE POP SWAP3 SWAP2 POP POP JUMP JUMPDEST PUSH1 0x0 PUSH2 0x1A0 DUP3 DUP5 SUB SLT ISZERO PUSH2 0x3542 JUMPI PUSH2 0x3541 PUSH2 0x32D9 JUMP JUMPDEST JUMPDEST PUSH2 0x354D PUSH2 0x1A0 PUSH2 0x334F JUMP JUMPDEST SWAP1 POP PUSH1 0x0 PUSH2 0x355D DUP5 DUP3 DUP6 ADD PUSH2 0x3297 JUMP JUMPDEST PUSH1 0x0 DUP4 ADD MSTORE POP PUSH1 0x20 DUP3 ADD CALLDATALOAD PUSH8 0xFFFFFFFFFFFFFFFF DUP2 GT ISZERO PUSH2 0x3581 JUMPI PUSH2 0x3580 PUSH2 0x336A JUMP JUMPDEST JUMPDEST PUSH2 0x358D DUP5 DUP3 DUP6 ADD PUSH2 0x33FB JUMP JUMPDEST PUSH1 0x20 DUP4 ADD MSTORE POP PUSH1 0x40 DUP3 ADD CALLDATALOAD PUSH8 0xFFFFFFFFFFFFFFFF DUP2 GT ISZERO PUSH2 0x35B1 JUMPI PUSH2 0x35B0 PUSH2 0x336A JUMP JUMPDEST JUMPDEST PUSH2 0x35BD DUP5 DUP3 DUP6 ADD PUSH2 0x33FB JUMP JUMPDEST PUSH1 0x40 DUP4 ADD MSTORE POP PUSH1 0x60 DUP3 ADD CALLDATALOAD PUSH8 0xFFFFFFFFFFFFFFFF DUP2 GT ISZERO PUSH2 0x35E1 JUMPI PUSH2 0x35E0 PUSH2 0x336A JUMP JUMPDEST JUMPDEST PUSH2 0x35ED DUP5 DUP3 DUP6 ADD PUSH2 0x33FB JUMP JUMPDEST PUSH1 0x60 DUP4 ADD MSTORE POP PUSH1 0x80 DUP3 ADD CALLDATALOAD PUSH8 0xFFFFFFFFFFFFFFFF DUP2 GT ISZERO PUSH2 0x3611 JUMPI PUSH2 0x3610 PUSH2 0x336A JUMP JUMPDEST JUMPDEST PUSH2 0x361D DUP5 DUP3 DUP6 ADD PUSH2 0x33FB JUMP JUMPDEST PUSH1 0x80 DUP4 ADD MSTORE POP PUSH1 0xA0 DUP3 ADD CALLDATALOAD PUSH8 0xFFFFFFFFFFFFFFFF DUP2 GT ISZERO PUSH2 0x3641 JUMPI PUSH2 0x3640 PUSH2 0x336A JUMP JUMPDEST JUMPDEST PUSH2 0x364D DUP5 DUP3 DUP6 ADD PUSH2 0x33FB JUMP JUMPDEST PUSH1 0xA0 DUP4 ADD MSTORE POP PUSH1 0xC0 DUP3 ADD CALLDATALOAD PUSH8 0xFFFFFFFFFFFFFFFF DUP2 GT ISZERO PUSH2 0x3671 JUMPI PUSH2 0x3670 PUSH2 0x336A JUMP JUMPDEST JUMPDEST PUSH2 0x367D DUP5 DUP3 DUP6 ADD PUSH2 0x33FB JUMP JUMPDEST PUSH1 0xC0 DUP4 ADD MSTORE POP PUSH1 0xE0 DUP3 ADD CALLDATALOAD PUSH8 0xFFFFFFFFFFFFFFFF DUP2 GT ISZERO PUSH2 0x36A1 JUMPI PUSH2 0x36A0 PUSH2 0x336A JUMP JUMPDEST JUMPDEST PUSH2 0x36AD DUP5 DUP3 DUP6 ADD PUSH2 0x33FB JUMP JUMPDEST PUSH1 0xE0 DUP4 ADD MSTORE POP PUSH2 0x100 DUP3 ADD CALLDATALOAD PUSH8 0xFFFFFFFFFFFFFFFF DUP2 GT ISZERO PUSH2 0x36D2 JUMPI PUSH2 0x36D1 PUSH2 0x336A JUMP JUMPDEST JUMPDEST PUSH2 0x36DE DUP5 DUP3 DUP6 ADD PUSH2 0x33FB JUMP JUMPDEST PUSH2 0x100 DUP4 ADD MSTORE POP PUSH2 0x120 DUP3 ADD CALLDATALOAD PUSH8 0xFFFFFFFFFFFFFFFF DUP2 GT ISZERO PUSH2 0x3704 JUMPI PUSH2 0x3703 PUSH2 0x336A JUMP JUMPDEST JUMPDEST PUSH2 0x3710 DUP5 DUP3 DUP6 ADD PUSH2 0x33FB JUMP JUMPDEST PUSH2 0x120 DUP4 ADD MSTORE POP PUSH2 0x140 DUP3 ADD CALLDATALOAD PUSH8 0xFFFFFFFFFFFFFFFF DUP2 GT ISZERO PUSH2 0x3736 JUMPI PUSH2 0x3735 PUSH2 0x336A JUMP JUMPDEST JUMPDEST PUSH2 0x3742 DUP5 DUP3 DUP6 ADD PUSH2 0x33FB JUMP JUMPDEST PUSH2 0x140 DUP4 ADD MSTORE POP PUSH2 0x160 DUP3 ADD CALLDATALOAD PUSH8 0xFFFFFFFFFFFFFFFF DUP2 GT ISZERO PUSH2 0x3768 JUMPI PUSH2 0x3767 PUSH2 0x336A JUMP JUMPDEST JUMPDEST PUSH2 0x3774 DUP5 DUP3 DUP6 ADD PUSH2 0x33FB JUMP JUMPDEST PUSH2 0x160 DUP4 ADD MSTORE POP PUSH2 0x180 DUP3 ADD CALLDATALOAD PUSH8 0xFFFFFFFFFFFFFFFF DUP2 GT ISZERO PUSH2 0x379A JUMPI PUSH2 0x3799 PUSH2 0x336A JUMP JUMPDEST JUMPDEST PUSH2 0x37A6 DUP5 DUP3 DUP6 ADD PUSH2 0x33FB JUMP JUMPDEST PUSH2 0x180 DUP4 ADD MSTORE POP SWAP3 SWAP2 POP POP JUMP JUMPDEST PUSH1 0x0 DUP1 PUSH1 0x40 DUP4 DUP6 SUB SLT ISZERO PUSH2 0x37CA JUMPI PUSH2 0x37C9 PUSH2 0x3244 JUMP JUMPDEST JUMPDEST PUSH1 0x0 DUP4 ADD CALLDATALOAD PUSH8 0xFFFFFFFFFFFFFFFF DUP2 GT ISZERO PUSH2 0x37E8 JUMPI PUSH2 0x37E7 PUSH2 0x3249 JUMP JUMPDEST JUMPDEST PUSH2 0x37F4 DUP6 DUP3 DUP7 ADD PUSH2 0x345F JUMP JUMPDEST SWAP3 POP POP PUSH1 0x20 DUP4 ADD CALLDATALOAD PUSH8 0xFFFFFFFFFFFFFFFF DUP2 GT ISZERO PUSH2 0x3815 JUMPI PUSH2 0x3814 PUSH2 0x3249 JUMP JUMPDEST JUMPDEST PUSH2 0x3821 DUP6 DUP3 DUP7 ADD PUSH2 0x352B JUMP JUMPDEST SWAP2 POP POP SWAP3 POP SWAP3 SWAP1 POP JUMP JUMPDEST PUSH1 0x0 PUSH1 0xA0 DUP3 DUP5 SUB SLT ISZERO PUSH2 0x3841 JUMPI PUSH2 0x3840 PUSH2 0x32D9 JUMP JUMPDEST JUMPDEST PUSH2 0x384B PUSH1 0xA0 PUSH2 0x334F JUMP JUMPDEST SWAP1 POP PUSH1 0x0 PUSH2 0x385B DUP5 DUP3 DUP6 ADD PUSH2 0x3297 JUMP JUMPDEST PUSH1 0x0 DUP4 ADD MSTORE POP PUSH1 0x20 DUP3 ADD CALLDATALOAD PUSH8 0xFFFFFFFFFFFFFFFF DUP2 GT ISZERO PUSH2 0x387F JUMPI PUSH2 0x387E PUSH2 0x336A JUMP JUMPDEST JUMPDEST PUSH2 0x388B DUP5 DUP3 DUP6 ADD PUSH2 0x33FB JUMP JUMPDEST PUSH1 0x20 DUP4 ADD MSTORE POP PUSH1 0x40 PUSH2 0x389F DUP5 DUP3 DUP6 ADD PUSH2 0x344A JUMP JUMPDEST PUSH1 0x40 DUP4 ADD MSTORE POP PUSH1 0x60 DUP3 ADD CALLDATALOAD PUSH8 0xFFFFFFFFFFFFFFFF DUP2 GT ISZERO PUSH2 0x38C3 JUMPI PUSH2 0x38C2 PUSH2 0x336A JUMP JUMPDEST JUMPDEST PUSH2 0x38CF DUP5 DUP3 DUP6 ADD PUSH2 0x33FB JUMP JUMPDEST PUSH1 0x60 DUP4 ADD MSTORE POP PUSH1 0x80 DUP3 ADD CALLDATALOAD PUSH8 0xFFFFFFFFFFFFFFFF DUP2 GT ISZERO PUSH2 0x38F3 JUMPI PUSH2 0x38F2 PUSH2 0x336A JUMP JUMPDEST JUMPDEST PUSH2 0x38FF DUP5 DUP3 DUP6 ADD PUSH2 0x33FB JUMP JUMPDEST PUSH1 0x80 DUP4 ADD MSTORE POP SWAP3 SWAP2 POP POP JUMP JUMPDEST PUSH1 0x0 DUP2 ISZERO ISZERO SWAP1 POP SWAP2 SWAP1 POP JUMP JUMPDEST PUSH2 0x3920 DUP2 PUSH2 0x390B JUMP JUMPDEST DUP2 EQ PUSH2 0x392B JUMPI PUSH1 0x0 DUP1 REVERT JUMPDEST POP JUMP JUMPDEST PUSH1 0x0 DUP2 CALLDATALOAD SWAP1 POP PUSH2 0x393D DUP2 PUSH2 0x3917 JUMP JUMPDEST SWAP3 SWAP2 POP POP JUMP JUMPDEST PUSH1 0x0 PUSH2 0x140 DUP3 DUP5 SUB SLT ISZERO PUSH2 0x395A JUMPI PUSH2 0x3959 PUSH2 0x32D9 JUMP JUMPDEST JUMPDEST PUSH2 0x3965 PUSH2 0x140 PUSH2 0x334F JUMP JUMPDEST SWAP1 POP PUSH1 0x0 PUSH2 0x3975 DUP5 DUP3 DUP6 ADD PUSH2 0x3297 JUMP JUMPDEST PUSH1 0x0 DUP4 ADD MSTORE POP PUSH1 0x20 DUP3 ADD CALLDATALOAD PUSH8 0xFFFFFFFFFFFFFFFF DUP2 GT ISZERO PUSH2 0x3999 JUMPI PUSH2 0x3998 PUSH2 0x336A JUMP JUMPDEST JUMPDEST PUSH2 0x39A5 DUP5 DUP3 DUP6 ADD PUSH2 0x33FB JUMP JUMPDEST PUSH1 0x20 DUP4 ADD MSTORE POP PUSH1 0x40 DUP3 ADD CALLDATALOAD PUSH8 0xFFFFFFFFFFFFFFFF DUP2 GT ISZERO PUSH2 0x39C9 JUMPI PUSH2 0x39C8 PUSH2 0x336A JUMP JUMPDEST JUMPDEST PUSH2 0x39D5 DUP5 DUP3 DUP6 ADD PUSH2 0x33FB JUMP JUMPDEST PUSH1 0x40 DUP4 ADD MSTORE POP PUSH1 0x60 DUP3 ADD CALLDATALOAD PUSH8 0xFFFFFFFFFFFFFFFF DUP2 GT ISZERO PUSH2 0x39F9 JUMPI PUSH2 0x39F8 PUSH2 0x336A JUMP JUMPDEST JUMPDEST PUSH2 0x3A05 DUP5 DUP3 DUP6 ADD PUSH2 0x33FB JUMP JUMPDEST PUSH1 0x60 DUP4 ADD MSTORE POP PUSH1 0x80 DUP3 ADD CALLDATALOAD PUSH8 0xFFFFFFFFFFFFFFFF DUP2 GT ISZERO PUSH2 0x3A29 JUMPI PUSH2 0x3A28 PUSH2 0x336A JUMP JUMPDEST JUMPDEST PUSH2 0x3A35 DUP5 DUP3 DUP6 ADD PUSH2 0x33FB JUMP JUMPDEST PUSH1 0x80 DUP4 ADD MSTORE POP PUSH1 0xA0 DUP3 ADD CALLDATALOAD PUSH8 0xFFFFFFFFFFFFFFFF DUP2 GT ISZERO PUSH2 0x3A59 JUMPI PUSH2 0x3A58 PUSH2 0x336A JUMP JUMPDEST JUMPDEST PUSH2 0x3A65 DUP5 DUP3 DUP6 ADD PUSH2 0x33FB JUMP JUMPDEST PUSH1 0xA0 DUP4 ADD MSTORE POP PUSH1 0xC0 DUP3 ADD CALLDATALOAD PUSH8 0xFFFFFFFFFFFFFFFF DUP2 GT ISZERO PUSH2 0x3A89 JUMPI PUSH2 0x3A88 PUSH2 0x336A JUMP JUMPDEST JUMPDEST PUSH2 0x3A95 DUP5 DUP3 DUP6 ADD PUSH2 0x33FB JUMP JUMPDEST PUSH1 0xC0 DUP4 ADD MSTORE POP PUSH1 0xE0 DUP3 ADD CALLDATALOAD PUSH8 0xFFFFFFFFFFFFFFFF DUP2 GT ISZERO PUSH2 0x3AB9 JUMPI PUSH2 0x3AB8 PUSH2 0x336A JUMP JUMPDEST JUMPDEST PUSH2 0x3AC5 DUP5 DUP3 DUP6 ADD PUSH2 0x33FB JUMP JUMPDEST PUSH1 0xE0 DUP4 ADD MSTORE POP PUSH2 0x100 DUP3 ADD CALLDATALOAD PUSH8 0xFFFFFFFFFFFFFFFF DUP2 GT ISZERO PUSH2 0x3AEA JUMPI PUSH2 0x3AE9 PUSH2 0x336A JUMP JUMPDEST JUMPDEST PUSH2 0x3AF6 DUP5 DUP3 DUP6 ADD PUSH2 0x33FB JUMP JUMPDEST PUSH2 0x100 DUP4 ADD MSTORE POP PUSH2 0x120 PUSH2 0x3B0C DUP5 DUP3 DUP6 ADD PUSH2 0x392E JUMP JUMPDEST PUSH2 0x120 DUP4 ADD MSTORE POP SWAP3 SWAP2 POP POP JUMP JUMPDEST PUSH1 0x0 DUP1 PUSH1 0x40 DUP4 DUP6 SUB SLT ISZERO PUSH2 0x3B30 JUMPI PUSH2 0x3B2F PUSH2 0x3244 JUMP JUMPDEST JUMPDEST PUSH1 0x0 DUP4 ADD CALLDATALOAD PUSH8 0xFFFFFFFFFFFFFFFF DUP2 GT ISZERO PUSH2 0x3B4E JUMPI PUSH2 0x3B4D PUSH2 0x3249 JUMP JUMPDEST JUMPDEST PUSH2 0x3B5A DUP6 DUP3 DUP7 ADD PUSH2 0x382B JUMP JUMPDEST SWAP3 POP POP PUSH1 0x20 DUP4 ADD CALLDATALOAD PUSH8 0xFFFFFFFFFFFFFFFF DUP2 GT ISZERO PUSH2 0x3B7B JUMPI PUSH2 0x3B7A PUSH2 0x3249 JUMP JUMPDEST JUMPDEST PUSH2 0x3B87 DUP6 DUP3 DUP7 ADD PUSH2 0x3943 JUMP JUMPDEST SWAP2 POP POP SWAP3 POP SWAP3 SWAP1 POP JUMP JUMPDEST PUSH1 0x0 PUSH2 0x1C0 DUP3 DUP5 SUB SLT ISZERO PUSH2 0x3BA8 JUMPI PUSH2 0x3BA7 PUSH2 0x32D9 JUMP JUMPDEST JUMPDEST PUSH2 0x3BB3 PUSH2 0x1C0 PUSH2 0x334F JUMP JUMPDEST SWAP1 POP PUSH1 0x0 PUSH2 0x3BC3 DUP5 DUP3 DUP6 ADD PUSH2 0x3297 JUMP JUMPDEST PUSH1 0x0 DUP4 ADD MSTORE POP PUSH1 0x20 DUP3 ADD CALLDATALOAD PUSH8 0xFFFFFFFFFFFFFFFF DUP2 GT ISZERO PUSH2 0x3BE7 JUMPI PUSH2 0x3BE6 PUSH2 0x336A JUMP JUMPDEST JUMPDEST PUSH2 0x3BF3 DUP5 DUP3 DUP6 ADD PUSH2 0x33FB JUMP JUMPDEST PUSH1 0x20 DUP4 ADD MSTORE POP PUSH1 0x40 DUP3 ADD CALLDATALOAD PUSH8 0xFFFFFFFFFFFFFFFF DUP2 GT ISZERO PUSH2 0x3C17 JUMPI PUSH2 0x3C16 PUSH2 0x336A JUMP JUMPDEST JUMPDEST PUSH2 0x3C23 DUP5 DUP3 DUP6 ADD PUSH2 0x33FB JUMP JUMPDEST PUSH1 0x40 DUP4 ADD MSTORE POP PUSH1 0x60 DUP3 ADD CALLDATALOAD PUSH8 0xFFFFFFFFFFFFFFFF DUP2 GT ISZERO PUSH2 0x3C47 JUMPI PUSH2 0x3C46 PUSH2 0x336A JUMP JUMPDEST JUMPDEST PUSH2 0x3C53 DUP5 DUP3 DUP6 ADD PUSH2 0x33FB JUMP JUMPDEST PUSH1 0x60 DUP4 ADD MSTORE POP PUSH1 0x80 DUP3 ADD CALLDATALOAD PUSH8 0xFFFFFFFFFFFFFFFF DUP2 GT ISZERO PUSH2 0x3C77 JUMPI PUSH2 0x3C76 PUSH2 0x336A JUMP JUMPDEST JUMPDEST PUSH2 0x3C83 DUP5 DUP3 DUP6 ADD PUSH2 0x33FB JUMP JUMPDEST PUSH1 0x80 DUP4 ADD MSTORE POP PUSH1 0xA0 DUP3 ADD CALLDATALOAD PUSH8 0xFFFFFFFFFFFFFFFF DUP2 GT ISZERO PUSH2 0x3CA7 JUMPI PUSH2 0x3CA6 PUSH2 0x336A JUMP JUMPDEST JUMPDEST PUSH2 0x3CB3 DUP5 DUP3 DUP6 ADD PUSH2 0x33FB JUMP JUMPDEST PUSH1 0xA0 DUP4 ADD MSTORE POP PUSH1 0xC0 DUP3 ADD CALLDATALOAD PUSH8 0xFFFFFFFFFFFFFFFF DUP2 GT ISZERO PUSH2 0x3CD7 JUMPI PUSH2 0x3CD6 PUSH2 0x336A JUMP JUMPDEST JUMPDEST PUSH2 0x3CE3 DUP5 DUP3 DUP6 ADD PUSH2 0x33FB JUMP JUMPDEST PUSH1 0xC0 DUP4 ADD MSTORE POP PUSH1 0xE0 DUP3 ADD CALLDATALOAD PUSH8 0xFFFFFFFFFFFFFFFF DUP2 GT ISZERO PUSH2 0x3D07 JUMPI PUSH2 0x3D06 PUSH2 0x336A JUMP JUMPDEST JUMPDEST PUSH2 0x3D13 DUP5 DUP3 DUP6 ADD PUSH2 0x33FB JUMP JUMPDEST PUSH1 0xE0 DUP4 ADD MSTORE POP PUSH2 0x100 DUP3 ADD CALLDATALOAD PUSH8 0xFFFFFFFFFFFFFFFF DUP2 GT ISZERO PUSH2 0x3D38 JUMPI PUSH2 0x3D37 PUSH2 0x336A JUMP JUMPDEST JUMPDEST PUSH2 0x3D44 DUP5 DUP3 DUP6 ADD PUSH2 0x33FB JUMP JUMPDEST PUSH2 0x100 DUP4 ADD MSTORE POP PUSH2 0x120 PUSH2 0x3D5A DUP5 DUP3 DUP6 ADD PUSH2 0x392E JUMP JUMPDEST PUSH2 0x120 DUP4 ADD MSTORE POP PUSH2 0x140 DUP3 ADD CALLDATALOAD PUSH8 0xFFFFFFFFFFFFFFFF DUP2 GT ISZERO PUSH2 0x3D80 JUMPI PUSH2 0x3D7F PUSH2 0x336A JUMP JUMPDEST JUMPDEST PUSH2 0x3D8C DUP5 DUP3 DUP6 ADD PUSH2 0x33FB JUMP JUMPDEST PUSH2 0x140 DUP4 ADD MSTORE POP PUSH2 0x160 DUP3 ADD CALLDATALOAD PUSH8 0xFFFFFFFFFFFFFFFF DUP2 GT ISZERO PUSH2 0x3DB2 JUMPI PUSH2 0x3DB1 PUSH2 0x336A JUMP JUMPDEST JUMPDEST PUSH2 0x3DBE DUP5 DUP3 DUP6 ADD PUSH2 0x33FB JUMP JUMPDEST PUSH2 0x160 DUP4 ADD MSTORE POP PUSH2 0x180 PUSH2 0x3DD4 DUP5 DUP3 DUP6 ADD PUSH2 0x3297 JUMP JUMPDEST PUSH2 0x180 DUP4 ADD MSTORE POP PUSH2 0x1A0 DUP3 ADD CALLDATALOAD PUSH8 0xFFFFFFFFFFFFFFFF DUP2 GT ISZERO PUSH2 0x3DFA JUMPI PUSH2 0x3DF9 PUSH2 0x336A JUMP JUMPDEST JUMPDEST PUSH2 0x3E06 DUP5 DUP3 DUP6 ADD PUSH2 0x33FB JUMP JUMPDEST PUSH2 0x1A0 DUP4 ADD MSTORE POP SWAP3 SWAP2 POP POP JUMP JUMPDEST PUSH1 0x0 DUP1 PUSH1 0x40 DUP4 DUP6 SUB SLT ISZERO PUSH2 0x3E2A JUMPI PUSH2 0x3E29 PUSH2 0x3244 JUMP JUMPDEST JUMPDEST PUSH1 0x0 DUP4 ADD CALLDATALOAD PUSH8 0xFFFFFFFFFFFFFFFF DUP2 GT ISZERO PUSH2 0x3E48 JUMPI PUSH2 0x3E47 PUSH2 0x3249 JUMP JUMPDEST JUMPDEST PUSH2 0x3E54 DUP6 DUP3 DUP7 ADD PUSH2 0x382B JUMP JUMPDEST SWAP3 POP POP PUSH1 0x20 DUP4 ADD CALLDATALOAD PUSH8 0xFFFFFFFFFFFFFFFF DUP2 GT ISZERO PUSH2 0x3E75 JUMPI PUSH2 0x3E74 PUSH2 0x3249 JUMP JUMPDEST JUMPDEST PUSH2 0x3E81 DUP6 DUP3 DUP7 ADD PUSH2 0x3B91 JUMP JUMPDEST SWAP2 POP POP SWAP3 POP SWAP3 SWAP1 POP JUMP JUMPDEST PUSH2 0x3E94 DUP2 PUSH2 0x326E JUMP JUMPDEST DUP3 MSTORE POP POP JUMP JUMPDEST PUSH1 0x0 DUP2 MLOAD SWAP1 POP SWAP2 SWAP1 POP JUMP JUMPDEST PUSH1 0x0 DUP3 DUP3 MSTORE PUSH1 0x20 DUP3 ADD SWAP1 POP SWAP3 SWAP2 POP POP JUMP JUMPDEST PUSH1 0x0 JUMPDEST DUP4 DUP2 LT ISZERO PUSH2 0x3ED4 JUMPI DUP1 DUP3 ADD MLOAD DUP2 DUP5 ADD MSTORE PUSH1 0x20 DUP2 ADD SWAP1 POP PUSH2 0x3EB9 JUMP JUMPDEST PUSH1 0x0 DUP5 DUP5 ADD MSTORE POP POP POP POP JUMP JUMPDEST PUSH1 0x0 PUSH2 0x3EEB DUP3 PUSH2 0x3E9A JUMP JUMPDEST PUSH2 0x3EF5 DUP2 DUP6 PUSH2 0x3EA5 JUMP JUMPDEST SWAP4 POP PUSH2 0x3F05 DUP2 DUP6 PUSH1 0x20 DUP7 ADD PUSH2 0x3EB6 JUMP JUMPDEST PUSH2 0x3F0E DUP2 PUSH2 0x32DE JUMP JUMPDEST DUP5 ADD SWAP2 POP POP SWAP3 SWAP2 POP POP JUMP JUMPDEST PUSH2 0x3F22 DUP2 PUSH2 0x3429 JUMP JUMPDEST DUP3 MSTORE POP POP JUMP JUMPDEST PUSH1 0x0 PUSH1 0xA0 DUP4 ADD PUSH1 0x0 DUP4 ADD MLOAD PUSH2 0x3F40 PUSH1 0x0 DUP7 ADD DUP3 PUSH2 0x3E8B JUMP JUMPDEST POP PUSH1 0x20 DUP4 ADD MLOAD DUP5 DUP3 SUB PUSH1 0x20 DUP7 ADD MSTORE PUSH2 0x3F58 DUP3 DUP3 PUSH2 0x3EE0 JUMP JUMPDEST SWAP2 POP POP PUSH1 0x40 DUP4 ADD MLOAD PUSH2 0x3F6D PUSH1 0x40 DUP7 ADD DUP3 PUSH2 0x3F19 JUMP JUMPDEST POP PUSH1 0x60 DUP4 ADD MLOAD DUP5 DUP3 SUB PUSH1 0x60 DUP7 ADD MSTORE PUSH2 0x3F85 DUP3 DUP3 PUSH2 0x3EE0 JUMP JUMPDEST SWAP2 POP POP PUSH1 0x80 DUP4 ADD MLOAD DUP5 DUP3 SUB PUSH1 0x80 DUP7 ADD MSTORE PUSH2 0x3F9F DUP3 DUP3 PUSH2 0x3EE0 JUMP JUMPDEST SWAP2 POP POP DUP1 SWAP2 POP POP SWAP3 SWAP2 POP POP JUMP JUMPDEST PUSH1 0x0 DUP2 MLOAD SWAP1 POP SWAP2 SWAP1 POP JUMP JUMPDEST PUSH1 0x0 DUP3 DUP3 MSTORE PUSH1 0x20 DUP3 ADD SWAP1 POP SWAP3 SWAP2 POP POP JUMP JUMPDEST PUSH1 0x0 DUP2 SWAP1 POP PUSH1 0x20 DUP3 ADD SWAP1 POP SWAP2 SWAP1 POP JUMP JUMPDEST PUSH2 0x3FE1 DUP2 PUSH2 0x390B JUMP JUMPDEST DUP3 MSTORE POP POP JUMP JUMPDEST PUSH1 0x0 PUSH2 0x140 DUP4 ADD PUSH1 0x0 DUP4 ADD MLOAD PUSH2 0x4000 PUSH1 0x0 DUP7 ADD DUP3 PUSH2 0x3E8B JUMP JUMPDEST POP PUSH1 0x20 DUP4 ADD MLOAD DUP5 DUP3 SUB PUSH1 0x20 DUP7 ADD MSTORE PUSH2 0x4018 DUP3 DUP3 PUSH2 0x3EE0 JUMP JUMPDEST SWAP2 POP POP PUSH1 0x40 DUP4 ADD MLOAD DUP5 DUP3 SUB PUSH1 0x40 DUP7 ADD MSTORE PUSH2 0x4032 DUP3 DUP3 PUSH2 0x3EE0 JUMP JUMPDEST SWAP2 POP POP PUSH1 0x60 DUP4 ADD MLOAD DUP5 DUP3 SUB PUSH1 0x60 DUP7 ADD MSTORE PUSH2 0x404C DUP3 DUP3 PUSH2 0x3EE0 JUMP JUMPDEST SWAP2 POP POP PUSH1 0x80 DUP4 ADD MLOAD DUP5 DUP3 SUB PUSH1 0x80 DUP7 ADD MSTORE PUSH2 0x4066 DUP3 DUP3 PUSH2 0x3EE0 JUMP JUMPDEST SWAP2 POP POP PUSH1 0xA0 DUP4 ADD MLOAD DUP5 DUP3 SUB PUSH1 0xA0 DUP7 ADD MSTORE PUSH2 0x4080 DUP3 DUP3 PUSH2 0x3EE0 JUMP JUMPDEST SWAP2 POP POP PUSH1 0xC0 DUP4 ADD MLOAD DUP5 DUP3 SUB PUSH1 0xC0 DUP7 ADD MSTORE PUSH2 0x409A DUP3 DUP3 PUSH2 0x3EE0 JUMP JUMPDEST SWAP2 POP POP PUSH1 0xE0 DUP4 ADD MLOAD DUP5 DUP3 SUB PUSH1 0xE0 DUP7 ADD MSTORE PUSH2 0x40B4 DUP3 DUP3 PUSH2 0x3EE0 JUMP JUMPDEST SWAP2 POP POP PUSH2 0x100 DUP4 ADD MLOAD DUP5 DUP3 SUB PUSH2 0x100 DUP7 ADD MSTORE PUSH2 0x40D0 DUP3 DUP3 PUSH2 0x3EE0 JUMP JUMPDEST SWAP2 POP POP PUSH2 0x120 DUP4 ADD MLOAD PUSH2 0x40E7 PUSH2 0x120 DUP7 ADD DUP3 PUSH2 0x3FD8 JUMP JUMPDEST POP DUP1 SWAP2 POP POP SWAP3 SWAP2 POP POP JUMP JUMPDEST PUSH1 0x0 PUSH2 0x40FE DUP4 DUP4 PUSH2 0x3FE7 JUMP JUMPDEST SWAP1 POP SWAP3 SWAP2 POP POP JUMP JUMPDEST PUSH1 0x0 PUSH1 0x20 DUP3 ADD SWAP1 POP SWAP2 SWAP1 POP JUMP JUMPDEST PUSH1 0x0 PUSH2 0x411E DUP3 PUSH2 0x3FAC JUMP JUMPDEST PUSH2 0x4128 DUP2 DUP6 PUSH2 0x3FB7 JUMP JUMPDEST SWAP4 POP DUP4 PUSH1 0x20 DUP3 MUL DUP6 ADD PUSH2 0x413A DUP6 PUSH2 0x3FC8 JUMP JUMPDEST DUP1 PUSH1 0x0 JUMPDEST DUP6 DUP2 LT ISZERO PUSH2 0x4176 JUMPI DUP5 DUP5 SUB DUP10 MSTORE DUP2 MLOAD PUSH2 0x4157 DUP6 DUP3 PUSH2 0x40F2 JUMP JUMPDEST SWAP5 POP PUSH2 0x4162 DUP4 PUSH2 0x4106 JUMP JUMPDEST SWAP3 POP PUSH1 0x20 DUP11 ADD SWAP10 POP POP PUSH1 0x1 DUP2 ADD SWAP1 POP PUSH2 0x413E JUMP JUMPDEST POP DUP3 SWAP8 POP DUP8 SWAP6 POP POP POP POP POP POP SWAP3 SWAP2 POP POP JUMP JUMPDEST PUSH1 0x0 PUSH1 0x40 DUP3 ADD SWAP1 POP DUP2 DUP2 SUB PUSH1 0x0 DUP4 ADD MSTORE PUSH2 0x41A2 DUP2 DUP6 PUSH2 0x3F28 JUMP JUMPDEST SWAP1 POP DUP2 DUP2 SUB PUSH1 0x20 DUP4 ADD MSTORE PUSH2 0x41B6 DUP2 DUP5 PUSH2 0x4113 JUMP JUMPDEST SWAP1 POP SWAP4 SWAP3 POP POP POP JUMP JUMPDEST PUSH1 0x0 DUP2 MLOAD SWAP1 POP SWAP2 SWAP1 POP JUMP JUMPDEST PUSH1 0x0 DUP3 DUP3 MSTORE PUSH1 0x20 DUP3 ADD SWAP1 POP SWAP3 SWAP2 POP POP JUMP JUMPDEST PUSH1 0x0 DUP2 SWAP1 POP PUSH1 0x20 DUP3 ADD SWAP1 POP SWAP2 SWAP1 POP JUMP JUMPDEST PUSH1 0x0 PUSH2 0x1A0 DUP4 ADD PUSH1 0x0 DUP4 ADD MLOAD PUSH2 0x4204 PUSH1 0x0 DUP7 ADD DUP3 PUSH2 0x3E8B JUMP JUMPDEST POP PUSH1 0x20 DUP4 ADD MLOAD DUP5 DUP3 SUB PUSH1 0x20 DUP7 ADD MSTORE PUSH2 0x421C DUP3 DUP3 PUSH2 0x3EE0 JUMP JUMPDEST SWAP2 POP POP PUSH1 0x40 DUP4 ADD MLOAD DUP5 DUP3 SUB PUSH1 0x40 DUP7 ADD MSTORE PUSH2 0x4236 DUP3 DUP3 PUSH2 0x3EE0 JUMP JUMPDEST SWAP2 POP POP PUSH1 0x60 DUP4 ADD MLOAD DUP5 DUP3 SUB PUSH1 0x60 DUP7 ADD MSTORE PUSH2 0x4250 DUP3 DUP3 PUSH2 0x3EE0 JUMP JUMPDEST SWAP2 POP POP PUSH1 0x80 DUP4 ADD MLOAD DUP5 DUP3 SUB PUSH1 0x80 DUP7 ADD MSTORE PUSH2 0x426A DUP3 DUP3 PUSH2 0x3EE0 JUMP JUMPDEST SWAP2 POP POP PUSH1 0xA0 DUP4 ADD MLOAD DUP5 DUP3 SUB PUSH1 0xA0 DUP7 ADD MSTORE PUSH2 0x4284 DUP3 DUP3 PUSH2 0x3EE0 JUMP JUMPDEST SWAP2 POP POP PUSH1 0xC0 DUP4 ADD MLOAD DUP5 DUP3 SUB PUSH1 0xC0 DUP7 ADD MSTORE PUSH2 0x429E DUP3 DUP3 PUSH2 0x3EE0 JUMP JUMPDEST SWAP2 POP POP PUSH1 0xE0 DUP4 ADD MLOAD DUP5 DUP3 SUB PUSH1 0xE0 DUP7 ADD MSTORE PUSH2 0x42B8 DUP3 DUP3 PUSH2 0x3EE0 JUMP JUMPDEST SWAP2 POP POP PUSH2 0x100 DUP4 ADD MLOAD DUP5 DUP3 SUB PUSH2 0x100 DUP7 ADD MSTORE PUSH2 0x42D4 DUP3 DUP3 PUSH2 0x3EE0 JUMP JUMPDEST SWAP2 POP POP PUSH2 0x120 DUP4 ADD MLOAD DUP5 DUP3 SUB PUSH2 0x120 DUP7 ADD MSTORE PUSH2 0x42F0 DUP3 DUP3 PUSH2 0x3EE0 JUMP JUMPDEST SWAP2 POP POP PUSH2 0x140 DUP4 ADD MLOAD DUP5 DUP3 SUB PUSH2 0x140 DUP7 ADD MSTORE PUSH2 0x430C DUP3 DUP3 PUSH2 0x3EE0 JUMP JUMPDEST SWAP2 POP POP PUSH2 0x160 DUP4 ADD MLOAD DUP5 DUP3 SUB PUSH2 0x160 DUP7 ADD MSTORE PUSH2 0x4328 DUP3 DUP3 PUSH2 0x3EE0 JUMP JUMPDEST SWAP2 POP POP PUSH2 0x180 DUP4 ADD MLOAD DUP5 DUP3 SUB PUSH2 0x180 DUP7 ADD MSTORE PUSH2 0x4344 DUP3 DUP3 PUSH2 0x3EE0 JUMP JUMPDEST SWAP2 POP POP DUP1 SWAP2 POP POP SWAP3 SWAP2 POP POP JUMP JUMPDEST PUSH1 0x0 PUSH2 0x435D DUP4 DUP4 PUSH2 0x41EB JUMP JUMPDEST SWAP1 POP SWAP3 SWAP2 POP POP JUMP JUMPDEST PUSH1 0x0 PUSH1 0x20 DUP3 ADD SWAP1 POP SWAP2 SWAP1 POP JUMP JUMPDEST PUSH1 0x0 PUSH2 0x437D DUP3 PUSH2 0x41BF JUMP JUMPDEST PUSH2 0x4387 DUP2 DUP6 PUSH2 0x41CA JUMP JUMPDEST SWAP4 POP DUP4 PUSH1 0x20 DUP3 MUL DUP6 ADD PUSH2 0x4399 DUP6 PUSH2 0x41DB JUMP JUMPDEST DUP1 PUSH1 0x0 JUMPDEST DUP6 DUP2 LT ISZERO PUSH2 0x43D5 JUMPI DUP5 DUP5 SUB DUP10 MSTORE DUP2 MLOAD PUSH2 0x43B6 DUP6 DUP3 PUSH2 0x4351 JUMP JUMPDEST SWAP5 POP PUSH2 0x43C1 DUP4 PUSH2 0x4365 JUMP JUMPDEST SWAP3 POP PUSH1 0x20 DUP11 ADD SWAP10 POP POP PUSH1 0x1 DUP2 ADD SWAP1 POP PUSH2 0x439D JUMP JUMPDEST POP DUP3 SWAP8 POP DUP8 SWAP6 POP POP POP POP POP POP SWAP3 SWAP2 POP POP JUMP JUMPDEST PUSH1 0x0 PUSH1 0x40 DUP3 ADD SWAP1 POP DUP2 DUP2 SUB PUSH1 0x0 DUP4 ADD MSTORE PUSH2 0x4401 DUP2 DUP6 PUSH2 0x3F28 JUMP JUMPDEST SWAP1 POP DUP2 DUP2 SUB PUSH1 0x20 DUP4 ADD MSTORE PUSH2 0x4415 DUP2 DUP5 PUSH2 0x4372 JUMP JUMPDEST SWAP1 POP SWAP4 SWAP3 POP POP POP JUMP JUMPDEST PUSH1 0x0 DUP2 MLOAD SWAP1 POP SWAP2 SWAP1 POP JUMP JUMPDEST PUSH1 0x0 DUP3 DUP3 MSTORE PUSH1 0x20 DUP3 ADD SWAP1 POP SWAP3 SWAP2 POP POP JUMP JUMPDEST PUSH1 0x0 DUP2 SWAP1 POP PUSH1 0x20 DUP3 ADD SWAP1 POP SWAP2 SWAP1 POP JUMP JUMPDEST PUSH1 0x0 PUSH2 0x1C0 DUP4 ADD PUSH1 0x0 DUP4 ADD MLOAD PUSH2 0x4463 PUSH1 0x0 DUP7 ADD DUP3 PUSH2 0x3E8B JUMP JUMPDEST POP PUSH1 0x20 DUP4 ADD MLOAD DUP5 DUP3 SUB PUSH1 0x20 DUP7 ADD MSTORE PUSH2 0x447B DUP3 DUP3 PUSH2 0x3EE0 JUMP JUMPDEST SWAP2 POP POP PUSH1 0x40 DUP4 ADD MLOAD DUP5 DUP3 SUB PUSH1 0x40 DUP7 ADD MSTORE PUSH2 0x4495 DUP3 DUP3 PUSH2 0x3EE0 JUMP JUMPDEST SWAP2 POP POP PUSH1 0x60 DUP4 ADD MLOAD DUP5 DUP3 SUB PUSH1 0x60 DUP7 ADD MSTORE PUSH2 0x44AF DUP3 DUP3 PUSH2 0x3EE0 JUMP JUMPDEST SWAP2 POP POP PUSH1 0x80 DUP4 ADD MLOAD DUP5 DUP3 SUB PUSH1 0x80 DUP7 ADD MSTORE PUSH2 0x44C9 DUP3 DUP3 PUSH2 0x3EE0 JUMP JUMPDEST SWAP2 POP POP PUSH1 0xA0 DUP4 ADD MLOAD DUP5 DUP3 SUB PUSH1 0xA0 DUP7 ADD MSTORE PUSH2 0x44E3 DUP3 DUP3 PUSH2 0x3EE0 JUMP JUMPDEST SWAP2 POP POP PUSH1 0xC0 DUP4 ADD MLOAD DUP5 DUP3 SUB PUSH1 0xC0 DUP7 ADD MSTORE PUSH2 0x44FD DUP3 DUP3 PUSH2 0x3EE0 JUMP JUMPDEST SWAP2 POP POP PUSH1 0xE0 DUP4 ADD MLOAD DUP5 DUP3 SUB PUSH1 0xE0 DUP7 ADD MSTORE PUSH2 0x4517 DUP3 DUP3 PUSH2 0x3EE0 JUMP JUMPDEST SWAP2 POP POP PUSH2 0x100 DUP4 ADD MLOAD DUP5 DUP3 SUB PUSH2 0x100 DUP7 ADD MSTORE PUSH2 0x4533 DUP3 DUP3 PUSH2 0x3EE0 JUMP JUMPDEST SWAP2 POP POP PUSH2 0x120 DUP4 ADD MLOAD PUSH2 0x454A PUSH2 0x120 DUP7 ADD DUP3 PUSH2 0x3FD8 JUMP JUMPDEST POP PUSH2 0x140 DUP4 ADD MLOAD DUP5 DUP3 SUB PUSH2 0x140 DUP7 ADD MSTORE PUSH2 0x4564 DUP3 DUP3 PUSH2 0x3EE0 JUMP JUMPDEST SWAP2 POP POP PUSH2 0x160 DUP4 ADD MLOAD DUP5 DUP3 SUB PUSH2 0x160 DUP7 ADD MSTORE PUSH2 0x4580 DUP3 DUP3 PUSH2 0x3EE0 JUMP JUMPDEST SWAP2 POP POP PUSH2 0x180 DUP4 ADD MLOAD PUSH2 0x4597 PUSH2 0x180 DUP7 ADD DUP3 PUSH2 0x3E8B JUMP JUMPDEST POP PUSH2 0x1A0 DUP4 ADD MLOAD DUP5 DUP3 SUB PUSH2 0x1A0 DUP7 ADD MSTORE PUSH2 0x45B1 DUP3 DUP3 PUSH2 0x3EE0 JUMP JUMPDEST SWAP2 POP POP DUP1 SWAP2 POP POP SWAP3 SWAP2 POP POP JUMP JUMPDEST PUSH1 0x0 PUSH2 0x45CA DUP4 DUP4 PUSH2 0x444A JUMP JUMPDEST SWAP1 POP SWAP3 SWAP2 POP POP JUMP JUMPDEST PUSH1 0x0 PUSH1 0x20 DUP3 ADD SWAP1 POP SWAP2 SWAP1 POP JUMP JUMPDEST PUSH1 0x0 PUSH2 0x45EA DUP3 PUSH2 0x441E JUMP JUMPDEST PUSH2 0x45F4 DUP2 DUP6 PUSH2 0x4429 JUMP JUMPDEST SWAP4 POP DUP4 PUSH1 0x20 DUP3 MUL DUP6 ADD PUSH2 0x4606 DUP6 PUSH2 0x443A JUMP JUMPDEST DUP1 PUSH1 0x0 JUMPDEST DUP6 DUP2 LT ISZERO PUSH2 0x4642 JUMPI DUP5 DUP5 SUB DUP10 MSTORE DUP2 MLOAD PUSH2 0x4623 DUP6 DUP3 PUSH2 0x45BE JUMP JUMPDEST SWAP5 POP PUSH2 0x462E DUP4 PUSH2 0x45D2 JUMP JUMPDEST SWAP3 POP PUSH1 0x20 DUP11 ADD SWAP10 POP POP PUSH1 0x1 DUP2 ADD SWAP1 POP PUSH2 0x460A JUMP JUMPDEST POP DUP3 SWAP8 POP DUP8 SWAP6 POP POP POP POP POP POP SWAP3 SWAP2 POP POP JUMP JUMPDEST PUSH1 0x0 PUSH1 0x40 DUP3 ADD SWAP1 POP DUP2 DUP2 SUB PUSH1 0x0 DUP4 ADD MSTORE PUSH2 0x466E DUP2 DUP6 PUSH2 0x3F28 JUMP JUMPDEST SWAP1 POP DUP2 DUP2 SUB PUSH1 0x20 DUP4 ADD MSTORE PUSH2 0x4682 DUP2 DUP5 PUSH2 0x45DF JUMP JUMPDEST SWAP1 POP SWAP4 SWAP3 POP POP POP JUMP JUMPDEST PUSH2 0x4694 DUP2 PUSH2 0x326E JUMP JUMPDEST DUP3 MSTORE POP POP JUMP JUMPDEST PUSH1 0x0 PUSH1 0x20 DUP3 ADD SWAP1 POP PUSH2 0x46AF PUSH1 0x0 DUP4 ADD DUP5 PUSH2 0x468B JUMP JUMPDEST SWAP3 SWAP2 POP POP JUMP JUMPDEST PUSH1 0x0 DUP2 MLOAD SWAP1 POP PUSH2 0x46C4 DUP2 PUSH2 0x3917 JUMP JUMPDEST SWAP3 SWAP2 POP POP JUMP JUMPDEST PUSH1 0x0 PUSH1 0x20 DUP3 DUP5 SUB SLT ISZERO PUSH2 0x46E0 JUMPI PUSH2 0x46DF PUSH2 0x3244 JUMP JUMPDEST JUMPDEST PUSH1 0x0 PUSH2 0x46EE DUP5 DUP3 DUP6 ADD PUSH2 0x46B5 JUMP JUMPDEST SWAP2 POP POP SWAP3 SWAP2 POP POP JUMP JUMPDEST PUSH32 0x4E487B7100000000000000000000000000000000000000000000000000000000 PUSH1 0x0 MSTORE PUSH1 0x22 PUSH1 0x4 MSTORE PUSH1 0x24 PUSH1 0x0 REVERT JUMPDEST PUSH1 0x0 PUSH1 0x2 DUP3 DIV SWAP1 POP PUSH1 0x1 DUP3 AND DUP1 PUSH2 0x473E JUMPI PUSH1 0x7F DUP3 AND SWAP2 POP JUMPDEST PUSH1 0x20 DUP3 LT DUP2 SUB PUSH2 0x4751 JUMPI PUSH2 0x4750 PUSH2 0x46F7 JUMP JUMPDEST JUMPDEST POP SWAP2 SWAP1 POP JUMP JUMPDEST PUSH1 0x0 DUP2 SWAP1 POP DUP2 PUSH1 0x0 MSTORE PUSH1 0x20 PUSH1 0x0 KECCAK256 SWAP1 POP SWAP2 SWAP1 POP JUMP JUMPDEST PUSH1 0x0 PUSH1 0x20 PUSH1 0x1F DUP4 ADD DIV SWAP1 POP SWAP2 SWAP1 POP JUMP JUMPDEST PUSH1 0x0 DUP3 DUP3 SHL SWAP1 POP SWAP3 SWAP2 POP POP JUMP JUMPDEST PUSH1 0x0 PUSH1 0x8 DUP4 MUL PUSH2 0x47B9 PUSH32 0xFFFFFFFFFFFFFFFFFFFFFFFFFFFFFFFFFFFFFFFFFFFFFFFFFFFFFFFFFFFFFFFF DUP3 PUSH2 0x477C JUMP JUMPDEST PUSH2 0x47C3 DUP7 DUP4 PUSH2 0x477C JUMP JUMPDEST SWAP6 POP DUP1 NOT DUP5 AND SWAP4 POP DUP1 DUP7 AND DUP5 OR SWAP3 POP POP POP SWAP4 SWAP3 POP POP POP JUMP JUMPDEST PUSH1 0x0 DUP2 SWAP1 POP SWAP2 SWAP1 POP JUMP JUMPDEST PUSH1 0x0 PUSH2 0x4800 PUSH2 0x47FB PUSH2 0x47F6 DUP5 PUSH2 0x3429 JUMP JUMPDEST PUSH2 0x47DB JUMP JUMPDEST PUSH2 0x3429 JUMP JUMPDEST SWAP1 POP SWAP2 SWAP1 POP JUMP JUMPDEST PUSH1 0x0 DUP2 SWAP1 POP SWAP2 SWAP1 POP JUMP JUMPDEST PUSH2 0x481A DUP4 PUSH2 0x47E5 JUMP JUMPDEST PUSH2 0x482E PUSH2 0x4826 DUP3 PUSH2 0x4807 JUMP JUMPDEST DUP5 DUP5 SLOAD PUSH2 0x4789 JUMP JUMPDEST DUP3 SSTORE POP POP POP POP JUMP JUMPDEST PUSH1 0x0 SWAP1 JUMP JUMPDEST PUSH2 0x4843 PUSH2 0x4836 JUMP JUMPDEST PUSH2 0x484E DUP2 DUP5 DUP5 PUSH2 0x4811 JUMP JUMPDEST POP POP POP JUMP JUMPDEST JUMPDEST DUP2 DUP2 LT ISZERO PUSH2 0x4872 JUMPI PUSH2 0x4867 PUSH1 0x0 DUP3 PUSH2 0x483B JUMP JUMPDEST PUSH1 0x1 DUP2 ADD SWAP1 POP PUSH2 0x4854 JUMP JUMPDEST POP POP JUMP JUMPDEST PUSH1 0x1F DUP3 GT ISZERO PUSH2 0x48B7 JUMPI PUSH2 0x4888 DUP2 PUSH2 0x4757 JUMP JUMPDEST PUSH2 0x4891 DUP5 PUSH2 0x476C JUMP JUMPDEST DUP2 ADD PUSH1 0x20 DUP6 LT ISZERO PUSH2 0x48A0 JUMPI DUP2 SWAP1 POP JUMPDEST PUSH2 0x48B4 PUSH2 0x48AC DUP6 PUSH2 0x476C JUMP JUMPDEST DUP4 ADD DUP3 PUSH2 0x4853 JUMP JUMPDEST POP POP JUMPDEST POP POP POP JUMP JUMPDEST PUSH1 0x0 DUP3 DUP3 SHR SWAP1 POP SWAP3 SWAP2 POP POP JUMP JUMPDEST PUSH1 0x0 PUSH2 0x48DA PUSH1 0x0 NOT DUP5 PUSH1 0x8 MUL PUSH2 0x48BC JUMP JUMPDEST NOT DUP1 DUP4 AND SWAP2 POP POP SWAP3 SWAP2 POP POP JUMP JUMPDEST PUSH1 0x0 PUSH2 0x48F3 DUP4 DUP4 PUSH2 0x48C9 JUMP JUMPDEST SWAP2 POP DUP3 PUSH1 0x2 MUL DUP3 OR SWAP1 POP SWAP3 SWAP2 POP POP JUMP JUMPDEST PUSH2 0x490C DUP3 PUSH2 0x3E9A JUMP JUMPDEST PUSH8 0xFFFFFFFFFFFFFFFF DUP2 GT ISZERO PUSH2 0x4925 JUMPI PUSH2 0x4924 PUSH2 0x32EF JUMP JUMPDEST JUMPDEST PUSH2 0x492F DUP3 SLOAD PUSH2 0x4726 JUMP JUMPDEST PUSH2 0x493A DUP3 DUP3 DUP6 PUSH2 0x4876 JUMP JUMPDEST PUSH1 0x0 PUSH1 0x20 SWAP1 POP PUSH1 0x1F DUP4 GT PUSH1 0x1 DUP2 EQ PUSH2 0x496D JUMPI PUSH1 0x0 DUP5 ISZERO PUSH2 0x495B JUMPI DUP3 DUP8 ADD MLOAD SWAP1 POP JUMPDEST PUSH2 0x4965 DUP6 DUP3 PUSH2 0x48E7 JUMP JUMPDEST DUP7 SSTORE POP PUSH2 0x49CD JUMP JUMPDEST PUSH1 0x1F NOT DUP5 AND PUSH2 0x497B DUP7 PUSH2 0x4757 JUMP JUMPDEST PUSH1 0x0 JUMPDEST DUP3 DUP2 LT ISZERO PUSH2 0x49A3 JUMPI DUP5 DUP10 ADD MLOAD DUP3 SSTORE PUSH1 0x1 DUP3 ADD SWAP2 POP PUSH1 0x20 DUP6 ADD SWAP5 POP PUSH1 0x20 DUP2 ADD SWAP1 POP PUSH2 0x497E JUMP JUMPDEST DUP7 DUP4 LT ISZERO PUSH2 0x49C0 JUMPI DUP5 DUP10 ADD MLOAD PUSH2 0x49BC PUSH1 0x1F DUP10 AND DUP3 PUSH2 0x48C9 JUMP JUMPDEST DUP4 SSTORE POP JUMPDEST PUSH1 0x1 PUSH1 0x2 DUP9 MUL ADD DUP9 SSTORE POP POP POP JUMPDEST POP POP POP POP POP POP JUMP JUMPDEST PUSH1 0x0 DUP3 DUP3 MSTORE PUSH1 0x20 DUP3 ADD SWAP1 POP SWAP3 SWAP2 POP POP JUMP JUMPDEST PUSH1 0x0 PUSH2 0x49F1 DUP3 PUSH2 0x3E9A JUMP JUMPDEST PUSH2 0x49FB DUP2 DUP6 PUSH2 0x49D5 JUMP JUMPDEST SWAP4 POP PUSH2 0x4A0B DUP2 DUP6 PUSH1 0x20 DUP7 ADD PUSH2 0x3EB6 JUMP JUMPDEST PUSH2 0x4A14 DUP2 PUSH2 0x32DE JUMP JUMPDEST DUP5 ADD SWAP2 POP POP SWAP3 SWAP2 POP POP JUMP JUMPDEST PUSH1 0x0 PUSH1 0x80 DUP3 ADD SWAP1 POP PUSH2 0x4A34 PUSH1 0x0 DUP4 ADD DUP8 PUSH2 0x468B JUMP JUMPDEST DUP2 DUP2 SUB PUSH1 0x20 DUP4 ADD MSTORE PUSH2 0x4A46 DUP2 DUP7 PUSH2 0x49E6 JUMP JUMPDEST SWAP1 POP DUP2 DUP2 SUB PUSH1 0x40 DUP4 ADD MSTORE PUSH2 0x4A5A DUP2 DUP6 PUSH2 0x49E6 JUMP JUMPDEST SWAP1 POP PUSH2 0x4A69 PUSH1 0x60 DUP4 ADD DUP5 PUSH2 0x468B JUMP JUMPDEST SWAP6 SWAP5 POP POP POP POP POP JUMP INVALID LOG2 PUSH5 0x6970667358 0x22 SLT KECCAK256 PUSH15 0xF32735405F9BA47712587C707A7944 PUSH26 0x2965AF3003FB74260656D027175A1564736F6C63430008110033 PUSH1 0x80 PUSH1 0x40 MSTORE CALLVALUE DUP1 ISZERO PUSH2 0x10 JUMPI PUSH1 0x0 DUP1 REVERT JUMPDEST POP PUSH1 0x40 MLOAD PUSH2 0x605 CODESIZE SUB DUP1 PUSH2 0x605 DUP4 CODECOPY DUP2 DUP2 ADD PUSH1 0x40 MSTORE DUP2 ADD SWAP1 PUSH2 0x32 SWAP2 SWAP1 PUSH2 0xDB JUMP JUMPDEST DUP1 PUSH1 0x0 DUP1 PUSH2 0x100 EXP DUP2 SLOAD DUP2 PUSH20 0xFFFFFFFFFFFFFFFFFFFFFFFFFFFFFFFFFFFFFFFF MUL NOT AND SWAP1 DUP4 PUSH20 0xFFFFFFFFFFFFFFFFFFFFFFFFFFFFFFFFFFFFFFFF AND MUL OR SWAP1 SSTORE POP POP PUSH2 0x108 JUMP JUMPDEST PUSH1 0x0 DUP1 REVERT JUMPDEST PUSH1 0x0 PUSH20 0xFFFFFFFFFFFFFFFFFFFFFFFFFFFFFFFFFFFFFFFF DUP3 AND SWAP1 POP SWAP2 SWAP1 POP JUMP JUMPDEST PUSH1 0x0 PUSH2 0xA8 DUP3 PUSH2 0x7D JUMP JUMPDEST SWAP1 POP SWAP2 SWAP1 POP JUMP JUMPDEST PUSH2 0xB8 DUP2 PUSH2 0x9D JUMP JUMPDEST DUP2 EQ PUSH2 0xC3 JUMPI PUSH1 0x0 DUP1 REVERT JUMPDEST POP JUMP JUMPDEST PUSH1 0x0 DUP2 MLOAD SWAP1 POP PUSH2 0xD5 DUP2 PUSH2 0xAF JUMP JUMPDEST SWAP3 SWAP2 POP POP JUMP JUMPDEST PUSH1 0x0 PUSH1 0x20 DUP3 DUP5 SUB SLT ISZERO PUSH2 0xF1 JUMPI PUSH2 0xF0 PUSH2 0x78 JUMP JUMPDEST JUMPDEST PUSH1 0x0 PUSH2 0xFF DUP5 DUP3 DUP6 ADD PUSH2 0xC6 JUMP JUMPDEST SWAP2 POP POP SWAP3 SWAP2 POP POP JUMP JUMPDEST PUSH2 0x4EE DUP1 PUSH2 0x117 PUSH1 0x0 CODECOPY PUSH1 0x0 RETURN INVALID PUSH1 0x80 PUSH1 0x40 MSTORE CALLVALUE DUP1 ISZERO PUSH2 0x10 JUMPI PUSH1 0x0 DUP1 REVERT JUMPDEST POP PUSH1 0x4 CALLDATASIZE LT PUSH2 0x41 JUMPI PUSH1 0x0 CALLDATALOAD PUSH1 0xE0 SHR DUP1 PUSH4 0x18A231A9 EQ PUSH2 0x46 JUMPI DUP1 PUSH4 0x63A9C3D7 EQ PUSH2 0x64 JUMPI DUP1 PUSH4 0x6D263CEB EQ PUSH2 0x94 JUMPI JUMPDEST PUSH1 0x0 DUP1 REVERT JUMPDEST PUSH2 0x4E PUSH2 0xB0 JUMP JUMPDEST PUSH1 0x40 MLOAD PUSH2 0x5B SWAP2 SWAP1 PUSH2 0x402 JUMP JUMPDEST PUSH1 0x40 MLOAD DUP1 SWAP2 SUB SWAP1 RETURN JUMPDEST PUSH2 0x7E PUSH1 0x4 DUP1 CALLDATASIZE SUB DUP2 ADD SWAP1 PUSH2 0x79 SWAP2 SWAP1 PUSH2 0x455 JUMP JUMPDEST PUSH2 0x196 JUMP JUMPDEST PUSH1 0x40 MLOAD PUSH2 0x8B SWAP2 SWAP1 PUSH2 0x49D JUMP JUMPDEST PUSH1 0x40 MLOAD DUP1 SWAP2 SUB SWAP1 RETURN JUMPDEST PUSH2 0xAE PUSH1 0x4 DUP1 CALLDATASIZE SUB DUP2 ADD SWAP1 PUSH2 0xA9 SWAP2 SWAP1 PUSH2 0x455 JUMP JUMPDEST PUSH2 0x1FD JUMP JUMPDEST STOP JUMPDEST PUSH1 0x60 PUSH1 0x0 DUP1 SLOAD SWAP1 PUSH2 0x100 EXP SWAP1 DIV PUSH20 0xFFFFFFFFFFFFFFFFFFFFFFFFFFFFFFFFFFFFFFFF AND PUSH20 0xFFFFFFFFFFFFFFFFFFFFFFFFFFFFFFFFFFFFFFFF AND CALLER PUSH20 0xFFFFFFFFFFFFFFFFFFFFFFFFFFFFFFFFFFFFFFFF AND EQ PUSH2 0x10A JUMPI PUSH1 0x0 DUP1 REVERT JUMPDEST PUSH1 0x1 DUP1 SLOAD DUP1 PUSH1 0x20 MUL PUSH1 0x20 ADD PUSH1 0x40 MLOAD SWAP1 DUP2 ADD PUSH1 0x40 MSTORE DUP1 SWAP3 SWAP2 SWAP1 DUP2 DUP2 MSTORE PUSH1 0x20 ADD DUP3 DUP1 SLOAD DUP1 ISZERO PUSH2 0x18C JUMPI PUSH1 0x20 MUL DUP3 ADD SWAP2 SWAP1 PUSH1 0x0 MSTORE PUSH1 0x20 PUSH1 0x0 KECCAK256 SWAP1 JUMPDEST DUP2 PUSH1 0x0 SWAP1 SLOAD SWAP1 PUSH2 0x100 EXP SWAP1 DIV PUSH20 0xFFFFFFFFFFFFFFFFFFFFFFFFFFFFFFFFFFFFFFFF AND PUSH20 0xFFFFFFFFFFFFFFFFFFFFFFFFFFFFFFFFFFFFFFFF AND DUP2 MSTORE PUSH1 0x20 ADD SWAP1 PUSH1 0x1 ADD SWAP1 DUP1 DUP4 GT PUSH2 0x142 JUMPI JUMPDEST POP POP POP POP POP SWAP1 POP SWAP1 JUMP JUMPDEST PUSH1 0x0 PUSH1 0x2 PUSH1 0x0 DUP4 PUSH20 0xFFFFFFFFFFFFFFFFFFFFFFFFFFFFFFFFFFFFFFFF AND PUSH20 0xFFFFFFFFFFFFFFFFFFFFFFFFFFFFFFFFFFFFFFFF AND DUP2 MSTORE PUSH1 0x20 ADD SWAP1 DUP2 MSTORE PUSH1 0x20 ADD PUSH1 0x0 KECCAK256 PUSH1 0x0 SWAP1 SLOAD SWAP1 PUSH2 0x100 EXP SWAP1 DIV PUSH1 0xFF AND ISZERO PUSH2 0x1F3 JUMPI PUSH1 0x1 SWAP1 POP PUSH2 0x1F8 JUMP JUMPDEST PUSH1 0x0 SWAP1 POP JUMPDEST SWAP2 SWAP1 POP JUMP JUMPDEST PUSH1 0x2 PUSH1 0x0 DUP3 PUSH20 0xFFFFFFFFFFFFFFFFFFFFFFFFFFFFFFFFFFFFFFFF AND PUSH20 0xFFFFFFFFFFFFFFFFFFFFFFFFFFFFFFFFFFFFFFFF AND DUP2 MSTORE PUSH1 0x20 ADD SWAP1 DUP2 MSTORE PUSH1 0x20 ADD PUSH1 0x0 KECCAK256 PUSH1 0x0 SWAP1 SLOAD SWAP1 PUSH2 0x100 EXP SWAP1 DIV PUSH1 0xFF AND ISZERO PUSH2 0x254 JUMPI PUSH1 0x0 DUP1 REVERT JUMPDEST PUSH1 0x1 PUSH1 0x2 PUSH1 0x0 DUP4 PUSH20 0xFFFFFFFFFFFFFFFFFFFFFFFFFFFFFFFFFFFFFFFF AND PUSH20 0xFFFFFFFFFFFFFFFFFFFFFFFFFFFFFFFFFFFFFFFF AND DUP2 MSTORE PUSH1 0x20 ADD SWAP1 DUP2 MSTORE PUSH1 0x20 ADD PUSH1 0x0 KECCAK256 PUSH1 0x0 PUSH2 0x100 EXP DUP2 SLOAD DUP2 PUSH1 0xFF MUL NOT AND SWAP1 DUP4 ISZERO ISZERO MUL OR SWAP1 SSTORE POP PUSH1 0x1 DUP2 SWAP1 DUP1 PUSH1 0x1 DUP2 SLOAD ADD DUP1 DUP3 SSTORE DUP1 SWAP2 POP POP PUSH1 0x1 SWAP1 SUB SWAP1 PUSH1 0x0 MSTORE PUSH1 0x20 PUSH1 0x0 KECCAK256 ADD PUSH1 0x0 SWAP1 SWAP2 SWAP1 SWAP2 SWAP1 SWAP2 PUSH2 0x100 EXP DUP2 SLOAD DUP2 PUSH20 0xFFFFFFFFFFFFFFFFFFFFFFFFFFFFFFFFFFFFFFFF MUL NOT AND SWAP1 DUP4 PUSH20 0xFFFFFFFFFFFFFFFFFFFFFFFFFFFFFFFFFFFFFFFF AND MUL OR SWAP1 SSTORE POP POP JUMP JUMPDEST PUSH1 0x0 DUP2 MLOAD SWAP1 POP SWAP2 SWAP1 POP JUMP JUMPDEST PUSH1 0x0 DUP3 DUP3 MSTORE PUSH1 0x20 DUP3 ADD SWAP1 POP SWAP3 SWAP2 POP POP JUMP JUMPDEST PUSH1 0x0 DUP2 SWAP1 POP PUSH1 0x20 DUP3 ADD SWAP1 POP SWAP2 SWAP1 POP JUMP JUMPDEST PUSH1 0x0 PUSH20 0xFFFFFFFFFFFFFFFFFFFFFFFFFFFFFFFFFFFFFFFF DUP3 AND SWAP1 POP SWAP2 SWAP1 POP JUMP JUMPDEST PUSH1 0x0 PUSH2 0x369 DUP3 PUSH2 0x33E JUMP JUMPDEST SWAP1 POP SWAP2 SWAP1 POP JUMP JUMPDEST PUSH2 0x379 DUP2 PUSH2 0x35E JUMP JUMPDEST DUP3 MSTORE POP POP JUMP JUMPDEST PUSH1 0x0 PUSH2 0x38B DUP4 DUP4 PUSH2 0x370 JUMP JUMPDEST PUSH1 0x20 DUP4 ADD SWAP1 POP SWAP3 SWAP2 POP POP JUMP JUMPDEST PUSH1 0x0 PUSH1 0x20 DUP3 ADD SWAP1 POP SWAP2 SWAP1 POP JUMP JUMPDEST PUSH1 0x0 PUSH2 0x3AF DUP3 PUSH2 0x312 JUMP JUMPDEST PUSH2 0x3B9 DUP2 DUP6 PUSH2 0x31D JUMP JUMPDEST SWAP4 POP PUSH2 0x3C4 DUP4 PUSH2 0x32E JUMP JUMPDEST DUP1 PUSH1 0x0 JUMPDEST DUP4 DUP2 LT ISZERO PUSH2 0x3F5 JUMPI DUP2 MLOAD PUSH2 0x3DC DUP9 DUP3 PUSH2 0x37F JUMP JUMPDEST SWAP8 POP PUSH2 0x3E7 DUP4 PUSH2 0x397 JUMP JUMPDEST SWAP3 POP POP PUSH1 0x1 DUP2 ADD SWAP1 POP PUSH2 0x3C8 JUMP JUMPDEST POP DUP6 SWAP4 POP POP POP POP SWAP3 SWAP2 POP POP JUMP JUMPDEST PUSH1 0x0 PUSH1 0x20 DUP3 ADD SWAP1 POP DUP2 DUP2 SUB PUSH1 0x0 DUP4 ADD MSTORE PUSH2 0x41C DUP2 DUP5 PUSH2 0x3A4 JUMP JUMPDEST SWAP1 POP SWAP3 SWAP2 POP POP JUMP JUMPDEST PUSH1 0x0 DUP1 REVERT JUMPDEST PUSH2 0x432 DUP2 PUSH2 0x35E JUMP JUMPDEST DUP2 EQ PUSH2 0x43D JUMPI PUSH1 0x0 DUP1 REVERT JUMPDEST POP JUMP JUMPDEST PUSH1 0x0 DUP2 CALLDATALOAD SWAP1 POP PUSH2 0x44F DUP2 PUSH2 0x429 JUMP JUMPDEST SWAP3 SWAP2 POP POP JUMP JUMPDEST PUSH1 0x0 PUSH1 0x20 DUP3 DUP5 SUB SLT ISZERO PUSH2 0x46B JUMPI PUSH2 0x46A PUSH2 0x424 JUMP JUMPDEST JUMPDEST PUSH1 0x0 PUSH2 0x479 DUP5 DUP3 DUP6 ADD PUSH2 0x440 JUMP JUMPDEST SWAP2 POP POP SWAP3 SWAP2 POP POP JUMP JUMPDEST PUSH1 0x0 DUP2 ISZERO ISZERO SWAP1 POP SWAP2 SWAP1 POP JUMP JUMPDEST PUSH2 0x497 DUP2 PUSH2 0x482 JUMP JUMPDEST DUP3 MSTORE POP POP JUMP JUMPDEST PUSH1 0x0 PUSH1 0x20 DUP3 ADD SWAP1 POP PUSH2 0x4B2 PUSH1 0x0 DUP4 ADD DUP5 PUSH2 0x48E JUMP JUMPDEST SWAP3 SWAP2 POP POP JUMP INVALID LOG2 PUSH5 0x6970667358 0x22 SLT KECCAK256 0x28 0xD5 PUSH14 0x823202D87AF350499879E2FB0CB1 DUP12 PUSH29 0x7C6F3EE56E052A9E4F92B3EDF964736F6C634300081100336080604052 CALLVALUE DUP1 ISZERO PUSH2 0x10 JUMPI PUSH1 0x0 DUP1 REVERT JUMPDEST POP PUSH1 0x40 MLOAD PUSH2 0x65D CODESIZE SUB DUP1 PUSH2 0x65D DUP4 CODECOPY DUP2 DUP2 ADD PUSH1 0x40 MSTORE DUP2 ADD SWAP1 PUSH2 0x32 SWAP2 SWAP1 PUSH2 0xDB JUMP JUMPDEST DUP1 PUSH1 0x0 DUP1 PUSH2 0x100 EXP DUP2 SLOAD DUP2 PUSH20 0xFFFFFFFFFFFFFFFFFFFFFFFFFFFFFFFFFFFFFFFF MUL NOT AND SWAP1 DUP4 PUSH20 0xFFFFFFFFFFFFFFFFFFFFFFFFFFFFFFFFFFFFFFFF AND MUL OR SWAP1 SSTORE POP POP PUSH2 0x108 JUMP JUMPDEST PUSH1 0x0 DUP1 REVERT JUMPDEST PUSH1 0x0 PUSH20 0xFFFFFFFFFFFFFFFFFFFFFFFFFFFFFFFFFFFFFFFF DUP3 AND SWAP1 POP SWAP2 SWAP1 POP JUMP JUMPDEST PUSH1 0x0 PUSH2 0xA8 DUP3 PUSH2 0x7D JUMP JUMPDEST SWAP1 POP SWAP2 SWAP1 POP JUMP JUMPDEST PUSH2 0xB8 DUP2 PUSH2 0x9D JUMP JUMPDEST DUP2 EQ PUSH2 0xC3 JUMPI PUSH1 0x0 DUP1 REVERT JUMPDEST POP JUMP JUMPDEST PUSH1 0x0 DUP2 MLOAD SWAP1 POP PUSH2 0xD5 DUP2 PUSH2 0xAF JUMP JUMPDEST SWAP3 SWAP2 POP POP JUMP JUMPDEST PUSH1 0x0 PUSH1 0x20 DUP3 DUP5 SUB SLT ISZERO PUSH2 0xF1 JUMPI PUSH2 0xF0 PUSH2 0x78 JUMP JUMPDEST JUMPDEST PUSH1 0x0 PUSH2 0xFF DUP5 DUP3 DUP6 ADD PUSH2 0xC6 JUMP JUMPDEST SWAP2 POP POP SWAP3 SWAP2 POP POP JUMP JUMPDEST PUSH2 0x546 DUP1 PUSH2 0x117 PUSH1 0x0 CODECOPY PUSH1 0x0 RETURN INVALID PUSH1 0x80 PUSH1 0x40 MSTORE CALLVALUE DUP1 ISZERO PUSH2 0x10 JUMPI PUSH1 0x0 DUP1 REVERT JUMPDEST POP PUSH1 0x4 CALLDATASIZE LT PUSH2 0x41 JUMPI PUSH1 0x0 CALLDATALOAD PUSH1 0xE0 SHR DUP1 PUSH4 0x4780468F EQ PUSH2 0x46 JUMPI DUP1 PUSH4 0x63A9C3D7 EQ PUSH2 0x62 JUMPI DUP1 PUSH4 0xF0D95090 EQ PUSH2 0x92 JUMPI JUMPDEST PUSH1 0x0 DUP1 REVERT JUMPDEST PUSH2 0x60 PUSH1 0x4 DUP1 CALLDATASIZE SUB DUP2 ADD SWAP1 PUSH2 0x5B SWAP2 SWAP1 PUSH2 0x3CD JUMP JUMPDEST PUSH2 0xB0 JUMP JUMPDEST STOP JUMPDEST PUSH2 0x7C PUSH1 0x4 DUP1 CALLDATASIZE SUB DUP2 ADD SWAP1 PUSH2 0x77 SWAP2 SWAP1 PUSH2 0x3CD JUMP JUMPDEST PUSH2 0x21D JUMP JUMPDEST PUSH1 0x40 MLOAD PUSH2 0x89 SWAP2 SWAP1 PUSH2 0x415 JUMP JUMPDEST PUSH1 0x40 MLOAD DUP1 SWAP2 SUB SWAP1 RETURN JUMPDEST PUSH2 0x9A PUSH2 0x284 JUMP JUMPDEST PUSH1 0x40 MLOAD PUSH2 0xA7 SWAP2 SWAP1 PUSH2 0x4EE JUMP JUMPDEST PUSH1 0x40 MLOAD DUP1 SWAP2 SUB SWAP1 RETURN JUMPDEST PUSH1 0x0 DUP1 SLOAD SWAP1 PUSH2 0x100 EXP SWAP1 DIV PUSH20 0xFFFFFFFFFFFFFFFFFFFFFFFFFFFFFFFFFFFFFFFF AND PUSH20 0xFFFFFFFFFFFFFFFFFFFFFFFFFFFFFFFFFFFFFFFF AND CALLER PUSH20 0xFFFFFFFFFFFFFFFFFFFFFFFFFFFFFFFFFFFFFFFF AND EQ PUSH2 0x108 JUMPI PUSH1 0x0 DUP1 REVERT JUMPDEST PUSH1 0x2 PUSH1 0x0 DUP3 PUSH20 0xFFFFFFFFFFFFFFFFFFFFFFFFFFFFFFFFFFFFFFFF AND PUSH20 0xFFFFFFFFFFFFFFFFFFFFFFFFFFFFFFFFFFFFFFFF AND DUP2 MSTORE PUSH1 0x20 ADD SWAP1 DUP2 MSTORE PUSH1 0x20 ADD PUSH1 0x0 KECCAK256 PUSH1 0x0 SWAP1 SLOAD SWAP1 PUSH2 0x100 EXP SWAP1 DIV PUSH1 0xFF AND ISZERO PUSH2 0x15F JUMPI PUSH1 0x0 DUP1 REVERT JUMPDEST PUSH1 0x1 PUSH1 0x2 PUSH1 0x0 DUP4 PUSH20 0xFFFFFFFFFFFFFFFFFFFFFFFFFFFFFFFFFFFFFFFF AND PUSH20 0xFFFFFFFFFFFFFFFFFFFFFFFFFFFFFFFFFFFFFFFF AND DUP2 MSTORE PUSH1 0x20 ADD SWAP1 DUP2 MSTORE PUSH1 0x20 ADD PUSH1 0x0 KECCAK256 PUSH1 0x0 PUSH2 0x100 EXP DUP2 SLOAD DUP2 PUSH1 0xFF MUL NOT AND SWAP1 DUP4 ISZERO ISZERO MUL OR SWAP1 SSTORE POP PUSH1 0x1 DUP2 SWAP1 DUP1 PUSH1 0x1 DUP2 SLOAD ADD DUP1 DUP3 SSTORE DUP1 SWAP2 POP POP PUSH1 0x1 SWAP1 SUB SWAP1 PUSH1 0x0 MSTORE PUSH1 0x20 PUSH1 0x0 KECCAK256 ADD PUSH1 0x0 SWAP1 SWAP2 SWAP1 SWAP2 SWAP1 SWAP2 PUSH2 0x100 EXP DUP2 SLOAD DUP2 PUSH20 0xFFFFFFFFFFFFFFFFFFFFFFFFFFFFFFFFFFFFFFFF MUL NOT AND SWAP1 DUP4 PUSH20 0xFFFFFFFFFFFFFFFFFFFFFFFFFFFFFFFFFFFFFFFF AND MUL OR SWAP1 SSTORE POP POP JUMP JUMPDEST PUSH1 0x0 PUSH1 0x2 PUSH1 0x0 DUP4 PUSH20 0xFFFFFFFFFFFFFFFFFFFFFFFFFFFFFFFFFFFFFFFF AND PUSH20 0xFFFFFFFFFFFFFFFFFFFFFFFFFFFFFFFFFFFFFFFF AND DUP2 MSTORE PUSH1 0x20 ADD SWAP1 DUP2 MSTORE PUSH1 0x20 ADD PUSH1 0x0 KECCAK256 PUSH1 0x0 SWAP1 SLOAD SWAP1 PUSH2 0x100 EXP SWAP1 DIV PUSH1 0xFF AND ISZERO PUSH2 0x27A JUMPI PUSH1 0x1 SWAP1 POP PUSH2 0x27F JUMP JUMPDEST PUSH1 0x0 SWAP1 POP JUMPDEST SWAP2 SWAP1 POP JUMP JUMPDEST PUSH1 0x60 PUSH1 0x0 DUP1 SLOAD SWAP1 PUSH2 0x100 EXP SWAP1 DIV PUSH20 0xFFFFFFFFFFFFFFFFFFFFFFFFFFFFFFFFFFFFFFFF AND PUSH20 0xFFFFFFFFFFFFFFFFFFFFFFFFFFFFFFFFFFFFFFFF AND CALLER PUSH20 0xFFFFFFFFFFFFFFFFFFFFFFFFFFFFFFFFFFFFFFFF AND EQ PUSH2 0x2DE JUMPI PUSH1 0x0 DUP1 REVERT JUMPDEST PUSH1 0x1 DUP1 SLOAD DUP1 PUSH1 0x20 MUL PUSH1 0x20 ADD PUSH1 0x40 MLOAD SWAP1 DUP2 ADD PUSH1 0x40 MSTORE DUP1 SWAP3 SWAP2 SWAP1 DUP2 DUP2 MSTORE PUSH1 0x20 ADD DUP3 DUP1 SLOAD DUP1 ISZERO PUSH2 0x360 JUMPI PUSH1 0x20 MUL DUP3 ADD SWAP2 SWAP1 PUSH1 0x0 MSTORE PUSH1 0x20 PUSH1 0x0 KECCAK256 SWAP1 JUMPDEST DUP2 PUSH1 0x0 SWAP1 SLOAD SWAP1 PUSH2 0x100 EXP SWAP1 DIV PUSH20 0xFFFFFFFFFFFFFFFFFFFFFFFFFFFFFFFFFFFFFFFF AND PUSH20 0xFFFFFFFFFFFFFFFFFFFFFFFFFFFFFFFFFFFFFFFF AND DUP2 MSTORE PUSH1 0x20 ADD SWAP1 PUSH1 0x1 ADD SWAP1 DUP1 DUP4 GT PUSH2 0x316 JUMPI JUMPDEST POP POP POP POP POP SWAP1 POP SWAP1 JUMP JUMPDEST PUSH1 0x0 DUP1 REVERT JUMPDEST PUSH1 0x0 PUSH20 0xFFFFFFFFFFFFFFFFFFFFFFFFFFFFFFFFFFFFFFFF DUP3 AND SWAP1 POP SWAP2 SWAP1 POP JUMP JUMPDEST PUSH1 0x0 PUSH2 0x39A DUP3 PUSH2 0x36F JUMP JUMPDEST SWAP1 POP SWAP2 SWAP1 POP JUMP JUMPDEST PUSH2 0x3AA DUP2 PUSH2 0x38F JUMP JUMPDEST DUP2 EQ PUSH2 0x3B5 JUMPI PUSH1 0x0 DUP1 REVERT JUMPDEST POP JUMP JUMPDEST PUSH1 0x0 DUP2 CALLDATALOAD SWAP1 POP PUSH2 0x3C7 DUP2 PUSH2 0x3A1 JUMP JUMPDEST SWAP3 SWAP2 POP POP JUMP JUMPDEST PUSH1 0x0 PUSH1 0x20 DUP3 DUP5 SUB SLT ISZERO PUSH2 0x3E3 JUMPI PUSH2 0x3E2 PUSH2 0x36A JUMP JUMPDEST JUMPDEST PUSH1 0x0 PUSH2 0x3F1 DUP5 DUP3 DUP6 ADD PUSH2 0x3B8 JUMP JUMPDEST SWAP2 POP POP SWAP3 SWAP2 POP POP JUMP JUMPDEST PUSH1 0x0 DUP2 ISZERO ISZERO SWAP1 POP SWAP2 SWAP1 POP JUMP JUMPDEST PUSH2 0x40F DUP2 PUSH2 0x3FA JUMP JUMPDEST DUP3 MSTORE POP POP JUMP JUMPDEST PUSH1 0x0 PUSH1 0x20 DUP3 ADD SWAP1 POP PUSH2 0x42A PUSH1 0x0 DUP4 ADD DUP5 PUSH2 0x406 JUMP JUMPDEST SWAP3 SWAP2 POP POP JUMP JUMPDEST PUSH1 0x0 DUP2 MLOAD SWAP1 POP SWAP2 SWAP1 POP JUMP JUMPDEST PUSH1 0x0 DUP3 DUP3 MSTORE PUSH1 0x20 DUP3 ADD SWAP1 POP SWAP3 SWAP2 POP POP JUMP JUMPDEST PUSH1 0x0 DUP2 SWAP1 POP PUSH1 0x20 DUP3 ADD SWAP1 POP SWAP2 SWAP1 POP JUMP JUMPDEST PUSH2 0x465 DUP2 PUSH2 0x38F JUMP JUMPDEST DUP3 MSTORE POP POP JUMP JUMPDEST PUSH1 0x0 PUSH2 0x477 DUP4 DUP4 PUSH2 0x45C JUMP JUMPDEST PUSH1 0x20 DUP4 ADD SWAP1 POP SWAP3 SWAP2 POP POP JUMP JUMPDEST PUSH1 0x0 PUSH1 0x20 DUP3 ADD SWAP1 POP SWAP2 SWAP1 POP JUMP JUMPDEST PUSH1 0x0 PUSH2 0x49B DUP3 PUSH2 0x430 JUMP JUMPDEST PUSH2 0x4A5 DUP2 DUP6 PUSH2 0x43B JUMP JUMPDEST SWAP4 POP PUSH2 0x4B0 DUP4 PUSH2 0x44C JUMP JUMPDEST DUP1 PUSH1 0x0 JUMPDEST DUP4 DUP2 LT ISZERO PUSH2 0x4E1 JUMPI DUP2 MLOAD PUSH2 0x4C8 DUP9 DUP3 PUSH2 0x46B JUMP JUMPDEST SWAP8 POP PUSH2 0x4D3 DUP4 PUSH2 0x483 JUMP JUMPDEST SWAP3 POP POP PUSH1 0x1 DUP2 ADD SWAP1 POP PUSH2 0x4B4 JUMP JUMPDEST POP DUP6 SWAP4 POP POP POP POP SWAP3 SWAP2 POP POP JUMP JUMPDEST PUSH1 0x0 PUSH1 0x20 DUP3 ADD SWAP1 POP DUP2 DUP2 SUB PUSH1 0x0 DUP4 ADD MSTORE PUSH2 0x508 DUP2 DUP5 PUSH2 0x490 JUMP JUMPDEST SWAP1 POP SWAP3 SWAP2 POP POP JUMP INVALID LOG2 PUSH5 0x6970667358 0x22 SLT KECCAK256 DELEGATECALL 0xC0 PUSH17 0x2A1A7B29FA8CED84D3212E38C079B518C7 CALLCODE DUP2 DUP1 0x5C GAS JUMPI 0xBD DIFFICULTY 0xF7 0xEA 0xC7 0xC2 PUSH5 0x736F6C6343 STOP ADDMOD GT STOP CALLER PUSH1 0x80 PUSH1 0x40 MSTORE CALLVALUE DUP1 ISZERO PUSH2 0x10 JUMPI PUSH1 0x0 DUP1 REVERT JUMPDEST POP PUSH1 0x40 MLOAD PUSH2 0xF2F CODESIZE SUB DUP1 PUSH2 0xF2F DUP4 CODECOPY DUP2 DUP2 ADD PUSH1 0x40 MSTORE DUP2 ADD SWAP1 PUSH2 0x32 SWAP2 SWAP1 PUSH2 0xDB JUMP JUMPDEST DUP1 PUSH1 0x0 DUP1 PUSH2 0x100 EXP DUP2 SLOAD DUP2 PUSH20 0xFFFFFFFFFFFFFFFFFFFFFFFFFFFFFFFFFFFFFFFF MUL NOT AND SWAP1 DUP4 PUSH20 0xFFFFFFFFFFFFFFFFFFFFFFFFFFFFFFFFFFFFFFFF AND MUL OR SWAP1 SSTORE POP POP PUSH2 0x108 JUMP JUMPDEST PUSH1 0x0 DUP1 REVERT JUMPDEST PUSH1 0x0 PUSH20 0xFFFFFFFFFFFFFFFFFFFFFFFFFFFFFFFFFFFFFFFF DUP3 AND SWAP1 POP SWAP2 SWAP1 POP JUMP JUMPDEST PUSH1 0x0 PUSH2 0xA8 DUP3 PUSH2 0x7D JUMP JUMPDEST SWAP1 POP SWAP2 SWAP1 POP JUMP JUMPDEST PUSH2 0xB8 DUP2 PUSH2 0x9D JUMP JUMPDEST DUP2 EQ PUSH2 0xC3 JUMPI PUSH1 0x0 DUP1 REVERT JUMPDEST POP JUMP JUMPDEST PUSH1 0x0 DUP2 MLOAD SWAP1 POP PUSH2 0xD5 DUP2 PUSH2 0xAF JUMP JUMPDEST SWAP3 SWAP2 POP POP JUMP JUMPDEST PUSH1 0x0 PUSH1 0x20 DUP3 DUP5 SUB SLT ISZERO PUSH2 0xF1 JUMPI PUSH2 0xF0 PUSH2 0x78 JUMP JUMPDEST JUMPDEST PUSH1 0x0 PUSH2 0xFF DUP5 DUP3 DUP6 ADD PUSH2 0xC6 JUMP JUMPDEST SWAP2 POP POP SWAP3 SWAP2 POP POP JUMP JUMPDEST PUSH2 0xE18 DUP1 PUSH2 0x117 PUSH1 0x0 CODECOPY PUSH1 0x0 RETURN INVALID PUSH1 0x80 PUSH1 0x40 MSTORE CALLVALUE DUP1 ISZERO PUSH2 0x10 JUMPI PUSH1 0x0 DUP1 REVERT JUMPDEST POP PUSH1 0x4 CALLDATASIZE LT PUSH2 0x41 JUMPI PUSH1 0x0 CALLDATALOAD PUSH1 0xE0 SHR DUP1 PUSH4 0x1107747E EQ PUSH2 0x46 JUMPI DUP1 PUSH4 0x43A0E44A EQ PUSH2 0x62 JUMPI DUP1 PUSH4 0xF40941D0 EQ PUSH2 0x7E JUMPI JUMPDEST PUSH1 0x0 DUP1 REVERT JUMPDEST PUSH2 0x60 PUSH1 0x4 DUP1 CALLDATASIZE SUB DUP2 ADD SWAP1 PUSH2 0x5B SWAP2 SWAP1 PUSH2 0x690 JUMP JUMPDEST PUSH2 0xAE JUMP JUMPDEST STOP JUMPDEST PUSH2 0x7C PUSH1 0x4 DUP1 CALLDATASIZE SUB DUP2 ADD SWAP1 PUSH2 0x77 SWAP2 SWAP1 PUSH2 0x803 JUMP JUMPDEST PUSH2 0x14A JUMP JUMPDEST STOP JUMPDEST PUSH2 0x98 PUSH1 0x4 DUP1 CALLDATASIZE SUB DUP2 ADD SWAP1 PUSH2 0x93 SWAP2 SWAP1 PUSH2 0x690 JUMP JUMPDEST PUSH2 0x328 JUMP JUMPDEST PUSH1 0x40 MLOAD PUSH2 0xA5 SWAP2 SWAP1 PUSH2 0xA49 JUMP JUMPDEST PUSH1 0x40 MLOAD DUP1 SWAP2 SUB SWAP1 RETURN JUMPDEST PUSH1 0x0 DUP1 SLOAD SWAP1 PUSH2 0x100 EXP SWAP1 DIV PUSH20 0xFFFFFFFFFFFFFFFFFFFFFFFFFFFFFFFFFFFFFFFF AND PUSH20 0xFFFFFFFFFFFFFFFFFFFFFFFFFFFFFFFFFFFFFFFF AND CALLER PUSH20 0xFFFFFFFFFFFFFFFFFFFFFFFFFFFFFFFFFFFFFFFF AND EQ PUSH2 0x106 JUMPI PUSH1 0x0 DUP1 REVERT JUMPDEST DUP1 PUSH1 0x2 PUSH1 0x0 PUSH2 0x100 EXP DUP2 SLOAD DUP2 PUSH20 0xFFFFFFFFFFFFFFFFFFFFFFFFFFFFFFFFFFFFFFFF MUL NOT AND SWAP1 DUP4 PUSH20 0xFFFFFFFFFFFFFFFFFFFFFFFFFFFFFFFFFFFFFFFF AND MUL OR SWAP1 SSTORE POP POP JUMP JUMPDEST DUP4 PUSH1 0x2 PUSH1 0x0 SWAP1 SLOAD SWAP1 PUSH2 0x100 EXP SWAP1 DIV PUSH20 0xFFFFFFFFFFFFFFFFFFFFFFFFFFFFFFFFFFFFFFFF AND PUSH20 0xFFFFFFFFFFFFFFFFFFFFFFFFFFFFFFFFFFFFFFFF AND PUSH4 0x63A9C3D7 DUP3 PUSH1 0x40 MLOAD DUP3 PUSH4 0xFFFFFFFF AND PUSH1 0xE0 SHL DUP2 MSTORE PUSH1 0x4 ADD PUSH2 0x1A6 SWAP2 SWAP1 PUSH2 0xA7A JUMP JUMPDEST PUSH1 0x20 PUSH1 0x40 MLOAD DUP1 DUP4 SUB DUP2 DUP7 GAS STATICCALL ISZERO DUP1 ISZERO PUSH2 0x1C3 JUMPI RETURNDATASIZE PUSH1 0x0 DUP1 RETURNDATACOPY RETURNDATASIZE PUSH1 0x0 REVERT JUMPDEST POP POP POP POP PUSH1 0x40 MLOAD RETURNDATASIZE PUSH1 0x1F NOT PUSH1 0x1F DUP3 ADD AND DUP3 ADD DUP1 PUSH1 0x40 MSTORE POP DUP2 ADD SWAP1 PUSH2 0x1E7 SWAP2 SWAP1 PUSH2 0xACD JUMP JUMPDEST PUSH2 0x1F0 JUMPI PUSH1 0x0 DUP1 REVERT JUMPDEST PUSH2 0x1F8 PUSH2 0x5E7 JUMP JUMPDEST DUP5 DUP2 PUSH1 0x0 ADD DUP2 SWAP1 MSTORE POP DUP4 DUP2 PUSH1 0x20 ADD DUP2 SWAP1 MSTORE POP DUP3 DUP2 PUSH1 0x40 ADD SWAP1 PUSH20 0xFFFFFFFFFFFFFFFFFFFFFFFFFFFFFFFFFFFFFFFF AND SWAP1 DUP2 PUSH20 0xFFFFFFFFFFFFFFFFFFFFFFFFFFFFFFFFFFFFFFFF AND DUP2 MSTORE POP POP PUSH1 0x1 PUSH1 0x0 DUP8 PUSH20 0xFFFFFFFFFFFFFFFFFFFFFFFFFFFFFFFFFFFFFFFF AND PUSH20 0xFFFFFFFFFFFFFFFFFFFFFFFFFFFFFFFFFFFFFFFF AND DUP2 MSTORE PUSH1 0x20 ADD SWAP1 DUP2 MSTORE PUSH1 0x20 ADD PUSH1 0x0 KECCAK256 DUP2 SWAP1 DUP1 PUSH1 0x1 DUP2 SLOAD ADD DUP1 DUP3 SSTORE DUP1 SWAP2 POP POP PUSH1 0x1 SWAP1 SUB SWAP1 PUSH1 0x0 MSTORE PUSH1 0x20 PUSH1 0x0 KECCAK256 SWAP1 PUSH1 0x3 MUL ADD PUSH1 0x0 SWAP1 SWAP2 SWAP1 SWAP2 SWAP1 SWAP2 POP PUSH1 0x0 DUP3 ADD MLOAD DUP2 PUSH1 0x0 ADD SWAP1 DUP2 PUSH2 0x2C0 SWAP2 SWAP1 PUSH2 0xD10 JUMP JUMPDEST POP PUSH1 0x20 DUP3 ADD MLOAD DUP2 PUSH1 0x1 ADD SWAP1 DUP2 PUSH2 0x2D6 SWAP2 SWAP1 PUSH2 0xD10 JUMP JUMPDEST POP PUSH1 0x40 DUP3 ADD MLOAD DUP2 PUSH1 0x2 ADD PUSH1 0x0 PUSH2 0x100 EXP DUP2 SLOAD DUP2 PUSH20 0xFFFFFFFFFFFFFFFFFFFFFFFFFFFFFFFFFFFFFFFF MUL NOT AND SWAP1 DUP4 PUSH20 0xFFFFFFFFFFFFFFFFFFFFFFFFFFFFFFFFFFFFFFFF AND MUL OR SWAP1 SSTORE POP POP POP POP POP POP POP POP POP JUMP JUMPDEST PUSH1 0x60 CALLER PUSH1 0x2 PUSH1 0x0 SWAP1 SLOAD SWAP1 PUSH2 0x100 EXP SWAP1 DIV PUSH20 0xFFFFFFFFFFFFFFFFFFFFFFFFFFFFFFFFFFFFFFFF AND PUSH20 0xFFFFFFFFFFFFFFFFFFFFFFFFFFFFFFFFFFFFFFFF AND PUSH4 0x63A9C3D7 DUP3 PUSH1 0x40 MLOAD DUP3 PUSH4 0xFFFFFFFF AND PUSH1 0xE0 SHL DUP2 MSTORE PUSH1 0x4 ADD PUSH2 0x386 SWAP2 SWAP1 PUSH2 0xA7A JUMP JUMPDEST PUSH1 0x20 PUSH1 0x40 MLOAD DUP1 DUP4 SUB DUP2 DUP7 GAS STATICCALL ISZERO DUP1 ISZERO PUSH2 0x3A3 JUMPI RETURNDATASIZE PUSH1 0x0 DUP1 RETURNDATACOPY RETURNDATASIZE PUSH1 0x0 REVERT JUMPDEST POP POP POP POP PUSH1 0x40 MLOAD RETURNDATASIZE PUSH1 0x1F NOT PUSH1 0x1F DUP3 ADD AND DUP3 ADD DUP1 PUSH1 0x40 MSTORE POP DUP2 ADD SWAP1 PUSH2 0x3C7 SWAP2 SWAP1 PUSH2 0xACD JUMP JUMPDEST PUSH2 0x3D0 JUMPI PUSH1 0x0 DUP1 REVERT JUMPDEST PUSH1 0x1 PUSH1 0x0 DUP5 PUSH20 0xFFFFFFFFFFFFFFFFFFFFFFFFFFFFFFFFFFFFFFFF AND PUSH20 0xFFFFFFFFFFFFFFFFFFFFFFFFFFFFFFFFFFFFFFFF AND DUP2 MSTORE PUSH1 0x20 ADD SWAP1 DUP2 MSTORE PUSH1 0x20 ADD PUSH1 0x0 KECCAK256 DUP1 SLOAD DUP1 PUSH1 0x20 MUL PUSH1 0x20 ADD PUSH1 0x40 MLOAD SWAP1 DUP2 ADD PUSH1 0x40 MSTORE DUP1 SWAP3 SWAP2 SWAP1 DUP2 DUP2 MSTORE PUSH1 0x20 ADD PUSH1 0x0 SWAP1 JUMPDEST DUP3 DUP3 LT ISZERO PUSH2 0x5DB JUMPI DUP4 DUP3 SWAP1 PUSH1 0x0 MSTORE PUSH1 0x20 PUSH1 0x0 KECCAK256 SWAP1 PUSH1 0x3 MUL ADD PUSH1 0x40 MLOAD DUP1 PUSH1 0x60 ADD PUSH1 0x40 MSTORE SWAP1 DUP2 PUSH1 0x0 DUP3 ADD DUP1 SLOAD PUSH2 0x462 SWAP1 PUSH2 0xB29 JUMP JUMPDEST DUP1 PUSH1 0x1F ADD PUSH1 0x20 DUP1 SWAP2 DIV MUL PUSH1 0x20 ADD PUSH1 0x40 MLOAD SWAP1 DUP2 ADD PUSH1 0x40 MSTORE DUP1 SWAP3 SWAP2 SWAP1 DUP2 DUP2 MSTORE PUSH1 0x20 ADD DUP3 DUP1 SLOAD PUSH2 0x48E SWAP1 PUSH2 0xB29 JUMP JUMPDEST DUP1 ISZERO PUSH2 0x4DB JUMPI DUP1 PUSH1 0x1F LT PUSH2 0x4B0 JUMPI PUSH2 0x100 DUP1 DUP4 SLOAD DIV MUL DUP4 MSTORE SWAP2 PUSH1 0x20 ADD SWAP2 PUSH2 0x4DB JUMP JUMPDEST DUP3 ADD SWAP2 SWAP1 PUSH1 0x0 MSTORE PUSH1 0x20 PUSH1 0x0 KECCAK256 SWAP1 JUMPDEST DUP2 SLOAD DUP2 MSTORE SWAP1 PUSH1 0x1 ADD SWAP1 PUSH1 0x20 ADD DUP1 DUP4 GT PUSH2 0x4BE JUMPI DUP3 SWAP1 SUB PUSH1 0x1F AND DUP3 ADD SWAP2 JUMPDEST POP POP POP POP POP DUP2 MSTORE PUSH1 0x20 ADD PUSH1 0x1 DUP3 ADD DUP1 SLOAD PUSH2 0x4F4 SWAP1 PUSH2 0xB29 JUMP JUMPDEST DUP1 PUSH1 0x1F ADD PUSH1 0x20 DUP1 SWAP2 DIV MUL PUSH1 0x20 ADD PUSH1 0x40 MLOAD SWAP1 DUP2 ADD PUSH1 0x40 MSTORE DUP1 SWAP3 SWAP2 SWAP1 DUP2 DUP2 MSTORE PUSH1 0x20 ADD DUP3 DUP1 SLOAD PUSH2 0x520 SWAP1 PUSH2 0xB29 JUMP JUMPDEST DUP1 ISZERO PUSH2 0x56D JUMPI DUP1 PUSH1 0x1F LT PUSH2 0x542 JUMPI PUSH2 0x100 DUP1 DUP4 SLOAD DIV MUL DUP4 MSTORE SWAP2 PUSH1 0x20 ADD SWAP2 PUSH2 0x56D JUMP JUMPDEST DUP3 ADD SWAP2 SWAP1 PUSH1 0x0 MSTORE PUSH1 0x20 PUSH1 0x0 KECCAK256 SWAP1 JUMPDEST DUP2 SLOAD DUP2 MSTORE SWAP1 PUSH1 0x1 ADD SWAP1 PUSH1 0x20 ADD DUP1 DUP4 GT PUSH2 0x550 JUMPI DUP3 SWAP1 SUB PUSH1 0x1F AND DUP3 ADD SWAP2 JUMPDEST POP POP POP POP POP DUP2 MSTORE PUSH1 0x20 ADD PUSH1 0x2 DUP3 ADD PUSH1 0x0 SWAP1 SLOAD SWAP1 PUSH2 0x100 EXP SWAP1 DIV PUSH20 0xFFFFFFFFFFFFFFFFFFFFFFFFFFFFFFFFFFFFFFFF AND PUSH20 0xFFFFFFFFFFFFFFFFFFFFFFFFFFFFFFFFFFFFFFFF AND PUSH20 0xFFFFFFFFFFFFFFFFFFFFFFFFFFFFFFFFFFFFFFFF AND DUP2 MSTORE POP POP DUP2 MSTORE PUSH1 0x20 ADD SWAP1 PUSH1 0x1 ADD SWAP1 PUSH2 0x42F JUMP JUMPDEST POP POP POP POP SWAP2 POP POP SWAP2 SWAP1 POP JUMP JUMPDEST PUSH1 0x40 MLOAD DUP1 PUSH1 0x60 ADD PUSH1 0x40 MSTORE DUP1 PUSH1 0x60 DUP2 MSTORE PUSH1 0x20 ADD PUSH1 0x60 DUP2 MSTORE PUSH1 0x20 ADD PUSH1 0x0 PUSH20 0xFFFFFFFFFFFFFFFFFFFFFFFFFFFFFFFFFFFFFFFF AND DUP2 MSTORE POP SWAP1 JUMP JUMPDEST PUSH1 0x0 PUSH1 0x40 MLOAD SWAP1 POP SWAP1 JUMP JUMPDEST PUSH1 0x0 DUP1 REVERT JUMPDEST PUSH1 0x0 DUP1 REVERT JUMPDEST PUSH1 0x0 PUSH20 0xFFFFFFFFFFFFFFFFFFFFFFFFFFFFFFFFFFFFFFFF DUP3 AND SWAP1 POP SWAP2 SWAP1 POP JUMP JUMPDEST PUSH1 0x0 PUSH2 0x65D DUP3 PUSH2 0x632 JUMP JUMPDEST SWAP1 POP SWAP2 SWAP1 POP JUMP JUMPDEST PUSH2 0x66D DUP2 PUSH2 0x652 JUMP JUMPDEST DUP2 EQ PUSH2 0x678 JUMPI PUSH1 0x0 DUP1 REVERT JUMPDEST POP JUMP JUMPDEST PUSH1 0x0 DUP2 CALLDATALOAD SWAP1 POP PUSH2 0x68A DUP2 PUSH2 0x664 JUMP JUMPDEST SWAP3 SWAP2 POP POP JUMP JUMPDEST PUSH1 0x0 PUSH1 0x20 DUP3 DUP5 SUB SLT ISZERO PUSH2 0x6A6 JUMPI PUSH2 0x6A5 PUSH2 0x628 JUMP JUMPDEST JUMPDEST PUSH1 0x0 PUSH2 0x6B4 DUP5 DUP3 DUP6 ADD PUSH2 0x67B JUMP JUMPDEST SWAP2 POP POP SWAP3 SWAP2 POP POP JUMP JUMPDEST PUSH1 0x0 DUP1 REVERT JUMPDEST PUSH1 0x0 DUP1 REVERT JUMPDEST PUSH1 0x0 PUSH1 0x1F NOT PUSH1 0x1F DUP4 ADD AND SWAP1 POP SWAP2 SWAP1 POP JUMP JUMPDEST PUSH32 0x4E487B7100000000000000000000000000000000000000000000000000000000 PUSH1 0x0 MSTORE PUSH1 0x41 PUSH1 0x4 MSTORE PUSH1 0x24 PUSH1 0x0 REVERT JUMPDEST PUSH2 0x710 DUP3 PUSH2 0x6C7 JUMP JUMPDEST DUP2 ADD DUP2 DUP2 LT PUSH8 0xFFFFFFFFFFFFFFFF DUP3 GT OR ISZERO PUSH2 0x72F JUMPI PUSH2 0x72E PUSH2 0x6D8 JUMP JUMPDEST JUMPDEST DUP1 PUSH1 0x40 MSTORE POP POP POP JUMP JUMPDEST PUSH1 0x0 PUSH2 0x742 PUSH2 0x61E JUMP JUMPDEST SWAP1 POP PUSH2 0x74E DUP3 DUP3 PUSH2 0x707 JUMP JUMPDEST SWAP2 SWAP1 POP JUMP JUMPDEST PUSH1 0x0 PUSH8 0xFFFFFFFFFFFFFFFF DUP3 GT ISZERO PUSH2 0x76E JUMPI PUSH2 0x76D PUSH2 0x6D8 JUMP JUMPDEST JUMPDEST PUSH2 0x777 DUP3 PUSH2 0x6C7 JUMP JUMPDEST SWAP1 POP PUSH1 0x20 DUP2 ADD SWAP1 POP SWAP2 SWAP1 POP JUMP JUMPDEST DUP3 DUP2 DUP4 CALLDATACOPY PUSH1 0x0 DUP4 DUP4 ADD MSTORE POP POP POP JUMP JUMPDEST PUSH1 0x0 PUSH2 0x7A6 PUSH2 0x7A1 DUP5 PUSH2 0x753 JUMP JUMPDEST PUSH2 0x738 JUMP JUMPDEST SWAP1 POP DUP3 DUP2 MSTORE PUSH1 0x20 DUP2 ADD DUP5 DUP5 DUP5 ADD GT ISZERO PUSH2 0x7C2 JUMPI PUSH2 0x7C1 PUSH2 0x6C2 JUMP JUMPDEST JUMPDEST PUSH2 0x7CD DUP5 DUP3 DUP6 PUSH2 0x784 JUMP JUMPDEST POP SWAP4 SWAP3 POP POP POP JUMP JUMPDEST PUSH1 0x0 DUP3 PUSH1 0x1F DUP4 ADD SLT PUSH2 0x7EA JUMPI PUSH2 0x7E9 PUSH2 0x6BD JUMP JUMPDEST JUMPDEST DUP2 CALLDATALOAD PUSH2 0x7FA DUP5 DUP3 PUSH1 0x20 DUP7 ADD PUSH2 0x793 JUMP JUMPDEST SWAP2 POP POP SWAP3 SWAP2 POP POP JUMP JUMPDEST PUSH1 0x0 DUP1 PUSH1 0x0 DUP1 PUSH1 0x80 DUP6 DUP8 SUB SLT ISZERO PUSH2 0x81D JUMPI PUSH2 0x81C PUSH2 0x628 JUMP JUMPDEST JUMPDEST PUSH1 0x0 PUSH2 0x82B DUP8 DUP3 DUP9 ADD PUSH2 0x67B JUMP JUMPDEST SWAP5 POP POP PUSH1 0x20 DUP6 ADD CALLDATALOAD PUSH8 0xFFFFFFFFFFFFFFFF DUP2 GT ISZERO PUSH2 0x84C JUMPI PUSH2 0x84B PUSH2 0x62D JUMP JUMPDEST JUMPDEST PUSH2 0x858 DUP8 DUP3 DUP9 ADD PUSH2 0x7D5 JUMP JUMPDEST SWAP4 POP POP PUSH1 0x40 DUP6 ADD CALLDATALOAD PUSH8 0xFFFFFFFFFFFFFFFF DUP2 GT ISZERO PUSH2 0x879 JUMPI PUSH2 0x878 PUSH2 0x62D JUMP JUMPDEST JUMPDEST PUSH2 0x885 DUP8 DUP3 DUP9 ADD PUSH2 0x7D5 JUMP JUMPDEST SWAP3 POP POP PUSH1 0x60 PUSH2 0x896 DUP8 DUP3 DUP9 ADD PUSH2 0x67B JUMP JUMPDEST SWAP2 POP POP SWAP3 SWAP6 SWAP2 SWAP5 POP SWAP3 POP JUMP JUMPDEST PUSH1 0x0 DUP2 MLOAD SWAP1 POP SWAP2 SWAP1 POP JUMP JUMPDEST PUSH1 0x0 DUP3 DUP3 MSTORE PUSH1 0x20 DUP3 ADD SWAP1 POP SWAP3 SWAP2 POP POP JUMP JUMPDEST PUSH1 0x0 DUP2 SWAP1 POP PUSH1 0x20 DUP3 ADD SWAP1 POP SWAP2 SWAP1 POP JUMP JUMPDEST PUSH1 0x0 DUP2 MLOAD SWAP1 POP SWAP2 SWAP1 POP JUMP JUMPDEST PUSH1 0x0 DUP3 DUP3 MSTORE PUSH1 0x20 DUP3 ADD SWAP1 POP SWAP3 SWAP2 POP POP JUMP JUMPDEST PUSH1 0x0 JUMPDEST DUP4 DUP2 LT ISZERO PUSH2 0x908 JUMPI DUP1 DUP3 ADD MLOAD DUP2 DUP5 ADD MSTORE PUSH1 0x20 DUP2 ADD SWAP1 POP PUSH2 0x8ED JUMP JUMPDEST PUSH1 0x0 DUP5 DUP5 ADD MSTORE POP POP POP POP JUMP JUMPDEST PUSH1 0x0 PUSH2 0x91F DUP3 PUSH2 0x8CE JUMP JUMPDEST PUSH2 0x929 DUP2 DUP6 PUSH2 0x8D9 JUMP JUMPDEST SWAP4 POP PUSH2 0x939 DUP2 DUP6 PUSH1 0x20 DUP7 ADD PUSH2 0x8EA JUMP JUMPDEST PUSH2 0x942 DUP2 PUSH2 0x6C7 JUMP JUMPDEST DUP5 ADD SWAP2 POP POP SWAP3 SWAP2 POP POP JUMP JUMPDEST PUSH2 0x956 DUP2 PUSH2 0x652 JUMP JUMPDEST DUP3 MSTORE POP POP JUMP JUMPDEST PUSH1 0x0 PUSH1 0x60 DUP4 ADD PUSH1 0x0 DUP4 ADD MLOAD DUP5 DUP3 SUB PUSH1 0x0 DUP7 ADD MSTORE PUSH2 0x979 DUP3 DUP3 PUSH2 0x914 JUMP JUMPDEST SWAP2 POP POP PUSH1 0x20 DUP4 ADD MLOAD DUP5 DUP3 SUB PUSH1 0x20 DUP7 ADD MSTORE PUSH2 0x993 DUP3 DUP3 PUSH2 0x914 JUMP JUMPDEST SWAP2 POP POP PUSH1 0x40 DUP4 ADD MLOAD PUSH2 0x9A8 PUSH1 0x40 DUP7 ADD DUP3 PUSH2 0x94D JUMP JUMPDEST POP DUP1 SWAP2 POP POP SWAP3 SWAP2 POP POP JUMP JUMPDEST PUSH1 0x0 PUSH2 0x9BF DUP4 DUP4 PUSH2 0x95C JUMP JUMPDEST SWAP1 POP SWAP3 SWAP2 POP POP JUMP JUMPDEST PUSH1 0x0 PUSH1 0x20 DUP3 ADD SWAP1 POP SWAP2 SWAP1 POP JUMP JUMPDEST PUSH1 0x0 PUSH2 0x9DF DUP3 PUSH2 0x8A2 JUMP JUMPDEST PUSH2 0x9E9 DUP2 DUP6 PUSH2 0x8AD JUMP JUMPDEST SWAP4 POP DUP4 PUSH1 0x20 DUP3 MUL DUP6 ADD PUSH2 0x9FB DUP6 PUSH2 0x8BE JUMP JUMPDEST DUP1 PUSH1 0x0 JUMPDEST DUP6 DUP2 LT ISZERO PUSH2 0xA37 JUMPI DUP5 DUP5 SUB DUP10 MSTORE DUP2 MLOAD PUSH2 0xA18 DUP6 DUP3 PUSH2 0x9B3 JUMP JUMPDEST SWAP5 POP PUSH2 0xA23 DUP4 PUSH2 0x9C7 JUMP JUMPDEST SWAP3 POP PUSH1 0x20 DUP11 ADD SWAP10 POP POP PUSH1 0x1 DUP2 ADD SWAP1 POP PUSH2 0x9FF JUMP JUMPDEST POP DUP3 SWAP8 POP DUP8 SWAP6 POP POP POP POP POP POP SWAP3 SWAP2 POP POP JUMP JUMPDEST PUSH1 0x0 PUSH1 0x20 DUP3 ADD SWAP1 POP DUP2 DUP2 SUB PUSH1 0x0 DUP4 ADD MSTORE PUSH2 0xA63 DUP2 DUP5 PUSH2 0x9D4 JUMP JUMPDEST SWAP1 POP SWAP3 SWAP2 POP POP JUMP JUMPDEST PUSH2 0xA74 DUP2 PUSH2 0x652 JUMP JUMPDEST DUP3 MSTORE POP POP JUMP JUMPDEST PUSH1 0x0 PUSH1 0x20 DUP3 ADD SWAP1 POP PUSH2 0xA8F PUSH1 0x0 DUP4 ADD DUP5 PUSH2 0xA6B JUMP JUMPDEST SWAP3 SWAP2 POP POP JUMP JUMPDEST PUSH1 0x0 DUP2 ISZERO ISZERO SWAP1 POP SWAP2 SWAP1 POP JUMP JUMPDEST PUSH2 0xAAA DUP2 PUSH2 0xA95 JUMP JUMPDEST DUP2 EQ PUSH2 0xAB5 JUMPI PUSH1 0x0 DUP1 REVERT JUMPDEST POP JUMP JUMPDEST PUSH1 0x0 DUP2 MLOAD SWAP1 POP PUSH2 0xAC7 DUP2 PUSH2 0xAA1 JUMP JUMPDEST SWAP3 SWAP2 POP POP JUMP JUMPDEST PUSH1 0x0 PUSH1 0x20 DUP3 DUP5 SUB SLT ISZERO PUSH2 0xAE3 JUMPI PUSH2 0xAE2 PUSH2 0x628 JUMP JUMPDEST JUMPDEST PUSH1 0x0 PUSH2 0xAF1 DUP5 DUP3 DUP6 ADD PUSH2 0xAB8 JUMP JUMPDEST SWAP2 POP POP SWAP3 SWAP2 POP POP JUMP JUMPDEST PUSH32 0x4E487B7100000000000000000000000000000000000000000000000000000000 PUSH1 0x0 MSTORE PUSH1 0x22 PUSH1 0x4 MSTORE PUSH1 0x24 PUSH1 0x0 REVERT JUMPDEST PUSH1 0x0 PUSH1 0x2 DUP3 DIV SWAP1 POP PUSH1 0x1 DUP3 AND DUP1 PUSH2 0xB41 JUMPI PUSH1 0x7F DUP3 AND SWAP2 POP JUMPDEST PUSH1 0x20 DUP3 LT DUP2 SUB PUSH2 0xB54 JUMPI PUSH2 0xB53 PUSH2 0xAFA JUMP JUMPDEST JUMPDEST POP SWAP2 SWAP1 POP JUMP JUMPDEST PUSH1 0x0 DUP2 SWAP1 POP DUP2 PUSH1 0x0 MSTORE PUSH1 0x20 PUSH1 0x0 KECCAK256 SWAP1 POP SWAP2 SWAP1 POP JUMP JUMPDEST PUSH1 0x0 PUSH1 0x20 PUSH1 0x1F DUP4 ADD DIV SWAP1 POP SWAP2 SWAP1 POP JUMP JUMPDEST PUSH1 0x0 DUP3 DUP3 SHL SWAP1 POP SWAP3 SWAP2 POP POP JUMP JUMPDEST PUSH1 0x0 PUSH1 0x8 DUP4 MUL PUSH2 0xBBC PUSH32 0xFFFFFFFFFFFFFFFFFFFFFFFFFFFFFFFFFFFFFFFFFFFFFFFFFFFFFFFFFFFFFFFF DUP3 PUSH2 0xB7F JUMP JUMPDEST PUSH2 0xBC6 DUP7 DUP4 PUSH2 0xB7F JUMP JUMPDEST SWAP6 POP DUP1 NOT DUP5 AND SWAP4 POP DUP1 DUP7 AND DUP5 OR SWAP3 POP POP POP SWAP4 SWAP3 POP POP POP JUMP JUMPDEST PUSH1 0x0 DUP2 SWAP1 POP SWAP2 SWAP1 POP JUMP JUMPDEST PUSH1 0x0 DUP2 SWAP1 POP SWAP2 SWAP1 POP JUMP JUMPDEST PUSH1 0x0 PUSH2 0xC0D PUSH2 0xC08 PUSH2 0xC03 DUP5 PUSH2 0xBDE JUMP JUMPDEST PUSH2 0xBE8 JUMP JUMPDEST PUSH2 0xBDE JUMP JUMPDEST SWAP1 POP SWAP2 SWAP1 POP JUMP JUMPDEST PUSH1 0x0 DUP2 SWAP1 POP SWAP2 SWAP1 POP JUMP JUMPDEST PUSH2 0xC27 DUP4 PUSH2 0xBF2 JUMP JUMPDEST PUSH2 0xC3B PUSH2 0xC33 DUP3 PUSH2 0xC14 JUMP JUMPDEST DUP5 DUP5 SLOAD PUSH2 0xB8C JUMP JUMPDEST DUP3 SSTORE POP POP POP POP JUMP JUMPDEST PUSH1 0x0 SWAP1 JUMP JUMPDEST PUSH2 0xC50 PUSH2 0xC43 JUMP JUMPDEST PUSH2 0xC5B DUP2 DUP5 DUP5 PUSH2 0xC1E JUMP JUMPDEST POP POP POP JUMP JUMPDEST JUMPDEST DUP2 DUP2 LT ISZERO PUSH2 0xC7F JUMPI PUSH2 0xC74 PUSH1 0x0 DUP3 PUSH2 0xC48 JUMP JUMPDEST PUSH1 0x1 DUP2 ADD SWAP1 POP PUSH2 0xC61 JUMP JUMPDEST POP POP JUMP JUMPDEST PUSH1 0x1F DUP3 GT ISZERO PUSH2 0xCC4 JUMPI PUSH2 0xC95 DUP2 PUSH2 0xB5A JUMP JUMPDEST PUSH2 0xC9E DUP5 PUSH2 0xB6F JUMP JUMPDEST DUP2 ADD PUSH1 0x20 DUP6 LT ISZERO PUSH2 0xCAD JUMPI DUP2 SWAP1 POP JUMPDEST PUSH2 0xCC1 PUSH2 0xCB9 DUP6 PUSH2 0xB6F JUMP JUMPDEST DUP4 ADD DUP3 PUSH2 0xC60 JUMP JUMPDEST POP POP JUMPDEST POP POP POP JUMP JUMPDEST PUSH1 0x0 DUP3 DUP3 SHR SWAP1 POP SWAP3 SWAP2 POP POP JUMP JUMPDEST PUSH1 0x0 PUSH2 0xCE7 PUSH1 0x0 NOT DUP5 PUSH1 0x8 MUL PUSH2 0xCC9 JUMP JUMPDEST NOT DUP1 DUP4 AND SWAP2 POP POP SWAP3 SWAP2 POP POP JUMP JUMPDEST PUSH1 0x0 PUSH2 0xD00 DUP4 DUP4 PUSH2 0xCD6 JUMP JUMPDEST SWAP2 POP DUP3 PUSH1 0x2 MUL DUP3 OR SWAP1 POP SWAP3 SWAP2 POP POP JUMP JUMPDEST PUSH2 0xD19 DUP3 PUSH2 0x8CE JUMP JUMPDEST PUSH8 0xFFFFFFFFFFFFFFFF DUP2 GT ISZERO PUSH2 0xD32 JUMPI PUSH2 0xD31 PUSH2 0x6D8 JUMP JUMPDEST JUMPDEST PUSH2 0xD3C DUP3 SLOAD PUSH2 0xB29 JUMP JUMPDEST PUSH2 0xD47 DUP3 DUP3 DUP6 PUSH2 0xC83 JUMP JUMPDEST PUSH1 0x0 PUSH1 0x20 SWAP1 POP PUSH1 0x1F DUP4 GT PUSH1 0x1 DUP2 EQ PUSH2 0xD7A JUMPI PUSH1 0x0 DUP5 ISZERO PUSH2 0xD68 JUMPI DUP3 DUP8 ADD MLOAD SWAP1 POP JUMPDEST PUSH2 0xD72 DUP6 DUP3 PUSH2 0xCF4 JUMP JUMPDEST DUP7 SSTORE POP PUSH2 0xDDA JUMP JUMPDEST PUSH1 0x1F NOT DUP5 AND PUSH2 0xD88 DUP7 PUSH2 0xB5A JUMP JUMPDEST PUSH1 0x0 JUMPDEST DUP3 DUP2 LT ISZERO PUSH2 0xDB0 JUMPI DUP5 DUP10 ADD MLOAD DUP3 SSTORE PUSH1 0x1 DUP3 ADD SWAP2 POP PUSH1 0x20 DUP6 ADD SWAP5 POP PUSH1 0x20 DUP2 ADD SWAP1 POP PUSH2 0xD8B JUMP JUMPDEST DUP7 DUP4 LT ISZERO PUSH2 0xDCD JUMPI DUP5 DUP10 ADD MLOAD PUSH2 0xDC9 PUSH1 0x1F DUP10 AND DUP3 PUSH2 0xCD6 JUMP JUMPDEST DUP4 SSTORE POP JUMPDEST PUSH1 0x1 PUSH1 0x2 DUP9 MUL ADD DUP9 SSTORE POP POP POP JUMPDEST POP POP POP POP POP POP JUMP INVALID LOG2 PUSH5 0x6970667358 0x22 SLT KECCAK256 0xE1 PUSH7 0xAEB4433A518D81 DUP4 0xBD PUSH9 0x3CE3BD1ACCCC4DE4EB 0xAC 0xC2 0xC8 GASPRICE DUP13 0x22 0xC2 PC SWAP6 GAS 0xE7 PUSH5 0x736F6C6343 STOP ADDMOD GT STOP CALLER "},"gasEstimates":{"creation":{"codeDepositCost":"359400","executionCost":"infinite","totalCost":"infinite"},"external":{"admin()":"2514","getAllContractAddress(string)":"infinite"}},"methodIdentifiers":{"admin()":"f851a440","getAllContractAddress(string)":"c4fe354c"}},"storageLayout":{"storage":[{"astId":12,"contract":"ElectronicMedicalRecords.sol:ContractDeployer","label":"bunchOfContractAddress","offset":0,"slot":"0","type":"t_mapping(t_string_memory_ptr,t_array(t_struct(ContractAddress)6_storage)dyn_storage)"},{"astId":14,"contract":"ElectronicMedicalRecords.sol:ContractDeployer","label":"admin","offset":0,"slot":"1","type":"t_address"}],"types":{"t_address":{"encoding":"inplace","label":"address","numberOfBytes":"20"},"t_array(t_struct(ContractAddress)6_storage)dyn_storage":{"base":"t_struct(ContractAddress)6_storage","encoding":"dynamic_array","label":"struct ContractDeployer.ContractAddress[]","numberOfBytes":"32"},"t_mapping(t_string_memory_ptr,t_array(t_struct(ContractAddress)6_storage)dyn_storage)":{"encoding":"mapping","key":"t_string_memory_ptr","label":"mapping(string => struct ContractDeployer.ContractAddress[])","numberOfBytes":"32","value":"t_array(t_struct(ContractAddress)6_storage)dyn_storage"},"t_string_memory_ptr":{"encoding":"bytes","label":"string","numberOfBytes":"32"},"t_string_storage":{"encoding":"bytes","label":"string","numberOfBytes":"32"},"t_struct(ContractAddress)6_storage":{"encoding":"inplace","label":"struct ContractDeployer.ContractAddress","members":[{"astId":3,"contract":"ElectronicMedicalRecords.sol:ContractDeployer","label":"name","offset":0,"slot":"0","type":"t_string_storage"},{"astId":5,"contract":"ElectronicMedicalRecords.sol:ContractDeployer","label":"contractAddress","offset":0,"slot":"1","type":"t_address"}],"numberOfBytes":"64"}}},"userdoc":{"kind":"user","methods":{},"version":1}}