{"abi":[{"inputs":[],"stateMutability":"nonpayable","type":"constructor"},{"inputs":[],"name":"admin","outputs":[{"internalType":"address","name":"","type":"address"}],"stateMutability":"view","type":"function"},{"inputs":[{"internalType":"string","name":"_name","type":"string"}],"name":"getAllContractAddress","outputs":[{"components":[{"internalType":"string","name":"name","type":"string"},{"internalType":"address","name":"contractAddress","type":"address"}],"internalType":"struct ContractDeployer.ContractAddress[]","name":"data","type":"tuple[]"}],"stateMutability":"view","type":"function"}],"devdoc":{"kind":"dev","methods":{},"version":1},"evm":{"assembly":"    /* \"ElectronicMedicalRecords.sol\":66:1277  contract ContractDeployer {... */\n  mstore(0x40, 0x80)\n    /* \"ElectronicMedicalRecords.sol\":297:1068  constructor() {... */\n  callvalue\n  dup1\n  iszero\n  tag_1\n  jumpi\n  0x00\n  dup1\n  revert\ntag_1:\n  pop\n    /* \"ElectronicMedicalRecords.sol\":330:340  msg.sender */\n  caller\n    /* \"ElectronicMedicalRecords.sol\":322:327  admin */\n  0x01\n  0x00\n    /* \"ElectronicMedicalRecords.sol\":322:340  admin = msg.sender */\n  0x0100\n  exp\n  dup2\n  sload\n  dup2\n  0xffffffffffffffffffffffffffffffffffffffff\n  mul\n  not\n  and\n  swap1\n  dup4\n  0xffffffffffffffffffffffffffffffffffffffff\n  and\n  mul\n  or\n  swap1\n  sstore\n  pop\n    /* \"ElectronicMedicalRecords.sol\":353:368  address patient */\n  0x00\n    /* \"ElectronicMedicalRecords.sol\":398:408  msg.sender */\n  caller\n    /* \"ElectronicMedicalRecords.sol\":379:409  new MedicalRecords(msg.sender) */\n  mload(0x40)\n  tag_4\n  swap1\n  tag_5\n  jump\t// in\ntag_4:\n  tag_6\n  swap2\n  swap1\n  tag_7\n  jump\t// in\ntag_6:\n  mload(0x40)\n  dup1\n  swap2\n  sub\n  swap1\n  0x00\n  create\n  dup1\n  iszero\n  dup1\n  iszero\n  tag_8\n  jumpi\n  returndatasize\n  0x00\n  dup1\n  returndatacopy\n  revert(0x00, returndatasize)\ntag_8:\n  pop\n    /* \"ElectronicMedicalRecords.sol\":353:410  address patient = address(new MedicalRecords(msg.sender)) */\n  swap1\n  pop\n    /* \"ElectronicMedicalRecords.sol\":421:443  bunchOfContractAddress */\n  0x00\n    /* \"ElectronicMedicalRecords.sol\":421:453  bunchOfContractAddress[\"secret\"] */\n  mload(0x40)\n  tag_9\n  swap1\n  tag_10\n  jump\t// in\ntag_9:\n  swap1\n  dup2\n  mstore\n  0x20\n  add\n  mload(0x40)\n  dup1\n  swap2\n  sub\n  swap1\n  keccak256\n    /* \"ElectronicMedicalRecords.sol\":459:501  ContractAddress(\"MedicalRecords\", patient) */\n  mload(0x40)\n  dup1\n  0x40\n  add\n  0x40\n  mstore\n  dup1\n  mload(0x40)\n  dup1\n  0x40\n  add\n  0x40\n  mstore\n  dup1\n  0x0e\n  dup2\n  mstore\n  0x20\n  add\n  0x4d65646963616c5265636f726473000000000000000000000000000000000000\n  dup2\n  mstore\n  pop\n  dup2\n  mstore\n  0x20\n  add\n    /* \"ElectronicMedicalRecords.sol\":493:500  patient */\n  dup4\n    /* \"ElectronicMedicalRecords.sol\":459:501  ContractAddress(\"MedicalRecords\", patient) */\n  0xffffffffffffffffffffffffffffffffffffffff\n  and\n  dup2\n  mstore\n  pop\n    /* \"ElectronicMedicalRecords.sol\":421:502  bunchOfContractAddress[\"secret\"].push(ContractAddress(\"MedicalRecords\", patient)) */\n  swap1\n  dup1\n  0x01\n  dup2\n  sload\n  add\n  dup1\n  dup3\n  sstore\n  dup1\n  swap2\n  pop\n  pop\n  0x01\n  swap1\n  sub\n  swap1\n  0x00\n  mstore\n  keccak256(0x00, 0x20)\n  swap1\n  0x02\n  mul\n  add\n  0x00\n  swap1\n  swap2\n  swap1\n  swap2\n  swap1\n  swap2\n  pop\n  0x00\n  dup3\n  add\n  mload\n  dup2\n  0x00\n  add\n  swap1\n  dup2\n  tag_12\n  swap2\n  swap1\n  tag_13\n  jump\t// in\ntag_12:\n  pop\n  0x20\n  dup3\n  add\n  mload\n  dup2\n  0x01\n  add\n  exp(0x0100, 0x00)\n  dup2\n  sload\n  dup2\n  0xffffffffffffffffffffffffffffffffffffffff\n  mul\n  not\n  and\n  swap1\n  dup4\n  0xffffffffffffffffffffffffffffffffffffffff\n  and\n  mul\n  or\n  swap1\n  sstore\n  pop\n  pop\n  pop\n    /* \"ElectronicMedicalRecords.sol\":515:541  address patientVerificator */\n  0x00\n    /* \"ElectronicMedicalRecords.sol\":575:585  msg.sender */\n  caller\n    /* \"ElectronicMedicalRecords.sol\":552:586  new PatientVerificator(msg.sender) */\n  mload(0x40)\n  tag_14\n  swap1\n  tag_15\n  jump\t// in\ntag_14:\n  tag_16\n  swap2\n  swap1\n  tag_7\n  jump\t// in\ntag_16:\n  mload(0x40)\n  dup1\n  swap2\n  sub\n  swap1\n  0x00\n  create\n  dup1\n  iszero\n  dup1\n  iszero\n  tag_17\n  jumpi\n  returndatasize\n  0x00\n  dup1\n  returndatacopy\n  revert(0x00, returndatasize)\ntag_17:\n  pop\n    /* \"ElectronicMedicalRecords.sol\":515:587  address patientVerificator = address(new PatientVerificator(msg.sender)) */\n  swap1\n  pop\n    /* \"ElectronicMedicalRecords.sol\":598:620  bunchOfContractAddress */\n  0x00\n    /* \"ElectronicMedicalRecords.sol\":598:630  bunchOfContractAddress[\"secret\"] */\n  mload(0x40)\n  tag_18\n  swap1\n  tag_10\n  jump\t// in\ntag_18:\n  swap1\n  dup2\n  mstore\n  0x20\n  add\n  mload(0x40)\n  dup1\n  swap2\n  sub\n  swap1\n  keccak256\n    /* \"ElectronicMedicalRecords.sol\":636:693  ContractAddress(\"PatientVerificator\", patientVerificator) */\n  mload(0x40)\n  dup1\n  0x40\n  add\n  0x40\n  mstore\n  dup1\n  mload(0x40)\n  dup1\n  0x40\n  add\n  0x40\n  mstore\n  dup1\n  0x12\n  dup2\n  mstore\n  0x20\n  add\n  0x50617469656e745665726966696361746f720000000000000000000000000000\n  dup2\n  mstore\n  pop\n  dup2\n  mstore\n  0x20\n  add\n    /* \"ElectronicMedicalRecords.sol\":674:692  patientVerificator */\n  dup4\n    /* \"ElectronicMedicalRecords.sol\":636:693  ContractAddress(\"PatientVerificator\", patientVerificator) */\n  0xffffffffffffffffffffffffffffffffffffffff\n  and\n  dup2\n  mstore\n  pop\n    /* \"ElectronicMedicalRecords.sol\":598:694  bunchOfContractAddress[\"secret\"].push(ContractAddress(\"PatientVerificator\", patientVerificator)) */\n  swap1\n  dup1\n  0x01\n  dup2\n  sload\n  add\n  dup1\n  dup3\n  sstore\n  dup1\n  swap2\n  pop\n  pop\n  0x01\n  swap1\n  sub\n  swap1\n  0x00\n  mstore\n  keccak256(0x00, 0x20)\n  swap1\n  0x02\n  mul\n  add\n  0x00\n  swap1\n  swap2\n  swap1\n  swap2\n  swap1\n  swap2\n  pop\n  0x00\n  dup3\n  add\n  mload\n  dup2\n  0x00\n  add\n  swap1\n  dup2\n  tag_20\n  swap2\n  swap1\n  tag_13\n  jump\t// in\ntag_20:\n  pop\n  0x20\n  dup3\n  add\n  mload\n  dup2\n  0x01\n  add\n  exp(0x0100, 0x00)\n  dup2\n  sload\n  dup2\n  0xffffffffffffffffffffffffffffffffffffffff\n  mul\n  not\n  and\n  swap1\n  dup4\n  0xffffffffffffffffffffffffffffffffffffffff\n  and\n  mul\n  or\n  swap1\n  sstore\n  pop\n  pop\n  pop\n    /* \"ElectronicMedicalRecords.sol\":707:732  address doctorVerificator */\n  0x00\n    /* \"ElectronicMedicalRecords.sol\":765:775  msg.sender */\n  caller\n    /* \"ElectronicMedicalRecords.sol\":743:776  new DoctorVerificator(msg.sender) */\n  mload(0x40)\n  tag_21\n  swap1\n  tag_22\n  jump\t// in\ntag_21:\n  tag_23\n  swap2\n  swap1\n  tag_7\n  jump\t// in\ntag_23:\n  mload(0x40)\n  dup1\n  swap2\n  sub\n  swap1\n  0x00\n  create\n  dup1\n  iszero\n  dup1\n  iszero\n  tag_24\n  jumpi\n  returndatasize\n  0x00\n  dup1\n  returndatacopy\n  revert(0x00, returndatasize)\ntag_24:\n  pop\n    /* \"ElectronicMedicalRecords.sol\":707:777  address doctorVerificator = address(new DoctorVerificator(msg.sender)) */\n  swap1\n  pop\n    /* \"ElectronicMedicalRecords.sol\":788:810  bunchOfContractAddress */\n  0x00\n    /* \"ElectronicMedicalRecords.sol\":788:820  bunchOfContractAddress[\"secret\"] */\n  mload(0x40)\n  tag_25\n  swap1\n  tag_10\n  jump\t// in\ntag_25:\n  swap1\n  dup2\n  mstore\n  0x20\n  add\n  mload(0x40)\n  dup1\n  swap2\n  sub\n  swap1\n  keccak256\n    /* \"ElectronicMedicalRecords.sol\":826:881  ContractAddress(\"DoctorVerificator\", doctorVerificator) */\n  mload(0x40)\n  dup1\n  0x40\n  add\n  0x40\n  mstore\n  dup1\n  mload(0x40)\n  dup1\n  0x40\n  add\n  0x40\n  mstore\n  dup1\n  0x11\n  dup2\n  mstore\n  0x20\n  add\n  0x446f63746f725665726966696361746f72000000000000000000000000000000\n  dup2\n  mstore\n  pop\n  dup2\n  mstore\n  0x20\n  add\n    /* \"ElectronicMedicalRecords.sol\":863:880  doctorVerificator */\n  dup4\n    /* \"ElectronicMedicalRecords.sol\":826:881  ContractAddress(\"DoctorVerificator\", doctorVerificator) */\n  0xffffffffffffffffffffffffffffffffffffffff\n  and\n  dup2\n  mstore\n  pop\n    /* \"ElectronicMedicalRecords.sol\":788:882  bunchOfContractAddress[\"secret\"].push(ContractAddress(\"DoctorVerificator\", doctorVerificator)) */\n  swap1\n  dup1\n  0x01\n  dup2\n  sload\n  add\n  dup1\n  dup3\n  sstore\n  dup1\n  swap2\n  pop\n  pop\n  0x01\n  swap1\n  sub\n  swap1\n  0x00\n  mstore\n  keccak256(0x00, 0x20)\n  swap1\n  0x02\n  mul\n  add\n  0x00\n  swap1\n  swap2\n  swap1\n  swap2\n  swap1\n  swap2\n  pop\n  0x00\n  dup3\n  add\n  mload\n  dup2\n  0x00\n  add\n  swap1\n  dup2\n  tag_27\n  swap2\n  swap1\n  tag_13\n  jump\t// in\ntag_27:\n  pop\n  0x20\n  dup3\n  add\n  mload\n  dup2\n  0x01\n  add\n  exp(0x0100, 0x00)\n  dup2\n  sload\n  dup2\n  0xffffffffffffffffffffffffffffffffffffffff\n  mul\n  not\n  and\n  swap1\n  dup4\n  0xffffffffffffffffffffffffffffffffffffffff\n  and\n  mul\n  or\n  swap1\n  sstore\n  pop\n  pop\n  pop\n    /* \"ElectronicMedicalRecords.sol\":895:917  address doctorRelation */\n  0x00\n    /* \"ElectronicMedicalRecords.sol\":947:957  msg.sender */\n  caller\n    /* \"ElectronicMedicalRecords.sol\":928:958  new DoctorRelation(msg.sender) */\n  mload(0x40)\n  tag_28\n  swap1\n  tag_29\n  jump\t// in\ntag_28:\n  tag_30\n  swap2\n  swap1\n  tag_7\n  jump\t// in\ntag_30:\n  mload(0x40)\n  dup1\n  swap2\n  sub\n  swap1\n  0x00\n  create\n  dup1\n  iszero\n  dup1\n  iszero\n  tag_31\n  jumpi\n  returndatasize\n  0x00\n  dup1\n  returndatacopy\n  revert(0x00, returndatasize)\ntag_31:\n  pop\n    /* \"ElectronicMedicalRecords.sol\":895:959  address doctorRelation = address(new DoctorRelation(msg.sender)) */\n  swap1\n  pop\n    /* \"ElectronicMedicalRecords.sol\":970:992  bunchOfContractAddress */\n  0x00\n    /* \"ElectronicMedicalRecords.sol\":970:1002  bunchOfContractAddress[\"secret\"] */\n  mload(0x40)\n  tag_32\n  swap1\n  tag_10\n  jump\t// in\ntag_32:\n  swap1\n  dup2\n  mstore\n  0x20\n  add\n  mload(0x40)\n  dup1\n  swap2\n  sub\n  swap1\n  keccak256\n    /* \"ElectronicMedicalRecords.sol\":1008:1057  ContractAddress(\"DoctorRelation\", doctorRelation) */\n  mload(0x40)\n  dup1\n  0x40\n  add\n  0x40\n  mstore\n  dup1\n  mload(0x40)\n  dup1\n  0x40\n  add\n  0x40\n  mstore\n  dup1\n  0x0e\n  dup2\n  mstore\n  0x20\n  add\n  0x446f63746f7252656c6174696f6e000000000000000000000000000000000000\n  dup2\n  mstore\n  pop\n  dup2\n  mstore\n  0x20\n  add\n    /* \"ElectronicMedicalRecords.sol\":1042:1056  doctorRelation */\n  dup4\n    /* \"ElectronicMedicalRecords.sol\":1008:1057  ContractAddress(\"DoctorRelation\", doctorRelation) */\n  0xffffffffffffffffffffffffffffffffffffffff\n  and\n  dup2\n  mstore\n  pop\n    /* \"ElectronicMedicalRecords.sol\":970:1058  bunchOfContractAddress[\"secret\"].push(ContractAddress(\"DoctorRelation\", doctorRelation)) */\n  swap1\n  dup1\n  0x01\n  dup2\n  sload\n  add\n  dup1\n  dup3\n  sstore\n  dup1\n  swap2\n  pop\n  pop\n  0x01\n  swap1\n  sub\n  swap1\n  0x00\n  mstore\n  keccak256(0x00, 0x20)\n  swap1\n  0x02\n  mul\n  add\n  0x00\n  swap1\n  swap2\n  swap1\n  swap2\n  swap1\n  swap2\n  pop\n  0x00\n  dup3\n  add\n  mload\n  dup2\n  0x00\n  add\n  swap1\n  dup2\n  tag_34\n  swap2\n  swap1\n  tag_13\n  jump\t// in\ntag_34:\n  pop\n  0x20\n  dup3\n  add\n  mload\n  dup2\n  0x01\n  add\n  exp(0x0100, 0x00)\n  dup2\n  sload\n  dup2\n  0xffffffffffffffffffffffffffffffffffffffff\n  mul\n  not\n  and\n  swap1\n  dup4\n  0xffffffffffffffffffffffffffffffffffffffff\n  and\n  mul\n  or\n  swap1\n  sstore\n  pop\n  pop\n  pop\n    /* \"ElectronicMedicalRecords.sol\":311:1068  {... */\n  pop\n  pop\n  pop\n  pop\n    /* \"ElectronicMedicalRecords.sol\":66:1277  contract ContractDeployer {... */\n  jump(tag_35)\ntag_5:\n  dataSize(sub_1)\n  dup1\n  dataOffset(sub_1)\n  dup4\n  codecopy\n  add\n  swap1\n  jump\t// out\ntag_15:\n  dataSize(sub_2)\n  dup1\n  dataOffset(sub_2)\n  dup4\n  codecopy\n  add\n  swap1\n  jump\t// out\ntag_22:\n  dataSize(sub_3)\n  dup1\n  dataOffset(sub_3)\n  dup4\n  codecopy\n  add\n  swap1\n  jump\t// out\ntag_29:\n  dataSize(sub_4)\n  dup1\n  dataOffset(sub_4)\n  dup4\n  codecopy\n  add\n  swap1\n  jump\t// out\n    /* \"#utility.yul\":7:133   */\ntag_36:\n    /* \"#utility.yul\":44:51   */\n  0x00\n    /* \"#utility.yul\":84:126   */\n  0xffffffffffffffffffffffffffffffffffffffff\n    /* \"#utility.yul\":77:82   */\n  dup3\n    /* \"#utility.yul\":73:127   */\n  and\n    /* \"#utility.yul\":62:127   */\n  swap1\n  pop\n    /* \"#utility.yul\":7:133   */\n  swap2\n  swap1\n  pop\n  jump\t// out\n    /* \"#utility.yul\":139:235   */\ntag_37:\n    /* \"#utility.yul\":176:183   */\n  0x00\n    /* \"#utility.yul\":205:229   */\n  tag_65\n    /* \"#utility.yul\":223:228   */\n  dup3\n    /* \"#utility.yul\":205:229   */\n  tag_36\n  jump\t// in\ntag_65:\n    /* \"#utility.yul\":194:229   */\n  swap1\n  pop\n    /* \"#utility.yul\":139:235   */\n  swap2\n  swap1\n  pop\n  jump\t// out\n    /* \"#utility.yul\":241:359   */\ntag_38:\n    /* \"#utility.yul\":328:352   */\n  tag_67\n    /* \"#utility.yul\":346:351   */\n  dup2\n    /* \"#utility.yul\":328:352   */\n  tag_37\n  jump\t// in\ntag_67:\n    /* \"#utility.yul\":323:326   */\n  dup3\n    /* \"#utility.yul\":316:353   */\n  mstore\n    /* \"#utility.yul\":241:359   */\n  pop\n  pop\n  jump\t// out\n    /* \"#utility.yul\":365:587   */\ntag_7:\n    /* \"#utility.yul\":458:462   */\n  0x00\n    /* \"#utility.yul\":496:498   */\n  0x20\n    /* \"#utility.yul\":485:494   */\n  dup3\n    /* \"#utility.yul\":481:499   */\n  add\n    /* \"#utility.yul\":473:499   */\n  swap1\n  pop\n    /* \"#utility.yul\":509:580   */\n  tag_69\n    /* \"#utility.yul\":577:578   */\n  0x00\n    /* \"#utility.yul\":566:575   */\n  dup4\n    /* \"#utility.yul\":562:579   */\n  add\n    /* \"#utility.yul\":553:559   */\n  dup5\n    /* \"#utility.yul\":509:580   */\n  tag_38\n  jump\t// in\ntag_69:\n    /* \"#utility.yul\":365:587   */\n  swap3\n  swap2\n  pop\n  pop\n  jump\t// out\n    /* \"#utility.yul\":593:741   */\ntag_39:\n    /* \"#utility.yul\":695:706   */\n  0x00\n    /* \"#utility.yul\":732:735   */\n  dup2\n    /* \"#utility.yul\":717:735   */\n  swap1\n  pop\n    /* \"#utility.yul\":593:741   */\n  swap3\n  swap2\n  pop\n  pop\n  jump\t// out\n    /* \"#utility.yul\":747:903   */\ntag_40:\n    /* \"#utility.yul\":887:895   */\n  0x7365637265740000000000000000000000000000000000000000000000000000\n    /* \"#utility.yul\":883:884   */\n  0x00\n    /* \"#utility.yul\":875:881   */\n  dup3\n    /* \"#utility.yul\":871:885   */\n  add\n    /* \"#utility.yul\":864:896   */\n  mstore\n    /* \"#utility.yul\":747:903   */\n  pop\n  jump\t// out\n    /* \"#utility.yul\":909:1309   */\ntag_41:\n    /* \"#utility.yul\":1069:1072   */\n  0x00\n    /* \"#utility.yul\":1090:1174   */\n  tag_73\n    /* \"#utility.yul\":1172:1173   */\n  0x06\n    /* \"#utility.yul\":1167:1170   */\n  dup4\n    /* \"#utility.yul\":1090:1174   */\n  tag_39\n  jump\t// in\ntag_73:\n    /* \"#utility.yul\":1083:1174   */\n  swap2\n  pop\n    /* \"#utility.yul\":1183:1276   */\n  tag_74\n    /* \"#utility.yul\":1272:1275   */\n  dup3\n    /* \"#utility.yul\":1183:1276   */\n  tag_40\n  jump\t// in\ntag_74:\n    /* \"#utility.yul\":1301:1302   */\n  0x06\n    /* \"#utility.yul\":1296:1299   */\n  dup3\n    /* \"#utility.yul\":1292:1303   */\n  add\n    /* \"#utility.yul\":1285:1303   */\n  swap1\n  pop\n    /* \"#utility.yul\":909:1309   */\n  swap2\n  swap1\n  pop\n  jump\t// out\n    /* \"#utility.yul\":1315:1696   */\ntag_10:\n    /* \"#utility.yul\":1500:1503   */\n  0x00\n    /* \"#utility.yul\":1522:1670   */\n  tag_76\n    /* \"#utility.yul\":1666:1669   */\n  dup3\n    /* \"#utility.yul\":1522:1670   */\n  tag_41\n  jump\t// in\ntag_76:\n    /* \"#utility.yul\":1515:1670   */\n  swap2\n  pop\n    /* \"#utility.yul\":1687:1690   */\n  dup2\n    /* \"#utility.yul\":1680:1690   */\n  swap1\n  pop\n    /* \"#utility.yul\":1315:1696   */\n  swap2\n  swap1\n  pop\n  jump\t// out\n    /* \"#utility.yul\":1702:1801   */\ntag_42:\n    /* \"#utility.yul\":1754:1760   */\n  0x00\n    /* \"#utility.yul\":1788:1793   */\n  dup2\n    /* \"#utility.yul\":1782:1794   */\n  mload\n    /* \"#utility.yul\":1772:1794   */\n  swap1\n  pop\n    /* \"#utility.yul\":1702:1801   */\n  swap2\n  swap1\n  pop\n  jump\t// out\n    /* \"#utility.yul\":1807:1987   */\ntag_43:\n    /* \"#utility.yul\":1855:1932   */\n  0x4e487b7100000000000000000000000000000000000000000000000000000000\n    /* \"#utility.yul\":1852:1853   */\n  0x00\n    /* \"#utility.yul\":1845:1933   */\n  mstore\n    /* \"#utility.yul\":1952:1956   */\n  0x41\n    /* \"#utility.yul\":1949:1950   */\n  0x04\n    /* \"#utility.yul\":1942:1957   */\n  mstore\n    /* \"#utility.yul\":1976:1980   */\n  0x24\n    /* \"#utility.yul\":1973:1974   */\n  0x00\n    /* \"#utility.yul\":1966:1981   */\n  revert\n    /* \"#utility.yul\":1993:2173   */\ntag_44:\n    /* \"#utility.yul\":2041:2118   */\n  0x4e487b7100000000000000000000000000000000000000000000000000000000\n    /* \"#utility.yul\":2038:2039   */\n  0x00\n    /* \"#utility.yul\":2031:2119   */\n  mstore\n    /* \"#utility.yul\":2138:2142   */\n  0x22\n    /* \"#utility.yul\":2135:2136   */\n  0x04\n    /* \"#utility.yul\":2128:2143   */\n  mstore\n    /* \"#utility.yul\":2162:2166   */\n  0x24\n    /* \"#utility.yul\":2159:2160   */\n  0x00\n    /* \"#utility.yul\":2152:2167   */\n  revert\n    /* \"#utility.yul\":2179:2499   */\ntag_45:\n    /* \"#utility.yul\":2223:2229   */\n  0x00\n    /* \"#utility.yul\":2260:2261   */\n  0x02\n    /* \"#utility.yul\":2254:2258   */\n  dup3\n    /* \"#utility.yul\":2250:2262   */\n  div\n    /* \"#utility.yul\":2240:2262   */\n  swap1\n  pop\n    /* \"#utility.yul\":2307:2308   */\n  0x01\n    /* \"#utility.yul\":2301:2305   */\n  dup3\n    /* \"#utility.yul\":2297:2309   */\n  and\n    /* \"#utility.yul\":2328:2346   */\n  dup1\n    /* \"#utility.yul\":2318:2399   */\n  tag_81\n  jumpi\n    /* \"#utility.yul\":2384:2388   */\n  0x7f\n    /* \"#utility.yul\":2376:2382   */\n  dup3\n    /* \"#utility.yul\":2372:2389   */\n  and\n    /* \"#utility.yul\":2362:2389   */\n  swap2\n  pop\n    /* \"#utility.yul\":2318:2399   */\ntag_81:\n    /* \"#utility.yul\":2446:2448   */\n  0x20\n    /* \"#utility.yul\":2438:2444   */\n  dup3\n    /* \"#utility.yul\":2435:2449   */\n  lt\n    /* \"#utility.yul\":2415:2433   */\n  dup2\n    /* \"#utility.yul\":2412:2450   */\n  sub\n    /* \"#utility.yul\":2409:2493   */\n  tag_82\n  jumpi\n    /* \"#utility.yul\":2465:2483   */\n  tag_83\n  tag_44\n  jump\t// in\ntag_83:\n    /* \"#utility.yul\":2409:2493   */\ntag_82:\n    /* \"#utility.yul\":2230:2499   */\n  pop\n    /* \"#utility.yul\":2179:2499   */\n  swap2\n  swap1\n  pop\n  jump\t// out\n    /* \"#utility.yul\":2505:2646   */\ntag_46:\n    /* \"#utility.yul\":2554:2558   */\n  0x00\n    /* \"#utility.yul\":2577:2580   */\n  dup2\n    /* \"#utility.yul\":2569:2580   */\n  swap1\n  pop\n    /* \"#utility.yul\":2600:2603   */\n  dup2\n    /* \"#utility.yul\":2597:2598   */\n  0x00\n    /* \"#utility.yul\":2590:2604   */\n  mstore\n    /* \"#utility.yul\":2634:2638   */\n  0x20\n    /* \"#utility.yul\":2631:2632   */\n  0x00\n    /* \"#utility.yul\":2621:2639   */\n  keccak256\n    /* \"#utility.yul\":2613:2639   */\n  swap1\n  pop\n    /* \"#utility.yul\":2505:2646   */\n  swap2\n  swap1\n  pop\n  jump\t// out\n    /* \"#utility.yul\":2652:2745   */\ntag_47:\n    /* \"#utility.yul\":2689:2695   */\n  0x00\n    /* \"#utility.yul\":2736:2738   */\n  0x20\n    /* \"#utility.yul\":2731:2733   */\n  0x1f\n    /* \"#utility.yul\":2724:2729   */\n  dup4\n    /* \"#utility.yul\":2720:2734   */\n  add\n    /* \"#utility.yul\":2716:2739   */\n  div\n    /* \"#utility.yul\":2706:2739   */\n  swap1\n  pop\n    /* \"#utility.yul\":2652:2745   */\n  swap2\n  swap1\n  pop\n  jump\t// out\n    /* \"#utility.yul\":2751:2858   */\ntag_48:\n    /* \"#utility.yul\":2795:2803   */\n  0x00\n    /* \"#utility.yul\":2845:2850   */\n  dup3\n    /* \"#utility.yul\":2839:2843   */\n  dup3\n    /* \"#utility.yul\":2835:2851   */\n  shl\n    /* \"#utility.yul\":2814:2851   */\n  swap1\n  pop\n    /* \"#utility.yul\":2751:2858   */\n  swap3\n  swap2\n  pop\n  pop\n  jump\t// out\n    /* \"#utility.yul\":2864:3257   */\ntag_49:\n    /* \"#utility.yul\":2933:2939   */\n  0x00\n    /* \"#utility.yul\":2983:2984   */\n  0x08\n    /* \"#utility.yul\":2971:2981   */\n  dup4\n    /* \"#utility.yul\":2967:2985   */\n  mul\n    /* \"#utility.yul\":3006:3103   */\n  tag_88\n    /* \"#utility.yul\":3036:3102   */\n  0xffffffffffffffffffffffffffffffffffffffffffffffffffffffffffffffff\n    /* \"#utility.yul\":3025:3034   */\n  dup3\n    /* \"#utility.yul\":3006:3103   */\n  tag_48\n  jump\t// in\ntag_88:\n    /* \"#utility.yul\":3124:3163   */\n  tag_89\n    /* \"#utility.yul\":3154:3162   */\n  dup7\n    /* \"#utility.yul\":3143:3152   */\n  dup4\n    /* \"#utility.yul\":3124:3163   */\n  tag_48\n  jump\t// in\ntag_89:\n    /* \"#utility.yul\":3112:3163   */\n  swap6\n  pop\n    /* \"#utility.yul\":3196:3200   */\n  dup1\n    /* \"#utility.yul\":3192:3201   */\n  not\n    /* \"#utility.yul\":3185:3190   */\n  dup5\n    /* \"#utility.yul\":3181:3202   */\n  and\n    /* \"#utility.yul\":3172:3202   */\n  swap4\n  pop\n    /* \"#utility.yul\":3245:3249   */\n  dup1\n    /* \"#utility.yul\":3235:3243   */\n  dup7\n    /* \"#utility.yul\":3231:3250   */\n  and\n    /* \"#utility.yul\":3224:3229   */\n  dup5\n    /* \"#utility.yul\":3221:3251   */\n  or\n    /* \"#utility.yul\":3211:3251   */\n  swap3\n  pop\n    /* \"#utility.yul\":2940:3257   */\n  pop\n  pop\n    /* \"#utility.yul\":2864:3257   */\n  swap4\n  swap3\n  pop\n  pop\n  pop\n  jump\t// out\n    /* \"#utility.yul\":3263:3340   */\ntag_50:\n    /* \"#utility.yul\":3300:3307   */\n  0x00\n    /* \"#utility.yul\":3329:3334   */\n  dup2\n    /* \"#utility.yul\":3318:3334   */\n  swap1\n  pop\n    /* \"#utility.yul\":3263:3340   */\n  swap2\n  swap1\n  pop\n  jump\t// out\n    /* \"#utility.yul\":3346:3406   */\ntag_51:\n    /* \"#utility.yul\":3374:3377   */\n  0x00\n    /* \"#utility.yul\":3395:3400   */\n  dup2\n    /* \"#utility.yul\":3388:3400   */\n  swap1\n  pop\n    /* \"#utility.yul\":3346:3406   */\n  swap2\n  swap1\n  pop\n  jump\t// out\n    /* \"#utility.yul\":3412:3554   */\ntag_52:\n    /* \"#utility.yul\":3462:3471   */\n  0x00\n    /* \"#utility.yul\":3495:3548   */\n  tag_93\n    /* \"#utility.yul\":3513:3547   */\n  tag_94\n    /* \"#utility.yul\":3522:3546   */\n  tag_95\n    /* \"#utility.yul\":3540:3545   */\n  dup5\n    /* \"#utility.yul\":3522:3546   */\n  tag_50\n  jump\t// in\ntag_95:\n    /* \"#utility.yul\":3513:3547   */\n  tag_51\n  jump\t// in\ntag_94:\n    /* \"#utility.yul\":3495:3548   */\n  tag_50\n  jump\t// in\ntag_93:\n    /* \"#utility.yul\":3482:3548   */\n  swap1\n  pop\n    /* \"#utility.yul\":3412:3554   */\n  swap2\n  swap1\n  pop\n  jump\t// out\n    /* \"#utility.yul\":3560:3635   */\ntag_53:\n    /* \"#utility.yul\":3603:3606   */\n  0x00\n    /* \"#utility.yul\":3624:3629   */\n  dup2\n    /* \"#utility.yul\":3617:3629   */\n  swap1\n  pop\n    /* \"#utility.yul\":3560:3635   */\n  swap2\n  swap1\n  pop\n  jump\t// out\n    /* \"#utility.yul\":3641:3910   */\ntag_54:\n    /* \"#utility.yul\":3751:3790   */\n  tag_98\n    /* \"#utility.yul\":3782:3789   */\n  dup4\n    /* \"#utility.yul\":3751:3790   */\n  tag_52\n  jump\t// in\ntag_98:\n    /* \"#utility.yul\":3812:3903   */\n  tag_99\n    /* \"#utility.yul\":3861:3902   */\n  tag_100\n    /* \"#utility.yul\":3885:3901   */\n  dup3\n    /* \"#utility.yul\":3861:3902   */\n  tag_53\n  jump\t// in\ntag_100:\n    /* \"#utility.yul\":3853:3859   */\n  dup5\n    /* \"#utility.yul\":3846:3850   */\n  dup5\n    /* \"#utility.yul\":3840:3851   */\n  sload\n    /* \"#utility.yul\":3812:3903   */\n  tag_49\n  jump\t// in\ntag_99:\n    /* \"#utility.yul\":3806:3810   */\n  dup3\n    /* \"#utility.yul\":3799:3904   */\n  sstore\n    /* \"#utility.yul\":3717:3910   */\n  pop\n    /* \"#utility.yul\":3641:3910   */\n  pop\n  pop\n  pop\n  jump\t// out\n    /* \"#utility.yul\":3916:3989   */\ntag_55:\n    /* \"#utility.yul\":3961:3964   */\n  0x00\n    /* \"#utility.yul\":3916:3989   */\n  swap1\n  jump\t// out\n    /* \"#utility.yul\":3995:4184   */\ntag_56:\n    /* \"#utility.yul\":4072:4104   */\n  tag_103\n  tag_55\n  jump\t// in\ntag_103:\n    /* \"#utility.yul\":4113:4178   */\n  tag_104\n    /* \"#utility.yul\":4171:4177   */\n  dup2\n    /* \"#utility.yul\":4163:4169   */\n  dup5\n    /* \"#utility.yul\":4157:4161   */\n  dup5\n    /* \"#utility.yul\":4113:4178   */\n  tag_54\n  jump\t// in\ntag_104:\n    /* \"#utility.yul\":4048:4184   */\n  pop\n    /* \"#utility.yul\":3995:4184   */\n  pop\n  pop\n  jump\t// out\n    /* \"#utility.yul\":4190:4376   */\ntag_57:\n    /* \"#utility.yul\":4250:4370   */\ntag_106:\n    /* \"#utility.yul\":4267:4270   */\n  dup2\n    /* \"#utility.yul\":4260:4265   */\n  dup2\n    /* \"#utility.yul\":4257:4271   */\n  lt\n    /* \"#utility.yul\":4250:4370   */\n  iszero\n  tag_108\n  jumpi\n    /* \"#utility.yul\":4321:4360   */\n  tag_109\n    /* \"#utility.yul\":4358:4359   */\n  0x00\n    /* \"#utility.yul\":4351:4356   */\n  dup3\n    /* \"#utility.yul\":4321:4360   */\n  tag_56\n  jump\t// in\ntag_109:\n    /* \"#utility.yul\":4294:4295   */\n  0x01\n    /* \"#utility.yul\":4287:4292   */\n  dup2\n    /* \"#utility.yul\":4283:4296   */\n  add\n    /* \"#utility.yul\":4274:4296   */\n  swap1\n  pop\n    /* \"#utility.yul\":4250:4370   */\n  jump(tag_106)\ntag_108:\n    /* \"#utility.yul\":4190:4376   */\n  pop\n  pop\n  jump\t// out\n    /* \"#utility.yul\":4382:4925   */\ntag_58:\n    /* \"#utility.yul\":4483:4485   */\n  0x1f\n    /* \"#utility.yul\":4478:4481   */\n  dup3\n    /* \"#utility.yul\":4475:4486   */\n  gt\n    /* \"#utility.yul\":4472:4918   */\n  iszero\n  tag_111\n  jumpi\n    /* \"#utility.yul\":4517:4555   */\n  tag_112\n    /* \"#utility.yul\":4549:4554   */\n  dup2\n    /* \"#utility.yul\":4517:4555   */\n  tag_46\n  jump\t// in\ntag_112:\n    /* \"#utility.yul\":4601:4630   */\n  tag_113\n    /* \"#utility.yul\":4619:4629   */\n  dup5\n    /* \"#utility.yul\":4601:4630   */\n  tag_47\n  jump\t// in\ntag_113:\n    /* \"#utility.yul\":4591:4599   */\n  dup2\n    /* \"#utility.yul\":4587:4631   */\n  add\n    /* \"#utility.yul\":4784:4786   */\n  0x20\n    /* \"#utility.yul\":4772:4782   */\n  dup6\n    /* \"#utility.yul\":4769:4787   */\n  lt\n    /* \"#utility.yul\":4766:4815   */\n  iszero\n  tag_114\n  jumpi\n    /* \"#utility.yul\":4805:4813   */\n  dup2\n    /* \"#utility.yul\":4790:4813   */\n  swap1\n  pop\n    /* \"#utility.yul\":4766:4815   */\ntag_114:\n    /* \"#utility.yul\":4828:4908   */\n  tag_115\n    /* \"#utility.yul\":4884:4906   */\n  tag_116\n    /* \"#utility.yul\":4902:4905   */\n  dup6\n    /* \"#utility.yul\":4884:4906   */\n  tag_47\n  jump\t// in\ntag_116:\n    /* \"#utility.yul\":4874:4882   */\n  dup4\n    /* \"#utility.yul\":4870:4907   */\n  add\n    /* \"#utility.yul\":4857:4868   */\n  dup3\n    /* \"#utility.yul\":4828:4908   */\n  tag_57\n  jump\t// in\ntag_115:\n    /* \"#utility.yul\":4487:4918   */\n  pop\n  pop\n    /* \"#utility.yul\":4472:4918   */\ntag_111:\n    /* \"#utility.yul\":4382:4925   */\n  pop\n  pop\n  pop\n  jump\t// out\n    /* \"#utility.yul\":4931:5048   */\ntag_59:\n    /* \"#utility.yul\":4985:4993   */\n  0x00\n    /* \"#utility.yul\":5035:5040   */\n  dup3\n    /* \"#utility.yul\":5029:5033   */\n  dup3\n    /* \"#utility.yul\":5025:5041   */\n  shr\n    /* \"#utility.yul\":5004:5041   */\n  swap1\n  pop\n    /* \"#utility.yul\":4931:5048   */\n  swap3\n  swap2\n  pop\n  pop\n  jump\t// out\n    /* \"#utility.yul\":5054:5223   */\ntag_60:\n    /* \"#utility.yul\":5098:5104   */\n  0x00\n    /* \"#utility.yul\":5131:5182   */\n  tag_119\n    /* \"#utility.yul\":5179:5180   */\n  0x00\n    /* \"#utility.yul\":5175:5181   */\n  not\n    /* \"#utility.yul\":5167:5172   */\n  dup5\n    /* \"#utility.yul\":5164:5165   */\n  0x08\n    /* \"#utility.yul\":5160:5173   */\n  mul\n    /* \"#utility.yul\":5131:5182   */\n  tag_59\n  jump\t// in\ntag_119:\n    /* \"#utility.yul\":5127:5183   */\n  not\n    /* \"#utility.yul\":5212:5216   */\n  dup1\n    /* \"#utility.yul\":5206:5210   */\n  dup4\n    /* \"#utility.yul\":5202:5217   */\n  and\n    /* \"#utility.yul\":5192:5217   */\n  swap2\n  pop\n    /* \"#utility.yul\":5105:5223   */\n  pop\n    /* \"#utility.yul\":5054:5223   */\n  swap3\n  swap2\n  pop\n  pop\n  jump\t// out\n    /* \"#utility.yul\":5228:5523   */\ntag_61:\n    /* \"#utility.yul\":5304:5308   */\n  0x00\n    /* \"#utility.yul\":5450:5479   */\n  tag_121\n    /* \"#utility.yul\":5475:5478   */\n  dup4\n    /* \"#utility.yul\":5469:5473   */\n  dup4\n    /* \"#utility.yul\":5450:5479   */\n  tag_60\n  jump\t// in\ntag_121:\n    /* \"#utility.yul\":5442:5479   */\n  swap2\n  pop\n    /* \"#utility.yul\":5512:5515   */\n  dup3\n    /* \"#utility.yul\":5509:5510   */\n  0x02\n    /* \"#utility.yul\":5505:5516   */\n  mul\n    /* \"#utility.yul\":5499:5503   */\n  dup3\n    /* \"#utility.yul\":5496:5517   */\n  or\n    /* \"#utility.yul\":5488:5517   */\n  swap1\n  pop\n    /* \"#utility.yul\":5228:5523   */\n  swap3\n  swap2\n  pop\n  pop\n  jump\t// out\n    /* \"#utility.yul\":5528:6923   */\ntag_13:\n    /* \"#utility.yul\":5645:5682   */\n  tag_123\n    /* \"#utility.yul\":5678:5681   */\n  dup3\n    /* \"#utility.yul\":5645:5682   */\n  tag_42\n  jump\t// in\ntag_123:\n    /* \"#utility.yul\":5747:5765   */\n  0xffffffffffffffff\n    /* \"#utility.yul\":5739:5745   */\n  dup2\n    /* \"#utility.yul\":5736:5766   */\n  gt\n    /* \"#utility.yul\":5733:5789   */\n  iszero\n  tag_124\n  jumpi\n    /* \"#utility.yul\":5769:5787   */\n  tag_125\n  tag_43\n  jump\t// in\ntag_125:\n    /* \"#utility.yul\":5733:5789   */\ntag_124:\n    /* \"#utility.yul\":5813:5851   */\n  tag_126\n    /* \"#utility.yul\":5845:5849   */\n  dup3\n    /* \"#utility.yul\":5839:5850   */\n  sload\n    /* \"#utility.yul\":5813:5851   */\n  tag_45\n  jump\t// in\ntag_126:\n    /* \"#utility.yul\":5898:5965   */\n  tag_127\n    /* \"#utility.yul\":5958:5964   */\n  dup3\n    /* \"#utility.yul\":5950:5956   */\n  dup3\n    /* \"#utility.yul\":5944:5948   */\n  dup6\n    /* \"#utility.yul\":5898:5965   */\n  tag_58\n  jump\t// in\ntag_127:\n    /* \"#utility.yul\":5992:5993   */\n  0x00\n    /* \"#utility.yul\":6016:6020   */\n  0x20\n    /* \"#utility.yul\":6003:6020   */\n  swap1\n  pop\n    /* \"#utility.yul\":6048:6050   */\n  0x1f\n    /* \"#utility.yul\":6040:6046   */\n  dup4\n    /* \"#utility.yul\":6037:6051   */\n  gt\n    /* \"#utility.yul\":6065:6066   */\n  0x01\n    /* \"#utility.yul\":6060:6678   */\n  dup2\n  eq\n  tag_129\n  jumpi\n    /* \"#utility.yul\":6722:6723   */\n  0x00\n    /* \"#utility.yul\":6739:6745   */\n  dup5\n    /* \"#utility.yul\":6736:6813   */\n  iszero\n  tag_130\n  jumpi\n    /* \"#utility.yul\":6788:6797   */\n  dup3\n    /* \"#utility.yul\":6783:6786   */\n  dup8\n    /* \"#utility.yul\":6779:6798   */\n  add\n    /* \"#utility.yul\":6773:6799   */\n  mload\n    /* \"#utility.yul\":6764:6799   */\n  swap1\n  pop\n    /* \"#utility.yul\":6736:6813   */\ntag_130:\n    /* \"#utility.yul\":6839:6906   */\n  tag_131\n    /* \"#utility.yul\":6899:6905   */\n  dup6\n    /* \"#utility.yul\":6892:6897   */\n  dup3\n    /* \"#utility.yul\":6839:6906   */\n  tag_61\n  jump\t// in\ntag_131:\n    /* \"#utility.yul\":6833:6837   */\n  dup7\n    /* \"#utility.yul\":6826:6907   */\n  sstore\n    /* \"#utility.yul\":6695:6917   */\n  pop\n    /* \"#utility.yul\":6030:6917   */\n  jump(tag_128)\n    /* \"#utility.yul\":6060:6678   */\ntag_129:\n    /* \"#utility.yul\":6112:6116   */\n  0x1f\n    /* \"#utility.yul\":6108:6117   */\n  not\n    /* \"#utility.yul\":6100:6106   */\n  dup5\n    /* \"#utility.yul\":6096:6118   */\n  and\n    /* \"#utility.yul\":6146:6183   */\n  tag_132\n    /* \"#utility.yul\":6178:6182   */\n  dup7\n    /* \"#utility.yul\":6146:6183   */\n  tag_46\n  jump\t// in\ntag_132:\n    /* \"#utility.yul\":6205:6206   */\n  0x00\n    /* \"#utility.yul\":6219:6427   */\ntag_133:\n    /* \"#utility.yul\":6233:6240   */\n  dup3\n    /* \"#utility.yul\":6230:6231   */\n  dup2\n    /* \"#utility.yul\":6227:6241   */\n  lt\n    /* \"#utility.yul\":6219:6427   */\n  iszero\n  tag_135\n  jumpi\n    /* \"#utility.yul\":6312:6321   */\n  dup5\n    /* \"#utility.yul\":6307:6310   */\n  dup10\n    /* \"#utility.yul\":6303:6322   */\n  add\n    /* \"#utility.yul\":6297:6323   */\n  mload\n    /* \"#utility.yul\":6289:6295   */\n  dup3\n    /* \"#utility.yul\":6282:6324   */\n  sstore\n    /* \"#utility.yul\":6363:6364   */\n  0x01\n    /* \"#utility.yul\":6355:6361   */\n  dup3\n    /* \"#utility.yul\":6351:6365   */\n  add\n    /* \"#utility.yul\":6341:6365   */\n  swap2\n  pop\n    /* \"#utility.yul\":6410:6412   */\n  0x20\n    /* \"#utility.yul\":6399:6408   */\n  dup6\n    /* \"#utility.yul\":6395:6413   */\n  add\n    /* \"#utility.yul\":6382:6413   */\n  swap5\n  pop\n    /* \"#utility.yul\":6256:6260   */\n  0x20\n    /* \"#utility.yul\":6253:6254   */\n  dup2\n    /* \"#utility.yul\":6249:6261   */\n  add\n    /* \"#utility.yul\":6244:6261   */\n  swap1\n  pop\n    /* \"#utility.yul\":6219:6427   */\n  jump(tag_133)\ntag_135:\n    /* \"#utility.yul\":6455:6461   */\n  dup7\n    /* \"#utility.yul\":6446:6453   */\n  dup4\n    /* \"#utility.yul\":6443:6462   */\n  lt\n    /* \"#utility.yul\":6440:6619   */\n  iszero\n  tag_136\n  jumpi\n    /* \"#utility.yul\":6513:6522   */\n  dup5\n    /* \"#utility.yul\":6508:6511   */\n  dup10\n    /* \"#utility.yul\":6504:6523   */\n  add\n    /* \"#utility.yul\":6498:6524   */\n  mload\n    /* \"#utility.yul\":6556:6604   */\n  tag_137\n    /* \"#utility.yul\":6598:6602   */\n  0x1f\n    /* \"#utility.yul\":6590:6596   */\n  dup10\n    /* \"#utility.yul\":6586:6603   */\n  and\n    /* \"#utility.yul\":6575:6584   */\n  dup3\n    /* \"#utility.yul\":6556:6604   */\n  tag_60\n  jump\t// in\ntag_137:\n    /* \"#utility.yul\":6548:6554   */\n  dup4\n    /* \"#utility.yul\":6541:6605   */\n  sstore\n    /* \"#utility.yul\":6463:6619   */\n  pop\n    /* \"#utility.yul\":6440:6619   */\ntag_136:\n    /* \"#utility.yul\":6665:6666   */\n  0x01\n    /* \"#utility.yul\":6661:6662   */\n  0x02\n    /* \"#utility.yul\":6653:6659   */\n  dup9\n    /* \"#utility.yul\":6649:6663   */\n  mul\n    /* \"#utility.yul\":6645:6667   */\n  add\n    /* \"#utility.yul\":6639:6643   */\n  dup9\n    /* \"#utility.yul\":6632:6668   */\n  sstore\n    /* \"#utility.yul\":6067:6678   */\n  pop\n  pop\n  pop\n    /* \"#utility.yul\":6030:6917   */\ntag_128:\n  pop\n    /* \"#utility.yul\":5620:6923   */\n  pop\n  pop\n  pop\n    /* \"#utility.yul\":5528:6923   */\n  pop\n  pop\n  jump\t// out\n    /* \"ElectronicMedicalRecords.sol\":66:1277  contract ContractDeployer {... */\ntag_35:\n  dataSize(sub_0)\n  dup1\n  dataOffset(sub_0)\n  0x00\n  codecopy\n  0x00\n  return\nstop\n\nsub_0: assembly {\n        /* \"ElectronicMedicalRecords.sol\":66:1277  contract ContractDeployer {... */\n      mstore(0x40, 0x80)\n      callvalue\n      dup1\n      iszero\n      tag_1\n      jumpi\n      0x00\n      dup1\n      revert\n    tag_1:\n      pop\n      jumpi(tag_2, lt(calldatasize, 0x04))\n      shr(0xe0, calldataload(0x00))\n      dup1\n      0xc4fe354c\n      eq\n      tag_3\n      jumpi\n      dup1\n      0xf851a440\n      eq\n      tag_4\n      jumpi\n    tag_2:\n      0x00\n      dup1\n      revert\n        /* \"ElectronicMedicalRecords.sol\":1076:1274  function getAllContractAddress(string memory _name) public view returns (ContractAddress[] memory data) {... */\n    tag_3:\n      tag_5\n      0x04\n      dup1\n      calldatasize\n      sub\n      dup2\n      add\n      swap1\n      tag_6\n      swap2\n      swap1\n      tag_7\n      jump\t// in\n    tag_6:\n      tag_8\n      jump\t// in\n    tag_5:\n      mload(0x40)\n      tag_9\n      swap2\n      swap1\n      tag_10\n      jump\t// in\n    tag_9:\n      mload(0x40)\n      dup1\n      swap2\n      sub\n      swap1\n      return\n        /* \"ElectronicMedicalRecords.sol\":268:288  address public admin */\n    tag_4:\n      tag_11\n      tag_12\n      jump\t// in\n    tag_11:\n      mload(0x40)\n      tag_13\n      swap2\n      swap1\n      tag_14\n      jump\t// in\n    tag_13:\n      mload(0x40)\n      dup1\n      swap2\n      sub\n      swap1\n      return\n        /* \"ElectronicMedicalRecords.sol\":1076:1274  function getAllContractAddress(string memory _name) public view returns (ContractAddress[] memory data) {... */\n    tag_8:\n        /* \"ElectronicMedicalRecords.sol\":1149:1178  ContractAddress[] memory data */\n      0x60\n        /* \"ElectronicMedicalRecords.sol\":1213:1218  admin */\n      0x01\n      0x00\n      swap1\n      sload\n      swap1\n      0x0100\n      exp\n      swap1\n      div\n      0xffffffffffffffffffffffffffffffffffffffff\n      and\n        /* \"ElectronicMedicalRecords.sol\":1199:1218  msg.sender == admin */\n      0xffffffffffffffffffffffffffffffffffffffff\n      and\n        /* \"ElectronicMedicalRecords.sol\":1199:1209  msg.sender */\n      caller\n        /* \"ElectronicMedicalRecords.sol\":1199:1218  msg.sender == admin */\n      0xffffffffffffffffffffffffffffffffffffffff\n      and\n      eq\n        /* \"ElectronicMedicalRecords.sol\":1191:1219  require(msg.sender == admin) */\n      tag_16\n      jumpi\n      0x00\n      dup1\n      revert\n    tag_16:\n        /* \"ElectronicMedicalRecords.sol\":1237:1259  bunchOfContractAddress */\n      0x00\n        /* \"ElectronicMedicalRecords.sol\":1260:1265  _name */\n      dup3\n        /* \"ElectronicMedicalRecords.sol\":1237:1266  bunchOfContractAddress[_name] */\n      mload(0x40)\n      tag_17\n      swap2\n      swap1\n      tag_18\n      jump\t// in\n    tag_17:\n      swap1\n      dup2\n      mstore\n      0x20\n      add\n      mload(0x40)\n      dup1\n      swap2\n      sub\n      swap1\n      keccak256\n        /* \"ElectronicMedicalRecords.sol\":1230:1266  return bunchOfContractAddress[_name] */\n      dup1\n      sload\n      dup1\n      0x20\n      mul\n      0x20\n      add\n      mload(0x40)\n      swap1\n      dup2\n      add\n      0x40\n      mstore\n      dup1\n      swap3\n      swap2\n      swap1\n      dup2\n      dup2\n      mstore\n      0x20\n      add\n      0x00\n      swap1\n    tag_19:\n      dup3\n      dup3\n      lt\n      iszero\n      tag_20\n      jumpi\n      dup4\n      dup3\n      swap1\n      0x00\n      mstore\n      keccak256(0x00, 0x20)\n      swap1\n      0x02\n      mul\n      add\n      mload(0x40)\n      dup1\n      0x40\n      add\n      0x40\n      mstore\n      swap1\n      dup2\n      0x00\n      dup3\n      add\n      dup1\n      sload\n      tag_22\n      swap1\n      tag_23\n      jump\t// in\n    tag_22:\n      dup1\n      0x1f\n      add\n      0x20\n      dup1\n      swap2\n      div\n      mul\n      0x20\n      add\n      mload(0x40)\n      swap1\n      dup2\n      add\n      0x40\n      mstore\n      dup1\n      swap3\n      swap2\n      swap1\n      dup2\n      dup2\n      mstore\n      0x20\n      add\n      dup3\n      dup1\n      sload\n      tag_24\n      swap1\n      tag_23\n      jump\t// in\n    tag_24:\n      dup1\n      iszero\n      tag_25\n      jumpi\n      dup1\n      0x1f\n      lt\n      tag_26\n      jumpi\n      0x0100\n      dup1\n      dup4\n      sload\n      div\n      mul\n      dup4\n      mstore\n      swap2\n      0x20\n      add\n      swap2\n      jump(tag_25)\n    tag_26:\n      dup3\n      add\n      swap2\n      swap1\n      0x00\n      mstore\n      keccak256(0x00, 0x20)\n      swap1\n    tag_27:\n      dup2\n      sload\n      dup2\n      mstore\n      swap1\n      0x01\n      add\n      swap1\n      0x20\n      add\n      dup1\n      dup4\n      gt\n      tag_27\n      jumpi\n      dup3\n      swap1\n      sub\n      0x1f\n      and\n      dup3\n      add\n      swap2\n    tag_25:\n      pop\n      pop\n      pop\n      pop\n      pop\n      dup2\n      mstore\n      0x20\n      add\n      0x01\n      dup3\n      add\n      0x00\n      swap1\n      sload\n      swap1\n      0x0100\n      exp\n      swap1\n      div\n      0xffffffffffffffffffffffffffffffffffffffff\n      and\n      0xffffffffffffffffffffffffffffffffffffffff\n      and\n      0xffffffffffffffffffffffffffffffffffffffff\n      and\n      dup2\n      mstore\n      pop\n      pop\n      dup2\n      mstore\n      0x20\n      add\n      swap1\n      0x01\n      add\n      swap1\n      jump(tag_19)\n    tag_20:\n      pop\n      pop\n      pop\n      pop\n      swap1\n      pop\n        /* \"ElectronicMedicalRecords.sol\":1076:1274  function getAllContractAddress(string memory _name) public view returns (ContractAddress[] memory data) {... */\n      swap2\n      swap1\n      pop\n      jump\t// out\n        /* \"ElectronicMedicalRecords.sol\":268:288  address public admin */\n    tag_12:\n      0x01\n      0x00\n      swap1\n      sload\n      swap1\n      0x0100\n      exp\n      swap1\n      div\n      0xffffffffffffffffffffffffffffffffffffffff\n      and\n      dup2\n      jump\t// out\n        /* \"#utility.yul\":7:82   */\n    tag_28:\n        /* \"#utility.yul\":40:46   */\n      0x00\n        /* \"#utility.yul\":73:75   */\n      0x40\n        /* \"#utility.yul\":67:76   */\n      mload\n        /* \"#utility.yul\":57:76   */\n      swap1\n      pop\n        /* \"#utility.yul\":7:82   */\n      swap1\n      jump\t// out\n        /* \"#utility.yul\":88:205   */\n    tag_29:\n        /* \"#utility.yul\":197:198   */\n      0x00\n        /* \"#utility.yul\":194:195   */\n      dup1\n        /* \"#utility.yul\":187:199   */\n      revert\n        /* \"#utility.yul\":211:328   */\n    tag_30:\n        /* \"#utility.yul\":320:321   */\n      0x00\n        /* \"#utility.yul\":317:318   */\n      dup1\n        /* \"#utility.yul\":310:322   */\n      revert\n        /* \"#utility.yul\":334:451   */\n    tag_31:\n        /* \"#utility.yul\":443:444   */\n      0x00\n        /* \"#utility.yul\":440:441   */\n      dup1\n        /* \"#utility.yul\":433:445   */\n      revert\n        /* \"#utility.yul\":457:574   */\n    tag_32:\n        /* \"#utility.yul\":566:567   */\n      0x00\n        /* \"#utility.yul\":563:564   */\n      dup1\n        /* \"#utility.yul\":556:568   */\n      revert\n        /* \"#utility.yul\":580:682   */\n    tag_33:\n        /* \"#utility.yul\":621:627   */\n      0x00\n        /* \"#utility.yul\":672:674   */\n      0x1f\n        /* \"#utility.yul\":668:675   */\n      not\n        /* \"#utility.yul\":663:665   */\n      0x1f\n        /* \"#utility.yul\":656:661   */\n      dup4\n        /* \"#utility.yul\":652:666   */\n      add\n        /* \"#utility.yul\":648:676   */\n      and\n        /* \"#utility.yul\":638:676   */\n      swap1\n      pop\n        /* \"#utility.yul\":580:682   */\n      swap2\n      swap1\n      pop\n      jump\t// out\n        /* \"#utility.yul\":688:868   */\n    tag_34:\n        /* \"#utility.yul\":736:813   */\n      0x4e487b7100000000000000000000000000000000000000000000000000000000\n        /* \"#utility.yul\":733:734   */\n      0x00\n        /* \"#utility.yul\":726:814   */\n      mstore\n        /* \"#utility.yul\":833:837   */\n      0x41\n        /* \"#utility.yul\":830:831   */\n      0x04\n        /* \"#utility.yul\":823:838   */\n      mstore\n        /* \"#utility.yul\":857:861   */\n      0x24\n        /* \"#utility.yul\":854:855   */\n      0x00\n        /* \"#utility.yul\":847:862   */\n      revert\n        /* \"#utility.yul\":874:1155   */\n    tag_35:\n        /* \"#utility.yul\":957:984   */\n      tag_68\n        /* \"#utility.yul\":979:983   */\n      dup3\n        /* \"#utility.yul\":957:984   */\n      tag_33\n      jump\t// in\n    tag_68:\n        /* \"#utility.yul\":949:955   */\n      dup2\n        /* \"#utility.yul\":945:985   */\n      add\n        /* \"#utility.yul\":1087:1093   */\n      dup2\n        /* \"#utility.yul\":1075:1085   */\n      dup2\n        /* \"#utility.yul\":1072:1094   */\n      lt\n        /* \"#utility.yul\":1051:1069   */\n      0xffffffffffffffff\n        /* \"#utility.yul\":1039:1049   */\n      dup3\n        /* \"#utility.yul\":1036:1070   */\n      gt\n        /* \"#utility.yul\":1033:1095   */\n      or\n        /* \"#utility.yul\":1030:1118   */\n      iszero\n      tag_69\n      jumpi\n        /* \"#utility.yul\":1098:1116   */\n      tag_70\n      tag_34\n      jump\t// in\n    tag_70:\n        /* \"#utility.yul\":1030:1118   */\n    tag_69:\n        /* \"#utility.yul\":1138:1148   */\n      dup1\n        /* \"#utility.yul\":1134:1136   */\n      0x40\n        /* \"#utility.yul\":1127:1149   */\n      mstore\n        /* \"#utility.yul\":917:1155   */\n      pop\n        /* \"#utility.yul\":874:1155   */\n      pop\n      pop\n      jump\t// out\n        /* \"#utility.yul\":1161:1290   */\n    tag_36:\n        /* \"#utility.yul\":1195:1201   */\n      0x00\n        /* \"#utility.yul\":1222:1242   */\n      tag_72\n      tag_28\n      jump\t// in\n    tag_72:\n        /* \"#utility.yul\":1212:1242   */\n      swap1\n      pop\n        /* \"#utility.yul\":1251:1284   */\n      tag_73\n        /* \"#utility.yul\":1279:1283   */\n      dup3\n        /* \"#utility.yul\":1271:1277   */\n      dup3\n        /* \"#utility.yul\":1251:1284   */\n      tag_35\n      jump\t// in\n    tag_73:\n        /* \"#utility.yul\":1161:1290   */\n      swap2\n      swap1\n      pop\n      jump\t// out\n        /* \"#utility.yul\":1296:1604   */\n    tag_37:\n        /* \"#utility.yul\":1358:1362   */\n      0x00\n        /* \"#utility.yul\":1448:1466   */\n      0xffffffffffffffff\n        /* \"#utility.yul\":1440:1446   */\n      dup3\n        /* \"#utility.yul\":1437:1467   */\n      gt\n        /* \"#utility.yul\":1434:1490   */\n      iszero\n      tag_75\n      jumpi\n        /* \"#utility.yul\":1470:1488   */\n      tag_76\n      tag_34\n      jump\t// in\n    tag_76:\n        /* \"#utility.yul\":1434:1490   */\n    tag_75:\n        /* \"#utility.yul\":1508:1537   */\n      tag_77\n        /* \"#utility.yul\":1530:1536   */\n      dup3\n        /* \"#utility.yul\":1508:1537   */\n      tag_33\n      jump\t// in\n    tag_77:\n        /* \"#utility.yul\":1500:1537   */\n      swap1\n      pop\n        /* \"#utility.yul\":1592:1596   */\n      0x20\n        /* \"#utility.yul\":1586:1590   */\n      dup2\n        /* \"#utility.yul\":1582:1597   */\n      add\n        /* \"#utility.yul\":1574:1597   */\n      swap1\n      pop\n        /* \"#utility.yul\":1296:1604   */\n      swap2\n      swap1\n      pop\n      jump\t// out\n        /* \"#utility.yul\":1610:1756   */\n    tag_38:\n        /* \"#utility.yul\":1707:1713   */\n      dup3\n        /* \"#utility.yul\":1702:1705   */\n      dup2\n        /* \"#utility.yul\":1697:1700   */\n      dup4\n        /* \"#utility.yul\":1684:1714   */\n      calldatacopy\n        /* \"#utility.yul\":1748:1749   */\n      0x00\n        /* \"#utility.yul\":1739:1745   */\n      dup4\n        /* \"#utility.yul\":1734:1737   */\n      dup4\n        /* \"#utility.yul\":1730:1746   */\n      add\n        /* \"#utility.yul\":1723:1750   */\n      mstore\n        /* \"#utility.yul\":1610:1756   */\n      pop\n      pop\n      pop\n      jump\t// out\n        /* \"#utility.yul\":1762:2187   */\n    tag_39:\n        /* \"#utility.yul\":1840:1845   */\n      0x00\n        /* \"#utility.yul\":1865:1931   */\n      tag_80\n        /* \"#utility.yul\":1881:1930   */\n      tag_81\n        /* \"#utility.yul\":1923:1929   */\n      dup5\n        /* \"#utility.yul\":1881:1930   */\n      tag_37\n      jump\t// in\n    tag_81:\n        /* \"#utility.yul\":1865:1931   */\n      tag_36\n      jump\t// in\n    tag_80:\n        /* \"#utility.yul\":1856:1931   */\n      swap1\n      pop\n        /* \"#utility.yul\":1954:1960   */\n      dup3\n        /* \"#utility.yul\":1947:1952   */\n      dup2\n        /* \"#utility.yul\":1940:1961   */\n      mstore\n        /* \"#utility.yul\":1992:1996   */\n      0x20\n        /* \"#utility.yul\":1985:1990   */\n      dup2\n        /* \"#utility.yul\":1981:1997   */\n      add\n        /* \"#utility.yul\":2030:2033   */\n      dup5\n        /* \"#utility.yul\":2021:2027   */\n      dup5\n        /* \"#utility.yul\":2016:2019   */\n      dup5\n        /* \"#utility.yul\":2012:2028   */\n      add\n        /* \"#utility.yul\":2009:2034   */\n      gt\n        /* \"#utility.yul\":2006:2118   */\n      iszero\n      tag_82\n      jumpi\n        /* \"#utility.yul\":2037:2116   */\n      tag_83\n      tag_32\n      jump\t// in\n    tag_83:\n        /* \"#utility.yul\":2006:2118   */\n    tag_82:\n        /* \"#utility.yul\":2127:2181   */\n      tag_84\n        /* \"#utility.yul\":2174:2180   */\n      dup5\n        /* \"#utility.yul\":2169:2172   */\n      dup3\n        /* \"#utility.yul\":2164:2167   */\n      dup6\n        /* \"#utility.yul\":2127:2181   */\n      tag_38\n      jump\t// in\n    tag_84:\n        /* \"#utility.yul\":1846:2187   */\n      pop\n        /* \"#utility.yul\":1762:2187   */\n      swap4\n      swap3\n      pop\n      pop\n      pop\n      jump\t// out\n        /* \"#utility.yul\":2207:2547   */\n    tag_40:\n        /* \"#utility.yul\":2263:2268   */\n      0x00\n        /* \"#utility.yul\":2312:2315   */\n      dup3\n        /* \"#utility.yul\":2305:2309   */\n      0x1f\n        /* \"#utility.yul\":2297:2303   */\n      dup4\n        /* \"#utility.yul\":2293:2310   */\n      add\n        /* \"#utility.yul\":2289:2316   */\n      slt\n        /* \"#utility.yul\":2279:2401   */\n      tag_86\n      jumpi\n        /* \"#utility.yul\":2320:2399   */\n      tag_87\n      tag_31\n      jump\t// in\n    tag_87:\n        /* \"#utility.yul\":2279:2401   */\n    tag_86:\n        /* \"#utility.yul\":2437:2443   */\n      dup2\n        /* \"#utility.yul\":2424:2444   */\n      calldataload\n        /* \"#utility.yul\":2462:2541   */\n      tag_88\n        /* \"#utility.yul\":2537:2540   */\n      dup5\n        /* \"#utility.yul\":2529:2535   */\n      dup3\n        /* \"#utility.yul\":2522:2526   */\n      0x20\n        /* \"#utility.yul\":2514:2520   */\n      dup7\n        /* \"#utility.yul\":2510:2527   */\n      add\n        /* \"#utility.yul\":2462:2541   */\n      tag_39\n      jump\t// in\n    tag_88:\n        /* \"#utility.yul\":2453:2541   */\n      swap2\n      pop\n        /* \"#utility.yul\":2269:2547   */\n      pop\n        /* \"#utility.yul\":2207:2547   */\n      swap3\n      swap2\n      pop\n      pop\n      jump\t// out\n        /* \"#utility.yul\":2553:3062   */\n    tag_7:\n        /* \"#utility.yul\":2622:2628   */\n      0x00\n        /* \"#utility.yul\":2671:2673   */\n      0x20\n        /* \"#utility.yul\":2659:2668   */\n      dup3\n        /* \"#utility.yul\":2650:2657   */\n      dup5\n        /* \"#utility.yul\":2646:2669   */\n      sub\n        /* \"#utility.yul\":2642:2674   */\n      slt\n        /* \"#utility.yul\":2639:2758   */\n      iszero\n      tag_90\n      jumpi\n        /* \"#utility.yul\":2677:2756   */\n      tag_91\n      tag_29\n      jump\t// in\n    tag_91:\n        /* \"#utility.yul\":2639:2758   */\n    tag_90:\n        /* \"#utility.yul\":2825:2826   */\n      0x00\n        /* \"#utility.yul\":2814:2823   */\n      dup3\n        /* \"#utility.yul\":2810:2827   */\n      add\n        /* \"#utility.yul\":2797:2828   */\n      calldataload\n        /* \"#utility.yul\":2855:2873   */\n      0xffffffffffffffff\n        /* \"#utility.yul\":2847:2853   */\n      dup2\n        /* \"#utility.yul\":2844:2874   */\n      gt\n        /* \"#utility.yul\":2841:2958   */\n      iszero\n      tag_92\n      jumpi\n        /* \"#utility.yul\":2877:2956   */\n      tag_93\n      tag_30\n      jump\t// in\n    tag_93:\n        /* \"#utility.yul\":2841:2958   */\n    tag_92:\n        /* \"#utility.yul\":2982:3045   */\n      tag_94\n        /* \"#utility.yul\":3037:3044   */\n      dup5\n        /* \"#utility.yul\":3028:3034   */\n      dup3\n        /* \"#utility.yul\":3017:3026   */\n      dup6\n        /* \"#utility.yul\":3013:3035   */\n      add\n        /* \"#utility.yul\":2982:3045   */\n      tag_40\n      jump\t// in\n    tag_94:\n        /* \"#utility.yul\":2972:3045   */\n      swap2\n      pop\n        /* \"#utility.yul\":2768:3055   */\n      pop\n        /* \"#utility.yul\":2553:3062   */\n      swap3\n      swap2\n      pop\n      pop\n      jump\t// out\n        /* \"#utility.yul\":3068:3212   */\n    tag_41:\n        /* \"#utility.yul\":3165:3171   */\n      0x00\n        /* \"#utility.yul\":3199:3204   */\n      dup2\n        /* \"#utility.yul\":3193:3205   */\n      mload\n        /* \"#utility.yul\":3183:3205   */\n      swap1\n      pop\n        /* \"#utility.yul\":3068:3212   */\n      swap2\n      swap1\n      pop\n      jump\t// out\n        /* \"#utility.yul\":3218:3432   */\n    tag_42:\n        /* \"#utility.yul\":3347:3358   */\n      0x00\n        /* \"#utility.yul\":3381:3387   */\n      dup3\n        /* \"#utility.yul\":3376:3379   */\n      dup3\n        /* \"#utility.yul\":3369:3388   */\n      mstore\n        /* \"#utility.yul\":3421:3425   */\n      0x20\n        /* \"#utility.yul\":3416:3419   */\n      dup3\n        /* \"#utility.yul\":3412:3426   */\n      add\n        /* \"#utility.yul\":3397:3426   */\n      swap1\n      pop\n        /* \"#utility.yul\":3218:3432   */\n      swap3\n      swap2\n      pop\n      pop\n      jump\t// out\n        /* \"#utility.yul\":3438:3600   */\n    tag_43:\n        /* \"#utility.yul\":3535:3539   */\n      0x00\n        /* \"#utility.yul\":3558:3561   */\n      dup2\n        /* \"#utility.yul\":3550:3561   */\n      swap1\n      pop\n        /* \"#utility.yul\":3588:3592   */\n      0x20\n        /* \"#utility.yul\":3583:3586   */\n      dup3\n        /* \"#utility.yul\":3579:3593   */\n      add\n        /* \"#utility.yul\":3571:3593   */\n      swap1\n      pop\n        /* \"#utility.yul\":3438:3600   */\n      swap2\n      swap1\n      pop\n      jump\t// out\n        /* \"#utility.yul\":3606:3705   */\n    tag_44:\n        /* \"#utility.yul\":3658:3664   */\n      0x00\n        /* \"#utility.yul\":3692:3697   */\n      dup2\n        /* \"#utility.yul\":3686:3698   */\n      mload\n        /* \"#utility.yul\":3676:3698   */\n      swap1\n      pop\n        /* \"#utility.yul\":3606:3705   */\n      swap2\n      swap1\n      pop\n      jump\t// out\n        /* \"#utility.yul\":3711:3870   */\n    tag_45:\n        /* \"#utility.yul\":3785:3796   */\n      0x00\n        /* \"#utility.yul\":3819:3825   */\n      dup3\n        /* \"#utility.yul\":3814:3817   */\n      dup3\n        /* \"#utility.yul\":3807:3826   */\n      mstore\n        /* \"#utility.yul\":3859:3863   */\n      0x20\n        /* \"#utility.yul\":3854:3857   */\n      dup3\n        /* \"#utility.yul\":3850:3864   */\n      add\n        /* \"#utility.yul\":3835:3864   */\n      swap1\n      pop\n        /* \"#utility.yul\":3711:3870   */\n      swap3\n      swap2\n      pop\n      pop\n      jump\t// out\n        /* \"#utility.yul\":3876:4122   */\n    tag_46:\n        /* \"#utility.yul\":3957:3958   */\n      0x00\n        /* \"#utility.yul\":3967:4080   */\n    tag_101:\n        /* \"#utility.yul\":3981:3987   */\n      dup4\n        /* \"#utility.yul\":3978:3979   */\n      dup2\n        /* \"#utility.yul\":3975:3988   */\n      lt\n        /* \"#utility.yul\":3967:4080   */\n      iszero\n      tag_103\n      jumpi\n        /* \"#utility.yul\":4066:4067   */\n      dup1\n        /* \"#utility.yul\":4061:4064   */\n      dup3\n        /* \"#utility.yul\":4057:4068   */\n      add\n        /* \"#utility.yul\":4051:4069   */\n      mload\n        /* \"#utility.yul\":4047:4048   */\n      dup2\n        /* \"#utility.yul\":4042:4045   */\n      dup5\n        /* \"#utility.yul\":4038:4049   */\n      add\n        /* \"#utility.yul\":4031:4070   */\n      mstore\n        /* \"#utility.yul\":4003:4005   */\n      0x20\n        /* \"#utility.yul\":4000:4001   */\n      dup2\n        /* \"#utility.yul\":3996:4006   */\n      add\n        /* \"#utility.yul\":3991:4006   */\n      swap1\n      pop\n        /* \"#utility.yul\":3967:4080   */\n      jump(tag_101)\n    tag_103:\n        /* \"#utility.yul\":4114:4115   */\n      0x00\n        /* \"#utility.yul\":4105:4111   */\n      dup5\n        /* \"#utility.yul\":4100:4103   */\n      dup5\n        /* \"#utility.yul\":4096:4112   */\n      add\n        /* \"#utility.yul\":4089:4116   */\n      mstore\n        /* \"#utility.yul\":3938:4122   */\n      pop\n        /* \"#utility.yul\":3876:4122   */\n      pop\n      pop\n      pop\n      jump\t// out\n        /* \"#utility.yul\":4128:4485   */\n    tag_47:\n        /* \"#utility.yul\":4206:4209   */\n      0x00\n        /* \"#utility.yul\":4234:4273   */\n      tag_105\n        /* \"#utility.yul\":4267:4272   */\n      dup3\n        /* \"#utility.yul\":4234:4273   */\n      tag_44\n      jump\t// in\n    tag_105:\n        /* \"#utility.yul\":4289:4350   */\n      tag_106\n        /* \"#utility.yul\":4343:4349   */\n      dup2\n        /* \"#utility.yul\":4338:4341   */\n      dup6\n        /* \"#utility.yul\":4289:4350   */\n      tag_45\n      jump\t// in\n    tag_106:\n        /* \"#utility.yul\":4282:4350   */\n      swap4\n      pop\n        /* \"#utility.yul\":4359:4424   */\n      tag_107\n        /* \"#utility.yul\":4417:4423   */\n      dup2\n        /* \"#utility.yul\":4412:4415   */\n      dup6\n        /* \"#utility.yul\":4405:4409   */\n      0x20\n        /* \"#utility.yul\":4398:4403   */\n      dup7\n        /* \"#utility.yul\":4394:4410   */\n      add\n        /* \"#utility.yul\":4359:4424   */\n      tag_46\n      jump\t// in\n    tag_107:\n        /* \"#utility.yul\":4449:4478   */\n      tag_108\n        /* \"#utility.yul\":4471:4477   */\n      dup2\n        /* \"#utility.yul\":4449:4478   */\n      tag_33\n      jump\t// in\n    tag_108:\n        /* \"#utility.yul\":4444:4447   */\n      dup5\n        /* \"#utility.yul\":4440:4479   */\n      add\n        /* \"#utility.yul\":4433:4479   */\n      swap2\n      pop\n        /* \"#utility.yul\":4210:4485   */\n      pop\n        /* \"#utility.yul\":4128:4485   */\n      swap3\n      swap2\n      pop\n      pop\n      jump\t// out\n        /* \"#utility.yul\":4491:4617   */\n    tag_48:\n        /* \"#utility.yul\":4528:4535   */\n      0x00\n        /* \"#utility.yul\":4568:4610   */\n      0xffffffffffffffffffffffffffffffffffffffff\n        /* \"#utility.yul\":4561:4566   */\n      dup3\n        /* \"#utility.yul\":4557:4611   */\n      and\n        /* \"#utility.yul\":4546:4611   */\n      swap1\n      pop\n        /* \"#utility.yul\":4491:4617   */\n      swap2\n      swap1\n      pop\n      jump\t// out\n        /* \"#utility.yul\":4623:4719   */\n    tag_49:\n        /* \"#utility.yul\":4660:4667   */\n      0x00\n        /* \"#utility.yul\":4689:4713   */\n      tag_111\n        /* \"#utility.yul\":4707:4712   */\n      dup3\n        /* \"#utility.yul\":4689:4713   */\n      tag_48\n      jump\t// in\n    tag_111:\n        /* \"#utility.yul\":4678:4713   */\n      swap1\n      pop\n        /* \"#utility.yul\":4623:4719   */\n      swap2\n      swap1\n      pop\n      jump\t// out\n        /* \"#utility.yul\":4725:4833   */\n    tag_50:\n        /* \"#utility.yul\":4802:4826   */\n      tag_113\n        /* \"#utility.yul\":4820:4825   */\n      dup2\n        /* \"#utility.yul\":4802:4826   */\n      tag_49\n      jump\t// in\n    tag_113:\n        /* \"#utility.yul\":4797:4800   */\n      dup3\n        /* \"#utility.yul\":4790:4827   */\n      mstore\n        /* \"#utility.yul\":4725:4833   */\n      pop\n      pop\n      jump\t// out\n        /* \"#utility.yul\":4929:5546   */\n    tag_51:\n        /* \"#utility.yul\":5048:5051   */\n      0x00\n        /* \"#utility.yul\":5084:5088   */\n      0x40\n        /* \"#utility.yul\":5079:5082   */\n      dup4\n        /* \"#utility.yul\":5075:5089   */\n      add\n        /* \"#utility.yul\":5171:5175   */\n      0x00\n        /* \"#utility.yul\":5164:5169   */\n      dup4\n        /* \"#utility.yul\":5160:5176   */\n      add\n        /* \"#utility.yul\":5154:5177   */\n      mload\n        /* \"#utility.yul\":5224:5227   */\n      dup5\n        /* \"#utility.yul\":5218:5222   */\n      dup3\n        /* \"#utility.yul\":5214:5228   */\n      sub\n        /* \"#utility.yul\":5207:5211   */\n      0x00\n        /* \"#utility.yul\":5202:5205   */\n      dup7\n        /* \"#utility.yul\":5198:5212   */\n      add\n        /* \"#utility.yul\":5191:5229   */\n      mstore\n        /* \"#utility.yul\":5250:5323   */\n      tag_115\n        /* \"#utility.yul\":5318:5322   */\n      dup3\n        /* \"#utility.yul\":5304:5316   */\n      dup3\n        /* \"#utility.yul\":5250:5323   */\n      tag_47\n      jump\t// in\n    tag_115:\n        /* \"#utility.yul\":5242:5323   */\n      swap2\n      pop\n        /* \"#utility.yul\":5099:5334   */\n      pop\n        /* \"#utility.yul\":5427:5431   */\n      0x20\n        /* \"#utility.yul\":5420:5425   */\n      dup4\n        /* \"#utility.yul\":5416:5432   */\n      add\n        /* \"#utility.yul\":5410:5433   */\n      mload\n        /* \"#utility.yul\":5446:5509   */\n      tag_116\n        /* \"#utility.yul\":5503:5507   */\n      0x20\n        /* \"#utility.yul\":5498:5501   */\n      dup7\n        /* \"#utility.yul\":5494:5508   */\n      add\n        /* \"#utility.yul\":5480:5492   */\n      dup3\n        /* \"#utility.yul\":5446:5509   */\n      tag_50\n      jump\t// in\n    tag_116:\n        /* \"#utility.yul\":5344:5519   */\n      pop\n        /* \"#utility.yul\":5536:5540   */\n      dup1\n        /* \"#utility.yul\":5529:5540   */\n      swap2\n      pop\n        /* \"#utility.yul\":5053:5546   */\n      pop\n        /* \"#utility.yul\":4929:5546   */\n      swap3\n      swap2\n      pop\n      pop\n      jump\t// out\n        /* \"#utility.yul\":5552:5828   */\n    tag_52:\n        /* \"#utility.yul\":5681:5691   */\n      0x00\n        /* \"#utility.yul\":5716:5822   */\n      tag_118\n        /* \"#utility.yul\":5818:5821   */\n      dup4\n        /* \"#utility.yul\":5810:5816   */\n      dup4\n        /* \"#utility.yul\":5716:5822   */\n      tag_51\n      jump\t// in\n    tag_118:\n        /* \"#utility.yul\":5702:5822   */\n      swap1\n      pop\n        /* \"#utility.yul\":5552:5828   */\n      swap3\n      swap2\n      pop\n      pop\n      jump\t// out\n        /* \"#utility.yul\":5834:5977   */\n    tag_53:\n        /* \"#utility.yul\":5934:5938   */\n      0x00\n        /* \"#utility.yul\":5966:5970   */\n      0x20\n        /* \"#utility.yul\":5961:5964   */\n      dup3\n        /* \"#utility.yul\":5957:5971   */\n      add\n        /* \"#utility.yul\":5949:5971   */\n      swap1\n      pop\n        /* \"#utility.yul\":5834:5977   */\n      swap2\n      swap1\n      pop\n      jump\t// out\n        /* \"#utility.yul\":6077:7228   */\n    tag_54:\n        /* \"#utility.yul\":6256:6259   */\n      0x00\n        /* \"#utility.yul\":6285:6369   */\n      tag_121\n        /* \"#utility.yul\":6363:6368   */\n      dup3\n        /* \"#utility.yul\":6285:6369   */\n      tag_41\n      jump\t// in\n    tag_121:\n        /* \"#utility.yul\":6385:6501   */\n      tag_122\n        /* \"#utility.yul\":6494:6500   */\n      dup2\n        /* \"#utility.yul\":6489:6492   */\n      dup6\n        /* \"#utility.yul\":6385:6501   */\n      tag_42\n      jump\t// in\n    tag_122:\n        /* \"#utility.yul\":6378:6501   */\n      swap4\n      pop\n        /* \"#utility.yul\":6527:6530   */\n      dup4\n        /* \"#utility.yul\":6572:6576   */\n      0x20\n        /* \"#utility.yul\":6564:6570   */\n      dup3\n        /* \"#utility.yul\":6560:6577   */\n      mul\n        /* \"#utility.yul\":6555:6558   */\n      dup6\n        /* \"#utility.yul\":6551:6578   */\n      add\n        /* \"#utility.yul\":6602:6688   */\n      tag_123\n        /* \"#utility.yul\":6682:6687   */\n      dup6\n        /* \"#utility.yul\":6602:6688   */\n      tag_43\n      jump\t// in\n    tag_123:\n        /* \"#utility.yul\":6711:6718   */\n      dup1\n        /* \"#utility.yul\":6742:6743   */\n      0x00\n        /* \"#utility.yul\":6727:7183   */\n    tag_124:\n        /* \"#utility.yul\":6752:6758   */\n      dup6\n        /* \"#utility.yul\":6749:6750   */\n      dup2\n        /* \"#utility.yul\":6746:6759   */\n      lt\n        /* \"#utility.yul\":6727:7183   */\n      iszero\n      tag_126\n      jumpi\n        /* \"#utility.yul\":6823:6832   */\n      dup5\n        /* \"#utility.yul\":6817:6821   */\n      dup5\n        /* \"#utility.yul\":6813:6833   */\n      sub\n        /* \"#utility.yul\":6808:6811   */\n      dup10\n        /* \"#utility.yul\":6801:6834   */\n      mstore\n        /* \"#utility.yul\":6874:6880   */\n      dup2\n        /* \"#utility.yul\":6868:6881   */\n      mload\n        /* \"#utility.yul\":6902:7026   */\n      tag_127\n        /* \"#utility.yul\":7021:7025   */\n      dup6\n        /* \"#utility.yul\":7006:7019   */\n      dup3\n        /* \"#utility.yul\":6902:7026   */\n      tag_52\n      jump\t// in\n    tag_127:\n        /* \"#utility.yul\":6894:7026   */\n      swap5\n      pop\n        /* \"#utility.yul\":7049:7139   */\n      tag_128\n        /* \"#utility.yul\":7132:7138   */\n      dup4\n        /* \"#utility.yul\":7049:7139   */\n      tag_53\n      jump\t// in\n    tag_128:\n        /* \"#utility.yul\":7039:7139   */\n      swap3\n      pop\n        /* \"#utility.yul\":7168:7172   */\n      0x20\n        /* \"#utility.yul\":7163:7166   */\n      dup11\n        /* \"#utility.yul\":7159:7173   */\n      add\n        /* \"#utility.yul\":7152:7173   */\n      swap10\n      pop\n        /* \"#utility.yul\":6787:7183   */\n      pop\n        /* \"#utility.yul\":6774:6775   */\n      0x01\n        /* \"#utility.yul\":6771:6772   */\n      dup2\n        /* \"#utility.yul\":6767:6776   */\n      add\n        /* \"#utility.yul\":6762:6776   */\n      swap1\n      pop\n        /* \"#utility.yul\":6727:7183   */\n      jump(tag_124)\n    tag_126:\n        /* \"#utility.yul\":6731:6745   */\n      pop\n        /* \"#utility.yul\":7199:7203   */\n      dup3\n        /* \"#utility.yul\":7192:7203   */\n      swap8\n      pop\n        /* \"#utility.yul\":7219:7222   */\n      dup8\n        /* \"#utility.yul\":7212:7222   */\n      swap6\n      pop\n        /* \"#utility.yul\":6261:7228   */\n      pop\n      pop\n      pop\n      pop\n      pop\n        /* \"#utility.yul\":6077:7228   */\n      swap3\n      swap2\n      pop\n      pop\n      jump\t// out\n        /* \"#utility.yul\":7234:7727   */\n    tag_10:\n        /* \"#utility.yul\":7437:7441   */\n      0x00\n        /* \"#utility.yul\":7475:7477   */\n      0x20\n        /* \"#utility.yul\":7464:7473   */\n      dup3\n        /* \"#utility.yul\":7460:7478   */\n      add\n        /* \"#utility.yul\":7452:7478   */\n      swap1\n      pop\n        /* \"#utility.yul\":7524:7533   */\n      dup2\n        /* \"#utility.yul\":7518:7522   */\n      dup2\n        /* \"#utility.yul\":7514:7534   */\n      sub\n        /* \"#utility.yul\":7510:7511   */\n      0x00\n        /* \"#utility.yul\":7499:7508   */\n      dup4\n        /* \"#utility.yul\":7495:7512   */\n      add\n        /* \"#utility.yul\":7488:7535   */\n      mstore\n        /* \"#utility.yul\":7552:7720   */\n      tag_130\n        /* \"#utility.yul\":7715:7719   */\n      dup2\n        /* \"#utility.yul\":7706:7712   */\n      dup5\n        /* \"#utility.yul\":7552:7720   */\n      tag_54\n      jump\t// in\n    tag_130:\n        /* \"#utility.yul\":7544:7720   */\n      swap1\n      pop\n        /* \"#utility.yul\":7234:7727   */\n      swap3\n      swap2\n      pop\n      pop\n      jump\t// out\n        /* \"#utility.yul\":7733:7851   */\n    tag_55:\n        /* \"#utility.yul\":7820:7844   */\n      tag_132\n        /* \"#utility.yul\":7838:7843   */\n      dup2\n        /* \"#utility.yul\":7820:7844   */\n      tag_49\n      jump\t// in\n    tag_132:\n        /* \"#utility.yul\":7815:7818   */\n      dup3\n        /* \"#utility.yul\":7808:7845   */\n      mstore\n        /* \"#utility.yul\":7733:7851   */\n      pop\n      pop\n      jump\t// out\n        /* \"#utility.yul\":7857:8079   */\n    tag_14:\n        /* \"#utility.yul\":7950:7954   */\n      0x00\n        /* \"#utility.yul\":7988:7990   */\n      0x20\n        /* \"#utility.yul\":7977:7986   */\n      dup3\n        /* \"#utility.yul\":7973:7991   */\n      add\n        /* \"#utility.yul\":7965:7991   */\n      swap1\n      pop\n        /* \"#utility.yul\":8001:8072   */\n      tag_134\n        /* \"#utility.yul\":8069:8070   */\n      0x00\n        /* \"#utility.yul\":8058:8067   */\n      dup4\n        /* \"#utility.yul\":8054:8071   */\n      add\n        /* \"#utility.yul\":8045:8051   */\n      dup5\n        /* \"#utility.yul\":8001:8072   */\n      tag_55\n      jump\t// in\n    tag_134:\n        /* \"#utility.yul\":7857:8079   */\n      swap3\n      swap2\n      pop\n      pop\n      jump\t// out\n        /* \"#utility.yul\":8085:8233   */\n    tag_56:\n        /* \"#utility.yul\":8187:8198   */\n      0x00\n        /* \"#utility.yul\":8224:8227   */\n      dup2\n        /* \"#utility.yul\":8209:8227   */\n      swap1\n      pop\n        /* \"#utility.yul\":8085:8233   */\n      swap3\n      swap2\n      pop\n      pop\n      jump\t// out\n        /* \"#utility.yul\":8239:8629   */\n    tag_57:\n        /* \"#utility.yul\":8345:8348   */\n      0x00\n        /* \"#utility.yul\":8373:8412   */\n      tag_137\n        /* \"#utility.yul\":8406:8411   */\n      dup3\n        /* \"#utility.yul\":8373:8412   */\n      tag_44\n      jump\t// in\n    tag_137:\n        /* \"#utility.yul\":8428:8517   */\n      tag_138\n        /* \"#utility.yul\":8510:8516   */\n      dup2\n        /* \"#utility.yul\":8505:8508   */\n      dup6\n        /* \"#utility.yul\":8428:8517   */\n      tag_56\n      jump\t// in\n    tag_138:\n        /* \"#utility.yul\":8421:8517   */\n      swap4\n      pop\n        /* \"#utility.yul\":8526:8591   */\n      tag_139\n        /* \"#utility.yul\":8584:8590   */\n      dup2\n        /* \"#utility.yul\":8579:8582   */\n      dup6\n        /* \"#utility.yul\":8572:8576   */\n      0x20\n        /* \"#utility.yul\":8565:8570   */\n      dup7\n        /* \"#utility.yul\":8561:8577   */\n      add\n        /* \"#utility.yul\":8526:8591   */\n      tag_46\n      jump\t// in\n    tag_139:\n        /* \"#utility.yul\":8616:8622   */\n      dup1\n        /* \"#utility.yul\":8611:8614   */\n      dup5\n        /* \"#utility.yul\":8607:8623   */\n      add\n        /* \"#utility.yul\":8600:8623   */\n      swap2\n      pop\n        /* \"#utility.yul\":8349:8629   */\n      pop\n        /* \"#utility.yul\":8239:8629   */\n      swap3\n      swap2\n      pop\n      pop\n      jump\t// out\n        /* \"#utility.yul\":8635:8910   */\n    tag_18:\n        /* \"#utility.yul\":8767:8770   */\n      0x00\n        /* \"#utility.yul\":8789:8884   */\n      tag_141\n        /* \"#utility.yul\":8880:8883   */\n      dup3\n        /* \"#utility.yul\":8871:8877   */\n      dup5\n        /* \"#utility.yul\":8789:8884   */\n      tag_57\n      jump\t// in\n    tag_141:\n        /* \"#utility.yul\":8782:8884   */\n      swap2\n      pop\n        /* \"#utility.yul\":8901:8904   */\n      dup2\n        /* \"#utility.yul\":8894:8904   */\n      swap1\n      pop\n        /* \"#utility.yul\":8635:8910   */\n      swap3\n      swap2\n      pop\n      pop\n      jump\t// out\n        /* \"#utility.yul\":8916:9096   */\n    tag_58:\n        /* \"#utility.yul\":8964:9041   */\n      0x4e487b7100000000000000000000000000000000000000000000000000000000\n        /* \"#utility.yul\":8961:8962   */\n      0x00\n        /* \"#utility.yul\":8954:9042   */\n      mstore\n        /* \"#utility.yul\":9061:9065   */\n      0x22\n        /* \"#utility.yul\":9058:9059   */\n      0x04\n        /* \"#utility.yul\":9051:9066   */\n      mstore\n        /* \"#utility.yul\":9085:9089   */\n      0x24\n        /* \"#utility.yul\":9082:9083   */\n      0x00\n        /* \"#utility.yul\":9075:9090   */\n      revert\n        /* \"#utility.yul\":9102:9422   */\n    tag_23:\n        /* \"#utility.yul\":9146:9152   */\n      0x00\n        /* \"#utility.yul\":9183:9184   */\n      0x02\n        /* \"#utility.yul\":9177:9181   */\n      dup3\n        /* \"#utility.yul\":9173:9185   */\n      div\n        /* \"#utility.yul\":9163:9185   */\n      swap1\n      pop\n        /* \"#utility.yul\":9230:9231   */\n      0x01\n        /* \"#utility.yul\":9224:9228   */\n      dup3\n        /* \"#utility.yul\":9220:9232   */\n      and\n        /* \"#utility.yul\":9251:9269   */\n      dup1\n        /* \"#utility.yul\":9241:9322   */\n      tag_144\n      jumpi\n        /* \"#utility.yul\":9307:9311   */\n      0x7f\n        /* \"#utility.yul\":9299:9305   */\n      dup3\n        /* \"#utility.yul\":9295:9312   */\n      and\n        /* \"#utility.yul\":9285:9312   */\n      swap2\n      pop\n        /* \"#utility.yul\":9241:9322   */\n    tag_144:\n        /* \"#utility.yul\":9369:9371   */\n      0x20\n        /* \"#utility.yul\":9361:9367   */\n      dup3\n        /* \"#utility.yul\":9358:9372   */\n      lt\n        /* \"#utility.yul\":9338:9356   */\n      dup2\n        /* \"#utility.yul\":9335:9373   */\n      sub\n        /* \"#utility.yul\":9332:9416   */\n      tag_145\n      jumpi\n        /* \"#utility.yul\":9388:9406   */\n      tag_146\n      tag_58\n      jump\t// in\n    tag_146:\n        /* \"#utility.yul\":9332:9416   */\n    tag_145:\n        /* \"#utility.yul\":9153:9422   */\n      pop\n        /* \"#utility.yul\":9102:9422   */\n      swap2\n      swap1\n      pop\n      jump\t// out\n\n    auxdata: 0xa264697066735822122019081307bfa0a7717b8e6fb72e5f39140df67963969826b2f8a4f1e86f8a4b9a64736f6c63430008110033\n}\n\nsub_1: assembly {\n        /* \"ElectronicMedicalRecords.sol\":1281:10497  contract MedicalRecords {... */\n      mstore(0x40, 0x80)\n        /* \"ElectronicMedicalRecords.sol\":4308:4369  constructor(address _admin) {... */\n      callvalue\n      dup1\n      iszero\n      tag_1\n      jumpi\n      0x00\n      dup1\n      revert\n    tag_1:\n      pop\n      mload(0x40)\n      sub(codesize, bytecodeSize)\n      dup1\n      bytecodeSize\n      dup4\n      codecopy\n      dup2\n      dup2\n      add\n      0x40\n      mstore\n      dup2\n      add\n      swap1\n      tag_2\n      swap2\n      swap1\n      tag_3\n      jump\t// in\n    tag_2:\n        /* \"ElectronicMedicalRecords.sol\":4355:4361  _admin */\n      dup1\n        /* \"ElectronicMedicalRecords.sol\":4347:4352  admin */\n      0x05\n      0x00\n        /* \"ElectronicMedicalRecords.sol\":4347:4361  admin = _admin */\n      0x0100\n      exp\n      dup2\n      sload\n      dup2\n      0xffffffffffffffffffffffffffffffffffffffff\n      mul\n      not\n      and\n      swap1\n      dup4\n      0xffffffffffffffffffffffffffffffffffffffff\n      and\n      mul\n      or\n      swap1\n      sstore\n      pop\n        /* \"ElectronicMedicalRecords.sol\":4308:4369  constructor(address _admin) {... */\n      pop\n        /* \"ElectronicMedicalRecords.sol\":1281:10497  contract MedicalRecords {... */\n      jump(tag_6)\n        /* \"#utility.yul\":88:205   */\n    tag_8:\n        /* \"#utility.yul\":197:198   */\n      0x00\n        /* \"#utility.yul\":194:195   */\n      dup1\n        /* \"#utility.yul\":187:199   */\n      revert\n        /* \"#utility.yul\":334:460   */\n    tag_10:\n        /* \"#utility.yul\":371:378   */\n      0x00\n        /* \"#utility.yul\":411:453   */\n      0xffffffffffffffffffffffffffffffffffffffff\n        /* \"#utility.yul\":404:409   */\n      dup3\n        /* \"#utility.yul\":400:454   */\n      and\n        /* \"#utility.yul\":389:454   */\n      swap1\n      pop\n        /* \"#utility.yul\":334:460   */\n      swap2\n      swap1\n      pop\n      jump\t// out\n        /* \"#utility.yul\":466:562   */\n    tag_11:\n        /* \"#utility.yul\":503:510   */\n      0x00\n        /* \"#utility.yul\":532:556   */\n      tag_20\n        /* \"#utility.yul\":550:555   */\n      dup3\n        /* \"#utility.yul\":532:556   */\n      tag_10\n      jump\t// in\n    tag_20:\n        /* \"#utility.yul\":521:556   */\n      swap1\n      pop\n        /* \"#utility.yul\":466:562   */\n      swap2\n      swap1\n      pop\n      jump\t// out\n        /* \"#utility.yul\":568:690   */\n    tag_12:\n        /* \"#utility.yul\":641:665   */\n      tag_22\n        /* \"#utility.yul\":659:664   */\n      dup2\n        /* \"#utility.yul\":641:665   */\n      tag_11\n      jump\t// in\n    tag_22:\n        /* \"#utility.yul\":634:639   */\n      dup2\n        /* \"#utility.yul\":631:666   */\n      eq\n        /* \"#utility.yul\":621:684   */\n      tag_23\n      jumpi\n        /* \"#utility.yul\":680:681   */\n      0x00\n        /* \"#utility.yul\":677:678   */\n      dup1\n        /* \"#utility.yul\":670:682   */\n      revert\n        /* \"#utility.yul\":621:684   */\n    tag_23:\n        /* \"#utility.yul\":568:690   */\n      pop\n      jump\t// out\n        /* \"#utility.yul\":696:839   */\n    tag_13:\n        /* \"#utility.yul\":753:758   */\n      0x00\n        /* \"#utility.yul\":784:790   */\n      dup2\n        /* \"#utility.yul\":778:791   */\n      mload\n        /* \"#utility.yul\":769:791   */\n      swap1\n      pop\n        /* \"#utility.yul\":800:833   */\n      tag_25\n        /* \"#utility.yul\":827:832   */\n      dup2\n        /* \"#utility.yul\":800:833   */\n      tag_12\n      jump\t// in\n    tag_25:\n        /* \"#utility.yul\":696:839   */\n      swap3\n      swap2\n      pop\n      pop\n      jump\t// out\n        /* \"#utility.yul\":845:1196   */\n    tag_3:\n        /* \"#utility.yul\":915:921   */\n      0x00\n        /* \"#utility.yul\":964:966   */\n      0x20\n        /* \"#utility.yul\":952:961   */\n      dup3\n        /* \"#utility.yul\":943:950   */\n      dup5\n        /* \"#utility.yul\":939:962   */\n      sub\n        /* \"#utility.yul\":935:967   */\n      slt\n        /* \"#utility.yul\":932:1051   */\n      iszero\n      tag_27\n      jumpi\n        /* \"#utility.yul\":970:1049   */\n      tag_28\n      tag_8\n      jump\t// in\n    tag_28:\n        /* \"#utility.yul\":932:1051   */\n    tag_27:\n        /* \"#utility.yul\":1090:1091   */\n      0x00\n        /* \"#utility.yul\":1115:1179   */\n      tag_29\n        /* \"#utility.yul\":1171:1178   */\n      dup5\n        /* \"#utility.yul\":1162:1168   */\n      dup3\n        /* \"#utility.yul\":1151:1160   */\n      dup6\n        /* \"#utility.yul\":1147:1169   */\n      add\n        /* \"#utility.yul\":1115:1179   */\n      tag_13\n      jump\t// in\n    tag_29:\n        /* \"#utility.yul\":1105:1179   */\n      swap2\n      pop\n        /* \"#utility.yul\":1061:1189   */\n      pop\n        /* \"#utility.yul\":845:1196   */\n      swap3\n      swap2\n      pop\n      pop\n      jump\t// out\n        /* \"ElectronicMedicalRecords.sol\":1281:10497  contract MedicalRecords {... */\n    tag_6:\n      dataSize(sub_0)\n      dup1\n      dataOffset(sub_0)\n      0x00\n      codecopy\n      0x00\n      return\n    stop\n\n    sub_0: assembly {\n            /* \"ElectronicMedicalRecords.sol\":1281:10497  contract MedicalRecords {... */\n          mstore(0x40, 0x80)\n          callvalue\n          dup1\n          iszero\n          tag_1\n          jumpi\n          0x00\n          dup1\n          revert\n        tag_1:\n          pop\n          jumpi(tag_2, lt(calldatasize, 0x04))\n          shr(0xe0, calldataload(0x00))\n          dup1\n          0x7621df6f\n          gt\n          tag_12\n          jumpi\n          dup1\n          0x7621df6f\n          eq\n          tag_7\n          jumpi\n          dup1\n          0x9f08e438\n          eq\n          tag_8\n          jumpi\n          dup1\n          0xb2c24a34\n          eq\n          tag_9\n          jumpi\n          dup1\n          0xeb7353d1\n          eq\n          tag_10\n          jumpi\n          dup1\n          0xf539fe6c\n          eq\n          tag_11\n          jumpi\n          jump(tag_2)\n        tag_12:\n          dup1\n          0x0619a5a3\n          eq\n          tag_3\n          jumpi\n          dup1\n          0x1107747e\n          eq\n          tag_4\n          jumpi\n          dup1\n          0x4da7580f\n          eq\n          tag_5\n          jumpi\n          dup1\n          0x5db185c7\n          eq\n          tag_6\n          jumpi\n        tag_2:\n          0x00\n          dup1\n          revert\n            /* \"ElectronicMedicalRecords.sol\":6363:7935  function addInPatient(IdentitasPasien memory _identitasPasien, RawatInap memory _rawatInap) onlyDoctor public {... */\n        tag_3:\n          tag_13\n          0x04\n          dup1\n          calldatasize\n          sub\n          dup2\n          add\n          swap1\n          tag_14\n          swap2\n          swap1\n          tag_15\n          jump\t// in\n        tag_14:\n          tag_16\n          jump\t// in\n        tag_13:\n          stop\n            /* \"ElectronicMedicalRecords.sol\":4377:4540  function setDoctorVerificatorAddress(address _DoctorVerificatorAddress) public {... */\n        tag_4:\n          tag_17\n          0x04\n          dup1\n          calldatasize\n          sub\n          dup2\n          add\n          swap1\n          tag_18\n          swap2\n          swap1\n          tag_19\n          jump\t// in\n        tag_18:\n          tag_20\n          jump\t// in\n        tag_17:\n          stop\n            /* \"ElectronicMedicalRecords.sol\":4880:6355  function addOutPatient (IdentitasPasien memory _identitasPasien, RawatJalan memory _rawatjalan) onlyDoctor public {... */\n        tag_5:\n          tag_21\n          0x04\n          dup1\n          calldatasize\n          sub\n          dup2\n          add\n          swap1\n          tag_22\n          swap2\n          swap1\n          tag_23\n          jump\t// in\n        tag_22:\n          tag_24\n          jump\t// in\n        tag_21:\n          stop\n            /* \"ElectronicMedicalRecords.sol\":4548:4716  function setPatientVerificatorAddress(address _PatientVerificatorAddress) public {... */\n        tag_6:\n          tag_25\n          0x04\n          dup1\n          calldatasize\n          sub\n          dup2\n          add\n          swap1\n          tag_26\n          swap2\n          swap1\n          tag_19\n          jump\t// in\n        tag_26:\n          tag_27\n          jump\t// in\n        tag_25:\n          stop\n            /* \"ElectronicMedicalRecords.sol\":4724:4872  function setDoctorRelationAddress(address _DoctorRelationAddress) public {... */\n        tag_7:\n          tag_28\n          0x04\n          dup1\n          calldatasize\n          sub\n          dup2\n          add\n          swap1\n          tag_29\n          swap2\n          swap1\n          tag_19\n          jump\t// in\n        tag_29:\n          tag_30\n          jump\t// in\n        tag_28:\n          stop\n            /* \"ElectronicMedicalRecords.sol\":7943:9662  function addEmergencyPatient(PengantarPasien memory _pengantar, GawatDarurat memory _gawatDarurat) onlyDoctor public {... */\n        tag_8:\n          tag_31\n          0x04\n          dup1\n          calldatasize\n          sub\n          dup2\n          add\n          swap1\n          tag_32\n          swap2\n          swap1\n          tag_33\n          jump\t// in\n        tag_32:\n          tag_34\n          jump\t// in\n        tag_31:\n          stop\n            /* \"ElectronicMedicalRecords.sol\":9670:9845  function getOutPatient(address add) onlyDoctor public view returns(IdentitasPasien memory a, RawatJalan[] memory b) {... */\n        tag_9:\n          tag_35\n          0x04\n          dup1\n          calldatasize\n          sub\n          dup2\n          add\n          swap1\n          tag_36\n          swap2\n          swap1\n          tag_19\n          jump\t// in\n        tag_36:\n          tag_37\n          jump\t// in\n        tag_35:\n          mload(0x40)\n          tag_38\n          swap3\n          swap2\n          swap1\n          tag_39\n          jump\t// in\n        tag_38:\n          mload(0x40)\n          dup1\n          swap2\n          sub\n          swap1\n          return\n            /* \"ElectronicMedicalRecords.sol\":10033:10229  function getEmergencyPatient(address add) onlyDoctor public view returns(PengantarPasien memory a, GawatDarurat[] memory b) {... */\n        tag_10:\n          tag_40\n          0x04\n          dup1\n          calldatasize\n          sub\n          dup2\n          add\n          swap1\n          tag_41\n          swap2\n          swap1\n          tag_19\n          jump\t// in\n        tag_41:\n          tag_42\n          jump\t// in\n        tag_40:\n          mload(0x40)\n          tag_43\n          swap3\n          swap2\n          swap1\n          tag_44\n          jump\t// in\n        tag_43:\n          mload(0x40)\n          dup1\n          swap2\n          sub\n          swap1\n          return\n            /* \"ElectronicMedicalRecords.sol\":9853:10025  function getInPatient(address add) onlyDoctor public view returns(IdentitasPasien memory a, RawatInap[] memory b) {... */\n        tag_11:\n          tag_45\n          0x04\n          dup1\n          calldatasize\n          sub\n          dup2\n          add\n          swap1\n          tag_46\n          swap2\n          swap1\n          tag_19\n          jump\t// in\n        tag_46:\n          tag_47\n          jump\t// in\n        tag_45:\n          mload(0x40)\n          tag_48\n          swap3\n          swap2\n          swap1\n          tag_49\n          jump\t// in\n        tag_48:\n          mload(0x40)\n          dup1\n          swap2\n          sub\n          swap1\n          return\n            /* \"ElectronicMedicalRecords.sol\":6363:7935  function addInPatient(IdentitasPasien memory _identitasPasien, RawatInap memory _rawatInap) onlyDoctor public {... */\n        tag_16:\n            /* \"ElectronicMedicalRecords.sol\":10278:10296  doctor_verificator */\n          0x06\n          0x00\n          swap1\n          sload\n          swap1\n          0x0100\n          exp\n          swap1\n          div\n          0xffffffffffffffffffffffffffffffffffffffff\n          and\n            /* \"ElectronicMedicalRecords.sol\":10278:10303  doctor_verificator.verify */\n          0xffffffffffffffffffffffffffffffffffffffff\n          and\n          0x63a9c3d7\n            /* \"ElectronicMedicalRecords.sol\":10304:10314  msg.sender */\n          caller\n            /* \"ElectronicMedicalRecords.sol\":10278:10315  doctor_verificator.verify(msg.sender) */\n          mload(0x40)\n          dup3\n          0xffffffff\n          and\n          0xe0\n          shl\n          dup2\n          mstore\n          0x04\n          add\n          tag_51\n          swap2\n          swap1\n          tag_52\n          jump\t// in\n        tag_51:\n          0x20\n          mload(0x40)\n          dup1\n          dup4\n          sub\n          dup2\n          dup7\n          gas\n          staticcall\n          iszero\n          dup1\n          iszero\n          tag_54\n          jumpi\n          returndatasize\n          0x00\n          dup1\n          returndatacopy\n          revert(0x00, returndatasize)\n        tag_54:\n          pop\n          pop\n          pop\n          pop\n          mload(0x40)\n          returndatasize\n          not(0x1f)\n          0x1f\n          dup3\n          add\n          and\n          dup3\n          add\n          dup1\n          0x40\n          mstore\n          pop\n          dup2\n          add\n          swap1\n          tag_55\n          swap2\n          swap1\n          tag_56\n          jump\t// in\n        tag_55:\n            /* \"ElectronicMedicalRecords.sol\":10270:10316  require(doctor_verificator.verify(msg.sender)) */\n          tag_57\n          jumpi\n          0x00\n          dup1\n          revert\n        tag_57:\n            /* \"ElectronicMedicalRecords.sol\":6484:6522  IdentitasPasien memory identitasPasien */\n          tag_59\n          tag_60\n          jump\t// in\n        tag_59:\n            /* \"ElectronicMedicalRecords.sol\":6567:6583  _identitasPasien */\n          dup3\n            /* \"ElectronicMedicalRecords.sol\":6567:6598  _identitasPasien.patientAddress */\n          0x00\n          add\n          mload\n            /* \"ElectronicMedicalRecords.sol\":6533:6548  identitasPasien */\n          dup2\n            /* \"ElectronicMedicalRecords.sol\":6533:6563  identitasPasien.patientAddress */\n          0x00\n          add\n            /* \"ElectronicMedicalRecords.sol\":6533:6598  identitasPasien.patientAddress =  _identitasPasien.patientAddress */\n          swap1\n          0xffffffffffffffffffffffffffffffffffffffff\n          and\n          swap1\n          dup2\n          0xffffffffffffffffffffffffffffffffffffffff\n          and\n          dup2\n          mstore\n          pop\n          pop\n            /* \"ElectronicMedicalRecords.sol\":6641:6657  _identitasPasien */\n          dup3\n            /* \"ElectronicMedicalRecords.sol\":6641:6670  _identitasPasien.nama_lengkap */\n          0x20\n          add\n          mload\n            /* \"ElectronicMedicalRecords.sol\":6609:6624  identitasPasien */\n          dup2\n            /* \"ElectronicMedicalRecords.sol\":6609:6637  identitasPasien.nama_lengkap */\n          0x20\n          add\n            /* \"ElectronicMedicalRecords.sol\":6609:6670  identitasPasien.nama_lengkap =  _identitasPasien.nama_lengkap */\n          dup2\n          swap1\n          mstore\n          pop\n            /* \"ElectronicMedicalRecords.sol\":6705:6721  _identitasPasien */\n          dup3\n            /* \"ElectronicMedicalRecords.sol\":6705:6726  _identitasPasien.umur */\n          0x40\n          add\n          mload\n            /* \"ElectronicMedicalRecords.sol\":6681:6696  identitasPasien */\n          dup2\n            /* \"ElectronicMedicalRecords.sol\":6681:6701  identitasPasien.umur */\n          0x40\n          add\n            /* \"ElectronicMedicalRecords.sol\":6681:6726  identitasPasien.umur =  _identitasPasien.umur */\n          dup2\n          dup2\n          mstore\n          pop\n          pop\n            /* \"ElectronicMedicalRecords.sol\":6770:6786  _identitasPasien */\n          dup3\n            /* \"ElectronicMedicalRecords.sol\":6770:6800  _identitasPasien.tanggal_lahir */\n          0x60\n          add\n          mload\n            /* \"ElectronicMedicalRecords.sol\":6737:6752  identitasPasien */\n          dup2\n            /* \"ElectronicMedicalRecords.sol\":6737:6766  identitasPasien.tanggal_lahir */\n          0x60\n          add\n            /* \"ElectronicMedicalRecords.sol\":6737:6800  identitasPasien.tanggal_lahir =  _identitasPasien.tanggal_lahir */\n          dup2\n          swap1\n          mstore\n          pop\n            /* \"ElectronicMedicalRecords.sol\":6837:6853  _identitasPasien */\n          dup3\n            /* \"ElectronicMedicalRecords.sol\":6837:6860  _identitasPasien.gender */\n          0x80\n          add\n          mload\n            /* \"ElectronicMedicalRecords.sol\":6811:6826  identitasPasien */\n          dup2\n            /* \"ElectronicMedicalRecords.sol\":6811:6833  identitasPasien.gender */\n          0x80\n          add\n            /* \"ElectronicMedicalRecords.sol\":6811:6860  identitasPasien.gender =  _identitasPasien.gender */\n          dup2\n          swap1\n          mstore\n          pop\n            /* \"ElectronicMedicalRecords.sol\":6918:6933  identitasPasien */\n          dup1\n            /* \"ElectronicMedicalRecords.sol\":6873:6882  patientId */\n          0x00\n            /* \"ElectronicMedicalRecords.sol\":6873:6915  patientId[_identitasPasien.patientAddress] */\n          dup1\n            /* \"ElectronicMedicalRecords.sol\":6883:6899  _identitasPasien */\n          dup6\n            /* \"ElectronicMedicalRecords.sol\":6883:6914  _identitasPasien.patientAddress */\n          0x00\n          add\n          mload\n            /* \"ElectronicMedicalRecords.sol\":6873:6915  patientId[_identitasPasien.patientAddress] */\n          0xffffffffffffffffffffffffffffffffffffffff\n          and\n          0xffffffffffffffffffffffffffffffffffffffff\n          and\n          dup2\n          mstore\n          0x20\n          add\n          swap1\n          dup2\n          mstore\n          0x20\n          add\n          0x00\n          keccak256\n            /* \"ElectronicMedicalRecords.sol\":6873:6933  patientId[_identitasPasien.patientAddress] = identitasPasien */\n          0x00\n          dup3\n          add\n          mload\n          dup2\n          0x00\n          add\n          exp(0x0100, 0x00)\n          dup2\n          sload\n          dup2\n          0xffffffffffffffffffffffffffffffffffffffff\n          mul\n          not\n          and\n          swap1\n          dup4\n          0xffffffffffffffffffffffffffffffffffffffff\n          and\n          mul\n          or\n          swap1\n          sstore\n          pop\n          0x20\n          dup3\n          add\n          mload\n          dup2\n          0x01\n          add\n          swap1\n          dup2\n          tag_61\n          swap2\n          swap1\n          tag_62\n          jump\t// in\n        tag_61:\n          pop\n          0x40\n          dup3\n          add\n          mload\n          dup2\n          0x02\n          add\n          sstore\n          0x60\n          dup3\n          add\n          mload\n          dup2\n          0x03\n          add\n          swap1\n          dup2\n          tag_63\n          swap2\n          swap1\n          tag_62\n          jump\t// in\n        tag_63:\n          pop\n          0x80\n          dup3\n          add\n          mload\n          dup2\n          0x04\n          add\n          swap1\n          dup2\n          tag_64\n          swap2\n          swap1\n          tag_62\n          jump\t// in\n        tag_64:\n          pop\n          swap1\n          pop\n          pop\n            /* \"ElectronicMedicalRecords.sol\":6946:6972  RawatInap memory rawatInap */\n          tag_65\n          tag_66\n          jump\t// in\n        tag_65:\n            /* \"ElectronicMedicalRecords.sol\":7011:7021  _rawatInap */\n          dup3\n            /* \"ElectronicMedicalRecords.sol\":7011:7037  _rawatInap.patient_address */\n          0x00\n          add\n          mload\n            /* \"ElectronicMedicalRecords.sol\":6983:6992  rawatInap */\n          dup2\n            /* \"ElectronicMedicalRecords.sol\":6983:7008  rawatInap.patient_address */\n          0x00\n          add\n            /* \"ElectronicMedicalRecords.sol\":6983:7037  rawatInap.patient_address = _rawatInap.patient_address */\n          swap1\n          0xffffffffffffffffffffffffffffffffffffffff\n          and\n          swap1\n          dup2\n          0xffffffffffffffffffffffffffffffffffffffff\n          and\n          dup2\n          mstore\n          pop\n          pop\n            /* \"ElectronicMedicalRecords.sol\":7066:7076  _rawatInap */\n          dup3\n            /* \"ElectronicMedicalRecords.sol\":7066:7082  _rawatInap.jenis */\n          0x20\n          add\n          mload\n            /* \"ElectronicMedicalRecords.sol\":7048:7057  rawatInap */\n          dup2\n            /* \"ElectronicMedicalRecords.sol\":7048:7063  rawatInap.jenis */\n          0x20\n          add\n            /* \"ElectronicMedicalRecords.sol\":7048:7082  rawatInap.jenis = _rawatInap.jenis */\n          dup2\n          swap1\n          mstore\n          pop\n            /* \"ElectronicMedicalRecords.sol\":7120:7130  _rawatInap */\n          dup3\n            /* \"ElectronicMedicalRecords.sol\":7120:7144  _rawatInap.date_and_time */\n          0x40\n          add\n          mload\n            /* \"ElectronicMedicalRecords.sol\":7094:7103  rawatInap */\n          dup2\n            /* \"ElectronicMedicalRecords.sol\":7094:7117  rawatInap.date_and_time */\n          0x40\n          add\n            /* \"ElectronicMedicalRecords.sol\":7094:7144  rawatInap.date_and_time = _rawatInap.date_and_time */\n          dup2\n          swap1\n          mstore\n          pop\n            /* \"ElectronicMedicalRecords.sol\":7177:7187  _rawatInap */\n          dup3\n            /* \"ElectronicMedicalRecords.sol\":7177:7197  _rawatInap.anamnesis */\n          0x60\n          add\n          mload\n            /* \"ElectronicMedicalRecords.sol\":7155:7164  rawatInap */\n          dup2\n            /* \"ElectronicMedicalRecords.sol\":7155:7174  rawatInap.anamnesis */\n          0x60\n          add\n            /* \"ElectronicMedicalRecords.sol\":7155:7197  rawatInap.anamnesis = _rawatInap.anamnesis */\n          dup2\n          swap1\n          mstore\n          pop\n            /* \"ElectronicMedicalRecords.sol\":7227:7237  _rawatInap */\n          dup3\n            /* \"ElectronicMedicalRecords.sol\":7227:7243  _rawatInap.fisik */\n          0x80\n          add\n          mload\n            /* \"ElectronicMedicalRecords.sol\":7209:7218  rawatInap */\n          dup2\n            /* \"ElectronicMedicalRecords.sol\":7209:7224  rawatInap.fisik */\n          0x80\n          add\n            /* \"ElectronicMedicalRecords.sol\":7209:7243  rawatInap.fisik = _rawatInap.fisik */\n          dup2\n          swap1\n          mstore\n          pop\n            /* \"ElectronicMedicalRecords.sol\":7277:7287  _rawatInap */\n          dup3\n            /* \"ElectronicMedicalRecords.sol\":7277:7297  _rawatInap.diagnosis */\n          0xa0\n          add\n          mload\n            /* \"ElectronicMedicalRecords.sol\":7255:7264  rawatInap */\n          dup2\n            /* \"ElectronicMedicalRecords.sol\":7255:7274  rawatInap.diagnosis */\n          0xa0\n          add\n            /* \"ElectronicMedicalRecords.sol\":7255:7297  rawatInap.diagnosis = _rawatInap.diagnosis */\n          dup2\n          swap1\n          mstore\n          pop\n            /* \"ElectronicMedicalRecords.sol\":7323:7333  _rawatInap */\n          dup3\n            /* \"ElectronicMedicalRecords.sol\":7323:7336  _rawatInap.rp */\n          0xc0\n          add\n          mload\n            /* \"ElectronicMedicalRecords.sol\":7308:7317  rawatInap */\n          dup2\n            /* \"ElectronicMedicalRecords.sol\":7308:7320  rawatInap.rp */\n          0xc0\n          add\n            /* \"ElectronicMedicalRecords.sol\":7308:7336  rawatInap.rp = _rawatInap.rp */\n          dup2\n          swap1\n          mstore\n          pop\n            /* \"ElectronicMedicalRecords.sol\":7382:7392  _rawatInap */\n          dup3\n            /* \"ElectronicMedicalRecords.sol\":7382:7414  _rawatInap.pengobatanDanTindakan */\n          0xe0\n          add\n          mload\n            /* \"ElectronicMedicalRecords.sol\":7348:7357  rawatInap */\n          dup2\n            /* \"ElectronicMedicalRecords.sol\":7348:7379  rawatInap.pengobatanDanTindakan */\n          0xe0\n          add\n            /* \"ElectronicMedicalRecords.sol\":7348:7414  rawatInap.pengobatanDanTindakan = _rawatInap.pengobatanDanTindakan */\n          dup2\n          swap1\n          mstore\n          pop\n            /* \"ElectronicMedicalRecords.sol\":7447:7457  _rawatInap */\n          dup3\n            /* \"ElectronicMedicalRecords.sol\":7447:7467  _rawatInap.agreement */\n          0x0100\n          add\n          mload\n            /* \"ElectronicMedicalRecords.sol\":7425:7434  rawatInap */\n          dup2\n            /* \"ElectronicMedicalRecords.sol\":7425:7444  rawatInap.agreement */\n          0x0100\n          add\n            /* \"ElectronicMedicalRecords.sol\":7425:7467  rawatInap.agreement = _rawatInap.agreement */\n          swap1\n          iszero\n          iszero\n          swap1\n          dup2\n          iszero\n          iszero\n          dup2\n          mstore\n          pop\n          pop\n            /* \"ElectronicMedicalRecords.sol\":7494:7504  _rawatInap */\n          dup3\n            /* \"ElectronicMedicalRecords.sol\":7494:7508  _rawatInap.obs */\n          0x0120\n          add\n          mload\n            /* \"ElectronicMedicalRecords.sol\":7478:7487  rawatInap */\n          dup2\n            /* \"ElectronicMedicalRecords.sol\":7478:7491  rawatInap.obs */\n          0x0120\n          add\n            /* \"ElectronicMedicalRecords.sol\":7478:7508  rawatInap.obs = _rawatInap.obs */\n          dup2\n          swap1\n          mstore\n          pop\n            /* \"ElectronicMedicalRecords.sol\":7534:7544  _rawatInap */\n          dup3\n            /* \"ElectronicMedicalRecords.sol\":7534:7547  _rawatInap.ds */\n          0x0140\n          add\n          mload\n            /* \"ElectronicMedicalRecords.sol\":7519:7528  rawatInap */\n          dup2\n            /* \"ElectronicMedicalRecords.sol\":7519:7531  rawatInap.ds */\n          0x0140\n          add\n            /* \"ElectronicMedicalRecords.sol\":7519:7547  rawatInap.ds = _rawatInap.ds */\n          dup2\n          swap1\n          mstore\n          pop\n            /* \"ElectronicMedicalRecords.sol\":7577:7587  _rawatInap */\n          dup3\n            /* \"ElectronicMedicalRecords.sol\":7577:7594  _rawatInap.doctor */\n          0x0160\n          add\n          mload\n            /* \"ElectronicMedicalRecords.sol\":7558:7567  rawatInap */\n          dup2\n            /* \"ElectronicMedicalRecords.sol\":7558:7574  rawatInap.doctor */\n          0x0160\n          add\n            /* \"ElectronicMedicalRecords.sol\":7558:7594  rawatInap.doctor = _rawatInap.doctor */\n          swap1\n          0xffffffffffffffffffffffffffffffffffffffff\n          and\n          swap1\n          dup2\n          0xffffffffffffffffffffffffffffffffffffffff\n          and\n          dup2\n          mstore\n          pop\n          pop\n            /* \"ElectronicMedicalRecords.sol\":7627:7637  _rawatInap */\n          dup3\n            /* \"ElectronicMedicalRecords.sol\":7627:7647  _rawatInap.pelayanan */\n          0x0180\n          add\n          mload\n            /* \"ElectronicMedicalRecords.sol\":7605:7614  rawatInap */\n          dup2\n            /* \"ElectronicMedicalRecords.sol\":7605:7624  rawatInap.pelayanan */\n          0x0180\n          add\n            /* \"ElectronicMedicalRecords.sol\":7605:7647  rawatInap.pelayanan = _rawatInap.pelayanan */\n          dup2\n          swap1\n          mstore\n          pop\n            /* \"ElectronicMedicalRecords.sol\":7660:7669  inPatient */\n          0x03\n            /* \"ElectronicMedicalRecords.sol\":7660:7697  inPatient[_rawatInap.patient_address] */\n          0x00\n            /* \"ElectronicMedicalRecords.sol\":7670:7680  _rawatInap */\n          dup5\n            /* \"ElectronicMedicalRecords.sol\":7670:7696  _rawatInap.patient_address */\n          0x00\n          add\n          mload\n            /* \"ElectronicMedicalRecords.sol\":7660:7697  inPatient[_rawatInap.patient_address] */\n          0xffffffffffffffffffffffffffffffffffffffff\n          and\n          0xffffffffffffffffffffffffffffffffffffffff\n          and\n          dup2\n          mstore\n          0x20\n          add\n          swap1\n          dup2\n          mstore\n          0x20\n          add\n          0x00\n          keccak256\n            /* \"ElectronicMedicalRecords.sol\":7703:7712  rawatInap */\n          dup2\n            /* \"ElectronicMedicalRecords.sol\":7660:7713  inPatient[_rawatInap.patient_address].push(rawatInap) */\n          swap1\n          dup1\n          0x01\n          dup2\n          sload\n          add\n          dup1\n          dup3\n          sstore\n          dup1\n          swap2\n          pop\n          pop\n          0x01\n          swap1\n          sub\n          swap1\n          0x00\n          mstore\n          keccak256(0x00, 0x20)\n          swap1\n          0x0d\n          mul\n          add\n          0x00\n          swap1\n          swap2\n          swap1\n          swap2\n          swap1\n          swap2\n          pop\n          0x00\n          dup3\n          add\n          mload\n          dup2\n          0x00\n          add\n          exp(0x0100, 0x00)\n          dup2\n          sload\n          dup2\n          0xffffffffffffffffffffffffffffffffffffffff\n          mul\n          not\n          and\n          swap1\n          dup4\n          0xffffffffffffffffffffffffffffffffffffffff\n          and\n          mul\n          or\n          swap1\n          sstore\n          pop\n          0x20\n          dup3\n          add\n          mload\n          dup2\n          0x01\n          add\n          swap1\n          dup2\n          tag_68\n          swap2\n          swap1\n          tag_62\n          jump\t// in\n        tag_68:\n          pop\n          0x40\n          dup3\n          add\n          mload\n          dup2\n          0x02\n          add\n          swap1\n          dup2\n          tag_69\n          swap2\n          swap1\n          tag_62\n          jump\t// in\n        tag_69:\n          pop\n          0x60\n          dup3\n          add\n          mload\n          dup2\n          0x03\n          add\n          swap1\n          dup2\n          tag_70\n          swap2\n          swap1\n          tag_62\n          jump\t// in\n        tag_70:\n          pop\n          0x80\n          dup3\n          add\n          mload\n          dup2\n          0x04\n          add\n          swap1\n          dup2\n          tag_71\n          swap2\n          swap1\n          tag_62\n          jump\t// in\n        tag_71:\n          pop\n          0xa0\n          dup3\n          add\n          mload\n          dup2\n          0x05\n          add\n          swap1\n          dup2\n          tag_72\n          swap2\n          swap1\n          tag_62\n          jump\t// in\n        tag_72:\n          pop\n          0xc0\n          dup3\n          add\n          mload\n          dup2\n          0x06\n          add\n          swap1\n          dup2\n          tag_73\n          swap2\n          swap1\n          tag_62\n          jump\t// in\n        tag_73:\n          pop\n          0xe0\n          dup3\n          add\n          mload\n          dup2\n          0x07\n          add\n          swap1\n          dup2\n          tag_74\n          swap2\n          swap1\n          tag_62\n          jump\t// in\n        tag_74:\n          pop\n          0x0100\n          dup3\n          add\n          mload\n          dup2\n          0x08\n          add\n          exp(0x0100, 0x00)\n          dup2\n          sload\n          dup2\n          0xff\n          mul\n          not\n          and\n          swap1\n          dup4\n          iszero\n          iszero\n          mul\n          or\n          swap1\n          sstore\n          pop\n          0x0120\n          dup3\n          add\n          mload\n          dup2\n          0x09\n          add\n          swap1\n          dup2\n          tag_75\n          swap2\n          swap1\n          tag_62\n          jump\t// in\n        tag_75:\n          pop\n          0x0140\n          dup3\n          add\n          mload\n          dup2\n          0x0a\n          add\n          swap1\n          dup2\n          tag_76\n          swap2\n          swap1\n          tag_62\n          jump\t// in\n        tag_76:\n          pop\n          0x0160\n          dup3\n          add\n          mload\n          dup2\n          0x0b\n          add\n          exp(0x0100, 0x00)\n          dup2\n          sload\n          dup2\n          0xffffffffffffffffffffffffffffffffffffffff\n          mul\n          not\n          and\n          swap1\n          dup4\n          0xffffffffffffffffffffffffffffffffffffffff\n          and\n          mul\n          or\n          swap1\n          sstore\n          pop\n          0x0180\n          dup3\n          add\n          mload\n          dup2\n          0x0c\n          add\n          swap1\n          dup2\n          tag_77\n          swap2\n          swap1\n          tag_62\n          jump\t// in\n        tag_77:\n          pop\n          pop\n          pop\n            /* \"ElectronicMedicalRecords.sol\":7726:7745  patient_verificator */\n          0x07\n          0x00\n          swap1\n          sload\n          swap1\n          0x0100\n          exp\n          swap1\n          div\n          0xffffffffffffffffffffffffffffffffffffffff\n          and\n            /* \"ElectronicMedicalRecords.sol\":7726:7756  patient_verificator.addPatient */\n          0xffffffffffffffffffffffffffffffffffffffff\n          and\n          0x6d263ceb\n            /* \"ElectronicMedicalRecords.sol\":7757:7773  _identitasPasien */\n          dup6\n            /* \"ElectronicMedicalRecords.sol\":7757:7788  _identitasPasien.patientAddress */\n          0x00\n          add\n          mload\n            /* \"ElectronicMedicalRecords.sol\":7726:7789  patient_verificator.addPatient(_identitasPasien.patientAddress) */\n          mload(0x40)\n          dup3\n          0xffffffff\n          and\n          0xe0\n          shl\n          dup2\n          mstore\n          0x04\n          add\n          tag_78\n          swap2\n          swap1\n          tag_52\n          jump\t// in\n        tag_78:\n          0x00\n          mload(0x40)\n          dup1\n          dup4\n          sub\n          dup2\n          0x00\n          dup8\n          dup1\n          extcodesize\n          iszero\n          dup1\n          iszero\n          tag_79\n          jumpi\n          0x00\n          dup1\n          revert\n        tag_79:\n          pop\n          gas\n          call\n          iszero\n          dup1\n          iszero\n          tag_81\n          jumpi\n          returndatasize\n          0x00\n          dup1\n          returndatacopy\n          revert(0x00, returndatasize)\n        tag_81:\n          pop\n          pop\n          pop\n          pop\n            /* \"ElectronicMedicalRecords.sol\":7800:7815  doctor_relation */\n          0x08\n          0x00\n          swap1\n          sload\n          swap1\n          0x0100\n          exp\n          swap1\n          div\n          0xffffffffffffffffffffffffffffffffffffffff\n          and\n            /* \"ElectronicMedicalRecords.sol\":7800:7833  doctor_relation.addDoctorRelation */\n          0xffffffffffffffffffffffffffffffffffffffff\n          and\n          0x43a0e44a\n            /* \"ElectronicMedicalRecords.sol\":7834:7844  msg.sender */\n          caller\n            /* \"ElectronicMedicalRecords.sol\":7846:7862  _identitasPasien */\n          dup7\n            /* \"ElectronicMedicalRecords.sol\":7846:7875  _identitasPasien.nama_lengkap */\n          0x20\n          add\n          mload\n            /* \"ElectronicMedicalRecords.sol\":7877:7887  _rawatInap */\n          dup7\n            /* \"ElectronicMedicalRecords.sol\":7877:7893  _rawatInap.jenis */\n          0x20\n          add\n          mload\n            /* \"ElectronicMedicalRecords.sol\":7895:7911  _identitasPasien */\n          dup9\n            /* \"ElectronicMedicalRecords.sol\":7895:7926  _identitasPasien.patientAddress */\n          0x00\n          add\n          mload\n            /* \"ElectronicMedicalRecords.sol\":7800:7927  doctor_relation.addDoctorRelation(msg.sender, _identitasPasien.nama_lengkap, _rawatInap.jenis, _identitasPasien.patientAddress) */\n          mload(0x40)\n          dup6\n          0xffffffff\n          and\n          0xe0\n          shl\n          dup2\n          mstore\n          0x04\n          add\n          tag_82\n          swap5\n          swap4\n          swap3\n          swap2\n          swap1\n          tag_83\n          jump\t// in\n        tag_82:\n          0x00\n          mload(0x40)\n          dup1\n          dup4\n          sub\n          dup2\n          0x00\n          dup8\n          dup1\n          extcodesize\n          iszero\n          dup1\n          iszero\n          tag_84\n          jumpi\n          0x00\n          dup1\n          revert\n        tag_84:\n          pop\n          gas\n          call\n          iszero\n          dup1\n          iszero\n          tag_86\n          jumpi\n          returndatasize\n          0x00\n          dup1\n          returndatacopy\n          revert(0x00, returndatasize)\n        tag_86:\n          pop\n          pop\n          pop\n          pop\n            /* \"ElectronicMedicalRecords.sol\":6473:7935  {... */\n          pop\n          pop\n            /* \"ElectronicMedicalRecords.sol\":6363:7935  function addInPatient(IdentitasPasien memory _identitasPasien, RawatInap memory _rawatInap) onlyDoctor public {... */\n          pop\n          pop\n          jump\t// out\n            /* \"ElectronicMedicalRecords.sol\":4377:4540  function setDoctorVerificatorAddress(address _DoctorVerificatorAddress) public {... */\n        tag_20:\n            /* \"ElectronicMedicalRecords.sol\":4506:4531  _DoctorVerificatorAddress */\n          dup1\n            /* \"ElectronicMedicalRecords.sol\":4467:4485  doctor_verificator */\n          0x06\n          0x00\n            /* \"ElectronicMedicalRecords.sol\":4467:4532  doctor_verificator = DoctorVerificator(_DoctorVerificatorAddress) */\n          0x0100\n          exp\n          dup2\n          sload\n          dup2\n          0xffffffffffffffffffffffffffffffffffffffff\n          mul\n          not\n          and\n          swap1\n          dup4\n          0xffffffffffffffffffffffffffffffffffffffff\n          and\n          mul\n          or\n          swap1\n          sstore\n          pop\n            /* \"ElectronicMedicalRecords.sol\":4377:4540  function setDoctorVerificatorAddress(address _DoctorVerificatorAddress) public {... */\n          pop\n          jump\t// out\n            /* \"ElectronicMedicalRecords.sol\":4880:6355  function addOutPatient (IdentitasPasien memory _identitasPasien, RawatJalan memory _rawatjalan) onlyDoctor public {... */\n        tag_24:\n            /* \"ElectronicMedicalRecords.sol\":10278:10296  doctor_verificator */\n          0x06\n          0x00\n          swap1\n          sload\n          swap1\n          0x0100\n          exp\n          swap1\n          div\n          0xffffffffffffffffffffffffffffffffffffffff\n          and\n            /* \"ElectronicMedicalRecords.sol\":10278:10303  doctor_verificator.verify */\n          0xffffffffffffffffffffffffffffffffffffffff\n          and\n          0x63a9c3d7\n            /* \"ElectronicMedicalRecords.sol\":10304:10314  msg.sender */\n          caller\n            /* \"ElectronicMedicalRecords.sol\":10278:10315  doctor_verificator.verify(msg.sender) */\n          mload(0x40)\n          dup3\n          0xffffffff\n          and\n          0xe0\n          shl\n          dup2\n          mstore\n          0x04\n          add\n          tag_89\n          swap2\n          swap1\n          tag_52\n          jump\t// in\n        tag_89:\n          0x20\n          mload(0x40)\n          dup1\n          dup4\n          sub\n          dup2\n          dup7\n          gas\n          staticcall\n          iszero\n          dup1\n          iszero\n          tag_91\n          jumpi\n          returndatasize\n          0x00\n          dup1\n          returndatacopy\n          revert(0x00, returndatasize)\n        tag_91:\n          pop\n          pop\n          pop\n          pop\n          mload(0x40)\n          returndatasize\n          not(0x1f)\n          0x1f\n          dup3\n          add\n          and\n          dup3\n          add\n          dup1\n          0x40\n          mstore\n          pop\n          dup2\n          add\n          swap1\n          tag_92\n          swap2\n          swap1\n          tag_56\n          jump\t// in\n        tag_92:\n            /* \"ElectronicMedicalRecords.sol\":10270:10316  require(doctor_verificator.verify(msg.sender)) */\n          tag_93\n          jumpi\n          0x00\n          dup1\n          revert\n        tag_93:\n            /* \"ElectronicMedicalRecords.sol\":5005:5043  IdentitasPasien memory identitasPasien */\n          tag_95\n          tag_60\n          jump\t// in\n        tag_95:\n            /* \"ElectronicMedicalRecords.sol\":5088:5104  _identitasPasien */\n          dup3\n            /* \"ElectronicMedicalRecords.sol\":5088:5119  _identitasPasien.patientAddress */\n          0x00\n          add\n          mload\n            /* \"ElectronicMedicalRecords.sol\":5054:5069  identitasPasien */\n          dup2\n            /* \"ElectronicMedicalRecords.sol\":5054:5084  identitasPasien.patientAddress */\n          0x00\n          add\n            /* \"ElectronicMedicalRecords.sol\":5054:5119  identitasPasien.patientAddress =  _identitasPasien.patientAddress */\n          swap1\n          0xffffffffffffffffffffffffffffffffffffffff\n          and\n          swap1\n          dup2\n          0xffffffffffffffffffffffffffffffffffffffff\n          and\n          dup2\n          mstore\n          pop\n          pop\n            /* \"ElectronicMedicalRecords.sol\":5162:5178  _identitasPasien */\n          dup3\n            /* \"ElectronicMedicalRecords.sol\":5162:5191  _identitasPasien.nama_lengkap */\n          0x20\n          add\n          mload\n            /* \"ElectronicMedicalRecords.sol\":5130:5145  identitasPasien */\n          dup2\n            /* \"ElectronicMedicalRecords.sol\":5130:5158  identitasPasien.nama_lengkap */\n          0x20\n          add\n            /* \"ElectronicMedicalRecords.sol\":5130:5191  identitasPasien.nama_lengkap =  _identitasPasien.nama_lengkap */\n          dup2\n          swap1\n          mstore\n          pop\n            /* \"ElectronicMedicalRecords.sol\":5226:5242  _identitasPasien */\n          dup3\n            /* \"ElectronicMedicalRecords.sol\":5226:5247  _identitasPasien.umur */\n          0x40\n          add\n          mload\n            /* \"ElectronicMedicalRecords.sol\":5202:5217  identitasPasien */\n          dup2\n            /* \"ElectronicMedicalRecords.sol\":5202:5222  identitasPasien.umur */\n          0x40\n          add\n            /* \"ElectronicMedicalRecords.sol\":5202:5247  identitasPasien.umur =  _identitasPasien.umur */\n          dup2\n          dup2\n          mstore\n          pop\n          pop\n            /* \"ElectronicMedicalRecords.sol\":5291:5307  _identitasPasien */\n          dup3\n            /* \"ElectronicMedicalRecords.sol\":5291:5321  _identitasPasien.tanggal_lahir */\n          0x60\n          add\n          mload\n            /* \"ElectronicMedicalRecords.sol\":5258:5273  identitasPasien */\n          dup2\n            /* \"ElectronicMedicalRecords.sol\":5258:5287  identitasPasien.tanggal_lahir */\n          0x60\n          add\n            /* \"ElectronicMedicalRecords.sol\":5258:5321  identitasPasien.tanggal_lahir =  _identitasPasien.tanggal_lahir */\n          dup2\n          swap1\n          mstore\n          pop\n            /* \"ElectronicMedicalRecords.sol\":5358:5374  _identitasPasien */\n          dup3\n            /* \"ElectronicMedicalRecords.sol\":5358:5381  _identitasPasien.gender */\n          0x80\n          add\n          mload\n            /* \"ElectronicMedicalRecords.sol\":5332:5347  identitasPasien */\n          dup2\n            /* \"ElectronicMedicalRecords.sol\":5332:5354  identitasPasien.gender */\n          0x80\n          add\n            /* \"ElectronicMedicalRecords.sol\":5332:5381  identitasPasien.gender =  _identitasPasien.gender */\n          dup2\n          swap1\n          mstore\n          pop\n            /* \"ElectronicMedicalRecords.sol\":5439:5454  identitasPasien */\n          dup1\n            /* \"ElectronicMedicalRecords.sol\":5394:5403  patientId */\n          0x00\n            /* \"ElectronicMedicalRecords.sol\":5394:5436  patientId[_identitasPasien.patientAddress] */\n          dup1\n            /* \"ElectronicMedicalRecords.sol\":5404:5420  _identitasPasien */\n          dup6\n            /* \"ElectronicMedicalRecords.sol\":5404:5435  _identitasPasien.patientAddress */\n          0x00\n          add\n          mload\n            /* \"ElectronicMedicalRecords.sol\":5394:5436  patientId[_identitasPasien.patientAddress] */\n          0xffffffffffffffffffffffffffffffffffffffff\n          and\n          0xffffffffffffffffffffffffffffffffffffffff\n          and\n          dup2\n          mstore\n          0x20\n          add\n          swap1\n          dup2\n          mstore\n          0x20\n          add\n          0x00\n          keccak256\n            /* \"ElectronicMedicalRecords.sol\":5394:5454  patientId[_identitasPasien.patientAddress] = identitasPasien */\n          0x00\n          dup3\n          add\n          mload\n          dup2\n          0x00\n          add\n          exp(0x0100, 0x00)\n          dup2\n          sload\n          dup2\n          0xffffffffffffffffffffffffffffffffffffffff\n          mul\n          not\n          and\n          swap1\n          dup4\n          0xffffffffffffffffffffffffffffffffffffffff\n          and\n          mul\n          or\n          swap1\n          sstore\n          pop\n          0x20\n          dup3\n          add\n          mload\n          dup2\n          0x01\n          add\n          swap1\n          dup2\n          tag_96\n          swap2\n          swap1\n          tag_62\n          jump\t// in\n        tag_96:\n          pop\n          0x40\n          dup3\n          add\n          mload\n          dup2\n          0x02\n          add\n          sstore\n          0x60\n          dup3\n          add\n          mload\n          dup2\n          0x03\n          add\n          swap1\n          dup2\n          tag_97\n          swap2\n          swap1\n          tag_62\n          jump\t// in\n        tag_97:\n          pop\n          0x80\n          dup3\n          add\n          mload\n          dup2\n          0x04\n          add\n          swap1\n          dup2\n          tag_98\n          swap2\n          swap1\n          tag_62\n          jump\t// in\n        tag_98:\n          pop\n          swap1\n          pop\n          pop\n            /* \"ElectronicMedicalRecords.sol\":5467:5495  RawatJalan memory rawatJalan */\n          tag_99\n          tag_100\n          jump\t// in\n        tag_99:\n            /* \"ElectronicMedicalRecords.sol\":5535:5546  _rawatjalan */\n          dup3\n            /* \"ElectronicMedicalRecords.sol\":5535:5562  _rawatjalan.patient_address */\n          0x00\n          add\n          mload\n            /* \"ElectronicMedicalRecords.sol\":5506:5516  rawatJalan */\n          dup2\n            /* \"ElectronicMedicalRecords.sol\":5506:5532  rawatJalan.patient_address */\n          0x00\n          add\n            /* \"ElectronicMedicalRecords.sol\":5506:5562  rawatJalan.patient_address = _rawatjalan.patient_address */\n          swap1\n          0xffffffffffffffffffffffffffffffffffffffff\n          and\n          swap1\n          dup2\n          0xffffffffffffffffffffffffffffffffffffffff\n          and\n          dup2\n          mstore\n          pop\n          pop\n            /* \"ElectronicMedicalRecords.sol\":5592:5603  _rawatjalan */\n          dup3\n            /* \"ElectronicMedicalRecords.sol\":5592:5609  _rawatjalan.jenis */\n          0x20\n          add\n          mload\n            /* \"ElectronicMedicalRecords.sol\":5573:5583  rawatJalan */\n          dup2\n            /* \"ElectronicMedicalRecords.sol\":5573:5589  rawatJalan.jenis */\n          0x20\n          add\n            /* \"ElectronicMedicalRecords.sol\":5573:5609  rawatJalan.jenis = _rawatjalan.jenis */\n          dup2\n          swap1\n          mstore\n          pop\n            /* \"ElectronicMedicalRecords.sol\":5647:5658  _rawatjalan */\n          dup3\n            /* \"ElectronicMedicalRecords.sol\":5647:5672  _rawatjalan.date_and_time */\n          0x40\n          add\n          mload\n            /* \"ElectronicMedicalRecords.sol\":5620:5630  rawatJalan */\n          dup2\n            /* \"ElectronicMedicalRecords.sol\":5620:5644  rawatJalan.date_and_time */\n          0x40\n          add\n            /* \"ElectronicMedicalRecords.sol\":5620:5672  rawatJalan.date_and_time = _rawatjalan.date_and_time */\n          dup2\n          swap1\n          mstore\n          pop\n            /* \"ElectronicMedicalRecords.sol\":5706:5717  _rawatjalan */\n          dup3\n            /* \"ElectronicMedicalRecords.sol\":5706:5727  _rawatjalan.anamnesis */\n          0x60\n          add\n          mload\n            /* \"ElectronicMedicalRecords.sol\":5683:5693  rawatJalan */\n          dup2\n            /* \"ElectronicMedicalRecords.sol\":5683:5703  rawatJalan.anamnesis */\n          0x60\n          add\n            /* \"ElectronicMedicalRecords.sol\":5683:5727  rawatJalan.anamnesis = _rawatjalan.anamnesis */\n          dup2\n          swap1\n          mstore\n          pop\n            /* \"ElectronicMedicalRecords.sol\":5757:5768  _rawatjalan */\n          dup3\n            /* \"ElectronicMedicalRecords.sol\":5757:5774  _rawatjalan.fisik */\n          0x80\n          add\n          mload\n            /* \"ElectronicMedicalRecords.sol\":5738:5748  rawatJalan */\n          dup2\n            /* \"ElectronicMedicalRecords.sol\":5738:5754  rawatJalan.fisik */\n          0x80\n          add\n            /* \"ElectronicMedicalRecords.sol\":5738:5774  rawatJalan.fisik = _rawatjalan.fisik */\n          dup2\n          swap1\n          mstore\n          pop\n            /* \"ElectronicMedicalRecords.sol\":5808:5819  _rawatjalan */\n          dup3\n            /* \"ElectronicMedicalRecords.sol\":5808:5829  _rawatjalan.diagnosis */\n          0xa0\n          add\n          mload\n            /* \"ElectronicMedicalRecords.sol\":5785:5795  rawatJalan */\n          dup2\n            /* \"ElectronicMedicalRecords.sol\":5785:5805  rawatJalan.diagnosis */\n          0xa0\n          add\n            /* \"ElectronicMedicalRecords.sol\":5785:5829  rawatJalan.diagnosis = _rawatjalan.diagnosis */\n          dup2\n          swap1\n          mstore\n          pop\n            /* \"ElectronicMedicalRecords.sol\":5856:5867  _rawatjalan */\n          dup3\n            /* \"ElectronicMedicalRecords.sol\":5856:5870  _rawatjalan.rp */\n          0xc0\n          add\n          mload\n            /* \"ElectronicMedicalRecords.sol\":5840:5850  rawatJalan */\n          dup2\n            /* \"ElectronicMedicalRecords.sol\":5840:5853  rawatJalan.rp */\n          0xc0\n          add\n            /* \"ElectronicMedicalRecords.sol\":5840:5870  rawatJalan.rp = _rawatjalan.rp */\n          dup2\n          swap1\n          mstore\n          pop\n            /* \"ElectronicMedicalRecords.sol\":5916:5927  _rawatjalan */\n          dup3\n            /* \"ElectronicMedicalRecords.sol\":5916:5949  _rawatjalan.pengobatanDanTindakan */\n          0xe0\n          add\n          mload\n            /* \"ElectronicMedicalRecords.sol\":5881:5891  rawatJalan */\n          dup2\n            /* \"ElectronicMedicalRecords.sol\":5881:5913  rawatJalan.pengobatanDanTindakan */\n          0xe0\n          add\n            /* \"ElectronicMedicalRecords.sol\":5881:5949  rawatJalan.pengobatanDanTindakan = _rawatjalan.pengobatanDanTindakan */\n          dup2\n          swap1\n          mstore\n          pop\n            /* \"ElectronicMedicalRecords.sol\":5983:5994  _rawatjalan */\n          dup3\n            /* \"ElectronicMedicalRecords.sol\":5983:6004  _rawatjalan.pelayanan */\n          0x0100\n          add\n          mload\n            /* \"ElectronicMedicalRecords.sol\":5960:5970  rawatJalan */\n          dup2\n            /* \"ElectronicMedicalRecords.sol\":5960:5980  rawatJalan.pelayanan */\n          0x0100\n          add\n            /* \"ElectronicMedicalRecords.sol\":5960:6004  rawatJalan.pelayanan = _rawatjalan.pelayanan */\n          dup2\n          swap1\n          mstore\n          pop\n            /* \"ElectronicMedicalRecords.sol\":6038:6049  _rawatjalan */\n          dup3\n            /* \"ElectronicMedicalRecords.sol\":6038:6059  _rawatjalan.agreement */\n          0x0120\n          add\n          mload\n            /* \"ElectronicMedicalRecords.sol\":6015:6025  rawatJalan */\n          dup2\n            /* \"ElectronicMedicalRecords.sol\":6015:6035  rawatJalan.agreement */\n          0x0120\n          add\n            /* \"ElectronicMedicalRecords.sol\":6015:6059  rawatJalan.agreement = _rawatjalan.agreement */\n          swap1\n          iszero\n          iszero\n          swap1\n          dup2\n          iszero\n          iszero\n          dup2\n          mstore\n          pop\n          pop\n            /* \"ElectronicMedicalRecords.sol\":6072:6082  outPatient */\n          0x02\n            /* \"ElectronicMedicalRecords.sol\":6072:6115  outPatient[_identitasPasien.patientAddress] */\n          0x00\n            /* \"ElectronicMedicalRecords.sol\":6083:6099  _identitasPasien */\n          dup6\n            /* \"ElectronicMedicalRecords.sol\":6083:6114  _identitasPasien.patientAddress */\n          0x00\n          add\n          mload\n            /* \"ElectronicMedicalRecords.sol\":6072:6115  outPatient[_identitasPasien.patientAddress] */\n          0xffffffffffffffffffffffffffffffffffffffff\n          and\n          0xffffffffffffffffffffffffffffffffffffffff\n          and\n          dup2\n          mstore\n          0x20\n          add\n          swap1\n          dup2\n          mstore\n          0x20\n          add\n          0x00\n          keccak256\n            /* \"ElectronicMedicalRecords.sol\":6121:6131  rawatJalan */\n          dup2\n            /* \"ElectronicMedicalRecords.sol\":6072:6132  outPatient[_identitasPasien.patientAddress].push(rawatJalan) */\n          swap1\n          dup1\n          0x01\n          dup2\n          sload\n          add\n          dup1\n          dup3\n          sstore\n          dup1\n          swap2\n          pop\n          pop\n          0x01\n          swap1\n          sub\n          swap1\n          0x00\n          mstore\n          keccak256(0x00, 0x20)\n          swap1\n          0x0a\n          mul\n          add\n          0x00\n          swap1\n          swap2\n          swap1\n          swap2\n          swap1\n          swap2\n          pop\n          0x00\n          dup3\n          add\n          mload\n          dup2\n          0x00\n          add\n          exp(0x0100, 0x00)\n          dup2\n          sload\n          dup2\n          0xffffffffffffffffffffffffffffffffffffffff\n          mul\n          not\n          and\n          swap1\n          dup4\n          0xffffffffffffffffffffffffffffffffffffffff\n          and\n          mul\n          or\n          swap1\n          sstore\n          pop\n          0x20\n          dup3\n          add\n          mload\n          dup2\n          0x01\n          add\n          swap1\n          dup2\n          tag_102\n          swap2\n          swap1\n          tag_62\n          jump\t// in\n        tag_102:\n          pop\n          0x40\n          dup3\n          add\n          mload\n          dup2\n          0x02\n          add\n          swap1\n          dup2\n          tag_103\n          swap2\n          swap1\n          tag_62\n          jump\t// in\n        tag_103:\n          pop\n          0x60\n          dup3\n          add\n          mload\n          dup2\n          0x03\n          add\n          swap1\n          dup2\n          tag_104\n          swap2\n          swap1\n          tag_62\n          jump\t// in\n        tag_104:\n          pop\n          0x80\n          dup3\n          add\n          mload\n          dup2\n          0x04\n          add\n          swap1\n          dup2\n          tag_105\n          swap2\n          swap1\n          tag_62\n          jump\t// in\n        tag_105:\n          pop\n          0xa0\n          dup3\n          add\n          mload\n          dup2\n          0x05\n          add\n          swap1\n          dup2\n          tag_106\n          swap2\n          swap1\n          tag_62\n          jump\t// in\n        tag_106:\n          pop\n          0xc0\n          dup3\n          add\n          mload\n          dup2\n          0x06\n          add\n          swap1\n          dup2\n          tag_107\n          swap2\n          swap1\n          tag_62\n          jump\t// in\n        tag_107:\n          pop\n          0xe0\n          dup3\n          add\n          mload\n          dup2\n          0x07\n          add\n          swap1\n          dup2\n          tag_108\n          swap2\n          swap1\n          tag_62\n          jump\t// in\n        tag_108:\n          pop\n          0x0100\n          dup3\n          add\n          mload\n          dup2\n          0x08\n          add\n          swap1\n          dup2\n          tag_109\n          swap2\n          swap1\n          tag_62\n          jump\t// in\n        tag_109:\n          pop\n          0x0120\n          dup3\n          add\n          mload\n          dup2\n          0x09\n          add\n          exp(0x0100, 0x00)\n          dup2\n          sload\n          dup2\n          0xff\n          mul\n          not\n          and\n          swap1\n          dup4\n          iszero\n          iszero\n          mul\n          or\n          swap1\n          sstore\n          pop\n          pop\n          pop\n            /* \"ElectronicMedicalRecords.sol\":6145:6164  patient_verificator */\n          0x07\n          0x00\n          swap1\n          sload\n          swap1\n          0x0100\n          exp\n          swap1\n          div\n          0xffffffffffffffffffffffffffffffffffffffff\n          and\n            /* \"ElectronicMedicalRecords.sol\":6145:6175  patient_verificator.addPatient */\n          0xffffffffffffffffffffffffffffffffffffffff\n          and\n          0x6d263ceb\n            /* \"ElectronicMedicalRecords.sol\":6176:6192  _identitasPasien */\n          dup6\n            /* \"ElectronicMedicalRecords.sol\":6176:6207  _identitasPasien.patientAddress */\n          0x00\n          add\n          mload\n            /* \"ElectronicMedicalRecords.sol\":6145:6208  patient_verificator.addPatient(_identitasPasien.patientAddress) */\n          mload(0x40)\n          dup3\n          0xffffffff\n          and\n          0xe0\n          shl\n          dup2\n          mstore\n          0x04\n          add\n          tag_110\n          swap2\n          swap1\n          tag_52\n          jump\t// in\n        tag_110:\n          0x00\n          mload(0x40)\n          dup1\n          dup4\n          sub\n          dup2\n          0x00\n          dup8\n          dup1\n          extcodesize\n          iszero\n          dup1\n          iszero\n          tag_111\n          jumpi\n          0x00\n          dup1\n          revert\n        tag_111:\n          pop\n          gas\n          call\n          iszero\n          dup1\n          iszero\n          tag_113\n          jumpi\n          returndatasize\n          0x00\n          dup1\n          returndatacopy\n          revert(0x00, returndatasize)\n        tag_113:\n          pop\n          pop\n          pop\n          pop\n            /* \"ElectronicMedicalRecords.sol\":6219:6234  doctor_relation */\n          0x08\n          0x00\n          swap1\n          sload\n          swap1\n          0x0100\n          exp\n          swap1\n          div\n          0xffffffffffffffffffffffffffffffffffffffff\n          and\n            /* \"ElectronicMedicalRecords.sol\":6219:6252  doctor_relation.addDoctorRelation */\n          0xffffffffffffffffffffffffffffffffffffffff\n          and\n          0x43a0e44a\n            /* \"ElectronicMedicalRecords.sol\":6253:6263  msg.sender */\n          caller\n            /* \"ElectronicMedicalRecords.sol\":6265:6281  _identitasPasien */\n          dup7\n            /* \"ElectronicMedicalRecords.sol\":6265:6294  _identitasPasien.nama_lengkap */\n          0x20\n          add\n          mload\n            /* \"ElectronicMedicalRecords.sol\":6296:6307  _rawatjalan */\n          dup7\n            /* \"ElectronicMedicalRecords.sol\":6296:6313  _rawatjalan.jenis */\n          0x20\n          add\n          mload\n            /* \"ElectronicMedicalRecords.sol\":6315:6331  _identitasPasien */\n          dup9\n            /* \"ElectronicMedicalRecords.sol\":6315:6346  _identitasPasien.patientAddress */\n          0x00\n          add\n          mload\n            /* \"ElectronicMedicalRecords.sol\":6219:6347  doctor_relation.addDoctorRelation(msg.sender, _identitasPasien.nama_lengkap, _rawatjalan.jenis, _identitasPasien.patientAddress) */\n          mload(0x40)\n          dup6\n          0xffffffff\n          and\n          0xe0\n          shl\n          dup2\n          mstore\n          0x04\n          add\n          tag_114\n          swap5\n          swap4\n          swap3\n          swap2\n          swap1\n          tag_83\n          jump\t// in\n        tag_114:\n          0x00\n          mload(0x40)\n          dup1\n          dup4\n          sub\n          dup2\n          0x00\n          dup8\n          dup1\n          extcodesize\n          iszero\n          dup1\n          iszero\n          tag_115\n          jumpi\n          0x00\n          dup1\n          revert\n        tag_115:\n          pop\n          gas\n          call\n          iszero\n          dup1\n          iszero\n          tag_117\n          jumpi\n          returndatasize\n          0x00\n          dup1\n          returndatacopy\n          revert(0x00, returndatasize)\n        tag_117:\n          pop\n          pop\n          pop\n          pop\n            /* \"ElectronicMedicalRecords.sol\":4994:6355  {... */\n          pop\n          pop\n            /* \"ElectronicMedicalRecords.sol\":4880:6355  function addOutPatient (IdentitasPasien memory _identitasPasien, RawatJalan memory _rawatjalan) onlyDoctor public {... */\n          pop\n          pop\n          jump\t// out\n            /* \"ElectronicMedicalRecords.sol\":4548:4716  function setPatientVerificatorAddress(address _PatientVerificatorAddress) public {... */\n        tag_27:\n            /* \"ElectronicMedicalRecords.sol\":4681:4707  _PatientVerificatorAddress */\n          dup1\n            /* \"ElectronicMedicalRecords.sol\":4640:4659  patient_verificator */\n          0x07\n          0x00\n            /* \"ElectronicMedicalRecords.sol\":4640:4708  patient_verificator = PatientVerificator(_PatientVerificatorAddress) */\n          0x0100\n          exp\n          dup2\n          sload\n          dup2\n          0xffffffffffffffffffffffffffffffffffffffff\n          mul\n          not\n          and\n          swap1\n          dup4\n          0xffffffffffffffffffffffffffffffffffffffff\n          and\n          mul\n          or\n          swap1\n          sstore\n          pop\n            /* \"ElectronicMedicalRecords.sol\":4548:4716  function setPatientVerificatorAddress(address _PatientVerificatorAddress) public {... */\n          pop\n          jump\t// out\n            /* \"ElectronicMedicalRecords.sol\":4724:4872  function setDoctorRelationAddress(address _DoctorRelationAddress) public {... */\n        tag_30:\n            /* \"ElectronicMedicalRecords.sol\":4841:4863  _DoctorRelationAddress */\n          dup1\n            /* \"ElectronicMedicalRecords.sol\":4808:4823  doctor_relation */\n          0x08\n          0x00\n            /* \"ElectronicMedicalRecords.sol\":4808:4864  doctor_relation = DoctorRelation(_DoctorRelationAddress) */\n          0x0100\n          exp\n          dup2\n          sload\n          dup2\n          0xffffffffffffffffffffffffffffffffffffffff\n          mul\n          not\n          and\n          swap1\n          dup4\n          0xffffffffffffffffffffffffffffffffffffffff\n          and\n          mul\n          or\n          swap1\n          sstore\n          pop\n            /* \"ElectronicMedicalRecords.sol\":4724:4872  function setDoctorRelationAddress(address _DoctorRelationAddress) public {... */\n          pop\n          jump\t// out\n            /* \"ElectronicMedicalRecords.sol\":7943:9662  function addEmergencyPatient(PengantarPasien memory _pengantar, GawatDarurat memory _gawatDarurat) onlyDoctor public {... */\n        tag_34:\n            /* \"ElectronicMedicalRecords.sol\":10278:10296  doctor_verificator */\n          0x06\n          0x00\n          swap1\n          sload\n          swap1\n          0x0100\n          exp\n          swap1\n          div\n          0xffffffffffffffffffffffffffffffffffffffff\n          and\n            /* \"ElectronicMedicalRecords.sol\":10278:10303  doctor_verificator.verify */\n          0xffffffffffffffffffffffffffffffffffffffff\n          and\n          0x63a9c3d7\n            /* \"ElectronicMedicalRecords.sol\":10304:10314  msg.sender */\n          caller\n            /* \"ElectronicMedicalRecords.sol\":10278:10315  doctor_verificator.verify(msg.sender) */\n          mload(0x40)\n          dup3\n          0xffffffff\n          and\n          0xe0\n          shl\n          dup2\n          mstore\n          0x04\n          add\n          tag_121\n          swap2\n          swap1\n          tag_52\n          jump\t// in\n        tag_121:\n          0x20\n          mload(0x40)\n          dup1\n          dup4\n          sub\n          dup2\n          dup7\n          gas\n          staticcall\n          iszero\n          dup1\n          iszero\n          tag_123\n          jumpi\n          returndatasize\n          0x00\n          dup1\n          returndatacopy\n          revert(0x00, returndatasize)\n        tag_123:\n          pop\n          pop\n          pop\n          pop\n          mload(0x40)\n          returndatasize\n          not(0x1f)\n          0x1f\n          dup3\n          add\n          and\n          dup3\n          add\n          dup1\n          0x40\n          mstore\n          pop\n          dup2\n          add\n          swap1\n          tag_124\n          swap2\n          swap1\n          tag_56\n          jump\t// in\n        tag_124:\n            /* \"ElectronicMedicalRecords.sol\":10270:10316  require(doctor_verificator.verify(msg.sender)) */\n          tag_125\n          jumpi\n          0x00\n          dup1\n          revert\n        tag_125:\n            /* \"ElectronicMedicalRecords.sol\":8071:8109  PengantarPasien memory pengantarPasien */\n          tag_127\n          tag_128\n          jump\t// in\n        tag_127:\n            /* \"ElectronicMedicalRecords.sol\":8142:8152  _pengantar */\n          dup3\n            /* \"ElectronicMedicalRecords.sol\":8142:8156  _pengantar.add */\n          0x00\n          add\n          mload\n            /* \"ElectronicMedicalRecords.sol\":8120:8135  pengantarPasien */\n          dup2\n            /* \"ElectronicMedicalRecords.sol\":8120:8139  pengantarPasien.add */\n          0x00\n          add\n            /* \"ElectronicMedicalRecords.sol\":8120:8156  pengantarPasien.add = _pengantar.add */\n          swap1\n          0xffffffffffffffffffffffffffffffffffffffff\n          and\n          swap1\n          dup2\n          0xffffffffffffffffffffffffffffffffffffffff\n          and\n          dup2\n          mstore\n          pop\n          pop\n            /* \"ElectronicMedicalRecords.sol\":8218:8228  _pengantar */\n          dup3\n            /* \"ElectronicMedicalRecords.sol\":8218:8245  _pengantar.pengantar_pasien */\n          0x20\n          add\n          mload\n            /* \"ElectronicMedicalRecords.sol\":8183:8198  pengantarPasien */\n          dup2\n            /* \"ElectronicMedicalRecords.sol\":8183:8215  pengantarPasien.pengantar_pasien */\n          0x20\n          add\n            /* \"ElectronicMedicalRecords.sol\":8183:8245  pengantarPasien.pengantar_pasien = _pengantar.pengantar_pasien */\n          dup2\n          swap1\n          mstore\n          pop\n            /* \"ElectronicMedicalRecords.sol\":8287:8297  _pengantar */\n          dup3\n            /* \"ElectronicMedicalRecords.sol\":8287:8310  _pengantar.nama_lengkap */\n          0x40\n          add\n          mload\n            /* \"ElectronicMedicalRecords.sol\":8256:8271  pengantarPasien */\n          dup2\n            /* \"ElectronicMedicalRecords.sol\":8256:8284  pengantarPasien.nama_lengkap */\n          0x40\n          add\n            /* \"ElectronicMedicalRecords.sol\":8256:8310  pengantarPasien.nama_lengkap = _pengantar.nama_lengkap */\n          dup2\n          swap1\n          mstore\n          pop\n            /* \"ElectronicMedicalRecords.sol\":8342:8352  _pengantar */\n          dup3\n            /* \"ElectronicMedicalRecords.sol\":8342:8355  _pengantar.hp */\n          0x60\n          add\n          mload\n            /* \"ElectronicMedicalRecords.sol\":8321:8336  pengantarPasien */\n          dup2\n            /* \"ElectronicMedicalRecords.sol\":8321:8339  pengantarPasien.hp */\n          0x60\n          add\n            /* \"ElectronicMedicalRecords.sol\":8321:8355  pengantarPasien.hp = _pengantar.hp */\n          dup2\n          dup2\n          mstore\n          pop\n          pop\n            /* \"ElectronicMedicalRecords.sol\":8393:8403  _pengantar */\n          dup3\n            /* \"ElectronicMedicalRecords.sol\":8393:8412  _pengantar.hubungan */\n          0x80\n          add\n          mload\n            /* \"ElectronicMedicalRecords.sol\":8366:8381  pengantarPasien */\n          dup2\n            /* \"ElectronicMedicalRecords.sol\":8366:8390  pengantarPasien.hubungan */\n          0x80\n          add\n            /* \"ElectronicMedicalRecords.sol\":8366:8412  pengantarPasien.hubungan = _pengantar.hubungan */\n          dup2\n          swap1\n          mstore\n          pop\n            /* \"ElectronicMedicalRecords.sol\":8475:8490  pengantarPasien */\n          dup1\n            /* \"ElectronicMedicalRecords.sol\":8425:8441  pengantar_pasien */\n          0x01\n            /* \"ElectronicMedicalRecords.sol\":8425:8472  pengantar_pasien[_gawatDarurat.patient_address] */\n          0x00\n            /* \"ElectronicMedicalRecords.sol\":8442:8455  _gawatDarurat */\n          dup5\n            /* \"ElectronicMedicalRecords.sol\":8442:8471  _gawatDarurat.patient_address */\n          0x00\n          add\n          mload\n            /* \"ElectronicMedicalRecords.sol\":8425:8472  pengantar_pasien[_gawatDarurat.patient_address] */\n          0xffffffffffffffffffffffffffffffffffffffff\n          and\n          0xffffffffffffffffffffffffffffffffffffffff\n          and\n          dup2\n          mstore\n          0x20\n          add\n          swap1\n          dup2\n          mstore\n          0x20\n          add\n          0x00\n          keccak256\n            /* \"ElectronicMedicalRecords.sol\":8425:8490  pengantar_pasien[_gawatDarurat.patient_address] = pengantarPasien */\n          0x00\n          dup3\n          add\n          mload\n          dup2\n          0x00\n          add\n          exp(0x0100, 0x00)\n          dup2\n          sload\n          dup2\n          0xffffffffffffffffffffffffffffffffffffffff\n          mul\n          not\n          and\n          swap1\n          dup4\n          0xffffffffffffffffffffffffffffffffffffffff\n          and\n          mul\n          or\n          swap1\n          sstore\n          pop\n          0x20\n          dup3\n          add\n          mload\n          dup2\n          0x01\n          add\n          swap1\n          dup2\n          tag_129\n          swap2\n          swap1\n          tag_62\n          jump\t// in\n        tag_129:\n          pop\n          0x40\n          dup3\n          add\n          mload\n          dup2\n          0x02\n          add\n          swap1\n          dup2\n          tag_130\n          swap2\n          swap1\n          tag_62\n          jump\t// in\n        tag_130:\n          pop\n          0x60\n          dup3\n          add\n          mload\n          dup2\n          0x03\n          add\n          sstore\n          0x80\n          dup3\n          add\n          mload\n          dup2\n          0x04\n          add\n          swap1\n          dup2\n          tag_131\n          swap2\n          swap1\n          tag_62\n          jump\t// in\n        tag_131:\n          pop\n          swap1\n          pop\n          pop\n            /* \"ElectronicMedicalRecords.sol\":8503:8535  GawatDarurat memory gawatDarurat */\n          tag_132\n          tag_133\n          jump\t// in\n        tag_132:\n            /* \"ElectronicMedicalRecords.sol\":8577:8590  _gawatDarurat */\n          dup3\n            /* \"ElectronicMedicalRecords.sol\":8577:8606  _gawatDarurat.patient_address */\n          0x00\n          add\n          mload\n            /* \"ElectronicMedicalRecords.sol\":8546:8558  gawatDarurat */\n          dup2\n            /* \"ElectronicMedicalRecords.sol\":8546:8574  gawatDarurat.patient_address */\n          0x00\n          add\n            /* \"ElectronicMedicalRecords.sol\":8546:8606  gawatDarurat.patient_address = _gawatDarurat.patient_address */\n          swap1\n          0xffffffffffffffffffffffffffffffffffffffff\n          and\n          swap1\n          dup2\n          0xffffffffffffffffffffffffffffffffffffffff\n          and\n          dup2\n          mstore\n          pop\n          pop\n            /* \"ElectronicMedicalRecords.sol\":8638:8651  _gawatDarurat */\n          dup3\n            /* \"ElectronicMedicalRecords.sol\":8638:8657  _gawatDarurat.jenis */\n          0x20\n          add\n          mload\n            /* \"ElectronicMedicalRecords.sol\":8617:8629  gawatDarurat */\n          dup2\n            /* \"ElectronicMedicalRecords.sol\":8617:8635  gawatDarurat.jenis */\n          0x20\n          add\n            /* \"ElectronicMedicalRecords.sol\":8617:8657  gawatDarurat.jenis = _gawatDarurat.jenis */\n          dup2\n          swap1\n          mstore\n          pop\n            /* \"ElectronicMedicalRecords.sol\":8696:8709  _gawatDarurat */\n          dup3\n            /* \"ElectronicMedicalRecords.sol\":8696:8722  _gawatDarurat.nama_lengkap */\n          0x40\n          add\n          mload\n            /* \"ElectronicMedicalRecords.sol\":8668:8680  gawatDarurat */\n          dup2\n            /* \"ElectronicMedicalRecords.sol\":8668:8693  gawatDarurat.nama_lengkap */\n          0x40\n          add\n            /* \"ElectronicMedicalRecords.sol\":8668:8722  gawatDarurat.nama_lengkap = _gawatDarurat.nama_lengkap */\n          dup2\n          swap1\n          mstore\n          pop\n            /* \"ElectronicMedicalRecords.sol\":8755:8768  _gawatDarurat */\n          dup3\n            /* \"ElectronicMedicalRecords.sol\":8755:8775  _gawatDarurat.gender */\n          0x60\n          add\n          mload\n            /* \"ElectronicMedicalRecords.sol\":8733:8745  gawatDarurat */\n          dup2\n            /* \"ElectronicMedicalRecords.sol\":8733:8752  gawatDarurat.gender */\n          0x60\n          add\n            /* \"ElectronicMedicalRecords.sol\":8733:8775  gawatDarurat.gender = _gawatDarurat.gender */\n          dup2\n          swap1\n          mstore\n          pop\n            /* \"ElectronicMedicalRecords.sol\":8809:8822  _gawatDarurat */\n          dup3\n            /* \"ElectronicMedicalRecords.sol\":8809:8830  _gawatDarurat.kondisi */\n          0x80\n          add\n          mload\n            /* \"ElectronicMedicalRecords.sol\":8786:8798  gawatDarurat */\n          dup2\n            /* \"ElectronicMedicalRecords.sol\":8786:8806  gawatDarurat.kondisi */\n          0x80\n          add\n            /* \"ElectronicMedicalRecords.sol\":8786:8830  gawatDarurat.kondisi = _gawatDarurat.kondisi */\n          dup2\n          swap1\n          mstore\n          pop\n            /* \"ElectronicMedicalRecords.sol\":8870:8883  _gawatDarurat */\n          dup3\n            /* \"ElectronicMedicalRecords.sol\":8870:8897  _gawatDarurat.date_and_time */\n          0xa0\n          add\n          mload\n            /* \"ElectronicMedicalRecords.sol\":8841:8853  gawatDarurat */\n          dup2\n            /* \"ElectronicMedicalRecords.sol\":8841:8867  gawatDarurat.date_and_time */\n          0xa0\n          add\n            /* \"ElectronicMedicalRecords.sol\":8841:8897  gawatDarurat.date_and_time = _gawatDarurat.date_and_time */\n          dup2\n          swap1\n          mstore\n          pop\n            /* \"ElectronicMedicalRecords.sol\":8933:8946  _gawatDarurat */\n          dup3\n            /* \"ElectronicMedicalRecords.sol\":8933:8956  _gawatDarurat.anamnesis */\n          0xc0\n          add\n          mload\n            /* \"ElectronicMedicalRecords.sol\":8908:8920  gawatDarurat */\n          dup2\n            /* \"ElectronicMedicalRecords.sol\":8908:8930  gawatDarurat.anamnesis */\n          0xc0\n          add\n            /* \"ElectronicMedicalRecords.sol\":8908:8956  gawatDarurat.anamnesis = _gawatDarurat.anamnesis */\n          dup2\n          swap1\n          mstore\n          pop\n            /* \"ElectronicMedicalRecords.sol\":8988:9001  _gawatDarurat */\n          dup3\n            /* \"ElectronicMedicalRecords.sol\":8988:9007  _gawatDarurat.fisik */\n          0xe0\n          add\n          mload\n            /* \"ElectronicMedicalRecords.sol\":8967:8979  gawatDarurat */\n          dup2\n            /* \"ElectronicMedicalRecords.sol\":8967:8985  gawatDarurat.fisik */\n          0xe0\n          add\n            /* \"ElectronicMedicalRecords.sol\":8967:9007  gawatDarurat.fisik = _gawatDarurat.fisik */\n          dup2\n          swap1\n          mstore\n          pop\n            /* \"ElectronicMedicalRecords.sol\":9043:9056  _gawatDarurat */\n          dup3\n            /* \"ElectronicMedicalRecords.sol\":9043:9066  _gawatDarurat.diagnosis */\n          0x0100\n          add\n          mload\n            /* \"ElectronicMedicalRecords.sol\":9018:9030  gawatDarurat */\n          dup2\n            /* \"ElectronicMedicalRecords.sol\":9018:9040  gawatDarurat.diagnosis */\n          0x0100\n          add\n            /* \"ElectronicMedicalRecords.sol\":9018:9066  gawatDarurat.diagnosis = _gawatDarurat.diagnosis */\n          dup2\n          swap1\n          mstore\n          pop\n            /* \"ElectronicMedicalRecords.sol\":9114:9127  _gawatDarurat */\n          dup3\n            /* \"ElectronicMedicalRecords.sol\":9114:9149  _gawatDarurat.pengobatanDanTindakan */\n          0x0120\n          add\n          mload\n            /* \"ElectronicMedicalRecords.sol\":9077:9089  gawatDarurat */\n          dup2\n            /* \"ElectronicMedicalRecords.sol\":9077:9111  gawatDarurat.pengobatanDanTindakan */\n          0x0120\n          add\n            /* \"ElectronicMedicalRecords.sol\":9077:9149  gawatDarurat.pengobatanDanTindakan = _gawatDarurat.pengobatanDanTindakan */\n          dup2\n          swap1\n          mstore\n          pop\n            /* \"ElectronicMedicalRecords.sol\":9178:9191  _gawatDarurat */\n          dup3\n            /* \"ElectronicMedicalRecords.sol\":9178:9194  _gawatDarurat.lc */\n          0x0140\n          add\n          mload\n            /* \"ElectronicMedicalRecords.sol\":9160:9172  gawatDarurat */\n          dup2\n            /* \"ElectronicMedicalRecords.sol\":9160:9175  gawatDarurat.lc */\n          0x0140\n          add\n            /* \"ElectronicMedicalRecords.sol\":9160:9194  gawatDarurat.lc = _gawatDarurat.lc */\n          dup2\n          swap1\n          mstore\n          pop\n            /* \"ElectronicMedicalRecords.sol\":9227:9240  _gawatDarurat */\n          dup3\n            /* \"ElectronicMedicalRecords.sol\":9227:9247  _gawatDarurat.doctor */\n          0x0160\n          add\n          mload\n            /* \"ElectronicMedicalRecords.sol\":9205:9217  gawatDarurat */\n          dup2\n            /* \"ElectronicMedicalRecords.sol\":9205:9224  gawatDarurat.doctor */\n          0x0160\n          add\n            /* \"ElectronicMedicalRecords.sol\":9205:9247  gawatDarurat.doctor = _gawatDarurat.doctor */\n          swap1\n          0xffffffffffffffffffffffffffffffffffffffff\n          and\n          swap1\n          dup2\n          0xffffffffffffffffffffffffffffffffffffffff\n          and\n          dup2\n          mstore\n          pop\n          pop\n            /* \"ElectronicMedicalRecords.sol\":9283:9296  _gawatDarurat */\n          dup3\n            /* \"ElectronicMedicalRecords.sol\":9283:9306  _gawatDarurat.transport */\n          0x0180\n          add\n          mload\n            /* \"ElectronicMedicalRecords.sol\":9258:9270  gawatDarurat */\n          dup2\n            /* \"ElectronicMedicalRecords.sol\":9258:9280  gawatDarurat.transport */\n          0x0180\n          add\n            /* \"ElectronicMedicalRecords.sol\":9258:9306  gawatDarurat.transport = _gawatDarurat.transport */\n          dup2\n          swap1\n          mstore\n          pop\n            /* \"ElectronicMedicalRecords.sol\":9342:9355  _gawatDarurat */\n          dup3\n            /* \"ElectronicMedicalRecords.sol\":9342:9365  _gawatDarurat.pelayanan */\n          0x01a0\n          add\n          mload\n            /* \"ElectronicMedicalRecords.sol\":9317:9329  gawatDarurat */\n          dup2\n            /* \"ElectronicMedicalRecords.sol\":9317:9339  gawatDarurat.pelayanan */\n          0x01a0\n          add\n            /* \"ElectronicMedicalRecords.sol\":9317:9365  gawatDarurat.pelayanan = _gawatDarurat.pelayanan */\n          dup2\n          swap1\n          mstore\n          pop\n            /* \"ElectronicMedicalRecords.sol\":9378:9394  emergencyPatient */\n          0x04\n            /* \"ElectronicMedicalRecords.sol\":9378:9425  emergencyPatient[_gawatDarurat.patient_address] */\n          0x00\n            /* \"ElectronicMedicalRecords.sol\":9395:9408  _gawatDarurat */\n          dup5\n            /* \"ElectronicMedicalRecords.sol\":9395:9424  _gawatDarurat.patient_address */\n          0x00\n          add\n          mload\n            /* \"ElectronicMedicalRecords.sol\":9378:9425  emergencyPatient[_gawatDarurat.patient_address] */\n          0xffffffffffffffffffffffffffffffffffffffff\n          and\n          0xffffffffffffffffffffffffffffffffffffffff\n          and\n          dup2\n          mstore\n          0x20\n          add\n          swap1\n          dup2\n          mstore\n          0x20\n          add\n          0x00\n          keccak256\n            /* \"ElectronicMedicalRecords.sol\":9431:9443  gawatDarurat */\n          dup2\n            /* \"ElectronicMedicalRecords.sol\":9378:9444  emergencyPatient[_gawatDarurat.patient_address].push(gawatDarurat) */\n          swap1\n          dup1\n          0x01\n          dup2\n          sload\n          add\n          dup1\n          dup3\n          sstore\n          dup1\n          swap2\n          pop\n          pop\n          0x01\n          swap1\n          sub\n          swap1\n          0x00\n          mstore\n          keccak256(0x00, 0x20)\n          swap1\n          0x0e\n          mul\n          add\n          0x00\n          swap1\n          swap2\n          swap1\n          swap2\n          swap1\n          swap2\n          pop\n          0x00\n          dup3\n          add\n          mload\n          dup2\n          0x00\n          add\n          exp(0x0100, 0x00)\n          dup2\n          sload\n          dup2\n          0xffffffffffffffffffffffffffffffffffffffff\n          mul\n          not\n          and\n          swap1\n          dup4\n          0xffffffffffffffffffffffffffffffffffffffff\n          and\n          mul\n          or\n          swap1\n          sstore\n          pop\n          0x20\n          dup3\n          add\n          mload\n          dup2\n          0x01\n          add\n          swap1\n          dup2\n          tag_135\n          swap2\n          swap1\n          tag_62\n          jump\t// in\n        tag_135:\n          pop\n          0x40\n          dup3\n          add\n          mload\n          dup2\n          0x02\n          add\n          swap1\n          dup2\n          tag_136\n          swap2\n          swap1\n          tag_62\n          jump\t// in\n        tag_136:\n          pop\n          0x60\n          dup3\n          add\n          mload\n          dup2\n          0x03\n          add\n          swap1\n          dup2\n          tag_137\n          swap2\n          swap1\n          tag_62\n          jump\t// in\n        tag_137:\n          pop\n          0x80\n          dup3\n          add\n          mload\n          dup2\n          0x04\n          add\n          swap1\n          dup2\n          tag_138\n          swap2\n          swap1\n          tag_62\n          jump\t// in\n        tag_138:\n          pop\n          0xa0\n          dup3\n          add\n          mload\n          dup2\n          0x05\n          add\n          swap1\n          dup2\n          tag_139\n          swap2\n          swap1\n          tag_62\n          jump\t// in\n        tag_139:\n          pop\n          0xc0\n          dup3\n          add\n          mload\n          dup2\n          0x06\n          add\n          swap1\n          dup2\n          tag_140\n          swap2\n          swap1\n          tag_62\n          jump\t// in\n        tag_140:\n          pop\n          0xe0\n          dup3\n          add\n          mload\n          dup2\n          0x07\n          add\n          swap1\n          dup2\n          tag_141\n          swap2\n          swap1\n          tag_62\n          jump\t// in\n        tag_141:\n          pop\n          0x0100\n          dup3\n          add\n          mload\n          dup2\n          0x08\n          add\n          swap1\n          dup2\n          tag_142\n          swap2\n          swap1\n          tag_62\n          jump\t// in\n        tag_142:\n          pop\n          0x0120\n          dup3\n          add\n          mload\n          dup2\n          0x09\n          add\n          swap1\n          dup2\n          tag_143\n          swap2\n          swap1\n          tag_62\n          jump\t// in\n        tag_143:\n          pop\n          0x0140\n          dup3\n          add\n          mload\n          dup2\n          0x0a\n          add\n          swap1\n          dup2\n          tag_144\n          swap2\n          swap1\n          tag_62\n          jump\t// in\n        tag_144:\n          pop\n          0x0160\n          dup3\n          add\n          mload\n          dup2\n          0x0b\n          add\n          exp(0x0100, 0x00)\n          dup2\n          sload\n          dup2\n          0xffffffffffffffffffffffffffffffffffffffff\n          mul\n          not\n          and\n          swap1\n          dup4\n          0xffffffffffffffffffffffffffffffffffffffff\n          and\n          mul\n          or\n          swap1\n          sstore\n          pop\n          0x0180\n          dup3\n          add\n          mload\n          dup2\n          0x0c\n          add\n          swap1\n          dup2\n          tag_145\n          swap2\n          swap1\n          tag_62\n          jump\t// in\n        tag_145:\n          pop\n          0x01a0\n          dup3\n          add\n          mload\n          dup2\n          0x0d\n          add\n          swap1\n          dup2\n          tag_146\n          swap2\n          swap1\n          tag_62\n          jump\t// in\n        tag_146:\n          pop\n          pop\n          pop\n            /* \"ElectronicMedicalRecords.sol\":9457:9476  patient_verificator */\n          0x07\n          0x00\n          swap1\n          sload\n          swap1\n          0x0100\n          exp\n          swap1\n          div\n          0xffffffffffffffffffffffffffffffffffffffff\n          and\n            /* \"ElectronicMedicalRecords.sol\":9457:9487  patient_verificator.addPatient */\n          0xffffffffffffffffffffffffffffffffffffffff\n          and\n          0x6d263ceb\n            /* \"ElectronicMedicalRecords.sol\":9488:9501  _gawatDarurat */\n          dup5\n            /* \"ElectronicMedicalRecords.sol\":9488:9517  _gawatDarurat.patient_address */\n          0x00\n          add\n          mload\n            /* \"ElectronicMedicalRecords.sol\":9457:9518  patient_verificator.addPatient(_gawatDarurat.patient_address) */\n          mload(0x40)\n          dup3\n          0xffffffff\n          and\n          0xe0\n          shl\n          dup2\n          mstore\n          0x04\n          add\n          tag_147\n          swap2\n          swap1\n          tag_52\n          jump\t// in\n        tag_147:\n          0x00\n          mload(0x40)\n          dup1\n          dup4\n          sub\n          dup2\n          0x00\n          dup8\n          dup1\n          extcodesize\n          iszero\n          dup1\n          iszero\n          tag_148\n          jumpi\n          0x00\n          dup1\n          revert\n        tag_148:\n          pop\n          gas\n          call\n          iszero\n          dup1\n          iszero\n          tag_150\n          jumpi\n          returndatasize\n          0x00\n          dup1\n          returndatacopy\n          revert(0x00, returndatasize)\n        tag_150:\n          pop\n          pop\n          pop\n          pop\n            /* \"ElectronicMedicalRecords.sol\":9529:9544  doctor_relation */\n          0x08\n          0x00\n          swap1\n          sload\n          swap1\n          0x0100\n          exp\n          swap1\n          div\n          0xffffffffffffffffffffffffffffffffffffffff\n          and\n            /* \"ElectronicMedicalRecords.sol\":9529:9562  doctor_relation.addDoctorRelation */\n          0xffffffffffffffffffffffffffffffffffffffff\n          and\n          0x43a0e44a\n            /* \"ElectronicMedicalRecords.sol\":9563:9573  msg.sender */\n          caller\n            /* \"ElectronicMedicalRecords.sol\":9575:9588  _gawatDarurat */\n          dup6\n            /* \"ElectronicMedicalRecords.sol\":9575:9601  _gawatDarurat.nama_lengkap */\n          0x40\n          add\n          mload\n            /* \"ElectronicMedicalRecords.sol\":9603:9616  _gawatDarurat */\n          dup7\n            /* \"ElectronicMedicalRecords.sol\":9603:9622  _gawatDarurat.jenis */\n          0x20\n          add\n          mload\n            /* \"ElectronicMedicalRecords.sol\":9624:9637  _gawatDarurat */\n          dup8\n            /* \"ElectronicMedicalRecords.sol\":9624:9653  _gawatDarurat.patient_address */\n          0x00\n          add\n          mload\n            /* \"ElectronicMedicalRecords.sol\":9529:9654  doctor_relation.addDoctorRelation(msg.sender, _gawatDarurat.nama_lengkap, _gawatDarurat.jenis, _gawatDarurat.patient_address) */\n          mload(0x40)\n          dup6\n          0xffffffff\n          and\n          0xe0\n          shl\n          dup2\n          mstore\n          0x04\n          add\n          tag_151\n          swap5\n          swap4\n          swap3\n          swap2\n          swap1\n          tag_83\n          jump\t// in\n        tag_151:\n          0x00\n          mload(0x40)\n          dup1\n          dup4\n          sub\n          dup2\n          0x00\n          dup8\n          dup1\n          extcodesize\n          iszero\n          dup1\n          iszero\n          tag_152\n          jumpi\n          0x00\n          dup1\n          revert\n        tag_152:\n          pop\n          gas\n          call\n          iszero\n          dup1\n          iszero\n          tag_154\n          jumpi\n          returndatasize\n          0x00\n          dup1\n          returndatacopy\n          revert(0x00, returndatasize)\n        tag_154:\n          pop\n          pop\n          pop\n          pop\n            /* \"ElectronicMedicalRecords.sol\":8060:9662  {... */\n          pop\n          pop\n            /* \"ElectronicMedicalRecords.sol\":7943:9662  function addEmergencyPatient(PengantarPasien memory _pengantar, GawatDarurat memory _gawatDarurat) onlyDoctor public {... */\n          pop\n          pop\n          jump\t// out\n            /* \"ElectronicMedicalRecords.sol\":9670:9845  function getOutPatient(address add) onlyDoctor public view returns(IdentitasPasien memory a, RawatJalan[] memory b) {... */\n        tag_37:\n            /* \"ElectronicMedicalRecords.sol\":9737:9761  IdentitasPasien memory a */\n          tag_155\n          tag_60\n          jump\t// in\n        tag_155:\n            /* \"ElectronicMedicalRecords.sol\":9763:9784  RawatJalan[] memory b */\n          0x60\n            /* \"ElectronicMedicalRecords.sol\":10278:10296  doctor_verificator */\n          0x06\n          0x00\n          swap1\n          sload\n          swap1\n          0x0100\n          exp\n          swap1\n          div\n          0xffffffffffffffffffffffffffffffffffffffff\n          and\n            /* \"ElectronicMedicalRecords.sol\":10278:10303  doctor_verificator.verify */\n          0xffffffffffffffffffffffffffffffffffffffff\n          and\n          0x63a9c3d7\n            /* \"ElectronicMedicalRecords.sol\":10304:10314  msg.sender */\n          caller\n            /* \"ElectronicMedicalRecords.sol\":10278:10315  doctor_verificator.verify(msg.sender) */\n          mload(0x40)\n          dup3\n          0xffffffff\n          and\n          0xe0\n          shl\n          dup2\n          mstore\n          0x04\n          add\n          tag_157\n          swap2\n          swap1\n          tag_52\n          jump\t// in\n        tag_157:\n          0x20\n          mload(0x40)\n          dup1\n          dup4\n          sub\n          dup2\n          dup7\n          gas\n          staticcall\n          iszero\n          dup1\n          iszero\n          tag_159\n          jumpi\n          returndatasize\n          0x00\n          dup1\n          returndatacopy\n          revert(0x00, returndatasize)\n        tag_159:\n          pop\n          pop\n          pop\n          pop\n          mload(0x40)\n          returndatasize\n          not(0x1f)\n          0x1f\n          dup3\n          add\n          and\n          dup3\n          add\n          dup1\n          0x40\n          mstore\n          pop\n          dup2\n          add\n          swap1\n          tag_160\n          swap2\n          swap1\n          tag_56\n          jump\t// in\n        tag_160:\n            /* \"ElectronicMedicalRecords.sol\":10270:10316  require(doctor_verificator.verify(msg.sender)) */\n          tag_161\n          jumpi\n          0x00\n          dup1\n          revert\n        tag_161:\n            /* \"ElectronicMedicalRecords.sol\":9805:9814  patientId */\n          0x00\n            /* \"ElectronicMedicalRecords.sol\":9805:9819  patientId[add] */\n          dup1\n            /* \"ElectronicMedicalRecords.sol\":9815:9818  add */\n          dup5\n            /* \"ElectronicMedicalRecords.sol\":9805:9819  patientId[add] */\n          0xffffffffffffffffffffffffffffffffffffffff\n          and\n          0xffffffffffffffffffffffffffffffffffffffff\n          and\n          dup2\n          mstore\n          0x20\n          add\n          swap1\n          dup2\n          mstore\n          0x20\n          add\n          0x00\n          keccak256\n            /* \"ElectronicMedicalRecords.sol\":9821:9831  outPatient */\n          0x02\n            /* \"ElectronicMedicalRecords.sol\":9821:9836  outPatient[add] */\n          0x00\n            /* \"ElectronicMedicalRecords.sol\":9832:9835  add */\n          dup6\n            /* \"ElectronicMedicalRecords.sol\":9821:9836  outPatient[add] */\n          0xffffffffffffffffffffffffffffffffffffffff\n          and\n          0xffffffffffffffffffffffffffffffffffffffff\n          and\n          dup2\n          mstore\n          0x20\n          add\n          swap1\n          dup2\n          mstore\n          0x20\n          add\n          0x00\n          keccak256\n            /* \"ElectronicMedicalRecords.sol\":9797:9837  return (patientId[add], outPatient[add]) */\n          dup2\n          mload(0x40)\n          dup1\n          0xa0\n          add\n          0x40\n          mstore\n          swap1\n          dup2\n          0x00\n          dup3\n          add\n          0x00\n          swap1\n          sload\n          swap1\n          0x0100\n          exp\n          swap1\n          div\n          0xffffffffffffffffffffffffffffffffffffffff\n          and\n          0xffffffffffffffffffffffffffffffffffffffff\n          and\n          0xffffffffffffffffffffffffffffffffffffffff\n          and\n          dup2\n          mstore\n          0x20\n          add\n          0x01\n          dup3\n          add\n          dup1\n          sload\n          tag_163\n          swap1\n          tag_164\n          jump\t// in\n        tag_163:\n          dup1\n          0x1f\n          add\n          0x20\n          dup1\n          swap2\n          div\n          mul\n          0x20\n          add\n          mload(0x40)\n          swap1\n          dup2\n          add\n          0x40\n          mstore\n          dup1\n          swap3\n          swap2\n          swap1\n          dup2\n          dup2\n          mstore\n          0x20\n          add\n          dup3\n          dup1\n          sload\n          tag_165\n          swap1\n          tag_164\n          jump\t// in\n        tag_165:\n          dup1\n          iszero\n          tag_166\n          jumpi\n          dup1\n          0x1f\n          lt\n          tag_167\n          jumpi\n          0x0100\n          dup1\n          dup4\n          sload\n          div\n          mul\n          dup4\n          mstore\n          swap2\n          0x20\n          add\n          swap2\n          jump(tag_166)\n        tag_167:\n          dup3\n          add\n          swap2\n          swap1\n          0x00\n          mstore\n          keccak256(0x00, 0x20)\n          swap1\n        tag_168:\n          dup2\n          sload\n          dup2\n          mstore\n          swap1\n          0x01\n          add\n          swap1\n          0x20\n          add\n          dup1\n          dup4\n          gt\n          tag_168\n          jumpi\n          dup3\n          swap1\n          sub\n          0x1f\n          and\n          dup3\n          add\n          swap2\n        tag_166:\n          pop\n          pop\n          pop\n          pop\n          pop\n          dup2\n          mstore\n          0x20\n          add\n          0x02\n          dup3\n          add\n          sload\n          dup2\n          mstore\n          0x20\n          add\n          0x03\n          dup3\n          add\n          dup1\n          sload\n          tag_169\n          swap1\n          tag_164\n          jump\t// in\n        tag_169:\n          dup1\n          0x1f\n          add\n          0x20\n          dup1\n          swap2\n          div\n          mul\n          0x20\n          add\n          mload(0x40)\n          swap1\n          dup2\n          add\n          0x40\n          mstore\n          dup1\n          swap3\n          swap2\n          swap1\n          dup2\n          dup2\n          mstore\n          0x20\n          add\n          dup3\n          dup1\n          sload\n          tag_170\n          swap1\n          tag_164\n          jump\t// in\n        tag_170:\n          dup1\n          iszero\n          tag_171\n          jumpi\n          dup1\n          0x1f\n          lt\n          tag_172\n          jumpi\n          0x0100\n          dup1\n          dup4\n          sload\n          div\n          mul\n          dup4\n          mstore\n          swap2\n          0x20\n          add\n          swap2\n          jump(tag_171)\n        tag_172:\n          dup3\n          add\n          swap2\n          swap1\n          0x00\n          mstore\n          keccak256(0x00, 0x20)\n          swap1\n        tag_173:\n          dup2\n          sload\n          dup2\n          mstore\n          swap1\n          0x01\n          add\n          swap1\n          0x20\n          add\n          dup1\n          dup4\n          gt\n          tag_173\n          jumpi\n          dup3\n          swap1\n          sub\n          0x1f\n          and\n          dup3\n          add\n          swap2\n        tag_171:\n          pop\n          pop\n          pop\n          pop\n          pop\n          dup2\n          mstore\n          0x20\n          add\n          0x04\n          dup3\n          add\n          dup1\n          sload\n          tag_174\n          swap1\n          tag_164\n          jump\t// in\n        tag_174:\n          dup1\n          0x1f\n          add\n          0x20\n          dup1\n          swap2\n          div\n          mul\n          0x20\n          add\n          mload(0x40)\n          swap1\n          dup2\n          add\n          0x40\n          mstore\n          dup1\n          swap3\n          swap2\n          swap1\n          dup2\n          dup2\n          mstore\n          0x20\n          add\n          dup3\n          dup1\n          sload\n          tag_175\n          swap1\n          tag_164\n          jump\t// in\n        tag_175:\n          dup1\n          iszero\n          tag_176\n          jumpi\n          dup1\n          0x1f\n          lt\n          tag_177\n          jumpi\n          0x0100\n          dup1\n          dup4\n          sload\n          div\n          mul\n          dup4\n          mstore\n          swap2\n          0x20\n          add\n          swap2\n          jump(tag_176)\n        tag_177:\n          dup3\n          add\n          swap2\n          swap1\n          0x00\n          mstore\n          keccak256(0x00, 0x20)\n          swap1\n        tag_178:\n          dup2\n          sload\n          dup2\n          mstore\n          swap1\n          0x01\n          add\n          swap1\n          0x20\n          add\n          dup1\n          dup4\n          gt\n          tag_178\n          jumpi\n          dup3\n          swap1\n          sub\n          0x1f\n          and\n          dup3\n          add\n          swap2\n        tag_176:\n          pop\n          pop\n          pop\n          pop\n          pop\n          dup2\n          mstore\n          pop\n          pop\n          swap2\n          pop\n          dup1\n          dup1\n          sload\n          dup1\n          0x20\n          mul\n          0x20\n          add\n          mload(0x40)\n          swap1\n          dup2\n          add\n          0x40\n          mstore\n          dup1\n          swap3\n          swap2\n          swap1\n          dup2\n          dup2\n          mstore\n          0x20\n          add\n          0x00\n          swap1\n        tag_179:\n          dup3\n          dup3\n          lt\n          iszero\n          tag_180\n          jumpi\n          dup4\n          dup3\n          swap1\n          0x00\n          mstore\n          keccak256(0x00, 0x20)\n          swap1\n          0x0a\n          mul\n          add\n          mload(0x40)\n          dup1\n          0x0140\n          add\n          0x40\n          mstore\n          swap1\n          dup2\n          0x00\n          dup3\n          add\n          0x00\n          swap1\n          sload\n          swap1\n          0x0100\n          exp\n          swap1\n          div\n          0xffffffffffffffffffffffffffffffffffffffff\n          and\n          0xffffffffffffffffffffffffffffffffffffffff\n          and\n          0xffffffffffffffffffffffffffffffffffffffff\n          and\n          dup2\n          mstore\n          0x20\n          add\n          0x01\n          dup3\n          add\n          dup1\n          sload\n          tag_182\n          swap1\n          tag_164\n          jump\t// in\n        tag_182:\n          dup1\n          0x1f\n          add\n          0x20\n          dup1\n          swap2\n          div\n          mul\n          0x20\n          add\n          mload(0x40)\n          swap1\n          dup2\n          add\n          0x40\n          mstore\n          dup1\n          swap3\n          swap2\n          swap1\n          dup2\n          dup2\n          mstore\n          0x20\n          add\n          dup3\n          dup1\n          sload\n          tag_183\n          swap1\n          tag_164\n          jump\t// in\n        tag_183:\n          dup1\n          iszero\n          tag_184\n          jumpi\n          dup1\n          0x1f\n          lt\n          tag_185\n          jumpi\n          0x0100\n          dup1\n          dup4\n          sload\n          div\n          mul\n          dup4\n          mstore\n          swap2\n          0x20\n          add\n          swap2\n          jump(tag_184)\n        tag_185:\n          dup3\n          add\n          swap2\n          swap1\n          0x00\n          mstore\n          keccak256(0x00, 0x20)\n          swap1\n        tag_186:\n          dup2\n          sload\n          dup2\n          mstore\n          swap1\n          0x01\n          add\n          swap1\n          0x20\n          add\n          dup1\n          dup4\n          gt\n          tag_186\n          jumpi\n          dup3\n          swap1\n          sub\n          0x1f\n          and\n          dup3\n          add\n          swap2\n        tag_184:\n          pop\n          pop\n          pop\n          pop\n          pop\n          dup2\n          mstore\n          0x20\n          add\n          0x02\n          dup3\n          add\n          dup1\n          sload\n          tag_187\n          swap1\n          tag_164\n          jump\t// in\n        tag_187:\n          dup1\n          0x1f\n          add\n          0x20\n          dup1\n          swap2\n          div\n          mul\n          0x20\n          add\n          mload(0x40)\n          swap1\n          dup2\n          add\n          0x40\n          mstore\n          dup1\n          swap3\n          swap2\n          swap1\n          dup2\n          dup2\n          mstore\n          0x20\n          add\n          dup3\n          dup1\n          sload\n          tag_188\n          swap1\n          tag_164\n          jump\t// in\n        tag_188:\n          dup1\n          iszero\n          tag_189\n          jumpi\n          dup1\n          0x1f\n          lt\n          tag_190\n          jumpi\n          0x0100\n          dup1\n          dup4\n          sload\n          div\n          mul\n          dup4\n          mstore\n          swap2\n          0x20\n          add\n          swap2\n          jump(tag_189)\n        tag_190:\n          dup3\n          add\n          swap2\n          swap1\n          0x00\n          mstore\n          keccak256(0x00, 0x20)\n          swap1\n        tag_191:\n          dup2\n          sload\n          dup2\n          mstore\n          swap1\n          0x01\n          add\n          swap1\n          0x20\n          add\n          dup1\n          dup4\n          gt\n          tag_191\n          jumpi\n          dup3\n          swap1\n          sub\n          0x1f\n          and\n          dup3\n          add\n          swap2\n        tag_189:\n          pop\n          pop\n          pop\n          pop\n          pop\n          dup2\n          mstore\n          0x20\n          add\n          0x03\n          dup3\n          add\n          dup1\n          sload\n          tag_192\n          swap1\n          tag_164\n          jump\t// in\n        tag_192:\n          dup1\n          0x1f\n          add\n          0x20\n          dup1\n          swap2\n          div\n          mul\n          0x20\n          add\n          mload(0x40)\n          swap1\n          dup2\n          add\n          0x40\n          mstore\n          dup1\n          swap3\n          swap2\n          swap1\n          dup2\n          dup2\n          mstore\n          0x20\n          add\n          dup3\n          dup1\n          sload\n          tag_193\n          swap1\n          tag_164\n          jump\t// in\n        tag_193:\n          dup1\n          iszero\n          tag_194\n          jumpi\n          dup1\n          0x1f\n          lt\n          tag_195\n          jumpi\n          0x0100\n          dup1\n          dup4\n          sload\n          div\n          mul\n          dup4\n          mstore\n          swap2\n          0x20\n          add\n          swap2\n          jump(tag_194)\n        tag_195:\n          dup3\n          add\n          swap2\n          swap1\n          0x00\n          mstore\n          keccak256(0x00, 0x20)\n          swap1\n        tag_196:\n          dup2\n          sload\n          dup2\n          mstore\n          swap1\n          0x01\n          add\n          swap1\n          0x20\n          add\n          dup1\n          dup4\n          gt\n          tag_196\n          jumpi\n          dup3\n          swap1\n          sub\n          0x1f\n          and\n          dup3\n          add\n          swap2\n        tag_194:\n          pop\n          pop\n          pop\n          pop\n          pop\n          dup2\n          mstore\n          0x20\n          add\n          0x04\n          dup3\n          add\n          dup1\n          sload\n          tag_197\n          swap1\n          tag_164\n          jump\t// in\n        tag_197:\n          dup1\n          0x1f\n          add\n          0x20\n          dup1\n          swap2\n          div\n          mul\n          0x20\n          add\n          mload(0x40)\n          swap1\n          dup2\n          add\n          0x40\n          mstore\n          dup1\n          swap3\n          swap2\n          swap1\n          dup2\n          dup2\n          mstore\n          0x20\n          add\n          dup3\n          dup1\n          sload\n          tag_198\n          swap1\n          tag_164\n          jump\t// in\n        tag_198:\n          dup1\n          iszero\n          tag_199\n          jumpi\n          dup1\n          0x1f\n          lt\n          tag_200\n          jumpi\n          0x0100\n          dup1\n          dup4\n          sload\n          div\n          mul\n          dup4\n          mstore\n          swap2\n          0x20\n          add\n          swap2\n          jump(tag_199)\n        tag_200:\n          dup3\n          add\n          swap2\n          swap1\n          0x00\n          mstore\n          keccak256(0x00, 0x20)\n          swap1\n        tag_201:\n          dup2\n          sload\n          dup2\n          mstore\n          swap1\n          0x01\n          add\n          swap1\n          0x20\n          add\n          dup1\n          dup4\n          gt\n          tag_201\n          jumpi\n          dup3\n          swap1\n          sub\n          0x1f\n          and\n          dup3\n          add\n          swap2\n        tag_199:\n          pop\n          pop\n          pop\n          pop\n          pop\n          dup2\n          mstore\n          0x20\n          add\n          0x05\n          dup3\n          add\n          dup1\n          sload\n          tag_202\n          swap1\n          tag_164\n          jump\t// in\n        tag_202:\n          dup1\n          0x1f\n          add\n          0x20\n          dup1\n          swap2\n          div\n          mul\n          0x20\n          add\n          mload(0x40)\n          swap1\n          dup2\n          add\n          0x40\n          mstore\n          dup1\n          swap3\n          swap2\n          swap1\n          dup2\n          dup2\n          mstore\n          0x20\n          add\n          dup3\n          dup1\n          sload\n          tag_203\n          swap1\n          tag_164\n          jump\t// in\n        tag_203:\n          dup1\n          iszero\n          tag_204\n          jumpi\n          dup1\n          0x1f\n          lt\n          tag_205\n          jumpi\n          0x0100\n          dup1\n          dup4\n          sload\n          div\n          mul\n          dup4\n          mstore\n          swap2\n          0x20\n          add\n          swap2\n          jump(tag_204)\n        tag_205:\n          dup3\n          add\n          swap2\n          swap1\n          0x00\n          mstore\n          keccak256(0x00, 0x20)\n          swap1\n        tag_206:\n          dup2\n          sload\n          dup2\n          mstore\n          swap1\n          0x01\n          add\n          swap1\n          0x20\n          add\n          dup1\n          dup4\n          gt\n          tag_206\n          jumpi\n          dup3\n          swap1\n          sub\n          0x1f\n          and\n          dup3\n          add\n          swap2\n        tag_204:\n          pop\n          pop\n          pop\n          pop\n          pop\n          dup2\n          mstore\n          0x20\n          add\n          0x06\n          dup3\n          add\n          dup1\n          sload\n          tag_207\n          swap1\n          tag_164\n          jump\t// in\n        tag_207:\n          dup1\n          0x1f\n          add\n          0x20\n          dup1\n          swap2\n          div\n          mul\n          0x20\n          add\n          mload(0x40)\n          swap1\n          dup2\n          add\n          0x40\n          mstore\n          dup1\n          swap3\n          swap2\n          swap1\n          dup2\n          dup2\n          mstore\n          0x20\n          add\n          dup3\n          dup1\n          sload\n          tag_208\n          swap1\n          tag_164\n          jump\t// in\n        tag_208:\n          dup1\n          iszero\n          tag_209\n          jumpi\n          dup1\n          0x1f\n          lt\n          tag_210\n          jumpi\n          0x0100\n          dup1\n          dup4\n          sload\n          div\n          mul\n          dup4\n          mstore\n          swap2\n          0x20\n          add\n          swap2\n          jump(tag_209)\n        tag_210:\n          dup3\n          add\n          swap2\n          swap1\n          0x00\n          mstore\n          keccak256(0x00, 0x20)\n          swap1\n        tag_211:\n          dup2\n          sload\n          dup2\n          mstore\n          swap1\n          0x01\n          add\n          swap1\n          0x20\n          add\n          dup1\n          dup4\n          gt\n          tag_211\n          jumpi\n          dup3\n          swap1\n          sub\n          0x1f\n          and\n          dup3\n          add\n          swap2\n        tag_209:\n          pop\n          pop\n          pop\n          pop\n          pop\n          dup2\n          mstore\n          0x20\n          add\n          0x07\n          dup3\n          add\n          dup1\n          sload\n          tag_212\n          swap1\n          tag_164\n          jump\t// in\n        tag_212:\n          dup1\n          0x1f\n          add\n          0x20\n          dup1\n          swap2\n          div\n          mul\n          0x20\n          add\n          mload(0x40)\n          swap1\n          dup2\n          add\n          0x40\n          mstore\n          dup1\n          swap3\n          swap2\n          swap1\n          dup2\n          dup2\n          mstore\n          0x20\n          add\n          dup3\n          dup1\n          sload\n          tag_213\n          swap1\n          tag_164\n          jump\t// in\n        tag_213:\n          dup1\n          iszero\n          tag_214\n          jumpi\n          dup1\n          0x1f\n          lt\n          tag_215\n          jumpi\n          0x0100\n          dup1\n          dup4\n          sload\n          div\n          mul\n          dup4\n          mstore\n          swap2\n          0x20\n          add\n          swap2\n          jump(tag_214)\n        tag_215:\n          dup3\n          add\n          swap2\n          swap1\n          0x00\n          mstore\n          keccak256(0x00, 0x20)\n          swap1\n        tag_216:\n          dup2\n          sload\n          dup2\n          mstore\n          swap1\n          0x01\n          add\n          swap1\n          0x20\n          add\n          dup1\n          dup4\n          gt\n          tag_216\n          jumpi\n          dup3\n          swap1\n          sub\n          0x1f\n          and\n          dup3\n          add\n          swap2\n        tag_214:\n          pop\n          pop\n          pop\n          pop\n          pop\n          dup2\n          mstore\n          0x20\n          add\n          0x08\n          dup3\n          add\n          dup1\n          sload\n          tag_217\n          swap1\n          tag_164\n          jump\t// in\n        tag_217:\n          dup1\n          0x1f\n          add\n          0x20\n          dup1\n          swap2\n          div\n          mul\n          0x20\n          add\n          mload(0x40)\n          swap1\n          dup2\n          add\n          0x40\n          mstore\n          dup1\n          swap3\n          swap2\n          swap1\n          dup2\n          dup2\n          mstore\n          0x20\n          add\n          dup3\n          dup1\n          sload\n          tag_218\n          swap1\n          tag_164\n          jump\t// in\n        tag_218:\n          dup1\n          iszero\n          tag_219\n          jumpi\n          dup1\n          0x1f\n          lt\n          tag_220\n          jumpi\n          0x0100\n          dup1\n          dup4\n          sload\n          div\n          mul\n          dup4\n          mstore\n          swap2\n          0x20\n          add\n          swap2\n          jump(tag_219)\n        tag_220:\n          dup3\n          add\n          swap2\n          swap1\n          0x00\n          mstore\n          keccak256(0x00, 0x20)\n          swap1\n        tag_221:\n          dup2\n          sload\n          dup2\n          mstore\n          swap1\n          0x01\n          add\n          swap1\n          0x20\n          add\n          dup1\n          dup4\n          gt\n          tag_221\n          jumpi\n          dup3\n          swap1\n          sub\n          0x1f\n          and\n          dup3\n          add\n          swap2\n        tag_219:\n          pop\n          pop\n          pop\n          pop\n          pop\n          dup2\n          mstore\n          0x20\n          add\n          0x09\n          dup3\n          add\n          0x00\n          swap1\n          sload\n          swap1\n          0x0100\n          exp\n          swap1\n          div\n          0xff\n          and\n          iszero\n          iszero\n          iszero\n          iszero\n          dup2\n          mstore\n          pop\n          pop\n          dup2\n          mstore\n          0x20\n          add\n          swap1\n          0x01\n          add\n          swap1\n          jump(tag_179)\n        tag_180:\n          pop\n          pop\n          pop\n          pop\n          swap1\n          pop\n          swap2\n          pop\n          swap2\n          pop\n            /* \"ElectronicMedicalRecords.sol\":9670:9845  function getOutPatient(address add) onlyDoctor public view returns(IdentitasPasien memory a, RawatJalan[] memory b) {... */\n          swap2\n          pop\n          swap2\n          jump\t// out\n            /* \"ElectronicMedicalRecords.sol\":10033:10229  function getEmergencyPatient(address add) onlyDoctor public view returns(PengantarPasien memory a, GawatDarurat[] memory b) {... */\n        tag_42:\n            /* \"ElectronicMedicalRecords.sol\":10106:10130  PengantarPasien memory a */\n          tag_222\n          tag_128\n          jump\t// in\n        tag_222:\n            /* \"ElectronicMedicalRecords.sol\":10132:10155  GawatDarurat[] memory b */\n          0x60\n            /* \"ElectronicMedicalRecords.sol\":10278:10296  doctor_verificator */\n          0x06\n          0x00\n          swap1\n          sload\n          swap1\n          0x0100\n          exp\n          swap1\n          div\n          0xffffffffffffffffffffffffffffffffffffffff\n          and\n            /* \"ElectronicMedicalRecords.sol\":10278:10303  doctor_verificator.verify */\n          0xffffffffffffffffffffffffffffffffffffffff\n          and\n          0x63a9c3d7\n            /* \"ElectronicMedicalRecords.sol\":10304:10314  msg.sender */\n          caller\n            /* \"ElectronicMedicalRecords.sol\":10278:10315  doctor_verificator.verify(msg.sender) */\n          mload(0x40)\n          dup3\n          0xffffffff\n          and\n          0xe0\n          shl\n          dup2\n          mstore\n          0x04\n          add\n          tag_224\n          swap2\n          swap1\n          tag_52\n          jump\t// in\n        tag_224:\n          0x20\n          mload(0x40)\n          dup1\n          dup4\n          sub\n          dup2\n          dup7\n          gas\n          staticcall\n          iszero\n          dup1\n          iszero\n          tag_226\n          jumpi\n          returndatasize\n          0x00\n          dup1\n          returndatacopy\n          revert(0x00, returndatasize)\n        tag_226:\n          pop\n          pop\n          pop\n          pop\n          mload(0x40)\n          returndatasize\n          not(0x1f)\n          0x1f\n          dup3\n          add\n          and\n          dup3\n          add\n          dup1\n          0x40\n          mstore\n          pop\n          dup2\n          add\n          swap1\n          tag_227\n          swap2\n          swap1\n          tag_56\n          jump\t// in\n        tag_227:\n            /* \"ElectronicMedicalRecords.sol\":10270:10316  require(doctor_verificator.verify(msg.sender)) */\n          tag_228\n          jumpi\n          0x00\n          dup1\n          revert\n        tag_228:\n            /* \"ElectronicMedicalRecords.sol\":10176:10192  pengantar_pasien */\n          0x01\n            /* \"ElectronicMedicalRecords.sol\":10176:10197  pengantar_pasien[add] */\n          0x00\n            /* \"ElectronicMedicalRecords.sol\":10193:10196  add */\n          dup5\n            /* \"ElectronicMedicalRecords.sol\":10176:10197  pengantar_pasien[add] */\n          0xffffffffffffffffffffffffffffffffffffffff\n          and\n          0xffffffffffffffffffffffffffffffffffffffff\n          and\n          dup2\n          mstore\n          0x20\n          add\n          swap1\n          dup2\n          mstore\n          0x20\n          add\n          0x00\n          keccak256\n            /* \"ElectronicMedicalRecords.sol\":10199:10215  emergencyPatient */\n          0x04\n            /* \"ElectronicMedicalRecords.sol\":10199:10220  emergencyPatient[add] */\n          0x00\n            /* \"ElectronicMedicalRecords.sol\":10216:10219  add */\n          dup6\n            /* \"ElectronicMedicalRecords.sol\":10199:10220  emergencyPatient[add] */\n          0xffffffffffffffffffffffffffffffffffffffff\n          and\n          0xffffffffffffffffffffffffffffffffffffffff\n          and\n          dup2\n          mstore\n          0x20\n          add\n          swap1\n          dup2\n          mstore\n          0x20\n          add\n          0x00\n          keccak256\n            /* \"ElectronicMedicalRecords.sol\":10168:10221  return (pengantar_pasien[add], emergencyPatient[add]) */\n          dup2\n          mload(0x40)\n          dup1\n          0xa0\n          add\n          0x40\n          mstore\n          swap1\n          dup2\n          0x00\n          dup3\n          add\n          0x00\n          swap1\n          sload\n          swap1\n          0x0100\n          exp\n          swap1\n          div\n          0xffffffffffffffffffffffffffffffffffffffff\n          and\n          0xffffffffffffffffffffffffffffffffffffffff\n          and\n          0xffffffffffffffffffffffffffffffffffffffff\n          and\n          dup2\n          mstore\n          0x20\n          add\n          0x01\n          dup3\n          add\n          dup1\n          sload\n          tag_230\n          swap1\n          tag_164\n          jump\t// in\n        tag_230:\n          dup1\n          0x1f\n          add\n          0x20\n          dup1\n          swap2\n          div\n          mul\n          0x20\n          add\n          mload(0x40)\n          swap1\n          dup2\n          add\n          0x40\n          mstore\n          dup1\n          swap3\n          swap2\n          swap1\n          dup2\n          dup2\n          mstore\n          0x20\n          add\n          dup3\n          dup1\n          sload\n          tag_231\n          swap1\n          tag_164\n          jump\t// in\n        tag_231:\n          dup1\n          iszero\n          tag_232\n          jumpi\n          dup1\n          0x1f\n          lt\n          tag_233\n          jumpi\n          0x0100\n          dup1\n          dup4\n          sload\n          div\n          mul\n          dup4\n          mstore\n          swap2\n          0x20\n          add\n          swap2\n          jump(tag_232)\n        tag_233:\n          dup3\n          add\n          swap2\n          swap1\n          0x00\n          mstore\n          keccak256(0x00, 0x20)\n          swap1\n        tag_234:\n          dup2\n          sload\n          dup2\n          mstore\n          swap1\n          0x01\n          add\n          swap1\n          0x20\n          add\n          dup1\n          dup4\n          gt\n          tag_234\n          jumpi\n          dup3\n          swap1\n          sub\n          0x1f\n          and\n          dup3\n          add\n          swap2\n        tag_232:\n          pop\n          pop\n          pop\n          pop\n          pop\n          dup2\n          mstore\n          0x20\n          add\n          0x02\n          dup3\n          add\n          dup1\n          sload\n          tag_235\n          swap1\n          tag_164\n          jump\t// in\n        tag_235:\n          dup1\n          0x1f\n          add\n          0x20\n          dup1\n          swap2\n          div\n          mul\n          0x20\n          add\n          mload(0x40)\n          swap1\n          dup2\n          add\n          0x40\n          mstore\n          dup1\n          swap3\n          swap2\n          swap1\n          dup2\n          dup2\n          mstore\n          0x20\n          add\n          dup3\n          dup1\n          sload\n          tag_236\n          swap1\n          tag_164\n          jump\t// in\n        tag_236:\n          dup1\n          iszero\n          tag_237\n          jumpi\n          dup1\n          0x1f\n          lt\n          tag_238\n          jumpi\n          0x0100\n          dup1\n          dup4\n          sload\n          div\n          mul\n          dup4\n          mstore\n          swap2\n          0x20\n          add\n          swap2\n          jump(tag_237)\n        tag_238:\n          dup3\n          add\n          swap2\n          swap1\n          0x00\n          mstore\n          keccak256(0x00, 0x20)\n          swap1\n        tag_239:\n          dup2\n          sload\n          dup2\n          mstore\n          swap1\n          0x01\n          add\n          swap1\n          0x20\n          add\n          dup1\n          dup4\n          gt\n          tag_239\n          jumpi\n          dup3\n          swap1\n          sub\n          0x1f\n          and\n          dup3\n          add\n          swap2\n        tag_237:\n          pop\n          pop\n          pop\n          pop\n          pop\n          dup2\n          mstore\n          0x20\n          add\n          0x03\n          dup3\n          add\n          sload\n          dup2\n          mstore\n          0x20\n          add\n          0x04\n          dup3\n          add\n          dup1\n          sload\n          tag_240\n          swap1\n          tag_164\n          jump\t// in\n        tag_240:\n          dup1\n          0x1f\n          add\n          0x20\n          dup1\n          swap2\n          div\n          mul\n          0x20\n          add\n          mload(0x40)\n          swap1\n          dup2\n          add\n          0x40\n          mstore\n          dup1\n          swap3\n          swap2\n          swap1\n          dup2\n          dup2\n          mstore\n          0x20\n          add\n          dup3\n          dup1\n          sload\n          tag_241\n          swap1\n          tag_164\n          jump\t// in\n        tag_241:\n          dup1\n          iszero\n          tag_242\n          jumpi\n          dup1\n          0x1f\n          lt\n          tag_243\n          jumpi\n          0x0100\n          dup1\n          dup4\n          sload\n          div\n          mul\n          dup4\n          mstore\n          swap2\n          0x20\n          add\n          swap2\n          jump(tag_242)\n        tag_243:\n          dup3\n          add\n          swap2\n          swap1\n          0x00\n          mstore\n          keccak256(0x00, 0x20)\n          swap1\n        tag_244:\n          dup2\n          sload\n          dup2\n          mstore\n          swap1\n          0x01\n          add\n          swap1\n          0x20\n          add\n          dup1\n          dup4\n          gt\n          tag_244\n          jumpi\n          dup3\n          swap1\n          sub\n          0x1f\n          and\n          dup3\n          add\n          swap2\n        tag_242:\n          pop\n          pop\n          pop\n          pop\n          pop\n          dup2\n          mstore\n          pop\n          pop\n          swap2\n          pop\n          dup1\n          dup1\n          sload\n          dup1\n          0x20\n          mul\n          0x20\n          add\n          mload(0x40)\n          swap1\n          dup2\n          add\n          0x40\n          mstore\n          dup1\n          swap3\n          swap2\n          swap1\n          dup2\n          dup2\n          mstore\n          0x20\n          add\n          0x00\n          swap1\n        tag_245:\n          dup3\n          dup3\n          lt\n          iszero\n          tag_246\n          jumpi\n          dup4\n          dup3\n          swap1\n          0x00\n          mstore\n          keccak256(0x00, 0x20)\n          swap1\n          0x0e\n          mul\n          add\n          mload(0x40)\n          dup1\n          0x01c0\n          add\n          0x40\n          mstore\n          swap1\n          dup2\n          0x00\n          dup3\n          add\n          0x00\n          swap1\n          sload\n          swap1\n          0x0100\n          exp\n          swap1\n          div\n          0xffffffffffffffffffffffffffffffffffffffff\n          and\n          0xffffffffffffffffffffffffffffffffffffffff\n          and\n          0xffffffffffffffffffffffffffffffffffffffff\n          and\n          dup2\n          mstore\n          0x20\n          add\n          0x01\n          dup3\n          add\n          dup1\n          sload\n          tag_248\n          swap1\n          tag_164\n          jump\t// in\n        tag_248:\n          dup1\n          0x1f\n          add\n          0x20\n          dup1\n          swap2\n          div\n          mul\n          0x20\n          add\n          mload(0x40)\n          swap1\n          dup2\n          add\n          0x40\n          mstore\n          dup1\n          swap3\n          swap2\n          swap1\n          dup2\n          dup2\n          mstore\n          0x20\n          add\n          dup3\n          dup1\n          sload\n          tag_249\n          swap1\n          tag_164\n          jump\t// in\n        tag_249:\n          dup1\n          iszero\n          tag_250\n          jumpi\n          dup1\n          0x1f\n          lt\n          tag_251\n          jumpi\n          0x0100\n          dup1\n          dup4\n          sload\n          div\n          mul\n          dup4\n          mstore\n          swap2\n          0x20\n          add\n          swap2\n          jump(tag_250)\n        tag_251:\n          dup3\n          add\n          swap2\n          swap1\n          0x00\n          mstore\n          keccak256(0x00, 0x20)\n          swap1\n        tag_252:\n          dup2\n          sload\n          dup2\n          mstore\n          swap1\n          0x01\n          add\n          swap1\n          0x20\n          add\n          dup1\n          dup4\n          gt\n          tag_252\n          jumpi\n          dup3\n          swap1\n          sub\n          0x1f\n          and\n          dup3\n          add\n          swap2\n        tag_250:\n          pop\n          pop\n          pop\n          pop\n          pop\n          dup2\n          mstore\n          0x20\n          add\n          0x02\n          dup3\n          add\n          dup1\n          sload\n          tag_253\n          swap1\n          tag_164\n          jump\t// in\n        tag_253:\n          dup1\n          0x1f\n          add\n          0x20\n          dup1\n          swap2\n          div\n          mul\n          0x20\n          add\n          mload(0x40)\n          swap1\n          dup2\n          add\n          0x40\n          mstore\n          dup1\n          swap3\n          swap2\n          swap1\n          dup2\n          dup2\n          mstore\n          0x20\n          add\n          dup3\n          dup1\n          sload\n          tag_254\n          swap1\n          tag_164\n          jump\t// in\n        tag_254:\n          dup1\n          iszero\n          tag_255\n          jumpi\n          dup1\n          0x1f\n          lt\n          tag_256\n          jumpi\n          0x0100\n          dup1\n          dup4\n          sload\n          div\n          mul\n          dup4\n          mstore\n          swap2\n          0x20\n          add\n          swap2\n          jump(tag_255)\n        tag_256:\n          dup3\n          add\n          swap2\n          swap1\n          0x00\n          mstore\n          keccak256(0x00, 0x20)\n          swap1\n        tag_257:\n          dup2\n          sload\n          dup2\n          mstore\n          swap1\n          0x01\n          add\n          swap1\n          0x20\n          add\n          dup1\n          dup4\n          gt\n          tag_257\n          jumpi\n          dup3\n          swap1\n          sub\n          0x1f\n          and\n          dup3\n          add\n          swap2\n        tag_255:\n          pop\n          pop\n          pop\n          pop\n          pop\n          dup2\n          mstore\n          0x20\n          add\n          0x03\n          dup3\n          add\n          dup1\n          sload\n          tag_258\n          swap1\n          tag_164\n          jump\t// in\n        tag_258:\n          dup1\n          0x1f\n          add\n          0x20\n          dup1\n          swap2\n          div\n          mul\n          0x20\n          add\n          mload(0x40)\n          swap1\n          dup2\n          add\n          0x40\n          mstore\n          dup1\n          swap3\n          swap2\n          swap1\n          dup2\n          dup2\n          mstore\n          0x20\n          add\n          dup3\n          dup1\n          sload\n          tag_259\n          swap1\n          tag_164\n          jump\t// in\n        tag_259:\n          dup1\n          iszero\n          tag_260\n          jumpi\n          dup1\n          0x1f\n          lt\n          tag_261\n          jumpi\n          0x0100\n          dup1\n          dup4\n          sload\n          div\n          mul\n          dup4\n          mstore\n          swap2\n          0x20\n          add\n          swap2\n          jump(tag_260)\n        tag_261:\n          dup3\n          add\n          swap2\n          swap1\n          0x00\n          mstore\n          keccak256(0x00, 0x20)\n          swap1\n        tag_262:\n          dup2\n          sload\n          dup2\n          mstore\n          swap1\n          0x01\n          add\n          swap1\n          0x20\n          add\n          dup1\n          dup4\n          gt\n          tag_262\n          jumpi\n          dup3\n          swap1\n          sub\n          0x1f\n          and\n          dup3\n          add\n          swap2\n        tag_260:\n          pop\n          pop\n          pop\n          pop\n          pop\n          dup2\n          mstore\n          0x20\n          add\n          0x04\n          dup3\n          add\n          dup1\n          sload\n          tag_263\n          swap1\n          tag_164\n          jump\t// in\n        tag_263:\n          dup1\n          0x1f\n          add\n          0x20\n          dup1\n          swap2\n          div\n          mul\n          0x20\n          add\n          mload(0x40)\n          swap1\n          dup2\n          add\n          0x40\n          mstore\n          dup1\n          swap3\n          swap2\n          swap1\n          dup2\n          dup2\n          mstore\n          0x20\n          add\n          dup3\n          dup1\n          sload\n          tag_264\n          swap1\n          tag_164\n          jump\t// in\n        tag_264:\n          dup1\n          iszero\n          tag_265\n          jumpi\n          dup1\n          0x1f\n          lt\n          tag_266\n          jumpi\n          0x0100\n          dup1\n          dup4\n          sload\n          div\n          mul\n          dup4\n          mstore\n          swap2\n          0x20\n          add\n          swap2\n          jump(tag_265)\n        tag_266:\n          dup3\n          add\n          swap2\n          swap1\n          0x00\n          mstore\n          keccak256(0x00, 0x20)\n          swap1\n        tag_267:\n          dup2\n          sload\n          dup2\n          mstore\n          swap1\n          0x01\n          add\n          swap1\n          0x20\n          add\n          dup1\n          dup4\n          gt\n          tag_267\n          jumpi\n          dup3\n          swap1\n          sub\n          0x1f\n          and\n          dup3\n          add\n          swap2\n        tag_265:\n          pop\n          pop\n          pop\n          pop\n          pop\n          dup2\n          mstore\n          0x20\n          add\n          0x05\n          dup3\n          add\n          dup1\n          sload\n          tag_268\n          swap1\n          tag_164\n          jump\t// in\n        tag_268:\n          dup1\n          0x1f\n          add\n          0x20\n          dup1\n          swap2\n          div\n          mul\n          0x20\n          add\n          mload(0x40)\n          swap1\n          dup2\n          add\n          0x40\n          mstore\n          dup1\n          swap3\n          swap2\n          swap1\n          dup2\n          dup2\n          mstore\n          0x20\n          add\n          dup3\n          dup1\n          sload\n          tag_269\n          swap1\n          tag_164\n          jump\t// in\n        tag_269:\n          dup1\n          iszero\n          tag_270\n          jumpi\n          dup1\n          0x1f\n          lt\n          tag_271\n          jumpi\n          0x0100\n          dup1\n          dup4\n          sload\n          div\n          mul\n          dup4\n          mstore\n          swap2\n          0x20\n          add\n          swap2\n          jump(tag_270)\n        tag_271:\n          dup3\n          add\n          swap2\n          swap1\n          0x00\n          mstore\n          keccak256(0x00, 0x20)\n          swap1\n        tag_272:\n          dup2\n          sload\n          dup2\n          mstore\n          swap1\n          0x01\n          add\n          swap1\n          0x20\n          add\n          dup1\n          dup4\n          gt\n          tag_272\n          jumpi\n          dup3\n          swap1\n          sub\n          0x1f\n          and\n          dup3\n          add\n          swap2\n        tag_270:\n          pop\n          pop\n          pop\n          pop\n          pop\n          dup2\n          mstore\n          0x20\n          add\n          0x06\n          dup3\n          add\n          dup1\n          sload\n          tag_273\n          swap1\n          tag_164\n          jump\t// in\n        tag_273:\n          dup1\n          0x1f\n          add\n          0x20\n          dup1\n          swap2\n          div\n          mul\n          0x20\n          add\n          mload(0x40)\n          swap1\n          dup2\n          add\n          0x40\n          mstore\n          dup1\n          swap3\n          swap2\n          swap1\n          dup2\n          dup2\n          mstore\n          0x20\n          add\n          dup3\n          dup1\n          sload\n          tag_274\n          swap1\n          tag_164\n          jump\t// in\n        tag_274:\n          dup1\n          iszero\n          tag_275\n          jumpi\n          dup1\n          0x1f\n          lt\n          tag_276\n          jumpi\n          0x0100\n          dup1\n          dup4\n          sload\n          div\n          mul\n          dup4\n          mstore\n          swap2\n          0x20\n          add\n          swap2\n          jump(tag_275)\n        tag_276:\n          dup3\n          add\n          swap2\n          swap1\n          0x00\n          mstore\n          keccak256(0x00, 0x20)\n          swap1\n        tag_277:\n          dup2\n          sload\n          dup2\n          mstore\n          swap1\n          0x01\n          add\n          swap1\n          0x20\n          add\n          dup1\n          dup4\n          gt\n          tag_277\n          jumpi\n          dup3\n          swap1\n          sub\n          0x1f\n          and\n          dup3\n          add\n          swap2\n        tag_275:\n          pop\n          pop\n          pop\n          pop\n          pop\n          dup2\n          mstore\n          0x20\n          add\n          0x07\n          dup3\n          add\n          dup1\n          sload\n          tag_278\n          swap1\n          tag_164\n          jump\t// in\n        tag_278:\n          dup1\n          0x1f\n          add\n          0x20\n          dup1\n          swap2\n          div\n          mul\n          0x20\n          add\n          mload(0x40)\n          swap1\n          dup2\n          add\n          0x40\n          mstore\n          dup1\n          swap3\n          swap2\n          swap1\n          dup2\n          dup2\n          mstore\n          0x20\n          add\n          dup3\n          dup1\n          sload\n          tag_279\n          swap1\n          tag_164\n          jump\t// in\n        tag_279:\n          dup1\n          iszero\n          tag_280\n          jumpi\n          dup1\n          0x1f\n          lt\n          tag_281\n          jumpi\n          0x0100\n          dup1\n          dup4\n          sload\n          div\n          mul\n          dup4\n          mstore\n          swap2\n          0x20\n          add\n          swap2\n          jump(tag_280)\n        tag_281:\n          dup3\n          add\n          swap2\n          swap1\n          0x00\n          mstore\n          keccak256(0x00, 0x20)\n          swap1\n        tag_282:\n          dup2\n          sload\n          dup2\n          mstore\n          swap1\n          0x01\n          add\n          swap1\n          0x20\n          add\n          dup1\n          dup4\n          gt\n          tag_282\n          jumpi\n          dup3\n          swap1\n          sub\n          0x1f\n          and\n          dup3\n          add\n          swap2\n        tag_280:\n          pop\n          pop\n          pop\n          pop\n          pop\n          dup2\n          mstore\n          0x20\n          add\n          0x08\n          dup3\n          add\n          dup1\n          sload\n          tag_283\n          swap1\n          tag_164\n          jump\t// in\n        tag_283:\n          dup1\n          0x1f\n          add\n          0x20\n          dup1\n          swap2\n          div\n          mul\n          0x20\n          add\n          mload(0x40)\n          swap1\n          dup2\n          add\n          0x40\n          mstore\n          dup1\n          swap3\n          swap2\n          swap1\n          dup2\n          dup2\n          mstore\n          0x20\n          add\n          dup3\n          dup1\n          sload\n          tag_284\n          swap1\n          tag_164\n          jump\t// in\n        tag_284:\n          dup1\n          iszero\n          tag_285\n          jumpi\n          dup1\n          0x1f\n          lt\n          tag_286\n          jumpi\n          0x0100\n          dup1\n          dup4\n          sload\n          div\n          mul\n          dup4\n          mstore\n          swap2\n          0x20\n          add\n          swap2\n          jump(tag_285)\n        tag_286:\n          dup3\n          add\n          swap2\n          swap1\n          0x00\n          mstore\n          keccak256(0x00, 0x20)\n          swap1\n        tag_287:\n          dup2\n          sload\n          dup2\n          mstore\n          swap1\n          0x01\n          add\n          swap1\n          0x20\n          add\n          dup1\n          dup4\n          gt\n          tag_287\n          jumpi\n          dup3\n          swap1\n          sub\n          0x1f\n          and\n          dup3\n          add\n          swap2\n        tag_285:\n          pop\n          pop\n          pop\n          pop\n          pop\n          dup2\n          mstore\n          0x20\n          add\n          0x09\n          dup3\n          add\n          dup1\n          sload\n          tag_288\n          swap1\n          tag_164\n          jump\t// in\n        tag_288:\n          dup1\n          0x1f\n          add\n          0x20\n          dup1\n          swap2\n          div\n          mul\n          0x20\n          add\n          mload(0x40)\n          swap1\n          dup2\n          add\n          0x40\n          mstore\n          dup1\n          swap3\n          swap2\n          swap1\n          dup2\n          dup2\n          mstore\n          0x20\n          add\n          dup3\n          dup1\n          sload\n          tag_289\n          swap1\n          tag_164\n          jump\t// in\n        tag_289:\n          dup1\n          iszero\n          tag_290\n          jumpi\n          dup1\n          0x1f\n          lt\n          tag_291\n          jumpi\n          0x0100\n          dup1\n          dup4\n          sload\n          div\n          mul\n          dup4\n          mstore\n          swap2\n          0x20\n          add\n          swap2\n          jump(tag_290)\n        tag_291:\n          dup3\n          add\n          swap2\n          swap1\n          0x00\n          mstore\n          keccak256(0x00, 0x20)\n          swap1\n        tag_292:\n          dup2\n          sload\n          dup2\n          mstore\n          swap1\n          0x01\n          add\n          swap1\n          0x20\n          add\n          dup1\n          dup4\n          gt\n          tag_292\n          jumpi\n          dup3\n          swap1\n          sub\n          0x1f\n          and\n          dup3\n          add\n          swap2\n        tag_290:\n          pop\n          pop\n          pop\n          pop\n          pop\n          dup2\n          mstore\n          0x20\n          add\n          0x0a\n          dup3\n          add\n          dup1\n          sload\n          tag_293\n          swap1\n          tag_164\n          jump\t// in\n        tag_293:\n          dup1\n          0x1f\n          add\n          0x20\n          dup1\n          swap2\n          div\n          mul\n          0x20\n          add\n          mload(0x40)\n          swap1\n          dup2\n          add\n          0x40\n          mstore\n          dup1\n          swap3\n          swap2\n          swap1\n          dup2\n          dup2\n          mstore\n          0x20\n          add\n          dup3\n          dup1\n          sload\n          tag_294\n          swap1\n          tag_164\n          jump\t// in\n        tag_294:\n          dup1\n          iszero\n          tag_295\n          jumpi\n          dup1\n          0x1f\n          lt\n          tag_296\n          jumpi\n          0x0100\n          dup1\n          dup4\n          sload\n          div\n          mul\n          dup4\n          mstore\n          swap2\n          0x20\n          add\n          swap2\n          jump(tag_295)\n        tag_296:\n          dup3\n          add\n          swap2\n          swap1\n          0x00\n          mstore\n          keccak256(0x00, 0x20)\n          swap1\n        tag_297:\n          dup2\n          sload\n          dup2\n          mstore\n          swap1\n          0x01\n          add\n          swap1\n          0x20\n          add\n          dup1\n          dup4\n          gt\n          tag_297\n          jumpi\n          dup3\n          swap1\n          sub\n          0x1f\n          and\n          dup3\n          add\n          swap2\n        tag_295:\n          pop\n          pop\n          pop\n          pop\n          pop\n          dup2\n          mstore\n          0x20\n          add\n          0x0b\n          dup3\n          add\n          0x00\n          swap1\n          sload\n          swap1\n          0x0100\n          exp\n          swap1\n          div\n          0xffffffffffffffffffffffffffffffffffffffff\n          and\n          0xffffffffffffffffffffffffffffffffffffffff\n          and\n          0xffffffffffffffffffffffffffffffffffffffff\n          and\n          dup2\n          mstore\n          0x20\n          add\n          0x0c\n          dup3\n          add\n          dup1\n          sload\n          tag_298\n          swap1\n          tag_164\n          jump\t// in\n        tag_298:\n          dup1\n          0x1f\n          add\n          0x20\n          dup1\n          swap2\n          div\n          mul\n          0x20\n          add\n          mload(0x40)\n          swap1\n          dup2\n          add\n          0x40\n          mstore\n          dup1\n          swap3\n          swap2\n          swap1\n          dup2\n          dup2\n          mstore\n          0x20\n          add\n          dup3\n          dup1\n          sload\n          tag_299\n          swap1\n          tag_164\n          jump\t// in\n        tag_299:\n          dup1\n          iszero\n          tag_300\n          jumpi\n          dup1\n          0x1f\n          lt\n          tag_301\n          jumpi\n          0x0100\n          dup1\n          dup4\n          sload\n          div\n          mul\n          dup4\n          mstore\n          swap2\n          0x20\n          add\n          swap2\n          jump(tag_300)\n        tag_301:\n          dup3\n          add\n          swap2\n          swap1\n          0x00\n          mstore\n          keccak256(0x00, 0x20)\n          swap1\n        tag_302:\n          dup2\n          sload\n          dup2\n          mstore\n          swap1\n          0x01\n          add\n          swap1\n          0x20\n          add\n          dup1\n          dup4\n          gt\n          tag_302\n          jumpi\n          dup3\n          swap1\n          sub\n          0x1f\n          and\n          dup3\n          add\n          swap2\n        tag_300:\n          pop\n          pop\n          pop\n          pop\n          pop\n          dup2\n          mstore\n          0x20\n          add\n          0x0d\n          dup3\n          add\n          dup1\n          sload\n          tag_303\n          swap1\n          tag_164\n          jump\t// in\n        tag_303:\n          dup1\n          0x1f\n          add\n          0x20\n          dup1\n          swap2\n          div\n          mul\n          0x20\n          add\n          mload(0x40)\n          swap1\n          dup2\n          add\n          0x40\n          mstore\n          dup1\n          swap3\n          swap2\n          swap1\n          dup2\n          dup2\n          mstore\n          0x20\n          add\n          dup3\n          dup1\n          sload\n          tag_304\n          swap1\n          tag_164\n          jump\t// in\n        tag_304:\n          dup1\n          iszero\n          tag_305\n          jumpi\n          dup1\n          0x1f\n          lt\n          tag_306\n          jumpi\n          0x0100\n          dup1\n          dup4\n          sload\n          div\n          mul\n          dup4\n          mstore\n          swap2\n          0x20\n          add\n          swap2\n          jump(tag_305)\n        tag_306:\n          dup3\n          add\n          swap2\n          swap1\n          0x00\n          mstore\n          keccak256(0x00, 0x20)\n          swap1\n        tag_307:\n          dup2\n          sload\n          dup2\n          mstore\n          swap1\n          0x01\n          add\n          swap1\n          0x20\n          add\n          dup1\n          dup4\n          gt\n          tag_307\n          jumpi\n          dup3\n          swap1\n          sub\n          0x1f\n          and\n          dup3\n          add\n          swap2\n        tag_305:\n          pop\n          pop\n          pop\n          pop\n          pop\n          dup2\n          mstore\n          pop\n          pop\n          dup2\n          mstore\n          0x20\n          add\n          swap1\n          0x01\n          add\n          swap1\n          jump(tag_245)\n        tag_246:\n          pop\n          pop\n          pop\n          pop\n          swap1\n          pop\n          swap2\n          pop\n          swap2\n          pop\n            /* \"ElectronicMedicalRecords.sol\":10033:10229  function getEmergencyPatient(address add) onlyDoctor public view returns(PengantarPasien memory a, GawatDarurat[] memory b) {... */\n          swap2\n          pop\n          swap2\n          jump\t// out\n            /* \"ElectronicMedicalRecords.sol\":9853:10025  function getInPatient(address add) onlyDoctor public view returns(IdentitasPasien memory a, RawatInap[] memory b) {... */\n        tag_47:\n            /* \"ElectronicMedicalRecords.sol\":9919:9943  IdentitasPasien memory a */\n          tag_308\n          tag_60\n          jump\t// in\n        tag_308:\n            /* \"ElectronicMedicalRecords.sol\":9945:9965  RawatInap[] memory b */\n          0x60\n            /* \"ElectronicMedicalRecords.sol\":10278:10296  doctor_verificator */\n          0x06\n          0x00\n          swap1\n          sload\n          swap1\n          0x0100\n          exp\n          swap1\n          div\n          0xffffffffffffffffffffffffffffffffffffffff\n          and\n            /* \"ElectronicMedicalRecords.sol\":10278:10303  doctor_verificator.verify */\n          0xffffffffffffffffffffffffffffffffffffffff\n          and\n          0x63a9c3d7\n            /* \"ElectronicMedicalRecords.sol\":10304:10314  msg.sender */\n          caller\n            /* \"ElectronicMedicalRecords.sol\":10278:10315  doctor_verificator.verify(msg.sender) */\n          mload(0x40)\n          dup3\n          0xffffffff\n          and\n          0xe0\n          shl\n          dup2\n          mstore\n          0x04\n          add\n          tag_310\n          swap2\n          swap1\n          tag_52\n          jump\t// in\n        tag_310:\n          0x20\n          mload(0x40)\n          dup1\n          dup4\n          sub\n          dup2\n          dup7\n          gas\n          staticcall\n          iszero\n          dup1\n          iszero\n          tag_312\n          jumpi\n          returndatasize\n          0x00\n          dup1\n          returndatacopy\n          revert(0x00, returndatasize)\n        tag_312:\n          pop\n          pop\n          pop\n          pop\n          mload(0x40)\n          returndatasize\n          not(0x1f)\n          0x1f\n          dup3\n          add\n          and\n          dup3\n          add\n          dup1\n          0x40\n          mstore\n          pop\n          dup2\n          add\n          swap1\n          tag_313\n          swap2\n          swap1\n          tag_56\n          jump\t// in\n        tag_313:\n            /* \"ElectronicMedicalRecords.sol\":10270:10316  require(doctor_verificator.verify(msg.sender)) */\n          tag_314\n          jumpi\n          0x00\n          dup1\n          revert\n        tag_314:\n            /* \"ElectronicMedicalRecords.sol\":9986:9995  patientId */\n          0x00\n            /* \"ElectronicMedicalRecords.sol\":9986:10000  patientId[add] */\n          dup1\n            /* \"ElectronicMedicalRecords.sol\":9996:9999  add */\n          dup5\n            /* \"ElectronicMedicalRecords.sol\":9986:10000  patientId[add] */\n          0xffffffffffffffffffffffffffffffffffffffff\n          and\n          0xffffffffffffffffffffffffffffffffffffffff\n          and\n          dup2\n          mstore\n          0x20\n          add\n          swap1\n          dup2\n          mstore\n          0x20\n          add\n          0x00\n          keccak256\n            /* \"ElectronicMedicalRecords.sol\":10002:10011  inPatient */\n          0x03\n            /* \"ElectronicMedicalRecords.sol\":10002:10016  inPatient[add] */\n          0x00\n            /* \"ElectronicMedicalRecords.sol\":10012:10015  add */\n          dup6\n            /* \"ElectronicMedicalRecords.sol\":10002:10016  inPatient[add] */\n          0xffffffffffffffffffffffffffffffffffffffff\n          and\n          0xffffffffffffffffffffffffffffffffffffffff\n          and\n          dup2\n          mstore\n          0x20\n          add\n          swap1\n          dup2\n          mstore\n          0x20\n          add\n          0x00\n          keccak256\n            /* \"ElectronicMedicalRecords.sol\":9978:10017  return (patientId[add], inPatient[add]) */\n          dup2\n          mload(0x40)\n          dup1\n          0xa0\n          add\n          0x40\n          mstore\n          swap1\n          dup2\n          0x00\n          dup3\n          add\n          0x00\n          swap1\n          sload\n          swap1\n          0x0100\n          exp\n          swap1\n          div\n          0xffffffffffffffffffffffffffffffffffffffff\n          and\n          0xffffffffffffffffffffffffffffffffffffffff\n          and\n          0xffffffffffffffffffffffffffffffffffffffff\n          and\n          dup2\n          mstore\n          0x20\n          add\n          0x01\n          dup3\n          add\n          dup1\n          sload\n          tag_316\n          swap1\n          tag_164\n          jump\t// in\n        tag_316:\n          dup1\n          0x1f\n          add\n          0x20\n          dup1\n          swap2\n          div\n          mul\n          0x20\n          add\n          mload(0x40)\n          swap1\n          dup2\n          add\n          0x40\n          mstore\n          dup1\n          swap3\n          swap2\n          swap1\n          dup2\n          dup2\n          mstore\n          0x20\n          add\n          dup3\n          dup1\n          sload\n          tag_317\n          swap1\n          tag_164\n          jump\t// in\n        tag_317:\n          dup1\n          iszero\n          tag_318\n          jumpi\n          dup1\n          0x1f\n          lt\n          tag_319\n          jumpi\n          0x0100\n          dup1\n          dup4\n          sload\n          div\n          mul\n          dup4\n          mstore\n          swap2\n          0x20\n          add\n          swap2\n          jump(tag_318)\n        tag_319:\n          dup3\n          add\n          swap2\n          swap1\n          0x00\n          mstore\n          keccak256(0x00, 0x20)\n          swap1\n        tag_320:\n          dup2\n          sload\n          dup2\n          mstore\n          swap1\n          0x01\n          add\n          swap1\n          0x20\n          add\n          dup1\n          dup4\n          gt\n          tag_320\n          jumpi\n          dup3\n          swap1\n          sub\n          0x1f\n          and\n          dup3\n          add\n          swap2\n        tag_318:\n          pop\n          pop\n          pop\n          pop\n          pop\n          dup2\n          mstore\n          0x20\n          add\n          0x02\n          dup3\n          add\n          sload\n          dup2\n          mstore\n          0x20\n          add\n          0x03\n          dup3\n          add\n          dup1\n          sload\n          tag_321\n          swap1\n          tag_164\n          jump\t// in\n        tag_321:\n          dup1\n          0x1f\n          add\n          0x20\n          dup1\n          swap2\n          div\n          mul\n          0x20\n          add\n          mload(0x40)\n          swap1\n          dup2\n          add\n          0x40\n          mstore\n          dup1\n          swap3\n          swap2\n          swap1\n          dup2\n          dup2\n          mstore\n          0x20\n          add\n          dup3\n          dup1\n          sload\n          tag_322\n          swap1\n          tag_164\n          jump\t// in\n        tag_322:\n          dup1\n          iszero\n          tag_323\n          jumpi\n          dup1\n          0x1f\n          lt\n          tag_324\n          jumpi\n          0x0100\n          dup1\n          dup4\n          sload\n          div\n          mul\n          dup4\n          mstore\n          swap2\n          0x20\n          add\n          swap2\n          jump(tag_323)\n        tag_324:\n          dup3\n          add\n          swap2\n          swap1\n          0x00\n          mstore\n          keccak256(0x00, 0x20)\n          swap1\n        tag_325:\n          dup2\n          sload\n          dup2\n          mstore\n          swap1\n          0x01\n          add\n          swap1\n          0x20\n          add\n          dup1\n          dup4\n          gt\n          tag_325\n          jumpi\n          dup3\n          swap1\n          sub\n          0x1f\n          and\n          dup3\n          add\n          swap2\n        tag_323:\n          pop\n          pop\n          pop\n          pop\n          pop\n          dup2\n          mstore\n          0x20\n          add\n          0x04\n          dup3\n          add\n          dup1\n          sload\n          tag_326\n          swap1\n          tag_164\n          jump\t// in\n        tag_326:\n          dup1\n          0x1f\n          add\n          0x20\n          dup1\n          swap2\n          div\n          mul\n          0x20\n          add\n          mload(0x40)\n          swap1\n          dup2\n          add\n          0x40\n          mstore\n          dup1\n          swap3\n          swap2\n          swap1\n          dup2\n          dup2\n          mstore\n          0x20\n          add\n          dup3\n          dup1\n          sload\n          tag_327\n          swap1\n          tag_164\n          jump\t// in\n        tag_327:\n          dup1\n          iszero\n          tag_328\n          jumpi\n          dup1\n          0x1f\n          lt\n          tag_329\n          jumpi\n          0x0100\n          dup1\n          dup4\n          sload\n          div\n          mul\n          dup4\n          mstore\n          swap2\n          0x20\n          add\n          swap2\n          jump(tag_328)\n        tag_329:\n          dup3\n          add\n          swap2\n          swap1\n          0x00\n          mstore\n          keccak256(0x00, 0x20)\n          swap1\n        tag_330:\n          dup2\n          sload\n          dup2\n          mstore\n          swap1\n          0x01\n          add\n          swap1\n          0x20\n          add\n          dup1\n          dup4\n          gt\n          tag_330\n          jumpi\n          dup3\n          swap1\n          sub\n          0x1f\n          and\n          dup3\n          add\n          swap2\n        tag_328:\n          pop\n          pop\n          pop\n          pop\n          pop\n          dup2\n          mstore\n          pop\n          pop\n          swap2\n          pop\n          dup1\n          dup1\n          sload\n          dup1\n          0x20\n          mul\n          0x20\n          add\n          mload(0x40)\n          swap1\n          dup2\n          add\n          0x40\n          mstore\n          dup1\n          swap3\n          swap2\n          swap1\n          dup2\n          dup2\n          mstore\n          0x20\n          add\n          0x00\n          swap1\n        tag_331:\n          dup3\n          dup3\n          lt\n          iszero\n          tag_332\n          jumpi\n          dup4\n          dup3\n          swap1\n          0x00\n          mstore\n          keccak256(0x00, 0x20)\n          swap1\n          0x0d\n          mul\n          add\n          mload(0x40)\n          dup1\n          0x01a0\n          add\n          0x40\n          mstore\n          swap1\n          dup2\n          0x00\n          dup3\n          add\n          0x00\n          swap1\n          sload\n          swap1\n          0x0100\n          exp\n          swap1\n          div\n          0xffffffffffffffffffffffffffffffffffffffff\n          and\n          0xffffffffffffffffffffffffffffffffffffffff\n          and\n          0xffffffffffffffffffffffffffffffffffffffff\n          and\n          dup2\n          mstore\n          0x20\n          add\n          0x01\n          dup3\n          add\n          dup1\n          sload\n          tag_334\n          swap1\n          tag_164\n          jump\t// in\n        tag_334:\n          dup1\n          0x1f\n          add\n          0x20\n          dup1\n          swap2\n          div\n          mul\n          0x20\n          add\n          mload(0x40)\n          swap1\n          dup2\n          add\n          0x40\n          mstore\n          dup1\n          swap3\n          swap2\n          swap1\n          dup2\n          dup2\n          mstore\n          0x20\n          add\n          dup3\n          dup1\n          sload\n          tag_335\n          swap1\n          tag_164\n          jump\t// in\n        tag_335:\n          dup1\n          iszero\n          tag_336\n          jumpi\n          dup1\n          0x1f\n          lt\n          tag_337\n          jumpi\n          0x0100\n          dup1\n          dup4\n          sload\n          div\n          mul\n          dup4\n          mstore\n          swap2\n          0x20\n          add\n          swap2\n          jump(tag_336)\n        tag_337:\n          dup3\n          add\n          swap2\n          swap1\n          0x00\n          mstore\n          keccak256(0x00, 0x20)\n          swap1\n        tag_338:\n          dup2\n          sload\n          dup2\n          mstore\n          swap1\n          0x01\n          add\n          swap1\n          0x20\n          add\n          dup1\n          dup4\n          gt\n          tag_338\n          jumpi\n          dup3\n          swap1\n          sub\n          0x1f\n          and\n          dup3\n          add\n          swap2\n        tag_336:\n          pop\n          pop\n          pop\n          pop\n          pop\n          dup2\n          mstore\n          0x20\n          add\n          0x02\n          dup3\n          add\n          dup1\n          sload\n          tag_339\n          swap1\n          tag_164\n          jump\t// in\n        tag_339:\n          dup1\n          0x1f\n          add\n          0x20\n          dup1\n          swap2\n          div\n          mul\n          0x20\n          add\n          mload(0x40)\n          swap1\n          dup2\n          add\n          0x40\n          mstore\n          dup1\n          swap3\n          swap2\n          swap1\n          dup2\n          dup2\n          mstore\n          0x20\n          add\n          dup3\n          dup1\n          sload\n          tag_340\n          swap1\n          tag_164\n          jump\t// in\n        tag_340:\n          dup1\n          iszero\n          tag_341\n          jumpi\n          dup1\n          0x1f\n          lt\n          tag_342\n          jumpi\n          0x0100\n          dup1\n          dup4\n          sload\n          div\n          mul\n          dup4\n          mstore\n          swap2\n          0x20\n          add\n          swap2\n          jump(tag_341)\n        tag_342:\n          dup3\n          add\n          swap2\n          swap1\n          0x00\n          mstore\n          keccak256(0x00, 0x20)\n          swap1\n        tag_343:\n          dup2\n          sload\n          dup2\n          mstore\n          swap1\n          0x01\n          add\n          swap1\n          0x20\n          add\n          dup1\n          dup4\n          gt\n          tag_343\n          jumpi\n          dup3\n          swap1\n          sub\n          0x1f\n          and\n          dup3\n          add\n          swap2\n        tag_341:\n          pop\n          pop\n          pop\n          pop\n          pop\n          dup2\n          mstore\n          0x20\n          add\n          0x03\n          dup3\n          add\n          dup1\n          sload\n          tag_344\n          swap1\n          tag_164\n          jump\t// in\n        tag_344:\n          dup1\n          0x1f\n          add\n          0x20\n          dup1\n          swap2\n          div\n          mul\n          0x20\n          add\n          mload(0x40)\n          swap1\n          dup2\n          add\n          0x40\n          mstore\n          dup1\n          swap3\n          swap2\n          swap1\n          dup2\n          dup2\n          mstore\n          0x20\n          add\n          dup3\n          dup1\n          sload\n          tag_345\n          swap1\n          tag_164\n          jump\t// in\n        tag_345:\n          dup1\n          iszero\n          tag_346\n          jumpi\n          dup1\n          0x1f\n          lt\n          tag_347\n          jumpi\n          0x0100\n          dup1\n          dup4\n          sload\n          div\n          mul\n          dup4\n          mstore\n          swap2\n          0x20\n          add\n          swap2\n          jump(tag_346)\n        tag_347:\n          dup3\n          add\n          swap2\n          swap1\n          0x00\n          mstore\n          keccak256(0x00, 0x20)\n          swap1\n        tag_348:\n          dup2\n          sload\n          dup2\n          mstore\n          swap1\n          0x01\n          add\n          swap1\n          0x20\n          add\n          dup1\n          dup4\n          gt\n          tag_348\n          jumpi\n          dup3\n          swap1\n          sub\n          0x1f\n          and\n          dup3\n          add\n          swap2\n        tag_346:\n          pop\n          pop\n          pop\n          pop\n          pop\n          dup2\n          mstore\n          0x20\n          add\n          0x04\n          dup3\n          add\n          dup1\n          sload\n          tag_349\n          swap1\n          tag_164\n          jump\t// in\n        tag_349:\n          dup1\n          0x1f\n          add\n          0x20\n          dup1\n          swap2\n          div\n          mul\n          0x20\n          add\n          mload(0x40)\n          swap1\n          dup2\n          add\n          0x40\n          mstore\n          dup1\n          swap3\n          swap2\n          swap1\n          dup2\n          dup2\n          mstore\n          0x20\n          add\n          dup3\n          dup1\n          sload\n          tag_350\n          swap1\n          tag_164\n          jump\t// in\n        tag_350:\n          dup1\n          iszero\n          tag_351\n          jumpi\n          dup1\n          0x1f\n          lt\n          tag_352\n          jumpi\n          0x0100\n          dup1\n          dup4\n          sload\n          div\n          mul\n          dup4\n          mstore\n          swap2\n          0x20\n          add\n          swap2\n          jump(tag_351)\n        tag_352:\n          dup3\n          add\n          swap2\n          swap1\n          0x00\n          mstore\n          keccak256(0x00, 0x20)\n          swap1\n        tag_353:\n          dup2\n          sload\n          dup2\n          mstore\n          swap1\n          0x01\n          add\n          swap1\n          0x20\n          add\n          dup1\n          dup4\n          gt\n          tag_353\n          jumpi\n          dup3\n          swap1\n          sub\n          0x1f\n          and\n          dup3\n          add\n          swap2\n        tag_351:\n          pop\n          pop\n          pop\n          pop\n          pop\n          dup2\n          mstore\n          0x20\n          add\n          0x05\n          dup3\n          add\n          dup1\n          sload\n          tag_354\n          swap1\n          tag_164\n          jump\t// in\n        tag_354:\n          dup1\n          0x1f\n          add\n          0x20\n          dup1\n          swap2\n          div\n          mul\n          0x20\n          add\n          mload(0x40)\n          swap1\n          dup2\n          add\n          0x40\n          mstore\n          dup1\n          swap3\n          swap2\n          swap1\n          dup2\n          dup2\n          mstore\n          0x20\n          add\n          dup3\n          dup1\n          sload\n          tag_355\n          swap1\n          tag_164\n          jump\t// in\n        tag_355:\n          dup1\n          iszero\n          tag_356\n          jumpi\n          dup1\n          0x1f\n          lt\n          tag_357\n          jumpi\n          0x0100\n          dup1\n          dup4\n          sload\n          div\n          mul\n          dup4\n          mstore\n          swap2\n          0x20\n          add\n          swap2\n          jump(tag_356)\n        tag_357:\n          dup3\n          add\n          swap2\n          swap1\n          0x00\n          mstore\n          keccak256(0x00, 0x20)\n          swap1\n        tag_358:\n          dup2\n          sload\n          dup2\n          mstore\n          swap1\n          0x01\n          add\n          swap1\n          0x20\n          add\n          dup1\n          dup4\n          gt\n          tag_358\n          jumpi\n          dup3\n          swap1\n          sub\n          0x1f\n          and\n          dup3\n          add\n          swap2\n        tag_356:\n          pop\n          pop\n          pop\n          pop\n          pop\n          dup2\n          mstore\n          0x20\n          add\n          0x06\n          dup3\n          add\n          dup1\n          sload\n          tag_359\n          swap1\n          tag_164\n          jump\t// in\n        tag_359:\n          dup1\n          0x1f\n          add\n          0x20\n          dup1\n          swap2\n          div\n          mul\n          0x20\n          add\n          mload(0x40)\n          swap1\n          dup2\n          add\n          0x40\n          mstore\n          dup1\n          swap3\n          swap2\n          swap1\n          dup2\n          dup2\n          mstore\n          0x20\n          add\n          dup3\n          dup1\n          sload\n          tag_360\n          swap1\n          tag_164\n          jump\t// in\n        tag_360:\n          dup1\n          iszero\n          tag_361\n          jumpi\n          dup1\n          0x1f\n          lt\n          tag_362\n          jumpi\n          0x0100\n          dup1\n          dup4\n          sload\n          div\n          mul\n          dup4\n          mstore\n          swap2\n          0x20\n          add\n          swap2\n          jump(tag_361)\n        tag_362:\n          dup3\n          add\n          swap2\n          swap1\n          0x00\n          mstore\n          keccak256(0x00, 0x20)\n          swap1\n        tag_363:\n          dup2\n          sload\n          dup2\n          mstore\n          swap1\n          0x01\n          add\n          swap1\n          0x20\n          add\n          dup1\n          dup4\n          gt\n          tag_363\n          jumpi\n          dup3\n          swap1\n          sub\n          0x1f\n          and\n          dup3\n          add\n          swap2\n        tag_361:\n          pop\n          pop\n          pop\n          pop\n          pop\n          dup2\n          mstore\n          0x20\n          add\n          0x07\n          dup3\n          add\n          dup1\n          sload\n          tag_364\n          swap1\n          tag_164\n          jump\t// in\n        tag_364:\n          dup1\n          0x1f\n          add\n          0x20\n          dup1\n          swap2\n          div\n          mul\n          0x20\n          add\n          mload(0x40)\n          swap1\n          dup2\n          add\n          0x40\n          mstore\n          dup1\n          swap3\n          swap2\n          swap1\n          dup2\n          dup2\n          mstore\n          0x20\n          add\n          dup3\n          dup1\n          sload\n          tag_365\n          swap1\n          tag_164\n          jump\t// in\n        tag_365:\n          dup1\n          iszero\n          tag_366\n          jumpi\n          dup1\n          0x1f\n          lt\n          tag_367\n          jumpi\n          0x0100\n          dup1\n          dup4\n          sload\n          div\n          mul\n          dup4\n          mstore\n          swap2\n          0x20\n          add\n          swap2\n          jump(tag_366)\n        tag_367:\n          dup3\n          add\n          swap2\n          swap1\n          0x00\n          mstore\n          keccak256(0x00, 0x20)\n          swap1\n        tag_368:\n          dup2\n          sload\n          dup2\n          mstore\n          swap1\n          0x01\n          add\n          swap1\n          0x20\n          add\n          dup1\n          dup4\n          gt\n          tag_368\n          jumpi\n          dup3\n          swap1\n          sub\n          0x1f\n          and\n          dup3\n          add\n          swap2\n        tag_366:\n          pop\n          pop\n          pop\n          pop\n          pop\n          dup2\n          mstore\n          0x20\n          add\n          0x08\n          dup3\n          add\n          0x00\n          swap1\n          sload\n          swap1\n          0x0100\n          exp\n          swap1\n          div\n          0xff\n          and\n          iszero\n          iszero\n          iszero\n          iszero\n          dup2\n          mstore\n          0x20\n          add\n          0x09\n          dup3\n          add\n          dup1\n          sload\n          tag_369\n          swap1\n          tag_164\n          jump\t// in\n        tag_369:\n          dup1\n          0x1f\n          add\n          0x20\n          dup1\n          swap2\n          div\n          mul\n          0x20\n          add\n          mload(0x40)\n          swap1\n          dup2\n          add\n          0x40\n          mstore\n          dup1\n          swap3\n          swap2\n          swap1\n          dup2\n          dup2\n          mstore\n          0x20\n          add\n          dup3\n          dup1\n          sload\n          tag_370\n          swap1\n          tag_164\n          jump\t// in\n        tag_370:\n          dup1\n          iszero\n          tag_371\n          jumpi\n          dup1\n          0x1f\n          lt\n          tag_372\n          jumpi\n          0x0100\n          dup1\n          dup4\n          sload\n          div\n          mul\n          dup4\n          mstore\n          swap2\n          0x20\n          add\n          swap2\n          jump(tag_371)\n        tag_372:\n          dup3\n          add\n          swap2\n          swap1\n          0x00\n          mstore\n          keccak256(0x00, 0x20)\n          swap1\n        tag_373:\n          dup2\n          sload\n          dup2\n          mstore\n          swap1\n          0x01\n          add\n          swap1\n          0x20\n          add\n          dup1\n          dup4\n          gt\n          tag_373\n          jumpi\n          dup3\n          swap1\n          sub\n          0x1f\n          and\n          dup3\n          add\n          swap2\n        tag_371:\n          pop\n          pop\n          pop\n          pop\n          pop\n          dup2\n          mstore\n          0x20\n          add\n          0x0a\n          dup3\n          add\n          dup1\n          sload\n          tag_374\n          swap1\n          tag_164\n          jump\t// in\n        tag_374:\n          dup1\n          0x1f\n          add\n          0x20\n          dup1\n          swap2\n          div\n          mul\n          0x20\n          add\n          mload(0x40)\n          swap1\n          dup2\n          add\n          0x40\n          mstore\n          dup1\n          swap3\n          swap2\n          swap1\n          dup2\n          dup2\n          mstore\n          0x20\n          add\n          dup3\n          dup1\n          sload\n          tag_375\n          swap1\n          tag_164\n          jump\t// in\n        tag_375:\n          dup1\n          iszero\n          tag_376\n          jumpi\n          dup1\n          0x1f\n          lt\n          tag_377\n          jumpi\n          0x0100\n          dup1\n          dup4\n          sload\n          div\n          mul\n          dup4\n          mstore\n          swap2\n          0x20\n          add\n          swap2\n          jump(tag_376)\n        tag_377:\n          dup3\n          add\n          swap2\n          swap1\n          0x00\n          mstore\n          keccak256(0x00, 0x20)\n          swap1\n        tag_378:\n          dup2\n          sload\n          dup2\n          mstore\n          swap1\n          0x01\n          add\n          swap1\n          0x20\n          add\n          dup1\n          dup4\n          gt\n          tag_378\n          jumpi\n          dup3\n          swap1\n          sub\n          0x1f\n          and\n          dup3\n          add\n          swap2\n        tag_376:\n          pop\n          pop\n          pop\n          pop\n          pop\n          dup2\n          mstore\n          0x20\n          add\n          0x0b\n          dup3\n          add\n          0x00\n          swap1\n          sload\n          swap1\n          0x0100\n          exp\n          swap1\n          div\n          0xffffffffffffffffffffffffffffffffffffffff\n          and\n          0xffffffffffffffffffffffffffffffffffffffff\n          and\n          0xffffffffffffffffffffffffffffffffffffffff\n          and\n          dup2\n          mstore\n          0x20\n          add\n          0x0c\n          dup3\n          add\n          dup1\n          sload\n          tag_379\n          swap1\n          tag_164\n          jump\t// in\n        tag_379:\n          dup1\n          0x1f\n          add\n          0x20\n          dup1\n          swap2\n          div\n          mul\n          0x20\n          add\n          mload(0x40)\n          swap1\n          dup2\n          add\n          0x40\n          mstore\n          dup1\n          swap3\n          swap2\n          swap1\n          dup2\n          dup2\n          mstore\n          0x20\n          add\n          dup3\n          dup1\n          sload\n          tag_380\n          swap1\n          tag_164\n          jump\t// in\n        tag_380:\n          dup1\n          iszero\n          tag_381\n          jumpi\n          dup1\n          0x1f\n          lt\n          tag_382\n          jumpi\n          0x0100\n          dup1\n          dup4\n          sload\n          div\n          mul\n          dup4\n          mstore\n          swap2\n          0x20\n          add\n          swap2\n          jump(tag_381)\n        tag_382:\n          dup3\n          add\n          swap2\n          swap1\n          0x00\n          mstore\n          keccak256(0x00, 0x20)\n          swap1\n        tag_383:\n          dup2\n          sload\n          dup2\n          mstore\n          swap1\n          0x01\n          add\n          swap1\n          0x20\n          add\n          dup1\n          dup4\n          gt\n          tag_383\n          jumpi\n          dup3\n          swap1\n          sub\n          0x1f\n          and\n          dup3\n          add\n          swap2\n        tag_381:\n          pop\n          pop\n          pop\n          pop\n          pop\n          dup2\n          mstore\n          pop\n          pop\n          dup2\n          mstore\n          0x20\n          add\n          swap1\n          0x01\n          add\n          swap1\n          jump(tag_331)\n        tag_332:\n          pop\n          pop\n          pop\n          pop\n          swap1\n          pop\n          swap2\n          pop\n          swap2\n          pop\n            /* \"ElectronicMedicalRecords.sol\":9853:10025  function getInPatient(address add) onlyDoctor public view returns(IdentitasPasien memory a, RawatInap[] memory b) {... */\n          swap2\n          pop\n          swap2\n          jump\t// out\n        tag_60:\n          mload(0x40)\n          dup1\n          0xa0\n          add\n          0x40\n          mstore\n          dup1\n          and(0xffffffffffffffffffffffffffffffffffffffff, 0x00)\n          dup2\n          mstore\n          0x20\n          add\n          0x60\n          dup2\n          mstore\n          0x20\n          add\n          0x00\n          dup2\n          mstore\n          0x20\n          add\n          0x60\n          dup2\n          mstore\n          0x20\n          add\n          0x60\n          dup2\n          mstore\n          pop\n          swap1\n          jump\t// out\n        tag_66:\n          mload(0x40)\n          dup1\n          0x01a0\n          add\n          0x40\n          mstore\n          dup1\n          and(0xffffffffffffffffffffffffffffffffffffffff, 0x00)\n          dup2\n          mstore\n          0x20\n          add\n          0x60\n          dup2\n          mstore\n          0x20\n          add\n          0x60\n          dup2\n          mstore\n          0x20\n          add\n          0x60\n          dup2\n          mstore\n          0x20\n          add\n          0x60\n          dup2\n          mstore\n          0x20\n          add\n          0x60\n          dup2\n          mstore\n          0x20\n          add\n          0x60\n          dup2\n          mstore\n          0x20\n          add\n          0x60\n          dup2\n          mstore\n          0x20\n          add\n          iszero(iszero(0x00))\n          dup2\n          mstore\n          0x20\n          add\n          0x60\n          dup2\n          mstore\n          0x20\n          add\n          0x60\n          dup2\n          mstore\n          0x20\n          add\n          and(0xffffffffffffffffffffffffffffffffffffffff, 0x00)\n          dup2\n          mstore\n          0x20\n          add\n          0x60\n          dup2\n          mstore\n          pop\n          swap1\n          jump\t// out\n        tag_100:\n          mload(0x40)\n          dup1\n          0x0140\n          add\n          0x40\n          mstore\n          dup1\n          and(0xffffffffffffffffffffffffffffffffffffffff, 0x00)\n          dup2\n          mstore\n          0x20\n          add\n          0x60\n          dup2\n          mstore\n          0x20\n          add\n          0x60\n          dup2\n          mstore\n          0x20\n          add\n          0x60\n          dup2\n          mstore\n          0x20\n          add\n          0x60\n          dup2\n          mstore\n          0x20\n          add\n          0x60\n          dup2\n          mstore\n          0x20\n          add\n          0x60\n          dup2\n          mstore\n          0x20\n          add\n          0x60\n          dup2\n          mstore\n          0x20\n          add\n          0x60\n          dup2\n          mstore\n          0x20\n          add\n          iszero(iszero(0x00))\n          dup2\n          mstore\n          pop\n          swap1\n          jump\t// out\n        tag_128:\n          mload(0x40)\n          dup1\n          0xa0\n          add\n          0x40\n          mstore\n          dup1\n          and(0xffffffffffffffffffffffffffffffffffffffff, 0x00)\n          dup2\n          mstore\n          0x20\n          add\n          0x60\n          dup2\n          mstore\n          0x20\n          add\n          0x60\n          dup2\n          mstore\n          0x20\n          add\n          0x00\n          dup2\n          mstore\n          0x20\n          add\n          0x60\n          dup2\n          mstore\n          pop\n          swap1\n          jump\t// out\n        tag_133:\n          mload(0x40)\n          dup1\n          0x01c0\n          add\n          0x40\n          mstore\n          dup1\n          and(0xffffffffffffffffffffffffffffffffffffffff, 0x00)\n          dup2\n          mstore\n          0x20\n          add\n          0x60\n          dup2\n          mstore\n          0x20\n          add\n          0x60\n          dup2\n          mstore\n          0x20\n          add\n          0x60\n          dup2\n          mstore\n          0x20\n          add\n          0x60\n          dup2\n          mstore\n          0x20\n          add\n          0x60\n          dup2\n          mstore\n          0x20\n          add\n          0x60\n          dup2\n          mstore\n          0x20\n          add\n          0x60\n          dup2\n          mstore\n          0x20\n          add\n          0x60\n          dup2\n          mstore\n          0x20\n          add\n          0x60\n          dup2\n          mstore\n          0x20\n          add\n          0x60\n          dup2\n          mstore\n          0x20\n          add\n          and(0xffffffffffffffffffffffffffffffffffffffff, 0x00)\n          dup2\n          mstore\n          0x20\n          add\n          0x60\n          dup2\n          mstore\n          0x20\n          add\n          0x60\n          dup2\n          mstore\n          pop\n          swap1\n          jump\t// out\n            /* \"#utility.yul\":7:82   */\n        tag_384:\n            /* \"#utility.yul\":40:46   */\n          0x00\n            /* \"#utility.yul\":73:75   */\n          0x40\n            /* \"#utility.yul\":67:76   */\n          mload\n            /* \"#utility.yul\":57:76   */\n          swap1\n          pop\n            /* \"#utility.yul\":7:82   */\n          swap1\n          jump\t// out\n            /* \"#utility.yul\":88:205   */\n        tag_385:\n            /* \"#utility.yul\":197:198   */\n          0x00\n            /* \"#utility.yul\":194:195   */\n          dup1\n            /* \"#utility.yul\":187:199   */\n          revert\n            /* \"#utility.yul\":211:328   */\n        tag_386:\n            /* \"#utility.yul\":320:321   */\n          0x00\n            /* \"#utility.yul\":317:318   */\n          dup1\n            /* \"#utility.yul\":310:322   */\n          revert\n            /* \"#utility.yul\":334:451   */\n        tag_387:\n            /* \"#utility.yul\":443:444   */\n          0x00\n            /* \"#utility.yul\":440:441   */\n          dup1\n            /* \"#utility.yul\":433:445   */\n          revert\n            /* \"#utility.yul\":457:559   */\n        tag_388:\n            /* \"#utility.yul\":498:504   */\n          0x00\n            /* \"#utility.yul\":549:551   */\n          0x1f\n            /* \"#utility.yul\":545:552   */\n          not\n            /* \"#utility.yul\":540:542   */\n          0x1f\n            /* \"#utility.yul\":533:538   */\n          dup4\n            /* \"#utility.yul\":529:543   */\n          add\n            /* \"#utility.yul\":525:553   */\n          and\n            /* \"#utility.yul\":515:553   */\n          swap1\n          pop\n            /* \"#utility.yul\":457:559   */\n          swap2\n          swap1\n          pop\n          jump\t// out\n            /* \"#utility.yul\":565:745   */\n        tag_389:\n            /* \"#utility.yul\":613:690   */\n          0x4e487b7100000000000000000000000000000000000000000000000000000000\n            /* \"#utility.yul\":610:611   */\n          0x00\n            /* \"#utility.yul\":603:691   */\n          mstore\n            /* \"#utility.yul\":710:714   */\n          0x41\n            /* \"#utility.yul\":707:708   */\n          0x04\n            /* \"#utility.yul\":700:715   */\n          mstore\n            /* \"#utility.yul\":734:738   */\n          0x24\n            /* \"#utility.yul\":731:732   */\n          0x00\n            /* \"#utility.yul\":724:739   */\n          revert\n            /* \"#utility.yul\":751:1032   */\n        tag_390:\n            /* \"#utility.yul\":834:861   */\n          tag_472\n            /* \"#utility.yul\":856:860   */\n          dup3\n            /* \"#utility.yul\":834:861   */\n          tag_388\n          jump\t// in\n        tag_472:\n            /* \"#utility.yul\":826:832   */\n          dup2\n            /* \"#utility.yul\":822:862   */\n          add\n            /* \"#utility.yul\":964:970   */\n          dup2\n            /* \"#utility.yul\":952:962   */\n          dup2\n            /* \"#utility.yul\":949:971   */\n          lt\n            /* \"#utility.yul\":928:946   */\n          0xffffffffffffffff\n            /* \"#utility.yul\":916:926   */\n          dup3\n            /* \"#utility.yul\":913:947   */\n          gt\n            /* \"#utility.yul\":910:972   */\n          or\n            /* \"#utility.yul\":907:995   */\n          iszero\n          tag_473\n          jumpi\n            /* \"#utility.yul\":975:993   */\n          tag_474\n          tag_389\n          jump\t// in\n        tag_474:\n            /* \"#utility.yul\":907:995   */\n        tag_473:\n            /* \"#utility.yul\":1015:1025   */\n          dup1\n            /* \"#utility.yul\":1011:1013   */\n          0x40\n            /* \"#utility.yul\":1004:1026   */\n          mstore\n            /* \"#utility.yul\":794:1032   */\n          pop\n            /* \"#utility.yul\":751:1032   */\n          pop\n          pop\n          jump\t// out\n            /* \"#utility.yul\":1038:1167   */\n        tag_391:\n            /* \"#utility.yul\":1072:1078   */\n          0x00\n            /* \"#utility.yul\":1099:1119   */\n          tag_476\n          tag_384\n          jump\t// in\n        tag_476:\n            /* \"#utility.yul\":1089:1119   */\n          swap1\n          pop\n            /* \"#utility.yul\":1128:1161   */\n          tag_477\n            /* \"#utility.yul\":1156:1160   */\n          dup3\n            /* \"#utility.yul\":1148:1154   */\n          dup3\n            /* \"#utility.yul\":1128:1161   */\n          tag_390\n          jump\t// in\n        tag_477:\n            /* \"#utility.yul\":1038:1167   */\n          swap2\n          swap1\n          pop\n          jump\t// out\n            /* \"#utility.yul\":1173:1290   */\n        tag_392:\n            /* \"#utility.yul\":1282:1283   */\n          0x00\n            /* \"#utility.yul\":1279:1280   */\n          dup1\n            /* \"#utility.yul\":1272:1284   */\n          revert\n            /* \"#utility.yul\":1296:1422   */\n        tag_393:\n            /* \"#utility.yul\":1333:1340   */\n          0x00\n            /* \"#utility.yul\":1373:1415   */\n          0xffffffffffffffffffffffffffffffffffffffff\n            /* \"#utility.yul\":1366:1371   */\n          dup3\n            /* \"#utility.yul\":1362:1416   */\n          and\n            /* \"#utility.yul\":1351:1416   */\n          swap1\n          pop\n            /* \"#utility.yul\":1296:1422   */\n          swap2\n          swap1\n          pop\n          jump\t// out\n            /* \"#utility.yul\":1428:1524   */\n        tag_394:\n            /* \"#utility.yul\":1465:1472   */\n          0x00\n            /* \"#utility.yul\":1494:1518   */\n          tag_481\n            /* \"#utility.yul\":1512:1517   */\n          dup3\n            /* \"#utility.yul\":1494:1518   */\n          tag_393\n          jump\t// in\n        tag_481:\n            /* \"#utility.yul\":1483:1518   */\n          swap1\n          pop\n            /* \"#utility.yul\":1428:1524   */\n          swap2\n          swap1\n          pop\n          jump\t// out\n            /* \"#utility.yul\":1530:1652   */\n        tag_395:\n            /* \"#utility.yul\":1603:1627   */\n          tag_483\n            /* \"#utility.yul\":1621:1626   */\n          dup2\n            /* \"#utility.yul\":1603:1627   */\n          tag_394\n          jump\t// in\n        tag_483:\n            /* \"#utility.yul\":1596:1601   */\n          dup2\n            /* \"#utility.yul\":1593:1628   */\n          eq\n            /* \"#utility.yul\":1583:1646   */\n          tag_484\n          jumpi\n            /* \"#utility.yul\":1642:1643   */\n          0x00\n            /* \"#utility.yul\":1639:1640   */\n          dup1\n            /* \"#utility.yul\":1632:1644   */\n          revert\n            /* \"#utility.yul\":1583:1646   */\n        tag_484:\n            /* \"#utility.yul\":1530:1652   */\n          pop\n          jump\t// out\n            /* \"#utility.yul\":1658:1797   */\n        tag_396:\n            /* \"#utility.yul\":1704:1709   */\n          0x00\n            /* \"#utility.yul\":1742:1748   */\n          dup2\n            /* \"#utility.yul\":1729:1749   */\n          calldataload\n            /* \"#utility.yul\":1720:1749   */\n          swap1\n          pop\n            /* \"#utility.yul\":1758:1791   */\n          tag_486\n            /* \"#utility.yul\":1785:1790   */\n          dup2\n            /* \"#utility.yul\":1758:1791   */\n          tag_395\n          jump\t// in\n        tag_486:\n            /* \"#utility.yul\":1658:1797   */\n          swap3\n          swap2\n          pop\n          pop\n          jump\t// out\n            /* \"#utility.yul\":1803:1920   */\n        tag_397:\n            /* \"#utility.yul\":1912:1913   */\n          0x00\n            /* \"#utility.yul\":1909:1910   */\n          dup1\n            /* \"#utility.yul\":1902:1914   */\n          revert\n            /* \"#utility.yul\":1926:2043   */\n        tag_398:\n            /* \"#utility.yul\":2035:2036   */\n          0x00\n            /* \"#utility.yul\":2032:2033   */\n          dup1\n            /* \"#utility.yul\":2025:2037   */\n          revert\n            /* \"#utility.yul\":2049:2357   */\n        tag_399:\n            /* \"#utility.yul\":2111:2115   */\n          0x00\n            /* \"#utility.yul\":2201:2219   */\n          0xffffffffffffffff\n            /* \"#utility.yul\":2193:2199   */\n          dup3\n            /* \"#utility.yul\":2190:2220   */\n          gt\n            /* \"#utility.yul\":2187:2243   */\n          iszero\n          tag_490\n          jumpi\n            /* \"#utility.yul\":2223:2241   */\n          tag_491\n          tag_389\n          jump\t// in\n        tag_491:\n            /* \"#utility.yul\":2187:2243   */\n        tag_490:\n            /* \"#utility.yul\":2261:2290   */\n          tag_492\n            /* \"#utility.yul\":2283:2289   */\n          dup3\n            /* \"#utility.yul\":2261:2290   */\n          tag_388\n          jump\t// in\n        tag_492:\n            /* \"#utility.yul\":2253:2290   */\n          swap1\n          pop\n            /* \"#utility.yul\":2345:2349   */\n          0x20\n            /* \"#utility.yul\":2339:2343   */\n          dup2\n            /* \"#utility.yul\":2335:2350   */\n          add\n            /* \"#utility.yul\":2327:2350   */\n          swap1\n          pop\n            /* \"#utility.yul\":2049:2357   */\n          swap2\n          swap1\n          pop\n          jump\t// out\n            /* \"#utility.yul\":2363:2509   */\n        tag_400:\n            /* \"#utility.yul\":2460:2466   */\n          dup3\n            /* \"#utility.yul\":2455:2458   */\n          dup2\n            /* \"#utility.yul\":2450:2453   */\n          dup4\n            /* \"#utility.yul\":2437:2467   */\n          calldatacopy\n            /* \"#utility.yul\":2501:2502   */\n          0x00\n            /* \"#utility.yul\":2492:2498   */\n          dup4\n            /* \"#utility.yul\":2487:2490   */\n          dup4\n            /* \"#utility.yul\":2483:2499   */\n          add\n            /* \"#utility.yul\":2476:2503   */\n          mstore\n            /* \"#utility.yul\":2363:2509   */\n          pop\n          pop\n          pop\n          jump\t// out\n            /* \"#utility.yul\":2515:2940   */\n        tag_401:\n            /* \"#utility.yul\":2593:2598   */\n          0x00\n            /* \"#utility.yul\":2618:2684   */\n          tag_495\n            /* \"#utility.yul\":2634:2683   */\n          tag_496\n            /* \"#utility.yul\":2676:2682   */\n          dup5\n            /* \"#utility.yul\":2634:2683   */\n          tag_399\n          jump\t// in\n        tag_496:\n            /* \"#utility.yul\":2618:2684   */\n          tag_391\n          jump\t// in\n        tag_495:\n            /* \"#utility.yul\":2609:2684   */\n          swap1\n          pop\n            /* \"#utility.yul\":2707:2713   */\n          dup3\n            /* \"#utility.yul\":2700:2705   */\n          dup2\n            /* \"#utility.yul\":2693:2714   */\n          mstore\n            /* \"#utility.yul\":2745:2749   */\n          0x20\n            /* \"#utility.yul\":2738:2743   */\n          dup2\n            /* \"#utility.yul\":2734:2750   */\n          add\n            /* \"#utility.yul\":2783:2786   */\n          dup5\n            /* \"#utility.yul\":2774:2780   */\n          dup5\n            /* \"#utility.yul\":2769:2772   */\n          dup5\n            /* \"#utility.yul\":2765:2781   */\n          add\n            /* \"#utility.yul\":2762:2787   */\n          gt\n            /* \"#utility.yul\":2759:2871   */\n          iszero\n          tag_497\n          jumpi\n            /* \"#utility.yul\":2790:2869   */\n          tag_498\n          tag_398\n          jump\t// in\n        tag_498:\n            /* \"#utility.yul\":2759:2871   */\n        tag_497:\n            /* \"#utility.yul\":2880:2934   */\n          tag_499\n            /* \"#utility.yul\":2927:2933   */\n          dup5\n            /* \"#utility.yul\":2922:2925   */\n          dup3\n            /* \"#utility.yul\":2917:2920   */\n          dup6\n            /* \"#utility.yul\":2880:2934   */\n          tag_400\n          jump\t// in\n        tag_499:\n            /* \"#utility.yul\":2599:2940   */\n          pop\n            /* \"#utility.yul\":2515:2940   */\n          swap4\n          swap3\n          pop\n          pop\n          pop\n          jump\t// out\n            /* \"#utility.yul\":2960:3300   */\n        tag_402:\n            /* \"#utility.yul\":3016:3021   */\n          0x00\n            /* \"#utility.yul\":3065:3068   */\n          dup3\n            /* \"#utility.yul\":3058:3062   */\n          0x1f\n            /* \"#utility.yul\":3050:3056   */\n          dup4\n            /* \"#utility.yul\":3046:3063   */\n          add\n            /* \"#utility.yul\":3042:3069   */\n          slt\n            /* \"#utility.yul\":3032:3154   */\n          tag_501\n          jumpi\n            /* \"#utility.yul\":3073:3152   */\n          tag_502\n          tag_397\n          jump\t// in\n        tag_502:\n            /* \"#utility.yul\":3032:3154   */\n        tag_501:\n            /* \"#utility.yul\":3190:3196   */\n          dup2\n            /* \"#utility.yul\":3177:3197   */\n          calldataload\n            /* \"#utility.yul\":3215:3294   */\n          tag_503\n            /* \"#utility.yul\":3290:3293   */\n          dup5\n            /* \"#utility.yul\":3282:3288   */\n          dup3\n            /* \"#utility.yul\":3275:3279   */\n          0x20\n            /* \"#utility.yul\":3267:3273   */\n          dup7\n            /* \"#utility.yul\":3263:3280   */\n          add\n            /* \"#utility.yul\":3215:3294   */\n          tag_401\n          jump\t// in\n        tag_503:\n            /* \"#utility.yul\":3206:3294   */\n          swap2\n          pop\n            /* \"#utility.yul\":3022:3300   */\n          pop\n            /* \"#utility.yul\":2960:3300   */\n          swap3\n          swap2\n          pop\n          pop\n          jump\t// out\n            /* \"#utility.yul\":3306:3383   */\n        tag_403:\n            /* \"#utility.yul\":3343:3350   */\n          0x00\n            /* \"#utility.yul\":3372:3377   */\n          dup2\n            /* \"#utility.yul\":3361:3377   */\n          swap1\n          pop\n            /* \"#utility.yul\":3306:3383   */\n          swap2\n          swap1\n          pop\n          jump\t// out\n            /* \"#utility.yul\":3389:3511   */\n        tag_404:\n            /* \"#utility.yul\":3462:3486   */\n          tag_506\n            /* \"#utility.yul\":3480:3485   */\n          dup2\n            /* \"#utility.yul\":3462:3486   */\n          tag_403\n          jump\t// in\n        tag_506:\n            /* \"#utility.yul\":3455:3460   */\n          dup2\n            /* \"#utility.yul\":3452:3487   */\n          eq\n            /* \"#utility.yul\":3442:3505   */\n          tag_507\n          jumpi\n            /* \"#utility.yul\":3501:3502   */\n          0x00\n            /* \"#utility.yul\":3498:3499   */\n          dup1\n            /* \"#utility.yul\":3491:3503   */\n          revert\n            /* \"#utility.yul\":3442:3505   */\n        tag_507:\n            /* \"#utility.yul\":3389:3511   */\n          pop\n          jump\t// out\n            /* \"#utility.yul\":3517:3656   */\n        tag_405:\n            /* \"#utility.yul\":3563:3568   */\n          0x00\n            /* \"#utility.yul\":3601:3607   */\n          dup2\n            /* \"#utility.yul\":3588:3608   */\n          calldataload\n            /* \"#utility.yul\":3579:3608   */\n          swap1\n          pop\n            /* \"#utility.yul\":3617:3650   */\n          tag_509\n            /* \"#utility.yul\":3644:3649   */\n          dup2\n            /* \"#utility.yul\":3617:3650   */\n          tag_404\n          jump\t// in\n        tag_509:\n            /* \"#utility.yul\":3517:3656   */\n          swap3\n          swap2\n          pop\n          pop\n          jump\t// out\n            /* \"#utility.yul\":3707:5311   */\n        tag_406:\n            /* \"#utility.yul\":3788:3793   */\n          0x00\n            /* \"#utility.yul\":3832:3836   */\n          0xa0\n            /* \"#utility.yul\":3820:3829   */\n          dup3\n            /* \"#utility.yul\":3815:3818   */\n          dup5\n            /* \"#utility.yul\":3811:3830   */\n          sub\n            /* \"#utility.yul\":3807:3837   */\n          slt\n            /* \"#utility.yul\":3804:3921   */\n          iszero\n          tag_511\n          jumpi\n            /* \"#utility.yul\":3840:3919   */\n          tag_512\n          tag_387\n          jump\t// in\n        tag_512:\n            /* \"#utility.yul\":3804:3921   */\n        tag_511:\n            /* \"#utility.yul\":3939:3960   */\n          tag_513\n            /* \"#utility.yul\":3955:3959   */\n          0xa0\n            /* \"#utility.yul\":3939:3960   */\n          tag_391\n          jump\t// in\n        tag_513:\n            /* \"#utility.yul\":3930:3960   */\n          swap1\n          pop\n            /* \"#utility.yul\":4029:4030   */\n          0x00\n            /* \"#utility.yul\":4069:4118   */\n          tag_514\n            /* \"#utility.yul\":4114:4117   */\n          dup5\n            /* \"#utility.yul\":4105:4111   */\n          dup3\n            /* \"#utility.yul\":4094:4103   */\n          dup6\n            /* \"#utility.yul\":4090:4112   */\n          add\n            /* \"#utility.yul\":4069:4118   */\n          tag_396\n          jump\t// in\n        tag_514:\n            /* \"#utility.yul\":4062:4066   */\n          0x00\n            /* \"#utility.yul\":4055:4060   */\n          dup4\n            /* \"#utility.yul\":4051:4067   */\n          add\n            /* \"#utility.yul\":4044:4119   */\n          mstore\n            /* \"#utility.yul\":3970:4130   */\n          pop\n            /* \"#utility.yul\":4225:4227   */\n          0x20\n            /* \"#utility.yul\":4214:4223   */\n          dup3\n            /* \"#utility.yul\":4210:4228   */\n          add\n            /* \"#utility.yul\":4197:4229   */\n          calldataload\n            /* \"#utility.yul\":4256:4274   */\n          0xffffffffffffffff\n            /* \"#utility.yul\":4248:4254   */\n          dup2\n            /* \"#utility.yul\":4245:4275   */\n          gt\n            /* \"#utility.yul\":4242:4359   */\n          iszero\n          tag_515\n          jumpi\n            /* \"#utility.yul\":4278:4357   */\n          tag_516\n          tag_392\n          jump\t// in\n        tag_516:\n            /* \"#utility.yul\":4242:4359   */\n        tag_515:\n            /* \"#utility.yul\":4398:4457   */\n          tag_517\n            /* \"#utility.yul\":4453:4456   */\n          dup5\n            /* \"#utility.yul\":4444:4450   */\n          dup3\n            /* \"#utility.yul\":4433:4442   */\n          dup6\n            /* \"#utility.yul\":4429:4451   */\n          add\n            /* \"#utility.yul\":4398:4457   */\n          tag_402\n          jump\t// in\n        tag_517:\n            /* \"#utility.yul\":4391:4395   */\n          0x20\n            /* \"#utility.yul\":4384:4389   */\n          dup4\n            /* \"#utility.yul\":4380:4396   */\n          add\n            /* \"#utility.yul\":4373:4458   */\n          mstore\n            /* \"#utility.yul\":4140:4469   */\n          pop\n            /* \"#utility.yul\":4528:4530   */\n          0x40\n            /* \"#utility.yul\":4569:4618   */\n          tag_518\n            /* \"#utility.yul\":4614:4617   */\n          dup5\n            /* \"#utility.yul\":4605:4611   */\n          dup3\n            /* \"#utility.yul\":4594:4603   */\n          dup6\n            /* \"#utility.yul\":4590:4612   */\n          add\n            /* \"#utility.yul\":4569:4618   */\n          tag_405\n          jump\t// in\n        tag_518:\n            /* \"#utility.yul\":4562:4566   */\n          0x40\n            /* \"#utility.yul\":4555:4560   */\n          dup4\n            /* \"#utility.yul\":4551:4567   */\n          add\n            /* \"#utility.yul\":4544:4619   */\n          mstore\n            /* \"#utility.yul\":4479:4630   */\n          pop\n            /* \"#utility.yul\":4726:4728   */\n          0x60\n            /* \"#utility.yul\":4715:4724   */\n          dup3\n            /* \"#utility.yul\":4711:4729   */\n          add\n            /* \"#utility.yul\":4698:4730   */\n          calldataload\n            /* \"#utility.yul\":4757:4775   */\n          0xffffffffffffffff\n            /* \"#utility.yul\":4749:4755   */\n          dup2\n            /* \"#utility.yul\":4746:4776   */\n          gt\n            /* \"#utility.yul\":4743:4860   */\n          iszero\n          tag_519\n          jumpi\n            /* \"#utility.yul\":4779:4858   */\n          tag_520\n          tag_392\n          jump\t// in\n        tag_520:\n            /* \"#utility.yul\":4743:4860   */\n        tag_519:\n            /* \"#utility.yul\":4899:4958   */\n          tag_521\n            /* \"#utility.yul\":4954:4957   */\n          dup5\n            /* \"#utility.yul\":4945:4951   */\n          dup3\n            /* \"#utility.yul\":4934:4943   */\n          dup6\n            /* \"#utility.yul\":4930:4952   */\n          add\n            /* \"#utility.yul\":4899:4958   */\n          tag_402\n          jump\t// in\n        tag_521:\n            /* \"#utility.yul\":4892:4896   */\n          0x60\n            /* \"#utility.yul\":4885:4890   */\n          dup4\n            /* \"#utility.yul\":4881:4897   */\n          add\n            /* \"#utility.yul\":4874:4959   */\n          mstore\n            /* \"#utility.yul\":4640:4970   */\n          pop\n            /* \"#utility.yul\":5059:5062   */\n          0x80\n            /* \"#utility.yul\":5048:5057   */\n          dup3\n            /* \"#utility.yul\":5044:5063   */\n          add\n            /* \"#utility.yul\":5031:5064   */\n          calldataload\n            /* \"#utility.yul\":5091:5109   */\n          0xffffffffffffffff\n            /* \"#utility.yul\":5083:5089   */\n          dup2\n            /* \"#utility.yul\":5080:5110   */\n          gt\n            /* \"#utility.yul\":5077:5194   */\n          iszero\n          tag_522\n          jumpi\n            /* \"#utility.yul\":5113:5192   */\n          tag_523\n          tag_392\n          jump\t// in\n        tag_523:\n            /* \"#utility.yul\":5077:5194   */\n        tag_522:\n            /* \"#utility.yul\":5233:5292   */\n          tag_524\n            /* \"#utility.yul\":5288:5291   */\n          dup5\n            /* \"#utility.yul\":5279:5285   */\n          dup3\n            /* \"#utility.yul\":5268:5277   */\n          dup6\n            /* \"#utility.yul\":5264:5286   */\n          add\n            /* \"#utility.yul\":5233:5292   */\n          tag_402\n          jump\t// in\n        tag_524:\n            /* \"#utility.yul\":5226:5230   */\n          0x80\n            /* \"#utility.yul\":5219:5224   */\n          dup4\n            /* \"#utility.yul\":5215:5231   */\n          add\n            /* \"#utility.yul\":5208:5293   */\n          mstore\n            /* \"#utility.yul\":4980:5304   */\n          pop\n            /* \"#utility.yul\":3707:5311   */\n          swap3\n          swap2\n          pop\n          pop\n          jump\t// out\n            /* \"#utility.yul\":5317:5407   */\n        tag_407:\n            /* \"#utility.yul\":5351:5358   */\n          0x00\n            /* \"#utility.yul\":5394:5399   */\n          dup2\n            /* \"#utility.yul\":5387:5400   */\n          iszero\n            /* \"#utility.yul\":5380:5401   */\n          iszero\n            /* \"#utility.yul\":5369:5401   */\n          swap1\n          pop\n            /* \"#utility.yul\":5317:5407   */\n          swap2\n          swap1\n          pop\n          jump\t// out\n            /* \"#utility.yul\":5413:5529   */\n        tag_408:\n            /* \"#utility.yul\":5483:5504   */\n          tag_527\n            /* \"#utility.yul\":5498:5503   */\n          dup2\n            /* \"#utility.yul\":5483:5504   */\n          tag_407\n          jump\t// in\n        tag_527:\n            /* \"#utility.yul\":5476:5481   */\n          dup2\n            /* \"#utility.yul\":5473:5505   */\n          eq\n            /* \"#utility.yul\":5463:5523   */\n          tag_528\n          jumpi\n            /* \"#utility.yul\":5519:5520   */\n          0x00\n            /* \"#utility.yul\":5516:5517   */\n          dup1\n            /* \"#utility.yul\":5509:5521   */\n          revert\n            /* \"#utility.yul\":5463:5523   */\n        tag_528:\n            /* \"#utility.yul\":5413:5529   */\n          pop\n          jump\t// out\n            /* \"#utility.yul\":5535:5668   */\n        tag_409:\n            /* \"#utility.yul\":5578:5583   */\n          0x00\n            /* \"#utility.yul\":5616:5622   */\n          dup2\n            /* \"#utility.yul\":5603:5623   */\n          calldataload\n            /* \"#utility.yul\":5594:5623   */\n          swap1\n          pop\n            /* \"#utility.yul\":5632:5662   */\n          tag_530\n            /* \"#utility.yul\":5656:5661   */\n          dup2\n            /* \"#utility.yul\":5632:5662   */\n          tag_408\n          jump\t// in\n        tag_530:\n            /* \"#utility.yul\":5535:5668   */\n          swap3\n          swap2\n          pop\n          pop\n          jump\t// out\n            /* \"#utility.yul\":5713:9835   */\n        tag_410:\n            /* \"#utility.yul\":5788:5793   */\n          0x00\n            /* \"#utility.yul\":5832:5838   */\n          0x01a0\n            /* \"#utility.yul\":5820:5829   */\n          dup3\n            /* \"#utility.yul\":5815:5818   */\n          dup5\n            /* \"#utility.yul\":5811:5830   */\n          sub\n            /* \"#utility.yul\":5807:5839   */\n          slt\n            /* \"#utility.yul\":5804:5923   */\n          iszero\n          tag_532\n          jumpi\n            /* \"#utility.yul\":5842:5921   */\n          tag_533\n          tag_387\n          jump\t// in\n        tag_533:\n            /* \"#utility.yul\":5804:5923   */\n        tag_532:\n            /* \"#utility.yul\":5941:5964   */\n          tag_534\n            /* \"#utility.yul\":5957:5963   */\n          0x01a0\n            /* \"#utility.yul\":5941:5964   */\n          tag_391\n          jump\t// in\n        tag_534:\n            /* \"#utility.yul\":5932:5964   */\n          swap1\n          pop\n            /* \"#utility.yul\":6034:6035   */\n          0x00\n            /* \"#utility.yul\":6074:6123   */\n          tag_535\n            /* \"#utility.yul\":6119:6122   */\n          dup5\n            /* \"#utility.yul\":6110:6116   */\n          dup3\n            /* \"#utility.yul\":6099:6108   */\n          dup6\n            /* \"#utility.yul\":6095:6117   */\n          add\n            /* \"#utility.yul\":6074:6123   */\n          tag_396\n          jump\t// in\n        tag_535:\n            /* \"#utility.yul\":6067:6071   */\n          0x00\n            /* \"#utility.yul\":6060:6065   */\n          dup4\n            /* \"#utility.yul\":6056:6072   */\n          add\n            /* \"#utility.yul\":6049:6124   */\n          mstore\n            /* \"#utility.yul\":5974:6135   */\n          pop\n            /* \"#utility.yul\":6223:6225   */\n          0x20\n            /* \"#utility.yul\":6212:6221   */\n          dup3\n            /* \"#utility.yul\":6208:6226   */\n          add\n            /* \"#utility.yul\":6195:6227   */\n          calldataload\n            /* \"#utility.yul\":6254:6272   */\n          0xffffffffffffffff\n            /* \"#utility.yul\":6246:6252   */\n          dup2\n            /* \"#utility.yul\":6243:6273   */\n          gt\n            /* \"#utility.yul\":6240:6357   */\n          iszero\n          tag_536\n          jumpi\n            /* \"#utility.yul\":6276:6355   */\n          tag_537\n          tag_392\n          jump\t// in\n        tag_537:\n            /* \"#utility.yul\":6240:6357   */\n        tag_536:\n            /* \"#utility.yul\":6396:6455   */\n          tag_538\n            /* \"#utility.yul\":6451:6454   */\n          dup5\n            /* \"#utility.yul\":6442:6448   */\n          dup3\n            /* \"#utility.yul\":6431:6440   */\n          dup6\n            /* \"#utility.yul\":6427:6449   */\n          add\n            /* \"#utility.yul\":6396:6455   */\n          tag_402\n          jump\t// in\n        tag_538:\n            /* \"#utility.yul\":6389:6393   */\n          0x20\n            /* \"#utility.yul\":6382:6387   */\n          dup4\n            /* \"#utility.yul\":6378:6394   */\n          add\n            /* \"#utility.yul\":6371:6456   */\n          mstore\n            /* \"#utility.yul\":6145:6467   */\n          pop\n            /* \"#utility.yul\":6563:6565   */\n          0x40\n            /* \"#utility.yul\":6552:6561   */\n          dup3\n            /* \"#utility.yul\":6548:6566   */\n          add\n            /* \"#utility.yul\":6535:6567   */\n          calldataload\n            /* \"#utility.yul\":6594:6612   */\n          0xffffffffffffffff\n            /* \"#utility.yul\":6586:6592   */\n          dup2\n            /* \"#utility.yul\":6583:6613   */\n          gt\n            /* \"#utility.yul\":6580:6697   */\n          iszero\n          tag_539\n          jumpi\n            /* \"#utility.yul\":6616:6695   */\n          tag_540\n          tag_392\n          jump\t// in\n        tag_540:\n            /* \"#utility.yul\":6580:6697   */\n        tag_539:\n            /* \"#utility.yul\":6736:6795   */\n          tag_541\n            /* \"#utility.yul\":6791:6794   */\n          dup5\n            /* \"#utility.yul\":6782:6788   */\n          dup3\n            /* \"#utility.yul\":6771:6780   */\n          dup6\n            /* \"#utility.yul\":6767:6789   */\n          add\n            /* \"#utility.yul\":6736:6795   */\n          tag_402\n          jump\t// in\n        tag_541:\n            /* \"#utility.yul\":6729:6733   */\n          0x40\n            /* \"#utility.yul\":6722:6727   */\n          dup4\n            /* \"#utility.yul\":6718:6734   */\n          add\n            /* \"#utility.yul\":6711:6796   */\n          mstore\n            /* \"#utility.yul\":6477:6807   */\n          pop\n            /* \"#utility.yul\":6899:6901   */\n          0x60\n            /* \"#utility.yul\":6888:6897   */\n          dup3\n            /* \"#utility.yul\":6884:6902   */\n          add\n            /* \"#utility.yul\":6871:6903   */\n          calldataload\n            /* \"#utility.yul\":6930:6948   */\n          0xffffffffffffffff\n            /* \"#utility.yul\":6922:6928   */\n          dup2\n            /* \"#utility.yul\":6919:6949   */\n          gt\n            /* \"#utility.yul\":6916:7033   */\n          iszero\n          tag_542\n          jumpi\n            /* \"#utility.yul\":6952:7031   */\n          tag_543\n          tag_392\n          jump\t// in\n        tag_543:\n            /* \"#utility.yul\":6916:7033   */\n        tag_542:\n            /* \"#utility.yul\":7072:7131   */\n          tag_544\n            /* \"#utility.yul\":7127:7130   */\n          dup5\n            /* \"#utility.yul\":7118:7124   */\n          dup3\n            /* \"#utility.yul\":7107:7116   */\n          dup6\n            /* \"#utility.yul\":7103:7125   */\n          add\n            /* \"#utility.yul\":7072:7131   */\n          tag_402\n          jump\t// in\n        tag_544:\n            /* \"#utility.yul\":7065:7069   */\n          0x60\n            /* \"#utility.yul\":7058:7063   */\n          dup4\n            /* \"#utility.yul\":7054:7070   */\n          add\n            /* \"#utility.yul\":7047:7132   */\n          mstore\n            /* \"#utility.yul\":6817:7143   */\n          pop\n            /* \"#utility.yul\":7231:7234   */\n          0x80\n            /* \"#utility.yul\":7220:7229   */\n          dup3\n            /* \"#utility.yul\":7216:7235   */\n          add\n            /* \"#utility.yul\":7203:7236   */\n          calldataload\n            /* \"#utility.yul\":7263:7281   */\n          0xffffffffffffffff\n            /* \"#utility.yul\":7255:7261   */\n          dup2\n            /* \"#utility.yul\":7252:7282   */\n          gt\n            /* \"#utility.yul\":7249:7366   */\n          iszero\n          tag_545\n          jumpi\n            /* \"#utility.yul\":7285:7364   */\n          tag_546\n          tag_392\n          jump\t// in\n        tag_546:\n            /* \"#utility.yul\":7249:7366   */\n        tag_545:\n            /* \"#utility.yul\":7405:7464   */\n          tag_547\n            /* \"#utility.yul\":7460:7463   */\n          dup5\n            /* \"#utility.yul\":7451:7457   */\n          dup3\n            /* \"#utility.yul\":7440:7449   */\n          dup6\n            /* \"#utility.yul\":7436:7458   */\n          add\n            /* \"#utility.yul\":7405:7464   */\n          tag_402\n          jump\t// in\n        tag_547:\n            /* \"#utility.yul\":7398:7402   */\n          0x80\n            /* \"#utility.yul\":7391:7396   */\n          dup4\n            /* \"#utility.yul\":7387:7403   */\n          add\n            /* \"#utility.yul\":7380:7465   */\n          mstore\n            /* \"#utility.yul\":7153:7476   */\n          pop\n            /* \"#utility.yul\":7568:7571   */\n          0xa0\n            /* \"#utility.yul\":7557:7566   */\n          dup3\n            /* \"#utility.yul\":7553:7572   */\n          add\n            /* \"#utility.yul\":7540:7573   */\n          calldataload\n            /* \"#utility.yul\":7600:7618   */\n          0xffffffffffffffff\n            /* \"#utility.yul\":7592:7598   */\n          dup2\n            /* \"#utility.yul\":7589:7619   */\n          gt\n            /* \"#utility.yul\":7586:7703   */\n          iszero\n          tag_548\n          jumpi\n            /* \"#utility.yul\":7622:7701   */\n          tag_549\n          tag_392\n          jump\t// in\n        tag_549:\n            /* \"#utility.yul\":7586:7703   */\n        tag_548:\n            /* \"#utility.yul\":7742:7801   */\n          tag_550\n            /* \"#utility.yul\":7797:7800   */\n          dup5\n            /* \"#utility.yul\":7788:7794   */\n          dup3\n            /* \"#utility.yul\":7777:7786   */\n          dup6\n            /* \"#utility.yul\":7773:7795   */\n          add\n            /* \"#utility.yul\":7742:7801   */\n          tag_402\n          jump\t// in\n        tag_550:\n            /* \"#utility.yul\":7735:7739   */\n          0xa0\n            /* \"#utility.yul\":7728:7733   */\n          dup4\n            /* \"#utility.yul\":7724:7740   */\n          add\n            /* \"#utility.yul\":7717:7802   */\n          mstore\n            /* \"#utility.yul\":7486:7813   */\n          pop\n            /* \"#utility.yul\":7898:7901   */\n          0xc0\n            /* \"#utility.yul\":7887:7896   */\n          dup3\n            /* \"#utility.yul\":7883:7902   */\n          add\n            /* \"#utility.yul\":7870:7903   */\n          calldataload\n            /* \"#utility.yul\":7930:7948   */\n          0xffffffffffffffff\n            /* \"#utility.yul\":7922:7928   */\n          dup2\n            /* \"#utility.yul\":7919:7949   */\n          gt\n            /* \"#utility.yul\":7916:8033   */\n          iszero\n          tag_551\n          jumpi\n            /* \"#utility.yul\":7952:8031   */\n          tag_552\n          tag_392\n          jump\t// in\n        tag_552:\n            /* \"#utility.yul\":7916:8033   */\n        tag_551:\n            /* \"#utility.yul\":8072:8131   */\n          tag_553\n            /* \"#utility.yul\":8127:8130   */\n          dup5\n            /* \"#utility.yul\":8118:8124   */\n          dup3\n            /* \"#utility.yul\":8107:8116   */\n          dup6\n            /* \"#utility.yul\":8103:8125   */\n          add\n            /* \"#utility.yul\":8072:8131   */\n          tag_402\n          jump\t// in\n        tag_553:\n            /* \"#utility.yul\":8065:8069   */\n          0xc0\n            /* \"#utility.yul\":8058:8063   */\n          dup4\n            /* \"#utility.yul\":8054:8070   */\n          add\n            /* \"#utility.yul\":8047:8132   */\n          mstore\n            /* \"#utility.yul\":7823:8143   */\n          pop\n            /* \"#utility.yul\":8247:8250   */\n          0xe0\n            /* \"#utility.yul\":8236:8245   */\n          dup3\n            /* \"#utility.yul\":8232:8251   */\n          add\n            /* \"#utility.yul\":8219:8252   */\n          calldataload\n            /* \"#utility.yul\":8279:8297   */\n          0xffffffffffffffff\n            /* \"#utility.yul\":8271:8277   */\n          dup2\n            /* \"#utility.yul\":8268:8298   */\n          gt\n            /* \"#utility.yul\":8265:8382   */\n          iszero\n          tag_554\n          jumpi\n            /* \"#utility.yul\":8301:8380   */\n          tag_555\n          tag_392\n          jump\t// in\n        tag_555:\n            /* \"#utility.yul\":8265:8382   */\n        tag_554:\n            /* \"#utility.yul\":8421:8480   */\n          tag_556\n            /* \"#utility.yul\":8476:8479   */\n          dup5\n            /* \"#utility.yul\":8467:8473   */\n          dup3\n            /* \"#utility.yul\":8456:8465   */\n          dup6\n            /* \"#utility.yul\":8452:8474   */\n          add\n            /* \"#utility.yul\":8421:8480   */\n          tag_402\n          jump\t// in\n        tag_556:\n            /* \"#utility.yul\":8414:8418   */\n          0xe0\n            /* \"#utility.yul\":8407:8412   */\n          dup4\n            /* \"#utility.yul\":8403:8419   */\n          add\n            /* \"#utility.yul\":8396:8481   */\n          mstore\n            /* \"#utility.yul\":8153:8492   */\n          pop\n            /* \"#utility.yul\":8556:8559   */\n          0x0100\n            /* \"#utility.yul\":8600:8646   */\n          tag_557\n            /* \"#utility.yul\":8642:8645   */\n          dup5\n            /* \"#utility.yul\":8633:8639   */\n          dup3\n            /* \"#utility.yul\":8622:8631   */\n          dup6\n            /* \"#utility.yul\":8618:8640   */\n          add\n            /* \"#utility.yul\":8600:8646   */\n          tag_409\n          jump\t// in\n        tag_557:\n            /* \"#utility.yul\":8591:8597   */\n          0x0100\n            /* \"#utility.yul\":8584:8589   */\n          dup4\n            /* \"#utility.yul\":8580:8598   */\n          add\n            /* \"#utility.yul\":8573:8647   */\n          mstore\n            /* \"#utility.yul\":8502:8658   */\n          pop\n            /* \"#utility.yul\":8744:8747   */\n          0x0120\n            /* \"#utility.yul\":8733:8742   */\n          dup3\n            /* \"#utility.yul\":8729:8748   */\n          add\n            /* \"#utility.yul\":8716:8749   */\n          calldataload\n            /* \"#utility.yul\":8776:8794   */\n          0xffffffffffffffff\n            /* \"#utility.yul\":8768:8774   */\n          dup2\n            /* \"#utility.yul\":8765:8795   */\n          gt\n            /* \"#utility.yul\":8762:8879   */\n          iszero\n          tag_558\n          jumpi\n            /* \"#utility.yul\":8798:8877   */\n          tag_559\n          tag_392\n          jump\t// in\n        tag_559:\n            /* \"#utility.yul\":8762:8879   */\n        tag_558:\n            /* \"#utility.yul\":8920:8979   */\n          tag_560\n            /* \"#utility.yul\":8975:8978   */\n          dup5\n            /* \"#utility.yul\":8966:8972   */\n          dup3\n            /* \"#utility.yul\":8955:8964   */\n          dup6\n            /* \"#utility.yul\":8951:8973   */\n          add\n            /* \"#utility.yul\":8920:8979   */\n          tag_402\n          jump\t// in\n        tag_560:\n            /* \"#utility.yul\":8911:8917   */\n          0x0120\n            /* \"#utility.yul\":8904:8909   */\n          dup4\n            /* \"#utility.yul\":8900:8918   */\n          add\n            /* \"#utility.yul\":8893:8980   */\n          mstore\n            /* \"#utility.yul\":8668:8991   */\n          pop\n            /* \"#utility.yul\":9076:9079   */\n          0x0140\n            /* \"#utility.yul\":9065:9074   */\n          dup3\n            /* \"#utility.yul\":9061:9080   */\n          add\n            /* \"#utility.yul\":9048:9081   */\n          calldataload\n            /* \"#utility.yul\":9108:9126   */\n          0xffffffffffffffff\n            /* \"#utility.yul\":9100:9106   */\n          dup2\n            /* \"#utility.yul\":9097:9127   */\n          gt\n            /* \"#utility.yul\":9094:9211   */\n          iszero\n          tag_561\n          jumpi\n            /* \"#utility.yul\":9130:9209   */\n          tag_562\n          tag_392\n          jump\t// in\n        tag_562:\n            /* \"#utility.yul\":9094:9211   */\n        tag_561:\n            /* \"#utility.yul\":9252:9311   */\n          tag_563\n            /* \"#utility.yul\":9307:9310   */\n          dup5\n            /* \"#utility.yul\":9298:9304   */\n          dup3\n            /* \"#utility.yul\":9287:9296   */\n          dup6\n            /* \"#utility.yul\":9283:9305   */\n          add\n            /* \"#utility.yul\":9252:9311   */\n          tag_402\n          jump\t// in\n        tag_563:\n            /* \"#utility.yul\":9243:9249   */\n          0x0140\n            /* \"#utility.yul\":9236:9241   */\n          dup4\n            /* \"#utility.yul\":9232:9250   */\n          add\n            /* \"#utility.yul\":9225:9312   */\n          mstore\n            /* \"#utility.yul\":9001:9323   */\n          pop\n            /* \"#utility.yul\":9384:9387   */\n          0x0160\n            /* \"#utility.yul\":9428:9477   */\n          tag_564\n            /* \"#utility.yul\":9473:9476   */\n          dup5\n            /* \"#utility.yul\":9464:9470   */\n          dup3\n            /* \"#utility.yul\":9453:9462   */\n          dup6\n            /* \"#utility.yul\":9449:9471   */\n          add\n            /* \"#utility.yul\":9428:9477   */\n          tag_396\n          jump\t// in\n        tag_564:\n            /* \"#utility.yul\":9419:9425   */\n          0x0160\n            /* \"#utility.yul\":9412:9417   */\n          dup4\n            /* \"#utility.yul\":9408:9426   */\n          add\n            /* \"#utility.yul\":9401:9478   */\n          mstore\n            /* \"#utility.yul\":9333:9489   */\n          pop\n            /* \"#utility.yul\":9581:9584   */\n          0x0180\n            /* \"#utility.yul\":9570:9579   */\n          dup3\n            /* \"#utility.yul\":9566:9585   */\n          add\n            /* \"#utility.yul\":9553:9586   */\n          calldataload\n            /* \"#utility.yul\":9613:9631   */\n          0xffffffffffffffff\n            /* \"#utility.yul\":9605:9611   */\n          dup2\n            /* \"#utility.yul\":9602:9632   */\n          gt\n            /* \"#utility.yul\":9599:9716   */\n          iszero\n          tag_565\n          jumpi\n            /* \"#utility.yul\":9635:9714   */\n          tag_566\n          tag_392\n          jump\t// in\n        tag_566:\n            /* \"#utility.yul\":9599:9716   */\n        tag_565:\n            /* \"#utility.yul\":9757:9816   */\n          tag_567\n            /* \"#utility.yul\":9812:9815   */\n          dup5\n            /* \"#utility.yul\":9803:9809   */\n          dup3\n            /* \"#utility.yul\":9792:9801   */\n          dup6\n            /* \"#utility.yul\":9788:9810   */\n          add\n            /* \"#utility.yul\":9757:9816   */\n          tag_402\n          jump\t// in\n        tag_567:\n            /* \"#utility.yul\":9748:9754   */\n          0x0180\n            /* \"#utility.yul\":9741:9746   */\n          dup4\n            /* \"#utility.yul\":9737:9755   */\n          add\n            /* \"#utility.yul\":9730:9817   */\n          mstore\n            /* \"#utility.yul\":9499:9828   */\n          pop\n            /* \"#utility.yul\":5713:9835   */\n          swap3\n          swap2\n          pop\n          pop\n          jump\t// out\n            /* \"#utility.yul\":9841:10751   */\n        tag_15:\n            /* \"#utility.yul\":9967:9973   */\n          0x00\n            /* \"#utility.yul\":9975:9981   */\n          dup1\n            /* \"#utility.yul\":10024:10026   */\n          0x40\n            /* \"#utility.yul\":10012:10021   */\n          dup4\n            /* \"#utility.yul\":10003:10010   */\n          dup6\n            /* \"#utility.yul\":9999:10022   */\n          sub\n            /* \"#utility.yul\":9995:10027   */\n          slt\n            /* \"#utility.yul\":9992:10111   */\n          iszero\n          tag_569\n          jumpi\n            /* \"#utility.yul\":10030:10109   */\n          tag_570\n          tag_385\n          jump\t// in\n        tag_570:\n            /* \"#utility.yul\":9992:10111   */\n        tag_569:\n            /* \"#utility.yul\":10178:10179   */\n          0x00\n            /* \"#utility.yul\":10167:10176   */\n          dup4\n            /* \"#utility.yul\":10163:10180   */\n          add\n            /* \"#utility.yul\":10150:10181   */\n          calldataload\n            /* \"#utility.yul\":10208:10226   */\n          0xffffffffffffffff\n            /* \"#utility.yul\":10200:10206   */\n          dup2\n            /* \"#utility.yul\":10197:10227   */\n          gt\n            /* \"#utility.yul\":10194:10311   */\n          iszero\n          tag_571\n          jumpi\n            /* \"#utility.yul\":10230:10309   */\n          tag_572\n          tag_386\n          jump\t// in\n        tag_572:\n            /* \"#utility.yul\":10194:10311   */\n        tag_571:\n            /* \"#utility.yul\":10335:10420   */\n          tag_573\n            /* \"#utility.yul\":10412:10419   */\n          dup6\n            /* \"#utility.yul\":10403:10409   */\n          dup3\n            /* \"#utility.yul\":10392:10401   */\n          dup7\n            /* \"#utility.yul\":10388:10410   */\n          add\n            /* \"#utility.yul\":10335:10420   */\n          tag_406\n          jump\t// in\n        tag_573:\n            /* \"#utility.yul\":10325:10420   */\n          swap3\n          pop\n            /* \"#utility.yul\":10121:10430   */\n          pop\n            /* \"#utility.yul\":10497:10499   */\n          0x20\n            /* \"#utility.yul\":10486:10495   */\n          dup4\n            /* \"#utility.yul\":10482:10500   */\n          add\n            /* \"#utility.yul\":10469:10501   */\n          calldataload\n            /* \"#utility.yul\":10528:10546   */\n          0xffffffffffffffff\n            /* \"#utility.yul\":10520:10526   */\n          dup2\n            /* \"#utility.yul\":10517:10547   */\n          gt\n            /* \"#utility.yul\":10514:10631   */\n          iszero\n          tag_574\n          jumpi\n            /* \"#utility.yul\":10550:10629   */\n          tag_575\n          tag_386\n          jump\t// in\n        tag_575:\n            /* \"#utility.yul\":10514:10631   */\n        tag_574:\n            /* \"#utility.yul\":10655:10734   */\n          tag_576\n            /* \"#utility.yul\":10726:10733   */\n          dup6\n            /* \"#utility.yul\":10717:10723   */\n          dup3\n            /* \"#utility.yul\":10706:10715   */\n          dup7\n            /* \"#utility.yul\":10702:10724   */\n          add\n            /* \"#utility.yul\":10655:10734   */\n          tag_410\n          jump\t// in\n        tag_576:\n            /* \"#utility.yul\":10645:10734   */\n          swap2\n          pop\n            /* \"#utility.yul\":10440:10744   */\n          pop\n            /* \"#utility.yul\":9841:10751   */\n          swap3\n          pop\n          swap3\n          swap1\n          pop\n          jump\t// out\n            /* \"#utility.yul\":10757:11086   */\n        tag_19:\n            /* \"#utility.yul\":10816:10822   */\n          0x00\n            /* \"#utility.yul\":10865:10867   */\n          0x20\n            /* \"#utility.yul\":10853:10862   */\n          dup3\n            /* \"#utility.yul\":10844:10851   */\n          dup5\n            /* \"#utility.yul\":10840:10863   */\n          sub\n            /* \"#utility.yul\":10836:10868   */\n          slt\n            /* \"#utility.yul\":10833:10952   */\n          iszero\n          tag_578\n          jumpi\n            /* \"#utility.yul\":10871:10950   */\n          tag_579\n          tag_385\n          jump\t// in\n        tag_579:\n            /* \"#utility.yul\":10833:10952   */\n        tag_578:\n            /* \"#utility.yul\":10991:10992   */\n          0x00\n            /* \"#utility.yul\":11016:11069   */\n          tag_580\n            /* \"#utility.yul\":11061:11068   */\n          dup5\n            /* \"#utility.yul\":11052:11058   */\n          dup3\n            /* \"#utility.yul\":11041:11050   */\n          dup6\n            /* \"#utility.yul\":11037:11059   */\n          add\n            /* \"#utility.yul\":11016:11069   */\n          tag_396\n          jump\t// in\n        tag_580:\n            /* \"#utility.yul\":11006:11069   */\n          swap2\n          pop\n            /* \"#utility.yul\":10962:11079   */\n          pop\n            /* \"#utility.yul\":10757:11086   */\n          swap3\n          swap2\n          pop\n          pop\n          jump\t// out\n            /* \"#utility.yul\":11132:14424   */\n        tag_411:\n            /* \"#utility.yul\":11208:11213   */\n          0x00\n            /* \"#utility.yul\":11252:11258   */\n          0x0140\n            /* \"#utility.yul\":11240:11249   */\n          dup3\n            /* \"#utility.yul\":11235:11238   */\n          dup5\n            /* \"#utility.yul\":11231:11250   */\n          sub\n            /* \"#utility.yul\":11227:11259   */\n          slt\n            /* \"#utility.yul\":11224:11343   */\n          iszero\n          tag_582\n          jumpi\n            /* \"#utility.yul\":11262:11341   */\n          tag_583\n          tag_387\n          jump\t// in\n        tag_583:\n            /* \"#utility.yul\":11224:11343   */\n        tag_582:\n            /* \"#utility.yul\":11361:11384   */\n          tag_584\n            /* \"#utility.yul\":11377:11383   */\n          0x0140\n            /* \"#utility.yul\":11361:11384   */\n          tag_391\n          jump\t// in\n        tag_584:\n            /* \"#utility.yul\":11352:11384   */\n          swap1\n          pop\n            /* \"#utility.yul\":11454:11455   */\n          0x00\n            /* \"#utility.yul\":11494:11543   */\n          tag_585\n            /* \"#utility.yul\":11539:11542   */\n          dup5\n            /* \"#utility.yul\":11530:11536   */\n          dup3\n            /* \"#utility.yul\":11519:11528   */\n          dup6\n            /* \"#utility.yul\":11515:11537   */\n          add\n            /* \"#utility.yul\":11494:11543   */\n          tag_396\n          jump\t// in\n        tag_585:\n            /* \"#utility.yul\":11487:11491   */\n          0x00\n            /* \"#utility.yul\":11480:11485   */\n          dup4\n            /* \"#utility.yul\":11476:11492   */\n          add\n            /* \"#utility.yul\":11469:11544   */\n          mstore\n            /* \"#utility.yul\":11394:11555   */\n          pop\n            /* \"#utility.yul\":11643:11645   */\n          0x20\n            /* \"#utility.yul\":11632:11641   */\n          dup3\n            /* \"#utility.yul\":11628:11646   */\n          add\n            /* \"#utility.yul\":11615:11647   */\n          calldataload\n            /* \"#utility.yul\":11674:11692   */\n          0xffffffffffffffff\n            /* \"#utility.yul\":11666:11672   */\n          dup2\n            /* \"#utility.yul\":11663:11693   */\n          gt\n            /* \"#utility.yul\":11660:11777   */\n          iszero\n          tag_586\n          jumpi\n            /* \"#utility.yul\":11696:11775   */\n          tag_587\n          tag_392\n          jump\t// in\n        tag_587:\n            /* \"#utility.yul\":11660:11777   */\n        tag_586:\n            /* \"#utility.yul\":11816:11875   */\n          tag_588\n            /* \"#utility.yul\":11871:11874   */\n          dup5\n            /* \"#utility.yul\":11862:11868   */\n          dup3\n            /* \"#utility.yul\":11851:11860   */\n          dup6\n            /* \"#utility.yul\":11847:11869   */\n          add\n            /* \"#utility.yul\":11816:11875   */\n          tag_402\n          jump\t// in\n        tag_588:\n            /* \"#utility.yul\":11809:11813   */\n          0x20\n            /* \"#utility.yul\":11802:11807   */\n          dup4\n            /* \"#utility.yul\":11798:11814   */\n          add\n            /* \"#utility.yul\":11791:11876   */\n          mstore\n            /* \"#utility.yul\":11565:11887   */\n          pop\n            /* \"#utility.yul\":11983:11985   */\n          0x40\n            /* \"#utility.yul\":11972:11981   */\n          dup3\n            /* \"#utility.yul\":11968:11986   */\n          add\n            /* \"#utility.yul\":11955:11987   */\n          calldataload\n            /* \"#utility.yul\":12014:12032   */\n          0xffffffffffffffff\n            /* \"#utility.yul\":12006:12012   */\n          dup2\n            /* \"#utility.yul\":12003:12033   */\n          gt\n            /* \"#utility.yul\":12000:12117   */\n          iszero\n          tag_589\n          jumpi\n            /* \"#utility.yul\":12036:12115   */\n          tag_590\n          tag_392\n          jump\t// in\n        tag_590:\n            /* \"#utility.yul\":12000:12117   */\n        tag_589:\n            /* \"#utility.yul\":12156:12215   */\n          tag_591\n            /* \"#utility.yul\":12211:12214   */\n          dup5\n            /* \"#utility.yul\":12202:12208   */\n          dup3\n            /* \"#utility.yul\":12191:12200   */\n          dup6\n            /* \"#utility.yul\":12187:12209   */\n          add\n            /* \"#utility.yul\":12156:12215   */\n          tag_402\n          jump\t// in\n        tag_591:\n            /* \"#utility.yul\":12149:12153   */\n          0x40\n            /* \"#utility.yul\":12142:12147   */\n          dup4\n            /* \"#utility.yul\":12138:12154   */\n          add\n            /* \"#utility.yul\":12131:12216   */\n          mstore\n            /* \"#utility.yul\":11897:12227   */\n          pop\n            /* \"#utility.yul\":12319:12321   */\n          0x60\n            /* \"#utility.yul\":12308:12317   */\n          dup3\n            /* \"#utility.yul\":12304:12322   */\n          add\n            /* \"#utility.yul\":12291:12323   */\n          calldataload\n            /* \"#utility.yul\":12350:12368   */\n          0xffffffffffffffff\n            /* \"#utility.yul\":12342:12348   */\n          dup2\n            /* \"#utility.yul\":12339:12369   */\n          gt\n            /* \"#utility.yul\":12336:12453   */\n          iszero\n          tag_592\n          jumpi\n            /* \"#utility.yul\":12372:12451   */\n          tag_593\n          tag_392\n          jump\t// in\n        tag_593:\n            /* \"#utility.yul\":12336:12453   */\n        tag_592:\n            /* \"#utility.yul\":12492:12551   */\n          tag_594\n            /* \"#utility.yul\":12547:12550   */\n          dup5\n            /* \"#utility.yul\":12538:12544   */\n          dup3\n            /* \"#utility.yul\":12527:12536   */\n          dup6\n            /* \"#utility.yul\":12523:12545   */\n          add\n            /* \"#utility.yul\":12492:12551   */\n          tag_402\n          jump\t// in\n        tag_594:\n            /* \"#utility.yul\":12485:12489   */\n          0x60\n            /* \"#utility.yul\":12478:12483   */\n          dup4\n            /* \"#utility.yul\":12474:12490   */\n          add\n            /* \"#utility.yul\":12467:12552   */\n          mstore\n            /* \"#utility.yul\":12237:12563   */\n          pop\n            /* \"#utility.yul\":12651:12654   */\n          0x80\n            /* \"#utility.yul\":12640:12649   */\n          dup3\n            /* \"#utility.yul\":12636:12655   */\n          add\n            /* \"#utility.yul\":12623:12656   */\n          calldataload\n            /* \"#utility.yul\":12683:12701   */\n          0xffffffffffffffff\n            /* \"#utility.yul\":12675:12681   */\n          dup2\n            /* \"#utility.yul\":12672:12702   */\n          gt\n            /* \"#utility.yul\":12669:12786   */\n          iszero\n          tag_595\n          jumpi\n            /* \"#utility.yul\":12705:12784   */\n          tag_596\n          tag_392\n          jump\t// in\n        tag_596:\n            /* \"#utility.yul\":12669:12786   */\n        tag_595:\n            /* \"#utility.yul\":12825:12884   */\n          tag_597\n            /* \"#utility.yul\":12880:12883   */\n          dup5\n            /* \"#utility.yul\":12871:12877   */\n          dup3\n            /* \"#utility.yul\":12860:12869   */\n          dup6\n            /* \"#utility.yul\":12856:12878   */\n          add\n            /* \"#utility.yul\":12825:12884   */\n          tag_402\n          jump\t// in\n        tag_597:\n            /* \"#utility.yul\":12818:12822   */\n          0x80\n            /* \"#utility.yul\":12811:12816   */\n          dup4\n            /* \"#utility.yul\":12807:12823   */\n          add\n            /* \"#utility.yul\":12800:12885   */\n          mstore\n            /* \"#utility.yul\":12573:12896   */\n          pop\n            /* \"#utility.yul\":12988:12991   */\n          0xa0\n            /* \"#utility.yul\":12977:12986   */\n          dup3\n            /* \"#utility.yul\":12973:12992   */\n          add\n            /* \"#utility.yul\":12960:12993   */\n          calldataload\n            /* \"#utility.yul\":13020:13038   */\n          0xffffffffffffffff\n            /* \"#utility.yul\":13012:13018   */\n          dup2\n            /* \"#utility.yul\":13009:13039   */\n          gt\n            /* \"#utility.yul\":13006:13123   */\n          iszero\n          tag_598\n          jumpi\n            /* \"#utility.yul\":13042:13121   */\n          tag_599\n          tag_392\n          jump\t// in\n        tag_599:\n            /* \"#utility.yul\":13006:13123   */\n        tag_598:\n            /* \"#utility.yul\":13162:13221   */\n          tag_600\n            /* \"#utility.yul\":13217:13220   */\n          dup5\n            /* \"#utility.yul\":13208:13214   */\n          dup3\n            /* \"#utility.yul\":13197:13206   */\n          dup6\n            /* \"#utility.yul\":13193:13215   */\n          add\n            /* \"#utility.yul\":13162:13221   */\n          tag_402\n          jump\t// in\n        tag_600:\n            /* \"#utility.yul\":13155:13159   */\n          0xa0\n            /* \"#utility.yul\":13148:13153   */\n          dup4\n            /* \"#utility.yul\":13144:13160   */\n          add\n            /* \"#utility.yul\":13137:13222   */\n          mstore\n            /* \"#utility.yul\":12906:13233   */\n          pop\n            /* \"#utility.yul\":13318:13321   */\n          0xc0\n            /* \"#utility.yul\":13307:13316   */\n          dup3\n            /* \"#utility.yul\":13303:13322   */\n          add\n            /* \"#utility.yul\":13290:13323   */\n          calldataload\n            /* \"#utility.yul\":13350:13368   */\n          0xffffffffffffffff\n            /* \"#utility.yul\":13342:13348   */\n          dup2\n            /* \"#utility.yul\":13339:13369   */\n          gt\n            /* \"#utility.yul\":13336:13453   */\n          iszero\n          tag_601\n          jumpi\n            /* \"#utility.yul\":13372:13451   */\n          tag_602\n          tag_392\n          jump\t// in\n        tag_602:\n            /* \"#utility.yul\":13336:13453   */\n        tag_601:\n            /* \"#utility.yul\":13492:13551   */\n          tag_603\n            /* \"#utility.yul\":13547:13550   */\n          dup5\n            /* \"#utility.yul\":13538:13544   */\n          dup3\n            /* \"#utility.yul\":13527:13536   */\n          dup6\n            /* \"#utility.yul\":13523:13545   */\n          add\n            /* \"#utility.yul\":13492:13551   */\n          tag_402\n          jump\t// in\n        tag_603:\n            /* \"#utility.yul\":13485:13489   */\n          0xc0\n            /* \"#utility.yul\":13478:13483   */\n          dup4\n            /* \"#utility.yul\":13474:13490   */\n          add\n            /* \"#utility.yul\":13467:13552   */\n          mstore\n            /* \"#utility.yul\":13243:13563   */\n          pop\n            /* \"#utility.yul\":13667:13670   */\n          0xe0\n            /* \"#utility.yul\":13656:13665   */\n          dup3\n            /* \"#utility.yul\":13652:13671   */\n          add\n            /* \"#utility.yul\":13639:13672   */\n          calldataload\n            /* \"#utility.yul\":13699:13717   */\n          0xffffffffffffffff\n            /* \"#utility.yul\":13691:13697   */\n          dup2\n            /* \"#utility.yul\":13688:13718   */\n          gt\n            /* \"#utility.yul\":13685:13802   */\n          iszero\n          tag_604\n          jumpi\n            /* \"#utility.yul\":13721:13800   */\n          tag_605\n          tag_392\n          jump\t// in\n        tag_605:\n            /* \"#utility.yul\":13685:13802   */\n        tag_604:\n            /* \"#utility.yul\":13841:13900   */\n          tag_606\n            /* \"#utility.yul\":13896:13899   */\n          dup5\n            /* \"#utility.yul\":13887:13893   */\n          dup3\n            /* \"#utility.yul\":13876:13885   */\n          dup6\n            /* \"#utility.yul\":13872:13894   */\n          add\n            /* \"#utility.yul\":13841:13900   */\n          tag_402\n          jump\t// in\n        tag_606:\n            /* \"#utility.yul\":13834:13838   */\n          0xe0\n            /* \"#utility.yul\":13827:13832   */\n          dup4\n            /* \"#utility.yul\":13823:13839   */\n          add\n            /* \"#utility.yul\":13816:13901   */\n          mstore\n            /* \"#utility.yul\":13573:13912   */\n          pop\n            /* \"#utility.yul\":14004:14007   */\n          0x0100\n            /* \"#utility.yul\":13993:14002   */\n          dup3\n            /* \"#utility.yul\":13989:14008   */\n          add\n            /* \"#utility.yul\":13976:14009   */\n          calldataload\n            /* \"#utility.yul\":14036:14054   */\n          0xffffffffffffffff\n            /* \"#utility.yul\":14028:14034   */\n          dup2\n            /* \"#utility.yul\":14025:14055   */\n          gt\n            /* \"#utility.yul\":14022:14139   */\n          iszero\n          tag_607\n          jumpi\n            /* \"#utility.yul\":14058:14137   */\n          tag_608\n          tag_392\n          jump\t// in\n        tag_608:\n            /* \"#utility.yul\":14022:14139   */\n        tag_607:\n            /* \"#utility.yul\":14180:14239   */\n          tag_609\n            /* \"#utility.yul\":14235:14238   */\n          dup5\n            /* \"#utility.yul\":14226:14232   */\n          dup3\n            /* \"#utility.yul\":14215:14224   */\n          dup6\n            /* \"#utility.yul\":14211:14233   */\n          add\n            /* \"#utility.yul\":14180:14239   */\n          tag_402\n          jump\t// in\n        tag_609:\n            /* \"#utility.yul\":14171:14177   */\n          0x0100\n            /* \"#utility.yul\":14164:14169   */\n          dup4\n            /* \"#utility.yul\":14160:14178   */\n          add\n            /* \"#utility.yul\":14153:14240   */\n          mstore\n            /* \"#utility.yul\":13922:14251   */\n          pop\n            /* \"#utility.yul\":14315:14318   */\n          0x0120\n            /* \"#utility.yul\":14359:14405   */\n          tag_610\n            /* \"#utility.yul\":14401:14404   */\n          dup5\n            /* \"#utility.yul\":14392:14398   */\n          dup3\n            /* \"#utility.yul\":14381:14390   */\n          dup6\n            /* \"#utility.yul\":14377:14399   */\n          add\n            /* \"#utility.yul\":14359:14405   */\n          tag_409\n          jump\t// in\n        tag_610:\n            /* \"#utility.yul\":14350:14356   */\n          0x0120\n            /* \"#utility.yul\":14343:14348   */\n          dup4\n            /* \"#utility.yul\":14339:14357   */\n          add\n            /* \"#utility.yul\":14332:14406   */\n          mstore\n            /* \"#utility.yul\":14261:14417   */\n          pop\n            /* \"#utility.yul\":11132:14424   */\n          swap3\n          swap2\n          pop\n          pop\n          jump\t// out\n            /* \"#utility.yul\":14430:15342   */\n        tag_23:\n            /* \"#utility.yul\":14557:14563   */\n          0x00\n            /* \"#utility.yul\":14565:14571   */\n          dup1\n            /* \"#utility.yul\":14614:14616   */\n          0x40\n            /* \"#utility.yul\":14602:14611   */\n          dup4\n            /* \"#utility.yul\":14593:14600   */\n          dup6\n            /* \"#utility.yul\":14589:14612   */\n          sub\n            /* \"#utility.yul\":14585:14617   */\n          slt\n            /* \"#utility.yul\":14582:14701   */\n          iszero\n          tag_612\n          jumpi\n            /* \"#utility.yul\":14620:14699   */\n          tag_613\n          tag_385\n          jump\t// in\n        tag_613:\n            /* \"#utility.yul\":14582:14701   */\n        tag_612:\n            /* \"#utility.yul\":14768:14769   */\n          0x00\n            /* \"#utility.yul\":14757:14766   */\n          dup4\n            /* \"#utility.yul\":14753:14770   */\n          add\n            /* \"#utility.yul\":14740:14771   */\n          calldataload\n            /* \"#utility.yul\":14798:14816   */\n          0xffffffffffffffff\n            /* \"#utility.yul\":14790:14796   */\n          dup2\n            /* \"#utility.yul\":14787:14817   */\n          gt\n            /* \"#utility.yul\":14784:14901   */\n          iszero\n          tag_614\n          jumpi\n            /* \"#utility.yul\":14820:14899   */\n          tag_615\n          tag_386\n          jump\t// in\n        tag_615:\n            /* \"#utility.yul\":14784:14901   */\n        tag_614:\n            /* \"#utility.yul\":14925:15010   */\n          tag_616\n            /* \"#utility.yul\":15002:15009   */\n          dup6\n            /* \"#utility.yul\":14993:14999   */\n          dup3\n            /* \"#utility.yul\":14982:14991   */\n          dup7\n            /* \"#utility.yul\":14978:15000   */\n          add\n            /* \"#utility.yul\":14925:15010   */\n          tag_406\n          jump\t// in\n        tag_616:\n            /* \"#utility.yul\":14915:15010   */\n          swap3\n          pop\n            /* \"#utility.yul\":14711:15020   */\n          pop\n            /* \"#utility.yul\":15087:15089   */\n          0x20\n            /* \"#utility.yul\":15076:15085   */\n          dup4\n            /* \"#utility.yul\":15072:15090   */\n          add\n            /* \"#utility.yul\":15059:15091   */\n          calldataload\n            /* \"#utility.yul\":15118:15136   */\n          0xffffffffffffffff\n            /* \"#utility.yul\":15110:15116   */\n          dup2\n            /* \"#utility.yul\":15107:15137   */\n          gt\n            /* \"#utility.yul\":15104:15221   */\n          iszero\n          tag_617\n          jumpi\n            /* \"#utility.yul\":15140:15219   */\n          tag_618\n          tag_386\n          jump\t// in\n        tag_618:\n            /* \"#utility.yul\":15104:15221   */\n        tag_617:\n            /* \"#utility.yul\":15245:15325   */\n          tag_619\n            /* \"#utility.yul\":15317:15324   */\n          dup6\n            /* \"#utility.yul\":15308:15314   */\n          dup3\n            /* \"#utility.yul\":15297:15306   */\n          dup7\n            /* \"#utility.yul\":15293:15315   */\n          add\n            /* \"#utility.yul\":15245:15325   */\n          tag_411\n          jump\t// in\n        tag_619:\n            /* \"#utility.yul\":15235:15325   */\n          swap2\n          pop\n            /* \"#utility.yul\":15030:15335   */\n          pop\n            /* \"#utility.yul\":14430:15342   */\n          swap3\n          pop\n          swap3\n          swap1\n          pop\n          jump\t// out\n            /* \"#utility.yul\":15393:16989   */\n        tag_412:\n            /* \"#utility.yul\":15474:15479   */\n          0x00\n            /* \"#utility.yul\":15518:15522   */\n          0xa0\n            /* \"#utility.yul\":15506:15515   */\n          dup3\n            /* \"#utility.yul\":15501:15504   */\n          dup5\n            /* \"#utility.yul\":15497:15516   */\n          sub\n            /* \"#utility.yul\":15493:15523   */\n          slt\n            /* \"#utility.yul\":15490:15607   */\n          iszero\n          tag_621\n          jumpi\n            /* \"#utility.yul\":15526:15605   */\n          tag_622\n          tag_387\n          jump\t// in\n        tag_622:\n            /* \"#utility.yul\":15490:15607   */\n        tag_621:\n            /* \"#utility.yul\":15625:15646   */\n          tag_623\n            /* \"#utility.yul\":15641:15645   */\n          0xa0\n            /* \"#utility.yul\":15625:15646   */\n          tag_391\n          jump\t// in\n        tag_623:\n            /* \"#utility.yul\":15616:15646   */\n          swap1\n          pop\n            /* \"#utility.yul\":15704:15705   */\n          0x00\n            /* \"#utility.yul\":15744:15793   */\n          tag_624\n            /* \"#utility.yul\":15789:15792   */\n          dup5\n            /* \"#utility.yul\":15780:15786   */\n          dup3\n            /* \"#utility.yul\":15769:15778   */\n          dup6\n            /* \"#utility.yul\":15765:15787   */\n          add\n            /* \"#utility.yul\":15744:15793   */\n          tag_396\n          jump\t// in\n        tag_624:\n            /* \"#utility.yul\":15737:15741   */\n          0x00\n            /* \"#utility.yul\":15730:15735   */\n          dup4\n            /* \"#utility.yul\":15726:15742   */\n          add\n            /* \"#utility.yul\":15719:15794   */\n          mstore\n            /* \"#utility.yul\":15656:15805   */\n          pop\n            /* \"#utility.yul\":15904:15906   */\n          0x20\n            /* \"#utility.yul\":15893:15902   */\n          dup3\n            /* \"#utility.yul\":15889:15907   */\n          add\n            /* \"#utility.yul\":15876:15908   */\n          calldataload\n            /* \"#utility.yul\":15935:15953   */\n          0xffffffffffffffff\n            /* \"#utility.yul\":15927:15933   */\n          dup2\n            /* \"#utility.yul\":15924:15954   */\n          gt\n            /* \"#utility.yul\":15921:16038   */\n          iszero\n          tag_625\n          jumpi\n            /* \"#utility.yul\":15957:16036   */\n          tag_626\n          tag_392\n          jump\t// in\n        tag_626:\n            /* \"#utility.yul\":15921:16038   */\n        tag_625:\n            /* \"#utility.yul\":16077:16136   */\n          tag_627\n            /* \"#utility.yul\":16132:16135   */\n          dup5\n            /* \"#utility.yul\":16123:16129   */\n          dup3\n            /* \"#utility.yul\":16112:16121   */\n          dup6\n            /* \"#utility.yul\":16108:16130   */\n          add\n            /* \"#utility.yul\":16077:16136   */\n          tag_402\n          jump\t// in\n        tag_627:\n            /* \"#utility.yul\":16070:16074   */\n          0x20\n            /* \"#utility.yul\":16063:16068   */\n          dup4\n            /* \"#utility.yul\":16059:16075   */\n          add\n            /* \"#utility.yul\":16052:16137   */\n          mstore\n            /* \"#utility.yul\":15815:16148   */\n          pop\n            /* \"#utility.yul\":16243:16245   */\n          0x40\n            /* \"#utility.yul\":16232:16241   */\n          dup3\n            /* \"#utility.yul\":16228:16246   */\n          add\n            /* \"#utility.yul\":16215:16247   */\n          calldataload\n            /* \"#utility.yul\":16274:16292   */\n          0xffffffffffffffff\n            /* \"#utility.yul\":16266:16272   */\n          dup2\n            /* \"#utility.yul\":16263:16293   */\n          gt\n            /* \"#utility.yul\":16260:16377   */\n          iszero\n          tag_628\n          jumpi\n            /* \"#utility.yul\":16296:16375   */\n          tag_629\n          tag_392\n          jump\t// in\n        tag_629:\n            /* \"#utility.yul\":16260:16377   */\n        tag_628:\n            /* \"#utility.yul\":16416:16475   */\n          tag_630\n            /* \"#utility.yul\":16471:16474   */\n          dup5\n            /* \"#utility.yul\":16462:16468   */\n          dup3\n            /* \"#utility.yul\":16451:16460   */\n          dup6\n            /* \"#utility.yul\":16447:16469   */\n          add\n            /* \"#utility.yul\":16416:16475   */\n          tag_402\n          jump\t// in\n        tag_630:\n            /* \"#utility.yul\":16409:16413   */\n          0x40\n            /* \"#utility.yul\":16402:16407   */\n          dup4\n            /* \"#utility.yul\":16398:16414   */\n          add\n            /* \"#utility.yul\":16391:16476   */\n          mstore\n            /* \"#utility.yul\":16158:16487   */\n          pop\n            /* \"#utility.yul\":16544:16546   */\n          0x60\n            /* \"#utility.yul\":16585:16634   */\n          tag_631\n            /* \"#utility.yul\":16630:16633   */\n          dup5\n            /* \"#utility.yul\":16621:16627   */\n          dup3\n            /* \"#utility.yul\":16610:16619   */\n          dup6\n            /* \"#utility.yul\":16606:16628   */\n          add\n            /* \"#utility.yul\":16585:16634   */\n          tag_405\n          jump\t// in\n        tag_631:\n            /* \"#utility.yul\":16578:16582   */\n          0x60\n            /* \"#utility.yul\":16571:16576   */\n          dup4\n            /* \"#utility.yul\":16567:16583   */\n          add\n            /* \"#utility.yul\":16560:16635   */\n          mstore\n            /* \"#utility.yul\":16497:16646   */\n          pop\n            /* \"#utility.yul\":16737:16740   */\n          0x80\n            /* \"#utility.yul\":16726:16735   */\n          dup3\n            /* \"#utility.yul\":16722:16741   */\n          add\n            /* \"#utility.yul\":16709:16742   */\n          calldataload\n            /* \"#utility.yul\":16769:16787   */\n          0xffffffffffffffff\n            /* \"#utility.yul\":16761:16767   */\n          dup2\n            /* \"#utility.yul\":16758:16788   */\n          gt\n            /* \"#utility.yul\":16755:16872   */\n          iszero\n          tag_632\n          jumpi\n            /* \"#utility.yul\":16791:16870   */\n          tag_633\n          tag_392\n          jump\t// in\n        tag_633:\n            /* \"#utility.yul\":16755:16872   */\n        tag_632:\n            /* \"#utility.yul\":16911:16970   */\n          tag_634\n            /* \"#utility.yul\":16966:16969   */\n          dup5\n            /* \"#utility.yul\":16957:16963   */\n          dup3\n            /* \"#utility.yul\":16946:16955   */\n          dup6\n            /* \"#utility.yul\":16942:16964   */\n          add\n            /* \"#utility.yul\":16911:16970   */\n          tag_402\n          jump\t// in\n        tag_634:\n            /* \"#utility.yul\":16904:16908   */\n          0x80\n            /* \"#utility.yul\":16897:16902   */\n          dup4\n            /* \"#utility.yul\":16893:16909   */\n          add\n            /* \"#utility.yul\":16886:16971   */\n          mstore\n            /* \"#utility.yul\":16656:16982   */\n          pop\n            /* \"#utility.yul\":15393:16989   */\n          swap3\n          swap2\n          pop\n          pop\n          jump\t// out\n            /* \"#utility.yul\":17037:21685   */\n        tag_413:\n            /* \"#utility.yul\":17115:17120   */\n          0x00\n            /* \"#utility.yul\":17159:17165   */\n          0x01c0\n            /* \"#utility.yul\":17147:17156   */\n          dup3\n            /* \"#utility.yul\":17142:17145   */\n          dup5\n            /* \"#utility.yul\":17138:17157   */\n          sub\n            /* \"#utility.yul\":17134:17166   */\n          slt\n            /* \"#utility.yul\":17131:17250   */\n          iszero\n          tag_636\n          jumpi\n            /* \"#utility.yul\":17169:17248   */\n          tag_637\n          tag_387\n          jump\t// in\n        tag_637:\n            /* \"#utility.yul\":17131:17250   */\n        tag_636:\n            /* \"#utility.yul\":17268:17291   */\n          tag_638\n            /* \"#utility.yul\":17284:17290   */\n          0x01c0\n            /* \"#utility.yul\":17268:17291   */\n          tag_391\n          jump\t// in\n        tag_638:\n            /* \"#utility.yul\":17259:17291   */\n          swap1\n          pop\n            /* \"#utility.yul\":17361:17362   */\n          0x00\n            /* \"#utility.yul\":17401:17450   */\n          tag_639\n            /* \"#utility.yul\":17446:17449   */\n          dup5\n            /* \"#utility.yul\":17437:17443   */\n          dup3\n            /* \"#utility.yul\":17426:17435   */\n          dup6\n            /* \"#utility.yul\":17422:17444   */\n          add\n            /* \"#utility.yul\":17401:17450   */\n          tag_396\n          jump\t// in\n        tag_639:\n            /* \"#utility.yul\":17394:17398   */\n          0x00\n            /* \"#utility.yul\":17387:17392   */\n          dup4\n            /* \"#utility.yul\":17383:17399   */\n          add\n            /* \"#utility.yul\":17376:17451   */\n          mstore\n            /* \"#utility.yul\":17301:17462   */\n          pop\n            /* \"#utility.yul\":17550:17552   */\n          0x20\n            /* \"#utility.yul\":17539:17548   */\n          dup3\n            /* \"#utility.yul\":17535:17553   */\n          add\n            /* \"#utility.yul\":17522:17554   */\n          calldataload\n            /* \"#utility.yul\":17581:17599   */\n          0xffffffffffffffff\n            /* \"#utility.yul\":17573:17579   */\n          dup2\n            /* \"#utility.yul\":17570:17600   */\n          gt\n            /* \"#utility.yul\":17567:17684   */\n          iszero\n          tag_640\n          jumpi\n            /* \"#utility.yul\":17603:17682   */\n          tag_641\n          tag_392\n          jump\t// in\n        tag_641:\n            /* \"#utility.yul\":17567:17684   */\n        tag_640:\n            /* \"#utility.yul\":17723:17782   */\n          tag_642\n            /* \"#utility.yul\":17778:17781   */\n          dup5\n            /* \"#utility.yul\":17769:17775   */\n          dup3\n            /* \"#utility.yul\":17758:17767   */\n          dup6\n            /* \"#utility.yul\":17754:17776   */\n          add\n            /* \"#utility.yul\":17723:17782   */\n          tag_402\n          jump\t// in\n        tag_642:\n            /* \"#utility.yul\":17716:17720   */\n          0x20\n            /* \"#utility.yul\":17709:17714   */\n          dup4\n            /* \"#utility.yul\":17705:17721   */\n          add\n            /* \"#utility.yul\":17698:17783   */\n          mstore\n            /* \"#utility.yul\":17472:17794   */\n          pop\n            /* \"#utility.yul\":17889:17891   */\n          0x40\n            /* \"#utility.yul\":17878:17887   */\n          dup3\n            /* \"#utility.yul\":17874:17892   */\n          add\n            /* \"#utility.yul\":17861:17893   */\n          calldataload\n            /* \"#utility.yul\":17920:17938   */\n          0xffffffffffffffff\n            /* \"#utility.yul\":17912:17918   */\n          dup2\n            /* \"#utility.yul\":17909:17939   */\n          gt\n            /* \"#utility.yul\":17906:18023   */\n          iszero\n          tag_643\n          jumpi\n            /* \"#utility.yul\":17942:18021   */\n          tag_644\n          tag_392\n          jump\t// in\n        tag_644:\n            /* \"#utility.yul\":17906:18023   */\n        tag_643:\n            /* \"#utility.yul\":18062:18121   */\n          tag_645\n            /* \"#utility.yul\":18117:18120   */\n          dup5\n            /* \"#utility.yul\":18108:18114   */\n          dup3\n            /* \"#utility.yul\":18097:18106   */\n          dup6\n            /* \"#utility.yul\":18093:18115   */\n          add\n            /* \"#utility.yul\":18062:18121   */\n          tag_402\n          jump\t// in\n        tag_645:\n            /* \"#utility.yul\":18055:18059   */\n          0x40\n            /* \"#utility.yul\":18048:18053   */\n          dup4\n            /* \"#utility.yul\":18044:18060   */\n          add\n            /* \"#utility.yul\":18037:18122   */\n          mstore\n            /* \"#utility.yul\":17804:18133   */\n          pop\n            /* \"#utility.yul\":18222:18224   */\n          0x60\n            /* \"#utility.yul\":18211:18220   */\n          dup3\n            /* \"#utility.yul\":18207:18225   */\n          add\n            /* \"#utility.yul\":18194:18226   */\n          calldataload\n            /* \"#utility.yul\":18253:18271   */\n          0xffffffffffffffff\n            /* \"#utility.yul\":18245:18251   */\n          dup2\n            /* \"#utility.yul\":18242:18272   */\n          gt\n            /* \"#utility.yul\":18239:18356   */\n          iszero\n          tag_646\n          jumpi\n            /* \"#utility.yul\":18275:18354   */\n          tag_647\n          tag_392\n          jump\t// in\n        tag_647:\n            /* \"#utility.yul\":18239:18356   */\n        tag_646:\n            /* \"#utility.yul\":18395:18454   */\n          tag_648\n            /* \"#utility.yul\":18450:18453   */\n          dup5\n            /* \"#utility.yul\":18441:18447   */\n          dup3\n            /* \"#utility.yul\":18430:18439   */\n          dup6\n            /* \"#utility.yul\":18426:18448   */\n          add\n            /* \"#utility.yul\":18395:18454   */\n          tag_402\n          jump\t// in\n        tag_648:\n            /* \"#utility.yul\":18388:18392   */\n          0x60\n            /* \"#utility.yul\":18381:18386   */\n          dup4\n            /* \"#utility.yul\":18377:18393   */\n          add\n            /* \"#utility.yul\":18370:18455   */\n          mstore\n            /* \"#utility.yul\":18143:18466   */\n          pop\n            /* \"#utility.yul\":18556:18559   */\n          0x80\n            /* \"#utility.yul\":18545:18554   */\n          dup3\n            /* \"#utility.yul\":18541:18560   */\n          add\n            /* \"#utility.yul\":18528:18561   */\n          calldataload\n            /* \"#utility.yul\":18588:18606   */\n          0xffffffffffffffff\n            /* \"#utility.yul\":18580:18586   */\n          dup2\n            /* \"#utility.yul\":18577:18607   */\n          gt\n            /* \"#utility.yul\":18574:18691   */\n          iszero\n          tag_649\n          jumpi\n            /* \"#utility.yul\":18610:18689   */\n          tag_650\n          tag_392\n          jump\t// in\n        tag_650:\n            /* \"#utility.yul\":18574:18691   */\n        tag_649:\n            /* \"#utility.yul\":18730:18789   */\n          tag_651\n            /* \"#utility.yul\":18785:18788   */\n          dup5\n            /* \"#utility.yul\":18776:18782   */\n          dup3\n            /* \"#utility.yul\":18765:18774   */\n          dup6\n            /* \"#utility.yul\":18761:18783   */\n          add\n            /* \"#utility.yul\":18730:18789   */\n          tag_402\n          jump\t// in\n        tag_651:\n            /* \"#utility.yul\":18723:18727   */\n          0x80\n            /* \"#utility.yul\":18716:18721   */\n          dup4\n            /* \"#utility.yul\":18712:18728   */\n          add\n            /* \"#utility.yul\":18705:18790   */\n          mstore\n            /* \"#utility.yul\":18476:18801   */\n          pop\n            /* \"#utility.yul\":18897:18900   */\n          0xa0\n            /* \"#utility.yul\":18886:18895   */\n          dup3\n            /* \"#utility.yul\":18882:18901   */\n          add\n            /* \"#utility.yul\":18869:18902   */\n          calldataload\n            /* \"#utility.yul\":18929:18947   */\n          0xffffffffffffffff\n            /* \"#utility.yul\":18921:18927   */\n          dup2\n            /* \"#utility.yul\":18918:18948   */\n          gt\n            /* \"#utility.yul\":18915:19032   */\n          iszero\n          tag_652\n          jumpi\n            /* \"#utility.yul\":18951:19030   */\n          tag_653\n          tag_392\n          jump\t// in\n        tag_653:\n            /* \"#utility.yul\":18915:19032   */\n        tag_652:\n            /* \"#utility.yul\":19071:19130   */\n          tag_654\n            /* \"#utility.yul\":19126:19129   */\n          dup5\n            /* \"#utility.yul\":19117:19123   */\n          dup3\n            /* \"#utility.yul\":19106:19115   */\n          dup6\n            /* \"#utility.yul\":19102:19124   */\n          add\n            /* \"#utility.yul\":19071:19130   */\n          tag_402\n          jump\t// in\n        tag_654:\n            /* \"#utility.yul\":19064:19068   */\n          0xa0\n            /* \"#utility.yul\":19057:19062   */\n          dup4\n            /* \"#utility.yul\":19053:19069   */\n          add\n            /* \"#utility.yul\":19046:19131   */\n          mstore\n            /* \"#utility.yul\":18811:19142   */\n          pop\n            /* \"#utility.yul\":19234:19237   */\n          0xc0\n            /* \"#utility.yul\":19223:19232   */\n          dup3\n            /* \"#utility.yul\":19219:19238   */\n          add\n            /* \"#utility.yul\":19206:19239   */\n          calldataload\n            /* \"#utility.yul\":19266:19284   */\n          0xffffffffffffffff\n            /* \"#utility.yul\":19258:19264   */\n          dup2\n            /* \"#utility.yul\":19255:19285   */\n          gt\n            /* \"#utility.yul\":19252:19369   */\n          iszero\n          tag_655\n          jumpi\n            /* \"#utility.yul\":19288:19367   */\n          tag_656\n          tag_392\n          jump\t// in\n        tag_656:\n            /* \"#utility.yul\":19252:19369   */\n        tag_655:\n            /* \"#utility.yul\":19408:19467   */\n          tag_657\n            /* \"#utility.yul\":19463:19466   */\n          dup5\n            /* \"#utility.yul\":19454:19460   */\n          dup3\n            /* \"#utility.yul\":19443:19452   */\n          dup6\n            /* \"#utility.yul\":19439:19461   */\n          add\n            /* \"#utility.yul\":19408:19467   */\n          tag_402\n          jump\t// in\n        tag_657:\n            /* \"#utility.yul\":19401:19405   */\n          0xc0\n            /* \"#utility.yul\":19394:19399   */\n          dup4\n            /* \"#utility.yul\":19390:19406   */\n          add\n            /* \"#utility.yul\":19383:19468   */\n          mstore\n            /* \"#utility.yul\":19152:19479   */\n          pop\n            /* \"#utility.yul\":19567:19570   */\n          0xe0\n            /* \"#utility.yul\":19556:19565   */\n          dup3\n            /* \"#utility.yul\":19552:19571   */\n          add\n            /* \"#utility.yul\":19539:19572   */\n          calldataload\n            /* \"#utility.yul\":19599:19617   */\n          0xffffffffffffffff\n            /* \"#utility.yul\":19591:19597   */\n          dup2\n            /* \"#utility.yul\":19588:19618   */\n          gt\n            /* \"#utility.yul\":19585:19702   */\n          iszero\n          tag_658\n          jumpi\n            /* \"#utility.yul\":19621:19700   */\n          tag_659\n          tag_392\n          jump\t// in\n        tag_659:\n            /* \"#utility.yul\":19585:19702   */\n        tag_658:\n            /* \"#utility.yul\":19741:19800   */\n          tag_660\n            /* \"#utility.yul\":19796:19799   */\n          dup5\n            /* \"#utility.yul\":19787:19793   */\n          dup3\n            /* \"#utility.yul\":19776:19785   */\n          dup6\n            /* \"#utility.yul\":19772:19794   */\n          add\n            /* \"#utility.yul\":19741:19800   */\n          tag_402\n          jump\t// in\n        tag_660:\n            /* \"#utility.yul\":19734:19738   */\n          0xe0\n            /* \"#utility.yul\":19727:19732   */\n          dup4\n            /* \"#utility.yul\":19723:19739   */\n          add\n            /* \"#utility.yul\":19716:19801   */\n          mstore\n            /* \"#utility.yul\":19489:19812   */\n          pop\n            /* \"#utility.yul\":19904:19907   */\n          0x0100\n            /* \"#utility.yul\":19893:19902   */\n          dup3\n            /* \"#utility.yul\":19889:19908   */\n          add\n            /* \"#utility.yul\":19876:19909   */\n          calldataload\n            /* \"#utility.yul\":19936:19954   */\n          0xffffffffffffffff\n            /* \"#utility.yul\":19928:19934   */\n          dup2\n            /* \"#utility.yul\":19925:19955   */\n          gt\n            /* \"#utility.yul\":19922:20039   */\n          iszero\n          tag_661\n          jumpi\n            /* \"#utility.yul\":19958:20037   */\n          tag_662\n          tag_392\n          jump\t// in\n        tag_662:\n            /* \"#utility.yul\":19922:20039   */\n        tag_661:\n            /* \"#utility.yul\":20080:20139   */\n          tag_663\n            /* \"#utility.yul\":20135:20138   */\n          dup5\n            /* \"#utility.yul\":20126:20132   */\n          dup3\n            /* \"#utility.yul\":20115:20124   */\n          dup6\n            /* \"#utility.yul\":20111:20133   */\n          add\n            /* \"#utility.yul\":20080:20139   */\n          tag_402\n          jump\t// in\n        tag_663:\n            /* \"#utility.yul\":20071:20077   */\n          0x0100\n            /* \"#utility.yul\":20064:20069   */\n          dup4\n            /* \"#utility.yul\":20060:20078   */\n          add\n            /* \"#utility.yul\":20053:20140   */\n          mstore\n            /* \"#utility.yul\":19822:20151   */\n          pop\n            /* \"#utility.yul\":20255:20258   */\n          0x0120\n            /* \"#utility.yul\":20244:20253   */\n          dup3\n            /* \"#utility.yul\":20240:20259   */\n          add\n            /* \"#utility.yul\":20227:20260   */\n          calldataload\n            /* \"#utility.yul\":20287:20305   */\n          0xffffffffffffffff\n            /* \"#utility.yul\":20279:20285   */\n          dup2\n            /* \"#utility.yul\":20276:20306   */\n          gt\n            /* \"#utility.yul\":20273:20390   */\n          iszero\n          tag_664\n          jumpi\n            /* \"#utility.yul\":20309:20388   */\n          tag_665\n          tag_392\n          jump\t// in\n        tag_665:\n            /* \"#utility.yul\":20273:20390   */\n        tag_664:\n            /* \"#utility.yul\":20431:20490   */\n          tag_666\n            /* \"#utility.yul\":20486:20489   */\n          dup5\n            /* \"#utility.yul\":20477:20483   */\n          dup3\n            /* \"#utility.yul\":20466:20475   */\n          dup6\n            /* \"#utility.yul\":20462:20484   */\n          add\n            /* \"#utility.yul\":20431:20490   */\n          tag_402\n          jump\t// in\n        tag_666:\n            /* \"#utility.yul\":20422:20428   */\n          0x0120\n            /* \"#utility.yul\":20415:20420   */\n          dup4\n            /* \"#utility.yul\":20411:20429   */\n          add\n            /* \"#utility.yul\":20404:20491   */\n          mstore\n            /* \"#utility.yul\":20161:20502   */\n          pop\n            /* \"#utility.yul\":20587:20590   */\n          0x0140\n            /* \"#utility.yul\":20576:20585   */\n          dup3\n            /* \"#utility.yul\":20572:20591   */\n          add\n            /* \"#utility.yul\":20559:20592   */\n          calldataload\n            /* \"#utility.yul\":20619:20637   */\n          0xffffffffffffffff\n            /* \"#utility.yul\":20611:20617   */\n          dup2\n            /* \"#utility.yul\":20608:20638   */\n          gt\n            /* \"#utility.yul\":20605:20722   */\n          iszero\n          tag_667\n          jumpi\n            /* \"#utility.yul\":20641:20720   */\n          tag_668\n          tag_392\n          jump\t// in\n        tag_668:\n            /* \"#utility.yul\":20605:20722   */\n        tag_667:\n            /* \"#utility.yul\":20763:20822   */\n          tag_669\n            /* \"#utility.yul\":20818:20821   */\n          dup5\n            /* \"#utility.yul\":20809:20815   */\n          dup3\n            /* \"#utility.yul\":20798:20807   */\n          dup6\n            /* \"#utility.yul\":20794:20816   */\n          add\n            /* \"#utility.yul\":20763:20822   */\n          tag_402\n          jump\t// in\n        tag_669:\n            /* \"#utility.yul\":20754:20760   */\n          0x0140\n            /* \"#utility.yul\":20747:20752   */\n          dup4\n            /* \"#utility.yul\":20743:20761   */\n          add\n            /* \"#utility.yul\":20736:20823   */\n          mstore\n            /* \"#utility.yul\":20512:20834   */\n          pop\n            /* \"#utility.yul\":20895:20898   */\n          0x0160\n            /* \"#utility.yul\":20939:20988   */\n          tag_670\n            /* \"#utility.yul\":20984:20987   */\n          dup5\n            /* \"#utility.yul\":20975:20981   */\n          dup3\n            /* \"#utility.yul\":20964:20973   */\n          dup6\n            /* \"#utility.yul\":20960:20982   */\n          add\n            /* \"#utility.yul\":20939:20988   */\n          tag_396\n          jump\t// in\n        tag_670:\n            /* \"#utility.yul\":20930:20936   */\n          0x0160\n            /* \"#utility.yul\":20923:20928   */\n          dup4\n            /* \"#utility.yul\":20919:20937   */\n          add\n            /* \"#utility.yul\":20912:20989   */\n          mstore\n            /* \"#utility.yul\":20844:21000   */\n          pop\n            /* \"#utility.yul\":21092:21095   */\n          0x0180\n            /* \"#utility.yul\":21081:21090   */\n          dup3\n            /* \"#utility.yul\":21077:21096   */\n          add\n            /* \"#utility.yul\":21064:21097   */\n          calldataload\n            /* \"#utility.yul\":21124:21142   */\n          0xffffffffffffffff\n            /* \"#utility.yul\":21116:21122   */\n          dup2\n            /* \"#utility.yul\":21113:21143   */\n          gt\n            /* \"#utility.yul\":21110:21227   */\n          iszero\n          tag_671\n          jumpi\n            /* \"#utility.yul\":21146:21225   */\n          tag_672\n          tag_392\n          jump\t// in\n        tag_672:\n            /* \"#utility.yul\":21110:21227   */\n        tag_671:\n            /* \"#utility.yul\":21268:21327   */\n          tag_673\n            /* \"#utility.yul\":21323:21326   */\n          dup5\n            /* \"#utility.yul\":21314:21320   */\n          dup3\n            /* \"#utility.yul\":21303:21312   */\n          dup6\n            /* \"#utility.yul\":21299:21321   */\n          add\n            /* \"#utility.yul\":21268:21327   */\n          tag_402\n          jump\t// in\n        tag_673:\n            /* \"#utility.yul\":21259:21265   */\n          0x0180\n            /* \"#utility.yul\":21252:21257   */\n          dup4\n            /* \"#utility.yul\":21248:21266   */\n          add\n            /* \"#utility.yul\":21241:21328   */\n          mstore\n            /* \"#utility.yul\":21010:21339   */\n          pop\n            /* \"#utility.yul\":21431:21434   */\n          0x01a0\n            /* \"#utility.yul\":21420:21429   */\n          dup3\n            /* \"#utility.yul\":21416:21435   */\n          add\n            /* \"#utility.yul\":21403:21436   */\n          calldataload\n            /* \"#utility.yul\":21463:21481   */\n          0xffffffffffffffff\n            /* \"#utility.yul\":21455:21461   */\n          dup2\n            /* \"#utility.yul\":21452:21482   */\n          gt\n            /* \"#utility.yul\":21449:21566   */\n          iszero\n          tag_674\n          jumpi\n            /* \"#utility.yul\":21485:21564   */\n          tag_675\n          tag_392\n          jump\t// in\n        tag_675:\n            /* \"#utility.yul\":21449:21566   */\n        tag_674:\n            /* \"#utility.yul\":21607:21666   */\n          tag_676\n            /* \"#utility.yul\":21662:21665   */\n          dup5\n            /* \"#utility.yul\":21653:21659   */\n          dup3\n            /* \"#utility.yul\":21642:21651   */\n          dup6\n            /* \"#utility.yul\":21638:21660   */\n          add\n            /* \"#utility.yul\":21607:21666   */\n          tag_402\n          jump\t// in\n        tag_676:\n            /* \"#utility.yul\":21598:21604   */\n          0x01a0\n            /* \"#utility.yul\":21591:21596   */\n          dup4\n            /* \"#utility.yul\":21587:21605   */\n          add\n            /* \"#utility.yul\":21580:21667   */\n          mstore\n            /* \"#utility.yul\":21349:21678   */\n          pop\n            /* \"#utility.yul\":17037:21685   */\n          swap3\n          swap2\n          pop\n          pop\n          jump\t// out\n            /* \"#utility.yul\":21691:22607   */\n        tag_33:\n            /* \"#utility.yul\":21820:21826   */\n          0x00\n            /* \"#utility.yul\":21828:21834   */\n          dup1\n            /* \"#utility.yul\":21877:21879   */\n          0x40\n            /* \"#utility.yul\":21865:21874   */\n          dup4\n            /* \"#utility.yul\":21856:21863   */\n          dup6\n            /* \"#utility.yul\":21852:21875   */\n          sub\n            /* \"#utility.yul\":21848:21880   */\n          slt\n            /* \"#utility.yul\":21845:21964   */\n          iszero\n          tag_678\n          jumpi\n            /* \"#utility.yul\":21883:21962   */\n          tag_679\n          tag_385\n          jump\t// in\n        tag_679:\n            /* \"#utility.yul\":21845:21964   */\n        tag_678:\n            /* \"#utility.yul\":22031:22032   */\n          0x00\n            /* \"#utility.yul\":22020:22029   */\n          dup4\n            /* \"#utility.yul\":22016:22033   */\n          add\n            /* \"#utility.yul\":22003:22034   */\n          calldataload\n            /* \"#utility.yul\":22061:22079   */\n          0xffffffffffffffff\n            /* \"#utility.yul\":22053:22059   */\n          dup2\n            /* \"#utility.yul\":22050:22080   */\n          gt\n            /* \"#utility.yul\":22047:22164   */\n          iszero\n          tag_680\n          jumpi\n            /* \"#utility.yul\":22083:22162   */\n          tag_681\n          tag_386\n          jump\t// in\n        tag_681:\n            /* \"#utility.yul\":22047:22164   */\n        tag_680:\n            /* \"#utility.yul\":22188:22273   */\n          tag_682\n            /* \"#utility.yul\":22265:22272   */\n          dup6\n            /* \"#utility.yul\":22256:22262   */\n          dup3\n            /* \"#utility.yul\":22245:22254   */\n          dup7\n            /* \"#utility.yul\":22241:22263   */\n          add\n            /* \"#utility.yul\":22188:22273   */\n          tag_412\n          jump\t// in\n        tag_682:\n            /* \"#utility.yul\":22178:22273   */\n          swap3\n          pop\n            /* \"#utility.yul\":21974:22283   */\n          pop\n            /* \"#utility.yul\":22350:22352   */\n          0x20\n            /* \"#utility.yul\":22339:22348   */\n          dup4\n            /* \"#utility.yul\":22335:22353   */\n          add\n            /* \"#utility.yul\":22322:22354   */\n          calldataload\n            /* \"#utility.yul\":22381:22399   */\n          0xffffffffffffffff\n            /* \"#utility.yul\":22373:22379   */\n          dup2\n            /* \"#utility.yul\":22370:22400   */\n          gt\n            /* \"#utility.yul\":22367:22484   */\n          iszero\n          tag_683\n          jumpi\n            /* \"#utility.yul\":22403:22482   */\n          tag_684\n          tag_386\n          jump\t// in\n        tag_684:\n            /* \"#utility.yul\":22367:22484   */\n        tag_683:\n            /* \"#utility.yul\":22508:22590   */\n          tag_685\n            /* \"#utility.yul\":22582:22589   */\n          dup6\n            /* \"#utility.yul\":22573:22579   */\n          dup3\n            /* \"#utility.yul\":22562:22571   */\n          dup7\n            /* \"#utility.yul\":22558:22580   */\n          add\n            /* \"#utility.yul\":22508:22590   */\n          tag_413\n          jump\t// in\n        tag_685:\n            /* \"#utility.yul\":22498:22590   */\n          swap2\n          pop\n            /* \"#utility.yul\":22293:22600   */\n          pop\n            /* \"#utility.yul\":21691:22607   */\n          swap3\n          pop\n          swap3\n          swap1\n          pop\n          jump\t// out\n            /* \"#utility.yul\":22613:22721   */\n        tag_414:\n            /* \"#utility.yul\":22690:22714   */\n          tag_687\n            /* \"#utility.yul\":22708:22713   */\n          dup2\n            /* \"#utility.yul\":22690:22714   */\n          tag_394\n          jump\t// in\n        tag_687:\n            /* \"#utility.yul\":22685:22688   */\n          dup3\n            /* \"#utility.yul\":22678:22715   */\n          mstore\n            /* \"#utility.yul\":22613:22721   */\n          pop\n          pop\n          jump\t// out\n            /* \"#utility.yul\":22727:22826   */\n        tag_415:\n            /* \"#utility.yul\":22779:22785   */\n          0x00\n            /* \"#utility.yul\":22813:22818   */\n          dup2\n            /* \"#utility.yul\":22807:22819   */\n          mload\n            /* \"#utility.yul\":22797:22819   */\n          swap1\n          pop\n            /* \"#utility.yul\":22727:22826   */\n          swap2\n          swap1\n          pop\n          jump\t// out\n            /* \"#utility.yul\":22832:22991   */\n        tag_416:\n            /* \"#utility.yul\":22906:22917   */\n          0x00\n            /* \"#utility.yul\":22940:22946   */\n          dup3\n            /* \"#utility.yul\":22935:22938   */\n          dup3\n            /* \"#utility.yul\":22928:22947   */\n          mstore\n            /* \"#utility.yul\":22980:22984   */\n          0x20\n            /* \"#utility.yul\":22975:22978   */\n          dup3\n            /* \"#utility.yul\":22971:22985   */\n          add\n            /* \"#utility.yul\":22956:22985   */\n          swap1\n          pop\n            /* \"#utility.yul\":22832:22991   */\n          swap3\n          swap2\n          pop\n          pop\n          jump\t// out\n            /* \"#utility.yul\":22997:23243   */\n        tag_417:\n            /* \"#utility.yul\":23078:23079   */\n          0x00\n            /* \"#utility.yul\":23088:23201   */\n        tag_691:\n            /* \"#utility.yul\":23102:23108   */\n          dup4\n            /* \"#utility.yul\":23099:23100   */\n          dup2\n            /* \"#utility.yul\":23096:23109   */\n          lt\n            /* \"#utility.yul\":23088:23201   */\n          iszero\n          tag_693\n          jumpi\n            /* \"#utility.yul\":23187:23188   */\n          dup1\n            /* \"#utility.yul\":23182:23185   */\n          dup3\n            /* \"#utility.yul\":23178:23189   */\n          add\n            /* \"#utility.yul\":23172:23190   */\n          mload\n            /* \"#utility.yul\":23168:23169   */\n          dup2\n            /* \"#utility.yul\":23163:23166   */\n          dup5\n            /* \"#utility.yul\":23159:23170   */\n          add\n            /* \"#utility.yul\":23152:23191   */\n          mstore\n            /* \"#utility.yul\":23124:23126   */\n          0x20\n            /* \"#utility.yul\":23121:23122   */\n          dup2\n            /* \"#utility.yul\":23117:23127   */\n          add\n            /* \"#utility.yul\":23112:23127   */\n          swap1\n          pop\n            /* \"#utility.yul\":23088:23201   */\n          jump(tag_691)\n        tag_693:\n            /* \"#utility.yul\":23235:23236   */\n          0x00\n            /* \"#utility.yul\":23226:23232   */\n          dup5\n            /* \"#utility.yul\":23221:23224   */\n          dup5\n            /* \"#utility.yul\":23217:23233   */\n          add\n            /* \"#utility.yul\":23210:23237   */\n          mstore\n            /* \"#utility.yul\":23059:23243   */\n          pop\n            /* \"#utility.yul\":22997:23243   */\n          pop\n          pop\n          pop\n          jump\t// out\n            /* \"#utility.yul\":23249:23606   */\n        tag_418:\n            /* \"#utility.yul\":23327:23330   */\n          0x00\n            /* \"#utility.yul\":23355:23394   */\n          tag_695\n            /* \"#utility.yul\":23388:23393   */\n          dup3\n            /* \"#utility.yul\":23355:23394   */\n          tag_415\n          jump\t// in\n        tag_695:\n            /* \"#utility.yul\":23410:23471   */\n          tag_696\n            /* \"#utility.yul\":23464:23470   */\n          dup2\n            /* \"#utility.yul\":23459:23462   */\n          dup6\n            /* \"#utility.yul\":23410:23471   */\n          tag_416\n          jump\t// in\n        tag_696:\n            /* \"#utility.yul\":23403:23471   */\n          swap4\n          pop\n            /* \"#utility.yul\":23480:23545   */\n          tag_697\n            /* \"#utility.yul\":23538:23544   */\n          dup2\n            /* \"#utility.yul\":23533:23536   */\n          dup6\n            /* \"#utility.yul\":23526:23530   */\n          0x20\n            /* \"#utility.yul\":23519:23524   */\n          dup7\n            /* \"#utility.yul\":23515:23531   */\n          add\n            /* \"#utility.yul\":23480:23545   */\n          tag_417\n          jump\t// in\n        tag_697:\n            /* \"#utility.yul\":23570:23599   */\n          tag_698\n            /* \"#utility.yul\":23592:23598   */\n          dup2\n            /* \"#utility.yul\":23570:23599   */\n          tag_388\n          jump\t// in\n        tag_698:\n            /* \"#utility.yul\":23565:23568   */\n          dup5\n            /* \"#utility.yul\":23561:23600   */\n          add\n            /* \"#utility.yul\":23554:23600   */\n          swap2\n          pop\n            /* \"#utility.yul\":23331:23606   */\n          pop\n            /* \"#utility.yul\":23249:23606   */\n          swap3\n          swap2\n          pop\n          pop\n          jump\t// out\n            /* \"#utility.yul\":23612:23720   */\n        tag_419:\n            /* \"#utility.yul\":23689:23713   */\n          tag_700\n            /* \"#utility.yul\":23707:23712   */\n          dup2\n            /* \"#utility.yul\":23689:23713   */\n          tag_403\n          jump\t// in\n        tag_700:\n            /* \"#utility.yul\":23684:23687   */\n          dup3\n            /* \"#utility.yul\":23677:23714   */\n          mstore\n            /* \"#utility.yul\":23612:23720   */\n          pop\n          pop\n          jump\t// out\n            /* \"#utility.yul\":23812:25125   */\n        tag_420:\n            /* \"#utility.yul\":23945:23948   */\n          0x00\n            /* \"#utility.yul\":23981:23985   */\n          0xa0\n            /* \"#utility.yul\":23976:23979   */\n          dup4\n            /* \"#utility.yul\":23972:23986   */\n          add\n            /* \"#utility.yul\":24078:24082   */\n          0x00\n            /* \"#utility.yul\":24071:24076   */\n          dup4\n            /* \"#utility.yul\":24067:24083   */\n          add\n            /* \"#utility.yul\":24061:24084   */\n          mload\n            /* \"#utility.yul\":24097:24160   */\n          tag_702\n            /* \"#utility.yul\":24154:24158   */\n          0x00\n            /* \"#utility.yul\":24149:24152   */\n          dup7\n            /* \"#utility.yul\":24145:24159   */\n          add\n            /* \"#utility.yul\":24131:24143   */\n          dup3\n            /* \"#utility.yul\":24097:24160   */\n          tag_414\n          jump\t// in\n        tag_702:\n            /* \"#utility.yul\":23996:24170   */\n          pop\n            /* \"#utility.yul\":24260:24264   */\n          0x20\n            /* \"#utility.yul\":24253:24258   */\n          dup4\n            /* \"#utility.yul\":24249:24265   */\n          add\n            /* \"#utility.yul\":24243:24266   */\n          mload\n            /* \"#utility.yul\":24313:24316   */\n          dup5\n            /* \"#utility.yul\":24307:24311   */\n          dup3\n            /* \"#utility.yul\":24303:24317   */\n          sub\n            /* \"#utility.yul\":24296:24300   */\n          0x20\n            /* \"#utility.yul\":24291:24294   */\n          dup7\n            /* \"#utility.yul\":24287:24301   */\n          add\n            /* \"#utility.yul\":24280:24318   */\n          mstore\n            /* \"#utility.yul\":24339:24412   */\n          tag_703\n            /* \"#utility.yul\":24407:24411   */\n          dup3\n            /* \"#utility.yul\":24393:24405   */\n          dup3\n            /* \"#utility.yul\":24339:24412   */\n          tag_418\n          jump\t// in\n        tag_703:\n            /* \"#utility.yul\":24331:24412   */\n          swap2\n          pop\n            /* \"#utility.yul\":24180:24423   */\n          pop\n            /* \"#utility.yul\":24505:24509   */\n          0x40\n            /* \"#utility.yul\":24498:24503   */\n          dup4\n            /* \"#utility.yul\":24494:24510   */\n          add\n            /* \"#utility.yul\":24488:24511   */\n          mload\n            /* \"#utility.yul\":24524:24587   */\n          tag_704\n            /* \"#utility.yul\":24581:24585   */\n          0x40\n            /* \"#utility.yul\":24576:24579   */\n          dup7\n            /* \"#utility.yul\":24572:24586   */\n          add\n            /* \"#utility.yul\":24558:24570   */\n          dup3\n            /* \"#utility.yul\":24524:24587   */\n          tag_419\n          jump\t// in\n        tag_704:\n            /* \"#utility.yul\":24433:24597   */\n          pop\n            /* \"#utility.yul\":24688:24692   */\n          0x60\n            /* \"#utility.yul\":24681:24686   */\n          dup4\n            /* \"#utility.yul\":24677:24693   */\n          add\n            /* \"#utility.yul\":24671:24694   */\n          mload\n            /* \"#utility.yul\":24741:24744   */\n          dup5\n            /* \"#utility.yul\":24735:24739   */\n          dup3\n            /* \"#utility.yul\":24731:24745   */\n          sub\n            /* \"#utility.yul\":24724:24728   */\n          0x60\n            /* \"#utility.yul\":24719:24722   */\n          dup7\n            /* \"#utility.yul\":24715:24729   */\n          add\n            /* \"#utility.yul\":24708:24746   */\n          mstore\n            /* \"#utility.yul\":24767:24840   */\n          tag_705\n            /* \"#utility.yul\":24835:24839   */\n          dup3\n            /* \"#utility.yul\":24821:24833   */\n          dup3\n            /* \"#utility.yul\":24767:24840   */\n          tag_418\n          jump\t// in\n        tag_705:\n            /* \"#utility.yul\":24759:24840   */\n          swap2\n          pop\n            /* \"#utility.yul\":24607:24851   */\n          pop\n            /* \"#utility.yul\":24935:24939   */\n          0x80\n            /* \"#utility.yul\":24928:24933   */\n          dup4\n            /* \"#utility.yul\":24924:24940   */\n          add\n            /* \"#utility.yul\":24918:24941   */\n          mload\n            /* \"#utility.yul\":24988:24991   */\n          dup5\n            /* \"#utility.yul\":24982:24986   */\n          dup3\n            /* \"#utility.yul\":24978:24992   */\n          sub\n            /* \"#utility.yul\":24971:24975   */\n          0x80\n            /* \"#utility.yul\":24966:24969   */\n          dup7\n            /* \"#utility.yul\":24962:24976   */\n          add\n            /* \"#utility.yul\":24955:24993   */\n          mstore\n            /* \"#utility.yul\":25014:25087   */\n          tag_706\n            /* \"#utility.yul\":25082:25086   */\n          dup3\n            /* \"#utility.yul\":25068:25080   */\n          dup3\n            /* \"#utility.yul\":25014:25087   */\n          tag_418\n          jump\t// in\n        tag_706:\n            /* \"#utility.yul\":25006:25087   */\n          swap2\n          pop\n            /* \"#utility.yul\":24861:25098   */\n          pop\n            /* \"#utility.yul\":25115:25119   */\n          dup1\n            /* \"#utility.yul\":25108:25119   */\n          swap2\n          pop\n            /* \"#utility.yul\":23950:25125   */\n          pop\n            /* \"#utility.yul\":23812:25125   */\n          swap3\n          swap2\n          pop\n          pop\n          jump\t// out\n            /* \"#utility.yul\":25131:25272   */\n        tag_421:\n            /* \"#utility.yul\":25225:25231   */\n          0x00\n            /* \"#utility.yul\":25259:25264   */\n          dup2\n            /* \"#utility.yul\":25253:25265   */\n          mload\n            /* \"#utility.yul\":25243:25265   */\n          swap1\n          pop\n            /* \"#utility.yul\":25131:25272   */\n          swap2\n          swap1\n          pop\n          jump\t// out\n            /* \"#utility.yul\":25278:25489   */\n        tag_422:\n            /* \"#utility.yul\":25404:25415   */\n          0x00\n            /* \"#utility.yul\":25438:25444   */\n          dup3\n            /* \"#utility.yul\":25433:25436   */\n          dup3\n            /* \"#utility.yul\":25426:25445   */\n          mstore\n            /* \"#utility.yul\":25478:25482   */\n          0x20\n            /* \"#utility.yul\":25473:25476   */\n          dup3\n            /* \"#utility.yul\":25469:25483   */\n          add\n            /* \"#utility.yul\":25454:25483   */\n          swap1\n          pop\n            /* \"#utility.yul\":25278:25489   */\n          swap3\n          swap2\n          pop\n          pop\n          jump\t// out\n            /* \"#utility.yul\":25495:25654   */\n        tag_423:\n            /* \"#utility.yul\":25589:25593   */\n          0x00\n            /* \"#utility.yul\":25612:25615   */\n          dup2\n            /* \"#utility.yul\":25604:25615   */\n          swap1\n          pop\n            /* \"#utility.yul\":25642:25646   */\n          0x20\n            /* \"#utility.yul\":25637:25640   */\n          dup3\n            /* \"#utility.yul\":25633:25647   */\n          add\n            /* \"#utility.yul\":25625:25647   */\n          swap1\n          pop\n            /* \"#utility.yul\":25495:25654   */\n          swap2\n          swap1\n          pop\n          jump\t// out\n            /* \"#utility.yul\":25660:25759   */\n        tag_424:\n            /* \"#utility.yul\":25731:25752   */\n          tag_711\n            /* \"#utility.yul\":25746:25751   */\n          dup2\n            /* \"#utility.yul\":25731:25752   */\n          tag_407\n          jump\t// in\n        tag_711:\n            /* \"#utility.yul\":25726:25729   */\n          dup3\n            /* \"#utility.yul\":25719:25753   */\n          mstore\n            /* \"#utility.yul\":25660:25759   */\n          pop\n          pop\n          jump\t// out\n            /* \"#utility.yul\":25841:28391   */\n        tag_425:\n            /* \"#utility.yul\":25954:25957   */\n          0x00\n            /* \"#utility.yul\":25990:25996   */\n          0x0140\n            /* \"#utility.yul\":25985:25988   */\n          dup4\n            /* \"#utility.yul\":25981:25997   */\n          add\n            /* \"#utility.yul\":26090:26094   */\n          0x00\n            /* \"#utility.yul\":26083:26088   */\n          dup4\n            /* \"#utility.yul\":26079:26095   */\n          add\n            /* \"#utility.yul\":26073:26096   */\n          mload\n            /* \"#utility.yul\":26109:26172   */\n          tag_713\n            /* \"#utility.yul\":26166:26170   */\n          0x00\n            /* \"#utility.yul\":26161:26164   */\n          dup7\n            /* \"#utility.yul\":26157:26171   */\n          add\n            /* \"#utility.yul\":26143:26155   */\n          dup3\n            /* \"#utility.yul\":26109:26172   */\n          tag_414\n          jump\t// in\n        tag_713:\n            /* \"#utility.yul\":26007:26182   */\n          pop\n            /* \"#utility.yul\":26265:26269   */\n          0x20\n            /* \"#utility.yul\":26258:26263   */\n          dup4\n            /* \"#utility.yul\":26254:26270   */\n          add\n            /* \"#utility.yul\":26248:26271   */\n          mload\n            /* \"#utility.yul\":26318:26321   */\n          dup5\n            /* \"#utility.yul\":26312:26316   */\n          dup3\n            /* \"#utility.yul\":26308:26322   */\n          sub\n            /* \"#utility.yul\":26301:26305   */\n          0x20\n            /* \"#utility.yul\":26296:26299   */\n          dup7\n            /* \"#utility.yul\":26292:26306   */\n          add\n            /* \"#utility.yul\":26285:26323   */\n          mstore\n            /* \"#utility.yul\":26344:26417   */\n          tag_714\n            /* \"#utility.yul\":26412:26416   */\n          dup3\n            /* \"#utility.yul\":26398:26410   */\n          dup3\n            /* \"#utility.yul\":26344:26417   */\n          tag_418\n          jump\t// in\n        tag_714:\n            /* \"#utility.yul\":26336:26417   */\n          swap2\n          pop\n            /* \"#utility.yul\":26192:26428   */\n          pop\n            /* \"#utility.yul\":26519:26523   */\n          0x40\n            /* \"#utility.yul\":26512:26517   */\n          dup4\n            /* \"#utility.yul\":26508:26524   */\n          add\n            /* \"#utility.yul\":26502:26525   */\n          mload\n            /* \"#utility.yul\":26572:26575   */\n          dup5\n            /* \"#utility.yul\":26566:26570   */\n          dup3\n            /* \"#utility.yul\":26562:26576   */\n          sub\n            /* \"#utility.yul\":26555:26559   */\n          0x40\n            /* \"#utility.yul\":26550:26553   */\n          dup7\n            /* \"#utility.yul\":26546:26560   */\n          add\n            /* \"#utility.yul\":26539:26577   */\n          mstore\n            /* \"#utility.yul\":26598:26671   */\n          tag_715\n            /* \"#utility.yul\":26666:26670   */\n          dup3\n            /* \"#utility.yul\":26652:26664   */\n          dup3\n            /* \"#utility.yul\":26598:26671   */\n          tag_418\n          jump\t// in\n        tag_715:\n            /* \"#utility.yul\":26590:26671   */\n          swap2\n          pop\n            /* \"#utility.yul\":26438:26682   */\n          pop\n            /* \"#utility.yul\":26769:26773   */\n          0x60\n            /* \"#utility.yul\":26762:26767   */\n          dup4\n            /* \"#utility.yul\":26758:26774   */\n          add\n            /* \"#utility.yul\":26752:26775   */\n          mload\n            /* \"#utility.yul\":26822:26825   */\n          dup5\n            /* \"#utility.yul\":26816:26820   */\n          dup3\n            /* \"#utility.yul\":26812:26826   */\n          sub\n            /* \"#utility.yul\":26805:26809   */\n          0x60\n            /* \"#utility.yul\":26800:26803   */\n          dup7\n            /* \"#utility.yul\":26796:26810   */\n          add\n            /* \"#utility.yul\":26789:26827   */\n          mstore\n            /* \"#utility.yul\":26848:26921   */\n          tag_716\n            /* \"#utility.yul\":26916:26920   */\n          dup3\n            /* \"#utility.yul\":26902:26914   */\n          dup3\n            /* \"#utility.yul\":26848:26921   */\n          tag_418\n          jump\t// in\n        tag_716:\n            /* \"#utility.yul\":26840:26921   */\n          swap2\n          pop\n            /* \"#utility.yul\":26692:26932   */\n          pop\n            /* \"#utility.yul\":27015:27019   */\n          0x80\n            /* \"#utility.yul\":27008:27013   */\n          dup4\n            /* \"#utility.yul\":27004:27020   */\n          add\n            /* \"#utility.yul\":26998:27021   */\n          mload\n            /* \"#utility.yul\":27068:27071   */\n          dup5\n            /* \"#utility.yul\":27062:27066   */\n          dup3\n            /* \"#utility.yul\":27058:27072   */\n          sub\n            /* \"#utility.yul\":27051:27055   */\n          0x80\n            /* \"#utility.yul\":27046:27049   */\n          dup7\n            /* \"#utility.yul\":27042:27056   */\n          add\n            /* \"#utility.yul\":27035:27073   */\n          mstore\n            /* \"#utility.yul\":27094:27167   */\n          tag_717\n            /* \"#utility.yul\":27162:27166   */\n          dup3\n            /* \"#utility.yul\":27148:27160   */\n          dup3\n            /* \"#utility.yul\":27094:27167   */\n          tag_418\n          jump\t// in\n        tag_717:\n            /* \"#utility.yul\":27086:27167   */\n          swap2\n          pop\n            /* \"#utility.yul\":26942:27178   */\n          pop\n            /* \"#utility.yul\":27265:27269   */\n          0xa0\n            /* \"#utility.yul\":27258:27263   */\n          dup4\n            /* \"#utility.yul\":27254:27270   */\n          add\n            /* \"#utility.yul\":27248:27271   */\n          mload\n            /* \"#utility.yul\":27318:27321   */\n          dup5\n            /* \"#utility.yul\":27312:27316   */\n          dup3\n            /* \"#utility.yul\":27308:27322   */\n          sub\n            /* \"#utility.yul\":27301:27305   */\n          0xa0\n            /* \"#utility.yul\":27296:27299   */\n          dup7\n            /* \"#utility.yul\":27292:27306   */\n          add\n            /* \"#utility.yul\":27285:27323   */\n          mstore\n            /* \"#utility.yul\":27344:27417   */\n          tag_718\n            /* \"#utility.yul\":27412:27416   */\n          dup3\n            /* \"#utility.yul\":27398:27410   */\n          dup3\n            /* \"#utility.yul\":27344:27417   */\n          tag_418\n          jump\t// in\n        tag_718:\n            /* \"#utility.yul\":27336:27417   */\n          swap2\n          pop\n            /* \"#utility.yul\":27188:27428   */\n          pop\n            /* \"#utility.yul\":27508:27512   */\n          0xc0\n            /* \"#utility.yul\":27501:27506   */\n          dup4\n            /* \"#utility.yul\":27497:27513   */\n          add\n            /* \"#utility.yul\":27491:27514   */\n          mload\n            /* \"#utility.yul\":27561:27564   */\n          dup5\n            /* \"#utility.yul\":27555:27559   */\n          dup3\n            /* \"#utility.yul\":27551:27565   */\n          sub\n            /* \"#utility.yul\":27544:27548   */\n          0xc0\n            /* \"#utility.yul\":27539:27542   */\n          dup7\n            /* \"#utility.yul\":27535:27549   */\n          add\n            /* \"#utility.yul\":27528:27566   */\n          mstore\n            /* \"#utility.yul\":27587:27660   */\n          tag_719\n            /* \"#utility.yul\":27655:27659   */\n          dup3\n            /* \"#utility.yul\":27641:27653   */\n          dup3\n            /* \"#utility.yul\":27587:27660   */\n          tag_418\n          jump\t// in\n        tag_719:\n            /* \"#utility.yul\":27579:27660   */\n          swap2\n          pop\n            /* \"#utility.yul\":27438:27671   */\n          pop\n            /* \"#utility.yul\":27770:27774   */\n          0xe0\n            /* \"#utility.yul\":27763:27768   */\n          dup4\n            /* \"#utility.yul\":27759:27775   */\n          add\n            /* \"#utility.yul\":27753:27776   */\n          mload\n            /* \"#utility.yul\":27823:27826   */\n          dup5\n            /* \"#utility.yul\":27817:27821   */\n          dup3\n            /* \"#utility.yul\":27813:27827   */\n          sub\n            /* \"#utility.yul\":27806:27810   */\n          0xe0\n            /* \"#utility.yul\":27801:27804   */\n          dup7\n            /* \"#utility.yul\":27797:27811   */\n          add\n            /* \"#utility.yul\":27790:27828   */\n          mstore\n            /* \"#utility.yul\":27849:27922   */\n          tag_720\n            /* \"#utility.yul\":27917:27921   */\n          dup3\n            /* \"#utility.yul\":27903:27915   */\n          dup3\n            /* \"#utility.yul\":27849:27922   */\n          tag_418\n          jump\t// in\n        tag_720:\n            /* \"#utility.yul\":27841:27922   */\n          swap2\n          pop\n            /* \"#utility.yul\":27681:27933   */\n          pop\n            /* \"#utility.yul\":28020:28026   */\n          0x0100\n            /* \"#utility.yul\":28013:28018   */\n          dup4\n            /* \"#utility.yul\":28009:28027   */\n          add\n            /* \"#utility.yul\":28003:28028   */\n          mload\n            /* \"#utility.yul\":28077:28080   */\n          dup5\n            /* \"#utility.yul\":28071:28075   */\n          dup3\n            /* \"#utility.yul\":28067:28081   */\n          sub\n            /* \"#utility.yul\":28058:28064   */\n          0x0100\n            /* \"#utility.yul\":28053:28056   */\n          dup7\n            /* \"#utility.yul\":28049:28065   */\n          add\n            /* \"#utility.yul\":28042:28082   */\n          mstore\n            /* \"#utility.yul\":28103:28176   */\n          tag_721\n            /* \"#utility.yul\":28171:28175   */\n          dup3\n            /* \"#utility.yul\":28157:28169   */\n          dup3\n            /* \"#utility.yul\":28103:28176   */\n          tag_418\n          jump\t// in\n        tag_721:\n            /* \"#utility.yul\":28095:28176   */\n          swap2\n          pop\n            /* \"#utility.yul\":27943:28187   */\n          pop\n            /* \"#utility.yul\":28274:28280   */\n          0x0120\n            /* \"#utility.yul\":28267:28272   */\n          dup4\n            /* \"#utility.yul\":28263:28281   */\n          add\n            /* \"#utility.yul\":28257:28282   */\n          mload\n            /* \"#utility.yul\":28295:28354   */\n          tag_722\n            /* \"#utility.yul\":28346:28352   */\n          0x0120\n            /* \"#utility.yul\":28341:28344   */\n          dup7\n            /* \"#utility.yul\":28337:28353   */\n          add\n            /* \"#utility.yul\":28323:28335   */\n          dup3\n            /* \"#utility.yul\":28295:28354   */\n          tag_424\n          jump\t// in\n        tag_722:\n            /* \"#utility.yul\":28197:28364   */\n          pop\n            /* \"#utility.yul\":28381:28385   */\n          dup1\n            /* \"#utility.yul\":28374:28385   */\n          swap2\n          pop\n            /* \"#utility.yul\":25959:28391   */\n          pop\n            /* \"#utility.yul\":25841:28391   */\n          swap3\n          swap2\n          pop\n          pop\n          jump\t// out\n            /* \"#utility.yul\":28397:28661   */\n        tag_426:\n            /* \"#utility.yul\":28520:28530   */\n          0x00\n            /* \"#utility.yul\":28555:28655   */\n          tag_724\n            /* \"#utility.yul\":28651:28654   */\n          dup4\n            /* \"#utility.yul\":28643:28649   */\n          dup4\n            /* \"#utility.yul\":28555:28655   */\n          tag_425\n          jump\t// in\n        tag_724:\n            /* \"#utility.yul\":28541:28655   */\n          swap1\n          pop\n            /* \"#utility.yul\":28397:28661   */\n          swap3\n          swap2\n          pop\n          pop\n          jump\t// out\n            /* \"#utility.yul\":28667:28807   */\n        tag_427:\n            /* \"#utility.yul\":28764:28768   */\n          0x00\n            /* \"#utility.yul\":28796:28800   */\n          0x20\n            /* \"#utility.yul\":28791:28794   */\n          dup3\n            /* \"#utility.yul\":28787:28801   */\n          add\n            /* \"#utility.yul\":28779:28801   */\n          swap1\n          pop\n            /* \"#utility.yul\":28667:28807   */\n          swap2\n          swap1\n          pop\n          jump\t// out\n            /* \"#utility.yul\":28893:30020   */\n        tag_428:\n            /* \"#utility.yul\":29066:29069   */\n          0x00\n            /* \"#utility.yul\":29095:29176   */\n          tag_727\n            /* \"#utility.yul\":29170:29175   */\n          dup3\n            /* \"#utility.yul\":29095:29176   */\n          tag_421\n          jump\t// in\n        tag_727:\n            /* \"#utility.yul\":29192:29305   */\n          tag_728\n            /* \"#utility.yul\":29298:29304   */\n          dup2\n            /* \"#utility.yul\":29293:29296   */\n          dup6\n            /* \"#utility.yul\":29192:29305   */\n          tag_422\n          jump\t// in\n        tag_728:\n            /* \"#utility.yul\":29185:29305   */\n          swap4\n          pop\n            /* \"#utility.yul\":29331:29334   */\n          dup4\n            /* \"#utility.yul\":29376:29380   */\n          0x20\n            /* \"#utility.yul\":29368:29374   */\n          dup3\n            /* \"#utility.yul\":29364:29381   */\n          mul\n            /* \"#utility.yul\":29359:29362   */\n          dup6\n            /* \"#utility.yul\":29355:29382   */\n          add\n            /* \"#utility.yul\":29406:29489   */\n          tag_729\n            /* \"#utility.yul\":29483:29488   */\n          dup6\n            /* \"#utility.yul\":29406:29489   */\n          tag_423\n          jump\t// in\n        tag_729:\n            /* \"#utility.yul\":29512:29519   */\n          dup1\n            /* \"#utility.yul\":29543:29544   */\n          0x00\n            /* \"#utility.yul\":29528:29975   */\n        tag_730:\n            /* \"#utility.yul\":29553:29559   */\n          dup6\n            /* \"#utility.yul\":29550:29551   */\n          dup2\n            /* \"#utility.yul\":29547:29560   */\n          lt\n            /* \"#utility.yul\":29528:29975   */\n          iszero\n          tag_732\n          jumpi\n            /* \"#utility.yul\":29624:29633   */\n          dup5\n            /* \"#utility.yul\":29618:29622   */\n          dup5\n            /* \"#utility.yul\":29614:29634   */\n          sub\n            /* \"#utility.yul\":29609:29612   */\n          dup10\n            /* \"#utility.yul\":29602:29635   */\n          mstore\n            /* \"#utility.yul\":29675:29681   */\n          dup2\n            /* \"#utility.yul\":29669:29682   */\n          mload\n            /* \"#utility.yul\":29703:29821   */\n          tag_733\n            /* \"#utility.yul\":29816:29820   */\n          dup6\n            /* \"#utility.yul\":29801:29814   */\n          dup3\n            /* \"#utility.yul\":29703:29821   */\n          tag_426\n          jump\t// in\n        tag_733:\n            /* \"#utility.yul\":29695:29821   */\n          swap5\n          pop\n            /* \"#utility.yul\":29844:29931   */\n          tag_734\n            /* \"#utility.yul\":29924:29930   */\n          dup4\n            /* \"#utility.yul\":29844:29931   */\n          tag_427\n          jump\t// in\n        tag_734:\n            /* \"#utility.yul\":29834:29931   */\n          swap3\n          pop\n            /* \"#utility.yul\":29960:29964   */\n          0x20\n            /* \"#utility.yul\":29955:29958   */\n          dup11\n            /* \"#utility.yul\":29951:29965   */\n          add\n            /* \"#utility.yul\":29944:29965   */\n          swap10\n          pop\n            /* \"#utility.yul\":29588:29975   */\n          pop\n            /* \"#utility.yul\":29575:29576   */\n          0x01\n            /* \"#utility.yul\":29572:29573   */\n          dup2\n            /* \"#utility.yul\":29568:29577   */\n          add\n            /* \"#utility.yul\":29563:29577   */\n          swap1\n          pop\n            /* \"#utility.yul\":29528:29975   */\n          jump(tag_730)\n        tag_732:\n            /* \"#utility.yul\":29532:29546   */\n          pop\n            /* \"#utility.yul\":29991:29995   */\n          dup3\n            /* \"#utility.yul\":29984:29995   */\n          swap8\n          pop\n            /* \"#utility.yul\":30011:30014   */\n          dup8\n            /* \"#utility.yul\":30004:30014   */\n          swap6\n          pop\n            /* \"#utility.yul\":29071:30020   */\n          pop\n          pop\n          pop\n          pop\n          pop\n            /* \"#utility.yul\":28893:30020   */\n          swap3\n          swap2\n          pop\n          pop\n          jump\t// out\n            /* \"#utility.yul\":30026:30796   */\n        tag_39:\n            /* \"#utility.yul\":30315:30319   */\n          0x00\n            /* \"#utility.yul\":30353:30355   */\n          0x40\n            /* \"#utility.yul\":30342:30351   */\n          dup3\n            /* \"#utility.yul\":30338:30356   */\n          add\n            /* \"#utility.yul\":30330:30356   */\n          swap1\n          pop\n            /* \"#utility.yul\":30402:30411   */\n          dup2\n            /* \"#utility.yul\":30396:30400   */\n          dup2\n            /* \"#utility.yul\":30392:30412   */\n          sub\n            /* \"#utility.yul\":30388:30389   */\n          0x00\n            /* \"#utility.yul\":30377:30386   */\n          dup4\n            /* \"#utility.yul\":30373:30390   */\n          add\n            /* \"#utility.yul\":30366:30413   */\n          mstore\n            /* \"#utility.yul\":30430:30552   */\n          tag_736\n            /* \"#utility.yul\":30547:30551   */\n          dup2\n            /* \"#utility.yul\":30538:30544   */\n          dup6\n            /* \"#utility.yul\":30430:30552   */\n          tag_420\n          jump\t// in\n        tag_736:\n            /* \"#utility.yul\":30422:30552   */\n          swap1\n          pop\n            /* \"#utility.yul\":30599:30608   */\n          dup2\n            /* \"#utility.yul\":30593:30597   */\n          dup2\n            /* \"#utility.yul\":30589:30609   */\n          sub\n            /* \"#utility.yul\":30584:30586   */\n          0x20\n            /* \"#utility.yul\":30573:30582   */\n          dup4\n            /* \"#utility.yul\":30569:30587   */\n          add\n            /* \"#utility.yul\":30562:30610   */\n          mstore\n            /* \"#utility.yul\":30627:30789   */\n          tag_737\n            /* \"#utility.yul\":30784:30788   */\n          dup2\n            /* \"#utility.yul\":30775:30781   */\n          dup5\n            /* \"#utility.yul\":30627:30789   */\n          tag_428\n          jump\t// in\n        tag_737:\n            /* \"#utility.yul\":30619:30789   */\n          swap1\n          pop\n            /* \"#utility.yul\":30026:30796   */\n          swap4\n          swap3\n          pop\n          pop\n          pop\n          jump\t// out\n            /* \"#utility.yul\":30888:32193   */\n        tag_429:\n            /* \"#utility.yul\":31021:31024   */\n          0x00\n            /* \"#utility.yul\":31057:31061   */\n          0xa0\n            /* \"#utility.yul\":31052:31055   */\n          dup4\n            /* \"#utility.yul\":31048:31062   */\n          add\n            /* \"#utility.yul\":31143:31147   */\n          0x00\n            /* \"#utility.yul\":31136:31141   */\n          dup4\n            /* \"#utility.yul\":31132:31148   */\n          add\n            /* \"#utility.yul\":31126:31149   */\n          mload\n            /* \"#utility.yul\":31162:31225   */\n          tag_739\n            /* \"#utility.yul\":31219:31223   */\n          0x00\n            /* \"#utility.yul\":31214:31217   */\n          dup7\n            /* \"#utility.yul\":31210:31224   */\n          add\n            /* \"#utility.yul\":31196:31208   */\n          dup3\n            /* \"#utility.yul\":31162:31225   */\n          tag_414\n          jump\t// in\n        tag_739:\n            /* \"#utility.yul\":31072:31235   */\n          pop\n            /* \"#utility.yul\":31329:31333   */\n          0x20\n            /* \"#utility.yul\":31322:31327   */\n          dup4\n            /* \"#utility.yul\":31318:31334   */\n          add\n            /* \"#utility.yul\":31312:31335   */\n          mload\n            /* \"#utility.yul\":31382:31385   */\n          dup5\n            /* \"#utility.yul\":31376:31380   */\n          dup3\n            /* \"#utility.yul\":31372:31386   */\n          sub\n            /* \"#utility.yul\":31365:31369   */\n          0x20\n            /* \"#utility.yul\":31360:31363   */\n          dup7\n            /* \"#utility.yul\":31356:31370   */\n          add\n            /* \"#utility.yul\":31349:31387   */\n          mstore\n            /* \"#utility.yul\":31408:31481   */\n          tag_740\n            /* \"#utility.yul\":31476:31480   */\n          dup3\n            /* \"#utility.yul\":31462:31474   */\n          dup3\n            /* \"#utility.yul\":31408:31481   */\n          tag_418\n          jump\t// in\n        tag_740:\n            /* \"#utility.yul\":31400:31481   */\n          swap2\n          pop\n            /* \"#utility.yul\":31245:31492   */\n          pop\n            /* \"#utility.yul\":31582:31586   */\n          0x40\n            /* \"#utility.yul\":31575:31580   */\n          dup4\n            /* \"#utility.yul\":31571:31587   */\n          add\n            /* \"#utility.yul\":31565:31588   */\n          mload\n            /* \"#utility.yul\":31635:31638   */\n          dup5\n            /* \"#utility.yul\":31629:31633   */\n          dup3\n            /* \"#utility.yul\":31625:31639   */\n          sub\n            /* \"#utility.yul\":31618:31622   */\n          0x40\n            /* \"#utility.yul\":31613:31616   */\n          dup7\n            /* \"#utility.yul\":31609:31623   */\n          add\n            /* \"#utility.yul\":31602:31640   */\n          mstore\n            /* \"#utility.yul\":31661:31734   */\n          tag_741\n            /* \"#utility.yul\":31729:31733   */\n          dup3\n            /* \"#utility.yul\":31715:31727   */\n          dup3\n            /* \"#utility.yul\":31661:31734   */\n          tag_418\n          jump\t// in\n        tag_741:\n            /* \"#utility.yul\":31653:31734   */\n          swap2\n          pop\n            /* \"#utility.yul\":31502:31745   */\n          pop\n            /* \"#utility.yul\":31825:31829   */\n          0x60\n            /* \"#utility.yul\":31818:31823   */\n          dup4\n            /* \"#utility.yul\":31814:31830   */\n          add\n            /* \"#utility.yul\":31808:31831   */\n          mload\n            /* \"#utility.yul\":31844:31907   */\n          tag_742\n            /* \"#utility.yul\":31901:31905   */\n          0x60\n            /* \"#utility.yul\":31896:31899   */\n          dup7\n            /* \"#utility.yul\":31892:31906   */\n          add\n            /* \"#utility.yul\":31878:31890   */\n          dup3\n            /* \"#utility.yul\":31844:31907   */\n          tag_419\n          jump\t// in\n        tag_742:\n            /* \"#utility.yul\":31755:31917   */\n          pop\n            /* \"#utility.yul\":32003:32007   */\n          0x80\n            /* \"#utility.yul\":31996:32001   */\n          dup4\n            /* \"#utility.yul\":31992:32008   */\n          add\n            /* \"#utility.yul\":31986:32009   */\n          mload\n            /* \"#utility.yul\":32056:32059   */\n          dup5\n            /* \"#utility.yul\":32050:32054   */\n          dup3\n            /* \"#utility.yul\":32046:32060   */\n          sub\n            /* \"#utility.yul\":32039:32043   */\n          0x80\n            /* \"#utility.yul\":32034:32037   */\n          dup7\n            /* \"#utility.yul\":32030:32044   */\n          add\n            /* \"#utility.yul\":32023:32061   */\n          mstore\n            /* \"#utility.yul\":32082:32155   */\n          tag_743\n            /* \"#utility.yul\":32150:32154   */\n          dup3\n            /* \"#utility.yul\":32136:32148   */\n          dup3\n            /* \"#utility.yul\":32082:32155   */\n          tag_418\n          jump\t// in\n        tag_743:\n            /* \"#utility.yul\":32074:32155   */\n          swap2\n          pop\n            /* \"#utility.yul\":31927:32166   */\n          pop\n            /* \"#utility.yul\":32183:32187   */\n          dup1\n            /* \"#utility.yul\":32176:32187   */\n          swap2\n          pop\n            /* \"#utility.yul\":31026:32193   */\n          pop\n            /* \"#utility.yul\":30888:32193   */\n          swap3\n          swap2\n          pop\n          pop\n          jump\t// out\n            /* \"#utility.yul\":32199:32342   */\n        tag_430:\n            /* \"#utility.yul\":32295:32301   */\n          0x00\n            /* \"#utility.yul\":32329:32334   */\n          dup2\n            /* \"#utility.yul\":32323:32335   */\n          mload\n            /* \"#utility.yul\":32313:32335   */\n          swap1\n          pop\n            /* \"#utility.yul\":32199:32342   */\n          swap2\n          swap1\n          pop\n          jump\t// out\n            /* \"#utility.yul\":32348:32561   */\n        tag_431:\n            /* \"#utility.yul\":32476:32487   */\n          0x00\n            /* \"#utility.yul\":32510:32516   */\n          dup3\n            /* \"#utility.yul\":32505:32508   */\n          dup3\n            /* \"#utility.yul\":32498:32517   */\n          mstore\n            /* \"#utility.yul\":32550:32554   */\n          0x20\n            /* \"#utility.yul\":32545:32548   */\n          dup3\n            /* \"#utility.yul\":32541:32555   */\n          add\n            /* \"#utility.yul\":32526:32555   */\n          swap1\n          pop\n            /* \"#utility.yul\":32348:32561   */\n          swap3\n          swap2\n          pop\n          pop\n          jump\t// out\n            /* \"#utility.yul\":32567:32728   */\n        tag_432:\n            /* \"#utility.yul\":32663:32667   */\n          0x00\n            /* \"#utility.yul\":32686:32689   */\n          dup2\n            /* \"#utility.yul\":32678:32689   */\n          swap1\n          pop\n            /* \"#utility.yul\":32716:32720   */\n          0x20\n            /* \"#utility.yul\":32711:32714   */\n          dup3\n            /* \"#utility.yul\":32707:32721   */\n          add\n            /* \"#utility.yul\":32699:32721   */\n          swap1\n          pop\n            /* \"#utility.yul\":32567:32728   */\n          swap2\n          swap1\n          pop\n          jump\t// out\n            /* \"#utility.yul\":32814:36385   */\n        tag_433:\n            /* \"#utility.yul\":32931:32934   */\n          0x00\n            /* \"#utility.yul\":32967:32973   */\n          0x01c0\n            /* \"#utility.yul\":32962:32965   */\n          dup4\n            /* \"#utility.yul\":32958:32974   */\n          add\n            /* \"#utility.yul\":33067:33071   */\n          0x00\n            /* \"#utility.yul\":33060:33065   */\n          dup4\n            /* \"#utility.yul\":33056:33072   */\n          add\n            /* \"#utility.yul\":33050:33073   */\n          mload\n            /* \"#utility.yul\":33086:33149   */\n          tag_748\n            /* \"#utility.yul\":33143:33147   */\n          0x00\n            /* \"#utility.yul\":33138:33141   */\n          dup7\n            /* \"#utility.yul\":33134:33148   */\n          add\n            /* \"#utility.yul\":33120:33132   */\n          dup3\n            /* \"#utility.yul\":33086:33149   */\n          tag_414\n          jump\t// in\n        tag_748:\n            /* \"#utility.yul\":32984:33159   */\n          pop\n            /* \"#utility.yul\":33242:33246   */\n          0x20\n            /* \"#utility.yul\":33235:33240   */\n          dup4\n            /* \"#utility.yul\":33231:33247   */\n          add\n            /* \"#utility.yul\":33225:33248   */\n          mload\n            /* \"#utility.yul\":33295:33298   */\n          dup5\n            /* \"#utility.yul\":33289:33293   */\n          dup3\n            /* \"#utility.yul\":33285:33299   */\n          sub\n            /* \"#utility.yul\":33278:33282   */\n          0x20\n            /* \"#utility.yul\":33273:33276   */\n          dup7\n            /* \"#utility.yul\":33269:33283   */\n          add\n            /* \"#utility.yul\":33262:33300   */\n          mstore\n            /* \"#utility.yul\":33321:33394   */\n          tag_749\n            /* \"#utility.yul\":33389:33393   */\n          dup3\n            /* \"#utility.yul\":33375:33387   */\n          dup3\n            /* \"#utility.yul\":33321:33394   */\n          tag_418\n          jump\t// in\n        tag_749:\n            /* \"#utility.yul\":33313:33394   */\n          swap2\n          pop\n            /* \"#utility.yul\":33169:33405   */\n          pop\n            /* \"#utility.yul\":33495:33499   */\n          0x40\n            /* \"#utility.yul\":33488:33493   */\n          dup4\n            /* \"#utility.yul\":33484:33500   */\n          add\n            /* \"#utility.yul\":33478:33501   */\n          mload\n            /* \"#utility.yul\":33548:33551   */\n          dup5\n            /* \"#utility.yul\":33542:33546   */\n          dup3\n            /* \"#utility.yul\":33538:33552   */\n          sub\n            /* \"#utility.yul\":33531:33535   */\n          0x40\n            /* \"#utility.yul\":33526:33529   */\n          dup7\n            /* \"#utility.yul\":33522:33536   */\n          add\n            /* \"#utility.yul\":33515:33553   */\n          mstore\n            /* \"#utility.yul\":33574:33647   */\n          tag_750\n            /* \"#utility.yul\":33642:33646   */\n          dup3\n            /* \"#utility.yul\":33628:33640   */\n          dup3\n            /* \"#utility.yul\":33574:33647   */\n          tag_418\n          jump\t// in\n        tag_750:\n            /* \"#utility.yul\":33566:33647   */\n          swap2\n          pop\n            /* \"#utility.yul\":33415:33658   */\n          pop\n            /* \"#utility.yul\":33742:33746   */\n          0x60\n            /* \"#utility.yul\":33735:33740   */\n          dup4\n            /* \"#utility.yul\":33731:33747   */\n          add\n            /* \"#utility.yul\":33725:33748   */\n          mload\n            /* \"#utility.yul\":33795:33798   */\n          dup5\n            /* \"#utility.yul\":33789:33793   */\n          dup3\n            /* \"#utility.yul\":33785:33799   */\n          sub\n            /* \"#utility.yul\":33778:33782   */\n          0x60\n            /* \"#utility.yul\":33773:33776   */\n          dup7\n            /* \"#utility.yul\":33769:33783   */\n          add\n            /* \"#utility.yul\":33762:33800   */\n          mstore\n            /* \"#utility.yul\":33821:33894   */\n          tag_751\n            /* \"#utility.yul\":33889:33893   */\n          dup3\n            /* \"#utility.yul\":33875:33887   */\n          dup3\n            /* \"#utility.yul\":33821:33894   */\n          tag_418\n          jump\t// in\n        tag_751:\n            /* \"#utility.yul\":33813:33894   */\n          swap2\n          pop\n            /* \"#utility.yul\":33668:33905   */\n          pop\n            /* \"#utility.yul\":33990:33994   */\n          0x80\n            /* \"#utility.yul\":33983:33988   */\n          dup4\n            /* \"#utility.yul\":33979:33995   */\n          add\n            /* \"#utility.yul\":33973:33996   */\n          mload\n            /* \"#utility.yul\":34043:34046   */\n          dup5\n            /* \"#utility.yul\":34037:34041   */\n          dup3\n            /* \"#utility.yul\":34033:34047   */\n          sub\n            /* \"#utility.yul\":34026:34030   */\n          0x80\n            /* \"#utility.yul\":34021:34024   */\n          dup7\n            /* \"#utility.yul\":34017:34031   */\n          add\n            /* \"#utility.yul\":34010:34048   */\n          mstore\n            /* \"#utility.yul\":34069:34142   */\n          tag_752\n            /* \"#utility.yul\":34137:34141   */\n          dup3\n            /* \"#utility.yul\":34123:34135   */\n          dup3\n            /* \"#utility.yul\":34069:34142   */\n          tag_418\n          jump\t// in\n        tag_752:\n            /* \"#utility.yul\":34061:34142   */\n          swap2\n          pop\n            /* \"#utility.yul\":33915:34153   */\n          pop\n            /* \"#utility.yul\":34244:34248   */\n          0xa0\n            /* \"#utility.yul\":34237:34242   */\n          dup4\n            /* \"#utility.yul\":34233:34249   */\n          add\n            /* \"#utility.yul\":34227:34250   */\n          mload\n            /* \"#utility.yul\":34297:34300   */\n          dup5\n            /* \"#utility.yul\":34291:34295   */\n          dup3\n            /* \"#utility.yul\":34287:34301   */\n          sub\n            /* \"#utility.yul\":34280:34284   */\n          0xa0\n            /* \"#utility.yul\":34275:34278   */\n          dup7\n            /* \"#utility.yul\":34271:34285   */\n          add\n            /* \"#utility.yul\":34264:34302   */\n          mstore\n            /* \"#utility.yul\":34323:34396   */\n          tag_753\n            /* \"#utility.yul\":34391:34395   */\n          dup3\n            /* \"#utility.yul\":34377:34389   */\n          dup3\n            /* \"#utility.yul\":34323:34396   */\n          tag_418\n          jump\t// in\n        tag_753:\n            /* \"#utility.yul\":34315:34396   */\n          swap2\n          pop\n            /* \"#utility.yul\":34163:34407   */\n          pop\n            /* \"#utility.yul\":34494:34498   */\n          0xc0\n            /* \"#utility.yul\":34487:34492   */\n          dup4\n            /* \"#utility.yul\":34483:34499   */\n          add\n            /* \"#utility.yul\":34477:34500   */\n          mload\n            /* \"#utility.yul\":34547:34550   */\n          dup5\n            /* \"#utility.yul\":34541:34545   */\n          dup3\n            /* \"#utility.yul\":34537:34551   */\n          sub\n            /* \"#utility.yul\":34530:34534   */\n          0xc0\n            /* \"#utility.yul\":34525:34528   */\n          dup7\n            /* \"#utility.yul\":34521:34535   */\n          add\n            /* \"#utility.yul\":34514:34552   */\n          mstore\n            /* \"#utility.yul\":34573:34646   */\n          tag_754\n            /* \"#utility.yul\":34641:34645   */\n          dup3\n            /* \"#utility.yul\":34627:34639   */\n          dup3\n            /* \"#utility.yul\":34573:34646   */\n          tag_418\n          jump\t// in\n        tag_754:\n            /* \"#utility.yul\":34565:34646   */\n          swap2\n          pop\n            /* \"#utility.yul\":34417:34657   */\n          pop\n            /* \"#utility.yul\":34740:34744   */\n          0xe0\n            /* \"#utility.yul\":34733:34738   */\n          dup4\n            /* \"#utility.yul\":34729:34745   */\n          add\n            /* \"#utility.yul\":34723:34746   */\n          mload\n            /* \"#utility.yul\":34793:34796   */\n          dup5\n            /* \"#utility.yul\":34787:34791   */\n          dup3\n            /* \"#utility.yul\":34783:34797   */\n          sub\n            /* \"#utility.yul\":34776:34780   */\n          0xe0\n            /* \"#utility.yul\":34771:34774   */\n          dup7\n            /* \"#utility.yul\":34767:34781   */\n          add\n            /* \"#utility.yul\":34760:34798   */\n          mstore\n            /* \"#utility.yul\":34819:34892   */\n          tag_755\n            /* \"#utility.yul\":34887:34891   */\n          dup3\n            /* \"#utility.yul\":34873:34885   */\n          dup3\n            /* \"#utility.yul\":34819:34892   */\n          tag_418\n          jump\t// in\n        tag_755:\n            /* \"#utility.yul\":34811:34892   */\n          swap2\n          pop\n            /* \"#utility.yul\":34667:34903   */\n          pop\n            /* \"#utility.yul\":34990:34996   */\n          0x0100\n            /* \"#utility.yul\":34983:34988   */\n          dup4\n            /* \"#utility.yul\":34979:34997   */\n          add\n            /* \"#utility.yul\":34973:34998   */\n          mload\n            /* \"#utility.yul\":35047:35050   */\n          dup5\n            /* \"#utility.yul\":35041:35045   */\n          dup3\n            /* \"#utility.yul\":35037:35051   */\n          sub\n            /* \"#utility.yul\":35028:35034   */\n          0x0100\n            /* \"#utility.yul\":35023:35026   */\n          dup7\n            /* \"#utility.yul\":35019:35035   */\n          add\n            /* \"#utility.yul\":35012:35052   */\n          mstore\n            /* \"#utility.yul\":35073:35146   */\n          tag_756\n            /* \"#utility.yul\":35141:35145   */\n          dup3\n            /* \"#utility.yul\":35127:35139   */\n          dup3\n            /* \"#utility.yul\":35073:35146   */\n          tag_418\n          jump\t// in\n        tag_756:\n            /* \"#utility.yul\":35065:35146   */\n          swap2\n          pop\n            /* \"#utility.yul\":34913:35157   */\n          pop\n            /* \"#utility.yul\":35256:35262   */\n          0x0120\n            /* \"#utility.yul\":35249:35254   */\n          dup4\n            /* \"#utility.yul\":35245:35263   */\n          add\n            /* \"#utility.yul\":35239:35264   */\n          mload\n            /* \"#utility.yul\":35313:35316   */\n          dup5\n            /* \"#utility.yul\":35307:35311   */\n          dup3\n            /* \"#utility.yul\":35303:35317   */\n          sub\n            /* \"#utility.yul\":35294:35300   */\n          0x0120\n            /* \"#utility.yul\":35289:35292   */\n          dup7\n            /* \"#utility.yul\":35285:35301   */\n          add\n            /* \"#utility.yul\":35278:35318   */\n          mstore\n            /* \"#utility.yul\":35339:35412   */\n          tag_757\n            /* \"#utility.yul\":35407:35411   */\n          dup3\n            /* \"#utility.yul\":35393:35405   */\n          dup3\n            /* \"#utility.yul\":35339:35412   */\n          tag_418\n          jump\t// in\n        tag_757:\n            /* \"#utility.yul\":35331:35412   */\n          swap2\n          pop\n            /* \"#utility.yul\":35167:35423   */\n          pop\n            /* \"#utility.yul\":35503:35509   */\n          0x0140\n            /* \"#utility.yul\":35496:35501   */\n          dup4\n            /* \"#utility.yul\":35492:35510   */\n          add\n            /* \"#utility.yul\":35486:35511   */\n          mload\n            /* \"#utility.yul\":35560:35563   */\n          dup5\n            /* \"#utility.yul\":35554:35558   */\n          dup3\n            /* \"#utility.yul\":35550:35564   */\n          sub\n            /* \"#utility.yul\":35541:35547   */\n          0x0140\n            /* \"#utility.yul\":35536:35539   */\n          dup7\n            /* \"#utility.yul\":35532:35548   */\n          add\n            /* \"#utility.yul\":35525:35565   */\n          mstore\n            /* \"#utility.yul\":35586:35659   */\n          tag_758\n            /* \"#utility.yul\":35654:35658   */\n          dup3\n            /* \"#utility.yul\":35640:35652   */\n          dup3\n            /* \"#utility.yul\":35586:35659   */\n          tag_418\n          jump\t// in\n        tag_758:\n            /* \"#utility.yul\":35578:35659   */\n          swap2\n          pop\n            /* \"#utility.yul\":35433:35670   */\n          pop\n            /* \"#utility.yul\":35754:35760   */\n          0x0160\n            /* \"#utility.yul\":35747:35752   */\n          dup4\n            /* \"#utility.yul\":35743:35761   */\n          add\n            /* \"#utility.yul\":35737:35762   */\n          mload\n            /* \"#utility.yul\":35775:35840   */\n          tag_759\n            /* \"#utility.yul\":35832:35838   */\n          0x0160\n            /* \"#utility.yul\":35827:35830   */\n          dup7\n            /* \"#utility.yul\":35823:35839   */\n          add\n            /* \"#utility.yul\":35809:35821   */\n          dup3\n            /* \"#utility.yul\":35775:35840   */\n          tag_414\n          jump\t// in\n        tag_759:\n            /* \"#utility.yul\":35680:35850   */\n          pop\n            /* \"#utility.yul\":35937:35943   */\n          0x0180\n            /* \"#utility.yul\":35930:35935   */\n          dup4\n            /* \"#utility.yul\":35926:35944   */\n          add\n            /* \"#utility.yul\":35920:35945   */\n          mload\n            /* \"#utility.yul\":35994:35997   */\n          dup5\n            /* \"#utility.yul\":35988:35992   */\n          dup3\n            /* \"#utility.yul\":35984:35998   */\n          sub\n            /* \"#utility.yul\":35975:35981   */\n          0x0180\n            /* \"#utility.yul\":35970:35973   */\n          dup7\n            /* \"#utility.yul\":35966:35982   */\n          add\n            /* \"#utility.yul\":35959:35999   */\n          mstore\n            /* \"#utility.yul\":36020:36093   */\n          tag_760\n            /* \"#utility.yul\":36088:36092   */\n          dup3\n            /* \"#utility.yul\":36074:36086   */\n          dup3\n            /* \"#utility.yul\":36020:36093   */\n          tag_418\n          jump\t// in\n        tag_760:\n            /* \"#utility.yul\":36012:36093   */\n          swap2\n          pop\n            /* \"#utility.yul\":35860:36104   */\n          pop\n            /* \"#utility.yul\":36191:36197   */\n          0x01a0\n            /* \"#utility.yul\":36184:36189   */\n          dup4\n            /* \"#utility.yul\":36180:36198   */\n          add\n            /* \"#utility.yul\":36174:36199   */\n          mload\n            /* \"#utility.yul\":36248:36251   */\n          dup5\n            /* \"#utility.yul\":36242:36246   */\n          dup3\n            /* \"#utility.yul\":36238:36252   */\n          sub\n            /* \"#utility.yul\":36229:36235   */\n          0x01a0\n            /* \"#utility.yul\":36224:36227   */\n          dup7\n            /* \"#utility.yul\":36220:36236   */\n          add\n            /* \"#utility.yul\":36213:36253   */\n          mstore\n            /* \"#utility.yul\":36274:36347   */\n          tag_761\n            /* \"#utility.yul\":36342:36346   */\n          dup3\n            /* \"#utility.yul\":36328:36340   */\n          dup3\n            /* \"#utility.yul\":36274:36347   */\n          tag_418\n          jump\t// in\n        tag_761:\n            /* \"#utility.yul\":36266:36347   */\n          swap2\n          pop\n            /* \"#utility.yul\":36114:36358   */\n          pop\n            /* \"#utility.yul\":36375:36379   */\n          dup1\n            /* \"#utility.yul\":36368:36379   */\n          swap2\n          pop\n            /* \"#utility.yul\":32936:36385   */\n          pop\n            /* \"#utility.yul\":32814:36385   */\n          swap3\n          swap2\n          pop\n          pop\n          jump\t// out\n            /* \"#utility.yul\":36391:36663   */\n        tag_434:\n            /* \"#utility.yul\":36518:36528   */\n          0x00\n            /* \"#utility.yul\":36553:36657   */\n          tag_763\n            /* \"#utility.yul\":36653:36656   */\n          dup4\n            /* \"#utility.yul\":36645:36651   */\n          dup4\n            /* \"#utility.yul\":36553:36657   */\n          tag_433\n          jump\t// in\n        tag_763:\n            /* \"#utility.yul\":36539:36657   */\n          swap1\n          pop\n            /* \"#utility.yul\":36391:36663   */\n          swap3\n          swap2\n          pop\n          pop\n          jump\t// out\n            /* \"#utility.yul\":36669:36811   */\n        tag_435:\n            /* \"#utility.yul\":36768:36772   */\n          0x00\n            /* \"#utility.yul\":36800:36804   */\n          0x20\n            /* \"#utility.yul\":36795:36798   */\n          dup3\n            /* \"#utility.yul\":36791:36805   */\n          add\n            /* \"#utility.yul\":36783:36805   */\n          swap1\n          pop\n            /* \"#utility.yul\":36669:36811   */\n          swap2\n          swap1\n          pop\n          jump\t// out\n            /* \"#utility.yul\":36901:38044   */\n        tag_436:\n            /* \"#utility.yul\":37078:37081   */\n          0x00\n            /* \"#utility.yul\":37107:37190   */\n          tag_766\n            /* \"#utility.yul\":37184:37189   */\n          dup3\n            /* \"#utility.yul\":37107:37190   */\n          tag_430\n          jump\t// in\n        tag_766:\n            /* \"#utility.yul\":37206:37321   */\n          tag_767\n            /* \"#utility.yul\":37314:37320   */\n          dup2\n            /* \"#utility.yul\":37309:37312   */\n          dup6\n            /* \"#utility.yul\":37206:37321   */\n          tag_431\n          jump\t// in\n        tag_767:\n            /* \"#utility.yul\":37199:37321   */\n          swap4\n          pop\n            /* \"#utility.yul\":37347:37350   */\n          dup4\n            /* \"#utility.yul\":37392:37396   */\n          0x20\n            /* \"#utility.yul\":37384:37390   */\n          dup3\n            /* \"#utility.yul\":37380:37397   */\n          mul\n            /* \"#utility.yul\":37375:37378   */\n          dup6\n            /* \"#utility.yul\":37371:37398   */\n          add\n            /* \"#utility.yul\":37422:37507   */\n          tag_768\n            /* \"#utility.yul\":37501:37506   */\n          dup6\n            /* \"#utility.yul\":37422:37507   */\n          tag_432\n          jump\t// in\n        tag_768:\n            /* \"#utility.yul\":37530:37537   */\n          dup1\n            /* \"#utility.yul\":37561:37562   */\n          0x00\n            /* \"#utility.yul\":37546:37999   */\n        tag_769:\n            /* \"#utility.yul\":37571:37577   */\n          dup6\n            /* \"#utility.yul\":37568:37569   */\n          dup2\n            /* \"#utility.yul\":37565:37578   */\n          lt\n            /* \"#utility.yul\":37546:37999   */\n          iszero\n          tag_771\n          jumpi\n            /* \"#utility.yul\":37642:37651   */\n          dup5\n            /* \"#utility.yul\":37636:37640   */\n          dup5\n            /* \"#utility.yul\":37632:37652   */\n          sub\n            /* \"#utility.yul\":37627:37630   */\n          dup10\n            /* \"#utility.yul\":37620:37653   */\n          mstore\n            /* \"#utility.yul\":37693:37699   */\n          dup2\n            /* \"#utility.yul\":37687:37700   */\n          mload\n            /* \"#utility.yul\":37721:37843   */\n          tag_772\n            /* \"#utility.yul\":37838:37842   */\n          dup6\n            /* \"#utility.yul\":37823:37836   */\n          dup3\n            /* \"#utility.yul\":37721:37843   */\n          tag_434\n          jump\t// in\n        tag_772:\n            /* \"#utility.yul\":37713:37843   */\n          swap5\n          pop\n            /* \"#utility.yul\":37866:37955   */\n          tag_773\n            /* \"#utility.yul\":37948:37954   */\n          dup4\n            /* \"#utility.yul\":37866:37955   */\n          tag_435\n          jump\t// in\n        tag_773:\n            /* \"#utility.yul\":37856:37955   */\n          swap3\n          pop\n            /* \"#utility.yul\":37984:37988   */\n          0x20\n            /* \"#utility.yul\":37979:37982   */\n          dup11\n            /* \"#utility.yul\":37975:37989   */\n          add\n            /* \"#utility.yul\":37968:37989   */\n          swap10\n          pop\n            /* \"#utility.yul\":37606:37999   */\n          pop\n            /* \"#utility.yul\":37593:37594   */\n          0x01\n            /* \"#utility.yul\":37590:37591   */\n          dup2\n            /* \"#utility.yul\":37586:37595   */\n          add\n            /* \"#utility.yul\":37581:37595   */\n          swap1\n          pop\n            /* \"#utility.yul\":37546:37999   */\n          jump(tag_769)\n        tag_771:\n            /* \"#utility.yul\":37550:37564   */\n          pop\n            /* \"#utility.yul\":38015:38019   */\n          dup3\n            /* \"#utility.yul\":38008:38019   */\n          swap8\n          pop\n            /* \"#utility.yul\":38035:38038   */\n          dup8\n            /* \"#utility.yul\":38028:38038   */\n          swap6\n          pop\n            /* \"#utility.yul\":37083:38044   */\n          pop\n          pop\n          pop\n          pop\n          pop\n            /* \"#utility.yul\":36901:38044   */\n          swap3\n          swap2\n          pop\n          pop\n          jump\t// out\n            /* \"#utility.yul\":38050:38828   */\n        tag_44:\n            /* \"#utility.yul\":38343:38347   */\n          0x00\n            /* \"#utility.yul\":38381:38383   */\n          0x40\n            /* \"#utility.yul\":38370:38379   */\n          dup3\n            /* \"#utility.yul\":38366:38384   */\n          add\n            /* \"#utility.yul\":38358:38384   */\n          swap1\n          pop\n            /* \"#utility.yul\":38430:38439   */\n          dup2\n            /* \"#utility.yul\":38424:38428   */\n          dup2\n            /* \"#utility.yul\":38420:38440   */\n          sub\n            /* \"#utility.yul\":38416:38417   */\n          0x00\n            /* \"#utility.yul\":38405:38414   */\n          dup4\n            /* \"#utility.yul\":38401:38418   */\n          add\n            /* \"#utility.yul\":38394:38441   */\n          mstore\n            /* \"#utility.yul\":38458:38580   */\n          tag_775\n            /* \"#utility.yul\":38575:38579   */\n          dup2\n            /* \"#utility.yul\":38566:38572   */\n          dup6\n            /* \"#utility.yul\":38458:38580   */\n          tag_429\n          jump\t// in\n        tag_775:\n            /* \"#utility.yul\":38450:38580   */\n          swap1\n          pop\n            /* \"#utility.yul\":38627:38636   */\n          dup2\n            /* \"#utility.yul\":38621:38625   */\n          dup2\n            /* \"#utility.yul\":38617:38637   */\n          sub\n            /* \"#utility.yul\":38612:38614   */\n          0x20\n            /* \"#utility.yul\":38601:38610   */\n          dup4\n            /* \"#utility.yul\":38597:38615   */\n          add\n            /* \"#utility.yul\":38590:38638   */\n          mstore\n            /* \"#utility.yul\":38655:38821   */\n          tag_776\n            /* \"#utility.yul\":38816:38820   */\n          dup2\n            /* \"#utility.yul\":38807:38813   */\n          dup5\n            /* \"#utility.yul\":38655:38821   */\n          tag_436\n          jump\t// in\n        tag_776:\n            /* \"#utility.yul\":38647:38821   */\n          swap1\n          pop\n            /* \"#utility.yul\":38050:38828   */\n          swap4\n          swap3\n          pop\n          pop\n          pop\n          jump\t// out\n            /* \"#utility.yul\":38834:38974   */\n        tag_437:\n            /* \"#utility.yul\":38927:38933   */\n          0x00\n            /* \"#utility.yul\":38961:38966   */\n          dup2\n            /* \"#utility.yul\":38955:38967   */\n          mload\n            /* \"#utility.yul\":38945:38967   */\n          swap1\n          pop\n            /* \"#utility.yul\":38834:38974   */\n          swap2\n          swap1\n          pop\n          jump\t// out\n            /* \"#utility.yul\":38980:39190   */\n        tag_438:\n            /* \"#utility.yul\":39105:39116   */\n          0x00\n            /* \"#utility.yul\":39139:39145   */\n          dup3\n            /* \"#utility.yul\":39134:39137   */\n          dup3\n            /* \"#utility.yul\":39127:39146   */\n          mstore\n            /* \"#utility.yul\":39179:39183   */\n          0x20\n            /* \"#utility.yul\":39174:39177   */\n          dup3\n            /* \"#utility.yul\":39170:39184   */\n          add\n            /* \"#utility.yul\":39155:39184   */\n          swap1\n          pop\n            /* \"#utility.yul\":38980:39190   */\n          swap3\n          swap2\n          pop\n          pop\n          jump\t// out\n            /* \"#utility.yul\":39196:39354   */\n        tag_439:\n            /* \"#utility.yul\":39289:39293   */\n          0x00\n            /* \"#utility.yul\":39312:39315   */\n          dup2\n            /* \"#utility.yul\":39304:39315   */\n          swap1\n          pop\n            /* \"#utility.yul\":39342:39346   */\n          0x20\n            /* \"#utility.yul\":39337:39340   */\n          dup3\n            /* \"#utility.yul\":39333:39347   */\n          add\n            /* \"#utility.yul\":39325:39347   */\n          swap1\n          pop\n            /* \"#utility.yul\":39196:39354   */\n          swap2\n          swap1\n          pop\n          jump\t// out\n            /* \"#utility.yul\":39434:42657   */\n        tag_440:\n            /* \"#utility.yul\":39545:39548   */\n          0x00\n            /* \"#utility.yul\":39581:39587   */\n          0x01a0\n            /* \"#utility.yul\":39576:39579   */\n          dup4\n            /* \"#utility.yul\":39572:39588   */\n          add\n            /* \"#utility.yul\":39681:39685   */\n          0x00\n            /* \"#utility.yul\":39674:39679   */\n          dup4\n            /* \"#utility.yul\":39670:39686   */\n          add\n            /* \"#utility.yul\":39664:39687   */\n          mload\n            /* \"#utility.yul\":39700:39763   */\n          tag_781\n            /* \"#utility.yul\":39757:39761   */\n          0x00\n            /* \"#utility.yul\":39752:39755   */\n          dup7\n            /* \"#utility.yul\":39748:39762   */\n          add\n            /* \"#utility.yul\":39734:39746   */\n          dup3\n            /* \"#utility.yul\":39700:39763   */\n          tag_414\n          jump\t// in\n        tag_781:\n            /* \"#utility.yul\":39598:39773   */\n          pop\n            /* \"#utility.yul\":39856:39860   */\n          0x20\n            /* \"#utility.yul\":39849:39854   */\n          dup4\n            /* \"#utility.yul\":39845:39861   */\n          add\n            /* \"#utility.yul\":39839:39862   */\n          mload\n            /* \"#utility.yul\":39909:39912   */\n          dup5\n            /* \"#utility.yul\":39903:39907   */\n          dup3\n            /* \"#utility.yul\":39899:39913   */\n          sub\n            /* \"#utility.yul\":39892:39896   */\n          0x20\n            /* \"#utility.yul\":39887:39890   */\n          dup7\n            /* \"#utility.yul\":39883:39897   */\n          add\n            /* \"#utility.yul\":39876:39914   */\n          mstore\n            /* \"#utility.yul\":39935:40008   */\n          tag_782\n            /* \"#utility.yul\":40003:40007   */\n          dup3\n            /* \"#utility.yul\":39989:40001   */\n          dup3\n            /* \"#utility.yul\":39935:40008   */\n          tag_418\n          jump\t// in\n        tag_782:\n            /* \"#utility.yul\":39927:40008   */\n          swap2\n          pop\n            /* \"#utility.yul\":39783:40019   */\n          pop\n            /* \"#utility.yul\":40110:40114   */\n          0x40\n            /* \"#utility.yul\":40103:40108   */\n          dup4\n            /* \"#utility.yul\":40099:40115   */\n          add\n            /* \"#utility.yul\":40093:40116   */\n          mload\n            /* \"#utility.yul\":40163:40166   */\n          dup5\n            /* \"#utility.yul\":40157:40161   */\n          dup3\n            /* \"#utility.yul\":40153:40167   */\n          sub\n            /* \"#utility.yul\":40146:40150   */\n          0x40\n            /* \"#utility.yul\":40141:40144   */\n          dup7\n            /* \"#utility.yul\":40137:40151   */\n          add\n            /* \"#utility.yul\":40130:40168   */\n          mstore\n            /* \"#utility.yul\":40189:40262   */\n          tag_783\n            /* \"#utility.yul\":40257:40261   */\n          dup3\n            /* \"#utility.yul\":40243:40255   */\n          dup3\n            /* \"#utility.yul\":40189:40262   */\n          tag_418\n          jump\t// in\n        tag_783:\n            /* \"#utility.yul\":40181:40262   */\n          swap2\n          pop\n            /* \"#utility.yul\":40029:40273   */\n          pop\n            /* \"#utility.yul\":40360:40364   */\n          0x60\n            /* \"#utility.yul\":40353:40358   */\n          dup4\n            /* \"#utility.yul\":40349:40365   */\n          add\n            /* \"#utility.yul\":40343:40366   */\n          mload\n            /* \"#utility.yul\":40413:40416   */\n          dup5\n            /* \"#utility.yul\":40407:40411   */\n          dup3\n            /* \"#utility.yul\":40403:40417   */\n          sub\n            /* \"#utility.yul\":40396:40400   */\n          0x60\n            /* \"#utility.yul\":40391:40394   */\n          dup7\n            /* \"#utility.yul\":40387:40401   */\n          add\n            /* \"#utility.yul\":40380:40418   */\n          mstore\n            /* \"#utility.yul\":40439:40512   */\n          tag_784\n            /* \"#utility.yul\":40507:40511   */\n          dup3\n            /* \"#utility.yul\":40493:40505   */\n          dup3\n            /* \"#utility.yul\":40439:40512   */\n          tag_418\n          jump\t// in\n        tag_784:\n            /* \"#utility.yul\":40431:40512   */\n          swap2\n          pop\n            /* \"#utility.yul\":40283:40523   */\n          pop\n            /* \"#utility.yul\":40606:40610   */\n          0x80\n            /* \"#utility.yul\":40599:40604   */\n          dup4\n            /* \"#utility.yul\":40595:40611   */\n          add\n            /* \"#utility.yul\":40589:40612   */\n          mload\n            /* \"#utility.yul\":40659:40662   */\n          dup5\n            /* \"#utility.yul\":40653:40657   */\n          dup3\n            /* \"#utility.yul\":40649:40663   */\n          sub\n            /* \"#utility.yul\":40642:40646   */\n          0x80\n            /* \"#utility.yul\":40637:40640   */\n          dup7\n            /* \"#utility.yul\":40633:40647   */\n          add\n            /* \"#utility.yul\":40626:40664   */\n          mstore\n            /* \"#utility.yul\":40685:40758   */\n          tag_785\n            /* \"#utility.yul\":40753:40757   */\n          dup3\n            /* \"#utility.yul\":40739:40751   */\n          dup3\n            /* \"#utility.yul\":40685:40758   */\n          tag_418\n          jump\t// in\n        tag_785:\n            /* \"#utility.yul\":40677:40758   */\n          swap2\n          pop\n            /* \"#utility.yul\":40533:40769   */\n          pop\n            /* \"#utility.yul\":40856:40860   */\n          0xa0\n            /* \"#utility.yul\":40849:40854   */\n          dup4\n            /* \"#utility.yul\":40845:40861   */\n          add\n            /* \"#utility.yul\":40839:40862   */\n          mload\n            /* \"#utility.yul\":40909:40912   */\n          dup5\n            /* \"#utility.yul\":40903:40907   */\n          dup3\n            /* \"#utility.yul\":40899:40913   */\n          sub\n            /* \"#utility.yul\":40892:40896   */\n          0xa0\n            /* \"#utility.yul\":40887:40890   */\n          dup7\n            /* \"#utility.yul\":40883:40897   */\n          add\n            /* \"#utility.yul\":40876:40914   */\n          mstore\n            /* \"#utility.yul\":40935:41008   */\n          tag_786\n            /* \"#utility.yul\":41003:41007   */\n          dup3\n            /* \"#utility.yul\":40989:41001   */\n          dup3\n            /* \"#utility.yul\":40935:41008   */\n          tag_418\n          jump\t// in\n        tag_786:\n            /* \"#utility.yul\":40927:41008   */\n          swap2\n          pop\n            /* \"#utility.yul\":40779:41019   */\n          pop\n            /* \"#utility.yul\":41099:41103   */\n          0xc0\n            /* \"#utility.yul\":41092:41097   */\n          dup4\n            /* \"#utility.yul\":41088:41104   */\n          add\n            /* \"#utility.yul\":41082:41105   */\n          mload\n            /* \"#utility.yul\":41152:41155   */\n          dup5\n            /* \"#utility.yul\":41146:41150   */\n          dup3\n            /* \"#utility.yul\":41142:41156   */\n          sub\n            /* \"#utility.yul\":41135:41139   */\n          0xc0\n            /* \"#utility.yul\":41130:41133   */\n          dup7\n            /* \"#utility.yul\":41126:41140   */\n          add\n            /* \"#utility.yul\":41119:41157   */\n          mstore\n            /* \"#utility.yul\":41178:41251   */\n          tag_787\n            /* \"#utility.yul\":41246:41250   */\n          dup3\n            /* \"#utility.yul\":41232:41244   */\n          dup3\n            /* \"#utility.yul\":41178:41251   */\n          tag_418\n          jump\t// in\n        tag_787:\n            /* \"#utility.yul\":41170:41251   */\n          swap2\n          pop\n            /* \"#utility.yul\":41029:41262   */\n          pop\n            /* \"#utility.yul\":41361:41365   */\n          0xe0\n            /* \"#utility.yul\":41354:41359   */\n          dup4\n            /* \"#utility.yul\":41350:41366   */\n          add\n            /* \"#utility.yul\":41344:41367   */\n          mload\n            /* \"#utility.yul\":41414:41417   */\n          dup5\n            /* \"#utility.yul\":41408:41412   */\n          dup3\n            /* \"#utility.yul\":41404:41418   */\n          sub\n            /* \"#utility.yul\":41397:41401   */\n          0xe0\n            /* \"#utility.yul\":41392:41395   */\n          dup7\n            /* \"#utility.yul\":41388:41402   */\n          add\n            /* \"#utility.yul\":41381:41419   */\n          mstore\n            /* \"#utility.yul\":41440:41513   */\n          tag_788\n            /* \"#utility.yul\":41508:41512   */\n          dup3\n            /* \"#utility.yul\":41494:41506   */\n          dup3\n            /* \"#utility.yul\":41440:41513   */\n          tag_418\n          jump\t// in\n        tag_788:\n            /* \"#utility.yul\":41432:41513   */\n          swap2\n          pop\n            /* \"#utility.yul\":41272:41524   */\n          pop\n            /* \"#utility.yul\":41611:41617   */\n          0x0100\n            /* \"#utility.yul\":41604:41609   */\n          dup4\n            /* \"#utility.yul\":41600:41618   */\n          add\n            /* \"#utility.yul\":41594:41619   */\n          mload\n            /* \"#utility.yul\":41632:41691   */\n          tag_789\n            /* \"#utility.yul\":41683:41689   */\n          0x0100\n            /* \"#utility.yul\":41678:41681   */\n          dup7\n            /* \"#utility.yul\":41674:41690   */\n          add\n            /* \"#utility.yul\":41660:41672   */\n          dup3\n            /* \"#utility.yul\":41632:41691   */\n          tag_424\n          jump\t// in\n        tag_789:\n            /* \"#utility.yul\":41534:41701   */\n          pop\n            /* \"#utility.yul\":41782:41788   */\n          0x0120\n            /* \"#utility.yul\":41775:41780   */\n          dup4\n            /* \"#utility.yul\":41771:41789   */\n          add\n            /* \"#utility.yul\":41765:41790   */\n          mload\n            /* \"#utility.yul\":41839:41842   */\n          dup5\n            /* \"#utility.yul\":41833:41837   */\n          dup3\n            /* \"#utility.yul\":41829:41843   */\n          sub\n            /* \"#utility.yul\":41820:41826   */\n          0x0120\n            /* \"#utility.yul\":41815:41818   */\n          dup7\n            /* \"#utility.yul\":41811:41827   */\n          add\n            /* \"#utility.yul\":41804:41844   */\n          mstore\n            /* \"#utility.yul\":41865:41938   */\n          tag_790\n            /* \"#utility.yul\":41933:41937   */\n          dup3\n            /* \"#utility.yul\":41919:41931   */\n          dup3\n            /* \"#utility.yul\":41865:41938   */\n          tag_418\n          jump\t// in\n        tag_790:\n            /* \"#utility.yul\":41857:41938   */\n          swap2\n          pop\n            /* \"#utility.yul\":41711:41949   */\n          pop\n            /* \"#utility.yul\":42029:42035   */\n          0x0140\n            /* \"#utility.yul\":42022:42027   */\n          dup4\n            /* \"#utility.yul\":42018:42036   */\n          add\n            /* \"#utility.yul\":42012:42037   */\n          mload\n            /* \"#utility.yul\":42086:42089   */\n          dup5\n            /* \"#utility.yul\":42080:42084   */\n          dup3\n            /* \"#utility.yul\":42076:42090   */\n          sub\n            /* \"#utility.yul\":42067:42073   */\n          0x0140\n            /* \"#utility.yul\":42062:42065   */\n          dup7\n            /* \"#utility.yul\":42058:42074   */\n          add\n            /* \"#utility.yul\":42051:42091   */\n          mstore\n            /* \"#utility.yul\":42112:42185   */\n          tag_791\n            /* \"#utility.yul\":42180:42184   */\n          dup3\n            /* \"#utility.yul\":42166:42178   */\n          dup3\n            /* \"#utility.yul\":42112:42185   */\n          tag_418\n          jump\t// in\n        tag_791:\n            /* \"#utility.yul\":42104:42185   */\n          swap2\n          pop\n            /* \"#utility.yul\":41959:42196   */\n          pop\n            /* \"#utility.yul\":42280:42286   */\n          0x0160\n            /* \"#utility.yul\":42273:42278   */\n          dup4\n            /* \"#utility.yul\":42269:42287   */\n          add\n            /* \"#utility.yul\":42263:42288   */\n          mload\n            /* \"#utility.yul\":42301:42366   */\n          tag_792\n            /* \"#utility.yul\":42358:42364   */\n          0x0160\n            /* \"#utility.yul\":42353:42356   */\n          dup7\n            /* \"#utility.yul\":42349:42365   */\n          add\n            /* \"#utility.yul\":42335:42347   */\n          dup3\n            /* \"#utility.yul\":42301:42366   */\n          tag_414\n          jump\t// in\n        tag_792:\n            /* \"#utility.yul\":42206:42376   */\n          pop\n            /* \"#utility.yul\":42463:42469   */\n          0x0180\n            /* \"#utility.yul\":42456:42461   */\n          dup4\n            /* \"#utility.yul\":42452:42470   */\n          add\n            /* \"#utility.yul\":42446:42471   */\n          mload\n            /* \"#utility.yul\":42520:42523   */\n          dup5\n            /* \"#utility.yul\":42514:42518   */\n          dup3\n            /* \"#utility.yul\":42510:42524   */\n          sub\n            /* \"#utility.yul\":42501:42507   */\n          0x0180\n            /* \"#utility.yul\":42496:42499   */\n          dup7\n            /* \"#utility.yul\":42492:42508   */\n          add\n            /* \"#utility.yul\":42485:42525   */\n          mstore\n            /* \"#utility.yul\":42546:42619   */\n          tag_793\n            /* \"#utility.yul\":42614:42618   */\n          dup3\n            /* \"#utility.yul\":42600:42612   */\n          dup3\n            /* \"#utility.yul\":42546:42619   */\n          tag_418\n          jump\t// in\n        tag_793:\n            /* \"#utility.yul\":42538:42619   */\n          swap2\n          pop\n            /* \"#utility.yul\":42386:42630   */\n          pop\n            /* \"#utility.yul\":42647:42651   */\n          dup1\n            /* \"#utility.yul\":42640:42651   */\n          swap2\n          pop\n            /* \"#utility.yul\":39550:42657   */\n          pop\n            /* \"#utility.yul\":39434:42657   */\n          swap3\n          swap2\n          pop\n          pop\n          jump\t// out\n            /* \"#utility.yul\":42663:42923   */\n        tag_441:\n            /* \"#utility.yul\":42784:42794   */\n          0x00\n            /* \"#utility.yul\":42819:42917   */\n          tag_795\n            /* \"#utility.yul\":42913:42916   */\n          dup4\n            /* \"#utility.yul\":42905:42911   */\n          dup4\n            /* \"#utility.yul\":42819:42917   */\n          tag_440\n          jump\t// in\n        tag_795:\n            /* \"#utility.yul\":42805:42917   */\n          swap1\n          pop\n            /* \"#utility.yul\":42663:42923   */\n          swap3\n          swap2\n          pop\n          pop\n          jump\t// out\n            /* \"#utility.yul\":42929:43068   */\n        tag_442:\n            /* \"#utility.yul\":43025:43029   */\n          0x00\n            /* \"#utility.yul\":43057:43061   */\n          0x20\n            /* \"#utility.yul\":43052:43055   */\n          dup3\n            /* \"#utility.yul\":43048:43062   */\n          add\n            /* \"#utility.yul\":43040:43062   */\n          swap1\n          pop\n            /* \"#utility.yul\":42929:43068   */\n          swap2\n          swap1\n          pop\n          jump\t// out\n            /* \"#utility.yul\":43152:44271   */\n        tag_443:\n            /* \"#utility.yul\":43323:43326   */\n          0x00\n            /* \"#utility.yul\":43352:43432   */\n          tag_798\n            /* \"#utility.yul\":43426:43431   */\n          dup3\n            /* \"#utility.yul\":43352:43432   */\n          tag_437\n          jump\t// in\n        tag_798:\n            /* \"#utility.yul\":43448:43560   */\n          tag_799\n            /* \"#utility.yul\":43553:43559   */\n          dup2\n            /* \"#utility.yul\":43548:43551   */\n          dup6\n            /* \"#utility.yul\":43448:43560   */\n          tag_438\n          jump\t// in\n        tag_799:\n            /* \"#utility.yul\":43441:43560   */\n          swap4\n          pop\n            /* \"#utility.yul\":43586:43589   */\n          dup4\n            /* \"#utility.yul\":43631:43635   */\n          0x20\n            /* \"#utility.yul\":43623:43629   */\n          dup3\n            /* \"#utility.yul\":43619:43636   */\n          mul\n            /* \"#utility.yul\":43614:43617   */\n          dup6\n            /* \"#utility.yul\":43610:43637   */\n          add\n            /* \"#utility.yul\":43661:43743   */\n          tag_800\n            /* \"#utility.yul\":43737:43742   */\n          dup6\n            /* \"#utility.yul\":43661:43743   */\n          tag_439\n          jump\t// in\n        tag_800:\n            /* \"#utility.yul\":43766:43773   */\n          dup1\n            /* \"#utility.yul\":43797:43798   */\n          0x00\n            /* \"#utility.yul\":43782:44226   */\n        tag_801:\n            /* \"#utility.yul\":43807:43813   */\n          dup6\n            /* \"#utility.yul\":43804:43805   */\n          dup2\n            /* \"#utility.yul\":43801:43814   */\n          lt\n            /* \"#utility.yul\":43782:44226   */\n          iszero\n          tag_803\n          jumpi\n            /* \"#utility.yul\":43878:43887   */\n          dup5\n            /* \"#utility.yul\":43872:43876   */\n          dup5\n            /* \"#utility.yul\":43868:43888   */\n          sub\n            /* \"#utility.yul\":43863:43866   */\n          dup10\n            /* \"#utility.yul\":43856:43889   */\n          mstore\n            /* \"#utility.yul\":43929:43935   */\n          dup2\n            /* \"#utility.yul\":43923:43936   */\n          mload\n            /* \"#utility.yul\":43957:44073   */\n          tag_804\n            /* \"#utility.yul\":44068:44072   */\n          dup6\n            /* \"#utility.yul\":44053:44066   */\n          dup3\n            /* \"#utility.yul\":43957:44073   */\n          tag_441\n          jump\t// in\n        tag_804:\n            /* \"#utility.yul\":43949:44073   */\n          swap5\n          pop\n            /* \"#utility.yul\":44096:44182   */\n          tag_805\n            /* \"#utility.yul\":44175:44181   */\n          dup4\n            /* \"#utility.yul\":44096:44182   */\n          tag_442\n          jump\t// in\n        tag_805:\n            /* \"#utility.yul\":44086:44182   */\n          swap3\n          pop\n            /* \"#utility.yul\":44211:44215   */\n          0x20\n            /* \"#utility.yul\":44206:44209   */\n          dup11\n            /* \"#utility.yul\":44202:44216   */\n          add\n            /* \"#utility.yul\":44195:44216   */\n          swap10\n          pop\n            /* \"#utility.yul\":43842:44226   */\n          pop\n            /* \"#utility.yul\":43829:43830   */\n          0x01\n            /* \"#utility.yul\":43826:43827   */\n          dup2\n            /* \"#utility.yul\":43822:43831   */\n          add\n            /* \"#utility.yul\":43817:43831   */\n          swap1\n          pop\n            /* \"#utility.yul\":43782:44226   */\n          jump(tag_801)\n        tag_803:\n            /* \"#utility.yul\":43786:43800   */\n          pop\n            /* \"#utility.yul\":44242:44246   */\n          dup3\n            /* \"#utility.yul\":44235:44246   */\n          swap8\n          pop\n            /* \"#utility.yul\":44262:44265   */\n          dup8\n            /* \"#utility.yul\":44255:44265   */\n          swap6\n          pop\n            /* \"#utility.yul\":43328:44271   */\n          pop\n          pop\n          pop\n          pop\n          pop\n            /* \"#utility.yul\":43152:44271   */\n          swap3\n          swap2\n          pop\n          pop\n          jump\t// out\n            /* \"#utility.yul\":44277:45043   */\n        tag_49:\n            /* \"#utility.yul\":44564:44568   */\n          0x00\n            /* \"#utility.yul\":44602:44604   */\n          0x40\n            /* \"#utility.yul\":44591:44600   */\n          dup3\n            /* \"#utility.yul\":44587:44605   */\n          add\n            /* \"#utility.yul\":44579:44605   */\n          swap1\n          pop\n            /* \"#utility.yul\":44651:44660   */\n          dup2\n            /* \"#utility.yul\":44645:44649   */\n          dup2\n            /* \"#utility.yul\":44641:44661   */\n          sub\n            /* \"#utility.yul\":44637:44638   */\n          0x00\n            /* \"#utility.yul\":44626:44635   */\n          dup4\n            /* \"#utility.yul\":44622:44639   */\n          add\n            /* \"#utility.yul\":44615:44662   */\n          mstore\n            /* \"#utility.yul\":44679:44801   */\n          tag_807\n            /* \"#utility.yul\":44796:44800   */\n          dup2\n            /* \"#utility.yul\":44787:44793   */\n          dup6\n            /* \"#utility.yul\":44679:44801   */\n          tag_420\n          jump\t// in\n        tag_807:\n            /* \"#utility.yul\":44671:44801   */\n          swap1\n          pop\n            /* \"#utility.yul\":44848:44857   */\n          dup2\n            /* \"#utility.yul\":44842:44846   */\n          dup2\n            /* \"#utility.yul\":44838:44858   */\n          sub\n            /* \"#utility.yul\":44833:44835   */\n          0x20\n            /* \"#utility.yul\":44822:44831   */\n          dup4\n            /* \"#utility.yul\":44818:44836   */\n          add\n            /* \"#utility.yul\":44811:44859   */\n          mstore\n            /* \"#utility.yul\":44876:45036   */\n          tag_808\n            /* \"#utility.yul\":45031:45035   */\n          dup2\n            /* \"#utility.yul\":45022:45028   */\n          dup5\n            /* \"#utility.yul\":44876:45036   */\n          tag_443\n          jump\t// in\n        tag_808:\n            /* \"#utility.yul\":44868:45036   */\n          swap1\n          pop\n            /* \"#utility.yul\":44277:45043   */\n          swap4\n          swap3\n          pop\n          pop\n          pop\n          jump\t// out\n            /* \"#utility.yul\":45049:45167   */\n        tag_444:\n            /* \"#utility.yul\":45136:45160   */\n          tag_810\n            /* \"#utility.yul\":45154:45159   */\n          dup2\n            /* \"#utility.yul\":45136:45160   */\n          tag_394\n          jump\t// in\n        tag_810:\n            /* \"#utility.yul\":45131:45134   */\n          dup3\n            /* \"#utility.yul\":45124:45161   */\n          mstore\n            /* \"#utility.yul\":45049:45167   */\n          pop\n          pop\n          jump\t// out\n            /* \"#utility.yul\":45173:45395   */\n        tag_52:\n            /* \"#utility.yul\":45266:45270   */\n          0x00\n            /* \"#utility.yul\":45304:45306   */\n          0x20\n            /* \"#utility.yul\":45293:45302   */\n          dup3\n            /* \"#utility.yul\":45289:45307   */\n          add\n            /* \"#utility.yul\":45281:45307   */\n          swap1\n          pop\n            /* \"#utility.yul\":45317:45388   */\n          tag_812\n            /* \"#utility.yul\":45385:45386   */\n          0x00\n            /* \"#utility.yul\":45374:45383   */\n          dup4\n            /* \"#utility.yul\":45370:45387   */\n          add\n            /* \"#utility.yul\":45361:45367   */\n          dup5\n            /* \"#utility.yul\":45317:45388   */\n          tag_444\n          jump\t// in\n        tag_812:\n            /* \"#utility.yul\":45173:45395   */\n          swap3\n          swap2\n          pop\n          pop\n          jump\t// out\n            /* \"#utility.yul\":45401:45538   */\n        tag_445:\n            /* \"#utility.yul\":45455:45460   */\n          0x00\n            /* \"#utility.yul\":45486:45492   */\n          dup2\n            /* \"#utility.yul\":45480:45493   */\n          mload\n            /* \"#utility.yul\":45471:45493   */\n          swap1\n          pop\n            /* \"#utility.yul\":45502:45532   */\n          tag_814\n            /* \"#utility.yul\":45526:45531   */\n          dup2\n            /* \"#utility.yul\":45502:45532   */\n          tag_408\n          jump\t// in\n        tag_814:\n            /* \"#utility.yul\":45401:45538   */\n          swap3\n          swap2\n          pop\n          pop\n          jump\t// out\n            /* \"#utility.yul\":45544:45889   */\n        tag_56:\n            /* \"#utility.yul\":45611:45617   */\n          0x00\n            /* \"#utility.yul\":45660:45662   */\n          0x20\n            /* \"#utility.yul\":45648:45657   */\n          dup3\n            /* \"#utility.yul\":45639:45646   */\n          dup5\n            /* \"#utility.yul\":45635:45658   */\n          sub\n            /* \"#utility.yul\":45631:45663   */\n          slt\n            /* \"#utility.yul\":45628:45747   */\n          iszero\n          tag_816\n          jumpi\n            /* \"#utility.yul\":45666:45745   */\n          tag_817\n          tag_385\n          jump\t// in\n        tag_817:\n            /* \"#utility.yul\":45628:45747   */\n        tag_816:\n            /* \"#utility.yul\":45786:45787   */\n          0x00\n            /* \"#utility.yul\":45811:45872   */\n          tag_818\n            /* \"#utility.yul\":45864:45871   */\n          dup5\n            /* \"#utility.yul\":45855:45861   */\n          dup3\n            /* \"#utility.yul\":45844:45853   */\n          dup6\n            /* \"#utility.yul\":45840:45862   */\n          add\n            /* \"#utility.yul\":45811:45872   */\n          tag_445\n          jump\t// in\n        tag_818:\n            /* \"#utility.yul\":45801:45872   */\n          swap2\n          pop\n            /* \"#utility.yul\":45757:45882   */\n          pop\n            /* \"#utility.yul\":45544:45889   */\n          swap3\n          swap2\n          pop\n          pop\n          jump\t// out\n            /* \"#utility.yul\":45895:46075   */\n        tag_446:\n            /* \"#utility.yul\":45943:46020   */\n          0x4e487b7100000000000000000000000000000000000000000000000000000000\n            /* \"#utility.yul\":45940:45941   */\n          0x00\n            /* \"#utility.yul\":45933:46021   */\n          mstore\n            /* \"#utility.yul\":46040:46044   */\n          0x22\n            /* \"#utility.yul\":46037:46038   */\n          0x04\n            /* \"#utility.yul\":46030:46045   */\n          mstore\n            /* \"#utility.yul\":46064:46068   */\n          0x24\n            /* \"#utility.yul\":46061:46062   */\n          0x00\n            /* \"#utility.yul\":46054:46069   */\n          revert\n            /* \"#utility.yul\":46081:46401   */\n        tag_164:\n            /* \"#utility.yul\":46125:46131   */\n          0x00\n            /* \"#utility.yul\":46162:46163   */\n          0x02\n            /* \"#utility.yul\":46156:46160   */\n          dup3\n            /* \"#utility.yul\":46152:46164   */\n          div\n            /* \"#utility.yul\":46142:46164   */\n          swap1\n          pop\n            /* \"#utility.yul\":46209:46210   */\n          0x01\n            /* \"#utility.yul\":46203:46207   */\n          dup3\n            /* \"#utility.yul\":46199:46211   */\n          and\n            /* \"#utility.yul\":46230:46248   */\n          dup1\n            /* \"#utility.yul\":46220:46301   */\n          tag_821\n          jumpi\n            /* \"#utility.yul\":46286:46290   */\n          0x7f\n            /* \"#utility.yul\":46278:46284   */\n          dup3\n            /* \"#utility.yul\":46274:46291   */\n          and\n            /* \"#utility.yul\":46264:46291   */\n          swap2\n          pop\n            /* \"#utility.yul\":46220:46301   */\n        tag_821:\n            /* \"#utility.yul\":46348:46350   */\n          0x20\n            /* \"#utility.yul\":46340:46346   */\n          dup3\n            /* \"#utility.yul\":46337:46351   */\n          lt\n            /* \"#utility.yul\":46317:46335   */\n          dup2\n            /* \"#utility.yul\":46314:46352   */\n          sub\n            /* \"#utility.yul\":46311:46395   */\n          tag_822\n          jumpi\n            /* \"#utility.yul\":46367:46385   */\n          tag_823\n          tag_446\n          jump\t// in\n        tag_823:\n            /* \"#utility.yul\":46311:46395   */\n        tag_822:\n            /* \"#utility.yul\":46132:46401   */\n          pop\n            /* \"#utility.yul\":46081:46401   */\n          swap2\n          swap1\n          pop\n          jump\t// out\n            /* \"#utility.yul\":46407:46548   */\n        tag_447:\n            /* \"#utility.yul\":46456:46460   */\n          0x00\n            /* \"#utility.yul\":46479:46482   */\n          dup2\n            /* \"#utility.yul\":46471:46482   */\n          swap1\n          pop\n            /* \"#utility.yul\":46502:46505   */\n          dup2\n            /* \"#utility.yul\":46499:46500   */\n          0x00\n            /* \"#utility.yul\":46492:46506   */\n          mstore\n            /* \"#utility.yul\":46536:46540   */\n          0x20\n            /* \"#utility.yul\":46533:46534   */\n          0x00\n            /* \"#utility.yul\":46523:46541   */\n          keccak256\n            /* \"#utility.yul\":46515:46541   */\n          swap1\n          pop\n            /* \"#utility.yul\":46407:46548   */\n          swap2\n          swap1\n          pop\n          jump\t// out\n            /* \"#utility.yul\":46554:46647   */\n        tag_448:\n            /* \"#utility.yul\":46591:46597   */\n          0x00\n            /* \"#utility.yul\":46638:46640   */\n          0x20\n            /* \"#utility.yul\":46633:46635   */\n          0x1f\n            /* \"#utility.yul\":46626:46631   */\n          dup4\n            /* \"#utility.yul\":46622:46636   */\n          add\n            /* \"#utility.yul\":46618:46641   */\n          div\n            /* \"#utility.yul\":46608:46641   */\n          swap1\n          pop\n            /* \"#utility.yul\":46554:46647   */\n          swap2\n          swap1\n          pop\n          jump\t// out\n            /* \"#utility.yul\":46653:46760   */\n        tag_449:\n            /* \"#utility.yul\":46697:46705   */\n          0x00\n            /* \"#utility.yul\":46747:46752   */\n          dup3\n            /* \"#utility.yul\":46741:46745   */\n          dup3\n            /* \"#utility.yul\":46737:46753   */\n          shl\n            /* \"#utility.yul\":46716:46753   */\n          swap1\n          pop\n            /* \"#utility.yul\":46653:46760   */\n          swap3\n          swap2\n          pop\n          pop\n          jump\t// out\n            /* \"#utility.yul\":46766:47159   */\n        tag_450:\n            /* \"#utility.yul\":46835:46841   */\n          0x00\n            /* \"#utility.yul\":46885:46886   */\n          0x08\n            /* \"#utility.yul\":46873:46883   */\n          dup4\n            /* \"#utility.yul\":46869:46887   */\n          mul\n            /* \"#utility.yul\":46908:47005   */\n          tag_828\n            /* \"#utility.yul\":46938:47004   */\n          0xffffffffffffffffffffffffffffffffffffffffffffffffffffffffffffffff\n            /* \"#utility.yul\":46927:46936   */\n          dup3\n            /* \"#utility.yul\":46908:47005   */\n          tag_449\n          jump\t// in\n        tag_828:\n            /* \"#utility.yul\":47026:47065   */\n          tag_829\n            /* \"#utility.yul\":47056:47064   */\n          dup7\n            /* \"#utility.yul\":47045:47054   */\n          dup4\n            /* \"#utility.yul\":47026:47065   */\n          tag_449\n          jump\t// in\n        tag_829:\n            /* \"#utility.yul\":47014:47065   */\n          swap6\n          pop\n            /* \"#utility.yul\":47098:47102   */\n          dup1\n            /* \"#utility.yul\":47094:47103   */\n          not\n            /* \"#utility.yul\":47087:47092   */\n          dup5\n            /* \"#utility.yul\":47083:47104   */\n          and\n            /* \"#utility.yul\":47074:47104   */\n          swap4\n          pop\n            /* \"#utility.yul\":47147:47151   */\n          dup1\n            /* \"#utility.yul\":47137:47145   */\n          dup7\n            /* \"#utility.yul\":47133:47152   */\n          and\n            /* \"#utility.yul\":47126:47131   */\n          dup5\n            /* \"#utility.yul\":47123:47153   */\n          or\n            /* \"#utility.yul\":47113:47153   */\n          swap3\n          pop\n            /* \"#utility.yul\":46842:47159   */\n          pop\n          pop\n            /* \"#utility.yul\":46766:47159   */\n          swap4\n          swap3\n          pop\n          pop\n          pop\n          jump\t// out\n            /* \"#utility.yul\":47165:47225   */\n        tag_451:\n            /* \"#utility.yul\":47193:47196   */\n          0x00\n            /* \"#utility.yul\":47214:47219   */\n          dup2\n            /* \"#utility.yul\":47207:47219   */\n          swap1\n          pop\n            /* \"#utility.yul\":47165:47225   */\n          swap2\n          swap1\n          pop\n          jump\t// out\n            /* \"#utility.yul\":47231:47373   */\n        tag_452:\n            /* \"#utility.yul\":47281:47290   */\n          0x00\n            /* \"#utility.yul\":47314:47367   */\n          tag_832\n            /* \"#utility.yul\":47332:47366   */\n          tag_833\n            /* \"#utility.yul\":47341:47365   */\n          tag_834\n            /* \"#utility.yul\":47359:47364   */\n          dup5\n            /* \"#utility.yul\":47341:47365   */\n          tag_403\n          jump\t// in\n        tag_834:\n            /* \"#utility.yul\":47332:47366   */\n          tag_451\n          jump\t// in\n        tag_833:\n            /* \"#utility.yul\":47314:47367   */\n          tag_403\n          jump\t// in\n        tag_832:\n            /* \"#utility.yul\":47301:47367   */\n          swap1\n          pop\n            /* \"#utility.yul\":47231:47373   */\n          swap2\n          swap1\n          pop\n          jump\t// out\n            /* \"#utility.yul\":47379:47454   */\n        tag_453:\n            /* \"#utility.yul\":47422:47425   */\n          0x00\n            /* \"#utility.yul\":47443:47448   */\n          dup2\n            /* \"#utility.yul\":47436:47448   */\n          swap1\n          pop\n            /* \"#utility.yul\":47379:47454   */\n          swap2\n          swap1\n          pop\n          jump\t// out\n            /* \"#utility.yul\":47460:47729   */\n        tag_454:\n            /* \"#utility.yul\":47570:47609   */\n          tag_837\n            /* \"#utility.yul\":47601:47608   */\n          dup4\n            /* \"#utility.yul\":47570:47609   */\n          tag_452\n          jump\t// in\n        tag_837:\n            /* \"#utility.yul\":47631:47722   */\n          tag_838\n            /* \"#utility.yul\":47680:47721   */\n          tag_839\n            /* \"#utility.yul\":47704:47720   */\n          dup3\n            /* \"#utility.yul\":47680:47721   */\n          tag_453\n          jump\t// in\n        tag_839:\n            /* \"#utility.yul\":47672:47678   */\n          dup5\n            /* \"#utility.yul\":47665:47669   */\n          dup5\n            /* \"#utility.yul\":47659:47670   */\n          sload\n            /* \"#utility.yul\":47631:47722   */\n          tag_450\n          jump\t// in\n        tag_838:\n            /* \"#utility.yul\":47625:47629   */\n          dup3\n            /* \"#utility.yul\":47618:47723   */\n          sstore\n            /* \"#utility.yul\":47536:47729   */\n          pop\n            /* \"#utility.yul\":47460:47729   */\n          pop\n          pop\n          pop\n          jump\t// out\n            /* \"#utility.yul\":47735:47808   */\n        tag_455:\n            /* \"#utility.yul\":47780:47783   */\n          0x00\n            /* \"#utility.yul\":47735:47808   */\n          swap1\n          jump\t// out\n            /* \"#utility.yul\":47814:48003   */\n        tag_456:\n            /* \"#utility.yul\":47891:47923   */\n          tag_842\n          tag_455\n          jump\t// in\n        tag_842:\n            /* \"#utility.yul\":47932:47997   */\n          tag_843\n            /* \"#utility.yul\":47990:47996   */\n          dup2\n            /* \"#utility.yul\":47982:47988   */\n          dup5\n            /* \"#utility.yul\":47976:47980   */\n          dup5\n            /* \"#utility.yul\":47932:47997   */\n          tag_454\n          jump\t// in\n        tag_843:\n            /* \"#utility.yul\":47867:48003   */\n          pop\n            /* \"#utility.yul\":47814:48003   */\n          pop\n          pop\n          jump\t// out\n            /* \"#utility.yul\":48009:48195   */\n        tag_457:\n            /* \"#utility.yul\":48069:48189   */\n        tag_845:\n            /* \"#utility.yul\":48086:48089   */\n          dup2\n            /* \"#utility.yul\":48079:48084   */\n          dup2\n            /* \"#utility.yul\":48076:48090   */\n          lt\n            /* \"#utility.yul\":48069:48189   */\n          iszero\n          tag_847\n          jumpi\n            /* \"#utility.yul\":48140:48179   */\n          tag_848\n            /* \"#utility.yul\":48177:48178   */\n          0x00\n            /* \"#utility.yul\":48170:48175   */\n          dup3\n            /* \"#utility.yul\":48140:48179   */\n          tag_456\n          jump\t// in\n        tag_848:\n            /* \"#utility.yul\":48113:48114   */\n          0x01\n            /* \"#utility.yul\":48106:48111   */\n          dup2\n            /* \"#utility.yul\":48102:48115   */\n          add\n            /* \"#utility.yul\":48093:48115   */\n          swap1\n          pop\n            /* \"#utility.yul\":48069:48189   */\n          jump(tag_845)\n        tag_847:\n            /* \"#utility.yul\":48009:48195   */\n          pop\n          pop\n          jump\t// out\n            /* \"#utility.yul\":48201:48744   */\n        tag_458:\n            /* \"#utility.yul\":48302:48304   */\n          0x1f\n            /* \"#utility.yul\":48297:48300   */\n          dup3\n            /* \"#utility.yul\":48294:48305   */\n          gt\n            /* \"#utility.yul\":48291:48737   */\n          iszero\n          tag_850\n          jumpi\n            /* \"#utility.yul\":48336:48374   */\n          tag_851\n            /* \"#utility.yul\":48368:48373   */\n          dup2\n            /* \"#utility.yul\":48336:48374   */\n          tag_447\n          jump\t// in\n        tag_851:\n            /* \"#utility.yul\":48420:48449   */\n          tag_852\n            /* \"#utility.yul\":48438:48448   */\n          dup5\n            /* \"#utility.yul\":48420:48449   */\n          tag_448\n          jump\t// in\n        tag_852:\n            /* \"#utility.yul\":48410:48418   */\n          dup2\n            /* \"#utility.yul\":48406:48450   */\n          add\n            /* \"#utility.yul\":48603:48605   */\n          0x20\n            /* \"#utility.yul\":48591:48601   */\n          dup6\n            /* \"#utility.yul\":48588:48606   */\n          lt\n            /* \"#utility.yul\":48585:48634   */\n          iszero\n          tag_853\n          jumpi\n            /* \"#utility.yul\":48624:48632   */\n          dup2\n            /* \"#utility.yul\":48609:48632   */\n          swap1\n          pop\n            /* \"#utility.yul\":48585:48634   */\n        tag_853:\n            /* \"#utility.yul\":48647:48727   */\n          tag_854\n            /* \"#utility.yul\":48703:48725   */\n          tag_855\n            /* \"#utility.yul\":48721:48724   */\n          dup6\n            /* \"#utility.yul\":48703:48725   */\n          tag_448\n          jump\t// in\n        tag_855:\n            /* \"#utility.yul\":48693:48701   */\n          dup4\n            /* \"#utility.yul\":48689:48726   */\n          add\n            /* \"#utility.yul\":48676:48687   */\n          dup3\n            /* \"#utility.yul\":48647:48727   */\n          tag_457\n          jump\t// in\n        tag_854:\n            /* \"#utility.yul\":48306:48737   */\n          pop\n          pop\n            /* \"#utility.yul\":48291:48737   */\n        tag_850:\n            /* \"#utility.yul\":48201:48744   */\n          pop\n          pop\n          pop\n          jump\t// out\n            /* \"#utility.yul\":48750:48867   */\n        tag_459:\n            /* \"#utility.yul\":48804:48812   */\n          0x00\n            /* \"#utility.yul\":48854:48859   */\n          dup3\n            /* \"#utility.yul\":48848:48852   */\n          dup3\n            /* \"#utility.yul\":48844:48860   */\n          shr\n            /* \"#utility.yul\":48823:48860   */\n          swap1\n          pop\n            /* \"#utility.yul\":48750:48867   */\n          swap3\n          swap2\n          pop\n          pop\n          jump\t// out\n            /* \"#utility.yul\":48873:49042   */\n        tag_460:\n            /* \"#utility.yul\":48917:48923   */\n          0x00\n            /* \"#utility.yul\":48950:49001   */\n          tag_858\n            /* \"#utility.yul\":48998:48999   */\n          0x00\n            /* \"#utility.yul\":48994:49000   */\n          not\n            /* \"#utility.yul\":48986:48991   */\n          dup5\n            /* \"#utility.yul\":48983:48984   */\n          0x08\n            /* \"#utility.yul\":48979:48992   */\n          mul\n            /* \"#utility.yul\":48950:49001   */\n          tag_459\n          jump\t// in\n        tag_858:\n            /* \"#utility.yul\":48946:49002   */\n          not\n            /* \"#utility.yul\":49031:49035   */\n          dup1\n            /* \"#utility.yul\":49025:49029   */\n          dup4\n            /* \"#utility.yul\":49021:49036   */\n          and\n            /* \"#utility.yul\":49011:49036   */\n          swap2\n          pop\n            /* \"#utility.yul\":48924:49042   */\n          pop\n            /* \"#utility.yul\":48873:49042   */\n          swap3\n          swap2\n          pop\n          pop\n          jump\t// out\n            /* \"#utility.yul\":49047:49342   */\n        tag_461:\n            /* \"#utility.yul\":49123:49127   */\n          0x00\n            /* \"#utility.yul\":49269:49298   */\n          tag_860\n            /* \"#utility.yul\":49294:49297   */\n          dup4\n            /* \"#utility.yul\":49288:49292   */\n          dup4\n            /* \"#utility.yul\":49269:49298   */\n          tag_460\n          jump\t// in\n        tag_860:\n            /* \"#utility.yul\":49261:49298   */\n          swap2\n          pop\n            /* \"#utility.yul\":49331:49334   */\n          dup3\n            /* \"#utility.yul\":49328:49329   */\n          0x02\n            /* \"#utility.yul\":49324:49335   */\n          mul\n            /* \"#utility.yul\":49318:49322   */\n          dup3\n            /* \"#utility.yul\":49315:49336   */\n          or\n            /* \"#utility.yul\":49307:49336   */\n          swap1\n          pop\n            /* \"#utility.yul\":49047:49342   */\n          swap3\n          swap2\n          pop\n          pop\n          jump\t// out\n            /* \"#utility.yul\":49347:50742   */\n        tag_62:\n            /* \"#utility.yul\":49464:49501   */\n          tag_862\n            /* \"#utility.yul\":49497:49500   */\n          dup3\n            /* \"#utility.yul\":49464:49501   */\n          tag_415\n          jump\t// in\n        tag_862:\n            /* \"#utility.yul\":49566:49584   */\n          0xffffffffffffffff\n            /* \"#utility.yul\":49558:49564   */\n          dup2\n            /* \"#utility.yul\":49555:49585   */\n          gt\n            /* \"#utility.yul\":49552:49608   */\n          iszero\n          tag_863\n          jumpi\n            /* \"#utility.yul\":49588:49606   */\n          tag_864\n          tag_389\n          jump\t// in\n        tag_864:\n            /* \"#utility.yul\":49552:49608   */\n        tag_863:\n            /* \"#utility.yul\":49632:49670   */\n          tag_865\n            /* \"#utility.yul\":49664:49668   */\n          dup3\n            /* \"#utility.yul\":49658:49669   */\n          sload\n            /* \"#utility.yul\":49632:49670   */\n          tag_164\n          jump\t// in\n        tag_865:\n            /* \"#utility.yul\":49717:49784   */\n          tag_866\n            /* \"#utility.yul\":49777:49783   */\n          dup3\n            /* \"#utility.yul\":49769:49775   */\n          dup3\n            /* \"#utility.yul\":49763:49767   */\n          dup6\n            /* \"#utility.yul\":49717:49784   */\n          tag_458\n          jump\t// in\n        tag_866:\n            /* \"#utility.yul\":49811:49812   */\n          0x00\n            /* \"#utility.yul\":49835:49839   */\n          0x20\n            /* \"#utility.yul\":49822:49839   */\n          swap1\n          pop\n            /* \"#utility.yul\":49867:49869   */\n          0x1f\n            /* \"#utility.yul\":49859:49865   */\n          dup4\n            /* \"#utility.yul\":49856:49870   */\n          gt\n            /* \"#utility.yul\":49884:49885   */\n          0x01\n            /* \"#utility.yul\":49879:50497   */\n          dup2\n          eq\n          tag_868\n          jumpi\n            /* \"#utility.yul\":50541:50542   */\n          0x00\n            /* \"#utility.yul\":50558:50564   */\n          dup5\n            /* \"#utility.yul\":50555:50632   */\n          iszero\n          tag_869\n          jumpi\n            /* \"#utility.yul\":50607:50616   */\n          dup3\n            /* \"#utility.yul\":50602:50605   */\n          dup8\n            /* \"#utility.yul\":50598:50617   */\n          add\n            /* \"#utility.yul\":50592:50618   */\n          mload\n            /* \"#utility.yul\":50583:50618   */\n          swap1\n          pop\n            /* \"#utility.yul\":50555:50632   */\n        tag_869:\n            /* \"#utility.yul\":50658:50725   */\n          tag_870\n            /* \"#utility.yul\":50718:50724   */\n          dup6\n            /* \"#utility.yul\":50711:50716   */\n          dup3\n            /* \"#utility.yul\":50658:50725   */\n          tag_461\n          jump\t// in\n        tag_870:\n            /* \"#utility.yul\":50652:50656   */\n          dup7\n            /* \"#utility.yul\":50645:50726   */\n          sstore\n            /* \"#utility.yul\":50514:50736   */\n          pop\n            /* \"#utility.yul\":49849:50736   */\n          jump(tag_867)\n            /* \"#utility.yul\":49879:50497   */\n        tag_868:\n            /* \"#utility.yul\":49931:49935   */\n          0x1f\n            /* \"#utility.yul\":49927:49936   */\n          not\n            /* \"#utility.yul\":49919:49925   */\n          dup5\n            /* \"#utility.yul\":49915:49937   */\n          and\n            /* \"#utility.yul\":49965:50002   */\n          tag_871\n            /* \"#utility.yul\":49997:50001   */\n          dup7\n            /* \"#utility.yul\":49965:50002   */\n          tag_447\n          jump\t// in\n        tag_871:\n            /* \"#utility.yul\":50024:50025   */\n          0x00\n            /* \"#utility.yul\":50038:50246   */\n        tag_872:\n            /* \"#utility.yul\":50052:50059   */\n          dup3\n            /* \"#utility.yul\":50049:50050   */\n          dup2\n            /* \"#utility.yul\":50046:50060   */\n          lt\n            /* \"#utility.yul\":50038:50246   */\n          iszero\n          tag_874\n          jumpi\n            /* \"#utility.yul\":50131:50140   */\n          dup5\n            /* \"#utility.yul\":50126:50129   */\n          dup10\n            /* \"#utility.yul\":50122:50141   */\n          add\n            /* \"#utility.yul\":50116:50142   */\n          mload\n            /* \"#utility.yul\":50108:50114   */\n          dup3\n            /* \"#utility.yul\":50101:50143   */\n          sstore\n            /* \"#utility.yul\":50182:50183   */\n          0x01\n            /* \"#utility.yul\":50174:50180   */\n          dup3\n            /* \"#utility.yul\":50170:50184   */\n          add\n            /* \"#utility.yul\":50160:50184   */\n          swap2\n          pop\n            /* \"#utility.yul\":50229:50231   */\n          0x20\n            /* \"#utility.yul\":50218:50227   */\n          dup6\n            /* \"#utility.yul\":50214:50232   */\n          add\n            /* \"#utility.yul\":50201:50232   */\n          swap5\n          pop\n            /* \"#utility.yul\":50075:50079   */\n          0x20\n            /* \"#utility.yul\":50072:50073   */\n          dup2\n            /* \"#utility.yul\":50068:50080   */\n          add\n            /* \"#utility.yul\":50063:50080   */\n          swap1\n          pop\n            /* \"#utility.yul\":50038:50246   */\n          jump(tag_872)\n        tag_874:\n            /* \"#utility.yul\":50274:50280   */\n          dup7\n            /* \"#utility.yul\":50265:50272   */\n          dup4\n            /* \"#utility.yul\":50262:50281   */\n          lt\n            /* \"#utility.yul\":50259:50438   */\n          iszero\n          tag_875\n          jumpi\n            /* \"#utility.yul\":50332:50341   */\n          dup5\n            /* \"#utility.yul\":50327:50330   */\n          dup10\n            /* \"#utility.yul\":50323:50342   */\n          add\n            /* \"#utility.yul\":50317:50343   */\n          mload\n            /* \"#utility.yul\":50375:50423   */\n          tag_876\n            /* \"#utility.yul\":50417:50421   */\n          0x1f\n            /* \"#utility.yul\":50409:50415   */\n          dup10\n            /* \"#utility.yul\":50405:50422   */\n          and\n            /* \"#utility.yul\":50394:50403   */\n          dup3\n            /* \"#utility.yul\":50375:50423   */\n          tag_460\n          jump\t// in\n        tag_876:\n            /* \"#utility.yul\":50367:50373   */\n          dup4\n            /* \"#utility.yul\":50360:50424   */\n          sstore\n            /* \"#utility.yul\":50282:50438   */\n          pop\n            /* \"#utility.yul\":50259:50438   */\n        tag_875:\n            /* \"#utility.yul\":50484:50485   */\n          0x01\n            /* \"#utility.yul\":50480:50481   */\n          0x02\n            /* \"#utility.yul\":50472:50478   */\n          dup9\n            /* \"#utility.yul\":50468:50482   */\n          mul\n            /* \"#utility.yul\":50464:50486   */\n          add\n            /* \"#utility.yul\":50458:50462   */\n          dup9\n            /* \"#utility.yul\":50451:50487   */\n          sstore\n            /* \"#utility.yul\":49886:50497   */\n          pop\n          pop\n          pop\n            /* \"#utility.yul\":49849:50736   */\n        tag_867:\n          pop\n            /* \"#utility.yul\":49439:50742   */\n          pop\n          pop\n          pop\n            /* \"#utility.yul\":49347:50742   */\n          pop\n          pop\n          jump\t// out\n            /* \"#utility.yul\":50748:50917   */\n        tag_462:\n            /* \"#utility.yul\":50832:50843   */\n          0x00\n            /* \"#utility.yul\":50866:50872   */\n          dup3\n            /* \"#utility.yul\":50861:50864   */\n          dup3\n            /* \"#utility.yul\":50854:50873   */\n          mstore\n            /* \"#utility.yul\":50906:50910   */\n          0x20\n            /* \"#utility.yul\":50901:50904   */\n          dup3\n            /* \"#utility.yul\":50897:50911   */\n          add\n            /* \"#utility.yul\":50882:50911   */\n          swap1\n          pop\n            /* \"#utility.yul\":50748:50917   */\n          swap3\n          swap2\n          pop\n          pop\n          jump\t// out\n            /* \"#utility.yul\":50923:51300   */\n        tag_463:\n            /* \"#utility.yul\":51011:51014   */\n          0x00\n            /* \"#utility.yul\":51039:51078   */\n          tag_879\n            /* \"#utility.yul\":51072:51077   */\n          dup3\n            /* \"#utility.yul\":51039:51078   */\n          tag_415\n          jump\t// in\n        tag_879:\n            /* \"#utility.yul\":51094:51165   */\n          tag_880\n            /* \"#utility.yul\":51158:51164   */\n          dup2\n            /* \"#utility.yul\":51153:51156   */\n          dup6\n            /* \"#utility.yul\":51094:51165   */\n          tag_462\n          jump\t// in\n        tag_880:\n            /* \"#utility.yul\":51087:51165   */\n          swap4\n          pop\n            /* \"#utility.yul\":51174:51239   */\n          tag_881\n            /* \"#utility.yul\":51232:51238   */\n          dup2\n            /* \"#utility.yul\":51227:51230   */\n          dup6\n            /* \"#utility.yul\":51220:51224   */\n          0x20\n            /* \"#utility.yul\":51213:51218   */\n          dup7\n            /* \"#utility.yul\":51209:51225   */\n          add\n            /* \"#utility.yul\":51174:51239   */\n          tag_417\n          jump\t// in\n        tag_881:\n            /* \"#utility.yul\":51264:51293   */\n          tag_882\n            /* \"#utility.yul\":51286:51292   */\n          dup2\n            /* \"#utility.yul\":51264:51293   */\n          tag_388\n          jump\t// in\n        tag_882:\n            /* \"#utility.yul\":51259:51262   */\n          dup5\n            /* \"#utility.yul\":51255:51294   */\n          add\n            /* \"#utility.yul\":51248:51294   */\n          swap2\n          pop\n            /* \"#utility.yul\":51015:51300   */\n          pop\n            /* \"#utility.yul\":50923:51300   */\n          swap3\n          swap2\n          pop\n          pop\n          jump\t// out\n            /* \"#utility.yul\":51306:52041   */\n        tag_83:\n            /* \"#utility.yul\":51523:51527   */\n          0x00\n            /* \"#utility.yul\":51561:51564   */\n          0x80\n            /* \"#utility.yul\":51550:51559   */\n          dup3\n            /* \"#utility.yul\":51546:51565   */\n          add\n            /* \"#utility.yul\":51538:51565   */\n          swap1\n          pop\n            /* \"#utility.yul\":51575:51646   */\n          tag_884\n            /* \"#utility.yul\":51643:51644   */\n          0x00\n            /* \"#utility.yul\":51632:51641   */\n          dup4\n            /* \"#utility.yul\":51628:51645   */\n          add\n            /* \"#utility.yul\":51619:51625   */\n          dup8\n            /* \"#utility.yul\":51575:51646   */\n          tag_444\n          jump\t// in\n        tag_884:\n            /* \"#utility.yul\":51693:51702   */\n          dup2\n            /* \"#utility.yul\":51687:51691   */\n          dup2\n            /* \"#utility.yul\":51683:51703   */\n          sub\n            /* \"#utility.yul\":51678:51680   */\n          0x20\n            /* \"#utility.yul\":51667:51676   */\n          dup4\n            /* \"#utility.yul\":51663:51681   */\n          add\n            /* \"#utility.yul\":51656:51704   */\n          mstore\n            /* \"#utility.yul\":51721:51799   */\n          tag_885\n            /* \"#utility.yul\":51794:51798   */\n          dup2\n            /* \"#utility.yul\":51785:51791   */\n          dup7\n            /* \"#utility.yul\":51721:51799   */\n          tag_463\n          jump\t// in\n        tag_885:\n            /* \"#utility.yul\":51713:51799   */\n          swap1\n          pop\n            /* \"#utility.yul\":51846:51855   */\n          dup2\n            /* \"#utility.yul\":51840:51844   */\n          dup2\n            /* \"#utility.yul\":51836:51856   */\n          sub\n            /* \"#utility.yul\":51831:51833   */\n          0x40\n            /* \"#utility.yul\":51820:51829   */\n          dup4\n            /* \"#utility.yul\":51816:51834   */\n          add\n            /* \"#utility.yul\":51809:51857   */\n          mstore\n            /* \"#utility.yul\":51874:51952   */\n          tag_886\n            /* \"#utility.yul\":51947:51951   */\n          dup2\n            /* \"#utility.yul\":51938:51944   */\n          dup6\n            /* \"#utility.yul\":51874:51952   */\n          tag_463\n          jump\t// in\n        tag_886:\n            /* \"#utility.yul\":51866:51952   */\n          swap1\n          pop\n            /* \"#utility.yul\":51962:52034   */\n          tag_887\n            /* \"#utility.yul\":52030:52032   */\n          0x60\n            /* \"#utility.yul\":52019:52028   */\n          dup4\n            /* \"#utility.yul\":52015:52033   */\n          add\n            /* \"#utility.yul\":52006:52012   */\n          dup5\n            /* \"#utility.yul\":51962:52034   */\n          tag_444\n          jump\t// in\n        tag_887:\n            /* \"#utility.yul\":51306:52041   */\n          swap6\n          swap5\n          pop\n          pop\n          pop\n          pop\n          pop\n          jump\t// out\n\n        auxdata: 0xa26469706673582212200e24c77f6f944a3e713111db16875f7b064d93e47c043fa1c4ab08293e6df90164736f6c63430008110033\n    }\n}\n\nsub_2: assembly {\n        /* \"ElectronicMedicalRecords.sol\":10501:11319  contract PatientVerificator {... */\n      mstore(0x40, 0x80)\n        /* \"ElectronicMedicalRecords.sol\":10660:10721  constructor(address _admin) {... */\n      callvalue\n      dup1\n      iszero\n      tag_1\n      jumpi\n      0x00\n      dup1\n      revert\n    tag_1:\n      pop\n      mload(0x40)\n      sub(codesize, bytecodeSize)\n      dup1\n      bytecodeSize\n      dup4\n      codecopy\n      dup2\n      dup2\n      add\n      0x40\n      mstore\n      dup2\n      add\n      swap1\n      tag_2\n      swap2\n      swap1\n      tag_3\n      jump\t// in\n    tag_2:\n        /* \"ElectronicMedicalRecords.sol\":10707:10713  _admin */\n      dup1\n        /* \"ElectronicMedicalRecords.sol\":10699:10704  admin */\n      0x00\n      dup1\n        /* \"ElectronicMedicalRecords.sol\":10699:10713  admin = _admin */\n      0x0100\n      exp\n      dup2\n      sload\n      dup2\n      0xffffffffffffffffffffffffffffffffffffffff\n      mul\n      not\n      and\n      swap1\n      dup4\n      0xffffffffffffffffffffffffffffffffffffffff\n      and\n      mul\n      or\n      swap1\n      sstore\n      pop\n        /* \"ElectronicMedicalRecords.sol\":10660:10721  constructor(address _admin) {... */\n      pop\n        /* \"ElectronicMedicalRecords.sol\":10501:11319  contract PatientVerificator {... */\n      jump(tag_6)\n        /* \"#utility.yul\":88:205   */\n    tag_8:\n        /* \"#utility.yul\":197:198   */\n      0x00\n        /* \"#utility.yul\":194:195   */\n      dup1\n        /* \"#utility.yul\":187:199   */\n      revert\n        /* \"#utility.yul\":334:460   */\n    tag_10:\n        /* \"#utility.yul\":371:378   */\n      0x00\n        /* \"#utility.yul\":411:453   */\n      0xffffffffffffffffffffffffffffffffffffffff\n        /* \"#utility.yul\":404:409   */\n      dup3\n        /* \"#utility.yul\":400:454   */\n      and\n        /* \"#utility.yul\":389:454   */\n      swap1\n      pop\n        /* \"#utility.yul\":334:460   */\n      swap2\n      swap1\n      pop\n      jump\t// out\n        /* \"#utility.yul\":466:562   */\n    tag_11:\n        /* \"#utility.yul\":503:510   */\n      0x00\n        /* \"#utility.yul\":532:556   */\n      tag_20\n        /* \"#utility.yul\":550:555   */\n      dup3\n        /* \"#utility.yul\":532:556   */\n      tag_10\n      jump\t// in\n    tag_20:\n        /* \"#utility.yul\":521:556   */\n      swap1\n      pop\n        /* \"#utility.yul\":466:562   */\n      swap2\n      swap1\n      pop\n      jump\t// out\n        /* \"#utility.yul\":568:690   */\n    tag_12:\n        /* \"#utility.yul\":641:665   */\n      tag_22\n        /* \"#utility.yul\":659:664   */\n      dup2\n        /* \"#utility.yul\":641:665   */\n      tag_11\n      jump\t// in\n    tag_22:\n        /* \"#utility.yul\":634:639   */\n      dup2\n        /* \"#utility.yul\":631:666   */\n      eq\n        /* \"#utility.yul\":621:684   */\n      tag_23\n      jumpi\n        /* \"#utility.yul\":680:681   */\n      0x00\n        /* \"#utility.yul\":677:678   */\n      dup1\n        /* \"#utility.yul\":670:682   */\n      revert\n        /* \"#utility.yul\":621:684   */\n    tag_23:\n        /* \"#utility.yul\":568:690   */\n      pop\n      jump\t// out\n        /* \"#utility.yul\":696:839   */\n    tag_13:\n        /* \"#utility.yul\":753:758   */\n      0x00\n        /* \"#utility.yul\":784:790   */\n      dup2\n        /* \"#utility.yul\":778:791   */\n      mload\n        /* \"#utility.yul\":769:791   */\n      swap1\n      pop\n        /* \"#utility.yul\":800:833   */\n      tag_25\n        /* \"#utility.yul\":827:832   */\n      dup2\n        /* \"#utility.yul\":800:833   */\n      tag_12\n      jump\t// in\n    tag_25:\n        /* \"#utility.yul\":696:839   */\n      swap3\n      swap2\n      pop\n      pop\n      jump\t// out\n        /* \"#utility.yul\":845:1196   */\n    tag_3:\n        /* \"#utility.yul\":915:921   */\n      0x00\n        /* \"#utility.yul\":964:966   */\n      0x20\n        /* \"#utility.yul\":952:961   */\n      dup3\n        /* \"#utility.yul\":943:950   */\n      dup5\n        /* \"#utility.yul\":939:962   */\n      sub\n        /* \"#utility.yul\":935:967   */\n      slt\n        /* \"#utility.yul\":932:1051   */\n      iszero\n      tag_27\n      jumpi\n        /* \"#utility.yul\":970:1049   */\n      tag_28\n      tag_8\n      jump\t// in\n    tag_28:\n        /* \"#utility.yul\":932:1051   */\n    tag_27:\n        /* \"#utility.yul\":1090:1091   */\n      0x00\n        /* \"#utility.yul\":1115:1179   */\n      tag_29\n        /* \"#utility.yul\":1171:1178   */\n      dup5\n        /* \"#utility.yul\":1162:1168   */\n      dup3\n        /* \"#utility.yul\":1151:1160   */\n      dup6\n        /* \"#utility.yul\":1147:1169   */\n      add\n        /* \"#utility.yul\":1115:1179   */\n      tag_13\n      jump\t// in\n    tag_29:\n        /* \"#utility.yul\":1105:1179   */\n      swap2\n      pop\n        /* \"#utility.yul\":1061:1189   */\n      pop\n        /* \"#utility.yul\":845:1196   */\n      swap3\n      swap2\n      pop\n      pop\n      jump\t// out\n        /* \"ElectronicMedicalRecords.sol\":10501:11319  contract PatientVerificator {... */\n    tag_6:\n      dataSize(sub_0)\n      dup1\n      dataOffset(sub_0)\n      0x00\n      codecopy\n      0x00\n      return\n    stop\n\n    sub_0: assembly {\n            /* \"ElectronicMedicalRecords.sol\":10501:11319  contract PatientVerificator {... */\n          mstore(0x40, 0x80)\n          callvalue\n          dup1\n          iszero\n          tag_1\n          jumpi\n          0x00\n          dup1\n          revert\n        tag_1:\n          pop\n          jumpi(tag_2, lt(calldatasize, 0x04))\n          shr(0xe0, calldataload(0x00))\n          dup1\n          0x18a231a9\n          eq\n          tag_3\n          jumpi\n          dup1\n          0x63a9c3d7\n          eq\n          tag_4\n          jumpi\n          dup1\n          0x6d263ceb\n          eq\n          tag_5\n          jumpi\n        tag_2:\n          0x00\n          dup1\n          revert\n            /* \"ElectronicMedicalRecords.sol\":11111:11228  function getAllPatients() onlyAdmin public view returns(address[] memory _address) {... */\n        tag_3:\n          tag_6\n          tag_7\n          jump\t// in\n        tag_6:\n          mload(0x40)\n          tag_8\n          swap2\n          swap1\n          tag_9\n          jump\t// in\n        tag_8:\n          mload(0x40)\n          dup1\n          swap2\n          sub\n          swap1\n          return\n            /* \"ElectronicMedicalRecords.sol\":10914:11103  function verify(address _address) public view returns(bool _bool) {... */\n        tag_4:\n          tag_10\n          0x04\n          dup1\n          calldatasize\n          sub\n          dup2\n          add\n          swap1\n          tag_11\n          swap2\n          swap1\n          tag_12\n          jump\t// in\n        tag_11:\n          tag_13\n          jump\t// in\n        tag_10:\n          mload(0x40)\n          tag_14\n          swap2\n          swap1\n          tag_15\n          jump\t// in\n        tag_14:\n          mload(0x40)\n          dup1\n          swap2\n          sub\n          swap1\n          return\n            /* \"ElectronicMedicalRecords.sol\":10729:10906  function addPatient(address _address) public {... */\n        tag_5:\n          tag_16\n          0x04\n          dup1\n          calldatasize\n          sub\n          dup2\n          add\n          swap1\n          tag_17\n          swap2\n          swap1\n          tag_12\n          jump\t// in\n        tag_17:\n          tag_18\n          jump\t// in\n        tag_16:\n          stop\n            /* \"ElectronicMedicalRecords.sol\":11111:11228  function getAllPatients() onlyAdmin public view returns(address[] memory _address) {... */\n        tag_7:\n            /* \"ElectronicMedicalRecords.sol\":11167:11192  address[] memory _address */\n          0x60\n            /* \"ElectronicMedicalRecords.sol\":11290:11295  admin */\n          0x00\n          dup1\n          sload\n          swap1\n          0x0100\n          exp\n          swap1\n          div\n          0xffffffffffffffffffffffffffffffffffffffff\n          and\n            /* \"ElectronicMedicalRecords.sol\":11276:11295  msg.sender == admin */\n          0xffffffffffffffffffffffffffffffffffffffff\n          and\n            /* \"ElectronicMedicalRecords.sol\":11276:11286  msg.sender */\n          caller\n            /* \"ElectronicMedicalRecords.sol\":11276:11295  msg.sender == admin */\n          0xffffffffffffffffffffffffffffffffffffffff\n          and\n          eq\n            /* \"ElectronicMedicalRecords.sol\":11268:11296  require(msg.sender == admin) */\n          tag_20\n          jumpi\n          0x00\n          dup1\n          revert\n        tag_20:\n            /* \"ElectronicMedicalRecords.sol\":11212:11220  patients */\n          0x01\n            /* \"ElectronicMedicalRecords.sol\":11205:11220  return patients */\n          dup1\n          sload\n          dup1\n          0x20\n          mul\n          0x20\n          add\n          mload(0x40)\n          swap1\n          dup2\n          add\n          0x40\n          mstore\n          dup1\n          swap3\n          swap2\n          swap1\n          dup2\n          dup2\n          mstore\n          0x20\n          add\n          dup3\n          dup1\n          sload\n          dup1\n          iszero\n          tag_22\n          jumpi\n          0x20\n          mul\n          dup3\n          add\n          swap2\n          swap1\n          0x00\n          mstore\n          keccak256(0x00, 0x20)\n          swap1\n        tag_23:\n          dup2\n          0x00\n          swap1\n          sload\n          swap1\n          0x0100\n          exp\n          swap1\n          div\n          0xffffffffffffffffffffffffffffffffffffffff\n          and\n          0xffffffffffffffffffffffffffffffffffffffff\n          and\n          dup2\n          mstore\n          0x20\n          add\n          swap1\n          0x01\n          add\n          swap1\n          dup1\n          dup4\n          gt\n          tag_23\n          jumpi\n        tag_22:\n          pop\n          pop\n          pop\n          pop\n          pop\n          swap1\n          pop\n            /* \"ElectronicMedicalRecords.sol\":11111:11228  function getAllPatients() onlyAdmin public view returns(address[] memory _address) {... */\n          swap1\n          jump\t// out\n            /* \"ElectronicMedicalRecords.sol\":10914:11103  function verify(address _address) public view returns(bool _bool) {... */\n        tag_13:\n            /* \"ElectronicMedicalRecords.sol\":10968:10978  bool _bool */\n          0x00\n            /* \"ElectronicMedicalRecords.sol\":10994:11001  patient */\n          0x02\n            /* \"ElectronicMedicalRecords.sol\":10994:11011  patient[_address] */\n          0x00\n            /* \"ElectronicMedicalRecords.sol\":11002:11010  _address */\n          dup4\n            /* \"ElectronicMedicalRecords.sol\":10994:11011  patient[_address] */\n          0xffffffffffffffffffffffffffffffffffffffff\n          and\n          0xffffffffffffffffffffffffffffffffffffffff\n          and\n          dup2\n          mstore\n          0x20\n          add\n          swap1\n          dup2\n          mstore\n          0x20\n          add\n          0x00\n          keccak256\n          0x00\n          swap1\n          sload\n          swap1\n          0x0100\n          exp\n          swap1\n          div\n          0xff\n          and\n            /* \"ElectronicMedicalRecords.sol\":10991:11096  if(patient[_address]) {... */\n          iszero\n          tag_25\n          jumpi\n            /* \"ElectronicMedicalRecords.sol\":11035:11039  true */\n          0x01\n            /* \"ElectronicMedicalRecords.sol\":11028:11039  return true */\n          swap1\n          pop\n          jump(tag_24)\n            /* \"ElectronicMedicalRecords.sol\":10991:11096  if(patient[_address]) {... */\n        tag_25:\n            /* \"ElectronicMedicalRecords.sol\":11079:11084  false */\n          0x00\n            /* \"ElectronicMedicalRecords.sol\":11072:11084  return false */\n          swap1\n          pop\n            /* \"ElectronicMedicalRecords.sol\":10914:11103  function verify(address _address) public view returns(bool _bool) {... */\n        tag_24:\n          swap2\n          swap1\n          pop\n          jump\t// out\n            /* \"ElectronicMedicalRecords.sol\":10729:10906  function addPatient(address _address) public {... */\n        tag_18:\n            /* \"ElectronicMedicalRecords.sol\":10790:10797  patient */\n          0x02\n            /* \"ElectronicMedicalRecords.sol\":10790:10807  patient[_address] */\n          0x00\n            /* \"ElectronicMedicalRecords.sol\":10798:10806  _address */\n          dup3\n            /* \"ElectronicMedicalRecords.sol\":10790:10807  patient[_address] */\n          0xffffffffffffffffffffffffffffffffffffffff\n          and\n          0xffffffffffffffffffffffffffffffffffffffff\n          and\n          dup2\n          mstore\n          0x20\n          add\n          swap1\n          dup2\n          mstore\n          0x20\n          add\n          0x00\n          keccak256\n          0x00\n          swap1\n          sload\n          swap1\n          0x0100\n          exp\n          swap1\n          div\n          0xff\n          and\n            /* \"ElectronicMedicalRecords.sol\":10785:10899  if (!patient[_address]) {... */\n          tag_28\n          jumpi\n            /* \"ElectronicMedicalRecords.sol\":10844:10848  true */\n          0x01\n            /* \"ElectronicMedicalRecords.sol\":10824:10831  patient */\n          0x02\n            /* \"ElectronicMedicalRecords.sol\":10824:10841  patient[_address] */\n          0x00\n            /* \"ElectronicMedicalRecords.sol\":10832:10840  _address */\n          dup4\n            /* \"ElectronicMedicalRecords.sol\":10824:10841  patient[_address] */\n          0xffffffffffffffffffffffffffffffffffffffff\n          and\n          0xffffffffffffffffffffffffffffffffffffffff\n          and\n          dup2\n          mstore\n          0x20\n          add\n          swap1\n          dup2\n          mstore\n          0x20\n          add\n          0x00\n          keccak256\n          0x00\n            /* \"ElectronicMedicalRecords.sol\":10824:10848  patient[_address] = true */\n          0x0100\n          exp\n          dup2\n          sload\n          dup2\n          0xff\n          mul\n          not\n          and\n          swap1\n          dup4\n          iszero\n          iszero\n          mul\n          or\n          swap1\n          sstore\n          pop\n            /* \"ElectronicMedicalRecords.sol\":10863:10871  patients */\n          0x01\n            /* \"ElectronicMedicalRecords.sol\":10877:10885  _address */\n          dup2\n            /* \"ElectronicMedicalRecords.sol\":10863:10886  patients.push(_address) */\n          swap1\n          dup1\n          0x01\n          dup2\n          sload\n          add\n          dup1\n          dup3\n          sstore\n          dup1\n          swap2\n          pop\n          pop\n          0x01\n          swap1\n          sub\n          swap1\n          0x00\n          mstore\n          keccak256(0x00, 0x20)\n          add\n          0x00\n          swap1\n          swap2\n          swap1\n          swap2\n          swap1\n          swap2\n          0x0100\n          exp\n          dup2\n          sload\n          dup2\n          0xffffffffffffffffffffffffffffffffffffffff\n          mul\n          not\n          and\n          swap1\n          dup4\n          0xffffffffffffffffffffffffffffffffffffffff\n          and\n          mul\n          or\n          swap1\n          sstore\n          pop\n            /* \"ElectronicMedicalRecords.sol\":10785:10899  if (!patient[_address]) {... */\n        tag_28:\n            /* \"ElectronicMedicalRecords.sol\":10729:10906  function addPatient(address _address) public {... */\n          pop\n          jump\t// out\n            /* \"#utility.yul\":7:121   */\n        tag_30:\n            /* \"#utility.yul\":74:80   */\n          0x00\n            /* \"#utility.yul\":108:113   */\n          dup2\n            /* \"#utility.yul\":102:114   */\n          mload\n            /* \"#utility.yul\":92:114   */\n          swap1\n          pop\n            /* \"#utility.yul\":7:121   */\n          swap2\n          swap1\n          pop\n          jump\t// out\n            /* \"#utility.yul\":127:311   */\n        tag_31:\n            /* \"#utility.yul\":226:237   */\n          0x00\n            /* \"#utility.yul\":260:266   */\n          dup3\n            /* \"#utility.yul\":255:258   */\n          dup3\n            /* \"#utility.yul\":248:267   */\n          mstore\n            /* \"#utility.yul\":300:304   */\n          0x20\n            /* \"#utility.yul\":295:298   */\n          dup3\n            /* \"#utility.yul\":291:305   */\n          add\n            /* \"#utility.yul\":276:305   */\n          swap1\n          pop\n            /* \"#utility.yul\":127:311   */\n          swap3\n          swap2\n          pop\n          pop\n          jump\t// out\n            /* \"#utility.yul\":317:449   */\n        tag_32:\n            /* \"#utility.yul\":384:388   */\n          0x00\n            /* \"#utility.yul\":407:410   */\n          dup2\n            /* \"#utility.yul\":399:410   */\n          swap1\n          pop\n            /* \"#utility.yul\":437:441   */\n          0x20\n            /* \"#utility.yul\":432:435   */\n          dup3\n            /* \"#utility.yul\":428:442   */\n          add\n            /* \"#utility.yul\":420:442   */\n          swap1\n          pop\n            /* \"#utility.yul\":317:449   */\n          swap2\n          swap1\n          pop\n          jump\t// out\n            /* \"#utility.yul\":455:581   */\n        tag_33:\n            /* \"#utility.yul\":492:499   */\n          0x00\n            /* \"#utility.yul\":532:574   */\n          0xffffffffffffffffffffffffffffffffffffffff\n            /* \"#utility.yul\":525:530   */\n          dup3\n            /* \"#utility.yul\":521:575   */\n          and\n            /* \"#utility.yul\":510:575   */\n          swap1\n          pop\n            /* \"#utility.yul\":455:581   */\n          swap2\n          swap1\n          pop\n          jump\t// out\n            /* \"#utility.yul\":587:683   */\n        tag_34:\n            /* \"#utility.yul\":624:631   */\n          0x00\n            /* \"#utility.yul\":653:677   */\n          tag_52\n            /* \"#utility.yul\":671:676   */\n          dup3\n            /* \"#utility.yul\":653:677   */\n          tag_33\n          jump\t// in\n        tag_52:\n            /* \"#utility.yul\":642:677   */\n          swap1\n          pop\n            /* \"#utility.yul\":587:683   */\n          swap2\n          swap1\n          pop\n          jump\t// out\n            /* \"#utility.yul\":689:797   */\n        tag_35:\n            /* \"#utility.yul\":766:790   */\n          tag_54\n            /* \"#utility.yul\":784:789   */\n          dup2\n            /* \"#utility.yul\":766:790   */\n          tag_34\n          jump\t// in\n        tag_54:\n            /* \"#utility.yul\":761:764   */\n          dup3\n            /* \"#utility.yul\":754:791   */\n          mstore\n            /* \"#utility.yul\":689:797   */\n          pop\n          pop\n          jump\t// out\n            /* \"#utility.yul\":803:982   */\n        tag_36:\n            /* \"#utility.yul\":872:882   */\n          0x00\n            /* \"#utility.yul\":893:939   */\n          tag_56\n            /* \"#utility.yul\":935:938   */\n          dup4\n            /* \"#utility.yul\":927:933   */\n          dup4\n            /* \"#utility.yul\":893:939   */\n          tag_35\n          jump\t// in\n        tag_56:\n            /* \"#utility.yul\":971:975   */\n          0x20\n            /* \"#utility.yul\":966:969   */\n          dup4\n            /* \"#utility.yul\":962:976   */\n          add\n            /* \"#utility.yul\":948:976   */\n          swap1\n          pop\n            /* \"#utility.yul\":803:982   */\n          swap3\n          swap2\n          pop\n          pop\n          jump\t// out\n            /* \"#utility.yul\":988:1101   */\n        tag_37:\n            /* \"#utility.yul\":1058:1062   */\n          0x00\n            /* \"#utility.yul\":1090:1094   */\n          0x20\n            /* \"#utility.yul\":1085:1088   */\n          dup3\n            /* \"#utility.yul\":1081:1095   */\n          add\n            /* \"#utility.yul\":1073:1095   */\n          swap1\n          pop\n            /* \"#utility.yul\":988:1101   */\n          swap2\n          swap1\n          pop\n          jump\t// out\n            /* \"#utility.yul\":1137:1869   */\n        tag_38:\n            /* \"#utility.yul\":1256:1259   */\n          0x00\n            /* \"#utility.yul\":1285:1339   */\n          tag_59\n            /* \"#utility.yul\":1333:1338   */\n          dup3\n            /* \"#utility.yul\":1285:1339   */\n          tag_30\n          jump\t// in\n        tag_59:\n            /* \"#utility.yul\":1355:1441   */\n          tag_60\n            /* \"#utility.yul\":1434:1440   */\n          dup2\n            /* \"#utility.yul\":1429:1432   */\n          dup6\n            /* \"#utility.yul\":1355:1441   */\n          tag_31\n          jump\t// in\n        tag_60:\n            /* \"#utility.yul\":1348:1441   */\n          swap4\n          pop\n            /* \"#utility.yul\":1465:1521   */\n          tag_61\n            /* \"#utility.yul\":1515:1520   */\n          dup4\n            /* \"#utility.yul\":1465:1521   */\n          tag_32\n          jump\t// in\n        tag_61:\n            /* \"#utility.yul\":1544:1551   */\n          dup1\n            /* \"#utility.yul\":1575:1576   */\n          0x00\n            /* \"#utility.yul\":1560:1844   */\n        tag_62:\n            /* \"#utility.yul\":1585:1591   */\n          dup4\n            /* \"#utility.yul\":1582:1583   */\n          dup2\n            /* \"#utility.yul\":1579:1592   */\n          lt\n            /* \"#utility.yul\":1560:1844   */\n          iszero\n          tag_64\n          jumpi\n            /* \"#utility.yul\":1661:1667   */\n          dup2\n            /* \"#utility.yul\":1655:1668   */\n          mload\n            /* \"#utility.yul\":1688:1751   */\n          tag_65\n            /* \"#utility.yul\":1747:1750   */\n          dup9\n            /* \"#utility.yul\":1732:1745   */\n          dup3\n            /* \"#utility.yul\":1688:1751   */\n          tag_36\n          jump\t// in\n        tag_65:\n            /* \"#utility.yul\":1681:1751   */\n          swap8\n          pop\n            /* \"#utility.yul\":1774:1834   */\n          tag_66\n            /* \"#utility.yul\":1827:1833   */\n          dup4\n            /* \"#utility.yul\":1774:1834   */\n          tag_37\n          jump\t// in\n        tag_66:\n            /* \"#utility.yul\":1764:1834   */\n          swap3\n          pop\n            /* \"#utility.yul\":1620:1844   */\n          pop\n            /* \"#utility.yul\":1607:1608   */\n          0x01\n            /* \"#utility.yul\":1604:1605   */\n          dup2\n            /* \"#utility.yul\":1600:1609   */\n          add\n            /* \"#utility.yul\":1595:1609   */\n          swap1\n          pop\n            /* \"#utility.yul\":1560:1844   */\n          jump(tag_62)\n        tag_64:\n            /* \"#utility.yul\":1564:1578   */\n          pop\n            /* \"#utility.yul\":1860:1863   */\n          dup6\n            /* \"#utility.yul\":1853:1863   */\n          swap4\n          pop\n            /* \"#utility.yul\":1261:1869   */\n          pop\n          pop\n          pop\n            /* \"#utility.yul\":1137:1869   */\n          swap3\n          swap2\n          pop\n          pop\n          jump\t// out\n            /* \"#utility.yul\":1875:2248   */\n        tag_9:\n            /* \"#utility.yul\":2018:2022   */\n          0x00\n            /* \"#utility.yul\":2056:2058   */\n          0x20\n            /* \"#utility.yul\":2045:2054   */\n          dup3\n            /* \"#utility.yul\":2041:2059   */\n          add\n            /* \"#utility.yul\":2033:2059   */\n          swap1\n          pop\n            /* \"#utility.yul\":2105:2114   */\n          dup2\n            /* \"#utility.yul\":2099:2103   */\n          dup2\n            /* \"#utility.yul\":2095:2115   */\n          sub\n            /* \"#utility.yul\":2091:2092   */\n          0x00\n            /* \"#utility.yul\":2080:2089   */\n          dup4\n            /* \"#utility.yul\":2076:2093   */\n          add\n            /* \"#utility.yul\":2069:2116   */\n          mstore\n            /* \"#utility.yul\":2133:2241   */\n          tag_68\n            /* \"#utility.yul\":2236:2240   */\n          dup2\n            /* \"#utility.yul\":2227:2233   */\n          dup5\n            /* \"#utility.yul\":2133:2241   */\n          tag_38\n          jump\t// in\n        tag_68:\n            /* \"#utility.yul\":2125:2241   */\n          swap1\n          pop\n            /* \"#utility.yul\":1875:2248   */\n          swap3\n          swap2\n          pop\n          pop\n          jump\t// out\n            /* \"#utility.yul\":2335:2452   */\n        tag_40:\n            /* \"#utility.yul\":2444:2445   */\n          0x00\n            /* \"#utility.yul\":2441:2442   */\n          dup1\n            /* \"#utility.yul\":2434:2446   */\n          revert\n            /* \"#utility.yul\":2581:2703   */\n        tag_42:\n            /* \"#utility.yul\":2654:2678   */\n          tag_73\n            /* \"#utility.yul\":2672:2677   */\n          dup2\n            /* \"#utility.yul\":2654:2678   */\n          tag_34\n          jump\t// in\n        tag_73:\n            /* \"#utility.yul\":2647:2652   */\n          dup2\n            /* \"#utility.yul\":2644:2679   */\n          eq\n            /* \"#utility.yul\":2634:2697   */\n          tag_74\n          jumpi\n            /* \"#utility.yul\":2693:2694   */\n          0x00\n            /* \"#utility.yul\":2690:2691   */\n          dup1\n            /* \"#utility.yul\":2683:2695   */\n          revert\n            /* \"#utility.yul\":2634:2697   */\n        tag_74:\n            /* \"#utility.yul\":2581:2703   */\n          pop\n          jump\t// out\n            /* \"#utility.yul\":2709:2848   */\n        tag_43:\n            /* \"#utility.yul\":2755:2760   */\n          0x00\n            /* \"#utility.yul\":2793:2799   */\n          dup2\n            /* \"#utility.yul\":2780:2800   */\n          calldataload\n            /* \"#utility.yul\":2771:2800   */\n          swap1\n          pop\n            /* \"#utility.yul\":2809:2842   */\n          tag_76\n            /* \"#utility.yul\":2836:2841   */\n          dup2\n            /* \"#utility.yul\":2809:2842   */\n          tag_42\n          jump\t// in\n        tag_76:\n            /* \"#utility.yul\":2709:2848   */\n          swap3\n          swap2\n          pop\n          pop\n          jump\t// out\n            /* \"#utility.yul\":2854:3183   */\n        tag_12:\n            /* \"#utility.yul\":2913:2919   */\n          0x00\n            /* \"#utility.yul\":2962:2964   */\n          0x20\n            /* \"#utility.yul\":2950:2959   */\n          dup3\n            /* \"#utility.yul\":2941:2948   */\n          dup5\n            /* \"#utility.yul\":2937:2960   */\n          sub\n            /* \"#utility.yul\":2933:2965   */\n          slt\n            /* \"#utility.yul\":2930:3049   */\n          iszero\n          tag_78\n          jumpi\n            /* \"#utility.yul\":2968:3047   */\n          tag_79\n          tag_40\n          jump\t// in\n        tag_79:\n            /* \"#utility.yul\":2930:3049   */\n        tag_78:\n            /* \"#utility.yul\":3088:3089   */\n          0x00\n            /* \"#utility.yul\":3113:3166   */\n          tag_80\n            /* \"#utility.yul\":3158:3165   */\n          dup5\n            /* \"#utility.yul\":3149:3155   */\n          dup3\n            /* \"#utility.yul\":3138:3147   */\n          dup6\n            /* \"#utility.yul\":3134:3156   */\n          add\n            /* \"#utility.yul\":3113:3166   */\n          tag_43\n          jump\t// in\n        tag_80:\n            /* \"#utility.yul\":3103:3166   */\n          swap2\n          pop\n            /* \"#utility.yul\":3059:3176   */\n          pop\n            /* \"#utility.yul\":2854:3183   */\n          swap3\n          swap2\n          pop\n          pop\n          jump\t// out\n            /* \"#utility.yul\":3189:3279   */\n        tag_44:\n            /* \"#utility.yul\":3223:3230   */\n          0x00\n            /* \"#utility.yul\":3266:3271   */\n          dup2\n            /* \"#utility.yul\":3259:3272   */\n          iszero\n            /* \"#utility.yul\":3252:3273   */\n          iszero\n            /* \"#utility.yul\":3241:3273   */\n          swap1\n          pop\n            /* \"#utility.yul\":3189:3279   */\n          swap2\n          swap1\n          pop\n          jump\t// out\n            /* \"#utility.yul\":3285:3394   */\n        tag_45:\n            /* \"#utility.yul\":3366:3387   */\n          tag_83\n            /* \"#utility.yul\":3381:3386   */\n          dup2\n            /* \"#utility.yul\":3366:3387   */\n          tag_44\n          jump\t// in\n        tag_83:\n            /* \"#utility.yul\":3361:3364   */\n          dup3\n            /* \"#utility.yul\":3354:3388   */\n          mstore\n            /* \"#utility.yul\":3285:3394   */\n          pop\n          pop\n          jump\t// out\n            /* \"#utility.yul\":3400:3610   */\n        tag_15:\n            /* \"#utility.yul\":3487:3491   */\n          0x00\n            /* \"#utility.yul\":3525:3527   */\n          0x20\n            /* \"#utility.yul\":3514:3523   */\n          dup3\n            /* \"#utility.yul\":3510:3528   */\n          add\n            /* \"#utility.yul\":3502:3528   */\n          swap1\n          pop\n            /* \"#utility.yul\":3538:3603   */\n          tag_85\n            /* \"#utility.yul\":3600:3601   */\n          0x00\n            /* \"#utility.yul\":3589:3598   */\n          dup4\n            /* \"#utility.yul\":3585:3602   */\n          add\n            /* \"#utility.yul\":3576:3582   */\n          dup5\n            /* \"#utility.yul\":3538:3603   */\n          tag_45\n          jump\t// in\n        tag_85:\n            /* \"#utility.yul\":3400:3610   */\n          swap3\n          swap2\n          pop\n          pop\n          jump\t// out\n\n        auxdata: 0xa264697066735822122094f08605b22000083014a0aace4c13087c2d46b65d382d6d0704996eb20abfbd64736f6c63430008110033\n    }\n}\n\nsub_3: assembly {\n        /* \"ElectronicMedicalRecords.sol\":11323:12136  contract DoctorVerificator {... */\n      mstore(0x40, 0x80)\n        /* \"ElectronicMedicalRecords.sol\":11479:11540  constructor(address _admin) {... */\n      callvalue\n      dup1\n      iszero\n      tag_1\n      jumpi\n      0x00\n      dup1\n      revert\n    tag_1:\n      pop\n      mload(0x40)\n      sub(codesize, bytecodeSize)\n      dup1\n      bytecodeSize\n      dup4\n      codecopy\n      dup2\n      dup2\n      add\n      0x40\n      mstore\n      dup2\n      add\n      swap1\n      tag_2\n      swap2\n      swap1\n      tag_3\n      jump\t// in\n    tag_2:\n        /* \"ElectronicMedicalRecords.sol\":11526:11532  _admin */\n      dup1\n        /* \"ElectronicMedicalRecords.sol\":11518:11523  admin */\n      0x00\n      dup1\n        /* \"ElectronicMedicalRecords.sol\":11518:11532  admin = _admin */\n      0x0100\n      exp\n      dup2\n      sload\n      dup2\n      0xffffffffffffffffffffffffffffffffffffffff\n      mul\n      not\n      and\n      swap1\n      dup4\n      0xffffffffffffffffffffffffffffffffffffffff\n      and\n      mul\n      or\n      swap1\n      sstore\n      pop\n        /* \"ElectronicMedicalRecords.sol\":11479:11540  constructor(address _admin) {... */\n      pop\n        /* \"ElectronicMedicalRecords.sol\":11323:12136  contract DoctorVerificator {... */\n      jump(tag_6)\n        /* \"#utility.yul\":88:205   */\n    tag_8:\n        /* \"#utility.yul\":197:198   */\n      0x00\n        /* \"#utility.yul\":194:195   */\n      dup1\n        /* \"#utility.yul\":187:199   */\n      revert\n        /* \"#utility.yul\":334:460   */\n    tag_10:\n        /* \"#utility.yul\":371:378   */\n      0x00\n        /* \"#utility.yul\":411:453   */\n      0xffffffffffffffffffffffffffffffffffffffff\n        /* \"#utility.yul\":404:409   */\n      dup3\n        /* \"#utility.yul\":400:454   */\n      and\n        /* \"#utility.yul\":389:454   */\n      swap1\n      pop\n        /* \"#utility.yul\":334:460   */\n      swap2\n      swap1\n      pop\n      jump\t// out\n        /* \"#utility.yul\":466:562   */\n    tag_11:\n        /* \"#utility.yul\":503:510   */\n      0x00\n        /* \"#utility.yul\":532:556   */\n      tag_20\n        /* \"#utility.yul\":550:555   */\n      dup3\n        /* \"#utility.yul\":532:556   */\n      tag_10\n      jump\t// in\n    tag_20:\n        /* \"#utility.yul\":521:556   */\n      swap1\n      pop\n        /* \"#utility.yul\":466:562   */\n      swap2\n      swap1\n      pop\n      jump\t// out\n        /* \"#utility.yul\":568:690   */\n    tag_12:\n        /* \"#utility.yul\":641:665   */\n      tag_22\n        /* \"#utility.yul\":659:664   */\n      dup2\n        /* \"#utility.yul\":641:665   */\n      tag_11\n      jump\t// in\n    tag_22:\n        /* \"#utility.yul\":634:639   */\n      dup2\n        /* \"#utility.yul\":631:666   */\n      eq\n        /* \"#utility.yul\":621:684   */\n      tag_23\n      jumpi\n        /* \"#utility.yul\":680:681   */\n      0x00\n        /* \"#utility.yul\":677:678   */\n      dup1\n        /* \"#utility.yul\":670:682   */\n      revert\n        /* \"#utility.yul\":621:684   */\n    tag_23:\n        /* \"#utility.yul\":568:690   */\n      pop\n      jump\t// out\n        /* \"#utility.yul\":696:839   */\n    tag_13:\n        /* \"#utility.yul\":753:758   */\n      0x00\n        /* \"#utility.yul\":784:790   */\n      dup2\n        /* \"#utility.yul\":778:791   */\n      mload\n        /* \"#utility.yul\":769:791   */\n      swap1\n      pop\n        /* \"#utility.yul\":800:833   */\n      tag_25\n        /* \"#utility.yul\":827:832   */\n      dup2\n        /* \"#utility.yul\":800:833   */\n      tag_12\n      jump\t// in\n    tag_25:\n        /* \"#utility.yul\":696:839   */\n      swap3\n      swap2\n      pop\n      pop\n      jump\t// out\n        /* \"#utility.yul\":845:1196   */\n    tag_3:\n        /* \"#utility.yul\":915:921   */\n      0x00\n        /* \"#utility.yul\":964:966   */\n      0x20\n        /* \"#utility.yul\":952:961   */\n      dup3\n        /* \"#utility.yul\":943:950   */\n      dup5\n        /* \"#utility.yul\":939:962   */\n      sub\n        /* \"#utility.yul\":935:967   */\n      slt\n        /* \"#utility.yul\":932:1051   */\n      iszero\n      tag_27\n      jumpi\n        /* \"#utility.yul\":970:1049   */\n      tag_28\n      tag_8\n      jump\t// in\n    tag_28:\n        /* \"#utility.yul\":932:1051   */\n    tag_27:\n        /* \"#utility.yul\":1090:1091   */\n      0x00\n        /* \"#utility.yul\":1115:1179   */\n      tag_29\n        /* \"#utility.yul\":1171:1178   */\n      dup5\n        /* \"#utility.yul\":1162:1168   */\n      dup3\n        /* \"#utility.yul\":1151:1160   */\n      dup6\n        /* \"#utility.yul\":1147:1169   */\n      add\n        /* \"#utility.yul\":1115:1179   */\n      tag_13\n      jump\t// in\n    tag_29:\n        /* \"#utility.yul\":1105:1179   */\n      swap2\n      pop\n        /* \"#utility.yul\":1061:1189   */\n      pop\n        /* \"#utility.yul\":845:1196   */\n      swap3\n      swap2\n      pop\n      pop\n      jump\t// out\n        /* \"ElectronicMedicalRecords.sol\":11323:12136  contract DoctorVerificator {... */\n    tag_6:\n      dataSize(sub_0)\n      dup1\n      dataOffset(sub_0)\n      0x00\n      codecopy\n      0x00\n      return\n    stop\n\n    sub_0: assembly {\n            /* \"ElectronicMedicalRecords.sol\":11323:12136  contract DoctorVerificator {... */\n          mstore(0x40, 0x80)\n          callvalue\n          dup1\n          iszero\n          tag_1\n          jumpi\n          0x00\n          dup1\n          revert\n        tag_1:\n          pop\n          jumpi(tag_2, lt(calldatasize, 0x04))\n          shr(0xe0, calldataload(0x00))\n          dup1\n          0x4780468f\n          eq\n          tag_3\n          jumpi\n          dup1\n          0x63a9c3d7\n          eq\n          tag_4\n          jumpi\n          dup1\n          0xf0d95090\n          eq\n          tag_5\n          jumpi\n        tag_2:\n          0x00\n          dup1\n          revert\n            /* \"ElectronicMedicalRecords.sol\":11548:11726  function addDoctor(address _address) onlyAdmin public {... */\n        tag_3:\n          tag_6\n          0x04\n          dup1\n          calldatasize\n          sub\n          dup2\n          add\n          swap1\n          tag_7\n          swap2\n          swap1\n          tag_8\n          jump\t// in\n        tag_7:\n          tag_9\n          jump\t// in\n        tag_6:\n          stop\n            /* \"ElectronicMedicalRecords.sol\":11734:11922  function verify(address _address) public view returns(bool _bool) {... */\n        tag_4:\n          tag_10\n          0x04\n          dup1\n          calldatasize\n          sub\n          dup2\n          add\n          swap1\n          tag_11\n          swap2\n          swap1\n          tag_8\n          jump\t// in\n        tag_11:\n          tag_12\n          jump\t// in\n        tag_10:\n          mload(0x40)\n          tag_13\n          swap2\n          swap1\n          tag_14\n          jump\t// in\n        tag_13:\n          mload(0x40)\n          dup1\n          swap2\n          sub\n          swap1\n          return\n            /* \"ElectronicMedicalRecords.sol\":11930:12045  function getAllDoctors() onlyAdmin public view returns(address[] memory _address) {... */\n        tag_5:\n          tag_15\n          tag_16\n          jump\t// in\n        tag_15:\n          mload(0x40)\n          tag_17\n          swap2\n          swap1\n          tag_18\n          jump\t// in\n        tag_17:\n          mload(0x40)\n          dup1\n          swap2\n          sub\n          swap1\n          return\n            /* \"ElectronicMedicalRecords.sol\":11548:11726  function addDoctor(address _address) onlyAdmin public {... */\n        tag_9:\n            /* \"ElectronicMedicalRecords.sol\":12107:12112  admin */\n          0x00\n          dup1\n          sload\n          swap1\n          0x0100\n          exp\n          swap1\n          div\n          0xffffffffffffffffffffffffffffffffffffffff\n          and\n            /* \"ElectronicMedicalRecords.sol\":12093:12112  msg.sender == admin */\n          0xffffffffffffffffffffffffffffffffffffffff\n          and\n            /* \"ElectronicMedicalRecords.sol\":12093:12103  msg.sender */\n          caller\n            /* \"ElectronicMedicalRecords.sol\":12093:12112  msg.sender == admin */\n          0xffffffffffffffffffffffffffffffffffffffff\n          and\n          eq\n            /* \"ElectronicMedicalRecords.sol\":12085:12113  require(msg.sender == admin) */\n          tag_20\n          jumpi\n          0x00\n          dup1\n          revert\n        tag_20:\n            /* \"ElectronicMedicalRecords.sol\":11622:11628  doctor */\n          0x02\n            /* \"ElectronicMedicalRecords.sol\":11622:11638  doctor[_address] */\n          0x00\n            /* \"ElectronicMedicalRecords.sol\":11629:11637  _address */\n          dup3\n            /* \"ElectronicMedicalRecords.sol\":11622:11638  doctor[_address] */\n          0xffffffffffffffffffffffffffffffffffffffff\n          and\n          0xffffffffffffffffffffffffffffffffffffffff\n          and\n          dup2\n          mstore\n          0x20\n          add\n          swap1\n          dup2\n          mstore\n          0x20\n          add\n          0x00\n          keccak256\n          0x00\n          swap1\n          sload\n          swap1\n          0x0100\n          exp\n          swap1\n          div\n          0xff\n          and\n            /* \"ElectronicMedicalRecords.sol\":11621:11638  !doctor[_address] */\n          iszero\n            /* \"ElectronicMedicalRecords.sol\":11613:11639  require(!doctor[_address]) */\n          tag_22\n          jumpi\n          0x00\n          dup1\n          revert\n        tag_22:\n            /* \"ElectronicMedicalRecords.sol\":11675:11679  true */\n          0x01\n            /* \"ElectronicMedicalRecords.sol\":11656:11662  doctor */\n          0x02\n            /* \"ElectronicMedicalRecords.sol\":11656:11672  doctor[_address] */\n          0x00\n            /* \"ElectronicMedicalRecords.sol\":11663:11671  _address */\n          dup4\n            /* \"ElectronicMedicalRecords.sol\":11656:11672  doctor[_address] */\n          0xffffffffffffffffffffffffffffffffffffffff\n          and\n          0xffffffffffffffffffffffffffffffffffffffff\n          and\n          dup2\n          mstore\n          0x20\n          add\n          swap1\n          dup2\n          mstore\n          0x20\n          add\n          0x00\n          keccak256\n          0x00\n            /* \"ElectronicMedicalRecords.sol\":11656:11679  doctor[_address] = true */\n          0x0100\n          exp\n          dup2\n          sload\n          dup2\n          0xff\n          mul\n          not\n          and\n          swap1\n          dup4\n          iszero\n          iszero\n          mul\n          or\n          swap1\n          sstore\n          pop\n            /* \"ElectronicMedicalRecords.sol\":11690:11697  doctors */\n          0x01\n            /* \"ElectronicMedicalRecords.sol\":11703:11711  _address */\n          dup2\n            /* \"ElectronicMedicalRecords.sol\":11690:11712  doctors.push(_address) */\n          swap1\n          dup1\n          0x01\n          dup2\n          sload\n          add\n          dup1\n          dup3\n          sstore\n          dup1\n          swap2\n          pop\n          pop\n          0x01\n          swap1\n          sub\n          swap1\n          0x00\n          mstore\n          keccak256(0x00, 0x20)\n          add\n          0x00\n          swap1\n          swap2\n          swap1\n          swap2\n          swap1\n          swap2\n          0x0100\n          exp\n          dup2\n          sload\n          dup2\n          0xffffffffffffffffffffffffffffffffffffffff\n          mul\n          not\n          and\n          swap1\n          dup4\n          0xffffffffffffffffffffffffffffffffffffffff\n          and\n          mul\n          or\n          swap1\n          sstore\n          pop\n            /* \"ElectronicMedicalRecords.sol\":11548:11726  function addDoctor(address _address) onlyAdmin public {... */\n          pop\n          jump\t// out\n            /* \"ElectronicMedicalRecords.sol\":11734:11922  function verify(address _address) public view returns(bool _bool) {... */\n        tag_12:\n            /* \"ElectronicMedicalRecords.sol\":11788:11798  bool _bool */\n          0x00\n            /* \"ElectronicMedicalRecords.sol\":11814:11820  doctor */\n          0x02\n            /* \"ElectronicMedicalRecords.sol\":11814:11830  doctor[_address] */\n          0x00\n            /* \"ElectronicMedicalRecords.sol\":11821:11829  _address */\n          dup4\n            /* \"ElectronicMedicalRecords.sol\":11814:11830  doctor[_address] */\n          0xffffffffffffffffffffffffffffffffffffffff\n          and\n          0xffffffffffffffffffffffffffffffffffffffff\n          and\n          dup2\n          mstore\n          0x20\n          add\n          swap1\n          dup2\n          mstore\n          0x20\n          add\n          0x00\n          keccak256\n          0x00\n          swap1\n          sload\n          swap1\n          0x0100\n          exp\n          swap1\n          div\n          0xff\n          and\n            /* \"ElectronicMedicalRecords.sol\":11811:11915  if(doctor[_address]) {... */\n          iszero\n          tag_25\n          jumpi\n            /* \"ElectronicMedicalRecords.sol\":11854:11858  true */\n          0x01\n            /* \"ElectronicMedicalRecords.sol\":11847:11858  return true */\n          swap1\n          pop\n          jump(tag_24)\n            /* \"ElectronicMedicalRecords.sol\":11811:11915  if(doctor[_address]) {... */\n        tag_25:\n            /* \"ElectronicMedicalRecords.sol\":11898:11903  false */\n          0x00\n            /* \"ElectronicMedicalRecords.sol\":11891:11903  return false */\n          swap1\n          pop\n            /* \"ElectronicMedicalRecords.sol\":11734:11922  function verify(address _address) public view returns(bool _bool) {... */\n        tag_24:\n          swap2\n          swap1\n          pop\n          jump\t// out\n            /* \"ElectronicMedicalRecords.sol\":11930:12045  function getAllDoctors() onlyAdmin public view returns(address[] memory _address) {... */\n        tag_16:\n            /* \"ElectronicMedicalRecords.sol\":11985:12010  address[] memory _address */\n          0x60\n            /* \"ElectronicMedicalRecords.sol\":12107:12112  admin */\n          0x00\n          dup1\n          sload\n          swap1\n          0x0100\n          exp\n          swap1\n          div\n          0xffffffffffffffffffffffffffffffffffffffff\n          and\n            /* \"ElectronicMedicalRecords.sol\":12093:12112  msg.sender == admin */\n          0xffffffffffffffffffffffffffffffffffffffff\n          and\n            /* \"ElectronicMedicalRecords.sol\":12093:12103  msg.sender */\n          caller\n            /* \"ElectronicMedicalRecords.sol\":12093:12112  msg.sender == admin */\n          0xffffffffffffffffffffffffffffffffffffffff\n          and\n          eq\n            /* \"ElectronicMedicalRecords.sol\":12085:12113  require(msg.sender == admin) */\n          tag_28\n          jumpi\n          0x00\n          dup1\n          revert\n        tag_28:\n            /* \"ElectronicMedicalRecords.sol\":12030:12037  doctors */\n          0x01\n            /* \"ElectronicMedicalRecords.sol\":12023:12037  return doctors */\n          dup1\n          sload\n          dup1\n          0x20\n          mul\n          0x20\n          add\n          mload(0x40)\n          swap1\n          dup2\n          add\n          0x40\n          mstore\n          dup1\n          swap3\n          swap2\n          swap1\n          dup2\n          dup2\n          mstore\n          0x20\n          add\n          dup3\n          dup1\n          sload\n          dup1\n          iszero\n          tag_30\n          jumpi\n          0x20\n          mul\n          dup3\n          add\n          swap2\n          swap1\n          0x00\n          mstore\n          keccak256(0x00, 0x20)\n          swap1\n        tag_31:\n          dup2\n          0x00\n          swap1\n          sload\n          swap1\n          0x0100\n          exp\n          swap1\n          div\n          0xffffffffffffffffffffffffffffffffffffffff\n          and\n          0xffffffffffffffffffffffffffffffffffffffff\n          and\n          dup2\n          mstore\n          0x20\n          add\n          swap1\n          0x01\n          add\n          swap1\n          dup1\n          dup4\n          gt\n          tag_31\n          jumpi\n        tag_30:\n          pop\n          pop\n          pop\n          pop\n          pop\n          swap1\n          pop\n            /* \"ElectronicMedicalRecords.sol\":11930:12045  function getAllDoctors() onlyAdmin public view returns(address[] memory _address) {... */\n          swap1\n          jump\t// out\n            /* \"#utility.yul\":88:205   */\n        tag_33:\n            /* \"#utility.yul\":197:198   */\n          0x00\n            /* \"#utility.yul\":194:195   */\n          dup1\n            /* \"#utility.yul\":187:199   */\n          revert\n            /* \"#utility.yul\":334:460   */\n        tag_35:\n            /* \"#utility.yul\":371:378   */\n          0x00\n            /* \"#utility.yul\":411:453   */\n          0xffffffffffffffffffffffffffffffffffffffff\n            /* \"#utility.yul\":404:409   */\n          dup3\n            /* \"#utility.yul\":400:454   */\n          and\n            /* \"#utility.yul\":389:454   */\n          swap1\n          pop\n            /* \"#utility.yul\":334:460   */\n          swap2\n          swap1\n          pop\n          jump\t// out\n            /* \"#utility.yul\":466:562   */\n        tag_36:\n            /* \"#utility.yul\":503:510   */\n          0x00\n            /* \"#utility.yul\":532:556   */\n          tag_54\n            /* \"#utility.yul\":550:555   */\n          dup3\n            /* \"#utility.yul\":532:556   */\n          tag_35\n          jump\t// in\n        tag_54:\n            /* \"#utility.yul\":521:556   */\n          swap1\n          pop\n            /* \"#utility.yul\":466:562   */\n          swap2\n          swap1\n          pop\n          jump\t// out\n            /* \"#utility.yul\":568:690   */\n        tag_37:\n            /* \"#utility.yul\":641:665   */\n          tag_56\n            /* \"#utility.yul\":659:664   */\n          dup2\n            /* \"#utility.yul\":641:665   */\n          tag_36\n          jump\t// in\n        tag_56:\n            /* \"#utility.yul\":634:639   */\n          dup2\n            /* \"#utility.yul\":631:666   */\n          eq\n            /* \"#utility.yul\":621:684   */\n          tag_57\n          jumpi\n            /* \"#utility.yul\":680:681   */\n          0x00\n            /* \"#utility.yul\":677:678   */\n          dup1\n            /* \"#utility.yul\":670:682   */\n          revert\n            /* \"#utility.yul\":621:684   */\n        tag_57:\n            /* \"#utility.yul\":568:690   */\n          pop\n          jump\t// out\n            /* \"#utility.yul\":696:835   */\n        tag_38:\n            /* \"#utility.yul\":742:747   */\n          0x00\n            /* \"#utility.yul\":780:786   */\n          dup2\n            /* \"#utility.yul\":767:787   */\n          calldataload\n            /* \"#utility.yul\":758:787   */\n          swap1\n          pop\n            /* \"#utility.yul\":796:829   */\n          tag_59\n            /* \"#utility.yul\":823:828   */\n          dup2\n            /* \"#utility.yul\":796:829   */\n          tag_37\n          jump\t// in\n        tag_59:\n            /* \"#utility.yul\":696:835   */\n          swap3\n          swap2\n          pop\n          pop\n          jump\t// out\n            /* \"#utility.yul\":841:1170   */\n        tag_8:\n            /* \"#utility.yul\":900:906   */\n          0x00\n            /* \"#utility.yul\":949:951   */\n          0x20\n            /* \"#utility.yul\":937:946   */\n          dup3\n            /* \"#utility.yul\":928:935   */\n          dup5\n            /* \"#utility.yul\":924:947   */\n          sub\n            /* \"#utility.yul\":920:952   */\n          slt\n            /* \"#utility.yul\":917:1036   */\n          iszero\n          tag_61\n          jumpi\n            /* \"#utility.yul\":955:1034   */\n          tag_62\n          tag_33\n          jump\t// in\n        tag_62:\n            /* \"#utility.yul\":917:1036   */\n        tag_61:\n            /* \"#utility.yul\":1075:1076   */\n          0x00\n            /* \"#utility.yul\":1100:1153   */\n          tag_63\n            /* \"#utility.yul\":1145:1152   */\n          dup5\n            /* \"#utility.yul\":1136:1142   */\n          dup3\n            /* \"#utility.yul\":1125:1134   */\n          dup6\n            /* \"#utility.yul\":1121:1143   */\n          add\n            /* \"#utility.yul\":1100:1153   */\n          tag_38\n          jump\t// in\n        tag_63:\n            /* \"#utility.yul\":1090:1153   */\n          swap2\n          pop\n            /* \"#utility.yul\":1046:1163   */\n          pop\n            /* \"#utility.yul\":841:1170   */\n          swap3\n          swap2\n          pop\n          pop\n          jump\t// out\n            /* \"#utility.yul\":1176:1266   */\n        tag_39:\n            /* \"#utility.yul\":1210:1217   */\n          0x00\n            /* \"#utility.yul\":1253:1258   */\n          dup2\n            /* \"#utility.yul\":1246:1259   */\n          iszero\n            /* \"#utility.yul\":1239:1260   */\n          iszero\n            /* \"#utility.yul\":1228:1260   */\n          swap1\n          pop\n            /* \"#utility.yul\":1176:1266   */\n          swap2\n          swap1\n          pop\n          jump\t// out\n            /* \"#utility.yul\":1272:1381   */\n        tag_40:\n            /* \"#utility.yul\":1353:1374   */\n          tag_66\n            /* \"#utility.yul\":1368:1373   */\n          dup2\n            /* \"#utility.yul\":1353:1374   */\n          tag_39\n          jump\t// in\n        tag_66:\n            /* \"#utility.yul\":1348:1351   */\n          dup3\n            /* \"#utility.yul\":1341:1375   */\n          mstore\n            /* \"#utility.yul\":1272:1381   */\n          pop\n          pop\n          jump\t// out\n            /* \"#utility.yul\":1387:1597   */\n        tag_14:\n            /* \"#utility.yul\":1474:1478   */\n          0x00\n            /* \"#utility.yul\":1512:1514   */\n          0x20\n            /* \"#utility.yul\":1501:1510   */\n          dup3\n            /* \"#utility.yul\":1497:1515   */\n          add\n            /* \"#utility.yul\":1489:1515   */\n          swap1\n          pop\n            /* \"#utility.yul\":1525:1590   */\n          tag_68\n            /* \"#utility.yul\":1587:1588   */\n          0x00\n            /* \"#utility.yul\":1576:1585   */\n          dup4\n            /* \"#utility.yul\":1572:1589   */\n          add\n            /* \"#utility.yul\":1563:1569   */\n          dup5\n            /* \"#utility.yul\":1525:1590   */\n          tag_40\n          jump\t// in\n        tag_68:\n            /* \"#utility.yul\":1387:1597   */\n          swap3\n          swap2\n          pop\n          pop\n          jump\t// out\n            /* \"#utility.yul\":1603:1717   */\n        tag_41:\n            /* \"#utility.yul\":1670:1676   */\n          0x00\n            /* \"#utility.yul\":1704:1709   */\n          dup2\n            /* \"#utility.yul\":1698:1710   */\n          mload\n            /* \"#utility.yul\":1688:1710   */\n          swap1\n          pop\n            /* \"#utility.yul\":1603:1717   */\n          swap2\n          swap1\n          pop\n          jump\t// out\n            /* \"#utility.yul\":1723:1907   */\n        tag_42:\n            /* \"#utility.yul\":1822:1833   */\n          0x00\n            /* \"#utility.yul\":1856:1862   */\n          dup3\n            /* \"#utility.yul\":1851:1854   */\n          dup3\n            /* \"#utility.yul\":1844:1863   */\n          mstore\n            /* \"#utility.yul\":1896:1900   */\n          0x20\n            /* \"#utility.yul\":1891:1894   */\n          dup3\n            /* \"#utility.yul\":1887:1901   */\n          add\n            /* \"#utility.yul\":1872:1901   */\n          swap1\n          pop\n            /* \"#utility.yul\":1723:1907   */\n          swap3\n          swap2\n          pop\n          pop\n          jump\t// out\n            /* \"#utility.yul\":1913:2045   */\n        tag_43:\n            /* \"#utility.yul\":1980:1984   */\n          0x00\n            /* \"#utility.yul\":2003:2006   */\n          dup2\n            /* \"#utility.yul\":1995:2006   */\n          swap1\n          pop\n            /* \"#utility.yul\":2033:2037   */\n          0x20\n            /* \"#utility.yul\":2028:2031   */\n          dup3\n            /* \"#utility.yul\":2024:2038   */\n          add\n            /* \"#utility.yul\":2016:2038   */\n          swap1\n          pop\n            /* \"#utility.yul\":1913:2045   */\n          swap2\n          swap1\n          pop\n          jump\t// out\n            /* \"#utility.yul\":2051:2159   */\n        tag_44:\n            /* \"#utility.yul\":2128:2152   */\n          tag_73\n            /* \"#utility.yul\":2146:2151   */\n          dup2\n            /* \"#utility.yul\":2128:2152   */\n          tag_36\n          jump\t// in\n        tag_73:\n            /* \"#utility.yul\":2123:2126   */\n          dup3\n            /* \"#utility.yul\":2116:2153   */\n          mstore\n            /* \"#utility.yul\":2051:2159   */\n          pop\n          pop\n          jump\t// out\n            /* \"#utility.yul\":2165:2344   */\n        tag_45:\n            /* \"#utility.yul\":2234:2244   */\n          0x00\n            /* \"#utility.yul\":2255:2301   */\n          tag_75\n            /* \"#utility.yul\":2297:2300   */\n          dup4\n            /* \"#utility.yul\":2289:2295   */\n          dup4\n            /* \"#utility.yul\":2255:2301   */\n          tag_44\n          jump\t// in\n        tag_75:\n            /* \"#utility.yul\":2333:2337   */\n          0x20\n            /* \"#utility.yul\":2328:2331   */\n          dup4\n            /* \"#utility.yul\":2324:2338   */\n          add\n            /* \"#utility.yul\":2310:2338   */\n          swap1\n          pop\n            /* \"#utility.yul\":2165:2344   */\n          swap3\n          swap2\n          pop\n          pop\n          jump\t// out\n            /* \"#utility.yul\":2350:2463   */\n        tag_46:\n            /* \"#utility.yul\":2420:2424   */\n          0x00\n            /* \"#utility.yul\":2452:2456   */\n          0x20\n            /* \"#utility.yul\":2447:2450   */\n          dup3\n            /* \"#utility.yul\":2443:2457   */\n          add\n            /* \"#utility.yul\":2435:2457   */\n          swap1\n          pop\n            /* \"#utility.yul\":2350:2463   */\n          swap2\n          swap1\n          pop\n          jump\t// out\n            /* \"#utility.yul\":2499:3231   */\n        tag_47:\n            /* \"#utility.yul\":2618:2621   */\n          0x00\n            /* \"#utility.yul\":2647:2701   */\n          tag_78\n            /* \"#utility.yul\":2695:2700   */\n          dup3\n            /* \"#utility.yul\":2647:2701   */\n          tag_41\n          jump\t// in\n        tag_78:\n            /* \"#utility.yul\":2717:2803   */\n          tag_79\n            /* \"#utility.yul\":2796:2802   */\n          dup2\n            /* \"#utility.yul\":2791:2794   */\n          dup6\n            /* \"#utility.yul\":2717:2803   */\n          tag_42\n          jump\t// in\n        tag_79:\n            /* \"#utility.yul\":2710:2803   */\n          swap4\n          pop\n            /* \"#utility.yul\":2827:2883   */\n          tag_80\n            /* \"#utility.yul\":2877:2882   */\n          dup4\n            /* \"#utility.yul\":2827:2883   */\n          tag_43\n          jump\t// in\n        tag_80:\n            /* \"#utility.yul\":2906:2913   */\n          dup1\n            /* \"#utility.yul\":2937:2938   */\n          0x00\n            /* \"#utility.yul\":2922:3206   */\n        tag_81:\n            /* \"#utility.yul\":2947:2953   */\n          dup4\n            /* \"#utility.yul\":2944:2945   */\n          dup2\n            /* \"#utility.yul\":2941:2954   */\n          lt\n            /* \"#utility.yul\":2922:3206   */\n          iszero\n          tag_83\n          jumpi\n            /* \"#utility.yul\":3023:3029   */\n          dup2\n            /* \"#utility.yul\":3017:3030   */\n          mload\n            /* \"#utility.yul\":3050:3113   */\n          tag_84\n            /* \"#utility.yul\":3109:3112   */\n          dup9\n            /* \"#utility.yul\":3094:3107   */\n          dup3\n            /* \"#utility.yul\":3050:3113   */\n          tag_45\n          jump\t// in\n        tag_84:\n            /* \"#utility.yul\":3043:3113   */\n          swap8\n          pop\n            /* \"#utility.yul\":3136:3196   */\n          tag_85\n            /* \"#utility.yul\":3189:3195   */\n          dup4\n            /* \"#utility.yul\":3136:3196   */\n          tag_46\n          jump\t// in\n        tag_85:\n            /* \"#utility.yul\":3126:3196   */\n          swap3\n          pop\n            /* \"#utility.yul\":2982:3206   */\n          pop\n            /* \"#utility.yul\":2969:2970   */\n          0x01\n            /* \"#utility.yul\":2966:2967   */\n          dup2\n            /* \"#utility.yul\":2962:2971   */\n          add\n            /* \"#utility.yul\":2957:2971   */\n          swap1\n          pop\n            /* \"#utility.yul\":2922:3206   */\n          jump(tag_81)\n        tag_83:\n            /* \"#utility.yul\":2926:2940   */\n          pop\n            /* \"#utility.yul\":3222:3225   */\n          dup6\n            /* \"#utility.yul\":3215:3225   */\n          swap4\n          pop\n            /* \"#utility.yul\":2623:3231   */\n          pop\n          pop\n          pop\n            /* \"#utility.yul\":2499:3231   */\n          swap3\n          swap2\n          pop\n          pop\n          jump\t// out\n            /* \"#utility.yul\":3237:3610   */\n        tag_18:\n            /* \"#utility.yul\":3380:3384   */\n          0x00\n            /* \"#utility.yul\":3418:3420   */\n          0x20\n            /* \"#utility.yul\":3407:3416   */\n          dup3\n            /* \"#utility.yul\":3403:3421   */\n          add\n            /* \"#utility.yul\":3395:3421   */\n          swap1\n          pop\n            /* \"#utility.yul\":3467:3476   */\n          dup2\n            /* \"#utility.yul\":3461:3465   */\n          dup2\n            /* \"#utility.yul\":3457:3477   */\n          sub\n            /* \"#utility.yul\":3453:3454   */\n          0x00\n            /* \"#utility.yul\":3442:3451   */\n          dup4\n            /* \"#utility.yul\":3438:3455   */\n          add\n            /* \"#utility.yul\":3431:3478   */\n          mstore\n            /* \"#utility.yul\":3495:3603   */\n          tag_87\n            /* \"#utility.yul\":3598:3602   */\n          dup2\n            /* \"#utility.yul\":3589:3595   */\n          dup5\n            /* \"#utility.yul\":3495:3603   */\n          tag_47\n          jump\t// in\n        tag_87:\n            /* \"#utility.yul\":3487:3603   */\n          swap1\n          pop\n            /* \"#utility.yul\":3237:3610   */\n          swap3\n          swap2\n          pop\n          pop\n          jump\t// out\n\n        auxdata: 0xa264697066735822122009b2230dd8773b5c1a35077f4007aa46cf4ba4e3394b529d87c46e9e34533da464736f6c63430008110033\n    }\n}\n\nsub_4: assembly {\n        /* \"ElectronicMedicalRecords.sol\":12140:13276  contract DoctorRelation {... */\n      mstore(0x40, 0x80)\n        /* \"ElectronicMedicalRecords.sol\":12396:12457  constructor(address _admin) {... */\n      callvalue\n      dup1\n      iszero\n      tag_1\n      jumpi\n      0x00\n      dup1\n      revert\n    tag_1:\n      pop\n      mload(0x40)\n      sub(codesize, bytecodeSize)\n      dup1\n      bytecodeSize\n      dup4\n      codecopy\n      dup2\n      dup2\n      add\n      0x40\n      mstore\n      dup2\n      add\n      swap1\n      tag_2\n      swap2\n      swap1\n      tag_3\n      jump\t// in\n    tag_2:\n        /* \"ElectronicMedicalRecords.sol\":12443:12449  _admin */\n      dup1\n        /* \"ElectronicMedicalRecords.sol\":12435:12440  admin */\n      0x00\n      dup1\n        /* \"ElectronicMedicalRecords.sol\":12435:12449  admin = _admin */\n      0x0100\n      exp\n      dup2\n      sload\n      dup2\n      0xffffffffffffffffffffffffffffffffffffffff\n      mul\n      not\n      and\n      swap1\n      dup4\n      0xffffffffffffffffffffffffffffffffffffffff\n      and\n      mul\n      or\n      swap1\n      sstore\n      pop\n        /* \"ElectronicMedicalRecords.sol\":12396:12457  constructor(address _admin) {... */\n      pop\n        /* \"ElectronicMedicalRecords.sol\":12140:13276  contract DoctorRelation {... */\n      jump(tag_6)\n        /* \"#utility.yul\":88:205   */\n    tag_8:\n        /* \"#utility.yul\":197:198   */\n      0x00\n        /* \"#utility.yul\":194:195   */\n      dup1\n        /* \"#utility.yul\":187:199   */\n      revert\n        /* \"#utility.yul\":334:460   */\n    tag_10:\n        /* \"#utility.yul\":371:378   */\n      0x00\n        /* \"#utility.yul\":411:453   */\n      0xffffffffffffffffffffffffffffffffffffffff\n        /* \"#utility.yul\":404:409   */\n      dup3\n        /* \"#utility.yul\":400:454   */\n      and\n        /* \"#utility.yul\":389:454   */\n      swap1\n      pop\n        /* \"#utility.yul\":334:460   */\n      swap2\n      swap1\n      pop\n      jump\t// out\n        /* \"#utility.yul\":466:562   */\n    tag_11:\n        /* \"#utility.yul\":503:510   */\n      0x00\n        /* \"#utility.yul\":532:556   */\n      tag_20\n        /* \"#utility.yul\":550:555   */\n      dup3\n        /* \"#utility.yul\":532:556   */\n      tag_10\n      jump\t// in\n    tag_20:\n        /* \"#utility.yul\":521:556   */\n      swap1\n      pop\n        /* \"#utility.yul\":466:562   */\n      swap2\n      swap1\n      pop\n      jump\t// out\n        /* \"#utility.yul\":568:690   */\n    tag_12:\n        /* \"#utility.yul\":641:665   */\n      tag_22\n        /* \"#utility.yul\":659:664   */\n      dup2\n        /* \"#utility.yul\":641:665   */\n      tag_11\n      jump\t// in\n    tag_22:\n        /* \"#utility.yul\":634:639   */\n      dup2\n        /* \"#utility.yul\":631:666   */\n      eq\n        /* \"#utility.yul\":621:684   */\n      tag_23\n      jumpi\n        /* \"#utility.yul\":680:681   */\n      0x00\n        /* \"#utility.yul\":677:678   */\n      dup1\n        /* \"#utility.yul\":670:682   */\n      revert\n        /* \"#utility.yul\":621:684   */\n    tag_23:\n        /* \"#utility.yul\":568:690   */\n      pop\n      jump\t// out\n        /* \"#utility.yul\":696:839   */\n    tag_13:\n        /* \"#utility.yul\":753:758   */\n      0x00\n        /* \"#utility.yul\":784:790   */\n      dup2\n        /* \"#utility.yul\":778:791   */\n      mload\n        /* \"#utility.yul\":769:791   */\n      swap1\n      pop\n        /* \"#utility.yul\":800:833   */\n      tag_25\n        /* \"#utility.yul\":827:832   */\n      dup2\n        /* \"#utility.yul\":800:833   */\n      tag_12\n      jump\t// in\n    tag_25:\n        /* \"#utility.yul\":696:839   */\n      swap3\n      swap2\n      pop\n      pop\n      jump\t// out\n        /* \"#utility.yul\":845:1196   */\n    tag_3:\n        /* \"#utility.yul\":915:921   */\n      0x00\n        /* \"#utility.yul\":964:966   */\n      0x20\n        /* \"#utility.yul\":952:961   */\n      dup3\n        /* \"#utility.yul\":943:950   */\n      dup5\n        /* \"#utility.yul\":939:962   */\n      sub\n        /* \"#utility.yul\":935:967   */\n      slt\n        /* \"#utility.yul\":932:1051   */\n      iszero\n      tag_27\n      jumpi\n        /* \"#utility.yul\":970:1049   */\n      tag_28\n      tag_8\n      jump\t// in\n    tag_28:\n        /* \"#utility.yul\":932:1051   */\n    tag_27:\n        /* \"#utility.yul\":1090:1091   */\n      0x00\n        /* \"#utility.yul\":1115:1179   */\n      tag_29\n        /* \"#utility.yul\":1171:1178   */\n      dup5\n        /* \"#utility.yul\":1162:1168   */\n      dup3\n        /* \"#utility.yul\":1151:1160   */\n      dup6\n        /* \"#utility.yul\":1147:1169   */\n      add\n        /* \"#utility.yul\":1115:1179   */\n      tag_13\n      jump\t// in\n    tag_29:\n        /* \"#utility.yul\":1105:1179   */\n      swap2\n      pop\n        /* \"#utility.yul\":1061:1189   */\n      pop\n        /* \"#utility.yul\":845:1196   */\n      swap3\n      swap2\n      pop\n      pop\n      jump\t// out\n        /* \"ElectronicMedicalRecords.sol\":12140:13276  contract DoctorRelation {... */\n    tag_6:\n      dataSize(sub_0)\n      dup1\n      dataOffset(sub_0)\n      0x00\n      codecopy\n      0x00\n      return\n    stop\n\n    sub_0: assembly {\n            /* \"ElectronicMedicalRecords.sol\":12140:13276  contract DoctorRelation {... */\n          mstore(0x40, 0x80)\n          callvalue\n          dup1\n          iszero\n          tag_1\n          jumpi\n          0x00\n          dup1\n          revert\n        tag_1:\n          pop\n          jumpi(tag_2, lt(calldatasize, 0x04))\n          shr(0xe0, calldataload(0x00))\n          dup1\n          0x1107747e\n          eq\n          tag_3\n          jumpi\n          dup1\n          0x43a0e44a\n          eq\n          tag_4\n          jumpi\n          dup1\n          0xf40941d0\n          eq\n          tag_5\n          jumpi\n        tag_2:\n          0x00\n          dup1\n          revert\n            /* \"ElectronicMedicalRecords.sol\":12465:12667  function setDoctorVerificatorAddress(address _DoctorVerificatorAddress) public {... */\n        tag_3:\n          tag_6\n          0x04\n          dup1\n          calldatasize\n          sub\n          dup2\n          add\n          swap1\n          tag_7\n          swap2\n          swap1\n          tag_8\n          jump\t// in\n        tag_7:\n          tag_9\n          jump\t// in\n        tag_6:\n          stop\n            /* \"ElectronicMedicalRecords.sol\":12675:12992  function addDoctorRelation(address _doctor, string memory _fullname, string memory _jenis, address _add) onlyDoctor(_doctor) public {... */\n        tag_4:\n          tag_10\n          0x04\n          dup1\n          calldatasize\n          sub\n          dup2\n          add\n          swap1\n          tag_11\n          swap2\n          swap1\n          tag_12\n          jump\t// in\n        tag_11:\n          tag_13\n          jump\t// in\n        tag_10:\n          stop\n            /* \"ElectronicMedicalRecords.sol\":13000:13154  function getDoctorRelations(address _doctor) public view onlyDoctor(msg.sender) returns(Patient[] memory) {... */\n        tag_5:\n          tag_14\n          0x04\n          dup1\n          calldatasize\n          sub\n          dup2\n          add\n          swap1\n          tag_15\n          swap2\n          swap1\n          tag_8\n          jump\t// in\n        tag_15:\n          tag_16\n          jump\t// in\n        tag_14:\n          mload(0x40)\n          tag_17\n          swap2\n          swap1\n          tag_18\n          jump\t// in\n        tag_17:\n          mload(0x40)\n          dup1\n          swap2\n          sub\n          swap1\n          return\n            /* \"ElectronicMedicalRecords.sol\":12465:12667  function setDoctorVerificatorAddress(address _DoctorVerificatorAddress) public {... */\n        tag_9:\n            /* \"ElectronicMedicalRecords.sol\":12577:12582  admin */\n          0x00\n          dup1\n          sload\n          swap1\n          0x0100\n          exp\n          swap1\n          div\n          0xffffffffffffffffffffffffffffffffffffffff\n          and\n            /* \"ElectronicMedicalRecords.sol\":12563:12582  msg.sender == admin */\n          0xffffffffffffffffffffffffffffffffffffffff\n          and\n            /* \"ElectronicMedicalRecords.sol\":12563:12573  msg.sender */\n          caller\n            /* \"ElectronicMedicalRecords.sol\":12563:12582  msg.sender == admin */\n          0xffffffffffffffffffffffffffffffffffffffff\n          and\n          eq\n            /* \"ElectronicMedicalRecords.sol\":12555:12583  require(msg.sender == admin) */\n          tag_20\n          jumpi\n          0x00\n          dup1\n          revert\n        tag_20:\n            /* \"ElectronicMedicalRecords.sol\":12633:12658  _DoctorVerificatorAddress */\n          dup1\n            /* \"ElectronicMedicalRecords.sol\":12594:12612  doctor_verificator */\n          0x02\n          0x00\n            /* \"ElectronicMedicalRecords.sol\":12594:12659  doctor_verificator = DoctorVerificator(_DoctorVerificatorAddress) */\n          0x0100\n          exp\n          dup2\n          sload\n          dup2\n          0xffffffffffffffffffffffffffffffffffffffff\n          mul\n          not\n          and\n          swap1\n          dup4\n          0xffffffffffffffffffffffffffffffffffffffff\n          and\n          mul\n          or\n          swap1\n          sstore\n          pop\n            /* \"ElectronicMedicalRecords.sol\":12465:12667  function setDoctorVerificatorAddress(address _DoctorVerificatorAddress) public {... */\n          pop\n          jump\t// out\n            /* \"ElectronicMedicalRecords.sol\":12675:12992  function addDoctorRelation(address _doctor, string memory _fullname, string memory _jenis, address _add) onlyDoctor(_doctor) public {... */\n        tag_13:\n            /* \"ElectronicMedicalRecords.sol\":12791:12798  _doctor */\n          dup4\n            /* \"ElectronicMedicalRecords.sol\":13218:13236  doctor_verificator */\n          0x02\n          0x00\n          swap1\n          sload\n          swap1\n          0x0100\n          exp\n          swap1\n          div\n          0xffffffffffffffffffffffffffffffffffffffff\n          and\n            /* \"ElectronicMedicalRecords.sol\":13218:13243  doctor_verificator.verify */\n          0xffffffffffffffffffffffffffffffffffffffff\n          and\n          0x63a9c3d7\n            /* \"ElectronicMedicalRecords.sol\":13244:13251  _doctor */\n          dup3\n            /* \"ElectronicMedicalRecords.sol\":13218:13252  doctor_verificator.verify(_doctor) */\n          mload(0x40)\n          dup3\n          0xffffffff\n          and\n          0xe0\n          shl\n          dup2\n          mstore\n          0x04\n          add\n          tag_22\n          swap2\n          swap1\n          tag_23\n          jump\t// in\n        tag_22:\n          0x20\n          mload(0x40)\n          dup1\n          dup4\n          sub\n          dup2\n          dup7\n          gas\n          staticcall\n          iszero\n          dup1\n          iszero\n          tag_25\n          jumpi\n          returndatasize\n          0x00\n          dup1\n          returndatacopy\n          revert(0x00, returndatasize)\n        tag_25:\n          pop\n          pop\n          pop\n          pop\n          mload(0x40)\n          returndatasize\n          not(0x1f)\n          0x1f\n          dup3\n          add\n          and\n          dup3\n          add\n          dup1\n          0x40\n          mstore\n          pop\n          dup2\n          add\n          swap1\n          tag_26\n          swap2\n          swap1\n          tag_27\n          jump\t// in\n        tag_26:\n            /* \"ElectronicMedicalRecords.sol\":13210:13253  require(doctor_verificator.verify(_doctor)) */\n          tag_28\n          jumpi\n          0x00\n          dup1\n          revert\n        tag_28:\n            /* \"ElectronicMedicalRecords.sol\":12818:12840  Patient memory patient */\n          tag_30\n          tag_31\n          jump\t// in\n        tag_30:\n            /* \"ElectronicMedicalRecords.sol\":12866:12875  _fullname */\n          dup5\n            /* \"ElectronicMedicalRecords.sol\":12851:12858  patient */\n          dup2\n            /* \"ElectronicMedicalRecords.sol\":12851:12863  patient.name */\n          0x00\n          add\n            /* \"ElectronicMedicalRecords.sol\":12851:12875  patient.name = _fullname */\n          dup2\n          swap1\n          mstore\n          pop\n            /* \"ElectronicMedicalRecords.sol\":12902:12908  _jenis */\n          dup4\n            /* \"ElectronicMedicalRecords.sol\":12886:12893  patient */\n          dup2\n            /* \"ElectronicMedicalRecords.sol\":12886:12899  patient.jenis */\n          0x20\n          add\n            /* \"ElectronicMedicalRecords.sol\":12886:12908  patient.jenis = _jenis */\n          dup2\n          swap1\n          mstore\n          pop\n            /* \"ElectronicMedicalRecords.sol\":12933:12937  _add */\n          dup3\n            /* \"ElectronicMedicalRecords.sol\":12919:12926  patient */\n          dup2\n            /* \"ElectronicMedicalRecords.sol\":12919:12930  patient.add */\n          0x40\n          add\n            /* \"ElectronicMedicalRecords.sol\":12919:12937  patient.add = _add */\n          swap1\n          0xffffffffffffffffffffffffffffffffffffffff\n          and\n          swap1\n          dup2\n          0xffffffffffffffffffffffffffffffffffffffff\n          and\n          dup2\n          mstore\n          pop\n          pop\n            /* \"ElectronicMedicalRecords.sol\":12948:12961  relatedPatien */\n          0x01\n            /* \"ElectronicMedicalRecords.sol\":12948:12970  relatedPatien[_doctor] */\n          0x00\n            /* \"ElectronicMedicalRecords.sol\":12962:12969  _doctor */\n          dup8\n            /* \"ElectronicMedicalRecords.sol\":12948:12970  relatedPatien[_doctor] */\n          0xffffffffffffffffffffffffffffffffffffffff\n          and\n          0xffffffffffffffffffffffffffffffffffffffff\n          and\n          dup2\n          mstore\n          0x20\n          add\n          swap1\n          dup2\n          mstore\n          0x20\n          add\n          0x00\n          keccak256\n            /* \"ElectronicMedicalRecords.sol\":12976:12983  patient */\n          dup2\n            /* \"ElectronicMedicalRecords.sol\":12948:12984  relatedPatien[_doctor].push(patient) */\n          swap1\n          dup1\n          0x01\n          dup2\n          sload\n          add\n          dup1\n          dup3\n          sstore\n          dup1\n          swap2\n          pop\n          pop\n          0x01\n          swap1\n          sub\n          swap1\n          0x00\n          mstore\n          keccak256(0x00, 0x20)\n          swap1\n          0x03\n          mul\n          add\n          0x00\n          swap1\n          swap2\n          swap1\n          swap2\n          swap1\n          swap2\n          pop\n          0x00\n          dup3\n          add\n          mload\n          dup2\n          0x00\n          add\n          swap1\n          dup2\n          tag_33\n          swap2\n          swap1\n          tag_34\n          jump\t// in\n        tag_33:\n          pop\n          0x20\n          dup3\n          add\n          mload\n          dup2\n          0x01\n          add\n          swap1\n          dup2\n          tag_35\n          swap2\n          swap1\n          tag_34\n          jump\t// in\n        tag_35:\n          pop\n          0x40\n          dup3\n          add\n          mload\n          dup2\n          0x02\n          add\n          exp(0x0100, 0x00)\n          dup2\n          sload\n          dup2\n          0xffffffffffffffffffffffffffffffffffffffff\n          mul\n          not\n          and\n          swap1\n          dup4\n          0xffffffffffffffffffffffffffffffffffffffff\n          and\n          mul\n          or\n          swap1\n          sstore\n          pop\n          pop\n          pop\n            /* \"ElectronicMedicalRecords.sol\":12807:12992  {... */\n          pop\n            /* \"ElectronicMedicalRecords.sol\":12675:12992  function addDoctorRelation(address _doctor, string memory _fullname, string memory _jenis, address _add) onlyDoctor(_doctor) public {... */\n          pop\n          pop\n          pop\n          pop\n          pop\n          jump\t// out\n            /* \"ElectronicMedicalRecords.sol\":13000:13154  function getDoctorRelations(address _doctor) public view onlyDoctor(msg.sender) returns(Patient[] memory) {... */\n        tag_16:\n            /* \"ElectronicMedicalRecords.sol\":13088:13104  Patient[] memory */\n          0x60\n            /* \"ElectronicMedicalRecords.sol\":13068:13078  msg.sender */\n          caller\n            /* \"ElectronicMedicalRecords.sol\":13218:13236  doctor_verificator */\n          0x02\n          0x00\n          swap1\n          sload\n          swap1\n          0x0100\n          exp\n          swap1\n          div\n          0xffffffffffffffffffffffffffffffffffffffff\n          and\n            /* \"ElectronicMedicalRecords.sol\":13218:13243  doctor_verificator.verify */\n          0xffffffffffffffffffffffffffffffffffffffff\n          and\n          0x63a9c3d7\n            /* \"ElectronicMedicalRecords.sol\":13244:13251  _doctor */\n          dup3\n            /* \"ElectronicMedicalRecords.sol\":13218:13252  doctor_verificator.verify(_doctor) */\n          mload(0x40)\n          dup3\n          0xffffffff\n          and\n          0xe0\n          shl\n          dup2\n          mstore\n          0x04\n          add\n          tag_37\n          swap2\n          swap1\n          tag_23\n          jump\t// in\n        tag_37:\n          0x20\n          mload(0x40)\n          dup1\n          dup4\n          sub\n          dup2\n          dup7\n          gas\n          staticcall\n          iszero\n          dup1\n          iszero\n          tag_39\n          jumpi\n          returndatasize\n          0x00\n          dup1\n          returndatacopy\n          revert(0x00, returndatasize)\n        tag_39:\n          pop\n          pop\n          pop\n          pop\n          mload(0x40)\n          returndatasize\n          not(0x1f)\n          0x1f\n          dup3\n          add\n          and\n          dup3\n          add\n          dup1\n          0x40\n          mstore\n          pop\n          dup2\n          add\n          swap1\n          tag_40\n          swap2\n          swap1\n          tag_27\n          jump\t// in\n        tag_40:\n            /* \"ElectronicMedicalRecords.sol\":13210:13253  require(doctor_verificator.verify(_doctor)) */\n          tag_41\n          jumpi\n          0x00\n          dup1\n          revert\n        tag_41:\n            /* \"ElectronicMedicalRecords.sol\":13124:13137  relatedPatien */\n          0x01\n            /* \"ElectronicMedicalRecords.sol\":13124:13146  relatedPatien[_doctor] */\n          0x00\n            /* \"ElectronicMedicalRecords.sol\":13138:13145  _doctor */\n          dup5\n            /* \"ElectronicMedicalRecords.sol\":13124:13146  relatedPatien[_doctor] */\n          0xffffffffffffffffffffffffffffffffffffffff\n          and\n          0xffffffffffffffffffffffffffffffffffffffff\n          and\n          dup2\n          mstore\n          0x20\n          add\n          swap1\n          dup2\n          mstore\n          0x20\n          add\n          0x00\n          keccak256\n            /* \"ElectronicMedicalRecords.sol\":13117:13146  return relatedPatien[_doctor] */\n          dup1\n          sload\n          dup1\n          0x20\n          mul\n          0x20\n          add\n          mload(0x40)\n          swap1\n          dup2\n          add\n          0x40\n          mstore\n          dup1\n          swap3\n          swap2\n          swap1\n          dup2\n          dup2\n          mstore\n          0x20\n          add\n          0x00\n          swap1\n        tag_43:\n          dup3\n          dup3\n          lt\n          iszero\n          tag_44\n          jumpi\n          dup4\n          dup3\n          swap1\n          0x00\n          mstore\n          keccak256(0x00, 0x20)\n          swap1\n          0x03\n          mul\n          add\n          mload(0x40)\n          dup1\n          0x60\n          add\n          0x40\n          mstore\n          swap1\n          dup2\n          0x00\n          dup3\n          add\n          dup1\n          sload\n          tag_46\n          swap1\n          tag_47\n          jump\t// in\n        tag_46:\n          dup1\n          0x1f\n          add\n          0x20\n          dup1\n          swap2\n          div\n          mul\n          0x20\n          add\n          mload(0x40)\n          swap1\n          dup2\n          add\n          0x40\n          mstore\n          dup1\n          swap3\n          swap2\n          swap1\n          dup2\n          dup2\n          mstore\n          0x20\n          add\n          dup3\n          dup1\n          sload\n          tag_48\n          swap1\n          tag_47\n          jump\t// in\n        tag_48:\n          dup1\n          iszero\n          tag_49\n          jumpi\n          dup1\n          0x1f\n          lt\n          tag_50\n          jumpi\n          0x0100\n          dup1\n          dup4\n          sload\n          div\n          mul\n          dup4\n          mstore\n          swap2\n          0x20\n          add\n          swap2\n          jump(tag_49)\n        tag_50:\n          dup3\n          add\n          swap2\n          swap1\n          0x00\n          mstore\n          keccak256(0x00, 0x20)\n          swap1\n        tag_51:\n          dup2\n          sload\n          dup2\n          mstore\n          swap1\n          0x01\n          add\n          swap1\n          0x20\n          add\n          dup1\n          dup4\n          gt\n          tag_51\n          jumpi\n          dup3\n          swap1\n          sub\n          0x1f\n          and\n          dup3\n          add\n          swap2\n        tag_49:\n          pop\n          pop\n          pop\n          pop\n          pop\n          dup2\n          mstore\n          0x20\n          add\n          0x01\n          dup3\n          add\n          dup1\n          sload\n          tag_52\n          swap1\n          tag_47\n          jump\t// in\n        tag_52:\n          dup1\n          0x1f\n          add\n          0x20\n          dup1\n          swap2\n          div\n          mul\n          0x20\n          add\n          mload(0x40)\n          swap1\n          dup2\n          add\n          0x40\n          mstore\n          dup1\n          swap3\n          swap2\n          swap1\n          dup2\n          dup2\n          mstore\n          0x20\n          add\n          dup3\n          dup1\n          sload\n          tag_53\n          swap1\n          tag_47\n          jump\t// in\n        tag_53:\n          dup1\n          iszero\n          tag_54\n          jumpi\n          dup1\n          0x1f\n          lt\n          tag_55\n          jumpi\n          0x0100\n          dup1\n          dup4\n          sload\n          div\n          mul\n          dup4\n          mstore\n          swap2\n          0x20\n          add\n          swap2\n          jump(tag_54)\n        tag_55:\n          dup3\n          add\n          swap2\n          swap1\n          0x00\n          mstore\n          keccak256(0x00, 0x20)\n          swap1\n        tag_56:\n          dup2\n          sload\n          dup2\n          mstore\n          swap1\n          0x01\n          add\n          swap1\n          0x20\n          add\n          dup1\n          dup4\n          gt\n          tag_56\n          jumpi\n          dup3\n          swap1\n          sub\n          0x1f\n          and\n          dup3\n          add\n          swap2\n        tag_54:\n          pop\n          pop\n          pop\n          pop\n          pop\n          dup2\n          mstore\n          0x20\n          add\n          0x02\n          dup3\n          add\n          0x00\n          swap1\n          sload\n          swap1\n          0x0100\n          exp\n          swap1\n          div\n          0xffffffffffffffffffffffffffffffffffffffff\n          and\n          0xffffffffffffffffffffffffffffffffffffffff\n          and\n          0xffffffffffffffffffffffffffffffffffffffff\n          and\n          dup2\n          mstore\n          pop\n          pop\n          dup2\n          mstore\n          0x20\n          add\n          swap1\n          0x01\n          add\n          swap1\n          jump(tag_43)\n        tag_44:\n          pop\n          pop\n          pop\n          pop\n          swap2\n          pop\n            /* \"ElectronicMedicalRecords.sol\":13000:13154  function getDoctorRelations(address _doctor) public view onlyDoctor(msg.sender) returns(Patient[] memory) {... */\n          pop\n          swap2\n          swap1\n          pop\n          jump\t// out\n        tag_31:\n          mload(0x40)\n          dup1\n          0x60\n          add\n          0x40\n          mstore\n          dup1\n          0x60\n          dup2\n          mstore\n          0x20\n          add\n          0x60\n          dup2\n          mstore\n          0x20\n          add\n          and(0xffffffffffffffffffffffffffffffffffffffff, 0x00)\n          dup2\n          mstore\n          pop\n          swap1\n          jump\t// out\n            /* \"#utility.yul\":7:82   */\n        tag_57:\n            /* \"#utility.yul\":40:46   */\n          0x00\n            /* \"#utility.yul\":73:75   */\n          0x40\n            /* \"#utility.yul\":67:76   */\n          mload\n            /* \"#utility.yul\":57:76   */\n          swap1\n          pop\n            /* \"#utility.yul\":7:82   */\n          swap1\n          jump\t// out\n            /* \"#utility.yul\":88:205   */\n        tag_58:\n            /* \"#utility.yul\":197:198   */\n          0x00\n            /* \"#utility.yul\":194:195   */\n          dup1\n            /* \"#utility.yul\":187:199   */\n          revert\n            /* \"#utility.yul\":211:328   */\n        tag_59:\n            /* \"#utility.yul\":320:321   */\n          0x00\n            /* \"#utility.yul\":317:318   */\n          dup1\n            /* \"#utility.yul\":310:322   */\n          revert\n            /* \"#utility.yul\":334:460   */\n        tag_60:\n            /* \"#utility.yul\":371:378   */\n          0x00\n            /* \"#utility.yul\":411:453   */\n          0xffffffffffffffffffffffffffffffffffffffff\n            /* \"#utility.yul\":404:409   */\n          dup3\n            /* \"#utility.yul\":400:454   */\n          and\n            /* \"#utility.yul\":389:454   */\n          swap1\n          pop\n            /* \"#utility.yul\":334:460   */\n          swap2\n          swap1\n          pop\n          jump\t// out\n            /* \"#utility.yul\":466:562   */\n        tag_61:\n            /* \"#utility.yul\":503:510   */\n          0x00\n            /* \"#utility.yul\":532:556   */\n          tag_113\n            /* \"#utility.yul\":550:555   */\n          dup3\n            /* \"#utility.yul\":532:556   */\n          tag_60\n          jump\t// in\n        tag_113:\n            /* \"#utility.yul\":521:556   */\n          swap1\n          pop\n            /* \"#utility.yul\":466:562   */\n          swap2\n          swap1\n          pop\n          jump\t// out\n            /* \"#utility.yul\":568:690   */\n        tag_62:\n            /* \"#utility.yul\":641:665   */\n          tag_115\n            /* \"#utility.yul\":659:664   */\n          dup2\n            /* \"#utility.yul\":641:665   */\n          tag_61\n          jump\t// in\n        tag_115:\n            /* \"#utility.yul\":634:639   */\n          dup2\n            /* \"#utility.yul\":631:666   */\n          eq\n            /* \"#utility.yul\":621:684   */\n          tag_116\n          jumpi\n            /* \"#utility.yul\":680:681   */\n          0x00\n            /* \"#utility.yul\":677:678   */\n          dup1\n            /* \"#utility.yul\":670:682   */\n          revert\n            /* \"#utility.yul\":621:684   */\n        tag_116:\n            /* \"#utility.yul\":568:690   */\n          pop\n          jump\t// out\n            /* \"#utility.yul\":696:835   */\n        tag_63:\n            /* \"#utility.yul\":742:747   */\n          0x00\n            /* \"#utility.yul\":780:786   */\n          dup2\n            /* \"#utility.yul\":767:787   */\n          calldataload\n            /* \"#utility.yul\":758:787   */\n          swap1\n          pop\n            /* \"#utility.yul\":796:829   */\n          tag_118\n            /* \"#utility.yul\":823:828   */\n          dup2\n            /* \"#utility.yul\":796:829   */\n          tag_62\n          jump\t// in\n        tag_118:\n            /* \"#utility.yul\":696:835   */\n          swap3\n          swap2\n          pop\n          pop\n          jump\t// out\n            /* \"#utility.yul\":841:1170   */\n        tag_8:\n            /* \"#utility.yul\":900:906   */\n          0x00\n            /* \"#utility.yul\":949:951   */\n          0x20\n            /* \"#utility.yul\":937:946   */\n          dup3\n            /* \"#utility.yul\":928:935   */\n          dup5\n            /* \"#utility.yul\":924:947   */\n          sub\n            /* \"#utility.yul\":920:952   */\n          slt\n            /* \"#utility.yul\":917:1036   */\n          iszero\n          tag_120\n          jumpi\n            /* \"#utility.yul\":955:1034   */\n          tag_121\n          tag_58\n          jump\t// in\n        tag_121:\n            /* \"#utility.yul\":917:1036   */\n        tag_120:\n            /* \"#utility.yul\":1075:1076   */\n          0x00\n            /* \"#utility.yul\":1100:1153   */\n          tag_122\n            /* \"#utility.yul\":1145:1152   */\n          dup5\n            /* \"#utility.yul\":1136:1142   */\n          dup3\n            /* \"#utility.yul\":1125:1134   */\n          dup6\n            /* \"#utility.yul\":1121:1143   */\n          add\n            /* \"#utility.yul\":1100:1153   */\n          tag_63\n          jump\t// in\n        tag_122:\n            /* \"#utility.yul\":1090:1153   */\n          swap2\n          pop\n            /* \"#utility.yul\":1046:1163   */\n          pop\n            /* \"#utility.yul\":841:1170   */\n          swap3\n          swap2\n          pop\n          pop\n          jump\t// out\n            /* \"#utility.yul\":1176:1293   */\n        tag_64:\n            /* \"#utility.yul\":1285:1286   */\n          0x00\n            /* \"#utility.yul\":1282:1283   */\n          dup1\n            /* \"#utility.yul\":1275:1287   */\n          revert\n            /* \"#utility.yul\":1299:1416   */\n        tag_65:\n            /* \"#utility.yul\":1408:1409   */\n          0x00\n            /* \"#utility.yul\":1405:1406   */\n          dup1\n            /* \"#utility.yul\":1398:1410   */\n          revert\n            /* \"#utility.yul\":1422:1524   */\n        tag_66:\n            /* \"#utility.yul\":1463:1469   */\n          0x00\n            /* \"#utility.yul\":1514:1516   */\n          0x1f\n            /* \"#utility.yul\":1510:1517   */\n          not\n            /* \"#utility.yul\":1505:1507   */\n          0x1f\n            /* \"#utility.yul\":1498:1503   */\n          dup4\n            /* \"#utility.yul\":1494:1508   */\n          add\n            /* \"#utility.yul\":1490:1518   */\n          and\n            /* \"#utility.yul\":1480:1518   */\n          swap1\n          pop\n            /* \"#utility.yul\":1422:1524   */\n          swap2\n          swap1\n          pop\n          jump\t// out\n            /* \"#utility.yul\":1530:1710   */\n        tag_67:\n            /* \"#utility.yul\":1578:1655   */\n          0x4e487b7100000000000000000000000000000000000000000000000000000000\n            /* \"#utility.yul\":1575:1576   */\n          0x00\n            /* \"#utility.yul\":1568:1656   */\n          mstore\n            /* \"#utility.yul\":1675:1679   */\n          0x41\n            /* \"#utility.yul\":1672:1673   */\n          0x04\n            /* \"#utility.yul\":1665:1680   */\n          mstore\n            /* \"#utility.yul\":1699:1703   */\n          0x24\n            /* \"#utility.yul\":1696:1697   */\n          0x00\n            /* \"#utility.yul\":1689:1704   */\n          revert\n            /* \"#utility.yul\":1716:1997   */\n        tag_68:\n            /* \"#utility.yul\":1799:1826   */\n          tag_128\n            /* \"#utility.yul\":1821:1825   */\n          dup3\n            /* \"#utility.yul\":1799:1826   */\n          tag_66\n          jump\t// in\n        tag_128:\n            /* \"#utility.yul\":1791:1797   */\n          dup2\n            /* \"#utility.yul\":1787:1827   */\n          add\n            /* \"#utility.yul\":1929:1935   */\n          dup2\n            /* \"#utility.yul\":1917:1927   */\n          dup2\n            /* \"#utility.yul\":1914:1936   */\n          lt\n            /* \"#utility.yul\":1893:1911   */\n          0xffffffffffffffff\n            /* \"#utility.yul\":1881:1891   */\n          dup3\n            /* \"#utility.yul\":1878:1912   */\n          gt\n            /* \"#utility.yul\":1875:1937   */\n          or\n            /* \"#utility.yul\":1872:1960   */\n          iszero\n          tag_129\n          jumpi\n            /* \"#utility.yul\":1940:1958   */\n          tag_130\n          tag_67\n          jump\t// in\n        tag_130:\n            /* \"#utility.yul\":1872:1960   */\n        tag_129:\n            /* \"#utility.yul\":1980:1990   */\n          dup1\n            /* \"#utility.yul\":1976:1978   */\n          0x40\n            /* \"#utility.yul\":1969:1991   */\n          mstore\n            /* \"#utility.yul\":1759:1997   */\n          pop\n            /* \"#utility.yul\":1716:1997   */\n          pop\n          pop\n          jump\t// out\n            /* \"#utility.yul\":2003:2132   */\n        tag_69:\n            /* \"#utility.yul\":2037:2043   */\n          0x00\n            /* \"#utility.yul\":2064:2084   */\n          tag_132\n          tag_57\n          jump\t// in\n        tag_132:\n            /* \"#utility.yul\":2054:2084   */\n          swap1\n          pop\n            /* \"#utility.yul\":2093:2126   */\n          tag_133\n            /* \"#utility.yul\":2121:2125   */\n          dup3\n            /* \"#utility.yul\":2113:2119   */\n          dup3\n            /* \"#utility.yul\":2093:2126   */\n          tag_68\n          jump\t// in\n        tag_133:\n            /* \"#utility.yul\":2003:2132   */\n          swap2\n          swap1\n          pop\n          jump\t// out\n            /* \"#utility.yul\":2138:2446   */\n        tag_70:\n            /* \"#utility.yul\":2200:2204   */\n          0x00\n            /* \"#utility.yul\":2290:2308   */\n          0xffffffffffffffff\n            /* \"#utility.yul\":2282:2288   */\n          dup3\n            /* \"#utility.yul\":2279:2309   */\n          gt\n            /* \"#utility.yul\":2276:2332   */\n          iszero\n          tag_135\n          jumpi\n            /* \"#utility.yul\":2312:2330   */\n          tag_136\n          tag_67\n          jump\t// in\n        tag_136:\n            /* \"#utility.yul\":2276:2332   */\n        tag_135:\n            /* \"#utility.yul\":2350:2379   */\n          tag_137\n            /* \"#utility.yul\":2372:2378   */\n          dup3\n            /* \"#utility.yul\":2350:2379   */\n          tag_66\n          jump\t// in\n        tag_137:\n            /* \"#utility.yul\":2342:2379   */\n          swap1\n          pop\n            /* \"#utility.yul\":2434:2438   */\n          0x20\n            /* \"#utility.yul\":2428:2432   */\n          dup2\n            /* \"#utility.yul\":2424:2439   */\n          add\n            /* \"#utility.yul\":2416:2439   */\n          swap1\n          pop\n            /* \"#utility.yul\":2138:2446   */\n          swap2\n          swap1\n          pop\n          jump\t// out\n            /* \"#utility.yul\":2452:2598   */\n        tag_71:\n            /* \"#utility.yul\":2549:2555   */\n          dup3\n            /* \"#utility.yul\":2544:2547   */\n          dup2\n            /* \"#utility.yul\":2539:2542   */\n          dup4\n            /* \"#utility.yul\":2526:2556   */\n          calldatacopy\n            /* \"#utility.yul\":2590:2591   */\n          0x00\n            /* \"#utility.yul\":2581:2587   */\n          dup4\n            /* \"#utility.yul\":2576:2579   */\n          dup4\n            /* \"#utility.yul\":2572:2588   */\n          add\n            /* \"#utility.yul\":2565:2592   */\n          mstore\n            /* \"#utility.yul\":2452:2598   */\n          pop\n          pop\n          pop\n          jump\t// out\n            /* \"#utility.yul\":2604:3029   */\n        tag_72:\n            /* \"#utility.yul\":2682:2687   */\n          0x00\n            /* \"#utility.yul\":2707:2773   */\n          tag_140\n            /* \"#utility.yul\":2723:2772   */\n          tag_141\n            /* \"#utility.yul\":2765:2771   */\n          dup5\n            /* \"#utility.yul\":2723:2772   */\n          tag_70\n          jump\t// in\n        tag_141:\n            /* \"#utility.yul\":2707:2773   */\n          tag_69\n          jump\t// in\n        tag_140:\n            /* \"#utility.yul\":2698:2773   */\n          swap1\n          pop\n            /* \"#utility.yul\":2796:2802   */\n          dup3\n            /* \"#utility.yul\":2789:2794   */\n          dup2\n            /* \"#utility.yul\":2782:2803   */\n          mstore\n            /* \"#utility.yul\":2834:2838   */\n          0x20\n            /* \"#utility.yul\":2827:2832   */\n          dup2\n            /* \"#utility.yul\":2823:2839   */\n          add\n            /* \"#utility.yul\":2872:2875   */\n          dup5\n            /* \"#utility.yul\":2863:2869   */\n          dup5\n            /* \"#utility.yul\":2858:2861   */\n          dup5\n            /* \"#utility.yul\":2854:2870   */\n          add\n            /* \"#utility.yul\":2851:2876   */\n          gt\n            /* \"#utility.yul\":2848:2960   */\n          iszero\n          tag_142\n          jumpi\n            /* \"#utility.yul\":2879:2958   */\n          tag_143\n          tag_65\n          jump\t// in\n        tag_143:\n            /* \"#utility.yul\":2848:2960   */\n        tag_142:\n            /* \"#utility.yul\":2969:3023   */\n          tag_144\n            /* \"#utility.yul\":3016:3022   */\n          dup5\n            /* \"#utility.yul\":3011:3014   */\n          dup3\n            /* \"#utility.yul\":3006:3009   */\n          dup6\n            /* \"#utility.yul\":2969:3023   */\n          tag_71\n          jump\t// in\n        tag_144:\n            /* \"#utility.yul\":2688:3029   */\n          pop\n            /* \"#utility.yul\":2604:3029   */\n          swap4\n          swap3\n          pop\n          pop\n          pop\n          jump\t// out\n            /* \"#utility.yul\":3049:3389   */\n        tag_73:\n            /* \"#utility.yul\":3105:3110   */\n          0x00\n            /* \"#utility.yul\":3154:3157   */\n          dup3\n            /* \"#utility.yul\":3147:3151   */\n          0x1f\n            /* \"#utility.yul\":3139:3145   */\n          dup4\n            /* \"#utility.yul\":3135:3152   */\n          add\n            /* \"#utility.yul\":3131:3158   */\n          slt\n            /* \"#utility.yul\":3121:3243   */\n          tag_146\n          jumpi\n            /* \"#utility.yul\":3162:3241   */\n          tag_147\n          tag_64\n          jump\t// in\n        tag_147:\n            /* \"#utility.yul\":3121:3243   */\n        tag_146:\n            /* \"#utility.yul\":3279:3285   */\n          dup2\n            /* \"#utility.yul\":3266:3286   */\n          calldataload\n            /* \"#utility.yul\":3304:3383   */\n          tag_148\n            /* \"#utility.yul\":3379:3382   */\n          dup5\n            /* \"#utility.yul\":3371:3377   */\n          dup3\n            /* \"#utility.yul\":3364:3368   */\n          0x20\n            /* \"#utility.yul\":3356:3362   */\n          dup7\n            /* \"#utility.yul\":3352:3369   */\n          add\n            /* \"#utility.yul\":3304:3383   */\n          tag_72\n          jump\t// in\n        tag_148:\n            /* \"#utility.yul\":3295:3383   */\n          swap2\n          pop\n            /* \"#utility.yul\":3111:3389   */\n          pop\n            /* \"#utility.yul\":3049:3389   */\n          swap3\n          swap2\n          pop\n          pop\n          jump\t// out\n            /* \"#utility.yul\":3395:4520   */\n        tag_12:\n            /* \"#utility.yul\":3501:3507   */\n          0x00\n            /* \"#utility.yul\":3509:3515   */\n          dup1\n            /* \"#utility.yul\":3517:3523   */\n          0x00\n            /* \"#utility.yul\":3525:3531   */\n          dup1\n            /* \"#utility.yul\":3574:3577   */\n          0x80\n            /* \"#utility.yul\":3562:3571   */\n          dup6\n            /* \"#utility.yul\":3553:3560   */\n          dup8\n            /* \"#utility.yul\":3549:3572   */\n          sub\n            /* \"#utility.yul\":3545:3578   */\n          slt\n            /* \"#utility.yul\":3542:3662   */\n          iszero\n          tag_150\n          jumpi\n            /* \"#utility.yul\":3581:3660   */\n          tag_151\n          tag_58\n          jump\t// in\n        tag_151:\n            /* \"#utility.yul\":3542:3662   */\n        tag_150:\n            /* \"#utility.yul\":3701:3702   */\n          0x00\n            /* \"#utility.yul\":3726:3779   */\n          tag_152\n            /* \"#utility.yul\":3771:3778   */\n          dup8\n            /* \"#utility.yul\":3762:3768   */\n          dup3\n            /* \"#utility.yul\":3751:3760   */\n          dup9\n            /* \"#utility.yul\":3747:3769   */\n          add\n            /* \"#utility.yul\":3726:3779   */\n          tag_63\n          jump\t// in\n        tag_152:\n            /* \"#utility.yul\":3716:3779   */\n          swap5\n          pop\n            /* \"#utility.yul\":3672:3789   */\n          pop\n            /* \"#utility.yul\":3856:3858   */\n          0x20\n            /* \"#utility.yul\":3845:3854   */\n          dup6\n            /* \"#utility.yul\":3841:3859   */\n          add\n            /* \"#utility.yul\":3828:3860   */\n          calldataload\n            /* \"#utility.yul\":3887:3905   */\n          0xffffffffffffffff\n            /* \"#utility.yul\":3879:3885   */\n          dup2\n            /* \"#utility.yul\":3876:3906   */\n          gt\n            /* \"#utility.yul\":3873:3990   */\n          iszero\n          tag_153\n          jumpi\n            /* \"#utility.yul\":3909:3988   */\n          tag_154\n          tag_59\n          jump\t// in\n        tag_154:\n            /* \"#utility.yul\":3873:3990   */\n        tag_153:\n            /* \"#utility.yul\":4014:4077   */\n          tag_155\n            /* \"#utility.yul\":4069:4076   */\n          dup8\n            /* \"#utility.yul\":4060:4066   */\n          dup3\n            /* \"#utility.yul\":4049:4058   */\n          dup9\n            /* \"#utility.yul\":4045:4067   */\n          add\n            /* \"#utility.yul\":4014:4077   */\n          tag_73\n          jump\t// in\n        tag_155:\n            /* \"#utility.yul\":4004:4077   */\n          swap4\n          pop\n            /* \"#utility.yul\":3799:4087   */\n          pop\n            /* \"#utility.yul\":4154:4156   */\n          0x40\n            /* \"#utility.yul\":4143:4152   */\n          dup6\n            /* \"#utility.yul\":4139:4157   */\n          add\n            /* \"#utility.yul\":4126:4158   */\n          calldataload\n            /* \"#utility.yul\":4185:4203   */\n          0xffffffffffffffff\n            /* \"#utility.yul\":4177:4183   */\n          dup2\n            /* \"#utility.yul\":4174:4204   */\n          gt\n            /* \"#utility.yul\":4171:4288   */\n          iszero\n          tag_156\n          jumpi\n            /* \"#utility.yul\":4207:4286   */\n          tag_157\n          tag_59\n          jump\t// in\n        tag_157:\n            /* \"#utility.yul\":4171:4288   */\n        tag_156:\n            /* \"#utility.yul\":4312:4375   */\n          tag_158\n            /* \"#utility.yul\":4367:4374   */\n          dup8\n            /* \"#utility.yul\":4358:4364   */\n          dup3\n            /* \"#utility.yul\":4347:4356   */\n          dup9\n            /* \"#utility.yul\":4343:4365   */\n          add\n            /* \"#utility.yul\":4312:4375   */\n          tag_73\n          jump\t// in\n        tag_158:\n            /* \"#utility.yul\":4302:4375   */\n          swap3\n          pop\n            /* \"#utility.yul\":4097:4385   */\n          pop\n            /* \"#utility.yul\":4424:4426   */\n          0x60\n            /* \"#utility.yul\":4450:4503   */\n          tag_159\n            /* \"#utility.yul\":4495:4502   */\n          dup8\n            /* \"#utility.yul\":4486:4492   */\n          dup3\n            /* \"#utility.yul\":4475:4484   */\n          dup9\n            /* \"#utility.yul\":4471:4493   */\n          add\n            /* \"#utility.yul\":4450:4503   */\n          tag_63\n          jump\t// in\n        tag_159:\n            /* \"#utility.yul\":4440:4503   */\n          swap2\n          pop\n            /* \"#utility.yul\":4395:4513   */\n          pop\n            /* \"#utility.yul\":3395:4520   */\n          swap3\n          swap6\n          swap2\n          swap5\n          pop\n          swap3\n          pop\n          jump\t// out\n            /* \"#utility.yul\":4526:4665   */\n        tag_74:\n            /* \"#utility.yul\":4618:4624   */\n          0x00\n            /* \"#utility.yul\":4652:4657   */\n          dup2\n            /* \"#utility.yul\":4646:4658   */\n          mload\n            /* \"#utility.yul\":4636:4658   */\n          swap1\n          pop\n            /* \"#utility.yul\":4526:4665   */\n          swap2\n          swap1\n          pop\n          jump\t// out\n            /* \"#utility.yul\":4671:4880   */\n        tag_75:\n            /* \"#utility.yul\":4795:4806   */\n          0x00\n            /* \"#utility.yul\":4829:4835   */\n          dup3\n            /* \"#utility.yul\":4824:4827   */\n          dup3\n            /* \"#utility.yul\":4817:4836   */\n          mstore\n            /* \"#utility.yul\":4869:4873   */\n          0x20\n            /* \"#utility.yul\":4864:4867   */\n          dup3\n            /* \"#utility.yul\":4860:4874   */\n          add\n            /* \"#utility.yul\":4845:4874   */\n          swap1\n          pop\n            /* \"#utility.yul\":4671:4880   */\n          swap3\n          swap2\n          pop\n          pop\n          jump\t// out\n            /* \"#utility.yul\":4886:5043   */\n        tag_76:\n            /* \"#utility.yul\":4978:4982   */\n          0x00\n            /* \"#utility.yul\":5001:5004   */\n          dup2\n            /* \"#utility.yul\":4993:5004   */\n          swap1\n          pop\n            /* \"#utility.yul\":5031:5035   */\n          0x20\n            /* \"#utility.yul\":5026:5029   */\n          dup3\n            /* \"#utility.yul\":5022:5036   */\n          add\n            /* \"#utility.yul\":5014:5036   */\n          swap1\n          pop\n            /* \"#utility.yul\":4886:5043   */\n          swap2\n          swap1\n          pop\n          jump\t// out\n            /* \"#utility.yul\":5049:5148   */\n        tag_77:\n            /* \"#utility.yul\":5101:5107   */\n          0x00\n            /* \"#utility.yul\":5135:5140   */\n          dup2\n            /* \"#utility.yul\":5129:5141   */\n          mload\n            /* \"#utility.yul\":5119:5141   */\n          swap1\n          pop\n            /* \"#utility.yul\":5049:5148   */\n          swap2\n          swap1\n          pop\n          jump\t// out\n            /* \"#utility.yul\":5154:5313   */\n        tag_78:\n            /* \"#utility.yul\":5228:5239   */\n          0x00\n            /* \"#utility.yul\":5262:5268   */\n          dup3\n            /* \"#utility.yul\":5257:5260   */\n          dup3\n            /* \"#utility.yul\":5250:5269   */\n          mstore\n            /* \"#utility.yul\":5302:5306   */\n          0x20\n            /* \"#utility.yul\":5297:5300   */\n          dup3\n            /* \"#utility.yul\":5293:5307   */\n          add\n            /* \"#utility.yul\":5278:5307   */\n          swap1\n          pop\n            /* \"#utility.yul\":5154:5313   */\n          swap3\n          swap2\n          pop\n          pop\n          jump\t// out\n            /* \"#utility.yul\":5319:5565   */\n        tag_79:\n            /* \"#utility.yul\":5400:5401   */\n          0x00\n            /* \"#utility.yul\":5410:5523   */\n        tag_166:\n            /* \"#utility.yul\":5424:5430   */\n          dup4\n            /* \"#utility.yul\":5421:5422   */\n          dup2\n            /* \"#utility.yul\":5418:5431   */\n          lt\n            /* \"#utility.yul\":5410:5523   */\n          iszero\n          tag_168\n          jumpi\n            /* \"#utility.yul\":5509:5510   */\n          dup1\n            /* \"#utility.yul\":5504:5507   */\n          dup3\n            /* \"#utility.yul\":5500:5511   */\n          add\n            /* \"#utility.yul\":5494:5512   */\n          mload\n            /* \"#utility.yul\":5490:5491   */\n          dup2\n            /* \"#utility.yul\":5485:5488   */\n          dup5\n            /* \"#utility.yul\":5481:5492   */\n          add\n            /* \"#utility.yul\":5474:5513   */\n          mstore\n            /* \"#utility.yul\":5446:5448   */\n          0x20\n            /* \"#utility.yul\":5443:5444   */\n          dup2\n            /* \"#utility.yul\":5439:5449   */\n          add\n            /* \"#utility.yul\":5434:5449   */\n          swap1\n          pop\n            /* \"#utility.yul\":5410:5523   */\n          jump(tag_166)\n        tag_168:\n            /* \"#utility.yul\":5557:5558   */\n          0x00\n            /* \"#utility.yul\":5548:5554   */\n          dup5\n            /* \"#utility.yul\":5543:5546   */\n          dup5\n            /* \"#utility.yul\":5539:5555   */\n          add\n            /* \"#utility.yul\":5532:5559   */\n          mstore\n            /* \"#utility.yul\":5381:5565   */\n          pop\n            /* \"#utility.yul\":5319:5565   */\n          pop\n          pop\n          pop\n          jump\t// out\n            /* \"#utility.yul\":5571:5928   */\n        tag_80:\n            /* \"#utility.yul\":5649:5652   */\n          0x00\n            /* \"#utility.yul\":5677:5716   */\n          tag_170\n            /* \"#utility.yul\":5710:5715   */\n          dup3\n            /* \"#utility.yul\":5677:5716   */\n          tag_77\n          jump\t// in\n        tag_170:\n            /* \"#utility.yul\":5732:5793   */\n          tag_171\n            /* \"#utility.yul\":5786:5792   */\n          dup2\n            /* \"#utility.yul\":5781:5784   */\n          dup6\n            /* \"#utility.yul\":5732:5793   */\n          tag_78\n          jump\t// in\n        tag_171:\n            /* \"#utility.yul\":5725:5793   */\n          swap4\n          pop\n            /* \"#utility.yul\":5802:5867   */\n          tag_172\n            /* \"#utility.yul\":5860:5866   */\n          dup2\n            /* \"#utility.yul\":5855:5858   */\n          dup6\n            /* \"#utility.yul\":5848:5852   */\n          0x20\n            /* \"#utility.yul\":5841:5846   */\n          dup7\n            /* \"#utility.yul\":5837:5853   */\n          add\n            /* \"#utility.yul\":5802:5867   */\n          tag_79\n          jump\t// in\n        tag_172:\n            /* \"#utility.yul\":5892:5921   */\n          tag_173\n            /* \"#utility.yul\":5914:5920   */\n          dup2\n            /* \"#utility.yul\":5892:5921   */\n          tag_66\n          jump\t// in\n        tag_173:\n            /* \"#utility.yul\":5887:5890   */\n          dup5\n            /* \"#utility.yul\":5883:5922   */\n          add\n            /* \"#utility.yul\":5876:5922   */\n          swap2\n          pop\n            /* \"#utility.yul\":5653:5928   */\n          pop\n            /* \"#utility.yul\":5571:5928   */\n          swap3\n          swap2\n          pop\n          pop\n          jump\t// out\n            /* \"#utility.yul\":5934:6042   */\n        tag_81:\n            /* \"#utility.yul\":6011:6035   */\n          tag_175\n            /* \"#utility.yul\":6029:6034   */\n          dup2\n            /* \"#utility.yul\":6011:6035   */\n          tag_61\n          jump\t// in\n        tag_175:\n            /* \"#utility.yul\":6006:6009   */\n          dup3\n            /* \"#utility.yul\":5999:6036   */\n          mstore\n            /* \"#utility.yul\":5934:6042   */\n          pop\n          pop\n          jump\t// out\n            /* \"#utility.yul\":6118:6959   */\n        tag_82:\n            /* \"#utility.yul\":6227:6230   */\n          0x00\n            /* \"#utility.yul\":6263:6267   */\n          0x60\n            /* \"#utility.yul\":6258:6261   */\n          dup4\n            /* \"#utility.yul\":6254:6268   */\n          add\n            /* \"#utility.yul\":6350:6354   */\n          0x00\n            /* \"#utility.yul\":6343:6348   */\n          dup4\n            /* \"#utility.yul\":6339:6355   */\n          add\n            /* \"#utility.yul\":6333:6356   */\n          mload\n            /* \"#utility.yul\":6403:6406   */\n          dup5\n            /* \"#utility.yul\":6397:6401   */\n          dup3\n            /* \"#utility.yul\":6393:6407   */\n          sub\n            /* \"#utility.yul\":6386:6390   */\n          0x00\n            /* \"#utility.yul\":6381:6384   */\n          dup7\n            /* \"#utility.yul\":6377:6391   */\n          add\n            /* \"#utility.yul\":6370:6408   */\n          mstore\n            /* \"#utility.yul\":6429:6502   */\n          tag_177\n            /* \"#utility.yul\":6497:6501   */\n          dup3\n            /* \"#utility.yul\":6483:6495   */\n          dup3\n            /* \"#utility.yul\":6429:6502   */\n          tag_80\n          jump\t// in\n        tag_177:\n            /* \"#utility.yul\":6421:6502   */\n          swap2\n          pop\n            /* \"#utility.yul\":6278:6513   */\n          pop\n            /* \"#utility.yul\":6596:6600   */\n          0x20\n            /* \"#utility.yul\":6589:6594   */\n          dup4\n            /* \"#utility.yul\":6585:6601   */\n          add\n            /* \"#utility.yul\":6579:6602   */\n          mload\n            /* \"#utility.yul\":6649:6652   */\n          dup5\n            /* \"#utility.yul\":6643:6647   */\n          dup3\n            /* \"#utility.yul\":6639:6653   */\n          sub\n            /* \"#utility.yul\":6632:6636   */\n          0x20\n            /* \"#utility.yul\":6627:6630   */\n          dup7\n            /* \"#utility.yul\":6623:6637   */\n          add\n            /* \"#utility.yul\":6616:6654   */\n          mstore\n            /* \"#utility.yul\":6675:6748   */\n          tag_178\n            /* \"#utility.yul\":6743:6747   */\n          dup3\n            /* \"#utility.yul\":6729:6741   */\n          dup3\n            /* \"#utility.yul\":6675:6748   */\n          tag_80\n          jump\t// in\n        tag_178:\n            /* \"#utility.yul\":6667:6748   */\n          swap2\n          pop\n            /* \"#utility.yul\":6523:6759   */\n          pop\n            /* \"#utility.yul\":6840:6844   */\n          0x40\n            /* \"#utility.yul\":6833:6838   */\n          dup4\n            /* \"#utility.yul\":6829:6845   */\n          add\n            /* \"#utility.yul\":6823:6846   */\n          mload\n            /* \"#utility.yul\":6859:6922   */\n          tag_179\n            /* \"#utility.yul\":6916:6920   */\n          0x40\n            /* \"#utility.yul\":6911:6914   */\n          dup7\n            /* \"#utility.yul\":6907:6921   */\n          add\n            /* \"#utility.yul\":6893:6905   */\n          dup3\n            /* \"#utility.yul\":6859:6922   */\n          tag_81\n          jump\t// in\n        tag_179:\n            /* \"#utility.yul\":6769:6932   */\n          pop\n            /* \"#utility.yul\":6949:6953   */\n          dup1\n            /* \"#utility.yul\":6942:6953   */\n          swap2\n          pop\n            /* \"#utility.yul\":6232:6959   */\n          pop\n            /* \"#utility.yul\":6118:6959   */\n          swap3\n          swap2\n          pop\n          pop\n          jump\t// out\n            /* \"#utility.yul\":6965:7221   */\n        tag_83:\n            /* \"#utility.yul\":7084:7094   */\n          0x00\n            /* \"#utility.yul\":7119:7215   */\n          tag_181\n            /* \"#utility.yul\":7211:7214   */\n          dup4\n            /* \"#utility.yul\":7203:7209   */\n          dup4\n            /* \"#utility.yul\":7119:7215   */\n          tag_82\n          jump\t// in\n        tag_181:\n            /* \"#utility.yul\":7105:7215   */\n          swap1\n          pop\n            /* \"#utility.yul\":6965:7221   */\n          swap3\n          swap2\n          pop\n          pop\n          jump\t// out\n            /* \"#utility.yul\":7227:7365   */\n        tag_84:\n            /* \"#utility.yul\":7322:7326   */\n          0x00\n            /* \"#utility.yul\":7354:7358   */\n          0x20\n            /* \"#utility.yul\":7349:7352   */\n          dup3\n            /* \"#utility.yul\":7345:7359   */\n          add\n            /* \"#utility.yul\":7337:7359   */\n          swap1\n          pop\n            /* \"#utility.yul\":7227:7365   */\n          swap2\n          swap1\n          pop\n          jump\t// out\n            /* \"#utility.yul\":7445:8556   */\n        tag_85:\n            /* \"#utility.yul\":7614:7617   */\n          0x00\n            /* \"#utility.yul\":7643:7722   */\n          tag_184\n            /* \"#utility.yul\":7716:7721   */\n          dup3\n            /* \"#utility.yul\":7643:7722   */\n          tag_74\n          jump\t// in\n        tag_184:\n            /* \"#utility.yul\":7738:7849   */\n          tag_185\n            /* \"#utility.yul\":7842:7848   */\n          dup2\n            /* \"#utility.yul\":7837:7840   */\n          dup6\n            /* \"#utility.yul\":7738:7849   */\n          tag_75\n          jump\t// in\n        tag_185:\n            /* \"#utility.yul\":7731:7849   */\n          swap4\n          pop\n            /* \"#utility.yul\":7875:7878   */\n          dup4\n            /* \"#utility.yul\":7920:7924   */\n          0x20\n            /* \"#utility.yul\":7912:7918   */\n          dup3\n            /* \"#utility.yul\":7908:7925   */\n          mul\n            /* \"#utility.yul\":7903:7906   */\n          dup6\n            /* \"#utility.yul\":7899:7926   */\n          add\n            /* \"#utility.yul\":7950:8031   */\n          tag_186\n            /* \"#utility.yul\":8025:8030   */\n          dup6\n            /* \"#utility.yul\":7950:8031   */\n          tag_76\n          jump\t// in\n        tag_186:\n            /* \"#utility.yul\":8054:8061   */\n          dup1\n            /* \"#utility.yul\":8085:8086   */\n          0x00\n            /* \"#utility.yul\":8070:8511   */\n        tag_187:\n            /* \"#utility.yul\":8095:8101   */\n          dup6\n            /* \"#utility.yul\":8092:8093   */\n          dup2\n            /* \"#utility.yul\":8089:8102   */\n          lt\n            /* \"#utility.yul\":8070:8511   */\n          iszero\n          tag_189\n          jumpi\n            /* \"#utility.yul\":8166:8175   */\n          dup5\n            /* \"#utility.yul\":8160:8164   */\n          dup5\n            /* \"#utility.yul\":8156:8176   */\n          sub\n            /* \"#utility.yul\":8151:8154   */\n          dup10\n            /* \"#utility.yul\":8144:8177   */\n          mstore\n            /* \"#utility.yul\":8217:8223   */\n          dup2\n            /* \"#utility.yul\":8211:8224   */\n          mload\n            /* \"#utility.yul\":8245:8359   */\n          tag_190\n            /* \"#utility.yul\":8354:8358   */\n          dup6\n            /* \"#utility.yul\":8339:8352   */\n          dup3\n            /* \"#utility.yul\":8245:8359   */\n          tag_83\n          jump\t// in\n        tag_190:\n            /* \"#utility.yul\":8237:8359   */\n          swap5\n          pop\n            /* \"#utility.yul\":8382:8467   */\n          tag_191\n            /* \"#utility.yul\":8460:8466   */\n          dup4\n            /* \"#utility.yul\":8382:8467   */\n          tag_84\n          jump\t// in\n        tag_191:\n            /* \"#utility.yul\":8372:8467   */\n          swap3\n          pop\n            /* \"#utility.yul\":8496:8500   */\n          0x20\n            /* \"#utility.yul\":8491:8494   */\n          dup11\n            /* \"#utility.yul\":8487:8501   */\n          add\n            /* \"#utility.yul\":8480:8501   */\n          swap10\n          pop\n            /* \"#utility.yul\":8130:8511   */\n          pop\n            /* \"#utility.yul\":8117:8118   */\n          0x01\n            /* \"#utility.yul\":8114:8115   */\n          dup2\n            /* \"#utility.yul\":8110:8119   */\n          add\n            /* \"#utility.yul\":8105:8119   */\n          swap1\n          pop\n            /* \"#utility.yul\":8070:8511   */\n          jump(tag_187)\n        tag_189:\n            /* \"#utility.yul\":8074:8088   */\n          pop\n            /* \"#utility.yul\":8527:8531   */\n          dup3\n            /* \"#utility.yul\":8520:8531   */\n          swap8\n          pop\n            /* \"#utility.yul\":8547:8550   */\n          dup8\n            /* \"#utility.yul\":8540:8550   */\n          swap6\n          pop\n            /* \"#utility.yul\":7619:8556   */\n          pop\n          pop\n          pop\n          pop\n          pop\n            /* \"#utility.yul\":7445:8556   */\n          swap3\n          swap2\n          pop\n          pop\n          jump\t// out\n            /* \"#utility.yul\":8562:9035   */\n        tag_18:\n            /* \"#utility.yul\":8755:8759   */\n          0x00\n            /* \"#utility.yul\":8793:8795   */\n          0x20\n            /* \"#utility.yul\":8782:8791   */\n          dup3\n            /* \"#utility.yul\":8778:8796   */\n          add\n            /* \"#utility.yul\":8770:8796   */\n          swap1\n          pop\n            /* \"#utility.yul\":8842:8851   */\n          dup2\n            /* \"#utility.yul\":8836:8840   */\n          dup2\n            /* \"#utility.yul\":8832:8852   */\n          sub\n            /* \"#utility.yul\":8828:8829   */\n          0x00\n            /* \"#utility.yul\":8817:8826   */\n          dup4\n            /* \"#utility.yul\":8813:8830   */\n          add\n            /* \"#utility.yul\":8806:8853   */\n          mstore\n            /* \"#utility.yul\":8870:9028   */\n          tag_193\n            /* \"#utility.yul\":9023:9027   */\n          dup2\n            /* \"#utility.yul\":9014:9020   */\n          dup5\n            /* \"#utility.yul\":8870:9028   */\n          tag_85\n          jump\t// in\n        tag_193:\n            /* \"#utility.yul\":8862:9028   */\n          swap1\n          pop\n            /* \"#utility.yul\":8562:9035   */\n          swap3\n          swap2\n          pop\n          pop\n          jump\t// out\n            /* \"#utility.yul\":9041:9159   */\n        tag_86:\n            /* \"#utility.yul\":9128:9152   */\n          tag_195\n            /* \"#utility.yul\":9146:9151   */\n          dup2\n            /* \"#utility.yul\":9128:9152   */\n          tag_61\n          jump\t// in\n        tag_195:\n            /* \"#utility.yul\":9123:9126   */\n          dup3\n            /* \"#utility.yul\":9116:9153   */\n          mstore\n            /* \"#utility.yul\":9041:9159   */\n          pop\n          pop\n          jump\t// out\n            /* \"#utility.yul\":9165:9387   */\n        tag_23:\n            /* \"#utility.yul\":9258:9262   */\n          0x00\n            /* \"#utility.yul\":9296:9298   */\n          0x20\n            /* \"#utility.yul\":9285:9294   */\n          dup3\n            /* \"#utility.yul\":9281:9299   */\n          add\n            /* \"#utility.yul\":9273:9299   */\n          swap1\n          pop\n            /* \"#utility.yul\":9309:9380   */\n          tag_197\n            /* \"#utility.yul\":9377:9378   */\n          0x00\n            /* \"#utility.yul\":9366:9375   */\n          dup4\n            /* \"#utility.yul\":9362:9379   */\n          add\n            /* \"#utility.yul\":9353:9359   */\n          dup5\n            /* \"#utility.yul\":9309:9380   */\n          tag_86\n          jump\t// in\n        tag_197:\n            /* \"#utility.yul\":9165:9387   */\n          swap3\n          swap2\n          pop\n          pop\n          jump\t// out\n            /* \"#utility.yul\":9393:9483   */\n        tag_87:\n            /* \"#utility.yul\":9427:9434   */\n          0x00\n            /* \"#utility.yul\":9470:9475   */\n          dup2\n            /* \"#utility.yul\":9463:9476   */\n          iszero\n            /* \"#utility.yul\":9456:9477   */\n          iszero\n            /* \"#utility.yul\":9445:9477   */\n          swap1\n          pop\n            /* \"#utility.yul\":9393:9483   */\n          swap2\n          swap1\n          pop\n          jump\t// out\n            /* \"#utility.yul\":9489:9605   */\n        tag_88:\n            /* \"#utility.yul\":9559:9580   */\n          tag_200\n            /* \"#utility.yul\":9574:9579   */\n          dup2\n            /* \"#utility.yul\":9559:9580   */\n          tag_87\n          jump\t// in\n        tag_200:\n            /* \"#utility.yul\":9552:9557   */\n          dup2\n            /* \"#utility.yul\":9549:9581   */\n          eq\n            /* \"#utility.yul\":9539:9599   */\n          tag_201\n          jumpi\n            /* \"#utility.yul\":9595:9596   */\n          0x00\n            /* \"#utility.yul\":9592:9593   */\n          dup1\n            /* \"#utility.yul\":9585:9597   */\n          revert\n            /* \"#utility.yul\":9539:9599   */\n        tag_201:\n            /* \"#utility.yul\":9489:9605   */\n          pop\n          jump\t// out\n            /* \"#utility.yul\":9611:9748   */\n        tag_89:\n            /* \"#utility.yul\":9665:9670   */\n          0x00\n            /* \"#utility.yul\":9696:9702   */\n          dup2\n            /* \"#utility.yul\":9690:9703   */\n          mload\n            /* \"#utility.yul\":9681:9703   */\n          swap1\n          pop\n            /* \"#utility.yul\":9712:9742   */\n          tag_203\n            /* \"#utility.yul\":9736:9741   */\n          dup2\n            /* \"#utility.yul\":9712:9742   */\n          tag_88\n          jump\t// in\n        tag_203:\n            /* \"#utility.yul\":9611:9748   */\n          swap3\n          swap2\n          pop\n          pop\n          jump\t// out\n            /* \"#utility.yul\":9754:10099   */\n        tag_27:\n            /* \"#utility.yul\":9821:9827   */\n          0x00\n            /* \"#utility.yul\":9870:9872   */\n          0x20\n            /* \"#utility.yul\":9858:9867   */\n          dup3\n            /* \"#utility.yul\":9849:9856   */\n          dup5\n            /* \"#utility.yul\":9845:9868   */\n          sub\n            /* \"#utility.yul\":9841:9873   */\n          slt\n            /* \"#utility.yul\":9838:9957   */\n          iszero\n          tag_205\n          jumpi\n            /* \"#utility.yul\":9876:9955   */\n          tag_206\n          tag_58\n          jump\t// in\n        tag_206:\n            /* \"#utility.yul\":9838:9957   */\n        tag_205:\n            /* \"#utility.yul\":9996:9997   */\n          0x00\n            /* \"#utility.yul\":10021:10082   */\n          tag_207\n            /* \"#utility.yul\":10074:10081   */\n          dup5\n            /* \"#utility.yul\":10065:10071   */\n          dup3\n            /* \"#utility.yul\":10054:10063   */\n          dup6\n            /* \"#utility.yul\":10050:10072   */\n          add\n            /* \"#utility.yul\":10021:10082   */\n          tag_89\n          jump\t// in\n        tag_207:\n            /* \"#utility.yul\":10011:10082   */\n          swap2\n          pop\n            /* \"#utility.yul\":9967:10092   */\n          pop\n            /* \"#utility.yul\":9754:10099   */\n          swap3\n          swap2\n          pop\n          pop\n          jump\t// out\n            /* \"#utility.yul\":10105:10285   */\n        tag_90:\n            /* \"#utility.yul\":10153:10230   */\n          0x4e487b7100000000000000000000000000000000000000000000000000000000\n            /* \"#utility.yul\":10150:10151   */\n          0x00\n            /* \"#utility.yul\":10143:10231   */\n          mstore\n            /* \"#utility.yul\":10250:10254   */\n          0x22\n            /* \"#utility.yul\":10247:10248   */\n          0x04\n            /* \"#utility.yul\":10240:10255   */\n          mstore\n            /* \"#utility.yul\":10274:10278   */\n          0x24\n            /* \"#utility.yul\":10271:10272   */\n          0x00\n            /* \"#utility.yul\":10264:10279   */\n          revert\n            /* \"#utility.yul\":10291:10611   */\n        tag_47:\n            /* \"#utility.yul\":10335:10341   */\n          0x00\n            /* \"#utility.yul\":10372:10373   */\n          0x02\n            /* \"#utility.yul\":10366:10370   */\n          dup3\n            /* \"#utility.yul\":10362:10374   */\n          div\n            /* \"#utility.yul\":10352:10374   */\n          swap1\n          pop\n            /* \"#utility.yul\":10419:10420   */\n          0x01\n            /* \"#utility.yul\":10413:10417   */\n          dup3\n            /* \"#utility.yul\":10409:10421   */\n          and\n            /* \"#utility.yul\":10440:10458   */\n          dup1\n            /* \"#utility.yul\":10430:10511   */\n          tag_210\n          jumpi\n            /* \"#utility.yul\":10496:10500   */\n          0x7f\n            /* \"#utility.yul\":10488:10494   */\n          dup3\n            /* \"#utility.yul\":10484:10501   */\n          and\n            /* \"#utility.yul\":10474:10501   */\n          swap2\n          pop\n            /* \"#utility.yul\":10430:10511   */\n        tag_210:\n            /* \"#utility.yul\":10558:10560   */\n          0x20\n            /* \"#utility.yul\":10550:10556   */\n          dup3\n            /* \"#utility.yul\":10547:10561   */\n          lt\n            /* \"#utility.yul\":10527:10545   */\n          dup2\n            /* \"#utility.yul\":10524:10562   */\n          sub\n            /* \"#utility.yul\":10521:10605   */\n          tag_211\n          jumpi\n            /* \"#utility.yul\":10577:10595   */\n          tag_212\n          tag_90\n          jump\t// in\n        tag_212:\n            /* \"#utility.yul\":10521:10605   */\n        tag_211:\n            /* \"#utility.yul\":10342:10611   */\n          pop\n            /* \"#utility.yul\":10291:10611   */\n          swap2\n          swap1\n          pop\n          jump\t// out\n            /* \"#utility.yul\":10617:10758   */\n        tag_91:\n            /* \"#utility.yul\":10666:10670   */\n          0x00\n            /* \"#utility.yul\":10689:10692   */\n          dup2\n            /* \"#utility.yul\":10681:10692   */\n          swap1\n          pop\n            /* \"#utility.yul\":10712:10715   */\n          dup2\n            /* \"#utility.yul\":10709:10710   */\n          0x00\n            /* \"#utility.yul\":10702:10716   */\n          mstore\n            /* \"#utility.yul\":10746:10750   */\n          0x20\n            /* \"#utility.yul\":10743:10744   */\n          0x00\n            /* \"#utility.yul\":10733:10751   */\n          keccak256\n            /* \"#utility.yul\":10725:10751   */\n          swap1\n          pop\n            /* \"#utility.yul\":10617:10758   */\n          swap2\n          swap1\n          pop\n          jump\t// out\n            /* \"#utility.yul\":10764:10857   */\n        tag_92:\n            /* \"#utility.yul\":10801:10807   */\n          0x00\n            /* \"#utility.yul\":10848:10850   */\n          0x20\n            /* \"#utility.yul\":10843:10845   */\n          0x1f\n            /* \"#utility.yul\":10836:10841   */\n          dup4\n            /* \"#utility.yul\":10832:10846   */\n          add\n            /* \"#utility.yul\":10828:10851   */\n          div\n            /* \"#utility.yul\":10818:10851   */\n          swap1\n          pop\n            /* \"#utility.yul\":10764:10857   */\n          swap2\n          swap1\n          pop\n          jump\t// out\n            /* \"#utility.yul\":10863:10970   */\n        tag_93:\n            /* \"#utility.yul\":10907:10915   */\n          0x00\n            /* \"#utility.yul\":10957:10962   */\n          dup3\n            /* \"#utility.yul\":10951:10955   */\n          dup3\n            /* \"#utility.yul\":10947:10963   */\n          shl\n            /* \"#utility.yul\":10926:10963   */\n          swap1\n          pop\n            /* \"#utility.yul\":10863:10970   */\n          swap3\n          swap2\n          pop\n          pop\n          jump\t// out\n            /* \"#utility.yul\":10976:11369   */\n        tag_94:\n            /* \"#utility.yul\":11045:11051   */\n          0x00\n            /* \"#utility.yul\":11095:11096   */\n          0x08\n            /* \"#utility.yul\":11083:11093   */\n          dup4\n            /* \"#utility.yul\":11079:11097   */\n          mul\n            /* \"#utility.yul\":11118:11215   */\n          tag_217\n            /* \"#utility.yul\":11148:11214   */\n          0xffffffffffffffffffffffffffffffffffffffffffffffffffffffffffffffff\n            /* \"#utility.yul\":11137:11146   */\n          dup3\n            /* \"#utility.yul\":11118:11215   */\n          tag_93\n          jump\t// in\n        tag_217:\n            /* \"#utility.yul\":11236:11275   */\n          tag_218\n            /* \"#utility.yul\":11266:11274   */\n          dup7\n            /* \"#utility.yul\":11255:11264   */\n          dup4\n            /* \"#utility.yul\":11236:11275   */\n          tag_93\n          jump\t// in\n        tag_218:\n            /* \"#utility.yul\":11224:11275   */\n          swap6\n          pop\n            /* \"#utility.yul\":11308:11312   */\n          dup1\n            /* \"#utility.yul\":11304:11313   */\n          not\n            /* \"#utility.yul\":11297:11302   */\n          dup5\n            /* \"#utility.yul\":11293:11314   */\n          and\n            /* \"#utility.yul\":11284:11314   */\n          swap4\n          pop\n            /* \"#utility.yul\":11357:11361   */\n          dup1\n            /* \"#utility.yul\":11347:11355   */\n          dup7\n            /* \"#utility.yul\":11343:11362   */\n          and\n            /* \"#utility.yul\":11336:11341   */\n          dup5\n            /* \"#utility.yul\":11333:11363   */\n          or\n            /* \"#utility.yul\":11323:11363   */\n          swap3\n          pop\n            /* \"#utility.yul\":11052:11369   */\n          pop\n          pop\n            /* \"#utility.yul\":10976:11369   */\n          swap4\n          swap3\n          pop\n          pop\n          pop\n          jump\t// out\n            /* \"#utility.yul\":11375:11452   */\n        tag_95:\n            /* \"#utility.yul\":11412:11419   */\n          0x00\n            /* \"#utility.yul\":11441:11446   */\n          dup2\n            /* \"#utility.yul\":11430:11446   */\n          swap1\n          pop\n            /* \"#utility.yul\":11375:11452   */\n          swap2\n          swap1\n          pop\n          jump\t// out\n            /* \"#utility.yul\":11458:11518   */\n        tag_96:\n            /* \"#utility.yul\":11486:11489   */\n          0x00\n            /* \"#utility.yul\":11507:11512   */\n          dup2\n            /* \"#utility.yul\":11500:11512   */\n          swap1\n          pop\n            /* \"#utility.yul\":11458:11518   */\n          swap2\n          swap1\n          pop\n          jump\t// out\n            /* \"#utility.yul\":11524:11666   */\n        tag_97:\n            /* \"#utility.yul\":11574:11583   */\n          0x00\n            /* \"#utility.yul\":11607:11660   */\n          tag_222\n            /* \"#utility.yul\":11625:11659   */\n          tag_223\n            /* \"#utility.yul\":11634:11658   */\n          tag_224\n            /* \"#utility.yul\":11652:11657   */\n          dup5\n            /* \"#utility.yul\":11634:11658   */\n          tag_95\n          jump\t// in\n        tag_224:\n            /* \"#utility.yul\":11625:11659   */\n          tag_96\n          jump\t// in\n        tag_223:\n            /* \"#utility.yul\":11607:11660   */\n          tag_95\n          jump\t// in\n        tag_222:\n            /* \"#utility.yul\":11594:11660   */\n          swap1\n          pop\n            /* \"#utility.yul\":11524:11666   */\n          swap2\n          swap1\n          pop\n          jump\t// out\n            /* \"#utility.yul\":11672:11747   */\n        tag_98:\n            /* \"#utility.yul\":11715:11718   */\n          0x00\n            /* \"#utility.yul\":11736:11741   */\n          dup2\n            /* \"#utility.yul\":11729:11741   */\n          swap1\n          pop\n            /* \"#utility.yul\":11672:11747   */\n          swap2\n          swap1\n          pop\n          jump\t// out\n            /* \"#utility.yul\":11753:12022   */\n        tag_99:\n            /* \"#utility.yul\":11863:11902   */\n          tag_227\n            /* \"#utility.yul\":11894:11901   */\n          dup4\n            /* \"#utility.yul\":11863:11902   */\n          tag_97\n          jump\t// in\n        tag_227:\n            /* \"#utility.yul\":11924:12015   */\n          tag_228\n            /* \"#utility.yul\":11973:12014   */\n          tag_229\n            /* \"#utility.yul\":11997:12013   */\n          dup3\n            /* \"#utility.yul\":11973:12014   */\n          tag_98\n          jump\t// in\n        tag_229:\n            /* \"#utility.yul\":11965:11971   */\n          dup5\n            /* \"#utility.yul\":11958:11962   */\n          dup5\n            /* \"#utility.yul\":11952:11963   */\n          sload\n            /* \"#utility.yul\":11924:12015   */\n          tag_94\n          jump\t// in\n        tag_228:\n            /* \"#utility.yul\":11918:11922   */\n          dup3\n            /* \"#utility.yul\":11911:12016   */\n          sstore\n            /* \"#utility.yul\":11829:12022   */\n          pop\n            /* \"#utility.yul\":11753:12022   */\n          pop\n          pop\n          pop\n          jump\t// out\n            /* \"#utility.yul\":12028:12101   */\n        tag_100:\n            /* \"#utility.yul\":12073:12076   */\n          0x00\n            /* \"#utility.yul\":12028:12101   */\n          swap1\n          jump\t// out\n            /* \"#utility.yul\":12107:12296   */\n        tag_101:\n            /* \"#utility.yul\":12184:12216   */\n          tag_232\n          tag_100\n          jump\t// in\n        tag_232:\n            /* \"#utility.yul\":12225:12290   */\n          tag_233\n            /* \"#utility.yul\":12283:12289   */\n          dup2\n            /* \"#utility.yul\":12275:12281   */\n          dup5\n            /* \"#utility.yul\":12269:12273   */\n          dup5\n            /* \"#utility.yul\":12225:12290   */\n          tag_99\n          jump\t// in\n        tag_233:\n            /* \"#utility.yul\":12160:12296   */\n          pop\n            /* \"#utility.yul\":12107:12296   */\n          pop\n          pop\n          jump\t// out\n            /* \"#utility.yul\":12302:12488   */\n        tag_102:\n            /* \"#utility.yul\":12362:12482   */\n        tag_235:\n            /* \"#utility.yul\":12379:12382   */\n          dup2\n            /* \"#utility.yul\":12372:12377   */\n          dup2\n            /* \"#utility.yul\":12369:12383   */\n          lt\n            /* \"#utility.yul\":12362:12482   */\n          iszero\n          tag_237\n          jumpi\n            /* \"#utility.yul\":12433:12472   */\n          tag_238\n            /* \"#utility.yul\":12470:12471   */\n          0x00\n            /* \"#utility.yul\":12463:12468   */\n          dup3\n            /* \"#utility.yul\":12433:12472   */\n          tag_101\n          jump\t// in\n        tag_238:\n            /* \"#utility.yul\":12406:12407   */\n          0x01\n            /* \"#utility.yul\":12399:12404   */\n          dup2\n            /* \"#utility.yul\":12395:12408   */\n          add\n            /* \"#utility.yul\":12386:12408   */\n          swap1\n          pop\n            /* \"#utility.yul\":12362:12482   */\n          jump(tag_235)\n        tag_237:\n            /* \"#utility.yul\":12302:12488   */\n          pop\n          pop\n          jump\t// out\n            /* \"#utility.yul\":12494:13037   */\n        tag_103:\n            /* \"#utility.yul\":12595:12597   */\n          0x1f\n            /* \"#utility.yul\":12590:12593   */\n          dup3\n            /* \"#utility.yul\":12587:12598   */\n          gt\n            /* \"#utility.yul\":12584:13030   */\n          iszero\n          tag_240\n          jumpi\n            /* \"#utility.yul\":12629:12667   */\n          tag_241\n            /* \"#utility.yul\":12661:12666   */\n          dup2\n            /* \"#utility.yul\":12629:12667   */\n          tag_91\n          jump\t// in\n        tag_241:\n            /* \"#utility.yul\":12713:12742   */\n          tag_242\n            /* \"#utility.yul\":12731:12741   */\n          dup5\n            /* \"#utility.yul\":12713:12742   */\n          tag_92\n          jump\t// in\n        tag_242:\n            /* \"#utility.yul\":12703:12711   */\n          dup2\n            /* \"#utility.yul\":12699:12743   */\n          add\n            /* \"#utility.yul\":12896:12898   */\n          0x20\n            /* \"#utility.yul\":12884:12894   */\n          dup6\n            /* \"#utility.yul\":12881:12899   */\n          lt\n            /* \"#utility.yul\":12878:12927   */\n          iszero\n          tag_243\n          jumpi\n            /* \"#utility.yul\":12917:12925   */\n          dup2\n            /* \"#utility.yul\":12902:12925   */\n          swap1\n          pop\n            /* \"#utility.yul\":12878:12927   */\n        tag_243:\n            /* \"#utility.yul\":12940:13020   */\n          tag_244\n            /* \"#utility.yul\":12996:13018   */\n          tag_245\n            /* \"#utility.yul\":13014:13017   */\n          dup6\n            /* \"#utility.yul\":12996:13018   */\n          tag_92\n          jump\t// in\n        tag_245:\n            /* \"#utility.yul\":12986:12994   */\n          dup4\n            /* \"#utility.yul\":12982:13019   */\n          add\n            /* \"#utility.yul\":12969:12980   */\n          dup3\n            /* \"#utility.yul\":12940:13020   */\n          tag_102\n          jump\t// in\n        tag_244:\n            /* \"#utility.yul\":12599:13030   */\n          pop\n          pop\n            /* \"#utility.yul\":12584:13030   */\n        tag_240:\n            /* \"#utility.yul\":12494:13037   */\n          pop\n          pop\n          pop\n          jump\t// out\n            /* \"#utility.yul\":13043:13160   */\n        tag_104:\n            /* \"#utility.yul\":13097:13105   */\n          0x00\n            /* \"#utility.yul\":13147:13152   */\n          dup3\n            /* \"#utility.yul\":13141:13145   */\n          dup3\n            /* \"#utility.yul\":13137:13153   */\n          shr\n            /* \"#utility.yul\":13116:13153   */\n          swap1\n          pop\n            /* \"#utility.yul\":13043:13160   */\n          swap3\n          swap2\n          pop\n          pop\n          jump\t// out\n            /* \"#utility.yul\":13166:13335   */\n        tag_105:\n            /* \"#utility.yul\":13210:13216   */\n          0x00\n            /* \"#utility.yul\":13243:13294   */\n          tag_248\n            /* \"#utility.yul\":13291:13292   */\n          0x00\n            /* \"#utility.yul\":13287:13293   */\n          not\n            /* \"#utility.yul\":13279:13284   */\n          dup5\n            /* \"#utility.yul\":13276:13277   */\n          0x08\n            /* \"#utility.yul\":13272:13285   */\n          mul\n            /* \"#utility.yul\":13243:13294   */\n          tag_104\n          jump\t// in\n        tag_248:\n            /* \"#utility.yul\":13239:13295   */\n          not\n            /* \"#utility.yul\":13324:13328   */\n          dup1\n            /* \"#utility.yul\":13318:13322   */\n          dup4\n            /* \"#utility.yul\":13314:13329   */\n          and\n            /* \"#utility.yul\":13304:13329   */\n          swap2\n          pop\n            /* \"#utility.yul\":13217:13335   */\n          pop\n            /* \"#utility.yul\":13166:13335   */\n          swap3\n          swap2\n          pop\n          pop\n          jump\t// out\n            /* \"#utility.yul\":13340:13635   */\n        tag_106:\n            /* \"#utility.yul\":13416:13420   */\n          0x00\n            /* \"#utility.yul\":13562:13591   */\n          tag_250\n            /* \"#utility.yul\":13587:13590   */\n          dup4\n            /* \"#utility.yul\":13581:13585   */\n          dup4\n            /* \"#utility.yul\":13562:13591   */\n          tag_105\n          jump\t// in\n        tag_250:\n            /* \"#utility.yul\":13554:13591   */\n          swap2\n          pop\n            /* \"#utility.yul\":13624:13627   */\n          dup3\n            /* \"#utility.yul\":13621:13622   */\n          0x02\n            /* \"#utility.yul\":13617:13628   */\n          mul\n            /* \"#utility.yul\":13611:13615   */\n          dup3\n            /* \"#utility.yul\":13608:13629   */\n          or\n            /* \"#utility.yul\":13600:13629   */\n          swap1\n          pop\n            /* \"#utility.yul\":13340:13635   */\n          swap3\n          swap2\n          pop\n          pop\n          jump\t// out\n            /* \"#utility.yul\":13640:15035   */\n        tag_34:\n            /* \"#utility.yul\":13757:13794   */\n          tag_252\n            /* \"#utility.yul\":13790:13793   */\n          dup3\n            /* \"#utility.yul\":13757:13794   */\n          tag_77\n          jump\t// in\n        tag_252:\n            /* \"#utility.yul\":13859:13877   */\n          0xffffffffffffffff\n            /* \"#utility.yul\":13851:13857   */\n          dup2\n            /* \"#utility.yul\":13848:13878   */\n          gt\n            /* \"#utility.yul\":13845:13901   */\n          iszero\n          tag_253\n          jumpi\n            /* \"#utility.yul\":13881:13899   */\n          tag_254\n          tag_67\n          jump\t// in\n        tag_254:\n            /* \"#utility.yul\":13845:13901   */\n        tag_253:\n            /* \"#utility.yul\":13925:13963   */\n          tag_255\n            /* \"#utility.yul\":13957:13961   */\n          dup3\n            /* \"#utility.yul\":13951:13962   */\n          sload\n            /* \"#utility.yul\":13925:13963   */\n          tag_47\n          jump\t// in\n        tag_255:\n            /* \"#utility.yul\":14010:14077   */\n          tag_256\n            /* \"#utility.yul\":14070:14076   */\n          dup3\n            /* \"#utility.yul\":14062:14068   */\n          dup3\n            /* \"#utility.yul\":14056:14060   */\n          dup6\n            /* \"#utility.yul\":14010:14077   */\n          tag_103\n          jump\t// in\n        tag_256:\n            /* \"#utility.yul\":14104:14105   */\n          0x00\n            /* \"#utility.yul\":14128:14132   */\n          0x20\n            /* \"#utility.yul\":14115:14132   */\n          swap1\n          pop\n            /* \"#utility.yul\":14160:14162   */\n          0x1f\n            /* \"#utility.yul\":14152:14158   */\n          dup4\n            /* \"#utility.yul\":14149:14163   */\n          gt\n            /* \"#utility.yul\":14177:14178   */\n          0x01\n            /* \"#utility.yul\":14172:14790   */\n          dup2\n          eq\n          tag_258\n          jumpi\n            /* \"#utility.yul\":14834:14835   */\n          0x00\n            /* \"#utility.yul\":14851:14857   */\n          dup5\n            /* \"#utility.yul\":14848:14925   */\n          iszero\n          tag_259\n          jumpi\n            /* \"#utility.yul\":14900:14909   */\n          dup3\n            /* \"#utility.yul\":14895:14898   */\n          dup8\n            /* \"#utility.yul\":14891:14910   */\n          add\n            /* \"#utility.yul\":14885:14911   */\n          mload\n            /* \"#utility.yul\":14876:14911   */\n          swap1\n          pop\n            /* \"#utility.yul\":14848:14925   */\n        tag_259:\n            /* \"#utility.yul\":14951:15018   */\n          tag_260\n            /* \"#utility.yul\":15011:15017   */\n          dup6\n            /* \"#utility.yul\":15004:15009   */\n          dup3\n            /* \"#utility.yul\":14951:15018   */\n          tag_106\n          jump\t// in\n        tag_260:\n            /* \"#utility.yul\":14945:14949   */\n          dup7\n            /* \"#utility.yul\":14938:15019   */\n          sstore\n            /* \"#utility.yul\":14807:15029   */\n          pop\n            /* \"#utility.yul\":14142:15029   */\n          jump(tag_257)\n            /* \"#utility.yul\":14172:14790   */\n        tag_258:\n            /* \"#utility.yul\":14224:14228   */\n          0x1f\n            /* \"#utility.yul\":14220:14229   */\n          not\n            /* \"#utility.yul\":14212:14218   */\n          dup5\n            /* \"#utility.yul\":14208:14230   */\n          and\n            /* \"#utility.yul\":14258:14295   */\n          tag_261\n            /* \"#utility.yul\":14290:14294   */\n          dup7\n            /* \"#utility.yul\":14258:14295   */\n          tag_91\n          jump\t// in\n        tag_261:\n            /* \"#utility.yul\":14317:14318   */\n          0x00\n            /* \"#utility.yul\":14331:14539   */\n        tag_262:\n            /* \"#utility.yul\":14345:14352   */\n          dup3\n            /* \"#utility.yul\":14342:14343   */\n          dup2\n            /* \"#utility.yul\":14339:14353   */\n          lt\n            /* \"#utility.yul\":14331:14539   */\n          iszero\n          tag_264\n          jumpi\n            /* \"#utility.yul\":14424:14433   */\n          dup5\n            /* \"#utility.yul\":14419:14422   */\n          dup10\n            /* \"#utility.yul\":14415:14434   */\n          add\n            /* \"#utility.yul\":14409:14435   */\n          mload\n            /* \"#utility.yul\":14401:14407   */\n          dup3\n            /* \"#utility.yul\":14394:14436   */\n          sstore\n            /* \"#utility.yul\":14475:14476   */\n          0x01\n            /* \"#utility.yul\":14467:14473   */\n          dup3\n            /* \"#utility.yul\":14463:14477   */\n          add\n            /* \"#utility.yul\":14453:14477   */\n          swap2\n          pop\n            /* \"#utility.yul\":14522:14524   */\n          0x20\n            /* \"#utility.yul\":14511:14520   */\n          dup6\n            /* \"#utility.yul\":14507:14525   */\n          add\n            /* \"#utility.yul\":14494:14525   */\n          swap5\n          pop\n            /* \"#utility.yul\":14368:14372   */\n          0x20\n            /* \"#utility.yul\":14365:14366   */\n          dup2\n            /* \"#utility.yul\":14361:14373   */\n          add\n            /* \"#utility.yul\":14356:14373   */\n          swap1\n          pop\n            /* \"#utility.yul\":14331:14539   */\n          jump(tag_262)\n        tag_264:\n            /* \"#utility.yul\":14567:14573   */\n          dup7\n            /* \"#utility.yul\":14558:14565   */\n          dup4\n            /* \"#utility.yul\":14555:14574   */\n          lt\n            /* \"#utility.yul\":14552:14731   */\n          iszero\n          tag_265\n          jumpi\n            /* \"#utility.yul\":14625:14634   */\n          dup5\n            /* \"#utility.yul\":14620:14623   */\n          dup10\n            /* \"#utility.yul\":14616:14635   */\n          add\n            /* \"#utility.yul\":14610:14636   */\n          mload\n            /* \"#utility.yul\":14668:14716   */\n          tag_266\n            /* \"#utility.yul\":14710:14714   */\n          0x1f\n            /* \"#utility.yul\":14702:14708   */\n          dup10\n            /* \"#utility.yul\":14698:14715   */\n          and\n            /* \"#utility.yul\":14687:14696   */\n          dup3\n            /* \"#utility.yul\":14668:14716   */\n          tag_105\n          jump\t// in\n        tag_266:\n            /* \"#utility.yul\":14660:14666   */\n          dup4\n            /* \"#utility.yul\":14653:14717   */\n          sstore\n            /* \"#utility.yul\":14575:14731   */\n          pop\n            /* \"#utility.yul\":14552:14731   */\n        tag_265:\n            /* \"#utility.yul\":14777:14778   */\n          0x01\n            /* \"#utility.yul\":14773:14774   */\n          0x02\n            /* \"#utility.yul\":14765:14771   */\n          dup9\n            /* \"#utility.yul\":14761:14775   */\n          mul\n            /* \"#utility.yul\":14757:14779   */\n          add\n            /* \"#utility.yul\":14751:14755   */\n          dup9\n            /* \"#utility.yul\":14744:14780   */\n          sstore\n            /* \"#utility.yul\":14179:14790   */\n          pop\n          pop\n          pop\n            /* \"#utility.yul\":14142:15029   */\n        tag_257:\n          pop\n            /* \"#utility.yul\":13732:15035   */\n          pop\n          pop\n          pop\n            /* \"#utility.yul\":13640:15035   */\n          pop\n          pop\n          jump\t// out\n\n        auxdata: 0xa264697066735822122030867f06d6afe80cf87c4be4fc5222f7e1581162085283cbbd62f52c9f5baabb64736f6c63430008110033\n    }\n}\n","bytecode":{"linkReferences":{},"object":"60806040523480156200001157600080fd5b5033600160006101000a81548173ffffffffffffffffffffffffffffffffffffffff021916908373ffffffffffffffffffffffffffffffffffffffff160217905550600033604051620000649062000571565b620000709190620005ee565b604051809103906000f0801580156200008d573d6000803e3d6000fd5b5090506000604051620000a09062000666565b908152602001604051809103902060405180604001604052806040518060400160405280600e81526020017f4d65646963616c5265636f72647300000000000000000000000000000000000081525081526020018373ffffffffffffffffffffffffffffffffffffffff16815250908060018154018082558091505060019003906000526020600020906002020160009091909190915060008201518160000190816200014e9190620008f7565b5060208201518160010160006101000a81548173ffffffffffffffffffffffffffffffffffffffff021916908373ffffffffffffffffffffffffffffffffffffffff1602179055505050600033604051620001a9906200057f565b620001b59190620005ee565b604051809103906000f080158015620001d2573d6000803e3d6000fd5b5090506000604051620001e59062000666565b908152602001604051809103902060405180604001604052806040518060400160405280601281526020017f50617469656e745665726966696361746f72000000000000000000000000000081525081526020018373ffffffffffffffffffffffffffffffffffffffff1681525090806001815401808255809150506001900390600052602060002090600202016000909190919091506000820151816000019081620002939190620008f7565b5060208201518160010160006101000a81548173ffffffffffffffffffffffffffffffffffffffff021916908373ffffffffffffffffffffffffffffffffffffffff1602179055505050600033604051620002ee906200058d565b620002fa9190620005ee565b604051809103906000f08015801562000317573d6000803e3d6000fd5b50905060006040516200032a9062000666565b908152602001604051809103902060405180604001604052806040518060400160405280601181526020017f446f63746f725665726966696361746f7200000000000000000000000000000081525081526020018373ffffffffffffffffffffffffffffffffffffffff1681525090806001815401808255809150506001900390600052602060002090600202016000909190919091506000820151816000019081620003d89190620008f7565b5060208201518160010160006101000a81548173ffffffffffffffffffffffffffffffffffffffff021916908373ffffffffffffffffffffffffffffffffffffffff160217905550505060003360405162000433906200059b565b6200043f9190620005ee565b604051809103906000f0801580156200045c573d6000803e3d6000fd5b50905060006040516200046f9062000666565b908152602001604051809103902060405180604001604052806040518060400160405280600e81526020017f446f63746f7252656c6174696f6e00000000000000000000000000000000000081525081526020018373ffffffffffffffffffffffffffffffffffffffff16815250908060018154018082558091505060019003906000526020600020906002020160009091909190915060008201518160000190816200051d9190620008f7565b5060208201518160010160006101000a81548173ffffffffffffffffffffffffffffffffffffffff021916908373ffffffffffffffffffffffffffffffffffffffff160217905550505050505050620009de565b614f1280620010f383390190565b610600806200600583390190565b61065d806200660583390190565b610f2f8062006c6283390190565b600073ffffffffffffffffffffffffffffffffffffffff82169050919050565b6000620005d682620005a9565b9050919050565b620005e881620005c9565b82525050565b6000602082019050620006056000830184620005dd565b92915050565b600081905092915050565b7f7365637265740000000000000000000000000000000000000000000000000000600082015250565b60006200064e6006836200060b565b91506200065b8262000616565b600682019050919050565b600062000673826200063f565b9150819050919050565b600081519050919050565b7f4e487b7100000000000000000000000000000000000000000000000000000000600052604160045260246000fd5b7f4e487b7100000000000000000000000000000000000000000000000000000000600052602260045260246000fd5b60006002820490506001821680620006ff57607f821691505b602082108103620007155762000714620006b7565b5b50919050565b60008190508160005260206000209050919050565b60006020601f8301049050919050565b600082821b905092915050565b6000600883026200077f7fffffffffffffffffffffffffffffffffffffffffffffffffffffffffffffffff8262000740565b6200078b868362000740565b95508019841693508086168417925050509392505050565b6000819050919050565b6000819050919050565b6000620007d8620007d2620007cc84620007a3565b620007ad565b620007a3565b9050919050565b6000819050919050565b620007f483620007b7565b6200080c6200080382620007df565b8484546200074d565b825550505050565b600090565b6200082362000814565b62000830818484620007e9565b505050565b5b8181101562000858576200084c60008262000819565b60018101905062000836565b5050565b601f821115620008a75762000871816200071b565b6200087c8462000730565b810160208510156200088c578190505b620008a46200089b8562000730565b83018262000835565b50505b505050565b600082821c905092915050565b6000620008cc60001984600802620008ac565b1980831691505092915050565b6000620008e78383620008b9565b9150826002028217905092915050565b62000902826200067d565b67ffffffffffffffff8111156200091e576200091d62000688565b5b6200092a8254620006e6565b620009378282856200085c565b600060209050601f8311600181146200096f57600084156200095a578287015190505b620009668582620008d9565b865550620009d6565b601f1984166200097f866200071b565b60005b82811015620009a95784890151825560018201915060208501945060208101905062000982565b86831015620009c95784890151620009c5601f891682620008b9565b8355505b6001600288020188555050505b505050505050565b61070580620009ee6000396000f3fe608060405234801561001057600080fd5b50600436106100365760003560e01c8063c4fe354c1461003b578063f851a4401461006b575b600080fd5b610055600480360381019061005091906103c8565b610089565b60405161006291906105d0565b60405180910390f35b610073610248565b6040516100809190610601565b60405180910390f35b6060600160009054906101000a900473ffffffffffffffffffffffffffffffffffffffff1673ffffffffffffffffffffffffffffffffffffffff163373ffffffffffffffffffffffffffffffffffffffff16146100e557600080fd5b6000826040516100f59190610658565b9081526020016040518091039020805480602002602001604051908101604052809291908181526020016000905b8282101561023d57838290600052602060002090600202016040518060400160405290816000820180546101569061069e565b80601f01602080910402602001604051908101604052809291908181526020018280546101829061069e565b80156101cf5780601f106101a4576101008083540402835291602001916101cf565b820191906000526020600020905b8154815290600101906020018083116101b257829003601f168201915b505050505081526020016001820160009054906101000a900473ffffffffffffffffffffffffffffffffffffffff1673ffffffffffffffffffffffffffffffffffffffff1673ffffffffffffffffffffffffffffffffffffffff168152505081526020019060010190610123565b505050509050919050565b600160009054906101000a900473ffffffffffffffffffffffffffffffffffffffff1681565b6000604051905090565b600080fd5b600080fd5b600080fd5b600080fd5b6000601f19601f8301169050919050565b7f4e487b7100000000000000000000000000000000000000000000000000000000600052604160045260246000fd5b6102d58261028c565b810181811067ffffffffffffffff821117156102f4576102f361029d565b5b80604052505050565b600061030761026e565b905061031382826102cc565b919050565b600067ffffffffffffffff8211156103335761033261029d565b5b61033c8261028c565b9050602081019050919050565b82818337600083830152505050565b600061036b61036684610318565b6102fd565b90508281526020810184848401111561038757610386610287565b5b610392848285610349565b509392505050565b600082601f8301126103af576103ae610282565b5b81356103bf848260208601610358565b91505092915050565b6000602082840312156103de576103dd610278565b5b600082013567ffffffffffffffff8111156103fc576103fb61027d565b5b6104088482850161039a565b91505092915050565b600081519050919050565b600082825260208201905092915050565b6000819050602082019050919050565b600081519050919050565b600082825260208201905092915050565b60005b8381101561047757808201518184015260208101905061045c565b60008484015250505050565b600061048e8261043d565b6104988185610448565b93506104a8818560208601610459565b6104b18161028c565b840191505092915050565b600073ffffffffffffffffffffffffffffffffffffffff82169050919050565b60006104e7826104bc565b9050919050565b6104f7816104dc565b82525050565b6000604083016000830151848203600086015261051a8282610483565b915050602083015161052f60208601826104ee565b508091505092915050565b600061054683836104fd565b905092915050565b6000602082019050919050565b600061056682610411565b610570818561041c565b9350836020820285016105828561042d565b8060005b858110156105be578484038952815161059f858261053a565b94506105aa8361054e565b925060208a01995050600181019050610586565b50829750879550505050505092915050565b600060208201905081810360008301526105ea818461055b565b905092915050565b6105fb816104dc565b82525050565b600060208201905061061660008301846105f2565b92915050565b600081905092915050565b60006106328261043d565b61063c818561061c565b935061064c818560208601610459565b80840191505092915050565b60006106648284610627565b915081905092915050565b7f4e487b7100000000000000000000000000000000000000000000000000000000600052602260045260246000fd5b600060028204905060018216806106b657607f821691505b6020821081036106c9576106c861066f565b5b5091905056fea264697066735822122019081307bfa0a7717b8e6fb72e5f39140df67963969826b2f8a4f1e86f8a4b9a64736f6c6343000811003360806040523480156200001157600080fd5b5060405162004f1238038062004f128339818101604052810190620000379190620000e9565b80600560006101000a81548173ffffffffffffffffffffffffffffffffffffffff021916908373ffffffffffffffffffffffffffffffffffffffff160217905550506200011b565b600080fd5b600073ffffffffffffffffffffffffffffffffffffffff82169050919050565b6000620000b18262000084565b9050919050565b620000c381620000a4565b8114620000cf57600080fd5b50565b600081519050620000e381620000b8565b92915050565b6000602082840312156200010257620001016200007f565b5b60006200011284828501620000d2565b91505092915050565b614de7806200012b6000396000f3fe608060405234801561001057600080fd5b50600436106100935760003560e01c80637621df6f116100665780637621df6f146101085780639f08e43814610124578063b2c24a3414610140578063eb7353d114610171578063f539fe6c146101a257610093565b80630619a5a3146100985780631107747e146100b45780634da7580f146100d05780635db185c7146100ec575b600080fd5b6100b260048036038101906100ad9190613a64565b6101d3565b005b6100ce60048036038101906100c99190613adc565b61081e565b005b6100ea60048036038101906100e59190613cdf565b610862565b005b61010660048036038101906101019190613adc565b610ddb565b005b610122600480360381019061011d9190613adc565b610e1f565b005b61013e600480360381019061013991906140d5565b610e63565b005b61015a60048036038101906101559190613adc565b6114c4565b60405161016892919061444a565b60405180910390f35b61018b60048036038101906101869190613adc565b611d78565b604051610199929190614742565b60405180910390f35b6101bc60048036038101906101b79190613adc565b6128b0565b6040516101ca929190614993565b60405180910390f35b600660009054906101000a900473ffffffffffffffffffffffffffffffffffffffff1673ffffffffffffffffffffffffffffffffffffffff166363a9c3d7336040518263ffffffff1660e01b815260040161022e91906149d9565b602060405180830381865afa15801561024b573d6000803e3d6000fd5b505050506040513d601f19601f8201168201806040525081019061026f9190614a09565b61027857600080fd5b6102806132de565b8260000151816000019073ffffffffffffffffffffffffffffffffffffffff16908173ffffffffffffffffffffffffffffffffffffffff1681525050826020015181602001819052508260400151816040018181525050826060015181606001819052508260800151816080018190525080600080856000015173ffffffffffffffffffffffffffffffffffffffff1673ffffffffffffffffffffffffffffffffffffffff16815260200190815260200160002060008201518160000160006101000a81548173ffffffffffffffffffffffffffffffffffffffff021916908373ffffffffffffffffffffffffffffffffffffffff16021790555060208201518160010190816103909190614c42565b506040820151816002015560608201518160030190816103b09190614c42565b5060808201518160040190816103c69190614c42565b509050506103d2613323565b8260000151816000019073ffffffffffffffffffffffffffffffffffffffff16908173ffffffffffffffffffffffffffffffffffffffff1681525050826020015181602001819052508260400151816040018190525082606001518160600181905250826080015181608001819052508260a001518160a001819052508260c001518160c001819052508260e001518160e001819052508261010001518161010001901515908115158152505082610120015181610120018190525082610140015181610140018190525082610160015181610160019073ffffffffffffffffffffffffffffffffffffffff16908173ffffffffffffffffffffffffffffffffffffffff168152505082610180015181610180018190525060036000846000015173ffffffffffffffffffffffffffffffffffffffff1673ffffffffffffffffffffffffffffffffffffffff1681526020019081526020016000208190806001815401808255809150506001900390600052602060002090600d020160009091909190915060008201518160000160006101000a81548173ffffffffffffffffffffffffffffffffffffffff021916908373ffffffffffffffffffffffffffffffffffffffff16021790555060208201518160010190816105b39190614c42565b5060408201518160020190816105c99190614c42565b5060608201518160030190816105df9190614c42565b5060808201518160040190816105f59190614c42565b5060a082015181600501908161060b9190614c42565b5060c08201518160060190816106219190614c42565b5060e08201518160070190816106379190614c42565b506101008201518160080160006101000a81548160ff02191690831515021790555061012082015181600901908161066f9190614c42565b5061014082015181600a0190816106869190614c42565b5061016082015181600b0160006101000a81548173ffffffffffffffffffffffffffffffffffffffff021916908373ffffffffffffffffffffffffffffffffffffffff16021790555061018082015181600c0190816106e59190614c42565b505050600760009054906101000a900473ffffffffffffffffffffffffffffffffffffffff1673ffffffffffffffffffffffffffffffffffffffff16636d263ceb85600001516040518263ffffffff1660e01b815260040161074791906149d9565b600060405180830381600087803b15801561076157600080fd5b505af1158015610775573d6000803e3d6000fd5b50505050600860009054906101000a900473ffffffffffffffffffffffffffffffffffffffff1673ffffffffffffffffffffffffffffffffffffffff166343a0e44a338660200151866020015188600001516040518563ffffffff1660e01b81526004016107e69493929190614d5e565b600060405180830381600087803b15801561080057600080fd5b505af1158015610814573d6000803e3d6000fd5b5050505050505050565b80600660006101000a81548173ffffffffffffffffffffffffffffffffffffffff021916908373ffffffffffffffffffffffffffffffffffffffff16021790555050565b600660009054906101000a900473ffffffffffffffffffffffffffffffffffffffff1673ffffffffffffffffffffffffffffffffffffffff166363a9c3d7336040518263ffffffff1660e01b81526004016108bd91906149d9565b602060405180830381865afa1580156108da573d6000803e3d6000fd5b505050506040513d601f19601f820116820180604052508101906108fe9190614a09565b61090757600080fd5b61090f6132de565b8260000151816000019073ffffffffffffffffffffffffffffffffffffffff16908173ffffffffffffffffffffffffffffffffffffffff1681525050826020015181602001819052508260400151816040018181525050826060015181606001819052508260800151816080018190525080600080856000015173ffffffffffffffffffffffffffffffffffffffff1673ffffffffffffffffffffffffffffffffffffffff16815260200190815260200160002060008201518160000160006101000a81548173ffffffffffffffffffffffffffffffffffffffff021916908373ffffffffffffffffffffffffffffffffffffffff1602179055506020820151816001019081610a1f9190614c42565b50604082015181600201556060820151816003019081610a3f9190614c42565b506080820151816004019081610a559190614c42565b50905050610a616133b9565b8260000151816000019073ffffffffffffffffffffffffffffffffffffffff16908173ffffffffffffffffffffffffffffffffffffffff1681525050826020015181602001819052508260400151816040018190525082606001518160600181905250826080015181608001819052508260a001518160a001819052508260c001518160c001819052508260e001518160e001819052508261010001518161010001819052508261012001518161012001901515908115158152505060026000856000015173ffffffffffffffffffffffffffffffffffffffff1673ffffffffffffffffffffffffffffffffffffffff1681526020019081526020016000208190806001815401808255809150506001900390600052602060002090600a020160009091909190915060008201518160000160006101000a81548173ffffffffffffffffffffffffffffffffffffffff021916908373ffffffffffffffffffffffffffffffffffffffff1602179055506020820151816001019081610be69190614c42565b506040820151816002019081610bfc9190614c42565b506060820151816003019081610c129190614c42565b506080820151816004019081610c289190614c42565b5060a0820151816005019081610c3e9190614c42565b5060c0820151816006019081610c549190614c42565b5060e0820151816007019081610c6a9190614c42565b50610100820151816008019081610c819190614c42565b506101208201518160090160006101000a81548160ff0219169083151502179055505050600760009054906101000a900473ffffffffffffffffffffffffffffffffffffffff1673ffffffffffffffffffffffffffffffffffffffff16636d263ceb85600001516040518263ffffffff1660e01b8152600401610d0491906149d9565b600060405180830381600087803b158015610d1e57600080fd5b505af1158015610d32573d6000803e3d6000fd5b50505050600860009054906101000a900473ffffffffffffffffffffffffffffffffffffffff1673ffffffffffffffffffffffffffffffffffffffff166343a0e44a338660200151866020015188600001516040518563ffffffff1660e01b8152600401610da39493929190614d5e565b600060405180830381600087803b158015610dbd57600080fd5b505af1158015610dd1573d6000803e3d6000fd5b5050505050505050565b80600760006101000a81548173ffffffffffffffffffffffffffffffffffffffff021916908373ffffffffffffffffffffffffffffffffffffffff16021790555050565b80600860006101000a81548173ffffffffffffffffffffffffffffffffffffffff021916908373ffffffffffffffffffffffffffffffffffffffff16021790555050565b600660009054906101000a900473ffffffffffffffffffffffffffffffffffffffff1673ffffffffffffffffffffffffffffffffffffffff166363a9c3d7336040518263ffffffff1660e01b8152600401610ebe91906149d9565b602060405180830381865afa158015610edb573d6000803e3d6000fd5b505050506040513d601f19601f82011682018060405250810190610eff9190614a09565b610f0857600080fd5b610f10613424565b8260000151816000019073ffffffffffffffffffffffffffffffffffffffff16908173ffffffffffffffffffffffffffffffffffffffff168152505082602001518160200181905250826040015181604001819052508260600151816060018181525050826080015181608001819052508060016000846000015173ffffffffffffffffffffffffffffffffffffffff1673ffffffffffffffffffffffffffffffffffffffff16815260200190815260200160002060008201518160000160006101000a81548173ffffffffffffffffffffffffffffffffffffffff021916908373ffffffffffffffffffffffffffffffffffffffff16021790555060208201518160010190816110219190614c42565b5060408201518160020190816110379190614c42565b506060820151816003015560808201518160040190816110579190614c42565b50905050611063613469565b8260000151816000019073ffffffffffffffffffffffffffffffffffffffff16908173ffffffffffffffffffffffffffffffffffffffff1681525050826020015181602001819052508260400151816040018190525082606001518160600181905250826080015181608001819052508260a001518160a001819052508260c001518160c001819052508260e001518160e0018190525082610100015181610100018190525082610120015181610120018190525082610140015181610140018190525082610160015181610160019073ffffffffffffffffffffffffffffffffffffffff16908173ffffffffffffffffffffffffffffffffffffffff1681525050826101800151816101800181905250826101a00151816101a0018190525060046000846000015173ffffffffffffffffffffffffffffffffffffffff1673ffffffffffffffffffffffffffffffffffffffff1681526020019081526020016000208190806001815401808255809150506001900390600052602060002090600e020160009091909190915060008201518160000160006101000a81548173ffffffffffffffffffffffffffffffffffffffff021916908373ffffffffffffffffffffffffffffffffffffffff160217905550602082015181600101908161124c9190614c42565b5060408201518160020190816112629190614c42565b5060608201518160030190816112789190614c42565b50608082015181600401908161128e9190614c42565b5060a08201518160050190816112a49190614c42565b5060c08201518160060190816112ba9190614c42565b5060e08201518160070190816112d09190614c42565b506101008201518160080190816112e79190614c42565b506101208201518160090190816112fe9190614c42565b5061014082015181600a0190816113159190614c42565b5061016082015181600b0160006101000a81548173ffffffffffffffffffffffffffffffffffffffff021916908373ffffffffffffffffffffffffffffffffffffffff16021790555061018082015181600c0190816113749190614c42565b506101a082015181600d01908161138b9190614c42565b505050600760009054906101000a900473ffffffffffffffffffffffffffffffffffffffff1673ffffffffffffffffffffffffffffffffffffffff16636d263ceb84600001516040518263ffffffff1660e01b81526004016113ed91906149d9565b600060405180830381600087803b15801561140757600080fd5b505af115801561141b573d6000803e3d6000fd5b50505050600860009054906101000a900473ffffffffffffffffffffffffffffffffffffffff1673ffffffffffffffffffffffffffffffffffffffff166343a0e44a338560400151866020015187600001516040518563ffffffff1660e01b815260040161148c9493929190614d5e565b600060405180830381600087803b1580156114a657600080fd5b505af11580156114ba573d6000803e3d6000fd5b5050505050505050565b6114cc6132de565b6060600660009054906101000a900473ffffffffffffffffffffffffffffffffffffffff1673ffffffffffffffffffffffffffffffffffffffff166363a9c3d7336040518263ffffffff1660e01b815260040161152991906149d9565b602060405180830381865afa158015611546573d6000803e3d6000fd5b505050506040513d601f19601f8201168201806040525081019061156a9190614a09565b61157357600080fd5b6000808473ffffffffffffffffffffffffffffffffffffffff1673ffffffffffffffffffffffffffffffffffffffff168152602001908152602001600020600260008573ffffffffffffffffffffffffffffffffffffffff1673ffffffffffffffffffffffffffffffffffffffff168152602001908152602001600020816040518060a00160405290816000820160009054906101000a900473ffffffffffffffffffffffffffffffffffffffff1673ffffffffffffffffffffffffffffffffffffffff1673ffffffffffffffffffffffffffffffffffffffff16815260200160018201805461166290614a65565b80601f016020809104026020016040519081016040528092919081815260200182805461168e90614a65565b80156116db5780601f106116b0576101008083540402835291602001916116db565b820191906000526020600020905b8154815290600101906020018083116116be57829003601f168201915b50505050508152602001600282015481526020016003820180546116fe90614a65565b80601f016020809104026020016040519081016040528092919081815260200182805461172a90614a65565b80156117775780601f1061174c57610100808354040283529160200191611777565b820191906000526020600020905b81548152906001019060200180831161175a57829003601f168201915b5050505050815260200160048201805461179090614a65565b80601f01602080910402602001604051908101604052809291908181526020018280546117bc90614a65565b80156118095780601f106117de57610100808354040283529160200191611809565b820191906000526020600020905b8154815290600101906020018083116117ec57829003601f168201915b505050505081525050915080805480602002602001604051908101604052809291908181526020016000905b82821015611d6957838290600052602060002090600a0201604051806101400160405290816000820160009054906101000a900473ffffffffffffffffffffffffffffffffffffffff1673ffffffffffffffffffffffffffffffffffffffff1673ffffffffffffffffffffffffffffffffffffffff1681526020016001820180546118bf90614a65565b80601f01602080910402602001604051908101604052809291908181526020018280546118eb90614a65565b80156119385780601f1061190d57610100808354040283529160200191611938565b820191906000526020600020905b81548152906001019060200180831161191b57829003601f168201915b5050505050815260200160028201805461195190614a65565b80601f016020809104026020016040519081016040528092919081815260200182805461197d90614a65565b80156119ca5780601f1061199f576101008083540402835291602001916119ca565b820191906000526020600020905b8154815290600101906020018083116119ad57829003601f168201915b505050505081526020016003820180546119e390614a65565b80601f0160208091040260200160405190810160405280929190818152602001828054611a0f90614a65565b8015611a5c5780601f10611a3157610100808354040283529160200191611a5c565b820191906000526020600020905b815481529060010190602001808311611a3f57829003601f168201915b50505050508152602001600482018054611a7590614a65565b80601f0160208091040260200160405190810160405280929190818152602001828054611aa190614a65565b8015611aee5780601f10611ac357610100808354040283529160200191611aee565b820191906000526020600020905b815481529060010190602001808311611ad157829003601f168201915b50505050508152602001600582018054611b0790614a65565b80601f0160208091040260200160405190810160405280929190818152602001828054611b3390614a65565b8015611b805780601f10611b5557610100808354040283529160200191611b80565b820191906000526020600020905b815481529060010190602001808311611b6357829003601f168201915b50505050508152602001600682018054611b9990614a65565b80601f0160208091040260200160405190810160405280929190818152602001828054611bc590614a65565b8015611c125780601f10611be757610100808354040283529160200191611c12565b820191906000526020600020905b815481529060010190602001808311611bf557829003601f168201915b50505050508152602001600782018054611c2b90614a65565b80601f0160208091040260200160405190810160405280929190818152602001828054611c5790614a65565b8015611ca45780601f10611c7957610100808354040283529160200191611ca4565b820191906000526020600020905b815481529060010190602001808311611c8757829003601f168201915b50505050508152602001600882018054611cbd90614a65565b80601f0160208091040260200160405190810160405280929190818152602001828054611ce990614a65565b8015611d365780601f10611d0b57610100808354040283529160200191611d36565b820191906000526020600020905b815481529060010190602001808311611d1957829003601f168201915b505050505081526020016009820160009054906101000a900460ff16151515158152505081526020019060010190611835565b50505050905091509150915091565b611d80613424565b6060600660009054906101000a900473ffffffffffffffffffffffffffffffffffffffff1673ffffffffffffffffffffffffffffffffffffffff166363a9c3d7336040518263ffffffff1660e01b8152600401611ddd91906149d9565b602060405180830381865afa158015611dfa573d6000803e3d6000fd5b505050506040513d601f19601f82011682018060405250810190611e1e9190614a09565b611e2757600080fd5b600160008473ffffffffffffffffffffffffffffffffffffffff1673ffffffffffffffffffffffffffffffffffffffff168152602001908152602001600020600460008573ffffffffffffffffffffffffffffffffffffffff1673ffffffffffffffffffffffffffffffffffffffff168152602001908152602001600020816040518060a00160405290816000820160009054906101000a900473ffffffffffffffffffffffffffffffffffffffff1673ffffffffffffffffffffffffffffffffffffffff1673ffffffffffffffffffffffffffffffffffffffff168152602001600182018054611f1790614a65565b80601f0160208091040260200160405190810160405280929190818152602001828054611f4390614a65565b8015611f905780601f10611f6557610100808354040283529160200191611f90565b820191906000526020600020905b815481529060010190602001808311611f7357829003601f168201915b50505050508152602001600282018054611fa990614a65565b80601f0160208091040260200160405190810160405280929190818152602001828054611fd590614a65565b80156120225780601f10611ff757610100808354040283529160200191612022565b820191906000526020600020905b81548152906001019060200180831161200557829003601f168201915b505050505081526020016003820154815260200160048201805461204590614a65565b80601f016020809104026020016040519081016040528092919081815260200182805461207190614a65565b80156120be5780601f10612093576101008083540402835291602001916120be565b820191906000526020600020905b8154815290600101906020018083116120a157829003601f168201915b505050505081525050915080805480602002602001604051908101604052809291908181526020016000905b828210156128a157838290600052602060002090600e0201604051806101c00160405290816000820160009054906101000a900473ffffffffffffffffffffffffffffffffffffffff1673ffffffffffffffffffffffffffffffffffffffff1673ffffffffffffffffffffffffffffffffffffffff16815260200160018201805461217490614a65565b80601f01602080910402602001604051908101604052809291908181526020018280546121a090614a65565b80156121ed5780601f106121c2576101008083540402835291602001916121ed565b820191906000526020600020905b8154815290600101906020018083116121d057829003601f168201915b5050505050815260200160028201805461220690614a65565b80601f016020809104026020016040519081016040528092919081815260200182805461223290614a65565b801561227f5780601f106122545761010080835404028352916020019161227f565b820191906000526020600020905b81548152906001019060200180831161226257829003601f168201915b5050505050815260200160038201805461229890614a65565b80601f01602080910402602001604051908101604052809291908181526020018280546122c490614a65565b80156123115780601f106122e657610100808354040283529160200191612311565b820191906000526020600020905b8154815290600101906020018083116122f457829003601f168201915b5050505050815260200160048201805461232a90614a65565b80601f016020809104026020016040519081016040528092919081815260200182805461235690614a65565b80156123a35780601f10612378576101008083540402835291602001916123a3565b820191906000526020600020905b81548152906001019060200180831161238657829003601f168201915b505050505081526020016005820180546123bc90614a65565b80601f01602080910402602001604051908101604052809291908181526020018280546123e890614a65565b80156124355780601f1061240a57610100808354040283529160200191612435565b820191906000526020600020905b81548152906001019060200180831161241857829003601f168201915b5050505050815260200160068201805461244e90614a65565b80601f016020809104026020016040519081016040528092919081815260200182805461247a90614a65565b80156124c75780601f1061249c576101008083540402835291602001916124c7565b820191906000526020600020905b8154815290600101906020018083116124aa57829003601f168201915b505050505081526020016007820180546124e090614a65565b80601f016020809104026020016040519081016040528092919081815260200182805461250c90614a65565b80156125595780601f1061252e57610100808354040283529160200191612559565b820191906000526020600020905b81548152906001019060200180831161253c57829003601f168201915b5050505050815260200160088201805461257290614a65565b80601f016020809104026020016040519081016040528092919081815260200182805461259e90614a65565b80156125eb5780601f106125c0576101008083540402835291602001916125eb565b820191906000526020600020905b8154815290600101906020018083116125ce57829003601f168201915b5050505050815260200160098201805461260490614a65565b80601f016020809104026020016040519081016040528092919081815260200182805461263090614a65565b801561267d5780601f106126525761010080835404028352916020019161267d565b820191906000526020600020905b81548152906001019060200180831161266057829003601f168201915b50505050508152602001600a8201805461269690614a65565b80601f01602080910402602001604051908101604052809291908181526020018280546126c290614a65565b801561270f5780601f106126e45761010080835404028352916020019161270f565b820191906000526020600020905b8154815290600101906020018083116126f257829003601f168201915b50505050508152602001600b820160009054906101000a900473ffffffffffffffffffffffffffffffffffffffff1673ffffffffffffffffffffffffffffffffffffffff1673ffffffffffffffffffffffffffffffffffffffff168152602001600c8201805461277e90614a65565b80601f01602080910402602001604051908101604052809291908181526020018280546127aa90614a65565b80156127f75780601f106127cc576101008083540402835291602001916127f7565b820191906000526020600020905b8154815290600101906020018083116127da57829003601f168201915b50505050508152602001600d8201805461281090614a65565b80601f016020809104026020016040519081016040528092919081815260200182805461283c90614a65565b80156128895780601f1061285e57610100808354040283529160200191612889565b820191906000526020600020905b81548152906001019060200180831161286c57829003601f168201915b505050505081525050815260200190600101906120ea565b50505050905091509150915091565b6128b86132de565b6060600660009054906101000a900473ffffffffffffffffffffffffffffffffffffffff1673ffffffffffffffffffffffffffffffffffffffff166363a9c3d7336040518263ffffffff1660e01b815260040161291591906149d9565b602060405180830381865afa158015612932573d6000803e3d6000fd5b505050506040513d601f19601f820116820180604052508101906129569190614a09565b61295f57600080fd5b6000808473ffffffffffffffffffffffffffffffffffffffff1673ffffffffffffffffffffffffffffffffffffffff168152602001908152602001600020600360008573ffffffffffffffffffffffffffffffffffffffff1673ffffffffffffffffffffffffffffffffffffffff168152602001908152602001600020816040518060a00160405290816000820160009054906101000a900473ffffffffffffffffffffffffffffffffffffffff1673ffffffffffffffffffffffffffffffffffffffff1673ffffffffffffffffffffffffffffffffffffffff168152602001600182018054612a4e90614a65565b80601f0160208091040260200160405190810160405280929190818152602001828054612a7a90614a65565b8015612ac75780601f10612a9c57610100808354040283529160200191612ac7565b820191906000526020600020905b815481529060010190602001808311612aaa57829003601f168201915b5050505050815260200160028201548152602001600382018054612aea90614a65565b80601f0160208091040260200160405190810160405280929190818152602001828054612b1690614a65565b8015612b635780601f10612b3857610100808354040283529160200191612b63565b820191906000526020600020905b815481529060010190602001808311612b4657829003601f168201915b50505050508152602001600482018054612b7c90614a65565b80601f0160208091040260200160405190810160405280929190818152602001828054612ba890614a65565b8015612bf55780601f10612bca57610100808354040283529160200191612bf5565b820191906000526020600020905b815481529060010190602001808311612bd857829003601f168201915b505050505081525050915080805480602002602001604051908101604052809291908181526020016000905b828210156132cf57838290600052602060002090600d0201604051806101a00160405290816000820160009054906101000a900473ffffffffffffffffffffffffffffffffffffffff1673ffffffffffffffffffffffffffffffffffffffff1673ffffffffffffffffffffffffffffffffffffffff168152602001600182018054612cab90614a65565b80601f0160208091040260200160405190810160405280929190818152602001828054612cd790614a65565b8015612d245780601f10612cf957610100808354040283529160200191612d24565b820191906000526020600020905b815481529060010190602001808311612d0757829003601f168201915b50505050508152602001600282018054612d3d90614a65565b80601f0160208091040260200160405190810160405280929190818152602001828054612d6990614a65565b8015612db65780601f10612d8b57610100808354040283529160200191612db6565b820191906000526020600020905b815481529060010190602001808311612d9957829003601f168201915b50505050508152602001600382018054612dcf90614a65565b80601f0160208091040260200160405190810160405280929190818152602001828054612dfb90614a65565b8015612e485780601f10612e1d57610100808354040283529160200191612e48565b820191906000526020600020905b815481529060010190602001808311612e2b57829003601f168201915b50505050508152602001600482018054612e6190614a65565b80601f0160208091040260200160405190810160405280929190818152602001828054612e8d90614a65565b8015612eda5780601f10612eaf57610100808354040283529160200191612eda565b820191906000526020600020905b815481529060010190602001808311612ebd57829003601f168201915b50505050508152602001600582018054612ef390614a65565b80601f0160208091040260200160405190810160405280929190818152602001828054612f1f90614a65565b8015612f6c5780601f10612f4157610100808354040283529160200191612f6c565b820191906000526020600020905b815481529060010190602001808311612f4f57829003601f168201915b50505050508152602001600682018054612f8590614a65565b80601f0160208091040260200160405190810160405280929190818152602001828054612fb190614a65565b8015612ffe5780601f10612fd357610100808354040283529160200191612ffe565b820191906000526020600020905b815481529060010190602001808311612fe157829003601f168201915b5050505050815260200160078201805461301790614a65565b80601f016020809104026020016040519081016040528092919081815260200182805461304390614a65565b80156130905780601f1061306557610100808354040283529160200191613090565b820191906000526020600020905b81548152906001019060200180831161307357829003601f168201915b505050505081526020016008820160009054906101000a900460ff161515151581526020016009820180546130c490614a65565b80601f01602080910402602001604051908101604052809291908181526020018280546130f090614a65565b801561313d5780601f106131125761010080835404028352916020019161313d565b820191906000526020600020905b81548152906001019060200180831161312057829003601f168201915b50505050508152602001600a8201805461315690614a65565b80601f016020809104026020016040519081016040528092919081815260200182805461318290614a65565b80156131cf5780601f106131a4576101008083540402835291602001916131cf565b820191906000526020600020905b8154815290600101906020018083116131b257829003601f168201915b50505050508152602001600b820160009054906101000a900473ffffffffffffffffffffffffffffffffffffffff1673ffffffffffffffffffffffffffffffffffffffff1673ffffffffffffffffffffffffffffffffffffffff168152602001600c8201805461323e90614a65565b80601f016020809104026020016040519081016040528092919081815260200182805461326a90614a65565b80156132b75780601f1061328c576101008083540402835291602001916132b7565b820191906000526020600020905b81548152906001019060200180831161329a57829003601f168201915b50505050508152505081526020019060010190612c21565b50505050905091509150915091565b6040518060a00160405280600073ffffffffffffffffffffffffffffffffffffffff168152602001606081526020016000815260200160608152602001606081525090565b604051806101a00160405280600073ffffffffffffffffffffffffffffffffffffffff168152602001606081526020016060815260200160608152602001606081526020016060815260200160608152602001606081526020016000151581526020016060815260200160608152602001600073ffffffffffffffffffffffffffffffffffffffff168152602001606081525090565b604051806101400160405280600073ffffffffffffffffffffffffffffffffffffffff16815260200160608152602001606081526020016060815260200160608152602001606081526020016060815260200160608152602001606081526020016000151581525090565b6040518060a00160405280600073ffffffffffffffffffffffffffffffffffffffff168152602001606081526020016060815260200160008152602001606081525090565b604051806101c00160405280600073ffffffffffffffffffffffffffffffffffffffff16815260200160608152602001606081526020016060815260200160608152602001606081526020016060815260200160608152602001606081526020016060815260200160608152602001600073ffffffffffffffffffffffffffffffffffffffff16815260200160608152602001606081525090565b6000604051905090565b600080fd5b600080fd5b600080fd5b6000601f19601f8301169050919050565b7f4e487b7100000000000000000000000000000000000000000000000000000000600052604160045260246000fd5b6135668261351d565b810181811067ffffffffffffffff821117156135855761358461352e565b5b80604052505050565b6000613598613504565b90506135a4828261355d565b919050565b600080fd5b600073ffffffffffffffffffffffffffffffffffffffff82169050919050565b60006135d9826135ae565b9050919050565b6135e9816135ce565b81146135f457600080fd5b50565b600081359050613606816135e0565b92915050565b600080fd5b600080fd5b600067ffffffffffffffff8211156136315761363061352e565b5b61363a8261351d565b9050602081019050919050565b82818337600083830152505050565b600061366961366484613616565b61358e565b90508281526020810184848401111561368557613684613611565b5b613690848285613647565b509392505050565b600082601f8301126136ad576136ac61360c565b5b81356136bd848260208601613656565b91505092915050565b6000819050919050565b6136d9816136c6565b81146136e457600080fd5b50565b6000813590506136f6816136d0565b92915050565b600060a0828403121561371257613711613518565b5b61371c60a061358e565b9050600061372c848285016135f7565b600083015250602082013567ffffffffffffffff8111156137505761374f6135a9565b5b61375c84828501613698565b6020830152506040613770848285016136e7565b604083015250606082013567ffffffffffffffff811115613794576137936135a9565b5b6137a084828501613698565b606083015250608082013567ffffffffffffffff8111156137c4576137c36135a9565b5b6137d084828501613698565b60808301525092915050565b60008115159050919050565b6137f1816137dc565b81146137fc57600080fd5b50565b60008135905061380e816137e8565b92915050565b60006101a0828403121561382b5761382a613518565b5b6138366101a061358e565b90506000613846848285016135f7565b600083015250602082013567ffffffffffffffff81111561386a576138696135a9565b5b61387684828501613698565b602083015250604082013567ffffffffffffffff81111561389a576138996135a9565b5b6138a684828501613698565b604083015250606082013567ffffffffffffffff8111156138ca576138c96135a9565b5b6138d684828501613698565b606083015250608082013567ffffffffffffffff8111156138fa576138f96135a9565b5b61390684828501613698565b60808301525060a082013567ffffffffffffffff81111561392a576139296135a9565b5b61393684828501613698565b60a08301525060c082013567ffffffffffffffff81111561395a576139596135a9565b5b61396684828501613698565b60c08301525060e082013567ffffffffffffffff81111561398a576139896135a9565b5b61399684828501613698565b60e0830152506101006139ab848285016137ff565b6101008301525061012082013567ffffffffffffffff8111156139d1576139d06135a9565b5b6139dd84828501613698565b6101208301525061014082013567ffffffffffffffff811115613a0357613a026135a9565b5b613a0f84828501613698565b61014083015250610160613a25848285016135f7565b6101608301525061018082013567ffffffffffffffff811115613a4b57613a4a6135a9565b5b613a5784828501613698565b6101808301525092915050565b60008060408385031215613a7b57613a7a61350e565b5b600083013567ffffffffffffffff811115613a9957613a98613513565b5b613aa5858286016136fc565b925050602083013567ffffffffffffffff811115613ac657613ac5613513565b5b613ad285828601613814565b9150509250929050565b600060208284031215613af257613af161350e565b5b6000613b00848285016135f7565b91505092915050565b60006101408284031215613b2057613b1f613518565b5b613b2b61014061358e565b90506000613b3b848285016135f7565b600083015250602082013567ffffffffffffffff811115613b5f57613b5e6135a9565b5b613b6b84828501613698565b602083015250604082013567ffffffffffffffff811115613b8f57613b8e6135a9565b5b613b9b84828501613698565b604083015250606082013567ffffffffffffffff811115613bbf57613bbe6135a9565b5b613bcb84828501613698565b606083015250608082013567ffffffffffffffff811115613bef57613bee6135a9565b5b613bfb84828501613698565b60808301525060a082013567ffffffffffffffff811115613c1f57613c1e6135a9565b5b613c2b84828501613698565b60a08301525060c082013567ffffffffffffffff811115613c4f57613c4e6135a9565b5b613c5b84828501613698565b60c08301525060e082013567ffffffffffffffff811115613c7f57613c7e6135a9565b5b613c8b84828501613698565b60e08301525061010082013567ffffffffffffffff811115613cb057613caf6135a9565b5b613cbc84828501613698565b61010083015250610120613cd2848285016137ff565b6101208301525092915050565b60008060408385031215613cf657613cf561350e565b5b600083013567ffffffffffffffff811115613d1457613d13613513565b5b613d20858286016136fc565b925050602083013567ffffffffffffffff811115613d4157613d40613513565b5b613d4d85828601613b09565b9150509250929050565b600060a08284031215613d6d57613d6c613518565b5b613d7760a061358e565b90506000613d87848285016135f7565b600083015250602082013567ffffffffffffffff811115613dab57613daa6135a9565b5b613db784828501613698565b602083015250604082013567ffffffffffffffff811115613ddb57613dda6135a9565b5b613de784828501613698565b6040830152506060613dfb848285016136e7565b606083015250608082013567ffffffffffffffff811115613e1f57613e1e6135a9565b5b613e2b84828501613698565b60808301525092915050565b60006101c08284031215613e4e57613e4d613518565b5b613e596101c061358e565b90506000613e69848285016135f7565b600083015250602082013567ffffffffffffffff811115613e8d57613e8c6135a9565b5b613e9984828501613698565b602083015250604082013567ffffffffffffffff811115613ebd57613ebc6135a9565b5b613ec984828501613698565b604083015250606082013567ffffffffffffffff811115613eed57613eec6135a9565b5b613ef984828501613698565b606083015250608082013567ffffffffffffffff811115613f1d57613f1c6135a9565b5b613f2984828501613698565b60808301525060a082013567ffffffffffffffff811115613f4d57613f4c6135a9565b5b613f5984828501613698565b60a08301525060c082013567ffffffffffffffff811115613f7d57613f7c6135a9565b5b613f8984828501613698565b60c08301525060e082013567ffffffffffffffff811115613fad57613fac6135a9565b5b613fb984828501613698565b60e08301525061010082013567ffffffffffffffff811115613fde57613fdd6135a9565b5b613fea84828501613698565b6101008301525061012082013567ffffffffffffffff8111156140105761400f6135a9565b5b61401c84828501613698565b6101208301525061014082013567ffffffffffffffff811115614042576140416135a9565b5b61404e84828501613698565b61014083015250610160614064848285016135f7565b6101608301525061018082013567ffffffffffffffff81111561408a576140896135a9565b5b61409684828501613698565b610180830152506101a082013567ffffffffffffffff8111156140bc576140bb6135a9565b5b6140c884828501613698565b6101a08301525092915050565b600080604083850312156140ec576140eb61350e565b5b600083013567ffffffffffffffff81111561410a57614109613513565b5b61411685828601613d57565b925050602083013567ffffffffffffffff81111561413757614136613513565b5b61414385828601613e37565b9150509250929050565b614156816135ce565b82525050565b600081519050919050565b600082825260208201905092915050565b60005b8381101561419657808201518184015260208101905061417b565b60008484015250505050565b60006141ad8261415c565b6141b78185614167565b93506141c7818560208601614178565b6141d08161351d565b840191505092915050565b6141e4816136c6565b82525050565b600060a083016000830151614202600086018261414d565b506020830151848203602086015261421a82826141a2565b915050604083015161422f60408601826141db565b506060830151848203606086015261424782826141a2565b9150506080830151848203608086015261426182826141a2565b9150508091505092915050565b600081519050919050565b600082825260208201905092915050565b6000819050602082019050919050565b6142a3816137dc565b82525050565b6000610140830160008301516142c2600086018261414d565b50602083015184820360208601526142da82826141a2565b915050604083015184820360408601526142f482826141a2565b9150506060830151848203606086015261430e82826141a2565b9150506080830151848203608086015261432882826141a2565b91505060a083015184820360a086015261434282826141a2565b91505060c083015184820360c086015261435c82826141a2565b91505060e083015184820360e086015261437682826141a2565b91505061010083015184820361010086015261439282826141a2565b9150506101208301516143a961012086018261429a565b508091505092915050565b60006143c083836142a9565b905092915050565b6000602082019050919050565b60006143e08261426e565b6143ea8185614279565b9350836020820285016143fc8561428a565b8060005b85811015614438578484038952815161441985826143b4565b9450614424836143c8565b925060208a01995050600181019050614400565b50829750879550505050505092915050565b6000604082019050818103600083015261446481856141ea565b9050818103602083015261447881846143d5565b90509392505050565b600060a083016000830151614499600086018261414d565b50602083015184820360208601526144b182826141a2565b915050604083015184820360408601526144cb82826141a2565b91505060608301516144e060608601826141db565b50608083015184820360808601526144f882826141a2565b9150508091505092915050565b600081519050919050565b600082825260208201905092915050565b6000819050602082019050919050565b60006101c08301600083015161454a600086018261414d565b506020830151848203602086015261456282826141a2565b9150506040830151848203604086015261457c82826141a2565b9150506060830151848203606086015261459682826141a2565b915050608083015184820360808601526145b082826141a2565b91505060a083015184820360a08601526145ca82826141a2565b91505060c083015184820360c08601526145e482826141a2565b91505060e083015184820360e08601526145fe82826141a2565b91505061010083015184820361010086015261461a82826141a2565b91505061012083015184820361012086015261463682826141a2565b91505061014083015184820361014086015261465282826141a2565b91505061016083015161466961016086018261414d565b5061018083015184820361018086015261468382826141a2565b9150506101a08301518482036101a086015261469f82826141a2565b9150508091505092915050565b60006146b88383614531565b905092915050565b6000602082019050919050565b60006146d882614505565b6146e28185614510565b9350836020820285016146f485614521565b8060005b85811015614730578484038952815161471185826146ac565b945061471c836146c0565b925060208a019950506001810190506146f8565b50829750879550505050505092915050565b6000604082019050818103600083015261475c8185614481565b9050818103602083015261477081846146cd565b90509392505050565b600081519050919050565b600082825260208201905092915050565b6000819050602082019050919050565b60006101a0830160008301516147be600086018261414d565b50602083015184820360208601526147d682826141a2565b915050604083015184820360408601526147f082826141a2565b9150506060830151848203606086015261480a82826141a2565b9150506080830151848203608086015261482482826141a2565b91505060a083015184820360a086015261483e82826141a2565b91505060c083015184820360c086015261485882826141a2565b91505060e083015184820360e086015261487282826141a2565b91505061010083015161488961010086018261429a565b506101208301518482036101208601526148a382826141a2565b9150506101408301518482036101408601526148bf82826141a2565b9150506101608301516148d661016086018261414d565b506101808301518482036101808601526148f082826141a2565b9150508091505092915050565b600061490983836147a5565b905092915050565b6000602082019050919050565b600061492982614779565b6149338185614784565b93508360208202850161494585614795565b8060005b85811015614981578484038952815161496285826148fd565b945061496d83614911565b925060208a01995050600181019050614949565b50829750879550505050505092915050565b600060408201905081810360008301526149ad81856141ea565b905081810360208301526149c1818461491e565b90509392505050565b6149d3816135ce565b82525050565b60006020820190506149ee60008301846149ca565b92915050565b600081519050614a03816137e8565b92915050565b600060208284031215614a1f57614a1e61350e565b5b6000614a2d848285016149f4565b91505092915050565b7f4e487b7100000000000000000000000000000000000000000000000000000000600052602260045260246000fd5b60006002820490506001821680614a7d57607f821691505b602082108103614a9057614a8f614a36565b5b50919050565b60008190508160005260206000209050919050565b60006020601f8301049050919050565b600082821b905092915050565b600060088302614af87fffffffffffffffffffffffffffffffffffffffffffffffffffffffffffffffff82614abb565b614b028683614abb565b95508019841693508086168417925050509392505050565b6000819050919050565b6000614b3f614b3a614b35846136c6565b614b1a565b6136c6565b9050919050565b6000819050919050565b614b5983614b24565b614b6d614b6582614b46565b848454614ac8565b825550505050565b600090565b614b82614b75565b614b8d818484614b50565b505050565b5b81811015614bb157614ba6600082614b7a565b600181019050614b93565b5050565b601f821115614bf657614bc781614a96565b614bd084614aab565b81016020851015614bdf578190505b614bf3614beb85614aab565b830182614b92565b50505b505050565b600082821c905092915050565b6000614c1960001984600802614bfb565b1980831691505092915050565b6000614c328383614c08565b9150826002028217905092915050565b614c4b8261415c565b67ffffffffffffffff811115614c6457614c6361352e565b5b614c6e8254614a65565b614c79828285614bb5565b600060209050601f831160018114614cac5760008415614c9a578287015190505b614ca48582614c26565b865550614d0c565b601f198416614cba86614a96565b60005b82811015614ce257848901518255600182019150602085019450602081019050614cbd565b86831015614cff5784890151614cfb601f891682614c08565b8355505b6001600288020188555050505b505050505050565b600082825260208201905092915050565b6000614d308261415c565b614d3a8185614d14565b9350614d4a818560208601614178565b614d538161351d565b840191505092915050565b6000608082019050614d7360008301876149ca565b8181036020830152614d858186614d25565b90508181036040830152614d998185614d25565b9050614da860608301846149ca565b9594505050505056fea26469706673582212200e24c77f6f944a3e713111db16875f7b064d93e47c043fa1c4ab08293e6df90164736f6c63430008110033608060405234801561001057600080fd5b50604051610600380380610600833981810160405281019061003291906100db565b806000806101000a81548173ffffffffffffffffffffffffffffffffffffffff021916908373ffffffffffffffffffffffffffffffffffffffff16021790555050610108565b600080fd5b600073ffffffffffffffffffffffffffffffffffffffff82169050919050565b60006100a88261007d565b9050919050565b6100b88161009d565b81146100c357600080fd5b50565b6000815190506100d5816100af565b92915050565b6000602082840312156100f1576100f0610078565b5b60006100ff848285016100c6565b91505092915050565b6104e9806101176000396000f3fe608060405234801561001057600080fd5b50600436106100415760003560e01c806318a231a91461004657806363a9c3d7146100645780636d263ceb14610094575b600080fd5b61004e6100b0565b60405161005b91906103fd565b60405180910390f35b61007e60048036038101906100799190610450565b610196565b60405161008b9190610498565b60405180910390f35b6100ae60048036038101906100a99190610450565b6101fd565b005b606060008054906101000a900473ffffffffffffffffffffffffffffffffffffffff1673ffffffffffffffffffffffffffffffffffffffff163373ffffffffffffffffffffffffffffffffffffffff161461010a57600080fd5b600180548060200260200160405190810160405280929190818152602001828054801561018c57602002820191906000526020600020905b8160009054906101000a900473ffffffffffffffffffffffffffffffffffffffff1673ffffffffffffffffffffffffffffffffffffffff1681526020019060010190808311610142575b5050505050905090565b6000600260008373ffffffffffffffffffffffffffffffffffffffff1673ffffffffffffffffffffffffffffffffffffffff16815260200190815260200160002060009054906101000a900460ff16156101f357600190506101f8565b600090505b919050565b600260008273ffffffffffffffffffffffffffffffffffffffff1673ffffffffffffffffffffffffffffffffffffffff16815260200190815260200160002060009054906101000a900460ff1661030a576001600260008373ffffffffffffffffffffffffffffffffffffffff1673ffffffffffffffffffffffffffffffffffffffff16815260200190815260200160002060006101000a81548160ff0219169083151502179055506001819080600181540180825580915050600190039060005260206000200160009091909190916101000a81548173ffffffffffffffffffffffffffffffffffffffff021916908373ffffffffffffffffffffffffffffffffffffffff1602179055505b50565b600081519050919050565b600082825260208201905092915050565b6000819050602082019050919050565b600073ffffffffffffffffffffffffffffffffffffffff82169050919050565b600061036482610339565b9050919050565b61037481610359565b82525050565b6000610386838361036b565b60208301905092915050565b6000602082019050919050565b60006103aa8261030d565b6103b48185610318565b93506103bf83610329565b8060005b838110156103f05781516103d7888261037a565b97506103e283610392565b9250506001810190506103c3565b5085935050505092915050565b60006020820190508181036000830152610417818461039f565b905092915050565b600080fd5b61042d81610359565b811461043857600080fd5b50565b60008135905061044a81610424565b92915050565b6000602082840312156104665761046561041f565b5b60006104748482850161043b565b91505092915050565b60008115159050919050565b6104928161047d565b82525050565b60006020820190506104ad6000830184610489565b9291505056fea264697066735822122094f08605b22000083014a0aace4c13087c2d46b65d382d6d0704996eb20abfbd64736f6c63430008110033608060405234801561001057600080fd5b5060405161065d38038061065d833981810160405281019061003291906100db565b806000806101000a81548173ffffffffffffffffffffffffffffffffffffffff021916908373ffffffffffffffffffffffffffffffffffffffff16021790555050610108565b600080fd5b600073ffffffffffffffffffffffffffffffffffffffff82169050919050565b60006100a88261007d565b9050919050565b6100b88161009d565b81146100c357600080fd5b50565b6000815190506100d5816100af565b92915050565b6000602082840312156100f1576100f0610078565b5b60006100ff848285016100c6565b91505092915050565b610546806101176000396000f3fe608060405234801561001057600080fd5b50600436106100415760003560e01c80634780468f1461004657806363a9c3d714610062578063f0d9509014610092575b600080fd5b610060600480360381019061005b91906103cd565b6100b0565b005b61007c600480360381019061007791906103cd565b61021d565b6040516100899190610415565b60405180910390f35b61009a610284565b6040516100a791906104ee565b60405180910390f35b60008054906101000a900473ffffffffffffffffffffffffffffffffffffffff1673ffffffffffffffffffffffffffffffffffffffff163373ffffffffffffffffffffffffffffffffffffffff161461010857600080fd5b600260008273ffffffffffffffffffffffffffffffffffffffff1673ffffffffffffffffffffffffffffffffffffffff16815260200190815260200160002060009054906101000a900460ff161561015f57600080fd5b6001600260008373ffffffffffffffffffffffffffffffffffffffff1673ffffffffffffffffffffffffffffffffffffffff16815260200190815260200160002060006101000a81548160ff0219169083151502179055506001819080600181540180825580915050600190039060005260206000200160009091909190916101000a81548173ffffffffffffffffffffffffffffffffffffffff021916908373ffffffffffffffffffffffffffffffffffffffff16021790555050565b6000600260008373ffffffffffffffffffffffffffffffffffffffff1673ffffffffffffffffffffffffffffffffffffffff16815260200190815260200160002060009054906101000a900460ff161561027a576001905061027f565b600090505b919050565b606060008054906101000a900473ffffffffffffffffffffffffffffffffffffffff1673ffffffffffffffffffffffffffffffffffffffff163373ffffffffffffffffffffffffffffffffffffffff16146102de57600080fd5b600180548060200260200160405190810160405280929190818152602001828054801561036057602002820191906000526020600020905b8160009054906101000a900473ffffffffffffffffffffffffffffffffffffffff1673ffffffffffffffffffffffffffffffffffffffff1681526020019060010190808311610316575b5050505050905090565b600080fd5b600073ffffffffffffffffffffffffffffffffffffffff82169050919050565b600061039a8261036f565b9050919050565b6103aa8161038f565b81146103b557600080fd5b50565b6000813590506103c7816103a1565b92915050565b6000602082840312156103e3576103e261036a565b5b60006103f1848285016103b8565b91505092915050565b60008115159050919050565b61040f816103fa565b82525050565b600060208201905061042a6000830184610406565b92915050565b600081519050919050565b600082825260208201905092915050565b6000819050602082019050919050565b6104658161038f565b82525050565b6000610477838361045c565b60208301905092915050565b6000602082019050919050565b600061049b82610430565b6104a5818561043b565b93506104b08361044c565b8060005b838110156104e15781516104c8888261046b565b97506104d383610483565b9250506001810190506104b4565b5085935050505092915050565b600060208201905081810360008301526105088184610490565b90509291505056fea264697066735822122009b2230dd8773b5c1a35077f4007aa46cf4ba4e3394b529d87c46e9e34533da464736f6c63430008110033608060405234801561001057600080fd5b50604051610f2f380380610f2f833981810160405281019061003291906100db565b806000806101000a81548173ffffffffffffffffffffffffffffffffffffffff021916908373ffffffffffffffffffffffffffffffffffffffff16021790555050610108565b600080fd5b600073ffffffffffffffffffffffffffffffffffffffff82169050919050565b60006100a88261007d565b9050919050565b6100b88161009d565b81146100c357600080fd5b50565b6000815190506100d5816100af565b92915050565b6000602082840312156100f1576100f0610078565b5b60006100ff848285016100c6565b91505092915050565b610e18806101176000396000f3fe608060405234801561001057600080fd5b50600436106100415760003560e01c80631107747e1461004657806343a0e44a14610062578063f40941d01461007e575b600080fd5b610060600480360381019061005b9190610690565b6100ae565b005b61007c60048036038101906100779190610803565b61014a565b005b61009860048036038101906100939190610690565b610328565b6040516100a59190610a49565b60405180910390f35b60008054906101000a900473ffffffffffffffffffffffffffffffffffffffff1673ffffffffffffffffffffffffffffffffffffffff163373ffffffffffffffffffffffffffffffffffffffff161461010657600080fd5b80600260006101000a81548173ffffffffffffffffffffffffffffffffffffffff021916908373ffffffffffffffffffffffffffffffffffffffff16021790555050565b83600260009054906101000a900473ffffffffffffffffffffffffffffffffffffffff1673ffffffffffffffffffffffffffffffffffffffff166363a9c3d7826040518263ffffffff1660e01b81526004016101a69190610a7a565b602060405180830381865afa1580156101c3573d6000803e3d6000fd5b505050506040513d601f19601f820116820180604052508101906101e79190610acd565b6101f057600080fd5b6101f86105e7565b84816000018190525083816020018190525082816040019073ffffffffffffffffffffffffffffffffffffffff16908173ffffffffffffffffffffffffffffffffffffffff1681525050600160008773ffffffffffffffffffffffffffffffffffffffff1673ffffffffffffffffffffffffffffffffffffffff16815260200190815260200160002081908060018154018082558091505060019003906000526020600020906003020160009091909190915060008201518160000190816102c09190610d10565b5060208201518160010190816102d69190610d10565b5060408201518160020160006101000a81548173ffffffffffffffffffffffffffffffffffffffff021916908373ffffffffffffffffffffffffffffffffffffffff1602179055505050505050505050565b606033600260009054906101000a900473ffffffffffffffffffffffffffffffffffffffff1673ffffffffffffffffffffffffffffffffffffffff166363a9c3d7826040518263ffffffff1660e01b81526004016103869190610a7a565b602060405180830381865afa1580156103a3573d6000803e3d6000fd5b505050506040513d601f19601f820116820180604052508101906103c79190610acd565b6103d057600080fd5b600160008473ffffffffffffffffffffffffffffffffffffffff1673ffffffffffffffffffffffffffffffffffffffff168152602001908152602001600020805480602002602001604051908101604052809291908181526020016000905b828210156105db578382906000526020600020906003020160405180606001604052908160008201805461046290610b29565b80601f016020809104026020016040519081016040528092919081815260200182805461048e90610b29565b80156104db5780601f106104b0576101008083540402835291602001916104db565b820191906000526020600020905b8154815290600101906020018083116104be57829003601f168201915b505050505081526020016001820180546104f490610b29565b80601f016020809104026020016040519081016040528092919081815260200182805461052090610b29565b801561056d5780601f106105425761010080835404028352916020019161056d565b820191906000526020600020905b81548152906001019060200180831161055057829003601f168201915b505050505081526020016002820160009054906101000a900473ffffffffffffffffffffffffffffffffffffffff1673ffffffffffffffffffffffffffffffffffffffff1673ffffffffffffffffffffffffffffffffffffffff16815250508152602001906001019061042f565b50505050915050919050565b60405180606001604052806060815260200160608152602001600073ffffffffffffffffffffffffffffffffffffffff1681525090565b6000604051905090565b600080fd5b600080fd5b600073ffffffffffffffffffffffffffffffffffffffff82169050919050565b600061065d82610632565b9050919050565b61066d81610652565b811461067857600080fd5b50565b60008135905061068a81610664565b92915050565b6000602082840312156106a6576106a5610628565b5b60006106b48482850161067b565b91505092915050565b600080fd5b600080fd5b6000601f19601f8301169050919050565b7f4e487b7100000000000000000000000000000000000000000000000000000000600052604160045260246000fd5b610710826106c7565b810181811067ffffffffffffffff8211171561072f5761072e6106d8565b5b80604052505050565b600061074261061e565b905061074e8282610707565b919050565b600067ffffffffffffffff82111561076e5761076d6106d8565b5b610777826106c7565b9050602081019050919050565b82818337600083830152505050565b60006107a66107a184610753565b610738565b9050828152602081018484840111156107c2576107c16106c2565b5b6107cd848285610784565b509392505050565b600082601f8301126107ea576107e96106bd565b5b81356107fa848260208601610793565b91505092915050565b6000806000806080858703121561081d5761081c610628565b5b600061082b8782880161067b565b945050602085013567ffffffffffffffff81111561084c5761084b61062d565b5b610858878288016107d5565b935050604085013567ffffffffffffffff8111156108795761087861062d565b5b610885878288016107d5565b92505060606108968782880161067b565b91505092959194509250565b600081519050919050565b600082825260208201905092915050565b6000819050602082019050919050565b600081519050919050565b600082825260208201905092915050565b60005b838110156109085780820151818401526020810190506108ed565b60008484015250505050565b600061091f826108ce565b61092981856108d9565b93506109398185602086016108ea565b610942816106c7565b840191505092915050565b61095681610652565b82525050565b600060608301600083015184820360008601526109798282610914565b915050602083015184820360208601526109938282610914565b91505060408301516109a8604086018261094d565b508091505092915050565b60006109bf838361095c565b905092915050565b6000602082019050919050565b60006109df826108a2565b6109e981856108ad565b9350836020820285016109fb856108be565b8060005b85811015610a375784840389528151610a1885826109b3565b9450610a23836109c7565b925060208a019950506001810190506109ff565b50829750879550505050505092915050565b60006020820190508181036000830152610a6381846109d4565b905092915050565b610a7481610652565b82525050565b6000602082019050610a8f6000830184610a6b565b92915050565b60008115159050919050565b610aaa81610a95565b8114610ab557600080fd5b50565b600081519050610ac781610aa1565b92915050565b600060208284031215610ae357610ae2610628565b5b6000610af184828501610ab8565b91505092915050565b7f4e487b7100000000000000000000000000000000000000000000000000000000600052602260045260246000fd5b60006002820490506001821680610b4157607f821691505b602082108103610b5457610b53610afa565b5b50919050565b60008190508160005260206000209050919050565b60006020601f8301049050919050565b600082821b905092915050565b600060088302610bbc7fffffffffffffffffffffffffffffffffffffffffffffffffffffffffffffffff82610b7f565b610bc68683610b7f565b95508019841693508086168417925050509392505050565b6000819050919050565b6000819050919050565b6000610c0d610c08610c0384610bde565b610be8565b610bde565b9050919050565b6000819050919050565b610c2783610bf2565b610c3b610c3382610c14565b848454610b8c565b825550505050565b600090565b610c50610c43565b610c5b818484610c1e565b505050565b5b81811015610c7f57610c74600082610c48565b600181019050610c61565b5050565b601f821115610cc457610c9581610b5a565b610c9e84610b6f565b81016020851015610cad578190505b610cc1610cb985610b6f565b830182610c60565b50505b505050565b600082821c905092915050565b6000610ce760001984600802610cc9565b1980831691505092915050565b6000610d008383610cd6565b9150826002028217905092915050565b610d19826108ce565b67ffffffffffffffff811115610d3257610d316106d8565b5b610d3c8254610b29565b610d47828285610c83565b600060209050601f831160018114610d7a5760008415610d68578287015190505b610d728582610cf4565b865550610dda565b601f198416610d8886610b5a565b60005b82811015610db057848901518255600182019150602085019450602081019050610d8b565b86831015610dcd5784890151610dc9601f891682610cd6565b8355505b6001600288020188555050505b50505050505056fea264697066735822122030867f06d6afe80cf87c4be4fc5222f7e1581162085283cbbd62f52c9f5baabb64736f6c63430008110033","opcodes":"PUSH1 0x80 PUSH1 0x40 MSTORE CALLVALUE DUP1 ISZERO PUSH3 0x11 JUMPI PUSH1 0x0 DUP1 REVERT JUMPDEST POP CALLER PUSH1 0x1 PUSH1 0x0 PUSH2 0x100 EXP DUP2 SLOAD DUP2 PUSH20 0xFFFFFFFFFFFFFFFFFFFFFFFFFFFFFFFFFFFFFFFF MUL NOT AND SWAP1 DUP4 PUSH20 0xFFFFFFFFFFFFFFFFFFFFFFFFFFFFFFFFFFFFFFFF AND MUL OR SWAP1 SSTORE POP PUSH1 0x0 CALLER PUSH1 0x40 MLOAD PUSH3 0x64 SWAP1 PUSH3 0x571 JUMP JUMPDEST PUSH3 0x70 SWAP2 SWAP1 PUSH3 0x5EE JUMP JUMPDEST PUSH1 0x40 MLOAD DUP1 SWAP2 SUB SWAP1 PUSH1 0x0 CREATE DUP1 ISZERO DUP1 ISZERO PUSH3 0x8D JUMPI RETURNDATASIZE PUSH1 0x0 DUP1 RETURNDATACOPY RETURNDATASIZE PUSH1 0x0 REVERT JUMPDEST POP SWAP1 POP PUSH1 0x0 PUSH1 0x40 MLOAD PUSH3 0xA0 SWAP1 PUSH3 0x666 JUMP JUMPDEST SWAP1 DUP2 MSTORE PUSH1 0x20 ADD PUSH1 0x40 MLOAD DUP1 SWAP2 SUB SWAP1 KECCAK256 PUSH1 0x40 MLOAD DUP1 PUSH1 0x40 ADD PUSH1 0x40 MSTORE DUP1 PUSH1 0x40 MLOAD DUP1 PUSH1 0x40 ADD PUSH1 0x40 MSTORE DUP1 PUSH1 0xE DUP2 MSTORE PUSH1 0x20 ADD PUSH32 0x4D65646963616C5265636F726473000000000000000000000000000000000000 DUP2 MSTORE POP DUP2 MSTORE PUSH1 0x20 ADD DUP4 PUSH20 0xFFFFFFFFFFFFFFFFFFFFFFFFFFFFFFFFFFFFFFFF AND DUP2 MSTORE POP SWAP1 DUP1 PUSH1 0x1 DUP2 SLOAD ADD DUP1 DUP3 SSTORE DUP1 SWAP2 POP POP PUSH1 0x1 SWAP1 SUB SWAP1 PUSH1 0x0 MSTORE PUSH1 0x20 PUSH1 0x0 KECCAK256 SWAP1 PUSH1 0x2 MUL ADD PUSH1 0x0 SWAP1 SWAP2 SWAP1 SWAP2 SWAP1 SWAP2 POP PUSH1 0x0 DUP3 ADD MLOAD DUP2 PUSH1 0x0 ADD SWAP1 DUP2 PUSH3 0x14E SWAP2 SWAP1 PUSH3 0x8F7 JUMP JUMPDEST POP PUSH1 0x20 DUP3 ADD MLOAD DUP2 PUSH1 0x1 ADD PUSH1 0x0 PUSH2 0x100 EXP DUP2 SLOAD DUP2 PUSH20 0xFFFFFFFFFFFFFFFFFFFFFFFFFFFFFFFFFFFFFFFF MUL NOT AND SWAP1 DUP4 PUSH20 0xFFFFFFFFFFFFFFFFFFFFFFFFFFFFFFFFFFFFFFFF AND MUL OR SWAP1 SSTORE POP POP POP PUSH1 0x0 CALLER PUSH1 0x40 MLOAD PUSH3 0x1A9 SWAP1 PUSH3 0x57F JUMP JUMPDEST PUSH3 0x1B5 SWAP2 SWAP1 PUSH3 0x5EE JUMP JUMPDEST PUSH1 0x40 MLOAD DUP1 SWAP2 SUB SWAP1 PUSH1 0x0 CREATE DUP1 ISZERO DUP1 ISZERO PUSH3 0x1D2 JUMPI RETURNDATASIZE PUSH1 0x0 DUP1 RETURNDATACOPY RETURNDATASIZE PUSH1 0x0 REVERT JUMPDEST POP SWAP1 POP PUSH1 0x0 PUSH1 0x40 MLOAD PUSH3 0x1E5 SWAP1 PUSH3 0x666 JUMP JUMPDEST SWAP1 DUP2 MSTORE PUSH1 0x20 ADD PUSH1 0x40 MLOAD DUP1 SWAP2 SUB SWAP1 KECCAK256 PUSH1 0x40 MLOAD DUP1 PUSH1 0x40 ADD PUSH1 0x40 MSTORE DUP1 PUSH1 0x40 MLOAD DUP1 PUSH1 0x40 ADD PUSH1 0x40 MSTORE DUP1 PUSH1 0x12 DUP2 MSTORE PUSH1 0x20 ADD PUSH32 0x50617469656E745665726966696361746F720000000000000000000000000000 DUP2 MSTORE POP DUP2 MSTORE PUSH1 0x20 ADD DUP4 PUSH20 0xFFFFFFFFFFFFFFFFFFFFFFFFFFFFFFFFFFFFFFFF AND DUP2 MSTORE POP SWAP1 DUP1 PUSH1 0x1 DUP2 SLOAD ADD DUP1 DUP3 SSTORE DUP1 SWAP2 POP POP PUSH1 0x1 SWAP1 SUB SWAP1 PUSH1 0x0 MSTORE PUSH1 0x20 PUSH1 0x0 KECCAK256 SWAP1 PUSH1 0x2 MUL ADD PUSH1 0x0 SWAP1 SWAP2 SWAP1 SWAP2 SWAP1 SWAP2 POP PUSH1 0x0 DUP3 ADD MLOAD DUP2 PUSH1 0x0 ADD SWAP1 DUP2 PUSH3 0x293 SWAP2 SWAP1 PUSH3 0x8F7 JUMP JUMPDEST POP PUSH1 0x20 DUP3 ADD MLOAD DUP2 PUSH1 0x1 ADD PUSH1 0x0 PUSH2 0x100 EXP DUP2 SLOAD DUP2 PUSH20 0xFFFFFFFFFFFFFFFFFFFFFFFFFFFFFFFFFFFFFFFF MUL NOT AND SWAP1 DUP4 PUSH20 0xFFFFFFFFFFFFFFFFFFFFFFFFFFFFFFFFFFFFFFFF AND MUL OR SWAP1 SSTORE POP POP POP PUSH1 0x0 CALLER PUSH1 0x40 MLOAD PUSH3 0x2EE SWAP1 PUSH3 0x58D JUMP JUMPDEST PUSH3 0x2FA SWAP2 SWAP1 PUSH3 0x5EE JUMP JUMPDEST PUSH1 0x40 MLOAD DUP1 SWAP2 SUB SWAP1 PUSH1 0x0 CREATE DUP1 ISZERO DUP1 ISZERO PUSH3 0x317 JUMPI RETURNDATASIZE PUSH1 0x0 DUP1 RETURNDATACOPY RETURNDATASIZE PUSH1 0x0 REVERT JUMPDEST POP SWAP1 POP PUSH1 0x0 PUSH1 0x40 MLOAD PUSH3 0x32A SWAP1 PUSH3 0x666 JUMP JUMPDEST SWAP1 DUP2 MSTORE PUSH1 0x20 ADD PUSH1 0x40 MLOAD DUP1 SWAP2 SUB SWAP1 KECCAK256 PUSH1 0x40 MLOAD DUP1 PUSH1 0x40 ADD PUSH1 0x40 MSTORE DUP1 PUSH1 0x40 MLOAD DUP1 PUSH1 0x40 ADD PUSH1 0x40 MSTORE DUP1 PUSH1 0x11 DUP2 MSTORE PUSH1 0x20 ADD PUSH32 0x446F63746F725665726966696361746F72000000000000000000000000000000 DUP2 MSTORE POP DUP2 MSTORE PUSH1 0x20 ADD DUP4 PUSH20 0xFFFFFFFFFFFFFFFFFFFFFFFFFFFFFFFFFFFFFFFF AND DUP2 MSTORE POP SWAP1 DUP1 PUSH1 0x1 DUP2 SLOAD ADD DUP1 DUP3 SSTORE DUP1 SWAP2 POP POP PUSH1 0x1 SWAP1 SUB SWAP1 PUSH1 0x0 MSTORE PUSH1 0x20 PUSH1 0x0 KECCAK256 SWAP1 PUSH1 0x2 MUL ADD PUSH1 0x0 SWAP1 SWAP2 SWAP1 SWAP2 SWAP1 SWAP2 POP PUSH1 0x0 DUP3 ADD MLOAD DUP2 PUSH1 0x0 ADD SWAP1 DUP2 PUSH3 0x3D8 SWAP2 SWAP1 PUSH3 0x8F7 JUMP JUMPDEST POP PUSH1 0x20 DUP3 ADD MLOAD DUP2 PUSH1 0x1 ADD PUSH1 0x0 PUSH2 0x100 EXP DUP2 SLOAD DUP2 PUSH20 0xFFFFFFFFFFFFFFFFFFFFFFFFFFFFFFFFFFFFFFFF MUL NOT AND SWAP1 DUP4 PUSH20 0xFFFFFFFFFFFFFFFFFFFFFFFFFFFFFFFFFFFFFFFF AND MUL OR SWAP1 SSTORE POP POP POP PUSH1 0x0 CALLER PUSH1 0x40 MLOAD PUSH3 0x433 SWAP1 PUSH3 0x59B JUMP JUMPDEST PUSH3 0x43F SWAP2 SWAP1 PUSH3 0x5EE JUMP JUMPDEST PUSH1 0x40 MLOAD DUP1 SWAP2 SUB SWAP1 PUSH1 0x0 CREATE DUP1 ISZERO DUP1 ISZERO PUSH3 0x45C JUMPI RETURNDATASIZE PUSH1 0x0 DUP1 RETURNDATACOPY RETURNDATASIZE PUSH1 0x0 REVERT JUMPDEST POP SWAP1 POP PUSH1 0x0 PUSH1 0x40 MLOAD PUSH3 0x46F SWAP1 PUSH3 0x666 JUMP JUMPDEST SWAP1 DUP2 MSTORE PUSH1 0x20 ADD PUSH1 0x40 MLOAD DUP1 SWAP2 SUB SWAP1 KECCAK256 PUSH1 0x40 MLOAD DUP1 PUSH1 0x40 ADD PUSH1 0x40 MSTORE DUP1 PUSH1 0x40 MLOAD DUP1 PUSH1 0x40 ADD PUSH1 0x40 MSTORE DUP1 PUSH1 0xE DUP2 MSTORE PUSH1 0x20 ADD PUSH32 0x446F63746F7252656C6174696F6E000000000000000000000000000000000000 DUP2 MSTORE POP DUP2 MSTORE PUSH1 0x20 ADD DUP4 PUSH20 0xFFFFFFFFFFFFFFFFFFFFFFFFFFFFFFFFFFFFFFFF AND DUP2 MSTORE POP SWAP1 DUP1 PUSH1 0x1 DUP2 SLOAD ADD DUP1 DUP3 SSTORE DUP1 SWAP2 POP POP PUSH1 0x1 SWAP1 SUB SWAP1 PUSH1 0x0 MSTORE PUSH1 0x20 PUSH1 0x0 KECCAK256 SWAP1 PUSH1 0x2 MUL ADD PUSH1 0x0 SWAP1 SWAP2 SWAP1 SWAP2 SWAP1 SWAP2 POP PUSH1 0x0 DUP3 ADD MLOAD DUP2 PUSH1 0x0 ADD SWAP1 DUP2 PUSH3 0x51D SWAP2 SWAP1 PUSH3 0x8F7 JUMP JUMPDEST POP PUSH1 0x20 DUP3 ADD MLOAD DUP2 PUSH1 0x1 ADD PUSH1 0x0 PUSH2 0x100 EXP DUP2 SLOAD DUP2 PUSH20 0xFFFFFFFFFFFFFFFFFFFFFFFFFFFFFFFFFFFFFFFF MUL NOT AND SWAP1 DUP4 PUSH20 0xFFFFFFFFFFFFFFFFFFFFFFFFFFFFFFFFFFFFFFFF AND MUL OR SWAP1 SSTORE POP POP POP POP POP POP POP PUSH3 0x9DE JUMP JUMPDEST PUSH2 0x4F12 DUP1 PUSH3 0x10F3 DUP4 CODECOPY ADD SWAP1 JUMP JUMPDEST PUSH2 0x600 DUP1 PUSH3 0x6005 DUP4 CODECOPY ADD SWAP1 JUMP JUMPDEST PUSH2 0x65D DUP1 PUSH3 0x6605 DUP4 CODECOPY ADD SWAP1 JUMP JUMPDEST PUSH2 0xF2F DUP1 PUSH3 0x6C62 DUP4 CODECOPY ADD SWAP1 JUMP JUMPDEST PUSH1 0x0 PUSH20 0xFFFFFFFFFFFFFFFFFFFFFFFFFFFFFFFFFFFFFFFF DUP3 AND SWAP1 POP SWAP2 SWAP1 POP JUMP JUMPDEST PUSH1 0x0 PUSH3 0x5D6 DUP3 PUSH3 0x5A9 JUMP JUMPDEST SWAP1 POP SWAP2 SWAP1 POP JUMP JUMPDEST PUSH3 0x5E8 DUP2 PUSH3 0x5C9 JUMP JUMPDEST DUP3 MSTORE POP POP JUMP JUMPDEST PUSH1 0x0 PUSH1 0x20 DUP3 ADD SWAP1 POP PUSH3 0x605 PUSH1 0x0 DUP4 ADD DUP5 PUSH3 0x5DD JUMP JUMPDEST SWAP3 SWAP2 POP POP JUMP JUMPDEST PUSH1 0x0 DUP2 SWAP1 POP SWAP3 SWAP2 POP POP JUMP JUMPDEST PUSH32 0x7365637265740000000000000000000000000000000000000000000000000000 PUSH1 0x0 DUP3 ADD MSTORE POP JUMP JUMPDEST PUSH1 0x0 PUSH3 0x64E PUSH1 0x6 DUP4 PUSH3 0x60B JUMP JUMPDEST SWAP2 POP PUSH3 0x65B DUP3 PUSH3 0x616 JUMP JUMPDEST PUSH1 0x6 DUP3 ADD SWAP1 POP SWAP2 SWAP1 POP JUMP JUMPDEST PUSH1 0x0 PUSH3 0x673 DUP3 PUSH3 0x63F JUMP JUMPDEST SWAP2 POP DUP2 SWAP1 POP SWAP2 SWAP1 POP JUMP JUMPDEST PUSH1 0x0 DUP2 MLOAD SWAP1 POP SWAP2 SWAP1 POP JUMP JUMPDEST PUSH32 0x4E487B7100000000000000000000000000000000000000000000000000000000 PUSH1 0x0 MSTORE PUSH1 0x41 PUSH1 0x4 MSTORE PUSH1 0x24 PUSH1 0x0 REVERT JUMPDEST PUSH32 0x4E487B7100000000000000000000000000000000000000000000000000000000 PUSH1 0x0 MSTORE PUSH1 0x22 PUSH1 0x4 MSTORE PUSH1 0x24 PUSH1 0x0 REVERT JUMPDEST PUSH1 0x0 PUSH1 0x2 DUP3 DIV SWAP1 POP PUSH1 0x1 DUP3 AND DUP1 PUSH3 0x6FF JUMPI PUSH1 0x7F DUP3 AND SWAP2 POP JUMPDEST PUSH1 0x20 DUP3 LT DUP2 SUB PUSH3 0x715 JUMPI PUSH3 0x714 PUSH3 0x6B7 JUMP JUMPDEST JUMPDEST POP SWAP2 SWAP1 POP JUMP JUMPDEST PUSH1 0x0 DUP2 SWAP1 POP DUP2 PUSH1 0x0 MSTORE PUSH1 0x20 PUSH1 0x0 KECCAK256 SWAP1 POP SWAP2 SWAP1 POP JUMP JUMPDEST PUSH1 0x0 PUSH1 0x20 PUSH1 0x1F DUP4 ADD DIV SWAP1 POP SWAP2 SWAP1 POP JUMP JUMPDEST PUSH1 0x0 DUP3 DUP3 SHL SWAP1 POP SWAP3 SWAP2 POP POP JUMP JUMPDEST PUSH1 0x0 PUSH1 0x8 DUP4 MUL PUSH3 0x77F PUSH32 0xFFFFFFFFFFFFFFFFFFFFFFFFFFFFFFFFFFFFFFFFFFFFFFFFFFFFFFFFFFFFFFFF DUP3 PUSH3 0x740 JUMP JUMPDEST PUSH3 0x78B DUP7 DUP4 PUSH3 0x740 JUMP JUMPDEST SWAP6 POP DUP1 NOT DUP5 AND SWAP4 POP DUP1 DUP7 AND DUP5 OR SWAP3 POP POP POP SWAP4 SWAP3 POP POP POP JUMP JUMPDEST PUSH1 0x0 DUP2 SWAP1 POP SWAP2 SWAP1 POP JUMP JUMPDEST PUSH1 0x0 DUP2 SWAP1 POP SWAP2 SWAP1 POP JUMP JUMPDEST PUSH1 0x0 PUSH3 0x7D8 PUSH3 0x7D2 PUSH3 0x7CC DUP5 PUSH3 0x7A3 JUMP JUMPDEST PUSH3 0x7AD JUMP JUMPDEST PUSH3 0x7A3 JUMP JUMPDEST SWAP1 POP SWAP2 SWAP1 POP JUMP JUMPDEST PUSH1 0x0 DUP2 SWAP1 POP SWAP2 SWAP1 POP JUMP JUMPDEST PUSH3 0x7F4 DUP4 PUSH3 0x7B7 JUMP JUMPDEST PUSH3 0x80C PUSH3 0x803 DUP3 PUSH3 0x7DF JUMP JUMPDEST DUP5 DUP5 SLOAD PUSH3 0x74D JUMP JUMPDEST DUP3 SSTORE POP POP POP POP JUMP JUMPDEST PUSH1 0x0 SWAP1 JUMP JUMPDEST PUSH3 0x823 PUSH3 0x814 JUMP JUMPDEST PUSH3 0x830 DUP2 DUP5 DUP5 PUSH3 0x7E9 JUMP JUMPDEST POP POP POP JUMP JUMPDEST JUMPDEST DUP2 DUP2 LT ISZERO PUSH3 0x858 JUMPI PUSH3 0x84C PUSH1 0x0 DUP3 PUSH3 0x819 JUMP JUMPDEST PUSH1 0x1 DUP2 ADD SWAP1 POP PUSH3 0x836 JUMP JUMPDEST POP POP JUMP JUMPDEST PUSH1 0x1F DUP3 GT ISZERO PUSH3 0x8A7 JUMPI PUSH3 0x871 DUP2 PUSH3 0x71B JUMP JUMPDEST PUSH3 0x87C DUP5 PUSH3 0x730 JUMP JUMPDEST DUP2 ADD PUSH1 0x20 DUP6 LT ISZERO PUSH3 0x88C JUMPI DUP2 SWAP1 POP JUMPDEST PUSH3 0x8A4 PUSH3 0x89B DUP6 PUSH3 0x730 JUMP JUMPDEST DUP4 ADD DUP3 PUSH3 0x835 JUMP JUMPDEST POP POP JUMPDEST POP POP POP JUMP JUMPDEST PUSH1 0x0 DUP3 DUP3 SHR SWAP1 POP SWAP3 SWAP2 POP POP JUMP JUMPDEST PUSH1 0x0 PUSH3 0x8CC PUSH1 0x0 NOT DUP5 PUSH1 0x8 MUL PUSH3 0x8AC JUMP JUMPDEST NOT DUP1 DUP4 AND SWAP2 POP POP SWAP3 SWAP2 POP POP JUMP JUMPDEST PUSH1 0x0 PUSH3 0x8E7 DUP4 DUP4 PUSH3 0x8B9 JUMP JUMPDEST SWAP2 POP DUP3 PUSH1 0x2 MUL DUP3 OR SWAP1 POP SWAP3 SWAP2 POP POP JUMP JUMPDEST PUSH3 0x902 DUP3 PUSH3 0x67D JUMP JUMPDEST PUSH8 0xFFFFFFFFFFFFFFFF DUP2 GT ISZERO PUSH3 0x91E JUMPI PUSH3 0x91D PUSH3 0x688 JUMP JUMPDEST JUMPDEST PUSH3 0x92A DUP3 SLOAD PUSH3 0x6E6 JUMP JUMPDEST PUSH3 0x937 DUP3 DUP3 DUP6 PUSH3 0x85C JUMP JUMPDEST PUSH1 0x0 PUSH1 0x20 SWAP1 POP PUSH1 0x1F DUP4 GT PUSH1 0x1 DUP2 EQ PUSH3 0x96F JUMPI PUSH1 0x0 DUP5 ISZERO PUSH3 0x95A JUMPI DUP3 DUP8 ADD MLOAD SWAP1 POP JUMPDEST PUSH3 0x966 DUP6 DUP3 PUSH3 0x8D9 JUMP JUMPDEST DUP7 SSTORE POP PUSH3 0x9D6 JUMP JUMPDEST PUSH1 0x1F NOT DUP5 AND PUSH3 0x97F DUP7 PUSH3 0x71B JUMP JUMPDEST PUSH1 0x0 JUMPDEST DUP3 DUP2 LT ISZERO PUSH3 0x9A9 JUMPI DUP5 DUP10 ADD MLOAD DUP3 SSTORE PUSH1 0x1 DUP3 ADD SWAP2 POP PUSH1 0x20 DUP6 ADD SWAP5 POP PUSH1 0x20 DUP2 ADD SWAP1 POP PUSH3 0x982 JUMP JUMPDEST DUP7 DUP4 LT ISZERO PUSH3 0x9C9 JUMPI DUP5 DUP10 ADD MLOAD PUSH3 0x9C5 PUSH1 0x1F DUP10 AND DUP3 PUSH3 0x8B9 JUMP JUMPDEST DUP4 SSTORE POP JUMPDEST PUSH1 0x1 PUSH1 0x2 DUP9 MUL ADD DUP9 SSTORE POP POP POP JUMPDEST POP POP POP POP POP POP JUMP JUMPDEST PUSH2 0x705 DUP1 PUSH3 0x9EE PUSH1 0x0 CODECOPY PUSH1 0x0 RETURN INVALID PUSH1 0x80 PUSH1 0x40 MSTORE CALLVALUE DUP1 ISZERO PUSH2 0x10 JUMPI PUSH1 0x0 DUP1 REVERT JUMPDEST POP PUSH1 0x4 CALLDATASIZE LT PUSH2 0x36 JUMPI PUSH1 0x0 CALLDATALOAD PUSH1 0xE0 SHR DUP1 PUSH4 0xC4FE354C EQ PUSH2 0x3B JUMPI DUP1 PUSH4 0xF851A440 EQ PUSH2 0x6B JUMPI JUMPDEST PUSH1 0x0 DUP1 REVERT JUMPDEST PUSH2 0x55 PUSH1 0x4 DUP1 CALLDATASIZE SUB DUP2 ADD SWAP1 PUSH2 0x50 SWAP2 SWAP1 PUSH2 0x3C8 JUMP JUMPDEST PUSH2 0x89 JUMP JUMPDEST PUSH1 0x40 MLOAD PUSH2 0x62 SWAP2 SWAP1 PUSH2 0x5D0 JUMP JUMPDEST PUSH1 0x40 MLOAD DUP1 SWAP2 SUB SWAP1 RETURN JUMPDEST PUSH2 0x73 PUSH2 0x248 JUMP JUMPDEST PUSH1 0x40 MLOAD PUSH2 0x80 SWAP2 SWAP1 PUSH2 0x601 JUMP JUMPDEST PUSH1 0x40 MLOAD DUP1 SWAP2 SUB SWAP1 RETURN JUMPDEST PUSH1 0x60 PUSH1 0x1 PUSH1 0x0 SWAP1 SLOAD SWAP1 PUSH2 0x100 EXP SWAP1 DIV PUSH20 0xFFFFFFFFFFFFFFFFFFFFFFFFFFFFFFFFFFFFFFFF AND PUSH20 0xFFFFFFFFFFFFFFFFFFFFFFFFFFFFFFFFFFFFFFFF AND CALLER PUSH20 0xFFFFFFFFFFFFFFFFFFFFFFFFFFFFFFFFFFFFFFFF AND EQ PUSH2 0xE5 JUMPI PUSH1 0x0 DUP1 REVERT JUMPDEST PUSH1 0x0 DUP3 PUSH1 0x40 MLOAD PUSH2 0xF5 SWAP2 SWAP1 PUSH2 0x658 JUMP JUMPDEST SWAP1 DUP2 MSTORE PUSH1 0x20 ADD PUSH1 0x40 MLOAD DUP1 SWAP2 SUB SWAP1 KECCAK256 DUP1 SLOAD DUP1 PUSH1 0x20 MUL PUSH1 0x20 ADD PUSH1 0x40 MLOAD SWAP1 DUP2 ADD PUSH1 0x40 MSTORE DUP1 SWAP3 SWAP2 SWAP1 DUP2 DUP2 MSTORE PUSH1 0x20 ADD PUSH1 0x0 SWAP1 JUMPDEST DUP3 DUP3 LT ISZERO PUSH2 0x23D JUMPI DUP4 DUP3 SWAP1 PUSH1 0x0 MSTORE PUSH1 0x20 PUSH1 0x0 KECCAK256 SWAP1 PUSH1 0x2 MUL ADD PUSH1 0x40 MLOAD DUP1 PUSH1 0x40 ADD PUSH1 0x40 MSTORE SWAP1 DUP2 PUSH1 0x0 DUP3 ADD DUP1 SLOAD PUSH2 0x156 SWAP1 PUSH2 0x69E JUMP JUMPDEST DUP1 PUSH1 0x1F ADD PUSH1 0x20 DUP1 SWAP2 DIV MUL PUSH1 0x20 ADD PUSH1 0x40 MLOAD SWAP1 DUP2 ADD PUSH1 0x40 MSTORE DUP1 SWAP3 SWAP2 SWAP1 DUP2 DUP2 MSTORE PUSH1 0x20 ADD DUP3 DUP1 SLOAD PUSH2 0x182 SWAP1 PUSH2 0x69E JUMP JUMPDEST DUP1 ISZERO PUSH2 0x1CF JUMPI DUP1 PUSH1 0x1F LT PUSH2 0x1A4 JUMPI PUSH2 0x100 DUP1 DUP4 SLOAD DIV MUL DUP4 MSTORE SWAP2 PUSH1 0x20 ADD SWAP2 PUSH2 0x1CF JUMP JUMPDEST DUP3 ADD SWAP2 SWAP1 PUSH1 0x0 MSTORE PUSH1 0x20 PUSH1 0x0 KECCAK256 SWAP1 JUMPDEST DUP2 SLOAD DUP2 MSTORE SWAP1 PUSH1 0x1 ADD SWAP1 PUSH1 0x20 ADD DUP1 DUP4 GT PUSH2 0x1B2 JUMPI DUP3 SWAP1 SUB PUSH1 0x1F AND DUP3 ADD SWAP2 JUMPDEST POP POP POP POP POP DUP2 MSTORE PUSH1 0x20 ADD PUSH1 0x1 DUP3 ADD PUSH1 0x0 SWAP1 SLOAD SWAP1 PUSH2 0x100 EXP SWAP1 DIV PUSH20 0xFFFFFFFFFFFFFFFFFFFFFFFFFFFFFFFFFFFFFFFF AND PUSH20 0xFFFFFFFFFFFFFFFFFFFFFFFFFFFFFFFFFFFFFFFF AND PUSH20 0xFFFFFFFFFFFFFFFFFFFFFFFFFFFFFFFFFFFFFFFF AND DUP2 MSTORE POP POP DUP2 MSTORE PUSH1 0x20 ADD SWAP1 PUSH1 0x1 ADD SWAP1 PUSH2 0x123 JUMP JUMPDEST POP POP POP POP SWAP1 POP SWAP2 SWAP1 POP JUMP JUMPDEST PUSH1 0x1 PUSH1 0x0 SWAP1 SLOAD SWAP1 PUSH2 0x100 EXP SWAP1 DIV PUSH20 0xFFFFFFFFFFFFFFFFFFFFFFFFFFFFFFFFFFFFFFFF AND DUP2 JUMP JUMPDEST PUSH1 0x0 PUSH1 0x40 MLOAD SWAP1 POP SWAP1 JUMP JUMPDEST PUSH1 0x0 DUP1 REVERT JUMPDEST PUSH1 0x0 DUP1 REVERT JUMPDEST PUSH1 0x0 DUP1 REVERT JUMPDEST PUSH1 0x0 DUP1 REVERT JUMPDEST PUSH1 0x0 PUSH1 0x1F NOT PUSH1 0x1F DUP4 ADD AND SWAP1 POP SWAP2 SWAP1 POP JUMP JUMPDEST PUSH32 0x4E487B7100000000000000000000000000000000000000000000000000000000 PUSH1 0x0 MSTORE PUSH1 0x41 PUSH1 0x4 MSTORE PUSH1 0x24 PUSH1 0x0 REVERT JUMPDEST PUSH2 0x2D5 DUP3 PUSH2 0x28C JUMP JUMPDEST DUP2 ADD DUP2 DUP2 LT PUSH8 0xFFFFFFFFFFFFFFFF DUP3 GT OR ISZERO PUSH2 0x2F4 JUMPI PUSH2 0x2F3 PUSH2 0x29D JUMP JUMPDEST JUMPDEST DUP1 PUSH1 0x40 MSTORE POP POP POP JUMP JUMPDEST PUSH1 0x0 PUSH2 0x307 PUSH2 0x26E JUMP JUMPDEST SWAP1 POP PUSH2 0x313 DUP3 DUP3 PUSH2 0x2CC JUMP JUMPDEST SWAP2 SWAP1 POP JUMP JUMPDEST PUSH1 0x0 PUSH8 0xFFFFFFFFFFFFFFFF DUP3 GT ISZERO PUSH2 0x333 JUMPI PUSH2 0x332 PUSH2 0x29D JUMP JUMPDEST JUMPDEST PUSH2 0x33C DUP3 PUSH2 0x28C JUMP JUMPDEST SWAP1 POP PUSH1 0x20 DUP2 ADD SWAP1 POP SWAP2 SWAP1 POP JUMP JUMPDEST DUP3 DUP2 DUP4 CALLDATACOPY PUSH1 0x0 DUP4 DUP4 ADD MSTORE POP POP POP JUMP JUMPDEST PUSH1 0x0 PUSH2 0x36B PUSH2 0x366 DUP5 PUSH2 0x318 JUMP JUMPDEST PUSH2 0x2FD JUMP JUMPDEST SWAP1 POP DUP3 DUP2 MSTORE PUSH1 0x20 DUP2 ADD DUP5 DUP5 DUP5 ADD GT ISZERO PUSH2 0x387 JUMPI PUSH2 0x386 PUSH2 0x287 JUMP JUMPDEST JUMPDEST PUSH2 0x392 DUP5 DUP3 DUP6 PUSH2 0x349 JUMP JUMPDEST POP SWAP4 SWAP3 POP POP POP JUMP JUMPDEST PUSH1 0x0 DUP3 PUSH1 0x1F DUP4 ADD SLT PUSH2 0x3AF JUMPI PUSH2 0x3AE PUSH2 0x282 JUMP JUMPDEST JUMPDEST DUP2 CALLDATALOAD PUSH2 0x3BF DUP5 DUP3 PUSH1 0x20 DUP7 ADD PUSH2 0x358 JUMP JUMPDEST SWAP2 POP POP SWAP3 SWAP2 POP POP JUMP JUMPDEST PUSH1 0x0 PUSH1 0x20 DUP3 DUP5 SUB SLT ISZERO PUSH2 0x3DE JUMPI PUSH2 0x3DD PUSH2 0x278 JUMP JUMPDEST JUMPDEST PUSH1 0x0 DUP3 ADD CALLDATALOAD PUSH8 0xFFFFFFFFFFFFFFFF DUP2 GT ISZERO PUSH2 0x3FC JUMPI PUSH2 0x3FB PUSH2 0x27D JUMP JUMPDEST JUMPDEST PUSH2 0x408 DUP5 DUP3 DUP6 ADD PUSH2 0x39A JUMP JUMPDEST SWAP2 POP POP SWAP3 SWAP2 POP POP JUMP JUMPDEST PUSH1 0x0 DUP2 MLOAD SWAP1 POP SWAP2 SWAP1 POP JUMP JUMPDEST PUSH1 0x0 DUP3 DUP3 MSTORE PUSH1 0x20 DUP3 ADD SWAP1 POP SWAP3 SWAP2 POP POP JUMP JUMPDEST PUSH1 0x0 DUP2 SWAP1 POP PUSH1 0x20 DUP3 ADD SWAP1 POP SWAP2 SWAP1 POP JUMP JUMPDEST PUSH1 0x0 DUP2 MLOAD SWAP1 POP SWAP2 SWAP1 POP JUMP JUMPDEST PUSH1 0x0 DUP3 DUP3 MSTORE PUSH1 0x20 DUP3 ADD SWAP1 POP SWAP3 SWAP2 POP POP JUMP JUMPDEST PUSH1 0x0 JUMPDEST DUP4 DUP2 LT ISZERO PUSH2 0x477 JUMPI DUP1 DUP3 ADD MLOAD DUP2 DUP5 ADD MSTORE PUSH1 0x20 DUP2 ADD SWAP1 POP PUSH2 0x45C JUMP JUMPDEST PUSH1 0x0 DUP5 DUP5 ADD MSTORE POP POP POP POP JUMP JUMPDEST PUSH1 0x0 PUSH2 0x48E DUP3 PUSH2 0x43D JUMP JUMPDEST PUSH2 0x498 DUP2 DUP6 PUSH2 0x448 JUMP JUMPDEST SWAP4 POP PUSH2 0x4A8 DUP2 DUP6 PUSH1 0x20 DUP7 ADD PUSH2 0x459 JUMP JUMPDEST PUSH2 0x4B1 DUP2 PUSH2 0x28C JUMP JUMPDEST DUP5 ADD SWAP2 POP POP SWAP3 SWAP2 POP POP JUMP JUMPDEST PUSH1 0x0 PUSH20 0xFFFFFFFFFFFFFFFFFFFFFFFFFFFFFFFFFFFFFFFF DUP3 AND SWAP1 POP SWAP2 SWAP1 POP JUMP JUMPDEST PUSH1 0x0 PUSH2 0x4E7 DUP3 PUSH2 0x4BC JUMP JUMPDEST SWAP1 POP SWAP2 SWAP1 POP JUMP JUMPDEST PUSH2 0x4F7 DUP2 PUSH2 0x4DC JUMP JUMPDEST DUP3 MSTORE POP POP JUMP JUMPDEST PUSH1 0x0 PUSH1 0x40 DUP4 ADD PUSH1 0x0 DUP4 ADD MLOAD DUP5 DUP3 SUB PUSH1 0x0 DUP7 ADD MSTORE PUSH2 0x51A DUP3 DUP3 PUSH2 0x483 JUMP JUMPDEST SWAP2 POP POP PUSH1 0x20 DUP4 ADD MLOAD PUSH2 0x52F PUSH1 0x20 DUP7 ADD DUP3 PUSH2 0x4EE JUMP JUMPDEST POP DUP1 SWAP2 POP POP SWAP3 SWAP2 POP POP JUMP JUMPDEST PUSH1 0x0 PUSH2 0x546 DUP4 DUP4 PUSH2 0x4FD JUMP JUMPDEST SWAP1 POP SWAP3 SWAP2 POP POP JUMP JUMPDEST PUSH1 0x0 PUSH1 0x20 DUP3 ADD SWAP1 POP SWAP2 SWAP1 POP JUMP JUMPDEST PUSH1 0x0 PUSH2 0x566 DUP3 PUSH2 0x411 JUMP JUMPDEST PUSH2 0x570 DUP2 DUP6 PUSH2 0x41C JUMP JUMPDEST SWAP4 POP DUP4 PUSH1 0x20 DUP3 MUL DUP6 ADD PUSH2 0x582 DUP6 PUSH2 0x42D JUMP JUMPDEST DUP1 PUSH1 0x0 JUMPDEST DUP6 DUP2 LT ISZERO PUSH2 0x5BE JUMPI DUP5 DUP5 SUB DUP10 MSTORE DUP2 MLOAD PUSH2 0x59F DUP6 DUP3 PUSH2 0x53A JUMP JUMPDEST SWAP5 POP PUSH2 0x5AA DUP4 PUSH2 0x54E JUMP JUMPDEST SWAP3 POP PUSH1 0x20 DUP11 ADD SWAP10 POP POP PUSH1 0x1 DUP2 ADD SWAP1 POP PUSH2 0x586 JUMP JUMPDEST POP DUP3 SWAP8 POP DUP8 SWAP6 POP POP POP POP POP POP SWAP3 SWAP2 POP POP JUMP JUMPDEST PUSH1 0x0 PUSH1 0x20 DUP3 ADD SWAP1 POP DUP2 DUP2 SUB PUSH1 0x0 DUP4 ADD MSTORE PUSH2 0x5EA DUP2 DUP5 PUSH2 0x55B JUMP JUMPDEST SWAP1 POP SWAP3 SWAP2 POP POP JUMP JUMPDEST PUSH2 0x5FB DUP2 PUSH2 0x4DC JUMP JUMPDEST DUP3 MSTORE POP POP JUMP JUMPDEST PUSH1 0x0 PUSH1 0x20 DUP3 ADD SWAP1 POP PUSH2 0x616 PUSH1 0x0 DUP4 ADD DUP5 PUSH2 0x5F2 JUMP JUMPDEST SWAP3 SWAP2 POP POP JUMP JUMPDEST PUSH1 0x0 DUP2 SWAP1 POP SWAP3 SWAP2 POP POP JUMP JUMPDEST PUSH1 0x0 PUSH2 0x632 DUP3 PUSH2 0x43D JUMP JUMPDEST PUSH2 0x63C DUP2 DUP6 PUSH2 0x61C JUMP JUMPDEST SWAP4 POP PUSH2 0x64C DUP2 DUP6 PUSH1 0x20 DUP7 ADD PUSH2 0x459 JUMP JUMPDEST DUP1 DUP5 ADD SWAP2 POP POP SWAP3 SWAP2 POP POP JUMP JUMPDEST PUSH1 0x0 PUSH2 0x664 DUP3 DUP5 PUSH2 0x627 JUMP JUMPDEST SWAP2 POP DUP2 SWAP1 POP SWAP3 SWAP2 POP POP JUMP JUMPDEST PUSH32 0x4E487B7100000000000000000000000000000000000000000000000000000000 PUSH1 0x0 MSTORE PUSH1 0x22 PUSH1 0x4 MSTORE PUSH1 0x24 PUSH1 0x0 REVERT JUMPDEST PUSH1 0x0 PUSH1 0x2 DUP3 DIV SWAP1 POP PUSH1 0x1 DUP3 AND DUP1 PUSH2 0x6B6 JUMPI PUSH1 0x7F DUP3 AND SWAP2 POP JUMPDEST PUSH1 0x20 DUP3 LT DUP2 SUB PUSH2 0x6C9 JUMPI PUSH2 0x6C8 PUSH2 0x66F JUMP JUMPDEST JUMPDEST POP SWAP2 SWAP1 POP JUMP INVALID LOG2 PUSH5 0x6970667358 0x22 SLT KECCAK256 NOT ADDMOD SGT SMOD 0xBF LOG0 0xA7 PUSH18 0x7B8E6FB72E5F39140DF67963969826B2F8A4 CALL 0xE8 PUSH16 0x8A4B9A64736F6C634300081100336080 PUSH1 0x40 MSTORE CALLVALUE DUP1 ISZERO PUSH3 0x11 JUMPI PUSH1 0x0 DUP1 REVERT JUMPDEST POP PUSH1 0x40 MLOAD PUSH3 0x4F12 CODESIZE SUB DUP1 PUSH3 0x4F12 DUP4 CODECOPY DUP2 DUP2 ADD PUSH1 0x40 MSTORE DUP2 ADD SWAP1 PUSH3 0x37 SWAP2 SWAP1 PUSH3 0xE9 JUMP JUMPDEST DUP1 PUSH1 0x5 PUSH1 0x0 PUSH2 0x100 EXP DUP2 SLOAD DUP2 PUSH20 0xFFFFFFFFFFFFFFFFFFFFFFFFFFFFFFFFFFFFFFFF MUL NOT AND SWAP1 DUP4 PUSH20 0xFFFFFFFFFFFFFFFFFFFFFFFFFFFFFFFFFFFFFFFF AND MUL OR SWAP1 SSTORE POP POP PUSH3 0x11B JUMP JUMPDEST PUSH1 0x0 DUP1 REVERT JUMPDEST PUSH1 0x0 PUSH20 0xFFFFFFFFFFFFFFFFFFFFFFFFFFFFFFFFFFFFFFFF DUP3 AND SWAP1 POP SWAP2 SWAP1 POP JUMP JUMPDEST PUSH1 0x0 PUSH3 0xB1 DUP3 PUSH3 0x84 JUMP JUMPDEST SWAP1 POP SWAP2 SWAP1 POP JUMP JUMPDEST PUSH3 0xC3 DUP2 PUSH3 0xA4 JUMP JUMPDEST DUP2 EQ PUSH3 0xCF JUMPI PUSH1 0x0 DUP1 REVERT JUMPDEST POP JUMP JUMPDEST PUSH1 0x0 DUP2 MLOAD SWAP1 POP PUSH3 0xE3 DUP2 PUSH3 0xB8 JUMP JUMPDEST SWAP3 SWAP2 POP POP JUMP JUMPDEST PUSH1 0x0 PUSH1 0x20 DUP3 DUP5 SUB SLT ISZERO PUSH3 0x102 JUMPI PUSH3 0x101 PUSH3 0x7F JUMP JUMPDEST JUMPDEST PUSH1 0x0 PUSH3 0x112 DUP5 DUP3 DUP6 ADD PUSH3 0xD2 JUMP JUMPDEST SWAP2 POP POP SWAP3 SWAP2 POP POP JUMP JUMPDEST PUSH2 0x4DE7 DUP1 PUSH3 0x12B PUSH1 0x0 CODECOPY PUSH1 0x0 RETURN INVALID PUSH1 0x80 PUSH1 0x40 MSTORE CALLVALUE DUP1 ISZERO PUSH2 0x10 JUMPI PUSH1 0x0 DUP1 REVERT JUMPDEST POP PUSH1 0x4 CALLDATASIZE LT PUSH2 0x93 JUMPI PUSH1 0x0 CALLDATALOAD PUSH1 0xE0 SHR DUP1 PUSH4 0x7621DF6F GT PUSH2 0x66 JUMPI DUP1 PUSH4 0x7621DF6F EQ PUSH2 0x108 JUMPI DUP1 PUSH4 0x9F08E438 EQ PUSH2 0x124 JUMPI DUP1 PUSH4 0xB2C24A34 EQ PUSH2 0x140 JUMPI DUP1 PUSH4 0xEB7353D1 EQ PUSH2 0x171 JUMPI DUP1 PUSH4 0xF539FE6C EQ PUSH2 0x1A2 JUMPI PUSH2 0x93 JUMP JUMPDEST DUP1 PUSH4 0x619A5A3 EQ PUSH2 0x98 JUMPI DUP1 PUSH4 0x1107747E EQ PUSH2 0xB4 JUMPI DUP1 PUSH4 0x4DA7580F EQ PUSH2 0xD0 JUMPI DUP1 PUSH4 0x5DB185C7 EQ PUSH2 0xEC JUMPI JUMPDEST PUSH1 0x0 DUP1 REVERT JUMPDEST PUSH2 0xB2 PUSH1 0x4 DUP1 CALLDATASIZE SUB DUP2 ADD SWAP1 PUSH2 0xAD SWAP2 SWAP1 PUSH2 0x3A64 JUMP JUMPDEST PUSH2 0x1D3 JUMP JUMPDEST STOP JUMPDEST PUSH2 0xCE PUSH1 0x4 DUP1 CALLDATASIZE SUB DUP2 ADD SWAP1 PUSH2 0xC9 SWAP2 SWAP1 PUSH2 0x3ADC JUMP JUMPDEST PUSH2 0x81E JUMP JUMPDEST STOP JUMPDEST PUSH2 0xEA PUSH1 0x4 DUP1 CALLDATASIZE SUB DUP2 ADD SWAP1 PUSH2 0xE5 SWAP2 SWAP1 PUSH2 0x3CDF JUMP JUMPDEST PUSH2 0x862 JUMP JUMPDEST STOP JUMPDEST PUSH2 0x106 PUSH1 0x4 DUP1 CALLDATASIZE SUB DUP2 ADD SWAP1 PUSH2 0x101 SWAP2 SWAP1 PUSH2 0x3ADC JUMP JUMPDEST PUSH2 0xDDB JUMP JUMPDEST STOP JUMPDEST PUSH2 0x122 PUSH1 0x4 DUP1 CALLDATASIZE SUB DUP2 ADD SWAP1 PUSH2 0x11D SWAP2 SWAP1 PUSH2 0x3ADC JUMP JUMPDEST PUSH2 0xE1F JUMP JUMPDEST STOP JUMPDEST PUSH2 0x13E PUSH1 0x4 DUP1 CALLDATASIZE SUB DUP2 ADD SWAP1 PUSH2 0x139 SWAP2 SWAP1 PUSH2 0x40D5 JUMP JUMPDEST PUSH2 0xE63 JUMP JUMPDEST STOP JUMPDEST PUSH2 0x15A PUSH1 0x4 DUP1 CALLDATASIZE SUB DUP2 ADD SWAP1 PUSH2 0x155 SWAP2 SWAP1 PUSH2 0x3ADC JUMP JUMPDEST PUSH2 0x14C4 JUMP JUMPDEST PUSH1 0x40 MLOAD PUSH2 0x168 SWAP3 SWAP2 SWAP1 PUSH2 0x444A JUMP JUMPDEST PUSH1 0x40 MLOAD DUP1 SWAP2 SUB SWAP1 RETURN JUMPDEST PUSH2 0x18B PUSH1 0x4 DUP1 CALLDATASIZE SUB DUP2 ADD SWAP1 PUSH2 0x186 SWAP2 SWAP1 PUSH2 0x3ADC JUMP JUMPDEST PUSH2 0x1D78 JUMP JUMPDEST PUSH1 0x40 MLOAD PUSH2 0x199 SWAP3 SWAP2 SWAP1 PUSH2 0x4742 JUMP JUMPDEST PUSH1 0x40 MLOAD DUP1 SWAP2 SUB SWAP1 RETURN JUMPDEST PUSH2 0x1BC PUSH1 0x4 DUP1 CALLDATASIZE SUB DUP2 ADD SWAP1 PUSH2 0x1B7 SWAP2 SWAP1 PUSH2 0x3ADC JUMP JUMPDEST PUSH2 0x28B0 JUMP JUMPDEST PUSH1 0x40 MLOAD PUSH2 0x1CA SWAP3 SWAP2 SWAP1 PUSH2 0x4993 JUMP JUMPDEST PUSH1 0x40 MLOAD DUP1 SWAP2 SUB SWAP1 RETURN JUMPDEST PUSH1 0x6 PUSH1 0x0 SWAP1 SLOAD SWAP1 PUSH2 0x100 EXP SWAP1 DIV PUSH20 0xFFFFFFFFFFFFFFFFFFFFFFFFFFFFFFFFFFFFFFFF AND PUSH20 0xFFFFFFFFFFFFFFFFFFFFFFFFFFFFFFFFFFFFFFFF AND PUSH4 0x63A9C3D7 CALLER PUSH1 0x40 MLOAD DUP3 PUSH4 0xFFFFFFFF AND PUSH1 0xE0 SHL DUP2 MSTORE PUSH1 0x4 ADD PUSH2 0x22E SWAP2 SWAP1 PUSH2 0x49D9 JUMP JUMPDEST PUSH1 0x20 PUSH1 0x40 MLOAD DUP1 DUP4 SUB DUP2 DUP7 GAS STATICCALL ISZERO DUP1 ISZERO PUSH2 0x24B JUMPI RETURNDATASIZE PUSH1 0x0 DUP1 RETURNDATACOPY RETURNDATASIZE PUSH1 0x0 REVERT JUMPDEST POP POP POP POP PUSH1 0x40 MLOAD RETURNDATASIZE PUSH1 0x1F NOT PUSH1 0x1F DUP3 ADD AND DUP3 ADD DUP1 PUSH1 0x40 MSTORE POP DUP2 ADD SWAP1 PUSH2 0x26F SWAP2 SWAP1 PUSH2 0x4A09 JUMP JUMPDEST PUSH2 0x278 JUMPI PUSH1 0x0 DUP1 REVERT JUMPDEST PUSH2 0x280 PUSH2 0x32DE JUMP JUMPDEST DUP3 PUSH1 0x0 ADD MLOAD DUP2 PUSH1 0x0 ADD SWAP1 PUSH20 0xFFFFFFFFFFFFFFFFFFFFFFFFFFFFFFFFFFFFFFFF AND SWAP1 DUP2 PUSH20 0xFFFFFFFFFFFFFFFFFFFFFFFFFFFFFFFFFFFFFFFF AND DUP2 MSTORE POP POP DUP3 PUSH1 0x20 ADD MLOAD DUP2 PUSH1 0x20 ADD DUP2 SWAP1 MSTORE POP DUP3 PUSH1 0x40 ADD MLOAD DUP2 PUSH1 0x40 ADD DUP2 DUP2 MSTORE POP POP DUP3 PUSH1 0x60 ADD MLOAD DUP2 PUSH1 0x60 ADD DUP2 SWAP1 MSTORE POP DUP3 PUSH1 0x80 ADD MLOAD DUP2 PUSH1 0x80 ADD DUP2 SWAP1 MSTORE POP DUP1 PUSH1 0x0 DUP1 DUP6 PUSH1 0x0 ADD MLOAD PUSH20 0xFFFFFFFFFFFFFFFFFFFFFFFFFFFFFFFFFFFFFFFF AND PUSH20 0xFFFFFFFFFFFFFFFFFFFFFFFFFFFFFFFFFFFFFFFF AND DUP2 MSTORE PUSH1 0x20 ADD SWAP1 DUP2 MSTORE PUSH1 0x20 ADD PUSH1 0x0 KECCAK256 PUSH1 0x0 DUP3 ADD MLOAD DUP2 PUSH1 0x0 ADD PUSH1 0x0 PUSH2 0x100 EXP DUP2 SLOAD DUP2 PUSH20 0xFFFFFFFFFFFFFFFFFFFFFFFFFFFFFFFFFFFFFFFF MUL NOT AND SWAP1 DUP4 PUSH20 0xFFFFFFFFFFFFFFFFFFFFFFFFFFFFFFFFFFFFFFFF AND MUL OR SWAP1 SSTORE POP PUSH1 0x20 DUP3 ADD MLOAD DUP2 PUSH1 0x1 ADD SWAP1 DUP2 PUSH2 0x390 SWAP2 SWAP1 PUSH2 0x4C42 JUMP JUMPDEST POP PUSH1 0x40 DUP3 ADD MLOAD DUP2 PUSH1 0x2 ADD SSTORE PUSH1 0x60 DUP3 ADD MLOAD DUP2 PUSH1 0x3 ADD SWAP1 DUP2 PUSH2 0x3B0 SWAP2 SWAP1 PUSH2 0x4C42 JUMP JUMPDEST POP PUSH1 0x80 DUP3 ADD MLOAD DUP2 PUSH1 0x4 ADD SWAP1 DUP2 PUSH2 0x3C6 SWAP2 SWAP1 PUSH2 0x4C42 JUMP JUMPDEST POP SWAP1 POP POP PUSH2 0x3D2 PUSH2 0x3323 JUMP JUMPDEST DUP3 PUSH1 0x0 ADD MLOAD DUP2 PUSH1 0x0 ADD SWAP1 PUSH20 0xFFFFFFFFFFFFFFFFFFFFFFFFFFFFFFFFFFFFFFFF AND SWAP1 DUP2 PUSH20 0xFFFFFFFFFFFFFFFFFFFFFFFFFFFFFFFFFFFFFFFF AND DUP2 MSTORE POP POP DUP3 PUSH1 0x20 ADD MLOAD DUP2 PUSH1 0x20 ADD DUP2 SWAP1 MSTORE POP DUP3 PUSH1 0x40 ADD MLOAD DUP2 PUSH1 0x40 ADD DUP2 SWAP1 MSTORE POP DUP3 PUSH1 0x60 ADD MLOAD DUP2 PUSH1 0x60 ADD DUP2 SWAP1 MSTORE POP DUP3 PUSH1 0x80 ADD MLOAD DUP2 PUSH1 0x80 ADD DUP2 SWAP1 MSTORE POP DUP3 PUSH1 0xA0 ADD MLOAD DUP2 PUSH1 0xA0 ADD DUP2 SWAP1 MSTORE POP DUP3 PUSH1 0xC0 ADD MLOAD DUP2 PUSH1 0xC0 ADD DUP2 SWAP1 MSTORE POP DUP3 PUSH1 0xE0 ADD MLOAD DUP2 PUSH1 0xE0 ADD DUP2 SWAP1 MSTORE POP DUP3 PUSH2 0x100 ADD MLOAD DUP2 PUSH2 0x100 ADD SWAP1 ISZERO ISZERO SWAP1 DUP2 ISZERO ISZERO DUP2 MSTORE POP POP DUP3 PUSH2 0x120 ADD MLOAD DUP2 PUSH2 0x120 ADD DUP2 SWAP1 MSTORE POP DUP3 PUSH2 0x140 ADD MLOAD DUP2 PUSH2 0x140 ADD DUP2 SWAP1 MSTORE POP DUP3 PUSH2 0x160 ADD MLOAD DUP2 PUSH2 0x160 ADD SWAP1 PUSH20 0xFFFFFFFFFFFFFFFFFFFFFFFFFFFFFFFFFFFFFFFF AND SWAP1 DUP2 PUSH20 0xFFFFFFFFFFFFFFFFFFFFFFFFFFFFFFFFFFFFFFFF AND DUP2 MSTORE POP POP DUP3 PUSH2 0x180 ADD MLOAD DUP2 PUSH2 0x180 ADD DUP2 SWAP1 MSTORE POP PUSH1 0x3 PUSH1 0x0 DUP5 PUSH1 0x0 ADD MLOAD PUSH20 0xFFFFFFFFFFFFFFFFFFFFFFFFFFFFFFFFFFFFFFFF AND PUSH20 0xFFFFFFFFFFFFFFFFFFFFFFFFFFFFFFFFFFFFFFFF AND DUP2 MSTORE PUSH1 0x20 ADD SWAP1 DUP2 MSTORE PUSH1 0x20 ADD PUSH1 0x0 KECCAK256 DUP2 SWAP1 DUP1 PUSH1 0x1 DUP2 SLOAD ADD DUP1 DUP3 SSTORE DUP1 SWAP2 POP POP PUSH1 0x1 SWAP1 SUB SWAP1 PUSH1 0x0 MSTORE PUSH1 0x20 PUSH1 0x0 KECCAK256 SWAP1 PUSH1 0xD MUL ADD PUSH1 0x0 SWAP1 SWAP2 SWAP1 SWAP2 SWAP1 SWAP2 POP PUSH1 0x0 DUP3 ADD MLOAD DUP2 PUSH1 0x0 ADD PUSH1 0x0 PUSH2 0x100 EXP DUP2 SLOAD DUP2 PUSH20 0xFFFFFFFFFFFFFFFFFFFFFFFFFFFFFFFFFFFFFFFF MUL NOT AND SWAP1 DUP4 PUSH20 0xFFFFFFFFFFFFFFFFFFFFFFFFFFFFFFFFFFFFFFFF AND MUL OR SWAP1 SSTORE POP PUSH1 0x20 DUP3 ADD MLOAD DUP2 PUSH1 0x1 ADD SWAP1 DUP2 PUSH2 0x5B3 SWAP2 SWAP1 PUSH2 0x4C42 JUMP JUMPDEST POP PUSH1 0x40 DUP3 ADD MLOAD DUP2 PUSH1 0x2 ADD SWAP1 DUP2 PUSH2 0x5C9 SWAP2 SWAP1 PUSH2 0x4C42 JUMP JUMPDEST POP PUSH1 0x60 DUP3 ADD MLOAD DUP2 PUSH1 0x3 ADD SWAP1 DUP2 PUSH2 0x5DF SWAP2 SWAP1 PUSH2 0x4C42 JUMP JUMPDEST POP PUSH1 0x80 DUP3 ADD MLOAD DUP2 PUSH1 0x4 ADD SWAP1 DUP2 PUSH2 0x5F5 SWAP2 SWAP1 PUSH2 0x4C42 JUMP JUMPDEST POP PUSH1 0xA0 DUP3 ADD MLOAD DUP2 PUSH1 0x5 ADD SWAP1 DUP2 PUSH2 0x60B SWAP2 SWAP1 PUSH2 0x4C42 JUMP JUMPDEST POP PUSH1 0xC0 DUP3 ADD MLOAD DUP2 PUSH1 0x6 ADD SWAP1 DUP2 PUSH2 0x621 SWAP2 SWAP1 PUSH2 0x4C42 JUMP JUMPDEST POP PUSH1 0xE0 DUP3 ADD MLOAD DUP2 PUSH1 0x7 ADD SWAP1 DUP2 PUSH2 0x637 SWAP2 SWAP1 PUSH2 0x4C42 JUMP JUMPDEST POP PUSH2 0x100 DUP3 ADD MLOAD DUP2 PUSH1 0x8 ADD PUSH1 0x0 PUSH2 0x100 EXP DUP2 SLOAD DUP2 PUSH1 0xFF MUL NOT AND SWAP1 DUP4 ISZERO ISZERO MUL OR SWAP1 SSTORE POP PUSH2 0x120 DUP3 ADD MLOAD DUP2 PUSH1 0x9 ADD SWAP1 DUP2 PUSH2 0x66F SWAP2 SWAP1 PUSH2 0x4C42 JUMP JUMPDEST POP PUSH2 0x140 DUP3 ADD MLOAD DUP2 PUSH1 0xA ADD SWAP1 DUP2 PUSH2 0x686 SWAP2 SWAP1 PUSH2 0x4C42 JUMP JUMPDEST POP PUSH2 0x160 DUP3 ADD MLOAD DUP2 PUSH1 0xB ADD PUSH1 0x0 PUSH2 0x100 EXP DUP2 SLOAD DUP2 PUSH20 0xFFFFFFFFFFFFFFFFFFFFFFFFFFFFFFFFFFFFFFFF MUL NOT AND SWAP1 DUP4 PUSH20 0xFFFFFFFFFFFFFFFFFFFFFFFFFFFFFFFFFFFFFFFF AND MUL OR SWAP1 SSTORE POP PUSH2 0x180 DUP3 ADD MLOAD DUP2 PUSH1 0xC ADD SWAP1 DUP2 PUSH2 0x6E5 SWAP2 SWAP1 PUSH2 0x4C42 JUMP JUMPDEST POP POP POP PUSH1 0x7 PUSH1 0x0 SWAP1 SLOAD SWAP1 PUSH2 0x100 EXP SWAP1 DIV PUSH20 0xFFFFFFFFFFFFFFFFFFFFFFFFFFFFFFFFFFFFFFFF AND PUSH20 0xFFFFFFFFFFFFFFFFFFFFFFFFFFFFFFFFFFFFFFFF AND PUSH4 0x6D263CEB DUP6 PUSH1 0x0 ADD MLOAD PUSH1 0x40 MLOAD DUP3 PUSH4 0xFFFFFFFF AND PUSH1 0xE0 SHL DUP2 MSTORE PUSH1 0x4 ADD PUSH2 0x747 SWAP2 SWAP1 PUSH2 0x49D9 JUMP JUMPDEST PUSH1 0x0 PUSH1 0x40 MLOAD DUP1 DUP4 SUB DUP2 PUSH1 0x0 DUP8 DUP1 EXTCODESIZE ISZERO DUP1 ISZERO PUSH2 0x761 JUMPI PUSH1 0x0 DUP1 REVERT JUMPDEST POP GAS CALL ISZERO DUP1 ISZERO PUSH2 0x775 JUMPI RETURNDATASIZE PUSH1 0x0 DUP1 RETURNDATACOPY RETURNDATASIZE PUSH1 0x0 REVERT JUMPDEST POP POP POP POP PUSH1 0x8 PUSH1 0x0 SWAP1 SLOAD SWAP1 PUSH2 0x100 EXP SWAP1 DIV PUSH20 0xFFFFFFFFFFFFFFFFFFFFFFFFFFFFFFFFFFFFFFFF AND PUSH20 0xFFFFFFFFFFFFFFFFFFFFFFFFFFFFFFFFFFFFFFFF AND PUSH4 0x43A0E44A CALLER DUP7 PUSH1 0x20 ADD MLOAD DUP7 PUSH1 0x20 ADD MLOAD DUP9 PUSH1 0x0 ADD MLOAD PUSH1 0x40 MLOAD DUP6 PUSH4 0xFFFFFFFF AND PUSH1 0xE0 SHL DUP2 MSTORE PUSH1 0x4 ADD PUSH2 0x7E6 SWAP5 SWAP4 SWAP3 SWAP2 SWAP1 PUSH2 0x4D5E JUMP JUMPDEST PUSH1 0x0 PUSH1 0x40 MLOAD DUP1 DUP4 SUB DUP2 PUSH1 0x0 DUP8 DUP1 EXTCODESIZE ISZERO DUP1 ISZERO PUSH2 0x800 JUMPI PUSH1 0x0 DUP1 REVERT JUMPDEST POP GAS CALL ISZERO DUP1 ISZERO PUSH2 0x814 JUMPI RETURNDATASIZE PUSH1 0x0 DUP1 RETURNDATACOPY RETURNDATASIZE PUSH1 0x0 REVERT JUMPDEST POP POP POP POP POP POP POP POP JUMP JUMPDEST DUP1 PUSH1 0x6 PUSH1 0x0 PUSH2 0x100 EXP DUP2 SLOAD DUP2 PUSH20 0xFFFFFFFFFFFFFFFFFFFFFFFFFFFFFFFFFFFFFFFF MUL NOT AND SWAP1 DUP4 PUSH20 0xFFFFFFFFFFFFFFFFFFFFFFFFFFFFFFFFFFFFFFFF AND MUL OR SWAP1 SSTORE POP POP JUMP JUMPDEST PUSH1 0x6 PUSH1 0x0 SWAP1 SLOAD SWAP1 PUSH2 0x100 EXP SWAP1 DIV PUSH20 0xFFFFFFFFFFFFFFFFFFFFFFFFFFFFFFFFFFFFFFFF AND PUSH20 0xFFFFFFFFFFFFFFFFFFFFFFFFFFFFFFFFFFFFFFFF AND PUSH4 0x63A9C3D7 CALLER PUSH1 0x40 MLOAD DUP3 PUSH4 0xFFFFFFFF AND PUSH1 0xE0 SHL DUP2 MSTORE PUSH1 0x4 ADD PUSH2 0x8BD SWAP2 SWAP1 PUSH2 0x49D9 JUMP JUMPDEST PUSH1 0x20 PUSH1 0x40 MLOAD DUP1 DUP4 SUB DUP2 DUP7 GAS STATICCALL ISZERO DUP1 ISZERO PUSH2 0x8DA JUMPI RETURNDATASIZE PUSH1 0x0 DUP1 RETURNDATACOPY RETURNDATASIZE PUSH1 0x0 REVERT JUMPDEST POP POP POP POP PUSH1 0x40 MLOAD RETURNDATASIZE PUSH1 0x1F NOT PUSH1 0x1F DUP3 ADD AND DUP3 ADD DUP1 PUSH1 0x40 MSTORE POP DUP2 ADD SWAP1 PUSH2 0x8FE SWAP2 SWAP1 PUSH2 0x4A09 JUMP JUMPDEST PUSH2 0x907 JUMPI PUSH1 0x0 DUP1 REVERT JUMPDEST PUSH2 0x90F PUSH2 0x32DE JUMP JUMPDEST DUP3 PUSH1 0x0 ADD MLOAD DUP2 PUSH1 0x0 ADD SWAP1 PUSH20 0xFFFFFFFFFFFFFFFFFFFFFFFFFFFFFFFFFFFFFFFF AND SWAP1 DUP2 PUSH20 0xFFFFFFFFFFFFFFFFFFFFFFFFFFFFFFFFFFFFFFFF AND DUP2 MSTORE POP POP DUP3 PUSH1 0x20 ADD MLOAD DUP2 PUSH1 0x20 ADD DUP2 SWAP1 MSTORE POP DUP3 PUSH1 0x40 ADD MLOAD DUP2 PUSH1 0x40 ADD DUP2 DUP2 MSTORE POP POP DUP3 PUSH1 0x60 ADD MLOAD DUP2 PUSH1 0x60 ADD DUP2 SWAP1 MSTORE POP DUP3 PUSH1 0x80 ADD MLOAD DUP2 PUSH1 0x80 ADD DUP2 SWAP1 MSTORE POP DUP1 PUSH1 0x0 DUP1 DUP6 PUSH1 0x0 ADD MLOAD PUSH20 0xFFFFFFFFFFFFFFFFFFFFFFFFFFFFFFFFFFFFFFFF AND PUSH20 0xFFFFFFFFFFFFFFFFFFFFFFFFFFFFFFFFFFFFFFFF AND DUP2 MSTORE PUSH1 0x20 ADD SWAP1 DUP2 MSTORE PUSH1 0x20 ADD PUSH1 0x0 KECCAK256 PUSH1 0x0 DUP3 ADD MLOAD DUP2 PUSH1 0x0 ADD PUSH1 0x0 PUSH2 0x100 EXP DUP2 SLOAD DUP2 PUSH20 0xFFFFFFFFFFFFFFFFFFFFFFFFFFFFFFFFFFFFFFFF MUL NOT AND SWAP1 DUP4 PUSH20 0xFFFFFFFFFFFFFFFFFFFFFFFFFFFFFFFFFFFFFFFF AND MUL OR SWAP1 SSTORE POP PUSH1 0x20 DUP3 ADD MLOAD DUP2 PUSH1 0x1 ADD SWAP1 DUP2 PUSH2 0xA1F SWAP2 SWAP1 PUSH2 0x4C42 JUMP JUMPDEST POP PUSH1 0x40 DUP3 ADD MLOAD DUP2 PUSH1 0x2 ADD SSTORE PUSH1 0x60 DUP3 ADD MLOAD DUP2 PUSH1 0x3 ADD SWAP1 DUP2 PUSH2 0xA3F SWAP2 SWAP1 PUSH2 0x4C42 JUMP JUMPDEST POP PUSH1 0x80 DUP3 ADD MLOAD DUP2 PUSH1 0x4 ADD SWAP1 DUP2 PUSH2 0xA55 SWAP2 SWAP1 PUSH2 0x4C42 JUMP JUMPDEST POP SWAP1 POP POP PUSH2 0xA61 PUSH2 0x33B9 JUMP JUMPDEST DUP3 PUSH1 0x0 ADD MLOAD DUP2 PUSH1 0x0 ADD SWAP1 PUSH20 0xFFFFFFFFFFFFFFFFFFFFFFFFFFFFFFFFFFFFFFFF AND SWAP1 DUP2 PUSH20 0xFFFFFFFFFFFFFFFFFFFFFFFFFFFFFFFFFFFFFFFF AND DUP2 MSTORE POP POP DUP3 PUSH1 0x20 ADD MLOAD DUP2 PUSH1 0x20 ADD DUP2 SWAP1 MSTORE POP DUP3 PUSH1 0x40 ADD MLOAD DUP2 PUSH1 0x40 ADD DUP2 SWAP1 MSTORE POP DUP3 PUSH1 0x60 ADD MLOAD DUP2 PUSH1 0x60 ADD DUP2 SWAP1 MSTORE POP DUP3 PUSH1 0x80 ADD MLOAD DUP2 PUSH1 0x80 ADD DUP2 SWAP1 MSTORE POP DUP3 PUSH1 0xA0 ADD MLOAD DUP2 PUSH1 0xA0 ADD DUP2 SWAP1 MSTORE POP DUP3 PUSH1 0xC0 ADD MLOAD DUP2 PUSH1 0xC0 ADD DUP2 SWAP1 MSTORE POP DUP3 PUSH1 0xE0 ADD MLOAD DUP2 PUSH1 0xE0 ADD DUP2 SWAP1 MSTORE POP DUP3 PUSH2 0x100 ADD MLOAD DUP2 PUSH2 0x100 ADD DUP2 SWAP1 MSTORE POP DUP3 PUSH2 0x120 ADD MLOAD DUP2 PUSH2 0x120 ADD SWAP1 ISZERO ISZERO SWAP1 DUP2 ISZERO ISZERO DUP2 MSTORE POP POP PUSH1 0x2 PUSH1 0x0 DUP6 PUSH1 0x0 ADD MLOAD PUSH20 0xFFFFFFFFFFFFFFFFFFFFFFFFFFFFFFFFFFFFFFFF AND PUSH20 0xFFFFFFFFFFFFFFFFFFFFFFFFFFFFFFFFFFFFFFFF AND DUP2 MSTORE PUSH1 0x20 ADD SWAP1 DUP2 MSTORE PUSH1 0x20 ADD PUSH1 0x0 KECCAK256 DUP2 SWAP1 DUP1 PUSH1 0x1 DUP2 SLOAD ADD DUP1 DUP3 SSTORE DUP1 SWAP2 POP POP PUSH1 0x1 SWAP1 SUB SWAP1 PUSH1 0x0 MSTORE PUSH1 0x20 PUSH1 0x0 KECCAK256 SWAP1 PUSH1 0xA MUL ADD PUSH1 0x0 SWAP1 SWAP2 SWAP1 SWAP2 SWAP1 SWAP2 POP PUSH1 0x0 DUP3 ADD MLOAD DUP2 PUSH1 0x0 ADD PUSH1 0x0 PUSH2 0x100 EXP DUP2 SLOAD DUP2 PUSH20 0xFFFFFFFFFFFFFFFFFFFFFFFFFFFFFFFFFFFFFFFF MUL NOT AND SWAP1 DUP4 PUSH20 0xFFFFFFFFFFFFFFFFFFFFFFFFFFFFFFFFFFFFFFFF AND MUL OR SWAP1 SSTORE POP PUSH1 0x20 DUP3 ADD MLOAD DUP2 PUSH1 0x1 ADD SWAP1 DUP2 PUSH2 0xBE6 SWAP2 SWAP1 PUSH2 0x4C42 JUMP JUMPDEST POP PUSH1 0x40 DUP3 ADD MLOAD DUP2 PUSH1 0x2 ADD SWAP1 DUP2 PUSH2 0xBFC SWAP2 SWAP1 PUSH2 0x4C42 JUMP JUMPDEST POP PUSH1 0x60 DUP3 ADD MLOAD DUP2 PUSH1 0x3 ADD SWAP1 DUP2 PUSH2 0xC12 SWAP2 SWAP1 PUSH2 0x4C42 JUMP JUMPDEST POP PUSH1 0x80 DUP3 ADD MLOAD DUP2 PUSH1 0x4 ADD SWAP1 DUP2 PUSH2 0xC28 SWAP2 SWAP1 PUSH2 0x4C42 JUMP JUMPDEST POP PUSH1 0xA0 DUP3 ADD MLOAD DUP2 PUSH1 0x5 ADD SWAP1 DUP2 PUSH2 0xC3E SWAP2 SWAP1 PUSH2 0x4C42 JUMP JUMPDEST POP PUSH1 0xC0 DUP3 ADD MLOAD DUP2 PUSH1 0x6 ADD SWAP1 DUP2 PUSH2 0xC54 SWAP2 SWAP1 PUSH2 0x4C42 JUMP JUMPDEST POP PUSH1 0xE0 DUP3 ADD MLOAD DUP2 PUSH1 0x7 ADD SWAP1 DUP2 PUSH2 0xC6A SWAP2 SWAP1 PUSH2 0x4C42 JUMP JUMPDEST POP PUSH2 0x100 DUP3 ADD MLOAD DUP2 PUSH1 0x8 ADD SWAP1 DUP2 PUSH2 0xC81 SWAP2 SWAP1 PUSH2 0x4C42 JUMP JUMPDEST POP PUSH2 0x120 DUP3 ADD MLOAD DUP2 PUSH1 0x9 ADD PUSH1 0x0 PUSH2 0x100 EXP DUP2 SLOAD DUP2 PUSH1 0xFF MUL NOT AND SWAP1 DUP4 ISZERO ISZERO MUL OR SWAP1 SSTORE POP POP POP PUSH1 0x7 PUSH1 0x0 SWAP1 SLOAD SWAP1 PUSH2 0x100 EXP SWAP1 DIV PUSH20 0xFFFFFFFFFFFFFFFFFFFFFFFFFFFFFFFFFFFFFFFF AND PUSH20 0xFFFFFFFFFFFFFFFFFFFFFFFFFFFFFFFFFFFFFFFF AND PUSH4 0x6D263CEB DUP6 PUSH1 0x0 ADD MLOAD PUSH1 0x40 MLOAD DUP3 PUSH4 0xFFFFFFFF AND PUSH1 0xE0 SHL DUP2 MSTORE PUSH1 0x4 ADD PUSH2 0xD04 SWAP2 SWAP1 PUSH2 0x49D9 JUMP JUMPDEST PUSH1 0x0 PUSH1 0x40 MLOAD DUP1 DUP4 SUB DUP2 PUSH1 0x0 DUP8 DUP1 EXTCODESIZE ISZERO DUP1 ISZERO PUSH2 0xD1E JUMPI PUSH1 0x0 DUP1 REVERT JUMPDEST POP GAS CALL ISZERO DUP1 ISZERO PUSH2 0xD32 JUMPI RETURNDATASIZE PUSH1 0x0 DUP1 RETURNDATACOPY RETURNDATASIZE PUSH1 0x0 REVERT JUMPDEST POP POP POP POP PUSH1 0x8 PUSH1 0x0 SWAP1 SLOAD SWAP1 PUSH2 0x100 EXP SWAP1 DIV PUSH20 0xFFFFFFFFFFFFFFFFFFFFFFFFFFFFFFFFFFFFFFFF AND PUSH20 0xFFFFFFFFFFFFFFFFFFFFFFFFFFFFFFFFFFFFFFFF AND PUSH4 0x43A0E44A CALLER DUP7 PUSH1 0x20 ADD MLOAD DUP7 PUSH1 0x20 ADD MLOAD DUP9 PUSH1 0x0 ADD MLOAD PUSH1 0x40 MLOAD DUP6 PUSH4 0xFFFFFFFF AND PUSH1 0xE0 SHL DUP2 MSTORE PUSH1 0x4 ADD PUSH2 0xDA3 SWAP5 SWAP4 SWAP3 SWAP2 SWAP1 PUSH2 0x4D5E JUMP JUMPDEST PUSH1 0x0 PUSH1 0x40 MLOAD DUP1 DUP4 SUB DUP2 PUSH1 0x0 DUP8 DUP1 EXTCODESIZE ISZERO DUP1 ISZERO PUSH2 0xDBD JUMPI PUSH1 0x0 DUP1 REVERT JUMPDEST POP GAS CALL ISZERO DUP1 ISZERO PUSH2 0xDD1 JUMPI RETURNDATASIZE PUSH1 0x0 DUP1 RETURNDATACOPY RETURNDATASIZE PUSH1 0x0 REVERT JUMPDEST POP POP POP POP POP POP POP POP JUMP JUMPDEST DUP1 PUSH1 0x7 PUSH1 0x0 PUSH2 0x100 EXP DUP2 SLOAD DUP2 PUSH20 0xFFFFFFFFFFFFFFFFFFFFFFFFFFFFFFFFFFFFFFFF MUL NOT AND SWAP1 DUP4 PUSH20 0xFFFFFFFFFFFFFFFFFFFFFFFFFFFFFFFFFFFFFFFF AND MUL OR SWAP1 SSTORE POP POP JUMP JUMPDEST DUP1 PUSH1 0x8 PUSH1 0x0 PUSH2 0x100 EXP DUP2 SLOAD DUP2 PUSH20 0xFFFFFFFFFFFFFFFFFFFFFFFFFFFFFFFFFFFFFFFF MUL NOT AND SWAP1 DUP4 PUSH20 0xFFFFFFFFFFFFFFFFFFFFFFFFFFFFFFFFFFFFFFFF AND MUL OR SWAP1 SSTORE POP POP JUMP JUMPDEST PUSH1 0x6 PUSH1 0x0 SWAP1 SLOAD SWAP1 PUSH2 0x100 EXP SWAP1 DIV PUSH20 0xFFFFFFFFFFFFFFFFFFFFFFFFFFFFFFFFFFFFFFFF AND PUSH20 0xFFFFFFFFFFFFFFFFFFFFFFFFFFFFFFFFFFFFFFFF AND PUSH4 0x63A9C3D7 CALLER PUSH1 0x40 MLOAD DUP3 PUSH4 0xFFFFFFFF AND PUSH1 0xE0 SHL DUP2 MSTORE PUSH1 0x4 ADD PUSH2 0xEBE SWAP2 SWAP1 PUSH2 0x49D9 JUMP JUMPDEST PUSH1 0x20 PUSH1 0x40 MLOAD DUP1 DUP4 SUB DUP2 DUP7 GAS STATICCALL ISZERO DUP1 ISZERO PUSH2 0xEDB JUMPI RETURNDATASIZE PUSH1 0x0 DUP1 RETURNDATACOPY RETURNDATASIZE PUSH1 0x0 REVERT JUMPDEST POP POP POP POP PUSH1 0x40 MLOAD RETURNDATASIZE PUSH1 0x1F NOT PUSH1 0x1F DUP3 ADD AND DUP3 ADD DUP1 PUSH1 0x40 MSTORE POP DUP2 ADD SWAP1 PUSH2 0xEFF SWAP2 SWAP1 PUSH2 0x4A09 JUMP JUMPDEST PUSH2 0xF08 JUMPI PUSH1 0x0 DUP1 REVERT JUMPDEST PUSH2 0xF10 PUSH2 0x3424 JUMP JUMPDEST DUP3 PUSH1 0x0 ADD MLOAD DUP2 PUSH1 0x0 ADD SWAP1 PUSH20 0xFFFFFFFFFFFFFFFFFFFFFFFFFFFFFFFFFFFFFFFF AND SWAP1 DUP2 PUSH20 0xFFFFFFFFFFFFFFFFFFFFFFFFFFFFFFFFFFFFFFFF AND DUP2 MSTORE POP POP DUP3 PUSH1 0x20 ADD MLOAD DUP2 PUSH1 0x20 ADD DUP2 SWAP1 MSTORE POP DUP3 PUSH1 0x40 ADD MLOAD DUP2 PUSH1 0x40 ADD DUP2 SWAP1 MSTORE POP DUP3 PUSH1 0x60 ADD MLOAD DUP2 PUSH1 0x60 ADD DUP2 DUP2 MSTORE POP POP DUP3 PUSH1 0x80 ADD MLOAD DUP2 PUSH1 0x80 ADD DUP2 SWAP1 MSTORE POP DUP1 PUSH1 0x1 PUSH1 0x0 DUP5 PUSH1 0x0 ADD MLOAD PUSH20 0xFFFFFFFFFFFFFFFFFFFFFFFFFFFFFFFFFFFFFFFF AND PUSH20 0xFFFFFFFFFFFFFFFFFFFFFFFFFFFFFFFFFFFFFFFF AND DUP2 MSTORE PUSH1 0x20 ADD SWAP1 DUP2 MSTORE PUSH1 0x20 ADD PUSH1 0x0 KECCAK256 PUSH1 0x0 DUP3 ADD MLOAD DUP2 PUSH1 0x0 ADD PUSH1 0x0 PUSH2 0x100 EXP DUP2 SLOAD DUP2 PUSH20 0xFFFFFFFFFFFFFFFFFFFFFFFFFFFFFFFFFFFFFFFF MUL NOT AND SWAP1 DUP4 PUSH20 0xFFFFFFFFFFFFFFFFFFFFFFFFFFFFFFFFFFFFFFFF AND MUL OR SWAP1 SSTORE POP PUSH1 0x20 DUP3 ADD MLOAD DUP2 PUSH1 0x1 ADD SWAP1 DUP2 PUSH2 0x1021 SWAP2 SWAP1 PUSH2 0x4C42 JUMP JUMPDEST POP PUSH1 0x40 DUP3 ADD MLOAD DUP2 PUSH1 0x2 ADD SWAP1 DUP2 PUSH2 0x1037 SWAP2 SWAP1 PUSH2 0x4C42 JUMP JUMPDEST POP PUSH1 0x60 DUP3 ADD MLOAD DUP2 PUSH1 0x3 ADD SSTORE PUSH1 0x80 DUP3 ADD MLOAD DUP2 PUSH1 0x4 ADD SWAP1 DUP2 PUSH2 0x1057 SWAP2 SWAP1 PUSH2 0x4C42 JUMP JUMPDEST POP SWAP1 POP POP PUSH2 0x1063 PUSH2 0x3469 JUMP JUMPDEST DUP3 PUSH1 0x0 ADD MLOAD DUP2 PUSH1 0x0 ADD SWAP1 PUSH20 0xFFFFFFFFFFFFFFFFFFFFFFFFFFFFFFFFFFFFFFFF AND SWAP1 DUP2 PUSH20 0xFFFFFFFFFFFFFFFFFFFFFFFFFFFFFFFFFFFFFFFF AND DUP2 MSTORE POP POP DUP3 PUSH1 0x20 ADD MLOAD DUP2 PUSH1 0x20 ADD DUP2 SWAP1 MSTORE POP DUP3 PUSH1 0x40 ADD MLOAD DUP2 PUSH1 0x40 ADD DUP2 SWAP1 MSTORE POP DUP3 PUSH1 0x60 ADD MLOAD DUP2 PUSH1 0x60 ADD DUP2 SWAP1 MSTORE POP DUP3 PUSH1 0x80 ADD MLOAD DUP2 PUSH1 0x80 ADD DUP2 SWAP1 MSTORE POP DUP3 PUSH1 0xA0 ADD MLOAD DUP2 PUSH1 0xA0 ADD DUP2 SWAP1 MSTORE POP DUP3 PUSH1 0xC0 ADD MLOAD DUP2 PUSH1 0xC0 ADD DUP2 SWAP1 MSTORE POP DUP3 PUSH1 0xE0 ADD MLOAD DUP2 PUSH1 0xE0 ADD DUP2 SWAP1 MSTORE POP DUP3 PUSH2 0x100 ADD MLOAD DUP2 PUSH2 0x100 ADD DUP2 SWAP1 MSTORE POP DUP3 PUSH2 0x120 ADD MLOAD DUP2 PUSH2 0x120 ADD DUP2 SWAP1 MSTORE POP DUP3 PUSH2 0x140 ADD MLOAD DUP2 PUSH2 0x140 ADD DUP2 SWAP1 MSTORE POP DUP3 PUSH2 0x160 ADD MLOAD DUP2 PUSH2 0x160 ADD SWAP1 PUSH20 0xFFFFFFFFFFFFFFFFFFFFFFFFFFFFFFFFFFFFFFFF AND SWAP1 DUP2 PUSH20 0xFFFFFFFFFFFFFFFFFFFFFFFFFFFFFFFFFFFFFFFF AND DUP2 MSTORE POP POP DUP3 PUSH2 0x180 ADD MLOAD DUP2 PUSH2 0x180 ADD DUP2 SWAP1 MSTORE POP DUP3 PUSH2 0x1A0 ADD MLOAD DUP2 PUSH2 0x1A0 ADD DUP2 SWAP1 MSTORE POP PUSH1 0x4 PUSH1 0x0 DUP5 PUSH1 0x0 ADD MLOAD PUSH20 0xFFFFFFFFFFFFFFFFFFFFFFFFFFFFFFFFFFFFFFFF AND PUSH20 0xFFFFFFFFFFFFFFFFFFFFFFFFFFFFFFFFFFFFFFFF AND DUP2 MSTORE PUSH1 0x20 ADD SWAP1 DUP2 MSTORE PUSH1 0x20 ADD PUSH1 0x0 KECCAK256 DUP2 SWAP1 DUP1 PUSH1 0x1 DUP2 SLOAD ADD DUP1 DUP3 SSTORE DUP1 SWAP2 POP POP PUSH1 0x1 SWAP1 SUB SWAP1 PUSH1 0x0 MSTORE PUSH1 0x20 PUSH1 0x0 KECCAK256 SWAP1 PUSH1 0xE MUL ADD PUSH1 0x0 SWAP1 SWAP2 SWAP1 SWAP2 SWAP1 SWAP2 POP PUSH1 0x0 DUP3 ADD MLOAD DUP2 PUSH1 0x0 ADD PUSH1 0x0 PUSH2 0x100 EXP DUP2 SLOAD DUP2 PUSH20 0xFFFFFFFFFFFFFFFFFFFFFFFFFFFFFFFFFFFFFFFF MUL NOT AND SWAP1 DUP4 PUSH20 0xFFFFFFFFFFFFFFFFFFFFFFFFFFFFFFFFFFFFFFFF AND MUL OR SWAP1 SSTORE POP PUSH1 0x20 DUP3 ADD MLOAD DUP2 PUSH1 0x1 ADD SWAP1 DUP2 PUSH2 0x124C SWAP2 SWAP1 PUSH2 0x4C42 JUMP JUMPDEST POP PUSH1 0x40 DUP3 ADD MLOAD DUP2 PUSH1 0x2 ADD SWAP1 DUP2 PUSH2 0x1262 SWAP2 SWAP1 PUSH2 0x4C42 JUMP JUMPDEST POP PUSH1 0x60 DUP3 ADD MLOAD DUP2 PUSH1 0x3 ADD SWAP1 DUP2 PUSH2 0x1278 SWAP2 SWAP1 PUSH2 0x4C42 JUMP JUMPDEST POP PUSH1 0x80 DUP3 ADD MLOAD DUP2 PUSH1 0x4 ADD SWAP1 DUP2 PUSH2 0x128E SWAP2 SWAP1 PUSH2 0x4C42 JUMP JUMPDEST POP PUSH1 0xA0 DUP3 ADD MLOAD DUP2 PUSH1 0x5 ADD SWAP1 DUP2 PUSH2 0x12A4 SWAP2 SWAP1 PUSH2 0x4C42 JUMP JUMPDEST POP PUSH1 0xC0 DUP3 ADD MLOAD DUP2 PUSH1 0x6 ADD SWAP1 DUP2 PUSH2 0x12BA SWAP2 SWAP1 PUSH2 0x4C42 JUMP JUMPDEST POP PUSH1 0xE0 DUP3 ADD MLOAD DUP2 PUSH1 0x7 ADD SWAP1 DUP2 PUSH2 0x12D0 SWAP2 SWAP1 PUSH2 0x4C42 JUMP JUMPDEST POP PUSH2 0x100 DUP3 ADD MLOAD DUP2 PUSH1 0x8 ADD SWAP1 DUP2 PUSH2 0x12E7 SWAP2 SWAP1 PUSH2 0x4C42 JUMP JUMPDEST POP PUSH2 0x120 DUP3 ADD MLOAD DUP2 PUSH1 0x9 ADD SWAP1 DUP2 PUSH2 0x12FE SWAP2 SWAP1 PUSH2 0x4C42 JUMP JUMPDEST POP PUSH2 0x140 DUP3 ADD MLOAD DUP2 PUSH1 0xA ADD SWAP1 DUP2 PUSH2 0x1315 SWAP2 SWAP1 PUSH2 0x4C42 JUMP JUMPDEST POP PUSH2 0x160 DUP3 ADD MLOAD DUP2 PUSH1 0xB ADD PUSH1 0x0 PUSH2 0x100 EXP DUP2 SLOAD DUP2 PUSH20 0xFFFFFFFFFFFFFFFFFFFFFFFFFFFFFFFFFFFFFFFF MUL NOT AND SWAP1 DUP4 PUSH20 0xFFFFFFFFFFFFFFFFFFFFFFFFFFFFFFFFFFFFFFFF AND MUL OR SWAP1 SSTORE POP PUSH2 0x180 DUP3 ADD MLOAD DUP2 PUSH1 0xC ADD SWAP1 DUP2 PUSH2 0x1374 SWAP2 SWAP1 PUSH2 0x4C42 JUMP JUMPDEST POP PUSH2 0x1A0 DUP3 ADD MLOAD DUP2 PUSH1 0xD ADD SWAP1 DUP2 PUSH2 0x138B SWAP2 SWAP1 PUSH2 0x4C42 JUMP JUMPDEST POP POP POP PUSH1 0x7 PUSH1 0x0 SWAP1 SLOAD SWAP1 PUSH2 0x100 EXP SWAP1 DIV PUSH20 0xFFFFFFFFFFFFFFFFFFFFFFFFFFFFFFFFFFFFFFFF AND PUSH20 0xFFFFFFFFFFFFFFFFFFFFFFFFFFFFFFFFFFFFFFFF AND PUSH4 0x6D263CEB DUP5 PUSH1 0x0 ADD MLOAD PUSH1 0x40 MLOAD DUP3 PUSH4 0xFFFFFFFF AND PUSH1 0xE0 SHL DUP2 MSTORE PUSH1 0x4 ADD PUSH2 0x13ED SWAP2 SWAP1 PUSH2 0x49D9 JUMP JUMPDEST PUSH1 0x0 PUSH1 0x40 MLOAD DUP1 DUP4 SUB DUP2 PUSH1 0x0 DUP8 DUP1 EXTCODESIZE ISZERO DUP1 ISZERO PUSH2 0x1407 JUMPI PUSH1 0x0 DUP1 REVERT JUMPDEST POP GAS CALL ISZERO DUP1 ISZERO PUSH2 0x141B JUMPI RETURNDATASIZE PUSH1 0x0 DUP1 RETURNDATACOPY RETURNDATASIZE PUSH1 0x0 REVERT JUMPDEST POP POP POP POP PUSH1 0x8 PUSH1 0x0 SWAP1 SLOAD SWAP1 PUSH2 0x100 EXP SWAP1 DIV PUSH20 0xFFFFFFFFFFFFFFFFFFFFFFFFFFFFFFFFFFFFFFFF AND PUSH20 0xFFFFFFFFFFFFFFFFFFFFFFFFFFFFFFFFFFFFFFFF AND PUSH4 0x43A0E44A CALLER DUP6 PUSH1 0x40 ADD MLOAD DUP7 PUSH1 0x20 ADD MLOAD DUP8 PUSH1 0x0 ADD MLOAD PUSH1 0x40 MLOAD DUP6 PUSH4 0xFFFFFFFF AND PUSH1 0xE0 SHL DUP2 MSTORE PUSH1 0x4 ADD PUSH2 0x148C SWAP5 SWAP4 SWAP3 SWAP2 SWAP1 PUSH2 0x4D5E JUMP JUMPDEST PUSH1 0x0 PUSH1 0x40 MLOAD DUP1 DUP4 SUB DUP2 PUSH1 0x0 DUP8 DUP1 EXTCODESIZE ISZERO DUP1 ISZERO PUSH2 0x14A6 JUMPI PUSH1 0x0 DUP1 REVERT JUMPDEST POP GAS CALL ISZERO DUP1 ISZERO PUSH2 0x14BA JUMPI RETURNDATASIZE PUSH1 0x0 DUP1 RETURNDATACOPY RETURNDATASIZE PUSH1 0x0 REVERT JUMPDEST POP POP POP POP POP POP POP POP JUMP JUMPDEST PUSH2 0x14CC PUSH2 0x32DE JUMP JUMPDEST PUSH1 0x60 PUSH1 0x6 PUSH1 0x0 SWAP1 SLOAD SWAP1 PUSH2 0x100 EXP SWAP1 DIV PUSH20 0xFFFFFFFFFFFFFFFFFFFFFFFFFFFFFFFFFFFFFFFF AND PUSH20 0xFFFFFFFFFFFFFFFFFFFFFFFFFFFFFFFFFFFFFFFF AND PUSH4 0x63A9C3D7 CALLER PUSH1 0x40 MLOAD DUP3 PUSH4 0xFFFFFFFF AND PUSH1 0xE0 SHL DUP2 MSTORE PUSH1 0x4 ADD PUSH2 0x1529 SWAP2 SWAP1 PUSH2 0x49D9 JUMP JUMPDEST PUSH1 0x20 PUSH1 0x40 MLOAD DUP1 DUP4 SUB DUP2 DUP7 GAS STATICCALL ISZERO DUP1 ISZERO PUSH2 0x1546 JUMPI RETURNDATASIZE PUSH1 0x0 DUP1 RETURNDATACOPY RETURNDATASIZE PUSH1 0x0 REVERT JUMPDEST POP POP POP POP PUSH1 0x40 MLOAD RETURNDATASIZE PUSH1 0x1F NOT PUSH1 0x1F DUP3 ADD AND DUP3 ADD DUP1 PUSH1 0x40 MSTORE POP DUP2 ADD SWAP1 PUSH2 0x156A SWAP2 SWAP1 PUSH2 0x4A09 JUMP JUMPDEST PUSH2 0x1573 JUMPI PUSH1 0x0 DUP1 REVERT JUMPDEST PUSH1 0x0 DUP1 DUP5 PUSH20 0xFFFFFFFFFFFFFFFFFFFFFFFFFFFFFFFFFFFFFFFF AND PUSH20 0xFFFFFFFFFFFFFFFFFFFFFFFFFFFFFFFFFFFFFFFF AND DUP2 MSTORE PUSH1 0x20 ADD SWAP1 DUP2 MSTORE PUSH1 0x20 ADD PUSH1 0x0 KECCAK256 PUSH1 0x2 PUSH1 0x0 DUP6 PUSH20 0xFFFFFFFFFFFFFFFFFFFFFFFFFFFFFFFFFFFFFFFF AND PUSH20 0xFFFFFFFFFFFFFFFFFFFFFFFFFFFFFFFFFFFFFFFF AND DUP2 MSTORE PUSH1 0x20 ADD SWAP1 DUP2 MSTORE PUSH1 0x20 ADD PUSH1 0x0 KECCAK256 DUP2 PUSH1 0x40 MLOAD DUP1 PUSH1 0xA0 ADD PUSH1 0x40 MSTORE SWAP1 DUP2 PUSH1 0x0 DUP3 ADD PUSH1 0x0 SWAP1 SLOAD SWAP1 PUSH2 0x100 EXP SWAP1 DIV PUSH20 0xFFFFFFFFFFFFFFFFFFFFFFFFFFFFFFFFFFFFFFFF AND PUSH20 0xFFFFFFFFFFFFFFFFFFFFFFFFFFFFFFFFFFFFFFFF AND PUSH20 0xFFFFFFFFFFFFFFFFFFFFFFFFFFFFFFFFFFFFFFFF AND DUP2 MSTORE PUSH1 0x20 ADD PUSH1 0x1 DUP3 ADD DUP1 SLOAD PUSH2 0x1662 SWAP1 PUSH2 0x4A65 JUMP JUMPDEST DUP1 PUSH1 0x1F ADD PUSH1 0x20 DUP1 SWAP2 DIV MUL PUSH1 0x20 ADD PUSH1 0x40 MLOAD SWAP1 DUP2 ADD PUSH1 0x40 MSTORE DUP1 SWAP3 SWAP2 SWAP1 DUP2 DUP2 MSTORE PUSH1 0x20 ADD DUP3 DUP1 SLOAD PUSH2 0x168E SWAP1 PUSH2 0x4A65 JUMP JUMPDEST DUP1 ISZERO PUSH2 0x16DB JUMPI DUP1 PUSH1 0x1F LT PUSH2 0x16B0 JUMPI PUSH2 0x100 DUP1 DUP4 SLOAD DIV MUL DUP4 MSTORE SWAP2 PUSH1 0x20 ADD SWAP2 PUSH2 0x16DB JUMP JUMPDEST DUP3 ADD SWAP2 SWAP1 PUSH1 0x0 MSTORE PUSH1 0x20 PUSH1 0x0 KECCAK256 SWAP1 JUMPDEST DUP2 SLOAD DUP2 MSTORE SWAP1 PUSH1 0x1 ADD SWAP1 PUSH1 0x20 ADD DUP1 DUP4 GT PUSH2 0x16BE JUMPI DUP3 SWAP1 SUB PUSH1 0x1F AND DUP3 ADD SWAP2 JUMPDEST POP POP POP POP POP DUP2 MSTORE PUSH1 0x20 ADD PUSH1 0x2 DUP3 ADD SLOAD DUP2 MSTORE PUSH1 0x20 ADD PUSH1 0x3 DUP3 ADD DUP1 SLOAD PUSH2 0x16FE SWAP1 PUSH2 0x4A65 JUMP JUMPDEST DUP1 PUSH1 0x1F ADD PUSH1 0x20 DUP1 SWAP2 DIV MUL PUSH1 0x20 ADD PUSH1 0x40 MLOAD SWAP1 DUP2 ADD PUSH1 0x40 MSTORE DUP1 SWAP3 SWAP2 SWAP1 DUP2 DUP2 MSTORE PUSH1 0x20 ADD DUP3 DUP1 SLOAD PUSH2 0x172A SWAP1 PUSH2 0x4A65 JUMP JUMPDEST DUP1 ISZERO PUSH2 0x1777 JUMPI DUP1 PUSH1 0x1F LT PUSH2 0x174C JUMPI PUSH2 0x100 DUP1 DUP4 SLOAD DIV MUL DUP4 MSTORE SWAP2 PUSH1 0x20 ADD SWAP2 PUSH2 0x1777 JUMP JUMPDEST DUP3 ADD SWAP2 SWAP1 PUSH1 0x0 MSTORE PUSH1 0x20 PUSH1 0x0 KECCAK256 SWAP1 JUMPDEST DUP2 SLOAD DUP2 MSTORE SWAP1 PUSH1 0x1 ADD SWAP1 PUSH1 0x20 ADD DUP1 DUP4 GT PUSH2 0x175A JUMPI DUP3 SWAP1 SUB PUSH1 0x1F AND DUP3 ADD SWAP2 JUMPDEST POP POP POP POP POP DUP2 MSTORE PUSH1 0x20 ADD PUSH1 0x4 DUP3 ADD DUP1 SLOAD PUSH2 0x1790 SWAP1 PUSH2 0x4A65 JUMP JUMPDEST DUP1 PUSH1 0x1F ADD PUSH1 0x20 DUP1 SWAP2 DIV MUL PUSH1 0x20 ADD PUSH1 0x40 MLOAD SWAP1 DUP2 ADD PUSH1 0x40 MSTORE DUP1 SWAP3 SWAP2 SWAP1 DUP2 DUP2 MSTORE PUSH1 0x20 ADD DUP3 DUP1 SLOAD PUSH2 0x17BC SWAP1 PUSH2 0x4A65 JUMP JUMPDEST DUP1 ISZERO PUSH2 0x1809 JUMPI DUP1 PUSH1 0x1F LT PUSH2 0x17DE JUMPI PUSH2 0x100 DUP1 DUP4 SLOAD DIV MUL DUP4 MSTORE SWAP2 PUSH1 0x20 ADD SWAP2 PUSH2 0x1809 JUMP JUMPDEST DUP3 ADD SWAP2 SWAP1 PUSH1 0x0 MSTORE PUSH1 0x20 PUSH1 0x0 KECCAK256 SWAP1 JUMPDEST DUP2 SLOAD DUP2 MSTORE SWAP1 PUSH1 0x1 ADD SWAP1 PUSH1 0x20 ADD DUP1 DUP4 GT PUSH2 0x17EC JUMPI DUP3 SWAP1 SUB PUSH1 0x1F AND DUP3 ADD SWAP2 JUMPDEST POP POP POP POP POP DUP2 MSTORE POP POP SWAP2 POP DUP1 DUP1 SLOAD DUP1 PUSH1 0x20 MUL PUSH1 0x20 ADD PUSH1 0x40 MLOAD SWAP1 DUP2 ADD PUSH1 0x40 MSTORE DUP1 SWAP3 SWAP2 SWAP1 DUP2 DUP2 MSTORE PUSH1 0x20 ADD PUSH1 0x0 SWAP1 JUMPDEST DUP3 DUP3 LT ISZERO PUSH2 0x1D69 JUMPI DUP4 DUP3 SWAP1 PUSH1 0x0 MSTORE PUSH1 0x20 PUSH1 0x0 KECCAK256 SWAP1 PUSH1 0xA MUL ADD PUSH1 0x40 MLOAD DUP1 PUSH2 0x140 ADD PUSH1 0x40 MSTORE SWAP1 DUP2 PUSH1 0x0 DUP3 ADD PUSH1 0x0 SWAP1 SLOAD SWAP1 PUSH2 0x100 EXP SWAP1 DIV PUSH20 0xFFFFFFFFFFFFFFFFFFFFFFFFFFFFFFFFFFFFFFFF AND PUSH20 0xFFFFFFFFFFFFFFFFFFFFFFFFFFFFFFFFFFFFFFFF AND PUSH20 0xFFFFFFFFFFFFFFFFFFFFFFFFFFFFFFFFFFFFFFFF AND DUP2 MSTORE PUSH1 0x20 ADD PUSH1 0x1 DUP3 ADD DUP1 SLOAD PUSH2 0x18BF SWAP1 PUSH2 0x4A65 JUMP JUMPDEST DUP1 PUSH1 0x1F ADD PUSH1 0x20 DUP1 SWAP2 DIV MUL PUSH1 0x20 ADD PUSH1 0x40 MLOAD SWAP1 DUP2 ADD PUSH1 0x40 MSTORE DUP1 SWAP3 SWAP2 SWAP1 DUP2 DUP2 MSTORE PUSH1 0x20 ADD DUP3 DUP1 SLOAD PUSH2 0x18EB SWAP1 PUSH2 0x4A65 JUMP JUMPDEST DUP1 ISZERO PUSH2 0x1938 JUMPI DUP1 PUSH1 0x1F LT PUSH2 0x190D JUMPI PUSH2 0x100 DUP1 DUP4 SLOAD DIV MUL DUP4 MSTORE SWAP2 PUSH1 0x20 ADD SWAP2 PUSH2 0x1938 JUMP JUMPDEST DUP3 ADD SWAP2 SWAP1 PUSH1 0x0 MSTORE PUSH1 0x20 PUSH1 0x0 KECCAK256 SWAP1 JUMPDEST DUP2 SLOAD DUP2 MSTORE SWAP1 PUSH1 0x1 ADD SWAP1 PUSH1 0x20 ADD DUP1 DUP4 GT PUSH2 0x191B JUMPI DUP3 SWAP1 SUB PUSH1 0x1F AND DUP3 ADD SWAP2 JUMPDEST POP POP POP POP POP DUP2 MSTORE PUSH1 0x20 ADD PUSH1 0x2 DUP3 ADD DUP1 SLOAD PUSH2 0x1951 SWAP1 PUSH2 0x4A65 JUMP JUMPDEST DUP1 PUSH1 0x1F ADD PUSH1 0x20 DUP1 SWAP2 DIV MUL PUSH1 0x20 ADD PUSH1 0x40 MLOAD SWAP1 DUP2 ADD PUSH1 0x40 MSTORE DUP1 SWAP3 SWAP2 SWAP1 DUP2 DUP2 MSTORE PUSH1 0x20 ADD DUP3 DUP1 SLOAD PUSH2 0x197D SWAP1 PUSH2 0x4A65 JUMP JUMPDEST DUP1 ISZERO PUSH2 0x19CA JUMPI DUP1 PUSH1 0x1F LT PUSH2 0x199F JUMPI PUSH2 0x100 DUP1 DUP4 SLOAD DIV MUL DUP4 MSTORE SWAP2 PUSH1 0x20 ADD SWAP2 PUSH2 0x19CA JUMP JUMPDEST DUP3 ADD SWAP2 SWAP1 PUSH1 0x0 MSTORE PUSH1 0x20 PUSH1 0x0 KECCAK256 SWAP1 JUMPDEST DUP2 SLOAD DUP2 MSTORE SWAP1 PUSH1 0x1 ADD SWAP1 PUSH1 0x20 ADD DUP1 DUP4 GT PUSH2 0x19AD JUMPI DUP3 SWAP1 SUB PUSH1 0x1F AND DUP3 ADD SWAP2 JUMPDEST POP POP POP POP POP DUP2 MSTORE PUSH1 0x20 ADD PUSH1 0x3 DUP3 ADD DUP1 SLOAD PUSH2 0x19E3 SWAP1 PUSH2 0x4A65 JUMP JUMPDEST DUP1 PUSH1 0x1F ADD PUSH1 0x20 DUP1 SWAP2 DIV MUL PUSH1 0x20 ADD PUSH1 0x40 MLOAD SWAP1 DUP2 ADD PUSH1 0x40 MSTORE DUP1 SWAP3 SWAP2 SWAP1 DUP2 DUP2 MSTORE PUSH1 0x20 ADD DUP3 DUP1 SLOAD PUSH2 0x1A0F SWAP1 PUSH2 0x4A65 JUMP JUMPDEST DUP1 ISZERO PUSH2 0x1A5C JUMPI DUP1 PUSH1 0x1F LT PUSH2 0x1A31 JUMPI PUSH2 0x100 DUP1 DUP4 SLOAD DIV MUL DUP4 MSTORE SWAP2 PUSH1 0x20 ADD SWAP2 PUSH2 0x1A5C JUMP JUMPDEST DUP3 ADD SWAP2 SWAP1 PUSH1 0x0 MSTORE PUSH1 0x20 PUSH1 0x0 KECCAK256 SWAP1 JUMPDEST DUP2 SLOAD DUP2 MSTORE SWAP1 PUSH1 0x1 ADD SWAP1 PUSH1 0x20 ADD DUP1 DUP4 GT PUSH2 0x1A3F JUMPI DUP3 SWAP1 SUB PUSH1 0x1F AND DUP3 ADD SWAP2 JUMPDEST POP POP POP POP POP DUP2 MSTORE PUSH1 0x20 ADD PUSH1 0x4 DUP3 ADD DUP1 SLOAD PUSH2 0x1A75 SWAP1 PUSH2 0x4A65 JUMP JUMPDEST DUP1 PUSH1 0x1F ADD PUSH1 0x20 DUP1 SWAP2 DIV MUL PUSH1 0x20 ADD PUSH1 0x40 MLOAD SWAP1 DUP2 ADD PUSH1 0x40 MSTORE DUP1 SWAP3 SWAP2 SWAP1 DUP2 DUP2 MSTORE PUSH1 0x20 ADD DUP3 DUP1 SLOAD PUSH2 0x1AA1 SWAP1 PUSH2 0x4A65 JUMP JUMPDEST DUP1 ISZERO PUSH2 0x1AEE JUMPI DUP1 PUSH1 0x1F LT PUSH2 0x1AC3 JUMPI PUSH2 0x100 DUP1 DUP4 SLOAD DIV MUL DUP4 MSTORE SWAP2 PUSH1 0x20 ADD SWAP2 PUSH2 0x1AEE JUMP JUMPDEST DUP3 ADD SWAP2 SWAP1 PUSH1 0x0 MSTORE PUSH1 0x20 PUSH1 0x0 KECCAK256 SWAP1 JUMPDEST DUP2 SLOAD DUP2 MSTORE SWAP1 PUSH1 0x1 ADD SWAP1 PUSH1 0x20 ADD DUP1 DUP4 GT PUSH2 0x1AD1 JUMPI DUP3 SWAP1 SUB PUSH1 0x1F AND DUP3 ADD SWAP2 JUMPDEST POP POP POP POP POP DUP2 MSTORE PUSH1 0x20 ADD PUSH1 0x5 DUP3 ADD DUP1 SLOAD PUSH2 0x1B07 SWAP1 PUSH2 0x4A65 JUMP JUMPDEST DUP1 PUSH1 0x1F ADD PUSH1 0x20 DUP1 SWAP2 DIV MUL PUSH1 0x20 ADD PUSH1 0x40 MLOAD SWAP1 DUP2 ADD PUSH1 0x40 MSTORE DUP1 SWAP3 SWAP2 SWAP1 DUP2 DUP2 MSTORE PUSH1 0x20 ADD DUP3 DUP1 SLOAD PUSH2 0x1B33 SWAP1 PUSH2 0x4A65 JUMP JUMPDEST DUP1 ISZERO PUSH2 0x1B80 JUMPI DUP1 PUSH1 0x1F LT PUSH2 0x1B55 JUMPI PUSH2 0x100 DUP1 DUP4 SLOAD DIV MUL DUP4 MSTORE SWAP2 PUSH1 0x20 ADD SWAP2 PUSH2 0x1B80 JUMP JUMPDEST DUP3 ADD SWAP2 SWAP1 PUSH1 0x0 MSTORE PUSH1 0x20 PUSH1 0x0 KECCAK256 SWAP1 JUMPDEST DUP2 SLOAD DUP2 MSTORE SWAP1 PUSH1 0x1 ADD SWAP1 PUSH1 0x20 ADD DUP1 DUP4 GT PUSH2 0x1B63 JUMPI DUP3 SWAP1 SUB PUSH1 0x1F AND DUP3 ADD SWAP2 JUMPDEST POP POP POP POP POP DUP2 MSTORE PUSH1 0x20 ADD PUSH1 0x6 DUP3 ADD DUP1 SLOAD PUSH2 0x1B99 SWAP1 PUSH2 0x4A65 JUMP JUMPDEST DUP1 PUSH1 0x1F ADD PUSH1 0x20 DUP1 SWAP2 DIV MUL PUSH1 0x20 ADD PUSH1 0x40 MLOAD SWAP1 DUP2 ADD PUSH1 0x40 MSTORE DUP1 SWAP3 SWAP2 SWAP1 DUP2 DUP2 MSTORE PUSH1 0x20 ADD DUP3 DUP1 SLOAD PUSH2 0x1BC5 SWAP1 PUSH2 0x4A65 JUMP JUMPDEST DUP1 ISZERO PUSH2 0x1C12 JUMPI DUP1 PUSH1 0x1F LT PUSH2 0x1BE7 JUMPI PUSH2 0x100 DUP1 DUP4 SLOAD DIV MUL DUP4 MSTORE SWAP2 PUSH1 0x20 ADD SWAP2 PUSH2 0x1C12 JUMP JUMPDEST DUP3 ADD SWAP2 SWAP1 PUSH1 0x0 MSTORE PUSH1 0x20 PUSH1 0x0 KECCAK256 SWAP1 JUMPDEST DUP2 SLOAD DUP2 MSTORE SWAP1 PUSH1 0x1 ADD SWAP1 PUSH1 0x20 ADD DUP1 DUP4 GT PUSH2 0x1BF5 JUMPI DUP3 SWAP1 SUB PUSH1 0x1F AND DUP3 ADD SWAP2 JUMPDEST POP POP POP POP POP DUP2 MSTORE PUSH1 0x20 ADD PUSH1 0x7 DUP3 ADD DUP1 SLOAD PUSH2 0x1C2B SWAP1 PUSH2 0x4A65 JUMP JUMPDEST DUP1 PUSH1 0x1F ADD PUSH1 0x20 DUP1 SWAP2 DIV MUL PUSH1 0x20 ADD PUSH1 0x40 MLOAD SWAP1 DUP2 ADD PUSH1 0x40 MSTORE DUP1 SWAP3 SWAP2 SWAP1 DUP2 DUP2 MSTORE PUSH1 0x20 ADD DUP3 DUP1 SLOAD PUSH2 0x1C57 SWAP1 PUSH2 0x4A65 JUMP JUMPDEST DUP1 ISZERO PUSH2 0x1CA4 JUMPI DUP1 PUSH1 0x1F LT PUSH2 0x1C79 JUMPI PUSH2 0x100 DUP1 DUP4 SLOAD DIV MUL DUP4 MSTORE SWAP2 PUSH1 0x20 ADD SWAP2 PUSH2 0x1CA4 JUMP JUMPDEST DUP3 ADD SWAP2 SWAP1 PUSH1 0x0 MSTORE PUSH1 0x20 PUSH1 0x0 KECCAK256 SWAP1 JUMPDEST DUP2 SLOAD DUP2 MSTORE SWAP1 PUSH1 0x1 ADD SWAP1 PUSH1 0x20 ADD DUP1 DUP4 GT PUSH2 0x1C87 JUMPI DUP3 SWAP1 SUB PUSH1 0x1F AND DUP3 ADD SWAP2 JUMPDEST POP POP POP POP POP DUP2 MSTORE PUSH1 0x20 ADD PUSH1 0x8 DUP3 ADD DUP1 SLOAD PUSH2 0x1CBD SWAP1 PUSH2 0x4A65 JUMP JUMPDEST DUP1 PUSH1 0x1F ADD PUSH1 0x20 DUP1 SWAP2 DIV MUL PUSH1 0x20 ADD PUSH1 0x40 MLOAD SWAP1 DUP2 ADD PUSH1 0x40 MSTORE DUP1 SWAP3 SWAP2 SWAP1 DUP2 DUP2 MSTORE PUSH1 0x20 ADD DUP3 DUP1 SLOAD PUSH2 0x1CE9 SWAP1 PUSH2 0x4A65 JUMP JUMPDEST DUP1 ISZERO PUSH2 0x1D36 JUMPI DUP1 PUSH1 0x1F LT PUSH2 0x1D0B JUMPI PUSH2 0x100 DUP1 DUP4 SLOAD DIV MUL DUP4 MSTORE SWAP2 PUSH1 0x20 ADD SWAP2 PUSH2 0x1D36 JUMP JUMPDEST DUP3 ADD SWAP2 SWAP1 PUSH1 0x0 MSTORE PUSH1 0x20 PUSH1 0x0 KECCAK256 SWAP1 JUMPDEST DUP2 SLOAD DUP2 MSTORE SWAP1 PUSH1 0x1 ADD SWAP1 PUSH1 0x20 ADD DUP1 DUP4 GT PUSH2 0x1D19 JUMPI DUP3 SWAP1 SUB PUSH1 0x1F AND DUP3 ADD SWAP2 JUMPDEST POP POP POP POP POP DUP2 MSTORE PUSH1 0x20 ADD PUSH1 0x9 DUP3 ADD PUSH1 0x0 SWAP1 SLOAD SWAP1 PUSH2 0x100 EXP SWAP1 DIV PUSH1 0xFF AND ISZERO ISZERO ISZERO ISZERO DUP2 MSTORE POP POP DUP2 MSTORE PUSH1 0x20 ADD SWAP1 PUSH1 0x1 ADD SWAP1 PUSH2 0x1835 JUMP JUMPDEST POP POP POP POP SWAP1 POP SWAP2 POP SWAP2 POP SWAP2 POP SWAP2 JUMP JUMPDEST PUSH2 0x1D80 PUSH2 0x3424 JUMP JUMPDEST PUSH1 0x60 PUSH1 0x6 PUSH1 0x0 SWAP1 SLOAD SWAP1 PUSH2 0x100 EXP SWAP1 DIV PUSH20 0xFFFFFFFFFFFFFFFFFFFFFFFFFFFFFFFFFFFFFFFF AND PUSH20 0xFFFFFFFFFFFFFFFFFFFFFFFFFFFFFFFFFFFFFFFF AND PUSH4 0x63A9C3D7 CALLER PUSH1 0x40 MLOAD DUP3 PUSH4 0xFFFFFFFF AND PUSH1 0xE0 SHL DUP2 MSTORE PUSH1 0x4 ADD PUSH2 0x1DDD SWAP2 SWAP1 PUSH2 0x49D9 JUMP JUMPDEST PUSH1 0x20 PUSH1 0x40 MLOAD DUP1 DUP4 SUB DUP2 DUP7 GAS STATICCALL ISZERO DUP1 ISZERO PUSH2 0x1DFA JUMPI RETURNDATASIZE PUSH1 0x0 DUP1 RETURNDATACOPY RETURNDATASIZE PUSH1 0x0 REVERT JUMPDEST POP POP POP POP PUSH1 0x40 MLOAD RETURNDATASIZE PUSH1 0x1F NOT PUSH1 0x1F DUP3 ADD AND DUP3 ADD DUP1 PUSH1 0x40 MSTORE POP DUP2 ADD SWAP1 PUSH2 0x1E1E SWAP2 SWAP1 PUSH2 0x4A09 JUMP JUMPDEST PUSH2 0x1E27 JUMPI PUSH1 0x0 DUP1 REVERT JUMPDEST PUSH1 0x1 PUSH1 0x0 DUP5 PUSH20 0xFFFFFFFFFFFFFFFFFFFFFFFFFFFFFFFFFFFFFFFF AND PUSH20 0xFFFFFFFFFFFFFFFFFFFFFFFFFFFFFFFFFFFFFFFF AND DUP2 MSTORE PUSH1 0x20 ADD SWAP1 DUP2 MSTORE PUSH1 0x20 ADD PUSH1 0x0 KECCAK256 PUSH1 0x4 PUSH1 0x0 DUP6 PUSH20 0xFFFFFFFFFFFFFFFFFFFFFFFFFFFFFFFFFFFFFFFF AND PUSH20 0xFFFFFFFFFFFFFFFFFFFFFFFFFFFFFFFFFFFFFFFF AND DUP2 MSTORE PUSH1 0x20 ADD SWAP1 DUP2 MSTORE PUSH1 0x20 ADD PUSH1 0x0 KECCAK256 DUP2 PUSH1 0x40 MLOAD DUP1 PUSH1 0xA0 ADD PUSH1 0x40 MSTORE SWAP1 DUP2 PUSH1 0x0 DUP3 ADD PUSH1 0x0 SWAP1 SLOAD SWAP1 PUSH2 0x100 EXP SWAP1 DIV PUSH20 0xFFFFFFFFFFFFFFFFFFFFFFFFFFFFFFFFFFFFFFFF AND PUSH20 0xFFFFFFFFFFFFFFFFFFFFFFFFFFFFFFFFFFFFFFFF AND PUSH20 0xFFFFFFFFFFFFFFFFFFFFFFFFFFFFFFFFFFFFFFFF AND DUP2 MSTORE PUSH1 0x20 ADD PUSH1 0x1 DUP3 ADD DUP1 SLOAD PUSH2 0x1F17 SWAP1 PUSH2 0x4A65 JUMP JUMPDEST DUP1 PUSH1 0x1F ADD PUSH1 0x20 DUP1 SWAP2 DIV MUL PUSH1 0x20 ADD PUSH1 0x40 MLOAD SWAP1 DUP2 ADD PUSH1 0x40 MSTORE DUP1 SWAP3 SWAP2 SWAP1 DUP2 DUP2 MSTORE PUSH1 0x20 ADD DUP3 DUP1 SLOAD PUSH2 0x1F43 SWAP1 PUSH2 0x4A65 JUMP JUMPDEST DUP1 ISZERO PUSH2 0x1F90 JUMPI DUP1 PUSH1 0x1F LT PUSH2 0x1F65 JUMPI PUSH2 0x100 DUP1 DUP4 SLOAD DIV MUL DUP4 MSTORE SWAP2 PUSH1 0x20 ADD SWAP2 PUSH2 0x1F90 JUMP JUMPDEST DUP3 ADD SWAP2 SWAP1 PUSH1 0x0 MSTORE PUSH1 0x20 PUSH1 0x0 KECCAK256 SWAP1 JUMPDEST DUP2 SLOAD DUP2 MSTORE SWAP1 PUSH1 0x1 ADD SWAP1 PUSH1 0x20 ADD DUP1 DUP4 GT PUSH2 0x1F73 JUMPI DUP3 SWAP1 SUB PUSH1 0x1F AND DUP3 ADD SWAP2 JUMPDEST POP POP POP POP POP DUP2 MSTORE PUSH1 0x20 ADD PUSH1 0x2 DUP3 ADD DUP1 SLOAD PUSH2 0x1FA9 SWAP1 PUSH2 0x4A65 JUMP JUMPDEST DUP1 PUSH1 0x1F ADD PUSH1 0x20 DUP1 SWAP2 DIV MUL PUSH1 0x20 ADD PUSH1 0x40 MLOAD SWAP1 DUP2 ADD PUSH1 0x40 MSTORE DUP1 SWAP3 SWAP2 SWAP1 DUP2 DUP2 MSTORE PUSH1 0x20 ADD DUP3 DUP1 SLOAD PUSH2 0x1FD5 SWAP1 PUSH2 0x4A65 JUMP JUMPDEST DUP1 ISZERO PUSH2 0x2022 JUMPI DUP1 PUSH1 0x1F LT PUSH2 0x1FF7 JUMPI PUSH2 0x100 DUP1 DUP4 SLOAD DIV MUL DUP4 MSTORE SWAP2 PUSH1 0x20 ADD SWAP2 PUSH2 0x2022 JUMP JUMPDEST DUP3 ADD SWAP2 SWAP1 PUSH1 0x0 MSTORE PUSH1 0x20 PUSH1 0x0 KECCAK256 SWAP1 JUMPDEST DUP2 SLOAD DUP2 MSTORE SWAP1 PUSH1 0x1 ADD SWAP1 PUSH1 0x20 ADD DUP1 DUP4 GT PUSH2 0x2005 JUMPI DUP3 SWAP1 SUB PUSH1 0x1F AND DUP3 ADD SWAP2 JUMPDEST POP POP POP POP POP DUP2 MSTORE PUSH1 0x20 ADD PUSH1 0x3 DUP3 ADD SLOAD DUP2 MSTORE PUSH1 0x20 ADD PUSH1 0x4 DUP3 ADD DUP1 SLOAD PUSH2 0x2045 SWAP1 PUSH2 0x4A65 JUMP JUMPDEST DUP1 PUSH1 0x1F ADD PUSH1 0x20 DUP1 SWAP2 DIV MUL PUSH1 0x20 ADD PUSH1 0x40 MLOAD SWAP1 DUP2 ADD PUSH1 0x40 MSTORE DUP1 SWAP3 SWAP2 SWAP1 DUP2 DUP2 MSTORE PUSH1 0x20 ADD DUP3 DUP1 SLOAD PUSH2 0x2071 SWAP1 PUSH2 0x4A65 JUMP JUMPDEST DUP1 ISZERO PUSH2 0x20BE JUMPI DUP1 PUSH1 0x1F LT PUSH2 0x2093 JUMPI PUSH2 0x100 DUP1 DUP4 SLOAD DIV MUL DUP4 MSTORE SWAP2 PUSH1 0x20 ADD SWAP2 PUSH2 0x20BE JUMP JUMPDEST DUP3 ADD SWAP2 SWAP1 PUSH1 0x0 MSTORE PUSH1 0x20 PUSH1 0x0 KECCAK256 SWAP1 JUMPDEST DUP2 SLOAD DUP2 MSTORE SWAP1 PUSH1 0x1 ADD SWAP1 PUSH1 0x20 ADD DUP1 DUP4 GT PUSH2 0x20A1 JUMPI DUP3 SWAP1 SUB PUSH1 0x1F AND DUP3 ADD SWAP2 JUMPDEST POP POP POP POP POP DUP2 MSTORE POP POP SWAP2 POP DUP1 DUP1 SLOAD DUP1 PUSH1 0x20 MUL PUSH1 0x20 ADD PUSH1 0x40 MLOAD SWAP1 DUP2 ADD PUSH1 0x40 MSTORE DUP1 SWAP3 SWAP2 SWAP1 DUP2 DUP2 MSTORE PUSH1 0x20 ADD PUSH1 0x0 SWAP1 JUMPDEST DUP3 DUP3 LT ISZERO PUSH2 0x28A1 JUMPI DUP4 DUP3 SWAP1 PUSH1 0x0 MSTORE PUSH1 0x20 PUSH1 0x0 KECCAK256 SWAP1 PUSH1 0xE MUL ADD PUSH1 0x40 MLOAD DUP1 PUSH2 0x1C0 ADD PUSH1 0x40 MSTORE SWAP1 DUP2 PUSH1 0x0 DUP3 ADD PUSH1 0x0 SWAP1 SLOAD SWAP1 PUSH2 0x100 EXP SWAP1 DIV PUSH20 0xFFFFFFFFFFFFFFFFFFFFFFFFFFFFFFFFFFFFFFFF AND PUSH20 0xFFFFFFFFFFFFFFFFFFFFFFFFFFFFFFFFFFFFFFFF AND PUSH20 0xFFFFFFFFFFFFFFFFFFFFFFFFFFFFFFFFFFFFFFFF AND DUP2 MSTORE PUSH1 0x20 ADD PUSH1 0x1 DUP3 ADD DUP1 SLOAD PUSH2 0x2174 SWAP1 PUSH2 0x4A65 JUMP JUMPDEST DUP1 PUSH1 0x1F ADD PUSH1 0x20 DUP1 SWAP2 DIV MUL PUSH1 0x20 ADD PUSH1 0x40 MLOAD SWAP1 DUP2 ADD PUSH1 0x40 MSTORE DUP1 SWAP3 SWAP2 SWAP1 DUP2 DUP2 MSTORE PUSH1 0x20 ADD DUP3 DUP1 SLOAD PUSH2 0x21A0 SWAP1 PUSH2 0x4A65 JUMP JUMPDEST DUP1 ISZERO PUSH2 0x21ED JUMPI DUP1 PUSH1 0x1F LT PUSH2 0x21C2 JUMPI PUSH2 0x100 DUP1 DUP4 SLOAD DIV MUL DUP4 MSTORE SWAP2 PUSH1 0x20 ADD SWAP2 PUSH2 0x21ED JUMP JUMPDEST DUP3 ADD SWAP2 SWAP1 PUSH1 0x0 MSTORE PUSH1 0x20 PUSH1 0x0 KECCAK256 SWAP1 JUMPDEST DUP2 SLOAD DUP2 MSTORE SWAP1 PUSH1 0x1 ADD SWAP1 PUSH1 0x20 ADD DUP1 DUP4 GT PUSH2 0x21D0 JUMPI DUP3 SWAP1 SUB PUSH1 0x1F AND DUP3 ADD SWAP2 JUMPDEST POP POP POP POP POP DUP2 MSTORE PUSH1 0x20 ADD PUSH1 0x2 DUP3 ADD DUP1 SLOAD PUSH2 0x2206 SWAP1 PUSH2 0x4A65 JUMP JUMPDEST DUP1 PUSH1 0x1F ADD PUSH1 0x20 DUP1 SWAP2 DIV MUL PUSH1 0x20 ADD PUSH1 0x40 MLOAD SWAP1 DUP2 ADD PUSH1 0x40 MSTORE DUP1 SWAP3 SWAP2 SWAP1 DUP2 DUP2 MSTORE PUSH1 0x20 ADD DUP3 DUP1 SLOAD PUSH2 0x2232 SWAP1 PUSH2 0x4A65 JUMP JUMPDEST DUP1 ISZERO PUSH2 0x227F JUMPI DUP1 PUSH1 0x1F LT PUSH2 0x2254 JUMPI PUSH2 0x100 DUP1 DUP4 SLOAD DIV MUL DUP4 MSTORE SWAP2 PUSH1 0x20 ADD SWAP2 PUSH2 0x227F JUMP JUMPDEST DUP3 ADD SWAP2 SWAP1 PUSH1 0x0 MSTORE PUSH1 0x20 PUSH1 0x0 KECCAK256 SWAP1 JUMPDEST DUP2 SLOAD DUP2 MSTORE SWAP1 PUSH1 0x1 ADD SWAP1 PUSH1 0x20 ADD DUP1 DUP4 GT PUSH2 0x2262 JUMPI DUP3 SWAP1 SUB PUSH1 0x1F AND DUP3 ADD SWAP2 JUMPDEST POP POP POP POP POP DUP2 MSTORE PUSH1 0x20 ADD PUSH1 0x3 DUP3 ADD DUP1 SLOAD PUSH2 0x2298 SWAP1 PUSH2 0x4A65 JUMP JUMPDEST DUP1 PUSH1 0x1F ADD PUSH1 0x20 DUP1 SWAP2 DIV MUL PUSH1 0x20 ADD PUSH1 0x40 MLOAD SWAP1 DUP2 ADD PUSH1 0x40 MSTORE DUP1 SWAP3 SWAP2 SWAP1 DUP2 DUP2 MSTORE PUSH1 0x20 ADD DUP3 DUP1 SLOAD PUSH2 0x22C4 SWAP1 PUSH2 0x4A65 JUMP JUMPDEST DUP1 ISZERO PUSH2 0x2311 JUMPI DUP1 PUSH1 0x1F LT PUSH2 0x22E6 JUMPI PUSH2 0x100 DUP1 DUP4 SLOAD DIV MUL DUP4 MSTORE SWAP2 PUSH1 0x20 ADD SWAP2 PUSH2 0x2311 JUMP JUMPDEST DUP3 ADD SWAP2 SWAP1 PUSH1 0x0 MSTORE PUSH1 0x20 PUSH1 0x0 KECCAK256 SWAP1 JUMPDEST DUP2 SLOAD DUP2 MSTORE SWAP1 PUSH1 0x1 ADD SWAP1 PUSH1 0x20 ADD DUP1 DUP4 GT PUSH2 0x22F4 JUMPI DUP3 SWAP1 SUB PUSH1 0x1F AND DUP3 ADD SWAP2 JUMPDEST POP POP POP POP POP DUP2 MSTORE PUSH1 0x20 ADD PUSH1 0x4 DUP3 ADD DUP1 SLOAD PUSH2 0x232A SWAP1 PUSH2 0x4A65 JUMP JUMPDEST DUP1 PUSH1 0x1F ADD PUSH1 0x20 DUP1 SWAP2 DIV MUL PUSH1 0x20 ADD PUSH1 0x40 MLOAD SWAP1 DUP2 ADD PUSH1 0x40 MSTORE DUP1 SWAP3 SWAP2 SWAP1 DUP2 DUP2 MSTORE PUSH1 0x20 ADD DUP3 DUP1 SLOAD PUSH2 0x2356 SWAP1 PUSH2 0x4A65 JUMP JUMPDEST DUP1 ISZERO PUSH2 0x23A3 JUMPI DUP1 PUSH1 0x1F LT PUSH2 0x2378 JUMPI PUSH2 0x100 DUP1 DUP4 SLOAD DIV MUL DUP4 MSTORE SWAP2 PUSH1 0x20 ADD SWAP2 PUSH2 0x23A3 JUMP JUMPDEST DUP3 ADD SWAP2 SWAP1 PUSH1 0x0 MSTORE PUSH1 0x20 PUSH1 0x0 KECCAK256 SWAP1 JUMPDEST DUP2 SLOAD DUP2 MSTORE SWAP1 PUSH1 0x1 ADD SWAP1 PUSH1 0x20 ADD DUP1 DUP4 GT PUSH2 0x2386 JUMPI DUP3 SWAP1 SUB PUSH1 0x1F AND DUP3 ADD SWAP2 JUMPDEST POP POP POP POP POP DUP2 MSTORE PUSH1 0x20 ADD PUSH1 0x5 DUP3 ADD DUP1 SLOAD PUSH2 0x23BC SWAP1 PUSH2 0x4A65 JUMP JUMPDEST DUP1 PUSH1 0x1F ADD PUSH1 0x20 DUP1 SWAP2 DIV MUL PUSH1 0x20 ADD PUSH1 0x40 MLOAD SWAP1 DUP2 ADD PUSH1 0x40 MSTORE DUP1 SWAP3 SWAP2 SWAP1 DUP2 DUP2 MSTORE PUSH1 0x20 ADD DUP3 DUP1 SLOAD PUSH2 0x23E8 SWAP1 PUSH2 0x4A65 JUMP JUMPDEST DUP1 ISZERO PUSH2 0x2435 JUMPI DUP1 PUSH1 0x1F LT PUSH2 0x240A JUMPI PUSH2 0x100 DUP1 DUP4 SLOAD DIV MUL DUP4 MSTORE SWAP2 PUSH1 0x20 ADD SWAP2 PUSH2 0x2435 JUMP JUMPDEST DUP3 ADD SWAP2 SWAP1 PUSH1 0x0 MSTORE PUSH1 0x20 PUSH1 0x0 KECCAK256 SWAP1 JUMPDEST DUP2 SLOAD DUP2 MSTORE SWAP1 PUSH1 0x1 ADD SWAP1 PUSH1 0x20 ADD DUP1 DUP4 GT PUSH2 0x2418 JUMPI DUP3 SWAP1 SUB PUSH1 0x1F AND DUP3 ADD SWAP2 JUMPDEST POP POP POP POP POP DUP2 MSTORE PUSH1 0x20 ADD PUSH1 0x6 DUP3 ADD DUP1 SLOAD PUSH2 0x244E SWAP1 PUSH2 0x4A65 JUMP JUMPDEST DUP1 PUSH1 0x1F ADD PUSH1 0x20 DUP1 SWAP2 DIV MUL PUSH1 0x20 ADD PUSH1 0x40 MLOAD SWAP1 DUP2 ADD PUSH1 0x40 MSTORE DUP1 SWAP3 SWAP2 SWAP1 DUP2 DUP2 MSTORE PUSH1 0x20 ADD DUP3 DUP1 SLOAD PUSH2 0x247A SWAP1 PUSH2 0x4A65 JUMP JUMPDEST DUP1 ISZERO PUSH2 0x24C7 JUMPI DUP1 PUSH1 0x1F LT PUSH2 0x249C JUMPI PUSH2 0x100 DUP1 DUP4 SLOAD DIV MUL DUP4 MSTORE SWAP2 PUSH1 0x20 ADD SWAP2 PUSH2 0x24C7 JUMP JUMPDEST DUP3 ADD SWAP2 SWAP1 PUSH1 0x0 MSTORE PUSH1 0x20 PUSH1 0x0 KECCAK256 SWAP1 JUMPDEST DUP2 SLOAD DUP2 MSTORE SWAP1 PUSH1 0x1 ADD SWAP1 PUSH1 0x20 ADD DUP1 DUP4 GT PUSH2 0x24AA JUMPI DUP3 SWAP1 SUB PUSH1 0x1F AND DUP3 ADD SWAP2 JUMPDEST POP POP POP POP POP DUP2 MSTORE PUSH1 0x20 ADD PUSH1 0x7 DUP3 ADD DUP1 SLOAD PUSH2 0x24E0 SWAP1 PUSH2 0x4A65 JUMP JUMPDEST DUP1 PUSH1 0x1F ADD PUSH1 0x20 DUP1 SWAP2 DIV MUL PUSH1 0x20 ADD PUSH1 0x40 MLOAD SWAP1 DUP2 ADD PUSH1 0x40 MSTORE DUP1 SWAP3 SWAP2 SWAP1 DUP2 DUP2 MSTORE PUSH1 0x20 ADD DUP3 DUP1 SLOAD PUSH2 0x250C SWAP1 PUSH2 0x4A65 JUMP JUMPDEST DUP1 ISZERO PUSH2 0x2559 JUMPI DUP1 PUSH1 0x1F LT PUSH2 0x252E JUMPI PUSH2 0x100 DUP1 DUP4 SLOAD DIV MUL DUP4 MSTORE SWAP2 PUSH1 0x20 ADD SWAP2 PUSH2 0x2559 JUMP JUMPDEST DUP3 ADD SWAP2 SWAP1 PUSH1 0x0 MSTORE PUSH1 0x20 PUSH1 0x0 KECCAK256 SWAP1 JUMPDEST DUP2 SLOAD DUP2 MSTORE SWAP1 PUSH1 0x1 ADD SWAP1 PUSH1 0x20 ADD DUP1 DUP4 GT PUSH2 0x253C JUMPI DUP3 SWAP1 SUB PUSH1 0x1F AND DUP3 ADD SWAP2 JUMPDEST POP POP POP POP POP DUP2 MSTORE PUSH1 0x20 ADD PUSH1 0x8 DUP3 ADD DUP1 SLOAD PUSH2 0x2572 SWAP1 PUSH2 0x4A65 JUMP JUMPDEST DUP1 PUSH1 0x1F ADD PUSH1 0x20 DUP1 SWAP2 DIV MUL PUSH1 0x20 ADD PUSH1 0x40 MLOAD SWAP1 DUP2 ADD PUSH1 0x40 MSTORE DUP1 SWAP3 SWAP2 SWAP1 DUP2 DUP2 MSTORE PUSH1 0x20 ADD DUP3 DUP1 SLOAD PUSH2 0x259E SWAP1 PUSH2 0x4A65 JUMP JUMPDEST DUP1 ISZERO PUSH2 0x25EB JUMPI DUP1 PUSH1 0x1F LT PUSH2 0x25C0 JUMPI PUSH2 0x100 DUP1 DUP4 SLOAD DIV MUL DUP4 MSTORE SWAP2 PUSH1 0x20 ADD SWAP2 PUSH2 0x25EB JUMP JUMPDEST DUP3 ADD SWAP2 SWAP1 PUSH1 0x0 MSTORE PUSH1 0x20 PUSH1 0x0 KECCAK256 SWAP1 JUMPDEST DUP2 SLOAD DUP2 MSTORE SWAP1 PUSH1 0x1 ADD SWAP1 PUSH1 0x20 ADD DUP1 DUP4 GT PUSH2 0x25CE JUMPI DUP3 SWAP1 SUB PUSH1 0x1F AND DUP3 ADD SWAP2 JUMPDEST POP POP POP POP POP DUP2 MSTORE PUSH1 0x20 ADD PUSH1 0x9 DUP3 ADD DUP1 SLOAD PUSH2 0x2604 SWAP1 PUSH2 0x4A65 JUMP JUMPDEST DUP1 PUSH1 0x1F ADD PUSH1 0x20 DUP1 SWAP2 DIV MUL PUSH1 0x20 ADD PUSH1 0x40 MLOAD SWAP1 DUP2 ADD PUSH1 0x40 MSTORE DUP1 SWAP3 SWAP2 SWAP1 DUP2 DUP2 MSTORE PUSH1 0x20 ADD DUP3 DUP1 SLOAD PUSH2 0x2630 SWAP1 PUSH2 0x4A65 JUMP JUMPDEST DUP1 ISZERO PUSH2 0x267D JUMPI DUP1 PUSH1 0x1F LT PUSH2 0x2652 JUMPI PUSH2 0x100 DUP1 DUP4 SLOAD DIV MUL DUP4 MSTORE SWAP2 PUSH1 0x20 ADD SWAP2 PUSH2 0x267D JUMP JUMPDEST DUP3 ADD SWAP2 SWAP1 PUSH1 0x0 MSTORE PUSH1 0x20 PUSH1 0x0 KECCAK256 SWAP1 JUMPDEST DUP2 SLOAD DUP2 MSTORE SWAP1 PUSH1 0x1 ADD SWAP1 PUSH1 0x20 ADD DUP1 DUP4 GT PUSH2 0x2660 JUMPI DUP3 SWAP1 SUB PUSH1 0x1F AND DUP3 ADD SWAP2 JUMPDEST POP POP POP POP POP DUP2 MSTORE PUSH1 0x20 ADD PUSH1 0xA DUP3 ADD DUP1 SLOAD PUSH2 0x2696 SWAP1 PUSH2 0x4A65 JUMP JUMPDEST DUP1 PUSH1 0x1F ADD PUSH1 0x20 DUP1 SWAP2 DIV MUL PUSH1 0x20 ADD PUSH1 0x40 MLOAD SWAP1 DUP2 ADD PUSH1 0x40 MSTORE DUP1 SWAP3 SWAP2 SWAP1 DUP2 DUP2 MSTORE PUSH1 0x20 ADD DUP3 DUP1 SLOAD PUSH2 0x26C2 SWAP1 PUSH2 0x4A65 JUMP JUMPDEST DUP1 ISZERO PUSH2 0x270F JUMPI DUP1 PUSH1 0x1F LT PUSH2 0x26E4 JUMPI PUSH2 0x100 DUP1 DUP4 SLOAD DIV MUL DUP4 MSTORE SWAP2 PUSH1 0x20 ADD SWAP2 PUSH2 0x270F JUMP JUMPDEST DUP3 ADD SWAP2 SWAP1 PUSH1 0x0 MSTORE PUSH1 0x20 PUSH1 0x0 KECCAK256 SWAP1 JUMPDEST DUP2 SLOAD DUP2 MSTORE SWAP1 PUSH1 0x1 ADD SWAP1 PUSH1 0x20 ADD DUP1 DUP4 GT PUSH2 0x26F2 JUMPI DUP3 SWAP1 SUB PUSH1 0x1F AND DUP3 ADD SWAP2 JUMPDEST POP POP POP POP POP DUP2 MSTORE PUSH1 0x20 ADD PUSH1 0xB DUP3 ADD PUSH1 0x0 SWAP1 SLOAD SWAP1 PUSH2 0x100 EXP SWAP1 DIV PUSH20 0xFFFFFFFFFFFFFFFFFFFFFFFFFFFFFFFFFFFFFFFF AND PUSH20 0xFFFFFFFFFFFFFFFFFFFFFFFFFFFFFFFFFFFFFFFF AND PUSH20 0xFFFFFFFFFFFFFFFFFFFFFFFFFFFFFFFFFFFFFFFF AND DUP2 MSTORE PUSH1 0x20 ADD PUSH1 0xC DUP3 ADD DUP1 SLOAD PUSH2 0x277E SWAP1 PUSH2 0x4A65 JUMP JUMPDEST DUP1 PUSH1 0x1F ADD PUSH1 0x20 DUP1 SWAP2 DIV MUL PUSH1 0x20 ADD PUSH1 0x40 MLOAD SWAP1 DUP2 ADD PUSH1 0x40 MSTORE DUP1 SWAP3 SWAP2 SWAP1 DUP2 DUP2 MSTORE PUSH1 0x20 ADD DUP3 DUP1 SLOAD PUSH2 0x27AA SWAP1 PUSH2 0x4A65 JUMP JUMPDEST DUP1 ISZERO PUSH2 0x27F7 JUMPI DUP1 PUSH1 0x1F LT PUSH2 0x27CC JUMPI PUSH2 0x100 DUP1 DUP4 SLOAD DIV MUL DUP4 MSTORE SWAP2 PUSH1 0x20 ADD SWAP2 PUSH2 0x27F7 JUMP JUMPDEST DUP3 ADD SWAP2 SWAP1 PUSH1 0x0 MSTORE PUSH1 0x20 PUSH1 0x0 KECCAK256 SWAP1 JUMPDEST DUP2 SLOAD DUP2 MSTORE SWAP1 PUSH1 0x1 ADD SWAP1 PUSH1 0x20 ADD DUP1 DUP4 GT PUSH2 0x27DA JUMPI DUP3 SWAP1 SUB PUSH1 0x1F AND DUP3 ADD SWAP2 JUMPDEST POP POP POP POP POP DUP2 MSTORE PUSH1 0x20 ADD PUSH1 0xD DUP3 ADD DUP1 SLOAD PUSH2 0x2810 SWAP1 PUSH2 0x4A65 JUMP JUMPDEST DUP1 PUSH1 0x1F ADD PUSH1 0x20 DUP1 SWAP2 DIV MUL PUSH1 0x20 ADD PUSH1 0x40 MLOAD SWAP1 DUP2 ADD PUSH1 0x40 MSTORE DUP1 SWAP3 SWAP2 SWAP1 DUP2 DUP2 MSTORE PUSH1 0x20 ADD DUP3 DUP1 SLOAD PUSH2 0x283C SWAP1 PUSH2 0x4A65 JUMP JUMPDEST DUP1 ISZERO PUSH2 0x2889 JUMPI DUP1 PUSH1 0x1F LT PUSH2 0x285E JUMPI PUSH2 0x100 DUP1 DUP4 SLOAD DIV MUL DUP4 MSTORE SWAP2 PUSH1 0x20 ADD SWAP2 PUSH2 0x2889 JUMP JUMPDEST DUP3 ADD SWAP2 SWAP1 PUSH1 0x0 MSTORE PUSH1 0x20 PUSH1 0x0 KECCAK256 SWAP1 JUMPDEST DUP2 SLOAD DUP2 MSTORE SWAP1 PUSH1 0x1 ADD SWAP1 PUSH1 0x20 ADD DUP1 DUP4 GT PUSH2 0x286C JUMPI DUP3 SWAP1 SUB PUSH1 0x1F AND DUP3 ADD SWAP2 JUMPDEST POP POP POP POP POP DUP2 MSTORE POP POP DUP2 MSTORE PUSH1 0x20 ADD SWAP1 PUSH1 0x1 ADD SWAP1 PUSH2 0x20EA JUMP JUMPDEST POP POP POP POP SWAP1 POP SWAP2 POP SWAP2 POP SWAP2 POP SWAP2 JUMP JUMPDEST PUSH2 0x28B8 PUSH2 0x32DE JUMP JUMPDEST PUSH1 0x60 PUSH1 0x6 PUSH1 0x0 SWAP1 SLOAD SWAP1 PUSH2 0x100 EXP SWAP1 DIV PUSH20 0xFFFFFFFFFFFFFFFFFFFFFFFFFFFFFFFFFFFFFFFF AND PUSH20 0xFFFFFFFFFFFFFFFFFFFFFFFFFFFFFFFFFFFFFFFF AND PUSH4 0x63A9C3D7 CALLER PUSH1 0x40 MLOAD DUP3 PUSH4 0xFFFFFFFF AND PUSH1 0xE0 SHL DUP2 MSTORE PUSH1 0x4 ADD PUSH2 0x2915 SWAP2 SWAP1 PUSH2 0x49D9 JUMP JUMPDEST PUSH1 0x20 PUSH1 0x40 MLOAD DUP1 DUP4 SUB DUP2 DUP7 GAS STATICCALL ISZERO DUP1 ISZERO PUSH2 0x2932 JUMPI RETURNDATASIZE PUSH1 0x0 DUP1 RETURNDATACOPY RETURNDATASIZE PUSH1 0x0 REVERT JUMPDEST POP POP POP POP PUSH1 0x40 MLOAD RETURNDATASIZE PUSH1 0x1F NOT PUSH1 0x1F DUP3 ADD AND DUP3 ADD DUP1 PUSH1 0x40 MSTORE POP DUP2 ADD SWAP1 PUSH2 0x2956 SWAP2 SWAP1 PUSH2 0x4A09 JUMP JUMPDEST PUSH2 0x295F JUMPI PUSH1 0x0 DUP1 REVERT JUMPDEST PUSH1 0x0 DUP1 DUP5 PUSH20 0xFFFFFFFFFFFFFFFFFFFFFFFFFFFFFFFFFFFFFFFF AND PUSH20 0xFFFFFFFFFFFFFFFFFFFFFFFFFFFFFFFFFFFFFFFF AND DUP2 MSTORE PUSH1 0x20 ADD SWAP1 DUP2 MSTORE PUSH1 0x20 ADD PUSH1 0x0 KECCAK256 PUSH1 0x3 PUSH1 0x0 DUP6 PUSH20 0xFFFFFFFFFFFFFFFFFFFFFFFFFFFFFFFFFFFFFFFF AND PUSH20 0xFFFFFFFFFFFFFFFFFFFFFFFFFFFFFFFFFFFFFFFF AND DUP2 MSTORE PUSH1 0x20 ADD SWAP1 DUP2 MSTORE PUSH1 0x20 ADD PUSH1 0x0 KECCAK256 DUP2 PUSH1 0x40 MLOAD DUP1 PUSH1 0xA0 ADD PUSH1 0x40 MSTORE SWAP1 DUP2 PUSH1 0x0 DUP3 ADD PUSH1 0x0 SWAP1 SLOAD SWAP1 PUSH2 0x100 EXP SWAP1 DIV PUSH20 0xFFFFFFFFFFFFFFFFFFFFFFFFFFFFFFFFFFFFFFFF AND PUSH20 0xFFFFFFFFFFFFFFFFFFFFFFFFFFFFFFFFFFFFFFFF AND PUSH20 0xFFFFFFFFFFFFFFFFFFFFFFFFFFFFFFFFFFFFFFFF AND DUP2 MSTORE PUSH1 0x20 ADD PUSH1 0x1 DUP3 ADD DUP1 SLOAD PUSH2 0x2A4E SWAP1 PUSH2 0x4A65 JUMP JUMPDEST DUP1 PUSH1 0x1F ADD PUSH1 0x20 DUP1 SWAP2 DIV MUL PUSH1 0x20 ADD PUSH1 0x40 MLOAD SWAP1 DUP2 ADD PUSH1 0x40 MSTORE DUP1 SWAP3 SWAP2 SWAP1 DUP2 DUP2 MSTORE PUSH1 0x20 ADD DUP3 DUP1 SLOAD PUSH2 0x2A7A SWAP1 PUSH2 0x4A65 JUMP JUMPDEST DUP1 ISZERO PUSH2 0x2AC7 JUMPI DUP1 PUSH1 0x1F LT PUSH2 0x2A9C JUMPI PUSH2 0x100 DUP1 DUP4 SLOAD DIV MUL DUP4 MSTORE SWAP2 PUSH1 0x20 ADD SWAP2 PUSH2 0x2AC7 JUMP JUMPDEST DUP3 ADD SWAP2 SWAP1 PUSH1 0x0 MSTORE PUSH1 0x20 PUSH1 0x0 KECCAK256 SWAP1 JUMPDEST DUP2 SLOAD DUP2 MSTORE SWAP1 PUSH1 0x1 ADD SWAP1 PUSH1 0x20 ADD DUP1 DUP4 GT PUSH2 0x2AAA JUMPI DUP3 SWAP1 SUB PUSH1 0x1F AND DUP3 ADD SWAP2 JUMPDEST POP POP POP POP POP DUP2 MSTORE PUSH1 0x20 ADD PUSH1 0x2 DUP3 ADD SLOAD DUP2 MSTORE PUSH1 0x20 ADD PUSH1 0x3 DUP3 ADD DUP1 SLOAD PUSH2 0x2AEA SWAP1 PUSH2 0x4A65 JUMP JUMPDEST DUP1 PUSH1 0x1F ADD PUSH1 0x20 DUP1 SWAP2 DIV MUL PUSH1 0x20 ADD PUSH1 0x40 MLOAD SWAP1 DUP2 ADD PUSH1 0x40 MSTORE DUP1 SWAP3 SWAP2 SWAP1 DUP2 DUP2 MSTORE PUSH1 0x20 ADD DUP3 DUP1 SLOAD PUSH2 0x2B16 SWAP1 PUSH2 0x4A65 JUMP JUMPDEST DUP1 ISZERO PUSH2 0x2B63 JUMPI DUP1 PUSH1 0x1F LT PUSH2 0x2B38 JUMPI PUSH2 0x100 DUP1 DUP4 SLOAD DIV MUL DUP4 MSTORE SWAP2 PUSH1 0x20 ADD SWAP2 PUSH2 0x2B63 JUMP JUMPDEST DUP3 ADD SWAP2 SWAP1 PUSH1 0x0 MSTORE PUSH1 0x20 PUSH1 0x0 KECCAK256 SWAP1 JUMPDEST DUP2 SLOAD DUP2 MSTORE SWAP1 PUSH1 0x1 ADD SWAP1 PUSH1 0x20 ADD DUP1 DUP4 GT PUSH2 0x2B46 JUMPI DUP3 SWAP1 SUB PUSH1 0x1F AND DUP3 ADD SWAP2 JUMPDEST POP POP POP POP POP DUP2 MSTORE PUSH1 0x20 ADD PUSH1 0x4 DUP3 ADD DUP1 SLOAD PUSH2 0x2B7C SWAP1 PUSH2 0x4A65 JUMP JUMPDEST DUP1 PUSH1 0x1F ADD PUSH1 0x20 DUP1 SWAP2 DIV MUL PUSH1 0x20 ADD PUSH1 0x40 MLOAD SWAP1 DUP2 ADD PUSH1 0x40 MSTORE DUP1 SWAP3 SWAP2 SWAP1 DUP2 DUP2 MSTORE PUSH1 0x20 ADD DUP3 DUP1 SLOAD PUSH2 0x2BA8 SWAP1 PUSH2 0x4A65 JUMP JUMPDEST DUP1 ISZERO PUSH2 0x2BF5 JUMPI DUP1 PUSH1 0x1F LT PUSH2 0x2BCA JUMPI PUSH2 0x100 DUP1 DUP4 SLOAD DIV MUL DUP4 MSTORE SWAP2 PUSH1 0x20 ADD SWAP2 PUSH2 0x2BF5 JUMP JUMPDEST DUP3 ADD SWAP2 SWAP1 PUSH1 0x0 MSTORE PUSH1 0x20 PUSH1 0x0 KECCAK256 SWAP1 JUMPDEST DUP2 SLOAD DUP2 MSTORE SWAP1 PUSH1 0x1 ADD SWAP1 PUSH1 0x20 ADD DUP1 DUP4 GT PUSH2 0x2BD8 JUMPI DUP3 SWAP1 SUB PUSH1 0x1F AND DUP3 ADD SWAP2 JUMPDEST POP POP POP POP POP DUP2 MSTORE POP POP SWAP2 POP DUP1 DUP1 SLOAD DUP1 PUSH1 0x20 MUL PUSH1 0x20 ADD PUSH1 0x40 MLOAD SWAP1 DUP2 ADD PUSH1 0x40 MSTORE DUP1 SWAP3 SWAP2 SWAP1 DUP2 DUP2 MSTORE PUSH1 0x20 ADD PUSH1 0x0 SWAP1 JUMPDEST DUP3 DUP3 LT ISZERO PUSH2 0x32CF JUMPI DUP4 DUP3 SWAP1 PUSH1 0x0 MSTORE PUSH1 0x20 PUSH1 0x0 KECCAK256 SWAP1 PUSH1 0xD MUL ADD PUSH1 0x40 MLOAD DUP1 PUSH2 0x1A0 ADD PUSH1 0x40 MSTORE SWAP1 DUP2 PUSH1 0x0 DUP3 ADD PUSH1 0x0 SWAP1 SLOAD SWAP1 PUSH2 0x100 EXP SWAP1 DIV PUSH20 0xFFFFFFFFFFFFFFFFFFFFFFFFFFFFFFFFFFFFFFFF AND PUSH20 0xFFFFFFFFFFFFFFFFFFFFFFFFFFFFFFFFFFFFFFFF AND PUSH20 0xFFFFFFFFFFFFFFFFFFFFFFFFFFFFFFFFFFFFFFFF AND DUP2 MSTORE PUSH1 0x20 ADD PUSH1 0x1 DUP3 ADD DUP1 SLOAD PUSH2 0x2CAB SWAP1 PUSH2 0x4A65 JUMP JUMPDEST DUP1 PUSH1 0x1F ADD PUSH1 0x20 DUP1 SWAP2 DIV MUL PUSH1 0x20 ADD PUSH1 0x40 MLOAD SWAP1 DUP2 ADD PUSH1 0x40 MSTORE DUP1 SWAP3 SWAP2 SWAP1 DUP2 DUP2 MSTORE PUSH1 0x20 ADD DUP3 DUP1 SLOAD PUSH2 0x2CD7 SWAP1 PUSH2 0x4A65 JUMP JUMPDEST DUP1 ISZERO PUSH2 0x2D24 JUMPI DUP1 PUSH1 0x1F LT PUSH2 0x2CF9 JUMPI PUSH2 0x100 DUP1 DUP4 SLOAD DIV MUL DUP4 MSTORE SWAP2 PUSH1 0x20 ADD SWAP2 PUSH2 0x2D24 JUMP JUMPDEST DUP3 ADD SWAP2 SWAP1 PUSH1 0x0 MSTORE PUSH1 0x20 PUSH1 0x0 KECCAK256 SWAP1 JUMPDEST DUP2 SLOAD DUP2 MSTORE SWAP1 PUSH1 0x1 ADD SWAP1 PUSH1 0x20 ADD DUP1 DUP4 GT PUSH2 0x2D07 JUMPI DUP3 SWAP1 SUB PUSH1 0x1F AND DUP3 ADD SWAP2 JUMPDEST POP POP POP POP POP DUP2 MSTORE PUSH1 0x20 ADD PUSH1 0x2 DUP3 ADD DUP1 SLOAD PUSH2 0x2D3D SWAP1 PUSH2 0x4A65 JUMP JUMPDEST DUP1 PUSH1 0x1F ADD PUSH1 0x20 DUP1 SWAP2 DIV MUL PUSH1 0x20 ADD PUSH1 0x40 MLOAD SWAP1 DUP2 ADD PUSH1 0x40 MSTORE DUP1 SWAP3 SWAP2 SWAP1 DUP2 DUP2 MSTORE PUSH1 0x20 ADD DUP3 DUP1 SLOAD PUSH2 0x2D69 SWAP1 PUSH2 0x4A65 JUMP JUMPDEST DUP1 ISZERO PUSH2 0x2DB6 JUMPI DUP1 PUSH1 0x1F LT PUSH2 0x2D8B JUMPI PUSH2 0x100 DUP1 DUP4 SLOAD DIV MUL DUP4 MSTORE SWAP2 PUSH1 0x20 ADD SWAP2 PUSH2 0x2DB6 JUMP JUMPDEST DUP3 ADD SWAP2 SWAP1 PUSH1 0x0 MSTORE PUSH1 0x20 PUSH1 0x0 KECCAK256 SWAP1 JUMPDEST DUP2 SLOAD DUP2 MSTORE SWAP1 PUSH1 0x1 ADD SWAP1 PUSH1 0x20 ADD DUP1 DUP4 GT PUSH2 0x2D99 JUMPI DUP3 SWAP1 SUB PUSH1 0x1F AND DUP3 ADD SWAP2 JUMPDEST POP POP POP POP POP DUP2 MSTORE PUSH1 0x20 ADD PUSH1 0x3 DUP3 ADD DUP1 SLOAD PUSH2 0x2DCF SWAP1 PUSH2 0x4A65 JUMP JUMPDEST DUP1 PUSH1 0x1F ADD PUSH1 0x20 DUP1 SWAP2 DIV MUL PUSH1 0x20 ADD PUSH1 0x40 MLOAD SWAP1 DUP2 ADD PUSH1 0x40 MSTORE DUP1 SWAP3 SWAP2 SWAP1 DUP2 DUP2 MSTORE PUSH1 0x20 ADD DUP3 DUP1 SLOAD PUSH2 0x2DFB SWAP1 PUSH2 0x4A65 JUMP JUMPDEST DUP1 ISZERO PUSH2 0x2E48 JUMPI DUP1 PUSH1 0x1F LT PUSH2 0x2E1D JUMPI PUSH2 0x100 DUP1 DUP4 SLOAD DIV MUL DUP4 MSTORE SWAP2 PUSH1 0x20 ADD SWAP2 PUSH2 0x2E48 JUMP JUMPDEST DUP3 ADD SWAP2 SWAP1 PUSH1 0x0 MSTORE PUSH1 0x20 PUSH1 0x0 KECCAK256 SWAP1 JUMPDEST DUP2 SLOAD DUP2 MSTORE SWAP1 PUSH1 0x1 ADD SWAP1 PUSH1 0x20 ADD DUP1 DUP4 GT PUSH2 0x2E2B JUMPI DUP3 SWAP1 SUB PUSH1 0x1F AND DUP3 ADD SWAP2 JUMPDEST POP POP POP POP POP DUP2 MSTORE PUSH1 0x20 ADD PUSH1 0x4 DUP3 ADD DUP1 SLOAD PUSH2 0x2E61 SWAP1 PUSH2 0x4A65 JUMP JUMPDEST DUP1 PUSH1 0x1F ADD PUSH1 0x20 DUP1 SWAP2 DIV MUL PUSH1 0x20 ADD PUSH1 0x40 MLOAD SWAP1 DUP2 ADD PUSH1 0x40 MSTORE DUP1 SWAP3 SWAP2 SWAP1 DUP2 DUP2 MSTORE PUSH1 0x20 ADD DUP3 DUP1 SLOAD PUSH2 0x2E8D SWAP1 PUSH2 0x4A65 JUMP JUMPDEST DUP1 ISZERO PUSH2 0x2EDA JUMPI DUP1 PUSH1 0x1F LT PUSH2 0x2EAF JUMPI PUSH2 0x100 DUP1 DUP4 SLOAD DIV MUL DUP4 MSTORE SWAP2 PUSH1 0x20 ADD SWAP2 PUSH2 0x2EDA JUMP JUMPDEST DUP3 ADD SWAP2 SWAP1 PUSH1 0x0 MSTORE PUSH1 0x20 PUSH1 0x0 KECCAK256 SWAP1 JUMPDEST DUP2 SLOAD DUP2 MSTORE SWAP1 PUSH1 0x1 ADD SWAP1 PUSH1 0x20 ADD DUP1 DUP4 GT PUSH2 0x2EBD JUMPI DUP3 SWAP1 SUB PUSH1 0x1F AND DUP3 ADD SWAP2 JUMPDEST POP POP POP POP POP DUP2 MSTORE PUSH1 0x20 ADD PUSH1 0x5 DUP3 ADD DUP1 SLOAD PUSH2 0x2EF3 SWAP1 PUSH2 0x4A65 JUMP JUMPDEST DUP1 PUSH1 0x1F ADD PUSH1 0x20 DUP1 SWAP2 DIV MUL PUSH1 0x20 ADD PUSH1 0x40 MLOAD SWAP1 DUP2 ADD PUSH1 0x40 MSTORE DUP1 SWAP3 SWAP2 SWAP1 DUP2 DUP2 MSTORE PUSH1 0x20 ADD DUP3 DUP1 SLOAD PUSH2 0x2F1F SWAP1 PUSH2 0x4A65 JUMP JUMPDEST DUP1 ISZERO PUSH2 0x2F6C JUMPI DUP1 PUSH1 0x1F LT PUSH2 0x2F41 JUMPI PUSH2 0x100 DUP1 DUP4 SLOAD DIV MUL DUP4 MSTORE SWAP2 PUSH1 0x20 ADD SWAP2 PUSH2 0x2F6C JUMP JUMPDEST DUP3 ADD SWAP2 SWAP1 PUSH1 0x0 MSTORE PUSH1 0x20 PUSH1 0x0 KECCAK256 SWAP1 JUMPDEST DUP2 SLOAD DUP2 MSTORE SWAP1 PUSH1 0x1 ADD SWAP1 PUSH1 0x20 ADD DUP1 DUP4 GT PUSH2 0x2F4F JUMPI DUP3 SWAP1 SUB PUSH1 0x1F AND DUP3 ADD SWAP2 JUMPDEST POP POP POP POP POP DUP2 MSTORE PUSH1 0x20 ADD PUSH1 0x6 DUP3 ADD DUP1 SLOAD PUSH2 0x2F85 SWAP1 PUSH2 0x4A65 JUMP JUMPDEST DUP1 PUSH1 0x1F ADD PUSH1 0x20 DUP1 SWAP2 DIV MUL PUSH1 0x20 ADD PUSH1 0x40 MLOAD SWAP1 DUP2 ADD PUSH1 0x40 MSTORE DUP1 SWAP3 SWAP2 SWAP1 DUP2 DUP2 MSTORE PUSH1 0x20 ADD DUP3 DUP1 SLOAD PUSH2 0x2FB1 SWAP1 PUSH2 0x4A65 JUMP JUMPDEST DUP1 ISZERO PUSH2 0x2FFE JUMPI DUP1 PUSH1 0x1F LT PUSH2 0x2FD3 JUMPI PUSH2 0x100 DUP1 DUP4 SLOAD DIV MUL DUP4 MSTORE SWAP2 PUSH1 0x20 ADD SWAP2 PUSH2 0x2FFE JUMP JUMPDEST DUP3 ADD SWAP2 SWAP1 PUSH1 0x0 MSTORE PUSH1 0x20 PUSH1 0x0 KECCAK256 SWAP1 JUMPDEST DUP2 SLOAD DUP2 MSTORE SWAP1 PUSH1 0x1 ADD SWAP1 PUSH1 0x20 ADD DUP1 DUP4 GT PUSH2 0x2FE1 JUMPI DUP3 SWAP1 SUB PUSH1 0x1F AND DUP3 ADD SWAP2 JUMPDEST POP POP POP POP POP DUP2 MSTORE PUSH1 0x20 ADD PUSH1 0x7 DUP3 ADD DUP1 SLOAD PUSH2 0x3017 SWAP1 PUSH2 0x4A65 JUMP JUMPDEST DUP1 PUSH1 0x1F ADD PUSH1 0x20 DUP1 SWAP2 DIV MUL PUSH1 0x20 ADD PUSH1 0x40 MLOAD SWAP1 DUP2 ADD PUSH1 0x40 MSTORE DUP1 SWAP3 SWAP2 SWAP1 DUP2 DUP2 MSTORE PUSH1 0x20 ADD DUP3 DUP1 SLOAD PUSH2 0x3043 SWAP1 PUSH2 0x4A65 JUMP JUMPDEST DUP1 ISZERO PUSH2 0x3090 JUMPI DUP1 PUSH1 0x1F LT PUSH2 0x3065 JUMPI PUSH2 0x100 DUP1 DUP4 SLOAD DIV MUL DUP4 MSTORE SWAP2 PUSH1 0x20 ADD SWAP2 PUSH2 0x3090 JUMP JUMPDEST DUP3 ADD SWAP2 SWAP1 PUSH1 0x0 MSTORE PUSH1 0x20 PUSH1 0x0 KECCAK256 SWAP1 JUMPDEST DUP2 SLOAD DUP2 MSTORE SWAP1 PUSH1 0x1 ADD SWAP1 PUSH1 0x20 ADD DUP1 DUP4 GT PUSH2 0x3073 JUMPI DUP3 SWAP1 SUB PUSH1 0x1F AND DUP3 ADD SWAP2 JUMPDEST POP POP POP POP POP DUP2 MSTORE PUSH1 0x20 ADD PUSH1 0x8 DUP3 ADD PUSH1 0x0 SWAP1 SLOAD SWAP1 PUSH2 0x100 EXP SWAP1 DIV PUSH1 0xFF AND ISZERO ISZERO ISZERO ISZERO DUP2 MSTORE PUSH1 0x20 ADD PUSH1 0x9 DUP3 ADD DUP1 SLOAD PUSH2 0x30C4 SWAP1 PUSH2 0x4A65 JUMP JUMPDEST DUP1 PUSH1 0x1F ADD PUSH1 0x20 DUP1 SWAP2 DIV MUL PUSH1 0x20 ADD PUSH1 0x40 MLOAD SWAP1 DUP2 ADD PUSH1 0x40 MSTORE DUP1 SWAP3 SWAP2 SWAP1 DUP2 DUP2 MSTORE PUSH1 0x20 ADD DUP3 DUP1 SLOAD PUSH2 0x30F0 SWAP1 PUSH2 0x4A65 JUMP JUMPDEST DUP1 ISZERO PUSH2 0x313D JUMPI DUP1 PUSH1 0x1F LT PUSH2 0x3112 JUMPI PUSH2 0x100 DUP1 DUP4 SLOAD DIV MUL DUP4 MSTORE SWAP2 PUSH1 0x20 ADD SWAP2 PUSH2 0x313D JUMP JUMPDEST DUP3 ADD SWAP2 SWAP1 PUSH1 0x0 MSTORE PUSH1 0x20 PUSH1 0x0 KECCAK256 SWAP1 JUMPDEST DUP2 SLOAD DUP2 MSTORE SWAP1 PUSH1 0x1 ADD SWAP1 PUSH1 0x20 ADD DUP1 DUP4 GT PUSH2 0x3120 JUMPI DUP3 SWAP1 SUB PUSH1 0x1F AND DUP3 ADD SWAP2 JUMPDEST POP POP POP POP POP DUP2 MSTORE PUSH1 0x20 ADD PUSH1 0xA DUP3 ADD DUP1 SLOAD PUSH2 0x3156 SWAP1 PUSH2 0x4A65 JUMP JUMPDEST DUP1 PUSH1 0x1F ADD PUSH1 0x20 DUP1 SWAP2 DIV MUL PUSH1 0x20 ADD PUSH1 0x40 MLOAD SWAP1 DUP2 ADD PUSH1 0x40 MSTORE DUP1 SWAP3 SWAP2 SWAP1 DUP2 DUP2 MSTORE PUSH1 0x20 ADD DUP3 DUP1 SLOAD PUSH2 0x3182 SWAP1 PUSH2 0x4A65 JUMP JUMPDEST DUP1 ISZERO PUSH2 0x31CF JUMPI DUP1 PUSH1 0x1F LT PUSH2 0x31A4 JUMPI PUSH2 0x100 DUP1 DUP4 SLOAD DIV MUL DUP4 MSTORE SWAP2 PUSH1 0x20 ADD SWAP2 PUSH2 0x31CF JUMP JUMPDEST DUP3 ADD SWAP2 SWAP1 PUSH1 0x0 MSTORE PUSH1 0x20 PUSH1 0x0 KECCAK256 SWAP1 JUMPDEST DUP2 SLOAD DUP2 MSTORE SWAP1 PUSH1 0x1 ADD SWAP1 PUSH1 0x20 ADD DUP1 DUP4 GT PUSH2 0x31B2 JUMPI DUP3 SWAP1 SUB PUSH1 0x1F AND DUP3 ADD SWAP2 JUMPDEST POP POP POP POP POP DUP2 MSTORE PUSH1 0x20 ADD PUSH1 0xB DUP3 ADD PUSH1 0x0 SWAP1 SLOAD SWAP1 PUSH2 0x100 EXP SWAP1 DIV PUSH20 0xFFFFFFFFFFFFFFFFFFFFFFFFFFFFFFFFFFFFFFFF AND PUSH20 0xFFFFFFFFFFFFFFFFFFFFFFFFFFFFFFFFFFFFFFFF AND PUSH20 0xFFFFFFFFFFFFFFFFFFFFFFFFFFFFFFFFFFFFFFFF AND DUP2 MSTORE PUSH1 0x20 ADD PUSH1 0xC DUP3 ADD DUP1 SLOAD PUSH2 0x323E SWAP1 PUSH2 0x4A65 JUMP JUMPDEST DUP1 PUSH1 0x1F ADD PUSH1 0x20 DUP1 SWAP2 DIV MUL PUSH1 0x20 ADD PUSH1 0x40 MLOAD SWAP1 DUP2 ADD PUSH1 0x40 MSTORE DUP1 SWAP3 SWAP2 SWAP1 DUP2 DUP2 MSTORE PUSH1 0x20 ADD DUP3 DUP1 SLOAD PUSH2 0x326A SWAP1 PUSH2 0x4A65 JUMP JUMPDEST DUP1 ISZERO PUSH2 0x32B7 JUMPI DUP1 PUSH1 0x1F LT PUSH2 0x328C JUMPI PUSH2 0x100 DUP1 DUP4 SLOAD DIV MUL DUP4 MSTORE SWAP2 PUSH1 0x20 ADD SWAP2 PUSH2 0x32B7 JUMP JUMPDEST DUP3 ADD SWAP2 SWAP1 PUSH1 0x0 MSTORE PUSH1 0x20 PUSH1 0x0 KECCAK256 SWAP1 JUMPDEST DUP2 SLOAD DUP2 MSTORE SWAP1 PUSH1 0x1 ADD SWAP1 PUSH1 0x20 ADD DUP1 DUP4 GT PUSH2 0x329A JUMPI DUP3 SWAP1 SUB PUSH1 0x1F AND DUP3 ADD SWAP2 JUMPDEST POP POP POP POP POP DUP2 MSTORE POP POP DUP2 MSTORE PUSH1 0x20 ADD SWAP1 PUSH1 0x1 ADD SWAP1 PUSH2 0x2C21 JUMP JUMPDEST POP POP POP POP SWAP1 POP SWAP2 POP SWAP2 POP SWAP2 POP SWAP2 JUMP JUMPDEST PUSH1 0x40 MLOAD DUP1 PUSH1 0xA0 ADD PUSH1 0x40 MSTORE DUP1 PUSH1 0x0 PUSH20 0xFFFFFFFFFFFFFFFFFFFFFFFFFFFFFFFFFFFFFFFF AND DUP2 MSTORE PUSH1 0x20 ADD PUSH1 0x60 DUP2 MSTORE PUSH1 0x20 ADD PUSH1 0x0 DUP2 MSTORE PUSH1 0x20 ADD PUSH1 0x60 DUP2 MSTORE PUSH1 0x20 ADD PUSH1 0x60 DUP2 MSTORE POP SWAP1 JUMP JUMPDEST PUSH1 0x40 MLOAD DUP1 PUSH2 0x1A0 ADD PUSH1 0x40 MSTORE DUP1 PUSH1 0x0 PUSH20 0xFFFFFFFFFFFFFFFFFFFFFFFFFFFFFFFFFFFFFFFF AND DUP2 MSTORE PUSH1 0x20 ADD PUSH1 0x60 DUP2 MSTORE PUSH1 0x20 ADD PUSH1 0x60 DUP2 MSTORE PUSH1 0x20 ADD PUSH1 0x60 DUP2 MSTORE PUSH1 0x20 ADD PUSH1 0x60 DUP2 MSTORE PUSH1 0x20 ADD PUSH1 0x60 DUP2 MSTORE PUSH1 0x20 ADD PUSH1 0x60 DUP2 MSTORE PUSH1 0x20 ADD PUSH1 0x60 DUP2 MSTORE PUSH1 0x20 ADD PUSH1 0x0 ISZERO ISZERO DUP2 MSTORE PUSH1 0x20 ADD PUSH1 0x60 DUP2 MSTORE PUSH1 0x20 ADD PUSH1 0x60 DUP2 MSTORE PUSH1 0x20 ADD PUSH1 0x0 PUSH20 0xFFFFFFFFFFFFFFFFFFFFFFFFFFFFFFFFFFFFFFFF AND DUP2 MSTORE PUSH1 0x20 ADD PUSH1 0x60 DUP2 MSTORE POP SWAP1 JUMP JUMPDEST PUSH1 0x40 MLOAD DUP1 PUSH2 0x140 ADD PUSH1 0x40 MSTORE DUP1 PUSH1 0x0 PUSH20 0xFFFFFFFFFFFFFFFFFFFFFFFFFFFFFFFFFFFFFFFF AND DUP2 MSTORE PUSH1 0x20 ADD PUSH1 0x60 DUP2 MSTORE PUSH1 0x20 ADD PUSH1 0x60 DUP2 MSTORE PUSH1 0x20 ADD PUSH1 0x60 DUP2 MSTORE PUSH1 0x20 ADD PUSH1 0x60 DUP2 MSTORE PUSH1 0x20 ADD PUSH1 0x60 DUP2 MSTORE PUSH1 0x20 ADD PUSH1 0x60 DUP2 MSTORE PUSH1 0x20 ADD PUSH1 0x60 DUP2 MSTORE PUSH1 0x20 ADD PUSH1 0x60 DUP2 MSTORE PUSH1 0x20 ADD PUSH1 0x0 ISZERO ISZERO DUP2 MSTORE POP SWAP1 JUMP JUMPDEST PUSH1 0x40 MLOAD DUP1 PUSH1 0xA0 ADD PUSH1 0x40 MSTORE DUP1 PUSH1 0x0 PUSH20 0xFFFFFFFFFFFFFFFFFFFFFFFFFFFFFFFFFFFFFFFF AND DUP2 MSTORE PUSH1 0x20 ADD PUSH1 0x60 DUP2 MSTORE PUSH1 0x20 ADD PUSH1 0x60 DUP2 MSTORE PUSH1 0x20 ADD PUSH1 0x0 DUP2 MSTORE PUSH1 0x20 ADD PUSH1 0x60 DUP2 MSTORE POP SWAP1 JUMP JUMPDEST PUSH1 0x40 MLOAD DUP1 PUSH2 0x1C0 ADD PUSH1 0x40 MSTORE DUP1 PUSH1 0x0 PUSH20 0xFFFFFFFFFFFFFFFFFFFFFFFFFFFFFFFFFFFFFFFF AND DUP2 MSTORE PUSH1 0x20 ADD PUSH1 0x60 DUP2 MSTORE PUSH1 0x20 ADD PUSH1 0x60 DUP2 MSTORE PUSH1 0x20 ADD PUSH1 0x60 DUP2 MSTORE PUSH1 0x20 ADD PUSH1 0x60 DUP2 MSTORE PUSH1 0x20 ADD PUSH1 0x60 DUP2 MSTORE PUSH1 0x20 ADD PUSH1 0x60 DUP2 MSTORE PUSH1 0x20 ADD PUSH1 0x60 DUP2 MSTORE PUSH1 0x20 ADD PUSH1 0x60 DUP2 MSTORE PUSH1 0x20 ADD PUSH1 0x60 DUP2 MSTORE PUSH1 0x20 ADD PUSH1 0x60 DUP2 MSTORE PUSH1 0x20 ADD PUSH1 0x0 PUSH20 0xFFFFFFFFFFFFFFFFFFFFFFFFFFFFFFFFFFFFFFFF AND DUP2 MSTORE PUSH1 0x20 ADD PUSH1 0x60 DUP2 MSTORE PUSH1 0x20 ADD PUSH1 0x60 DUP2 MSTORE POP SWAP1 JUMP JUMPDEST PUSH1 0x0 PUSH1 0x40 MLOAD SWAP1 POP SWAP1 JUMP JUMPDEST PUSH1 0x0 DUP1 REVERT JUMPDEST PUSH1 0x0 DUP1 REVERT JUMPDEST PUSH1 0x0 DUP1 REVERT JUMPDEST PUSH1 0x0 PUSH1 0x1F NOT PUSH1 0x1F DUP4 ADD AND SWAP1 POP SWAP2 SWAP1 POP JUMP JUMPDEST PUSH32 0x4E487B7100000000000000000000000000000000000000000000000000000000 PUSH1 0x0 MSTORE PUSH1 0x41 PUSH1 0x4 MSTORE PUSH1 0x24 PUSH1 0x0 REVERT JUMPDEST PUSH2 0x3566 DUP3 PUSH2 0x351D JUMP JUMPDEST DUP2 ADD DUP2 DUP2 LT PUSH8 0xFFFFFFFFFFFFFFFF DUP3 GT OR ISZERO PUSH2 0x3585 JUMPI PUSH2 0x3584 PUSH2 0x352E JUMP JUMPDEST JUMPDEST DUP1 PUSH1 0x40 MSTORE POP POP POP JUMP JUMPDEST PUSH1 0x0 PUSH2 0x3598 PUSH2 0x3504 JUMP JUMPDEST SWAP1 POP PUSH2 0x35A4 DUP3 DUP3 PUSH2 0x355D JUMP JUMPDEST SWAP2 SWAP1 POP JUMP JUMPDEST PUSH1 0x0 DUP1 REVERT JUMPDEST PUSH1 0x0 PUSH20 0xFFFFFFFFFFFFFFFFFFFFFFFFFFFFFFFFFFFFFFFF DUP3 AND SWAP1 POP SWAP2 SWAP1 POP JUMP JUMPDEST PUSH1 0x0 PUSH2 0x35D9 DUP3 PUSH2 0x35AE JUMP JUMPDEST SWAP1 POP SWAP2 SWAP1 POP JUMP JUMPDEST PUSH2 0x35E9 DUP2 PUSH2 0x35CE JUMP JUMPDEST DUP2 EQ PUSH2 0x35F4 JUMPI PUSH1 0x0 DUP1 REVERT JUMPDEST POP JUMP JUMPDEST PUSH1 0x0 DUP2 CALLDATALOAD SWAP1 POP PUSH2 0x3606 DUP2 PUSH2 0x35E0 JUMP JUMPDEST SWAP3 SWAP2 POP POP JUMP JUMPDEST PUSH1 0x0 DUP1 REVERT JUMPDEST PUSH1 0x0 DUP1 REVERT JUMPDEST PUSH1 0x0 PUSH8 0xFFFFFFFFFFFFFFFF DUP3 GT ISZERO PUSH2 0x3631 JUMPI PUSH2 0x3630 PUSH2 0x352E JUMP JUMPDEST JUMPDEST PUSH2 0x363A DUP3 PUSH2 0x351D JUMP JUMPDEST SWAP1 POP PUSH1 0x20 DUP2 ADD SWAP1 POP SWAP2 SWAP1 POP JUMP JUMPDEST DUP3 DUP2 DUP4 CALLDATACOPY PUSH1 0x0 DUP4 DUP4 ADD MSTORE POP POP POP JUMP JUMPDEST PUSH1 0x0 PUSH2 0x3669 PUSH2 0x3664 DUP5 PUSH2 0x3616 JUMP JUMPDEST PUSH2 0x358E JUMP JUMPDEST SWAP1 POP DUP3 DUP2 MSTORE PUSH1 0x20 DUP2 ADD DUP5 DUP5 DUP5 ADD GT ISZERO PUSH2 0x3685 JUMPI PUSH2 0x3684 PUSH2 0x3611 JUMP JUMPDEST JUMPDEST PUSH2 0x3690 DUP5 DUP3 DUP6 PUSH2 0x3647 JUMP JUMPDEST POP SWAP4 SWAP3 POP POP POP JUMP JUMPDEST PUSH1 0x0 DUP3 PUSH1 0x1F DUP4 ADD SLT PUSH2 0x36AD JUMPI PUSH2 0x36AC PUSH2 0x360C JUMP JUMPDEST JUMPDEST DUP2 CALLDATALOAD PUSH2 0x36BD DUP5 DUP3 PUSH1 0x20 DUP7 ADD PUSH2 0x3656 JUMP JUMPDEST SWAP2 POP POP SWAP3 SWAP2 POP POP JUMP JUMPDEST PUSH1 0x0 DUP2 SWAP1 POP SWAP2 SWAP1 POP JUMP JUMPDEST PUSH2 0x36D9 DUP2 PUSH2 0x36C6 JUMP JUMPDEST DUP2 EQ PUSH2 0x36E4 JUMPI PUSH1 0x0 DUP1 REVERT JUMPDEST POP JUMP JUMPDEST PUSH1 0x0 DUP2 CALLDATALOAD SWAP1 POP PUSH2 0x36F6 DUP2 PUSH2 0x36D0 JUMP JUMPDEST SWAP3 SWAP2 POP POP JUMP JUMPDEST PUSH1 0x0 PUSH1 0xA0 DUP3 DUP5 SUB SLT ISZERO PUSH2 0x3712 JUMPI PUSH2 0x3711 PUSH2 0x3518 JUMP JUMPDEST JUMPDEST PUSH2 0x371C PUSH1 0xA0 PUSH2 0x358E JUMP JUMPDEST SWAP1 POP PUSH1 0x0 PUSH2 0x372C DUP5 DUP3 DUP6 ADD PUSH2 0x35F7 JUMP JUMPDEST PUSH1 0x0 DUP4 ADD MSTORE POP PUSH1 0x20 DUP3 ADD CALLDATALOAD PUSH8 0xFFFFFFFFFFFFFFFF DUP2 GT ISZERO PUSH2 0x3750 JUMPI PUSH2 0x374F PUSH2 0x35A9 JUMP JUMPDEST JUMPDEST PUSH2 0x375C DUP5 DUP3 DUP6 ADD PUSH2 0x3698 JUMP JUMPDEST PUSH1 0x20 DUP4 ADD MSTORE POP PUSH1 0x40 PUSH2 0x3770 DUP5 DUP3 DUP6 ADD PUSH2 0x36E7 JUMP JUMPDEST PUSH1 0x40 DUP4 ADD MSTORE POP PUSH1 0x60 DUP3 ADD CALLDATALOAD PUSH8 0xFFFFFFFFFFFFFFFF DUP2 GT ISZERO PUSH2 0x3794 JUMPI PUSH2 0x3793 PUSH2 0x35A9 JUMP JUMPDEST JUMPDEST PUSH2 0x37A0 DUP5 DUP3 DUP6 ADD PUSH2 0x3698 JUMP JUMPDEST PUSH1 0x60 DUP4 ADD MSTORE POP PUSH1 0x80 DUP3 ADD CALLDATALOAD PUSH8 0xFFFFFFFFFFFFFFFF DUP2 GT ISZERO PUSH2 0x37C4 JUMPI PUSH2 0x37C3 PUSH2 0x35A9 JUMP JUMPDEST JUMPDEST PUSH2 0x37D0 DUP5 DUP3 DUP6 ADD PUSH2 0x3698 JUMP JUMPDEST PUSH1 0x80 DUP4 ADD MSTORE POP SWAP3 SWAP2 POP POP JUMP JUMPDEST PUSH1 0x0 DUP2 ISZERO ISZERO SWAP1 POP SWAP2 SWAP1 POP JUMP JUMPDEST PUSH2 0x37F1 DUP2 PUSH2 0x37DC JUMP JUMPDEST DUP2 EQ PUSH2 0x37FC JUMPI PUSH1 0x0 DUP1 REVERT JUMPDEST POP JUMP JUMPDEST PUSH1 0x0 DUP2 CALLDATALOAD SWAP1 POP PUSH2 0x380E DUP2 PUSH2 0x37E8 JUMP JUMPDEST SWAP3 SWAP2 POP POP JUMP JUMPDEST PUSH1 0x0 PUSH2 0x1A0 DUP3 DUP5 SUB SLT ISZERO PUSH2 0x382B JUMPI PUSH2 0x382A PUSH2 0x3518 JUMP JUMPDEST JUMPDEST PUSH2 0x3836 PUSH2 0x1A0 PUSH2 0x358E JUMP JUMPDEST SWAP1 POP PUSH1 0x0 PUSH2 0x3846 DUP5 DUP3 DUP6 ADD PUSH2 0x35F7 JUMP JUMPDEST PUSH1 0x0 DUP4 ADD MSTORE POP PUSH1 0x20 DUP3 ADD CALLDATALOAD PUSH8 0xFFFFFFFFFFFFFFFF DUP2 GT ISZERO PUSH2 0x386A JUMPI PUSH2 0x3869 PUSH2 0x35A9 JUMP JUMPDEST JUMPDEST PUSH2 0x3876 DUP5 DUP3 DUP6 ADD PUSH2 0x3698 JUMP JUMPDEST PUSH1 0x20 DUP4 ADD MSTORE POP PUSH1 0x40 DUP3 ADD CALLDATALOAD PUSH8 0xFFFFFFFFFFFFFFFF DUP2 GT ISZERO PUSH2 0x389A JUMPI PUSH2 0x3899 PUSH2 0x35A9 JUMP JUMPDEST JUMPDEST PUSH2 0x38A6 DUP5 DUP3 DUP6 ADD PUSH2 0x3698 JUMP JUMPDEST PUSH1 0x40 DUP4 ADD MSTORE POP PUSH1 0x60 DUP3 ADD CALLDATALOAD PUSH8 0xFFFFFFFFFFFFFFFF DUP2 GT ISZERO PUSH2 0x38CA JUMPI PUSH2 0x38C9 PUSH2 0x35A9 JUMP JUMPDEST JUMPDEST PUSH2 0x38D6 DUP5 DUP3 DUP6 ADD PUSH2 0x3698 JUMP JUMPDEST PUSH1 0x60 DUP4 ADD MSTORE POP PUSH1 0x80 DUP3 ADD CALLDATALOAD PUSH8 0xFFFFFFFFFFFFFFFF DUP2 GT ISZERO PUSH2 0x38FA JUMPI PUSH2 0x38F9 PUSH2 0x35A9 JUMP JUMPDEST JUMPDEST PUSH2 0x3906 DUP5 DUP3 DUP6 ADD PUSH2 0x3698 JUMP JUMPDEST PUSH1 0x80 DUP4 ADD MSTORE POP PUSH1 0xA0 DUP3 ADD CALLDATALOAD PUSH8 0xFFFFFFFFFFFFFFFF DUP2 GT ISZERO PUSH2 0x392A JUMPI PUSH2 0x3929 PUSH2 0x35A9 JUMP JUMPDEST JUMPDEST PUSH2 0x3936 DUP5 DUP3 DUP6 ADD PUSH2 0x3698 JUMP JUMPDEST PUSH1 0xA0 DUP4 ADD MSTORE POP PUSH1 0xC0 DUP3 ADD CALLDATALOAD PUSH8 0xFFFFFFFFFFFFFFFF DUP2 GT ISZERO PUSH2 0x395A JUMPI PUSH2 0x3959 PUSH2 0x35A9 JUMP JUMPDEST JUMPDEST PUSH2 0x3966 DUP5 DUP3 DUP6 ADD PUSH2 0x3698 JUMP JUMPDEST PUSH1 0xC0 DUP4 ADD MSTORE POP PUSH1 0xE0 DUP3 ADD CALLDATALOAD PUSH8 0xFFFFFFFFFFFFFFFF DUP2 GT ISZERO PUSH2 0x398A JUMPI PUSH2 0x3989 PUSH2 0x35A9 JUMP JUMPDEST JUMPDEST PUSH2 0x3996 DUP5 DUP3 DUP6 ADD PUSH2 0x3698 JUMP JUMPDEST PUSH1 0xE0 DUP4 ADD MSTORE POP PUSH2 0x100 PUSH2 0x39AB DUP5 DUP3 DUP6 ADD PUSH2 0x37FF JUMP JUMPDEST PUSH2 0x100 DUP4 ADD MSTORE POP PUSH2 0x120 DUP3 ADD CALLDATALOAD PUSH8 0xFFFFFFFFFFFFFFFF DUP2 GT ISZERO PUSH2 0x39D1 JUMPI PUSH2 0x39D0 PUSH2 0x35A9 JUMP JUMPDEST JUMPDEST PUSH2 0x39DD DUP5 DUP3 DUP6 ADD PUSH2 0x3698 JUMP JUMPDEST PUSH2 0x120 DUP4 ADD MSTORE POP PUSH2 0x140 DUP3 ADD CALLDATALOAD PUSH8 0xFFFFFFFFFFFFFFFF DUP2 GT ISZERO PUSH2 0x3A03 JUMPI PUSH2 0x3A02 PUSH2 0x35A9 JUMP JUMPDEST JUMPDEST PUSH2 0x3A0F DUP5 DUP3 DUP6 ADD PUSH2 0x3698 JUMP JUMPDEST PUSH2 0x140 DUP4 ADD MSTORE POP PUSH2 0x160 PUSH2 0x3A25 DUP5 DUP3 DUP6 ADD PUSH2 0x35F7 JUMP JUMPDEST PUSH2 0x160 DUP4 ADD MSTORE POP PUSH2 0x180 DUP3 ADD CALLDATALOAD PUSH8 0xFFFFFFFFFFFFFFFF DUP2 GT ISZERO PUSH2 0x3A4B JUMPI PUSH2 0x3A4A PUSH2 0x35A9 JUMP JUMPDEST JUMPDEST PUSH2 0x3A57 DUP5 DUP3 DUP6 ADD PUSH2 0x3698 JUMP JUMPDEST PUSH2 0x180 DUP4 ADD MSTORE POP SWAP3 SWAP2 POP POP JUMP JUMPDEST PUSH1 0x0 DUP1 PUSH1 0x40 DUP4 DUP6 SUB SLT ISZERO PUSH2 0x3A7B JUMPI PUSH2 0x3A7A PUSH2 0x350E JUMP JUMPDEST JUMPDEST PUSH1 0x0 DUP4 ADD CALLDATALOAD PUSH8 0xFFFFFFFFFFFFFFFF DUP2 GT ISZERO PUSH2 0x3A99 JUMPI PUSH2 0x3A98 PUSH2 0x3513 JUMP JUMPDEST JUMPDEST PUSH2 0x3AA5 DUP6 DUP3 DUP7 ADD PUSH2 0x36FC JUMP JUMPDEST SWAP3 POP POP PUSH1 0x20 DUP4 ADD CALLDATALOAD PUSH8 0xFFFFFFFFFFFFFFFF DUP2 GT ISZERO PUSH2 0x3AC6 JUMPI PUSH2 0x3AC5 PUSH2 0x3513 JUMP JUMPDEST JUMPDEST PUSH2 0x3AD2 DUP6 DUP3 DUP7 ADD PUSH2 0x3814 JUMP JUMPDEST SWAP2 POP POP SWAP3 POP SWAP3 SWAP1 POP JUMP JUMPDEST PUSH1 0x0 PUSH1 0x20 DUP3 DUP5 SUB SLT ISZERO PUSH2 0x3AF2 JUMPI PUSH2 0x3AF1 PUSH2 0x350E JUMP JUMPDEST JUMPDEST PUSH1 0x0 PUSH2 0x3B00 DUP5 DUP3 DUP6 ADD PUSH2 0x35F7 JUMP JUMPDEST SWAP2 POP POP SWAP3 SWAP2 POP POP JUMP JUMPDEST PUSH1 0x0 PUSH2 0x140 DUP3 DUP5 SUB SLT ISZERO PUSH2 0x3B20 JUMPI PUSH2 0x3B1F PUSH2 0x3518 JUMP JUMPDEST JUMPDEST PUSH2 0x3B2B PUSH2 0x140 PUSH2 0x358E JUMP JUMPDEST SWAP1 POP PUSH1 0x0 PUSH2 0x3B3B DUP5 DUP3 DUP6 ADD PUSH2 0x35F7 JUMP JUMPDEST PUSH1 0x0 DUP4 ADD MSTORE POP PUSH1 0x20 DUP3 ADD CALLDATALOAD PUSH8 0xFFFFFFFFFFFFFFFF DUP2 GT ISZERO PUSH2 0x3B5F JUMPI PUSH2 0x3B5E PUSH2 0x35A9 JUMP JUMPDEST JUMPDEST PUSH2 0x3B6B DUP5 DUP3 DUP6 ADD PUSH2 0x3698 JUMP JUMPDEST PUSH1 0x20 DUP4 ADD MSTORE POP PUSH1 0x40 DUP3 ADD CALLDATALOAD PUSH8 0xFFFFFFFFFFFFFFFF DUP2 GT ISZERO PUSH2 0x3B8F JUMPI PUSH2 0x3B8E PUSH2 0x35A9 JUMP JUMPDEST JUMPDEST PUSH2 0x3B9B DUP5 DUP3 DUP6 ADD PUSH2 0x3698 JUMP JUMPDEST PUSH1 0x40 DUP4 ADD MSTORE POP PUSH1 0x60 DUP3 ADD CALLDATALOAD PUSH8 0xFFFFFFFFFFFFFFFF DUP2 GT ISZERO PUSH2 0x3BBF JUMPI PUSH2 0x3BBE PUSH2 0x35A9 JUMP JUMPDEST JUMPDEST PUSH2 0x3BCB DUP5 DUP3 DUP6 ADD PUSH2 0x3698 JUMP JUMPDEST PUSH1 0x60 DUP4 ADD MSTORE POP PUSH1 0x80 DUP3 ADD CALLDATALOAD PUSH8 0xFFFFFFFFFFFFFFFF DUP2 GT ISZERO PUSH2 0x3BEF JUMPI PUSH2 0x3BEE PUSH2 0x35A9 JUMP JUMPDEST JUMPDEST PUSH2 0x3BFB DUP5 DUP3 DUP6 ADD PUSH2 0x3698 JUMP JUMPDEST PUSH1 0x80 DUP4 ADD MSTORE POP PUSH1 0xA0 DUP3 ADD CALLDATALOAD PUSH8 0xFFFFFFFFFFFFFFFF DUP2 GT ISZERO PUSH2 0x3C1F JUMPI PUSH2 0x3C1E PUSH2 0x35A9 JUMP JUMPDEST JUMPDEST PUSH2 0x3C2B DUP5 DUP3 DUP6 ADD PUSH2 0x3698 JUMP JUMPDEST PUSH1 0xA0 DUP4 ADD MSTORE POP PUSH1 0xC0 DUP3 ADD CALLDATALOAD PUSH8 0xFFFFFFFFFFFFFFFF DUP2 GT ISZERO PUSH2 0x3C4F JUMPI PUSH2 0x3C4E PUSH2 0x35A9 JUMP JUMPDEST JUMPDEST PUSH2 0x3C5B DUP5 DUP3 DUP6 ADD PUSH2 0x3698 JUMP JUMPDEST PUSH1 0xC0 DUP4 ADD MSTORE POP PUSH1 0xE0 DUP3 ADD CALLDATALOAD PUSH8 0xFFFFFFFFFFFFFFFF DUP2 GT ISZERO PUSH2 0x3C7F JUMPI PUSH2 0x3C7E PUSH2 0x35A9 JUMP JUMPDEST JUMPDEST PUSH2 0x3C8B DUP5 DUP3 DUP6 ADD PUSH2 0x3698 JUMP JUMPDEST PUSH1 0xE0 DUP4 ADD MSTORE POP PUSH2 0x100 DUP3 ADD CALLDATALOAD PUSH8 0xFFFFFFFFFFFFFFFF DUP2 GT ISZERO PUSH2 0x3CB0 JUMPI PUSH2 0x3CAF PUSH2 0x35A9 JUMP JUMPDEST JUMPDEST PUSH2 0x3CBC DUP5 DUP3 DUP6 ADD PUSH2 0x3698 JUMP JUMPDEST PUSH2 0x100 DUP4 ADD MSTORE POP PUSH2 0x120 PUSH2 0x3CD2 DUP5 DUP3 DUP6 ADD PUSH2 0x37FF JUMP JUMPDEST PUSH2 0x120 DUP4 ADD MSTORE POP SWAP3 SWAP2 POP POP JUMP JUMPDEST PUSH1 0x0 DUP1 PUSH1 0x40 DUP4 DUP6 SUB SLT ISZERO PUSH2 0x3CF6 JUMPI PUSH2 0x3CF5 PUSH2 0x350E JUMP JUMPDEST JUMPDEST PUSH1 0x0 DUP4 ADD CALLDATALOAD PUSH8 0xFFFFFFFFFFFFFFFF DUP2 GT ISZERO PUSH2 0x3D14 JUMPI PUSH2 0x3D13 PUSH2 0x3513 JUMP JUMPDEST JUMPDEST PUSH2 0x3D20 DUP6 DUP3 DUP7 ADD PUSH2 0x36FC JUMP JUMPDEST SWAP3 POP POP PUSH1 0x20 DUP4 ADD CALLDATALOAD PUSH8 0xFFFFFFFFFFFFFFFF DUP2 GT ISZERO PUSH2 0x3D41 JUMPI PUSH2 0x3D40 PUSH2 0x3513 JUMP JUMPDEST JUMPDEST PUSH2 0x3D4D DUP6 DUP3 DUP7 ADD PUSH2 0x3B09 JUMP JUMPDEST SWAP2 POP POP SWAP3 POP SWAP3 SWAP1 POP JUMP JUMPDEST PUSH1 0x0 PUSH1 0xA0 DUP3 DUP5 SUB SLT ISZERO PUSH2 0x3D6D JUMPI PUSH2 0x3D6C PUSH2 0x3518 JUMP JUMPDEST JUMPDEST PUSH2 0x3D77 PUSH1 0xA0 PUSH2 0x358E JUMP JUMPDEST SWAP1 POP PUSH1 0x0 PUSH2 0x3D87 DUP5 DUP3 DUP6 ADD PUSH2 0x35F7 JUMP JUMPDEST PUSH1 0x0 DUP4 ADD MSTORE POP PUSH1 0x20 DUP3 ADD CALLDATALOAD PUSH8 0xFFFFFFFFFFFFFFFF DUP2 GT ISZERO PUSH2 0x3DAB JUMPI PUSH2 0x3DAA PUSH2 0x35A9 JUMP JUMPDEST JUMPDEST PUSH2 0x3DB7 DUP5 DUP3 DUP6 ADD PUSH2 0x3698 JUMP JUMPDEST PUSH1 0x20 DUP4 ADD MSTORE POP PUSH1 0x40 DUP3 ADD CALLDATALOAD PUSH8 0xFFFFFFFFFFFFFFFF DUP2 GT ISZERO PUSH2 0x3DDB JUMPI PUSH2 0x3DDA PUSH2 0x35A9 JUMP JUMPDEST JUMPDEST PUSH2 0x3DE7 DUP5 DUP3 DUP6 ADD PUSH2 0x3698 JUMP JUMPDEST PUSH1 0x40 DUP4 ADD MSTORE POP PUSH1 0x60 PUSH2 0x3DFB DUP5 DUP3 DUP6 ADD PUSH2 0x36E7 JUMP JUMPDEST PUSH1 0x60 DUP4 ADD MSTORE POP PUSH1 0x80 DUP3 ADD CALLDATALOAD PUSH8 0xFFFFFFFFFFFFFFFF DUP2 GT ISZERO PUSH2 0x3E1F JUMPI PUSH2 0x3E1E PUSH2 0x35A9 JUMP JUMPDEST JUMPDEST PUSH2 0x3E2B DUP5 DUP3 DUP6 ADD PUSH2 0x3698 JUMP JUMPDEST PUSH1 0x80 DUP4 ADD MSTORE POP SWAP3 SWAP2 POP POP JUMP JUMPDEST PUSH1 0x0 PUSH2 0x1C0 DUP3 DUP5 SUB SLT ISZERO PUSH2 0x3E4E JUMPI PUSH2 0x3E4D PUSH2 0x3518 JUMP JUMPDEST JUMPDEST PUSH2 0x3E59 PUSH2 0x1C0 PUSH2 0x358E JUMP JUMPDEST SWAP1 POP PUSH1 0x0 PUSH2 0x3E69 DUP5 DUP3 DUP6 ADD PUSH2 0x35F7 JUMP JUMPDEST PUSH1 0x0 DUP4 ADD MSTORE POP PUSH1 0x20 DUP3 ADD CALLDATALOAD PUSH8 0xFFFFFFFFFFFFFFFF DUP2 GT ISZERO PUSH2 0x3E8D JUMPI PUSH2 0x3E8C PUSH2 0x35A9 JUMP JUMPDEST JUMPDEST PUSH2 0x3E99 DUP5 DUP3 DUP6 ADD PUSH2 0x3698 JUMP JUMPDEST PUSH1 0x20 DUP4 ADD MSTORE POP PUSH1 0x40 DUP3 ADD CALLDATALOAD PUSH8 0xFFFFFFFFFFFFFFFF DUP2 GT ISZERO PUSH2 0x3EBD JUMPI PUSH2 0x3EBC PUSH2 0x35A9 JUMP JUMPDEST JUMPDEST PUSH2 0x3EC9 DUP5 DUP3 DUP6 ADD PUSH2 0x3698 JUMP JUMPDEST PUSH1 0x40 DUP4 ADD MSTORE POP PUSH1 0x60 DUP3 ADD CALLDATALOAD PUSH8 0xFFFFFFFFFFFFFFFF DUP2 GT ISZERO PUSH2 0x3EED JUMPI PUSH2 0x3EEC PUSH2 0x35A9 JUMP JUMPDEST JUMPDEST PUSH2 0x3EF9 DUP5 DUP3 DUP6 ADD PUSH2 0x3698 JUMP JUMPDEST PUSH1 0x60 DUP4 ADD MSTORE POP PUSH1 0x80 DUP3 ADD CALLDATALOAD PUSH8 0xFFFFFFFFFFFFFFFF DUP2 GT ISZERO PUSH2 0x3F1D JUMPI PUSH2 0x3F1C PUSH2 0x35A9 JUMP JUMPDEST JUMPDEST PUSH2 0x3F29 DUP5 DUP3 DUP6 ADD PUSH2 0x3698 JUMP JUMPDEST PUSH1 0x80 DUP4 ADD MSTORE POP PUSH1 0xA0 DUP3 ADD CALLDATALOAD PUSH8 0xFFFFFFFFFFFFFFFF DUP2 GT ISZERO PUSH2 0x3F4D JUMPI PUSH2 0x3F4C PUSH2 0x35A9 JUMP JUMPDEST JUMPDEST PUSH2 0x3F59 DUP5 DUP3 DUP6 ADD PUSH2 0x3698 JUMP JUMPDEST PUSH1 0xA0 DUP4 ADD MSTORE POP PUSH1 0xC0 DUP3 ADD CALLDATALOAD PUSH8 0xFFFFFFFFFFFFFFFF DUP2 GT ISZERO PUSH2 0x3F7D JUMPI PUSH2 0x3F7C PUSH2 0x35A9 JUMP JUMPDEST JUMPDEST PUSH2 0x3F89 DUP5 DUP3 DUP6 ADD PUSH2 0x3698 JUMP JUMPDEST PUSH1 0xC0 DUP4 ADD MSTORE POP PUSH1 0xE0 DUP3 ADD CALLDATALOAD PUSH8 0xFFFFFFFFFFFFFFFF DUP2 GT ISZERO PUSH2 0x3FAD JUMPI PUSH2 0x3FAC PUSH2 0x35A9 JUMP JUMPDEST JUMPDEST PUSH2 0x3FB9 DUP5 DUP3 DUP6 ADD PUSH2 0x3698 JUMP JUMPDEST PUSH1 0xE0 DUP4 ADD MSTORE POP PUSH2 0x100 DUP3 ADD CALLDATALOAD PUSH8 0xFFFFFFFFFFFFFFFF DUP2 GT ISZERO PUSH2 0x3FDE JUMPI PUSH2 0x3FDD PUSH2 0x35A9 JUMP JUMPDEST JUMPDEST PUSH2 0x3FEA DUP5 DUP3 DUP6 ADD PUSH2 0x3698 JUMP JUMPDEST PUSH2 0x100 DUP4 ADD MSTORE POP PUSH2 0x120 DUP3 ADD CALLDATALOAD PUSH8 0xFFFFFFFFFFFFFFFF DUP2 GT ISZERO PUSH2 0x4010 JUMPI PUSH2 0x400F PUSH2 0x35A9 JUMP JUMPDEST JUMPDEST PUSH2 0x401C DUP5 DUP3 DUP6 ADD PUSH2 0x3698 JUMP JUMPDEST PUSH2 0x120 DUP4 ADD MSTORE POP PUSH2 0x140 DUP3 ADD CALLDATALOAD PUSH8 0xFFFFFFFFFFFFFFFF DUP2 GT ISZERO PUSH2 0x4042 JUMPI PUSH2 0x4041 PUSH2 0x35A9 JUMP JUMPDEST JUMPDEST PUSH2 0x404E DUP5 DUP3 DUP6 ADD PUSH2 0x3698 JUMP JUMPDEST PUSH2 0x140 DUP4 ADD MSTORE POP PUSH2 0x160 PUSH2 0x4064 DUP5 DUP3 DUP6 ADD PUSH2 0x35F7 JUMP JUMPDEST PUSH2 0x160 DUP4 ADD MSTORE POP PUSH2 0x180 DUP3 ADD CALLDATALOAD PUSH8 0xFFFFFFFFFFFFFFFF DUP2 GT ISZERO PUSH2 0x408A JUMPI PUSH2 0x4089 PUSH2 0x35A9 JUMP JUMPDEST JUMPDEST PUSH2 0x4096 DUP5 DUP3 DUP6 ADD PUSH2 0x3698 JUMP JUMPDEST PUSH2 0x180 DUP4 ADD MSTORE POP PUSH2 0x1A0 DUP3 ADD CALLDATALOAD PUSH8 0xFFFFFFFFFFFFFFFF DUP2 GT ISZERO PUSH2 0x40BC JUMPI PUSH2 0x40BB PUSH2 0x35A9 JUMP JUMPDEST JUMPDEST PUSH2 0x40C8 DUP5 DUP3 DUP6 ADD PUSH2 0x3698 JUMP JUMPDEST PUSH2 0x1A0 DUP4 ADD MSTORE POP SWAP3 SWAP2 POP POP JUMP JUMPDEST PUSH1 0x0 DUP1 PUSH1 0x40 DUP4 DUP6 SUB SLT ISZERO PUSH2 0x40EC JUMPI PUSH2 0x40EB PUSH2 0x350E JUMP JUMPDEST JUMPDEST PUSH1 0x0 DUP4 ADD CALLDATALOAD PUSH8 0xFFFFFFFFFFFFFFFF DUP2 GT ISZERO PUSH2 0x410A JUMPI PUSH2 0x4109 PUSH2 0x3513 JUMP JUMPDEST JUMPDEST PUSH2 0x4116 DUP6 DUP3 DUP7 ADD PUSH2 0x3D57 JUMP JUMPDEST SWAP3 POP POP PUSH1 0x20 DUP4 ADD CALLDATALOAD PUSH8 0xFFFFFFFFFFFFFFFF DUP2 GT ISZERO PUSH2 0x4137 JUMPI PUSH2 0x4136 PUSH2 0x3513 JUMP JUMPDEST JUMPDEST PUSH2 0x4143 DUP6 DUP3 DUP7 ADD PUSH2 0x3E37 JUMP JUMPDEST SWAP2 POP POP SWAP3 POP SWAP3 SWAP1 POP JUMP JUMPDEST PUSH2 0x4156 DUP2 PUSH2 0x35CE JUMP JUMPDEST DUP3 MSTORE POP POP JUMP JUMPDEST PUSH1 0x0 DUP2 MLOAD SWAP1 POP SWAP2 SWAP1 POP JUMP JUMPDEST PUSH1 0x0 DUP3 DUP3 MSTORE PUSH1 0x20 DUP3 ADD SWAP1 POP SWAP3 SWAP2 POP POP JUMP JUMPDEST PUSH1 0x0 JUMPDEST DUP4 DUP2 LT ISZERO PUSH2 0x4196 JUMPI DUP1 DUP3 ADD MLOAD DUP2 DUP5 ADD MSTORE PUSH1 0x20 DUP2 ADD SWAP1 POP PUSH2 0x417B JUMP JUMPDEST PUSH1 0x0 DUP5 DUP5 ADD MSTORE POP POP POP POP JUMP JUMPDEST PUSH1 0x0 PUSH2 0x41AD DUP3 PUSH2 0x415C JUMP JUMPDEST PUSH2 0x41B7 DUP2 DUP6 PUSH2 0x4167 JUMP JUMPDEST SWAP4 POP PUSH2 0x41C7 DUP2 DUP6 PUSH1 0x20 DUP7 ADD PUSH2 0x4178 JUMP JUMPDEST PUSH2 0x41D0 DUP2 PUSH2 0x351D JUMP JUMPDEST DUP5 ADD SWAP2 POP POP SWAP3 SWAP2 POP POP JUMP JUMPDEST PUSH2 0x41E4 DUP2 PUSH2 0x36C6 JUMP JUMPDEST DUP3 MSTORE POP POP JUMP JUMPDEST PUSH1 0x0 PUSH1 0xA0 DUP4 ADD PUSH1 0x0 DUP4 ADD MLOAD PUSH2 0x4202 PUSH1 0x0 DUP7 ADD DUP3 PUSH2 0x414D JUMP JUMPDEST POP PUSH1 0x20 DUP4 ADD MLOAD DUP5 DUP3 SUB PUSH1 0x20 DUP7 ADD MSTORE PUSH2 0x421A DUP3 DUP3 PUSH2 0x41A2 JUMP JUMPDEST SWAP2 POP POP PUSH1 0x40 DUP4 ADD MLOAD PUSH2 0x422F PUSH1 0x40 DUP7 ADD DUP3 PUSH2 0x41DB JUMP JUMPDEST POP PUSH1 0x60 DUP4 ADD MLOAD DUP5 DUP3 SUB PUSH1 0x60 DUP7 ADD MSTORE PUSH2 0x4247 DUP3 DUP3 PUSH2 0x41A2 JUMP JUMPDEST SWAP2 POP POP PUSH1 0x80 DUP4 ADD MLOAD DUP5 DUP3 SUB PUSH1 0x80 DUP7 ADD MSTORE PUSH2 0x4261 DUP3 DUP3 PUSH2 0x41A2 JUMP JUMPDEST SWAP2 POP POP DUP1 SWAP2 POP POP SWAP3 SWAP2 POP POP JUMP JUMPDEST PUSH1 0x0 DUP2 MLOAD SWAP1 POP SWAP2 SWAP1 POP JUMP JUMPDEST PUSH1 0x0 DUP3 DUP3 MSTORE PUSH1 0x20 DUP3 ADD SWAP1 POP SWAP3 SWAP2 POP POP JUMP JUMPDEST PUSH1 0x0 DUP2 SWAP1 POP PUSH1 0x20 DUP3 ADD SWAP1 POP SWAP2 SWAP1 POP JUMP JUMPDEST PUSH2 0x42A3 DUP2 PUSH2 0x37DC JUMP JUMPDEST DUP3 MSTORE POP POP JUMP JUMPDEST PUSH1 0x0 PUSH2 0x140 DUP4 ADD PUSH1 0x0 DUP4 ADD MLOAD PUSH2 0x42C2 PUSH1 0x0 DUP7 ADD DUP3 PUSH2 0x414D JUMP JUMPDEST POP PUSH1 0x20 DUP4 ADD MLOAD DUP5 DUP3 SUB PUSH1 0x20 DUP7 ADD MSTORE PUSH2 0x42DA DUP3 DUP3 PUSH2 0x41A2 JUMP JUMPDEST SWAP2 POP POP PUSH1 0x40 DUP4 ADD MLOAD DUP5 DUP3 SUB PUSH1 0x40 DUP7 ADD MSTORE PUSH2 0x42F4 DUP3 DUP3 PUSH2 0x41A2 JUMP JUMPDEST SWAP2 POP POP PUSH1 0x60 DUP4 ADD MLOAD DUP5 DUP3 SUB PUSH1 0x60 DUP7 ADD MSTORE PUSH2 0x430E DUP3 DUP3 PUSH2 0x41A2 JUMP JUMPDEST SWAP2 POP POP PUSH1 0x80 DUP4 ADD MLOAD DUP5 DUP3 SUB PUSH1 0x80 DUP7 ADD MSTORE PUSH2 0x4328 DUP3 DUP3 PUSH2 0x41A2 JUMP JUMPDEST SWAP2 POP POP PUSH1 0xA0 DUP4 ADD MLOAD DUP5 DUP3 SUB PUSH1 0xA0 DUP7 ADD MSTORE PUSH2 0x4342 DUP3 DUP3 PUSH2 0x41A2 JUMP JUMPDEST SWAP2 POP POP PUSH1 0xC0 DUP4 ADD MLOAD DUP5 DUP3 SUB PUSH1 0xC0 DUP7 ADD MSTORE PUSH2 0x435C DUP3 DUP3 PUSH2 0x41A2 JUMP JUMPDEST SWAP2 POP POP PUSH1 0xE0 DUP4 ADD MLOAD DUP5 DUP3 SUB PUSH1 0xE0 DUP7 ADD MSTORE PUSH2 0x4376 DUP3 DUP3 PUSH2 0x41A2 JUMP JUMPDEST SWAP2 POP POP PUSH2 0x100 DUP4 ADD MLOAD DUP5 DUP3 SUB PUSH2 0x100 DUP7 ADD MSTORE PUSH2 0x4392 DUP3 DUP3 PUSH2 0x41A2 JUMP JUMPDEST SWAP2 POP POP PUSH2 0x120 DUP4 ADD MLOAD PUSH2 0x43A9 PUSH2 0x120 DUP7 ADD DUP3 PUSH2 0x429A JUMP JUMPDEST POP DUP1 SWAP2 POP POP SWAP3 SWAP2 POP POP JUMP JUMPDEST PUSH1 0x0 PUSH2 0x43C0 DUP4 DUP4 PUSH2 0x42A9 JUMP JUMPDEST SWAP1 POP SWAP3 SWAP2 POP POP JUMP JUMPDEST PUSH1 0x0 PUSH1 0x20 DUP3 ADD SWAP1 POP SWAP2 SWAP1 POP JUMP JUMPDEST PUSH1 0x0 PUSH2 0x43E0 DUP3 PUSH2 0x426E JUMP JUMPDEST PUSH2 0x43EA DUP2 DUP6 PUSH2 0x4279 JUMP JUMPDEST SWAP4 POP DUP4 PUSH1 0x20 DUP3 MUL DUP6 ADD PUSH2 0x43FC DUP6 PUSH2 0x428A JUMP JUMPDEST DUP1 PUSH1 0x0 JUMPDEST DUP6 DUP2 LT ISZERO PUSH2 0x4438 JUMPI DUP5 DUP5 SUB DUP10 MSTORE DUP2 MLOAD PUSH2 0x4419 DUP6 DUP3 PUSH2 0x43B4 JUMP JUMPDEST SWAP5 POP PUSH2 0x4424 DUP4 PUSH2 0x43C8 JUMP JUMPDEST SWAP3 POP PUSH1 0x20 DUP11 ADD SWAP10 POP POP PUSH1 0x1 DUP2 ADD SWAP1 POP PUSH2 0x4400 JUMP JUMPDEST POP DUP3 SWAP8 POP DUP8 SWAP6 POP POP POP POP POP POP SWAP3 SWAP2 POP POP JUMP JUMPDEST PUSH1 0x0 PUSH1 0x40 DUP3 ADD SWAP1 POP DUP2 DUP2 SUB PUSH1 0x0 DUP4 ADD MSTORE PUSH2 0x4464 DUP2 DUP6 PUSH2 0x41EA JUMP JUMPDEST SWAP1 POP DUP2 DUP2 SUB PUSH1 0x20 DUP4 ADD MSTORE PUSH2 0x4478 DUP2 DUP5 PUSH2 0x43D5 JUMP JUMPDEST SWAP1 POP SWAP4 SWAP3 POP POP POP JUMP JUMPDEST PUSH1 0x0 PUSH1 0xA0 DUP4 ADD PUSH1 0x0 DUP4 ADD MLOAD PUSH2 0x4499 PUSH1 0x0 DUP7 ADD DUP3 PUSH2 0x414D JUMP JUMPDEST POP PUSH1 0x20 DUP4 ADD MLOAD DUP5 DUP3 SUB PUSH1 0x20 DUP7 ADD MSTORE PUSH2 0x44B1 DUP3 DUP3 PUSH2 0x41A2 JUMP JUMPDEST SWAP2 POP POP PUSH1 0x40 DUP4 ADD MLOAD DUP5 DUP3 SUB PUSH1 0x40 DUP7 ADD MSTORE PUSH2 0x44CB DUP3 DUP3 PUSH2 0x41A2 JUMP JUMPDEST SWAP2 POP POP PUSH1 0x60 DUP4 ADD MLOAD PUSH2 0x44E0 PUSH1 0x60 DUP7 ADD DUP3 PUSH2 0x41DB JUMP JUMPDEST POP PUSH1 0x80 DUP4 ADD MLOAD DUP5 DUP3 SUB PUSH1 0x80 DUP7 ADD MSTORE PUSH2 0x44F8 DUP3 DUP3 PUSH2 0x41A2 JUMP JUMPDEST SWAP2 POP POP DUP1 SWAP2 POP POP SWAP3 SWAP2 POP POP JUMP JUMPDEST PUSH1 0x0 DUP2 MLOAD SWAP1 POP SWAP2 SWAP1 POP JUMP JUMPDEST PUSH1 0x0 DUP3 DUP3 MSTORE PUSH1 0x20 DUP3 ADD SWAP1 POP SWAP3 SWAP2 POP POP JUMP JUMPDEST PUSH1 0x0 DUP2 SWAP1 POP PUSH1 0x20 DUP3 ADD SWAP1 POP SWAP2 SWAP1 POP JUMP JUMPDEST PUSH1 0x0 PUSH2 0x1C0 DUP4 ADD PUSH1 0x0 DUP4 ADD MLOAD PUSH2 0x454A PUSH1 0x0 DUP7 ADD DUP3 PUSH2 0x414D JUMP JUMPDEST POP PUSH1 0x20 DUP4 ADD MLOAD DUP5 DUP3 SUB PUSH1 0x20 DUP7 ADD MSTORE PUSH2 0x4562 DUP3 DUP3 PUSH2 0x41A2 JUMP JUMPDEST SWAP2 POP POP PUSH1 0x40 DUP4 ADD MLOAD DUP5 DUP3 SUB PUSH1 0x40 DUP7 ADD MSTORE PUSH2 0x457C DUP3 DUP3 PUSH2 0x41A2 JUMP JUMPDEST SWAP2 POP POP PUSH1 0x60 DUP4 ADD MLOAD DUP5 DUP3 SUB PUSH1 0x60 DUP7 ADD MSTORE PUSH2 0x4596 DUP3 DUP3 PUSH2 0x41A2 JUMP JUMPDEST SWAP2 POP POP PUSH1 0x80 DUP4 ADD MLOAD DUP5 DUP3 SUB PUSH1 0x80 DUP7 ADD MSTORE PUSH2 0x45B0 DUP3 DUP3 PUSH2 0x41A2 JUMP JUMPDEST SWAP2 POP POP PUSH1 0xA0 DUP4 ADD MLOAD DUP5 DUP3 SUB PUSH1 0xA0 DUP7 ADD MSTORE PUSH2 0x45CA DUP3 DUP3 PUSH2 0x41A2 JUMP JUMPDEST SWAP2 POP POP PUSH1 0xC0 DUP4 ADD MLOAD DUP5 DUP3 SUB PUSH1 0xC0 DUP7 ADD MSTORE PUSH2 0x45E4 DUP3 DUP3 PUSH2 0x41A2 JUMP JUMPDEST SWAP2 POP POP PUSH1 0xE0 DUP4 ADD MLOAD DUP5 DUP3 SUB PUSH1 0xE0 DUP7 ADD MSTORE PUSH2 0x45FE DUP3 DUP3 PUSH2 0x41A2 JUMP JUMPDEST SWAP2 POP POP PUSH2 0x100 DUP4 ADD MLOAD DUP5 DUP3 SUB PUSH2 0x100 DUP7 ADD MSTORE PUSH2 0x461A DUP3 DUP3 PUSH2 0x41A2 JUMP JUMPDEST SWAP2 POP POP PUSH2 0x120 DUP4 ADD MLOAD DUP5 DUP3 SUB PUSH2 0x120 DUP7 ADD MSTORE PUSH2 0x4636 DUP3 DUP3 PUSH2 0x41A2 JUMP JUMPDEST SWAP2 POP POP PUSH2 0x140 DUP4 ADD MLOAD DUP5 DUP3 SUB PUSH2 0x140 DUP7 ADD MSTORE PUSH2 0x4652 DUP3 DUP3 PUSH2 0x41A2 JUMP JUMPDEST SWAP2 POP POP PUSH2 0x160 DUP4 ADD MLOAD PUSH2 0x4669 PUSH2 0x160 DUP7 ADD DUP3 PUSH2 0x414D JUMP JUMPDEST POP PUSH2 0x180 DUP4 ADD MLOAD DUP5 DUP3 SUB PUSH2 0x180 DUP7 ADD MSTORE PUSH2 0x4683 DUP3 DUP3 PUSH2 0x41A2 JUMP JUMPDEST SWAP2 POP POP PUSH2 0x1A0 DUP4 ADD MLOAD DUP5 DUP3 SUB PUSH2 0x1A0 DUP7 ADD MSTORE PUSH2 0x469F DUP3 DUP3 PUSH2 0x41A2 JUMP JUMPDEST SWAP2 POP POP DUP1 SWAP2 POP POP SWAP3 SWAP2 POP POP JUMP JUMPDEST PUSH1 0x0 PUSH2 0x46B8 DUP4 DUP4 PUSH2 0x4531 JUMP JUMPDEST SWAP1 POP SWAP3 SWAP2 POP POP JUMP JUMPDEST PUSH1 0x0 PUSH1 0x20 DUP3 ADD SWAP1 POP SWAP2 SWAP1 POP JUMP JUMPDEST PUSH1 0x0 PUSH2 0x46D8 DUP3 PUSH2 0x4505 JUMP JUMPDEST PUSH2 0x46E2 DUP2 DUP6 PUSH2 0x4510 JUMP JUMPDEST SWAP4 POP DUP4 PUSH1 0x20 DUP3 MUL DUP6 ADD PUSH2 0x46F4 DUP6 PUSH2 0x4521 JUMP JUMPDEST DUP1 PUSH1 0x0 JUMPDEST DUP6 DUP2 LT ISZERO PUSH2 0x4730 JUMPI DUP5 DUP5 SUB DUP10 MSTORE DUP2 MLOAD PUSH2 0x4711 DUP6 DUP3 PUSH2 0x46AC JUMP JUMPDEST SWAP5 POP PUSH2 0x471C DUP4 PUSH2 0x46C0 JUMP JUMPDEST SWAP3 POP PUSH1 0x20 DUP11 ADD SWAP10 POP POP PUSH1 0x1 DUP2 ADD SWAP1 POP PUSH2 0x46F8 JUMP JUMPDEST POP DUP3 SWAP8 POP DUP8 SWAP6 POP POP POP POP POP POP SWAP3 SWAP2 POP POP JUMP JUMPDEST PUSH1 0x0 PUSH1 0x40 DUP3 ADD SWAP1 POP DUP2 DUP2 SUB PUSH1 0x0 DUP4 ADD MSTORE PUSH2 0x475C DUP2 DUP6 PUSH2 0x4481 JUMP JUMPDEST SWAP1 POP DUP2 DUP2 SUB PUSH1 0x20 DUP4 ADD MSTORE PUSH2 0x4770 DUP2 DUP5 PUSH2 0x46CD JUMP JUMPDEST SWAP1 POP SWAP4 SWAP3 POP POP POP JUMP JUMPDEST PUSH1 0x0 DUP2 MLOAD SWAP1 POP SWAP2 SWAP1 POP JUMP JUMPDEST PUSH1 0x0 DUP3 DUP3 MSTORE PUSH1 0x20 DUP3 ADD SWAP1 POP SWAP3 SWAP2 POP POP JUMP JUMPDEST PUSH1 0x0 DUP2 SWAP1 POP PUSH1 0x20 DUP3 ADD SWAP1 POP SWAP2 SWAP1 POP JUMP JUMPDEST PUSH1 0x0 PUSH2 0x1A0 DUP4 ADD PUSH1 0x0 DUP4 ADD MLOAD PUSH2 0x47BE PUSH1 0x0 DUP7 ADD DUP3 PUSH2 0x414D JUMP JUMPDEST POP PUSH1 0x20 DUP4 ADD MLOAD DUP5 DUP3 SUB PUSH1 0x20 DUP7 ADD MSTORE PUSH2 0x47D6 DUP3 DUP3 PUSH2 0x41A2 JUMP JUMPDEST SWAP2 POP POP PUSH1 0x40 DUP4 ADD MLOAD DUP5 DUP3 SUB PUSH1 0x40 DUP7 ADD MSTORE PUSH2 0x47F0 DUP3 DUP3 PUSH2 0x41A2 JUMP JUMPDEST SWAP2 POP POP PUSH1 0x60 DUP4 ADD MLOAD DUP5 DUP3 SUB PUSH1 0x60 DUP7 ADD MSTORE PUSH2 0x480A DUP3 DUP3 PUSH2 0x41A2 JUMP JUMPDEST SWAP2 POP POP PUSH1 0x80 DUP4 ADD MLOAD DUP5 DUP3 SUB PUSH1 0x80 DUP7 ADD MSTORE PUSH2 0x4824 DUP3 DUP3 PUSH2 0x41A2 JUMP JUMPDEST SWAP2 POP POP PUSH1 0xA0 DUP4 ADD MLOAD DUP5 DUP3 SUB PUSH1 0xA0 DUP7 ADD MSTORE PUSH2 0x483E DUP3 DUP3 PUSH2 0x41A2 JUMP JUMPDEST SWAP2 POP POP PUSH1 0xC0 DUP4 ADD MLOAD DUP5 DUP3 SUB PUSH1 0xC0 DUP7 ADD MSTORE PUSH2 0x4858 DUP3 DUP3 PUSH2 0x41A2 JUMP JUMPDEST SWAP2 POP POP PUSH1 0xE0 DUP4 ADD MLOAD DUP5 DUP3 SUB PUSH1 0xE0 DUP7 ADD MSTORE PUSH2 0x4872 DUP3 DUP3 PUSH2 0x41A2 JUMP JUMPDEST SWAP2 POP POP PUSH2 0x100 DUP4 ADD MLOAD PUSH2 0x4889 PUSH2 0x100 DUP7 ADD DUP3 PUSH2 0x429A JUMP JUMPDEST POP PUSH2 0x120 DUP4 ADD MLOAD DUP5 DUP3 SUB PUSH2 0x120 DUP7 ADD MSTORE PUSH2 0x48A3 DUP3 DUP3 PUSH2 0x41A2 JUMP JUMPDEST SWAP2 POP POP PUSH2 0x140 DUP4 ADD MLOAD DUP5 DUP3 SUB PUSH2 0x140 DUP7 ADD MSTORE PUSH2 0x48BF DUP3 DUP3 PUSH2 0x41A2 JUMP JUMPDEST SWAP2 POP POP PUSH2 0x160 DUP4 ADD MLOAD PUSH2 0x48D6 PUSH2 0x160 DUP7 ADD DUP3 PUSH2 0x414D JUMP JUMPDEST POP PUSH2 0x180 DUP4 ADD MLOAD DUP5 DUP3 SUB PUSH2 0x180 DUP7 ADD MSTORE PUSH2 0x48F0 DUP3 DUP3 PUSH2 0x41A2 JUMP JUMPDEST SWAP2 POP POP DUP1 SWAP2 POP POP SWAP3 SWAP2 POP POP JUMP JUMPDEST PUSH1 0x0 PUSH2 0x4909 DUP4 DUP4 PUSH2 0x47A5 JUMP JUMPDEST SWAP1 POP SWAP3 SWAP2 POP POP JUMP JUMPDEST PUSH1 0x0 PUSH1 0x20 DUP3 ADD SWAP1 POP SWAP2 SWAP1 POP JUMP JUMPDEST PUSH1 0x0 PUSH2 0x4929 DUP3 PUSH2 0x4779 JUMP JUMPDEST PUSH2 0x4933 DUP2 DUP6 PUSH2 0x4784 JUMP JUMPDEST SWAP4 POP DUP4 PUSH1 0x20 DUP3 MUL DUP6 ADD PUSH2 0x4945 DUP6 PUSH2 0x4795 JUMP JUMPDEST DUP1 PUSH1 0x0 JUMPDEST DUP6 DUP2 LT ISZERO PUSH2 0x4981 JUMPI DUP5 DUP5 SUB DUP10 MSTORE DUP2 MLOAD PUSH2 0x4962 DUP6 DUP3 PUSH2 0x48FD JUMP JUMPDEST SWAP5 POP PUSH2 0x496D DUP4 PUSH2 0x4911 JUMP JUMPDEST SWAP3 POP PUSH1 0x20 DUP11 ADD SWAP10 POP POP PUSH1 0x1 DUP2 ADD SWAP1 POP PUSH2 0x4949 JUMP JUMPDEST POP DUP3 SWAP8 POP DUP8 SWAP6 POP POP POP POP POP POP SWAP3 SWAP2 POP POP JUMP JUMPDEST PUSH1 0x0 PUSH1 0x40 DUP3 ADD SWAP1 POP DUP2 DUP2 SUB PUSH1 0x0 DUP4 ADD MSTORE PUSH2 0x49AD DUP2 DUP6 PUSH2 0x41EA JUMP JUMPDEST SWAP1 POP DUP2 DUP2 SUB PUSH1 0x20 DUP4 ADD MSTORE PUSH2 0x49C1 DUP2 DUP5 PUSH2 0x491E JUMP JUMPDEST SWAP1 POP SWAP4 SWAP3 POP POP POP JUMP JUMPDEST PUSH2 0x49D3 DUP2 PUSH2 0x35CE JUMP JUMPDEST DUP3 MSTORE POP POP JUMP JUMPDEST PUSH1 0x0 PUSH1 0x20 DUP3 ADD SWAP1 POP PUSH2 0x49EE PUSH1 0x0 DUP4 ADD DUP5 PUSH2 0x49CA JUMP JUMPDEST SWAP3 SWAP2 POP POP JUMP JUMPDEST PUSH1 0x0 DUP2 MLOAD SWAP1 POP PUSH2 0x4A03 DUP2 PUSH2 0x37E8 JUMP JUMPDEST SWAP3 SWAP2 POP POP JUMP JUMPDEST PUSH1 0x0 PUSH1 0x20 DUP3 DUP5 SUB SLT ISZERO PUSH2 0x4A1F JUMPI PUSH2 0x4A1E PUSH2 0x350E JUMP JUMPDEST JUMPDEST PUSH1 0x0 PUSH2 0x4A2D DUP5 DUP3 DUP6 ADD PUSH2 0x49F4 JUMP JUMPDEST SWAP2 POP POP SWAP3 SWAP2 POP POP JUMP JUMPDEST PUSH32 0x4E487B7100000000000000000000000000000000000000000000000000000000 PUSH1 0x0 MSTORE PUSH1 0x22 PUSH1 0x4 MSTORE PUSH1 0x24 PUSH1 0x0 REVERT JUMPDEST PUSH1 0x0 PUSH1 0x2 DUP3 DIV SWAP1 POP PUSH1 0x1 DUP3 AND DUP1 PUSH2 0x4A7D JUMPI PUSH1 0x7F DUP3 AND SWAP2 POP JUMPDEST PUSH1 0x20 DUP3 LT DUP2 SUB PUSH2 0x4A90 JUMPI PUSH2 0x4A8F PUSH2 0x4A36 JUMP JUMPDEST JUMPDEST POP SWAP2 SWAP1 POP JUMP JUMPDEST PUSH1 0x0 DUP2 SWAP1 POP DUP2 PUSH1 0x0 MSTORE PUSH1 0x20 PUSH1 0x0 KECCAK256 SWAP1 POP SWAP2 SWAP1 POP JUMP JUMPDEST PUSH1 0x0 PUSH1 0x20 PUSH1 0x1F DUP4 ADD DIV SWAP1 POP SWAP2 SWAP1 POP JUMP JUMPDEST PUSH1 0x0 DUP3 DUP3 SHL SWAP1 POP SWAP3 SWAP2 POP POP JUMP JUMPDEST PUSH1 0x0 PUSH1 0x8 DUP4 MUL PUSH2 0x4AF8 PUSH32 0xFFFFFFFFFFFFFFFFFFFFFFFFFFFFFFFFFFFFFFFFFFFFFFFFFFFFFFFFFFFFFFFF DUP3 PUSH2 0x4ABB JUMP JUMPDEST PUSH2 0x4B02 DUP7 DUP4 PUSH2 0x4ABB JUMP JUMPDEST SWAP6 POP DUP1 NOT DUP5 AND SWAP4 POP DUP1 DUP7 AND DUP5 OR SWAP3 POP POP POP SWAP4 SWAP3 POP POP POP JUMP JUMPDEST PUSH1 0x0 DUP2 SWAP1 POP SWAP2 SWAP1 POP JUMP JUMPDEST PUSH1 0x0 PUSH2 0x4B3F PUSH2 0x4B3A PUSH2 0x4B35 DUP5 PUSH2 0x36C6 JUMP JUMPDEST PUSH2 0x4B1A JUMP JUMPDEST PUSH2 0x36C6 JUMP JUMPDEST SWAP1 POP SWAP2 SWAP1 POP JUMP JUMPDEST PUSH1 0x0 DUP2 SWAP1 POP SWAP2 SWAP1 POP JUMP JUMPDEST PUSH2 0x4B59 DUP4 PUSH2 0x4B24 JUMP JUMPDEST PUSH2 0x4B6D PUSH2 0x4B65 DUP3 PUSH2 0x4B46 JUMP JUMPDEST DUP5 DUP5 SLOAD PUSH2 0x4AC8 JUMP JUMPDEST DUP3 SSTORE POP POP POP POP JUMP JUMPDEST PUSH1 0x0 SWAP1 JUMP JUMPDEST PUSH2 0x4B82 PUSH2 0x4B75 JUMP JUMPDEST PUSH2 0x4B8D DUP2 DUP5 DUP5 PUSH2 0x4B50 JUMP JUMPDEST POP POP POP JUMP JUMPDEST JUMPDEST DUP2 DUP2 LT ISZERO PUSH2 0x4BB1 JUMPI PUSH2 0x4BA6 PUSH1 0x0 DUP3 PUSH2 0x4B7A JUMP JUMPDEST PUSH1 0x1 DUP2 ADD SWAP1 POP PUSH2 0x4B93 JUMP JUMPDEST POP POP JUMP JUMPDEST PUSH1 0x1F DUP3 GT ISZERO PUSH2 0x4BF6 JUMPI PUSH2 0x4BC7 DUP2 PUSH2 0x4A96 JUMP JUMPDEST PUSH2 0x4BD0 DUP5 PUSH2 0x4AAB JUMP JUMPDEST DUP2 ADD PUSH1 0x20 DUP6 LT ISZERO PUSH2 0x4BDF JUMPI DUP2 SWAP1 POP JUMPDEST PUSH2 0x4BF3 PUSH2 0x4BEB DUP6 PUSH2 0x4AAB JUMP JUMPDEST DUP4 ADD DUP3 PUSH2 0x4B92 JUMP JUMPDEST POP POP JUMPDEST POP POP POP JUMP JUMPDEST PUSH1 0x0 DUP3 DUP3 SHR SWAP1 POP SWAP3 SWAP2 POP POP JUMP JUMPDEST PUSH1 0x0 PUSH2 0x4C19 PUSH1 0x0 NOT DUP5 PUSH1 0x8 MUL PUSH2 0x4BFB JUMP JUMPDEST NOT DUP1 DUP4 AND SWAP2 POP POP SWAP3 SWAP2 POP POP JUMP JUMPDEST PUSH1 0x0 PUSH2 0x4C32 DUP4 DUP4 PUSH2 0x4C08 JUMP JUMPDEST SWAP2 POP DUP3 PUSH1 0x2 MUL DUP3 OR SWAP1 POP SWAP3 SWAP2 POP POP JUMP JUMPDEST PUSH2 0x4C4B DUP3 PUSH2 0x415C JUMP JUMPDEST PUSH8 0xFFFFFFFFFFFFFFFF DUP2 GT ISZERO PUSH2 0x4C64 JUMPI PUSH2 0x4C63 PUSH2 0x352E JUMP JUMPDEST JUMPDEST PUSH2 0x4C6E DUP3 SLOAD PUSH2 0x4A65 JUMP JUMPDEST PUSH2 0x4C79 DUP3 DUP3 DUP6 PUSH2 0x4BB5 JUMP JUMPDEST PUSH1 0x0 PUSH1 0x20 SWAP1 POP PUSH1 0x1F DUP4 GT PUSH1 0x1 DUP2 EQ PUSH2 0x4CAC JUMPI PUSH1 0x0 DUP5 ISZERO PUSH2 0x4C9A JUMPI DUP3 DUP8 ADD MLOAD SWAP1 POP JUMPDEST PUSH2 0x4CA4 DUP6 DUP3 PUSH2 0x4C26 JUMP JUMPDEST DUP7 SSTORE POP PUSH2 0x4D0C JUMP JUMPDEST PUSH1 0x1F NOT DUP5 AND PUSH2 0x4CBA DUP7 PUSH2 0x4A96 JUMP JUMPDEST PUSH1 0x0 JUMPDEST DUP3 DUP2 LT ISZERO PUSH2 0x4CE2 JUMPI DUP5 DUP10 ADD MLOAD DUP3 SSTORE PUSH1 0x1 DUP3 ADD SWAP2 POP PUSH1 0x20 DUP6 ADD SWAP5 POP PUSH1 0x20 DUP2 ADD SWAP1 POP PUSH2 0x4CBD JUMP JUMPDEST DUP7 DUP4 LT ISZERO PUSH2 0x4CFF JUMPI DUP5 DUP10 ADD MLOAD PUSH2 0x4CFB PUSH1 0x1F DUP10 AND DUP3 PUSH2 0x4C08 JUMP JUMPDEST DUP4 SSTORE POP JUMPDEST PUSH1 0x1 PUSH1 0x2 DUP9 MUL ADD DUP9 SSTORE POP POP POP JUMPDEST POP POP POP POP POP POP JUMP JUMPDEST PUSH1 0x0 DUP3 DUP3 MSTORE PUSH1 0x20 DUP3 ADD SWAP1 POP SWAP3 SWAP2 POP POP JUMP JUMPDEST PUSH1 0x0 PUSH2 0x4D30 DUP3 PUSH2 0x415C JUMP JUMPDEST PUSH2 0x4D3A DUP2 DUP6 PUSH2 0x4D14 JUMP JUMPDEST SWAP4 POP PUSH2 0x4D4A DUP2 DUP6 PUSH1 0x20 DUP7 ADD PUSH2 0x4178 JUMP JUMPDEST PUSH2 0x4D53 DUP2 PUSH2 0x351D JUMP JUMPDEST DUP5 ADD SWAP2 POP POP SWAP3 SWAP2 POP POP JUMP JUMPDEST PUSH1 0x0 PUSH1 0x80 DUP3 ADD SWAP1 POP PUSH2 0x4D73 PUSH1 0x0 DUP4 ADD DUP8 PUSH2 0x49CA JUMP JUMPDEST DUP2 DUP2 SUB PUSH1 0x20 DUP4 ADD MSTORE PUSH2 0x4D85 DUP2 DUP7 PUSH2 0x4D25 JUMP JUMPDEST SWAP1 POP DUP2 DUP2 SUB PUSH1 0x40 DUP4 ADD MSTORE PUSH2 0x4D99 DUP2 DUP6 PUSH2 0x4D25 JUMP JUMPDEST SWAP1 POP PUSH2 0x4DA8 PUSH1 0x60 DUP4 ADD DUP5 PUSH2 0x49CA JUMP JUMPDEST SWAP6 SWAP5 POP POP POP POP POP JUMP INVALID LOG2 PUSH5 0x6970667358 0x22 SLT KECCAK256 0xE 0x24 0xC7 PUSH32 0x6F944A3E713111DB16875F7B064D93E47C043FA1C4AB08293E6DF90164736F6C PUSH4 0x43000811 STOP CALLER PUSH1 0x80 PUSH1 0x40 MSTORE CALLVALUE DUP1 ISZERO PUSH2 0x10 JUMPI PUSH1 0x0 DUP1 REVERT JUMPDEST POP PUSH1 0x40 MLOAD PUSH2 0x600 CODESIZE SUB DUP1 PUSH2 0x600 DUP4 CODECOPY DUP2 DUP2 ADD PUSH1 0x40 MSTORE DUP2 ADD SWAP1 PUSH2 0x32 SWAP2 SWAP1 PUSH2 0xDB JUMP JUMPDEST DUP1 PUSH1 0x0 DUP1 PUSH2 0x100 EXP DUP2 SLOAD DUP2 PUSH20 0xFFFFFFFFFFFFFFFFFFFFFFFFFFFFFFFFFFFFFFFF MUL NOT AND SWAP1 DUP4 PUSH20 0xFFFFFFFFFFFFFFFFFFFFFFFFFFFFFFFFFFFFFFFF AND MUL OR SWAP1 SSTORE POP POP PUSH2 0x108 JUMP JUMPDEST PUSH1 0x0 DUP1 REVERT JUMPDEST PUSH1 0x0 PUSH20 0xFFFFFFFFFFFFFFFFFFFFFFFFFFFFFFFFFFFFFFFF DUP3 AND SWAP1 POP SWAP2 SWAP1 POP JUMP JUMPDEST PUSH1 0x0 PUSH2 0xA8 DUP3 PUSH2 0x7D JUMP JUMPDEST SWAP1 POP SWAP2 SWAP1 POP JUMP JUMPDEST PUSH2 0xB8 DUP2 PUSH2 0x9D JUMP JUMPDEST DUP2 EQ PUSH2 0xC3 JUMPI PUSH1 0x0 DUP1 REVERT JUMPDEST POP JUMP JUMPDEST PUSH1 0x0 DUP2 MLOAD SWAP1 POP PUSH2 0xD5 DUP2 PUSH2 0xAF JUMP JUMPDEST SWAP3 SWAP2 POP POP JUMP JUMPDEST PUSH1 0x0 PUSH1 0x20 DUP3 DUP5 SUB SLT ISZERO PUSH2 0xF1 JUMPI PUSH2 0xF0 PUSH2 0x78 JUMP JUMPDEST JUMPDEST PUSH1 0x0 PUSH2 0xFF DUP5 DUP3 DUP6 ADD PUSH2 0xC6 JUMP JUMPDEST SWAP2 POP POP SWAP3 SWAP2 POP POP JUMP JUMPDEST PUSH2 0x4E9 DUP1 PUSH2 0x117 PUSH1 0x0 CODECOPY PUSH1 0x0 RETURN INVALID PUSH1 0x80 PUSH1 0x40 MSTORE CALLVALUE DUP1 ISZERO PUSH2 0x10 JUMPI PUSH1 0x0 DUP1 REVERT JUMPDEST POP PUSH1 0x4 CALLDATASIZE LT PUSH2 0x41 JUMPI PUSH1 0x0 CALLDATALOAD PUSH1 0xE0 SHR DUP1 PUSH4 0x18A231A9 EQ PUSH2 0x46 JUMPI DUP1 PUSH4 0x63A9C3D7 EQ PUSH2 0x64 JUMPI DUP1 PUSH4 0x6D263CEB EQ PUSH2 0x94 JUMPI JUMPDEST PUSH1 0x0 DUP1 REVERT JUMPDEST PUSH2 0x4E PUSH2 0xB0 JUMP JUMPDEST PUSH1 0x40 MLOAD PUSH2 0x5B SWAP2 SWAP1 PUSH2 0x3FD JUMP JUMPDEST PUSH1 0x40 MLOAD DUP1 SWAP2 SUB SWAP1 RETURN JUMPDEST PUSH2 0x7E PUSH1 0x4 DUP1 CALLDATASIZE SUB DUP2 ADD SWAP1 PUSH2 0x79 SWAP2 SWAP1 PUSH2 0x450 JUMP JUMPDEST PUSH2 0x196 JUMP JUMPDEST PUSH1 0x40 MLOAD PUSH2 0x8B SWAP2 SWAP1 PUSH2 0x498 JUMP JUMPDEST PUSH1 0x40 MLOAD DUP1 SWAP2 SUB SWAP1 RETURN JUMPDEST PUSH2 0xAE PUSH1 0x4 DUP1 CALLDATASIZE SUB DUP2 ADD SWAP1 PUSH2 0xA9 SWAP2 SWAP1 PUSH2 0x450 JUMP JUMPDEST PUSH2 0x1FD JUMP JUMPDEST STOP JUMPDEST PUSH1 0x60 PUSH1 0x0 DUP1 SLOAD SWAP1 PUSH2 0x100 EXP SWAP1 DIV PUSH20 0xFFFFFFFFFFFFFFFFFFFFFFFFFFFFFFFFFFFFFFFF AND PUSH20 0xFFFFFFFFFFFFFFFFFFFFFFFFFFFFFFFFFFFFFFFF AND CALLER PUSH20 0xFFFFFFFFFFFFFFFFFFFFFFFFFFFFFFFFFFFFFFFF AND EQ PUSH2 0x10A JUMPI PUSH1 0x0 DUP1 REVERT JUMPDEST PUSH1 0x1 DUP1 SLOAD DUP1 PUSH1 0x20 MUL PUSH1 0x20 ADD PUSH1 0x40 MLOAD SWAP1 DUP2 ADD PUSH1 0x40 MSTORE DUP1 SWAP3 SWAP2 SWAP1 DUP2 DUP2 MSTORE PUSH1 0x20 ADD DUP3 DUP1 SLOAD DUP1 ISZERO PUSH2 0x18C JUMPI PUSH1 0x20 MUL DUP3 ADD SWAP2 SWAP1 PUSH1 0x0 MSTORE PUSH1 0x20 PUSH1 0x0 KECCAK256 SWAP1 JUMPDEST DUP2 PUSH1 0x0 SWAP1 SLOAD SWAP1 PUSH2 0x100 EXP SWAP1 DIV PUSH20 0xFFFFFFFFFFFFFFFFFFFFFFFFFFFFFFFFFFFFFFFF AND PUSH20 0xFFFFFFFFFFFFFFFFFFFFFFFFFFFFFFFFFFFFFFFF AND DUP2 MSTORE PUSH1 0x20 ADD SWAP1 PUSH1 0x1 ADD SWAP1 DUP1 DUP4 GT PUSH2 0x142 JUMPI JUMPDEST POP POP POP POP POP SWAP1 POP SWAP1 JUMP JUMPDEST PUSH1 0x0 PUSH1 0x2 PUSH1 0x0 DUP4 PUSH20 0xFFFFFFFFFFFFFFFFFFFFFFFFFFFFFFFFFFFFFFFF AND PUSH20 0xFFFFFFFFFFFFFFFFFFFFFFFFFFFFFFFFFFFFFFFF AND DUP2 MSTORE PUSH1 0x20 ADD SWAP1 DUP2 MSTORE PUSH1 0x20 ADD PUSH1 0x0 KECCAK256 PUSH1 0x0 SWAP1 SLOAD SWAP1 PUSH2 0x100 EXP SWAP1 DIV PUSH1 0xFF AND ISZERO PUSH2 0x1F3 JUMPI PUSH1 0x1 SWAP1 POP PUSH2 0x1F8 JUMP JUMPDEST PUSH1 0x0 SWAP1 POP JUMPDEST SWAP2 SWAP1 POP JUMP JUMPDEST PUSH1 0x2 PUSH1 0x0 DUP3 PUSH20 0xFFFFFFFFFFFFFFFFFFFFFFFFFFFFFFFFFFFFFFFF AND PUSH20 0xFFFFFFFFFFFFFFFFFFFFFFFFFFFFFFFFFFFFFFFF AND DUP2 MSTORE PUSH1 0x20 ADD SWAP1 DUP2 MSTORE PUSH1 0x20 ADD PUSH1 0x0 KECCAK256 PUSH1 0x0 SWAP1 SLOAD SWAP1 PUSH2 0x100 EXP SWAP1 DIV PUSH1 0xFF AND PUSH2 0x30A JUMPI PUSH1 0x1 PUSH1 0x2 PUSH1 0x0 DUP4 PUSH20 0xFFFFFFFFFFFFFFFFFFFFFFFFFFFFFFFFFFFFFFFF AND PUSH20 0xFFFFFFFFFFFFFFFFFFFFFFFFFFFFFFFFFFFFFFFF AND DUP2 MSTORE PUSH1 0x20 ADD SWAP1 DUP2 MSTORE PUSH1 0x20 ADD PUSH1 0x0 KECCAK256 PUSH1 0x0 PUSH2 0x100 EXP DUP2 SLOAD DUP2 PUSH1 0xFF MUL NOT AND SWAP1 DUP4 ISZERO ISZERO MUL OR SWAP1 SSTORE POP PUSH1 0x1 DUP2 SWAP1 DUP1 PUSH1 0x1 DUP2 SLOAD ADD DUP1 DUP3 SSTORE DUP1 SWAP2 POP POP PUSH1 0x1 SWAP1 SUB SWAP1 PUSH1 0x0 MSTORE PUSH1 0x20 PUSH1 0x0 KECCAK256 ADD PUSH1 0x0 SWAP1 SWAP2 SWAP1 SWAP2 SWAP1 SWAP2 PUSH2 0x100 EXP DUP2 SLOAD DUP2 PUSH20 0xFFFFFFFFFFFFFFFFFFFFFFFFFFFFFFFFFFFFFFFF MUL NOT AND SWAP1 DUP4 PUSH20 0xFFFFFFFFFFFFFFFFFFFFFFFFFFFFFFFFFFFFFFFF AND MUL OR SWAP1 SSTORE POP JUMPDEST POP JUMP JUMPDEST PUSH1 0x0 DUP2 MLOAD SWAP1 POP SWAP2 SWAP1 POP JUMP JUMPDEST PUSH1 0x0 DUP3 DUP3 MSTORE PUSH1 0x20 DUP3 ADD SWAP1 POP SWAP3 SWAP2 POP POP JUMP JUMPDEST PUSH1 0x0 DUP2 SWAP1 POP PUSH1 0x20 DUP3 ADD SWAP1 POP SWAP2 SWAP1 POP JUMP JUMPDEST PUSH1 0x0 PUSH20 0xFFFFFFFFFFFFFFFFFFFFFFFFFFFFFFFFFFFFFFFF DUP3 AND SWAP1 POP SWAP2 SWAP1 POP JUMP JUMPDEST PUSH1 0x0 PUSH2 0x364 DUP3 PUSH2 0x339 JUMP JUMPDEST SWAP1 POP SWAP2 SWAP1 POP JUMP JUMPDEST PUSH2 0x374 DUP2 PUSH2 0x359 JUMP JUMPDEST DUP3 MSTORE POP POP JUMP JUMPDEST PUSH1 0x0 PUSH2 0x386 DUP4 DUP4 PUSH2 0x36B JUMP JUMPDEST PUSH1 0x20 DUP4 ADD SWAP1 POP SWAP3 SWAP2 POP POP JUMP JUMPDEST PUSH1 0x0 PUSH1 0x20 DUP3 ADD SWAP1 POP SWAP2 SWAP1 POP JUMP JUMPDEST PUSH1 0x0 PUSH2 0x3AA DUP3 PUSH2 0x30D JUMP JUMPDEST PUSH2 0x3B4 DUP2 DUP6 PUSH2 0x318 JUMP JUMPDEST SWAP4 POP PUSH2 0x3BF DUP4 PUSH2 0x329 JUMP JUMPDEST DUP1 PUSH1 0x0 JUMPDEST DUP4 DUP2 LT ISZERO PUSH2 0x3F0 JUMPI DUP2 MLOAD PUSH2 0x3D7 DUP9 DUP3 PUSH2 0x37A JUMP JUMPDEST SWAP8 POP PUSH2 0x3E2 DUP4 PUSH2 0x392 JUMP JUMPDEST SWAP3 POP POP PUSH1 0x1 DUP2 ADD SWAP1 POP PUSH2 0x3C3 JUMP JUMPDEST POP DUP6 SWAP4 POP POP POP POP SWAP3 SWAP2 POP POP JUMP JUMPDEST PUSH1 0x0 PUSH1 0x20 DUP3 ADD SWAP1 POP DUP2 DUP2 SUB PUSH1 0x0 DUP4 ADD MSTORE PUSH2 0x417 DUP2 DUP5 PUSH2 0x39F JUMP JUMPDEST SWAP1 POP SWAP3 SWAP2 POP POP JUMP JUMPDEST PUSH1 0x0 DUP1 REVERT JUMPDEST PUSH2 0x42D DUP2 PUSH2 0x359 JUMP JUMPDEST DUP2 EQ PUSH2 0x438 JUMPI PUSH1 0x0 DUP1 REVERT JUMPDEST POP JUMP JUMPDEST PUSH1 0x0 DUP2 CALLDATALOAD SWAP1 POP PUSH2 0x44A DUP2 PUSH2 0x424 JUMP JUMPDEST SWAP3 SWAP2 POP POP JUMP JUMPDEST PUSH1 0x0 PUSH1 0x20 DUP3 DUP5 SUB SLT ISZERO PUSH2 0x466 JUMPI PUSH2 0x465 PUSH2 0x41F JUMP JUMPDEST JUMPDEST PUSH1 0x0 PUSH2 0x474 DUP5 DUP3 DUP6 ADD PUSH2 0x43B JUMP JUMPDEST SWAP2 POP POP SWAP3 SWAP2 POP POP JUMP JUMPDEST PUSH1 0x0 DUP2 ISZERO ISZERO SWAP1 POP SWAP2 SWAP1 POP JUMP JUMPDEST PUSH2 0x492 DUP2 PUSH2 0x47D JUMP JUMPDEST DUP3 MSTORE POP POP JUMP JUMPDEST PUSH1 0x0 PUSH1 0x20 DUP3 ADD SWAP1 POP PUSH2 0x4AD PUSH1 0x0 DUP4 ADD DUP5 PUSH2 0x489 JUMP JUMPDEST SWAP3 SWAP2 POP POP JUMP INVALID LOG2 PUSH5 0x6970667358 0x22 SLT KECCAK256 SWAP5 CREATE DUP7 SDIV 0xB2 KECCAK256 STOP ADDMOD ADDRESS EQ LOG0 0xAA 0xCE 0x4C SGT ADDMOD PUSH29 0x2D46B65D382D6D0704996EB20ABFBD64736F6C63430008110033608060 BLOCKHASH MSTORE CALLVALUE DUP1 ISZERO PUSH2 0x10 JUMPI PUSH1 0x0 DUP1 REVERT JUMPDEST POP PUSH1 0x40 MLOAD PUSH2 0x65D CODESIZE SUB DUP1 PUSH2 0x65D DUP4 CODECOPY DUP2 DUP2 ADD PUSH1 0x40 MSTORE DUP2 ADD SWAP1 PUSH2 0x32 SWAP2 SWAP1 PUSH2 0xDB JUMP JUMPDEST DUP1 PUSH1 0x0 DUP1 PUSH2 0x100 EXP DUP2 SLOAD DUP2 PUSH20 0xFFFFFFFFFFFFFFFFFFFFFFFFFFFFFFFFFFFFFFFF MUL NOT AND SWAP1 DUP4 PUSH20 0xFFFFFFFFFFFFFFFFFFFFFFFFFFFFFFFFFFFFFFFF AND MUL OR SWAP1 SSTORE POP POP PUSH2 0x108 JUMP JUMPDEST PUSH1 0x0 DUP1 REVERT JUMPDEST PUSH1 0x0 PUSH20 0xFFFFFFFFFFFFFFFFFFFFFFFFFFFFFFFFFFFFFFFF DUP3 AND SWAP1 POP SWAP2 SWAP1 POP JUMP JUMPDEST PUSH1 0x0 PUSH2 0xA8 DUP3 PUSH2 0x7D JUMP JUMPDEST SWAP1 POP SWAP2 SWAP1 POP JUMP JUMPDEST PUSH2 0xB8 DUP2 PUSH2 0x9D JUMP JUMPDEST DUP2 EQ PUSH2 0xC3 JUMPI PUSH1 0x0 DUP1 REVERT JUMPDEST POP JUMP JUMPDEST PUSH1 0x0 DUP2 MLOAD SWAP1 POP PUSH2 0xD5 DUP2 PUSH2 0xAF JUMP JUMPDEST SWAP3 SWAP2 POP POP JUMP JUMPDEST PUSH1 0x0 PUSH1 0x20 DUP3 DUP5 SUB SLT ISZERO PUSH2 0xF1 JUMPI PUSH2 0xF0 PUSH2 0x78 JUMP JUMPDEST JUMPDEST PUSH1 0x0 PUSH2 0xFF DUP5 DUP3 DUP6 ADD PUSH2 0xC6 JUMP JUMPDEST SWAP2 POP POP SWAP3 SWAP2 POP POP JUMP JUMPDEST PUSH2 0x546 DUP1 PUSH2 0x117 PUSH1 0x0 CODECOPY PUSH1 0x0 RETURN INVALID PUSH1 0x80 PUSH1 0x40 MSTORE CALLVALUE DUP1 ISZERO PUSH2 0x10 JUMPI PUSH1 0x0 DUP1 REVERT JUMPDEST POP PUSH1 0x4 CALLDATASIZE LT PUSH2 0x41 JUMPI PUSH1 0x0 CALLDATALOAD PUSH1 0xE0 SHR DUP1 PUSH4 0x4780468F EQ PUSH2 0x46 JUMPI DUP1 PUSH4 0x63A9C3D7 EQ PUSH2 0x62 JUMPI DUP1 PUSH4 0xF0D95090 EQ PUSH2 0x92 JUMPI JUMPDEST PUSH1 0x0 DUP1 REVERT JUMPDEST PUSH2 0x60 PUSH1 0x4 DUP1 CALLDATASIZE SUB DUP2 ADD SWAP1 PUSH2 0x5B SWAP2 SWAP1 PUSH2 0x3CD JUMP JUMPDEST PUSH2 0xB0 JUMP JUMPDEST STOP JUMPDEST PUSH2 0x7C PUSH1 0x4 DUP1 CALLDATASIZE SUB DUP2 ADD SWAP1 PUSH2 0x77 SWAP2 SWAP1 PUSH2 0x3CD JUMP JUMPDEST PUSH2 0x21D JUMP JUMPDEST PUSH1 0x40 MLOAD PUSH2 0x89 SWAP2 SWAP1 PUSH2 0x415 JUMP JUMPDEST PUSH1 0x40 MLOAD DUP1 SWAP2 SUB SWAP1 RETURN JUMPDEST PUSH2 0x9A PUSH2 0x284 JUMP JUMPDEST PUSH1 0x40 MLOAD PUSH2 0xA7 SWAP2 SWAP1 PUSH2 0x4EE JUMP JUMPDEST PUSH1 0x40 MLOAD DUP1 SWAP2 SUB SWAP1 RETURN JUMPDEST PUSH1 0x0 DUP1 SLOAD SWAP1 PUSH2 0x100 EXP SWAP1 DIV PUSH20 0xFFFFFFFFFFFFFFFFFFFFFFFFFFFFFFFFFFFFFFFF AND PUSH20 0xFFFFFFFFFFFFFFFFFFFFFFFFFFFFFFFFFFFFFFFF AND CALLER PUSH20 0xFFFFFFFFFFFFFFFFFFFFFFFFFFFFFFFFFFFFFFFF AND EQ PUSH2 0x108 JUMPI PUSH1 0x0 DUP1 REVERT JUMPDEST PUSH1 0x2 PUSH1 0x0 DUP3 PUSH20 0xFFFFFFFFFFFFFFFFFFFFFFFFFFFFFFFFFFFFFFFF AND PUSH20 0xFFFFFFFFFFFFFFFFFFFFFFFFFFFFFFFFFFFFFFFF AND DUP2 MSTORE PUSH1 0x20 ADD SWAP1 DUP2 MSTORE PUSH1 0x20 ADD PUSH1 0x0 KECCAK256 PUSH1 0x0 SWAP1 SLOAD SWAP1 PUSH2 0x100 EXP SWAP1 DIV PUSH1 0xFF AND ISZERO PUSH2 0x15F JUMPI PUSH1 0x0 DUP1 REVERT JUMPDEST PUSH1 0x1 PUSH1 0x2 PUSH1 0x0 DUP4 PUSH20 0xFFFFFFFFFFFFFFFFFFFFFFFFFFFFFFFFFFFFFFFF AND PUSH20 0xFFFFFFFFFFFFFFFFFFFFFFFFFFFFFFFFFFFFFFFF AND DUP2 MSTORE PUSH1 0x20 ADD SWAP1 DUP2 MSTORE PUSH1 0x20 ADD PUSH1 0x0 KECCAK256 PUSH1 0x0 PUSH2 0x100 EXP DUP2 SLOAD DUP2 PUSH1 0xFF MUL NOT AND SWAP1 DUP4 ISZERO ISZERO MUL OR SWAP1 SSTORE POP PUSH1 0x1 DUP2 SWAP1 DUP1 PUSH1 0x1 DUP2 SLOAD ADD DUP1 DUP3 SSTORE DUP1 SWAP2 POP POP PUSH1 0x1 SWAP1 SUB SWAP1 PUSH1 0x0 MSTORE PUSH1 0x20 PUSH1 0x0 KECCAK256 ADD PUSH1 0x0 SWAP1 SWAP2 SWAP1 SWAP2 SWAP1 SWAP2 PUSH2 0x100 EXP DUP2 SLOAD DUP2 PUSH20 0xFFFFFFFFFFFFFFFFFFFFFFFFFFFFFFFFFFFFFFFF MUL NOT AND SWAP1 DUP4 PUSH20 0xFFFFFFFFFFFFFFFFFFFFFFFFFFFFFFFFFFFFFFFF AND MUL OR SWAP1 SSTORE POP POP JUMP JUMPDEST PUSH1 0x0 PUSH1 0x2 PUSH1 0x0 DUP4 PUSH20 0xFFFFFFFFFFFFFFFFFFFFFFFFFFFFFFFFFFFFFFFF AND PUSH20 0xFFFFFFFFFFFFFFFFFFFFFFFFFFFFFFFFFFFFFFFF AND DUP2 MSTORE PUSH1 0x20 ADD SWAP1 DUP2 MSTORE PUSH1 0x20 ADD PUSH1 0x0 KECCAK256 PUSH1 0x0 SWAP1 SLOAD SWAP1 PUSH2 0x100 EXP SWAP1 DIV PUSH1 0xFF AND ISZERO PUSH2 0x27A JUMPI PUSH1 0x1 SWAP1 POP PUSH2 0x27F JUMP JUMPDEST PUSH1 0x0 SWAP1 POP JUMPDEST SWAP2 SWAP1 POP JUMP JUMPDEST PUSH1 0x60 PUSH1 0x0 DUP1 SLOAD SWAP1 PUSH2 0x100 EXP SWAP1 DIV PUSH20 0xFFFFFFFFFFFFFFFFFFFFFFFFFFFFFFFFFFFFFFFF AND PUSH20 0xFFFFFFFFFFFFFFFFFFFFFFFFFFFFFFFFFFFFFFFF AND CALLER PUSH20 0xFFFFFFFFFFFFFFFFFFFFFFFFFFFFFFFFFFFFFFFF AND EQ PUSH2 0x2DE JUMPI PUSH1 0x0 DUP1 REVERT JUMPDEST PUSH1 0x1 DUP1 SLOAD DUP1 PUSH1 0x20 MUL PUSH1 0x20 ADD PUSH1 0x40 MLOAD SWAP1 DUP2 ADD PUSH1 0x40 MSTORE DUP1 SWAP3 SWAP2 SWAP1 DUP2 DUP2 MSTORE PUSH1 0x20 ADD DUP3 DUP1 SLOAD DUP1 ISZERO PUSH2 0x360 JUMPI PUSH1 0x20 MUL DUP3 ADD SWAP2 SWAP1 PUSH1 0x0 MSTORE PUSH1 0x20 PUSH1 0x0 KECCAK256 SWAP1 JUMPDEST DUP2 PUSH1 0x0 SWAP1 SLOAD SWAP1 PUSH2 0x100 EXP SWAP1 DIV PUSH20 0xFFFFFFFFFFFFFFFFFFFFFFFFFFFFFFFFFFFFFFFF AND PUSH20 0xFFFFFFFFFFFFFFFFFFFFFFFFFFFFFFFFFFFFFFFF AND DUP2 MSTORE PUSH1 0x20 ADD SWAP1 PUSH1 0x1 ADD SWAP1 DUP1 DUP4 GT PUSH2 0x316 JUMPI JUMPDEST POP POP POP POP POP SWAP1 POP SWAP1 JUMP JUMPDEST PUSH1 0x0 DUP1 REVERT JUMPDEST PUSH1 0x0 PUSH20 0xFFFFFFFFFFFFFFFFFFFFFFFFFFFFFFFFFFFFFFFF DUP3 AND SWAP1 POP SWAP2 SWAP1 POP JUMP JUMPDEST PUSH1 0x0 PUSH2 0x39A DUP3 PUSH2 0x36F JUMP JUMPDEST SWAP1 POP SWAP2 SWAP1 POP JUMP JUMPDEST PUSH2 0x3AA DUP2 PUSH2 0x38F JUMP JUMPDEST DUP2 EQ PUSH2 0x3B5 JUMPI PUSH1 0x0 DUP1 REVERT JUMPDEST POP JUMP JUMPDEST PUSH1 0x0 DUP2 CALLDATALOAD SWAP1 POP PUSH2 0x3C7 DUP2 PUSH2 0x3A1 JUMP JUMPDEST SWAP3 SWAP2 POP POP JUMP JUMPDEST PUSH1 0x0 PUSH1 0x20 DUP3 DUP5 SUB SLT ISZERO PUSH2 0x3E3 JUMPI PUSH2 0x3E2 PUSH2 0x36A JUMP JUMPDEST JUMPDEST PUSH1 0x0 PUSH2 0x3F1 DUP5 DUP3 DUP6 ADD PUSH2 0x3B8 JUMP JUMPDEST SWAP2 POP POP SWAP3 SWAP2 POP POP JUMP JUMPDEST PUSH1 0x0 DUP2 ISZERO ISZERO SWAP1 POP SWAP2 SWAP1 POP JUMP JUMPDEST PUSH2 0x40F DUP2 PUSH2 0x3FA JUMP JUMPDEST DUP3 MSTORE POP POP JUMP JUMPDEST PUSH1 0x0 PUSH1 0x20 DUP3 ADD SWAP1 POP PUSH2 0x42A PUSH1 0x0 DUP4 ADD DUP5 PUSH2 0x406 JUMP JUMPDEST SWAP3 SWAP2 POP POP JUMP JUMPDEST PUSH1 0x0 DUP2 MLOAD SWAP1 POP SWAP2 SWAP1 POP JUMP JUMPDEST PUSH1 0x0 DUP3 DUP3 MSTORE PUSH1 0x20 DUP3 ADD SWAP1 POP SWAP3 SWAP2 POP POP JUMP JUMPDEST PUSH1 0x0 DUP2 SWAP1 POP PUSH1 0x20 DUP3 ADD SWAP1 POP SWAP2 SWAP1 POP JUMP JUMPDEST PUSH2 0x465 DUP2 PUSH2 0x38F JUMP JUMPDEST DUP3 MSTORE POP POP JUMP JUMPDEST PUSH1 0x0 PUSH2 0x477 DUP4 DUP4 PUSH2 0x45C JUMP JUMPDEST PUSH1 0x20 DUP4 ADD SWAP1 POP SWAP3 SWAP2 POP POP JUMP JUMPDEST PUSH1 0x0 PUSH1 0x20 DUP3 ADD SWAP1 POP SWAP2 SWAP1 POP JUMP JUMPDEST PUSH1 0x0 PUSH2 0x49B DUP3 PUSH2 0x430 JUMP JUMPDEST PUSH2 0x4A5 DUP2 DUP6 PUSH2 0x43B JUMP JUMPDEST SWAP4 POP PUSH2 0x4B0 DUP4 PUSH2 0x44C JUMP JUMPDEST DUP1 PUSH1 0x0 JUMPDEST DUP4 DUP2 LT ISZERO PUSH2 0x4E1 JUMPI DUP2 MLOAD PUSH2 0x4C8 DUP9 DUP3 PUSH2 0x46B JUMP JUMPDEST SWAP8 POP PUSH2 0x4D3 DUP4 PUSH2 0x483 JUMP JUMPDEST SWAP3 POP POP PUSH1 0x1 DUP2 ADD SWAP1 POP PUSH2 0x4B4 JUMP JUMPDEST POP DUP6 SWAP4 POP POP POP POP SWAP3 SWAP2 POP POP JUMP JUMPDEST PUSH1 0x0 PUSH1 0x20 DUP3 ADD SWAP1 POP DUP2 DUP2 SUB PUSH1 0x0 DUP4 ADD MSTORE PUSH2 0x508 DUP2 DUP5 PUSH2 0x490 JUMP JUMPDEST SWAP1 POP SWAP3 SWAP2 POP POP JUMP INVALID LOG2 PUSH5 0x6970667358 0x22 SLT KECCAK256 MULMOD 0xB2 0x23 0xD 0xD8 PUSH24 0x3B5C1A35077F4007AA46CF4BA4E3394B529D87C46E9E3453 RETURNDATASIZE LOG4 PUSH5 0x736F6C6343 STOP ADDMOD GT STOP CALLER PUSH1 0x80 PUSH1 0x40 MSTORE CALLVALUE DUP1 ISZERO PUSH2 0x10 JUMPI PUSH1 0x0 DUP1 REVERT JUMPDEST POP PUSH1 0x40 MLOAD PUSH2 0xF2F CODESIZE SUB DUP1 PUSH2 0xF2F DUP4 CODECOPY DUP2 DUP2 ADD PUSH1 0x40 MSTORE DUP2 ADD SWAP1 PUSH2 0x32 SWAP2 SWAP1 PUSH2 0xDB JUMP JUMPDEST DUP1 PUSH1 0x0 DUP1 PUSH2 0x100 EXP DUP2 SLOAD DUP2 PUSH20 0xFFFFFFFFFFFFFFFFFFFFFFFFFFFFFFFFFFFFFFFF MUL NOT AND SWAP1 DUP4 PUSH20 0xFFFFFFFFFFFFFFFFFFFFFFFFFFFFFFFFFFFFFFFF AND MUL OR SWAP1 SSTORE POP POP PUSH2 0x108 JUMP JUMPDEST PUSH1 0x0 DUP1 REVERT JUMPDEST PUSH1 0x0 PUSH20 0xFFFFFFFFFFFFFFFFFFFFFFFFFFFFFFFFFFFFFFFF DUP3 AND SWAP1 POP SWAP2 SWAP1 POP JUMP JUMPDEST PUSH1 0x0 PUSH2 0xA8 DUP3 PUSH2 0x7D JUMP JUMPDEST SWAP1 POP SWAP2 SWAP1 POP JUMP JUMPDEST PUSH2 0xB8 DUP2 PUSH2 0x9D JUMP JUMPDEST DUP2 EQ PUSH2 0xC3 JUMPI PUSH1 0x0 DUP1 REVERT JUMPDEST POP JUMP JUMPDEST PUSH1 0x0 DUP2 MLOAD SWAP1 POP PUSH2 0xD5 DUP2 PUSH2 0xAF JUMP JUMPDEST SWAP3 SWAP2 POP POP JUMP JUMPDEST PUSH1 0x0 PUSH1 0x20 DUP3 DUP5 SUB SLT ISZERO PUSH2 0xF1 JUMPI PUSH2 0xF0 PUSH2 0x78 JUMP JUMPDEST JUMPDEST PUSH1 0x0 PUSH2 0xFF DUP5 DUP3 DUP6 ADD PUSH2 0xC6 JUMP JUMPDEST SWAP2 POP POP SWAP3 SWAP2 POP POP JUMP JUMPDEST PUSH2 0xE18 DUP1 PUSH2 0x117 PUSH1 0x0 CODECOPY PUSH1 0x0 RETURN INVALID PUSH1 0x80 PUSH1 0x40 MSTORE CALLVALUE DUP1 ISZERO PUSH2 0x10 JUMPI PUSH1 0x0 DUP1 REVERT JUMPDEST POP PUSH1 0x4 CALLDATASIZE LT PUSH2 0x41 JUMPI PUSH1 0x0 CALLDATALOAD PUSH1 0xE0 SHR DUP1 PUSH4 0x1107747E EQ PUSH2 0x46 JUMPI DUP1 PUSH4 0x43A0E44A EQ PUSH2 0x62 JUMPI DUP1 PUSH4 0xF40941D0 EQ PUSH2 0x7E JUMPI JUMPDEST PUSH1 0x0 DUP1 REVERT JUMPDEST PUSH2 0x60 PUSH1 0x4 DUP1 CALLDATASIZE SUB DUP2 ADD SWAP1 PUSH2 0x5B SWAP2 SWAP1 PUSH2 0x690 JUMP JUMPDEST PUSH2 0xAE JUMP JUMPDEST STOP JUMPDEST PUSH2 0x7C PUSH1 0x4 DUP1 CALLDATASIZE SUB DUP2 ADD SWAP1 PUSH2 0x77 SWAP2 SWAP1 PUSH2 0x803 JUMP JUMPDEST PUSH2 0x14A JUMP JUMPDEST STOP JUMPDEST PUSH2 0x98 PUSH1 0x4 DUP1 CALLDATASIZE SUB DUP2 ADD SWAP1 PUSH2 0x93 SWAP2 SWAP1 PUSH2 0x690 JUMP JUMPDEST PUSH2 0x328 JUMP JUMPDEST PUSH1 0x40 MLOAD PUSH2 0xA5 SWAP2 SWAP1 PUSH2 0xA49 JUMP JUMPDEST PUSH1 0x40 MLOAD DUP1 SWAP2 SUB SWAP1 RETURN JUMPDEST PUSH1 0x0 DUP1 SLOAD SWAP1 PUSH2 0x100 EXP SWAP1 DIV PUSH20 0xFFFFFFFFFFFFFFFFFFFFFFFFFFFFFFFFFFFFFFFF AND PUSH20 0xFFFFFFFFFFFFFFFFFFFFFFFFFFFFFFFFFFFFFFFF AND CALLER PUSH20 0xFFFFFFFFFFFFFFFFFFFFFFFFFFFFFFFFFFFFFFFF AND EQ PUSH2 0x106 JUMPI PUSH1 0x0 DUP1 REVERT JUMPDEST DUP1 PUSH1 0x2 PUSH1 0x0 PUSH2 0x100 EXP DUP2 SLOAD DUP2 PUSH20 0xFFFFFFFFFFFFFFFFFFFFFFFFFFFFFFFFFFFFFFFF MUL NOT AND SWAP1 DUP4 PUSH20 0xFFFFFFFFFFFFFFFFFFFFFFFFFFFFFFFFFFFFFFFF AND MUL OR SWAP1 SSTORE POP POP JUMP JUMPDEST DUP4 PUSH1 0x2 PUSH1 0x0 SWAP1 SLOAD SWAP1 PUSH2 0x100 EXP SWAP1 DIV PUSH20 0xFFFFFFFFFFFFFFFFFFFFFFFFFFFFFFFFFFFFFFFF AND PUSH20 0xFFFFFFFFFFFFFFFFFFFFFFFFFFFFFFFFFFFFFFFF AND PUSH4 0x63A9C3D7 DUP3 PUSH1 0x40 MLOAD DUP3 PUSH4 0xFFFFFFFF AND PUSH1 0xE0 SHL DUP2 MSTORE PUSH1 0x4 ADD PUSH2 0x1A6 SWAP2 SWAP1 PUSH2 0xA7A JUMP JUMPDEST PUSH1 0x20 PUSH1 0x40 MLOAD DUP1 DUP4 SUB DUP2 DUP7 GAS STATICCALL ISZERO DUP1 ISZERO PUSH2 0x1C3 JUMPI RETURNDATASIZE PUSH1 0x0 DUP1 RETURNDATACOPY RETURNDATASIZE PUSH1 0x0 REVERT JUMPDEST POP POP POP POP PUSH1 0x40 MLOAD RETURNDATASIZE PUSH1 0x1F NOT PUSH1 0x1F DUP3 ADD AND DUP3 ADD DUP1 PUSH1 0x40 MSTORE POP DUP2 ADD SWAP1 PUSH2 0x1E7 SWAP2 SWAP1 PUSH2 0xACD JUMP JUMPDEST PUSH2 0x1F0 JUMPI PUSH1 0x0 DUP1 REVERT JUMPDEST PUSH2 0x1F8 PUSH2 0x5E7 JUMP JUMPDEST DUP5 DUP2 PUSH1 0x0 ADD DUP2 SWAP1 MSTORE POP DUP4 DUP2 PUSH1 0x20 ADD DUP2 SWAP1 MSTORE POP DUP3 DUP2 PUSH1 0x40 ADD SWAP1 PUSH20 0xFFFFFFFFFFFFFFFFFFFFFFFFFFFFFFFFFFFFFFFF AND SWAP1 DUP2 PUSH20 0xFFFFFFFFFFFFFFFFFFFFFFFFFFFFFFFFFFFFFFFF AND DUP2 MSTORE POP POP PUSH1 0x1 PUSH1 0x0 DUP8 PUSH20 0xFFFFFFFFFFFFFFFFFFFFFFFFFFFFFFFFFFFFFFFF AND PUSH20 0xFFFFFFFFFFFFFFFFFFFFFFFFFFFFFFFFFFFFFFFF AND DUP2 MSTORE PUSH1 0x20 ADD SWAP1 DUP2 MSTORE PUSH1 0x20 ADD PUSH1 0x0 KECCAK256 DUP2 SWAP1 DUP1 PUSH1 0x1 DUP2 SLOAD ADD DUP1 DUP3 SSTORE DUP1 SWAP2 POP POP PUSH1 0x1 SWAP1 SUB SWAP1 PUSH1 0x0 MSTORE PUSH1 0x20 PUSH1 0x0 KECCAK256 SWAP1 PUSH1 0x3 MUL ADD PUSH1 0x0 SWAP1 SWAP2 SWAP1 SWAP2 SWAP1 SWAP2 POP PUSH1 0x0 DUP3 ADD MLOAD DUP2 PUSH1 0x0 ADD SWAP1 DUP2 PUSH2 0x2C0 SWAP2 SWAP1 PUSH2 0xD10 JUMP JUMPDEST POP PUSH1 0x20 DUP3 ADD MLOAD DUP2 PUSH1 0x1 ADD SWAP1 DUP2 PUSH2 0x2D6 SWAP2 SWAP1 PUSH2 0xD10 JUMP JUMPDEST POP PUSH1 0x40 DUP3 ADD MLOAD DUP2 PUSH1 0x2 ADD PUSH1 0x0 PUSH2 0x100 EXP DUP2 SLOAD DUP2 PUSH20 0xFFFFFFFFFFFFFFFFFFFFFFFFFFFFFFFFFFFFFFFF MUL NOT AND SWAP1 DUP4 PUSH20 0xFFFFFFFFFFFFFFFFFFFFFFFFFFFFFFFFFFFFFFFF AND MUL OR SWAP1 SSTORE POP POP POP POP POP POP POP POP POP JUMP JUMPDEST PUSH1 0x60 CALLER PUSH1 0x2 PUSH1 0x0 SWAP1 SLOAD SWAP1 PUSH2 0x100 EXP SWAP1 DIV PUSH20 0xFFFFFFFFFFFFFFFFFFFFFFFFFFFFFFFFFFFFFFFF AND PUSH20 0xFFFFFFFFFFFFFFFFFFFFFFFFFFFFFFFFFFFFFFFF AND PUSH4 0x63A9C3D7 DUP3 PUSH1 0x40 MLOAD DUP3 PUSH4 0xFFFFFFFF AND PUSH1 0xE0 SHL DUP2 MSTORE PUSH1 0x4 ADD PUSH2 0x386 SWAP2 SWAP1 PUSH2 0xA7A JUMP JUMPDEST PUSH1 0x20 PUSH1 0x40 MLOAD DUP1 DUP4 SUB DUP2 DUP7 GAS STATICCALL ISZERO DUP1 ISZERO PUSH2 0x3A3 JUMPI RETURNDATASIZE PUSH1 0x0 DUP1 RETURNDATACOPY RETURNDATASIZE PUSH1 0x0 REVERT JUMPDEST POP POP POP POP PUSH1 0x40 MLOAD RETURNDATASIZE PUSH1 0x1F NOT PUSH1 0x1F DUP3 ADD AND DUP3 ADD DUP1 PUSH1 0x40 MSTORE POP DUP2 ADD SWAP1 PUSH2 0x3C7 SWAP2 SWAP1 PUSH2 0xACD JUMP JUMPDEST PUSH2 0x3D0 JUMPI PUSH1 0x0 DUP1 REVERT JUMPDEST PUSH1 0x1 PUSH1 0x0 DUP5 PUSH20 0xFFFFFFFFFFFFFFFFFFFFFFFFFFFFFFFFFFFFFFFF AND PUSH20 0xFFFFFFFFFFFFFFFFFFFFFFFFFFFFFFFFFFFFFFFF AND DUP2 MSTORE PUSH1 0x20 ADD SWAP1 DUP2 MSTORE PUSH1 0x20 ADD PUSH1 0x0 KECCAK256 DUP1 SLOAD DUP1 PUSH1 0x20 MUL PUSH1 0x20 ADD PUSH1 0x40 MLOAD SWAP1 DUP2 ADD PUSH1 0x40 MSTORE DUP1 SWAP3 SWAP2 SWAP1 DUP2 DUP2 MSTORE PUSH1 0x20 ADD PUSH1 0x0 SWAP1 JUMPDEST DUP3 DUP3 LT ISZERO PUSH2 0x5DB JUMPI DUP4 DUP3 SWAP1 PUSH1 0x0 MSTORE PUSH1 0x20 PUSH1 0x0 KECCAK256 SWAP1 PUSH1 0x3 MUL ADD PUSH1 0x40 MLOAD DUP1 PUSH1 0x60 ADD PUSH1 0x40 MSTORE SWAP1 DUP2 PUSH1 0x0 DUP3 ADD DUP1 SLOAD PUSH2 0x462 SWAP1 PUSH2 0xB29 JUMP JUMPDEST DUP1 PUSH1 0x1F ADD PUSH1 0x20 DUP1 SWAP2 DIV MUL PUSH1 0x20 ADD PUSH1 0x40 MLOAD SWAP1 DUP2 ADD PUSH1 0x40 MSTORE DUP1 SWAP3 SWAP2 SWAP1 DUP2 DUP2 MSTORE PUSH1 0x20 ADD DUP3 DUP1 SLOAD PUSH2 0x48E SWAP1 PUSH2 0xB29 JUMP JUMPDEST DUP1 ISZERO PUSH2 0x4DB JUMPI DUP1 PUSH1 0x1F LT PUSH2 0x4B0 JUMPI PUSH2 0x100 DUP1 DUP4 SLOAD DIV MUL DUP4 MSTORE SWAP2 PUSH1 0x20 ADD SWAP2 PUSH2 0x4DB JUMP JUMPDEST DUP3 ADD SWAP2 SWAP1 PUSH1 0x0 MSTORE PUSH1 0x20 PUSH1 0x0 KECCAK256 SWAP1 JUMPDEST DUP2 SLOAD DUP2 MSTORE SWAP1 PUSH1 0x1 ADD SWAP1 PUSH1 0x20 ADD DUP1 DUP4 GT PUSH2 0x4BE JUMPI DUP3 SWAP1 SUB PUSH1 0x1F AND DUP3 ADD SWAP2 JUMPDEST POP POP POP POP POP DUP2 MSTORE PUSH1 0x20 ADD PUSH1 0x1 DUP3 ADD DUP1 SLOAD PUSH2 0x4F4 SWAP1 PUSH2 0xB29 JUMP JUMPDEST DUP1 PUSH1 0x1F ADD PUSH1 0x20 DUP1 SWAP2 DIV MUL PUSH1 0x20 ADD PUSH1 0x40 MLOAD SWAP1 DUP2 ADD PUSH1 0x40 MSTORE DUP1 SWAP3 SWAP2 SWAP1 DUP2 DUP2 MSTORE PUSH1 0x20 ADD DUP3 DUP1 SLOAD PUSH2 0x520 SWAP1 PUSH2 0xB29 JUMP JUMPDEST DUP1 ISZERO PUSH2 0x56D JUMPI DUP1 PUSH1 0x1F LT PUSH2 0x542 JUMPI PUSH2 0x100 DUP1 DUP4 SLOAD DIV MUL DUP4 MSTORE SWAP2 PUSH1 0x20 ADD SWAP2 PUSH2 0x56D JUMP JUMPDEST DUP3 ADD SWAP2 SWAP1 PUSH1 0x0 MSTORE PUSH1 0x20 PUSH1 0x0 KECCAK256 SWAP1 JUMPDEST DUP2 SLOAD DUP2 MSTORE SWAP1 PUSH1 0x1 ADD SWAP1 PUSH1 0x20 ADD DUP1 DUP4 GT PUSH2 0x550 JUMPI DUP3 SWAP1 SUB PUSH1 0x1F AND DUP3 ADD SWAP2 JUMPDEST POP POP POP POP POP DUP2 MSTORE PUSH1 0x20 ADD PUSH1 0x2 DUP3 ADD PUSH1 0x0 SWAP1 SLOAD SWAP1 PUSH2 0x100 EXP SWAP1 DIV PUSH20 0xFFFFFFFFFFFFFFFFFFFFFFFFFFFFFFFFFFFFFFFF AND PUSH20 0xFFFFFFFFFFFFFFFFFFFFFFFFFFFFFFFFFFFFFFFF AND PUSH20 0xFFFFFFFFFFFFFFFFFFFFFFFFFFFFFFFFFFFFFFFF AND DUP2 MSTORE POP POP DUP2 MSTORE PUSH1 0x20 ADD SWAP1 PUSH1 0x1 ADD SWAP1 PUSH2 0x42F JUMP JUMPDEST POP POP POP POP SWAP2 POP POP SWAP2 SWAP1 POP JUMP JUMPDEST PUSH1 0x40 MLOAD DUP1 PUSH1 0x60 ADD PUSH1 0x40 MSTORE DUP1 PUSH1 0x60 DUP2 MSTORE PUSH1 0x20 ADD PUSH1 0x60 DUP2 MSTORE PUSH1 0x20 ADD PUSH1 0x0 PUSH20 0xFFFFFFFFFFFFFFFFFFFFFFFFFFFFFFFFFFFFFFFF AND DUP2 MSTORE POP SWAP1 JUMP JUMPDEST PUSH1 0x0 PUSH1 0x40 MLOAD SWAP1 POP SWAP1 JUMP JUMPDEST PUSH1 0x0 DUP1 REVERT JUMPDEST PUSH1 0x0 DUP1 REVERT JUMPDEST PUSH1 0x0 PUSH20 0xFFFFFFFFFFFFFFFFFFFFFFFFFFFFFFFFFFFFFFFF DUP3 AND SWAP1 POP SWAP2 SWAP1 POP JUMP JUMPDEST PUSH1 0x0 PUSH2 0x65D DUP3 PUSH2 0x632 JUMP JUMPDEST SWAP1 POP SWAP2 SWAP1 POP JUMP JUMPDEST PUSH2 0x66D DUP2 PUSH2 0x652 JUMP JUMPDEST DUP2 EQ PUSH2 0x678 JUMPI PUSH1 0x0 DUP1 REVERT JUMPDEST POP JUMP JUMPDEST PUSH1 0x0 DUP2 CALLDATALOAD SWAP1 POP PUSH2 0x68A DUP2 PUSH2 0x664 JUMP JUMPDEST SWAP3 SWAP2 POP POP JUMP JUMPDEST PUSH1 0x0 PUSH1 0x20 DUP3 DUP5 SUB SLT ISZERO PUSH2 0x6A6 JUMPI PUSH2 0x6A5 PUSH2 0x628 JUMP JUMPDEST JUMPDEST PUSH1 0x0 PUSH2 0x6B4 DUP5 DUP3 DUP6 ADD PUSH2 0x67B JUMP JUMPDEST SWAP2 POP POP SWAP3 SWAP2 POP POP JUMP JUMPDEST PUSH1 0x0 DUP1 REVERT JUMPDEST PUSH1 0x0 DUP1 REVERT JUMPDEST PUSH1 0x0 PUSH1 0x1F NOT PUSH1 0x1F DUP4 ADD AND SWAP1 POP SWAP2 SWAP1 POP JUMP JUMPDEST PUSH32 0x4E487B7100000000000000000000000000000000000000000000000000000000 PUSH1 0x0 MSTORE PUSH1 0x41 PUSH1 0x4 MSTORE PUSH1 0x24 PUSH1 0x0 REVERT JUMPDEST PUSH2 0x710 DUP3 PUSH2 0x6C7 JUMP JUMPDEST DUP2 ADD DUP2 DUP2 LT PUSH8 0xFFFFFFFFFFFFFFFF DUP3 GT OR ISZERO PUSH2 0x72F JUMPI PUSH2 0x72E PUSH2 0x6D8 JUMP JUMPDEST JUMPDEST DUP1 PUSH1 0x40 MSTORE POP POP POP JUMP JUMPDEST PUSH1 0x0 PUSH2 0x742 PUSH2 0x61E JUMP JUMPDEST SWAP1 POP PUSH2 0x74E DUP3 DUP3 PUSH2 0x707 JUMP JUMPDEST SWAP2 SWAP1 POP JUMP JUMPDEST PUSH1 0x0 PUSH8 0xFFFFFFFFFFFFFFFF DUP3 GT ISZERO PUSH2 0x76E JUMPI PUSH2 0x76D PUSH2 0x6D8 JUMP JUMPDEST JUMPDEST PUSH2 0x777 DUP3 PUSH2 0x6C7 JUMP JUMPDEST SWAP1 POP PUSH1 0x20 DUP2 ADD SWAP1 POP SWAP2 SWAP1 POP JUMP JUMPDEST DUP3 DUP2 DUP4 CALLDATACOPY PUSH1 0x0 DUP4 DUP4 ADD MSTORE POP POP POP JUMP JUMPDEST PUSH1 0x0 PUSH2 0x7A6 PUSH2 0x7A1 DUP5 PUSH2 0x753 JUMP JUMPDEST PUSH2 0x738 JUMP JUMPDEST SWAP1 POP DUP3 DUP2 MSTORE PUSH1 0x20 DUP2 ADD DUP5 DUP5 DUP5 ADD GT ISZERO PUSH2 0x7C2 JUMPI PUSH2 0x7C1 PUSH2 0x6C2 JUMP JUMPDEST JUMPDEST PUSH2 0x7CD DUP5 DUP3 DUP6 PUSH2 0x784 JUMP JUMPDEST POP SWAP4 SWAP3 POP POP POP JUMP JUMPDEST PUSH1 0x0 DUP3 PUSH1 0x1F DUP4 ADD SLT PUSH2 0x7EA JUMPI PUSH2 0x7E9 PUSH2 0x6BD JUMP JUMPDEST JUMPDEST DUP2 CALLDATALOAD PUSH2 0x7FA DUP5 DUP3 PUSH1 0x20 DUP7 ADD PUSH2 0x793 JUMP JUMPDEST SWAP2 POP POP SWAP3 SWAP2 POP POP JUMP JUMPDEST PUSH1 0x0 DUP1 PUSH1 0x0 DUP1 PUSH1 0x80 DUP6 DUP8 SUB SLT ISZERO PUSH2 0x81D JUMPI PUSH2 0x81C PUSH2 0x628 JUMP JUMPDEST JUMPDEST PUSH1 0x0 PUSH2 0x82B DUP8 DUP3 DUP9 ADD PUSH2 0x67B JUMP JUMPDEST SWAP5 POP POP PUSH1 0x20 DUP6 ADD CALLDATALOAD PUSH8 0xFFFFFFFFFFFFFFFF DUP2 GT ISZERO PUSH2 0x84C JUMPI PUSH2 0x84B PUSH2 0x62D JUMP JUMPDEST JUMPDEST PUSH2 0x858 DUP8 DUP3 DUP9 ADD PUSH2 0x7D5 JUMP JUMPDEST SWAP4 POP POP PUSH1 0x40 DUP6 ADD CALLDATALOAD PUSH8 0xFFFFFFFFFFFFFFFF DUP2 GT ISZERO PUSH2 0x879 JUMPI PUSH2 0x878 PUSH2 0x62D JUMP JUMPDEST JUMPDEST PUSH2 0x885 DUP8 DUP3 DUP9 ADD PUSH2 0x7D5 JUMP JUMPDEST SWAP3 POP POP PUSH1 0x60 PUSH2 0x896 DUP8 DUP3 DUP9 ADD PUSH2 0x67B JUMP JUMPDEST SWAP2 POP POP SWAP3 SWAP6 SWAP2 SWAP5 POP SWAP3 POP JUMP JUMPDEST PUSH1 0x0 DUP2 MLOAD SWAP1 POP SWAP2 SWAP1 POP JUMP JUMPDEST PUSH1 0x0 DUP3 DUP3 MSTORE PUSH1 0x20 DUP3 ADD SWAP1 POP SWAP3 SWAP2 POP POP JUMP JUMPDEST PUSH1 0x0 DUP2 SWAP1 POP PUSH1 0x20 DUP3 ADD SWAP1 POP SWAP2 SWAP1 POP JUMP JUMPDEST PUSH1 0x0 DUP2 MLOAD SWAP1 POP SWAP2 SWAP1 POP JUMP JUMPDEST PUSH1 0x0 DUP3 DUP3 MSTORE PUSH1 0x20 DUP3 ADD SWAP1 POP SWAP3 SWAP2 POP POP JUMP JUMPDEST PUSH1 0x0 JUMPDEST DUP4 DUP2 LT ISZERO PUSH2 0x908 JUMPI DUP1 DUP3 ADD MLOAD DUP2 DUP5 ADD MSTORE PUSH1 0x20 DUP2 ADD SWAP1 POP PUSH2 0x8ED JUMP JUMPDEST PUSH1 0x0 DUP5 DUP5 ADD MSTORE POP POP POP POP JUMP JUMPDEST PUSH1 0x0 PUSH2 0x91F DUP3 PUSH2 0x8CE JUMP JUMPDEST PUSH2 0x929 DUP2 DUP6 PUSH2 0x8D9 JUMP JUMPDEST SWAP4 POP PUSH2 0x939 DUP2 DUP6 PUSH1 0x20 DUP7 ADD PUSH2 0x8EA JUMP JUMPDEST PUSH2 0x942 DUP2 PUSH2 0x6C7 JUMP JUMPDEST DUP5 ADD SWAP2 POP POP SWAP3 SWAP2 POP POP JUMP JUMPDEST PUSH2 0x956 DUP2 PUSH2 0x652 JUMP JUMPDEST DUP3 MSTORE POP POP JUMP JUMPDEST PUSH1 0x0 PUSH1 0x60 DUP4 ADD PUSH1 0x0 DUP4 ADD MLOAD DUP5 DUP3 SUB PUSH1 0x0 DUP7 ADD MSTORE PUSH2 0x979 DUP3 DUP3 PUSH2 0x914 JUMP JUMPDEST SWAP2 POP POP PUSH1 0x20 DUP4 ADD MLOAD DUP5 DUP3 SUB PUSH1 0x20 DUP7 ADD MSTORE PUSH2 0x993 DUP3 DUP3 PUSH2 0x914 JUMP JUMPDEST SWAP2 POP POP PUSH1 0x40 DUP4 ADD MLOAD PUSH2 0x9A8 PUSH1 0x40 DUP7 ADD DUP3 PUSH2 0x94D JUMP JUMPDEST POP DUP1 SWAP2 POP POP SWAP3 SWAP2 POP POP JUMP JUMPDEST PUSH1 0x0 PUSH2 0x9BF DUP4 DUP4 PUSH2 0x95C JUMP JUMPDEST SWAP1 POP SWAP3 SWAP2 POP POP JUMP JUMPDEST PUSH1 0x0 PUSH1 0x20 DUP3 ADD SWAP1 POP SWAP2 SWAP1 POP JUMP JUMPDEST PUSH1 0x0 PUSH2 0x9DF DUP3 PUSH2 0x8A2 JUMP JUMPDEST PUSH2 0x9E9 DUP2 DUP6 PUSH2 0x8AD JUMP JUMPDEST SWAP4 POP DUP4 PUSH1 0x20 DUP3 MUL DUP6 ADD PUSH2 0x9FB DUP6 PUSH2 0x8BE JUMP JUMPDEST DUP1 PUSH1 0x0 JUMPDEST DUP6 DUP2 LT ISZERO PUSH2 0xA37 JUMPI DUP5 DUP5 SUB DUP10 MSTORE DUP2 MLOAD PUSH2 0xA18 DUP6 DUP3 PUSH2 0x9B3 JUMP JUMPDEST SWAP5 POP PUSH2 0xA23 DUP4 PUSH2 0x9C7 JUMP JUMPDEST SWAP3 POP PUSH1 0x20 DUP11 ADD SWAP10 POP POP PUSH1 0x1 DUP2 ADD SWAP1 POP PUSH2 0x9FF JUMP JUMPDEST POP DUP3 SWAP8 POP DUP8 SWAP6 POP POP POP POP POP POP SWAP3 SWAP2 POP POP JUMP JUMPDEST PUSH1 0x0 PUSH1 0x20 DUP3 ADD SWAP1 POP DUP2 DUP2 SUB PUSH1 0x0 DUP4 ADD MSTORE PUSH2 0xA63 DUP2 DUP5 PUSH2 0x9D4 JUMP JUMPDEST SWAP1 POP SWAP3 SWAP2 POP POP JUMP JUMPDEST PUSH2 0xA74 DUP2 PUSH2 0x652 JUMP JUMPDEST DUP3 MSTORE POP POP JUMP JUMPDEST PUSH1 0x0 PUSH1 0x20 DUP3 ADD SWAP1 POP PUSH2 0xA8F PUSH1 0x0 DUP4 ADD DUP5 PUSH2 0xA6B JUMP JUMPDEST SWAP3 SWAP2 POP POP JUMP JUMPDEST PUSH1 0x0 DUP2 ISZERO ISZERO SWAP1 POP SWAP2 SWAP1 POP JUMP JUMPDEST PUSH2 0xAAA DUP2 PUSH2 0xA95 JUMP JUMPDEST DUP2 EQ PUSH2 0xAB5 JUMPI PUSH1 0x0 DUP1 REVERT JUMPDEST POP JUMP JUMPDEST PUSH1 0x0 DUP2 MLOAD SWAP1 POP PUSH2 0xAC7 DUP2 PUSH2 0xAA1 JUMP JUMPDEST SWAP3 SWAP2 POP POP JUMP JUMPDEST PUSH1 0x0 PUSH1 0x20 DUP3 DUP5 SUB SLT ISZERO PUSH2 0xAE3 JUMPI PUSH2 0xAE2 PUSH2 0x628 JUMP JUMPDEST JUMPDEST PUSH1 0x0 PUSH2 0xAF1 DUP5 DUP3 DUP6 ADD PUSH2 0xAB8 JUMP JUMPDEST SWAP2 POP POP SWAP3 SWAP2 POP POP JUMP JUMPDEST PUSH32 0x4E487B7100000000000000000000000000000000000000000000000000000000 PUSH1 0x0 MSTORE PUSH1 0x22 PUSH1 0x4 MSTORE PUSH1 0x24 PUSH1 0x0 REVERT JUMPDEST PUSH1 0x0 PUSH1 0x2 DUP3 DIV SWAP1 POP PUSH1 0x1 DUP3 AND DUP1 PUSH2 0xB41 JUMPI PUSH1 0x7F DUP3 AND SWAP2 POP JUMPDEST PUSH1 0x20 DUP3 LT DUP2 SUB PUSH2 0xB54 JUMPI PUSH2 0xB53 PUSH2 0xAFA JUMP JUMPDEST JUMPDEST POP SWAP2 SWAP1 POP JUMP JUMPDEST PUSH1 0x0 DUP2 SWAP1 POP DUP2 PUSH1 0x0 MSTORE PUSH1 0x20 PUSH1 0x0 KECCAK256 SWAP1 POP SWAP2 SWAP1 POP JUMP JUMPDEST PUSH1 0x0 PUSH1 0x20 PUSH1 0x1F DUP4 ADD DIV SWAP1 POP SWAP2 SWAP1 POP JUMP JUMPDEST PUSH1 0x0 DUP3 DUP3 SHL SWAP1 POP SWAP3 SWAP2 POP POP JUMP JUMPDEST PUSH1 0x0 PUSH1 0x8 DUP4 MUL PUSH2 0xBBC PUSH32 0xFFFFFFFFFFFFFFFFFFFFFFFFFFFFFFFFFFFFFFFFFFFFFFFFFFFFFFFFFFFFFFFF DUP3 PUSH2 0xB7F JUMP JUMPDEST PUSH2 0xBC6 DUP7 DUP4 PUSH2 0xB7F JUMP JUMPDEST SWAP6 POP DUP1 NOT DUP5 AND SWAP4 POP DUP1 DUP7 AND DUP5 OR SWAP3 POP POP POP SWAP4 SWAP3 POP POP POP JUMP JUMPDEST PUSH1 0x0 DUP2 SWAP1 POP SWAP2 SWAP1 POP JUMP JUMPDEST PUSH1 0x0 DUP2 SWAP1 POP SWAP2 SWAP1 POP JUMP JUMPDEST PUSH1 0x0 PUSH2 0xC0D PUSH2 0xC08 PUSH2 0xC03 DUP5 PUSH2 0xBDE JUMP JUMPDEST PUSH2 0xBE8 JUMP JUMPDEST PUSH2 0xBDE JUMP JUMPDEST SWAP1 POP SWAP2 SWAP1 POP JUMP JUMPDEST PUSH1 0x0 DUP2 SWAP1 POP SWAP2 SWAP1 POP JUMP JUMPDEST PUSH2 0xC27 DUP4 PUSH2 0xBF2 JUMP JUMPDEST PUSH2 0xC3B PUSH2 0xC33 DUP3 PUSH2 0xC14 JUMP JUMPDEST DUP5 DUP5 SLOAD PUSH2 0xB8C JUMP JUMPDEST DUP3 SSTORE POP POP POP POP JUMP JUMPDEST PUSH1 0x0 SWAP1 JUMP JUMPDEST PUSH2 0xC50 PUSH2 0xC43 JUMP JUMPDEST PUSH2 0xC5B DUP2 DUP5 DUP5 PUSH2 0xC1E JUMP JUMPDEST POP POP POP JUMP JUMPDEST JUMPDEST DUP2 DUP2 LT ISZERO PUSH2 0xC7F JUMPI PUSH2 0xC74 PUSH1 0x0 DUP3 PUSH2 0xC48 JUMP JUMPDEST PUSH1 0x1 DUP2 ADD SWAP1 POP PUSH2 0xC61 JUMP JUMPDEST POP POP JUMP JUMPDEST PUSH1 0x1F DUP3 GT ISZERO PUSH2 0xCC4 JUMPI PUSH2 0xC95 DUP2 PUSH2 0xB5A JUMP JUMPDEST PUSH2 0xC9E DUP5 PUSH2 0xB6F JUMP JUMPDEST DUP2 ADD PUSH1 0x20 DUP6 LT ISZERO PUSH2 0xCAD JUMPI DUP2 SWAP1 POP JUMPDEST PUSH2 0xCC1 PUSH2 0xCB9 DUP6 PUSH2 0xB6F JUMP JUMPDEST DUP4 ADD DUP3 PUSH2 0xC60 JUMP JUMPDEST POP POP JUMPDEST POP POP POP JUMP JUMPDEST PUSH1 0x0 DUP3 DUP3 SHR SWAP1 POP SWAP3 SWAP2 POP POP JUMP JUMPDEST PUSH1 0x0 PUSH2 0xCE7 PUSH1 0x0 NOT DUP5 PUSH1 0x8 MUL PUSH2 0xCC9 JUMP JUMPDEST NOT DUP1 DUP4 AND SWAP2 POP POP SWAP3 SWAP2 POP POP JUMP JUMPDEST PUSH1 0x0 PUSH2 0xD00 DUP4 DUP4 PUSH2 0xCD6 JUMP JUMPDEST SWAP2 POP DUP3 PUSH1 0x2 MUL DUP3 OR SWAP1 POP SWAP3 SWAP2 POP POP JUMP JUMPDEST PUSH2 0xD19 DUP3 PUSH2 0x8CE JUMP JUMPDEST PUSH8 0xFFFFFFFFFFFFFFFF DUP2 GT ISZERO PUSH2 0xD32 JUMPI PUSH2 0xD31 PUSH2 0x6D8 JUMP JUMPDEST JUMPDEST PUSH2 0xD3C DUP3 SLOAD PUSH2 0xB29 JUMP JUMPDEST PUSH2 0xD47 DUP3 DUP3 DUP6 PUSH2 0xC83 JUMP JUMPDEST PUSH1 0x0 PUSH1 0x20 SWAP1 POP PUSH1 0x1F DUP4 GT PUSH1 0x1 DUP2 EQ PUSH2 0xD7A JUMPI PUSH1 0x0 DUP5 ISZERO PUSH2 0xD68 JUMPI DUP3 DUP8 ADD MLOAD SWAP1 POP JUMPDEST PUSH2 0xD72 DUP6 DUP3 PUSH2 0xCF4 JUMP JUMPDEST DUP7 SSTORE POP PUSH2 0xDDA JUMP JUMPDEST PUSH1 0x1F NOT DUP5 AND PUSH2 0xD88 DUP7 PUSH2 0xB5A JUMP JUMPDEST PUSH1 0x0 JUMPDEST DUP3 DUP2 LT ISZERO PUSH2 0xDB0 JUMPI DUP5 DUP10 ADD MLOAD DUP3 SSTORE PUSH1 0x1 DUP3 ADD SWAP2 POP PUSH1 0x20 DUP6 ADD SWAP5 POP PUSH1 0x20 DUP2 ADD SWAP1 POP PUSH2 0xD8B JUMP JUMPDEST DUP7 DUP4 LT ISZERO PUSH2 0xDCD JUMPI DUP5 DUP10 ADD MLOAD PUSH2 0xDC9 PUSH1 0x1F DUP10 AND DUP3 PUSH2 0xCD6 JUMP JUMPDEST DUP4 SSTORE POP JUMPDEST PUSH1 0x1 PUSH1 0x2 DUP9 MUL ADD DUP9 SSTORE POP POP POP JUMPDEST POP POP POP POP POP POP JUMP INVALID LOG2 PUSH5 0x6970667358 0x22 SLT KECCAK256 ADDRESS DUP7 PUSH32 0x6D6AFE80CF87C4BE4FC5222F7E1581162085283CBBD62F52C9F5BAABB64736F PUSH13 0x63430008110033000000000000 "},"gasEstimates":{"creation":{"codeDepositCost":"359400","executionCost":"infinite","totalCost":"infinite"},"external":{"admin()":"2514","getAllContractAddress(string)":"infinite"}},"methodIdentifiers":{"admin()":"f851a440","getAllContractAddress(string)":"c4fe354c"}},"storageLayout":{"storage":[{"astId":12,"contract":"ElectronicMedicalRecords.sol:ContractDeployer","label":"bunchOfContractAddress","offset":0,"slot":"0","type":"t_mapping(t_string_memory_ptr,t_array(t_struct(ContractAddress)6_storage)dyn_storage)"},{"astId":14,"contract":"ElectronicMedicalRecords.sol:ContractDeployer","label":"admin","offset":0,"slot":"1","type":"t_address"}],"types":{"t_address":{"encoding":"inplace","label":"address","numberOfBytes":"20"},"t_array(t_struct(ContractAddress)6_storage)dyn_storage":{"base":"t_struct(ContractAddress)6_storage","encoding":"dynamic_array","label":"struct ContractDeployer.ContractAddress[]","numberOfBytes":"32"},"t_mapping(t_string_memory_ptr,t_array(t_struct(ContractAddress)6_storage)dyn_storage)":{"encoding":"mapping","key":"t_string_memory_ptr","label":"mapping(string => struct ContractDeployer.ContractAddress[])","numberOfBytes":"32","value":"t_array(t_struct(ContractAddress)6_storage)dyn_storage"},"t_string_memory_ptr":{"encoding":"bytes","label":"string","numberOfBytes":"32"},"t_string_storage":{"encoding":"bytes","label":"string","numberOfBytes":"32"},"t_struct(ContractAddress)6_storage":{"encoding":"inplace","label":"struct ContractDeployer.ContractAddress","members":[{"astId":3,"contract":"ElectronicMedicalRecords.sol:ContractDeployer","label":"name","offset":0,"slot":"0","type":"t_string_storage"},{"astId":5,"contract":"ElectronicMedicalRecords.sol:ContractDeployer","label":"contractAddress","offset":0,"slot":"1","type":"t_address"}],"numberOfBytes":"64"}}},"userdoc":{"kind":"user","methods":{},"version":1}}