{"abi":[{"inputs":[{"internalType":"address","name":"_admin","type":"address"}],"stateMutability":"nonpayable","type":"constructor"},{"inputs":[{"internalType":"address","name":"_doctor","type":"address"},{"internalType":"string","name":"_fullname","type":"string"},{"internalType":"string","name":"_jenis","type":"string"},{"internalType":"address","name":"_add","type":"address"}],"name":"addDoctorRelation","outputs":[],"stateMutability":"nonpayable","type":"function"},{"inputs":[{"internalType":"address","name":"_doctor","type":"address"}],"name":"getDoctorRelations","outputs":[{"components":[{"internalType":"string","name":"name","type":"string"},{"internalType":"string","name":"jenis","type":"string"},{"internalType":"address","name":"add","type":"address"}],"internalType":"struct DoctorRelation.Patient[]","name":"","type":"tuple[]"}],"stateMutability":"view","type":"function"},{"inputs":[{"internalType":"address","name":"_DoctorVerificatorAddress","type":"address"}],"name":"setDoctorVerificatorAddress","outputs":[],"stateMutability":"nonpayable","type":"function"}],"devdoc":{"kind":"dev","methods":{},"version":1},"evm":{"assembly":"    /* \"ElectronicMedicalRecords.sol\":11816:12952  contract DoctorRelation {... */\n  mstore(0x40, 0x80)\n    /* \"ElectronicMedicalRecords.sol\":12072:12133  constructor(address _admin) {... */\n  callvalue\n  dup1\n  iszero\n  tag_1\n  jumpi\n  0x00\n  dup1\n  revert\ntag_1:\n  pop\n  mload(0x40)\n  sub(codesize, bytecodeSize)\n  dup1\n  bytecodeSize\n  dup4\n  codecopy\n  dup2\n  dup2\n  add\n  0x40\n  mstore\n  dup2\n  add\n  swap1\n  tag_2\n  swap2\n  swap1\n  tag_3\n  jump\t// in\ntag_2:\n    /* \"ElectronicMedicalRecords.sol\":12119:12125  _admin */\n  dup1\n    /* \"ElectronicMedicalRecords.sol\":12111:12116  admin */\n  0x00\n  dup1\n    /* \"ElectronicMedicalRecords.sol\":12111:12125  admin = _admin */\n  0x0100\n  exp\n  dup2\n  sload\n  dup2\n  0xffffffffffffffffffffffffffffffffffffffff\n  mul\n  not\n  and\n  swap1\n  dup4\n  0xffffffffffffffffffffffffffffffffffffffff\n  and\n  mul\n  or\n  swap1\n  sstore\n  pop\n    /* \"ElectronicMedicalRecords.sol\":12072:12133  constructor(address _admin) {... */\n  pop\n    /* \"ElectronicMedicalRecords.sol\":11816:12952  contract DoctorRelation {... */\n  jump(tag_6)\n    /* \"#utility.yul\":88:205   */\ntag_8:\n    /* \"#utility.yul\":197:198   */\n  0x00\n    /* \"#utility.yul\":194:195   */\n  dup1\n    /* \"#utility.yul\":187:199   */\n  revert\n    /* \"#utility.yul\":334:460   */\ntag_10:\n    /* \"#utility.yul\":371:378   */\n  0x00\n    /* \"#utility.yul\":411:453   */\n  0xffffffffffffffffffffffffffffffffffffffff\n    /* \"#utility.yul\":404:409   */\n  dup3\n    /* \"#utility.yul\":400:454   */\n  and\n    /* \"#utility.yul\":389:454   */\n  swap1\n  pop\n    /* \"#utility.yul\":334:460   */\n  swap2\n  swap1\n  pop\n  jump\t// out\n    /* \"#utility.yul\":466:562   */\ntag_11:\n    /* \"#utility.yul\":503:510   */\n  0x00\n    /* \"#utility.yul\":532:556   */\n  tag_20\n    /* \"#utility.yul\":550:555   */\n  dup3\n    /* \"#utility.yul\":532:556   */\n  tag_10\n  jump\t// in\ntag_20:\n    /* \"#utility.yul\":521:556   */\n  swap1\n  pop\n    /* \"#utility.yul\":466:562   */\n  swap2\n  swap1\n  pop\n  jump\t// out\n    /* \"#utility.yul\":568:690   */\ntag_12:\n    /* \"#utility.yul\":641:665   */\n  tag_22\n    /* \"#utility.yul\":659:664   */\n  dup2\n    /* \"#utility.yul\":641:665   */\n  tag_11\n  jump\t// in\ntag_22:\n    /* \"#utility.yul\":634:639   */\n  dup2\n    /* \"#utility.yul\":631:666   */\n  eq\n    /* \"#utility.yul\":621:684   */\n  tag_23\n  jumpi\n    /* \"#utility.yul\":680:681   */\n  0x00\n    /* \"#utility.yul\":677:678   */\n  dup1\n    /* \"#utility.yul\":670:682   */\n  revert\n    /* \"#utility.yul\":621:684   */\ntag_23:\n    /* \"#utility.yul\":568:690   */\n  pop\n  jump\t// out\n    /* \"#utility.yul\":696:839   */\ntag_13:\n    /* \"#utility.yul\":753:758   */\n  0x00\n    /* \"#utility.yul\":784:790   */\n  dup2\n    /* \"#utility.yul\":778:791   */\n  mload\n    /* \"#utility.yul\":769:791   */\n  swap1\n  pop\n    /* \"#utility.yul\":800:833   */\n  tag_25\n    /* \"#utility.yul\":827:832   */\n  dup2\n    /* \"#utility.yul\":800:833   */\n  tag_12\n  jump\t// in\ntag_25:\n    /* \"#utility.yul\":696:839   */\n  swap3\n  swap2\n  pop\n  pop\n  jump\t// out\n    /* \"#utility.yul\":845:1196   */\ntag_3:\n    /* \"#utility.yul\":915:921   */\n  0x00\n    /* \"#utility.yul\":964:966   */\n  0x20\n    /* \"#utility.yul\":952:961   */\n  dup3\n    /* \"#utility.yul\":943:950   */\n  dup5\n    /* \"#utility.yul\":939:962   */\n  sub\n    /* \"#utility.yul\":935:967   */\n  slt\n    /* \"#utility.yul\":932:1051   */\n  iszero\n  tag_27\n  jumpi\n    /* \"#utility.yul\":970:1049   */\n  tag_28\n  tag_8\n  jump\t// in\ntag_28:\n    /* \"#utility.yul\":932:1051   */\ntag_27:\n    /* \"#utility.yul\":1090:1091   */\n  0x00\n    /* \"#utility.yul\":1115:1179   */\n  tag_29\n    /* \"#utility.yul\":1171:1178   */\n  dup5\n    /* \"#utility.yul\":1162:1168   */\n  dup3\n    /* \"#utility.yul\":1151:1160   */\n  dup6\n    /* \"#utility.yul\":1147:1169   */\n  add\n    /* \"#utility.yul\":1115:1179   */\n  tag_13\n  jump\t// in\ntag_29:\n    /* \"#utility.yul\":1105:1179   */\n  swap2\n  pop\n    /* \"#utility.yul\":1061:1189   */\n  pop\n    /* \"#utility.yul\":845:1196   */\n  swap3\n  swap2\n  pop\n  pop\n  jump\t// out\n    /* \"ElectronicMedicalRecords.sol\":11816:12952  contract DoctorRelation {... */\ntag_6:\n  dataSize(sub_0)\n  dup1\n  dataOffset(sub_0)\n  0x00\n  codecopy\n  0x00\n  return\nstop\n\nsub_0: assembly {\n        /* \"ElectronicMedicalRecords.sol\":11816:12952  contract DoctorRelation {... */\n      mstore(0x40, 0x80)\n      callvalue\n      dup1\n      iszero\n      tag_1\n      jumpi\n      0x00\n      dup1\n      revert\n    tag_1:\n      pop\n      jumpi(tag_2, lt(calldatasize, 0x04))\n      shr(0xe0, calldataload(0x00))\n      dup1\n      0x1107747e\n      eq\n      tag_3\n      jumpi\n      dup1\n      0x43a0e44a\n      eq\n      tag_4\n      jumpi\n      dup1\n      0xf40941d0\n      eq\n      tag_5\n      jumpi\n    tag_2:\n      0x00\n      dup1\n      revert\n        /* \"ElectronicMedicalRecords.sol\":12141:12343  function setDoctorVerificatorAddress(address _DoctorVerificatorAddress) public {... */\n    tag_3:\n      tag_6\n      0x04\n      dup1\n      calldatasize\n      sub\n      dup2\n      add\n      swap1\n      tag_7\n      swap2\n      swap1\n      tag_8\n      jump\t// in\n    tag_7:\n      tag_9\n      jump\t// in\n    tag_6:\n      stop\n        /* \"ElectronicMedicalRecords.sol\":12351:12668  function addDoctorRelation(address _doctor, string memory _fullname, string memory _jenis, address _add) onlyDoctor(_doctor) public {... */\n    tag_4:\n      tag_10\n      0x04\n      dup1\n      calldatasize\n      sub\n      dup2\n      add\n      swap1\n      tag_11\n      swap2\n      swap1\n      tag_12\n      jump\t// in\n    tag_11:\n      tag_13\n      jump\t// in\n    tag_10:\n      stop\n        /* \"ElectronicMedicalRecords.sol\":12676:12830  function getDoctorRelations(address _doctor) public view onlyDoctor(msg.sender) returns(Patient[] memory) {... */\n    tag_5:\n      tag_14\n      0x04\n      dup1\n      calldatasize\n      sub\n      dup2\n      add\n      swap1\n      tag_15\n      swap2\n      swap1\n      tag_8\n      jump\t// in\n    tag_15:\n      tag_16\n      jump\t// in\n    tag_14:\n      mload(0x40)\n      tag_17\n      swap2\n      swap1\n      tag_18\n      jump\t// in\n    tag_17:\n      mload(0x40)\n      dup1\n      swap2\n      sub\n      swap1\n      return\n        /* \"ElectronicMedicalRecords.sol\":12141:12343  function setDoctorVerificatorAddress(address _DoctorVerificatorAddress) public {... */\n    tag_9:\n        /* \"ElectronicMedicalRecords.sol\":12253:12258  admin */\n      0x00\n      dup1\n      sload\n      swap1\n      0x0100\n      exp\n      swap1\n      div\n      0xffffffffffffffffffffffffffffffffffffffff\n      and\n        /* \"ElectronicMedicalRecords.sol\":12239:12258  msg.sender == admin */\n      0xffffffffffffffffffffffffffffffffffffffff\n      and\n        /* \"ElectronicMedicalRecords.sol\":12239:12249  msg.sender */\n      caller\n        /* \"ElectronicMedicalRecords.sol\":12239:12258  msg.sender == admin */\n      0xffffffffffffffffffffffffffffffffffffffff\n      and\n      eq\n        /* \"ElectronicMedicalRecords.sol\":12231:12259  require(msg.sender == admin) */\n      tag_20\n      jumpi\n      0x00\n      dup1\n      revert\n    tag_20:\n        /* \"ElectronicMedicalRecords.sol\":12309:12334  _DoctorVerificatorAddress */\n      dup1\n        /* \"ElectronicMedicalRecords.sol\":12270:12288  doctor_verificator */\n      0x02\n      0x00\n        /* \"ElectronicMedicalRecords.sol\":12270:12335  doctor_verificator = DoctorVerificator(_DoctorVerificatorAddress) */\n      0x0100\n      exp\n      dup2\n      sload\n      dup2\n      0xffffffffffffffffffffffffffffffffffffffff\n      mul\n      not\n      and\n      swap1\n      dup4\n      0xffffffffffffffffffffffffffffffffffffffff\n      and\n      mul\n      or\n      swap1\n      sstore\n      pop\n        /* \"ElectronicMedicalRecords.sol\":12141:12343  function setDoctorVerificatorAddress(address _DoctorVerificatorAddress) public {... */\n      pop\n      jump\t// out\n        /* \"ElectronicMedicalRecords.sol\":12351:12668  function addDoctorRelation(address _doctor, string memory _fullname, string memory _jenis, address _add) onlyDoctor(_doctor) public {... */\n    tag_13:\n        /* \"ElectronicMedicalRecords.sol\":12467:12474  _doctor */\n      dup4\n        /* \"ElectronicMedicalRecords.sol\":12894:12912  doctor_verificator */\n      0x02\n      0x00\n      swap1\n      sload\n      swap1\n      0x0100\n      exp\n      swap1\n      div\n      0xffffffffffffffffffffffffffffffffffffffff\n      and\n        /* \"ElectronicMedicalRecords.sol\":12894:12919  doctor_verificator.verify */\n      0xffffffffffffffffffffffffffffffffffffffff\n      and\n      0x63a9c3d7\n        /* \"ElectronicMedicalRecords.sol\":12920:12927  _doctor */\n      dup3\n        /* \"ElectronicMedicalRecords.sol\":12894:12928  doctor_verificator.verify(_doctor) */\n      mload(0x40)\n      dup3\n      0xffffffff\n      and\n      0xe0\n      shl\n      dup2\n      mstore\n      0x04\n      add\n      tag_22\n      swap2\n      swap1\n      tag_23\n      jump\t// in\n    tag_22:\n      0x20\n      mload(0x40)\n      dup1\n      dup4\n      sub\n      dup2\n      dup7\n      gas\n      staticcall\n      iszero\n      dup1\n      iszero\n      tag_25\n      jumpi\n      returndatasize\n      0x00\n      dup1\n      returndatacopy\n      revert(0x00, returndatasize)\n    tag_25:\n      pop\n      pop\n      pop\n      pop\n      mload(0x40)\n      returndatasize\n      not(0x1f)\n      0x1f\n      dup3\n      add\n      and\n      dup3\n      add\n      dup1\n      0x40\n      mstore\n      pop\n      dup2\n      add\n      swap1\n      tag_26\n      swap2\n      swap1\n      tag_27\n      jump\t// in\n    tag_26:\n        /* \"ElectronicMedicalRecords.sol\":12886:12929  require(doctor_verificator.verify(_doctor)) */\n      tag_28\n      jumpi\n      0x00\n      dup1\n      revert\n    tag_28:\n        /* \"ElectronicMedicalRecords.sol\":12494:12516  Patient memory patient */\n      tag_30\n      tag_31\n      jump\t// in\n    tag_30:\n        /* \"ElectronicMedicalRecords.sol\":12542:12551  _fullname */\n      dup5\n        /* \"ElectronicMedicalRecords.sol\":12527:12534  patient */\n      dup2\n        /* \"ElectronicMedicalRecords.sol\":12527:12539  patient.name */\n      0x00\n      add\n        /* \"ElectronicMedicalRecords.sol\":12527:12551  patient.name = _fullname */\n      dup2\n      swap1\n      mstore\n      pop\n        /* \"ElectronicMedicalRecords.sol\":12578:12584  _jenis */\n      dup4\n        /* \"ElectronicMedicalRecords.sol\":12562:12569  patient */\n      dup2\n        /* \"ElectronicMedicalRecords.sol\":12562:12575  patient.jenis */\n      0x20\n      add\n        /* \"ElectronicMedicalRecords.sol\":12562:12584  patient.jenis = _jenis */\n      dup2\n      swap1\n      mstore\n      pop\n        /* \"ElectronicMedicalRecords.sol\":12609:12613  _add */\n      dup3\n        /* \"ElectronicMedicalRecords.sol\":12595:12602  patient */\n      dup2\n        /* \"ElectronicMedicalRecords.sol\":12595:12606  patient.add */\n      0x40\n      add\n        /* \"ElectronicMedicalRecords.sol\":12595:12613  patient.add = _add */\n      swap1\n      0xffffffffffffffffffffffffffffffffffffffff\n      and\n      swap1\n      dup2\n      0xffffffffffffffffffffffffffffffffffffffff\n      and\n      dup2\n      mstore\n      pop\n      pop\n        /* \"ElectronicMedicalRecords.sol\":12624:12637  relatedPatien */\n      0x01\n        /* \"ElectronicMedicalRecords.sol\":12624:12646  relatedPatien[_doctor] */\n      0x00\n        /* \"ElectronicMedicalRecords.sol\":12638:12645  _doctor */\n      dup8\n        /* \"ElectronicMedicalRecords.sol\":12624:12646  relatedPatien[_doctor] */\n      0xffffffffffffffffffffffffffffffffffffffff\n      and\n      0xffffffffffffffffffffffffffffffffffffffff\n      and\n      dup2\n      mstore\n      0x20\n      add\n      swap1\n      dup2\n      mstore\n      0x20\n      add\n      0x00\n      keccak256\n        /* \"ElectronicMedicalRecords.sol\":12652:12659  patient */\n      dup2\n        /* \"ElectronicMedicalRecords.sol\":12624:12660  relatedPatien[_doctor].push(patient) */\n      swap1\n      dup1\n      0x01\n      dup2\n      sload\n      add\n      dup1\n      dup3\n      sstore\n      dup1\n      swap2\n      pop\n      pop\n      0x01\n      swap1\n      sub\n      swap1\n      0x00\n      mstore\n      keccak256(0x00, 0x20)\n      swap1\n      0x03\n      mul\n      add\n      0x00\n      swap1\n      swap2\n      swap1\n      swap2\n      swap1\n      swap2\n      pop\n      0x00\n      dup3\n      add\n      mload\n      dup2\n      0x00\n      add\n      swap1\n      dup2\n      tag_33\n      swap2\n      swap1\n      tag_34\n      jump\t// in\n    tag_33:\n      pop\n      0x20\n      dup3\n      add\n      mload\n      dup2\n      0x01\n      add\n      swap1\n      dup2\n      tag_35\n      swap2\n      swap1\n      tag_34\n      jump\t// in\n    tag_35:\n      pop\n      0x40\n      dup3\n      add\n      mload\n      dup2\n      0x02\n      add\n      exp(0x0100, 0x00)\n      dup2\n      sload\n      dup2\n      0xffffffffffffffffffffffffffffffffffffffff\n      mul\n      not\n      and\n      swap1\n      dup4\n      0xffffffffffffffffffffffffffffffffffffffff\n      and\n      mul\n      or\n      swap1\n      sstore\n      pop\n      pop\n      pop\n        /* \"ElectronicMedicalRecords.sol\":12483:12668  {... */\n      pop\n        /* \"ElectronicMedicalRecords.sol\":12351:12668  function addDoctorRelation(address _doctor, string memory _fullname, string memory _jenis, address _add) onlyDoctor(_doctor) public {... */\n      pop\n      pop\n      pop\n      pop\n      pop\n      jump\t// out\n        /* \"ElectronicMedicalRecords.sol\":12676:12830  function getDoctorRelations(address _doctor) public view onlyDoctor(msg.sender) returns(Patient[] memory) {... */\n    tag_16:\n        /* \"ElectronicMedicalRecords.sol\":12764:12780  Patient[] memory */\n      0x60\n        /* \"ElectronicMedicalRecords.sol\":12744:12754  msg.sender */\n      caller\n        /* \"ElectronicMedicalRecords.sol\":12894:12912  doctor_verificator */\n      0x02\n      0x00\n      swap1\n      sload\n      swap1\n      0x0100\n      exp\n      swap1\n      div\n      0xffffffffffffffffffffffffffffffffffffffff\n      and\n        /* \"ElectronicMedicalRecords.sol\":12894:12919  doctor_verificator.verify */\n      0xffffffffffffffffffffffffffffffffffffffff\n      and\n      0x63a9c3d7\n        /* \"ElectronicMedicalRecords.sol\":12920:12927  _doctor */\n      dup3\n        /* \"ElectronicMedicalRecords.sol\":12894:12928  doctor_verificator.verify(_doctor) */\n      mload(0x40)\n      dup3\n      0xffffffff\n      and\n      0xe0\n      shl\n      dup2\n      mstore\n      0x04\n      add\n      tag_37\n      swap2\n      swap1\n      tag_23\n      jump\t// in\n    tag_37:\n      0x20\n      mload(0x40)\n      dup1\n      dup4\n      sub\n      dup2\n      dup7\n      gas\n      staticcall\n      iszero\n      dup1\n      iszero\n      tag_39\n      jumpi\n      returndatasize\n      0x00\n      dup1\n      returndatacopy\n      revert(0x00, returndatasize)\n    tag_39:\n      pop\n      pop\n      pop\n      pop\n      mload(0x40)\n      returndatasize\n      not(0x1f)\n      0x1f\n      dup3\n      add\n      and\n      dup3\n      add\n      dup1\n      0x40\n      mstore\n      pop\n      dup2\n      add\n      swap1\n      tag_40\n      swap2\n      swap1\n      tag_27\n      jump\t// in\n    tag_40:\n        /* \"ElectronicMedicalRecords.sol\":12886:12929  require(doctor_verificator.verify(_doctor)) */\n      tag_41\n      jumpi\n      0x00\n      dup1\n      revert\n    tag_41:\n        /* \"ElectronicMedicalRecords.sol\":12800:12813  relatedPatien */\n      0x01\n        /* \"ElectronicMedicalRecords.sol\":12800:12822  relatedPatien[_doctor] */\n      0x00\n        /* \"ElectronicMedicalRecords.sol\":12814:12821  _doctor */\n      dup5\n        /* \"ElectronicMedicalRecords.sol\":12800:12822  relatedPatien[_doctor] */\n      0xffffffffffffffffffffffffffffffffffffffff\n      and\n      0xffffffffffffffffffffffffffffffffffffffff\n      and\n      dup2\n      mstore\n      0x20\n      add\n      swap1\n      dup2\n      mstore\n      0x20\n      add\n      0x00\n      keccak256\n        /* \"ElectronicMedicalRecords.sol\":12793:12822  return relatedPatien[_doctor] */\n      dup1\n      sload\n      dup1\n      0x20\n      mul\n      0x20\n      add\n      mload(0x40)\n      swap1\n      dup2\n      add\n      0x40\n      mstore\n      dup1\n      swap3\n      swap2\n      swap1\n      dup2\n      dup2\n      mstore\n      0x20\n      add\n      0x00\n      swap1\n    tag_43:\n      dup3\n      dup3\n      lt\n      iszero\n      tag_44\n      jumpi\n      dup4\n      dup3\n      swap1\n      0x00\n      mstore\n      keccak256(0x00, 0x20)\n      swap1\n      0x03\n      mul\n      add\n      mload(0x40)\n      dup1\n      0x60\n      add\n      0x40\n      mstore\n      swap1\n      dup2\n      0x00\n      dup3\n      add\n      dup1\n      sload\n      tag_46\n      swap1\n      tag_47\n      jump\t// in\n    tag_46:\n      dup1\n      0x1f\n      add\n      0x20\n      dup1\n      swap2\n      div\n      mul\n      0x20\n      add\n      mload(0x40)\n      swap1\n      dup2\n      add\n      0x40\n      mstore\n      dup1\n      swap3\n      swap2\n      swap1\n      dup2\n      dup2\n      mstore\n      0x20\n      add\n      dup3\n      dup1\n      sload\n      tag_48\n      swap1\n      tag_47\n      jump\t// in\n    tag_48:\n      dup1\n      iszero\n      tag_49\n      jumpi\n      dup1\n      0x1f\n      lt\n      tag_50\n      jumpi\n      0x0100\n      dup1\n      dup4\n      sload\n      div\n      mul\n      dup4\n      mstore\n      swap2\n      0x20\n      add\n      swap2\n      jump(tag_49)\n    tag_50:\n      dup3\n      add\n      swap2\n      swap1\n      0x00\n      mstore\n      keccak256(0x00, 0x20)\n      swap1\n    tag_51:\n      dup2\n      sload\n      dup2\n      mstore\n      swap1\n      0x01\n      add\n      swap1\n      0x20\n      add\n      dup1\n      dup4\n      gt\n      tag_51\n      jumpi\n      dup3\n      swap1\n      sub\n      0x1f\n      and\n      dup3\n      add\n      swap2\n    tag_49:\n      pop\n      pop\n      pop\n      pop\n      pop\n      dup2\n      mstore\n      0x20\n      add\n      0x01\n      dup3\n      add\n      dup1\n      sload\n      tag_52\n      swap1\n      tag_47\n      jump\t// in\n    tag_52:\n      dup1\n      0x1f\n      add\n      0x20\n      dup1\n      swap2\n      div\n      mul\n      0x20\n      add\n      mload(0x40)\n      swap1\n      dup2\n      add\n      0x40\n      mstore\n      dup1\n      swap3\n      swap2\n      swap1\n      dup2\n      dup2\n      mstore\n      0x20\n      add\n      dup3\n      dup1\n      sload\n      tag_53\n      swap1\n      tag_47\n      jump\t// in\n    tag_53:\n      dup1\n      iszero\n      tag_54\n      jumpi\n      dup1\n      0x1f\n      lt\n      tag_55\n      jumpi\n      0x0100\n      dup1\n      dup4\n      sload\n      div\n      mul\n      dup4\n      mstore\n      swap2\n      0x20\n      add\n      swap2\n      jump(tag_54)\n    tag_55:\n      dup3\n      add\n      swap2\n      swap1\n      0x00\n      mstore\n      keccak256(0x00, 0x20)\n      swap1\n    tag_56:\n      dup2\n      sload\n      dup2\n      mstore\n      swap1\n      0x01\n      add\n      swap1\n      0x20\n      add\n      dup1\n      dup4\n      gt\n      tag_56\n      jumpi\n      dup3\n      swap1\n      sub\n      0x1f\n      and\n      dup3\n      add\n      swap2\n    tag_54:\n      pop\n      pop\n      pop\n      pop\n      pop\n      dup2\n      mstore\n      0x20\n      add\n      0x02\n      dup3\n      add\n      0x00\n      swap1\n      sload\n      swap1\n      0x0100\n      exp\n      swap1\n      div\n      0xffffffffffffffffffffffffffffffffffffffff\n      and\n      0xffffffffffffffffffffffffffffffffffffffff\n      and\n      0xffffffffffffffffffffffffffffffffffffffff\n      and\n      dup2\n      mstore\n      pop\n      pop\n      dup2\n      mstore\n      0x20\n      add\n      swap1\n      0x01\n      add\n      swap1\n      jump(tag_43)\n    tag_44:\n      pop\n      pop\n      pop\n      pop\n      swap2\n      pop\n        /* \"ElectronicMedicalRecords.sol\":12676:12830  function getDoctorRelations(address _doctor) public view onlyDoctor(msg.sender) returns(Patient[] memory) {... */\n      pop\n      swap2\n      swap1\n      pop\n      jump\t// out\n    tag_31:\n      mload(0x40)\n      dup1\n      0x60\n      add\n      0x40\n      mstore\n      dup1\n      0x60\n      dup2\n      mstore\n      0x20\n      add\n      0x60\n      dup2\n      mstore\n      0x20\n      add\n      and(0xffffffffffffffffffffffffffffffffffffffff, 0x00)\n      dup2\n      mstore\n      pop\n      swap1\n      jump\t// out\n        /* \"#utility.yul\":7:82   */\n    tag_57:\n        /* \"#utility.yul\":40:46   */\n      0x00\n        /* \"#utility.yul\":73:75   */\n      0x40\n        /* \"#utility.yul\":67:76   */\n      mload\n        /* \"#utility.yul\":57:76   */\n      swap1\n      pop\n        /* \"#utility.yul\":7:82   */\n      swap1\n      jump\t// out\n        /* \"#utility.yul\":88:205   */\n    tag_58:\n        /* \"#utility.yul\":197:198   */\n      0x00\n        /* \"#utility.yul\":194:195   */\n      dup1\n        /* \"#utility.yul\":187:199   */\n      revert\n        /* \"#utility.yul\":211:328   */\n    tag_59:\n        /* \"#utility.yul\":320:321   */\n      0x00\n        /* \"#utility.yul\":317:318   */\n      dup1\n        /* \"#utility.yul\":310:322   */\n      revert\n        /* \"#utility.yul\":334:460   */\n    tag_60:\n        /* \"#utility.yul\":371:378   */\n      0x00\n        /* \"#utility.yul\":411:453   */\n      0xffffffffffffffffffffffffffffffffffffffff\n        /* \"#utility.yul\":404:409   */\n      dup3\n        /* \"#utility.yul\":400:454   */\n      and\n        /* \"#utility.yul\":389:454   */\n      swap1\n      pop\n        /* \"#utility.yul\":334:460   */\n      swap2\n      swap1\n      pop\n      jump\t// out\n        /* \"#utility.yul\":466:562   */\n    tag_61:\n        /* \"#utility.yul\":503:510   */\n      0x00\n        /* \"#utility.yul\":532:556   */\n      tag_113\n        /* \"#utility.yul\":550:555   */\n      dup3\n        /* \"#utility.yul\":532:556   */\n      tag_60\n      jump\t// in\n    tag_113:\n        /* \"#utility.yul\":521:556   */\n      swap1\n      pop\n        /* \"#utility.yul\":466:562   */\n      swap2\n      swap1\n      pop\n      jump\t// out\n        /* \"#utility.yul\":568:690   */\n    tag_62:\n        /* \"#utility.yul\":641:665   */\n      tag_115\n        /* \"#utility.yul\":659:664   */\n      dup2\n        /* \"#utility.yul\":641:665   */\n      tag_61\n      jump\t// in\n    tag_115:\n        /* \"#utility.yul\":634:639   */\n      dup2\n        /* \"#utility.yul\":631:666   */\n      eq\n        /* \"#utility.yul\":621:684   */\n      tag_116\n      jumpi\n        /* \"#utility.yul\":680:681   */\n      0x00\n        /* \"#utility.yul\":677:678   */\n      dup1\n        /* \"#utility.yul\":670:682   */\n      revert\n        /* \"#utility.yul\":621:684   */\n    tag_116:\n        /* \"#utility.yul\":568:690   */\n      pop\n      jump\t// out\n        /* \"#utility.yul\":696:835   */\n    tag_63:\n        /* \"#utility.yul\":742:747   */\n      0x00\n        /* \"#utility.yul\":780:786   */\n      dup2\n        /* \"#utility.yul\":767:787   */\n      calldataload\n        /* \"#utility.yul\":758:787   */\n      swap1\n      pop\n        /* \"#utility.yul\":796:829   */\n      tag_118\n        /* \"#utility.yul\":823:828   */\n      dup2\n        /* \"#utility.yul\":796:829   */\n      tag_62\n      jump\t// in\n    tag_118:\n        /* \"#utility.yul\":696:835   */\n      swap3\n      swap2\n      pop\n      pop\n      jump\t// out\n        /* \"#utility.yul\":841:1170   */\n    tag_8:\n        /* \"#utility.yul\":900:906   */\n      0x00\n        /* \"#utility.yul\":949:951   */\n      0x20\n        /* \"#utility.yul\":937:946   */\n      dup3\n        /* \"#utility.yul\":928:935   */\n      dup5\n        /* \"#utility.yul\":924:947   */\n      sub\n        /* \"#utility.yul\":920:952   */\n      slt\n        /* \"#utility.yul\":917:1036   */\n      iszero\n      tag_120\n      jumpi\n        /* \"#utility.yul\":955:1034   */\n      tag_121\n      tag_58\n      jump\t// in\n    tag_121:\n        /* \"#utility.yul\":917:1036   */\n    tag_120:\n        /* \"#utility.yul\":1075:1076   */\n      0x00\n        /* \"#utility.yul\":1100:1153   */\n      tag_122\n        /* \"#utility.yul\":1145:1152   */\n      dup5\n        /* \"#utility.yul\":1136:1142   */\n      dup3\n        /* \"#utility.yul\":1125:1134   */\n      dup6\n        /* \"#utility.yul\":1121:1143   */\n      add\n        /* \"#utility.yul\":1100:1153   */\n      tag_63\n      jump\t// in\n    tag_122:\n        /* \"#utility.yul\":1090:1153   */\n      swap2\n      pop\n        /* \"#utility.yul\":1046:1163   */\n      pop\n        /* \"#utility.yul\":841:1170   */\n      swap3\n      swap2\n      pop\n      pop\n      jump\t// out\n        /* \"#utility.yul\":1176:1293   */\n    tag_64:\n        /* \"#utility.yul\":1285:1286   */\n      0x00\n        /* \"#utility.yul\":1282:1283   */\n      dup1\n        /* \"#utility.yul\":1275:1287   */\n      revert\n        /* \"#utility.yul\":1299:1416   */\n    tag_65:\n        /* \"#utility.yul\":1408:1409   */\n      0x00\n        /* \"#utility.yul\":1405:1406   */\n      dup1\n        /* \"#utility.yul\":1398:1410   */\n      revert\n        /* \"#utility.yul\":1422:1524   */\n    tag_66:\n        /* \"#utility.yul\":1463:1469   */\n      0x00\n        /* \"#utility.yul\":1514:1516   */\n      0x1f\n        /* \"#utility.yul\":1510:1517   */\n      not\n        /* \"#utility.yul\":1505:1507   */\n      0x1f\n        /* \"#utility.yul\":1498:1503   */\n      dup4\n        /* \"#utility.yul\":1494:1508   */\n      add\n        /* \"#utility.yul\":1490:1518   */\n      and\n        /* \"#utility.yul\":1480:1518   */\n      swap1\n      pop\n        /* \"#utility.yul\":1422:1524   */\n      swap2\n      swap1\n      pop\n      jump\t// out\n        /* \"#utility.yul\":1530:1710   */\n    tag_67:\n        /* \"#utility.yul\":1578:1655   */\n      0x4e487b7100000000000000000000000000000000000000000000000000000000\n        /* \"#utility.yul\":1575:1576   */\n      0x00\n        /* \"#utility.yul\":1568:1656   */\n      mstore\n        /* \"#utility.yul\":1675:1679   */\n      0x41\n        /* \"#utility.yul\":1672:1673   */\n      0x04\n        /* \"#utility.yul\":1665:1680   */\n      mstore\n        /* \"#utility.yul\":1699:1703   */\n      0x24\n        /* \"#utility.yul\":1696:1697   */\n      0x00\n        /* \"#utility.yul\":1689:1704   */\n      revert\n        /* \"#utility.yul\":1716:1997   */\n    tag_68:\n        /* \"#utility.yul\":1799:1826   */\n      tag_128\n        /* \"#utility.yul\":1821:1825   */\n      dup3\n        /* \"#utility.yul\":1799:1826   */\n      tag_66\n      jump\t// in\n    tag_128:\n        /* \"#utility.yul\":1791:1797   */\n      dup2\n        /* \"#utility.yul\":1787:1827   */\n      add\n        /* \"#utility.yul\":1929:1935   */\n      dup2\n        /* \"#utility.yul\":1917:1927   */\n      dup2\n        /* \"#utility.yul\":1914:1936   */\n      lt\n        /* \"#utility.yul\":1893:1911   */\n      0xffffffffffffffff\n        /* \"#utility.yul\":1881:1891   */\n      dup3\n        /* \"#utility.yul\":1878:1912   */\n      gt\n        /* \"#utility.yul\":1875:1937   */\n      or\n        /* \"#utility.yul\":1872:1960   */\n      iszero\n      tag_129\n      jumpi\n        /* \"#utility.yul\":1940:1958   */\n      tag_130\n      tag_67\n      jump\t// in\n    tag_130:\n        /* \"#utility.yul\":1872:1960   */\n    tag_129:\n        /* \"#utility.yul\":1980:1990   */\n      dup1\n        /* \"#utility.yul\":1976:1978   */\n      0x40\n        /* \"#utility.yul\":1969:1991   */\n      mstore\n        /* \"#utility.yul\":1759:1997   */\n      pop\n        /* \"#utility.yul\":1716:1997   */\n      pop\n      pop\n      jump\t// out\n        /* \"#utility.yul\":2003:2132   */\n    tag_69:\n        /* \"#utility.yul\":2037:2043   */\n      0x00\n        /* \"#utility.yul\":2064:2084   */\n      tag_132\n      tag_57\n      jump\t// in\n    tag_132:\n        /* \"#utility.yul\":2054:2084   */\n      swap1\n      pop\n        /* \"#utility.yul\":2093:2126   */\n      tag_133\n        /* \"#utility.yul\":2121:2125   */\n      dup3\n        /* \"#utility.yul\":2113:2119   */\n      dup3\n        /* \"#utility.yul\":2093:2126   */\n      tag_68\n      jump\t// in\n    tag_133:\n        /* \"#utility.yul\":2003:2132   */\n      swap2\n      swap1\n      pop\n      jump\t// out\n        /* \"#utility.yul\":2138:2446   */\n    tag_70:\n        /* \"#utility.yul\":2200:2204   */\n      0x00\n        /* \"#utility.yul\":2290:2308   */\n      0xffffffffffffffff\n        /* \"#utility.yul\":2282:2288   */\n      dup3\n        /* \"#utility.yul\":2279:2309   */\n      gt\n        /* \"#utility.yul\":2276:2332   */\n      iszero\n      tag_135\n      jumpi\n        /* \"#utility.yul\":2312:2330   */\n      tag_136\n      tag_67\n      jump\t// in\n    tag_136:\n        /* \"#utility.yul\":2276:2332   */\n    tag_135:\n        /* \"#utility.yul\":2350:2379   */\n      tag_137\n        /* \"#utility.yul\":2372:2378   */\n      dup3\n        /* \"#utility.yul\":2350:2379   */\n      tag_66\n      jump\t// in\n    tag_137:\n        /* \"#utility.yul\":2342:2379   */\n      swap1\n      pop\n        /* \"#utility.yul\":2434:2438   */\n      0x20\n        /* \"#utility.yul\":2428:2432   */\n      dup2\n        /* \"#utility.yul\":2424:2439   */\n      add\n        /* \"#utility.yul\":2416:2439   */\n      swap1\n      pop\n        /* \"#utility.yul\":2138:2446   */\n      swap2\n      swap1\n      pop\n      jump\t// out\n        /* \"#utility.yul\":2452:2598   */\n    tag_71:\n        /* \"#utility.yul\":2549:2555   */\n      dup3\n        /* \"#utility.yul\":2544:2547   */\n      dup2\n        /* \"#utility.yul\":2539:2542   */\n      dup4\n        /* \"#utility.yul\":2526:2556   */\n      calldatacopy\n        /* \"#utility.yul\":2590:2591   */\n      0x00\n        /* \"#utility.yul\":2581:2587   */\n      dup4\n        /* \"#utility.yul\":2576:2579   */\n      dup4\n        /* \"#utility.yul\":2572:2588   */\n      add\n        /* \"#utility.yul\":2565:2592   */\n      mstore\n        /* \"#utility.yul\":2452:2598   */\n      pop\n      pop\n      pop\n      jump\t// out\n        /* \"#utility.yul\":2604:3029   */\n    tag_72:\n        /* \"#utility.yul\":2682:2687   */\n      0x00\n        /* \"#utility.yul\":2707:2773   */\n      tag_140\n        /* \"#utility.yul\":2723:2772   */\n      tag_141\n        /* \"#utility.yul\":2765:2771   */\n      dup5\n        /* \"#utility.yul\":2723:2772   */\n      tag_70\n      jump\t// in\n    tag_141:\n        /* \"#utility.yul\":2707:2773   */\n      tag_69\n      jump\t// in\n    tag_140:\n        /* \"#utility.yul\":2698:2773   */\n      swap1\n      pop\n        /* \"#utility.yul\":2796:2802   */\n      dup3\n        /* \"#utility.yul\":2789:2794   */\n      dup2\n        /* \"#utility.yul\":2782:2803   */\n      mstore\n        /* \"#utility.yul\":2834:2838   */\n      0x20\n        /* \"#utility.yul\":2827:2832   */\n      dup2\n        /* \"#utility.yul\":2823:2839   */\n      add\n        /* \"#utility.yul\":2872:2875   */\n      dup5\n        /* \"#utility.yul\":2863:2869   */\n      dup5\n        /* \"#utility.yul\":2858:2861   */\n      dup5\n        /* \"#utility.yul\":2854:2870   */\n      add\n        /* \"#utility.yul\":2851:2876   */\n      gt\n        /* \"#utility.yul\":2848:2960   */\n      iszero\n      tag_142\n      jumpi\n        /* \"#utility.yul\":2879:2958   */\n      tag_143\n      tag_65\n      jump\t// in\n    tag_143:\n        /* \"#utility.yul\":2848:2960   */\n    tag_142:\n        /* \"#utility.yul\":2969:3023   */\n      tag_144\n        /* \"#utility.yul\":3016:3022   */\n      dup5\n        /* \"#utility.yul\":3011:3014   */\n      dup3\n        /* \"#utility.yul\":3006:3009   */\n      dup6\n        /* \"#utility.yul\":2969:3023   */\n      tag_71\n      jump\t// in\n    tag_144:\n        /* \"#utility.yul\":2688:3029   */\n      pop\n        /* \"#utility.yul\":2604:3029   */\n      swap4\n      swap3\n      pop\n      pop\n      pop\n      jump\t// out\n        /* \"#utility.yul\":3049:3389   */\n    tag_73:\n        /* \"#utility.yul\":3105:3110   */\n      0x00\n        /* \"#utility.yul\":3154:3157   */\n      dup3\n        /* \"#utility.yul\":3147:3151   */\n      0x1f\n        /* \"#utility.yul\":3139:3145   */\n      dup4\n        /* \"#utility.yul\":3135:3152   */\n      add\n        /* \"#utility.yul\":3131:3158   */\n      slt\n        /* \"#utility.yul\":3121:3243   */\n      tag_146\n      jumpi\n        /* \"#utility.yul\":3162:3241   */\n      tag_147\n      tag_64\n      jump\t// in\n    tag_147:\n        /* \"#utility.yul\":3121:3243   */\n    tag_146:\n        /* \"#utility.yul\":3279:3285   */\n      dup2\n        /* \"#utility.yul\":3266:3286   */\n      calldataload\n        /* \"#utility.yul\":3304:3383   */\n      tag_148\n        /* \"#utility.yul\":3379:3382   */\n      dup5\n        /* \"#utility.yul\":3371:3377   */\n      dup3\n        /* \"#utility.yul\":3364:3368   */\n      0x20\n        /* \"#utility.yul\":3356:3362   */\n      dup7\n        /* \"#utility.yul\":3352:3369   */\n      add\n        /* \"#utility.yul\":3304:3383   */\n      tag_72\n      jump\t// in\n    tag_148:\n        /* \"#utility.yul\":3295:3383   */\n      swap2\n      pop\n        /* \"#utility.yul\":3111:3389   */\n      pop\n        /* \"#utility.yul\":3049:3389   */\n      swap3\n      swap2\n      pop\n      pop\n      jump\t// out\n        /* \"#utility.yul\":3395:4520   */\n    tag_12:\n        /* \"#utility.yul\":3501:3507   */\n      0x00\n        /* \"#utility.yul\":3509:3515   */\n      dup1\n        /* \"#utility.yul\":3517:3523   */\n      0x00\n        /* \"#utility.yul\":3525:3531   */\n      dup1\n        /* \"#utility.yul\":3574:3577   */\n      0x80\n        /* \"#utility.yul\":3562:3571   */\n      dup6\n        /* \"#utility.yul\":3553:3560   */\n      dup8\n        /* \"#utility.yul\":3549:3572   */\n      sub\n        /* \"#utility.yul\":3545:3578   */\n      slt\n        /* \"#utility.yul\":3542:3662   */\n      iszero\n      tag_150\n      jumpi\n        /* \"#utility.yul\":3581:3660   */\n      tag_151\n      tag_58\n      jump\t// in\n    tag_151:\n        /* \"#utility.yul\":3542:3662   */\n    tag_150:\n        /* \"#utility.yul\":3701:3702   */\n      0x00\n        /* \"#utility.yul\":3726:3779   */\n      tag_152\n        /* \"#utility.yul\":3771:3778   */\n      dup8\n        /* \"#utility.yul\":3762:3768   */\n      dup3\n        /* \"#utility.yul\":3751:3760   */\n      dup9\n        /* \"#utility.yul\":3747:3769   */\n      add\n        /* \"#utility.yul\":3726:3779   */\n      tag_63\n      jump\t// in\n    tag_152:\n        /* \"#utility.yul\":3716:3779   */\n      swap5\n      pop\n        /* \"#utility.yul\":3672:3789   */\n      pop\n        /* \"#utility.yul\":3856:3858   */\n      0x20\n        /* \"#utility.yul\":3845:3854   */\n      dup6\n        /* \"#utility.yul\":3841:3859   */\n      add\n        /* \"#utility.yul\":3828:3860   */\n      calldataload\n        /* \"#utility.yul\":3887:3905   */\n      0xffffffffffffffff\n        /* \"#utility.yul\":3879:3885   */\n      dup2\n        /* \"#utility.yul\":3876:3906   */\n      gt\n        /* \"#utility.yul\":3873:3990   */\n      iszero\n      tag_153\n      jumpi\n        /* \"#utility.yul\":3909:3988   */\n      tag_154\n      tag_59\n      jump\t// in\n    tag_154:\n        /* \"#utility.yul\":3873:3990   */\n    tag_153:\n        /* \"#utility.yul\":4014:4077   */\n      tag_155\n        /* \"#utility.yul\":4069:4076   */\n      dup8\n        /* \"#utility.yul\":4060:4066   */\n      dup3\n        /* \"#utility.yul\":4049:4058   */\n      dup9\n        /* \"#utility.yul\":4045:4067   */\n      add\n        /* \"#utility.yul\":4014:4077   */\n      tag_73\n      jump\t// in\n    tag_155:\n        /* \"#utility.yul\":4004:4077   */\n      swap4\n      pop\n        /* \"#utility.yul\":3799:4087   */\n      pop\n        /* \"#utility.yul\":4154:4156   */\n      0x40\n        /* \"#utility.yul\":4143:4152   */\n      dup6\n        /* \"#utility.yul\":4139:4157   */\n      add\n        /* \"#utility.yul\":4126:4158   */\n      calldataload\n        /* \"#utility.yul\":4185:4203   */\n      0xffffffffffffffff\n        /* \"#utility.yul\":4177:4183   */\n      dup2\n        /* \"#utility.yul\":4174:4204   */\n      gt\n        /* \"#utility.yul\":4171:4288   */\n      iszero\n      tag_156\n      jumpi\n        /* \"#utility.yul\":4207:4286   */\n      tag_157\n      tag_59\n      jump\t// in\n    tag_157:\n        /* \"#utility.yul\":4171:4288   */\n    tag_156:\n        /* \"#utility.yul\":4312:4375   */\n      tag_158\n        /* \"#utility.yul\":4367:4374   */\n      dup8\n        /* \"#utility.yul\":4358:4364   */\n      dup3\n        /* \"#utility.yul\":4347:4356   */\n      dup9\n        /* \"#utility.yul\":4343:4365   */\n      add\n        /* \"#utility.yul\":4312:4375   */\n      tag_73\n      jump\t// in\n    tag_158:\n        /* \"#utility.yul\":4302:4375   */\n      swap3\n      pop\n        /* \"#utility.yul\":4097:4385   */\n      pop\n        /* \"#utility.yul\":4424:4426   */\n      0x60\n        /* \"#utility.yul\":4450:4503   */\n      tag_159\n        /* \"#utility.yul\":4495:4502   */\n      dup8\n        /* \"#utility.yul\":4486:4492   */\n      dup3\n        /* \"#utility.yul\":4475:4484   */\n      dup9\n        /* \"#utility.yul\":4471:4493   */\n      add\n        /* \"#utility.yul\":4450:4503   */\n      tag_63\n      jump\t// in\n    tag_159:\n        /* \"#utility.yul\":4440:4503   */\n      swap2\n      pop\n        /* \"#utility.yul\":4395:4513   */\n      pop\n        /* \"#utility.yul\":3395:4520   */\n      swap3\n      swap6\n      swap2\n      swap5\n      pop\n      swap3\n      pop\n      jump\t// out\n        /* \"#utility.yul\":4526:4665   */\n    tag_74:\n        /* \"#utility.yul\":4618:4624   */\n      0x00\n        /* \"#utility.yul\":4652:4657   */\n      dup2\n        /* \"#utility.yul\":4646:4658   */\n      mload\n        /* \"#utility.yul\":4636:4658   */\n      swap1\n      pop\n        /* \"#utility.yul\":4526:4665   */\n      swap2\n      swap1\n      pop\n      jump\t// out\n        /* \"#utility.yul\":4671:4880   */\n    tag_75:\n        /* \"#utility.yul\":4795:4806   */\n      0x00\n        /* \"#utility.yul\":4829:4835   */\n      dup3\n        /* \"#utility.yul\":4824:4827   */\n      dup3\n        /* \"#utility.yul\":4817:4836   */\n      mstore\n        /* \"#utility.yul\":4869:4873   */\n      0x20\n        /* \"#utility.yul\":4864:4867   */\n      dup3\n        /* \"#utility.yul\":4860:4874   */\n      add\n        /* \"#utility.yul\":4845:4874   */\n      swap1\n      pop\n        /* \"#utility.yul\":4671:4880   */\n      swap3\n      swap2\n      pop\n      pop\n      jump\t// out\n        /* \"#utility.yul\":4886:5043   */\n    tag_76:\n        /* \"#utility.yul\":4978:4982   */\n      0x00\n        /* \"#utility.yul\":5001:5004   */\n      dup2\n        /* \"#utility.yul\":4993:5004   */\n      swap1\n      pop\n        /* \"#utility.yul\":5031:5035   */\n      0x20\n        /* \"#utility.yul\":5026:5029   */\n      dup3\n        /* \"#utility.yul\":5022:5036   */\n      add\n        /* \"#utility.yul\":5014:5036   */\n      swap1\n      pop\n        /* \"#utility.yul\":4886:5043   */\n      swap2\n      swap1\n      pop\n      jump\t// out\n        /* \"#utility.yul\":5049:5148   */\n    tag_77:\n        /* \"#utility.yul\":5101:5107   */\n      0x00\n        /* \"#utility.yul\":5135:5140   */\n      dup2\n        /* \"#utility.yul\":5129:5141   */\n      mload\n        /* \"#utility.yul\":5119:5141   */\n      swap1\n      pop\n        /* \"#utility.yul\":5049:5148   */\n      swap2\n      swap1\n      pop\n      jump\t// out\n        /* \"#utility.yul\":5154:5313   */\n    tag_78:\n        /* \"#utility.yul\":5228:5239   */\n      0x00\n        /* \"#utility.yul\":5262:5268   */\n      dup3\n        /* \"#utility.yul\":5257:5260   */\n      dup3\n        /* \"#utility.yul\":5250:5269   */\n      mstore\n        /* \"#utility.yul\":5302:5306   */\n      0x20\n        /* \"#utility.yul\":5297:5300   */\n      dup3\n        /* \"#utility.yul\":5293:5307   */\n      add\n        /* \"#utility.yul\":5278:5307   */\n      swap1\n      pop\n        /* \"#utility.yul\":5154:5313   */\n      swap3\n      swap2\n      pop\n      pop\n      jump\t// out\n        /* \"#utility.yul\":5319:5565   */\n    tag_79:\n        /* \"#utility.yul\":5400:5401   */\n      0x00\n        /* \"#utility.yul\":5410:5523   */\n    tag_166:\n        /* \"#utility.yul\":5424:5430   */\n      dup4\n        /* \"#utility.yul\":5421:5422   */\n      dup2\n        /* \"#utility.yul\":5418:5431   */\n      lt\n        /* \"#utility.yul\":5410:5523   */\n      iszero\n      tag_168\n      jumpi\n        /* \"#utility.yul\":5509:5510   */\n      dup1\n        /* \"#utility.yul\":5504:5507   */\n      dup3\n        /* \"#utility.yul\":5500:5511   */\n      add\n        /* \"#utility.yul\":5494:5512   */\n      mload\n        /* \"#utility.yul\":5490:5491   */\n      dup2\n        /* \"#utility.yul\":5485:5488   */\n      dup5\n        /* \"#utility.yul\":5481:5492   */\n      add\n        /* \"#utility.yul\":5474:5513   */\n      mstore\n        /* \"#utility.yul\":5446:5448   */\n      0x20\n        /* \"#utility.yul\":5443:5444   */\n      dup2\n        /* \"#utility.yul\":5439:5449   */\n      add\n        /* \"#utility.yul\":5434:5449   */\n      swap1\n      pop\n        /* \"#utility.yul\":5410:5523   */\n      jump(tag_166)\n    tag_168:\n        /* \"#utility.yul\":5557:5558   */\n      0x00\n        /* \"#utility.yul\":5548:5554   */\n      dup5\n        /* \"#utility.yul\":5543:5546   */\n      dup5\n        /* \"#utility.yul\":5539:5555   */\n      add\n        /* \"#utility.yul\":5532:5559   */\n      mstore\n        /* \"#utility.yul\":5381:5565   */\n      pop\n        /* \"#utility.yul\":5319:5565   */\n      pop\n      pop\n      pop\n      jump\t// out\n        /* \"#utility.yul\":5571:5928   */\n    tag_80:\n        /* \"#utility.yul\":5649:5652   */\n      0x00\n        /* \"#utility.yul\":5677:5716   */\n      tag_170\n        /* \"#utility.yul\":5710:5715   */\n      dup3\n        /* \"#utility.yul\":5677:5716   */\n      tag_77\n      jump\t// in\n    tag_170:\n        /* \"#utility.yul\":5732:5793   */\n      tag_171\n        /* \"#utility.yul\":5786:5792   */\n      dup2\n        /* \"#utility.yul\":5781:5784   */\n      dup6\n        /* \"#utility.yul\":5732:5793   */\n      tag_78\n      jump\t// in\n    tag_171:\n        /* \"#utility.yul\":5725:5793   */\n      swap4\n      pop\n        /* \"#utility.yul\":5802:5867   */\n      tag_172\n        /* \"#utility.yul\":5860:5866   */\n      dup2\n        /* \"#utility.yul\":5855:5858   */\n      dup6\n        /* \"#utility.yul\":5848:5852   */\n      0x20\n        /* \"#utility.yul\":5841:5846   */\n      dup7\n        /* \"#utility.yul\":5837:5853   */\n      add\n        /* \"#utility.yul\":5802:5867   */\n      tag_79\n      jump\t// in\n    tag_172:\n        /* \"#utility.yul\":5892:5921   */\n      tag_173\n        /* \"#utility.yul\":5914:5920   */\n      dup2\n        /* \"#utility.yul\":5892:5921   */\n      tag_66\n      jump\t// in\n    tag_173:\n        /* \"#utility.yul\":5887:5890   */\n      dup5\n        /* \"#utility.yul\":5883:5922   */\n      add\n        /* \"#utility.yul\":5876:5922   */\n      swap2\n      pop\n        /* \"#utility.yul\":5653:5928   */\n      pop\n        /* \"#utility.yul\":5571:5928   */\n      swap3\n      swap2\n      pop\n      pop\n      jump\t// out\n        /* \"#utility.yul\":5934:6042   */\n    tag_81:\n        /* \"#utility.yul\":6011:6035   */\n      tag_175\n        /* \"#utility.yul\":6029:6034   */\n      dup2\n        /* \"#utility.yul\":6011:6035   */\n      tag_61\n      jump\t// in\n    tag_175:\n        /* \"#utility.yul\":6006:6009   */\n      dup3\n        /* \"#utility.yul\":5999:6036   */\n      mstore\n        /* \"#utility.yul\":5934:6042   */\n      pop\n      pop\n      jump\t// out\n        /* \"#utility.yul\":6118:6959   */\n    tag_82:\n        /* \"#utility.yul\":6227:6230   */\n      0x00\n        /* \"#utility.yul\":6263:6267   */\n      0x60\n        /* \"#utility.yul\":6258:6261   */\n      dup4\n        /* \"#utility.yul\":6254:6268   */\n      add\n        /* \"#utility.yul\":6350:6354   */\n      0x00\n        /* \"#utility.yul\":6343:6348   */\n      dup4\n        /* \"#utility.yul\":6339:6355   */\n      add\n        /* \"#utility.yul\":6333:6356   */\n      mload\n        /* \"#utility.yul\":6403:6406   */\n      dup5\n        /* \"#utility.yul\":6397:6401   */\n      dup3\n        /* \"#utility.yul\":6393:6407   */\n      sub\n        /* \"#utility.yul\":6386:6390   */\n      0x00\n        /* \"#utility.yul\":6381:6384   */\n      dup7\n        /* \"#utility.yul\":6377:6391   */\n      add\n        /* \"#utility.yul\":6370:6408   */\n      mstore\n        /* \"#utility.yul\":6429:6502   */\n      tag_177\n        /* \"#utility.yul\":6497:6501   */\n      dup3\n        /* \"#utility.yul\":6483:6495   */\n      dup3\n        /* \"#utility.yul\":6429:6502   */\n      tag_80\n      jump\t// in\n    tag_177:\n        /* \"#utility.yul\":6421:6502   */\n      swap2\n      pop\n        /* \"#utility.yul\":6278:6513   */\n      pop\n        /* \"#utility.yul\":6596:6600   */\n      0x20\n        /* \"#utility.yul\":6589:6594   */\n      dup4\n        /* \"#utility.yul\":6585:6601   */\n      add\n        /* \"#utility.yul\":6579:6602   */\n      mload\n        /* \"#utility.yul\":6649:6652   */\n      dup5\n        /* \"#utility.yul\":6643:6647   */\n      dup3\n        /* \"#utility.yul\":6639:6653   */\n      sub\n        /* \"#utility.yul\":6632:6636   */\n      0x20\n        /* \"#utility.yul\":6627:6630   */\n      dup7\n        /* \"#utility.yul\":6623:6637   */\n      add\n        /* \"#utility.yul\":6616:6654   */\n      mstore\n        /* \"#utility.yul\":6675:6748   */\n      tag_178\n        /* \"#utility.yul\":6743:6747   */\n      dup3\n        /* \"#utility.yul\":6729:6741   */\n      dup3\n        /* \"#utility.yul\":6675:6748   */\n      tag_80\n      jump\t// in\n    tag_178:\n        /* \"#utility.yul\":6667:6748   */\n      swap2\n      pop\n        /* \"#utility.yul\":6523:6759   */\n      pop\n        /* \"#utility.yul\":6840:6844   */\n      0x40\n        /* \"#utility.yul\":6833:6838   */\n      dup4\n        /* \"#utility.yul\":6829:6845   */\n      add\n        /* \"#utility.yul\":6823:6846   */\n      mload\n        /* \"#utility.yul\":6859:6922   */\n      tag_179\n        /* \"#utility.yul\":6916:6920   */\n      0x40\n        /* \"#utility.yul\":6911:6914   */\n      dup7\n        /* \"#utility.yul\":6907:6921   */\n      add\n        /* \"#utility.yul\":6893:6905   */\n      dup3\n        /* \"#utility.yul\":6859:6922   */\n      tag_81\n      jump\t// in\n    tag_179:\n        /* \"#utility.yul\":6769:6932   */\n      pop\n        /* \"#utility.yul\":6949:6953   */\n      dup1\n        /* \"#utility.yul\":6942:6953   */\n      swap2\n      pop\n        /* \"#utility.yul\":6232:6959   */\n      pop\n        /* \"#utility.yul\":6118:6959   */\n      swap3\n      swap2\n      pop\n      pop\n      jump\t// out\n        /* \"#utility.yul\":6965:7221   */\n    tag_83:\n        /* \"#utility.yul\":7084:7094   */\n      0x00\n        /* \"#utility.yul\":7119:7215   */\n      tag_181\n        /* \"#utility.yul\":7211:7214   */\n      dup4\n        /* \"#utility.yul\":7203:7209   */\n      dup4\n        /* \"#utility.yul\":7119:7215   */\n      tag_82\n      jump\t// in\n    tag_181:\n        /* \"#utility.yul\":7105:7215   */\n      swap1\n      pop\n        /* \"#utility.yul\":6965:7221   */\n      swap3\n      swap2\n      pop\n      pop\n      jump\t// out\n        /* \"#utility.yul\":7227:7365   */\n    tag_84:\n        /* \"#utility.yul\":7322:7326   */\n      0x00\n        /* \"#utility.yul\":7354:7358   */\n      0x20\n        /* \"#utility.yul\":7349:7352   */\n      dup3\n        /* \"#utility.yul\":7345:7359   */\n      add\n        /* \"#utility.yul\":7337:7359   */\n      swap1\n      pop\n        /* \"#utility.yul\":7227:7365   */\n      swap2\n      swap1\n      pop\n      jump\t// out\n        /* \"#utility.yul\":7445:8556   */\n    tag_85:\n        /* \"#utility.yul\":7614:7617   */\n      0x00\n        /* \"#utility.yul\":7643:7722   */\n      tag_184\n        /* \"#utility.yul\":7716:7721   */\n      dup3\n        /* \"#utility.yul\":7643:7722   */\n      tag_74\n      jump\t// in\n    tag_184:\n        /* \"#utility.yul\":7738:7849   */\n      tag_185\n        /* \"#utility.yul\":7842:7848   */\n      dup2\n        /* \"#utility.yul\":7837:7840   */\n      dup6\n        /* \"#utility.yul\":7738:7849   */\n      tag_75\n      jump\t// in\n    tag_185:\n        /* \"#utility.yul\":7731:7849   */\n      swap4\n      pop\n        /* \"#utility.yul\":7875:7878   */\n      dup4\n        /* \"#utility.yul\":7920:7924   */\n      0x20\n        /* \"#utility.yul\":7912:7918   */\n      dup3\n        /* \"#utility.yul\":7908:7925   */\n      mul\n        /* \"#utility.yul\":7903:7906   */\n      dup6\n        /* \"#utility.yul\":7899:7926   */\n      add\n        /* \"#utility.yul\":7950:8031   */\n      tag_186\n        /* \"#utility.yul\":8025:8030   */\n      dup6\n        /* \"#utility.yul\":7950:8031   */\n      tag_76\n      jump\t// in\n    tag_186:\n        /* \"#utility.yul\":8054:8061   */\n      dup1\n        /* \"#utility.yul\":8085:8086   */\n      0x00\n        /* \"#utility.yul\":8070:8511   */\n    tag_187:\n        /* \"#utility.yul\":8095:8101   */\n      dup6\n        /* \"#utility.yul\":8092:8093   */\n      dup2\n        /* \"#utility.yul\":8089:8102   */\n      lt\n        /* \"#utility.yul\":8070:8511   */\n      iszero\n      tag_189\n      jumpi\n        /* \"#utility.yul\":8166:8175   */\n      dup5\n        /* \"#utility.yul\":8160:8164   */\n      dup5\n        /* \"#utility.yul\":8156:8176   */\n      sub\n        /* \"#utility.yul\":8151:8154   */\n      dup10\n        /* \"#utility.yul\":8144:8177   */\n      mstore\n        /* \"#utility.yul\":8217:8223   */\n      dup2\n        /* \"#utility.yul\":8211:8224   */\n      mload\n        /* \"#utility.yul\":8245:8359   */\n      tag_190\n        /* \"#utility.yul\":8354:8358   */\n      dup6\n        /* \"#utility.yul\":8339:8352   */\n      dup3\n        /* \"#utility.yul\":8245:8359   */\n      tag_83\n      jump\t// in\n    tag_190:\n        /* \"#utility.yul\":8237:8359   */\n      swap5\n      pop\n        /* \"#utility.yul\":8382:8467   */\n      tag_191\n        /* \"#utility.yul\":8460:8466   */\n      dup4\n        /* \"#utility.yul\":8382:8467   */\n      tag_84\n      jump\t// in\n    tag_191:\n        /* \"#utility.yul\":8372:8467   */\n      swap3\n      pop\n        /* \"#utility.yul\":8496:8500   */\n      0x20\n        /* \"#utility.yul\":8491:8494   */\n      dup11\n        /* \"#utility.yul\":8487:8501   */\n      add\n        /* \"#utility.yul\":8480:8501   */\n      swap10\n      pop\n        /* \"#utility.yul\":8130:8511   */\n      pop\n        /* \"#utility.yul\":8117:8118   */\n      0x01\n        /* \"#utility.yul\":8114:8115   */\n      dup2\n        /* \"#utility.yul\":8110:8119   */\n      add\n        /* \"#utility.yul\":8105:8119   */\n      swap1\n      pop\n        /* \"#utility.yul\":8070:8511   */\n      jump(tag_187)\n    tag_189:\n        /* \"#utility.yul\":8074:8088   */\n      pop\n        /* \"#utility.yul\":8527:8531   */\n      dup3\n        /* \"#utility.yul\":8520:8531   */\n      swap8\n      pop\n        /* \"#utility.yul\":8547:8550   */\n      dup8\n        /* \"#utility.yul\":8540:8550   */\n      swap6\n      pop\n        /* \"#utility.yul\":7619:8556   */\n      pop\n      pop\n      pop\n      pop\n      pop\n        /* \"#utility.yul\":7445:8556   */\n      swap3\n      swap2\n      pop\n      pop\n      jump\t// out\n        /* \"#utility.yul\":8562:9035   */\n    tag_18:\n        /* \"#utility.yul\":8755:8759   */\n      0x00\n        /* \"#utility.yul\":8793:8795   */\n      0x20\n        /* \"#utility.yul\":8782:8791   */\n      dup3\n        /* \"#utility.yul\":8778:8796   */\n      add\n        /* \"#utility.yul\":8770:8796   */\n      swap1\n      pop\n        /* \"#utility.yul\":8842:8851   */\n      dup2\n        /* \"#utility.yul\":8836:8840   */\n      dup2\n        /* \"#utility.yul\":8832:8852   */\n      sub\n        /* \"#utility.yul\":8828:8829   */\n      0x00\n        /* \"#utility.yul\":8817:8826   */\n      dup4\n        /* \"#utility.yul\":8813:8830   */\n      add\n        /* \"#utility.yul\":8806:8853   */\n      mstore\n        /* \"#utility.yul\":8870:9028   */\n      tag_193\n        /* \"#utility.yul\":9023:9027   */\n      dup2\n        /* \"#utility.yul\":9014:9020   */\n      dup5\n        /* \"#utility.yul\":8870:9028   */\n      tag_85\n      jump\t// in\n    tag_193:\n        /* \"#utility.yul\":8862:9028   */\n      swap1\n      pop\n        /* \"#utility.yul\":8562:9035   */\n      swap3\n      swap2\n      pop\n      pop\n      jump\t// out\n        /* \"#utility.yul\":9041:9159   */\n    tag_86:\n        /* \"#utility.yul\":9128:9152   */\n      tag_195\n        /* \"#utility.yul\":9146:9151   */\n      dup2\n        /* \"#utility.yul\":9128:9152   */\n      tag_61\n      jump\t// in\n    tag_195:\n        /* \"#utility.yul\":9123:9126   */\n      dup3\n        /* \"#utility.yul\":9116:9153   */\n      mstore\n        /* \"#utility.yul\":9041:9159   */\n      pop\n      pop\n      jump\t// out\n        /* \"#utility.yul\":9165:9387   */\n    tag_23:\n        /* \"#utility.yul\":9258:9262   */\n      0x00\n        /* \"#utility.yul\":9296:9298   */\n      0x20\n        /* \"#utility.yul\":9285:9294   */\n      dup3\n        /* \"#utility.yul\":9281:9299   */\n      add\n        /* \"#utility.yul\":9273:9299   */\n      swap1\n      pop\n        /* \"#utility.yul\":9309:9380   */\n      tag_197\n        /* \"#utility.yul\":9377:9378   */\n      0x00\n        /* \"#utility.yul\":9366:9375   */\n      dup4\n        /* \"#utility.yul\":9362:9379   */\n      add\n        /* \"#utility.yul\":9353:9359   */\n      dup5\n        /* \"#utility.yul\":9309:9380   */\n      tag_86\n      jump\t// in\n    tag_197:\n        /* \"#utility.yul\":9165:9387   */\n      swap3\n      swap2\n      pop\n      pop\n      jump\t// out\n        /* \"#utility.yul\":9393:9483   */\n    tag_87:\n        /* \"#utility.yul\":9427:9434   */\n      0x00\n        /* \"#utility.yul\":9470:9475   */\n      dup2\n        /* \"#utility.yul\":9463:9476   */\n      iszero\n        /* \"#utility.yul\":9456:9477   */\n      iszero\n        /* \"#utility.yul\":9445:9477   */\n      swap1\n      pop\n        /* \"#utility.yul\":9393:9483   */\n      swap2\n      swap1\n      pop\n      jump\t// out\n        /* \"#utility.yul\":9489:9605   */\n    tag_88:\n        /* \"#utility.yul\":9559:9580   */\n      tag_200\n        /* \"#utility.yul\":9574:9579   */\n      dup2\n        /* \"#utility.yul\":9559:9580   */\n      tag_87\n      jump\t// in\n    tag_200:\n        /* \"#utility.yul\":9552:9557   */\n      dup2\n        /* \"#utility.yul\":9549:9581   */\n      eq\n        /* \"#utility.yul\":9539:9599   */\n      tag_201\n      jumpi\n        /* \"#utility.yul\":9595:9596   */\n      0x00\n        /* \"#utility.yul\":9592:9593   */\n      dup1\n        /* \"#utility.yul\":9585:9597   */\n      revert\n        /* \"#utility.yul\":9539:9599   */\n    tag_201:\n        /* \"#utility.yul\":9489:9605   */\n      pop\n      jump\t// out\n        /* \"#utility.yul\":9611:9748   */\n    tag_89:\n        /* \"#utility.yul\":9665:9670   */\n      0x00\n        /* \"#utility.yul\":9696:9702   */\n      dup2\n        /* \"#utility.yul\":9690:9703   */\n      mload\n        /* \"#utility.yul\":9681:9703   */\n      swap1\n      pop\n        /* \"#utility.yul\":9712:9742   */\n      tag_203\n        /* \"#utility.yul\":9736:9741   */\n      dup2\n        /* \"#utility.yul\":9712:9742   */\n      tag_88\n      jump\t// in\n    tag_203:\n        /* \"#utility.yul\":9611:9748   */\n      swap3\n      swap2\n      pop\n      pop\n      jump\t// out\n        /* \"#utility.yul\":9754:10099   */\n    tag_27:\n        /* \"#utility.yul\":9821:9827   */\n      0x00\n        /* \"#utility.yul\":9870:9872   */\n      0x20\n        /* \"#utility.yul\":9858:9867   */\n      dup3\n        /* \"#utility.yul\":9849:9856   */\n      dup5\n        /* \"#utility.yul\":9845:9868   */\n      sub\n        /* \"#utility.yul\":9841:9873   */\n      slt\n        /* \"#utility.yul\":9838:9957   */\n      iszero\n      tag_205\n      jumpi\n        /* \"#utility.yul\":9876:9955   */\n      tag_206\n      tag_58\n      jump\t// in\n    tag_206:\n        /* \"#utility.yul\":9838:9957   */\n    tag_205:\n        /* \"#utility.yul\":9996:9997   */\n      0x00\n        /* \"#utility.yul\":10021:10082   */\n      tag_207\n        /* \"#utility.yul\":10074:10081   */\n      dup5\n        /* \"#utility.yul\":10065:10071   */\n      dup3\n        /* \"#utility.yul\":10054:10063   */\n      dup6\n        /* \"#utility.yul\":10050:10072   */\n      add\n        /* \"#utility.yul\":10021:10082   */\n      tag_89\n      jump\t// in\n    tag_207:\n        /* \"#utility.yul\":10011:10082   */\n      swap2\n      pop\n        /* \"#utility.yul\":9967:10092   */\n      pop\n        /* \"#utility.yul\":9754:10099   */\n      swap3\n      swap2\n      pop\n      pop\n      jump\t// out\n        /* \"#utility.yul\":10105:10285   */\n    tag_90:\n        /* \"#utility.yul\":10153:10230   */\n      0x4e487b7100000000000000000000000000000000000000000000000000000000\n        /* \"#utility.yul\":10150:10151   */\n      0x00\n        /* \"#utility.yul\":10143:10231   */\n      mstore\n        /* \"#utility.yul\":10250:10254   */\n      0x22\n        /* \"#utility.yul\":10247:10248   */\n      0x04\n        /* \"#utility.yul\":10240:10255   */\n      mstore\n        /* \"#utility.yul\":10274:10278   */\n      0x24\n        /* \"#utility.yul\":10271:10272   */\n      0x00\n        /* \"#utility.yul\":10264:10279   */\n      revert\n        /* \"#utility.yul\":10291:10611   */\n    tag_47:\n        /* \"#utility.yul\":10335:10341   */\n      0x00\n        /* \"#utility.yul\":10372:10373   */\n      0x02\n        /* \"#utility.yul\":10366:10370   */\n      dup3\n        /* \"#utility.yul\":10362:10374   */\n      div\n        /* \"#utility.yul\":10352:10374   */\n      swap1\n      pop\n        /* \"#utility.yul\":10419:10420   */\n      0x01\n        /* \"#utility.yul\":10413:10417   */\n      dup3\n        /* \"#utility.yul\":10409:10421   */\n      and\n        /* \"#utility.yul\":10440:10458   */\n      dup1\n        /* \"#utility.yul\":10430:10511   */\n      tag_210\n      jumpi\n        /* \"#utility.yul\":10496:10500   */\n      0x7f\n        /* \"#utility.yul\":10488:10494   */\n      dup3\n        /* \"#utility.yul\":10484:10501   */\n      and\n        /* \"#utility.yul\":10474:10501   */\n      swap2\n      pop\n        /* \"#utility.yul\":10430:10511   */\n    tag_210:\n        /* \"#utility.yul\":10558:10560   */\n      0x20\n        /* \"#utility.yul\":10550:10556   */\n      dup3\n        /* \"#utility.yul\":10547:10561   */\n      lt\n        /* \"#utility.yul\":10527:10545   */\n      dup2\n        /* \"#utility.yul\":10524:10562   */\n      sub\n        /* \"#utility.yul\":10521:10605   */\n      tag_211\n      jumpi\n        /* \"#utility.yul\":10577:10595   */\n      tag_212\n      tag_90\n      jump\t// in\n    tag_212:\n        /* \"#utility.yul\":10521:10605   */\n    tag_211:\n        /* \"#utility.yul\":10342:10611   */\n      pop\n        /* \"#utility.yul\":10291:10611   */\n      swap2\n      swap1\n      pop\n      jump\t// out\n        /* \"#utility.yul\":10617:10758   */\n    tag_91:\n        /* \"#utility.yul\":10666:10670   */\n      0x00\n        /* \"#utility.yul\":10689:10692   */\n      dup2\n        /* \"#utility.yul\":10681:10692   */\n      swap1\n      pop\n        /* \"#utility.yul\":10712:10715   */\n      dup2\n        /* \"#utility.yul\":10709:10710   */\n      0x00\n        /* \"#utility.yul\":10702:10716   */\n      mstore\n        /* \"#utility.yul\":10746:10750   */\n      0x20\n        /* \"#utility.yul\":10743:10744   */\n      0x00\n        /* \"#utility.yul\":10733:10751   */\n      keccak256\n        /* \"#utility.yul\":10725:10751   */\n      swap1\n      pop\n        /* \"#utility.yul\":10617:10758   */\n      swap2\n      swap1\n      pop\n      jump\t// out\n        /* \"#utility.yul\":10764:10857   */\n    tag_92:\n        /* \"#utility.yul\":10801:10807   */\n      0x00\n        /* \"#utility.yul\":10848:10850   */\n      0x20\n        /* \"#utility.yul\":10843:10845   */\n      0x1f\n        /* \"#utility.yul\":10836:10841   */\n      dup4\n        /* \"#utility.yul\":10832:10846   */\n      add\n        /* \"#utility.yul\":10828:10851   */\n      div\n        /* \"#utility.yul\":10818:10851   */\n      swap1\n      pop\n        /* \"#utility.yul\":10764:10857   */\n      swap2\n      swap1\n      pop\n      jump\t// out\n        /* \"#utility.yul\":10863:10970   */\n    tag_93:\n        /* \"#utility.yul\":10907:10915   */\n      0x00\n        /* \"#utility.yul\":10957:10962   */\n      dup3\n        /* \"#utility.yul\":10951:10955   */\n      dup3\n        /* \"#utility.yul\":10947:10963   */\n      shl\n        /* \"#utility.yul\":10926:10963   */\n      swap1\n      pop\n        /* \"#utility.yul\":10863:10970   */\n      swap3\n      swap2\n      pop\n      pop\n      jump\t// out\n        /* \"#utility.yul\":10976:11369   */\n    tag_94:\n        /* \"#utility.yul\":11045:11051   */\n      0x00\n        /* \"#utility.yul\":11095:11096   */\n      0x08\n        /* \"#utility.yul\":11083:11093   */\n      dup4\n        /* \"#utility.yul\":11079:11097   */\n      mul\n        /* \"#utility.yul\":11118:11215   */\n      tag_217\n        /* \"#utility.yul\":11148:11214   */\n      0xffffffffffffffffffffffffffffffffffffffffffffffffffffffffffffffff\n        /* \"#utility.yul\":11137:11146   */\n      dup3\n        /* \"#utility.yul\":11118:11215   */\n      tag_93\n      jump\t// in\n    tag_217:\n        /* \"#utility.yul\":11236:11275   */\n      tag_218\n        /* \"#utility.yul\":11266:11274   */\n      dup7\n        /* \"#utility.yul\":11255:11264   */\n      dup4\n        /* \"#utility.yul\":11236:11275   */\n      tag_93\n      jump\t// in\n    tag_218:\n        /* \"#utility.yul\":11224:11275   */\n      swap6\n      pop\n        /* \"#utility.yul\":11308:11312   */\n      dup1\n        /* \"#utility.yul\":11304:11313   */\n      not\n        /* \"#utility.yul\":11297:11302   */\n      dup5\n        /* \"#utility.yul\":11293:11314   */\n      and\n        /* \"#utility.yul\":11284:11314   */\n      swap4\n      pop\n        /* \"#utility.yul\":11357:11361   */\n      dup1\n        /* \"#utility.yul\":11347:11355   */\n      dup7\n        /* \"#utility.yul\":11343:11362   */\n      and\n        /* \"#utility.yul\":11336:11341   */\n      dup5\n        /* \"#utility.yul\":11333:11363   */\n      or\n        /* \"#utility.yul\":11323:11363   */\n      swap3\n      pop\n        /* \"#utility.yul\":11052:11369   */\n      pop\n      pop\n        /* \"#utility.yul\":10976:11369   */\n      swap4\n      swap3\n      pop\n      pop\n      pop\n      jump\t// out\n        /* \"#utility.yul\":11375:11452   */\n    tag_95:\n        /* \"#utility.yul\":11412:11419   */\n      0x00\n        /* \"#utility.yul\":11441:11446   */\n      dup2\n        /* \"#utility.yul\":11430:11446   */\n      swap1\n      pop\n        /* \"#utility.yul\":11375:11452   */\n      swap2\n      swap1\n      pop\n      jump\t// out\n        /* \"#utility.yul\":11458:11518   */\n    tag_96:\n        /* \"#utility.yul\":11486:11489   */\n      0x00\n        /* \"#utility.yul\":11507:11512   */\n      dup2\n        /* \"#utility.yul\":11500:11512   */\n      swap1\n      pop\n        /* \"#utility.yul\":11458:11518   */\n      swap2\n      swap1\n      pop\n      jump\t// out\n        /* \"#utility.yul\":11524:11666   */\n    tag_97:\n        /* \"#utility.yul\":11574:11583   */\n      0x00\n        /* \"#utility.yul\":11607:11660   */\n      tag_222\n        /* \"#utility.yul\":11625:11659   */\n      tag_223\n        /* \"#utility.yul\":11634:11658   */\n      tag_224\n        /* \"#utility.yul\":11652:11657   */\n      dup5\n        /* \"#utility.yul\":11634:11658   */\n      tag_95\n      jump\t// in\n    tag_224:\n        /* \"#utility.yul\":11625:11659   */\n      tag_96\n      jump\t// in\n    tag_223:\n        /* \"#utility.yul\":11607:11660   */\n      tag_95\n      jump\t// in\n    tag_222:\n        /* \"#utility.yul\":11594:11660   */\n      swap1\n      pop\n        /* \"#utility.yul\":11524:11666   */\n      swap2\n      swap1\n      pop\n      jump\t// out\n        /* \"#utility.yul\":11672:11747   */\n    tag_98:\n        /* \"#utility.yul\":11715:11718   */\n      0x00\n        /* \"#utility.yul\":11736:11741   */\n      dup2\n        /* \"#utility.yul\":11729:11741   */\n      swap1\n      pop\n        /* \"#utility.yul\":11672:11747   */\n      swap2\n      swap1\n      pop\n      jump\t// out\n        /* \"#utility.yul\":11753:12022   */\n    tag_99:\n        /* \"#utility.yul\":11863:11902   */\n      tag_227\n        /* \"#utility.yul\":11894:11901   */\n      dup4\n        /* \"#utility.yul\":11863:11902   */\n      tag_97\n      jump\t// in\n    tag_227:\n        /* \"#utility.yul\":11924:12015   */\n      tag_228\n        /* \"#utility.yul\":11973:12014   */\n      tag_229\n        /* \"#utility.yul\":11997:12013   */\n      dup3\n        /* \"#utility.yul\":11973:12014   */\n      tag_98\n      jump\t// in\n    tag_229:\n        /* \"#utility.yul\":11965:11971   */\n      dup5\n        /* \"#utility.yul\":11958:11962   */\n      dup5\n        /* \"#utility.yul\":11952:11963   */\n      sload\n        /* \"#utility.yul\":11924:12015   */\n      tag_94\n      jump\t// in\n    tag_228:\n        /* \"#utility.yul\":11918:11922   */\n      dup3\n        /* \"#utility.yul\":11911:12016   */\n      sstore\n        /* \"#utility.yul\":11829:12022   */\n      pop\n        /* \"#utility.yul\":11753:12022   */\n      pop\n      pop\n      pop\n      jump\t// out\n        /* \"#utility.yul\":12028:12101   */\n    tag_100:\n        /* \"#utility.yul\":12073:12076   */\n      0x00\n        /* \"#utility.yul\":12028:12101   */\n      swap1\n      jump\t// out\n        /* \"#utility.yul\":12107:12296   */\n    tag_101:\n        /* \"#utility.yul\":12184:12216   */\n      tag_232\n      tag_100\n      jump\t// in\n    tag_232:\n        /* \"#utility.yul\":12225:12290   */\n      tag_233\n        /* \"#utility.yul\":12283:12289   */\n      dup2\n        /* \"#utility.yul\":12275:12281   */\n      dup5\n        /* \"#utility.yul\":12269:12273   */\n      dup5\n        /* \"#utility.yul\":12225:12290   */\n      tag_99\n      jump\t// in\n    tag_233:\n        /* \"#utility.yul\":12160:12296   */\n      pop\n        /* \"#utility.yul\":12107:12296   */\n      pop\n      pop\n      jump\t// out\n        /* \"#utility.yul\":12302:12488   */\n    tag_102:\n        /* \"#utility.yul\":12362:12482   */\n    tag_235:\n        /* \"#utility.yul\":12379:12382   */\n      dup2\n        /* \"#utility.yul\":12372:12377   */\n      dup2\n        /* \"#utility.yul\":12369:12383   */\n      lt\n        /* \"#utility.yul\":12362:12482   */\n      iszero\n      tag_237\n      jumpi\n        /* \"#utility.yul\":12433:12472   */\n      tag_238\n        /* \"#utility.yul\":12470:12471   */\n      0x00\n        /* \"#utility.yul\":12463:12468   */\n      dup3\n        /* \"#utility.yul\":12433:12472   */\n      tag_101\n      jump\t// in\n    tag_238:\n        /* \"#utility.yul\":12406:12407   */\n      0x01\n        /* \"#utility.yul\":12399:12404   */\n      dup2\n        /* \"#utility.yul\":12395:12408   */\n      add\n        /* \"#utility.yul\":12386:12408   */\n      swap1\n      pop\n        /* \"#utility.yul\":12362:12482   */\n      jump(tag_235)\n    tag_237:\n        /* \"#utility.yul\":12302:12488   */\n      pop\n      pop\n      jump\t// out\n        /* \"#utility.yul\":12494:13037   */\n    tag_103:\n        /* \"#utility.yul\":12595:12597   */\n      0x1f\n        /* \"#utility.yul\":12590:12593   */\n      dup3\n        /* \"#utility.yul\":12587:12598   */\n      gt\n        /* \"#utility.yul\":12584:13030   */\n      iszero\n      tag_240\n      jumpi\n        /* \"#utility.yul\":12629:12667   */\n      tag_241\n        /* \"#utility.yul\":12661:12666   */\n      dup2\n        /* \"#utility.yul\":12629:12667   */\n      tag_91\n      jump\t// in\n    tag_241:\n        /* \"#utility.yul\":12713:12742   */\n      tag_242\n        /* \"#utility.yul\":12731:12741   */\n      dup5\n        /* \"#utility.yul\":12713:12742   */\n      tag_92\n      jump\t// in\n    tag_242:\n        /* \"#utility.yul\":12703:12711   */\n      dup2\n        /* \"#utility.yul\":12699:12743   */\n      add\n        /* \"#utility.yul\":12896:12898   */\n      0x20\n        /* \"#utility.yul\":12884:12894   */\n      dup6\n        /* \"#utility.yul\":12881:12899   */\n      lt\n        /* \"#utility.yul\":12878:12927   */\n      iszero\n      tag_243\n      jumpi\n        /* \"#utility.yul\":12917:12925   */\n      dup2\n        /* \"#utility.yul\":12902:12925   */\n      swap1\n      pop\n        /* \"#utility.yul\":12878:12927   */\n    tag_243:\n        /* \"#utility.yul\":12940:13020   */\n      tag_244\n        /* \"#utility.yul\":12996:13018   */\n      tag_245\n        /* \"#utility.yul\":13014:13017   */\n      dup6\n        /* \"#utility.yul\":12996:13018   */\n      tag_92\n      jump\t// in\n    tag_245:\n        /* \"#utility.yul\":12986:12994   */\n      dup4\n        /* \"#utility.yul\":12982:13019   */\n      add\n        /* \"#utility.yul\":12969:12980   */\n      dup3\n        /* \"#utility.yul\":12940:13020   */\n      tag_102\n      jump\t// in\n    tag_244:\n        /* \"#utility.yul\":12599:13030   */\n      pop\n      pop\n        /* \"#utility.yul\":12584:13030   */\n    tag_240:\n        /* \"#utility.yul\":12494:13037   */\n      pop\n      pop\n      pop\n      jump\t// out\n        /* \"#utility.yul\":13043:13160   */\n    tag_104:\n        /* \"#utility.yul\":13097:13105   */\n      0x00\n        /* \"#utility.yul\":13147:13152   */\n      dup3\n        /* \"#utility.yul\":13141:13145   */\n      dup3\n        /* \"#utility.yul\":13137:13153   */\n      shr\n        /* \"#utility.yul\":13116:13153   */\n      swap1\n      pop\n        /* \"#utility.yul\":13043:13160   */\n      swap3\n      swap2\n      pop\n      pop\n      jump\t// out\n        /* \"#utility.yul\":13166:13335   */\n    tag_105:\n        /* \"#utility.yul\":13210:13216   */\n      0x00\n        /* \"#utility.yul\":13243:13294   */\n      tag_248\n        /* \"#utility.yul\":13291:13292   */\n      0x00\n        /* \"#utility.yul\":13287:13293   */\n      not\n        /* \"#utility.yul\":13279:13284   */\n      dup5\n        /* \"#utility.yul\":13276:13277   */\n      0x08\n        /* \"#utility.yul\":13272:13285   */\n      mul\n        /* \"#utility.yul\":13243:13294   */\n      tag_104\n      jump\t// in\n    tag_248:\n        /* \"#utility.yul\":13239:13295   */\n      not\n        /* \"#utility.yul\":13324:13328   */\n      dup1\n        /* \"#utility.yul\":13318:13322   */\n      dup4\n        /* \"#utility.yul\":13314:13329   */\n      and\n        /* \"#utility.yul\":13304:13329   */\n      swap2\n      pop\n        /* \"#utility.yul\":13217:13335   */\n      pop\n        /* \"#utility.yul\":13166:13335   */\n      swap3\n      swap2\n      pop\n      pop\n      jump\t// out\n        /* \"#utility.yul\":13340:13635   */\n    tag_106:\n        /* \"#utility.yul\":13416:13420   */\n      0x00\n        /* \"#utility.yul\":13562:13591   */\n      tag_250\n        /* \"#utility.yul\":13587:13590   */\n      dup4\n        /* \"#utility.yul\":13581:13585   */\n      dup4\n        /* \"#utility.yul\":13562:13591   */\n      tag_105\n      jump\t// in\n    tag_250:\n        /* \"#utility.yul\":13554:13591   */\n      swap2\n      pop\n        /* \"#utility.yul\":13624:13627   */\n      dup3\n        /* \"#utility.yul\":13621:13622   */\n      0x02\n        /* \"#utility.yul\":13617:13628   */\n      mul\n        /* \"#utility.yul\":13611:13615   */\n      dup3\n        /* \"#utility.yul\":13608:13629   */\n      or\n        /* \"#utility.yul\":13600:13629   */\n      swap1\n      pop\n        /* \"#utility.yul\":13340:13635   */\n      swap3\n      swap2\n      pop\n      pop\n      jump\t// out\n        /* \"#utility.yul\":13640:15035   */\n    tag_34:\n        /* \"#utility.yul\":13757:13794   */\n      tag_252\n        /* \"#utility.yul\":13790:13793   */\n      dup3\n        /* \"#utility.yul\":13757:13794   */\n      tag_77\n      jump\t// in\n    tag_252:\n        /* \"#utility.yul\":13859:13877   */\n      0xffffffffffffffff\n        /* \"#utility.yul\":13851:13857   */\n      dup2\n        /* \"#utility.yul\":13848:13878   */\n      gt\n        /* \"#utility.yul\":13845:13901   */\n      iszero\n      tag_253\n      jumpi\n        /* \"#utility.yul\":13881:13899   */\n      tag_254\n      tag_67\n      jump\t// in\n    tag_254:\n        /* \"#utility.yul\":13845:13901   */\n    tag_253:\n        /* \"#utility.yul\":13925:13963   */\n      tag_255\n        /* \"#utility.yul\":13957:13961   */\n      dup3\n        /* \"#utility.yul\":13951:13962   */\n      sload\n        /* \"#utility.yul\":13925:13963   */\n      tag_47\n      jump\t// in\n    tag_255:\n        /* \"#utility.yul\":14010:14077   */\n      tag_256\n        /* \"#utility.yul\":14070:14076   */\n      dup3\n        /* \"#utility.yul\":14062:14068   */\n      dup3\n        /* \"#utility.yul\":14056:14060   */\n      dup6\n        /* \"#utility.yul\":14010:14077   */\n      tag_103\n      jump\t// in\n    tag_256:\n        /* \"#utility.yul\":14104:14105   */\n      0x00\n        /* \"#utility.yul\":14128:14132   */\n      0x20\n        /* \"#utility.yul\":14115:14132   */\n      swap1\n      pop\n        /* \"#utility.yul\":14160:14162   */\n      0x1f\n        /* \"#utility.yul\":14152:14158   */\n      dup4\n        /* \"#utility.yul\":14149:14163   */\n      gt\n        /* \"#utility.yul\":14177:14178   */\n      0x01\n        /* \"#utility.yul\":14172:14790   */\n      dup2\n      eq\n      tag_258\n      jumpi\n        /* \"#utility.yul\":14834:14835   */\n      0x00\n        /* \"#utility.yul\":14851:14857   */\n      dup5\n        /* \"#utility.yul\":14848:14925   */\n      iszero\n      tag_259\n      jumpi\n        /* \"#utility.yul\":14900:14909   */\n      dup3\n        /* \"#utility.yul\":14895:14898   */\n      dup8\n        /* \"#utility.yul\":14891:14910   */\n      add\n        /* \"#utility.yul\":14885:14911   */\n      mload\n        /* \"#utility.yul\":14876:14911   */\n      swap1\n      pop\n        /* \"#utility.yul\":14848:14925   */\n    tag_259:\n        /* \"#utility.yul\":14951:15018   */\n      tag_260\n        /* \"#utility.yul\":15011:15017   */\n      dup6\n        /* \"#utility.yul\":15004:15009   */\n      dup3\n        /* \"#utility.yul\":14951:15018   */\n      tag_106\n      jump\t// in\n    tag_260:\n        /* \"#utility.yul\":14945:14949   */\n      dup7\n        /* \"#utility.yul\":14938:15019   */\n      sstore\n        /* \"#utility.yul\":14807:15029   */\n      pop\n        /* \"#utility.yul\":14142:15029   */\n      jump(tag_257)\n        /* \"#utility.yul\":14172:14790   */\n    tag_258:\n        /* \"#utility.yul\":14224:14228   */\n      0x1f\n        /* \"#utility.yul\":14220:14229   */\n      not\n        /* \"#utility.yul\":14212:14218   */\n      dup5\n        /* \"#utility.yul\":14208:14230   */\n      and\n        /* \"#utility.yul\":14258:14295   */\n      tag_261\n        /* \"#utility.yul\":14290:14294   */\n      dup7\n        /* \"#utility.yul\":14258:14295   */\n      tag_91\n      jump\t// in\n    tag_261:\n        /* \"#utility.yul\":14317:14318   */\n      0x00\n        /* \"#utility.yul\":14331:14539   */\n    tag_262:\n        /* \"#utility.yul\":14345:14352   */\n      dup3\n        /* \"#utility.yul\":14342:14343   */\n      dup2\n        /* \"#utility.yul\":14339:14353   */\n      lt\n        /* \"#utility.yul\":14331:14539   */\n      iszero\n      tag_264\n      jumpi\n        /* \"#utility.yul\":14424:14433   */\n      dup5\n        /* \"#utility.yul\":14419:14422   */\n      dup10\n        /* \"#utility.yul\":14415:14434   */\n      add\n        /* \"#utility.yul\":14409:14435   */\n      mload\n        /* \"#utility.yul\":14401:14407   */\n      dup3\n        /* \"#utility.yul\":14394:14436   */\n      sstore\n        /* \"#utility.yul\":14475:14476   */\n      0x01\n        /* \"#utility.yul\":14467:14473   */\n      dup3\n        /* \"#utility.yul\":14463:14477   */\n      add\n        /* \"#utility.yul\":14453:14477   */\n      swap2\n      pop\n        /* \"#utility.yul\":14522:14524   */\n      0x20\n        /* \"#utility.yul\":14511:14520   */\n      dup6\n        /* \"#utility.yul\":14507:14525   */\n      add\n        /* \"#utility.yul\":14494:14525   */\n      swap5\n      pop\n        /* \"#utility.yul\":14368:14372   */\n      0x20\n        /* \"#utility.yul\":14365:14366   */\n      dup2\n        /* \"#utility.yul\":14361:14373   */\n      add\n        /* \"#utility.yul\":14356:14373   */\n      swap1\n      pop\n        /* \"#utility.yul\":14331:14539   */\n      jump(tag_262)\n    tag_264:\n        /* \"#utility.yul\":14567:14573   */\n      dup7\n        /* \"#utility.yul\":14558:14565   */\n      dup4\n        /* \"#utility.yul\":14555:14574   */\n      lt\n        /* \"#utility.yul\":14552:14731   */\n      iszero\n      tag_265\n      jumpi\n        /* \"#utility.yul\":14625:14634   */\n      dup5\n        /* \"#utility.yul\":14620:14623   */\n      dup10\n        /* \"#utility.yul\":14616:14635   */\n      add\n        /* \"#utility.yul\":14610:14636   */\n      mload\n        /* \"#utility.yul\":14668:14716   */\n      tag_266\n        /* \"#utility.yul\":14710:14714   */\n      0x1f\n        /* \"#utility.yul\":14702:14708   */\n      dup10\n        /* \"#utility.yul\":14698:14715   */\n      and\n        /* \"#utility.yul\":14687:14696   */\n      dup3\n        /* \"#utility.yul\":14668:14716   */\n      tag_105\n      jump\t// in\n    tag_266:\n        /* \"#utility.yul\":14660:14666   */\n      dup4\n        /* \"#utility.yul\":14653:14717   */\n      sstore\n        /* \"#utility.yul\":14575:14731   */\n      pop\n        /* \"#utility.yul\":14552:14731   */\n    tag_265:\n        /* \"#utility.yul\":14777:14778   */\n      0x01\n        /* \"#utility.yul\":14773:14774   */\n      0x02\n        /* \"#utility.yul\":14765:14771   */\n      dup9\n        /* \"#utility.yul\":14761:14775   */\n      mul\n        /* \"#utility.yul\":14757:14779   */\n      add\n        /* \"#utility.yul\":14751:14755   */\n      dup9\n        /* \"#utility.yul\":14744:14780   */\n      sstore\n        /* \"#utility.yul\":14179:14790   */\n      pop\n      pop\n      pop\n        /* \"#utility.yul\":14142:15029   */\n    tag_257:\n      pop\n        /* \"#utility.yul\":13732:15035   */\n      pop\n      pop\n      pop\n        /* \"#utility.yul\":13640:15035   */\n      pop\n      pop\n      jump\t// out\n\n    auxdata: 0xa2646970667358221220e166aeb4433a518d8183bd683ce3bd1acccc4de4ebacc2c83a8c22c258955ae764736f6c63430008110033\n}\n","bytecode":{"linkReferences":{},"object":"608060405234801561001057600080fd5b50604051610f2f380380610f2f833981810160405281019061003291906100db565b806000806101000a81548173ffffffffffffffffffffffffffffffffffffffff021916908373ffffffffffffffffffffffffffffffffffffffff16021790555050610108565b600080fd5b600073ffffffffffffffffffffffffffffffffffffffff82169050919050565b60006100a88261007d565b9050919050565b6100b88161009d565b81146100c357600080fd5b50565b6000815190506100d5816100af565b92915050565b6000602082840312156100f1576100f0610078565b5b60006100ff848285016100c6565b91505092915050565b610e18806101176000396000f3fe608060405234801561001057600080fd5b50600436106100415760003560e01c80631107747e1461004657806343a0e44a14610062578063f40941d01461007e575b600080fd5b610060600480360381019061005b9190610690565b6100ae565b005b61007c60048036038101906100779190610803565b61014a565b005b61009860048036038101906100939190610690565b610328565b6040516100a59190610a49565b60405180910390f35b60008054906101000a900473ffffffffffffffffffffffffffffffffffffffff1673ffffffffffffffffffffffffffffffffffffffff163373ffffffffffffffffffffffffffffffffffffffff161461010657600080fd5b80600260006101000a81548173ffffffffffffffffffffffffffffffffffffffff021916908373ffffffffffffffffffffffffffffffffffffffff16021790555050565b83600260009054906101000a900473ffffffffffffffffffffffffffffffffffffffff1673ffffffffffffffffffffffffffffffffffffffff166363a9c3d7826040518263ffffffff1660e01b81526004016101a69190610a7a565b602060405180830381865afa1580156101c3573d6000803e3d6000fd5b505050506040513d601f19601f820116820180604052508101906101e79190610acd565b6101f057600080fd5b6101f86105e7565b84816000018190525083816020018190525082816040019073ffffffffffffffffffffffffffffffffffffffff16908173ffffffffffffffffffffffffffffffffffffffff1681525050600160008773ffffffffffffffffffffffffffffffffffffffff1673ffffffffffffffffffffffffffffffffffffffff16815260200190815260200160002081908060018154018082558091505060019003906000526020600020906003020160009091909190915060008201518160000190816102c09190610d10565b5060208201518160010190816102d69190610d10565b5060408201518160020160006101000a81548173ffffffffffffffffffffffffffffffffffffffff021916908373ffffffffffffffffffffffffffffffffffffffff1602179055505050505050505050565b606033600260009054906101000a900473ffffffffffffffffffffffffffffffffffffffff1673ffffffffffffffffffffffffffffffffffffffff166363a9c3d7826040518263ffffffff1660e01b81526004016103869190610a7a565b602060405180830381865afa1580156103a3573d6000803e3d6000fd5b505050506040513d601f19601f820116820180604052508101906103c79190610acd565b6103d057600080fd5b600160008473ffffffffffffffffffffffffffffffffffffffff1673ffffffffffffffffffffffffffffffffffffffff168152602001908152602001600020805480602002602001604051908101604052809291908181526020016000905b828210156105db578382906000526020600020906003020160405180606001604052908160008201805461046290610b29565b80601f016020809104026020016040519081016040528092919081815260200182805461048e90610b29565b80156104db5780601f106104b0576101008083540402835291602001916104db565b820191906000526020600020905b8154815290600101906020018083116104be57829003601f168201915b505050505081526020016001820180546104f490610b29565b80601f016020809104026020016040519081016040528092919081815260200182805461052090610b29565b801561056d5780601f106105425761010080835404028352916020019161056d565b820191906000526020600020905b81548152906001019060200180831161055057829003601f168201915b505050505081526020016002820160009054906101000a900473ffffffffffffffffffffffffffffffffffffffff1673ffffffffffffffffffffffffffffffffffffffff1673ffffffffffffffffffffffffffffffffffffffff16815250508152602001906001019061042f565b50505050915050919050565b60405180606001604052806060815260200160608152602001600073ffffffffffffffffffffffffffffffffffffffff1681525090565b6000604051905090565b600080fd5b600080fd5b600073ffffffffffffffffffffffffffffffffffffffff82169050919050565b600061065d82610632565b9050919050565b61066d81610652565b811461067857600080fd5b50565b60008135905061068a81610664565b92915050565b6000602082840312156106a6576106a5610628565b5b60006106b48482850161067b565b91505092915050565b600080fd5b600080fd5b6000601f19601f8301169050919050565b7f4e487b7100000000000000000000000000000000000000000000000000000000600052604160045260246000fd5b610710826106c7565b810181811067ffffffffffffffff8211171561072f5761072e6106d8565b5b80604052505050565b600061074261061e565b905061074e8282610707565b919050565b600067ffffffffffffffff82111561076e5761076d6106d8565b5b610777826106c7565b9050602081019050919050565b82818337600083830152505050565b60006107a66107a184610753565b610738565b9050828152602081018484840111156107c2576107c16106c2565b5b6107cd848285610784565b509392505050565b600082601f8301126107ea576107e96106bd565b5b81356107fa848260208601610793565b91505092915050565b6000806000806080858703121561081d5761081c610628565b5b600061082b8782880161067b565b945050602085013567ffffffffffffffff81111561084c5761084b61062d565b5b610858878288016107d5565b935050604085013567ffffffffffffffff8111156108795761087861062d565b5b610885878288016107d5565b92505060606108968782880161067b565b91505092959194509250565b600081519050919050565b600082825260208201905092915050565b6000819050602082019050919050565b600081519050919050565b600082825260208201905092915050565b60005b838110156109085780820151818401526020810190506108ed565b60008484015250505050565b600061091f826108ce565b61092981856108d9565b93506109398185602086016108ea565b610942816106c7565b840191505092915050565b61095681610652565b82525050565b600060608301600083015184820360008601526109798282610914565b915050602083015184820360208601526109938282610914565b91505060408301516109a8604086018261094d565b508091505092915050565b60006109bf838361095c565b905092915050565b6000602082019050919050565b60006109df826108a2565b6109e981856108ad565b9350836020820285016109fb856108be565b8060005b85811015610a375784840389528151610a1885826109b3565b9450610a23836109c7565b925060208a019950506001810190506109ff565b50829750879550505050505092915050565b60006020820190508181036000830152610a6381846109d4565b905092915050565b610a7481610652565b82525050565b6000602082019050610a8f6000830184610a6b565b92915050565b60008115159050919050565b610aaa81610a95565b8114610ab557600080fd5b50565b600081519050610ac781610aa1565b92915050565b600060208284031215610ae357610ae2610628565b5b6000610af184828501610ab8565b91505092915050565b7f4e487b7100000000000000000000000000000000000000000000000000000000600052602260045260246000fd5b60006002820490506001821680610b4157607f821691505b602082108103610b5457610b53610afa565b5b50919050565b60008190508160005260206000209050919050565b60006020601f8301049050919050565b600082821b905092915050565b600060088302610bbc7fffffffffffffffffffffffffffffffffffffffffffffffffffffffffffffffff82610b7f565b610bc68683610b7f565b95508019841693508086168417925050509392505050565b6000819050919050565b6000819050919050565b6000610c0d610c08610c0384610bde565b610be8565b610bde565b9050919050565b6000819050919050565b610c2783610bf2565b610c3b610c3382610c14565b848454610b8c565b825550505050565b600090565b610c50610c43565b610c5b818484610c1e565b505050565b5b81811015610c7f57610c74600082610c48565b600181019050610c61565b5050565b601f821115610cc457610c9581610b5a565b610c9e84610b6f565b81016020851015610cad578190505b610cc1610cb985610b6f565b830182610c60565b50505b505050565b600082821c905092915050565b6000610ce760001984600802610cc9565b1980831691505092915050565b6000610d008383610cd6565b9150826002028217905092915050565b610d19826108ce565b67ffffffffffffffff811115610d3257610d316106d8565b5b610d3c8254610b29565b610d47828285610c83565b600060209050601f831160018114610d7a5760008415610d68578287015190505b610d728582610cf4565b865550610dda565b601f198416610d8886610b5a565b60005b82811015610db057848901518255600182019150602085019450602081019050610d8b565b86831015610dcd5784890151610dc9601f891682610cd6565b8355505b6001600288020188555050505b50505050505056fea2646970667358221220e166aeb4433a518d8183bd683ce3bd1acccc4de4ebacc2c83a8c22c258955ae764736f6c63430008110033","opcodes":"PUSH1 0x80 PUSH1 0x40 MSTORE CALLVALUE DUP1 ISZERO PUSH2 0x10 JUMPI PUSH1 0x0 DUP1 REVERT JUMPDEST POP PUSH1 0x40 MLOAD PUSH2 0xF2F CODESIZE SUB DUP1 PUSH2 0xF2F DUP4 CODECOPY DUP2 DUP2 ADD PUSH1 0x40 MSTORE DUP2 ADD SWAP1 PUSH2 0x32 SWAP2 SWAP1 PUSH2 0xDB JUMP JUMPDEST DUP1 PUSH1 0x0 DUP1 PUSH2 0x100 EXP DUP2 SLOAD DUP2 PUSH20 0xFFFFFFFFFFFFFFFFFFFFFFFFFFFFFFFFFFFFFFFF MUL NOT AND SWAP1 DUP4 PUSH20 0xFFFFFFFFFFFFFFFFFFFFFFFFFFFFFFFFFFFFFFFF AND MUL OR SWAP1 SSTORE POP POP PUSH2 0x108 JUMP JUMPDEST PUSH1 0x0 DUP1 REVERT JUMPDEST PUSH1 0x0 PUSH20 0xFFFFFFFFFFFFFFFFFFFFFFFFFFFFFFFFFFFFFFFF DUP3 AND SWAP1 POP SWAP2 SWAP1 POP JUMP JUMPDEST PUSH1 0x0 PUSH2 0xA8 DUP3 PUSH2 0x7D JUMP JUMPDEST SWAP1 POP SWAP2 SWAP1 POP JUMP JUMPDEST PUSH2 0xB8 DUP2 PUSH2 0x9D JUMP JUMPDEST DUP2 EQ PUSH2 0xC3 JUMPI PUSH1 0x0 DUP1 REVERT JUMPDEST POP JUMP JUMPDEST PUSH1 0x0 DUP2 MLOAD SWAP1 POP PUSH2 0xD5 DUP2 PUSH2 0xAF JUMP JUMPDEST SWAP3 SWAP2 POP POP JUMP JUMPDEST PUSH1 0x0 PUSH1 0x20 DUP3 DUP5 SUB SLT ISZERO PUSH2 0xF1 JUMPI PUSH2 0xF0 PUSH2 0x78 JUMP JUMPDEST JUMPDEST PUSH1 0x0 PUSH2 0xFF DUP5 DUP3 DUP6 ADD PUSH2 0xC6 JUMP JUMPDEST SWAP2 POP POP SWAP3 SWAP2 POP POP JUMP JUMPDEST PUSH2 0xE18 DUP1 PUSH2 0x117 PUSH1 0x0 CODECOPY PUSH1 0x0 RETURN INVALID PUSH1 0x80 PUSH1 0x40 MSTORE CALLVALUE DUP1 ISZERO PUSH2 0x10 JUMPI PUSH1 0x0 DUP1 REVERT JUMPDEST POP PUSH1 0x4 CALLDATASIZE LT PUSH2 0x41 JUMPI PUSH1 0x0 CALLDATALOAD PUSH1 0xE0 SHR DUP1 PUSH4 0x1107747E EQ PUSH2 0x46 JUMPI DUP1 PUSH4 0x43A0E44A EQ PUSH2 0x62 JUMPI DUP1 PUSH4 0xF40941D0 EQ PUSH2 0x7E JUMPI JUMPDEST PUSH1 0x0 DUP1 REVERT JUMPDEST PUSH2 0x60 PUSH1 0x4 DUP1 CALLDATASIZE SUB DUP2 ADD SWAP1 PUSH2 0x5B SWAP2 SWAP1 PUSH2 0x690 JUMP JUMPDEST PUSH2 0xAE JUMP JUMPDEST STOP JUMPDEST PUSH2 0x7C PUSH1 0x4 DUP1 CALLDATASIZE SUB DUP2 ADD SWAP1 PUSH2 0x77 SWAP2 SWAP1 PUSH2 0x803 JUMP JUMPDEST PUSH2 0x14A JUMP JUMPDEST STOP JUMPDEST PUSH2 0x98 PUSH1 0x4 DUP1 CALLDATASIZE SUB DUP2 ADD SWAP1 PUSH2 0x93 SWAP2 SWAP1 PUSH2 0x690 JUMP JUMPDEST PUSH2 0x328 JUMP JUMPDEST PUSH1 0x40 MLOAD PUSH2 0xA5 SWAP2 SWAP1 PUSH2 0xA49 JUMP JUMPDEST PUSH1 0x40 MLOAD DUP1 SWAP2 SUB SWAP1 RETURN JUMPDEST PUSH1 0x0 DUP1 SLOAD SWAP1 PUSH2 0x100 EXP SWAP1 DIV PUSH20 0xFFFFFFFFFFFFFFFFFFFFFFFFFFFFFFFFFFFFFFFF AND PUSH20 0xFFFFFFFFFFFFFFFFFFFFFFFFFFFFFFFFFFFFFFFF AND CALLER PUSH20 0xFFFFFFFFFFFFFFFFFFFFFFFFFFFFFFFFFFFFFFFF AND EQ PUSH2 0x106 JUMPI PUSH1 0x0 DUP1 REVERT JUMPDEST DUP1 PUSH1 0x2 PUSH1 0x0 PUSH2 0x100 EXP DUP2 SLOAD DUP2 PUSH20 0xFFFFFFFFFFFFFFFFFFFFFFFFFFFFFFFFFFFFFFFF MUL NOT AND SWAP1 DUP4 PUSH20 0xFFFFFFFFFFFFFFFFFFFFFFFFFFFFFFFFFFFFFFFF AND MUL OR SWAP1 SSTORE POP POP JUMP JUMPDEST DUP4 PUSH1 0x2 PUSH1 0x0 SWAP1 SLOAD SWAP1 PUSH2 0x100 EXP SWAP1 DIV PUSH20 0xFFFFFFFFFFFFFFFFFFFFFFFFFFFFFFFFFFFFFFFF AND PUSH20 0xFFFFFFFFFFFFFFFFFFFFFFFFFFFFFFFFFFFFFFFF AND PUSH4 0x63A9C3D7 DUP3 PUSH1 0x40 MLOAD DUP3 PUSH4 0xFFFFFFFF AND PUSH1 0xE0 SHL DUP2 MSTORE PUSH1 0x4 ADD PUSH2 0x1A6 SWAP2 SWAP1 PUSH2 0xA7A JUMP JUMPDEST PUSH1 0x20 PUSH1 0x40 MLOAD DUP1 DUP4 SUB DUP2 DUP7 GAS STATICCALL ISZERO DUP1 ISZERO PUSH2 0x1C3 JUMPI RETURNDATASIZE PUSH1 0x0 DUP1 RETURNDATACOPY RETURNDATASIZE PUSH1 0x0 REVERT JUMPDEST POP POP POP POP PUSH1 0x40 MLOAD RETURNDATASIZE PUSH1 0x1F NOT PUSH1 0x1F DUP3 ADD AND DUP3 ADD DUP1 PUSH1 0x40 MSTORE POP DUP2 ADD SWAP1 PUSH2 0x1E7 SWAP2 SWAP1 PUSH2 0xACD JUMP JUMPDEST PUSH2 0x1F0 JUMPI PUSH1 0x0 DUP1 REVERT JUMPDEST PUSH2 0x1F8 PUSH2 0x5E7 JUMP JUMPDEST DUP5 DUP2 PUSH1 0x0 ADD DUP2 SWAP1 MSTORE POP DUP4 DUP2 PUSH1 0x20 ADD DUP2 SWAP1 MSTORE POP DUP3 DUP2 PUSH1 0x40 ADD SWAP1 PUSH20 0xFFFFFFFFFFFFFFFFFFFFFFFFFFFFFFFFFFFFFFFF AND SWAP1 DUP2 PUSH20 0xFFFFFFFFFFFFFFFFFFFFFFFFFFFFFFFFFFFFFFFF AND DUP2 MSTORE POP POP PUSH1 0x1 PUSH1 0x0 DUP8 PUSH20 0xFFFFFFFFFFFFFFFFFFFFFFFFFFFFFFFFFFFFFFFF AND PUSH20 0xFFFFFFFFFFFFFFFFFFFFFFFFFFFFFFFFFFFFFFFF AND DUP2 MSTORE PUSH1 0x20 ADD SWAP1 DUP2 MSTORE PUSH1 0x20 ADD PUSH1 0x0 KECCAK256 DUP2 SWAP1 DUP1 PUSH1 0x1 DUP2 SLOAD ADD DUP1 DUP3 SSTORE DUP1 SWAP2 POP POP PUSH1 0x1 SWAP1 SUB SWAP1 PUSH1 0x0 MSTORE PUSH1 0x20 PUSH1 0x0 KECCAK256 SWAP1 PUSH1 0x3 MUL ADD PUSH1 0x0 SWAP1 SWAP2 SWAP1 SWAP2 SWAP1 SWAP2 POP PUSH1 0x0 DUP3 ADD MLOAD DUP2 PUSH1 0x0 ADD SWAP1 DUP2 PUSH2 0x2C0 SWAP2 SWAP1 PUSH2 0xD10 JUMP JUMPDEST POP PUSH1 0x20 DUP3 ADD MLOAD DUP2 PUSH1 0x1 ADD SWAP1 DUP2 PUSH2 0x2D6 SWAP2 SWAP1 PUSH2 0xD10 JUMP JUMPDEST POP PUSH1 0x40 DUP3 ADD MLOAD DUP2 PUSH1 0x2 ADD PUSH1 0x0 PUSH2 0x100 EXP DUP2 SLOAD DUP2 PUSH20 0xFFFFFFFFFFFFFFFFFFFFFFFFFFFFFFFFFFFFFFFF MUL NOT AND SWAP1 DUP4 PUSH20 0xFFFFFFFFFFFFFFFFFFFFFFFFFFFFFFFFFFFFFFFF AND MUL OR SWAP1 SSTORE POP POP POP POP POP POP POP POP POP JUMP JUMPDEST PUSH1 0x60 CALLER PUSH1 0x2 PUSH1 0x0 SWAP1 SLOAD SWAP1 PUSH2 0x100 EXP SWAP1 DIV PUSH20 0xFFFFFFFFFFFFFFFFFFFFFFFFFFFFFFFFFFFFFFFF AND PUSH20 0xFFFFFFFFFFFFFFFFFFFFFFFFFFFFFFFFFFFFFFFF AND PUSH4 0x63A9C3D7 DUP3 PUSH1 0x40 MLOAD DUP3 PUSH4 0xFFFFFFFF AND PUSH1 0xE0 SHL DUP2 MSTORE PUSH1 0x4 ADD PUSH2 0x386 SWAP2 SWAP1 PUSH2 0xA7A JUMP JUMPDEST PUSH1 0x20 PUSH1 0x40 MLOAD DUP1 DUP4 SUB DUP2 DUP7 GAS STATICCALL ISZERO DUP1 ISZERO PUSH2 0x3A3 JUMPI RETURNDATASIZE PUSH1 0x0 DUP1 RETURNDATACOPY RETURNDATASIZE PUSH1 0x0 REVERT JUMPDEST POP POP POP POP PUSH1 0x40 MLOAD RETURNDATASIZE PUSH1 0x1F NOT PUSH1 0x1F DUP3 ADD AND DUP3 ADD DUP1 PUSH1 0x40 MSTORE POP DUP2 ADD SWAP1 PUSH2 0x3C7 SWAP2 SWAP1 PUSH2 0xACD JUMP JUMPDEST PUSH2 0x3D0 JUMPI PUSH1 0x0 DUP1 REVERT JUMPDEST PUSH1 0x1 PUSH1 0x0 DUP5 PUSH20 0xFFFFFFFFFFFFFFFFFFFFFFFFFFFFFFFFFFFFFFFF AND PUSH20 0xFFFFFFFFFFFFFFFFFFFFFFFFFFFFFFFFFFFFFFFF AND DUP2 MSTORE PUSH1 0x20 ADD SWAP1 DUP2 MSTORE PUSH1 0x20 ADD PUSH1 0x0 KECCAK256 DUP1 SLOAD DUP1 PUSH1 0x20 MUL PUSH1 0x20 ADD PUSH1 0x40 MLOAD SWAP1 DUP2 ADD PUSH1 0x40 MSTORE DUP1 SWAP3 SWAP2 SWAP1 DUP2 DUP2 MSTORE PUSH1 0x20 ADD PUSH1 0x0 SWAP1 JUMPDEST DUP3 DUP3 LT ISZERO PUSH2 0x5DB JUMPI DUP4 DUP3 SWAP1 PUSH1 0x0 MSTORE PUSH1 0x20 PUSH1 0x0 KECCAK256 SWAP1 PUSH1 0x3 MUL ADD PUSH1 0x40 MLOAD DUP1 PUSH1 0x60 ADD PUSH1 0x40 MSTORE SWAP1 DUP2 PUSH1 0x0 DUP3 ADD DUP1 SLOAD PUSH2 0x462 SWAP1 PUSH2 0xB29 JUMP JUMPDEST DUP1 PUSH1 0x1F ADD PUSH1 0x20 DUP1 SWAP2 DIV MUL PUSH1 0x20 ADD PUSH1 0x40 MLOAD SWAP1 DUP2 ADD PUSH1 0x40 MSTORE DUP1 SWAP3 SWAP2 SWAP1 DUP2 DUP2 MSTORE PUSH1 0x20 ADD DUP3 DUP1 SLOAD PUSH2 0x48E SWAP1 PUSH2 0xB29 JUMP JUMPDEST DUP1 ISZERO PUSH2 0x4DB JUMPI DUP1 PUSH1 0x1F LT PUSH2 0x4B0 JUMPI PUSH2 0x100 DUP1 DUP4 SLOAD DIV MUL DUP4 MSTORE SWAP2 PUSH1 0x20 ADD SWAP2 PUSH2 0x4DB JUMP JUMPDEST DUP3 ADD SWAP2 SWAP1 PUSH1 0x0 MSTORE PUSH1 0x20 PUSH1 0x0 KECCAK256 SWAP1 JUMPDEST DUP2 SLOAD DUP2 MSTORE SWAP1 PUSH1 0x1 ADD SWAP1 PUSH1 0x20 ADD DUP1 DUP4 GT PUSH2 0x4BE JUMPI DUP3 SWAP1 SUB PUSH1 0x1F AND DUP3 ADD SWAP2 JUMPDEST POP POP POP POP POP DUP2 MSTORE PUSH1 0x20 ADD PUSH1 0x1 DUP3 ADD DUP1 SLOAD PUSH2 0x4F4 SWAP1 PUSH2 0xB29 JUMP JUMPDEST DUP1 PUSH1 0x1F ADD PUSH1 0x20 DUP1 SWAP2 DIV MUL PUSH1 0x20 ADD PUSH1 0x40 MLOAD SWAP1 DUP2 ADD PUSH1 0x40 MSTORE DUP1 SWAP3 SWAP2 SWAP1 DUP2 DUP2 MSTORE PUSH1 0x20 ADD DUP3 DUP1 SLOAD PUSH2 0x520 SWAP1 PUSH2 0xB29 JUMP JUMPDEST DUP1 ISZERO PUSH2 0x56D JUMPI DUP1 PUSH1 0x1F LT PUSH2 0x542 JUMPI PUSH2 0x100 DUP1 DUP4 SLOAD DIV MUL DUP4 MSTORE SWAP2 PUSH1 0x20 ADD SWAP2 PUSH2 0x56D JUMP JUMPDEST DUP3 ADD SWAP2 SWAP1 PUSH1 0x0 MSTORE PUSH1 0x20 PUSH1 0x0 KECCAK256 SWAP1 JUMPDEST DUP2 SLOAD DUP2 MSTORE SWAP1 PUSH1 0x1 ADD SWAP1 PUSH1 0x20 ADD DUP1 DUP4 GT PUSH2 0x550 JUMPI DUP3 SWAP1 SUB PUSH1 0x1F AND DUP3 ADD SWAP2 JUMPDEST POP POP POP POP POP DUP2 MSTORE PUSH1 0x20 ADD PUSH1 0x2 DUP3 ADD PUSH1 0x0 SWAP1 SLOAD SWAP1 PUSH2 0x100 EXP SWAP1 DIV PUSH20 0xFFFFFFFFFFFFFFFFFFFFFFFFFFFFFFFFFFFFFFFF AND PUSH20 0xFFFFFFFFFFFFFFFFFFFFFFFFFFFFFFFFFFFFFFFF AND PUSH20 0xFFFFFFFFFFFFFFFFFFFFFFFFFFFFFFFFFFFFFFFF AND DUP2 MSTORE POP POP DUP2 MSTORE PUSH1 0x20 ADD SWAP1 PUSH1 0x1 ADD SWAP1 PUSH2 0x42F JUMP JUMPDEST POP POP POP POP SWAP2 POP POP SWAP2 SWAP1 POP JUMP JUMPDEST PUSH1 0x40 MLOAD DUP1 PUSH1 0x60 ADD PUSH1 0x40 MSTORE DUP1 PUSH1 0x60 DUP2 MSTORE PUSH1 0x20 ADD PUSH1 0x60 DUP2 MSTORE PUSH1 0x20 ADD PUSH1 0x0 PUSH20 0xFFFFFFFFFFFFFFFFFFFFFFFFFFFFFFFFFFFFFFFF AND DUP2 MSTORE POP SWAP1 JUMP JUMPDEST PUSH1 0x0 PUSH1 0x40 MLOAD SWAP1 POP SWAP1 JUMP JUMPDEST PUSH1 0x0 DUP1 REVERT JUMPDEST PUSH1 0x0 DUP1 REVERT JUMPDEST PUSH1 0x0 PUSH20 0xFFFFFFFFFFFFFFFFFFFFFFFFFFFFFFFFFFFFFFFF DUP3 AND SWAP1 POP SWAP2 SWAP1 POP JUMP JUMPDEST PUSH1 0x0 PUSH2 0x65D DUP3 PUSH2 0x632 JUMP JUMPDEST SWAP1 POP SWAP2 SWAP1 POP JUMP JUMPDEST PUSH2 0x66D DUP2 PUSH2 0x652 JUMP JUMPDEST DUP2 EQ PUSH2 0x678 JUMPI PUSH1 0x0 DUP1 REVERT JUMPDEST POP JUMP JUMPDEST PUSH1 0x0 DUP2 CALLDATALOAD SWAP1 POP PUSH2 0x68A DUP2 PUSH2 0x664 JUMP JUMPDEST SWAP3 SWAP2 POP POP JUMP JUMPDEST PUSH1 0x0 PUSH1 0x20 DUP3 DUP5 SUB SLT ISZERO PUSH2 0x6A6 JUMPI PUSH2 0x6A5 PUSH2 0x628 JUMP JUMPDEST JUMPDEST PUSH1 0x0 PUSH2 0x6B4 DUP5 DUP3 DUP6 ADD PUSH2 0x67B JUMP JUMPDEST SWAP2 POP POP SWAP3 SWAP2 POP POP JUMP JUMPDEST PUSH1 0x0 DUP1 REVERT JUMPDEST PUSH1 0x0 DUP1 REVERT JUMPDEST PUSH1 0x0 PUSH1 0x1F NOT PUSH1 0x1F DUP4 ADD AND SWAP1 POP SWAP2 SWAP1 POP JUMP JUMPDEST PUSH32 0x4E487B7100000000000000000000000000000000000000000000000000000000 PUSH1 0x0 MSTORE PUSH1 0x41 PUSH1 0x4 MSTORE PUSH1 0x24 PUSH1 0x0 REVERT JUMPDEST PUSH2 0x710 DUP3 PUSH2 0x6C7 JUMP JUMPDEST DUP2 ADD DUP2 DUP2 LT PUSH8 0xFFFFFFFFFFFFFFFF DUP3 GT OR ISZERO PUSH2 0x72F JUMPI PUSH2 0x72E PUSH2 0x6D8 JUMP JUMPDEST JUMPDEST DUP1 PUSH1 0x40 MSTORE POP POP POP JUMP JUMPDEST PUSH1 0x0 PUSH2 0x742 PUSH2 0x61E JUMP JUMPDEST SWAP1 POP PUSH2 0x74E DUP3 DUP3 PUSH2 0x707 JUMP JUMPDEST SWAP2 SWAP1 POP JUMP JUMPDEST PUSH1 0x0 PUSH8 0xFFFFFFFFFFFFFFFF DUP3 GT ISZERO PUSH2 0x76E JUMPI PUSH2 0x76D PUSH2 0x6D8 JUMP JUMPDEST JUMPDEST PUSH2 0x777 DUP3 PUSH2 0x6C7 JUMP JUMPDEST SWAP1 POP PUSH1 0x20 DUP2 ADD SWAP1 POP SWAP2 SWAP1 POP JUMP JUMPDEST DUP3 DUP2 DUP4 CALLDATACOPY PUSH1 0x0 DUP4 DUP4 ADD MSTORE POP POP POP JUMP JUMPDEST PUSH1 0x0 PUSH2 0x7A6 PUSH2 0x7A1 DUP5 PUSH2 0x753 JUMP JUMPDEST PUSH2 0x738 JUMP JUMPDEST SWAP1 POP DUP3 DUP2 MSTORE PUSH1 0x20 DUP2 ADD DUP5 DUP5 DUP5 ADD GT ISZERO PUSH2 0x7C2 JUMPI PUSH2 0x7C1 PUSH2 0x6C2 JUMP JUMPDEST JUMPDEST PUSH2 0x7CD DUP5 DUP3 DUP6 PUSH2 0x784 JUMP JUMPDEST POP SWAP4 SWAP3 POP POP POP JUMP JUMPDEST PUSH1 0x0 DUP3 PUSH1 0x1F DUP4 ADD SLT PUSH2 0x7EA JUMPI PUSH2 0x7E9 PUSH2 0x6BD JUMP JUMPDEST JUMPDEST DUP2 CALLDATALOAD PUSH2 0x7FA DUP5 DUP3 PUSH1 0x20 DUP7 ADD PUSH2 0x793 JUMP JUMPDEST SWAP2 POP POP SWAP3 SWAP2 POP POP JUMP JUMPDEST PUSH1 0x0 DUP1 PUSH1 0x0 DUP1 PUSH1 0x80 DUP6 DUP8 SUB SLT ISZERO PUSH2 0x81D JUMPI PUSH2 0x81C PUSH2 0x628 JUMP JUMPDEST JUMPDEST PUSH1 0x0 PUSH2 0x82B DUP8 DUP3 DUP9 ADD PUSH2 0x67B JUMP JUMPDEST SWAP5 POP POP PUSH1 0x20 DUP6 ADD CALLDATALOAD PUSH8 0xFFFFFFFFFFFFFFFF DUP2 GT ISZERO PUSH2 0x84C JUMPI PUSH2 0x84B PUSH2 0x62D JUMP JUMPDEST JUMPDEST PUSH2 0x858 DUP8 DUP3 DUP9 ADD PUSH2 0x7D5 JUMP JUMPDEST SWAP4 POP POP PUSH1 0x40 DUP6 ADD CALLDATALOAD PUSH8 0xFFFFFFFFFFFFFFFF DUP2 GT ISZERO PUSH2 0x879 JUMPI PUSH2 0x878 PUSH2 0x62D JUMP JUMPDEST JUMPDEST PUSH2 0x885 DUP8 DUP3 DUP9 ADD PUSH2 0x7D5 JUMP JUMPDEST SWAP3 POP POP PUSH1 0x60 PUSH2 0x896 DUP8 DUP3 DUP9 ADD PUSH2 0x67B JUMP JUMPDEST SWAP2 POP POP SWAP3 SWAP6 SWAP2 SWAP5 POP SWAP3 POP JUMP JUMPDEST PUSH1 0x0 DUP2 MLOAD SWAP1 POP SWAP2 SWAP1 POP JUMP JUMPDEST PUSH1 0x0 DUP3 DUP3 MSTORE PUSH1 0x20 DUP3 ADD SWAP1 POP SWAP3 SWAP2 POP POP JUMP JUMPDEST PUSH1 0x0 DUP2 SWAP1 POP PUSH1 0x20 DUP3 ADD SWAP1 POP SWAP2 SWAP1 POP JUMP JUMPDEST PUSH1 0x0 DUP2 MLOAD SWAP1 POP SWAP2 SWAP1 POP JUMP JUMPDEST PUSH1 0x0 DUP3 DUP3 MSTORE PUSH1 0x20 DUP3 ADD SWAP1 POP SWAP3 SWAP2 POP POP JUMP JUMPDEST PUSH1 0x0 JUMPDEST DUP4 DUP2 LT ISZERO PUSH2 0x908 JUMPI DUP1 DUP3 ADD MLOAD DUP2 DUP5 ADD MSTORE PUSH1 0x20 DUP2 ADD SWAP1 POP PUSH2 0x8ED JUMP JUMPDEST PUSH1 0x0 DUP5 DUP5 ADD MSTORE POP POP POP POP JUMP JUMPDEST PUSH1 0x0 PUSH2 0x91F DUP3 PUSH2 0x8CE JUMP JUMPDEST PUSH2 0x929 DUP2 DUP6 PUSH2 0x8D9 JUMP JUMPDEST SWAP4 POP PUSH2 0x939 DUP2 DUP6 PUSH1 0x20 DUP7 ADD PUSH2 0x8EA JUMP JUMPDEST PUSH2 0x942 DUP2 PUSH2 0x6C7 JUMP JUMPDEST DUP5 ADD SWAP2 POP POP SWAP3 SWAP2 POP POP JUMP JUMPDEST PUSH2 0x956 DUP2 PUSH2 0x652 JUMP JUMPDEST DUP3 MSTORE POP POP JUMP JUMPDEST PUSH1 0x0 PUSH1 0x60 DUP4 ADD PUSH1 0x0 DUP4 ADD MLOAD DUP5 DUP3 SUB PUSH1 0x0 DUP7 ADD MSTORE PUSH2 0x979 DUP3 DUP3 PUSH2 0x914 JUMP JUMPDEST SWAP2 POP POP PUSH1 0x20 DUP4 ADD MLOAD DUP5 DUP3 SUB PUSH1 0x20 DUP7 ADD MSTORE PUSH2 0x993 DUP3 DUP3 PUSH2 0x914 JUMP JUMPDEST SWAP2 POP POP PUSH1 0x40 DUP4 ADD MLOAD PUSH2 0x9A8 PUSH1 0x40 DUP7 ADD DUP3 PUSH2 0x94D JUMP JUMPDEST POP DUP1 SWAP2 POP POP SWAP3 SWAP2 POP POP JUMP JUMPDEST PUSH1 0x0 PUSH2 0x9BF DUP4 DUP4 PUSH2 0x95C JUMP JUMPDEST SWAP1 POP SWAP3 SWAP2 POP POP JUMP JUMPDEST PUSH1 0x0 PUSH1 0x20 DUP3 ADD SWAP1 POP SWAP2 SWAP1 POP JUMP JUMPDEST PUSH1 0x0 PUSH2 0x9DF DUP3 PUSH2 0x8A2 JUMP JUMPDEST PUSH2 0x9E9 DUP2 DUP6 PUSH2 0x8AD JUMP JUMPDEST SWAP4 POP DUP4 PUSH1 0x20 DUP3 MUL DUP6 ADD PUSH2 0x9FB DUP6 PUSH2 0x8BE JUMP JUMPDEST DUP1 PUSH1 0x0 JUMPDEST DUP6 DUP2 LT ISZERO PUSH2 0xA37 JUMPI DUP5 DUP5 SUB DUP10 MSTORE DUP2 MLOAD PUSH2 0xA18 DUP6 DUP3 PUSH2 0x9B3 JUMP JUMPDEST SWAP5 POP PUSH2 0xA23 DUP4 PUSH2 0x9C7 JUMP JUMPDEST SWAP3 POP PUSH1 0x20 DUP11 ADD SWAP10 POP POP PUSH1 0x1 DUP2 ADD SWAP1 POP PUSH2 0x9FF JUMP JUMPDEST POP DUP3 SWAP8 POP DUP8 SWAP6 POP POP POP POP POP POP SWAP3 SWAP2 POP POP JUMP JUMPDEST PUSH1 0x0 PUSH1 0x20 DUP3 ADD SWAP1 POP DUP2 DUP2 SUB PUSH1 0x0 DUP4 ADD MSTORE PUSH2 0xA63 DUP2 DUP5 PUSH2 0x9D4 JUMP JUMPDEST SWAP1 POP SWAP3 SWAP2 POP POP JUMP JUMPDEST PUSH2 0xA74 DUP2 PUSH2 0x652 JUMP JUMPDEST DUP3 MSTORE POP POP JUMP JUMPDEST PUSH1 0x0 PUSH1 0x20 DUP3 ADD SWAP1 POP PUSH2 0xA8F PUSH1 0x0 DUP4 ADD DUP5 PUSH2 0xA6B JUMP JUMPDEST SWAP3 SWAP2 POP POP JUMP JUMPDEST PUSH1 0x0 DUP2 ISZERO ISZERO SWAP1 POP SWAP2 SWAP1 POP JUMP JUMPDEST PUSH2 0xAAA DUP2 PUSH2 0xA95 JUMP JUMPDEST DUP2 EQ PUSH2 0xAB5 JUMPI PUSH1 0x0 DUP1 REVERT JUMPDEST POP JUMP JUMPDEST PUSH1 0x0 DUP2 MLOAD SWAP1 POP PUSH2 0xAC7 DUP2 PUSH2 0xAA1 JUMP JUMPDEST SWAP3 SWAP2 POP POP JUMP JUMPDEST PUSH1 0x0 PUSH1 0x20 DUP3 DUP5 SUB SLT ISZERO PUSH2 0xAE3 JUMPI PUSH2 0xAE2 PUSH2 0x628 JUMP JUMPDEST JUMPDEST PUSH1 0x0 PUSH2 0xAF1 DUP5 DUP3 DUP6 ADD PUSH2 0xAB8 JUMP JUMPDEST SWAP2 POP POP SWAP3 SWAP2 POP POP JUMP JUMPDEST PUSH32 0x4E487B7100000000000000000000000000000000000000000000000000000000 PUSH1 0x0 MSTORE PUSH1 0x22 PUSH1 0x4 MSTORE PUSH1 0x24 PUSH1 0x0 REVERT JUMPDEST PUSH1 0x0 PUSH1 0x2 DUP3 DIV SWAP1 POP PUSH1 0x1 DUP3 AND DUP1 PUSH2 0xB41 JUMPI PUSH1 0x7F DUP3 AND SWAP2 POP JUMPDEST PUSH1 0x20 DUP3 LT DUP2 SUB PUSH2 0xB54 JUMPI PUSH2 0xB53 PUSH2 0xAFA JUMP JUMPDEST JUMPDEST POP SWAP2 SWAP1 POP JUMP JUMPDEST PUSH1 0x0 DUP2 SWAP1 POP DUP2 PUSH1 0x0 MSTORE PUSH1 0x20 PUSH1 0x0 KECCAK256 SWAP1 POP SWAP2 SWAP1 POP JUMP JUMPDEST PUSH1 0x0 PUSH1 0x20 PUSH1 0x1F DUP4 ADD DIV SWAP1 POP SWAP2 SWAP1 POP JUMP JUMPDEST PUSH1 0x0 DUP3 DUP3 SHL SWAP1 POP SWAP3 SWAP2 POP POP JUMP JUMPDEST PUSH1 0x0 PUSH1 0x8 DUP4 MUL PUSH2 0xBBC PUSH32 0xFFFFFFFFFFFFFFFFFFFFFFFFFFFFFFFFFFFFFFFFFFFFFFFFFFFFFFFFFFFFFFFF DUP3 PUSH2 0xB7F JUMP JUMPDEST PUSH2 0xBC6 DUP7 DUP4 PUSH2 0xB7F JUMP JUMPDEST SWAP6 POP DUP1 NOT DUP5 AND SWAP4 POP DUP1 DUP7 AND DUP5 OR SWAP3 POP POP POP SWAP4 SWAP3 POP POP POP JUMP JUMPDEST PUSH1 0x0 DUP2 SWAP1 POP SWAP2 SWAP1 POP JUMP JUMPDEST PUSH1 0x0 DUP2 SWAP1 POP SWAP2 SWAP1 POP JUMP JUMPDEST PUSH1 0x0 PUSH2 0xC0D PUSH2 0xC08 PUSH2 0xC03 DUP5 PUSH2 0xBDE JUMP JUMPDEST PUSH2 0xBE8 JUMP JUMPDEST PUSH2 0xBDE JUMP JUMPDEST SWAP1 POP SWAP2 SWAP1 POP JUMP JUMPDEST PUSH1 0x0 DUP2 SWAP1 POP SWAP2 SWAP1 POP JUMP JUMPDEST PUSH2 0xC27 DUP4 PUSH2 0xBF2 JUMP JUMPDEST PUSH2 0xC3B PUSH2 0xC33 DUP3 PUSH2 0xC14 JUMP JUMPDEST DUP5 DUP5 SLOAD PUSH2 0xB8C JUMP JUMPDEST DUP3 SSTORE POP POP POP POP JUMP JUMPDEST PUSH1 0x0 SWAP1 JUMP JUMPDEST PUSH2 0xC50 PUSH2 0xC43 JUMP JUMPDEST PUSH2 0xC5B DUP2 DUP5 DUP5 PUSH2 0xC1E JUMP JUMPDEST POP POP POP JUMP JUMPDEST JUMPDEST DUP2 DUP2 LT ISZERO PUSH2 0xC7F JUMPI PUSH2 0xC74 PUSH1 0x0 DUP3 PUSH2 0xC48 JUMP JUMPDEST PUSH1 0x1 DUP2 ADD SWAP1 POP PUSH2 0xC61 JUMP JUMPDEST POP POP JUMP JUMPDEST PUSH1 0x1F DUP3 GT ISZERO PUSH2 0xCC4 JUMPI PUSH2 0xC95 DUP2 PUSH2 0xB5A JUMP JUMPDEST PUSH2 0xC9E DUP5 PUSH2 0xB6F JUMP JUMPDEST DUP2 ADD PUSH1 0x20 DUP6 LT ISZERO PUSH2 0xCAD JUMPI DUP2 SWAP1 POP JUMPDEST PUSH2 0xCC1 PUSH2 0xCB9 DUP6 PUSH2 0xB6F JUMP JUMPDEST DUP4 ADD DUP3 PUSH2 0xC60 JUMP JUMPDEST POP POP JUMPDEST POP POP POP JUMP JUMPDEST PUSH1 0x0 DUP3 DUP3 SHR SWAP1 POP SWAP3 SWAP2 POP POP JUMP JUMPDEST PUSH1 0x0 PUSH2 0xCE7 PUSH1 0x0 NOT DUP5 PUSH1 0x8 MUL PUSH2 0xCC9 JUMP JUMPDEST NOT DUP1 DUP4 AND SWAP2 POP POP SWAP3 SWAP2 POP POP JUMP JUMPDEST PUSH1 0x0 PUSH2 0xD00 DUP4 DUP4 PUSH2 0xCD6 JUMP JUMPDEST SWAP2 POP DUP3 PUSH1 0x2 MUL DUP3 OR SWAP1 POP SWAP3 SWAP2 POP POP JUMP JUMPDEST PUSH2 0xD19 DUP3 PUSH2 0x8CE JUMP JUMPDEST PUSH8 0xFFFFFFFFFFFFFFFF DUP2 GT ISZERO PUSH2 0xD32 JUMPI PUSH2 0xD31 PUSH2 0x6D8 JUMP JUMPDEST JUMPDEST PUSH2 0xD3C DUP3 SLOAD PUSH2 0xB29 JUMP JUMPDEST PUSH2 0xD47 DUP3 DUP3 DUP6 PUSH2 0xC83 JUMP JUMPDEST PUSH1 0x0 PUSH1 0x20 SWAP1 POP PUSH1 0x1F DUP4 GT PUSH1 0x1 DUP2 EQ PUSH2 0xD7A JUMPI PUSH1 0x0 DUP5 ISZERO PUSH2 0xD68 JUMPI DUP3 DUP8 ADD MLOAD SWAP1 POP JUMPDEST PUSH2 0xD72 DUP6 DUP3 PUSH2 0xCF4 JUMP JUMPDEST DUP7 SSTORE POP PUSH2 0xDDA JUMP JUMPDEST PUSH1 0x1F NOT DUP5 AND PUSH2 0xD88 DUP7 PUSH2 0xB5A JUMP JUMPDEST PUSH1 0x0 JUMPDEST DUP3 DUP2 LT ISZERO PUSH2 0xDB0 JUMPI DUP5 DUP10 ADD MLOAD DUP3 SSTORE PUSH1 0x1 DUP3 ADD SWAP2 POP PUSH1 0x20 DUP6 ADD SWAP5 POP PUSH1 0x20 DUP2 ADD SWAP1 POP PUSH2 0xD8B JUMP JUMPDEST DUP7 DUP4 LT ISZERO PUSH2 0xDCD JUMPI DUP5 DUP10 ADD MLOAD PUSH2 0xDC9 PUSH1 0x1F DUP10 AND DUP3 PUSH2 0xCD6 JUMP JUMPDEST DUP4 SSTORE POP JUMPDEST PUSH1 0x1 PUSH1 0x2 DUP9 MUL ADD DUP9 SSTORE POP POP POP JUMPDEST POP POP POP POP POP POP JUMP INVALID LOG2 PUSH5 0x6970667358 0x22 SLT KECCAK256 0xE1 PUSH7 0xAEB4433A518D81 DUP4 0xBD PUSH9 0x3CE3BD1ACCCC4DE4EB 0xAC 0xC2 0xC8 GASPRICE DUP13 0x22 0xC2 PC SWAP6 GAS 0xE7 PUSH5 0x736F6C6343 STOP ADDMOD GT STOP CALLER "},"gasEstimates":{"creation":{"codeDepositCost":"721600","executionCost":"infinite","totalCost":"infinite"},"external":{"addDoctorRelation(address,string,string,address)":"infinite","getDoctorRelations(address)":"infinite","setDoctorVerificatorAddress(address)":"26867"}},"methodIdentifiers":{"addDoctorRelation(address,string,string,address)":"43a0e44a","getDoctorRelations(address)":"f40941d0","setDoctorVerificatorAddress(address)":"1107747e"}},"storageLayout":{"storage":[{"astId":1105,"contract":"ElectronicMedicalRecords.sol:DoctorRelation","label":"admin","offset":0,"slot":"0","type":"t_address"},{"astId":1118,"contract":"ElectronicMedicalRecords.sol:DoctorRelation","label":"relatedPatien","offset":0,"slot":"1","type":"t_mapping(t_address,t_array(t_struct(Patient)1112_storage)dyn_storage)"},{"astId":1121,"contract":"ElectronicMedicalRecords.sol:DoctorRelation","label":"doctor_verificator","offset":0,"slot":"2","type":"t_contract(DoctorVerificator)1103"}],"types":{"t_address":{"encoding":"inplace","label":"address","numberOfBytes":"20"},"t_array(t_struct(Patient)1112_storage)dyn_storage":{"base":"t_struct(Patient)1112_storage","encoding":"dynamic_array","label":"struct DoctorRelation.Patient[]","numberOfBytes":"32"},"t_contract(DoctorVerificator)1103":{"encoding":"inplace","label":"contract DoctorVerificator","numberOfBytes":"20"},"t_mapping(t_address,t_array(t_struct(Patient)1112_storage)dyn_storage)":{"encoding":"mapping","key":"t_address","label":"mapping(address => struct DoctorRelation.Patient[])","numberOfBytes":"32","value":"t_array(t_struct(Patient)1112_storage)dyn_storage"},"t_string_storage":{"encoding":"bytes","label":"string","numberOfBytes":"32"},"t_struct(Patient)1112_storage":{"encoding":"inplace","label":"struct DoctorRelation.Patient","members":[{"astId":1107,"contract":"ElectronicMedicalRecords.sol:DoctorRelation","label":"name","offset":0,"slot":"0","type":"t_string_storage"},{"astId":1109,"contract":"ElectronicMedicalRecords.sol:DoctorRelation","label":"jenis","offset":0,"slot":"1","type":"t_string_storage"},{"astId":1111,"contract":"ElectronicMedicalRecords.sol:DoctorRelation","label":"add","offset":0,"slot":"2","type":"t_address"}],"numberOfBytes":"96"}}},"userdoc":{"kind":"user","methods":{},"version":1}}