{"abi":[{"inputs":[{"internalType":"address","name":"_admin","type":"address"}],"stateMutability":"nonpayable","type":"constructor"},{"inputs":[{"internalType":"address","name":"_doctor","type":"address"},{"internalType":"string","name":"_fullname","type":"string"},{"internalType":"address","name":"_add","type":"address"}],"name":"addDoctorRelation","outputs":[],"stateMutability":"nonpayable","type":"function"},{"inputs":[{"internalType":"address","name":"_doctor","type":"address"}],"name":"getDoctorRelations","outputs":[{"components":[{"internalType":"string","name":"name","type":"string"},{"internalType":"address","name":"add","type":"address"}],"internalType":"struct DoctorRelation.Patient[]","name":"","type":"tuple[]"}],"stateMutability":"view","type":"function"},{"inputs":[{"internalType":"address","name":"_DoctorVerificatorAddress","type":"address"}],"name":"setDoctorVerificatorAddress","outputs":[],"stateMutability":"nonpayable","type":"function"}],"devdoc":{"kind":"dev","methods":{},"version":1},"evm":{"assembly":"    /* \"ElectronicMedicalRecords.sol\":11758:12816  contract DoctorRelation {... */\n  mstore(0x40, 0x80)\n    /* \"ElectronicMedicalRecords.sol\":11991:12052  constructor(address _admin) {... */\n  callvalue\n  dup1\n  iszero\n  tag_1\n  jumpi\n  0x00\n  dup1\n  revert\ntag_1:\n  pop\n  mload(0x40)\n  sub(codesize, bytecodeSize)\n  dup1\n  bytecodeSize\n  dup4\n  codecopy\n  dup2\n  dup2\n  add\n  0x40\n  mstore\n  dup2\n  add\n  swap1\n  tag_2\n  swap2\n  swap1\n  tag_3\n  jump\t// in\ntag_2:\n    /* \"ElectronicMedicalRecords.sol\":12038:12044  _admin */\n  dup1\n    /* \"ElectronicMedicalRecords.sol\":12030:12035  admin */\n  0x00\n  dup1\n    /* \"ElectronicMedicalRecords.sol\":12030:12044  admin = _admin */\n  0x0100\n  exp\n  dup2\n  sload\n  dup2\n  0xffffffffffffffffffffffffffffffffffffffff\n  mul\n  not\n  and\n  swap1\n  dup4\n  0xffffffffffffffffffffffffffffffffffffffff\n  and\n  mul\n  or\n  swap1\n  sstore\n  pop\n    /* \"ElectronicMedicalRecords.sol\":11991:12052  constructor(address _admin) {... */\n  pop\n    /* \"ElectronicMedicalRecords.sol\":11758:12816  contract DoctorRelation {... */\n  jump(tag_6)\n    /* \"#utility.yul\":88:205   */\ntag_8:\n    /* \"#utility.yul\":197:198   */\n  0x00\n    /* \"#utility.yul\":194:195   */\n  dup1\n    /* \"#utility.yul\":187:199   */\n  revert\n    /* \"#utility.yul\":334:460   */\ntag_10:\n    /* \"#utility.yul\":371:378   */\n  0x00\n    /* \"#utility.yul\":411:453   */\n  0xffffffffffffffffffffffffffffffffffffffff\n    /* \"#utility.yul\":404:409   */\n  dup3\n    /* \"#utility.yul\":400:454   */\n  and\n    /* \"#utility.yul\":389:454   */\n  swap1\n  pop\n    /* \"#utility.yul\":334:460   */\n  swap2\n  swap1\n  pop\n  jump\t// out\n    /* \"#utility.yul\":466:562   */\ntag_11:\n    /* \"#utility.yul\":503:510   */\n  0x00\n    /* \"#utility.yul\":532:556   */\n  tag_20\n    /* \"#utility.yul\":550:555   */\n  dup3\n    /* \"#utility.yul\":532:556   */\n  tag_10\n  jump\t// in\ntag_20:\n    /* \"#utility.yul\":521:556   */\n  swap1\n  pop\n    /* \"#utility.yul\":466:562   */\n  swap2\n  swap1\n  pop\n  jump\t// out\n    /* \"#utility.yul\":568:690   */\ntag_12:\n    /* \"#utility.yul\":641:665   */\n  tag_22\n    /* \"#utility.yul\":659:664   */\n  dup2\n    /* \"#utility.yul\":641:665   */\n  tag_11\n  jump\t// in\ntag_22:\n    /* \"#utility.yul\":634:639   */\n  dup2\n    /* \"#utility.yul\":631:666   */\n  eq\n    /* \"#utility.yul\":621:684   */\n  tag_23\n  jumpi\n    /* \"#utility.yul\":680:681   */\n  0x00\n    /* \"#utility.yul\":677:678   */\n  dup1\n    /* \"#utility.yul\":670:682   */\n  revert\n    /* \"#utility.yul\":621:684   */\ntag_23:\n    /* \"#utility.yul\":568:690   */\n  pop\n  jump\t// out\n    /* \"#utility.yul\":696:839   */\ntag_13:\n    /* \"#utility.yul\":753:758   */\n  0x00\n    /* \"#utility.yul\":784:790   */\n  dup2\n    /* \"#utility.yul\":778:791   */\n  mload\n    /* \"#utility.yul\":769:791   */\n  swap1\n  pop\n    /* \"#utility.yul\":800:833   */\n  tag_25\n    /* \"#utility.yul\":827:832   */\n  dup2\n    /* \"#utility.yul\":800:833   */\n  tag_12\n  jump\t// in\ntag_25:\n    /* \"#utility.yul\":696:839   */\n  swap3\n  swap2\n  pop\n  pop\n  jump\t// out\n    /* \"#utility.yul\":845:1196   */\ntag_3:\n    /* \"#utility.yul\":915:921   */\n  0x00\n    /* \"#utility.yul\":964:966   */\n  0x20\n    /* \"#utility.yul\":952:961   */\n  dup3\n    /* \"#utility.yul\":943:950   */\n  dup5\n    /* \"#utility.yul\":939:962   */\n  sub\n    /* \"#utility.yul\":935:967   */\n  slt\n    /* \"#utility.yul\":932:1051   */\n  iszero\n  tag_27\n  jumpi\n    /* \"#utility.yul\":970:1049   */\n  tag_28\n  tag_8\n  jump\t// in\ntag_28:\n    /* \"#utility.yul\":932:1051   */\ntag_27:\n    /* \"#utility.yul\":1090:1091   */\n  0x00\n    /* \"#utility.yul\":1115:1179   */\n  tag_29\n    /* \"#utility.yul\":1171:1178   */\n  dup5\n    /* \"#utility.yul\":1162:1168   */\n  dup3\n    /* \"#utility.yul\":1151:1160   */\n  dup6\n    /* \"#utility.yul\":1147:1169   */\n  add\n    /* \"#utility.yul\":1115:1179   */\n  tag_13\n  jump\t// in\ntag_29:\n    /* \"#utility.yul\":1105:1179   */\n  swap2\n  pop\n    /* \"#utility.yul\":1061:1189   */\n  pop\n    /* \"#utility.yul\":845:1196   */\n  swap3\n  swap2\n  pop\n  pop\n  jump\t// out\n    /* \"ElectronicMedicalRecords.sol\":11758:12816  contract DoctorRelation {... */\ntag_6:\n  dataSize(sub_0)\n  dup1\n  dataOffset(sub_0)\n  0x00\n  codecopy\n  0x00\n  return\nstop\n\nsub_0: assembly {\n        /* \"ElectronicMedicalRecords.sol\":11758:12816  contract DoctorRelation {... */\n      mstore(0x40, 0x80)\n      callvalue\n      dup1\n      iszero\n      tag_1\n      jumpi\n      0x00\n      dup1\n      revert\n    tag_1:\n      pop\n      jumpi(tag_2, lt(calldatasize, 0x04))\n      shr(0xe0, calldataload(0x00))\n      dup1\n      0x1107747e\n      eq\n      tag_3\n      jumpi\n      dup1\n      0x7362b53a\n      eq\n      tag_4\n      jumpi\n      dup1\n      0xf40941d0\n      eq\n      tag_5\n      jumpi\n    tag_2:\n      0x00\n      dup1\n      revert\n        /* \"ElectronicMedicalRecords.sol\":12060:12262  function setDoctorVerificatorAddress(address _DoctorVerificatorAddress) public {... */\n    tag_3:\n      tag_6\n      0x04\n      dup1\n      calldatasize\n      sub\n      dup2\n      add\n      swap1\n      tag_7\n      swap2\n      swap1\n      tag_8\n      jump\t// in\n    tag_7:\n      tag_9\n      jump\t// in\n    tag_6:\n      stop\n        /* \"ElectronicMedicalRecords.sol\":12270:12532  function addDoctorRelation(address _doctor, string memory _fullname, address _add) onlyDoctor(_doctor) public {... */\n    tag_4:\n      tag_10\n      0x04\n      dup1\n      calldatasize\n      sub\n      dup2\n      add\n      swap1\n      tag_11\n      swap2\n      swap1\n      tag_12\n      jump\t// in\n    tag_11:\n      tag_13\n      jump\t// in\n    tag_10:\n      stop\n        /* \"ElectronicMedicalRecords.sol\":12540:12694  function getDoctorRelations(address _doctor) public view onlyDoctor(msg.sender) returns(Patient[] memory) {... */\n    tag_5:\n      tag_14\n      0x04\n      dup1\n      calldatasize\n      sub\n      dup2\n      add\n      swap1\n      tag_15\n      swap2\n      swap1\n      tag_8\n      jump\t// in\n    tag_15:\n      tag_16\n      jump\t// in\n    tag_14:\n      mload(0x40)\n      tag_17\n      swap2\n      swap1\n      tag_18\n      jump\t// in\n    tag_17:\n      mload(0x40)\n      dup1\n      swap2\n      sub\n      swap1\n      return\n        /* \"ElectronicMedicalRecords.sol\":12060:12262  function setDoctorVerificatorAddress(address _DoctorVerificatorAddress) public {... */\n    tag_9:\n        /* \"ElectronicMedicalRecords.sol\":12172:12177  admin */\n      0x00\n      dup1\n      sload\n      swap1\n      0x0100\n      exp\n      swap1\n      div\n      0xffffffffffffffffffffffffffffffffffffffff\n      and\n        /* \"ElectronicMedicalRecords.sol\":12158:12177  msg.sender == admin */\n      0xffffffffffffffffffffffffffffffffffffffff\n      and\n        /* \"ElectronicMedicalRecords.sol\":12158:12168  msg.sender */\n      caller\n        /* \"ElectronicMedicalRecords.sol\":12158:12177  msg.sender == admin */\n      0xffffffffffffffffffffffffffffffffffffffff\n      and\n      eq\n        /* \"ElectronicMedicalRecords.sol\":12150:12178  require(msg.sender == admin) */\n      tag_20\n      jumpi\n      0x00\n      dup1\n      revert\n    tag_20:\n        /* \"ElectronicMedicalRecords.sol\":12228:12253  _DoctorVerificatorAddress */\n      dup1\n        /* \"ElectronicMedicalRecords.sol\":12189:12207  doctor_verificator */\n      0x02\n      0x00\n        /* \"ElectronicMedicalRecords.sol\":12189:12254  doctor_verificator = DoctorVerificator(_DoctorVerificatorAddress) */\n      0x0100\n      exp\n      dup2\n      sload\n      dup2\n      0xffffffffffffffffffffffffffffffffffffffff\n      mul\n      not\n      and\n      swap1\n      dup4\n      0xffffffffffffffffffffffffffffffffffffffff\n      and\n      mul\n      or\n      swap1\n      sstore\n      pop\n        /* \"ElectronicMedicalRecords.sol\":12060:12262  function setDoctorVerificatorAddress(address _DoctorVerificatorAddress) public {... */\n      pop\n      jump\t// out\n        /* \"ElectronicMedicalRecords.sol\":12270:12532  function addDoctorRelation(address _doctor, string memory _fullname, address _add) onlyDoctor(_doctor) public {... */\n    tag_13:\n        /* \"ElectronicMedicalRecords.sol\":12364:12371  _doctor */\n      dup3\n        /* \"ElectronicMedicalRecords.sol\":12758:12776  doctor_verificator */\n      0x02\n      0x00\n      swap1\n      sload\n      swap1\n      0x0100\n      exp\n      swap1\n      div\n      0xffffffffffffffffffffffffffffffffffffffff\n      and\n        /* \"ElectronicMedicalRecords.sol\":12758:12783  doctor_verificator.verify */\n      0xffffffffffffffffffffffffffffffffffffffff\n      and\n      0x63a9c3d7\n        /* \"ElectronicMedicalRecords.sol\":12784:12791  _doctor */\n      dup3\n        /* \"ElectronicMedicalRecords.sol\":12758:12792  doctor_verificator.verify(_doctor) */\n      mload(0x40)\n      dup3\n      0xffffffff\n      and\n      0xe0\n      shl\n      dup2\n      mstore\n      0x04\n      add\n      tag_22\n      swap2\n      swap1\n      tag_23\n      jump\t// in\n    tag_22:\n      0x20\n      mload(0x40)\n      dup1\n      dup4\n      sub\n      dup2\n      dup7\n      gas\n      staticcall\n      iszero\n      dup1\n      iszero\n      tag_25\n      jumpi\n      returndatasize\n      0x00\n      dup1\n      returndatacopy\n      revert(0x00, returndatasize)\n    tag_25:\n      pop\n      pop\n      pop\n      pop\n      mload(0x40)\n      returndatasize\n      not(0x1f)\n      0x1f\n      dup3\n      add\n      and\n      dup3\n      add\n      dup1\n      0x40\n      mstore\n      pop\n      dup2\n      add\n      swap1\n      tag_26\n      swap2\n      swap1\n      tag_27\n      jump\t// in\n    tag_26:\n        /* \"ElectronicMedicalRecords.sol\":12750:12793  require(doctor_verificator.verify(_doctor)) */\n      tag_28\n      jumpi\n      0x00\n      dup1\n      revert\n    tag_28:\n        /* \"ElectronicMedicalRecords.sol\":12391:12413  Patient memory patient */\n      tag_30\n      tag_31\n      jump\t// in\n    tag_30:\n        /* \"ElectronicMedicalRecords.sol\":12439:12448  _fullname */\n      dup4\n        /* \"ElectronicMedicalRecords.sol\":12424:12431  patient */\n      dup2\n        /* \"ElectronicMedicalRecords.sol\":12424:12436  patient.name */\n      0x00\n      add\n        /* \"ElectronicMedicalRecords.sol\":12424:12448  patient.name = _fullname */\n      dup2\n      swap1\n      mstore\n      pop\n        /* \"ElectronicMedicalRecords.sol\":12473:12477  _add */\n      dup3\n        /* \"ElectronicMedicalRecords.sol\":12459:12466  patient */\n      dup2\n        /* \"ElectronicMedicalRecords.sol\":12459:12470  patient.add */\n      0x20\n      add\n        /* \"ElectronicMedicalRecords.sol\":12459:12477  patient.add = _add */\n      swap1\n      0xffffffffffffffffffffffffffffffffffffffff\n      and\n      swap1\n      dup2\n      0xffffffffffffffffffffffffffffffffffffffff\n      and\n      dup2\n      mstore\n      pop\n      pop\n        /* \"ElectronicMedicalRecords.sol\":12488:12501  relatedPatien */\n      0x01\n        /* \"ElectronicMedicalRecords.sol\":12488:12510  relatedPatien[_doctor] */\n      0x00\n        /* \"ElectronicMedicalRecords.sol\":12502:12509  _doctor */\n      dup7\n        /* \"ElectronicMedicalRecords.sol\":12488:12510  relatedPatien[_doctor] */\n      0xffffffffffffffffffffffffffffffffffffffff\n      and\n      0xffffffffffffffffffffffffffffffffffffffff\n      and\n      dup2\n      mstore\n      0x20\n      add\n      swap1\n      dup2\n      mstore\n      0x20\n      add\n      0x00\n      keccak256\n        /* \"ElectronicMedicalRecords.sol\":12516:12523  patient */\n      dup2\n        /* \"ElectronicMedicalRecords.sol\":12488:12524  relatedPatien[_doctor].push(patient) */\n      swap1\n      dup1\n      0x01\n      dup2\n      sload\n      add\n      dup1\n      dup3\n      sstore\n      dup1\n      swap2\n      pop\n      pop\n      0x01\n      swap1\n      sub\n      swap1\n      0x00\n      mstore\n      keccak256(0x00, 0x20)\n      swap1\n      0x02\n      mul\n      add\n      0x00\n      swap1\n      swap2\n      swap1\n      swap2\n      swap1\n      swap2\n      pop\n      0x00\n      dup3\n      add\n      mload\n      dup2\n      0x00\n      add\n      swap1\n      dup2\n      tag_33\n      swap2\n      swap1\n      tag_34\n      jump\t// in\n    tag_33:\n      pop\n      0x20\n      dup3\n      add\n      mload\n      dup2\n      0x01\n      add\n      exp(0x0100, 0x00)\n      dup2\n      sload\n      dup2\n      0xffffffffffffffffffffffffffffffffffffffff\n      mul\n      not\n      and\n      swap1\n      dup4\n      0xffffffffffffffffffffffffffffffffffffffff\n      and\n      mul\n      or\n      swap1\n      sstore\n      pop\n      pop\n      pop\n        /* \"ElectronicMedicalRecords.sol\":12380:12532  {... */\n      pop\n        /* \"ElectronicMedicalRecords.sol\":12270:12532  function addDoctorRelation(address _doctor, string memory _fullname, address _add) onlyDoctor(_doctor) public {... */\n      pop\n      pop\n      pop\n      pop\n      jump\t// out\n        /* \"ElectronicMedicalRecords.sol\":12540:12694  function getDoctorRelations(address _doctor) public view onlyDoctor(msg.sender) returns(Patient[] memory) {... */\n    tag_16:\n        /* \"ElectronicMedicalRecords.sol\":12628:12644  Patient[] memory */\n      0x60\n        /* \"ElectronicMedicalRecords.sol\":12608:12618  msg.sender */\n      caller\n        /* \"ElectronicMedicalRecords.sol\":12758:12776  doctor_verificator */\n      0x02\n      0x00\n      swap1\n      sload\n      swap1\n      0x0100\n      exp\n      swap1\n      div\n      0xffffffffffffffffffffffffffffffffffffffff\n      and\n        /* \"ElectronicMedicalRecords.sol\":12758:12783  doctor_verificator.verify */\n      0xffffffffffffffffffffffffffffffffffffffff\n      and\n      0x63a9c3d7\n        /* \"ElectronicMedicalRecords.sol\":12784:12791  _doctor */\n      dup3\n        /* \"ElectronicMedicalRecords.sol\":12758:12792  doctor_verificator.verify(_doctor) */\n      mload(0x40)\n      dup3\n      0xffffffff\n      and\n      0xe0\n      shl\n      dup2\n      mstore\n      0x04\n      add\n      tag_36\n      swap2\n      swap1\n      tag_23\n      jump\t// in\n    tag_36:\n      0x20\n      mload(0x40)\n      dup1\n      dup4\n      sub\n      dup2\n      dup7\n      gas\n      staticcall\n      iszero\n      dup1\n      iszero\n      tag_38\n      jumpi\n      returndatasize\n      0x00\n      dup1\n      returndatacopy\n      revert(0x00, returndatasize)\n    tag_38:\n      pop\n      pop\n      pop\n      pop\n      mload(0x40)\n      returndatasize\n      not(0x1f)\n      0x1f\n      dup3\n      add\n      and\n      dup3\n      add\n      dup1\n      0x40\n      mstore\n      pop\n      dup2\n      add\n      swap1\n      tag_39\n      swap2\n      swap1\n      tag_27\n      jump\t// in\n    tag_39:\n        /* \"ElectronicMedicalRecords.sol\":12750:12793  require(doctor_verificator.verify(_doctor)) */\n      tag_40\n      jumpi\n      0x00\n      dup1\n      revert\n    tag_40:\n        /* \"ElectronicMedicalRecords.sol\":12664:12677  relatedPatien */\n      0x01\n        /* \"ElectronicMedicalRecords.sol\":12664:12686  relatedPatien[_doctor] */\n      0x00\n        /* \"ElectronicMedicalRecords.sol\":12678:12685  _doctor */\n      dup5\n        /* \"ElectronicMedicalRecords.sol\":12664:12686  relatedPatien[_doctor] */\n      0xffffffffffffffffffffffffffffffffffffffff\n      and\n      0xffffffffffffffffffffffffffffffffffffffff\n      and\n      dup2\n      mstore\n      0x20\n      add\n      swap1\n      dup2\n      mstore\n      0x20\n      add\n      0x00\n      keccak256\n        /* \"ElectronicMedicalRecords.sol\":12657:12686  return relatedPatien[_doctor] */\n      dup1\n      sload\n      dup1\n      0x20\n      mul\n      0x20\n      add\n      mload(0x40)\n      swap1\n      dup2\n      add\n      0x40\n      mstore\n      dup1\n      swap3\n      swap2\n      swap1\n      dup2\n      dup2\n      mstore\n      0x20\n      add\n      0x00\n      swap1\n    tag_42:\n      dup3\n      dup3\n      lt\n      iszero\n      tag_43\n      jumpi\n      dup4\n      dup3\n      swap1\n      0x00\n      mstore\n      keccak256(0x00, 0x20)\n      swap1\n      0x02\n      mul\n      add\n      mload(0x40)\n      dup1\n      0x40\n      add\n      0x40\n      mstore\n      swap1\n      dup2\n      0x00\n      dup3\n      add\n      dup1\n      sload\n      tag_45\n      swap1\n      tag_46\n      jump\t// in\n    tag_45:\n      dup1\n      0x1f\n      add\n      0x20\n      dup1\n      swap2\n      div\n      mul\n      0x20\n      add\n      mload(0x40)\n      swap1\n      dup2\n      add\n      0x40\n      mstore\n      dup1\n      swap3\n      swap2\n      swap1\n      dup2\n      dup2\n      mstore\n      0x20\n      add\n      dup3\n      dup1\n      sload\n      tag_47\n      swap1\n      tag_46\n      jump\t// in\n    tag_47:\n      dup1\n      iszero\n      tag_48\n      jumpi\n      dup1\n      0x1f\n      lt\n      tag_49\n      jumpi\n      0x0100\n      dup1\n      dup4\n      sload\n      div\n      mul\n      dup4\n      mstore\n      swap2\n      0x20\n      add\n      swap2\n      jump(tag_48)\n    tag_49:\n      dup3\n      add\n      swap2\n      swap1\n      0x00\n      mstore\n      keccak256(0x00, 0x20)\n      swap1\n    tag_50:\n      dup2\n      sload\n      dup2\n      mstore\n      swap1\n      0x01\n      add\n      swap1\n      0x20\n      add\n      dup1\n      dup4\n      gt\n      tag_50\n      jumpi\n      dup3\n      swap1\n      sub\n      0x1f\n      and\n      dup3\n      add\n      swap2\n    tag_48:\n      pop\n      pop\n      pop\n      pop\n      pop\n      dup2\n      mstore\n      0x20\n      add\n      0x01\n      dup3\n      add\n      0x00\n      swap1\n      sload\n      swap1\n      0x0100\n      exp\n      swap1\n      div\n      0xffffffffffffffffffffffffffffffffffffffff\n      and\n      0xffffffffffffffffffffffffffffffffffffffff\n      and\n      0xffffffffffffffffffffffffffffffffffffffff\n      and\n      dup2\n      mstore\n      pop\n      pop\n      dup2\n      mstore\n      0x20\n      add\n      swap1\n      0x01\n      add\n      swap1\n      jump(tag_42)\n    tag_43:\n      pop\n      pop\n      pop\n      pop\n      swap2\n      pop\n        /* \"ElectronicMedicalRecords.sol\":12540:12694  function getDoctorRelations(address _doctor) public view onlyDoctor(msg.sender) returns(Patient[] memory) {... */\n      pop\n      swap2\n      swap1\n      pop\n      jump\t// out\n    tag_31:\n      mload(0x40)\n      dup1\n      0x40\n      add\n      0x40\n      mstore\n      dup1\n      0x60\n      dup2\n      mstore\n      0x20\n      add\n      and(0xffffffffffffffffffffffffffffffffffffffff, 0x00)\n      dup2\n      mstore\n      pop\n      swap1\n      jump\t// out\n        /* \"#utility.yul\":7:82   */\n    tag_51:\n        /* \"#utility.yul\":40:46   */\n      0x00\n        /* \"#utility.yul\":73:75   */\n      0x40\n        /* \"#utility.yul\":67:76   */\n      mload\n        /* \"#utility.yul\":57:76   */\n      swap1\n      pop\n        /* \"#utility.yul\":7:82   */\n      swap1\n      jump\t// out\n        /* \"#utility.yul\":88:205   */\n    tag_52:\n        /* \"#utility.yul\":197:198   */\n      0x00\n        /* \"#utility.yul\":194:195   */\n      dup1\n        /* \"#utility.yul\":187:199   */\n      revert\n        /* \"#utility.yul\":211:328   */\n    tag_53:\n        /* \"#utility.yul\":320:321   */\n      0x00\n        /* \"#utility.yul\":317:318   */\n      dup1\n        /* \"#utility.yul\":310:322   */\n      revert\n        /* \"#utility.yul\":334:460   */\n    tag_54:\n        /* \"#utility.yul\":371:378   */\n      0x00\n        /* \"#utility.yul\":411:453   */\n      0xffffffffffffffffffffffffffffffffffffffff\n        /* \"#utility.yul\":404:409   */\n      dup3\n        /* \"#utility.yul\":400:454   */\n      and\n        /* \"#utility.yul\":389:454   */\n      swap1\n      pop\n        /* \"#utility.yul\":334:460   */\n      swap2\n      swap1\n      pop\n      jump\t// out\n        /* \"#utility.yul\":466:562   */\n    tag_55:\n        /* \"#utility.yul\":503:510   */\n      0x00\n        /* \"#utility.yul\":532:556   */\n      tag_107\n        /* \"#utility.yul\":550:555   */\n      dup3\n        /* \"#utility.yul\":532:556   */\n      tag_54\n      jump\t// in\n    tag_107:\n        /* \"#utility.yul\":521:556   */\n      swap1\n      pop\n        /* \"#utility.yul\":466:562   */\n      swap2\n      swap1\n      pop\n      jump\t// out\n        /* \"#utility.yul\":568:690   */\n    tag_56:\n        /* \"#utility.yul\":641:665   */\n      tag_109\n        /* \"#utility.yul\":659:664   */\n      dup2\n        /* \"#utility.yul\":641:665   */\n      tag_55\n      jump\t// in\n    tag_109:\n        /* \"#utility.yul\":634:639   */\n      dup2\n        /* \"#utility.yul\":631:666   */\n      eq\n        /* \"#utility.yul\":621:684   */\n      tag_110\n      jumpi\n        /* \"#utility.yul\":680:681   */\n      0x00\n        /* \"#utility.yul\":677:678   */\n      dup1\n        /* \"#utility.yul\":670:682   */\n      revert\n        /* \"#utility.yul\":621:684   */\n    tag_110:\n        /* \"#utility.yul\":568:690   */\n      pop\n      jump\t// out\n        /* \"#utility.yul\":696:835   */\n    tag_57:\n        /* \"#utility.yul\":742:747   */\n      0x00\n        /* \"#utility.yul\":780:786   */\n      dup2\n        /* \"#utility.yul\":767:787   */\n      calldataload\n        /* \"#utility.yul\":758:787   */\n      swap1\n      pop\n        /* \"#utility.yul\":796:829   */\n      tag_112\n        /* \"#utility.yul\":823:828   */\n      dup2\n        /* \"#utility.yul\":796:829   */\n      tag_56\n      jump\t// in\n    tag_112:\n        /* \"#utility.yul\":696:835   */\n      swap3\n      swap2\n      pop\n      pop\n      jump\t// out\n        /* \"#utility.yul\":841:1170   */\n    tag_8:\n        /* \"#utility.yul\":900:906   */\n      0x00\n        /* \"#utility.yul\":949:951   */\n      0x20\n        /* \"#utility.yul\":937:946   */\n      dup3\n        /* \"#utility.yul\":928:935   */\n      dup5\n        /* \"#utility.yul\":924:947   */\n      sub\n        /* \"#utility.yul\":920:952   */\n      slt\n        /* \"#utility.yul\":917:1036   */\n      iszero\n      tag_114\n      jumpi\n        /* \"#utility.yul\":955:1034   */\n      tag_115\n      tag_52\n      jump\t// in\n    tag_115:\n        /* \"#utility.yul\":917:1036   */\n    tag_114:\n        /* \"#utility.yul\":1075:1076   */\n      0x00\n        /* \"#utility.yul\":1100:1153   */\n      tag_116\n        /* \"#utility.yul\":1145:1152   */\n      dup5\n        /* \"#utility.yul\":1136:1142   */\n      dup3\n        /* \"#utility.yul\":1125:1134   */\n      dup6\n        /* \"#utility.yul\":1121:1143   */\n      add\n        /* \"#utility.yul\":1100:1153   */\n      tag_57\n      jump\t// in\n    tag_116:\n        /* \"#utility.yul\":1090:1153   */\n      swap2\n      pop\n        /* \"#utility.yul\":1046:1163   */\n      pop\n        /* \"#utility.yul\":841:1170   */\n      swap3\n      swap2\n      pop\n      pop\n      jump\t// out\n        /* \"#utility.yul\":1176:1293   */\n    tag_58:\n        /* \"#utility.yul\":1285:1286   */\n      0x00\n        /* \"#utility.yul\":1282:1283   */\n      dup1\n        /* \"#utility.yul\":1275:1287   */\n      revert\n        /* \"#utility.yul\":1299:1416   */\n    tag_59:\n        /* \"#utility.yul\":1408:1409   */\n      0x00\n        /* \"#utility.yul\":1405:1406   */\n      dup1\n        /* \"#utility.yul\":1398:1410   */\n      revert\n        /* \"#utility.yul\":1422:1524   */\n    tag_60:\n        /* \"#utility.yul\":1463:1469   */\n      0x00\n        /* \"#utility.yul\":1514:1516   */\n      0x1f\n        /* \"#utility.yul\":1510:1517   */\n      not\n        /* \"#utility.yul\":1505:1507   */\n      0x1f\n        /* \"#utility.yul\":1498:1503   */\n      dup4\n        /* \"#utility.yul\":1494:1508   */\n      add\n        /* \"#utility.yul\":1490:1518   */\n      and\n        /* \"#utility.yul\":1480:1518   */\n      swap1\n      pop\n        /* \"#utility.yul\":1422:1524   */\n      swap2\n      swap1\n      pop\n      jump\t// out\n        /* \"#utility.yul\":1530:1710   */\n    tag_61:\n        /* \"#utility.yul\":1578:1655   */\n      0x4e487b7100000000000000000000000000000000000000000000000000000000\n        /* \"#utility.yul\":1575:1576   */\n      0x00\n        /* \"#utility.yul\":1568:1656   */\n      mstore\n        /* \"#utility.yul\":1675:1679   */\n      0x41\n        /* \"#utility.yul\":1672:1673   */\n      0x04\n        /* \"#utility.yul\":1665:1680   */\n      mstore\n        /* \"#utility.yul\":1699:1703   */\n      0x24\n        /* \"#utility.yul\":1696:1697   */\n      0x00\n        /* \"#utility.yul\":1689:1704   */\n      revert\n        /* \"#utility.yul\":1716:1997   */\n    tag_62:\n        /* \"#utility.yul\":1799:1826   */\n      tag_122\n        /* \"#utility.yul\":1821:1825   */\n      dup3\n        /* \"#utility.yul\":1799:1826   */\n      tag_60\n      jump\t// in\n    tag_122:\n        /* \"#utility.yul\":1791:1797   */\n      dup2\n        /* \"#utility.yul\":1787:1827   */\n      add\n        /* \"#utility.yul\":1929:1935   */\n      dup2\n        /* \"#utility.yul\":1917:1927   */\n      dup2\n        /* \"#utility.yul\":1914:1936   */\n      lt\n        /* \"#utility.yul\":1893:1911   */\n      0xffffffffffffffff\n        /* \"#utility.yul\":1881:1891   */\n      dup3\n        /* \"#utility.yul\":1878:1912   */\n      gt\n        /* \"#utility.yul\":1875:1937   */\n      or\n        /* \"#utility.yul\":1872:1960   */\n      iszero\n      tag_123\n      jumpi\n        /* \"#utility.yul\":1940:1958   */\n      tag_124\n      tag_61\n      jump\t// in\n    tag_124:\n        /* \"#utility.yul\":1872:1960   */\n    tag_123:\n        /* \"#utility.yul\":1980:1990   */\n      dup1\n        /* \"#utility.yul\":1976:1978   */\n      0x40\n        /* \"#utility.yul\":1969:1991   */\n      mstore\n        /* \"#utility.yul\":1759:1997   */\n      pop\n        /* \"#utility.yul\":1716:1997   */\n      pop\n      pop\n      jump\t// out\n        /* \"#utility.yul\":2003:2132   */\n    tag_63:\n        /* \"#utility.yul\":2037:2043   */\n      0x00\n        /* \"#utility.yul\":2064:2084   */\n      tag_126\n      tag_51\n      jump\t// in\n    tag_126:\n        /* \"#utility.yul\":2054:2084   */\n      swap1\n      pop\n        /* \"#utility.yul\":2093:2126   */\n      tag_127\n        /* \"#utility.yul\":2121:2125   */\n      dup3\n        /* \"#utility.yul\":2113:2119   */\n      dup3\n        /* \"#utility.yul\":2093:2126   */\n      tag_62\n      jump\t// in\n    tag_127:\n        /* \"#utility.yul\":2003:2132   */\n      swap2\n      swap1\n      pop\n      jump\t// out\n        /* \"#utility.yul\":2138:2446   */\n    tag_64:\n        /* \"#utility.yul\":2200:2204   */\n      0x00\n        /* \"#utility.yul\":2290:2308   */\n      0xffffffffffffffff\n        /* \"#utility.yul\":2282:2288   */\n      dup3\n        /* \"#utility.yul\":2279:2309   */\n      gt\n        /* \"#utility.yul\":2276:2332   */\n      iszero\n      tag_129\n      jumpi\n        /* \"#utility.yul\":2312:2330   */\n      tag_130\n      tag_61\n      jump\t// in\n    tag_130:\n        /* \"#utility.yul\":2276:2332   */\n    tag_129:\n        /* \"#utility.yul\":2350:2379   */\n      tag_131\n        /* \"#utility.yul\":2372:2378   */\n      dup3\n        /* \"#utility.yul\":2350:2379   */\n      tag_60\n      jump\t// in\n    tag_131:\n        /* \"#utility.yul\":2342:2379   */\n      swap1\n      pop\n        /* \"#utility.yul\":2434:2438   */\n      0x20\n        /* \"#utility.yul\":2428:2432   */\n      dup2\n        /* \"#utility.yul\":2424:2439   */\n      add\n        /* \"#utility.yul\":2416:2439   */\n      swap1\n      pop\n        /* \"#utility.yul\":2138:2446   */\n      swap2\n      swap1\n      pop\n      jump\t// out\n        /* \"#utility.yul\":2452:2598   */\n    tag_65:\n        /* \"#utility.yul\":2549:2555   */\n      dup3\n        /* \"#utility.yul\":2544:2547   */\n      dup2\n        /* \"#utility.yul\":2539:2542   */\n      dup4\n        /* \"#utility.yul\":2526:2556   */\n      calldatacopy\n        /* \"#utility.yul\":2590:2591   */\n      0x00\n        /* \"#utility.yul\":2581:2587   */\n      dup4\n        /* \"#utility.yul\":2576:2579   */\n      dup4\n        /* \"#utility.yul\":2572:2588   */\n      add\n        /* \"#utility.yul\":2565:2592   */\n      mstore\n        /* \"#utility.yul\":2452:2598   */\n      pop\n      pop\n      pop\n      jump\t// out\n        /* \"#utility.yul\":2604:3029   */\n    tag_66:\n        /* \"#utility.yul\":2682:2687   */\n      0x00\n        /* \"#utility.yul\":2707:2773   */\n      tag_134\n        /* \"#utility.yul\":2723:2772   */\n      tag_135\n        /* \"#utility.yul\":2765:2771   */\n      dup5\n        /* \"#utility.yul\":2723:2772   */\n      tag_64\n      jump\t// in\n    tag_135:\n        /* \"#utility.yul\":2707:2773   */\n      tag_63\n      jump\t// in\n    tag_134:\n        /* \"#utility.yul\":2698:2773   */\n      swap1\n      pop\n        /* \"#utility.yul\":2796:2802   */\n      dup3\n        /* \"#utility.yul\":2789:2794   */\n      dup2\n        /* \"#utility.yul\":2782:2803   */\n      mstore\n        /* \"#utility.yul\":2834:2838   */\n      0x20\n        /* \"#utility.yul\":2827:2832   */\n      dup2\n        /* \"#utility.yul\":2823:2839   */\n      add\n        /* \"#utility.yul\":2872:2875   */\n      dup5\n        /* \"#utility.yul\":2863:2869   */\n      dup5\n        /* \"#utility.yul\":2858:2861   */\n      dup5\n        /* \"#utility.yul\":2854:2870   */\n      add\n        /* \"#utility.yul\":2851:2876   */\n      gt\n        /* \"#utility.yul\":2848:2960   */\n      iszero\n      tag_136\n      jumpi\n        /* \"#utility.yul\":2879:2958   */\n      tag_137\n      tag_59\n      jump\t// in\n    tag_137:\n        /* \"#utility.yul\":2848:2960   */\n    tag_136:\n        /* \"#utility.yul\":2969:3023   */\n      tag_138\n        /* \"#utility.yul\":3016:3022   */\n      dup5\n        /* \"#utility.yul\":3011:3014   */\n      dup3\n        /* \"#utility.yul\":3006:3009   */\n      dup6\n        /* \"#utility.yul\":2969:3023   */\n      tag_65\n      jump\t// in\n    tag_138:\n        /* \"#utility.yul\":2688:3029   */\n      pop\n        /* \"#utility.yul\":2604:3029   */\n      swap4\n      swap3\n      pop\n      pop\n      pop\n      jump\t// out\n        /* \"#utility.yul\":3049:3389   */\n    tag_67:\n        /* \"#utility.yul\":3105:3110   */\n      0x00\n        /* \"#utility.yul\":3154:3157   */\n      dup3\n        /* \"#utility.yul\":3147:3151   */\n      0x1f\n        /* \"#utility.yul\":3139:3145   */\n      dup4\n        /* \"#utility.yul\":3135:3152   */\n      add\n        /* \"#utility.yul\":3131:3158   */\n      slt\n        /* \"#utility.yul\":3121:3243   */\n      tag_140\n      jumpi\n        /* \"#utility.yul\":3162:3241   */\n      tag_141\n      tag_58\n      jump\t// in\n    tag_141:\n        /* \"#utility.yul\":3121:3243   */\n    tag_140:\n        /* \"#utility.yul\":3279:3285   */\n      dup2\n        /* \"#utility.yul\":3266:3286   */\n      calldataload\n        /* \"#utility.yul\":3304:3383   */\n      tag_142\n        /* \"#utility.yul\":3379:3382   */\n      dup5\n        /* \"#utility.yul\":3371:3377   */\n      dup3\n        /* \"#utility.yul\":3364:3368   */\n      0x20\n        /* \"#utility.yul\":3356:3362   */\n      dup7\n        /* \"#utility.yul\":3352:3369   */\n      add\n        /* \"#utility.yul\":3304:3383   */\n      tag_66\n      jump\t// in\n    tag_142:\n        /* \"#utility.yul\":3295:3383   */\n      swap2\n      pop\n        /* \"#utility.yul\":3111:3389   */\n      pop\n        /* \"#utility.yul\":3049:3389   */\n      swap3\n      swap2\n      pop\n      pop\n      jump\t// out\n        /* \"#utility.yul\":3395:4194   */\n    tag_12:\n        /* \"#utility.yul\":3482:3488   */\n      0x00\n        /* \"#utility.yul\":3490:3496   */\n      dup1\n        /* \"#utility.yul\":3498:3504   */\n      0x00\n        /* \"#utility.yul\":3547:3549   */\n      0x60\n        /* \"#utility.yul\":3535:3544   */\n      dup5\n        /* \"#utility.yul\":3526:3533   */\n      dup7\n        /* \"#utility.yul\":3522:3545   */\n      sub\n        /* \"#utility.yul\":3518:3550   */\n      slt\n        /* \"#utility.yul\":3515:3634   */\n      iszero\n      tag_144\n      jumpi\n        /* \"#utility.yul\":3553:3632   */\n      tag_145\n      tag_52\n      jump\t// in\n    tag_145:\n        /* \"#utility.yul\":3515:3634   */\n    tag_144:\n        /* \"#utility.yul\":3673:3674   */\n      0x00\n        /* \"#utility.yul\":3698:3751   */\n      tag_146\n        /* \"#utility.yul\":3743:3750   */\n      dup7\n        /* \"#utility.yul\":3734:3740   */\n      dup3\n        /* \"#utility.yul\":3723:3732   */\n      dup8\n        /* \"#utility.yul\":3719:3741   */\n      add\n        /* \"#utility.yul\":3698:3751   */\n      tag_57\n      jump\t// in\n    tag_146:\n        /* \"#utility.yul\":3688:3751   */\n      swap4\n      pop\n        /* \"#utility.yul\":3644:3761   */\n      pop\n        /* \"#utility.yul\":3828:3830   */\n      0x20\n        /* \"#utility.yul\":3817:3826   */\n      dup5\n        /* \"#utility.yul\":3813:3831   */\n      add\n        /* \"#utility.yul\":3800:3832   */\n      calldataload\n        /* \"#utility.yul\":3859:3877   */\n      0xffffffffffffffff\n        /* \"#utility.yul\":3851:3857   */\n      dup2\n        /* \"#utility.yul\":3848:3878   */\n      gt\n        /* \"#utility.yul\":3845:3962   */\n      iszero\n      tag_147\n      jumpi\n        /* \"#utility.yul\":3881:3960   */\n      tag_148\n      tag_53\n      jump\t// in\n    tag_148:\n        /* \"#utility.yul\":3845:3962   */\n    tag_147:\n        /* \"#utility.yul\":3986:4049   */\n      tag_149\n        /* \"#utility.yul\":4041:4048   */\n      dup7\n        /* \"#utility.yul\":4032:4038   */\n      dup3\n        /* \"#utility.yul\":4021:4030   */\n      dup8\n        /* \"#utility.yul\":4017:4039   */\n      add\n        /* \"#utility.yul\":3986:4049   */\n      tag_67\n      jump\t// in\n    tag_149:\n        /* \"#utility.yul\":3976:4049   */\n      swap3\n      pop\n        /* \"#utility.yul\":3771:4059   */\n      pop\n        /* \"#utility.yul\":4098:4100   */\n      0x40\n        /* \"#utility.yul\":4124:4177   */\n      tag_150\n        /* \"#utility.yul\":4169:4176   */\n      dup7\n        /* \"#utility.yul\":4160:4166   */\n      dup3\n        /* \"#utility.yul\":4149:4158   */\n      dup8\n        /* \"#utility.yul\":4145:4167   */\n      add\n        /* \"#utility.yul\":4124:4177   */\n      tag_57\n      jump\t// in\n    tag_150:\n        /* \"#utility.yul\":4114:4177   */\n      swap2\n      pop\n        /* \"#utility.yul\":4069:4187   */\n      pop\n        /* \"#utility.yul\":3395:4194   */\n      swap3\n      pop\n      swap3\n      pop\n      swap3\n      jump\t// out\n        /* \"#utility.yul\":4200:4339   */\n    tag_68:\n        /* \"#utility.yul\":4292:4298   */\n      0x00\n        /* \"#utility.yul\":4326:4331   */\n      dup2\n        /* \"#utility.yul\":4320:4332   */\n      mload\n        /* \"#utility.yul\":4310:4332   */\n      swap1\n      pop\n        /* \"#utility.yul\":4200:4339   */\n      swap2\n      swap1\n      pop\n      jump\t// out\n        /* \"#utility.yul\":4345:4554   */\n    tag_69:\n        /* \"#utility.yul\":4469:4480   */\n      0x00\n        /* \"#utility.yul\":4503:4509   */\n      dup3\n        /* \"#utility.yul\":4498:4501   */\n      dup3\n        /* \"#utility.yul\":4491:4510   */\n      mstore\n        /* \"#utility.yul\":4543:4547   */\n      0x20\n        /* \"#utility.yul\":4538:4541   */\n      dup3\n        /* \"#utility.yul\":4534:4548   */\n      add\n        /* \"#utility.yul\":4519:4548   */\n      swap1\n      pop\n        /* \"#utility.yul\":4345:4554   */\n      swap3\n      swap2\n      pop\n      pop\n      jump\t// out\n        /* \"#utility.yul\":4560:4717   */\n    tag_70:\n        /* \"#utility.yul\":4652:4656   */\n      0x00\n        /* \"#utility.yul\":4675:4678   */\n      dup2\n        /* \"#utility.yul\":4667:4678   */\n      swap1\n      pop\n        /* \"#utility.yul\":4705:4709   */\n      0x20\n        /* \"#utility.yul\":4700:4703   */\n      dup3\n        /* \"#utility.yul\":4696:4710   */\n      add\n        /* \"#utility.yul\":4688:4710   */\n      swap1\n      pop\n        /* \"#utility.yul\":4560:4717   */\n      swap2\n      swap1\n      pop\n      jump\t// out\n        /* \"#utility.yul\":4723:4822   */\n    tag_71:\n        /* \"#utility.yul\":4775:4781   */\n      0x00\n        /* \"#utility.yul\":4809:4814   */\n      dup2\n        /* \"#utility.yul\":4803:4815   */\n      mload\n        /* \"#utility.yul\":4793:4815   */\n      swap1\n      pop\n        /* \"#utility.yul\":4723:4822   */\n      swap2\n      swap1\n      pop\n      jump\t// out\n        /* \"#utility.yul\":4828:4987   */\n    tag_72:\n        /* \"#utility.yul\":4902:4913   */\n      0x00\n        /* \"#utility.yul\":4936:4942   */\n      dup3\n        /* \"#utility.yul\":4931:4934   */\n      dup3\n        /* \"#utility.yul\":4924:4943   */\n      mstore\n        /* \"#utility.yul\":4976:4980   */\n      0x20\n        /* \"#utility.yul\":4971:4974   */\n      dup3\n        /* \"#utility.yul\":4967:4981   */\n      add\n        /* \"#utility.yul\":4952:4981   */\n      swap1\n      pop\n        /* \"#utility.yul\":4828:4987   */\n      swap3\n      swap2\n      pop\n      pop\n      jump\t// out\n        /* \"#utility.yul\":4993:5239   */\n    tag_73:\n        /* \"#utility.yul\":5074:5075   */\n      0x00\n        /* \"#utility.yul\":5084:5197   */\n    tag_157:\n        /* \"#utility.yul\":5098:5104   */\n      dup4\n        /* \"#utility.yul\":5095:5096   */\n      dup2\n        /* \"#utility.yul\":5092:5105   */\n      lt\n        /* \"#utility.yul\":5084:5197   */\n      iszero\n      tag_159\n      jumpi\n        /* \"#utility.yul\":5183:5184   */\n      dup1\n        /* \"#utility.yul\":5178:5181   */\n      dup3\n        /* \"#utility.yul\":5174:5185   */\n      add\n        /* \"#utility.yul\":5168:5186   */\n      mload\n        /* \"#utility.yul\":5164:5165   */\n      dup2\n        /* \"#utility.yul\":5159:5162   */\n      dup5\n        /* \"#utility.yul\":5155:5166   */\n      add\n        /* \"#utility.yul\":5148:5187   */\n      mstore\n        /* \"#utility.yul\":5120:5122   */\n      0x20\n        /* \"#utility.yul\":5117:5118   */\n      dup2\n        /* \"#utility.yul\":5113:5123   */\n      add\n        /* \"#utility.yul\":5108:5123   */\n      swap1\n      pop\n        /* \"#utility.yul\":5084:5197   */\n      jump(tag_157)\n    tag_159:\n        /* \"#utility.yul\":5231:5232   */\n      0x00\n        /* \"#utility.yul\":5222:5228   */\n      dup5\n        /* \"#utility.yul\":5217:5220   */\n      dup5\n        /* \"#utility.yul\":5213:5229   */\n      add\n        /* \"#utility.yul\":5206:5233   */\n      mstore\n        /* \"#utility.yul\":5055:5239   */\n      pop\n        /* \"#utility.yul\":4993:5239   */\n      pop\n      pop\n      pop\n      jump\t// out\n        /* \"#utility.yul\":5245:5602   */\n    tag_74:\n        /* \"#utility.yul\":5323:5326   */\n      0x00\n        /* \"#utility.yul\":5351:5390   */\n      tag_161\n        /* \"#utility.yul\":5384:5389   */\n      dup3\n        /* \"#utility.yul\":5351:5390   */\n      tag_71\n      jump\t// in\n    tag_161:\n        /* \"#utility.yul\":5406:5467   */\n      tag_162\n        /* \"#utility.yul\":5460:5466   */\n      dup2\n        /* \"#utility.yul\":5455:5458   */\n      dup6\n        /* \"#utility.yul\":5406:5467   */\n      tag_72\n      jump\t// in\n    tag_162:\n        /* \"#utility.yul\":5399:5467   */\n      swap4\n      pop\n        /* \"#utility.yul\":5476:5541   */\n      tag_163\n        /* \"#utility.yul\":5534:5540   */\n      dup2\n        /* \"#utility.yul\":5529:5532   */\n      dup6\n        /* \"#utility.yul\":5522:5526   */\n      0x20\n        /* \"#utility.yul\":5515:5520   */\n      dup7\n        /* \"#utility.yul\":5511:5527   */\n      add\n        /* \"#utility.yul\":5476:5541   */\n      tag_73\n      jump\t// in\n    tag_163:\n        /* \"#utility.yul\":5566:5595   */\n      tag_164\n        /* \"#utility.yul\":5588:5594   */\n      dup2\n        /* \"#utility.yul\":5566:5595   */\n      tag_60\n      jump\t// in\n    tag_164:\n        /* \"#utility.yul\":5561:5564   */\n      dup5\n        /* \"#utility.yul\":5557:5596   */\n      add\n        /* \"#utility.yul\":5550:5596   */\n      swap2\n      pop\n        /* \"#utility.yul\":5327:5602   */\n      pop\n        /* \"#utility.yul\":5245:5602   */\n      swap3\n      swap2\n      pop\n      pop\n      jump\t// out\n        /* \"#utility.yul\":5608:5716   */\n    tag_75:\n        /* \"#utility.yul\":5685:5709   */\n      tag_166\n        /* \"#utility.yul\":5703:5708   */\n      dup2\n        /* \"#utility.yul\":5685:5709   */\n      tag_55\n      jump\t// in\n    tag_166:\n        /* \"#utility.yul\":5680:5683   */\n      dup3\n        /* \"#utility.yul\":5673:5710   */\n      mstore\n        /* \"#utility.yul\":5608:5716   */\n      pop\n      pop\n      jump\t// out\n        /* \"#utility.yul\":5792:6387   */\n    tag_76:\n        /* \"#utility.yul\":5901:5904   */\n      0x00\n        /* \"#utility.yul\":5937:5941   */\n      0x40\n        /* \"#utility.yul\":5932:5935   */\n      dup4\n        /* \"#utility.yul\":5928:5942   */\n      add\n        /* \"#utility.yul\":6024:6028   */\n      0x00\n        /* \"#utility.yul\":6017:6022   */\n      dup4\n        /* \"#utility.yul\":6013:6029   */\n      add\n        /* \"#utility.yul\":6007:6030   */\n      mload\n        /* \"#utility.yul\":6077:6080   */\n      dup5\n        /* \"#utility.yul\":6071:6075   */\n      dup3\n        /* \"#utility.yul\":6067:6081   */\n      sub\n        /* \"#utility.yul\":6060:6064   */\n      0x00\n        /* \"#utility.yul\":6055:6058   */\n      dup7\n        /* \"#utility.yul\":6051:6065   */\n      add\n        /* \"#utility.yul\":6044:6082   */\n      mstore\n        /* \"#utility.yul\":6103:6176   */\n      tag_168\n        /* \"#utility.yul\":6171:6175   */\n      dup3\n        /* \"#utility.yul\":6157:6169   */\n      dup3\n        /* \"#utility.yul\":6103:6176   */\n      tag_74\n      jump\t// in\n    tag_168:\n        /* \"#utility.yul\":6095:6176   */\n      swap2\n      pop\n        /* \"#utility.yul\":5952:6187   */\n      pop\n        /* \"#utility.yul\":6268:6272   */\n      0x20\n        /* \"#utility.yul\":6261:6266   */\n      dup4\n        /* \"#utility.yul\":6257:6273   */\n      add\n        /* \"#utility.yul\":6251:6274   */\n      mload\n        /* \"#utility.yul\":6287:6350   */\n      tag_169\n        /* \"#utility.yul\":6344:6348   */\n      0x20\n        /* \"#utility.yul\":6339:6342   */\n      dup7\n        /* \"#utility.yul\":6335:6349   */\n      add\n        /* \"#utility.yul\":6321:6333   */\n      dup3\n        /* \"#utility.yul\":6287:6350   */\n      tag_75\n      jump\t// in\n    tag_169:\n        /* \"#utility.yul\":6197:6360   */\n      pop\n        /* \"#utility.yul\":6377:6381   */\n      dup1\n        /* \"#utility.yul\":6370:6381   */\n      swap2\n      pop\n        /* \"#utility.yul\":5906:6387   */\n      pop\n        /* \"#utility.yul\":5792:6387   */\n      swap3\n      swap2\n      pop\n      pop\n      jump\t// out\n        /* \"#utility.yul\":6393:6649   */\n    tag_77:\n        /* \"#utility.yul\":6512:6522   */\n      0x00\n        /* \"#utility.yul\":6547:6643   */\n      tag_171\n        /* \"#utility.yul\":6639:6642   */\n      dup4\n        /* \"#utility.yul\":6631:6637   */\n      dup4\n        /* \"#utility.yul\":6547:6643   */\n      tag_76\n      jump\t// in\n    tag_171:\n        /* \"#utility.yul\":6533:6643   */\n      swap1\n      pop\n        /* \"#utility.yul\":6393:6649   */\n      swap3\n      swap2\n      pop\n      pop\n      jump\t// out\n        /* \"#utility.yul\":6655:6793   */\n    tag_78:\n        /* \"#utility.yul\":6750:6754   */\n      0x00\n        /* \"#utility.yul\":6782:6786   */\n      0x20\n        /* \"#utility.yul\":6777:6780   */\n      dup3\n        /* \"#utility.yul\":6773:6787   */\n      add\n        /* \"#utility.yul\":6765:6787   */\n      swap1\n      pop\n        /* \"#utility.yul\":6655:6793   */\n      swap2\n      swap1\n      pop\n      jump\t// out\n        /* \"#utility.yul\":6873:7984   */\n    tag_79:\n        /* \"#utility.yul\":7042:7045   */\n      0x00\n        /* \"#utility.yul\":7071:7150   */\n      tag_174\n        /* \"#utility.yul\":7144:7149   */\n      dup3\n        /* \"#utility.yul\":7071:7150   */\n      tag_68\n      jump\t// in\n    tag_174:\n        /* \"#utility.yul\":7166:7277   */\n      tag_175\n        /* \"#utility.yul\":7270:7276   */\n      dup2\n        /* \"#utility.yul\":7265:7268   */\n      dup6\n        /* \"#utility.yul\":7166:7277   */\n      tag_69\n      jump\t// in\n    tag_175:\n        /* \"#utility.yul\":7159:7277   */\n      swap4\n      pop\n        /* \"#utility.yul\":7303:7306   */\n      dup4\n        /* \"#utility.yul\":7348:7352   */\n      0x20\n        /* \"#utility.yul\":7340:7346   */\n      dup3\n        /* \"#utility.yul\":7336:7353   */\n      mul\n        /* \"#utility.yul\":7331:7334   */\n      dup6\n        /* \"#utility.yul\":7327:7354   */\n      add\n        /* \"#utility.yul\":7378:7459   */\n      tag_176\n        /* \"#utility.yul\":7453:7458   */\n      dup6\n        /* \"#utility.yul\":7378:7459   */\n      tag_70\n      jump\t// in\n    tag_176:\n        /* \"#utility.yul\":7482:7489   */\n      dup1\n        /* \"#utility.yul\":7513:7514   */\n      0x00\n        /* \"#utility.yul\":7498:7939   */\n    tag_177:\n        /* \"#utility.yul\":7523:7529   */\n      dup6\n        /* \"#utility.yul\":7520:7521   */\n      dup2\n        /* \"#utility.yul\":7517:7530   */\n      lt\n        /* \"#utility.yul\":7498:7939   */\n      iszero\n      tag_179\n      jumpi\n        /* \"#utility.yul\":7594:7603   */\n      dup5\n        /* \"#utility.yul\":7588:7592   */\n      dup5\n        /* \"#utility.yul\":7584:7604   */\n      sub\n        /* \"#utility.yul\":7579:7582   */\n      dup10\n        /* \"#utility.yul\":7572:7605   */\n      mstore\n        /* \"#utility.yul\":7645:7651   */\n      dup2\n        /* \"#utility.yul\":7639:7652   */\n      mload\n        /* \"#utility.yul\":7673:7787   */\n      tag_180\n        /* \"#utility.yul\":7782:7786   */\n      dup6\n        /* \"#utility.yul\":7767:7780   */\n      dup3\n        /* \"#utility.yul\":7673:7787   */\n      tag_77\n      jump\t// in\n    tag_180:\n        /* \"#utility.yul\":7665:7787   */\n      swap5\n      pop\n        /* \"#utility.yul\":7810:7895   */\n      tag_181\n        /* \"#utility.yul\":7888:7894   */\n      dup4\n        /* \"#utility.yul\":7810:7895   */\n      tag_78\n      jump\t// in\n    tag_181:\n        /* \"#utility.yul\":7800:7895   */\n      swap3\n      pop\n        /* \"#utility.yul\":7924:7928   */\n      0x20\n        /* \"#utility.yul\":7919:7922   */\n      dup11\n        /* \"#utility.yul\":7915:7929   */\n      add\n        /* \"#utility.yul\":7908:7929   */\n      swap10\n      pop\n        /* \"#utility.yul\":7558:7939   */\n      pop\n        /* \"#utility.yul\":7545:7546   */\n      0x01\n        /* \"#utility.yul\":7542:7543   */\n      dup2\n        /* \"#utility.yul\":7538:7547   */\n      add\n        /* \"#utility.yul\":7533:7547   */\n      swap1\n      pop\n        /* \"#utility.yul\":7498:7939   */\n      jump(tag_177)\n    tag_179:\n        /* \"#utility.yul\":7502:7516   */\n      pop\n        /* \"#utility.yul\":7955:7959   */\n      dup3\n        /* \"#utility.yul\":7948:7959   */\n      swap8\n      pop\n        /* \"#utility.yul\":7975:7978   */\n      dup8\n        /* \"#utility.yul\":7968:7978   */\n      swap6\n      pop\n        /* \"#utility.yul\":7047:7984   */\n      pop\n      pop\n      pop\n      pop\n      pop\n        /* \"#utility.yul\":6873:7984   */\n      swap3\n      swap2\n      pop\n      pop\n      jump\t// out\n        /* \"#utility.yul\":7990:8463   */\n    tag_18:\n        /* \"#utility.yul\":8183:8187   */\n      0x00\n        /* \"#utility.yul\":8221:8223   */\n      0x20\n        /* \"#utility.yul\":8210:8219   */\n      dup3\n        /* \"#utility.yul\":8206:8224   */\n      add\n        /* \"#utility.yul\":8198:8224   */\n      swap1\n      pop\n        /* \"#utility.yul\":8270:8279   */\n      dup2\n        /* \"#utility.yul\":8264:8268   */\n      dup2\n        /* \"#utility.yul\":8260:8280   */\n      sub\n        /* \"#utility.yul\":8256:8257   */\n      0x00\n        /* \"#utility.yul\":8245:8254   */\n      dup4\n        /* \"#utility.yul\":8241:8258   */\n      add\n        /* \"#utility.yul\":8234:8281   */\n      mstore\n        /* \"#utility.yul\":8298:8456   */\n      tag_183\n        /* \"#utility.yul\":8451:8455   */\n      dup2\n        /* \"#utility.yul\":8442:8448   */\n      dup5\n        /* \"#utility.yul\":8298:8456   */\n      tag_79\n      jump\t// in\n    tag_183:\n        /* \"#utility.yul\":8290:8456   */\n      swap1\n      pop\n        /* \"#utility.yul\":7990:8463   */\n      swap3\n      swap2\n      pop\n      pop\n      jump\t// out\n        /* \"#utility.yul\":8469:8587   */\n    tag_80:\n        /* \"#utility.yul\":8556:8580   */\n      tag_185\n        /* \"#utility.yul\":8574:8579   */\n      dup2\n        /* \"#utility.yul\":8556:8580   */\n      tag_55\n      jump\t// in\n    tag_185:\n        /* \"#utility.yul\":8551:8554   */\n      dup3\n        /* \"#utility.yul\":8544:8581   */\n      mstore\n        /* \"#utility.yul\":8469:8587   */\n      pop\n      pop\n      jump\t// out\n        /* \"#utility.yul\":8593:8815   */\n    tag_23:\n        /* \"#utility.yul\":8686:8690   */\n      0x00\n        /* \"#utility.yul\":8724:8726   */\n      0x20\n        /* \"#utility.yul\":8713:8722   */\n      dup3\n        /* \"#utility.yul\":8709:8727   */\n      add\n        /* \"#utility.yul\":8701:8727   */\n      swap1\n      pop\n        /* \"#utility.yul\":8737:8808   */\n      tag_187\n        /* \"#utility.yul\":8805:8806   */\n      0x00\n        /* \"#utility.yul\":8794:8803   */\n      dup4\n        /* \"#utility.yul\":8790:8807   */\n      add\n        /* \"#utility.yul\":8781:8787   */\n      dup5\n        /* \"#utility.yul\":8737:8808   */\n      tag_80\n      jump\t// in\n    tag_187:\n        /* \"#utility.yul\":8593:8815   */\n      swap3\n      swap2\n      pop\n      pop\n      jump\t// out\n        /* \"#utility.yul\":8821:8911   */\n    tag_81:\n        /* \"#utility.yul\":8855:8862   */\n      0x00\n        /* \"#utility.yul\":8898:8903   */\n      dup2\n        /* \"#utility.yul\":8891:8904   */\n      iszero\n        /* \"#utility.yul\":8884:8905   */\n      iszero\n        /* \"#utility.yul\":8873:8905   */\n      swap1\n      pop\n        /* \"#utility.yul\":8821:8911   */\n      swap2\n      swap1\n      pop\n      jump\t// out\n        /* \"#utility.yul\":8917:9033   */\n    tag_82:\n        /* \"#utility.yul\":8987:9008   */\n      tag_190\n        /* \"#utility.yul\":9002:9007   */\n      dup2\n        /* \"#utility.yul\":8987:9008   */\n      tag_81\n      jump\t// in\n    tag_190:\n        /* \"#utility.yul\":8980:8985   */\n      dup2\n        /* \"#utility.yul\":8977:9009   */\n      eq\n        /* \"#utility.yul\":8967:9027   */\n      tag_191\n      jumpi\n        /* \"#utility.yul\":9023:9024   */\n      0x00\n        /* \"#utility.yul\":9020:9021   */\n      dup1\n        /* \"#utility.yul\":9013:9025   */\n      revert\n        /* \"#utility.yul\":8967:9027   */\n    tag_191:\n        /* \"#utility.yul\":8917:9033   */\n      pop\n      jump\t// out\n        /* \"#utility.yul\":9039:9176   */\n    tag_83:\n        /* \"#utility.yul\":9093:9098   */\n      0x00\n        /* \"#utility.yul\":9124:9130   */\n      dup2\n        /* \"#utility.yul\":9118:9131   */\n      mload\n        /* \"#utility.yul\":9109:9131   */\n      swap1\n      pop\n        /* \"#utility.yul\":9140:9170   */\n      tag_193\n        /* \"#utility.yul\":9164:9169   */\n      dup2\n        /* \"#utility.yul\":9140:9170   */\n      tag_82\n      jump\t// in\n    tag_193:\n        /* \"#utility.yul\":9039:9176   */\n      swap3\n      swap2\n      pop\n      pop\n      jump\t// out\n        /* \"#utility.yul\":9182:9527   */\n    tag_27:\n        /* \"#utility.yul\":9249:9255   */\n      0x00\n        /* \"#utility.yul\":9298:9300   */\n      0x20\n        /* \"#utility.yul\":9286:9295   */\n      dup3\n        /* \"#utility.yul\":9277:9284   */\n      dup5\n        /* \"#utility.yul\":9273:9296   */\n      sub\n        /* \"#utility.yul\":9269:9301   */\n      slt\n        /* \"#utility.yul\":9266:9385   */\n      iszero\n      tag_195\n      jumpi\n        /* \"#utility.yul\":9304:9383   */\n      tag_196\n      tag_52\n      jump\t// in\n    tag_196:\n        /* \"#utility.yul\":9266:9385   */\n    tag_195:\n        /* \"#utility.yul\":9424:9425   */\n      0x00\n        /* \"#utility.yul\":9449:9510   */\n      tag_197\n        /* \"#utility.yul\":9502:9509   */\n      dup5\n        /* \"#utility.yul\":9493:9499   */\n      dup3\n        /* \"#utility.yul\":9482:9491   */\n      dup6\n        /* \"#utility.yul\":9478:9500   */\n      add\n        /* \"#utility.yul\":9449:9510   */\n      tag_83\n      jump\t// in\n    tag_197:\n        /* \"#utility.yul\":9439:9510   */\n      swap2\n      pop\n        /* \"#utility.yul\":9395:9520   */\n      pop\n        /* \"#utility.yul\":9182:9527   */\n      swap3\n      swap2\n      pop\n      pop\n      jump\t// out\n        /* \"#utility.yul\":9533:9713   */\n    tag_84:\n        /* \"#utility.yul\":9581:9658   */\n      0x4e487b7100000000000000000000000000000000000000000000000000000000\n        /* \"#utility.yul\":9578:9579   */\n      0x00\n        /* \"#utility.yul\":9571:9659   */\n      mstore\n        /* \"#utility.yul\":9678:9682   */\n      0x22\n        /* \"#utility.yul\":9675:9676   */\n      0x04\n        /* \"#utility.yul\":9668:9683   */\n      mstore\n        /* \"#utility.yul\":9702:9706   */\n      0x24\n        /* \"#utility.yul\":9699:9700   */\n      0x00\n        /* \"#utility.yul\":9692:9707   */\n      revert\n        /* \"#utility.yul\":9719:10039   */\n    tag_46:\n        /* \"#utility.yul\":9763:9769   */\n      0x00\n        /* \"#utility.yul\":9800:9801   */\n      0x02\n        /* \"#utility.yul\":9794:9798   */\n      dup3\n        /* \"#utility.yul\":9790:9802   */\n      div\n        /* \"#utility.yul\":9780:9802   */\n      swap1\n      pop\n        /* \"#utility.yul\":9847:9848   */\n      0x01\n        /* \"#utility.yul\":9841:9845   */\n      dup3\n        /* \"#utility.yul\":9837:9849   */\n      and\n        /* \"#utility.yul\":9868:9886   */\n      dup1\n        /* \"#utility.yul\":9858:9939   */\n      tag_200\n      jumpi\n        /* \"#utility.yul\":9924:9928   */\n      0x7f\n        /* \"#utility.yul\":9916:9922   */\n      dup3\n        /* \"#utility.yul\":9912:9929   */\n      and\n        /* \"#utility.yul\":9902:9929   */\n      swap2\n      pop\n        /* \"#utility.yul\":9858:9939   */\n    tag_200:\n        /* \"#utility.yul\":9986:9988   */\n      0x20\n        /* \"#utility.yul\":9978:9984   */\n      dup3\n        /* \"#utility.yul\":9975:9989   */\n      lt\n        /* \"#utility.yul\":9955:9973   */\n      dup2\n        /* \"#utility.yul\":9952:9990   */\n      sub\n        /* \"#utility.yul\":9949:10033   */\n      tag_201\n      jumpi\n        /* \"#utility.yul\":10005:10023   */\n      tag_202\n      tag_84\n      jump\t// in\n    tag_202:\n        /* \"#utility.yul\":9949:10033   */\n    tag_201:\n        /* \"#utility.yul\":9770:10039   */\n      pop\n        /* \"#utility.yul\":9719:10039   */\n      swap2\n      swap1\n      pop\n      jump\t// out\n        /* \"#utility.yul\":10045:10186   */\n    tag_85:\n        /* \"#utility.yul\":10094:10098   */\n      0x00\n        /* \"#utility.yul\":10117:10120   */\n      dup2\n        /* \"#utility.yul\":10109:10120   */\n      swap1\n      pop\n        /* \"#utility.yul\":10140:10143   */\n      dup2\n        /* \"#utility.yul\":10137:10138   */\n      0x00\n        /* \"#utility.yul\":10130:10144   */\n      mstore\n        /* \"#utility.yul\":10174:10178   */\n      0x20\n        /* \"#utility.yul\":10171:10172   */\n      0x00\n        /* \"#utility.yul\":10161:10179   */\n      keccak256\n        /* \"#utility.yul\":10153:10179   */\n      swap1\n      pop\n        /* \"#utility.yul\":10045:10186   */\n      swap2\n      swap1\n      pop\n      jump\t// out\n        /* \"#utility.yul\":10192:10285   */\n    tag_86:\n        /* \"#utility.yul\":10229:10235   */\n      0x00\n        /* \"#utility.yul\":10276:10278   */\n      0x20\n        /* \"#utility.yul\":10271:10273   */\n      0x1f\n        /* \"#utility.yul\":10264:10269   */\n      dup4\n        /* \"#utility.yul\":10260:10274   */\n      add\n        /* \"#utility.yul\":10256:10279   */\n      div\n        /* \"#utility.yul\":10246:10279   */\n      swap1\n      pop\n        /* \"#utility.yul\":10192:10285   */\n      swap2\n      swap1\n      pop\n      jump\t// out\n        /* \"#utility.yul\":10291:10398   */\n    tag_87:\n        /* \"#utility.yul\":10335:10343   */\n      0x00\n        /* \"#utility.yul\":10385:10390   */\n      dup3\n        /* \"#utility.yul\":10379:10383   */\n      dup3\n        /* \"#utility.yul\":10375:10391   */\n      shl\n        /* \"#utility.yul\":10354:10391   */\n      swap1\n      pop\n        /* \"#utility.yul\":10291:10398   */\n      swap3\n      swap2\n      pop\n      pop\n      jump\t// out\n        /* \"#utility.yul\":10404:10797   */\n    tag_88:\n        /* \"#utility.yul\":10473:10479   */\n      0x00\n        /* \"#utility.yul\":10523:10524   */\n      0x08\n        /* \"#utility.yul\":10511:10521   */\n      dup4\n        /* \"#utility.yul\":10507:10525   */\n      mul\n        /* \"#utility.yul\":10546:10643   */\n      tag_207\n        /* \"#utility.yul\":10576:10642   */\n      0xffffffffffffffffffffffffffffffffffffffffffffffffffffffffffffffff\n        /* \"#utility.yul\":10565:10574   */\n      dup3\n        /* \"#utility.yul\":10546:10643   */\n      tag_87\n      jump\t// in\n    tag_207:\n        /* \"#utility.yul\":10664:10703   */\n      tag_208\n        /* \"#utility.yul\":10694:10702   */\n      dup7\n        /* \"#utility.yul\":10683:10692   */\n      dup4\n        /* \"#utility.yul\":10664:10703   */\n      tag_87\n      jump\t// in\n    tag_208:\n        /* \"#utility.yul\":10652:10703   */\n      swap6\n      pop\n        /* \"#utility.yul\":10736:10740   */\n      dup1\n        /* \"#utility.yul\":10732:10741   */\n      not\n        /* \"#utility.yul\":10725:10730   */\n      dup5\n        /* \"#utility.yul\":10721:10742   */\n      and\n        /* \"#utility.yul\":10712:10742   */\n      swap4\n      pop\n        /* \"#utility.yul\":10785:10789   */\n      dup1\n        /* \"#utility.yul\":10775:10783   */\n      dup7\n        /* \"#utility.yul\":10771:10790   */\n      and\n        /* \"#utility.yul\":10764:10769   */\n      dup5\n        /* \"#utility.yul\":10761:10791   */\n      or\n        /* \"#utility.yul\":10751:10791   */\n      swap3\n      pop\n        /* \"#utility.yul\":10480:10797   */\n      pop\n      pop\n        /* \"#utility.yul\":10404:10797   */\n      swap4\n      swap3\n      pop\n      pop\n      pop\n      jump\t// out\n        /* \"#utility.yul\":10803:10880   */\n    tag_89:\n        /* \"#utility.yul\":10840:10847   */\n      0x00\n        /* \"#utility.yul\":10869:10874   */\n      dup2\n        /* \"#utility.yul\":10858:10874   */\n      swap1\n      pop\n        /* \"#utility.yul\":10803:10880   */\n      swap2\n      swap1\n      pop\n      jump\t// out\n        /* \"#utility.yul\":10886:10946   */\n    tag_90:\n        /* \"#utility.yul\":10914:10917   */\n      0x00\n        /* \"#utility.yul\":10935:10940   */\n      dup2\n        /* \"#utility.yul\":10928:10940   */\n      swap1\n      pop\n        /* \"#utility.yul\":10886:10946   */\n      swap2\n      swap1\n      pop\n      jump\t// out\n        /* \"#utility.yul\":10952:11094   */\n    tag_91:\n        /* \"#utility.yul\":11002:11011   */\n      0x00\n        /* \"#utility.yul\":11035:11088   */\n      tag_212\n        /* \"#utility.yul\":11053:11087   */\n      tag_213\n        /* \"#utility.yul\":11062:11086   */\n      tag_214\n        /* \"#utility.yul\":11080:11085   */\n      dup5\n        /* \"#utility.yul\":11062:11086   */\n      tag_89\n      jump\t// in\n    tag_214:\n        /* \"#utility.yul\":11053:11087   */\n      tag_90\n      jump\t// in\n    tag_213:\n        /* \"#utility.yul\":11035:11088   */\n      tag_89\n      jump\t// in\n    tag_212:\n        /* \"#utility.yul\":11022:11088   */\n      swap1\n      pop\n        /* \"#utility.yul\":10952:11094   */\n      swap2\n      swap1\n      pop\n      jump\t// out\n        /* \"#utility.yul\":11100:11175   */\n    tag_92:\n        /* \"#utility.yul\":11143:11146   */\n      0x00\n        /* \"#utility.yul\":11164:11169   */\n      dup2\n        /* \"#utility.yul\":11157:11169   */\n      swap1\n      pop\n        /* \"#utility.yul\":11100:11175   */\n      swap2\n      swap1\n      pop\n      jump\t// out\n        /* \"#utility.yul\":11181:11450   */\n    tag_93:\n        /* \"#utility.yul\":11291:11330   */\n      tag_217\n        /* \"#utility.yul\":11322:11329   */\n      dup4\n        /* \"#utility.yul\":11291:11330   */\n      tag_91\n      jump\t// in\n    tag_217:\n        /* \"#utility.yul\":11352:11443   */\n      tag_218\n        /* \"#utility.yul\":11401:11442   */\n      tag_219\n        /* \"#utility.yul\":11425:11441   */\n      dup3\n        /* \"#utility.yul\":11401:11442   */\n      tag_92\n      jump\t// in\n    tag_219:\n        /* \"#utility.yul\":11393:11399   */\n      dup5\n        /* \"#utility.yul\":11386:11390   */\n      dup5\n        /* \"#utility.yul\":11380:11391   */\n      sload\n        /* \"#utility.yul\":11352:11443   */\n      tag_88\n      jump\t// in\n    tag_218:\n        /* \"#utility.yul\":11346:11350   */\n      dup3\n        /* \"#utility.yul\":11339:11444   */\n      sstore\n        /* \"#utility.yul\":11257:11450   */\n      pop\n        /* \"#utility.yul\":11181:11450   */\n      pop\n      pop\n      pop\n      jump\t// out\n        /* \"#utility.yul\":11456:11529   */\n    tag_94:\n        /* \"#utility.yul\":11501:11504   */\n      0x00\n        /* \"#utility.yul\":11456:11529   */\n      swap1\n      jump\t// out\n        /* \"#utility.yul\":11535:11724   */\n    tag_95:\n        /* \"#utility.yul\":11612:11644   */\n      tag_222\n      tag_94\n      jump\t// in\n    tag_222:\n        /* \"#utility.yul\":11653:11718   */\n      tag_223\n        /* \"#utility.yul\":11711:11717   */\n      dup2\n        /* \"#utility.yul\":11703:11709   */\n      dup5\n        /* \"#utility.yul\":11697:11701   */\n      dup5\n        /* \"#utility.yul\":11653:11718   */\n      tag_93\n      jump\t// in\n    tag_223:\n        /* \"#utility.yul\":11588:11724   */\n      pop\n        /* \"#utility.yul\":11535:11724   */\n      pop\n      pop\n      jump\t// out\n        /* \"#utility.yul\":11730:11916   */\n    tag_96:\n        /* \"#utility.yul\":11790:11910   */\n    tag_225:\n        /* \"#utility.yul\":11807:11810   */\n      dup2\n        /* \"#utility.yul\":11800:11805   */\n      dup2\n        /* \"#utility.yul\":11797:11811   */\n      lt\n        /* \"#utility.yul\":11790:11910   */\n      iszero\n      tag_227\n      jumpi\n        /* \"#utility.yul\":11861:11900   */\n      tag_228\n        /* \"#utility.yul\":11898:11899   */\n      0x00\n        /* \"#utility.yul\":11891:11896   */\n      dup3\n        /* \"#utility.yul\":11861:11900   */\n      tag_95\n      jump\t// in\n    tag_228:\n        /* \"#utility.yul\":11834:11835   */\n      0x01\n        /* \"#utility.yul\":11827:11832   */\n      dup2\n        /* \"#utility.yul\":11823:11836   */\n      add\n        /* \"#utility.yul\":11814:11836   */\n      swap1\n      pop\n        /* \"#utility.yul\":11790:11910   */\n      jump(tag_225)\n    tag_227:\n        /* \"#utility.yul\":11730:11916   */\n      pop\n      pop\n      jump\t// out\n        /* \"#utility.yul\":11922:12465   */\n    tag_97:\n        /* \"#utility.yul\":12023:12025   */\n      0x1f\n        /* \"#utility.yul\":12018:12021   */\n      dup3\n        /* \"#utility.yul\":12015:12026   */\n      gt\n        /* \"#utility.yul\":12012:12458   */\n      iszero\n      tag_230\n      jumpi\n        /* \"#utility.yul\":12057:12095   */\n      tag_231\n        /* \"#utility.yul\":12089:12094   */\n      dup2\n        /* \"#utility.yul\":12057:12095   */\n      tag_85\n      jump\t// in\n    tag_231:\n        /* \"#utility.yul\":12141:12170   */\n      tag_232\n        /* \"#utility.yul\":12159:12169   */\n      dup5\n        /* \"#utility.yul\":12141:12170   */\n      tag_86\n      jump\t// in\n    tag_232:\n        /* \"#utility.yul\":12131:12139   */\n      dup2\n        /* \"#utility.yul\":12127:12171   */\n      add\n        /* \"#utility.yul\":12324:12326   */\n      0x20\n        /* \"#utility.yul\":12312:12322   */\n      dup6\n        /* \"#utility.yul\":12309:12327   */\n      lt\n        /* \"#utility.yul\":12306:12355   */\n      iszero\n      tag_233\n      jumpi\n        /* \"#utility.yul\":12345:12353   */\n      dup2\n        /* \"#utility.yul\":12330:12353   */\n      swap1\n      pop\n        /* \"#utility.yul\":12306:12355   */\n    tag_233:\n        /* \"#utility.yul\":12368:12448   */\n      tag_234\n        /* \"#utility.yul\":12424:12446   */\n      tag_235\n        /* \"#utility.yul\":12442:12445   */\n      dup6\n        /* \"#utility.yul\":12424:12446   */\n      tag_86\n      jump\t// in\n    tag_235:\n        /* \"#utility.yul\":12414:12422   */\n      dup4\n        /* \"#utility.yul\":12410:12447   */\n      add\n        /* \"#utility.yul\":12397:12408   */\n      dup3\n        /* \"#utility.yul\":12368:12448   */\n      tag_96\n      jump\t// in\n    tag_234:\n        /* \"#utility.yul\":12027:12458   */\n      pop\n      pop\n        /* \"#utility.yul\":12012:12458   */\n    tag_230:\n        /* \"#utility.yul\":11922:12465   */\n      pop\n      pop\n      pop\n      jump\t// out\n        /* \"#utility.yul\":12471:12588   */\n    tag_98:\n        /* \"#utility.yul\":12525:12533   */\n      0x00\n        /* \"#utility.yul\":12575:12580   */\n      dup3\n        /* \"#utility.yul\":12569:12573   */\n      dup3\n        /* \"#utility.yul\":12565:12581   */\n      shr\n        /* \"#utility.yul\":12544:12581   */\n      swap1\n      pop\n        /* \"#utility.yul\":12471:12588   */\n      swap3\n      swap2\n      pop\n      pop\n      jump\t// out\n        /* \"#utility.yul\":12594:12763   */\n    tag_99:\n        /* \"#utility.yul\":12638:12644   */\n      0x00\n        /* \"#utility.yul\":12671:12722   */\n      tag_238\n        /* \"#utility.yul\":12719:12720   */\n      0x00\n        /* \"#utility.yul\":12715:12721   */\n      not\n        /* \"#utility.yul\":12707:12712   */\n      dup5\n        /* \"#utility.yul\":12704:12705   */\n      0x08\n        /* \"#utility.yul\":12700:12713   */\n      mul\n        /* \"#utility.yul\":12671:12722   */\n      tag_98\n      jump\t// in\n    tag_238:\n        /* \"#utility.yul\":12667:12723   */\n      not\n        /* \"#utility.yul\":12752:12756   */\n      dup1\n        /* \"#utility.yul\":12746:12750   */\n      dup4\n        /* \"#utility.yul\":12742:12757   */\n      and\n        /* \"#utility.yul\":12732:12757   */\n      swap2\n      pop\n        /* \"#utility.yul\":12645:12763   */\n      pop\n        /* \"#utility.yul\":12594:12763   */\n      swap3\n      swap2\n      pop\n      pop\n      jump\t// out\n        /* \"#utility.yul\":12768:13063   */\n    tag_100:\n        /* \"#utility.yul\":12844:12848   */\n      0x00\n        /* \"#utility.yul\":12990:13019   */\n      tag_240\n        /* \"#utility.yul\":13015:13018   */\n      dup4\n        /* \"#utility.yul\":13009:13013   */\n      dup4\n        /* \"#utility.yul\":12990:13019   */\n      tag_99\n      jump\t// in\n    tag_240:\n        /* \"#utility.yul\":12982:13019   */\n      swap2\n      pop\n        /* \"#utility.yul\":13052:13055   */\n      dup3\n        /* \"#utility.yul\":13049:13050   */\n      0x02\n        /* \"#utility.yul\":13045:13056   */\n      mul\n        /* \"#utility.yul\":13039:13043   */\n      dup3\n        /* \"#utility.yul\":13036:13057   */\n      or\n        /* \"#utility.yul\":13028:13057   */\n      swap1\n      pop\n        /* \"#utility.yul\":12768:13063   */\n      swap3\n      swap2\n      pop\n      pop\n      jump\t// out\n        /* \"#utility.yul\":13068:14463   */\n    tag_34:\n        /* \"#utility.yul\":13185:13222   */\n      tag_242\n        /* \"#utility.yul\":13218:13221   */\n      dup3\n        /* \"#utility.yul\":13185:13222   */\n      tag_71\n      jump\t// in\n    tag_242:\n        /* \"#utility.yul\":13287:13305   */\n      0xffffffffffffffff\n        /* \"#utility.yul\":13279:13285   */\n      dup2\n        /* \"#utility.yul\":13276:13306   */\n      gt\n        /* \"#utility.yul\":13273:13329   */\n      iszero\n      tag_243\n      jumpi\n        /* \"#utility.yul\":13309:13327   */\n      tag_244\n      tag_61\n      jump\t// in\n    tag_244:\n        /* \"#utility.yul\":13273:13329   */\n    tag_243:\n        /* \"#utility.yul\":13353:13391   */\n      tag_245\n        /* \"#utility.yul\":13385:13389   */\n      dup3\n        /* \"#utility.yul\":13379:13390   */\n      sload\n        /* \"#utility.yul\":13353:13391   */\n      tag_46\n      jump\t// in\n    tag_245:\n        /* \"#utility.yul\":13438:13505   */\n      tag_246\n        /* \"#utility.yul\":13498:13504   */\n      dup3\n        /* \"#utility.yul\":13490:13496   */\n      dup3\n        /* \"#utility.yul\":13484:13488   */\n      dup6\n        /* \"#utility.yul\":13438:13505   */\n      tag_97\n      jump\t// in\n    tag_246:\n        /* \"#utility.yul\":13532:13533   */\n      0x00\n        /* \"#utility.yul\":13556:13560   */\n      0x20\n        /* \"#utility.yul\":13543:13560   */\n      swap1\n      pop\n        /* \"#utility.yul\":13588:13590   */\n      0x1f\n        /* \"#utility.yul\":13580:13586   */\n      dup4\n        /* \"#utility.yul\":13577:13591   */\n      gt\n        /* \"#utility.yul\":13605:13606   */\n      0x01\n        /* \"#utility.yul\":13600:14218   */\n      dup2\n      eq\n      tag_248\n      jumpi\n        /* \"#utility.yul\":14262:14263   */\n      0x00\n        /* \"#utility.yul\":14279:14285   */\n      dup5\n        /* \"#utility.yul\":14276:14353   */\n      iszero\n      tag_249\n      jumpi\n        /* \"#utility.yul\":14328:14337   */\n      dup3\n        /* \"#utility.yul\":14323:14326   */\n      dup8\n        /* \"#utility.yul\":14319:14338   */\n      add\n        /* \"#utility.yul\":14313:14339   */\n      mload\n        /* \"#utility.yul\":14304:14339   */\n      swap1\n      pop\n        /* \"#utility.yul\":14276:14353   */\n    tag_249:\n        /* \"#utility.yul\":14379:14446   */\n      tag_250\n        /* \"#utility.yul\":14439:14445   */\n      dup6\n        /* \"#utility.yul\":14432:14437   */\n      dup3\n        /* \"#utility.yul\":14379:14446   */\n      tag_100\n      jump\t// in\n    tag_250:\n        /* \"#utility.yul\":14373:14377   */\n      dup7\n        /* \"#utility.yul\":14366:14447   */\n      sstore\n        /* \"#utility.yul\":14235:14457   */\n      pop\n        /* \"#utility.yul\":13570:14457   */\n      jump(tag_247)\n        /* \"#utility.yul\":13600:14218   */\n    tag_248:\n        /* \"#utility.yul\":13652:13656   */\n      0x1f\n        /* \"#utility.yul\":13648:13657   */\n      not\n        /* \"#utility.yul\":13640:13646   */\n      dup5\n        /* \"#utility.yul\":13636:13658   */\n      and\n        /* \"#utility.yul\":13686:13723   */\n      tag_251\n        /* \"#utility.yul\":13718:13722   */\n      dup7\n        /* \"#utility.yul\":13686:13723   */\n      tag_85\n      jump\t// in\n    tag_251:\n        /* \"#utility.yul\":13745:13746   */\n      0x00\n        /* \"#utility.yul\":13759:13967   */\n    tag_252:\n        /* \"#utility.yul\":13773:13780   */\n      dup3\n        /* \"#utility.yul\":13770:13771   */\n      dup2\n        /* \"#utility.yul\":13767:13781   */\n      lt\n        /* \"#utility.yul\":13759:13967   */\n      iszero\n      tag_254\n      jumpi\n        /* \"#utility.yul\":13852:13861   */\n      dup5\n        /* \"#utility.yul\":13847:13850   */\n      dup10\n        /* \"#utility.yul\":13843:13862   */\n      add\n        /* \"#utility.yul\":13837:13863   */\n      mload\n        /* \"#utility.yul\":13829:13835   */\n      dup3\n        /* \"#utility.yul\":13822:13864   */\n      sstore\n        /* \"#utility.yul\":13903:13904   */\n      0x01\n        /* \"#utility.yul\":13895:13901   */\n      dup3\n        /* \"#utility.yul\":13891:13905   */\n      add\n        /* \"#utility.yul\":13881:13905   */\n      swap2\n      pop\n        /* \"#utility.yul\":13950:13952   */\n      0x20\n        /* \"#utility.yul\":13939:13948   */\n      dup6\n        /* \"#utility.yul\":13935:13953   */\n      add\n        /* \"#utility.yul\":13922:13953   */\n      swap5\n      pop\n        /* \"#utility.yul\":13796:13800   */\n      0x20\n        /* \"#utility.yul\":13793:13794   */\n      dup2\n        /* \"#utility.yul\":13789:13801   */\n      add\n        /* \"#utility.yul\":13784:13801   */\n      swap1\n      pop\n        /* \"#utility.yul\":13759:13967   */\n      jump(tag_252)\n    tag_254:\n        /* \"#utility.yul\":13995:14001   */\n      dup7\n        /* \"#utility.yul\":13986:13993   */\n      dup4\n        /* \"#utility.yul\":13983:14002   */\n      lt\n        /* \"#utility.yul\":13980:14159   */\n      iszero\n      tag_255\n      jumpi\n        /* \"#utility.yul\":14053:14062   */\n      dup5\n        /* \"#utility.yul\":14048:14051   */\n      dup10\n        /* \"#utility.yul\":14044:14063   */\n      add\n        /* \"#utility.yul\":14038:14064   */\n      mload\n        /* \"#utility.yul\":14096:14144   */\n      tag_256\n        /* \"#utility.yul\":14138:14142   */\n      0x1f\n        /* \"#utility.yul\":14130:14136   */\n      dup10\n        /* \"#utility.yul\":14126:14143   */\n      and\n        /* \"#utility.yul\":14115:14124   */\n      dup3\n        /* \"#utility.yul\":14096:14144   */\n      tag_99\n      jump\t// in\n    tag_256:\n        /* \"#utility.yul\":14088:14094   */\n      dup4\n        /* \"#utility.yul\":14081:14145   */\n      sstore\n        /* \"#utility.yul\":14003:14159   */\n      pop\n        /* \"#utility.yul\":13980:14159   */\n    tag_255:\n        /* \"#utility.yul\":14205:14206   */\n      0x01\n        /* \"#utility.yul\":14201:14202   */\n      0x02\n        /* \"#utility.yul\":14193:14199   */\n      dup9\n        /* \"#utility.yul\":14189:14203   */\n      mul\n        /* \"#utility.yul\":14185:14207   */\n      add\n        /* \"#utility.yul\":14179:14183   */\n      dup9\n        /* \"#utility.yul\":14172:14208   */\n      sstore\n        /* \"#utility.yul\":13607:14218   */\n      pop\n      pop\n      pop\n        /* \"#utility.yul\":13570:14457   */\n    tag_247:\n      pop\n        /* \"#utility.yul\":13160:14463   */\n      pop\n      pop\n      pop\n        /* \"#utility.yul\":13068:14463   */\n      pop\n      pop\n      jump\t// out\n\n    auxdata: 0xa2646970667358221220a0992e66dc20cac0ac1bfedd7a55ecb09ee405a897e02031fb9ba892973f99f564736f6c63430008110033\n}\n","bytecode":{"linkReferences":{},"object":"608060405234801561001057600080fd5b50604051610e2c380380610e2c833981810160405281019061003291906100db565b806000806101000a81548173ffffffffffffffffffffffffffffffffffffffff021916908373ffffffffffffffffffffffffffffffffffffffff16021790555050610108565b600080fd5b600073ffffffffffffffffffffffffffffffffffffffff82169050919050565b60006100a88261007d565b9050919050565b6100b88161009d565b81146100c357600080fd5b50565b6000815190506100d5816100af565b92915050565b6000602082840312156100f1576100f0610078565b5b60006100ff848285016100c6565b91505092915050565b610d15806101176000396000f3fe608060405234801561001057600080fd5b50600436106100415760003560e01c80631107747e146100465780637362b53a14610062578063f40941d01461007e575b600080fd5b610060600480360381019061005b91906105d7565b6100ae565b005b61007c6004803603810190610077919061074a565b61014a565b005b610098600480360381019061009391906105d7565b610308565b6040516100a59190610946565b60405180910390f35b60008054906101000a900473ffffffffffffffffffffffffffffffffffffffff1673ffffffffffffffffffffffffffffffffffffffff163373ffffffffffffffffffffffffffffffffffffffff161461010657600080fd5b80600260006101000a81548173ffffffffffffffffffffffffffffffffffffffff021916908373ffffffffffffffffffffffffffffffffffffffff16021790555050565b82600260009054906101000a900473ffffffffffffffffffffffffffffffffffffffff1673ffffffffffffffffffffffffffffffffffffffff166363a9c3d7826040518263ffffffff1660e01b81526004016101a69190610977565b602060405180830381865afa1580156101c3573d6000803e3d6000fd5b505050506040513d601f19601f820116820180604052508101906101e791906109ca565b6101f057600080fd5b6101f8610535565b83816000018190525082816020019073ffffffffffffffffffffffffffffffffffffffff16908173ffffffffffffffffffffffffffffffffffffffff1681525050600160008673ffffffffffffffffffffffffffffffffffffffff1673ffffffffffffffffffffffffffffffffffffffff16815260200190815260200160002081908060018154018082558091505060019003906000526020600020906002020160009091909190915060008201518160000190816102b79190610c0d565b5060208201518160010160006101000a81548173ffffffffffffffffffffffffffffffffffffffff021916908373ffffffffffffffffffffffffffffffffffffffff16021790555050505050505050565b606033600260009054906101000a900473ffffffffffffffffffffffffffffffffffffffff1673ffffffffffffffffffffffffffffffffffffffff166363a9c3d7826040518263ffffffff1660e01b81526004016103669190610977565b602060405180830381865afa158015610383573d6000803e3d6000fd5b505050506040513d601f19601f820116820180604052508101906103a791906109ca565b6103b057600080fd5b600160008473ffffffffffffffffffffffffffffffffffffffff1673ffffffffffffffffffffffffffffffffffffffff168152602001908152602001600020805480602002602001604051908101604052809291908181526020016000905b82821015610529578382906000526020600020906002020160405180604001604052908160008201805461044290610a26565b80601f016020809104026020016040519081016040528092919081815260200182805461046e90610a26565b80156104bb5780601f10610490576101008083540402835291602001916104bb565b820191906000526020600020905b81548152906001019060200180831161049e57829003601f168201915b505050505081526020016001820160009054906101000a900473ffffffffffffffffffffffffffffffffffffffff1673ffffffffffffffffffffffffffffffffffffffff1673ffffffffffffffffffffffffffffffffffffffff16815250508152602001906001019061040f565b50505050915050919050565b604051806040016040528060608152602001600073ffffffffffffffffffffffffffffffffffffffff1681525090565b6000604051905090565b600080fd5b600080fd5b600073ffffffffffffffffffffffffffffffffffffffff82169050919050565b60006105a482610579565b9050919050565b6105b481610599565b81146105bf57600080fd5b50565b6000813590506105d1816105ab565b92915050565b6000602082840312156105ed576105ec61056f565b5b60006105fb848285016105c2565b91505092915050565b600080fd5b600080fd5b6000601f19601f8301169050919050565b7f4e487b7100000000000000000000000000000000000000000000000000000000600052604160045260246000fd5b6106578261060e565b810181811067ffffffffffffffff821117156106765761067561061f565b5b80604052505050565b6000610689610565565b9050610695828261064e565b919050565b600067ffffffffffffffff8211156106b5576106b461061f565b5b6106be8261060e565b9050602081019050919050565b82818337600083830152505050565b60006106ed6106e88461069a565b61067f565b90508281526020810184848401111561070957610708610609565b5b6107148482856106cb565b509392505050565b600082601f83011261073157610730610604565b5b81356107418482602086016106da565b91505092915050565b6000806000606084860312156107635761076261056f565b5b6000610771868287016105c2565b935050602084013567ffffffffffffffff81111561079257610791610574565b5b61079e8682870161071c565b92505060406107af868287016105c2565b9150509250925092565b600081519050919050565b600082825260208201905092915050565b6000819050602082019050919050565b600081519050919050565b600082825260208201905092915050565b60005b8381101561081f578082015181840152602081019050610804565b60008484015250505050565b6000610836826107e5565b61084081856107f0565b9350610850818560208601610801565b6108598161060e565b840191505092915050565b61086d81610599565b82525050565b60006040830160008301518482036000860152610890828261082b565b91505060208301516108a56020860182610864565b508091505092915050565b60006108bc8383610873565b905092915050565b6000602082019050919050565b60006108dc826107b9565b6108e681856107c4565b9350836020820285016108f8856107d5565b8060005b85811015610934578484038952815161091585826108b0565b9450610920836108c4565b925060208a019950506001810190506108fc565b50829750879550505050505092915050565b6000602082019050818103600083015261096081846108d1565b905092915050565b61097181610599565b82525050565b600060208201905061098c6000830184610968565b92915050565b60008115159050919050565b6109a781610992565b81146109b257600080fd5b50565b6000815190506109c48161099e565b92915050565b6000602082840312156109e0576109df61056f565b5b60006109ee848285016109b5565b91505092915050565b7f4e487b7100000000000000000000000000000000000000000000000000000000600052602260045260246000fd5b60006002820490506001821680610a3e57607f821691505b602082108103610a5157610a506109f7565b5b50919050565b60008190508160005260206000209050919050565b60006020601f8301049050919050565b600082821b905092915050565b600060088302610ab97fffffffffffffffffffffffffffffffffffffffffffffffffffffffffffffffff82610a7c565b610ac38683610a7c565b95508019841693508086168417925050509392505050565b6000819050919050565b6000819050919050565b6000610b0a610b05610b0084610adb565b610ae5565b610adb565b9050919050565b6000819050919050565b610b2483610aef565b610b38610b3082610b11565b848454610a89565b825550505050565b600090565b610b4d610b40565b610b58818484610b1b565b505050565b5b81811015610b7c57610b71600082610b45565b600181019050610b5e565b5050565b601f821115610bc157610b9281610a57565b610b9b84610a6c565b81016020851015610baa578190505b610bbe610bb685610a6c565b830182610b5d565b50505b505050565b600082821c905092915050565b6000610be460001984600802610bc6565b1980831691505092915050565b6000610bfd8383610bd3565b9150826002028217905092915050565b610c16826107e5565b67ffffffffffffffff811115610c2f57610c2e61061f565b5b610c398254610a26565b610c44828285610b80565b600060209050601f831160018114610c775760008415610c65578287015190505b610c6f8582610bf1565b865550610cd7565b601f198416610c8586610a57565b60005b82811015610cad57848901518255600182019150602085019450602081019050610c88565b86831015610cca5784890151610cc6601f891682610bd3565b8355505b6001600288020188555050505b50505050505056fea2646970667358221220a0992e66dc20cac0ac1bfedd7a55ecb09ee405a897e02031fb9ba892973f99f564736f6c63430008110033","opcodes":"PUSH1 0x80 PUSH1 0x40 MSTORE CALLVALUE DUP1 ISZERO PUSH2 0x10 JUMPI PUSH1 0x0 DUP1 REVERT JUMPDEST POP PUSH1 0x40 MLOAD PUSH2 0xE2C CODESIZE SUB DUP1 PUSH2 0xE2C DUP4 CODECOPY DUP2 DUP2 ADD PUSH1 0x40 MSTORE DUP2 ADD SWAP1 PUSH2 0x32 SWAP2 SWAP1 PUSH2 0xDB JUMP JUMPDEST DUP1 PUSH1 0x0 DUP1 PUSH2 0x100 EXP DUP2 SLOAD DUP2 PUSH20 0xFFFFFFFFFFFFFFFFFFFFFFFFFFFFFFFFFFFFFFFF MUL NOT AND SWAP1 DUP4 PUSH20 0xFFFFFFFFFFFFFFFFFFFFFFFFFFFFFFFFFFFFFFFF AND MUL OR SWAP1 SSTORE POP POP PUSH2 0x108 JUMP JUMPDEST PUSH1 0x0 DUP1 REVERT JUMPDEST PUSH1 0x0 PUSH20 0xFFFFFFFFFFFFFFFFFFFFFFFFFFFFFFFFFFFFFFFF DUP3 AND SWAP1 POP SWAP2 SWAP1 POP JUMP JUMPDEST PUSH1 0x0 PUSH2 0xA8 DUP3 PUSH2 0x7D JUMP JUMPDEST SWAP1 POP SWAP2 SWAP1 POP JUMP JUMPDEST PUSH2 0xB8 DUP2 PUSH2 0x9D JUMP JUMPDEST DUP2 EQ PUSH2 0xC3 JUMPI PUSH1 0x0 DUP1 REVERT JUMPDEST POP JUMP JUMPDEST PUSH1 0x0 DUP2 MLOAD SWAP1 POP PUSH2 0xD5 DUP2 PUSH2 0xAF JUMP JUMPDEST SWAP3 SWAP2 POP POP JUMP JUMPDEST PUSH1 0x0 PUSH1 0x20 DUP3 DUP5 SUB SLT ISZERO PUSH2 0xF1 JUMPI PUSH2 0xF0 PUSH2 0x78 JUMP JUMPDEST JUMPDEST PUSH1 0x0 PUSH2 0xFF DUP5 DUP3 DUP6 ADD PUSH2 0xC6 JUMP JUMPDEST SWAP2 POP POP SWAP3 SWAP2 POP POP JUMP JUMPDEST PUSH2 0xD15 DUP1 PUSH2 0x117 PUSH1 0x0 CODECOPY PUSH1 0x0 RETURN INVALID PUSH1 0x80 PUSH1 0x40 MSTORE CALLVALUE DUP1 ISZERO PUSH2 0x10 JUMPI PUSH1 0x0 DUP1 REVERT JUMPDEST POP PUSH1 0x4 CALLDATASIZE LT PUSH2 0x41 JUMPI PUSH1 0x0 CALLDATALOAD PUSH1 0xE0 SHR DUP1 PUSH4 0x1107747E EQ PUSH2 0x46 JUMPI DUP1 PUSH4 0x7362B53A EQ PUSH2 0x62 JUMPI DUP1 PUSH4 0xF40941D0 EQ PUSH2 0x7E JUMPI JUMPDEST PUSH1 0x0 DUP1 REVERT JUMPDEST PUSH2 0x60 PUSH1 0x4 DUP1 CALLDATASIZE SUB DUP2 ADD SWAP1 PUSH2 0x5B SWAP2 SWAP1 PUSH2 0x5D7 JUMP JUMPDEST PUSH2 0xAE JUMP JUMPDEST STOP JUMPDEST PUSH2 0x7C PUSH1 0x4 DUP1 CALLDATASIZE SUB DUP2 ADD SWAP1 PUSH2 0x77 SWAP2 SWAP1 PUSH2 0x74A JUMP JUMPDEST PUSH2 0x14A JUMP JUMPDEST STOP JUMPDEST PUSH2 0x98 PUSH1 0x4 DUP1 CALLDATASIZE SUB DUP2 ADD SWAP1 PUSH2 0x93 SWAP2 SWAP1 PUSH2 0x5D7 JUMP JUMPDEST PUSH2 0x308 JUMP JUMPDEST PUSH1 0x40 MLOAD PUSH2 0xA5 SWAP2 SWAP1 PUSH2 0x946 JUMP JUMPDEST PUSH1 0x40 MLOAD DUP1 SWAP2 SUB SWAP1 RETURN JUMPDEST PUSH1 0x0 DUP1 SLOAD SWAP1 PUSH2 0x100 EXP SWAP1 DIV PUSH20 0xFFFFFFFFFFFFFFFFFFFFFFFFFFFFFFFFFFFFFFFF AND PUSH20 0xFFFFFFFFFFFFFFFFFFFFFFFFFFFFFFFFFFFFFFFF AND CALLER PUSH20 0xFFFFFFFFFFFFFFFFFFFFFFFFFFFFFFFFFFFFFFFF AND EQ PUSH2 0x106 JUMPI PUSH1 0x0 DUP1 REVERT JUMPDEST DUP1 PUSH1 0x2 PUSH1 0x0 PUSH2 0x100 EXP DUP2 SLOAD DUP2 PUSH20 0xFFFFFFFFFFFFFFFFFFFFFFFFFFFFFFFFFFFFFFFF MUL NOT AND SWAP1 DUP4 PUSH20 0xFFFFFFFFFFFFFFFFFFFFFFFFFFFFFFFFFFFFFFFF AND MUL OR SWAP1 SSTORE POP POP JUMP JUMPDEST DUP3 PUSH1 0x2 PUSH1 0x0 SWAP1 SLOAD SWAP1 PUSH2 0x100 EXP SWAP1 DIV PUSH20 0xFFFFFFFFFFFFFFFFFFFFFFFFFFFFFFFFFFFFFFFF AND PUSH20 0xFFFFFFFFFFFFFFFFFFFFFFFFFFFFFFFFFFFFFFFF AND PUSH4 0x63A9C3D7 DUP3 PUSH1 0x40 MLOAD DUP3 PUSH4 0xFFFFFFFF AND PUSH1 0xE0 SHL DUP2 MSTORE PUSH1 0x4 ADD PUSH2 0x1A6 SWAP2 SWAP1 PUSH2 0x977 JUMP JUMPDEST PUSH1 0x20 PUSH1 0x40 MLOAD DUP1 DUP4 SUB DUP2 DUP7 GAS STATICCALL ISZERO DUP1 ISZERO PUSH2 0x1C3 JUMPI RETURNDATASIZE PUSH1 0x0 DUP1 RETURNDATACOPY RETURNDATASIZE PUSH1 0x0 REVERT JUMPDEST POP POP POP POP PUSH1 0x40 MLOAD RETURNDATASIZE PUSH1 0x1F NOT PUSH1 0x1F DUP3 ADD AND DUP3 ADD DUP1 PUSH1 0x40 MSTORE POP DUP2 ADD SWAP1 PUSH2 0x1E7 SWAP2 SWAP1 PUSH2 0x9CA JUMP JUMPDEST PUSH2 0x1F0 JUMPI PUSH1 0x0 DUP1 REVERT JUMPDEST PUSH2 0x1F8 PUSH2 0x535 JUMP JUMPDEST DUP4 DUP2 PUSH1 0x0 ADD DUP2 SWAP1 MSTORE POP DUP3 DUP2 PUSH1 0x20 ADD SWAP1 PUSH20 0xFFFFFFFFFFFFFFFFFFFFFFFFFFFFFFFFFFFFFFFF AND SWAP1 DUP2 PUSH20 0xFFFFFFFFFFFFFFFFFFFFFFFFFFFFFFFFFFFFFFFF AND DUP2 MSTORE POP POP PUSH1 0x1 PUSH1 0x0 DUP7 PUSH20 0xFFFFFFFFFFFFFFFFFFFFFFFFFFFFFFFFFFFFFFFF AND PUSH20 0xFFFFFFFFFFFFFFFFFFFFFFFFFFFFFFFFFFFFFFFF AND DUP2 MSTORE PUSH1 0x20 ADD SWAP1 DUP2 MSTORE PUSH1 0x20 ADD PUSH1 0x0 KECCAK256 DUP2 SWAP1 DUP1 PUSH1 0x1 DUP2 SLOAD ADD DUP1 DUP3 SSTORE DUP1 SWAP2 POP POP PUSH1 0x1 SWAP1 SUB SWAP1 PUSH1 0x0 MSTORE PUSH1 0x20 PUSH1 0x0 KECCAK256 SWAP1 PUSH1 0x2 MUL ADD PUSH1 0x0 SWAP1 SWAP2 SWAP1 SWAP2 SWAP1 SWAP2 POP PUSH1 0x0 DUP3 ADD MLOAD DUP2 PUSH1 0x0 ADD SWAP1 DUP2 PUSH2 0x2B7 SWAP2 SWAP1 PUSH2 0xC0D JUMP JUMPDEST POP PUSH1 0x20 DUP3 ADD MLOAD DUP2 PUSH1 0x1 ADD PUSH1 0x0 PUSH2 0x100 EXP DUP2 SLOAD DUP2 PUSH20 0xFFFFFFFFFFFFFFFFFFFFFFFFFFFFFFFFFFFFFFFF MUL NOT AND SWAP1 DUP4 PUSH20 0xFFFFFFFFFFFFFFFFFFFFFFFFFFFFFFFFFFFFFFFF AND MUL OR SWAP1 SSTORE POP POP POP POP POP POP POP POP JUMP JUMPDEST PUSH1 0x60 CALLER PUSH1 0x2 PUSH1 0x0 SWAP1 SLOAD SWAP1 PUSH2 0x100 EXP SWAP1 DIV PUSH20 0xFFFFFFFFFFFFFFFFFFFFFFFFFFFFFFFFFFFFFFFF AND PUSH20 0xFFFFFFFFFFFFFFFFFFFFFFFFFFFFFFFFFFFFFFFF AND PUSH4 0x63A9C3D7 DUP3 PUSH1 0x40 MLOAD DUP3 PUSH4 0xFFFFFFFF AND PUSH1 0xE0 SHL DUP2 MSTORE PUSH1 0x4 ADD PUSH2 0x366 SWAP2 SWAP1 PUSH2 0x977 JUMP JUMPDEST PUSH1 0x20 PUSH1 0x40 MLOAD DUP1 DUP4 SUB DUP2 DUP7 GAS STATICCALL ISZERO DUP1 ISZERO PUSH2 0x383 JUMPI RETURNDATASIZE PUSH1 0x0 DUP1 RETURNDATACOPY RETURNDATASIZE PUSH1 0x0 REVERT JUMPDEST POP POP POP POP PUSH1 0x40 MLOAD RETURNDATASIZE PUSH1 0x1F NOT PUSH1 0x1F DUP3 ADD AND DUP3 ADD DUP1 PUSH1 0x40 MSTORE POP DUP2 ADD SWAP1 PUSH2 0x3A7 SWAP2 SWAP1 PUSH2 0x9CA JUMP JUMPDEST PUSH2 0x3B0 JUMPI PUSH1 0x0 DUP1 REVERT JUMPDEST PUSH1 0x1 PUSH1 0x0 DUP5 PUSH20 0xFFFFFFFFFFFFFFFFFFFFFFFFFFFFFFFFFFFFFFFF AND PUSH20 0xFFFFFFFFFFFFFFFFFFFFFFFFFFFFFFFFFFFFFFFF AND DUP2 MSTORE PUSH1 0x20 ADD SWAP1 DUP2 MSTORE PUSH1 0x20 ADD PUSH1 0x0 KECCAK256 DUP1 SLOAD DUP1 PUSH1 0x20 MUL PUSH1 0x20 ADD PUSH1 0x40 MLOAD SWAP1 DUP2 ADD PUSH1 0x40 MSTORE DUP1 SWAP3 SWAP2 SWAP1 DUP2 DUP2 MSTORE PUSH1 0x20 ADD PUSH1 0x0 SWAP1 JUMPDEST DUP3 DUP3 LT ISZERO PUSH2 0x529 JUMPI DUP4 DUP3 SWAP1 PUSH1 0x0 MSTORE PUSH1 0x20 PUSH1 0x0 KECCAK256 SWAP1 PUSH1 0x2 MUL ADD PUSH1 0x40 MLOAD DUP1 PUSH1 0x40 ADD PUSH1 0x40 MSTORE SWAP1 DUP2 PUSH1 0x0 DUP3 ADD DUP1 SLOAD PUSH2 0x442 SWAP1 PUSH2 0xA26 JUMP JUMPDEST DUP1 PUSH1 0x1F ADD PUSH1 0x20 DUP1 SWAP2 DIV MUL PUSH1 0x20 ADD PUSH1 0x40 MLOAD SWAP1 DUP2 ADD PUSH1 0x40 MSTORE DUP1 SWAP3 SWAP2 SWAP1 DUP2 DUP2 MSTORE PUSH1 0x20 ADD DUP3 DUP1 SLOAD PUSH2 0x46E SWAP1 PUSH2 0xA26 JUMP JUMPDEST DUP1 ISZERO PUSH2 0x4BB JUMPI DUP1 PUSH1 0x1F LT PUSH2 0x490 JUMPI PUSH2 0x100 DUP1 DUP4 SLOAD DIV MUL DUP4 MSTORE SWAP2 PUSH1 0x20 ADD SWAP2 PUSH2 0x4BB JUMP JUMPDEST DUP3 ADD SWAP2 SWAP1 PUSH1 0x0 MSTORE PUSH1 0x20 PUSH1 0x0 KECCAK256 SWAP1 JUMPDEST DUP2 SLOAD DUP2 MSTORE SWAP1 PUSH1 0x1 ADD SWAP1 PUSH1 0x20 ADD DUP1 DUP4 GT PUSH2 0x49E JUMPI DUP3 SWAP1 SUB PUSH1 0x1F AND DUP3 ADD SWAP2 JUMPDEST POP POP POP POP POP DUP2 MSTORE PUSH1 0x20 ADD PUSH1 0x1 DUP3 ADD PUSH1 0x0 SWAP1 SLOAD SWAP1 PUSH2 0x100 EXP SWAP1 DIV PUSH20 0xFFFFFFFFFFFFFFFFFFFFFFFFFFFFFFFFFFFFFFFF AND PUSH20 0xFFFFFFFFFFFFFFFFFFFFFFFFFFFFFFFFFFFFFFFF AND PUSH20 0xFFFFFFFFFFFFFFFFFFFFFFFFFFFFFFFFFFFFFFFF AND DUP2 MSTORE POP POP DUP2 MSTORE PUSH1 0x20 ADD SWAP1 PUSH1 0x1 ADD SWAP1 PUSH2 0x40F JUMP JUMPDEST POP POP POP POP SWAP2 POP POP SWAP2 SWAP1 POP JUMP JUMPDEST PUSH1 0x40 MLOAD DUP1 PUSH1 0x40 ADD PUSH1 0x40 MSTORE DUP1 PUSH1 0x60 DUP2 MSTORE PUSH1 0x20 ADD PUSH1 0x0 PUSH20 0xFFFFFFFFFFFFFFFFFFFFFFFFFFFFFFFFFFFFFFFF AND DUP2 MSTORE POP SWAP1 JUMP JUMPDEST PUSH1 0x0 PUSH1 0x40 MLOAD SWAP1 POP SWAP1 JUMP JUMPDEST PUSH1 0x0 DUP1 REVERT JUMPDEST PUSH1 0x0 DUP1 REVERT JUMPDEST PUSH1 0x0 PUSH20 0xFFFFFFFFFFFFFFFFFFFFFFFFFFFFFFFFFFFFFFFF DUP3 AND SWAP1 POP SWAP2 SWAP1 POP JUMP JUMPDEST PUSH1 0x0 PUSH2 0x5A4 DUP3 PUSH2 0x579 JUMP JUMPDEST SWAP1 POP SWAP2 SWAP1 POP JUMP JUMPDEST PUSH2 0x5B4 DUP2 PUSH2 0x599 JUMP JUMPDEST DUP2 EQ PUSH2 0x5BF JUMPI PUSH1 0x0 DUP1 REVERT JUMPDEST POP JUMP JUMPDEST PUSH1 0x0 DUP2 CALLDATALOAD SWAP1 POP PUSH2 0x5D1 DUP2 PUSH2 0x5AB JUMP JUMPDEST SWAP3 SWAP2 POP POP JUMP JUMPDEST PUSH1 0x0 PUSH1 0x20 DUP3 DUP5 SUB SLT ISZERO PUSH2 0x5ED JUMPI PUSH2 0x5EC PUSH2 0x56F JUMP JUMPDEST JUMPDEST PUSH1 0x0 PUSH2 0x5FB DUP5 DUP3 DUP6 ADD PUSH2 0x5C2 JUMP JUMPDEST SWAP2 POP POP SWAP3 SWAP2 POP POP JUMP JUMPDEST PUSH1 0x0 DUP1 REVERT JUMPDEST PUSH1 0x0 DUP1 REVERT JUMPDEST PUSH1 0x0 PUSH1 0x1F NOT PUSH1 0x1F DUP4 ADD AND SWAP1 POP SWAP2 SWAP1 POP JUMP JUMPDEST PUSH32 0x4E487B7100000000000000000000000000000000000000000000000000000000 PUSH1 0x0 MSTORE PUSH1 0x41 PUSH1 0x4 MSTORE PUSH1 0x24 PUSH1 0x0 REVERT JUMPDEST PUSH2 0x657 DUP3 PUSH2 0x60E JUMP JUMPDEST DUP2 ADD DUP2 DUP2 LT PUSH8 0xFFFFFFFFFFFFFFFF DUP3 GT OR ISZERO PUSH2 0x676 JUMPI PUSH2 0x675 PUSH2 0x61F JUMP JUMPDEST JUMPDEST DUP1 PUSH1 0x40 MSTORE POP POP POP JUMP JUMPDEST PUSH1 0x0 PUSH2 0x689 PUSH2 0x565 JUMP JUMPDEST SWAP1 POP PUSH2 0x695 DUP3 DUP3 PUSH2 0x64E JUMP JUMPDEST SWAP2 SWAP1 POP JUMP JUMPDEST PUSH1 0x0 PUSH8 0xFFFFFFFFFFFFFFFF DUP3 GT ISZERO PUSH2 0x6B5 JUMPI PUSH2 0x6B4 PUSH2 0x61F JUMP JUMPDEST JUMPDEST PUSH2 0x6BE DUP3 PUSH2 0x60E JUMP JUMPDEST SWAP1 POP PUSH1 0x20 DUP2 ADD SWAP1 POP SWAP2 SWAP1 POP JUMP JUMPDEST DUP3 DUP2 DUP4 CALLDATACOPY PUSH1 0x0 DUP4 DUP4 ADD MSTORE POP POP POP JUMP JUMPDEST PUSH1 0x0 PUSH2 0x6ED PUSH2 0x6E8 DUP5 PUSH2 0x69A JUMP JUMPDEST PUSH2 0x67F JUMP JUMPDEST SWAP1 POP DUP3 DUP2 MSTORE PUSH1 0x20 DUP2 ADD DUP5 DUP5 DUP5 ADD GT ISZERO PUSH2 0x709 JUMPI PUSH2 0x708 PUSH2 0x609 JUMP JUMPDEST JUMPDEST PUSH2 0x714 DUP5 DUP3 DUP6 PUSH2 0x6CB JUMP JUMPDEST POP SWAP4 SWAP3 POP POP POP JUMP JUMPDEST PUSH1 0x0 DUP3 PUSH1 0x1F DUP4 ADD SLT PUSH2 0x731 JUMPI PUSH2 0x730 PUSH2 0x604 JUMP JUMPDEST JUMPDEST DUP2 CALLDATALOAD PUSH2 0x741 DUP5 DUP3 PUSH1 0x20 DUP7 ADD PUSH2 0x6DA JUMP JUMPDEST SWAP2 POP POP SWAP3 SWAP2 POP POP JUMP JUMPDEST PUSH1 0x0 DUP1 PUSH1 0x0 PUSH1 0x60 DUP5 DUP7 SUB SLT ISZERO PUSH2 0x763 JUMPI PUSH2 0x762 PUSH2 0x56F JUMP JUMPDEST JUMPDEST PUSH1 0x0 PUSH2 0x771 DUP7 DUP3 DUP8 ADD PUSH2 0x5C2 JUMP JUMPDEST SWAP4 POP POP PUSH1 0x20 DUP5 ADD CALLDATALOAD PUSH8 0xFFFFFFFFFFFFFFFF DUP2 GT ISZERO PUSH2 0x792 JUMPI PUSH2 0x791 PUSH2 0x574 JUMP JUMPDEST JUMPDEST PUSH2 0x79E DUP7 DUP3 DUP8 ADD PUSH2 0x71C JUMP JUMPDEST SWAP3 POP POP PUSH1 0x40 PUSH2 0x7AF DUP7 DUP3 DUP8 ADD PUSH2 0x5C2 JUMP JUMPDEST SWAP2 POP POP SWAP3 POP SWAP3 POP SWAP3 JUMP JUMPDEST PUSH1 0x0 DUP2 MLOAD SWAP1 POP SWAP2 SWAP1 POP JUMP JUMPDEST PUSH1 0x0 DUP3 DUP3 MSTORE PUSH1 0x20 DUP3 ADD SWAP1 POP SWAP3 SWAP2 POP POP JUMP JUMPDEST PUSH1 0x0 DUP2 SWAP1 POP PUSH1 0x20 DUP3 ADD SWAP1 POP SWAP2 SWAP1 POP JUMP JUMPDEST PUSH1 0x0 DUP2 MLOAD SWAP1 POP SWAP2 SWAP1 POP JUMP JUMPDEST PUSH1 0x0 DUP3 DUP3 MSTORE PUSH1 0x20 DUP3 ADD SWAP1 POP SWAP3 SWAP2 POP POP JUMP JUMPDEST PUSH1 0x0 JUMPDEST DUP4 DUP2 LT ISZERO PUSH2 0x81F JUMPI DUP1 DUP3 ADD MLOAD DUP2 DUP5 ADD MSTORE PUSH1 0x20 DUP2 ADD SWAP1 POP PUSH2 0x804 JUMP JUMPDEST PUSH1 0x0 DUP5 DUP5 ADD MSTORE POP POP POP POP JUMP JUMPDEST PUSH1 0x0 PUSH2 0x836 DUP3 PUSH2 0x7E5 JUMP JUMPDEST PUSH2 0x840 DUP2 DUP6 PUSH2 0x7F0 JUMP JUMPDEST SWAP4 POP PUSH2 0x850 DUP2 DUP6 PUSH1 0x20 DUP7 ADD PUSH2 0x801 JUMP JUMPDEST PUSH2 0x859 DUP2 PUSH2 0x60E JUMP JUMPDEST DUP5 ADD SWAP2 POP POP SWAP3 SWAP2 POP POP JUMP JUMPDEST PUSH2 0x86D DUP2 PUSH2 0x599 JUMP JUMPDEST DUP3 MSTORE POP POP JUMP JUMPDEST PUSH1 0x0 PUSH1 0x40 DUP4 ADD PUSH1 0x0 DUP4 ADD MLOAD DUP5 DUP3 SUB PUSH1 0x0 DUP7 ADD MSTORE PUSH2 0x890 DUP3 DUP3 PUSH2 0x82B JUMP JUMPDEST SWAP2 POP POP PUSH1 0x20 DUP4 ADD MLOAD PUSH2 0x8A5 PUSH1 0x20 DUP7 ADD DUP3 PUSH2 0x864 JUMP JUMPDEST POP DUP1 SWAP2 POP POP SWAP3 SWAP2 POP POP JUMP JUMPDEST PUSH1 0x0 PUSH2 0x8BC DUP4 DUP4 PUSH2 0x873 JUMP JUMPDEST SWAP1 POP SWAP3 SWAP2 POP POP JUMP JUMPDEST PUSH1 0x0 PUSH1 0x20 DUP3 ADD SWAP1 POP SWAP2 SWAP1 POP JUMP JUMPDEST PUSH1 0x0 PUSH2 0x8DC DUP3 PUSH2 0x7B9 JUMP JUMPDEST PUSH2 0x8E6 DUP2 DUP6 PUSH2 0x7C4 JUMP JUMPDEST SWAP4 POP DUP4 PUSH1 0x20 DUP3 MUL DUP6 ADD PUSH2 0x8F8 DUP6 PUSH2 0x7D5 JUMP JUMPDEST DUP1 PUSH1 0x0 JUMPDEST DUP6 DUP2 LT ISZERO PUSH2 0x934 JUMPI DUP5 DUP5 SUB DUP10 MSTORE DUP2 MLOAD PUSH2 0x915 DUP6 DUP3 PUSH2 0x8B0 JUMP JUMPDEST SWAP5 POP PUSH2 0x920 DUP4 PUSH2 0x8C4 JUMP JUMPDEST SWAP3 POP PUSH1 0x20 DUP11 ADD SWAP10 POP POP PUSH1 0x1 DUP2 ADD SWAP1 POP PUSH2 0x8FC JUMP JUMPDEST POP DUP3 SWAP8 POP DUP8 SWAP6 POP POP POP POP POP POP SWAP3 SWAP2 POP POP JUMP JUMPDEST PUSH1 0x0 PUSH1 0x20 DUP3 ADD SWAP1 POP DUP2 DUP2 SUB PUSH1 0x0 DUP4 ADD MSTORE PUSH2 0x960 DUP2 DUP5 PUSH2 0x8D1 JUMP JUMPDEST SWAP1 POP SWAP3 SWAP2 POP POP JUMP JUMPDEST PUSH2 0x971 DUP2 PUSH2 0x599 JUMP JUMPDEST DUP3 MSTORE POP POP JUMP JUMPDEST PUSH1 0x0 PUSH1 0x20 DUP3 ADD SWAP1 POP PUSH2 0x98C PUSH1 0x0 DUP4 ADD DUP5 PUSH2 0x968 JUMP JUMPDEST SWAP3 SWAP2 POP POP JUMP JUMPDEST PUSH1 0x0 DUP2 ISZERO ISZERO SWAP1 POP SWAP2 SWAP1 POP JUMP JUMPDEST PUSH2 0x9A7 DUP2 PUSH2 0x992 JUMP JUMPDEST DUP2 EQ PUSH2 0x9B2 JUMPI PUSH1 0x0 DUP1 REVERT JUMPDEST POP JUMP JUMPDEST PUSH1 0x0 DUP2 MLOAD SWAP1 POP PUSH2 0x9C4 DUP2 PUSH2 0x99E JUMP JUMPDEST SWAP3 SWAP2 POP POP JUMP JUMPDEST PUSH1 0x0 PUSH1 0x20 DUP3 DUP5 SUB SLT ISZERO PUSH2 0x9E0 JUMPI PUSH2 0x9DF PUSH2 0x56F JUMP JUMPDEST JUMPDEST PUSH1 0x0 PUSH2 0x9EE DUP5 DUP3 DUP6 ADD PUSH2 0x9B5 JUMP JUMPDEST SWAP2 POP POP SWAP3 SWAP2 POP POP JUMP JUMPDEST PUSH32 0x4E487B7100000000000000000000000000000000000000000000000000000000 PUSH1 0x0 MSTORE PUSH1 0x22 PUSH1 0x4 MSTORE PUSH1 0x24 PUSH1 0x0 REVERT JUMPDEST PUSH1 0x0 PUSH1 0x2 DUP3 DIV SWAP1 POP PUSH1 0x1 DUP3 AND DUP1 PUSH2 0xA3E JUMPI PUSH1 0x7F DUP3 AND SWAP2 POP JUMPDEST PUSH1 0x20 DUP3 LT DUP2 SUB PUSH2 0xA51 JUMPI PUSH2 0xA50 PUSH2 0x9F7 JUMP JUMPDEST JUMPDEST POP SWAP2 SWAP1 POP JUMP JUMPDEST PUSH1 0x0 DUP2 SWAP1 POP DUP2 PUSH1 0x0 MSTORE PUSH1 0x20 PUSH1 0x0 KECCAK256 SWAP1 POP SWAP2 SWAP1 POP JUMP JUMPDEST PUSH1 0x0 PUSH1 0x20 PUSH1 0x1F DUP4 ADD DIV SWAP1 POP SWAP2 SWAP1 POP JUMP JUMPDEST PUSH1 0x0 DUP3 DUP3 SHL SWAP1 POP SWAP3 SWAP2 POP POP JUMP JUMPDEST PUSH1 0x0 PUSH1 0x8 DUP4 MUL PUSH2 0xAB9 PUSH32 0xFFFFFFFFFFFFFFFFFFFFFFFFFFFFFFFFFFFFFFFFFFFFFFFFFFFFFFFFFFFFFFFF DUP3 PUSH2 0xA7C JUMP JUMPDEST PUSH2 0xAC3 DUP7 DUP4 PUSH2 0xA7C JUMP JUMPDEST SWAP6 POP DUP1 NOT DUP5 AND SWAP4 POP DUP1 DUP7 AND DUP5 OR SWAP3 POP POP POP SWAP4 SWAP3 POP POP POP JUMP JUMPDEST PUSH1 0x0 DUP2 SWAP1 POP SWAP2 SWAP1 POP JUMP JUMPDEST PUSH1 0x0 DUP2 SWAP1 POP SWAP2 SWAP1 POP JUMP JUMPDEST PUSH1 0x0 PUSH2 0xB0A PUSH2 0xB05 PUSH2 0xB00 DUP5 PUSH2 0xADB JUMP JUMPDEST PUSH2 0xAE5 JUMP JUMPDEST PUSH2 0xADB JUMP JUMPDEST SWAP1 POP SWAP2 SWAP1 POP JUMP JUMPDEST PUSH1 0x0 DUP2 SWAP1 POP SWAP2 SWAP1 POP JUMP JUMPDEST PUSH2 0xB24 DUP4 PUSH2 0xAEF JUMP JUMPDEST PUSH2 0xB38 PUSH2 0xB30 DUP3 PUSH2 0xB11 JUMP JUMPDEST DUP5 DUP5 SLOAD PUSH2 0xA89 JUMP JUMPDEST DUP3 SSTORE POP POP POP POP JUMP JUMPDEST PUSH1 0x0 SWAP1 JUMP JUMPDEST PUSH2 0xB4D PUSH2 0xB40 JUMP JUMPDEST PUSH2 0xB58 DUP2 DUP5 DUP5 PUSH2 0xB1B JUMP JUMPDEST POP POP POP JUMP JUMPDEST JUMPDEST DUP2 DUP2 LT ISZERO PUSH2 0xB7C JUMPI PUSH2 0xB71 PUSH1 0x0 DUP3 PUSH2 0xB45 JUMP JUMPDEST PUSH1 0x1 DUP2 ADD SWAP1 POP PUSH2 0xB5E JUMP JUMPDEST POP POP JUMP JUMPDEST PUSH1 0x1F DUP3 GT ISZERO PUSH2 0xBC1 JUMPI PUSH2 0xB92 DUP2 PUSH2 0xA57 JUMP JUMPDEST PUSH2 0xB9B DUP5 PUSH2 0xA6C JUMP JUMPDEST DUP2 ADD PUSH1 0x20 DUP6 LT ISZERO PUSH2 0xBAA JUMPI DUP2 SWAP1 POP JUMPDEST PUSH2 0xBBE PUSH2 0xBB6 DUP6 PUSH2 0xA6C JUMP JUMPDEST DUP4 ADD DUP3 PUSH2 0xB5D JUMP JUMPDEST POP POP JUMPDEST POP POP POP JUMP JUMPDEST PUSH1 0x0 DUP3 DUP3 SHR SWAP1 POP SWAP3 SWAP2 POP POP JUMP JUMPDEST PUSH1 0x0 PUSH2 0xBE4 PUSH1 0x0 NOT DUP5 PUSH1 0x8 MUL PUSH2 0xBC6 JUMP JUMPDEST NOT DUP1 DUP4 AND SWAP2 POP POP SWAP3 SWAP2 POP POP JUMP JUMPDEST PUSH1 0x0 PUSH2 0xBFD DUP4 DUP4 PUSH2 0xBD3 JUMP JUMPDEST SWAP2 POP DUP3 PUSH1 0x2 MUL DUP3 OR SWAP1 POP SWAP3 SWAP2 POP POP JUMP JUMPDEST PUSH2 0xC16 DUP3 PUSH2 0x7E5 JUMP JUMPDEST PUSH8 0xFFFFFFFFFFFFFFFF DUP2 GT ISZERO PUSH2 0xC2F JUMPI PUSH2 0xC2E PUSH2 0x61F JUMP JUMPDEST JUMPDEST PUSH2 0xC39 DUP3 SLOAD PUSH2 0xA26 JUMP JUMPDEST PUSH2 0xC44 DUP3 DUP3 DUP6 PUSH2 0xB80 JUMP JUMPDEST PUSH1 0x0 PUSH1 0x20 SWAP1 POP PUSH1 0x1F DUP4 GT PUSH1 0x1 DUP2 EQ PUSH2 0xC77 JUMPI PUSH1 0x0 DUP5 ISZERO PUSH2 0xC65 JUMPI DUP3 DUP8 ADD MLOAD SWAP1 POP JUMPDEST PUSH2 0xC6F DUP6 DUP3 PUSH2 0xBF1 JUMP JUMPDEST DUP7 SSTORE POP PUSH2 0xCD7 JUMP JUMPDEST PUSH1 0x1F NOT DUP5 AND PUSH2 0xC85 DUP7 PUSH2 0xA57 JUMP JUMPDEST PUSH1 0x0 JUMPDEST DUP3 DUP2 LT ISZERO PUSH2 0xCAD JUMPI DUP5 DUP10 ADD MLOAD DUP3 SSTORE PUSH1 0x1 DUP3 ADD SWAP2 POP PUSH1 0x20 DUP6 ADD SWAP5 POP PUSH1 0x20 DUP2 ADD SWAP1 POP PUSH2 0xC88 JUMP JUMPDEST DUP7 DUP4 LT ISZERO PUSH2 0xCCA JUMPI DUP5 DUP10 ADD MLOAD PUSH2 0xCC6 PUSH1 0x1F DUP10 AND DUP3 PUSH2 0xBD3 JUMP JUMPDEST DUP4 SSTORE POP JUMPDEST PUSH1 0x1 PUSH1 0x2 DUP9 MUL ADD DUP9 SSTORE POP POP POP JUMPDEST POP POP POP POP POP POP JUMP INVALID LOG2 PUSH5 0x6970667358 0x22 SLT KECCAK256 LOG0 SWAP10 0x2E PUSH7 0xDC20CAC0AC1BFE 0xDD PUSH27 0x55ECB09EE405A897E02031FB9BA892973F99F564736F6C63430008 GT STOP CALLER "},"gasEstimates":{"creation":{"codeDepositCost":"669800","executionCost":"infinite","totalCost":"infinite"},"external":{"addDoctorRelation(address,string,address)":"infinite","getDoctorRelations(address)":"infinite","setDoctorVerificatorAddress(address)":"26867"}},"methodIdentifiers":{"addDoctorRelation(address,string,address)":"7362b53a","getDoctorRelations(address)":"f40941d0","setDoctorVerificatorAddress(address)":"1107747e"}},"storageLayout":{"storage":[{"astId":1099,"contract":"ElectronicMedicalRecords.sol:DoctorRelation","label":"admin","offset":0,"slot":"0","type":"t_address"},{"astId":1110,"contract":"ElectronicMedicalRecords.sol:DoctorRelation","label":"relatedPatien","offset":0,"slot":"1","type":"t_mapping(t_address,t_array(t_struct(Patient)1104_storage)dyn_storage)"},{"astId":1113,"contract":"ElectronicMedicalRecords.sol:DoctorRelation","label":"doctor_verificator","offset":0,"slot":"2","type":"t_contract(DoctorVerificator)1097"}],"types":{"t_address":{"encoding":"inplace","label":"address","numberOfBytes":"20"},"t_array(t_struct(Patient)1104_storage)dyn_storage":{"base":"t_struct(Patient)1104_storage","encoding":"dynamic_array","label":"struct DoctorRelation.Patient[]","numberOfBytes":"32"},"t_contract(DoctorVerificator)1097":{"encoding":"inplace","label":"contract DoctorVerificator","numberOfBytes":"20"},"t_mapping(t_address,t_array(t_struct(Patient)1104_storage)dyn_storage)":{"encoding":"mapping","key":"t_address","label":"mapping(address => struct DoctorRelation.Patient[])","numberOfBytes":"32","value":"t_array(t_struct(Patient)1104_storage)dyn_storage"},"t_string_storage":{"encoding":"bytes","label":"string","numberOfBytes":"32"},"t_struct(Patient)1104_storage":{"encoding":"inplace","label":"struct DoctorRelation.Patient","members":[{"astId":1101,"contract":"ElectronicMedicalRecords.sol:DoctorRelation","label":"name","offset":0,"slot":"0","type":"t_string_storage"},{"astId":1103,"contract":"ElectronicMedicalRecords.sol:DoctorRelation","label":"add","offset":0,"slot":"1","type":"t_address"}],"numberOfBytes":"64"}}},"userdoc":{"kind":"user","methods":{},"version":1}}