{"abi":[{"inputs":[{"internalType":"address","name":"_admin","type":"address"}],"stateMutability":"nonpayable","type":"constructor"},{"inputs":[{"components":[{"internalType":"address","name":"add","type":"address"},{"internalType":"string","name":"pengantar_pasien","type":"string"},{"internalType":"string","name":"nama_lengkap","type":"string"},{"internalType":"uint256","name":"hp","type":"uint256"},{"internalType":"string","name":"hubungan","type":"string"}],"internalType":"struct MedicalRecords.PengantarPasien","name":"_pengantar","type":"tuple"},{"components":[{"internalType":"address","name":"patient_address","type":"address"},{"internalType":"string","name":"jenis","type":"string"},{"internalType":"string","name":"nama_lengkap","type":"string"},{"internalType":"string","name":"gender","type":"string"},{"internalType":"string","name":"kondisi","type":"string"},{"internalType":"string","name":"date_and_time","type":"string"},{"internalType":"string","name":"anamnesis","type":"string"},{"internalType":"string","name":"fisik","type":"string"},{"internalType":"string","name":"diagnosis","type":"string"},{"internalType":"string","name":"pengobatan","type":"string"},{"internalType":"string","name":"tindakan","type":"string"},{"internalType":"string","name":"lc","type":"string"},{"internalType":"string","name":"transport","type":"string"}],"internalType":"struct MedicalRecords.GawatDarurat","name":"_gawatDarurat","type":"tuple"}],"name":"addEmergencyPatient","outputs":[],"stateMutability":"nonpayable","type":"function"},{"inputs":[{"components":[{"internalType":"address","name":"patientAddress","type":"address"},{"internalType":"string","name":"nama_lengkap","type":"string"},{"internalType":"uint256","name":"umur","type":"uint256"},{"internalType":"string","name":"tanggal_lahir","type":"string"},{"internalType":"string","name":"gender","type":"string"}],"internalType":"struct MedicalRecords.IdentitasPasien","name":"_identitasPasien","type":"tuple"},{"components":[{"internalType":"address","name":"patient_address","type":"address"},{"internalType":"string","name":"jenis","type":"string"},{"internalType":"string","name":"date_and_time","type":"string"},{"internalType":"string","name":"anamnesis","type":"string"},{"internalType":"string","name":"fisik","type":"string"},{"internalType":"string","name":"diagnosis","type":"string"},{"internalType":"string","name":"rp","type":"string"},{"internalType":"string","name":"pengobatan","type":"string"},{"internalType":"string","name":"tindakan","type":"string"},{"internalType":"bool","name":"agreement","type":"bool"},{"internalType":"string","name":"obs","type":"string"},{"internalType":"string","name":"ds","type":"string"},{"internalType":"address","name":"doctor","type":"address"},{"internalType":"string","name":"pelayanan","type":"string"}],"internalType":"struct MedicalRecords.RawatInap","name":"_rawatInap","type":"tuple"}],"name":"addInPatient","outputs":[],"stateMutability":"nonpayable","type":"function"},{"inputs":[{"components":[{"internalType":"address","name":"patientAddress","type":"address"},{"internalType":"string","name":"nama_lengkap","type":"string"},{"internalType":"uint256","name":"umur","type":"uint256"},{"internalType":"string","name":"tanggal_lahir","type":"string"},{"internalType":"string","name":"gender","type":"string"}],"internalType":"struct MedicalRecords.IdentitasPasien","name":"_identitasPasien","type":"tuple"},{"components":[{"internalType":"address","name":"patient_address","type":"address"},{"internalType":"string","name":"jenis","type":"string"},{"internalType":"string","name":"date_and_time","type":"string"},{"internalType":"string","name":"anamnesis","type":"string"},{"internalType":"string","name":"diagnosis","type":"string"},{"internalType":"string","name":"rp","type":"string"},{"internalType":"string","name":"pengobatan","type":"string"},{"internalType":"string","name":"tindakan","type":"string"},{"internalType":"string","name":"pelayanan","type":"string"},{"internalType":"bool","name":"agreement","type":"bool"}],"internalType":"struct MedicalRecords.RawatJalan","name":"_rawatjalan","type":"tuple"}],"name":"addOutPatient","outputs":[],"stateMutability":"nonpayable","type":"function"},{"inputs":[{"internalType":"address","name":"add","type":"address"}],"name":"getEmergencyPatient","outputs":[{"components":[{"internalType":"address","name":"add","type":"address"},{"internalType":"string","name":"pengantar_pasien","type":"string"},{"internalType":"string","name":"nama_lengkap","type":"string"},{"internalType":"uint256","name":"hp","type":"uint256"},{"internalType":"string","name":"hubungan","type":"string"}],"internalType":"struct MedicalRecords.PengantarPasien","name":"a","type":"tuple"},{"components":[{"internalType":"address","name":"patient_address","type":"address"},{"internalType":"string","name":"jenis","type":"string"},{"internalType":"string","name":"nama_lengkap","type":"string"},{"internalType":"string","name":"gender","type":"string"},{"internalType":"string","name":"kondisi","type":"string"},{"internalType":"string","name":"date_and_time","type":"string"},{"internalType":"string","name":"anamnesis","type":"string"},{"internalType":"string","name":"fisik","type":"string"},{"internalType":"string","name":"diagnosis","type":"string"},{"internalType":"string","name":"pengobatan","type":"string"},{"internalType":"string","name":"tindakan","type":"string"},{"internalType":"string","name":"lc","type":"string"},{"internalType":"string","name":"transport","type":"string"}],"internalType":"struct MedicalRecords.GawatDarurat[]","name":"b","type":"tuple[]"}],"stateMutability":"view","type":"function"},{"inputs":[{"internalType":"address","name":"add","type":"address"}],"name":"getInPatient","outputs":[{"components":[{"internalType":"address","name":"patientAddress","type":"address"},{"internalType":"string","name":"nama_lengkap","type":"string"},{"internalType":"uint256","name":"umur","type":"uint256"},{"internalType":"string","name":"tanggal_lahir","type":"string"},{"internalType":"string","name":"gender","type":"string"}],"internalType":"struct MedicalRecords.IdentitasPasien","name":"a","type":"tuple"},{"components":[{"internalType":"address","name":"patient_address","type":"address"},{"internalType":"string","name":"jenis","type":"string"},{"internalType":"string","name":"date_and_time","type":"string"},{"internalType":"string","name":"anamnesis","type":"string"},{"internalType":"string","name":"fisik","type":"string"},{"internalType":"string","name":"diagnosis","type":"string"},{"internalType":"string","name":"rp","type":"string"},{"internalType":"string","name":"pengobatan","type":"string"},{"internalType":"string","name":"tindakan","type":"string"},{"internalType":"bool","name":"agreement","type":"bool"},{"internalType":"string","name":"obs","type":"string"},{"internalType":"string","name":"ds","type":"string"},{"internalType":"address","name":"doctor","type":"address"},{"internalType":"string","name":"pelayanan","type":"string"}],"internalType":"struct MedicalRecords.RawatInap[]","name":"b","type":"tuple[]"}],"stateMutability":"view","type":"function"},{"inputs":[{"internalType":"address","name":"add","type":"address"}],"name":"getOutPatient","outputs":[{"components":[{"internalType":"address","name":"patientAddress","type":"address"},{"internalType":"string","name":"nama_lengkap","type":"string"},{"internalType":"uint256","name":"umur","type":"uint256"},{"internalType":"string","name":"tanggal_lahir","type":"string"},{"internalType":"string","name":"gender","type":"string"}],"internalType":"struct MedicalRecords.IdentitasPasien","name":"a","type":"tuple"},{"components":[{"internalType":"address","name":"patient_address","type":"address"},{"internalType":"string","name":"jenis","type":"string"},{"internalType":"string","name":"date_and_time","type":"string"},{"internalType":"string","name":"anamnesis","type":"string"},{"internalType":"string","name":"diagnosis","type":"string"},{"internalType":"string","name":"rp","type":"string"},{"internalType":"string","name":"pengobatan","type":"string"},{"internalType":"string","name":"tindakan","type":"string"},{"internalType":"string","name":"pelayanan","type":"string"},{"internalType":"bool","name":"agreement","type":"bool"}],"internalType":"struct MedicalRecords.RawatJalan[]","name":"b","type":"tuple[]"}],"stateMutability":"view","type":"function"},{"inputs":[{"internalType":"address","name":"_DoctorRelationAddress","type":"address"}],"name":"setDoctorRelationAddress","outputs":[],"stateMutability":"nonpayable","type":"function"},{"inputs":[{"internalType":"address","name":"_DoctorVerificatorAddress","type":"address"}],"name":"setDoctorVerificatorAddress","outputs":[],"stateMutability":"nonpayable","type":"function"},{"inputs":[{"internalType":"address","name":"_PatientVerificatorAddress","type":"address"}],"name":"setPatientVerificatorAddress","outputs":[],"stateMutability":"nonpayable","type":"function"}],"devdoc":{"kind":"dev","methods":{},"version":1},"evm":{"assembly":"    /* \"ElectronicMedicalRecords.sol\":1281:10307  contract MedicalRecords {... */\n  mstore(0x40, 0x80)\n    /* \"ElectronicMedicalRecords.sol\":4182:4243  constructor(address _admin) {... */\n  callvalue\n  dup1\n  iszero\n  tag_1\n  jumpi\n  0x00\n  dup1\n  revert\ntag_1:\n  pop\n  mload(0x40)\n  sub(codesize, bytecodeSize)\n  dup1\n  bytecodeSize\n  dup4\n  codecopy\n  dup2\n  dup2\n  add\n  0x40\n  mstore\n  dup2\n  add\n  swap1\n  tag_2\n  swap2\n  swap1\n  tag_3\n  jump\t// in\ntag_2:\n    /* \"ElectronicMedicalRecords.sol\":4229:4235  _admin */\n  dup1\n    /* \"ElectronicMedicalRecords.sol\":4221:4226  admin */\n  0x05\n  0x00\n    /* \"ElectronicMedicalRecords.sol\":4221:4235  admin = _admin */\n  0x0100\n  exp\n  dup2\n  sload\n  dup2\n  0xffffffffffffffffffffffffffffffffffffffff\n  mul\n  not\n  and\n  swap1\n  dup4\n  0xffffffffffffffffffffffffffffffffffffffff\n  and\n  mul\n  or\n  swap1\n  sstore\n  pop\n    /* \"ElectronicMedicalRecords.sol\":4182:4243  constructor(address _admin) {... */\n  pop\n    /* \"ElectronicMedicalRecords.sol\":1281:10307  contract MedicalRecords {... */\n  jump(tag_6)\n    /* \"#utility.yul\":88:205   */\ntag_8:\n    /* \"#utility.yul\":197:198   */\n  0x00\n    /* \"#utility.yul\":194:195   */\n  dup1\n    /* \"#utility.yul\":187:199   */\n  revert\n    /* \"#utility.yul\":334:460   */\ntag_10:\n    /* \"#utility.yul\":371:378   */\n  0x00\n    /* \"#utility.yul\":411:453   */\n  0xffffffffffffffffffffffffffffffffffffffff\n    /* \"#utility.yul\":404:409   */\n  dup3\n    /* \"#utility.yul\":400:454   */\n  and\n    /* \"#utility.yul\":389:454   */\n  swap1\n  pop\n    /* \"#utility.yul\":334:460   */\n  swap2\n  swap1\n  pop\n  jump\t// out\n    /* \"#utility.yul\":466:562   */\ntag_11:\n    /* \"#utility.yul\":503:510   */\n  0x00\n    /* \"#utility.yul\":532:556   */\n  tag_20\n    /* \"#utility.yul\":550:555   */\n  dup3\n    /* \"#utility.yul\":532:556   */\n  tag_10\n  jump\t// in\ntag_20:\n    /* \"#utility.yul\":521:556   */\n  swap1\n  pop\n    /* \"#utility.yul\":466:562   */\n  swap2\n  swap1\n  pop\n  jump\t// out\n    /* \"#utility.yul\":568:690   */\ntag_12:\n    /* \"#utility.yul\":641:665   */\n  tag_22\n    /* \"#utility.yul\":659:664   */\n  dup2\n    /* \"#utility.yul\":641:665   */\n  tag_11\n  jump\t// in\ntag_22:\n    /* \"#utility.yul\":634:639   */\n  dup2\n    /* \"#utility.yul\":631:666   */\n  eq\n    /* \"#utility.yul\":621:684   */\n  tag_23\n  jumpi\n    /* \"#utility.yul\":680:681   */\n  0x00\n    /* \"#utility.yul\":677:678   */\n  dup1\n    /* \"#utility.yul\":670:682   */\n  revert\n    /* \"#utility.yul\":621:684   */\ntag_23:\n    /* \"#utility.yul\":568:690   */\n  pop\n  jump\t// out\n    /* \"#utility.yul\":696:839   */\ntag_13:\n    /* \"#utility.yul\":753:758   */\n  0x00\n    /* \"#utility.yul\":784:790   */\n  dup2\n    /* \"#utility.yul\":778:791   */\n  mload\n    /* \"#utility.yul\":769:791   */\n  swap1\n  pop\n    /* \"#utility.yul\":800:833   */\n  tag_25\n    /* \"#utility.yul\":827:832   */\n  dup2\n    /* \"#utility.yul\":800:833   */\n  tag_12\n  jump\t// in\ntag_25:\n    /* \"#utility.yul\":696:839   */\n  swap3\n  swap2\n  pop\n  pop\n  jump\t// out\n    /* \"#utility.yul\":845:1196   */\ntag_3:\n    /* \"#utility.yul\":915:921   */\n  0x00\n    /* \"#utility.yul\":964:966   */\n  0x20\n    /* \"#utility.yul\":952:961   */\n  dup3\n    /* \"#utility.yul\":943:950   */\n  dup5\n    /* \"#utility.yul\":939:962   */\n  sub\n    /* \"#utility.yul\":935:967   */\n  slt\n    /* \"#utility.yul\":932:1051   */\n  iszero\n  tag_27\n  jumpi\n    /* \"#utility.yul\":970:1049   */\n  tag_28\n  tag_8\n  jump\t// in\ntag_28:\n    /* \"#utility.yul\":932:1051   */\ntag_27:\n    /* \"#utility.yul\":1090:1091   */\n  0x00\n    /* \"#utility.yul\":1115:1179   */\n  tag_29\n    /* \"#utility.yul\":1171:1178   */\n  dup5\n    /* \"#utility.yul\":1162:1168   */\n  dup3\n    /* \"#utility.yul\":1151:1160   */\n  dup6\n    /* \"#utility.yul\":1147:1169   */\n  add\n    /* \"#utility.yul\":1115:1179   */\n  tag_13\n  jump\t// in\ntag_29:\n    /* \"#utility.yul\":1105:1179   */\n  swap2\n  pop\n    /* \"#utility.yul\":1061:1189   */\n  pop\n    /* \"#utility.yul\":845:1196   */\n  swap3\n  swap2\n  pop\n  pop\n  jump\t// out\n    /* \"ElectronicMedicalRecords.sol\":1281:10307  contract MedicalRecords {... */\ntag_6:\n  dataSize(sub_0)\n  dup1\n  dataOffset(sub_0)\n  0x00\n  codecopy\n  0x00\n  return\nstop\n\nsub_0: assembly {\n        /* \"ElectronicMedicalRecords.sol\":1281:10307  contract MedicalRecords {... */\n      mstore(0x40, 0x80)\n      callvalue\n      dup1\n      iszero\n      tag_1\n      jumpi\n      0x00\n      dup1\n      revert\n    tag_1:\n      pop\n      jumpi(tag_2, lt(calldatasize, 0x04))\n      shr(0xe0, calldataload(0x00))\n      dup1\n      0x9cbc4dba\n      gt\n      tag_12\n      jumpi\n      dup1\n      0x9cbc4dba\n      eq\n      tag_7\n      jumpi\n      dup1\n      0xb2c24a34\n      eq\n      tag_8\n      jumpi\n      dup1\n      0xb374adff\n      eq\n      tag_9\n      jumpi\n      dup1\n      0xeb7353d1\n      eq\n      tag_10\n      jumpi\n      dup1\n      0xf539fe6c\n      eq\n      tag_11\n      jumpi\n      jump(tag_2)\n    tag_12:\n      dup1\n      0x1107747e\n      eq\n      tag_3\n      jumpi\n      dup1\n      0x4da7580f\n      eq\n      tag_4\n      jumpi\n      dup1\n      0x5db185c7\n      eq\n      tag_5\n      jumpi\n      dup1\n      0x7621df6f\n      eq\n      tag_6\n      jumpi\n    tag_2:\n      0x00\n      dup1\n      revert\n        /* \"ElectronicMedicalRecords.sol\":4251:4414  function setDoctorVerificatorAddress(address _DoctorVerificatorAddress) public {... */\n    tag_3:\n      tag_13\n      0x04\n      dup1\n      calldatasize\n      sub\n      dup2\n      add\n      swap1\n      tag_14\n      swap2\n      swap1\n      tag_15\n      jump\t// in\n    tag_14:\n      tag_16\n      jump\t// in\n    tag_13:\n      stop\n        /* \"ElectronicMedicalRecords.sol\":4754:6213  function addOutPatient (IdentitasPasien memory _identitasPasien, RawatJalan memory _rawatjalan) onlyDoctor public {... */\n    tag_4:\n      tag_17\n      0x04\n      dup1\n      calldatasize\n      sub\n      dup2\n      add\n      swap1\n      tag_18\n      swap2\n      swap1\n      tag_19\n      jump\t// in\n    tag_18:\n      tag_20\n      jump\t// in\n    tag_17:\n      stop\n        /* \"ElectronicMedicalRecords.sol\":4422:4590  function setPatientVerificatorAddress(address _PatientVerificatorAddress) public {... */\n    tag_5:\n      tag_21\n      0x04\n      dup1\n      calldatasize\n      sub\n      dup2\n      add\n      swap1\n      tag_22\n      swap2\n      swap1\n      tag_15\n      jump\t// in\n    tag_22:\n      tag_23\n      jump\t// in\n    tag_21:\n      stop\n        /* \"ElectronicMedicalRecords.sol\":4598:4746  function setDoctorRelationAddress(address _DoctorRelationAddress) public {... */\n    tag_6:\n      tag_24\n      0x04\n      dup1\n      calldatasize\n      sub\n      dup2\n      add\n      swap1\n      tag_25\n      swap2\n      swap1\n      tag_15\n      jump\t// in\n    tag_25:\n      tag_26\n      jump\t// in\n    tag_24:\n      stop\n        /* \"ElectronicMedicalRecords.sol\":6221:7822  function addInPatient(IdentitasPasien memory _identitasPasien, RawatInap memory _rawatInap) onlyDoctor public {... */\n    tag_7:\n      tag_27\n      0x04\n      dup1\n      calldatasize\n      sub\n      dup2\n      add\n      swap1\n      tag_28\n      swap2\n      swap1\n      tag_29\n      jump\t// in\n    tag_28:\n      tag_30\n      jump\t// in\n    tag_27:\n      stop\n        /* \"ElectronicMedicalRecords.sol\":9480:9655  function getOutPatient(address add) onlyDoctor public view returns(IdentitasPasien memory a, RawatJalan[] memory b) {... */\n    tag_8:\n      tag_31\n      0x04\n      dup1\n      calldatasize\n      sub\n      dup2\n      add\n      swap1\n      tag_32\n      swap2\n      swap1\n      tag_15\n      jump\t// in\n    tag_32:\n      tag_33\n      jump\t// in\n    tag_31:\n      mload(0x40)\n      tag_34\n      swap3\n      swap2\n      swap1\n      tag_35\n      jump\t// in\n    tag_34:\n      mload(0x40)\n      dup1\n      swap2\n      sub\n      swap1\n      return\n        /* \"ElectronicMedicalRecords.sol\":7830:9472  function addEmergencyPatient(PengantarPasien memory _pengantar, GawatDarurat memory _gawatDarurat) onlyDoctor public {... */\n    tag_9:\n      tag_36\n      0x04\n      dup1\n      calldatasize\n      sub\n      dup2\n      add\n      swap1\n      tag_37\n      swap2\n      swap1\n      tag_38\n      jump\t// in\n    tag_37:\n      tag_39\n      jump\t// in\n    tag_36:\n      stop\n        /* \"ElectronicMedicalRecords.sol\":9843:10039  function getEmergencyPatient(address add) onlyDoctor public view returns(PengantarPasien memory a, GawatDarurat[] memory b) {... */\n    tag_10:\n      tag_40\n      0x04\n      dup1\n      calldatasize\n      sub\n      dup2\n      add\n      swap1\n      tag_41\n      swap2\n      swap1\n      tag_15\n      jump\t// in\n    tag_41:\n      tag_42\n      jump\t// in\n    tag_40:\n      mload(0x40)\n      tag_43\n      swap3\n      swap2\n      swap1\n      tag_44\n      jump\t// in\n    tag_43:\n      mload(0x40)\n      dup1\n      swap2\n      sub\n      swap1\n      return\n        /* \"ElectronicMedicalRecords.sol\":9663:9835  function getInPatient(address add) onlyDoctor public view returns(IdentitasPasien memory a, RawatInap[] memory b) {... */\n    tag_11:\n      tag_45\n      0x04\n      dup1\n      calldatasize\n      sub\n      dup2\n      add\n      swap1\n      tag_46\n      swap2\n      swap1\n      tag_15\n      jump\t// in\n    tag_46:\n      tag_47\n      jump\t// in\n    tag_45:\n      mload(0x40)\n      tag_48\n      swap3\n      swap2\n      swap1\n      tag_49\n      jump\t// in\n    tag_48:\n      mload(0x40)\n      dup1\n      swap2\n      sub\n      swap1\n      return\n        /* \"ElectronicMedicalRecords.sol\":4251:4414  function setDoctorVerificatorAddress(address _DoctorVerificatorAddress) public {... */\n    tag_16:\n        /* \"ElectronicMedicalRecords.sol\":4380:4405  _DoctorVerificatorAddress */\n      dup1\n        /* \"ElectronicMedicalRecords.sol\":4341:4359  doctor_verificator */\n      0x06\n      0x00\n        /* \"ElectronicMedicalRecords.sol\":4341:4406  doctor_verificator = DoctorVerificator(_DoctorVerificatorAddress) */\n      0x0100\n      exp\n      dup2\n      sload\n      dup2\n      0xffffffffffffffffffffffffffffffffffffffff\n      mul\n      not\n      and\n      swap1\n      dup4\n      0xffffffffffffffffffffffffffffffffffffffff\n      and\n      mul\n      or\n      swap1\n      sstore\n      pop\n        /* \"ElectronicMedicalRecords.sol\":4251:4414  function setDoctorVerificatorAddress(address _DoctorVerificatorAddress) public {... */\n      pop\n      jump\t// out\n        /* \"ElectronicMedicalRecords.sol\":4754:6213  function addOutPatient (IdentitasPasien memory _identitasPasien, RawatJalan memory _rawatjalan) onlyDoctor public {... */\n    tag_20:\n        /* \"ElectronicMedicalRecords.sol\":10088:10106  doctor_verificator */\n      0x06\n      0x00\n      swap1\n      sload\n      swap1\n      0x0100\n      exp\n      swap1\n      div\n      0xffffffffffffffffffffffffffffffffffffffff\n      and\n        /* \"ElectronicMedicalRecords.sol\":10088:10113  doctor_verificator.verify */\n      0xffffffffffffffffffffffffffffffffffffffff\n      and\n      0x63a9c3d7\n        /* \"ElectronicMedicalRecords.sol\":10114:10124  msg.sender */\n      caller\n        /* \"ElectronicMedicalRecords.sol\":10088:10125  doctor_verificator.verify(msg.sender) */\n      mload(0x40)\n      dup3\n      0xffffffff\n      and\n      0xe0\n      shl\n      dup2\n      mstore\n      0x04\n      add\n      tag_52\n      swap2\n      swap1\n      tag_53\n      jump\t// in\n    tag_52:\n      0x20\n      mload(0x40)\n      dup1\n      dup4\n      sub\n      dup2\n      dup7\n      gas\n      staticcall\n      iszero\n      dup1\n      iszero\n      tag_55\n      jumpi\n      returndatasize\n      0x00\n      dup1\n      returndatacopy\n      revert(0x00, returndatasize)\n    tag_55:\n      pop\n      pop\n      pop\n      pop\n      mload(0x40)\n      returndatasize\n      not(0x1f)\n      0x1f\n      dup3\n      add\n      and\n      dup3\n      add\n      dup1\n      0x40\n      mstore\n      pop\n      dup2\n      add\n      swap1\n      tag_56\n      swap2\n      swap1\n      tag_57\n      jump\t// in\n    tag_56:\n        /* \"ElectronicMedicalRecords.sol\":10080:10126  require(doctor_verificator.verify(msg.sender)) */\n      tag_58\n      jumpi\n      0x00\n      dup1\n      revert\n    tag_58:\n        /* \"ElectronicMedicalRecords.sol\":4879:4917  IdentitasPasien memory identitasPasien */\n      tag_60\n      tag_61\n      jump\t// in\n    tag_60:\n        /* \"ElectronicMedicalRecords.sol\":4962:4978  _identitasPasien */\n      dup3\n        /* \"ElectronicMedicalRecords.sol\":4962:4993  _identitasPasien.patientAddress */\n      0x00\n      add\n      mload\n        /* \"ElectronicMedicalRecords.sol\":4928:4943  identitasPasien */\n      dup2\n        /* \"ElectronicMedicalRecords.sol\":4928:4958  identitasPasien.patientAddress */\n      0x00\n      add\n        /* \"ElectronicMedicalRecords.sol\":4928:4993  identitasPasien.patientAddress =  _identitasPasien.patientAddress */\n      swap1\n      0xffffffffffffffffffffffffffffffffffffffff\n      and\n      swap1\n      dup2\n      0xffffffffffffffffffffffffffffffffffffffff\n      and\n      dup2\n      mstore\n      pop\n      pop\n        /* \"ElectronicMedicalRecords.sol\":5036:5052  _identitasPasien */\n      dup3\n        /* \"ElectronicMedicalRecords.sol\":5036:5065  _identitasPasien.nama_lengkap */\n      0x20\n      add\n      mload\n        /* \"ElectronicMedicalRecords.sol\":5004:5019  identitasPasien */\n      dup2\n        /* \"ElectronicMedicalRecords.sol\":5004:5032  identitasPasien.nama_lengkap */\n      0x20\n      add\n        /* \"ElectronicMedicalRecords.sol\":5004:5065  identitasPasien.nama_lengkap =  _identitasPasien.nama_lengkap */\n      dup2\n      swap1\n      mstore\n      pop\n        /* \"ElectronicMedicalRecords.sol\":5100:5116  _identitasPasien */\n      dup3\n        /* \"ElectronicMedicalRecords.sol\":5100:5121  _identitasPasien.umur */\n      0x40\n      add\n      mload\n        /* \"ElectronicMedicalRecords.sol\":5076:5091  identitasPasien */\n      dup2\n        /* \"ElectronicMedicalRecords.sol\":5076:5096  identitasPasien.umur */\n      0x40\n      add\n        /* \"ElectronicMedicalRecords.sol\":5076:5121  identitasPasien.umur =  _identitasPasien.umur */\n      dup2\n      dup2\n      mstore\n      pop\n      pop\n        /* \"ElectronicMedicalRecords.sol\":5165:5181  _identitasPasien */\n      dup3\n        /* \"ElectronicMedicalRecords.sol\":5165:5195  _identitasPasien.tanggal_lahir */\n      0x60\n      add\n      mload\n        /* \"ElectronicMedicalRecords.sol\":5132:5147  identitasPasien */\n      dup2\n        /* \"ElectronicMedicalRecords.sol\":5132:5161  identitasPasien.tanggal_lahir */\n      0x60\n      add\n        /* \"ElectronicMedicalRecords.sol\":5132:5195  identitasPasien.tanggal_lahir =  _identitasPasien.tanggal_lahir */\n      dup2\n      swap1\n      mstore\n      pop\n        /* \"ElectronicMedicalRecords.sol\":5232:5248  _identitasPasien */\n      dup3\n        /* \"ElectronicMedicalRecords.sol\":5232:5255  _identitasPasien.gender */\n      0x80\n      add\n      mload\n        /* \"ElectronicMedicalRecords.sol\":5206:5221  identitasPasien */\n      dup2\n        /* \"ElectronicMedicalRecords.sol\":5206:5228  identitasPasien.gender */\n      0x80\n      add\n        /* \"ElectronicMedicalRecords.sol\":5206:5255  identitasPasien.gender =  _identitasPasien.gender */\n      dup2\n      swap1\n      mstore\n      pop\n        /* \"ElectronicMedicalRecords.sol\":5313:5328  identitasPasien */\n      dup1\n        /* \"ElectronicMedicalRecords.sol\":5268:5277  patientId */\n      0x00\n        /* \"ElectronicMedicalRecords.sol\":5268:5310  patientId[_identitasPasien.patientAddress] */\n      dup1\n        /* \"ElectronicMedicalRecords.sol\":5278:5294  _identitasPasien */\n      dup6\n        /* \"ElectronicMedicalRecords.sol\":5278:5309  _identitasPasien.patientAddress */\n      0x00\n      add\n      mload\n        /* \"ElectronicMedicalRecords.sol\":5268:5310  patientId[_identitasPasien.patientAddress] */\n      0xffffffffffffffffffffffffffffffffffffffff\n      and\n      0xffffffffffffffffffffffffffffffffffffffff\n      and\n      dup2\n      mstore\n      0x20\n      add\n      swap1\n      dup2\n      mstore\n      0x20\n      add\n      0x00\n      keccak256\n        /* \"ElectronicMedicalRecords.sol\":5268:5328  patientId[_identitasPasien.patientAddress] = identitasPasien */\n      0x00\n      dup3\n      add\n      mload\n      dup2\n      0x00\n      add\n      exp(0x0100, 0x00)\n      dup2\n      sload\n      dup2\n      0xffffffffffffffffffffffffffffffffffffffff\n      mul\n      not\n      and\n      swap1\n      dup4\n      0xffffffffffffffffffffffffffffffffffffffff\n      and\n      mul\n      or\n      swap1\n      sstore\n      pop\n      0x20\n      dup3\n      add\n      mload\n      dup2\n      0x01\n      add\n      swap1\n      dup2\n      tag_62\n      swap2\n      swap1\n      tag_63\n      jump\t// in\n    tag_62:\n      pop\n      0x40\n      dup3\n      add\n      mload\n      dup2\n      0x02\n      add\n      sstore\n      0x60\n      dup3\n      add\n      mload\n      dup2\n      0x03\n      add\n      swap1\n      dup2\n      tag_64\n      swap2\n      swap1\n      tag_63\n      jump\t// in\n    tag_64:\n      pop\n      0x80\n      dup3\n      add\n      mload\n      dup2\n      0x04\n      add\n      swap1\n      dup2\n      tag_65\n      swap2\n      swap1\n      tag_63\n      jump\t// in\n    tag_65:\n      pop\n      swap1\n      pop\n      pop\n        /* \"ElectronicMedicalRecords.sol\":5341:5369  RawatJalan memory rawatJalan */\n      tag_66\n      tag_67\n      jump\t// in\n    tag_66:\n        /* \"ElectronicMedicalRecords.sol\":5409:5420  _rawatjalan */\n      dup3\n        /* \"ElectronicMedicalRecords.sol\":5409:5436  _rawatjalan.patient_address */\n      0x00\n      add\n      mload\n        /* \"ElectronicMedicalRecords.sol\":5380:5390  rawatJalan */\n      dup2\n        /* \"ElectronicMedicalRecords.sol\":5380:5406  rawatJalan.patient_address */\n      0x00\n      add\n        /* \"ElectronicMedicalRecords.sol\":5380:5436  rawatJalan.patient_address = _rawatjalan.patient_address */\n      swap1\n      0xffffffffffffffffffffffffffffffffffffffff\n      and\n      swap1\n      dup2\n      0xffffffffffffffffffffffffffffffffffffffff\n      and\n      dup2\n      mstore\n      pop\n      pop\n        /* \"ElectronicMedicalRecords.sol\":5466:5477  _rawatjalan */\n      dup3\n        /* \"ElectronicMedicalRecords.sol\":5466:5483  _rawatjalan.jenis */\n      0x20\n      add\n      mload\n        /* \"ElectronicMedicalRecords.sol\":5447:5457  rawatJalan */\n      dup2\n        /* \"ElectronicMedicalRecords.sol\":5447:5463  rawatJalan.jenis */\n      0x20\n      add\n        /* \"ElectronicMedicalRecords.sol\":5447:5483  rawatJalan.jenis = _rawatjalan.jenis */\n      dup2\n      swap1\n      mstore\n      pop\n        /* \"ElectronicMedicalRecords.sol\":5521:5532  _rawatjalan */\n      dup3\n        /* \"ElectronicMedicalRecords.sol\":5521:5546  _rawatjalan.date_and_time */\n      0x40\n      add\n      mload\n        /* \"ElectronicMedicalRecords.sol\":5494:5504  rawatJalan */\n      dup2\n        /* \"ElectronicMedicalRecords.sol\":5494:5518  rawatJalan.date_and_time */\n      0x40\n      add\n        /* \"ElectronicMedicalRecords.sol\":5494:5546  rawatJalan.date_and_time = _rawatjalan.date_and_time */\n      dup2\n      swap1\n      mstore\n      pop\n        /* \"ElectronicMedicalRecords.sol\":5580:5591  _rawatjalan */\n      dup3\n        /* \"ElectronicMedicalRecords.sol\":5580:5601  _rawatjalan.anamnesis */\n      0x60\n      add\n      mload\n        /* \"ElectronicMedicalRecords.sol\":5557:5567  rawatJalan */\n      dup2\n        /* \"ElectronicMedicalRecords.sol\":5557:5577  rawatJalan.anamnesis */\n      0x60\n      add\n        /* \"ElectronicMedicalRecords.sol\":5557:5601  rawatJalan.anamnesis = _rawatjalan.anamnesis */\n      dup2\n      swap1\n      mstore\n      pop\n        /* \"ElectronicMedicalRecords.sol\":5635:5646  _rawatjalan */\n      dup3\n        /* \"ElectronicMedicalRecords.sol\":5635:5656  _rawatjalan.diagnosis */\n      0x80\n      add\n      mload\n        /* \"ElectronicMedicalRecords.sol\":5612:5622  rawatJalan */\n      dup2\n        /* \"ElectronicMedicalRecords.sol\":5612:5632  rawatJalan.diagnosis */\n      0x80\n      add\n        /* \"ElectronicMedicalRecords.sol\":5612:5656  rawatJalan.diagnosis = _rawatjalan.diagnosis */\n      dup2\n      swap1\n      mstore\n      pop\n        /* \"ElectronicMedicalRecords.sol\":5683:5694  _rawatjalan */\n      dup3\n        /* \"ElectronicMedicalRecords.sol\":5683:5697  _rawatjalan.rp */\n      0xa0\n      add\n      mload\n        /* \"ElectronicMedicalRecords.sol\":5667:5677  rawatJalan */\n      dup2\n        /* \"ElectronicMedicalRecords.sol\":5667:5680  rawatJalan.rp */\n      0xa0\n      add\n        /* \"ElectronicMedicalRecords.sol\":5667:5697  rawatJalan.rp = _rawatjalan.rp */\n      dup2\n      swap1\n      mstore\n      pop\n        /* \"ElectronicMedicalRecords.sol\":5732:5743  _rawatjalan */\n      dup3\n        /* \"ElectronicMedicalRecords.sol\":5732:5754  _rawatjalan.pengobatan */\n      0xc0\n      add\n      mload\n        /* \"ElectronicMedicalRecords.sol\":5708:5718  rawatJalan */\n      dup2\n        /* \"ElectronicMedicalRecords.sol\":5708:5729  rawatJalan.pengobatan */\n      0xc0\n      add\n        /* \"ElectronicMedicalRecords.sol\":5708:5754  rawatJalan.pengobatan = _rawatjalan.pengobatan */\n      dup2\n      swap1\n      mstore\n      pop\n        /* \"ElectronicMedicalRecords.sol\":5787:5798  _rawatjalan */\n      dup3\n        /* \"ElectronicMedicalRecords.sol\":5787:5807  _rawatjalan.tindakan */\n      0xe0\n      add\n      mload\n        /* \"ElectronicMedicalRecords.sol\":5765:5775  rawatJalan */\n      dup2\n        /* \"ElectronicMedicalRecords.sol\":5765:5784  rawatJalan.tindakan */\n      0xe0\n      add\n        /* \"ElectronicMedicalRecords.sol\":5765:5807  rawatJalan.tindakan = _rawatjalan.tindakan */\n      dup2\n      swap1\n      mstore\n      pop\n        /* \"ElectronicMedicalRecords.sol\":5841:5852  _rawatjalan */\n      dup3\n        /* \"ElectronicMedicalRecords.sol\":5841:5862  _rawatjalan.pelayanan */\n      0x0100\n      add\n      mload\n        /* \"ElectronicMedicalRecords.sol\":5818:5828  rawatJalan */\n      dup2\n        /* \"ElectronicMedicalRecords.sol\":5818:5838  rawatJalan.pelayanan */\n      0x0100\n      add\n        /* \"ElectronicMedicalRecords.sol\":5818:5862  rawatJalan.pelayanan = _rawatjalan.pelayanan */\n      dup2\n      swap1\n      mstore\n      pop\n        /* \"ElectronicMedicalRecords.sol\":5896:5907  _rawatjalan */\n      dup3\n        /* \"ElectronicMedicalRecords.sol\":5896:5917  _rawatjalan.agreement */\n      0x0120\n      add\n      mload\n        /* \"ElectronicMedicalRecords.sol\":5873:5883  rawatJalan */\n      dup2\n        /* \"ElectronicMedicalRecords.sol\":5873:5893  rawatJalan.agreement */\n      0x0120\n      add\n        /* \"ElectronicMedicalRecords.sol\":5873:5917  rawatJalan.agreement = _rawatjalan.agreement */\n      swap1\n      iszero\n      iszero\n      swap1\n      dup2\n      iszero\n      iszero\n      dup2\n      mstore\n      pop\n      pop\n        /* \"ElectronicMedicalRecords.sol\":5930:5940  outPatient */\n      0x02\n        /* \"ElectronicMedicalRecords.sol\":5930:5973  outPatient[_identitasPasien.patientAddress] */\n      0x00\n        /* \"ElectronicMedicalRecords.sol\":5941:5957  _identitasPasien */\n      dup6\n        /* \"ElectronicMedicalRecords.sol\":5941:5972  _identitasPasien.patientAddress */\n      0x00\n      add\n      mload\n        /* \"ElectronicMedicalRecords.sol\":5930:5973  outPatient[_identitasPasien.patientAddress] */\n      0xffffffffffffffffffffffffffffffffffffffff\n      and\n      0xffffffffffffffffffffffffffffffffffffffff\n      and\n      dup2\n      mstore\n      0x20\n      add\n      swap1\n      dup2\n      mstore\n      0x20\n      add\n      0x00\n      keccak256\n        /* \"ElectronicMedicalRecords.sol\":5979:5989  rawatJalan */\n      dup2\n        /* \"ElectronicMedicalRecords.sol\":5930:5990  outPatient[_identitasPasien.patientAddress].push(rawatJalan) */\n      swap1\n      dup1\n      0x01\n      dup2\n      sload\n      add\n      dup1\n      dup3\n      sstore\n      dup1\n      swap2\n      pop\n      pop\n      0x01\n      swap1\n      sub\n      swap1\n      0x00\n      mstore\n      keccak256(0x00, 0x20)\n      swap1\n      0x0a\n      mul\n      add\n      0x00\n      swap1\n      swap2\n      swap1\n      swap2\n      swap1\n      swap2\n      pop\n      0x00\n      dup3\n      add\n      mload\n      dup2\n      0x00\n      add\n      exp(0x0100, 0x00)\n      dup2\n      sload\n      dup2\n      0xffffffffffffffffffffffffffffffffffffffff\n      mul\n      not\n      and\n      swap1\n      dup4\n      0xffffffffffffffffffffffffffffffffffffffff\n      and\n      mul\n      or\n      swap1\n      sstore\n      pop\n      0x20\n      dup3\n      add\n      mload\n      dup2\n      0x01\n      add\n      swap1\n      dup2\n      tag_69\n      swap2\n      swap1\n      tag_63\n      jump\t// in\n    tag_69:\n      pop\n      0x40\n      dup3\n      add\n      mload\n      dup2\n      0x02\n      add\n      swap1\n      dup2\n      tag_70\n      swap2\n      swap1\n      tag_63\n      jump\t// in\n    tag_70:\n      pop\n      0x60\n      dup3\n      add\n      mload\n      dup2\n      0x03\n      add\n      swap1\n      dup2\n      tag_71\n      swap2\n      swap1\n      tag_63\n      jump\t// in\n    tag_71:\n      pop\n      0x80\n      dup3\n      add\n      mload\n      dup2\n      0x04\n      add\n      swap1\n      dup2\n      tag_72\n      swap2\n      swap1\n      tag_63\n      jump\t// in\n    tag_72:\n      pop\n      0xa0\n      dup3\n      add\n      mload\n      dup2\n      0x05\n      add\n      swap1\n      dup2\n      tag_73\n      swap2\n      swap1\n      tag_63\n      jump\t// in\n    tag_73:\n      pop\n      0xc0\n      dup3\n      add\n      mload\n      dup2\n      0x06\n      add\n      swap1\n      dup2\n      tag_74\n      swap2\n      swap1\n      tag_63\n      jump\t// in\n    tag_74:\n      pop\n      0xe0\n      dup3\n      add\n      mload\n      dup2\n      0x07\n      add\n      swap1\n      dup2\n      tag_75\n      swap2\n      swap1\n      tag_63\n      jump\t// in\n    tag_75:\n      pop\n      0x0100\n      dup3\n      add\n      mload\n      dup2\n      0x08\n      add\n      swap1\n      dup2\n      tag_76\n      swap2\n      swap1\n      tag_63\n      jump\t// in\n    tag_76:\n      pop\n      0x0120\n      dup3\n      add\n      mload\n      dup2\n      0x09\n      add\n      exp(0x0100, 0x00)\n      dup2\n      sload\n      dup2\n      0xff\n      mul\n      not\n      and\n      swap1\n      dup4\n      iszero\n      iszero\n      mul\n      or\n      swap1\n      sstore\n      pop\n      pop\n      pop\n        /* \"ElectronicMedicalRecords.sol\":6003:6022  patient_verificator */\n      0x07\n      0x00\n      swap1\n      sload\n      swap1\n      0x0100\n      exp\n      swap1\n      div\n      0xffffffffffffffffffffffffffffffffffffffff\n      and\n        /* \"ElectronicMedicalRecords.sol\":6003:6033  patient_verificator.addPatient */\n      0xffffffffffffffffffffffffffffffffffffffff\n      and\n      0x6d263ceb\n        /* \"ElectronicMedicalRecords.sol\":6034:6050  _identitasPasien */\n      dup6\n        /* \"ElectronicMedicalRecords.sol\":6034:6065  _identitasPasien.patientAddress */\n      0x00\n      add\n      mload\n        /* \"ElectronicMedicalRecords.sol\":6003:6066  patient_verificator.addPatient(_identitasPasien.patientAddress) */\n      mload(0x40)\n      dup3\n      0xffffffff\n      and\n      0xe0\n      shl\n      dup2\n      mstore\n      0x04\n      add\n      tag_77\n      swap2\n      swap1\n      tag_53\n      jump\t// in\n    tag_77:\n      0x00\n      mload(0x40)\n      dup1\n      dup4\n      sub\n      dup2\n      0x00\n      dup8\n      dup1\n      extcodesize\n      iszero\n      dup1\n      iszero\n      tag_78\n      jumpi\n      0x00\n      dup1\n      revert\n    tag_78:\n      pop\n      gas\n      call\n      iszero\n      dup1\n      iszero\n      tag_80\n      jumpi\n      returndatasize\n      0x00\n      dup1\n      returndatacopy\n      revert(0x00, returndatasize)\n    tag_80:\n      pop\n      pop\n      pop\n      pop\n        /* \"ElectronicMedicalRecords.sol\":6077:6092  doctor_relation */\n      0x08\n      0x00\n      swap1\n      sload\n      swap1\n      0x0100\n      exp\n      swap1\n      div\n      0xffffffffffffffffffffffffffffffffffffffff\n      and\n        /* \"ElectronicMedicalRecords.sol\":6077:6110  doctor_relation.addDoctorRelation */\n      0xffffffffffffffffffffffffffffffffffffffff\n      and\n      0x43a0e44a\n        /* \"ElectronicMedicalRecords.sol\":6111:6121  msg.sender */\n      caller\n        /* \"ElectronicMedicalRecords.sol\":6123:6139  _identitasPasien */\n      dup7\n        /* \"ElectronicMedicalRecords.sol\":6123:6152  _identitasPasien.nama_lengkap */\n      0x20\n      add\n      mload\n        /* \"ElectronicMedicalRecords.sol\":6154:6165  _rawatjalan */\n      dup7\n        /* \"ElectronicMedicalRecords.sol\":6154:6171  _rawatjalan.jenis */\n      0x20\n      add\n      mload\n        /* \"ElectronicMedicalRecords.sol\":6173:6189  _identitasPasien */\n      dup9\n        /* \"ElectronicMedicalRecords.sol\":6173:6204  _identitasPasien.patientAddress */\n      0x00\n      add\n      mload\n        /* \"ElectronicMedicalRecords.sol\":6077:6205  doctor_relation.addDoctorRelation(msg.sender, _identitasPasien.nama_lengkap, _rawatjalan.jenis, _identitasPasien.patientAddress) */\n      mload(0x40)\n      dup6\n      0xffffffff\n      and\n      0xe0\n      shl\n      dup2\n      mstore\n      0x04\n      add\n      tag_81\n      swap5\n      swap4\n      swap3\n      swap2\n      swap1\n      tag_82\n      jump\t// in\n    tag_81:\n      0x00\n      mload(0x40)\n      dup1\n      dup4\n      sub\n      dup2\n      0x00\n      dup8\n      dup1\n      extcodesize\n      iszero\n      dup1\n      iszero\n      tag_83\n      jumpi\n      0x00\n      dup1\n      revert\n    tag_83:\n      pop\n      gas\n      call\n      iszero\n      dup1\n      iszero\n      tag_85\n      jumpi\n      returndatasize\n      0x00\n      dup1\n      returndatacopy\n      revert(0x00, returndatasize)\n    tag_85:\n      pop\n      pop\n      pop\n      pop\n        /* \"ElectronicMedicalRecords.sol\":4868:6213  {... */\n      pop\n      pop\n        /* \"ElectronicMedicalRecords.sol\":4754:6213  function addOutPatient (IdentitasPasien memory _identitasPasien, RawatJalan memory _rawatjalan) onlyDoctor public {... */\n      pop\n      pop\n      jump\t// out\n        /* \"ElectronicMedicalRecords.sol\":4422:4590  function setPatientVerificatorAddress(address _PatientVerificatorAddress) public {... */\n    tag_23:\n        /* \"ElectronicMedicalRecords.sol\":4555:4581  _PatientVerificatorAddress */\n      dup1\n        /* \"ElectronicMedicalRecords.sol\":4514:4533  patient_verificator */\n      0x07\n      0x00\n        /* \"ElectronicMedicalRecords.sol\":4514:4582  patient_verificator = PatientVerificator(_PatientVerificatorAddress) */\n      0x0100\n      exp\n      dup2\n      sload\n      dup2\n      0xffffffffffffffffffffffffffffffffffffffff\n      mul\n      not\n      and\n      swap1\n      dup4\n      0xffffffffffffffffffffffffffffffffffffffff\n      and\n      mul\n      or\n      swap1\n      sstore\n      pop\n        /* \"ElectronicMedicalRecords.sol\":4422:4590  function setPatientVerificatorAddress(address _PatientVerificatorAddress) public {... */\n      pop\n      jump\t// out\n        /* \"ElectronicMedicalRecords.sol\":4598:4746  function setDoctorRelationAddress(address _DoctorRelationAddress) public {... */\n    tag_26:\n        /* \"ElectronicMedicalRecords.sol\":4715:4737  _DoctorRelationAddress */\n      dup1\n        /* \"ElectronicMedicalRecords.sol\":4682:4697  doctor_relation */\n      0x08\n      0x00\n        /* \"ElectronicMedicalRecords.sol\":4682:4738  doctor_relation = DoctorRelation(_DoctorRelationAddress) */\n      0x0100\n      exp\n      dup2\n      sload\n      dup2\n      0xffffffffffffffffffffffffffffffffffffffff\n      mul\n      not\n      and\n      swap1\n      dup4\n      0xffffffffffffffffffffffffffffffffffffffff\n      and\n      mul\n      or\n      swap1\n      sstore\n      pop\n        /* \"ElectronicMedicalRecords.sol\":4598:4746  function setDoctorRelationAddress(address _DoctorRelationAddress) public {... */\n      pop\n      jump\t// out\n        /* \"ElectronicMedicalRecords.sol\":6221:7822  function addInPatient(IdentitasPasien memory _identitasPasien, RawatInap memory _rawatInap) onlyDoctor public {... */\n    tag_30:\n        /* \"ElectronicMedicalRecords.sol\":10088:10106  doctor_verificator */\n      0x06\n      0x00\n      swap1\n      sload\n      swap1\n      0x0100\n      exp\n      swap1\n      div\n      0xffffffffffffffffffffffffffffffffffffffff\n      and\n        /* \"ElectronicMedicalRecords.sol\":10088:10113  doctor_verificator.verify */\n      0xffffffffffffffffffffffffffffffffffffffff\n      and\n      0x63a9c3d7\n        /* \"ElectronicMedicalRecords.sol\":10114:10124  msg.sender */\n      caller\n        /* \"ElectronicMedicalRecords.sol\":10088:10125  doctor_verificator.verify(msg.sender) */\n      mload(0x40)\n      dup3\n      0xffffffff\n      and\n      0xe0\n      shl\n      dup2\n      mstore\n      0x04\n      add\n      tag_89\n      swap2\n      swap1\n      tag_53\n      jump\t// in\n    tag_89:\n      0x20\n      mload(0x40)\n      dup1\n      dup4\n      sub\n      dup2\n      dup7\n      gas\n      staticcall\n      iszero\n      dup1\n      iszero\n      tag_91\n      jumpi\n      returndatasize\n      0x00\n      dup1\n      returndatacopy\n      revert(0x00, returndatasize)\n    tag_91:\n      pop\n      pop\n      pop\n      pop\n      mload(0x40)\n      returndatasize\n      not(0x1f)\n      0x1f\n      dup3\n      add\n      and\n      dup3\n      add\n      dup1\n      0x40\n      mstore\n      pop\n      dup2\n      add\n      swap1\n      tag_92\n      swap2\n      swap1\n      tag_57\n      jump\t// in\n    tag_92:\n        /* \"ElectronicMedicalRecords.sol\":10080:10126  require(doctor_verificator.verify(msg.sender)) */\n      tag_93\n      jumpi\n      0x00\n      dup1\n      revert\n    tag_93:\n        /* \"ElectronicMedicalRecords.sol\":6342:6380  IdentitasPasien memory identitasPasien */\n      tag_95\n      tag_61\n      jump\t// in\n    tag_95:\n        /* \"ElectronicMedicalRecords.sol\":6425:6441  _identitasPasien */\n      dup3\n        /* \"ElectronicMedicalRecords.sol\":6425:6456  _identitasPasien.patientAddress */\n      0x00\n      add\n      mload\n        /* \"ElectronicMedicalRecords.sol\":6391:6406  identitasPasien */\n      dup2\n        /* \"ElectronicMedicalRecords.sol\":6391:6421  identitasPasien.patientAddress */\n      0x00\n      add\n        /* \"ElectronicMedicalRecords.sol\":6391:6456  identitasPasien.patientAddress =  _identitasPasien.patientAddress */\n      swap1\n      0xffffffffffffffffffffffffffffffffffffffff\n      and\n      swap1\n      dup2\n      0xffffffffffffffffffffffffffffffffffffffff\n      and\n      dup2\n      mstore\n      pop\n      pop\n        /* \"ElectronicMedicalRecords.sol\":6499:6515  _identitasPasien */\n      dup3\n        /* \"ElectronicMedicalRecords.sol\":6499:6528  _identitasPasien.nama_lengkap */\n      0x20\n      add\n      mload\n        /* \"ElectronicMedicalRecords.sol\":6467:6482  identitasPasien */\n      dup2\n        /* \"ElectronicMedicalRecords.sol\":6467:6495  identitasPasien.nama_lengkap */\n      0x20\n      add\n        /* \"ElectronicMedicalRecords.sol\":6467:6528  identitasPasien.nama_lengkap =  _identitasPasien.nama_lengkap */\n      dup2\n      swap1\n      mstore\n      pop\n        /* \"ElectronicMedicalRecords.sol\":6563:6579  _identitasPasien */\n      dup3\n        /* \"ElectronicMedicalRecords.sol\":6563:6584  _identitasPasien.umur */\n      0x40\n      add\n      mload\n        /* \"ElectronicMedicalRecords.sol\":6539:6554  identitasPasien */\n      dup2\n        /* \"ElectronicMedicalRecords.sol\":6539:6559  identitasPasien.umur */\n      0x40\n      add\n        /* \"ElectronicMedicalRecords.sol\":6539:6584  identitasPasien.umur =  _identitasPasien.umur */\n      dup2\n      dup2\n      mstore\n      pop\n      pop\n        /* \"ElectronicMedicalRecords.sol\":6628:6644  _identitasPasien */\n      dup3\n        /* \"ElectronicMedicalRecords.sol\":6628:6658  _identitasPasien.tanggal_lahir */\n      0x60\n      add\n      mload\n        /* \"ElectronicMedicalRecords.sol\":6595:6610  identitasPasien */\n      dup2\n        /* \"ElectronicMedicalRecords.sol\":6595:6624  identitasPasien.tanggal_lahir */\n      0x60\n      add\n        /* \"ElectronicMedicalRecords.sol\":6595:6658  identitasPasien.tanggal_lahir =  _identitasPasien.tanggal_lahir */\n      dup2\n      swap1\n      mstore\n      pop\n        /* \"ElectronicMedicalRecords.sol\":6695:6711  _identitasPasien */\n      dup3\n        /* \"ElectronicMedicalRecords.sol\":6695:6718  _identitasPasien.gender */\n      0x80\n      add\n      mload\n        /* \"ElectronicMedicalRecords.sol\":6669:6684  identitasPasien */\n      dup2\n        /* \"ElectronicMedicalRecords.sol\":6669:6691  identitasPasien.gender */\n      0x80\n      add\n        /* \"ElectronicMedicalRecords.sol\":6669:6718  identitasPasien.gender =  _identitasPasien.gender */\n      dup2\n      swap1\n      mstore\n      pop\n        /* \"ElectronicMedicalRecords.sol\":6776:6791  identitasPasien */\n      dup1\n        /* \"ElectronicMedicalRecords.sol\":6731:6740  patientId */\n      0x00\n        /* \"ElectronicMedicalRecords.sol\":6731:6773  patientId[_identitasPasien.patientAddress] */\n      dup1\n        /* \"ElectronicMedicalRecords.sol\":6741:6757  _identitasPasien */\n      dup6\n        /* \"ElectronicMedicalRecords.sol\":6741:6772  _identitasPasien.patientAddress */\n      0x00\n      add\n      mload\n        /* \"ElectronicMedicalRecords.sol\":6731:6773  patientId[_identitasPasien.patientAddress] */\n      0xffffffffffffffffffffffffffffffffffffffff\n      and\n      0xffffffffffffffffffffffffffffffffffffffff\n      and\n      dup2\n      mstore\n      0x20\n      add\n      swap1\n      dup2\n      mstore\n      0x20\n      add\n      0x00\n      keccak256\n        /* \"ElectronicMedicalRecords.sol\":6731:6791  patientId[_identitasPasien.patientAddress] = identitasPasien */\n      0x00\n      dup3\n      add\n      mload\n      dup2\n      0x00\n      add\n      exp(0x0100, 0x00)\n      dup2\n      sload\n      dup2\n      0xffffffffffffffffffffffffffffffffffffffff\n      mul\n      not\n      and\n      swap1\n      dup4\n      0xffffffffffffffffffffffffffffffffffffffff\n      and\n      mul\n      or\n      swap1\n      sstore\n      pop\n      0x20\n      dup3\n      add\n      mload\n      dup2\n      0x01\n      add\n      swap1\n      dup2\n      tag_96\n      swap2\n      swap1\n      tag_63\n      jump\t// in\n    tag_96:\n      pop\n      0x40\n      dup3\n      add\n      mload\n      dup2\n      0x02\n      add\n      sstore\n      0x60\n      dup3\n      add\n      mload\n      dup2\n      0x03\n      add\n      swap1\n      dup2\n      tag_97\n      swap2\n      swap1\n      tag_63\n      jump\t// in\n    tag_97:\n      pop\n      0x80\n      dup3\n      add\n      mload\n      dup2\n      0x04\n      add\n      swap1\n      dup2\n      tag_98\n      swap2\n      swap1\n      tag_63\n      jump\t// in\n    tag_98:\n      pop\n      swap1\n      pop\n      pop\n        /* \"ElectronicMedicalRecords.sol\":6804:6830  RawatInap memory rawatInap */\n      tag_99\n      tag_100\n      jump\t// in\n    tag_99:\n        /* \"ElectronicMedicalRecords.sol\":6869:6879  _rawatInap */\n      dup3\n        /* \"ElectronicMedicalRecords.sol\":6869:6895  _rawatInap.patient_address */\n      0x00\n      add\n      mload\n        /* \"ElectronicMedicalRecords.sol\":6841:6850  rawatInap */\n      dup2\n        /* \"ElectronicMedicalRecords.sol\":6841:6866  rawatInap.patient_address */\n      0x00\n      add\n        /* \"ElectronicMedicalRecords.sol\":6841:6895  rawatInap.patient_address = _rawatInap.patient_address */\n      swap1\n      0xffffffffffffffffffffffffffffffffffffffff\n      and\n      swap1\n      dup2\n      0xffffffffffffffffffffffffffffffffffffffff\n      and\n      dup2\n      mstore\n      pop\n      pop\n        /* \"ElectronicMedicalRecords.sol\":6924:6934  _rawatInap */\n      dup3\n        /* \"ElectronicMedicalRecords.sol\":6924:6940  _rawatInap.jenis */\n      0x20\n      add\n      mload\n        /* \"ElectronicMedicalRecords.sol\":6906:6915  rawatInap */\n      dup2\n        /* \"ElectronicMedicalRecords.sol\":6906:6921  rawatInap.jenis */\n      0x20\n      add\n        /* \"ElectronicMedicalRecords.sol\":6906:6940  rawatInap.jenis = _rawatInap.jenis */\n      dup2\n      swap1\n      mstore\n      pop\n        /* \"ElectronicMedicalRecords.sol\":6978:6988  _rawatInap */\n      dup3\n        /* \"ElectronicMedicalRecords.sol\":6978:7002  _rawatInap.date_and_time */\n      0x40\n      add\n      mload\n        /* \"ElectronicMedicalRecords.sol\":6952:6961  rawatInap */\n      dup2\n        /* \"ElectronicMedicalRecords.sol\":6952:6975  rawatInap.date_and_time */\n      0x40\n      add\n        /* \"ElectronicMedicalRecords.sol\":6952:7002  rawatInap.date_and_time = _rawatInap.date_and_time */\n      dup2\n      swap1\n      mstore\n      pop\n        /* \"ElectronicMedicalRecords.sol\":7035:7045  _rawatInap */\n      dup3\n        /* \"ElectronicMedicalRecords.sol\":7035:7055  _rawatInap.anamnesis */\n      0x60\n      add\n      mload\n        /* \"ElectronicMedicalRecords.sol\":7013:7022  rawatInap */\n      dup2\n        /* \"ElectronicMedicalRecords.sol\":7013:7032  rawatInap.anamnesis */\n      0x60\n      add\n        /* \"ElectronicMedicalRecords.sol\":7013:7055  rawatInap.anamnesis = _rawatInap.anamnesis */\n      dup2\n      swap1\n      mstore\n      pop\n        /* \"ElectronicMedicalRecords.sol\":7085:7095  _rawatInap */\n      dup3\n        /* \"ElectronicMedicalRecords.sol\":7085:7101  _rawatInap.fisik */\n      0x80\n      add\n      mload\n        /* \"ElectronicMedicalRecords.sol\":7067:7076  rawatInap */\n      dup2\n        /* \"ElectronicMedicalRecords.sol\":7067:7082  rawatInap.fisik */\n      0x80\n      add\n        /* \"ElectronicMedicalRecords.sol\":7067:7101  rawatInap.fisik = _rawatInap.fisik */\n      dup2\n      swap1\n      mstore\n      pop\n        /* \"ElectronicMedicalRecords.sol\":7135:7145  _rawatInap */\n      dup3\n        /* \"ElectronicMedicalRecords.sol\":7135:7155  _rawatInap.diagnosis */\n      0xa0\n      add\n      mload\n        /* \"ElectronicMedicalRecords.sol\":7113:7122  rawatInap */\n      dup2\n        /* \"ElectronicMedicalRecords.sol\":7113:7132  rawatInap.diagnosis */\n      0xa0\n      add\n        /* \"ElectronicMedicalRecords.sol\":7113:7155  rawatInap.diagnosis = _rawatInap.diagnosis */\n      dup2\n      swap1\n      mstore\n      pop\n        /* \"ElectronicMedicalRecords.sol\":7181:7191  _rawatInap */\n      dup3\n        /* \"ElectronicMedicalRecords.sol\":7181:7194  _rawatInap.rp */\n      0xc0\n      add\n      mload\n        /* \"ElectronicMedicalRecords.sol\":7166:7175  rawatInap */\n      dup2\n        /* \"ElectronicMedicalRecords.sol\":7166:7178  rawatInap.rp */\n      0xc0\n      add\n        /* \"ElectronicMedicalRecords.sol\":7166:7194  rawatInap.rp = _rawatInap.rp */\n      dup2\n      swap1\n      mstore\n      pop\n        /* \"ElectronicMedicalRecords.sol\":7229:7239  _rawatInap */\n      dup3\n        /* \"ElectronicMedicalRecords.sol\":7229:7250  _rawatInap.pengobatan */\n      0xe0\n      add\n      mload\n        /* \"ElectronicMedicalRecords.sol\":7206:7215  rawatInap */\n      dup2\n        /* \"ElectronicMedicalRecords.sol\":7206:7226  rawatInap.pengobatan */\n      0xe0\n      add\n        /* \"ElectronicMedicalRecords.sol\":7206:7250  rawatInap.pengobatan = _rawatInap.pengobatan */\n      dup2\n      swap1\n      mstore\n      pop\n        /* \"ElectronicMedicalRecords.sol\":7282:7292  _rawatInap */\n      dup3\n        /* \"ElectronicMedicalRecords.sol\":7282:7301  _rawatInap.tindakan */\n      0x0100\n      add\n      mload\n        /* \"ElectronicMedicalRecords.sol\":7261:7270  rawatInap */\n      dup2\n        /* \"ElectronicMedicalRecords.sol\":7261:7279  rawatInap.tindakan */\n      0x0100\n      add\n        /* \"ElectronicMedicalRecords.sol\":7261:7301  rawatInap.tindakan = _rawatInap.tindakan */\n      dup2\n      swap1\n      mstore\n      pop\n        /* \"ElectronicMedicalRecords.sol\":7334:7344  _rawatInap */\n      dup3\n        /* \"ElectronicMedicalRecords.sol\":7334:7354  _rawatInap.agreement */\n      0x0120\n      add\n      mload\n        /* \"ElectronicMedicalRecords.sol\":7312:7321  rawatInap */\n      dup2\n        /* \"ElectronicMedicalRecords.sol\":7312:7331  rawatInap.agreement */\n      0x0120\n      add\n        /* \"ElectronicMedicalRecords.sol\":7312:7354  rawatInap.agreement = _rawatInap.agreement */\n      swap1\n      iszero\n      iszero\n      swap1\n      dup2\n      iszero\n      iszero\n      dup2\n      mstore\n      pop\n      pop\n        /* \"ElectronicMedicalRecords.sol\":7381:7391  _rawatInap */\n      dup3\n        /* \"ElectronicMedicalRecords.sol\":7381:7395  _rawatInap.obs */\n      0x0140\n      add\n      mload\n        /* \"ElectronicMedicalRecords.sol\":7365:7374  rawatInap */\n      dup2\n        /* \"ElectronicMedicalRecords.sol\":7365:7378  rawatInap.obs */\n      0x0140\n      add\n        /* \"ElectronicMedicalRecords.sol\":7365:7395  rawatInap.obs = _rawatInap.obs */\n      dup2\n      swap1\n      mstore\n      pop\n        /* \"ElectronicMedicalRecords.sol\":7421:7431  _rawatInap */\n      dup3\n        /* \"ElectronicMedicalRecords.sol\":7421:7434  _rawatInap.ds */\n      0x0160\n      add\n      mload\n        /* \"ElectronicMedicalRecords.sol\":7406:7415  rawatInap */\n      dup2\n        /* \"ElectronicMedicalRecords.sol\":7406:7418  rawatInap.ds */\n      0x0160\n      add\n        /* \"ElectronicMedicalRecords.sol\":7406:7434  rawatInap.ds = _rawatInap.ds */\n      dup2\n      swap1\n      mstore\n      pop\n        /* \"ElectronicMedicalRecords.sol\":7464:7474  _rawatInap */\n      dup3\n        /* \"ElectronicMedicalRecords.sol\":7464:7481  _rawatInap.doctor */\n      0x0180\n      add\n      mload\n        /* \"ElectronicMedicalRecords.sol\":7445:7454  rawatInap */\n      dup2\n        /* \"ElectronicMedicalRecords.sol\":7445:7461  rawatInap.doctor */\n      0x0180\n      add\n        /* \"ElectronicMedicalRecords.sol\":7445:7481  rawatInap.doctor = _rawatInap.doctor */\n      swap1\n      0xffffffffffffffffffffffffffffffffffffffff\n      and\n      swap1\n      dup2\n      0xffffffffffffffffffffffffffffffffffffffff\n      and\n      dup2\n      mstore\n      pop\n      pop\n        /* \"ElectronicMedicalRecords.sol\":7514:7524  _rawatInap */\n      dup3\n        /* \"ElectronicMedicalRecords.sol\":7514:7534  _rawatInap.pelayanan */\n      0x01a0\n      add\n      mload\n        /* \"ElectronicMedicalRecords.sol\":7492:7501  rawatInap */\n      dup2\n        /* \"ElectronicMedicalRecords.sol\":7492:7511  rawatInap.pelayanan */\n      0x01a0\n      add\n        /* \"ElectronicMedicalRecords.sol\":7492:7534  rawatInap.pelayanan = _rawatInap.pelayanan */\n      dup2\n      swap1\n      mstore\n      pop\n        /* \"ElectronicMedicalRecords.sol\":7547:7556  inPatient */\n      0x03\n        /* \"ElectronicMedicalRecords.sol\":7547:7584  inPatient[_rawatInap.patient_address] */\n      0x00\n        /* \"ElectronicMedicalRecords.sol\":7557:7567  _rawatInap */\n      dup5\n        /* \"ElectronicMedicalRecords.sol\":7557:7583  _rawatInap.patient_address */\n      0x00\n      add\n      mload\n        /* \"ElectronicMedicalRecords.sol\":7547:7584  inPatient[_rawatInap.patient_address] */\n      0xffffffffffffffffffffffffffffffffffffffff\n      and\n      0xffffffffffffffffffffffffffffffffffffffff\n      and\n      dup2\n      mstore\n      0x20\n      add\n      swap1\n      dup2\n      mstore\n      0x20\n      add\n      0x00\n      keccak256\n        /* \"ElectronicMedicalRecords.sol\":7590:7599  rawatInap */\n      dup2\n        /* \"ElectronicMedicalRecords.sol\":7547:7600  inPatient[_rawatInap.patient_address].push(rawatInap) */\n      swap1\n      dup1\n      0x01\n      dup2\n      sload\n      add\n      dup1\n      dup3\n      sstore\n      dup1\n      swap2\n      pop\n      pop\n      0x01\n      swap1\n      sub\n      swap1\n      0x00\n      mstore\n      keccak256(0x00, 0x20)\n      swap1\n      0x0e\n      mul\n      add\n      0x00\n      swap1\n      swap2\n      swap1\n      swap2\n      swap1\n      swap2\n      pop\n      0x00\n      dup3\n      add\n      mload\n      dup2\n      0x00\n      add\n      exp(0x0100, 0x00)\n      dup2\n      sload\n      dup2\n      0xffffffffffffffffffffffffffffffffffffffff\n      mul\n      not\n      and\n      swap1\n      dup4\n      0xffffffffffffffffffffffffffffffffffffffff\n      and\n      mul\n      or\n      swap1\n      sstore\n      pop\n      0x20\n      dup3\n      add\n      mload\n      dup2\n      0x01\n      add\n      swap1\n      dup2\n      tag_102\n      swap2\n      swap1\n      tag_63\n      jump\t// in\n    tag_102:\n      pop\n      0x40\n      dup3\n      add\n      mload\n      dup2\n      0x02\n      add\n      swap1\n      dup2\n      tag_103\n      swap2\n      swap1\n      tag_63\n      jump\t// in\n    tag_103:\n      pop\n      0x60\n      dup3\n      add\n      mload\n      dup2\n      0x03\n      add\n      swap1\n      dup2\n      tag_104\n      swap2\n      swap1\n      tag_63\n      jump\t// in\n    tag_104:\n      pop\n      0x80\n      dup3\n      add\n      mload\n      dup2\n      0x04\n      add\n      swap1\n      dup2\n      tag_105\n      swap2\n      swap1\n      tag_63\n      jump\t// in\n    tag_105:\n      pop\n      0xa0\n      dup3\n      add\n      mload\n      dup2\n      0x05\n      add\n      swap1\n      dup2\n      tag_106\n      swap2\n      swap1\n      tag_63\n      jump\t// in\n    tag_106:\n      pop\n      0xc0\n      dup3\n      add\n      mload\n      dup2\n      0x06\n      add\n      swap1\n      dup2\n      tag_107\n      swap2\n      swap1\n      tag_63\n      jump\t// in\n    tag_107:\n      pop\n      0xe0\n      dup3\n      add\n      mload\n      dup2\n      0x07\n      add\n      swap1\n      dup2\n      tag_108\n      swap2\n      swap1\n      tag_63\n      jump\t// in\n    tag_108:\n      pop\n      0x0100\n      dup3\n      add\n      mload\n      dup2\n      0x08\n      add\n      swap1\n      dup2\n      tag_109\n      swap2\n      swap1\n      tag_63\n      jump\t// in\n    tag_109:\n      pop\n      0x0120\n      dup3\n      add\n      mload\n      dup2\n      0x09\n      add\n      exp(0x0100, 0x00)\n      dup2\n      sload\n      dup2\n      0xff\n      mul\n      not\n      and\n      swap1\n      dup4\n      iszero\n      iszero\n      mul\n      or\n      swap1\n      sstore\n      pop\n      0x0140\n      dup3\n      add\n      mload\n      dup2\n      0x0a\n      add\n      swap1\n      dup2\n      tag_110\n      swap2\n      swap1\n      tag_63\n      jump\t// in\n    tag_110:\n      pop\n      0x0160\n      dup3\n      add\n      mload\n      dup2\n      0x0b\n      add\n      swap1\n      dup2\n      tag_111\n      swap2\n      swap1\n      tag_63\n      jump\t// in\n    tag_111:\n      pop\n      0x0180\n      dup3\n      add\n      mload\n      dup2\n      0x0c\n      add\n      exp(0x0100, 0x00)\n      dup2\n      sload\n      dup2\n      0xffffffffffffffffffffffffffffffffffffffff\n      mul\n      not\n      and\n      swap1\n      dup4\n      0xffffffffffffffffffffffffffffffffffffffff\n      and\n      mul\n      or\n      swap1\n      sstore\n      pop\n      0x01a0\n      dup3\n      add\n      mload\n      dup2\n      0x0d\n      add\n      swap1\n      dup2\n      tag_112\n      swap2\n      swap1\n      tag_63\n      jump\t// in\n    tag_112:\n      pop\n      pop\n      pop\n        /* \"ElectronicMedicalRecords.sol\":7613:7632  patient_verificator */\n      0x07\n      0x00\n      swap1\n      sload\n      swap1\n      0x0100\n      exp\n      swap1\n      div\n      0xffffffffffffffffffffffffffffffffffffffff\n      and\n        /* \"ElectronicMedicalRecords.sol\":7613:7643  patient_verificator.addPatient */\n      0xffffffffffffffffffffffffffffffffffffffff\n      and\n      0x6d263ceb\n        /* \"ElectronicMedicalRecords.sol\":7644:7660  _identitasPasien */\n      dup6\n        /* \"ElectronicMedicalRecords.sol\":7644:7675  _identitasPasien.patientAddress */\n      0x00\n      add\n      mload\n        /* \"ElectronicMedicalRecords.sol\":7613:7676  patient_verificator.addPatient(_identitasPasien.patientAddress) */\n      mload(0x40)\n      dup3\n      0xffffffff\n      and\n      0xe0\n      shl\n      dup2\n      mstore\n      0x04\n      add\n      tag_113\n      swap2\n      swap1\n      tag_53\n      jump\t// in\n    tag_113:\n      0x00\n      mload(0x40)\n      dup1\n      dup4\n      sub\n      dup2\n      0x00\n      dup8\n      dup1\n      extcodesize\n      iszero\n      dup1\n      iszero\n      tag_114\n      jumpi\n      0x00\n      dup1\n      revert\n    tag_114:\n      pop\n      gas\n      call\n      iszero\n      dup1\n      iszero\n      tag_116\n      jumpi\n      returndatasize\n      0x00\n      dup1\n      returndatacopy\n      revert(0x00, returndatasize)\n    tag_116:\n      pop\n      pop\n      pop\n      pop\n        /* \"ElectronicMedicalRecords.sol\":7687:7702  doctor_relation */\n      0x08\n      0x00\n      swap1\n      sload\n      swap1\n      0x0100\n      exp\n      swap1\n      div\n      0xffffffffffffffffffffffffffffffffffffffff\n      and\n        /* \"ElectronicMedicalRecords.sol\":7687:7720  doctor_relation.addDoctorRelation */\n      0xffffffffffffffffffffffffffffffffffffffff\n      and\n      0x43a0e44a\n        /* \"ElectronicMedicalRecords.sol\":7721:7731  msg.sender */\n      caller\n        /* \"ElectronicMedicalRecords.sol\":7733:7749  _identitasPasien */\n      dup7\n        /* \"ElectronicMedicalRecords.sol\":7733:7762  _identitasPasien.nama_lengkap */\n      0x20\n      add\n      mload\n        /* \"ElectronicMedicalRecords.sol\":7764:7774  _rawatInap */\n      dup7\n        /* \"ElectronicMedicalRecords.sol\":7764:7780  _rawatInap.jenis */\n      0x20\n      add\n      mload\n        /* \"ElectronicMedicalRecords.sol\":7782:7798  _identitasPasien */\n      dup9\n        /* \"ElectronicMedicalRecords.sol\":7782:7813  _identitasPasien.patientAddress */\n      0x00\n      add\n      mload\n        /* \"ElectronicMedicalRecords.sol\":7687:7814  doctor_relation.addDoctorRelation(msg.sender, _identitasPasien.nama_lengkap, _rawatInap.jenis, _identitasPasien.patientAddress) */\n      mload(0x40)\n      dup6\n      0xffffffff\n      and\n      0xe0\n      shl\n      dup2\n      mstore\n      0x04\n      add\n      tag_117\n      swap5\n      swap4\n      swap3\n      swap2\n      swap1\n      tag_82\n      jump\t// in\n    tag_117:\n      0x00\n      mload(0x40)\n      dup1\n      dup4\n      sub\n      dup2\n      0x00\n      dup8\n      dup1\n      extcodesize\n      iszero\n      dup1\n      iszero\n      tag_118\n      jumpi\n      0x00\n      dup1\n      revert\n    tag_118:\n      pop\n      gas\n      call\n      iszero\n      dup1\n      iszero\n      tag_120\n      jumpi\n      returndatasize\n      0x00\n      dup1\n      returndatacopy\n      revert(0x00, returndatasize)\n    tag_120:\n      pop\n      pop\n      pop\n      pop\n        /* \"ElectronicMedicalRecords.sol\":6331:7822  {... */\n      pop\n      pop\n        /* \"ElectronicMedicalRecords.sol\":6221:7822  function addInPatient(IdentitasPasien memory _identitasPasien, RawatInap memory _rawatInap) onlyDoctor public {... */\n      pop\n      pop\n      jump\t// out\n        /* \"ElectronicMedicalRecords.sol\":9480:9655  function getOutPatient(address add) onlyDoctor public view returns(IdentitasPasien memory a, RawatJalan[] memory b) {... */\n    tag_33:\n        /* \"ElectronicMedicalRecords.sol\":9547:9571  IdentitasPasien memory a */\n      tag_121\n      tag_61\n      jump\t// in\n    tag_121:\n        /* \"ElectronicMedicalRecords.sol\":9573:9594  RawatJalan[] memory b */\n      0x60\n        /* \"ElectronicMedicalRecords.sol\":10088:10106  doctor_verificator */\n      0x06\n      0x00\n      swap1\n      sload\n      swap1\n      0x0100\n      exp\n      swap1\n      div\n      0xffffffffffffffffffffffffffffffffffffffff\n      and\n        /* \"ElectronicMedicalRecords.sol\":10088:10113  doctor_verificator.verify */\n      0xffffffffffffffffffffffffffffffffffffffff\n      and\n      0x63a9c3d7\n        /* \"ElectronicMedicalRecords.sol\":10114:10124  msg.sender */\n      caller\n        /* \"ElectronicMedicalRecords.sol\":10088:10125  doctor_verificator.verify(msg.sender) */\n      mload(0x40)\n      dup3\n      0xffffffff\n      and\n      0xe0\n      shl\n      dup2\n      mstore\n      0x04\n      add\n      tag_123\n      swap2\n      swap1\n      tag_53\n      jump\t// in\n    tag_123:\n      0x20\n      mload(0x40)\n      dup1\n      dup4\n      sub\n      dup2\n      dup7\n      gas\n      staticcall\n      iszero\n      dup1\n      iszero\n      tag_125\n      jumpi\n      returndatasize\n      0x00\n      dup1\n      returndatacopy\n      revert(0x00, returndatasize)\n    tag_125:\n      pop\n      pop\n      pop\n      pop\n      mload(0x40)\n      returndatasize\n      not(0x1f)\n      0x1f\n      dup3\n      add\n      and\n      dup3\n      add\n      dup1\n      0x40\n      mstore\n      pop\n      dup2\n      add\n      swap1\n      tag_126\n      swap2\n      swap1\n      tag_57\n      jump\t// in\n    tag_126:\n        /* \"ElectronicMedicalRecords.sol\":10080:10126  require(doctor_verificator.verify(msg.sender)) */\n      tag_127\n      jumpi\n      0x00\n      dup1\n      revert\n    tag_127:\n        /* \"ElectronicMedicalRecords.sol\":9615:9624  patientId */\n      0x00\n        /* \"ElectronicMedicalRecords.sol\":9615:9629  patientId[add] */\n      dup1\n        /* \"ElectronicMedicalRecords.sol\":9625:9628  add */\n      dup5\n        /* \"ElectronicMedicalRecords.sol\":9615:9629  patientId[add] */\n      0xffffffffffffffffffffffffffffffffffffffff\n      and\n      0xffffffffffffffffffffffffffffffffffffffff\n      and\n      dup2\n      mstore\n      0x20\n      add\n      swap1\n      dup2\n      mstore\n      0x20\n      add\n      0x00\n      keccak256\n        /* \"ElectronicMedicalRecords.sol\":9631:9641  outPatient */\n      0x02\n        /* \"ElectronicMedicalRecords.sol\":9631:9646  outPatient[add] */\n      0x00\n        /* \"ElectronicMedicalRecords.sol\":9642:9645  add */\n      dup6\n        /* \"ElectronicMedicalRecords.sol\":9631:9646  outPatient[add] */\n      0xffffffffffffffffffffffffffffffffffffffff\n      and\n      0xffffffffffffffffffffffffffffffffffffffff\n      and\n      dup2\n      mstore\n      0x20\n      add\n      swap1\n      dup2\n      mstore\n      0x20\n      add\n      0x00\n      keccak256\n        /* \"ElectronicMedicalRecords.sol\":9607:9647  return (patientId[add], outPatient[add]) */\n      dup2\n      mload(0x40)\n      dup1\n      0xa0\n      add\n      0x40\n      mstore\n      swap1\n      dup2\n      0x00\n      dup3\n      add\n      0x00\n      swap1\n      sload\n      swap1\n      0x0100\n      exp\n      swap1\n      div\n      0xffffffffffffffffffffffffffffffffffffffff\n      and\n      0xffffffffffffffffffffffffffffffffffffffff\n      and\n      0xffffffffffffffffffffffffffffffffffffffff\n      and\n      dup2\n      mstore\n      0x20\n      add\n      0x01\n      dup3\n      add\n      dup1\n      sload\n      tag_129\n      swap1\n      tag_130\n      jump\t// in\n    tag_129:\n      dup1\n      0x1f\n      add\n      0x20\n      dup1\n      swap2\n      div\n      mul\n      0x20\n      add\n      mload(0x40)\n      swap1\n      dup2\n      add\n      0x40\n      mstore\n      dup1\n      swap3\n      swap2\n      swap1\n      dup2\n      dup2\n      mstore\n      0x20\n      add\n      dup3\n      dup1\n      sload\n      tag_131\n      swap1\n      tag_130\n      jump\t// in\n    tag_131:\n      dup1\n      iszero\n      tag_132\n      jumpi\n      dup1\n      0x1f\n      lt\n      tag_133\n      jumpi\n      0x0100\n      dup1\n      dup4\n      sload\n      div\n      mul\n      dup4\n      mstore\n      swap2\n      0x20\n      add\n      swap2\n      jump(tag_132)\n    tag_133:\n      dup3\n      add\n      swap2\n      swap1\n      0x00\n      mstore\n      keccak256(0x00, 0x20)\n      swap1\n    tag_134:\n      dup2\n      sload\n      dup2\n      mstore\n      swap1\n      0x01\n      add\n      swap1\n      0x20\n      add\n      dup1\n      dup4\n      gt\n      tag_134\n      jumpi\n      dup3\n      swap1\n      sub\n      0x1f\n      and\n      dup3\n      add\n      swap2\n    tag_132:\n      pop\n      pop\n      pop\n      pop\n      pop\n      dup2\n      mstore\n      0x20\n      add\n      0x02\n      dup3\n      add\n      sload\n      dup2\n      mstore\n      0x20\n      add\n      0x03\n      dup3\n      add\n      dup1\n      sload\n      tag_135\n      swap1\n      tag_130\n      jump\t// in\n    tag_135:\n      dup1\n      0x1f\n      add\n      0x20\n      dup1\n      swap2\n      div\n      mul\n      0x20\n      add\n      mload(0x40)\n      swap1\n      dup2\n      add\n      0x40\n      mstore\n      dup1\n      swap3\n      swap2\n      swap1\n      dup2\n      dup2\n      mstore\n      0x20\n      add\n      dup3\n      dup1\n      sload\n      tag_136\n      swap1\n      tag_130\n      jump\t// in\n    tag_136:\n      dup1\n      iszero\n      tag_137\n      jumpi\n      dup1\n      0x1f\n      lt\n      tag_138\n      jumpi\n      0x0100\n      dup1\n      dup4\n      sload\n      div\n      mul\n      dup4\n      mstore\n      swap2\n      0x20\n      add\n      swap2\n      jump(tag_137)\n    tag_138:\n      dup3\n      add\n      swap2\n      swap1\n      0x00\n      mstore\n      keccak256(0x00, 0x20)\n      swap1\n    tag_139:\n      dup2\n      sload\n      dup2\n      mstore\n      swap1\n      0x01\n      add\n      swap1\n      0x20\n      add\n      dup1\n      dup4\n      gt\n      tag_139\n      jumpi\n      dup3\n      swap1\n      sub\n      0x1f\n      and\n      dup3\n      add\n      swap2\n    tag_137:\n      pop\n      pop\n      pop\n      pop\n      pop\n      dup2\n      mstore\n      0x20\n      add\n      0x04\n      dup3\n      add\n      dup1\n      sload\n      tag_140\n      swap1\n      tag_130\n      jump\t// in\n    tag_140:\n      dup1\n      0x1f\n      add\n      0x20\n      dup1\n      swap2\n      div\n      mul\n      0x20\n      add\n      mload(0x40)\n      swap1\n      dup2\n      add\n      0x40\n      mstore\n      dup1\n      swap3\n      swap2\n      swap1\n      dup2\n      dup2\n      mstore\n      0x20\n      add\n      dup3\n      dup1\n      sload\n      tag_141\n      swap1\n      tag_130\n      jump\t// in\n    tag_141:\n      dup1\n      iszero\n      tag_142\n      jumpi\n      dup1\n      0x1f\n      lt\n      tag_143\n      jumpi\n      0x0100\n      dup1\n      dup4\n      sload\n      div\n      mul\n      dup4\n      mstore\n      swap2\n      0x20\n      add\n      swap2\n      jump(tag_142)\n    tag_143:\n      dup3\n      add\n      swap2\n      swap1\n      0x00\n      mstore\n      keccak256(0x00, 0x20)\n      swap1\n    tag_144:\n      dup2\n      sload\n      dup2\n      mstore\n      swap1\n      0x01\n      add\n      swap1\n      0x20\n      add\n      dup1\n      dup4\n      gt\n      tag_144\n      jumpi\n      dup3\n      swap1\n      sub\n      0x1f\n      and\n      dup3\n      add\n      swap2\n    tag_142:\n      pop\n      pop\n      pop\n      pop\n      pop\n      dup2\n      mstore\n      pop\n      pop\n      swap2\n      pop\n      dup1\n      dup1\n      sload\n      dup1\n      0x20\n      mul\n      0x20\n      add\n      mload(0x40)\n      swap1\n      dup2\n      add\n      0x40\n      mstore\n      dup1\n      swap3\n      swap2\n      swap1\n      dup2\n      dup2\n      mstore\n      0x20\n      add\n      0x00\n      swap1\n    tag_145:\n      dup3\n      dup3\n      lt\n      iszero\n      tag_146\n      jumpi\n      dup4\n      dup3\n      swap1\n      0x00\n      mstore\n      keccak256(0x00, 0x20)\n      swap1\n      0x0a\n      mul\n      add\n      mload(0x40)\n      dup1\n      0x0140\n      add\n      0x40\n      mstore\n      swap1\n      dup2\n      0x00\n      dup3\n      add\n      0x00\n      swap1\n      sload\n      swap1\n      0x0100\n      exp\n      swap1\n      div\n      0xffffffffffffffffffffffffffffffffffffffff\n      and\n      0xffffffffffffffffffffffffffffffffffffffff\n      and\n      0xffffffffffffffffffffffffffffffffffffffff\n      and\n      dup2\n      mstore\n      0x20\n      add\n      0x01\n      dup3\n      add\n      dup1\n      sload\n      tag_148\n      swap1\n      tag_130\n      jump\t// in\n    tag_148:\n      dup1\n      0x1f\n      add\n      0x20\n      dup1\n      swap2\n      div\n      mul\n      0x20\n      add\n      mload(0x40)\n      swap1\n      dup2\n      add\n      0x40\n      mstore\n      dup1\n      swap3\n      swap2\n      swap1\n      dup2\n      dup2\n      mstore\n      0x20\n      add\n      dup3\n      dup1\n      sload\n      tag_149\n      swap1\n      tag_130\n      jump\t// in\n    tag_149:\n      dup1\n      iszero\n      tag_150\n      jumpi\n      dup1\n      0x1f\n      lt\n      tag_151\n      jumpi\n      0x0100\n      dup1\n      dup4\n      sload\n      div\n      mul\n      dup4\n      mstore\n      swap2\n      0x20\n      add\n      swap2\n      jump(tag_150)\n    tag_151:\n      dup3\n      add\n      swap2\n      swap1\n      0x00\n      mstore\n      keccak256(0x00, 0x20)\n      swap1\n    tag_152:\n      dup2\n      sload\n      dup2\n      mstore\n      swap1\n      0x01\n      add\n      swap1\n      0x20\n      add\n      dup1\n      dup4\n      gt\n      tag_152\n      jumpi\n      dup3\n      swap1\n      sub\n      0x1f\n      and\n      dup3\n      add\n      swap2\n    tag_150:\n      pop\n      pop\n      pop\n      pop\n      pop\n      dup2\n      mstore\n      0x20\n      add\n      0x02\n      dup3\n      add\n      dup1\n      sload\n      tag_153\n      swap1\n      tag_130\n      jump\t// in\n    tag_153:\n      dup1\n      0x1f\n      add\n      0x20\n      dup1\n      swap2\n      div\n      mul\n      0x20\n      add\n      mload(0x40)\n      swap1\n      dup2\n      add\n      0x40\n      mstore\n      dup1\n      swap3\n      swap2\n      swap1\n      dup2\n      dup2\n      mstore\n      0x20\n      add\n      dup3\n      dup1\n      sload\n      tag_154\n      swap1\n      tag_130\n      jump\t// in\n    tag_154:\n      dup1\n      iszero\n      tag_155\n      jumpi\n      dup1\n      0x1f\n      lt\n      tag_156\n      jumpi\n      0x0100\n      dup1\n      dup4\n      sload\n      div\n      mul\n      dup4\n      mstore\n      swap2\n      0x20\n      add\n      swap2\n      jump(tag_155)\n    tag_156:\n      dup3\n      add\n      swap2\n      swap1\n      0x00\n      mstore\n      keccak256(0x00, 0x20)\n      swap1\n    tag_157:\n      dup2\n      sload\n      dup2\n      mstore\n      swap1\n      0x01\n      add\n      swap1\n      0x20\n      add\n      dup1\n      dup4\n      gt\n      tag_157\n      jumpi\n      dup3\n      swap1\n      sub\n      0x1f\n      and\n      dup3\n      add\n      swap2\n    tag_155:\n      pop\n      pop\n      pop\n      pop\n      pop\n      dup2\n      mstore\n      0x20\n      add\n      0x03\n      dup3\n      add\n      dup1\n      sload\n      tag_158\n      swap1\n      tag_130\n      jump\t// in\n    tag_158:\n      dup1\n      0x1f\n      add\n      0x20\n      dup1\n      swap2\n      div\n      mul\n      0x20\n      add\n      mload(0x40)\n      swap1\n      dup2\n      add\n      0x40\n      mstore\n      dup1\n      swap3\n      swap2\n      swap1\n      dup2\n      dup2\n      mstore\n      0x20\n      add\n      dup3\n      dup1\n      sload\n      tag_159\n      swap1\n      tag_130\n      jump\t// in\n    tag_159:\n      dup1\n      iszero\n      tag_160\n      jumpi\n      dup1\n      0x1f\n      lt\n      tag_161\n      jumpi\n      0x0100\n      dup1\n      dup4\n      sload\n      div\n      mul\n      dup4\n      mstore\n      swap2\n      0x20\n      add\n      swap2\n      jump(tag_160)\n    tag_161:\n      dup3\n      add\n      swap2\n      swap1\n      0x00\n      mstore\n      keccak256(0x00, 0x20)\n      swap1\n    tag_162:\n      dup2\n      sload\n      dup2\n      mstore\n      swap1\n      0x01\n      add\n      swap1\n      0x20\n      add\n      dup1\n      dup4\n      gt\n      tag_162\n      jumpi\n      dup3\n      swap1\n      sub\n      0x1f\n      and\n      dup3\n      add\n      swap2\n    tag_160:\n      pop\n      pop\n      pop\n      pop\n      pop\n      dup2\n      mstore\n      0x20\n      add\n      0x04\n      dup3\n      add\n      dup1\n      sload\n      tag_163\n      swap1\n      tag_130\n      jump\t// in\n    tag_163:\n      dup1\n      0x1f\n      add\n      0x20\n      dup1\n      swap2\n      div\n      mul\n      0x20\n      add\n      mload(0x40)\n      swap1\n      dup2\n      add\n      0x40\n      mstore\n      dup1\n      swap3\n      swap2\n      swap1\n      dup2\n      dup2\n      mstore\n      0x20\n      add\n      dup3\n      dup1\n      sload\n      tag_164\n      swap1\n      tag_130\n      jump\t// in\n    tag_164:\n      dup1\n      iszero\n      tag_165\n      jumpi\n      dup1\n      0x1f\n      lt\n      tag_166\n      jumpi\n      0x0100\n      dup1\n      dup4\n      sload\n      div\n      mul\n      dup4\n      mstore\n      swap2\n      0x20\n      add\n      swap2\n      jump(tag_165)\n    tag_166:\n      dup3\n      add\n      swap2\n      swap1\n      0x00\n      mstore\n      keccak256(0x00, 0x20)\n      swap1\n    tag_167:\n      dup2\n      sload\n      dup2\n      mstore\n      swap1\n      0x01\n      add\n      swap1\n      0x20\n      add\n      dup1\n      dup4\n      gt\n      tag_167\n      jumpi\n      dup3\n      swap1\n      sub\n      0x1f\n      and\n      dup3\n      add\n      swap2\n    tag_165:\n      pop\n      pop\n      pop\n      pop\n      pop\n      dup2\n      mstore\n      0x20\n      add\n      0x05\n      dup3\n      add\n      dup1\n      sload\n      tag_168\n      swap1\n      tag_130\n      jump\t// in\n    tag_168:\n      dup1\n      0x1f\n      add\n      0x20\n      dup1\n      swap2\n      div\n      mul\n      0x20\n      add\n      mload(0x40)\n      swap1\n      dup2\n      add\n      0x40\n      mstore\n      dup1\n      swap3\n      swap2\n      swap1\n      dup2\n      dup2\n      mstore\n      0x20\n      add\n      dup3\n      dup1\n      sload\n      tag_169\n      swap1\n      tag_130\n      jump\t// in\n    tag_169:\n      dup1\n      iszero\n      tag_170\n      jumpi\n      dup1\n      0x1f\n      lt\n      tag_171\n      jumpi\n      0x0100\n      dup1\n      dup4\n      sload\n      div\n      mul\n      dup4\n      mstore\n      swap2\n      0x20\n      add\n      swap2\n      jump(tag_170)\n    tag_171:\n      dup3\n      add\n      swap2\n      swap1\n      0x00\n      mstore\n      keccak256(0x00, 0x20)\n      swap1\n    tag_172:\n      dup2\n      sload\n      dup2\n      mstore\n      swap1\n      0x01\n      add\n      swap1\n      0x20\n      add\n      dup1\n      dup4\n      gt\n      tag_172\n      jumpi\n      dup3\n      swap1\n      sub\n      0x1f\n      and\n      dup3\n      add\n      swap2\n    tag_170:\n      pop\n      pop\n      pop\n      pop\n      pop\n      dup2\n      mstore\n      0x20\n      add\n      0x06\n      dup3\n      add\n      dup1\n      sload\n      tag_173\n      swap1\n      tag_130\n      jump\t// in\n    tag_173:\n      dup1\n      0x1f\n      add\n      0x20\n      dup1\n      swap2\n      div\n      mul\n      0x20\n      add\n      mload(0x40)\n      swap1\n      dup2\n      add\n      0x40\n      mstore\n      dup1\n      swap3\n      swap2\n      swap1\n      dup2\n      dup2\n      mstore\n      0x20\n      add\n      dup3\n      dup1\n      sload\n      tag_174\n      swap1\n      tag_130\n      jump\t// in\n    tag_174:\n      dup1\n      iszero\n      tag_175\n      jumpi\n      dup1\n      0x1f\n      lt\n      tag_176\n      jumpi\n      0x0100\n      dup1\n      dup4\n      sload\n      div\n      mul\n      dup4\n      mstore\n      swap2\n      0x20\n      add\n      swap2\n      jump(tag_175)\n    tag_176:\n      dup3\n      add\n      swap2\n      swap1\n      0x00\n      mstore\n      keccak256(0x00, 0x20)\n      swap1\n    tag_177:\n      dup2\n      sload\n      dup2\n      mstore\n      swap1\n      0x01\n      add\n      swap1\n      0x20\n      add\n      dup1\n      dup4\n      gt\n      tag_177\n      jumpi\n      dup3\n      swap1\n      sub\n      0x1f\n      and\n      dup3\n      add\n      swap2\n    tag_175:\n      pop\n      pop\n      pop\n      pop\n      pop\n      dup2\n      mstore\n      0x20\n      add\n      0x07\n      dup3\n      add\n      dup1\n      sload\n      tag_178\n      swap1\n      tag_130\n      jump\t// in\n    tag_178:\n      dup1\n      0x1f\n      add\n      0x20\n      dup1\n      swap2\n      div\n      mul\n      0x20\n      add\n      mload(0x40)\n      swap1\n      dup2\n      add\n      0x40\n      mstore\n      dup1\n      swap3\n      swap2\n      swap1\n      dup2\n      dup2\n      mstore\n      0x20\n      add\n      dup3\n      dup1\n      sload\n      tag_179\n      swap1\n      tag_130\n      jump\t// in\n    tag_179:\n      dup1\n      iszero\n      tag_180\n      jumpi\n      dup1\n      0x1f\n      lt\n      tag_181\n      jumpi\n      0x0100\n      dup1\n      dup4\n      sload\n      div\n      mul\n      dup4\n      mstore\n      swap2\n      0x20\n      add\n      swap2\n      jump(tag_180)\n    tag_181:\n      dup3\n      add\n      swap2\n      swap1\n      0x00\n      mstore\n      keccak256(0x00, 0x20)\n      swap1\n    tag_182:\n      dup2\n      sload\n      dup2\n      mstore\n      swap1\n      0x01\n      add\n      swap1\n      0x20\n      add\n      dup1\n      dup4\n      gt\n      tag_182\n      jumpi\n      dup3\n      swap1\n      sub\n      0x1f\n      and\n      dup3\n      add\n      swap2\n    tag_180:\n      pop\n      pop\n      pop\n      pop\n      pop\n      dup2\n      mstore\n      0x20\n      add\n      0x08\n      dup3\n      add\n      dup1\n      sload\n      tag_183\n      swap1\n      tag_130\n      jump\t// in\n    tag_183:\n      dup1\n      0x1f\n      add\n      0x20\n      dup1\n      swap2\n      div\n      mul\n      0x20\n      add\n      mload(0x40)\n      swap1\n      dup2\n      add\n      0x40\n      mstore\n      dup1\n      swap3\n      swap2\n      swap1\n      dup2\n      dup2\n      mstore\n      0x20\n      add\n      dup3\n      dup1\n      sload\n      tag_184\n      swap1\n      tag_130\n      jump\t// in\n    tag_184:\n      dup1\n      iszero\n      tag_185\n      jumpi\n      dup1\n      0x1f\n      lt\n      tag_186\n      jumpi\n      0x0100\n      dup1\n      dup4\n      sload\n      div\n      mul\n      dup4\n      mstore\n      swap2\n      0x20\n      add\n      swap2\n      jump(tag_185)\n    tag_186:\n      dup3\n      add\n      swap2\n      swap1\n      0x00\n      mstore\n      keccak256(0x00, 0x20)\n      swap1\n    tag_187:\n      dup2\n      sload\n      dup2\n      mstore\n      swap1\n      0x01\n      add\n      swap1\n      0x20\n      add\n      dup1\n      dup4\n      gt\n      tag_187\n      jumpi\n      dup3\n      swap1\n      sub\n      0x1f\n      and\n      dup3\n      add\n      swap2\n    tag_185:\n      pop\n      pop\n      pop\n      pop\n      pop\n      dup2\n      mstore\n      0x20\n      add\n      0x09\n      dup3\n      add\n      0x00\n      swap1\n      sload\n      swap1\n      0x0100\n      exp\n      swap1\n      div\n      0xff\n      and\n      iszero\n      iszero\n      iszero\n      iszero\n      dup2\n      mstore\n      pop\n      pop\n      dup2\n      mstore\n      0x20\n      add\n      swap1\n      0x01\n      add\n      swap1\n      jump(tag_145)\n    tag_146:\n      pop\n      pop\n      pop\n      pop\n      swap1\n      pop\n      swap2\n      pop\n      swap2\n      pop\n        /* \"ElectronicMedicalRecords.sol\":9480:9655  function getOutPatient(address add) onlyDoctor public view returns(IdentitasPasien memory a, RawatJalan[] memory b) {... */\n      swap2\n      pop\n      swap2\n      jump\t// out\n        /* \"ElectronicMedicalRecords.sol\":7830:9472  function addEmergencyPatient(PengantarPasien memory _pengantar, GawatDarurat memory _gawatDarurat) onlyDoctor public {... */\n    tag_39:\n        /* \"ElectronicMedicalRecords.sol\":10088:10106  doctor_verificator */\n      0x06\n      0x00\n      swap1\n      sload\n      swap1\n      0x0100\n      exp\n      swap1\n      div\n      0xffffffffffffffffffffffffffffffffffffffff\n      and\n        /* \"ElectronicMedicalRecords.sol\":10088:10113  doctor_verificator.verify */\n      0xffffffffffffffffffffffffffffffffffffffff\n      and\n      0x63a9c3d7\n        /* \"ElectronicMedicalRecords.sol\":10114:10124  msg.sender */\n      caller\n        /* \"ElectronicMedicalRecords.sol\":10088:10125  doctor_verificator.verify(msg.sender) */\n      mload(0x40)\n      dup3\n      0xffffffff\n      and\n      0xe0\n      shl\n      dup2\n      mstore\n      0x04\n      add\n      tag_189\n      swap2\n      swap1\n      tag_53\n      jump\t// in\n    tag_189:\n      0x20\n      mload(0x40)\n      dup1\n      dup4\n      sub\n      dup2\n      dup7\n      gas\n      staticcall\n      iszero\n      dup1\n      iszero\n      tag_191\n      jumpi\n      returndatasize\n      0x00\n      dup1\n      returndatacopy\n      revert(0x00, returndatasize)\n    tag_191:\n      pop\n      pop\n      pop\n      pop\n      mload(0x40)\n      returndatasize\n      not(0x1f)\n      0x1f\n      dup3\n      add\n      and\n      dup3\n      add\n      dup1\n      0x40\n      mstore\n      pop\n      dup2\n      add\n      swap1\n      tag_192\n      swap2\n      swap1\n      tag_57\n      jump\t// in\n    tag_192:\n        /* \"ElectronicMedicalRecords.sol\":10080:10126  require(doctor_verificator.verify(msg.sender)) */\n      tag_193\n      jumpi\n      0x00\n      dup1\n      revert\n    tag_193:\n        /* \"ElectronicMedicalRecords.sol\":7958:7996  PengantarPasien memory pengantarPasien */\n      tag_195\n      tag_196\n      jump\t// in\n    tag_195:\n        /* \"ElectronicMedicalRecords.sol\":8029:8039  _pengantar */\n      dup3\n        /* \"ElectronicMedicalRecords.sol\":8029:8043  _pengantar.add */\n      0x00\n      add\n      mload\n        /* \"ElectronicMedicalRecords.sol\":8007:8022  pengantarPasien */\n      dup2\n        /* \"ElectronicMedicalRecords.sol\":8007:8026  pengantarPasien.add */\n      0x00\n      add\n        /* \"ElectronicMedicalRecords.sol\":8007:8043  pengantarPasien.add = _pengantar.add */\n      swap1\n      0xffffffffffffffffffffffffffffffffffffffff\n      and\n      swap1\n      dup2\n      0xffffffffffffffffffffffffffffffffffffffff\n      and\n      dup2\n      mstore\n      pop\n      pop\n        /* \"ElectronicMedicalRecords.sol\":8105:8115  _pengantar */\n      dup3\n        /* \"ElectronicMedicalRecords.sol\":8105:8132  _pengantar.pengantar_pasien */\n      0x20\n      add\n      mload\n        /* \"ElectronicMedicalRecords.sol\":8070:8085  pengantarPasien */\n      dup2\n        /* \"ElectronicMedicalRecords.sol\":8070:8102  pengantarPasien.pengantar_pasien */\n      0x20\n      add\n        /* \"ElectronicMedicalRecords.sol\":8070:8132  pengantarPasien.pengantar_pasien = _pengantar.pengantar_pasien */\n      dup2\n      swap1\n      mstore\n      pop\n        /* \"ElectronicMedicalRecords.sol\":8174:8184  _pengantar */\n      dup3\n        /* \"ElectronicMedicalRecords.sol\":8174:8197  _pengantar.nama_lengkap */\n      0x40\n      add\n      mload\n        /* \"ElectronicMedicalRecords.sol\":8143:8158  pengantarPasien */\n      dup2\n        /* \"ElectronicMedicalRecords.sol\":8143:8171  pengantarPasien.nama_lengkap */\n      0x40\n      add\n        /* \"ElectronicMedicalRecords.sol\":8143:8197  pengantarPasien.nama_lengkap = _pengantar.nama_lengkap */\n      dup2\n      swap1\n      mstore\n      pop\n        /* \"ElectronicMedicalRecords.sol\":8229:8239  _pengantar */\n      dup3\n        /* \"ElectronicMedicalRecords.sol\":8229:8242  _pengantar.hp */\n      0x60\n      add\n      mload\n        /* \"ElectronicMedicalRecords.sol\":8208:8223  pengantarPasien */\n      dup2\n        /* \"ElectronicMedicalRecords.sol\":8208:8226  pengantarPasien.hp */\n      0x60\n      add\n        /* \"ElectronicMedicalRecords.sol\":8208:8242  pengantarPasien.hp = _pengantar.hp */\n      dup2\n      dup2\n      mstore\n      pop\n      pop\n        /* \"ElectronicMedicalRecords.sol\":8280:8290  _pengantar */\n      dup3\n        /* \"ElectronicMedicalRecords.sol\":8280:8299  _pengantar.hubungan */\n      0x80\n      add\n      mload\n        /* \"ElectronicMedicalRecords.sol\":8253:8268  pengantarPasien */\n      dup2\n        /* \"ElectronicMedicalRecords.sol\":8253:8277  pengantarPasien.hubungan */\n      0x80\n      add\n        /* \"ElectronicMedicalRecords.sol\":8253:8299  pengantarPasien.hubungan = _pengantar.hubungan */\n      dup2\n      swap1\n      mstore\n      pop\n        /* \"ElectronicMedicalRecords.sol\":8362:8377  pengantarPasien */\n      dup1\n        /* \"ElectronicMedicalRecords.sol\":8312:8328  pengantar_pasien */\n      0x01\n        /* \"ElectronicMedicalRecords.sol\":8312:8359  pengantar_pasien[_gawatDarurat.patient_address] */\n      0x00\n        /* \"ElectronicMedicalRecords.sol\":8329:8342  _gawatDarurat */\n      dup5\n        /* \"ElectronicMedicalRecords.sol\":8329:8358  _gawatDarurat.patient_address */\n      0x00\n      add\n      mload\n        /* \"ElectronicMedicalRecords.sol\":8312:8359  pengantar_pasien[_gawatDarurat.patient_address] */\n      0xffffffffffffffffffffffffffffffffffffffff\n      and\n      0xffffffffffffffffffffffffffffffffffffffff\n      and\n      dup2\n      mstore\n      0x20\n      add\n      swap1\n      dup2\n      mstore\n      0x20\n      add\n      0x00\n      keccak256\n        /* \"ElectronicMedicalRecords.sol\":8312:8377  pengantar_pasien[_gawatDarurat.patient_address] = pengantarPasien */\n      0x00\n      dup3\n      add\n      mload\n      dup2\n      0x00\n      add\n      exp(0x0100, 0x00)\n      dup2\n      sload\n      dup2\n      0xffffffffffffffffffffffffffffffffffffffff\n      mul\n      not\n      and\n      swap1\n      dup4\n      0xffffffffffffffffffffffffffffffffffffffff\n      and\n      mul\n      or\n      swap1\n      sstore\n      pop\n      0x20\n      dup3\n      add\n      mload\n      dup2\n      0x01\n      add\n      swap1\n      dup2\n      tag_197\n      swap2\n      swap1\n      tag_63\n      jump\t// in\n    tag_197:\n      pop\n      0x40\n      dup3\n      add\n      mload\n      dup2\n      0x02\n      add\n      swap1\n      dup2\n      tag_198\n      swap2\n      swap1\n      tag_63\n      jump\t// in\n    tag_198:\n      pop\n      0x60\n      dup3\n      add\n      mload\n      dup2\n      0x03\n      add\n      sstore\n      0x80\n      dup3\n      add\n      mload\n      dup2\n      0x04\n      add\n      swap1\n      dup2\n      tag_199\n      swap2\n      swap1\n      tag_63\n      jump\t// in\n    tag_199:\n      pop\n      swap1\n      pop\n      pop\n        /* \"ElectronicMedicalRecords.sol\":8390:8422  GawatDarurat memory gawatDarurat */\n      tag_200\n      tag_201\n      jump\t// in\n    tag_200:\n        /* \"ElectronicMedicalRecords.sol\":8464:8477  _gawatDarurat */\n      dup3\n        /* \"ElectronicMedicalRecords.sol\":8464:8493  _gawatDarurat.patient_address */\n      0x00\n      add\n      mload\n        /* \"ElectronicMedicalRecords.sol\":8433:8445  gawatDarurat */\n      dup2\n        /* \"ElectronicMedicalRecords.sol\":8433:8461  gawatDarurat.patient_address */\n      0x00\n      add\n        /* \"ElectronicMedicalRecords.sol\":8433:8493  gawatDarurat.patient_address = _gawatDarurat.patient_address */\n      swap1\n      0xffffffffffffffffffffffffffffffffffffffff\n      and\n      swap1\n      dup2\n      0xffffffffffffffffffffffffffffffffffffffff\n      and\n      dup2\n      mstore\n      pop\n      pop\n        /* \"ElectronicMedicalRecords.sol\":8532:8545  _gawatDarurat */\n      dup3\n        /* \"ElectronicMedicalRecords.sol\":8532:8558  _gawatDarurat.nama_lengkap */\n      0x40\n      add\n      mload\n        /* \"ElectronicMedicalRecords.sol\":8504:8516  gawatDarurat */\n      dup2\n        /* \"ElectronicMedicalRecords.sol\":8504:8529  gawatDarurat.nama_lengkap */\n      0x40\n      add\n        /* \"ElectronicMedicalRecords.sol\":8504:8558  gawatDarurat.nama_lengkap = _gawatDarurat.nama_lengkap */\n      dup2\n      swap1\n      mstore\n      pop\n        /* \"ElectronicMedicalRecords.sol\":8591:8604  _gawatDarurat */\n      dup3\n        /* \"ElectronicMedicalRecords.sol\":8591:8611  _gawatDarurat.gender */\n      0x60\n      add\n      mload\n        /* \"ElectronicMedicalRecords.sol\":8569:8581  gawatDarurat */\n      dup2\n        /* \"ElectronicMedicalRecords.sol\":8569:8588  gawatDarurat.gender */\n      0x60\n      add\n        /* \"ElectronicMedicalRecords.sol\":8569:8611  gawatDarurat.gender = _gawatDarurat.gender */\n      dup2\n      swap1\n      mstore\n      pop\n        /* \"ElectronicMedicalRecords.sol\":8643:8656  _gawatDarurat */\n      dup3\n        /* \"ElectronicMedicalRecords.sol\":8643:8662  _gawatDarurat.jenis */\n      0x20\n      add\n      mload\n        /* \"ElectronicMedicalRecords.sol\":8622:8634  gawatDarurat */\n      dup2\n        /* \"ElectronicMedicalRecords.sol\":8622:8640  gawatDarurat.jenis */\n      0x20\n      add\n        /* \"ElectronicMedicalRecords.sol\":8622:8662  gawatDarurat.jenis = _gawatDarurat.jenis */\n      dup2\n      swap1\n      mstore\n      pop\n        /* \"ElectronicMedicalRecords.sol\":8696:8709  _gawatDarurat */\n      dup3\n        /* \"ElectronicMedicalRecords.sol\":8696:8717  _gawatDarurat.kondisi */\n      0x80\n      add\n      mload\n        /* \"ElectronicMedicalRecords.sol\":8673:8685  gawatDarurat */\n      dup2\n        /* \"ElectronicMedicalRecords.sol\":8673:8693  gawatDarurat.kondisi */\n      0x80\n      add\n        /* \"ElectronicMedicalRecords.sol\":8673:8717  gawatDarurat.kondisi = _gawatDarurat.kondisi */\n      dup2\n      swap1\n      mstore\n      pop\n        /* \"ElectronicMedicalRecords.sol\":8757:8770  _gawatDarurat */\n      dup3\n        /* \"ElectronicMedicalRecords.sol\":8757:8784  _gawatDarurat.date_and_time */\n      0xa0\n      add\n      mload\n        /* \"ElectronicMedicalRecords.sol\":8728:8740  gawatDarurat */\n      dup2\n        /* \"ElectronicMedicalRecords.sol\":8728:8754  gawatDarurat.date_and_time */\n      0xa0\n      add\n        /* \"ElectronicMedicalRecords.sol\":8728:8784  gawatDarurat.date_and_time = _gawatDarurat.date_and_time */\n      dup2\n      swap1\n      mstore\n      pop\n        /* \"ElectronicMedicalRecords.sol\":8820:8833  _gawatDarurat */\n      dup3\n        /* \"ElectronicMedicalRecords.sol\":8820:8843  _gawatDarurat.anamnesis */\n      0xc0\n      add\n      mload\n        /* \"ElectronicMedicalRecords.sol\":8795:8807  gawatDarurat */\n      dup2\n        /* \"ElectronicMedicalRecords.sol\":8795:8817  gawatDarurat.anamnesis */\n      0xc0\n      add\n        /* \"ElectronicMedicalRecords.sol\":8795:8843  gawatDarurat.anamnesis = _gawatDarurat.anamnesis */\n      dup2\n      swap1\n      mstore\n      pop\n        /* \"ElectronicMedicalRecords.sol\":8875:8888  _gawatDarurat */\n      dup3\n        /* \"ElectronicMedicalRecords.sol\":8875:8894  _gawatDarurat.fisik */\n      0xe0\n      add\n      mload\n        /* \"ElectronicMedicalRecords.sol\":8854:8866  gawatDarurat */\n      dup2\n        /* \"ElectronicMedicalRecords.sol\":8854:8872  gawatDarurat.fisik */\n      0xe0\n      add\n        /* \"ElectronicMedicalRecords.sol\":8854:8894  gawatDarurat.fisik = _gawatDarurat.fisik */\n      dup2\n      swap1\n      mstore\n      pop\n        /* \"ElectronicMedicalRecords.sol\":8930:8943  _gawatDarurat */\n      dup3\n        /* \"ElectronicMedicalRecords.sol\":8930:8953  _gawatDarurat.diagnosis */\n      0x0100\n      add\n      mload\n        /* \"ElectronicMedicalRecords.sol\":8905:8917  gawatDarurat */\n      dup2\n        /* \"ElectronicMedicalRecords.sol\":8905:8927  gawatDarurat.diagnosis */\n      0x0100\n      add\n        /* \"ElectronicMedicalRecords.sol\":8905:8953  gawatDarurat.diagnosis = _gawatDarurat.diagnosis */\n      dup2\n      swap1\n      mstore\n      pop\n        /* \"ElectronicMedicalRecords.sol\":8990:9003  _gawatDarurat */\n      dup3\n        /* \"ElectronicMedicalRecords.sol\":8990:9014  _gawatDarurat.pengobatan */\n      0x0120\n      add\n      mload\n        /* \"ElectronicMedicalRecords.sol\":8964:8976  gawatDarurat */\n      dup2\n        /* \"ElectronicMedicalRecords.sol\":8964:8987  gawatDarurat.pengobatan */\n      0x0120\n      add\n        /* \"ElectronicMedicalRecords.sol\":8964:9014  gawatDarurat.pengobatan = _gawatDarurat.pengobatan */\n      dup2\n      swap1\n      mstore\n      pop\n        /* \"ElectronicMedicalRecords.sol\":9049:9062  _gawatDarurat */\n      dup3\n        /* \"ElectronicMedicalRecords.sol\":9049:9071  _gawatDarurat.tindakan */\n      0x0140\n      add\n      mload\n        /* \"ElectronicMedicalRecords.sol\":9025:9037  gawatDarurat */\n      dup2\n        /* \"ElectronicMedicalRecords.sol\":9025:9046  gawatDarurat.tindakan */\n      0x0140\n      add\n        /* \"ElectronicMedicalRecords.sol\":9025:9071  gawatDarurat.tindakan = _gawatDarurat.tindakan */\n      dup2\n      swap1\n      mstore\n      pop\n        /* \"ElectronicMedicalRecords.sol\":9100:9113  _gawatDarurat */\n      dup3\n        /* \"ElectronicMedicalRecords.sol\":9100:9116  _gawatDarurat.lc */\n      0x0160\n      add\n      mload\n        /* \"ElectronicMedicalRecords.sol\":9082:9094  gawatDarurat */\n      dup2\n        /* \"ElectronicMedicalRecords.sol\":9082:9097  gawatDarurat.lc */\n      0x0160\n      add\n        /* \"ElectronicMedicalRecords.sol\":9082:9116  gawatDarurat.lc = _gawatDarurat.lc */\n      dup2\n      swap1\n      mstore\n      pop\n        /* \"ElectronicMedicalRecords.sol\":9152:9165  _gawatDarurat */\n      dup3\n        /* \"ElectronicMedicalRecords.sol\":9152:9175  _gawatDarurat.transport */\n      0x0180\n      add\n      mload\n        /* \"ElectronicMedicalRecords.sol\":9127:9139  gawatDarurat */\n      dup2\n        /* \"ElectronicMedicalRecords.sol\":9127:9149  gawatDarurat.transport */\n      0x0180\n      add\n        /* \"ElectronicMedicalRecords.sol\":9127:9175  gawatDarurat.transport = _gawatDarurat.transport */\n      dup2\n      swap1\n      mstore\n      pop\n        /* \"ElectronicMedicalRecords.sol\":9188:9204  emergencyPatient */\n      0x04\n        /* \"ElectronicMedicalRecords.sol\":9188:9235  emergencyPatient[_gawatDarurat.patient_address] */\n      0x00\n        /* \"ElectronicMedicalRecords.sol\":9205:9218  _gawatDarurat */\n      dup5\n        /* \"ElectronicMedicalRecords.sol\":9205:9234  _gawatDarurat.patient_address */\n      0x00\n      add\n      mload\n        /* \"ElectronicMedicalRecords.sol\":9188:9235  emergencyPatient[_gawatDarurat.patient_address] */\n      0xffffffffffffffffffffffffffffffffffffffff\n      and\n      0xffffffffffffffffffffffffffffffffffffffff\n      and\n      dup2\n      mstore\n      0x20\n      add\n      swap1\n      dup2\n      mstore\n      0x20\n      add\n      0x00\n      keccak256\n        /* \"ElectronicMedicalRecords.sol\":9241:9253  gawatDarurat */\n      dup2\n        /* \"ElectronicMedicalRecords.sol\":9188:9254  emergencyPatient[_gawatDarurat.patient_address].push(gawatDarurat) */\n      swap1\n      dup1\n      0x01\n      dup2\n      sload\n      add\n      dup1\n      dup3\n      sstore\n      dup1\n      swap2\n      pop\n      pop\n      0x01\n      swap1\n      sub\n      swap1\n      0x00\n      mstore\n      keccak256(0x00, 0x20)\n      swap1\n      0x0d\n      mul\n      add\n      0x00\n      swap1\n      swap2\n      swap1\n      swap2\n      swap1\n      swap2\n      pop\n      0x00\n      dup3\n      add\n      mload\n      dup2\n      0x00\n      add\n      exp(0x0100, 0x00)\n      dup2\n      sload\n      dup2\n      0xffffffffffffffffffffffffffffffffffffffff\n      mul\n      not\n      and\n      swap1\n      dup4\n      0xffffffffffffffffffffffffffffffffffffffff\n      and\n      mul\n      or\n      swap1\n      sstore\n      pop\n      0x20\n      dup3\n      add\n      mload\n      dup2\n      0x01\n      add\n      swap1\n      dup2\n      tag_203\n      swap2\n      swap1\n      tag_63\n      jump\t// in\n    tag_203:\n      pop\n      0x40\n      dup3\n      add\n      mload\n      dup2\n      0x02\n      add\n      swap1\n      dup2\n      tag_204\n      swap2\n      swap1\n      tag_63\n      jump\t// in\n    tag_204:\n      pop\n      0x60\n      dup3\n      add\n      mload\n      dup2\n      0x03\n      add\n      swap1\n      dup2\n      tag_205\n      swap2\n      swap1\n      tag_63\n      jump\t// in\n    tag_205:\n      pop\n      0x80\n      dup3\n      add\n      mload\n      dup2\n      0x04\n      add\n      swap1\n      dup2\n      tag_206\n      swap2\n      swap1\n      tag_63\n      jump\t// in\n    tag_206:\n      pop\n      0xa0\n      dup3\n      add\n      mload\n      dup2\n      0x05\n      add\n      swap1\n      dup2\n      tag_207\n      swap2\n      swap1\n      tag_63\n      jump\t// in\n    tag_207:\n      pop\n      0xc0\n      dup3\n      add\n      mload\n      dup2\n      0x06\n      add\n      swap1\n      dup2\n      tag_208\n      swap2\n      swap1\n      tag_63\n      jump\t// in\n    tag_208:\n      pop\n      0xe0\n      dup3\n      add\n      mload\n      dup2\n      0x07\n      add\n      swap1\n      dup2\n      tag_209\n      swap2\n      swap1\n      tag_63\n      jump\t// in\n    tag_209:\n      pop\n      0x0100\n      dup3\n      add\n      mload\n      dup2\n      0x08\n      add\n      swap1\n      dup2\n      tag_210\n      swap2\n      swap1\n      tag_63\n      jump\t// in\n    tag_210:\n      pop\n      0x0120\n      dup3\n      add\n      mload\n      dup2\n      0x09\n      add\n      swap1\n      dup2\n      tag_211\n      swap2\n      swap1\n      tag_63\n      jump\t// in\n    tag_211:\n      pop\n      0x0140\n      dup3\n      add\n      mload\n      dup2\n      0x0a\n      add\n      swap1\n      dup2\n      tag_212\n      swap2\n      swap1\n      tag_63\n      jump\t// in\n    tag_212:\n      pop\n      0x0160\n      dup3\n      add\n      mload\n      dup2\n      0x0b\n      add\n      swap1\n      dup2\n      tag_213\n      swap2\n      swap1\n      tag_63\n      jump\t// in\n    tag_213:\n      pop\n      0x0180\n      dup3\n      add\n      mload\n      dup2\n      0x0c\n      add\n      swap1\n      dup2\n      tag_214\n      swap2\n      swap1\n      tag_63\n      jump\t// in\n    tag_214:\n      pop\n      pop\n      pop\n        /* \"ElectronicMedicalRecords.sol\":9267:9286  patient_verificator */\n      0x07\n      0x00\n      swap1\n      sload\n      swap1\n      0x0100\n      exp\n      swap1\n      div\n      0xffffffffffffffffffffffffffffffffffffffff\n      and\n        /* \"ElectronicMedicalRecords.sol\":9267:9297  patient_verificator.addPatient */\n      0xffffffffffffffffffffffffffffffffffffffff\n      and\n      0x6d263ceb\n        /* \"ElectronicMedicalRecords.sol\":9298:9311  _gawatDarurat */\n      dup5\n        /* \"ElectronicMedicalRecords.sol\":9298:9327  _gawatDarurat.patient_address */\n      0x00\n      add\n      mload\n        /* \"ElectronicMedicalRecords.sol\":9267:9328  patient_verificator.addPatient(_gawatDarurat.patient_address) */\n      mload(0x40)\n      dup3\n      0xffffffff\n      and\n      0xe0\n      shl\n      dup2\n      mstore\n      0x04\n      add\n      tag_215\n      swap2\n      swap1\n      tag_53\n      jump\t// in\n    tag_215:\n      0x00\n      mload(0x40)\n      dup1\n      dup4\n      sub\n      dup2\n      0x00\n      dup8\n      dup1\n      extcodesize\n      iszero\n      dup1\n      iszero\n      tag_216\n      jumpi\n      0x00\n      dup1\n      revert\n    tag_216:\n      pop\n      gas\n      call\n      iszero\n      dup1\n      iszero\n      tag_218\n      jumpi\n      returndatasize\n      0x00\n      dup1\n      returndatacopy\n      revert(0x00, returndatasize)\n    tag_218:\n      pop\n      pop\n      pop\n      pop\n        /* \"ElectronicMedicalRecords.sol\":9339:9354  doctor_relation */\n      0x08\n      0x00\n      swap1\n      sload\n      swap1\n      0x0100\n      exp\n      swap1\n      div\n      0xffffffffffffffffffffffffffffffffffffffff\n      and\n        /* \"ElectronicMedicalRecords.sol\":9339:9372  doctor_relation.addDoctorRelation */\n      0xffffffffffffffffffffffffffffffffffffffff\n      and\n      0x43a0e44a\n        /* \"ElectronicMedicalRecords.sol\":9373:9383  msg.sender */\n      caller\n        /* \"ElectronicMedicalRecords.sol\":9385:9398  _gawatDarurat */\n      dup6\n        /* \"ElectronicMedicalRecords.sol\":9385:9411  _gawatDarurat.nama_lengkap */\n      0x40\n      add\n      mload\n        /* \"ElectronicMedicalRecords.sol\":9413:9426  _gawatDarurat */\n      dup7\n        /* \"ElectronicMedicalRecords.sol\":9413:9432  _gawatDarurat.jenis */\n      0x20\n      add\n      mload\n        /* \"ElectronicMedicalRecords.sol\":9434:9447  _gawatDarurat */\n      dup8\n        /* \"ElectronicMedicalRecords.sol\":9434:9463  _gawatDarurat.patient_address */\n      0x00\n      add\n      mload\n        /* \"ElectronicMedicalRecords.sol\":9339:9464  doctor_relation.addDoctorRelation(msg.sender, _gawatDarurat.nama_lengkap, _gawatDarurat.jenis, _gawatDarurat.patient_address) */\n      mload(0x40)\n      dup6\n      0xffffffff\n      and\n      0xe0\n      shl\n      dup2\n      mstore\n      0x04\n      add\n      tag_219\n      swap5\n      swap4\n      swap3\n      swap2\n      swap1\n      tag_82\n      jump\t// in\n    tag_219:\n      0x00\n      mload(0x40)\n      dup1\n      dup4\n      sub\n      dup2\n      0x00\n      dup8\n      dup1\n      extcodesize\n      iszero\n      dup1\n      iszero\n      tag_220\n      jumpi\n      0x00\n      dup1\n      revert\n    tag_220:\n      pop\n      gas\n      call\n      iszero\n      dup1\n      iszero\n      tag_222\n      jumpi\n      returndatasize\n      0x00\n      dup1\n      returndatacopy\n      revert(0x00, returndatasize)\n    tag_222:\n      pop\n      pop\n      pop\n      pop\n        /* \"ElectronicMedicalRecords.sol\":7947:9472  {... */\n      pop\n      pop\n        /* \"ElectronicMedicalRecords.sol\":7830:9472  function addEmergencyPatient(PengantarPasien memory _pengantar, GawatDarurat memory _gawatDarurat) onlyDoctor public {... */\n      pop\n      pop\n      jump\t// out\n        /* \"ElectronicMedicalRecords.sol\":9843:10039  function getEmergencyPatient(address add) onlyDoctor public view returns(PengantarPasien memory a, GawatDarurat[] memory b) {... */\n    tag_42:\n        /* \"ElectronicMedicalRecords.sol\":9916:9940  PengantarPasien memory a */\n      tag_223\n      tag_196\n      jump\t// in\n    tag_223:\n        /* \"ElectronicMedicalRecords.sol\":9942:9965  GawatDarurat[] memory b */\n      0x60\n        /* \"ElectronicMedicalRecords.sol\":10088:10106  doctor_verificator */\n      0x06\n      0x00\n      swap1\n      sload\n      swap1\n      0x0100\n      exp\n      swap1\n      div\n      0xffffffffffffffffffffffffffffffffffffffff\n      and\n        /* \"ElectronicMedicalRecords.sol\":10088:10113  doctor_verificator.verify */\n      0xffffffffffffffffffffffffffffffffffffffff\n      and\n      0x63a9c3d7\n        /* \"ElectronicMedicalRecords.sol\":10114:10124  msg.sender */\n      caller\n        /* \"ElectronicMedicalRecords.sol\":10088:10125  doctor_verificator.verify(msg.sender) */\n      mload(0x40)\n      dup3\n      0xffffffff\n      and\n      0xe0\n      shl\n      dup2\n      mstore\n      0x04\n      add\n      tag_225\n      swap2\n      swap1\n      tag_53\n      jump\t// in\n    tag_225:\n      0x20\n      mload(0x40)\n      dup1\n      dup4\n      sub\n      dup2\n      dup7\n      gas\n      staticcall\n      iszero\n      dup1\n      iszero\n      tag_227\n      jumpi\n      returndatasize\n      0x00\n      dup1\n      returndatacopy\n      revert(0x00, returndatasize)\n    tag_227:\n      pop\n      pop\n      pop\n      pop\n      mload(0x40)\n      returndatasize\n      not(0x1f)\n      0x1f\n      dup3\n      add\n      and\n      dup3\n      add\n      dup1\n      0x40\n      mstore\n      pop\n      dup2\n      add\n      swap1\n      tag_228\n      swap2\n      swap1\n      tag_57\n      jump\t// in\n    tag_228:\n        /* \"ElectronicMedicalRecords.sol\":10080:10126  require(doctor_verificator.verify(msg.sender)) */\n      tag_229\n      jumpi\n      0x00\n      dup1\n      revert\n    tag_229:\n        /* \"ElectronicMedicalRecords.sol\":9986:10002  pengantar_pasien */\n      0x01\n        /* \"ElectronicMedicalRecords.sol\":9986:10007  pengantar_pasien[add] */\n      0x00\n        /* \"ElectronicMedicalRecords.sol\":10003:10006  add */\n      dup5\n        /* \"ElectronicMedicalRecords.sol\":9986:10007  pengantar_pasien[add] */\n      0xffffffffffffffffffffffffffffffffffffffff\n      and\n      0xffffffffffffffffffffffffffffffffffffffff\n      and\n      dup2\n      mstore\n      0x20\n      add\n      swap1\n      dup2\n      mstore\n      0x20\n      add\n      0x00\n      keccak256\n        /* \"ElectronicMedicalRecords.sol\":10009:10025  emergencyPatient */\n      0x04\n        /* \"ElectronicMedicalRecords.sol\":10009:10030  emergencyPatient[add] */\n      0x00\n        /* \"ElectronicMedicalRecords.sol\":10026:10029  add */\n      dup6\n        /* \"ElectronicMedicalRecords.sol\":10009:10030  emergencyPatient[add] */\n      0xffffffffffffffffffffffffffffffffffffffff\n      and\n      0xffffffffffffffffffffffffffffffffffffffff\n      and\n      dup2\n      mstore\n      0x20\n      add\n      swap1\n      dup2\n      mstore\n      0x20\n      add\n      0x00\n      keccak256\n        /* \"ElectronicMedicalRecords.sol\":9978:10031  return (pengantar_pasien[add], emergencyPatient[add]) */\n      dup2\n      mload(0x40)\n      dup1\n      0xa0\n      add\n      0x40\n      mstore\n      swap1\n      dup2\n      0x00\n      dup3\n      add\n      0x00\n      swap1\n      sload\n      swap1\n      0x0100\n      exp\n      swap1\n      div\n      0xffffffffffffffffffffffffffffffffffffffff\n      and\n      0xffffffffffffffffffffffffffffffffffffffff\n      and\n      0xffffffffffffffffffffffffffffffffffffffff\n      and\n      dup2\n      mstore\n      0x20\n      add\n      0x01\n      dup3\n      add\n      dup1\n      sload\n      tag_231\n      swap1\n      tag_130\n      jump\t// in\n    tag_231:\n      dup1\n      0x1f\n      add\n      0x20\n      dup1\n      swap2\n      div\n      mul\n      0x20\n      add\n      mload(0x40)\n      swap1\n      dup2\n      add\n      0x40\n      mstore\n      dup1\n      swap3\n      swap2\n      swap1\n      dup2\n      dup2\n      mstore\n      0x20\n      add\n      dup3\n      dup1\n      sload\n      tag_232\n      swap1\n      tag_130\n      jump\t// in\n    tag_232:\n      dup1\n      iszero\n      tag_233\n      jumpi\n      dup1\n      0x1f\n      lt\n      tag_234\n      jumpi\n      0x0100\n      dup1\n      dup4\n      sload\n      div\n      mul\n      dup4\n      mstore\n      swap2\n      0x20\n      add\n      swap2\n      jump(tag_233)\n    tag_234:\n      dup3\n      add\n      swap2\n      swap1\n      0x00\n      mstore\n      keccak256(0x00, 0x20)\n      swap1\n    tag_235:\n      dup2\n      sload\n      dup2\n      mstore\n      swap1\n      0x01\n      add\n      swap1\n      0x20\n      add\n      dup1\n      dup4\n      gt\n      tag_235\n      jumpi\n      dup3\n      swap1\n      sub\n      0x1f\n      and\n      dup3\n      add\n      swap2\n    tag_233:\n      pop\n      pop\n      pop\n      pop\n      pop\n      dup2\n      mstore\n      0x20\n      add\n      0x02\n      dup3\n      add\n      dup1\n      sload\n      tag_236\n      swap1\n      tag_130\n      jump\t// in\n    tag_236:\n      dup1\n      0x1f\n      add\n      0x20\n      dup1\n      swap2\n      div\n      mul\n      0x20\n      add\n      mload(0x40)\n      swap1\n      dup2\n      add\n      0x40\n      mstore\n      dup1\n      swap3\n      swap2\n      swap1\n      dup2\n      dup2\n      mstore\n      0x20\n      add\n      dup3\n      dup1\n      sload\n      tag_237\n      swap1\n      tag_130\n      jump\t// in\n    tag_237:\n      dup1\n      iszero\n      tag_238\n      jumpi\n      dup1\n      0x1f\n      lt\n      tag_239\n      jumpi\n      0x0100\n      dup1\n      dup4\n      sload\n      div\n      mul\n      dup4\n      mstore\n      swap2\n      0x20\n      add\n      swap2\n      jump(tag_238)\n    tag_239:\n      dup3\n      add\n      swap2\n      swap1\n      0x00\n      mstore\n      keccak256(0x00, 0x20)\n      swap1\n    tag_240:\n      dup2\n      sload\n      dup2\n      mstore\n      swap1\n      0x01\n      add\n      swap1\n      0x20\n      add\n      dup1\n      dup4\n      gt\n      tag_240\n      jumpi\n      dup3\n      swap1\n      sub\n      0x1f\n      and\n      dup3\n      add\n      swap2\n    tag_238:\n      pop\n      pop\n      pop\n      pop\n      pop\n      dup2\n      mstore\n      0x20\n      add\n      0x03\n      dup3\n      add\n      sload\n      dup2\n      mstore\n      0x20\n      add\n      0x04\n      dup3\n      add\n      dup1\n      sload\n      tag_241\n      swap1\n      tag_130\n      jump\t// in\n    tag_241:\n      dup1\n      0x1f\n      add\n      0x20\n      dup1\n      swap2\n      div\n      mul\n      0x20\n      add\n      mload(0x40)\n      swap1\n      dup2\n      add\n      0x40\n      mstore\n      dup1\n      swap3\n      swap2\n      swap1\n      dup2\n      dup2\n      mstore\n      0x20\n      add\n      dup3\n      dup1\n      sload\n      tag_242\n      swap1\n      tag_130\n      jump\t// in\n    tag_242:\n      dup1\n      iszero\n      tag_243\n      jumpi\n      dup1\n      0x1f\n      lt\n      tag_244\n      jumpi\n      0x0100\n      dup1\n      dup4\n      sload\n      div\n      mul\n      dup4\n      mstore\n      swap2\n      0x20\n      add\n      swap2\n      jump(tag_243)\n    tag_244:\n      dup3\n      add\n      swap2\n      swap1\n      0x00\n      mstore\n      keccak256(0x00, 0x20)\n      swap1\n    tag_245:\n      dup2\n      sload\n      dup2\n      mstore\n      swap1\n      0x01\n      add\n      swap1\n      0x20\n      add\n      dup1\n      dup4\n      gt\n      tag_245\n      jumpi\n      dup3\n      swap1\n      sub\n      0x1f\n      and\n      dup3\n      add\n      swap2\n    tag_243:\n      pop\n      pop\n      pop\n      pop\n      pop\n      dup2\n      mstore\n      pop\n      pop\n      swap2\n      pop\n      dup1\n      dup1\n      sload\n      dup1\n      0x20\n      mul\n      0x20\n      add\n      mload(0x40)\n      swap1\n      dup2\n      add\n      0x40\n      mstore\n      dup1\n      swap3\n      swap2\n      swap1\n      dup2\n      dup2\n      mstore\n      0x20\n      add\n      0x00\n      swap1\n    tag_246:\n      dup3\n      dup3\n      lt\n      iszero\n      tag_247\n      jumpi\n      dup4\n      dup3\n      swap1\n      0x00\n      mstore\n      keccak256(0x00, 0x20)\n      swap1\n      0x0d\n      mul\n      add\n      mload(0x40)\n      dup1\n      0x01a0\n      add\n      0x40\n      mstore\n      swap1\n      dup2\n      0x00\n      dup3\n      add\n      0x00\n      swap1\n      sload\n      swap1\n      0x0100\n      exp\n      swap1\n      div\n      0xffffffffffffffffffffffffffffffffffffffff\n      and\n      0xffffffffffffffffffffffffffffffffffffffff\n      and\n      0xffffffffffffffffffffffffffffffffffffffff\n      and\n      dup2\n      mstore\n      0x20\n      add\n      0x01\n      dup3\n      add\n      dup1\n      sload\n      tag_249\n      swap1\n      tag_130\n      jump\t// in\n    tag_249:\n      dup1\n      0x1f\n      add\n      0x20\n      dup1\n      swap2\n      div\n      mul\n      0x20\n      add\n      mload(0x40)\n      swap1\n      dup2\n      add\n      0x40\n      mstore\n      dup1\n      swap3\n      swap2\n      swap1\n      dup2\n      dup2\n      mstore\n      0x20\n      add\n      dup3\n      dup1\n      sload\n      tag_250\n      swap1\n      tag_130\n      jump\t// in\n    tag_250:\n      dup1\n      iszero\n      tag_251\n      jumpi\n      dup1\n      0x1f\n      lt\n      tag_252\n      jumpi\n      0x0100\n      dup1\n      dup4\n      sload\n      div\n      mul\n      dup4\n      mstore\n      swap2\n      0x20\n      add\n      swap2\n      jump(tag_251)\n    tag_252:\n      dup3\n      add\n      swap2\n      swap1\n      0x00\n      mstore\n      keccak256(0x00, 0x20)\n      swap1\n    tag_253:\n      dup2\n      sload\n      dup2\n      mstore\n      swap1\n      0x01\n      add\n      swap1\n      0x20\n      add\n      dup1\n      dup4\n      gt\n      tag_253\n      jumpi\n      dup3\n      swap1\n      sub\n      0x1f\n      and\n      dup3\n      add\n      swap2\n    tag_251:\n      pop\n      pop\n      pop\n      pop\n      pop\n      dup2\n      mstore\n      0x20\n      add\n      0x02\n      dup3\n      add\n      dup1\n      sload\n      tag_254\n      swap1\n      tag_130\n      jump\t// in\n    tag_254:\n      dup1\n      0x1f\n      add\n      0x20\n      dup1\n      swap2\n      div\n      mul\n      0x20\n      add\n      mload(0x40)\n      swap1\n      dup2\n      add\n      0x40\n      mstore\n      dup1\n      swap3\n      swap2\n      swap1\n      dup2\n      dup2\n      mstore\n      0x20\n      add\n      dup3\n      dup1\n      sload\n      tag_255\n      swap1\n      tag_130\n      jump\t// in\n    tag_255:\n      dup1\n      iszero\n      tag_256\n      jumpi\n      dup1\n      0x1f\n      lt\n      tag_257\n      jumpi\n      0x0100\n      dup1\n      dup4\n      sload\n      div\n      mul\n      dup4\n      mstore\n      swap2\n      0x20\n      add\n      swap2\n      jump(tag_256)\n    tag_257:\n      dup3\n      add\n      swap2\n      swap1\n      0x00\n      mstore\n      keccak256(0x00, 0x20)\n      swap1\n    tag_258:\n      dup2\n      sload\n      dup2\n      mstore\n      swap1\n      0x01\n      add\n      swap1\n      0x20\n      add\n      dup1\n      dup4\n      gt\n      tag_258\n      jumpi\n      dup3\n      swap1\n      sub\n      0x1f\n      and\n      dup3\n      add\n      swap2\n    tag_256:\n      pop\n      pop\n      pop\n      pop\n      pop\n      dup2\n      mstore\n      0x20\n      add\n      0x03\n      dup3\n      add\n      dup1\n      sload\n      tag_259\n      swap1\n      tag_130\n      jump\t// in\n    tag_259:\n      dup1\n      0x1f\n      add\n      0x20\n      dup1\n      swap2\n      div\n      mul\n      0x20\n      add\n      mload(0x40)\n      swap1\n      dup2\n      add\n      0x40\n      mstore\n      dup1\n      swap3\n      swap2\n      swap1\n      dup2\n      dup2\n      mstore\n      0x20\n      add\n      dup3\n      dup1\n      sload\n      tag_260\n      swap1\n      tag_130\n      jump\t// in\n    tag_260:\n      dup1\n      iszero\n      tag_261\n      jumpi\n      dup1\n      0x1f\n      lt\n      tag_262\n      jumpi\n      0x0100\n      dup1\n      dup4\n      sload\n      div\n      mul\n      dup4\n      mstore\n      swap2\n      0x20\n      add\n      swap2\n      jump(tag_261)\n    tag_262:\n      dup3\n      add\n      swap2\n      swap1\n      0x00\n      mstore\n      keccak256(0x00, 0x20)\n      swap1\n    tag_263:\n      dup2\n      sload\n      dup2\n      mstore\n      swap1\n      0x01\n      add\n      swap1\n      0x20\n      add\n      dup1\n      dup4\n      gt\n      tag_263\n      jumpi\n      dup3\n      swap1\n      sub\n      0x1f\n      and\n      dup3\n      add\n      swap2\n    tag_261:\n      pop\n      pop\n      pop\n      pop\n      pop\n      dup2\n      mstore\n      0x20\n      add\n      0x04\n      dup3\n      add\n      dup1\n      sload\n      tag_264\n      swap1\n      tag_130\n      jump\t// in\n    tag_264:\n      dup1\n      0x1f\n      add\n      0x20\n      dup1\n      swap2\n      div\n      mul\n      0x20\n      add\n      mload(0x40)\n      swap1\n      dup2\n      add\n      0x40\n      mstore\n      dup1\n      swap3\n      swap2\n      swap1\n      dup2\n      dup2\n      mstore\n      0x20\n      add\n      dup3\n      dup1\n      sload\n      tag_265\n      swap1\n      tag_130\n      jump\t// in\n    tag_265:\n      dup1\n      iszero\n      tag_266\n      jumpi\n      dup1\n      0x1f\n      lt\n      tag_267\n      jumpi\n      0x0100\n      dup1\n      dup4\n      sload\n      div\n      mul\n      dup4\n      mstore\n      swap2\n      0x20\n      add\n      swap2\n      jump(tag_266)\n    tag_267:\n      dup3\n      add\n      swap2\n      swap1\n      0x00\n      mstore\n      keccak256(0x00, 0x20)\n      swap1\n    tag_268:\n      dup2\n      sload\n      dup2\n      mstore\n      swap1\n      0x01\n      add\n      swap1\n      0x20\n      add\n      dup1\n      dup4\n      gt\n      tag_268\n      jumpi\n      dup3\n      swap1\n      sub\n      0x1f\n      and\n      dup3\n      add\n      swap2\n    tag_266:\n      pop\n      pop\n      pop\n      pop\n      pop\n      dup2\n      mstore\n      0x20\n      add\n      0x05\n      dup3\n      add\n      dup1\n      sload\n      tag_269\n      swap1\n      tag_130\n      jump\t// in\n    tag_269:\n      dup1\n      0x1f\n      add\n      0x20\n      dup1\n      swap2\n      div\n      mul\n      0x20\n      add\n      mload(0x40)\n      swap1\n      dup2\n      add\n      0x40\n      mstore\n      dup1\n      swap3\n      swap2\n      swap1\n      dup2\n      dup2\n      mstore\n      0x20\n      add\n      dup3\n      dup1\n      sload\n      tag_270\n      swap1\n      tag_130\n      jump\t// in\n    tag_270:\n      dup1\n      iszero\n      tag_271\n      jumpi\n      dup1\n      0x1f\n      lt\n      tag_272\n      jumpi\n      0x0100\n      dup1\n      dup4\n      sload\n      div\n      mul\n      dup4\n      mstore\n      swap2\n      0x20\n      add\n      swap2\n      jump(tag_271)\n    tag_272:\n      dup3\n      add\n      swap2\n      swap1\n      0x00\n      mstore\n      keccak256(0x00, 0x20)\n      swap1\n    tag_273:\n      dup2\n      sload\n      dup2\n      mstore\n      swap1\n      0x01\n      add\n      swap1\n      0x20\n      add\n      dup1\n      dup4\n      gt\n      tag_273\n      jumpi\n      dup3\n      swap1\n      sub\n      0x1f\n      and\n      dup3\n      add\n      swap2\n    tag_271:\n      pop\n      pop\n      pop\n      pop\n      pop\n      dup2\n      mstore\n      0x20\n      add\n      0x06\n      dup3\n      add\n      dup1\n      sload\n      tag_274\n      swap1\n      tag_130\n      jump\t// in\n    tag_274:\n      dup1\n      0x1f\n      add\n      0x20\n      dup1\n      swap2\n      div\n      mul\n      0x20\n      add\n      mload(0x40)\n      swap1\n      dup2\n      add\n      0x40\n      mstore\n      dup1\n      swap3\n      swap2\n      swap1\n      dup2\n      dup2\n      mstore\n      0x20\n      add\n      dup3\n      dup1\n      sload\n      tag_275\n      swap1\n      tag_130\n      jump\t// in\n    tag_275:\n      dup1\n      iszero\n      tag_276\n      jumpi\n      dup1\n      0x1f\n      lt\n      tag_277\n      jumpi\n      0x0100\n      dup1\n      dup4\n      sload\n      div\n      mul\n      dup4\n      mstore\n      swap2\n      0x20\n      add\n      swap2\n      jump(tag_276)\n    tag_277:\n      dup3\n      add\n      swap2\n      swap1\n      0x00\n      mstore\n      keccak256(0x00, 0x20)\n      swap1\n    tag_278:\n      dup2\n      sload\n      dup2\n      mstore\n      swap1\n      0x01\n      add\n      swap1\n      0x20\n      add\n      dup1\n      dup4\n      gt\n      tag_278\n      jumpi\n      dup3\n      swap1\n      sub\n      0x1f\n      and\n      dup3\n      add\n      swap2\n    tag_276:\n      pop\n      pop\n      pop\n      pop\n      pop\n      dup2\n      mstore\n      0x20\n      add\n      0x07\n      dup3\n      add\n      dup1\n      sload\n      tag_279\n      swap1\n      tag_130\n      jump\t// in\n    tag_279:\n      dup1\n      0x1f\n      add\n      0x20\n      dup1\n      swap2\n      div\n      mul\n      0x20\n      add\n      mload(0x40)\n      swap1\n      dup2\n      add\n      0x40\n      mstore\n      dup1\n      swap3\n      swap2\n      swap1\n      dup2\n      dup2\n      mstore\n      0x20\n      add\n      dup3\n      dup1\n      sload\n      tag_280\n      swap1\n      tag_130\n      jump\t// in\n    tag_280:\n      dup1\n      iszero\n      tag_281\n      jumpi\n      dup1\n      0x1f\n      lt\n      tag_282\n      jumpi\n      0x0100\n      dup1\n      dup4\n      sload\n      div\n      mul\n      dup4\n      mstore\n      swap2\n      0x20\n      add\n      swap2\n      jump(tag_281)\n    tag_282:\n      dup3\n      add\n      swap2\n      swap1\n      0x00\n      mstore\n      keccak256(0x00, 0x20)\n      swap1\n    tag_283:\n      dup2\n      sload\n      dup2\n      mstore\n      swap1\n      0x01\n      add\n      swap1\n      0x20\n      add\n      dup1\n      dup4\n      gt\n      tag_283\n      jumpi\n      dup3\n      swap1\n      sub\n      0x1f\n      and\n      dup3\n      add\n      swap2\n    tag_281:\n      pop\n      pop\n      pop\n      pop\n      pop\n      dup2\n      mstore\n      0x20\n      add\n      0x08\n      dup3\n      add\n      dup1\n      sload\n      tag_284\n      swap1\n      tag_130\n      jump\t// in\n    tag_284:\n      dup1\n      0x1f\n      add\n      0x20\n      dup1\n      swap2\n      div\n      mul\n      0x20\n      add\n      mload(0x40)\n      swap1\n      dup2\n      add\n      0x40\n      mstore\n      dup1\n      swap3\n      swap2\n      swap1\n      dup2\n      dup2\n      mstore\n      0x20\n      add\n      dup3\n      dup1\n      sload\n      tag_285\n      swap1\n      tag_130\n      jump\t// in\n    tag_285:\n      dup1\n      iszero\n      tag_286\n      jumpi\n      dup1\n      0x1f\n      lt\n      tag_287\n      jumpi\n      0x0100\n      dup1\n      dup4\n      sload\n      div\n      mul\n      dup4\n      mstore\n      swap2\n      0x20\n      add\n      swap2\n      jump(tag_286)\n    tag_287:\n      dup3\n      add\n      swap2\n      swap1\n      0x00\n      mstore\n      keccak256(0x00, 0x20)\n      swap1\n    tag_288:\n      dup2\n      sload\n      dup2\n      mstore\n      swap1\n      0x01\n      add\n      swap1\n      0x20\n      add\n      dup1\n      dup4\n      gt\n      tag_288\n      jumpi\n      dup3\n      swap1\n      sub\n      0x1f\n      and\n      dup3\n      add\n      swap2\n    tag_286:\n      pop\n      pop\n      pop\n      pop\n      pop\n      dup2\n      mstore\n      0x20\n      add\n      0x09\n      dup3\n      add\n      dup1\n      sload\n      tag_289\n      swap1\n      tag_130\n      jump\t// in\n    tag_289:\n      dup1\n      0x1f\n      add\n      0x20\n      dup1\n      swap2\n      div\n      mul\n      0x20\n      add\n      mload(0x40)\n      swap1\n      dup2\n      add\n      0x40\n      mstore\n      dup1\n      swap3\n      swap2\n      swap1\n      dup2\n      dup2\n      mstore\n      0x20\n      add\n      dup3\n      dup1\n      sload\n      tag_290\n      swap1\n      tag_130\n      jump\t// in\n    tag_290:\n      dup1\n      iszero\n      tag_291\n      jumpi\n      dup1\n      0x1f\n      lt\n      tag_292\n      jumpi\n      0x0100\n      dup1\n      dup4\n      sload\n      div\n      mul\n      dup4\n      mstore\n      swap2\n      0x20\n      add\n      swap2\n      jump(tag_291)\n    tag_292:\n      dup3\n      add\n      swap2\n      swap1\n      0x00\n      mstore\n      keccak256(0x00, 0x20)\n      swap1\n    tag_293:\n      dup2\n      sload\n      dup2\n      mstore\n      swap1\n      0x01\n      add\n      swap1\n      0x20\n      add\n      dup1\n      dup4\n      gt\n      tag_293\n      jumpi\n      dup3\n      swap1\n      sub\n      0x1f\n      and\n      dup3\n      add\n      swap2\n    tag_291:\n      pop\n      pop\n      pop\n      pop\n      pop\n      dup2\n      mstore\n      0x20\n      add\n      0x0a\n      dup3\n      add\n      dup1\n      sload\n      tag_294\n      swap1\n      tag_130\n      jump\t// in\n    tag_294:\n      dup1\n      0x1f\n      add\n      0x20\n      dup1\n      swap2\n      div\n      mul\n      0x20\n      add\n      mload(0x40)\n      swap1\n      dup2\n      add\n      0x40\n      mstore\n      dup1\n      swap3\n      swap2\n      swap1\n      dup2\n      dup2\n      mstore\n      0x20\n      add\n      dup3\n      dup1\n      sload\n      tag_295\n      swap1\n      tag_130\n      jump\t// in\n    tag_295:\n      dup1\n      iszero\n      tag_296\n      jumpi\n      dup1\n      0x1f\n      lt\n      tag_297\n      jumpi\n      0x0100\n      dup1\n      dup4\n      sload\n      div\n      mul\n      dup4\n      mstore\n      swap2\n      0x20\n      add\n      swap2\n      jump(tag_296)\n    tag_297:\n      dup3\n      add\n      swap2\n      swap1\n      0x00\n      mstore\n      keccak256(0x00, 0x20)\n      swap1\n    tag_298:\n      dup2\n      sload\n      dup2\n      mstore\n      swap1\n      0x01\n      add\n      swap1\n      0x20\n      add\n      dup1\n      dup4\n      gt\n      tag_298\n      jumpi\n      dup3\n      swap1\n      sub\n      0x1f\n      and\n      dup3\n      add\n      swap2\n    tag_296:\n      pop\n      pop\n      pop\n      pop\n      pop\n      dup2\n      mstore\n      0x20\n      add\n      0x0b\n      dup3\n      add\n      dup1\n      sload\n      tag_299\n      swap1\n      tag_130\n      jump\t// in\n    tag_299:\n      dup1\n      0x1f\n      add\n      0x20\n      dup1\n      swap2\n      div\n      mul\n      0x20\n      add\n      mload(0x40)\n      swap1\n      dup2\n      add\n      0x40\n      mstore\n      dup1\n      swap3\n      swap2\n      swap1\n      dup2\n      dup2\n      mstore\n      0x20\n      add\n      dup3\n      dup1\n      sload\n      tag_300\n      swap1\n      tag_130\n      jump\t// in\n    tag_300:\n      dup1\n      iszero\n      tag_301\n      jumpi\n      dup1\n      0x1f\n      lt\n      tag_302\n      jumpi\n      0x0100\n      dup1\n      dup4\n      sload\n      div\n      mul\n      dup4\n      mstore\n      swap2\n      0x20\n      add\n      swap2\n      jump(tag_301)\n    tag_302:\n      dup3\n      add\n      swap2\n      swap1\n      0x00\n      mstore\n      keccak256(0x00, 0x20)\n      swap1\n    tag_303:\n      dup2\n      sload\n      dup2\n      mstore\n      swap1\n      0x01\n      add\n      swap1\n      0x20\n      add\n      dup1\n      dup4\n      gt\n      tag_303\n      jumpi\n      dup3\n      swap1\n      sub\n      0x1f\n      and\n      dup3\n      add\n      swap2\n    tag_301:\n      pop\n      pop\n      pop\n      pop\n      pop\n      dup2\n      mstore\n      0x20\n      add\n      0x0c\n      dup3\n      add\n      dup1\n      sload\n      tag_304\n      swap1\n      tag_130\n      jump\t// in\n    tag_304:\n      dup1\n      0x1f\n      add\n      0x20\n      dup1\n      swap2\n      div\n      mul\n      0x20\n      add\n      mload(0x40)\n      swap1\n      dup2\n      add\n      0x40\n      mstore\n      dup1\n      swap3\n      swap2\n      swap1\n      dup2\n      dup2\n      mstore\n      0x20\n      add\n      dup3\n      dup1\n      sload\n      tag_305\n      swap1\n      tag_130\n      jump\t// in\n    tag_305:\n      dup1\n      iszero\n      tag_306\n      jumpi\n      dup1\n      0x1f\n      lt\n      tag_307\n      jumpi\n      0x0100\n      dup1\n      dup4\n      sload\n      div\n      mul\n      dup4\n      mstore\n      swap2\n      0x20\n      add\n      swap2\n      jump(tag_306)\n    tag_307:\n      dup3\n      add\n      swap2\n      swap1\n      0x00\n      mstore\n      keccak256(0x00, 0x20)\n      swap1\n    tag_308:\n      dup2\n      sload\n      dup2\n      mstore\n      swap1\n      0x01\n      add\n      swap1\n      0x20\n      add\n      dup1\n      dup4\n      gt\n      tag_308\n      jumpi\n      dup3\n      swap1\n      sub\n      0x1f\n      and\n      dup3\n      add\n      swap2\n    tag_306:\n      pop\n      pop\n      pop\n      pop\n      pop\n      dup2\n      mstore\n      pop\n      pop\n      dup2\n      mstore\n      0x20\n      add\n      swap1\n      0x01\n      add\n      swap1\n      jump(tag_246)\n    tag_247:\n      pop\n      pop\n      pop\n      pop\n      swap1\n      pop\n      swap2\n      pop\n      swap2\n      pop\n        /* \"ElectronicMedicalRecords.sol\":9843:10039  function getEmergencyPatient(address add) onlyDoctor public view returns(PengantarPasien memory a, GawatDarurat[] memory b) {... */\n      swap2\n      pop\n      swap2\n      jump\t// out\n        /* \"ElectronicMedicalRecords.sol\":9663:9835  function getInPatient(address add) onlyDoctor public view returns(IdentitasPasien memory a, RawatInap[] memory b) {... */\n    tag_47:\n        /* \"ElectronicMedicalRecords.sol\":9729:9753  IdentitasPasien memory a */\n      tag_309\n      tag_61\n      jump\t// in\n    tag_309:\n        /* \"ElectronicMedicalRecords.sol\":9755:9775  RawatInap[] memory b */\n      0x60\n        /* \"ElectronicMedicalRecords.sol\":10088:10106  doctor_verificator */\n      0x06\n      0x00\n      swap1\n      sload\n      swap1\n      0x0100\n      exp\n      swap1\n      div\n      0xffffffffffffffffffffffffffffffffffffffff\n      and\n        /* \"ElectronicMedicalRecords.sol\":10088:10113  doctor_verificator.verify */\n      0xffffffffffffffffffffffffffffffffffffffff\n      and\n      0x63a9c3d7\n        /* \"ElectronicMedicalRecords.sol\":10114:10124  msg.sender */\n      caller\n        /* \"ElectronicMedicalRecords.sol\":10088:10125  doctor_verificator.verify(msg.sender) */\n      mload(0x40)\n      dup3\n      0xffffffff\n      and\n      0xe0\n      shl\n      dup2\n      mstore\n      0x04\n      add\n      tag_311\n      swap2\n      swap1\n      tag_53\n      jump\t// in\n    tag_311:\n      0x20\n      mload(0x40)\n      dup1\n      dup4\n      sub\n      dup2\n      dup7\n      gas\n      staticcall\n      iszero\n      dup1\n      iszero\n      tag_313\n      jumpi\n      returndatasize\n      0x00\n      dup1\n      returndatacopy\n      revert(0x00, returndatasize)\n    tag_313:\n      pop\n      pop\n      pop\n      pop\n      mload(0x40)\n      returndatasize\n      not(0x1f)\n      0x1f\n      dup3\n      add\n      and\n      dup3\n      add\n      dup1\n      0x40\n      mstore\n      pop\n      dup2\n      add\n      swap1\n      tag_314\n      swap2\n      swap1\n      tag_57\n      jump\t// in\n    tag_314:\n        /* \"ElectronicMedicalRecords.sol\":10080:10126  require(doctor_verificator.verify(msg.sender)) */\n      tag_315\n      jumpi\n      0x00\n      dup1\n      revert\n    tag_315:\n        /* \"ElectronicMedicalRecords.sol\":9796:9805  patientId */\n      0x00\n        /* \"ElectronicMedicalRecords.sol\":9796:9810  patientId[add] */\n      dup1\n        /* \"ElectronicMedicalRecords.sol\":9806:9809  add */\n      dup5\n        /* \"ElectronicMedicalRecords.sol\":9796:9810  patientId[add] */\n      0xffffffffffffffffffffffffffffffffffffffff\n      and\n      0xffffffffffffffffffffffffffffffffffffffff\n      and\n      dup2\n      mstore\n      0x20\n      add\n      swap1\n      dup2\n      mstore\n      0x20\n      add\n      0x00\n      keccak256\n        /* \"ElectronicMedicalRecords.sol\":9812:9821  inPatient */\n      0x03\n        /* \"ElectronicMedicalRecords.sol\":9812:9826  inPatient[add] */\n      0x00\n        /* \"ElectronicMedicalRecords.sol\":9822:9825  add */\n      dup6\n        /* \"ElectronicMedicalRecords.sol\":9812:9826  inPatient[add] */\n      0xffffffffffffffffffffffffffffffffffffffff\n      and\n      0xffffffffffffffffffffffffffffffffffffffff\n      and\n      dup2\n      mstore\n      0x20\n      add\n      swap1\n      dup2\n      mstore\n      0x20\n      add\n      0x00\n      keccak256\n        /* \"ElectronicMedicalRecords.sol\":9788:9827  return (patientId[add], inPatient[add]) */\n      dup2\n      mload(0x40)\n      dup1\n      0xa0\n      add\n      0x40\n      mstore\n      swap1\n      dup2\n      0x00\n      dup3\n      add\n      0x00\n      swap1\n      sload\n      swap1\n      0x0100\n      exp\n      swap1\n      div\n      0xffffffffffffffffffffffffffffffffffffffff\n      and\n      0xffffffffffffffffffffffffffffffffffffffff\n      and\n      0xffffffffffffffffffffffffffffffffffffffff\n      and\n      dup2\n      mstore\n      0x20\n      add\n      0x01\n      dup3\n      add\n      dup1\n      sload\n      tag_317\n      swap1\n      tag_130\n      jump\t// in\n    tag_317:\n      dup1\n      0x1f\n      add\n      0x20\n      dup1\n      swap2\n      div\n      mul\n      0x20\n      add\n      mload(0x40)\n      swap1\n      dup2\n      add\n      0x40\n      mstore\n      dup1\n      swap3\n      swap2\n      swap1\n      dup2\n      dup2\n      mstore\n      0x20\n      add\n      dup3\n      dup1\n      sload\n      tag_318\n      swap1\n      tag_130\n      jump\t// in\n    tag_318:\n      dup1\n      iszero\n      tag_319\n      jumpi\n      dup1\n      0x1f\n      lt\n      tag_320\n      jumpi\n      0x0100\n      dup1\n      dup4\n      sload\n      div\n      mul\n      dup4\n      mstore\n      swap2\n      0x20\n      add\n      swap2\n      jump(tag_319)\n    tag_320:\n      dup3\n      add\n      swap2\n      swap1\n      0x00\n      mstore\n      keccak256(0x00, 0x20)\n      swap1\n    tag_321:\n      dup2\n      sload\n      dup2\n      mstore\n      swap1\n      0x01\n      add\n      swap1\n      0x20\n      add\n      dup1\n      dup4\n      gt\n      tag_321\n      jumpi\n      dup3\n      swap1\n      sub\n      0x1f\n      and\n      dup3\n      add\n      swap2\n    tag_319:\n      pop\n      pop\n      pop\n      pop\n      pop\n      dup2\n      mstore\n      0x20\n      add\n      0x02\n      dup3\n      add\n      sload\n      dup2\n      mstore\n      0x20\n      add\n      0x03\n      dup3\n      add\n      dup1\n      sload\n      tag_322\n      swap1\n      tag_130\n      jump\t// in\n    tag_322:\n      dup1\n      0x1f\n      add\n      0x20\n      dup1\n      swap2\n      div\n      mul\n      0x20\n      add\n      mload(0x40)\n      swap1\n      dup2\n      add\n      0x40\n      mstore\n      dup1\n      swap3\n      swap2\n      swap1\n      dup2\n      dup2\n      mstore\n      0x20\n      add\n      dup3\n      dup1\n      sload\n      tag_323\n      swap1\n      tag_130\n      jump\t// in\n    tag_323:\n      dup1\n      iszero\n      tag_324\n      jumpi\n      dup1\n      0x1f\n      lt\n      tag_325\n      jumpi\n      0x0100\n      dup1\n      dup4\n      sload\n      div\n      mul\n      dup4\n      mstore\n      swap2\n      0x20\n      add\n      swap2\n      jump(tag_324)\n    tag_325:\n      dup3\n      add\n      swap2\n      swap1\n      0x00\n      mstore\n      keccak256(0x00, 0x20)\n      swap1\n    tag_326:\n      dup2\n      sload\n      dup2\n      mstore\n      swap1\n      0x01\n      add\n      swap1\n      0x20\n      add\n      dup1\n      dup4\n      gt\n      tag_326\n      jumpi\n      dup3\n      swap1\n      sub\n      0x1f\n      and\n      dup3\n      add\n      swap2\n    tag_324:\n      pop\n      pop\n      pop\n      pop\n      pop\n      dup2\n      mstore\n      0x20\n      add\n      0x04\n      dup3\n      add\n      dup1\n      sload\n      tag_327\n      swap1\n      tag_130\n      jump\t// in\n    tag_327:\n      dup1\n      0x1f\n      add\n      0x20\n      dup1\n      swap2\n      div\n      mul\n      0x20\n      add\n      mload(0x40)\n      swap1\n      dup2\n      add\n      0x40\n      mstore\n      dup1\n      swap3\n      swap2\n      swap1\n      dup2\n      dup2\n      mstore\n      0x20\n      add\n      dup3\n      dup1\n      sload\n      tag_328\n      swap1\n      tag_130\n      jump\t// in\n    tag_328:\n      dup1\n      iszero\n      tag_329\n      jumpi\n      dup1\n      0x1f\n      lt\n      tag_330\n      jumpi\n      0x0100\n      dup1\n      dup4\n      sload\n      div\n      mul\n      dup4\n      mstore\n      swap2\n      0x20\n      add\n      swap2\n      jump(tag_329)\n    tag_330:\n      dup3\n      add\n      swap2\n      swap1\n      0x00\n      mstore\n      keccak256(0x00, 0x20)\n      swap1\n    tag_331:\n      dup2\n      sload\n      dup2\n      mstore\n      swap1\n      0x01\n      add\n      swap1\n      0x20\n      add\n      dup1\n      dup4\n      gt\n      tag_331\n      jumpi\n      dup3\n      swap1\n      sub\n      0x1f\n      and\n      dup3\n      add\n      swap2\n    tag_329:\n      pop\n      pop\n      pop\n      pop\n      pop\n      dup2\n      mstore\n      pop\n      pop\n      swap2\n      pop\n      dup1\n      dup1\n      sload\n      dup1\n      0x20\n      mul\n      0x20\n      add\n      mload(0x40)\n      swap1\n      dup2\n      add\n      0x40\n      mstore\n      dup1\n      swap3\n      swap2\n      swap1\n      dup2\n      dup2\n      mstore\n      0x20\n      add\n      0x00\n      swap1\n    tag_332:\n      dup3\n      dup3\n      lt\n      iszero\n      tag_333\n      jumpi\n      dup4\n      dup3\n      swap1\n      0x00\n      mstore\n      keccak256(0x00, 0x20)\n      swap1\n      0x0e\n      mul\n      add\n      mload(0x40)\n      dup1\n      0x01c0\n      add\n      0x40\n      mstore\n      swap1\n      dup2\n      0x00\n      dup3\n      add\n      0x00\n      swap1\n      sload\n      swap1\n      0x0100\n      exp\n      swap1\n      div\n      0xffffffffffffffffffffffffffffffffffffffff\n      and\n      0xffffffffffffffffffffffffffffffffffffffff\n      and\n      0xffffffffffffffffffffffffffffffffffffffff\n      and\n      dup2\n      mstore\n      0x20\n      add\n      0x01\n      dup3\n      add\n      dup1\n      sload\n      tag_335\n      swap1\n      tag_130\n      jump\t// in\n    tag_335:\n      dup1\n      0x1f\n      add\n      0x20\n      dup1\n      swap2\n      div\n      mul\n      0x20\n      add\n      mload(0x40)\n      swap1\n      dup2\n      add\n      0x40\n      mstore\n      dup1\n      swap3\n      swap2\n      swap1\n      dup2\n      dup2\n      mstore\n      0x20\n      add\n      dup3\n      dup1\n      sload\n      tag_336\n      swap1\n      tag_130\n      jump\t// in\n    tag_336:\n      dup1\n      iszero\n      tag_337\n      jumpi\n      dup1\n      0x1f\n      lt\n      tag_338\n      jumpi\n      0x0100\n      dup1\n      dup4\n      sload\n      div\n      mul\n      dup4\n      mstore\n      swap2\n      0x20\n      add\n      swap2\n      jump(tag_337)\n    tag_338:\n      dup3\n      add\n      swap2\n      swap1\n      0x00\n      mstore\n      keccak256(0x00, 0x20)\n      swap1\n    tag_339:\n      dup2\n      sload\n      dup2\n      mstore\n      swap1\n      0x01\n      add\n      swap1\n      0x20\n      add\n      dup1\n      dup4\n      gt\n      tag_339\n      jumpi\n      dup3\n      swap1\n      sub\n      0x1f\n      and\n      dup3\n      add\n      swap2\n    tag_337:\n      pop\n      pop\n      pop\n      pop\n      pop\n      dup2\n      mstore\n      0x20\n      add\n      0x02\n      dup3\n      add\n      dup1\n      sload\n      tag_340\n      swap1\n      tag_130\n      jump\t// in\n    tag_340:\n      dup1\n      0x1f\n      add\n      0x20\n      dup1\n      swap2\n      div\n      mul\n      0x20\n      add\n      mload(0x40)\n      swap1\n      dup2\n      add\n      0x40\n      mstore\n      dup1\n      swap3\n      swap2\n      swap1\n      dup2\n      dup2\n      mstore\n      0x20\n      add\n      dup3\n      dup1\n      sload\n      tag_341\n      swap1\n      tag_130\n      jump\t// in\n    tag_341:\n      dup1\n      iszero\n      tag_342\n      jumpi\n      dup1\n      0x1f\n      lt\n      tag_343\n      jumpi\n      0x0100\n      dup1\n      dup4\n      sload\n      div\n      mul\n      dup4\n      mstore\n      swap2\n      0x20\n      add\n      swap2\n      jump(tag_342)\n    tag_343:\n      dup3\n      add\n      swap2\n      swap1\n      0x00\n      mstore\n      keccak256(0x00, 0x20)\n      swap1\n    tag_344:\n      dup2\n      sload\n      dup2\n      mstore\n      swap1\n      0x01\n      add\n      swap1\n      0x20\n      add\n      dup1\n      dup4\n      gt\n      tag_344\n      jumpi\n      dup3\n      swap1\n      sub\n      0x1f\n      and\n      dup3\n      add\n      swap2\n    tag_342:\n      pop\n      pop\n      pop\n      pop\n      pop\n      dup2\n      mstore\n      0x20\n      add\n      0x03\n      dup3\n      add\n      dup1\n      sload\n      tag_345\n      swap1\n      tag_130\n      jump\t// in\n    tag_345:\n      dup1\n      0x1f\n      add\n      0x20\n      dup1\n      swap2\n      div\n      mul\n      0x20\n      add\n      mload(0x40)\n      swap1\n      dup2\n      add\n      0x40\n      mstore\n      dup1\n      swap3\n      swap2\n      swap1\n      dup2\n      dup2\n      mstore\n      0x20\n      add\n      dup3\n      dup1\n      sload\n      tag_346\n      swap1\n      tag_130\n      jump\t// in\n    tag_346:\n      dup1\n      iszero\n      tag_347\n      jumpi\n      dup1\n      0x1f\n      lt\n      tag_348\n      jumpi\n      0x0100\n      dup1\n      dup4\n      sload\n      div\n      mul\n      dup4\n      mstore\n      swap2\n      0x20\n      add\n      swap2\n      jump(tag_347)\n    tag_348:\n      dup3\n      add\n      swap2\n      swap1\n      0x00\n      mstore\n      keccak256(0x00, 0x20)\n      swap1\n    tag_349:\n      dup2\n      sload\n      dup2\n      mstore\n      swap1\n      0x01\n      add\n      swap1\n      0x20\n      add\n      dup1\n      dup4\n      gt\n      tag_349\n      jumpi\n      dup3\n      swap1\n      sub\n      0x1f\n      and\n      dup3\n      add\n      swap2\n    tag_347:\n      pop\n      pop\n      pop\n      pop\n      pop\n      dup2\n      mstore\n      0x20\n      add\n      0x04\n      dup3\n      add\n      dup1\n      sload\n      tag_350\n      swap1\n      tag_130\n      jump\t// in\n    tag_350:\n      dup1\n      0x1f\n      add\n      0x20\n      dup1\n      swap2\n      div\n      mul\n      0x20\n      add\n      mload(0x40)\n      swap1\n      dup2\n      add\n      0x40\n      mstore\n      dup1\n      swap3\n      swap2\n      swap1\n      dup2\n      dup2\n      mstore\n      0x20\n      add\n      dup3\n      dup1\n      sload\n      tag_351\n      swap1\n      tag_130\n      jump\t// in\n    tag_351:\n      dup1\n      iszero\n      tag_352\n      jumpi\n      dup1\n      0x1f\n      lt\n      tag_353\n      jumpi\n      0x0100\n      dup1\n      dup4\n      sload\n      div\n      mul\n      dup4\n      mstore\n      swap2\n      0x20\n      add\n      swap2\n      jump(tag_352)\n    tag_353:\n      dup3\n      add\n      swap2\n      swap1\n      0x00\n      mstore\n      keccak256(0x00, 0x20)\n      swap1\n    tag_354:\n      dup2\n      sload\n      dup2\n      mstore\n      swap1\n      0x01\n      add\n      swap1\n      0x20\n      add\n      dup1\n      dup4\n      gt\n      tag_354\n      jumpi\n      dup3\n      swap1\n      sub\n      0x1f\n      and\n      dup3\n      add\n      swap2\n    tag_352:\n      pop\n      pop\n      pop\n      pop\n      pop\n      dup2\n      mstore\n      0x20\n      add\n      0x05\n      dup3\n      add\n      dup1\n      sload\n      tag_355\n      swap1\n      tag_130\n      jump\t// in\n    tag_355:\n      dup1\n      0x1f\n      add\n      0x20\n      dup1\n      swap2\n      div\n      mul\n      0x20\n      add\n      mload(0x40)\n      swap1\n      dup2\n      add\n      0x40\n      mstore\n      dup1\n      swap3\n      swap2\n      swap1\n      dup2\n      dup2\n      mstore\n      0x20\n      add\n      dup3\n      dup1\n      sload\n      tag_356\n      swap1\n      tag_130\n      jump\t// in\n    tag_356:\n      dup1\n      iszero\n      tag_357\n      jumpi\n      dup1\n      0x1f\n      lt\n      tag_358\n      jumpi\n      0x0100\n      dup1\n      dup4\n      sload\n      div\n      mul\n      dup4\n      mstore\n      swap2\n      0x20\n      add\n      swap2\n      jump(tag_357)\n    tag_358:\n      dup3\n      add\n      swap2\n      swap1\n      0x00\n      mstore\n      keccak256(0x00, 0x20)\n      swap1\n    tag_359:\n      dup2\n      sload\n      dup2\n      mstore\n      swap1\n      0x01\n      add\n      swap1\n      0x20\n      add\n      dup1\n      dup4\n      gt\n      tag_359\n      jumpi\n      dup3\n      swap1\n      sub\n      0x1f\n      and\n      dup3\n      add\n      swap2\n    tag_357:\n      pop\n      pop\n      pop\n      pop\n      pop\n      dup2\n      mstore\n      0x20\n      add\n      0x06\n      dup3\n      add\n      dup1\n      sload\n      tag_360\n      swap1\n      tag_130\n      jump\t// in\n    tag_360:\n      dup1\n      0x1f\n      add\n      0x20\n      dup1\n      swap2\n      div\n      mul\n      0x20\n      add\n      mload(0x40)\n      swap1\n      dup2\n      add\n      0x40\n      mstore\n      dup1\n      swap3\n      swap2\n      swap1\n      dup2\n      dup2\n      mstore\n      0x20\n      add\n      dup3\n      dup1\n      sload\n      tag_361\n      swap1\n      tag_130\n      jump\t// in\n    tag_361:\n      dup1\n      iszero\n      tag_362\n      jumpi\n      dup1\n      0x1f\n      lt\n      tag_363\n      jumpi\n      0x0100\n      dup1\n      dup4\n      sload\n      div\n      mul\n      dup4\n      mstore\n      swap2\n      0x20\n      add\n      swap2\n      jump(tag_362)\n    tag_363:\n      dup3\n      add\n      swap2\n      swap1\n      0x00\n      mstore\n      keccak256(0x00, 0x20)\n      swap1\n    tag_364:\n      dup2\n      sload\n      dup2\n      mstore\n      swap1\n      0x01\n      add\n      swap1\n      0x20\n      add\n      dup1\n      dup4\n      gt\n      tag_364\n      jumpi\n      dup3\n      swap1\n      sub\n      0x1f\n      and\n      dup3\n      add\n      swap2\n    tag_362:\n      pop\n      pop\n      pop\n      pop\n      pop\n      dup2\n      mstore\n      0x20\n      add\n      0x07\n      dup3\n      add\n      dup1\n      sload\n      tag_365\n      swap1\n      tag_130\n      jump\t// in\n    tag_365:\n      dup1\n      0x1f\n      add\n      0x20\n      dup1\n      swap2\n      div\n      mul\n      0x20\n      add\n      mload(0x40)\n      swap1\n      dup2\n      add\n      0x40\n      mstore\n      dup1\n      swap3\n      swap2\n      swap1\n      dup2\n      dup2\n      mstore\n      0x20\n      add\n      dup3\n      dup1\n      sload\n      tag_366\n      swap1\n      tag_130\n      jump\t// in\n    tag_366:\n      dup1\n      iszero\n      tag_367\n      jumpi\n      dup1\n      0x1f\n      lt\n      tag_368\n      jumpi\n      0x0100\n      dup1\n      dup4\n      sload\n      div\n      mul\n      dup4\n      mstore\n      swap2\n      0x20\n      add\n      swap2\n      jump(tag_367)\n    tag_368:\n      dup3\n      add\n      swap2\n      swap1\n      0x00\n      mstore\n      keccak256(0x00, 0x20)\n      swap1\n    tag_369:\n      dup2\n      sload\n      dup2\n      mstore\n      swap1\n      0x01\n      add\n      swap1\n      0x20\n      add\n      dup1\n      dup4\n      gt\n      tag_369\n      jumpi\n      dup3\n      swap1\n      sub\n      0x1f\n      and\n      dup3\n      add\n      swap2\n    tag_367:\n      pop\n      pop\n      pop\n      pop\n      pop\n      dup2\n      mstore\n      0x20\n      add\n      0x08\n      dup3\n      add\n      dup1\n      sload\n      tag_370\n      swap1\n      tag_130\n      jump\t// in\n    tag_370:\n      dup1\n      0x1f\n      add\n      0x20\n      dup1\n      swap2\n      div\n      mul\n      0x20\n      add\n      mload(0x40)\n      swap1\n      dup2\n      add\n      0x40\n      mstore\n      dup1\n      swap3\n      swap2\n      swap1\n      dup2\n      dup2\n      mstore\n      0x20\n      add\n      dup3\n      dup1\n      sload\n      tag_371\n      swap1\n      tag_130\n      jump\t// in\n    tag_371:\n      dup1\n      iszero\n      tag_372\n      jumpi\n      dup1\n      0x1f\n      lt\n      tag_373\n      jumpi\n      0x0100\n      dup1\n      dup4\n      sload\n      div\n      mul\n      dup4\n      mstore\n      swap2\n      0x20\n      add\n      swap2\n      jump(tag_372)\n    tag_373:\n      dup3\n      add\n      swap2\n      swap1\n      0x00\n      mstore\n      keccak256(0x00, 0x20)\n      swap1\n    tag_374:\n      dup2\n      sload\n      dup2\n      mstore\n      swap1\n      0x01\n      add\n      swap1\n      0x20\n      add\n      dup1\n      dup4\n      gt\n      tag_374\n      jumpi\n      dup3\n      swap1\n      sub\n      0x1f\n      and\n      dup3\n      add\n      swap2\n    tag_372:\n      pop\n      pop\n      pop\n      pop\n      pop\n      dup2\n      mstore\n      0x20\n      add\n      0x09\n      dup3\n      add\n      0x00\n      swap1\n      sload\n      swap1\n      0x0100\n      exp\n      swap1\n      div\n      0xff\n      and\n      iszero\n      iszero\n      iszero\n      iszero\n      dup2\n      mstore\n      0x20\n      add\n      0x0a\n      dup3\n      add\n      dup1\n      sload\n      tag_375\n      swap1\n      tag_130\n      jump\t// in\n    tag_375:\n      dup1\n      0x1f\n      add\n      0x20\n      dup1\n      swap2\n      div\n      mul\n      0x20\n      add\n      mload(0x40)\n      swap1\n      dup2\n      add\n      0x40\n      mstore\n      dup1\n      swap3\n      swap2\n      swap1\n      dup2\n      dup2\n      mstore\n      0x20\n      add\n      dup3\n      dup1\n      sload\n      tag_376\n      swap1\n      tag_130\n      jump\t// in\n    tag_376:\n      dup1\n      iszero\n      tag_377\n      jumpi\n      dup1\n      0x1f\n      lt\n      tag_378\n      jumpi\n      0x0100\n      dup1\n      dup4\n      sload\n      div\n      mul\n      dup4\n      mstore\n      swap2\n      0x20\n      add\n      swap2\n      jump(tag_377)\n    tag_378:\n      dup3\n      add\n      swap2\n      swap1\n      0x00\n      mstore\n      keccak256(0x00, 0x20)\n      swap1\n    tag_379:\n      dup2\n      sload\n      dup2\n      mstore\n      swap1\n      0x01\n      add\n      swap1\n      0x20\n      add\n      dup1\n      dup4\n      gt\n      tag_379\n      jumpi\n      dup3\n      swap1\n      sub\n      0x1f\n      and\n      dup3\n      add\n      swap2\n    tag_377:\n      pop\n      pop\n      pop\n      pop\n      pop\n      dup2\n      mstore\n      0x20\n      add\n      0x0b\n      dup3\n      add\n      dup1\n      sload\n      tag_380\n      swap1\n      tag_130\n      jump\t// in\n    tag_380:\n      dup1\n      0x1f\n      add\n      0x20\n      dup1\n      swap2\n      div\n      mul\n      0x20\n      add\n      mload(0x40)\n      swap1\n      dup2\n      add\n      0x40\n      mstore\n      dup1\n      swap3\n      swap2\n      swap1\n      dup2\n      dup2\n      mstore\n      0x20\n      add\n      dup3\n      dup1\n      sload\n      tag_381\n      swap1\n      tag_130\n      jump\t// in\n    tag_381:\n      dup1\n      iszero\n      tag_382\n      jumpi\n      dup1\n      0x1f\n      lt\n      tag_383\n      jumpi\n      0x0100\n      dup1\n      dup4\n      sload\n      div\n      mul\n      dup4\n      mstore\n      swap2\n      0x20\n      add\n      swap2\n      jump(tag_382)\n    tag_383:\n      dup3\n      add\n      swap2\n      swap1\n      0x00\n      mstore\n      keccak256(0x00, 0x20)\n      swap1\n    tag_384:\n      dup2\n      sload\n      dup2\n      mstore\n      swap1\n      0x01\n      add\n      swap1\n      0x20\n      add\n      dup1\n      dup4\n      gt\n      tag_384\n      jumpi\n      dup3\n      swap1\n      sub\n      0x1f\n      and\n      dup3\n      add\n      swap2\n    tag_382:\n      pop\n      pop\n      pop\n      pop\n      pop\n      dup2\n      mstore\n      0x20\n      add\n      0x0c\n      dup3\n      add\n      0x00\n      swap1\n      sload\n      swap1\n      0x0100\n      exp\n      swap1\n      div\n      0xffffffffffffffffffffffffffffffffffffffff\n      and\n      0xffffffffffffffffffffffffffffffffffffffff\n      and\n      0xffffffffffffffffffffffffffffffffffffffff\n      and\n      dup2\n      mstore\n      0x20\n      add\n      0x0d\n      dup3\n      add\n      dup1\n      sload\n      tag_385\n      swap1\n      tag_130\n      jump\t// in\n    tag_385:\n      dup1\n      0x1f\n      add\n      0x20\n      dup1\n      swap2\n      div\n      mul\n      0x20\n      add\n      mload(0x40)\n      swap1\n      dup2\n      add\n      0x40\n      mstore\n      dup1\n      swap3\n      swap2\n      swap1\n      dup2\n      dup2\n      mstore\n      0x20\n      add\n      dup3\n      dup1\n      sload\n      tag_386\n      swap1\n      tag_130\n      jump\t// in\n    tag_386:\n      dup1\n      iszero\n      tag_387\n      jumpi\n      dup1\n      0x1f\n      lt\n      tag_388\n      jumpi\n      0x0100\n      dup1\n      dup4\n      sload\n      div\n      mul\n      dup4\n      mstore\n      swap2\n      0x20\n      add\n      swap2\n      jump(tag_387)\n    tag_388:\n      dup3\n      add\n      swap2\n      swap1\n      0x00\n      mstore\n      keccak256(0x00, 0x20)\n      swap1\n    tag_389:\n      dup2\n      sload\n      dup2\n      mstore\n      swap1\n      0x01\n      add\n      swap1\n      0x20\n      add\n      dup1\n      dup4\n      gt\n      tag_389\n      jumpi\n      dup3\n      swap1\n      sub\n      0x1f\n      and\n      dup3\n      add\n      swap2\n    tag_387:\n      pop\n      pop\n      pop\n      pop\n      pop\n      dup2\n      mstore\n      pop\n      pop\n      dup2\n      mstore\n      0x20\n      add\n      swap1\n      0x01\n      add\n      swap1\n      jump(tag_332)\n    tag_333:\n      pop\n      pop\n      pop\n      pop\n      swap1\n      pop\n      swap2\n      pop\n      swap2\n      pop\n        /* \"ElectronicMedicalRecords.sol\":9663:9835  function getInPatient(address add) onlyDoctor public view returns(IdentitasPasien memory a, RawatInap[] memory b) {... */\n      swap2\n      pop\n      swap2\n      jump\t// out\n    tag_61:\n      mload(0x40)\n      dup1\n      0xa0\n      add\n      0x40\n      mstore\n      dup1\n      and(0xffffffffffffffffffffffffffffffffffffffff, 0x00)\n      dup2\n      mstore\n      0x20\n      add\n      0x60\n      dup2\n      mstore\n      0x20\n      add\n      0x00\n      dup2\n      mstore\n      0x20\n      add\n      0x60\n      dup2\n      mstore\n      0x20\n      add\n      0x60\n      dup2\n      mstore\n      pop\n      swap1\n      jump\t// out\n    tag_67:\n      mload(0x40)\n      dup1\n      0x0140\n      add\n      0x40\n      mstore\n      dup1\n      and(0xffffffffffffffffffffffffffffffffffffffff, 0x00)\n      dup2\n      mstore\n      0x20\n      add\n      0x60\n      dup2\n      mstore\n      0x20\n      add\n      0x60\n      dup2\n      mstore\n      0x20\n      add\n      0x60\n      dup2\n      mstore\n      0x20\n      add\n      0x60\n      dup2\n      mstore\n      0x20\n      add\n      0x60\n      dup2\n      mstore\n      0x20\n      add\n      0x60\n      dup2\n      mstore\n      0x20\n      add\n      0x60\n      dup2\n      mstore\n      0x20\n      add\n      0x60\n      dup2\n      mstore\n      0x20\n      add\n      iszero(iszero(0x00))\n      dup2\n      mstore\n      pop\n      swap1\n      jump\t// out\n    tag_100:\n      mload(0x40)\n      dup1\n      0x01c0\n      add\n      0x40\n      mstore\n      dup1\n      and(0xffffffffffffffffffffffffffffffffffffffff, 0x00)\n      dup2\n      mstore\n      0x20\n      add\n      0x60\n      dup2\n      mstore\n      0x20\n      add\n      0x60\n      dup2\n      mstore\n      0x20\n      add\n      0x60\n      dup2\n      mstore\n      0x20\n      add\n      0x60\n      dup2\n      mstore\n      0x20\n      add\n      0x60\n      dup2\n      mstore\n      0x20\n      add\n      0x60\n      dup2\n      mstore\n      0x20\n      add\n      0x60\n      dup2\n      mstore\n      0x20\n      add\n      0x60\n      dup2\n      mstore\n      0x20\n      add\n      iszero(iszero(0x00))\n      dup2\n      mstore\n      0x20\n      add\n      0x60\n      dup2\n      mstore\n      0x20\n      add\n      0x60\n      dup2\n      mstore\n      0x20\n      add\n      and(0xffffffffffffffffffffffffffffffffffffffff, 0x00)\n      dup2\n      mstore\n      0x20\n      add\n      0x60\n      dup2\n      mstore\n      pop\n      swap1\n      jump\t// out\n    tag_196:\n      mload(0x40)\n      dup1\n      0xa0\n      add\n      0x40\n      mstore\n      dup1\n      and(0xffffffffffffffffffffffffffffffffffffffff, 0x00)\n      dup2\n      mstore\n      0x20\n      add\n      0x60\n      dup2\n      mstore\n      0x20\n      add\n      0x60\n      dup2\n      mstore\n      0x20\n      add\n      0x00\n      dup2\n      mstore\n      0x20\n      add\n      0x60\n      dup2\n      mstore\n      pop\n      swap1\n      jump\t// out\n    tag_201:\n      mload(0x40)\n      dup1\n      0x01a0\n      add\n      0x40\n      mstore\n      dup1\n      and(0xffffffffffffffffffffffffffffffffffffffff, 0x00)\n      dup2\n      mstore\n      0x20\n      add\n      0x60\n      dup2\n      mstore\n      0x20\n      add\n      0x60\n      dup2\n      mstore\n      0x20\n      add\n      0x60\n      dup2\n      mstore\n      0x20\n      add\n      0x60\n      dup2\n      mstore\n      0x20\n      add\n      0x60\n      dup2\n      mstore\n      0x20\n      add\n      0x60\n      dup2\n      mstore\n      0x20\n      add\n      0x60\n      dup2\n      mstore\n      0x20\n      add\n      0x60\n      dup2\n      mstore\n      0x20\n      add\n      0x60\n      dup2\n      mstore\n      0x20\n      add\n      0x60\n      dup2\n      mstore\n      0x20\n      add\n      0x60\n      dup2\n      mstore\n      0x20\n      add\n      0x60\n      dup2\n      mstore\n      pop\n      swap1\n      jump\t// out\n        /* \"#utility.yul\":7:82   */\n    tag_390:\n        /* \"#utility.yul\":40:46   */\n      0x00\n        /* \"#utility.yul\":73:75   */\n      0x40\n        /* \"#utility.yul\":67:76   */\n      mload\n        /* \"#utility.yul\":57:76   */\n      swap1\n      pop\n        /* \"#utility.yul\":7:82   */\n      swap1\n      jump\t// out\n        /* \"#utility.yul\":88:205   */\n    tag_391:\n        /* \"#utility.yul\":197:198   */\n      0x00\n        /* \"#utility.yul\":194:195   */\n      dup1\n        /* \"#utility.yul\":187:199   */\n      revert\n        /* \"#utility.yul\":211:328   */\n    tag_392:\n        /* \"#utility.yul\":320:321   */\n      0x00\n        /* \"#utility.yul\":317:318   */\n      dup1\n        /* \"#utility.yul\":310:322   */\n      revert\n        /* \"#utility.yul\":334:460   */\n    tag_393:\n        /* \"#utility.yul\":371:378   */\n      0x00\n        /* \"#utility.yul\":411:453   */\n      0xffffffffffffffffffffffffffffffffffffffff\n        /* \"#utility.yul\":404:409   */\n      dup3\n        /* \"#utility.yul\":400:454   */\n      and\n        /* \"#utility.yul\":389:454   */\n      swap1\n      pop\n        /* \"#utility.yul\":334:460   */\n      swap2\n      swap1\n      pop\n      jump\t// out\n        /* \"#utility.yul\":466:562   */\n    tag_394:\n        /* \"#utility.yul\":503:510   */\n      0x00\n        /* \"#utility.yul\":532:556   */\n      tag_476\n        /* \"#utility.yul\":550:555   */\n      dup3\n        /* \"#utility.yul\":532:556   */\n      tag_393\n      jump\t// in\n    tag_476:\n        /* \"#utility.yul\":521:556   */\n      swap1\n      pop\n        /* \"#utility.yul\":466:562   */\n      swap2\n      swap1\n      pop\n      jump\t// out\n        /* \"#utility.yul\":568:690   */\n    tag_395:\n        /* \"#utility.yul\":641:665   */\n      tag_478\n        /* \"#utility.yul\":659:664   */\n      dup2\n        /* \"#utility.yul\":641:665   */\n      tag_394\n      jump\t// in\n    tag_478:\n        /* \"#utility.yul\":634:639   */\n      dup2\n        /* \"#utility.yul\":631:666   */\n      eq\n        /* \"#utility.yul\":621:684   */\n      tag_479\n      jumpi\n        /* \"#utility.yul\":680:681   */\n      0x00\n        /* \"#utility.yul\":677:678   */\n      dup1\n        /* \"#utility.yul\":670:682   */\n      revert\n        /* \"#utility.yul\":621:684   */\n    tag_479:\n        /* \"#utility.yul\":568:690   */\n      pop\n      jump\t// out\n        /* \"#utility.yul\":696:835   */\n    tag_396:\n        /* \"#utility.yul\":742:747   */\n      0x00\n        /* \"#utility.yul\":780:786   */\n      dup2\n        /* \"#utility.yul\":767:787   */\n      calldataload\n        /* \"#utility.yul\":758:787   */\n      swap1\n      pop\n        /* \"#utility.yul\":796:829   */\n      tag_481\n        /* \"#utility.yul\":823:828   */\n      dup2\n        /* \"#utility.yul\":796:829   */\n      tag_395\n      jump\t// in\n    tag_481:\n        /* \"#utility.yul\":696:835   */\n      swap3\n      swap2\n      pop\n      pop\n      jump\t// out\n        /* \"#utility.yul\":841:1170   */\n    tag_15:\n        /* \"#utility.yul\":900:906   */\n      0x00\n        /* \"#utility.yul\":949:951   */\n      0x20\n        /* \"#utility.yul\":937:946   */\n      dup3\n        /* \"#utility.yul\":928:935   */\n      dup5\n        /* \"#utility.yul\":924:947   */\n      sub\n        /* \"#utility.yul\":920:952   */\n      slt\n        /* \"#utility.yul\":917:1036   */\n      iszero\n      tag_483\n      jumpi\n        /* \"#utility.yul\":955:1034   */\n      tag_484\n      tag_391\n      jump\t// in\n    tag_484:\n        /* \"#utility.yul\":917:1036   */\n    tag_483:\n        /* \"#utility.yul\":1075:1076   */\n      0x00\n        /* \"#utility.yul\":1100:1153   */\n      tag_485\n        /* \"#utility.yul\":1145:1152   */\n      dup5\n        /* \"#utility.yul\":1136:1142   */\n      dup3\n        /* \"#utility.yul\":1125:1134   */\n      dup6\n        /* \"#utility.yul\":1121:1143   */\n      add\n        /* \"#utility.yul\":1100:1153   */\n      tag_396\n      jump\t// in\n    tag_485:\n        /* \"#utility.yul\":1090:1153   */\n      swap2\n      pop\n        /* \"#utility.yul\":1046:1163   */\n      pop\n        /* \"#utility.yul\":841:1170   */\n      swap3\n      swap2\n      pop\n      pop\n      jump\t// out\n        /* \"#utility.yul\":1176:1293   */\n    tag_397:\n        /* \"#utility.yul\":1285:1286   */\n      0x00\n        /* \"#utility.yul\":1282:1283   */\n      dup1\n        /* \"#utility.yul\":1275:1287   */\n      revert\n        /* \"#utility.yul\":1299:1401   */\n    tag_398:\n        /* \"#utility.yul\":1340:1346   */\n      0x00\n        /* \"#utility.yul\":1391:1393   */\n      0x1f\n        /* \"#utility.yul\":1387:1394   */\n      not\n        /* \"#utility.yul\":1382:1384   */\n      0x1f\n        /* \"#utility.yul\":1375:1380   */\n      dup4\n        /* \"#utility.yul\":1371:1385   */\n      add\n        /* \"#utility.yul\":1367:1395   */\n      and\n        /* \"#utility.yul\":1357:1395   */\n      swap1\n      pop\n        /* \"#utility.yul\":1299:1401   */\n      swap2\n      swap1\n      pop\n      jump\t// out\n        /* \"#utility.yul\":1407:1587   */\n    tag_399:\n        /* \"#utility.yul\":1455:1532   */\n      0x4e487b7100000000000000000000000000000000000000000000000000000000\n        /* \"#utility.yul\":1452:1453   */\n      0x00\n        /* \"#utility.yul\":1445:1533   */\n      mstore\n        /* \"#utility.yul\":1552:1556   */\n      0x41\n        /* \"#utility.yul\":1549:1550   */\n      0x04\n        /* \"#utility.yul\":1542:1557   */\n      mstore\n        /* \"#utility.yul\":1576:1580   */\n      0x24\n        /* \"#utility.yul\":1573:1574   */\n      0x00\n        /* \"#utility.yul\":1566:1581   */\n      revert\n        /* \"#utility.yul\":1593:1874   */\n    tag_400:\n        /* \"#utility.yul\":1676:1703   */\n      tag_490\n        /* \"#utility.yul\":1698:1702   */\n      dup3\n        /* \"#utility.yul\":1676:1703   */\n      tag_398\n      jump\t// in\n    tag_490:\n        /* \"#utility.yul\":1668:1674   */\n      dup2\n        /* \"#utility.yul\":1664:1704   */\n      add\n        /* \"#utility.yul\":1806:1812   */\n      dup2\n        /* \"#utility.yul\":1794:1804   */\n      dup2\n        /* \"#utility.yul\":1791:1813   */\n      lt\n        /* \"#utility.yul\":1770:1788   */\n      0xffffffffffffffff\n        /* \"#utility.yul\":1758:1768   */\n      dup3\n        /* \"#utility.yul\":1755:1789   */\n      gt\n        /* \"#utility.yul\":1752:1814   */\n      or\n        /* \"#utility.yul\":1749:1837   */\n      iszero\n      tag_491\n      jumpi\n        /* \"#utility.yul\":1817:1835   */\n      tag_492\n      tag_399\n      jump\t// in\n    tag_492:\n        /* \"#utility.yul\":1749:1837   */\n    tag_491:\n        /* \"#utility.yul\":1857:1867   */\n      dup1\n        /* \"#utility.yul\":1853:1855   */\n      0x40\n        /* \"#utility.yul\":1846:1868   */\n      mstore\n        /* \"#utility.yul\":1636:1874   */\n      pop\n        /* \"#utility.yul\":1593:1874   */\n      pop\n      pop\n      jump\t// out\n        /* \"#utility.yul\":1880:2009   */\n    tag_401:\n        /* \"#utility.yul\":1914:1920   */\n      0x00\n        /* \"#utility.yul\":1941:1961   */\n      tag_494\n      tag_390\n      jump\t// in\n    tag_494:\n        /* \"#utility.yul\":1931:1961   */\n      swap1\n      pop\n        /* \"#utility.yul\":1970:2003   */\n      tag_495\n        /* \"#utility.yul\":1998:2002   */\n      dup3\n        /* \"#utility.yul\":1990:1996   */\n      dup3\n        /* \"#utility.yul\":1970:2003   */\n      tag_400\n      jump\t// in\n    tag_495:\n        /* \"#utility.yul\":1880:2009   */\n      swap2\n      swap1\n      pop\n      jump\t// out\n        /* \"#utility.yul\":2015:2132   */\n    tag_402:\n        /* \"#utility.yul\":2124:2125   */\n      0x00\n        /* \"#utility.yul\":2121:2122   */\n      dup1\n        /* \"#utility.yul\":2114:2126   */\n      revert\n        /* \"#utility.yul\":2138:2255   */\n    tag_403:\n        /* \"#utility.yul\":2247:2248   */\n      0x00\n        /* \"#utility.yul\":2244:2245   */\n      dup1\n        /* \"#utility.yul\":2237:2249   */\n      revert\n        /* \"#utility.yul\":2261:2378   */\n    tag_404:\n        /* \"#utility.yul\":2370:2371   */\n      0x00\n        /* \"#utility.yul\":2367:2368   */\n      dup1\n        /* \"#utility.yul\":2360:2372   */\n      revert\n        /* \"#utility.yul\":2384:2692   */\n    tag_405:\n        /* \"#utility.yul\":2446:2450   */\n      0x00\n        /* \"#utility.yul\":2536:2554   */\n      0xffffffffffffffff\n        /* \"#utility.yul\":2528:2534   */\n      dup3\n        /* \"#utility.yul\":2525:2555   */\n      gt\n        /* \"#utility.yul\":2522:2578   */\n      iszero\n      tag_500\n      jumpi\n        /* \"#utility.yul\":2558:2576   */\n      tag_501\n      tag_399\n      jump\t// in\n    tag_501:\n        /* \"#utility.yul\":2522:2578   */\n    tag_500:\n        /* \"#utility.yul\":2596:2625   */\n      tag_502\n        /* \"#utility.yul\":2618:2624   */\n      dup3\n        /* \"#utility.yul\":2596:2625   */\n      tag_398\n      jump\t// in\n    tag_502:\n        /* \"#utility.yul\":2588:2625   */\n      swap1\n      pop\n        /* \"#utility.yul\":2680:2684   */\n      0x20\n        /* \"#utility.yul\":2674:2678   */\n      dup2\n        /* \"#utility.yul\":2670:2685   */\n      add\n        /* \"#utility.yul\":2662:2685   */\n      swap1\n      pop\n        /* \"#utility.yul\":2384:2692   */\n      swap2\n      swap1\n      pop\n      jump\t// out\n        /* \"#utility.yul\":2698:2844   */\n    tag_406:\n        /* \"#utility.yul\":2795:2801   */\n      dup3\n        /* \"#utility.yul\":2790:2793   */\n      dup2\n        /* \"#utility.yul\":2785:2788   */\n      dup4\n        /* \"#utility.yul\":2772:2802   */\n      calldatacopy\n        /* \"#utility.yul\":2836:2837   */\n      0x00\n        /* \"#utility.yul\":2827:2833   */\n      dup4\n        /* \"#utility.yul\":2822:2825   */\n      dup4\n        /* \"#utility.yul\":2818:2834   */\n      add\n        /* \"#utility.yul\":2811:2838   */\n      mstore\n        /* \"#utility.yul\":2698:2844   */\n      pop\n      pop\n      pop\n      jump\t// out\n        /* \"#utility.yul\":2850:3275   */\n    tag_407:\n        /* \"#utility.yul\":2928:2933   */\n      0x00\n        /* \"#utility.yul\":2953:3019   */\n      tag_505\n        /* \"#utility.yul\":2969:3018   */\n      tag_506\n        /* \"#utility.yul\":3011:3017   */\n      dup5\n        /* \"#utility.yul\":2969:3018   */\n      tag_405\n      jump\t// in\n    tag_506:\n        /* \"#utility.yul\":2953:3019   */\n      tag_401\n      jump\t// in\n    tag_505:\n        /* \"#utility.yul\":2944:3019   */\n      swap1\n      pop\n        /* \"#utility.yul\":3042:3048   */\n      dup3\n        /* \"#utility.yul\":3035:3040   */\n      dup2\n        /* \"#utility.yul\":3028:3049   */\n      mstore\n        /* \"#utility.yul\":3080:3084   */\n      0x20\n        /* \"#utility.yul\":3073:3078   */\n      dup2\n        /* \"#utility.yul\":3069:3085   */\n      add\n        /* \"#utility.yul\":3118:3121   */\n      dup5\n        /* \"#utility.yul\":3109:3115   */\n      dup5\n        /* \"#utility.yul\":3104:3107   */\n      dup5\n        /* \"#utility.yul\":3100:3116   */\n      add\n        /* \"#utility.yul\":3097:3122   */\n      gt\n        /* \"#utility.yul\":3094:3206   */\n      iszero\n      tag_507\n      jumpi\n        /* \"#utility.yul\":3125:3204   */\n      tag_508\n      tag_404\n      jump\t// in\n    tag_508:\n        /* \"#utility.yul\":3094:3206   */\n    tag_507:\n        /* \"#utility.yul\":3215:3269   */\n      tag_509\n        /* \"#utility.yul\":3262:3268   */\n      dup5\n        /* \"#utility.yul\":3257:3260   */\n      dup3\n        /* \"#utility.yul\":3252:3255   */\n      dup6\n        /* \"#utility.yul\":3215:3269   */\n      tag_406\n      jump\t// in\n    tag_509:\n        /* \"#utility.yul\":2934:3275   */\n      pop\n        /* \"#utility.yul\":2850:3275   */\n      swap4\n      swap3\n      pop\n      pop\n      pop\n      jump\t// out\n        /* \"#utility.yul\":3295:3635   */\n    tag_408:\n        /* \"#utility.yul\":3351:3356   */\n      0x00\n        /* \"#utility.yul\":3400:3403   */\n      dup3\n        /* \"#utility.yul\":3393:3397   */\n      0x1f\n        /* \"#utility.yul\":3385:3391   */\n      dup4\n        /* \"#utility.yul\":3381:3398   */\n      add\n        /* \"#utility.yul\":3377:3404   */\n      slt\n        /* \"#utility.yul\":3367:3489   */\n      tag_511\n      jumpi\n        /* \"#utility.yul\":3408:3487   */\n      tag_512\n      tag_403\n      jump\t// in\n    tag_512:\n        /* \"#utility.yul\":3367:3489   */\n    tag_511:\n        /* \"#utility.yul\":3525:3531   */\n      dup2\n        /* \"#utility.yul\":3512:3532   */\n      calldataload\n        /* \"#utility.yul\":3550:3629   */\n      tag_513\n        /* \"#utility.yul\":3625:3628   */\n      dup5\n        /* \"#utility.yul\":3617:3623   */\n      dup3\n        /* \"#utility.yul\":3610:3614   */\n      0x20\n        /* \"#utility.yul\":3602:3608   */\n      dup7\n        /* \"#utility.yul\":3598:3615   */\n      add\n        /* \"#utility.yul\":3550:3629   */\n      tag_407\n      jump\t// in\n    tag_513:\n        /* \"#utility.yul\":3541:3629   */\n      swap2\n      pop\n        /* \"#utility.yul\":3357:3635   */\n      pop\n        /* \"#utility.yul\":3295:3635   */\n      swap3\n      swap2\n      pop\n      pop\n      jump\t// out\n        /* \"#utility.yul\":3641:3718   */\n    tag_409:\n        /* \"#utility.yul\":3678:3685   */\n      0x00\n        /* \"#utility.yul\":3707:3712   */\n      dup2\n        /* \"#utility.yul\":3696:3712   */\n      swap1\n      pop\n        /* \"#utility.yul\":3641:3718   */\n      swap2\n      swap1\n      pop\n      jump\t// out\n        /* \"#utility.yul\":3724:3846   */\n    tag_410:\n        /* \"#utility.yul\":3797:3821   */\n      tag_516\n        /* \"#utility.yul\":3815:3820   */\n      dup2\n        /* \"#utility.yul\":3797:3821   */\n      tag_409\n      jump\t// in\n    tag_516:\n        /* \"#utility.yul\":3790:3795   */\n      dup2\n        /* \"#utility.yul\":3787:3822   */\n      eq\n        /* \"#utility.yul\":3777:3840   */\n      tag_517\n      jumpi\n        /* \"#utility.yul\":3836:3837   */\n      0x00\n        /* \"#utility.yul\":3833:3834   */\n      dup1\n        /* \"#utility.yul\":3826:3838   */\n      revert\n        /* \"#utility.yul\":3777:3840   */\n    tag_517:\n        /* \"#utility.yul\":3724:3846   */\n      pop\n      jump\t// out\n        /* \"#utility.yul\":3852:3991   */\n    tag_411:\n        /* \"#utility.yul\":3898:3903   */\n      0x00\n        /* \"#utility.yul\":3936:3942   */\n      dup2\n        /* \"#utility.yul\":3923:3943   */\n      calldataload\n        /* \"#utility.yul\":3914:3943   */\n      swap1\n      pop\n        /* \"#utility.yul\":3952:3985   */\n      tag_519\n        /* \"#utility.yul\":3979:3984   */\n      dup2\n        /* \"#utility.yul\":3952:3985   */\n      tag_410\n      jump\t// in\n    tag_519:\n        /* \"#utility.yul\":3852:3991   */\n      swap3\n      swap2\n      pop\n      pop\n      jump\t// out\n        /* \"#utility.yul\":4042:5646   */\n    tag_412:\n        /* \"#utility.yul\":4123:4128   */\n      0x00\n        /* \"#utility.yul\":4167:4171   */\n      0xa0\n        /* \"#utility.yul\":4155:4164   */\n      dup3\n        /* \"#utility.yul\":4150:4153   */\n      dup5\n        /* \"#utility.yul\":4146:4165   */\n      sub\n        /* \"#utility.yul\":4142:4172   */\n      slt\n        /* \"#utility.yul\":4139:4256   */\n      iszero\n      tag_521\n      jumpi\n        /* \"#utility.yul\":4175:4254   */\n      tag_522\n      tag_397\n      jump\t// in\n    tag_522:\n        /* \"#utility.yul\":4139:4256   */\n    tag_521:\n        /* \"#utility.yul\":4274:4295   */\n      tag_523\n        /* \"#utility.yul\":4290:4294   */\n      0xa0\n        /* \"#utility.yul\":4274:4295   */\n      tag_401\n      jump\t// in\n    tag_523:\n        /* \"#utility.yul\":4265:4295   */\n      swap1\n      pop\n        /* \"#utility.yul\":4364:4365   */\n      0x00\n        /* \"#utility.yul\":4404:4453   */\n      tag_524\n        /* \"#utility.yul\":4449:4452   */\n      dup5\n        /* \"#utility.yul\":4440:4446   */\n      dup3\n        /* \"#utility.yul\":4429:4438   */\n      dup6\n        /* \"#utility.yul\":4425:4447   */\n      add\n        /* \"#utility.yul\":4404:4453   */\n      tag_396\n      jump\t// in\n    tag_524:\n        /* \"#utility.yul\":4397:4401   */\n      0x00\n        /* \"#utility.yul\":4390:4395   */\n      dup4\n        /* \"#utility.yul\":4386:4402   */\n      add\n        /* \"#utility.yul\":4379:4454   */\n      mstore\n        /* \"#utility.yul\":4305:4465   */\n      pop\n        /* \"#utility.yul\":4560:4562   */\n      0x20\n        /* \"#utility.yul\":4549:4558   */\n      dup3\n        /* \"#utility.yul\":4545:4563   */\n      add\n        /* \"#utility.yul\":4532:4564   */\n      calldataload\n        /* \"#utility.yul\":4591:4609   */\n      0xffffffffffffffff\n        /* \"#utility.yul\":4583:4589   */\n      dup2\n        /* \"#utility.yul\":4580:4610   */\n      gt\n        /* \"#utility.yul\":4577:4694   */\n      iszero\n      tag_525\n      jumpi\n        /* \"#utility.yul\":4613:4692   */\n      tag_526\n      tag_402\n      jump\t// in\n    tag_526:\n        /* \"#utility.yul\":4577:4694   */\n    tag_525:\n        /* \"#utility.yul\":4733:4792   */\n      tag_527\n        /* \"#utility.yul\":4788:4791   */\n      dup5\n        /* \"#utility.yul\":4779:4785   */\n      dup3\n        /* \"#utility.yul\":4768:4777   */\n      dup6\n        /* \"#utility.yul\":4764:4786   */\n      add\n        /* \"#utility.yul\":4733:4792   */\n      tag_408\n      jump\t// in\n    tag_527:\n        /* \"#utility.yul\":4726:4730   */\n      0x20\n        /* \"#utility.yul\":4719:4724   */\n      dup4\n        /* \"#utility.yul\":4715:4731   */\n      add\n        /* \"#utility.yul\":4708:4793   */\n      mstore\n        /* \"#utility.yul\":4475:4804   */\n      pop\n        /* \"#utility.yul\":4863:4865   */\n      0x40\n        /* \"#utility.yul\":4904:4953   */\n      tag_528\n        /* \"#utility.yul\":4949:4952   */\n      dup5\n        /* \"#utility.yul\":4940:4946   */\n      dup3\n        /* \"#utility.yul\":4929:4938   */\n      dup6\n        /* \"#utility.yul\":4925:4947   */\n      add\n        /* \"#utility.yul\":4904:4953   */\n      tag_411\n      jump\t// in\n    tag_528:\n        /* \"#utility.yul\":4897:4901   */\n      0x40\n        /* \"#utility.yul\":4890:4895   */\n      dup4\n        /* \"#utility.yul\":4886:4902   */\n      add\n        /* \"#utility.yul\":4879:4954   */\n      mstore\n        /* \"#utility.yul\":4814:4965   */\n      pop\n        /* \"#utility.yul\":5061:5063   */\n      0x60\n        /* \"#utility.yul\":5050:5059   */\n      dup3\n        /* \"#utility.yul\":5046:5064   */\n      add\n        /* \"#utility.yul\":5033:5065   */\n      calldataload\n        /* \"#utility.yul\":5092:5110   */\n      0xffffffffffffffff\n        /* \"#utility.yul\":5084:5090   */\n      dup2\n        /* \"#utility.yul\":5081:5111   */\n      gt\n        /* \"#utility.yul\":5078:5195   */\n      iszero\n      tag_529\n      jumpi\n        /* \"#utility.yul\":5114:5193   */\n      tag_530\n      tag_402\n      jump\t// in\n    tag_530:\n        /* \"#utility.yul\":5078:5195   */\n    tag_529:\n        /* \"#utility.yul\":5234:5293   */\n      tag_531\n        /* \"#utility.yul\":5289:5292   */\n      dup5\n        /* \"#utility.yul\":5280:5286   */\n      dup3\n        /* \"#utility.yul\":5269:5278   */\n      dup6\n        /* \"#utility.yul\":5265:5287   */\n      add\n        /* \"#utility.yul\":5234:5293   */\n      tag_408\n      jump\t// in\n    tag_531:\n        /* \"#utility.yul\":5227:5231   */\n      0x60\n        /* \"#utility.yul\":5220:5225   */\n      dup4\n        /* \"#utility.yul\":5216:5232   */\n      add\n        /* \"#utility.yul\":5209:5294   */\n      mstore\n        /* \"#utility.yul\":4975:5305   */\n      pop\n        /* \"#utility.yul\":5394:5397   */\n      0x80\n        /* \"#utility.yul\":5383:5392   */\n      dup3\n        /* \"#utility.yul\":5379:5398   */\n      add\n        /* \"#utility.yul\":5366:5399   */\n      calldataload\n        /* \"#utility.yul\":5426:5444   */\n      0xffffffffffffffff\n        /* \"#utility.yul\":5418:5424   */\n      dup2\n        /* \"#utility.yul\":5415:5445   */\n      gt\n        /* \"#utility.yul\":5412:5529   */\n      iszero\n      tag_532\n      jumpi\n        /* \"#utility.yul\":5448:5527   */\n      tag_533\n      tag_402\n      jump\t// in\n    tag_533:\n        /* \"#utility.yul\":5412:5529   */\n    tag_532:\n        /* \"#utility.yul\":5568:5627   */\n      tag_534\n        /* \"#utility.yul\":5623:5626   */\n      dup5\n        /* \"#utility.yul\":5614:5620   */\n      dup3\n        /* \"#utility.yul\":5603:5612   */\n      dup6\n        /* \"#utility.yul\":5599:5621   */\n      add\n        /* \"#utility.yul\":5568:5627   */\n      tag_408\n      jump\t// in\n    tag_534:\n        /* \"#utility.yul\":5561:5565   */\n      0x80\n        /* \"#utility.yul\":5554:5559   */\n      dup4\n        /* \"#utility.yul\":5550:5566   */\n      add\n        /* \"#utility.yul\":5543:5628   */\n      mstore\n        /* \"#utility.yul\":5315:5639   */\n      pop\n        /* \"#utility.yul\":4042:5646   */\n      swap3\n      swap2\n      pop\n      pop\n      jump\t// out\n        /* \"#utility.yul\":5652:5742   */\n    tag_413:\n        /* \"#utility.yul\":5686:5693   */\n      0x00\n        /* \"#utility.yul\":5729:5734   */\n      dup2\n        /* \"#utility.yul\":5722:5735   */\n      iszero\n        /* \"#utility.yul\":5715:5736   */\n      iszero\n        /* \"#utility.yul\":5704:5736   */\n      swap1\n      pop\n        /* \"#utility.yul\":5652:5742   */\n      swap2\n      swap1\n      pop\n      jump\t// out\n        /* \"#utility.yul\":5748:5864   */\n    tag_414:\n        /* \"#utility.yul\":5818:5839   */\n      tag_537\n        /* \"#utility.yul\":5833:5838   */\n      dup2\n        /* \"#utility.yul\":5818:5839   */\n      tag_413\n      jump\t// in\n    tag_537:\n        /* \"#utility.yul\":5811:5816   */\n      dup2\n        /* \"#utility.yul\":5808:5840   */\n      eq\n        /* \"#utility.yul\":5798:5858   */\n      tag_538\n      jumpi\n        /* \"#utility.yul\":5854:5855   */\n      0x00\n        /* \"#utility.yul\":5851:5852   */\n      dup1\n        /* \"#utility.yul\":5844:5856   */\n      revert\n        /* \"#utility.yul\":5798:5858   */\n    tag_538:\n        /* \"#utility.yul\":5748:5864   */\n      pop\n      jump\t// out\n        /* \"#utility.yul\":5870:6003   */\n    tag_415:\n        /* \"#utility.yul\":5913:5918   */\n      0x00\n        /* \"#utility.yul\":5951:5957   */\n      dup2\n        /* \"#utility.yul\":5938:5958   */\n      calldataload\n        /* \"#utility.yul\":5929:5958   */\n      swap1\n      pop\n        /* \"#utility.yul\":5967:5997   */\n      tag_540\n        /* \"#utility.yul\":5991:5996   */\n      dup2\n        /* \"#utility.yul\":5967:5997   */\n      tag_414\n      jump\t// in\n    tag_540:\n        /* \"#utility.yul\":5870:6003   */\n      swap3\n      swap2\n      pop\n      pop\n      jump\t// out\n        /* \"#utility.yul\":6049:9333   */\n    tag_416:\n        /* \"#utility.yul\":6125:6130   */\n      0x00\n        /* \"#utility.yul\":6169:6175   */\n      0x0140\n        /* \"#utility.yul\":6157:6166   */\n      dup3\n        /* \"#utility.yul\":6152:6155   */\n      dup5\n        /* \"#utility.yul\":6148:6167   */\n      sub\n        /* \"#utility.yul\":6144:6176   */\n      slt\n        /* \"#utility.yul\":6141:6260   */\n      iszero\n      tag_542\n      jumpi\n        /* \"#utility.yul\":6179:6258   */\n      tag_543\n      tag_397\n      jump\t// in\n    tag_543:\n        /* \"#utility.yul\":6141:6260   */\n    tag_542:\n        /* \"#utility.yul\":6278:6301   */\n      tag_544\n        /* \"#utility.yul\":6294:6300   */\n      0x0140\n        /* \"#utility.yul\":6278:6301   */\n      tag_401\n      jump\t// in\n    tag_544:\n        /* \"#utility.yul\":6269:6301   */\n      swap1\n      pop\n        /* \"#utility.yul\":6371:6372   */\n      0x00\n        /* \"#utility.yul\":6411:6460   */\n      tag_545\n        /* \"#utility.yul\":6456:6459   */\n      dup5\n        /* \"#utility.yul\":6447:6453   */\n      dup3\n        /* \"#utility.yul\":6436:6445   */\n      dup6\n        /* \"#utility.yul\":6432:6454   */\n      add\n        /* \"#utility.yul\":6411:6460   */\n      tag_396\n      jump\t// in\n    tag_545:\n        /* \"#utility.yul\":6404:6408   */\n      0x00\n        /* \"#utility.yul\":6397:6402   */\n      dup4\n        /* \"#utility.yul\":6393:6409   */\n      add\n        /* \"#utility.yul\":6386:6461   */\n      mstore\n        /* \"#utility.yul\":6311:6472   */\n      pop\n        /* \"#utility.yul\":6560:6562   */\n      0x20\n        /* \"#utility.yul\":6549:6558   */\n      dup3\n        /* \"#utility.yul\":6545:6563   */\n      add\n        /* \"#utility.yul\":6532:6564   */\n      calldataload\n        /* \"#utility.yul\":6591:6609   */\n      0xffffffffffffffff\n        /* \"#utility.yul\":6583:6589   */\n      dup2\n        /* \"#utility.yul\":6580:6610   */\n      gt\n        /* \"#utility.yul\":6577:6694   */\n      iszero\n      tag_546\n      jumpi\n        /* \"#utility.yul\":6613:6692   */\n      tag_547\n      tag_402\n      jump\t// in\n    tag_547:\n        /* \"#utility.yul\":6577:6694   */\n    tag_546:\n        /* \"#utility.yul\":6733:6792   */\n      tag_548\n        /* \"#utility.yul\":6788:6791   */\n      dup5\n        /* \"#utility.yul\":6779:6785   */\n      dup3\n        /* \"#utility.yul\":6768:6777   */\n      dup6\n        /* \"#utility.yul\":6764:6786   */\n      add\n        /* \"#utility.yul\":6733:6792   */\n      tag_408\n      jump\t// in\n    tag_548:\n        /* \"#utility.yul\":6726:6730   */\n      0x20\n        /* \"#utility.yul\":6719:6724   */\n      dup4\n        /* \"#utility.yul\":6715:6731   */\n      add\n        /* \"#utility.yul\":6708:6793   */\n      mstore\n        /* \"#utility.yul\":6482:6804   */\n      pop\n        /* \"#utility.yul\":6900:6902   */\n      0x40\n        /* \"#utility.yul\":6889:6898   */\n      dup3\n        /* \"#utility.yul\":6885:6903   */\n      add\n        /* \"#utility.yul\":6872:6904   */\n      calldataload\n        /* \"#utility.yul\":6931:6949   */\n      0xffffffffffffffff\n        /* \"#utility.yul\":6923:6929   */\n      dup2\n        /* \"#utility.yul\":6920:6950   */\n      gt\n        /* \"#utility.yul\":6917:7034   */\n      iszero\n      tag_549\n      jumpi\n        /* \"#utility.yul\":6953:7032   */\n      tag_550\n      tag_402\n      jump\t// in\n    tag_550:\n        /* \"#utility.yul\":6917:7034   */\n    tag_549:\n        /* \"#utility.yul\":7073:7132   */\n      tag_551\n        /* \"#utility.yul\":7128:7131   */\n      dup5\n        /* \"#utility.yul\":7119:7125   */\n      dup3\n        /* \"#utility.yul\":7108:7117   */\n      dup6\n        /* \"#utility.yul\":7104:7126   */\n      add\n        /* \"#utility.yul\":7073:7132   */\n      tag_408\n      jump\t// in\n    tag_551:\n        /* \"#utility.yul\":7066:7070   */\n      0x40\n        /* \"#utility.yul\":7059:7064   */\n      dup4\n        /* \"#utility.yul\":7055:7071   */\n      add\n        /* \"#utility.yul\":7048:7133   */\n      mstore\n        /* \"#utility.yul\":6814:7144   */\n      pop\n        /* \"#utility.yul\":7236:7238   */\n      0x60\n        /* \"#utility.yul\":7225:7234   */\n      dup3\n        /* \"#utility.yul\":7221:7239   */\n      add\n        /* \"#utility.yul\":7208:7240   */\n      calldataload\n        /* \"#utility.yul\":7267:7285   */\n      0xffffffffffffffff\n        /* \"#utility.yul\":7259:7265   */\n      dup2\n        /* \"#utility.yul\":7256:7286   */\n      gt\n        /* \"#utility.yul\":7253:7370   */\n      iszero\n      tag_552\n      jumpi\n        /* \"#utility.yul\":7289:7368   */\n      tag_553\n      tag_402\n      jump\t// in\n    tag_553:\n        /* \"#utility.yul\":7253:7370   */\n    tag_552:\n        /* \"#utility.yul\":7409:7468   */\n      tag_554\n        /* \"#utility.yul\":7464:7467   */\n      dup5\n        /* \"#utility.yul\":7455:7461   */\n      dup3\n        /* \"#utility.yul\":7444:7453   */\n      dup6\n        /* \"#utility.yul\":7440:7462   */\n      add\n        /* \"#utility.yul\":7409:7468   */\n      tag_408\n      jump\t// in\n    tag_554:\n        /* \"#utility.yul\":7402:7406   */\n      0x60\n        /* \"#utility.yul\":7395:7400   */\n      dup4\n        /* \"#utility.yul\":7391:7407   */\n      add\n        /* \"#utility.yul\":7384:7469   */\n      mstore\n        /* \"#utility.yul\":7154:7480   */\n      pop\n        /* \"#utility.yul\":7572:7575   */\n      0x80\n        /* \"#utility.yul\":7561:7570   */\n      dup3\n        /* \"#utility.yul\":7557:7576   */\n      add\n        /* \"#utility.yul\":7544:7577   */\n      calldataload\n        /* \"#utility.yul\":7604:7622   */\n      0xffffffffffffffff\n        /* \"#utility.yul\":7596:7602   */\n      dup2\n        /* \"#utility.yul\":7593:7623   */\n      gt\n        /* \"#utility.yul\":7590:7707   */\n      iszero\n      tag_555\n      jumpi\n        /* \"#utility.yul\":7626:7705   */\n      tag_556\n      tag_402\n      jump\t// in\n    tag_556:\n        /* \"#utility.yul\":7590:7707   */\n    tag_555:\n        /* \"#utility.yul\":7746:7805   */\n      tag_557\n        /* \"#utility.yul\":7801:7804   */\n      dup5\n        /* \"#utility.yul\":7792:7798   */\n      dup3\n        /* \"#utility.yul\":7781:7790   */\n      dup6\n        /* \"#utility.yul\":7777:7799   */\n      add\n        /* \"#utility.yul\":7746:7805   */\n      tag_408\n      jump\t// in\n    tag_557:\n        /* \"#utility.yul\":7739:7743   */\n      0x80\n        /* \"#utility.yul\":7732:7737   */\n      dup4\n        /* \"#utility.yul\":7728:7744   */\n      add\n        /* \"#utility.yul\":7721:7806   */\n      mstore\n        /* \"#utility.yul\":7490:7817   */\n      pop\n        /* \"#utility.yul\":7902:7905   */\n      0xa0\n        /* \"#utility.yul\":7891:7900   */\n      dup3\n        /* \"#utility.yul\":7887:7906   */\n      add\n        /* \"#utility.yul\":7874:7907   */\n      calldataload\n        /* \"#utility.yul\":7934:7952   */\n      0xffffffffffffffff\n        /* \"#utility.yul\":7926:7932   */\n      dup2\n        /* \"#utility.yul\":7923:7953   */\n      gt\n        /* \"#utility.yul\":7920:8037   */\n      iszero\n      tag_558\n      jumpi\n        /* \"#utility.yul\":7956:8035   */\n      tag_559\n      tag_402\n      jump\t// in\n    tag_559:\n        /* \"#utility.yul\":7920:8037   */\n    tag_558:\n        /* \"#utility.yul\":8076:8135   */\n      tag_560\n        /* \"#utility.yul\":8131:8134   */\n      dup5\n        /* \"#utility.yul\":8122:8128   */\n      dup3\n        /* \"#utility.yul\":8111:8120   */\n      dup6\n        /* \"#utility.yul\":8107:8129   */\n      add\n        /* \"#utility.yul\":8076:8135   */\n      tag_408\n      jump\t// in\n    tag_560:\n        /* \"#utility.yul\":8069:8073   */\n      0xa0\n        /* \"#utility.yul\":8062:8067   */\n      dup4\n        /* \"#utility.yul\":8058:8074   */\n      add\n        /* \"#utility.yul\":8051:8136   */\n      mstore\n        /* \"#utility.yul\":7827:8147   */\n      pop\n        /* \"#utility.yul\":8240:8243   */\n      0xc0\n        /* \"#utility.yul\":8229:8238   */\n      dup3\n        /* \"#utility.yul\":8225:8244   */\n      add\n        /* \"#utility.yul\":8212:8245   */\n      calldataload\n        /* \"#utility.yul\":8272:8290   */\n      0xffffffffffffffff\n        /* \"#utility.yul\":8264:8270   */\n      dup2\n        /* \"#utility.yul\":8261:8291   */\n      gt\n        /* \"#utility.yul\":8258:8375   */\n      iszero\n      tag_561\n      jumpi\n        /* \"#utility.yul\":8294:8373   */\n      tag_562\n      tag_402\n      jump\t// in\n    tag_562:\n        /* \"#utility.yul\":8258:8375   */\n    tag_561:\n        /* \"#utility.yul\":8414:8473   */\n      tag_563\n        /* \"#utility.yul\":8469:8472   */\n      dup5\n        /* \"#utility.yul\":8460:8466   */\n      dup3\n        /* \"#utility.yul\":8449:8458   */\n      dup6\n        /* \"#utility.yul\":8445:8467   */\n      add\n        /* \"#utility.yul\":8414:8473   */\n      tag_408\n      jump\t// in\n    tag_563:\n        /* \"#utility.yul\":8407:8411   */\n      0xc0\n        /* \"#utility.yul\":8400:8405   */\n      dup4\n        /* \"#utility.yul\":8396:8412   */\n      add\n        /* \"#utility.yul\":8389:8474   */\n      mstore\n        /* \"#utility.yul\":8157:8485   */\n      pop\n        /* \"#utility.yul\":8576:8579   */\n      0xe0\n        /* \"#utility.yul\":8565:8574   */\n      dup3\n        /* \"#utility.yul\":8561:8580   */\n      add\n        /* \"#utility.yul\":8548:8581   */\n      calldataload\n        /* \"#utility.yul\":8608:8626   */\n      0xffffffffffffffff\n        /* \"#utility.yul\":8600:8606   */\n      dup2\n        /* \"#utility.yul\":8597:8627   */\n      gt\n        /* \"#utility.yul\":8594:8711   */\n      iszero\n      tag_564\n      jumpi\n        /* \"#utility.yul\":8630:8709   */\n      tag_565\n      tag_402\n      jump\t// in\n    tag_565:\n        /* \"#utility.yul\":8594:8711   */\n    tag_564:\n        /* \"#utility.yul\":8750:8809   */\n      tag_566\n        /* \"#utility.yul\":8805:8808   */\n      dup5\n        /* \"#utility.yul\":8796:8802   */\n      dup3\n        /* \"#utility.yul\":8785:8794   */\n      dup6\n        /* \"#utility.yul\":8781:8803   */\n      add\n        /* \"#utility.yul\":8750:8809   */\n      tag_408\n      jump\t// in\n    tag_566:\n        /* \"#utility.yul\":8743:8747   */\n      0xe0\n        /* \"#utility.yul\":8736:8741   */\n      dup4\n        /* \"#utility.yul\":8732:8748   */\n      add\n        /* \"#utility.yul\":8725:8810   */\n      mstore\n        /* \"#utility.yul\":8495:8821   */\n      pop\n        /* \"#utility.yul\":8913:8916   */\n      0x0100\n        /* \"#utility.yul\":8902:8911   */\n      dup3\n        /* \"#utility.yul\":8898:8917   */\n      add\n        /* \"#utility.yul\":8885:8918   */\n      calldataload\n        /* \"#utility.yul\":8945:8963   */\n      0xffffffffffffffff\n        /* \"#utility.yul\":8937:8943   */\n      dup2\n        /* \"#utility.yul\":8934:8964   */\n      gt\n        /* \"#utility.yul\":8931:9048   */\n      iszero\n      tag_567\n      jumpi\n        /* \"#utility.yul\":8967:9046   */\n      tag_568\n      tag_402\n      jump\t// in\n    tag_568:\n        /* \"#utility.yul\":8931:9048   */\n    tag_567:\n        /* \"#utility.yul\":9089:9148   */\n      tag_569\n        /* \"#utility.yul\":9144:9147   */\n      dup5\n        /* \"#utility.yul\":9135:9141   */\n      dup3\n        /* \"#utility.yul\":9124:9133   */\n      dup6\n        /* \"#utility.yul\":9120:9142   */\n      add\n        /* \"#utility.yul\":9089:9148   */\n      tag_408\n      jump\t// in\n    tag_569:\n        /* \"#utility.yul\":9080:9086   */\n      0x0100\n        /* \"#utility.yul\":9073:9078   */\n      dup4\n        /* \"#utility.yul\":9069:9087   */\n      add\n        /* \"#utility.yul\":9062:9149   */\n      mstore\n        /* \"#utility.yul\":8831:9160   */\n      pop\n        /* \"#utility.yul\":9224:9227   */\n      0x0120\n        /* \"#utility.yul\":9268:9314   */\n      tag_570\n        /* \"#utility.yul\":9310:9313   */\n      dup5\n        /* \"#utility.yul\":9301:9307   */\n      dup3\n        /* \"#utility.yul\":9290:9299   */\n      dup6\n        /* \"#utility.yul\":9286:9308   */\n      add\n        /* \"#utility.yul\":9268:9314   */\n      tag_415\n      jump\t// in\n    tag_570:\n        /* \"#utility.yul\":9259:9265   */\n      0x0120\n        /* \"#utility.yul\":9252:9257   */\n      dup4\n        /* \"#utility.yul\":9248:9266   */\n      add\n        /* \"#utility.yul\":9241:9315   */\n      mstore\n        /* \"#utility.yul\":9170:9326   */\n      pop\n        /* \"#utility.yul\":6049:9333   */\n      swap3\n      swap2\n      pop\n      pop\n      jump\t// out\n        /* \"#utility.yul\":9339:10251   */\n    tag_19:\n        /* \"#utility.yul\":9466:9472   */\n      0x00\n        /* \"#utility.yul\":9474:9480   */\n      dup1\n        /* \"#utility.yul\":9523:9525   */\n      0x40\n        /* \"#utility.yul\":9511:9520   */\n      dup4\n        /* \"#utility.yul\":9502:9509   */\n      dup6\n        /* \"#utility.yul\":9498:9521   */\n      sub\n        /* \"#utility.yul\":9494:9526   */\n      slt\n        /* \"#utility.yul\":9491:9610   */\n      iszero\n      tag_572\n      jumpi\n        /* \"#utility.yul\":9529:9608   */\n      tag_573\n      tag_391\n      jump\t// in\n    tag_573:\n        /* \"#utility.yul\":9491:9610   */\n    tag_572:\n        /* \"#utility.yul\":9677:9678   */\n      0x00\n        /* \"#utility.yul\":9666:9675   */\n      dup4\n        /* \"#utility.yul\":9662:9679   */\n      add\n        /* \"#utility.yul\":9649:9680   */\n      calldataload\n        /* \"#utility.yul\":9707:9725   */\n      0xffffffffffffffff\n        /* \"#utility.yul\":9699:9705   */\n      dup2\n        /* \"#utility.yul\":9696:9726   */\n      gt\n        /* \"#utility.yul\":9693:9810   */\n      iszero\n      tag_574\n      jumpi\n        /* \"#utility.yul\":9729:9808   */\n      tag_575\n      tag_392\n      jump\t// in\n    tag_575:\n        /* \"#utility.yul\":9693:9810   */\n    tag_574:\n        /* \"#utility.yul\":9834:9919   */\n      tag_576\n        /* \"#utility.yul\":9911:9918   */\n      dup6\n        /* \"#utility.yul\":9902:9908   */\n      dup3\n        /* \"#utility.yul\":9891:9900   */\n      dup7\n        /* \"#utility.yul\":9887:9909   */\n      add\n        /* \"#utility.yul\":9834:9919   */\n      tag_412\n      jump\t// in\n    tag_576:\n        /* \"#utility.yul\":9824:9919   */\n      swap3\n      pop\n        /* \"#utility.yul\":9620:9929   */\n      pop\n        /* \"#utility.yul\":9996:9998   */\n      0x20\n        /* \"#utility.yul\":9985:9994   */\n      dup4\n        /* \"#utility.yul\":9981:9999   */\n      add\n        /* \"#utility.yul\":9968:10000   */\n      calldataload\n        /* \"#utility.yul\":10027:10045   */\n      0xffffffffffffffff\n        /* \"#utility.yul\":10019:10025   */\n      dup2\n        /* \"#utility.yul\":10016:10046   */\n      gt\n        /* \"#utility.yul\":10013:10130   */\n      iszero\n      tag_577\n      jumpi\n        /* \"#utility.yul\":10049:10128   */\n      tag_578\n      tag_392\n      jump\t// in\n    tag_578:\n        /* \"#utility.yul\":10013:10130   */\n    tag_577:\n        /* \"#utility.yul\":10154:10234   */\n      tag_579\n        /* \"#utility.yul\":10226:10233   */\n      dup6\n        /* \"#utility.yul\":10217:10223   */\n      dup3\n        /* \"#utility.yul\":10206:10215   */\n      dup7\n        /* \"#utility.yul\":10202:10224   */\n      add\n        /* \"#utility.yul\":10154:10234   */\n      tag_416\n      jump\t// in\n    tag_579:\n        /* \"#utility.yul\":10144:10234   */\n      swap2\n      pop\n        /* \"#utility.yul\":9939:10244   */\n      pop\n        /* \"#utility.yul\":9339:10251   */\n      swap3\n      pop\n      swap3\n      swap1\n      pop\n      jump\t// out\n        /* \"#utility.yul\":10296:14745   */\n    tag_417:\n        /* \"#utility.yul\":10371:10376   */\n      0x00\n        /* \"#utility.yul\":10415:10421   */\n      0x01c0\n        /* \"#utility.yul\":10403:10412   */\n      dup3\n        /* \"#utility.yul\":10398:10401   */\n      dup5\n        /* \"#utility.yul\":10394:10413   */\n      sub\n        /* \"#utility.yul\":10390:10422   */\n      slt\n        /* \"#utility.yul\":10387:10506   */\n      iszero\n      tag_581\n      jumpi\n        /* \"#utility.yul\":10425:10504   */\n      tag_582\n      tag_397\n      jump\t// in\n    tag_582:\n        /* \"#utility.yul\":10387:10506   */\n    tag_581:\n        /* \"#utility.yul\":10524:10547   */\n      tag_583\n        /* \"#utility.yul\":10540:10546   */\n      0x01c0\n        /* \"#utility.yul\":10524:10547   */\n      tag_401\n      jump\t// in\n    tag_583:\n        /* \"#utility.yul\":10515:10547   */\n      swap1\n      pop\n        /* \"#utility.yul\":10617:10618   */\n      0x00\n        /* \"#utility.yul\":10657:10706   */\n      tag_584\n        /* \"#utility.yul\":10702:10705   */\n      dup5\n        /* \"#utility.yul\":10693:10699   */\n      dup3\n        /* \"#utility.yul\":10682:10691   */\n      dup6\n        /* \"#utility.yul\":10678:10700   */\n      add\n        /* \"#utility.yul\":10657:10706   */\n      tag_396\n      jump\t// in\n    tag_584:\n        /* \"#utility.yul\":10650:10654   */\n      0x00\n        /* \"#utility.yul\":10643:10648   */\n      dup4\n        /* \"#utility.yul\":10639:10655   */\n      add\n        /* \"#utility.yul\":10632:10707   */\n      mstore\n        /* \"#utility.yul\":10557:10718   */\n      pop\n        /* \"#utility.yul\":10806:10808   */\n      0x20\n        /* \"#utility.yul\":10795:10804   */\n      dup3\n        /* \"#utility.yul\":10791:10809   */\n      add\n        /* \"#utility.yul\":10778:10810   */\n      calldataload\n        /* \"#utility.yul\":10837:10855   */\n      0xffffffffffffffff\n        /* \"#utility.yul\":10829:10835   */\n      dup2\n        /* \"#utility.yul\":10826:10856   */\n      gt\n        /* \"#utility.yul\":10823:10940   */\n      iszero\n      tag_585\n      jumpi\n        /* \"#utility.yul\":10859:10938   */\n      tag_586\n      tag_402\n      jump\t// in\n    tag_586:\n        /* \"#utility.yul\":10823:10940   */\n    tag_585:\n        /* \"#utility.yul\":10979:11038   */\n      tag_587\n        /* \"#utility.yul\":11034:11037   */\n      dup5\n        /* \"#utility.yul\":11025:11031   */\n      dup3\n        /* \"#utility.yul\":11014:11023   */\n      dup6\n        /* \"#utility.yul\":11010:11032   */\n      add\n        /* \"#utility.yul\":10979:11038   */\n      tag_408\n      jump\t// in\n    tag_587:\n        /* \"#utility.yul\":10972:10976   */\n      0x20\n        /* \"#utility.yul\":10965:10970   */\n      dup4\n        /* \"#utility.yul\":10961:10977   */\n      add\n        /* \"#utility.yul\":10954:11039   */\n      mstore\n        /* \"#utility.yul\":10728:11050   */\n      pop\n        /* \"#utility.yul\":11146:11148   */\n      0x40\n        /* \"#utility.yul\":11135:11144   */\n      dup3\n        /* \"#utility.yul\":11131:11149   */\n      add\n        /* \"#utility.yul\":11118:11150   */\n      calldataload\n        /* \"#utility.yul\":11177:11195   */\n      0xffffffffffffffff\n        /* \"#utility.yul\":11169:11175   */\n      dup2\n        /* \"#utility.yul\":11166:11196   */\n      gt\n        /* \"#utility.yul\":11163:11280   */\n      iszero\n      tag_588\n      jumpi\n        /* \"#utility.yul\":11199:11278   */\n      tag_589\n      tag_402\n      jump\t// in\n    tag_589:\n        /* \"#utility.yul\":11163:11280   */\n    tag_588:\n        /* \"#utility.yul\":11319:11378   */\n      tag_590\n        /* \"#utility.yul\":11374:11377   */\n      dup5\n        /* \"#utility.yul\":11365:11371   */\n      dup3\n        /* \"#utility.yul\":11354:11363   */\n      dup6\n        /* \"#utility.yul\":11350:11372   */\n      add\n        /* \"#utility.yul\":11319:11378   */\n      tag_408\n      jump\t// in\n    tag_590:\n        /* \"#utility.yul\":11312:11316   */\n      0x40\n        /* \"#utility.yul\":11305:11310   */\n      dup4\n        /* \"#utility.yul\":11301:11317   */\n      add\n        /* \"#utility.yul\":11294:11379   */\n      mstore\n        /* \"#utility.yul\":11060:11390   */\n      pop\n        /* \"#utility.yul\":11482:11484   */\n      0x60\n        /* \"#utility.yul\":11471:11480   */\n      dup3\n        /* \"#utility.yul\":11467:11485   */\n      add\n        /* \"#utility.yul\":11454:11486   */\n      calldataload\n        /* \"#utility.yul\":11513:11531   */\n      0xffffffffffffffff\n        /* \"#utility.yul\":11505:11511   */\n      dup2\n        /* \"#utility.yul\":11502:11532   */\n      gt\n        /* \"#utility.yul\":11499:11616   */\n      iszero\n      tag_591\n      jumpi\n        /* \"#utility.yul\":11535:11614   */\n      tag_592\n      tag_402\n      jump\t// in\n    tag_592:\n        /* \"#utility.yul\":11499:11616   */\n    tag_591:\n        /* \"#utility.yul\":11655:11714   */\n      tag_593\n        /* \"#utility.yul\":11710:11713   */\n      dup5\n        /* \"#utility.yul\":11701:11707   */\n      dup3\n        /* \"#utility.yul\":11690:11699   */\n      dup6\n        /* \"#utility.yul\":11686:11708   */\n      add\n        /* \"#utility.yul\":11655:11714   */\n      tag_408\n      jump\t// in\n    tag_593:\n        /* \"#utility.yul\":11648:11652   */\n      0x60\n        /* \"#utility.yul\":11641:11646   */\n      dup4\n        /* \"#utility.yul\":11637:11653   */\n      add\n        /* \"#utility.yul\":11630:11715   */\n      mstore\n        /* \"#utility.yul\":11400:11726   */\n      pop\n        /* \"#utility.yul\":11814:11817   */\n      0x80\n        /* \"#utility.yul\":11803:11812   */\n      dup3\n        /* \"#utility.yul\":11799:11818   */\n      add\n        /* \"#utility.yul\":11786:11819   */\n      calldataload\n        /* \"#utility.yul\":11846:11864   */\n      0xffffffffffffffff\n        /* \"#utility.yul\":11838:11844   */\n      dup2\n        /* \"#utility.yul\":11835:11865   */\n      gt\n        /* \"#utility.yul\":11832:11949   */\n      iszero\n      tag_594\n      jumpi\n        /* \"#utility.yul\":11868:11947   */\n      tag_595\n      tag_402\n      jump\t// in\n    tag_595:\n        /* \"#utility.yul\":11832:11949   */\n    tag_594:\n        /* \"#utility.yul\":11988:12047   */\n      tag_596\n        /* \"#utility.yul\":12043:12046   */\n      dup5\n        /* \"#utility.yul\":12034:12040   */\n      dup3\n        /* \"#utility.yul\":12023:12032   */\n      dup6\n        /* \"#utility.yul\":12019:12041   */\n      add\n        /* \"#utility.yul\":11988:12047   */\n      tag_408\n      jump\t// in\n    tag_596:\n        /* \"#utility.yul\":11981:11985   */\n      0x80\n        /* \"#utility.yul\":11974:11979   */\n      dup4\n        /* \"#utility.yul\":11970:11986   */\n      add\n        /* \"#utility.yul\":11963:12048   */\n      mstore\n        /* \"#utility.yul\":11736:12059   */\n      pop\n        /* \"#utility.yul\":12151:12154   */\n      0xa0\n        /* \"#utility.yul\":12140:12149   */\n      dup3\n        /* \"#utility.yul\":12136:12155   */\n      add\n        /* \"#utility.yul\":12123:12156   */\n      calldataload\n        /* \"#utility.yul\":12183:12201   */\n      0xffffffffffffffff\n        /* \"#utility.yul\":12175:12181   */\n      dup2\n        /* \"#utility.yul\":12172:12202   */\n      gt\n        /* \"#utility.yul\":12169:12286   */\n      iszero\n      tag_597\n      jumpi\n        /* \"#utility.yul\":12205:12284   */\n      tag_598\n      tag_402\n      jump\t// in\n    tag_598:\n        /* \"#utility.yul\":12169:12286   */\n    tag_597:\n        /* \"#utility.yul\":12325:12384   */\n      tag_599\n        /* \"#utility.yul\":12380:12383   */\n      dup5\n        /* \"#utility.yul\":12371:12377   */\n      dup3\n        /* \"#utility.yul\":12360:12369   */\n      dup6\n        /* \"#utility.yul\":12356:12378   */\n      add\n        /* \"#utility.yul\":12325:12384   */\n      tag_408\n      jump\t// in\n    tag_599:\n        /* \"#utility.yul\":12318:12322   */\n      0xa0\n        /* \"#utility.yul\":12311:12316   */\n      dup4\n        /* \"#utility.yul\":12307:12323   */\n      add\n        /* \"#utility.yul\":12300:12385   */\n      mstore\n        /* \"#utility.yul\":12069:12396   */\n      pop\n        /* \"#utility.yul\":12481:12484   */\n      0xc0\n        /* \"#utility.yul\":12470:12479   */\n      dup3\n        /* \"#utility.yul\":12466:12485   */\n      add\n        /* \"#utility.yul\":12453:12486   */\n      calldataload\n        /* \"#utility.yul\":12513:12531   */\n      0xffffffffffffffff\n        /* \"#utility.yul\":12505:12511   */\n      dup2\n        /* \"#utility.yul\":12502:12532   */\n      gt\n        /* \"#utility.yul\":12499:12616   */\n      iszero\n      tag_600\n      jumpi\n        /* \"#utility.yul\":12535:12614   */\n      tag_601\n      tag_402\n      jump\t// in\n    tag_601:\n        /* \"#utility.yul\":12499:12616   */\n    tag_600:\n        /* \"#utility.yul\":12655:12714   */\n      tag_602\n        /* \"#utility.yul\":12710:12713   */\n      dup5\n        /* \"#utility.yul\":12701:12707   */\n      dup3\n        /* \"#utility.yul\":12690:12699   */\n      dup6\n        /* \"#utility.yul\":12686:12708   */\n      add\n        /* \"#utility.yul\":12655:12714   */\n      tag_408\n      jump\t// in\n    tag_602:\n        /* \"#utility.yul\":12648:12652   */\n      0xc0\n        /* \"#utility.yul\":12641:12646   */\n      dup4\n        /* \"#utility.yul\":12637:12653   */\n      add\n        /* \"#utility.yul\":12630:12715   */\n      mstore\n        /* \"#utility.yul\":12406:12726   */\n      pop\n        /* \"#utility.yul\":12819:12822   */\n      0xe0\n        /* \"#utility.yul\":12808:12817   */\n      dup3\n        /* \"#utility.yul\":12804:12823   */\n      add\n        /* \"#utility.yul\":12791:12824   */\n      calldataload\n        /* \"#utility.yul\":12851:12869   */\n      0xffffffffffffffff\n        /* \"#utility.yul\":12843:12849   */\n      dup2\n        /* \"#utility.yul\":12840:12870   */\n      gt\n        /* \"#utility.yul\":12837:12954   */\n      iszero\n      tag_603\n      jumpi\n        /* \"#utility.yul\":12873:12952   */\n      tag_604\n      tag_402\n      jump\t// in\n    tag_604:\n        /* \"#utility.yul\":12837:12954   */\n    tag_603:\n        /* \"#utility.yul\":12993:13052   */\n      tag_605\n        /* \"#utility.yul\":13048:13051   */\n      dup5\n        /* \"#utility.yul\":13039:13045   */\n      dup3\n        /* \"#utility.yul\":13028:13037   */\n      dup6\n        /* \"#utility.yul\":13024:13046   */\n      add\n        /* \"#utility.yul\":12993:13052   */\n      tag_408\n      jump\t// in\n    tag_605:\n        /* \"#utility.yul\":12986:12990   */\n      0xe0\n        /* \"#utility.yul\":12979:12984   */\n      dup4\n        /* \"#utility.yul\":12975:12991   */\n      add\n        /* \"#utility.yul\":12968:13053   */\n      mstore\n        /* \"#utility.yul\":12736:13064   */\n      pop\n        /* \"#utility.yul\":13155:13158   */\n      0x0100\n        /* \"#utility.yul\":13144:13153   */\n      dup3\n        /* \"#utility.yul\":13140:13159   */\n      add\n        /* \"#utility.yul\":13127:13160   */\n      calldataload\n        /* \"#utility.yul\":13187:13205   */\n      0xffffffffffffffff\n        /* \"#utility.yul\":13179:13185   */\n      dup2\n        /* \"#utility.yul\":13176:13206   */\n      gt\n        /* \"#utility.yul\":13173:13290   */\n      iszero\n      tag_606\n      jumpi\n        /* \"#utility.yul\":13209:13288   */\n      tag_607\n      tag_402\n      jump\t// in\n    tag_607:\n        /* \"#utility.yul\":13173:13290   */\n    tag_606:\n        /* \"#utility.yul\":13331:13390   */\n      tag_608\n        /* \"#utility.yul\":13386:13389   */\n      dup5\n        /* \"#utility.yul\":13377:13383   */\n      dup3\n        /* \"#utility.yul\":13366:13375   */\n      dup6\n        /* \"#utility.yul\":13362:13384   */\n      add\n        /* \"#utility.yul\":13331:13390   */\n      tag_408\n      jump\t// in\n    tag_608:\n        /* \"#utility.yul\":13322:13328   */\n      0x0100\n        /* \"#utility.yul\":13315:13320   */\n      dup4\n        /* \"#utility.yul\":13311:13329   */\n      add\n        /* \"#utility.yul\":13304:13391   */\n      mstore\n        /* \"#utility.yul\":13074:13402   */\n      pop\n        /* \"#utility.yul\":13466:13469   */\n      0x0120\n        /* \"#utility.yul\":13510:13556   */\n      tag_609\n        /* \"#utility.yul\":13552:13555   */\n      dup5\n        /* \"#utility.yul\":13543:13549   */\n      dup3\n        /* \"#utility.yul\":13532:13541   */\n      dup6\n        /* \"#utility.yul\":13528:13550   */\n      add\n        /* \"#utility.yul\":13510:13556   */\n      tag_415\n      jump\t// in\n    tag_609:\n        /* \"#utility.yul\":13501:13507   */\n      0x0120\n        /* \"#utility.yul\":13494:13499   */\n      dup4\n        /* \"#utility.yul\":13490:13508   */\n      add\n        /* \"#utility.yul\":13483:13557   */\n      mstore\n        /* \"#utility.yul\":13412:13568   */\n      pop\n        /* \"#utility.yul\":13654:13657   */\n      0x0140\n        /* \"#utility.yul\":13643:13652   */\n      dup3\n        /* \"#utility.yul\":13639:13658   */\n      add\n        /* \"#utility.yul\":13626:13659   */\n      calldataload\n        /* \"#utility.yul\":13686:13704   */\n      0xffffffffffffffff\n        /* \"#utility.yul\":13678:13684   */\n      dup2\n        /* \"#utility.yul\":13675:13705   */\n      gt\n        /* \"#utility.yul\":13672:13789   */\n      iszero\n      tag_610\n      jumpi\n        /* \"#utility.yul\":13708:13787   */\n      tag_611\n      tag_402\n      jump\t// in\n    tag_611:\n        /* \"#utility.yul\":13672:13789   */\n    tag_610:\n        /* \"#utility.yul\":13830:13889   */\n      tag_612\n        /* \"#utility.yul\":13885:13888   */\n      dup5\n        /* \"#utility.yul\":13876:13882   */\n      dup3\n        /* \"#utility.yul\":13865:13874   */\n      dup6\n        /* \"#utility.yul\":13861:13883   */\n      add\n        /* \"#utility.yul\":13830:13889   */\n      tag_408\n      jump\t// in\n    tag_612:\n        /* \"#utility.yul\":13821:13827   */\n      0x0140\n        /* \"#utility.yul\":13814:13819   */\n      dup4\n        /* \"#utility.yul\":13810:13828   */\n      add\n        /* \"#utility.yul\":13803:13890   */\n      mstore\n        /* \"#utility.yul\":13578:13901   */\n      pop\n        /* \"#utility.yul\":13986:13989   */\n      0x0160\n        /* \"#utility.yul\":13975:13984   */\n      dup3\n        /* \"#utility.yul\":13971:13990   */\n      add\n        /* \"#utility.yul\":13958:13991   */\n      calldataload\n        /* \"#utility.yul\":14018:14036   */\n      0xffffffffffffffff\n        /* \"#utility.yul\":14010:14016   */\n      dup2\n        /* \"#utility.yul\":14007:14037   */\n      gt\n        /* \"#utility.yul\":14004:14121   */\n      iszero\n      tag_613\n      jumpi\n        /* \"#utility.yul\":14040:14119   */\n      tag_614\n      tag_402\n      jump\t// in\n    tag_614:\n        /* \"#utility.yul\":14004:14121   */\n    tag_613:\n        /* \"#utility.yul\":14162:14221   */\n      tag_615\n        /* \"#utility.yul\":14217:14220   */\n      dup5\n        /* \"#utility.yul\":14208:14214   */\n      dup3\n        /* \"#utility.yul\":14197:14206   */\n      dup6\n        /* \"#utility.yul\":14193:14215   */\n      add\n        /* \"#utility.yul\":14162:14221   */\n      tag_408\n      jump\t// in\n    tag_615:\n        /* \"#utility.yul\":14153:14159   */\n      0x0160\n        /* \"#utility.yul\":14146:14151   */\n      dup4\n        /* \"#utility.yul\":14142:14160   */\n      add\n        /* \"#utility.yul\":14135:14222   */\n      mstore\n        /* \"#utility.yul\":13911:14233   */\n      pop\n        /* \"#utility.yul\":14294:14297   */\n      0x0180\n        /* \"#utility.yul\":14338:14387   */\n      tag_616\n        /* \"#utility.yul\":14383:14386   */\n      dup5\n        /* \"#utility.yul\":14374:14380   */\n      dup3\n        /* \"#utility.yul\":14363:14372   */\n      dup6\n        /* \"#utility.yul\":14359:14381   */\n      add\n        /* \"#utility.yul\":14338:14387   */\n      tag_396\n      jump\t// in\n    tag_616:\n        /* \"#utility.yul\":14329:14335   */\n      0x0180\n        /* \"#utility.yul\":14322:14327   */\n      dup4\n        /* \"#utility.yul\":14318:14336   */\n      add\n        /* \"#utility.yul\":14311:14388   */\n      mstore\n        /* \"#utility.yul\":14243:14399   */\n      pop\n        /* \"#utility.yul\":14491:14494   */\n      0x01a0\n        /* \"#utility.yul\":14480:14489   */\n      dup3\n        /* \"#utility.yul\":14476:14495   */\n      add\n        /* \"#utility.yul\":14463:14496   */\n      calldataload\n        /* \"#utility.yul\":14523:14541   */\n      0xffffffffffffffff\n        /* \"#utility.yul\":14515:14521   */\n      dup2\n        /* \"#utility.yul\":14512:14542   */\n      gt\n        /* \"#utility.yul\":14509:14626   */\n      iszero\n      tag_617\n      jumpi\n        /* \"#utility.yul\":14545:14624   */\n      tag_618\n      tag_402\n      jump\t// in\n    tag_618:\n        /* \"#utility.yul\":14509:14626   */\n    tag_617:\n        /* \"#utility.yul\":14667:14726   */\n      tag_619\n        /* \"#utility.yul\":14722:14725   */\n      dup5\n        /* \"#utility.yul\":14713:14719   */\n      dup3\n        /* \"#utility.yul\":14702:14711   */\n      dup6\n        /* \"#utility.yul\":14698:14720   */\n      add\n        /* \"#utility.yul\":14667:14726   */\n      tag_408\n      jump\t// in\n    tag_619:\n        /* \"#utility.yul\":14658:14664   */\n      0x01a0\n        /* \"#utility.yul\":14651:14656   */\n      dup4\n        /* \"#utility.yul\":14647:14665   */\n      add\n        /* \"#utility.yul\":14640:14727   */\n      mstore\n        /* \"#utility.yul\":14409:14738   */\n      pop\n        /* \"#utility.yul\":10296:14745   */\n      swap3\n      swap2\n      pop\n      pop\n      jump\t// out\n        /* \"#utility.yul\":14751:15661   */\n    tag_29:\n        /* \"#utility.yul\":14877:14883   */\n      0x00\n        /* \"#utility.yul\":14885:14891   */\n      dup1\n        /* \"#utility.yul\":14934:14936   */\n      0x40\n        /* \"#utility.yul\":14922:14931   */\n      dup4\n        /* \"#utility.yul\":14913:14920   */\n      dup6\n        /* \"#utility.yul\":14909:14932   */\n      sub\n        /* \"#utility.yul\":14905:14937   */\n      slt\n        /* \"#utility.yul\":14902:15021   */\n      iszero\n      tag_621\n      jumpi\n        /* \"#utility.yul\":14940:15019   */\n      tag_622\n      tag_391\n      jump\t// in\n    tag_622:\n        /* \"#utility.yul\":14902:15021   */\n    tag_621:\n        /* \"#utility.yul\":15088:15089   */\n      0x00\n        /* \"#utility.yul\":15077:15086   */\n      dup4\n        /* \"#utility.yul\":15073:15090   */\n      add\n        /* \"#utility.yul\":15060:15091   */\n      calldataload\n        /* \"#utility.yul\":15118:15136   */\n      0xffffffffffffffff\n        /* \"#utility.yul\":15110:15116   */\n      dup2\n        /* \"#utility.yul\":15107:15137   */\n      gt\n        /* \"#utility.yul\":15104:15221   */\n      iszero\n      tag_623\n      jumpi\n        /* \"#utility.yul\":15140:15219   */\n      tag_624\n      tag_392\n      jump\t// in\n    tag_624:\n        /* \"#utility.yul\":15104:15221   */\n    tag_623:\n        /* \"#utility.yul\":15245:15330   */\n      tag_625\n        /* \"#utility.yul\":15322:15329   */\n      dup6\n        /* \"#utility.yul\":15313:15319   */\n      dup3\n        /* \"#utility.yul\":15302:15311   */\n      dup7\n        /* \"#utility.yul\":15298:15320   */\n      add\n        /* \"#utility.yul\":15245:15330   */\n      tag_412\n      jump\t// in\n    tag_625:\n        /* \"#utility.yul\":15235:15330   */\n      swap3\n      pop\n        /* \"#utility.yul\":15031:15340   */\n      pop\n        /* \"#utility.yul\":15407:15409   */\n      0x20\n        /* \"#utility.yul\":15396:15405   */\n      dup4\n        /* \"#utility.yul\":15392:15410   */\n      add\n        /* \"#utility.yul\":15379:15411   */\n      calldataload\n        /* \"#utility.yul\":15438:15456   */\n      0xffffffffffffffff\n        /* \"#utility.yul\":15430:15436   */\n      dup2\n        /* \"#utility.yul\":15427:15457   */\n      gt\n        /* \"#utility.yul\":15424:15541   */\n      iszero\n      tag_626\n      jumpi\n        /* \"#utility.yul\":15460:15539   */\n      tag_627\n      tag_392\n      jump\t// in\n    tag_627:\n        /* \"#utility.yul\":15424:15541   */\n    tag_626:\n        /* \"#utility.yul\":15565:15644   */\n      tag_628\n        /* \"#utility.yul\":15636:15643   */\n      dup6\n        /* \"#utility.yul\":15627:15633   */\n      dup3\n        /* \"#utility.yul\":15616:15625   */\n      dup7\n        /* \"#utility.yul\":15612:15634   */\n      add\n        /* \"#utility.yul\":15565:15644   */\n      tag_417\n      jump\t// in\n    tag_628:\n        /* \"#utility.yul\":15555:15644   */\n      swap2\n      pop\n        /* \"#utility.yul\":15350:15654   */\n      pop\n        /* \"#utility.yul\":14751:15661   */\n      swap3\n      pop\n      swap3\n      swap1\n      pop\n      jump\t// out\n        /* \"#utility.yul\":15667:15775   */\n    tag_418:\n        /* \"#utility.yul\":15744:15768   */\n      tag_630\n        /* \"#utility.yul\":15762:15767   */\n      dup2\n        /* \"#utility.yul\":15744:15768   */\n      tag_394\n      jump\t// in\n    tag_630:\n        /* \"#utility.yul\":15739:15742   */\n      dup3\n        /* \"#utility.yul\":15732:15769   */\n      mstore\n        /* \"#utility.yul\":15667:15775   */\n      pop\n      pop\n      jump\t// out\n        /* \"#utility.yul\":15781:15880   */\n    tag_419:\n        /* \"#utility.yul\":15833:15839   */\n      0x00\n        /* \"#utility.yul\":15867:15872   */\n      dup2\n        /* \"#utility.yul\":15861:15873   */\n      mload\n        /* \"#utility.yul\":15851:15873   */\n      swap1\n      pop\n        /* \"#utility.yul\":15781:15880   */\n      swap2\n      swap1\n      pop\n      jump\t// out\n        /* \"#utility.yul\":15886:16045   */\n    tag_420:\n        /* \"#utility.yul\":15960:15971   */\n      0x00\n        /* \"#utility.yul\":15994:16000   */\n      dup3\n        /* \"#utility.yul\":15989:15992   */\n      dup3\n        /* \"#utility.yul\":15982:16001   */\n      mstore\n        /* \"#utility.yul\":16034:16038   */\n      0x20\n        /* \"#utility.yul\":16029:16032   */\n      dup3\n        /* \"#utility.yul\":16025:16039   */\n      add\n        /* \"#utility.yul\":16010:16039   */\n      swap1\n      pop\n        /* \"#utility.yul\":15886:16045   */\n      swap3\n      swap2\n      pop\n      pop\n      jump\t// out\n        /* \"#utility.yul\":16051:16297   */\n    tag_421:\n        /* \"#utility.yul\":16132:16133   */\n      0x00\n        /* \"#utility.yul\":16142:16255   */\n    tag_634:\n        /* \"#utility.yul\":16156:16162   */\n      dup4\n        /* \"#utility.yul\":16153:16154   */\n      dup2\n        /* \"#utility.yul\":16150:16163   */\n      lt\n        /* \"#utility.yul\":16142:16255   */\n      iszero\n      tag_636\n      jumpi\n        /* \"#utility.yul\":16241:16242   */\n      dup1\n        /* \"#utility.yul\":16236:16239   */\n      dup3\n        /* \"#utility.yul\":16232:16243   */\n      add\n        /* \"#utility.yul\":16226:16244   */\n      mload\n        /* \"#utility.yul\":16222:16223   */\n      dup2\n        /* \"#utility.yul\":16217:16220   */\n      dup5\n        /* \"#utility.yul\":16213:16224   */\n      add\n        /* \"#utility.yul\":16206:16245   */\n      mstore\n        /* \"#utility.yul\":16178:16180   */\n      0x20\n        /* \"#utility.yul\":16175:16176   */\n      dup2\n        /* \"#utility.yul\":16171:16181   */\n      add\n        /* \"#utility.yul\":16166:16181   */\n      swap1\n      pop\n        /* \"#utility.yul\":16142:16255   */\n      jump(tag_634)\n    tag_636:\n        /* \"#utility.yul\":16289:16290   */\n      0x00\n        /* \"#utility.yul\":16280:16286   */\n      dup5\n        /* \"#utility.yul\":16275:16278   */\n      dup5\n        /* \"#utility.yul\":16271:16287   */\n      add\n        /* \"#utility.yul\":16264:16291   */\n      mstore\n        /* \"#utility.yul\":16113:16297   */\n      pop\n        /* \"#utility.yul\":16051:16297   */\n      pop\n      pop\n      pop\n      jump\t// out\n        /* \"#utility.yul\":16303:16660   */\n    tag_422:\n        /* \"#utility.yul\":16381:16384   */\n      0x00\n        /* \"#utility.yul\":16409:16448   */\n      tag_638\n        /* \"#utility.yul\":16442:16447   */\n      dup3\n        /* \"#utility.yul\":16409:16448   */\n      tag_419\n      jump\t// in\n    tag_638:\n        /* \"#utility.yul\":16464:16525   */\n      tag_639\n        /* \"#utility.yul\":16518:16524   */\n      dup2\n        /* \"#utility.yul\":16513:16516   */\n      dup6\n        /* \"#utility.yul\":16464:16525   */\n      tag_420\n      jump\t// in\n    tag_639:\n        /* \"#utility.yul\":16457:16525   */\n      swap4\n      pop\n        /* \"#utility.yul\":16534:16599   */\n      tag_640\n        /* \"#utility.yul\":16592:16598   */\n      dup2\n        /* \"#utility.yul\":16587:16590   */\n      dup6\n        /* \"#utility.yul\":16580:16584   */\n      0x20\n        /* \"#utility.yul\":16573:16578   */\n      dup7\n        /* \"#utility.yul\":16569:16585   */\n      add\n        /* \"#utility.yul\":16534:16599   */\n      tag_421\n      jump\t// in\n    tag_640:\n        /* \"#utility.yul\":16624:16653   */\n      tag_641\n        /* \"#utility.yul\":16646:16652   */\n      dup2\n        /* \"#utility.yul\":16624:16653   */\n      tag_398\n      jump\t// in\n    tag_641:\n        /* \"#utility.yul\":16619:16622   */\n      dup5\n        /* \"#utility.yul\":16615:16654   */\n      add\n        /* \"#utility.yul\":16608:16654   */\n      swap2\n      pop\n        /* \"#utility.yul\":16385:16660   */\n      pop\n        /* \"#utility.yul\":16303:16660   */\n      swap3\n      swap2\n      pop\n      pop\n      jump\t// out\n        /* \"#utility.yul\":16666:16774   */\n    tag_423:\n        /* \"#utility.yul\":16743:16767   */\n      tag_643\n        /* \"#utility.yul\":16761:16766   */\n      dup2\n        /* \"#utility.yul\":16743:16767   */\n      tag_409\n      jump\t// in\n    tag_643:\n        /* \"#utility.yul\":16738:16741   */\n      dup3\n        /* \"#utility.yul\":16731:16768   */\n      mstore\n        /* \"#utility.yul\":16666:16774   */\n      pop\n      pop\n      jump\t// out\n        /* \"#utility.yul\":16866:18179   */\n    tag_424:\n        /* \"#utility.yul\":16999:17002   */\n      0x00\n        /* \"#utility.yul\":17035:17039   */\n      0xa0\n        /* \"#utility.yul\":17030:17033   */\n      dup4\n        /* \"#utility.yul\":17026:17040   */\n      add\n        /* \"#utility.yul\":17132:17136   */\n      0x00\n        /* \"#utility.yul\":17125:17130   */\n      dup4\n        /* \"#utility.yul\":17121:17137   */\n      add\n        /* \"#utility.yul\":17115:17138   */\n      mload\n        /* \"#utility.yul\":17151:17214   */\n      tag_645\n        /* \"#utility.yul\":17208:17212   */\n      0x00\n        /* \"#utility.yul\":17203:17206   */\n      dup7\n        /* \"#utility.yul\":17199:17213   */\n      add\n        /* \"#utility.yul\":17185:17197   */\n      dup3\n        /* \"#utility.yul\":17151:17214   */\n      tag_418\n      jump\t// in\n    tag_645:\n        /* \"#utility.yul\":17050:17224   */\n      pop\n        /* \"#utility.yul\":17314:17318   */\n      0x20\n        /* \"#utility.yul\":17307:17312   */\n      dup4\n        /* \"#utility.yul\":17303:17319   */\n      add\n        /* \"#utility.yul\":17297:17320   */\n      mload\n        /* \"#utility.yul\":17367:17370   */\n      dup5\n        /* \"#utility.yul\":17361:17365   */\n      dup3\n        /* \"#utility.yul\":17357:17371   */\n      sub\n        /* \"#utility.yul\":17350:17354   */\n      0x20\n        /* \"#utility.yul\":17345:17348   */\n      dup7\n        /* \"#utility.yul\":17341:17355   */\n      add\n        /* \"#utility.yul\":17334:17372   */\n      mstore\n        /* \"#utility.yul\":17393:17466   */\n      tag_646\n        /* \"#utility.yul\":17461:17465   */\n      dup3\n        /* \"#utility.yul\":17447:17459   */\n      dup3\n        /* \"#utility.yul\":17393:17466   */\n      tag_422\n      jump\t// in\n    tag_646:\n        /* \"#utility.yul\":17385:17466   */\n      swap2\n      pop\n        /* \"#utility.yul\":17234:17477   */\n      pop\n        /* \"#utility.yul\":17559:17563   */\n      0x40\n        /* \"#utility.yul\":17552:17557   */\n      dup4\n        /* \"#utility.yul\":17548:17564   */\n      add\n        /* \"#utility.yul\":17542:17565   */\n      mload\n        /* \"#utility.yul\":17578:17641   */\n      tag_647\n        /* \"#utility.yul\":17635:17639   */\n      0x40\n        /* \"#utility.yul\":17630:17633   */\n      dup7\n        /* \"#utility.yul\":17626:17640   */\n      add\n        /* \"#utility.yul\":17612:17624   */\n      dup3\n        /* \"#utility.yul\":17578:17641   */\n      tag_423\n      jump\t// in\n    tag_647:\n        /* \"#utility.yul\":17487:17651   */\n      pop\n        /* \"#utility.yul\":17742:17746   */\n      0x60\n        /* \"#utility.yul\":17735:17740   */\n      dup4\n        /* \"#utility.yul\":17731:17747   */\n      add\n        /* \"#utility.yul\":17725:17748   */\n      mload\n        /* \"#utility.yul\":17795:17798   */\n      dup5\n        /* \"#utility.yul\":17789:17793   */\n      dup3\n        /* \"#utility.yul\":17785:17799   */\n      sub\n        /* \"#utility.yul\":17778:17782   */\n      0x60\n        /* \"#utility.yul\":17773:17776   */\n      dup7\n        /* \"#utility.yul\":17769:17783   */\n      add\n        /* \"#utility.yul\":17762:17800   */\n      mstore\n        /* \"#utility.yul\":17821:17894   */\n      tag_648\n        /* \"#utility.yul\":17889:17893   */\n      dup3\n        /* \"#utility.yul\":17875:17887   */\n      dup3\n        /* \"#utility.yul\":17821:17894   */\n      tag_422\n      jump\t// in\n    tag_648:\n        /* \"#utility.yul\":17813:17894   */\n      swap2\n      pop\n        /* \"#utility.yul\":17661:17905   */\n      pop\n        /* \"#utility.yul\":17989:17993   */\n      0x80\n        /* \"#utility.yul\":17982:17987   */\n      dup4\n        /* \"#utility.yul\":17978:17994   */\n      add\n        /* \"#utility.yul\":17972:17995   */\n      mload\n        /* \"#utility.yul\":18042:18045   */\n      dup5\n        /* \"#utility.yul\":18036:18040   */\n      dup3\n        /* \"#utility.yul\":18032:18046   */\n      sub\n        /* \"#utility.yul\":18025:18029   */\n      0x80\n        /* \"#utility.yul\":18020:18023   */\n      dup7\n        /* \"#utility.yul\":18016:18030   */\n      add\n        /* \"#utility.yul\":18009:18047   */\n      mstore\n        /* \"#utility.yul\":18068:18141   */\n      tag_649\n        /* \"#utility.yul\":18136:18140   */\n      dup3\n        /* \"#utility.yul\":18122:18134   */\n      dup3\n        /* \"#utility.yul\":18068:18141   */\n      tag_422\n      jump\t// in\n    tag_649:\n        /* \"#utility.yul\":18060:18141   */\n      swap2\n      pop\n        /* \"#utility.yul\":17915:18152   */\n      pop\n        /* \"#utility.yul\":18169:18173   */\n      dup1\n        /* \"#utility.yul\":18162:18173   */\n      swap2\n      pop\n        /* \"#utility.yul\":17004:18179   */\n      pop\n        /* \"#utility.yul\":16866:18179   */\n      swap3\n      swap2\n      pop\n      pop\n      jump\t// out\n        /* \"#utility.yul\":18185:18326   */\n    tag_425:\n        /* \"#utility.yul\":18279:18285   */\n      0x00\n        /* \"#utility.yul\":18313:18318   */\n      dup2\n        /* \"#utility.yul\":18307:18319   */\n      mload\n        /* \"#utility.yul\":18297:18319   */\n      swap1\n      pop\n        /* \"#utility.yul\":18185:18326   */\n      swap2\n      swap1\n      pop\n      jump\t// out\n        /* \"#utility.yul\":18332:18543   */\n    tag_426:\n        /* \"#utility.yul\":18458:18469   */\n      0x00\n        /* \"#utility.yul\":18492:18498   */\n      dup3\n        /* \"#utility.yul\":18487:18490   */\n      dup3\n        /* \"#utility.yul\":18480:18499   */\n      mstore\n        /* \"#utility.yul\":18532:18536   */\n      0x20\n        /* \"#utility.yul\":18527:18530   */\n      dup3\n        /* \"#utility.yul\":18523:18537   */\n      add\n        /* \"#utility.yul\":18508:18537   */\n      swap1\n      pop\n        /* \"#utility.yul\":18332:18543   */\n      swap3\n      swap2\n      pop\n      pop\n      jump\t// out\n        /* \"#utility.yul\":18549:18708   */\n    tag_427:\n        /* \"#utility.yul\":18643:18647   */\n      0x00\n        /* \"#utility.yul\":18666:18669   */\n      dup2\n        /* \"#utility.yul\":18658:18669   */\n      swap1\n      pop\n        /* \"#utility.yul\":18696:18700   */\n      0x20\n        /* \"#utility.yul\":18691:18694   */\n      dup3\n        /* \"#utility.yul\":18687:18701   */\n      add\n        /* \"#utility.yul\":18679:18701   */\n      swap1\n      pop\n        /* \"#utility.yul\":18549:18708   */\n      swap2\n      swap1\n      pop\n      jump\t// out\n        /* \"#utility.yul\":18714:18813   */\n    tag_428:\n        /* \"#utility.yul\":18785:18806   */\n      tag_654\n        /* \"#utility.yul\":18800:18805   */\n      dup2\n        /* \"#utility.yul\":18785:18806   */\n      tag_413\n      jump\t// in\n    tag_654:\n        /* \"#utility.yul\":18780:18783   */\n      dup3\n        /* \"#utility.yul\":18773:18807   */\n      mstore\n        /* \"#utility.yul\":18714:18813   */\n      pop\n      pop\n      jump\t// out\n        /* \"#utility.yul\":18895:21437   */\n    tag_429:\n        /* \"#utility.yul\":19008:19011   */\n      0x00\n        /* \"#utility.yul\":19044:19050   */\n      0x0140\n        /* \"#utility.yul\":19039:19042   */\n      dup4\n        /* \"#utility.yul\":19035:19051   */\n      add\n        /* \"#utility.yul\":19144:19148   */\n      0x00\n        /* \"#utility.yul\":19137:19142   */\n      dup4\n        /* \"#utility.yul\":19133:19149   */\n      add\n        /* \"#utility.yul\":19127:19150   */\n      mload\n        /* \"#utility.yul\":19163:19226   */\n      tag_656\n        /* \"#utility.yul\":19220:19224   */\n      0x00\n        /* \"#utility.yul\":19215:19218   */\n      dup7\n        /* \"#utility.yul\":19211:19225   */\n      add\n        /* \"#utility.yul\":19197:19209   */\n      dup3\n        /* \"#utility.yul\":19163:19226   */\n      tag_418\n      jump\t// in\n    tag_656:\n        /* \"#utility.yul\":19061:19236   */\n      pop\n        /* \"#utility.yul\":19319:19323   */\n      0x20\n        /* \"#utility.yul\":19312:19317   */\n      dup4\n        /* \"#utility.yul\":19308:19324   */\n      add\n        /* \"#utility.yul\":19302:19325   */\n      mload\n        /* \"#utility.yul\":19372:19375   */\n      dup5\n        /* \"#utility.yul\":19366:19370   */\n      dup3\n        /* \"#utility.yul\":19362:19376   */\n      sub\n        /* \"#utility.yul\":19355:19359   */\n      0x20\n        /* \"#utility.yul\":19350:19353   */\n      dup7\n        /* \"#utility.yul\":19346:19360   */\n      add\n        /* \"#utility.yul\":19339:19377   */\n      mstore\n        /* \"#utility.yul\":19398:19471   */\n      tag_657\n        /* \"#utility.yul\":19466:19470   */\n      dup3\n        /* \"#utility.yul\":19452:19464   */\n      dup3\n        /* \"#utility.yul\":19398:19471   */\n      tag_422\n      jump\t// in\n    tag_657:\n        /* \"#utility.yul\":19390:19471   */\n      swap2\n      pop\n        /* \"#utility.yul\":19246:19482   */\n      pop\n        /* \"#utility.yul\":19573:19577   */\n      0x40\n        /* \"#utility.yul\":19566:19571   */\n      dup4\n        /* \"#utility.yul\":19562:19578   */\n      add\n        /* \"#utility.yul\":19556:19579   */\n      mload\n        /* \"#utility.yul\":19626:19629   */\n      dup5\n        /* \"#utility.yul\":19620:19624   */\n      dup3\n        /* \"#utility.yul\":19616:19630   */\n      sub\n        /* \"#utility.yul\":19609:19613   */\n      0x40\n        /* \"#utility.yul\":19604:19607   */\n      dup7\n        /* \"#utility.yul\":19600:19614   */\n      add\n        /* \"#utility.yul\":19593:19631   */\n      mstore\n        /* \"#utility.yul\":19652:19725   */\n      tag_658\n        /* \"#utility.yul\":19720:19724   */\n      dup3\n        /* \"#utility.yul\":19706:19718   */\n      dup3\n        /* \"#utility.yul\":19652:19725   */\n      tag_422\n      jump\t// in\n    tag_658:\n        /* \"#utility.yul\":19644:19725   */\n      swap2\n      pop\n        /* \"#utility.yul\":19492:19736   */\n      pop\n        /* \"#utility.yul\":19823:19827   */\n      0x60\n        /* \"#utility.yul\":19816:19821   */\n      dup4\n        /* \"#utility.yul\":19812:19828   */\n      add\n        /* \"#utility.yul\":19806:19829   */\n      mload\n        /* \"#utility.yul\":19876:19879   */\n      dup5\n        /* \"#utility.yul\":19870:19874   */\n      dup3\n        /* \"#utility.yul\":19866:19880   */\n      sub\n        /* \"#utility.yul\":19859:19863   */\n      0x60\n        /* \"#utility.yul\":19854:19857   */\n      dup7\n        /* \"#utility.yul\":19850:19864   */\n      add\n        /* \"#utility.yul\":19843:19881   */\n      mstore\n        /* \"#utility.yul\":19902:19975   */\n      tag_659\n        /* \"#utility.yul\":19970:19974   */\n      dup3\n        /* \"#utility.yul\":19956:19968   */\n      dup3\n        /* \"#utility.yul\":19902:19975   */\n      tag_422\n      jump\t// in\n    tag_659:\n        /* \"#utility.yul\":19894:19975   */\n      swap2\n      pop\n        /* \"#utility.yul\":19746:19986   */\n      pop\n        /* \"#utility.yul\":20073:20077   */\n      0x80\n        /* \"#utility.yul\":20066:20071   */\n      dup4\n        /* \"#utility.yul\":20062:20078   */\n      add\n        /* \"#utility.yul\":20056:20079   */\n      mload\n        /* \"#utility.yul\":20126:20129   */\n      dup5\n        /* \"#utility.yul\":20120:20124   */\n      dup3\n        /* \"#utility.yul\":20116:20130   */\n      sub\n        /* \"#utility.yul\":20109:20113   */\n      0x80\n        /* \"#utility.yul\":20104:20107   */\n      dup7\n        /* \"#utility.yul\":20100:20114   */\n      add\n        /* \"#utility.yul\":20093:20131   */\n      mstore\n        /* \"#utility.yul\":20152:20225   */\n      tag_660\n        /* \"#utility.yul\":20220:20224   */\n      dup3\n        /* \"#utility.yul\":20206:20218   */\n      dup3\n        /* \"#utility.yul\":20152:20225   */\n      tag_422\n      jump\t// in\n    tag_660:\n        /* \"#utility.yul\":20144:20225   */\n      swap2\n      pop\n        /* \"#utility.yul\":19996:20236   */\n      pop\n        /* \"#utility.yul\":20316:20320   */\n      0xa0\n        /* \"#utility.yul\":20309:20314   */\n      dup4\n        /* \"#utility.yul\":20305:20321   */\n      add\n        /* \"#utility.yul\":20299:20322   */\n      mload\n        /* \"#utility.yul\":20369:20372   */\n      dup5\n        /* \"#utility.yul\":20363:20367   */\n      dup3\n        /* \"#utility.yul\":20359:20373   */\n      sub\n        /* \"#utility.yul\":20352:20356   */\n      0xa0\n        /* \"#utility.yul\":20347:20350   */\n      dup7\n        /* \"#utility.yul\":20343:20357   */\n      add\n        /* \"#utility.yul\":20336:20374   */\n      mstore\n        /* \"#utility.yul\":20395:20468   */\n      tag_661\n        /* \"#utility.yul\":20463:20467   */\n      dup3\n        /* \"#utility.yul\":20449:20461   */\n      dup3\n        /* \"#utility.yul\":20395:20468   */\n      tag_422\n      jump\t// in\n    tag_661:\n        /* \"#utility.yul\":20387:20468   */\n      swap2\n      pop\n        /* \"#utility.yul\":20246:20479   */\n      pop\n        /* \"#utility.yul\":20567:20571   */\n      0xc0\n        /* \"#utility.yul\":20560:20565   */\n      dup4\n        /* \"#utility.yul\":20556:20572   */\n      add\n        /* \"#utility.yul\":20550:20573   */\n      mload\n        /* \"#utility.yul\":20620:20623   */\n      dup5\n        /* \"#utility.yul\":20614:20618   */\n      dup3\n        /* \"#utility.yul\":20610:20624   */\n      sub\n        /* \"#utility.yul\":20603:20607   */\n      0xc0\n        /* \"#utility.yul\":20598:20601   */\n      dup7\n        /* \"#utility.yul\":20594:20608   */\n      add\n        /* \"#utility.yul\":20587:20625   */\n      mstore\n        /* \"#utility.yul\":20646:20719   */\n      tag_662\n        /* \"#utility.yul\":20714:20718   */\n      dup3\n        /* \"#utility.yul\":20700:20712   */\n      dup3\n        /* \"#utility.yul\":20646:20719   */\n      tag_422\n      jump\t// in\n    tag_662:\n        /* \"#utility.yul\":20638:20719   */\n      swap2\n      pop\n        /* \"#utility.yul\":20489:20730   */\n      pop\n        /* \"#utility.yul\":20816:20820   */\n      0xe0\n        /* \"#utility.yul\":20809:20814   */\n      dup4\n        /* \"#utility.yul\":20805:20821   */\n      add\n        /* \"#utility.yul\":20799:20822   */\n      mload\n        /* \"#utility.yul\":20869:20872   */\n      dup5\n        /* \"#utility.yul\":20863:20867   */\n      dup3\n        /* \"#utility.yul\":20859:20873   */\n      sub\n        /* \"#utility.yul\":20852:20856   */\n      0xe0\n        /* \"#utility.yul\":20847:20850   */\n      dup7\n        /* \"#utility.yul\":20843:20857   */\n      add\n        /* \"#utility.yul\":20836:20874   */\n      mstore\n        /* \"#utility.yul\":20895:20968   */\n      tag_663\n        /* \"#utility.yul\":20963:20967   */\n      dup3\n        /* \"#utility.yul\":20949:20961   */\n      dup3\n        /* \"#utility.yul\":20895:20968   */\n      tag_422\n      jump\t// in\n    tag_663:\n        /* \"#utility.yul\":20887:20968   */\n      swap2\n      pop\n        /* \"#utility.yul\":20740:20979   */\n      pop\n        /* \"#utility.yul\":21066:21072   */\n      0x0100\n        /* \"#utility.yul\":21059:21064   */\n      dup4\n        /* \"#utility.yul\":21055:21073   */\n      add\n        /* \"#utility.yul\":21049:21074   */\n      mload\n        /* \"#utility.yul\":21123:21126   */\n      dup5\n        /* \"#utility.yul\":21117:21121   */\n      dup3\n        /* \"#utility.yul\":21113:21127   */\n      sub\n        /* \"#utility.yul\":21104:21110   */\n      0x0100\n        /* \"#utility.yul\":21099:21102   */\n      dup7\n        /* \"#utility.yul\":21095:21111   */\n      add\n        /* \"#utility.yul\":21088:21128   */\n      mstore\n        /* \"#utility.yul\":21149:21222   */\n      tag_664\n        /* \"#utility.yul\":21217:21221   */\n      dup3\n        /* \"#utility.yul\":21203:21215   */\n      dup3\n        /* \"#utility.yul\":21149:21222   */\n      tag_422\n      jump\t// in\n    tag_664:\n        /* \"#utility.yul\":21141:21222   */\n      swap2\n      pop\n        /* \"#utility.yul\":20989:21233   */\n      pop\n        /* \"#utility.yul\":21320:21326   */\n      0x0120\n        /* \"#utility.yul\":21313:21318   */\n      dup4\n        /* \"#utility.yul\":21309:21327   */\n      add\n        /* \"#utility.yul\":21303:21328   */\n      mload\n        /* \"#utility.yul\":21341:21400   */\n      tag_665\n        /* \"#utility.yul\":21392:21398   */\n      0x0120\n        /* \"#utility.yul\":21387:21390   */\n      dup7\n        /* \"#utility.yul\":21383:21399   */\n      add\n        /* \"#utility.yul\":21369:21381   */\n      dup3\n        /* \"#utility.yul\":21341:21400   */\n      tag_428\n      jump\t// in\n    tag_665:\n        /* \"#utility.yul\":21243:21410   */\n      pop\n        /* \"#utility.yul\":21427:21431   */\n      dup1\n        /* \"#utility.yul\":21420:21431   */\n      swap2\n      pop\n        /* \"#utility.yul\":19013:21437   */\n      pop\n        /* \"#utility.yul\":18895:21437   */\n      swap3\n      swap2\n      pop\n      pop\n      jump\t// out\n        /* \"#utility.yul\":21443:21707   */\n    tag_430:\n        /* \"#utility.yul\":21566:21576   */\n      0x00\n        /* \"#utility.yul\":21601:21701   */\n      tag_667\n        /* \"#utility.yul\":21697:21700   */\n      dup4\n        /* \"#utility.yul\":21689:21695   */\n      dup4\n        /* \"#utility.yul\":21601:21701   */\n      tag_429\n      jump\t// in\n    tag_667:\n        /* \"#utility.yul\":21587:21701   */\n      swap1\n      pop\n        /* \"#utility.yul\":21443:21707   */\n      swap3\n      swap2\n      pop\n      pop\n      jump\t// out\n        /* \"#utility.yul\":21713:21853   */\n    tag_431:\n        /* \"#utility.yul\":21810:21814   */\n      0x00\n        /* \"#utility.yul\":21842:21846   */\n      0x20\n        /* \"#utility.yul\":21837:21840   */\n      dup3\n        /* \"#utility.yul\":21833:21847   */\n      add\n        /* \"#utility.yul\":21825:21847   */\n      swap1\n      pop\n        /* \"#utility.yul\":21713:21853   */\n      swap2\n      swap1\n      pop\n      jump\t// out\n        /* \"#utility.yul\":21939:23066   */\n    tag_432:\n        /* \"#utility.yul\":22112:22115   */\n      0x00\n        /* \"#utility.yul\":22141:22222   */\n      tag_670\n        /* \"#utility.yul\":22216:22221   */\n      dup3\n        /* \"#utility.yul\":22141:22222   */\n      tag_425\n      jump\t// in\n    tag_670:\n        /* \"#utility.yul\":22238:22351   */\n      tag_671\n        /* \"#utility.yul\":22344:22350   */\n      dup2\n        /* \"#utility.yul\":22339:22342   */\n      dup6\n        /* \"#utility.yul\":22238:22351   */\n      tag_426\n      jump\t// in\n    tag_671:\n        /* \"#utility.yul\":22231:22351   */\n      swap4\n      pop\n        /* \"#utility.yul\":22377:22380   */\n      dup4\n        /* \"#utility.yul\":22422:22426   */\n      0x20\n        /* \"#utility.yul\":22414:22420   */\n      dup3\n        /* \"#utility.yul\":22410:22427   */\n      mul\n        /* \"#utility.yul\":22405:22408   */\n      dup6\n        /* \"#utility.yul\":22401:22428   */\n      add\n        /* \"#utility.yul\":22452:22535   */\n      tag_672\n        /* \"#utility.yul\":22529:22534   */\n      dup6\n        /* \"#utility.yul\":22452:22535   */\n      tag_427\n      jump\t// in\n    tag_672:\n        /* \"#utility.yul\":22558:22565   */\n      dup1\n        /* \"#utility.yul\":22589:22590   */\n      0x00\n        /* \"#utility.yul\":22574:23021   */\n    tag_673:\n        /* \"#utility.yul\":22599:22605   */\n      dup6\n        /* \"#utility.yul\":22596:22597   */\n      dup2\n        /* \"#utility.yul\":22593:22606   */\n      lt\n        /* \"#utility.yul\":22574:23021   */\n      iszero\n      tag_675\n      jumpi\n        /* \"#utility.yul\":22670:22679   */\n      dup5\n        /* \"#utility.yul\":22664:22668   */\n      dup5\n        /* \"#utility.yul\":22660:22680   */\n      sub\n        /* \"#utility.yul\":22655:22658   */\n      dup10\n        /* \"#utility.yul\":22648:22681   */\n      mstore\n        /* \"#utility.yul\":22721:22727   */\n      dup2\n        /* \"#utility.yul\":22715:22728   */\n      mload\n        /* \"#utility.yul\":22749:22867   */\n      tag_676\n        /* \"#utility.yul\":22862:22866   */\n      dup6\n        /* \"#utility.yul\":22847:22860   */\n      dup3\n        /* \"#utility.yul\":22749:22867   */\n      tag_430\n      jump\t// in\n    tag_676:\n        /* \"#utility.yul\":22741:22867   */\n      swap5\n      pop\n        /* \"#utility.yul\":22890:22977   */\n      tag_677\n        /* \"#utility.yul\":22970:22976   */\n      dup4\n        /* \"#utility.yul\":22890:22977   */\n      tag_431\n      jump\t// in\n    tag_677:\n        /* \"#utility.yul\":22880:22977   */\n      swap3\n      pop\n        /* \"#utility.yul\":23006:23010   */\n      0x20\n        /* \"#utility.yul\":23001:23004   */\n      dup11\n        /* \"#utility.yul\":22997:23011   */\n      add\n        /* \"#utility.yul\":22990:23011   */\n      swap10\n      pop\n        /* \"#utility.yul\":22634:23021   */\n      pop\n        /* \"#utility.yul\":22621:22622   */\n      0x01\n        /* \"#utility.yul\":22618:22619   */\n      dup2\n        /* \"#utility.yul\":22614:22623   */\n      add\n        /* \"#utility.yul\":22609:22623   */\n      swap1\n      pop\n        /* \"#utility.yul\":22574:23021   */\n      jump(tag_673)\n    tag_675:\n        /* \"#utility.yul\":22578:22592   */\n      pop\n        /* \"#utility.yul\":23037:23041   */\n      dup3\n        /* \"#utility.yul\":23030:23041   */\n      swap8\n      pop\n        /* \"#utility.yul\":23057:23060   */\n      dup8\n        /* \"#utility.yul\":23050:23060   */\n      swap6\n      pop\n        /* \"#utility.yul\":22117:23066   */\n      pop\n      pop\n      pop\n      pop\n      pop\n        /* \"#utility.yul\":21939:23066   */\n      swap3\n      swap2\n      pop\n      pop\n      jump\t// out\n        /* \"#utility.yul\":23072:23842   */\n    tag_35:\n        /* \"#utility.yul\":23361:23365   */\n      0x00\n        /* \"#utility.yul\":23399:23401   */\n      0x40\n        /* \"#utility.yul\":23388:23397   */\n      dup3\n        /* \"#utility.yul\":23384:23402   */\n      add\n        /* \"#utility.yul\":23376:23402   */\n      swap1\n      pop\n        /* \"#utility.yul\":23448:23457   */\n      dup2\n        /* \"#utility.yul\":23442:23446   */\n      dup2\n        /* \"#utility.yul\":23438:23458   */\n      sub\n        /* \"#utility.yul\":23434:23435   */\n      0x00\n        /* \"#utility.yul\":23423:23432   */\n      dup4\n        /* \"#utility.yul\":23419:23436   */\n      add\n        /* \"#utility.yul\":23412:23459   */\n      mstore\n        /* \"#utility.yul\":23476:23598   */\n      tag_679\n        /* \"#utility.yul\":23593:23597   */\n      dup2\n        /* \"#utility.yul\":23584:23590   */\n      dup6\n        /* \"#utility.yul\":23476:23598   */\n      tag_424\n      jump\t// in\n    tag_679:\n        /* \"#utility.yul\":23468:23598   */\n      swap1\n      pop\n        /* \"#utility.yul\":23645:23654   */\n      dup2\n        /* \"#utility.yul\":23639:23643   */\n      dup2\n        /* \"#utility.yul\":23635:23655   */\n      sub\n        /* \"#utility.yul\":23630:23632   */\n      0x20\n        /* \"#utility.yul\":23619:23628   */\n      dup4\n        /* \"#utility.yul\":23615:23633   */\n      add\n        /* \"#utility.yul\":23608:23656   */\n      mstore\n        /* \"#utility.yul\":23673:23835   */\n      tag_680\n        /* \"#utility.yul\":23830:23834   */\n      dup2\n        /* \"#utility.yul\":23821:23827   */\n      dup5\n        /* \"#utility.yul\":23673:23835   */\n      tag_432\n      jump\t// in\n    tag_680:\n        /* \"#utility.yul\":23665:23835   */\n      swap1\n      pop\n        /* \"#utility.yul\":23072:23842   */\n      swap4\n      swap3\n      pop\n      pop\n      pop\n      jump\t// out\n        /* \"#utility.yul\":23893:25489   */\n    tag_433:\n        /* \"#utility.yul\":23974:23979   */\n      0x00\n        /* \"#utility.yul\":24018:24022   */\n      0xa0\n        /* \"#utility.yul\":24006:24015   */\n      dup3\n        /* \"#utility.yul\":24001:24004   */\n      dup5\n        /* \"#utility.yul\":23997:24016   */\n      sub\n        /* \"#utility.yul\":23993:24023   */\n      slt\n        /* \"#utility.yul\":23990:24107   */\n      iszero\n      tag_682\n      jumpi\n        /* \"#utility.yul\":24026:24105   */\n      tag_683\n      tag_397\n      jump\t// in\n    tag_683:\n        /* \"#utility.yul\":23990:24107   */\n    tag_682:\n        /* \"#utility.yul\":24125:24146   */\n      tag_684\n        /* \"#utility.yul\":24141:24145   */\n      0xa0\n        /* \"#utility.yul\":24125:24146   */\n      tag_401\n      jump\t// in\n    tag_684:\n        /* \"#utility.yul\":24116:24146   */\n      swap1\n      pop\n        /* \"#utility.yul\":24204:24205   */\n      0x00\n        /* \"#utility.yul\":24244:24293   */\n      tag_685\n        /* \"#utility.yul\":24289:24292   */\n      dup5\n        /* \"#utility.yul\":24280:24286   */\n      dup3\n        /* \"#utility.yul\":24269:24278   */\n      dup6\n        /* \"#utility.yul\":24265:24287   */\n      add\n        /* \"#utility.yul\":24244:24293   */\n      tag_396\n      jump\t// in\n    tag_685:\n        /* \"#utility.yul\":24237:24241   */\n      0x00\n        /* \"#utility.yul\":24230:24235   */\n      dup4\n        /* \"#utility.yul\":24226:24242   */\n      add\n        /* \"#utility.yul\":24219:24294   */\n      mstore\n        /* \"#utility.yul\":24156:24305   */\n      pop\n        /* \"#utility.yul\":24404:24406   */\n      0x20\n        /* \"#utility.yul\":24393:24402   */\n      dup3\n        /* \"#utility.yul\":24389:24407   */\n      add\n        /* \"#utility.yul\":24376:24408   */\n      calldataload\n        /* \"#utility.yul\":24435:24453   */\n      0xffffffffffffffff\n        /* \"#utility.yul\":24427:24433   */\n      dup2\n        /* \"#utility.yul\":24424:24454   */\n      gt\n        /* \"#utility.yul\":24421:24538   */\n      iszero\n      tag_686\n      jumpi\n        /* \"#utility.yul\":24457:24536   */\n      tag_687\n      tag_402\n      jump\t// in\n    tag_687:\n        /* \"#utility.yul\":24421:24538   */\n    tag_686:\n        /* \"#utility.yul\":24577:24636   */\n      tag_688\n        /* \"#utility.yul\":24632:24635   */\n      dup5\n        /* \"#utility.yul\":24623:24629   */\n      dup3\n        /* \"#utility.yul\":24612:24621   */\n      dup6\n        /* \"#utility.yul\":24608:24630   */\n      add\n        /* \"#utility.yul\":24577:24636   */\n      tag_408\n      jump\t// in\n    tag_688:\n        /* \"#utility.yul\":24570:24574   */\n      0x20\n        /* \"#utility.yul\":24563:24568   */\n      dup4\n        /* \"#utility.yul\":24559:24575   */\n      add\n        /* \"#utility.yul\":24552:24637   */\n      mstore\n        /* \"#utility.yul\":24315:24648   */\n      pop\n        /* \"#utility.yul\":24743:24745   */\n      0x40\n        /* \"#utility.yul\":24732:24741   */\n      dup3\n        /* \"#utility.yul\":24728:24746   */\n      add\n        /* \"#utility.yul\":24715:24747   */\n      calldataload\n        /* \"#utility.yul\":24774:24792   */\n      0xffffffffffffffff\n        /* \"#utility.yul\":24766:24772   */\n      dup2\n        /* \"#utility.yul\":24763:24793   */\n      gt\n        /* \"#utility.yul\":24760:24877   */\n      iszero\n      tag_689\n      jumpi\n        /* \"#utility.yul\":24796:24875   */\n      tag_690\n      tag_402\n      jump\t// in\n    tag_690:\n        /* \"#utility.yul\":24760:24877   */\n    tag_689:\n        /* \"#utility.yul\":24916:24975   */\n      tag_691\n        /* \"#utility.yul\":24971:24974   */\n      dup5\n        /* \"#utility.yul\":24962:24968   */\n      dup3\n        /* \"#utility.yul\":24951:24960   */\n      dup6\n        /* \"#utility.yul\":24947:24969   */\n      add\n        /* \"#utility.yul\":24916:24975   */\n      tag_408\n      jump\t// in\n    tag_691:\n        /* \"#utility.yul\":24909:24913   */\n      0x40\n        /* \"#utility.yul\":24902:24907   */\n      dup4\n        /* \"#utility.yul\":24898:24914   */\n      add\n        /* \"#utility.yul\":24891:24976   */\n      mstore\n        /* \"#utility.yul\":24658:24987   */\n      pop\n        /* \"#utility.yul\":25044:25046   */\n      0x60\n        /* \"#utility.yul\":25085:25134   */\n      tag_692\n        /* \"#utility.yul\":25130:25133   */\n      dup5\n        /* \"#utility.yul\":25121:25127   */\n      dup3\n        /* \"#utility.yul\":25110:25119   */\n      dup6\n        /* \"#utility.yul\":25106:25128   */\n      add\n        /* \"#utility.yul\":25085:25134   */\n      tag_411\n      jump\t// in\n    tag_692:\n        /* \"#utility.yul\":25078:25082   */\n      0x60\n        /* \"#utility.yul\":25071:25076   */\n      dup4\n        /* \"#utility.yul\":25067:25083   */\n      add\n        /* \"#utility.yul\":25060:25135   */\n      mstore\n        /* \"#utility.yul\":24997:25146   */\n      pop\n        /* \"#utility.yul\":25237:25240   */\n      0x80\n        /* \"#utility.yul\":25226:25235   */\n      dup3\n        /* \"#utility.yul\":25222:25241   */\n      add\n        /* \"#utility.yul\":25209:25242   */\n      calldataload\n        /* \"#utility.yul\":25269:25287   */\n      0xffffffffffffffff\n        /* \"#utility.yul\":25261:25267   */\n      dup2\n        /* \"#utility.yul\":25258:25288   */\n      gt\n        /* \"#utility.yul\":25255:25372   */\n      iszero\n      tag_693\n      jumpi\n        /* \"#utility.yul\":25291:25370   */\n      tag_694\n      tag_402\n      jump\t// in\n    tag_694:\n        /* \"#utility.yul\":25255:25372   */\n    tag_693:\n        /* \"#utility.yul\":25411:25470   */\n      tag_695\n        /* \"#utility.yul\":25466:25469   */\n      dup5\n        /* \"#utility.yul\":25457:25463   */\n      dup3\n        /* \"#utility.yul\":25446:25455   */\n      dup6\n        /* \"#utility.yul\":25442:25464   */\n      add\n        /* \"#utility.yul\":25411:25470   */\n      tag_408\n      jump\t// in\n    tag_695:\n        /* \"#utility.yul\":25404:25408   */\n      0x80\n        /* \"#utility.yul\":25397:25402   */\n      dup4\n        /* \"#utility.yul\":25393:25409   */\n      add\n        /* \"#utility.yul\":25386:25471   */\n      mstore\n        /* \"#utility.yul\":25156:25482   */\n      pop\n        /* \"#utility.yul\":23893:25489   */\n      swap3\n      swap2\n      pop\n      pop\n      jump\t// out\n        /* \"#utility.yul\":25537:30007   */\n    tag_434:\n        /* \"#utility.yul\":25615:25620   */\n      0x00\n        /* \"#utility.yul\":25659:25665   */\n      0x01a0\n        /* \"#utility.yul\":25647:25656   */\n      dup3\n        /* \"#utility.yul\":25642:25645   */\n      dup5\n        /* \"#utility.yul\":25638:25657   */\n      sub\n        /* \"#utility.yul\":25634:25666   */\n      slt\n        /* \"#utility.yul\":25631:25750   */\n      iszero\n      tag_697\n      jumpi\n        /* \"#utility.yul\":25669:25748   */\n      tag_698\n      tag_397\n      jump\t// in\n    tag_698:\n        /* \"#utility.yul\":25631:25750   */\n    tag_697:\n        /* \"#utility.yul\":25768:25791   */\n      tag_699\n        /* \"#utility.yul\":25784:25790   */\n      0x01a0\n        /* \"#utility.yul\":25768:25791   */\n      tag_401\n      jump\t// in\n    tag_699:\n        /* \"#utility.yul\":25759:25791   */\n      swap1\n      pop\n        /* \"#utility.yul\":25861:25862   */\n      0x00\n        /* \"#utility.yul\":25901:25950   */\n      tag_700\n        /* \"#utility.yul\":25946:25949   */\n      dup5\n        /* \"#utility.yul\":25937:25943   */\n      dup3\n        /* \"#utility.yul\":25926:25935   */\n      dup6\n        /* \"#utility.yul\":25922:25944   */\n      add\n        /* \"#utility.yul\":25901:25950   */\n      tag_396\n      jump\t// in\n    tag_700:\n        /* \"#utility.yul\":25894:25898   */\n      0x00\n        /* \"#utility.yul\":25887:25892   */\n      dup4\n        /* \"#utility.yul\":25883:25899   */\n      add\n        /* \"#utility.yul\":25876:25951   */\n      mstore\n        /* \"#utility.yul\":25801:25962   */\n      pop\n        /* \"#utility.yul\":26050:26052   */\n      0x20\n        /* \"#utility.yul\":26039:26048   */\n      dup3\n        /* \"#utility.yul\":26035:26053   */\n      add\n        /* \"#utility.yul\":26022:26054   */\n      calldataload\n        /* \"#utility.yul\":26081:26099   */\n      0xffffffffffffffff\n        /* \"#utility.yul\":26073:26079   */\n      dup2\n        /* \"#utility.yul\":26070:26100   */\n      gt\n        /* \"#utility.yul\":26067:26184   */\n      iszero\n      tag_701\n      jumpi\n        /* \"#utility.yul\":26103:26182   */\n      tag_702\n      tag_402\n      jump\t// in\n    tag_702:\n        /* \"#utility.yul\":26067:26184   */\n    tag_701:\n        /* \"#utility.yul\":26223:26282   */\n      tag_703\n        /* \"#utility.yul\":26278:26281   */\n      dup5\n        /* \"#utility.yul\":26269:26275   */\n      dup3\n        /* \"#utility.yul\":26258:26267   */\n      dup6\n        /* \"#utility.yul\":26254:26276   */\n      add\n        /* \"#utility.yul\":26223:26282   */\n      tag_408\n      jump\t// in\n    tag_703:\n        /* \"#utility.yul\":26216:26220   */\n      0x20\n        /* \"#utility.yul\":26209:26214   */\n      dup4\n        /* \"#utility.yul\":26205:26221   */\n      add\n        /* \"#utility.yul\":26198:26283   */\n      mstore\n        /* \"#utility.yul\":25972:26294   */\n      pop\n        /* \"#utility.yul\":26389:26391   */\n      0x40\n        /* \"#utility.yul\":26378:26387   */\n      dup3\n        /* \"#utility.yul\":26374:26392   */\n      add\n        /* \"#utility.yul\":26361:26393   */\n      calldataload\n        /* \"#utility.yul\":26420:26438   */\n      0xffffffffffffffff\n        /* \"#utility.yul\":26412:26418   */\n      dup2\n        /* \"#utility.yul\":26409:26439   */\n      gt\n        /* \"#utility.yul\":26406:26523   */\n      iszero\n      tag_704\n      jumpi\n        /* \"#utility.yul\":26442:26521   */\n      tag_705\n      tag_402\n      jump\t// in\n    tag_705:\n        /* \"#utility.yul\":26406:26523   */\n    tag_704:\n        /* \"#utility.yul\":26562:26621   */\n      tag_706\n        /* \"#utility.yul\":26617:26620   */\n      dup5\n        /* \"#utility.yul\":26608:26614   */\n      dup3\n        /* \"#utility.yul\":26597:26606   */\n      dup6\n        /* \"#utility.yul\":26593:26615   */\n      add\n        /* \"#utility.yul\":26562:26621   */\n      tag_408\n      jump\t// in\n    tag_706:\n        /* \"#utility.yul\":26555:26559   */\n      0x40\n        /* \"#utility.yul\":26548:26553   */\n      dup4\n        /* \"#utility.yul\":26544:26560   */\n      add\n        /* \"#utility.yul\":26537:26622   */\n      mstore\n        /* \"#utility.yul\":26304:26633   */\n      pop\n        /* \"#utility.yul\":26722:26724   */\n      0x60\n        /* \"#utility.yul\":26711:26720   */\n      dup3\n        /* \"#utility.yul\":26707:26725   */\n      add\n        /* \"#utility.yul\":26694:26726   */\n      calldataload\n        /* \"#utility.yul\":26753:26771   */\n      0xffffffffffffffff\n        /* \"#utility.yul\":26745:26751   */\n      dup2\n        /* \"#utility.yul\":26742:26772   */\n      gt\n        /* \"#utility.yul\":26739:26856   */\n      iszero\n      tag_707\n      jumpi\n        /* \"#utility.yul\":26775:26854   */\n      tag_708\n      tag_402\n      jump\t// in\n    tag_708:\n        /* \"#utility.yul\":26739:26856   */\n    tag_707:\n        /* \"#utility.yul\":26895:26954   */\n      tag_709\n        /* \"#utility.yul\":26950:26953   */\n      dup5\n        /* \"#utility.yul\":26941:26947   */\n      dup3\n        /* \"#utility.yul\":26930:26939   */\n      dup6\n        /* \"#utility.yul\":26926:26948   */\n      add\n        /* \"#utility.yul\":26895:26954   */\n      tag_408\n      jump\t// in\n    tag_709:\n        /* \"#utility.yul\":26888:26892   */\n      0x60\n        /* \"#utility.yul\":26881:26886   */\n      dup4\n        /* \"#utility.yul\":26877:26893   */\n      add\n        /* \"#utility.yul\":26870:26955   */\n      mstore\n        /* \"#utility.yul\":26643:26966   */\n      pop\n        /* \"#utility.yul\":27056:27059   */\n      0x80\n        /* \"#utility.yul\":27045:27054   */\n      dup3\n        /* \"#utility.yul\":27041:27060   */\n      add\n        /* \"#utility.yul\":27028:27061   */\n      calldataload\n        /* \"#utility.yul\":27088:27106   */\n      0xffffffffffffffff\n        /* \"#utility.yul\":27080:27086   */\n      dup2\n        /* \"#utility.yul\":27077:27107   */\n      gt\n        /* \"#utility.yul\":27074:27191   */\n      iszero\n      tag_710\n      jumpi\n        /* \"#utility.yul\":27110:27189   */\n      tag_711\n      tag_402\n      jump\t// in\n    tag_711:\n        /* \"#utility.yul\":27074:27191   */\n    tag_710:\n        /* \"#utility.yul\":27230:27289   */\n      tag_712\n        /* \"#utility.yul\":27285:27288   */\n      dup5\n        /* \"#utility.yul\":27276:27282   */\n      dup3\n        /* \"#utility.yul\":27265:27274   */\n      dup6\n        /* \"#utility.yul\":27261:27283   */\n      add\n        /* \"#utility.yul\":27230:27289   */\n      tag_408\n      jump\t// in\n    tag_712:\n        /* \"#utility.yul\":27223:27227   */\n      0x80\n        /* \"#utility.yul\":27216:27221   */\n      dup4\n        /* \"#utility.yul\":27212:27228   */\n      add\n        /* \"#utility.yul\":27205:27290   */\n      mstore\n        /* \"#utility.yul\":26976:27301   */\n      pop\n        /* \"#utility.yul\":27397:27400   */\n      0xa0\n        /* \"#utility.yul\":27386:27395   */\n      dup3\n        /* \"#utility.yul\":27382:27401   */\n      add\n        /* \"#utility.yul\":27369:27402   */\n      calldataload\n        /* \"#utility.yul\":27429:27447   */\n      0xffffffffffffffff\n        /* \"#utility.yul\":27421:27427   */\n      dup2\n        /* \"#utility.yul\":27418:27448   */\n      gt\n        /* \"#utility.yul\":27415:27532   */\n      iszero\n      tag_713\n      jumpi\n        /* \"#utility.yul\":27451:27530   */\n      tag_714\n      tag_402\n      jump\t// in\n    tag_714:\n        /* \"#utility.yul\":27415:27532   */\n    tag_713:\n        /* \"#utility.yul\":27571:27630   */\n      tag_715\n        /* \"#utility.yul\":27626:27629   */\n      dup5\n        /* \"#utility.yul\":27617:27623   */\n      dup3\n        /* \"#utility.yul\":27606:27615   */\n      dup6\n        /* \"#utility.yul\":27602:27624   */\n      add\n        /* \"#utility.yul\":27571:27630   */\n      tag_408\n      jump\t// in\n    tag_715:\n        /* \"#utility.yul\":27564:27568   */\n      0xa0\n        /* \"#utility.yul\":27557:27562   */\n      dup4\n        /* \"#utility.yul\":27553:27569   */\n      add\n        /* \"#utility.yul\":27546:27631   */\n      mstore\n        /* \"#utility.yul\":27311:27642   */\n      pop\n        /* \"#utility.yul\":27734:27737   */\n      0xc0\n        /* \"#utility.yul\":27723:27732   */\n      dup3\n        /* \"#utility.yul\":27719:27738   */\n      add\n        /* \"#utility.yul\":27706:27739   */\n      calldataload\n        /* \"#utility.yul\":27766:27784   */\n      0xffffffffffffffff\n        /* \"#utility.yul\":27758:27764   */\n      dup2\n        /* \"#utility.yul\":27755:27785   */\n      gt\n        /* \"#utility.yul\":27752:27869   */\n      iszero\n      tag_716\n      jumpi\n        /* \"#utility.yul\":27788:27867   */\n      tag_717\n      tag_402\n      jump\t// in\n    tag_717:\n        /* \"#utility.yul\":27752:27869   */\n    tag_716:\n        /* \"#utility.yul\":27908:27967   */\n      tag_718\n        /* \"#utility.yul\":27963:27966   */\n      dup5\n        /* \"#utility.yul\":27954:27960   */\n      dup3\n        /* \"#utility.yul\":27943:27952   */\n      dup6\n        /* \"#utility.yul\":27939:27961   */\n      add\n        /* \"#utility.yul\":27908:27967   */\n      tag_408\n      jump\t// in\n    tag_718:\n        /* \"#utility.yul\":27901:27905   */\n      0xc0\n        /* \"#utility.yul\":27894:27899   */\n      dup4\n        /* \"#utility.yul\":27890:27906   */\n      add\n        /* \"#utility.yul\":27883:27968   */\n      mstore\n        /* \"#utility.yul\":27652:27979   */\n      pop\n        /* \"#utility.yul\":28067:28070   */\n      0xe0\n        /* \"#utility.yul\":28056:28065   */\n      dup3\n        /* \"#utility.yul\":28052:28071   */\n      add\n        /* \"#utility.yul\":28039:28072   */\n      calldataload\n        /* \"#utility.yul\":28099:28117   */\n      0xffffffffffffffff\n        /* \"#utility.yul\":28091:28097   */\n      dup2\n        /* \"#utility.yul\":28088:28118   */\n      gt\n        /* \"#utility.yul\":28085:28202   */\n      iszero\n      tag_719\n      jumpi\n        /* \"#utility.yul\":28121:28200   */\n      tag_720\n      tag_402\n      jump\t// in\n    tag_720:\n        /* \"#utility.yul\":28085:28202   */\n    tag_719:\n        /* \"#utility.yul\":28241:28300   */\n      tag_721\n        /* \"#utility.yul\":28296:28299   */\n      dup5\n        /* \"#utility.yul\":28287:28293   */\n      dup3\n        /* \"#utility.yul\":28276:28285   */\n      dup6\n        /* \"#utility.yul\":28272:28294   */\n      add\n        /* \"#utility.yul\":28241:28300   */\n      tag_408\n      jump\t// in\n    tag_721:\n        /* \"#utility.yul\":28234:28238   */\n      0xe0\n        /* \"#utility.yul\":28227:28232   */\n      dup4\n        /* \"#utility.yul\":28223:28239   */\n      add\n        /* \"#utility.yul\":28216:28301   */\n      mstore\n        /* \"#utility.yul\":27989:28312   */\n      pop\n        /* \"#utility.yul\":28404:28407   */\n      0x0100\n        /* \"#utility.yul\":28393:28402   */\n      dup3\n        /* \"#utility.yul\":28389:28408   */\n      add\n        /* \"#utility.yul\":28376:28409   */\n      calldataload\n        /* \"#utility.yul\":28436:28454   */\n      0xffffffffffffffff\n        /* \"#utility.yul\":28428:28434   */\n      dup2\n        /* \"#utility.yul\":28425:28455   */\n      gt\n        /* \"#utility.yul\":28422:28539   */\n      iszero\n      tag_722\n      jumpi\n        /* \"#utility.yul\":28458:28537   */\n      tag_723\n      tag_402\n      jump\t// in\n    tag_723:\n        /* \"#utility.yul\":28422:28539   */\n    tag_722:\n        /* \"#utility.yul\":28580:28639   */\n      tag_724\n        /* \"#utility.yul\":28635:28638   */\n      dup5\n        /* \"#utility.yul\":28626:28632   */\n      dup3\n        /* \"#utility.yul\":28615:28624   */\n      dup6\n        /* \"#utility.yul\":28611:28633   */\n      add\n        /* \"#utility.yul\":28580:28639   */\n      tag_408\n      jump\t// in\n    tag_724:\n        /* \"#utility.yul\":28571:28577   */\n      0x0100\n        /* \"#utility.yul\":28564:28569   */\n      dup4\n        /* \"#utility.yul\":28560:28578   */\n      add\n        /* \"#utility.yul\":28553:28640   */\n      mstore\n        /* \"#utility.yul\":28322:28651   */\n      pop\n        /* \"#utility.yul\":28744:28747   */\n      0x0120\n        /* \"#utility.yul\":28733:28742   */\n      dup3\n        /* \"#utility.yul\":28729:28748   */\n      add\n        /* \"#utility.yul\":28716:28749   */\n      calldataload\n        /* \"#utility.yul\":28776:28794   */\n      0xffffffffffffffff\n        /* \"#utility.yul\":28768:28774   */\n      dup2\n        /* \"#utility.yul\":28765:28795   */\n      gt\n        /* \"#utility.yul\":28762:28879   */\n      iszero\n      tag_725\n      jumpi\n        /* \"#utility.yul\":28798:28877   */\n      tag_726\n      tag_402\n      jump\t// in\n    tag_726:\n        /* \"#utility.yul\":28762:28879   */\n    tag_725:\n        /* \"#utility.yul\":28920:28979   */\n      tag_727\n        /* \"#utility.yul\":28975:28978   */\n      dup5\n        /* \"#utility.yul\":28966:28972   */\n      dup3\n        /* \"#utility.yul\":28955:28964   */\n      dup6\n        /* \"#utility.yul\":28951:28973   */\n      add\n        /* \"#utility.yul\":28920:28979   */\n      tag_408\n      jump\t// in\n    tag_727:\n        /* \"#utility.yul\":28911:28917   */\n      0x0120\n        /* \"#utility.yul\":28904:28909   */\n      dup4\n        /* \"#utility.yul\":28900:28918   */\n      add\n        /* \"#utility.yul\":28893:28980   */\n      mstore\n        /* \"#utility.yul\":28661:28991   */\n      pop\n        /* \"#utility.yul\":29082:29085   */\n      0x0140\n        /* \"#utility.yul\":29071:29080   */\n      dup3\n        /* \"#utility.yul\":29067:29086   */\n      add\n        /* \"#utility.yul\":29054:29087   */\n      calldataload\n        /* \"#utility.yul\":29114:29132   */\n      0xffffffffffffffff\n        /* \"#utility.yul\":29106:29112   */\n      dup2\n        /* \"#utility.yul\":29103:29133   */\n      gt\n        /* \"#utility.yul\":29100:29217   */\n      iszero\n      tag_728\n      jumpi\n        /* \"#utility.yul\":29136:29215   */\n      tag_729\n      tag_402\n      jump\t// in\n    tag_729:\n        /* \"#utility.yul\":29100:29217   */\n    tag_728:\n        /* \"#utility.yul\":29258:29317   */\n      tag_730\n        /* \"#utility.yul\":29313:29316   */\n      dup5\n        /* \"#utility.yul\":29304:29310   */\n      dup3\n        /* \"#utility.yul\":29293:29302   */\n      dup6\n        /* \"#utility.yul\":29289:29311   */\n      add\n        /* \"#utility.yul\":29258:29317   */\n      tag_408\n      jump\t// in\n    tag_730:\n        /* \"#utility.yul\":29249:29255   */\n      0x0140\n        /* \"#utility.yul\":29242:29247   */\n      dup4\n        /* \"#utility.yul\":29238:29256   */\n      add\n        /* \"#utility.yul\":29231:29318   */\n      mstore\n        /* \"#utility.yul\":29001:29329   */\n      pop\n        /* \"#utility.yul\":29414:29417   */\n      0x0160\n        /* \"#utility.yul\":29403:29412   */\n      dup3\n        /* \"#utility.yul\":29399:29418   */\n      add\n        /* \"#utility.yul\":29386:29419   */\n      calldataload\n        /* \"#utility.yul\":29446:29464   */\n      0xffffffffffffffff\n        /* \"#utility.yul\":29438:29444   */\n      dup2\n        /* \"#utility.yul\":29435:29465   */\n      gt\n        /* \"#utility.yul\":29432:29549   */\n      iszero\n      tag_731\n      jumpi\n        /* \"#utility.yul\":29468:29547   */\n      tag_732\n      tag_402\n      jump\t// in\n    tag_732:\n        /* \"#utility.yul\":29432:29549   */\n    tag_731:\n        /* \"#utility.yul\":29590:29649   */\n      tag_733\n        /* \"#utility.yul\":29645:29648   */\n      dup5\n        /* \"#utility.yul\":29636:29642   */\n      dup3\n        /* \"#utility.yul\":29625:29634   */\n      dup6\n        /* \"#utility.yul\":29621:29643   */\n      add\n        /* \"#utility.yul\":29590:29649   */\n      tag_408\n      jump\t// in\n    tag_733:\n        /* \"#utility.yul\":29581:29587   */\n      0x0160\n        /* \"#utility.yul\":29574:29579   */\n      dup4\n        /* \"#utility.yul\":29570:29588   */\n      add\n        /* \"#utility.yul\":29563:29650   */\n      mstore\n        /* \"#utility.yul\":29339:29661   */\n      pop\n        /* \"#utility.yul\":29753:29756   */\n      0x0180\n        /* \"#utility.yul\":29742:29751   */\n      dup3\n        /* \"#utility.yul\":29738:29757   */\n      add\n        /* \"#utility.yul\":29725:29758   */\n      calldataload\n        /* \"#utility.yul\":29785:29803   */\n      0xffffffffffffffff\n        /* \"#utility.yul\":29777:29783   */\n      dup2\n        /* \"#utility.yul\":29774:29804   */\n      gt\n        /* \"#utility.yul\":29771:29888   */\n      iszero\n      tag_734\n      jumpi\n        /* \"#utility.yul\":29807:29886   */\n      tag_735\n      tag_402\n      jump\t// in\n    tag_735:\n        /* \"#utility.yul\":29771:29888   */\n    tag_734:\n        /* \"#utility.yul\":29929:29988   */\n      tag_736\n        /* \"#utility.yul\":29984:29987   */\n      dup5\n        /* \"#utility.yul\":29975:29981   */\n      dup3\n        /* \"#utility.yul\":29964:29973   */\n      dup6\n        /* \"#utility.yul\":29960:29982   */\n      add\n        /* \"#utility.yul\":29929:29988   */\n      tag_408\n      jump\t// in\n    tag_736:\n        /* \"#utility.yul\":29920:29926   */\n      0x0180\n        /* \"#utility.yul\":29913:29918   */\n      dup4\n        /* \"#utility.yul\":29909:29927   */\n      add\n        /* \"#utility.yul\":29902:29989   */\n      mstore\n        /* \"#utility.yul\":29671:30000   */\n      pop\n        /* \"#utility.yul\":25537:30007   */\n      swap3\n      swap2\n      pop\n      pop\n      jump\t// out\n        /* \"#utility.yul\":30013:30929   */\n    tag_38:\n        /* \"#utility.yul\":30142:30148   */\n      0x00\n        /* \"#utility.yul\":30150:30156   */\n      dup1\n        /* \"#utility.yul\":30199:30201   */\n      0x40\n        /* \"#utility.yul\":30187:30196   */\n      dup4\n        /* \"#utility.yul\":30178:30185   */\n      dup6\n        /* \"#utility.yul\":30174:30197   */\n      sub\n        /* \"#utility.yul\":30170:30202   */\n      slt\n        /* \"#utility.yul\":30167:30286   */\n      iszero\n      tag_738\n      jumpi\n        /* \"#utility.yul\":30205:30284   */\n      tag_739\n      tag_391\n      jump\t// in\n    tag_739:\n        /* \"#utility.yul\":30167:30286   */\n    tag_738:\n        /* \"#utility.yul\":30353:30354   */\n      0x00\n        /* \"#utility.yul\":30342:30351   */\n      dup4\n        /* \"#utility.yul\":30338:30355   */\n      add\n        /* \"#utility.yul\":30325:30356   */\n      calldataload\n        /* \"#utility.yul\":30383:30401   */\n      0xffffffffffffffff\n        /* \"#utility.yul\":30375:30381   */\n      dup2\n        /* \"#utility.yul\":30372:30402   */\n      gt\n        /* \"#utility.yul\":30369:30486   */\n      iszero\n      tag_740\n      jumpi\n        /* \"#utility.yul\":30405:30484   */\n      tag_741\n      tag_392\n      jump\t// in\n    tag_741:\n        /* \"#utility.yul\":30369:30486   */\n    tag_740:\n        /* \"#utility.yul\":30510:30595   */\n      tag_742\n        /* \"#utility.yul\":30587:30594   */\n      dup6\n        /* \"#utility.yul\":30578:30584   */\n      dup3\n        /* \"#utility.yul\":30567:30576   */\n      dup7\n        /* \"#utility.yul\":30563:30585   */\n      add\n        /* \"#utility.yul\":30510:30595   */\n      tag_433\n      jump\t// in\n    tag_742:\n        /* \"#utility.yul\":30500:30595   */\n      swap3\n      pop\n        /* \"#utility.yul\":30296:30605   */\n      pop\n        /* \"#utility.yul\":30672:30674   */\n      0x20\n        /* \"#utility.yul\":30661:30670   */\n      dup4\n        /* \"#utility.yul\":30657:30675   */\n      add\n        /* \"#utility.yul\":30644:30676   */\n      calldataload\n        /* \"#utility.yul\":30703:30721   */\n      0xffffffffffffffff\n        /* \"#utility.yul\":30695:30701   */\n      dup2\n        /* \"#utility.yul\":30692:30722   */\n      gt\n        /* \"#utility.yul\":30689:30806   */\n      iszero\n      tag_743\n      jumpi\n        /* \"#utility.yul\":30725:30804   */\n      tag_744\n      tag_392\n      jump\t// in\n    tag_744:\n        /* \"#utility.yul\":30689:30806   */\n    tag_743:\n        /* \"#utility.yul\":30830:30912   */\n      tag_745\n        /* \"#utility.yul\":30904:30911   */\n      dup6\n        /* \"#utility.yul\":30895:30901   */\n      dup3\n        /* \"#utility.yul\":30884:30893   */\n      dup7\n        /* \"#utility.yul\":30880:30902   */\n      add\n        /* \"#utility.yul\":30830:30912   */\n      tag_434\n      jump\t// in\n    tag_745:\n        /* \"#utility.yul\":30820:30912   */\n      swap2\n      pop\n        /* \"#utility.yul\":30615:30922   */\n      pop\n        /* \"#utility.yul\":30013:30929   */\n      swap3\n      pop\n      swap3\n      swap1\n      pop\n      jump\t// out\n        /* \"#utility.yul\":31021:32326   */\n    tag_435:\n        /* \"#utility.yul\":31154:31157   */\n      0x00\n        /* \"#utility.yul\":31190:31194   */\n      0xa0\n        /* \"#utility.yul\":31185:31188   */\n      dup4\n        /* \"#utility.yul\":31181:31195   */\n      add\n        /* \"#utility.yul\":31276:31280   */\n      0x00\n        /* \"#utility.yul\":31269:31274   */\n      dup4\n        /* \"#utility.yul\":31265:31281   */\n      add\n        /* \"#utility.yul\":31259:31282   */\n      mload\n        /* \"#utility.yul\":31295:31358   */\n      tag_747\n        /* \"#utility.yul\":31352:31356   */\n      0x00\n        /* \"#utility.yul\":31347:31350   */\n      dup7\n        /* \"#utility.yul\":31343:31357   */\n      add\n        /* \"#utility.yul\":31329:31341   */\n      dup3\n        /* \"#utility.yul\":31295:31358   */\n      tag_418\n      jump\t// in\n    tag_747:\n        /* \"#utility.yul\":31205:31368   */\n      pop\n        /* \"#utility.yul\":31462:31466   */\n      0x20\n        /* \"#utility.yul\":31455:31460   */\n      dup4\n        /* \"#utility.yul\":31451:31467   */\n      add\n        /* \"#utility.yul\":31445:31468   */\n      mload\n        /* \"#utility.yul\":31515:31518   */\n      dup5\n        /* \"#utility.yul\":31509:31513   */\n      dup3\n        /* \"#utility.yul\":31505:31519   */\n      sub\n        /* \"#utility.yul\":31498:31502   */\n      0x20\n        /* \"#utility.yul\":31493:31496   */\n      dup7\n        /* \"#utility.yul\":31489:31503   */\n      add\n        /* \"#utility.yul\":31482:31520   */\n      mstore\n        /* \"#utility.yul\":31541:31614   */\n      tag_748\n        /* \"#utility.yul\":31609:31613   */\n      dup3\n        /* \"#utility.yul\":31595:31607   */\n      dup3\n        /* \"#utility.yul\":31541:31614   */\n      tag_422\n      jump\t// in\n    tag_748:\n        /* \"#utility.yul\":31533:31614   */\n      swap2\n      pop\n        /* \"#utility.yul\":31378:31625   */\n      pop\n        /* \"#utility.yul\":31715:31719   */\n      0x40\n        /* \"#utility.yul\":31708:31713   */\n      dup4\n        /* \"#utility.yul\":31704:31720   */\n      add\n        /* \"#utility.yul\":31698:31721   */\n      mload\n        /* \"#utility.yul\":31768:31771   */\n      dup5\n        /* \"#utility.yul\":31762:31766   */\n      dup3\n        /* \"#utility.yul\":31758:31772   */\n      sub\n        /* \"#utility.yul\":31751:31755   */\n      0x40\n        /* \"#utility.yul\":31746:31749   */\n      dup7\n        /* \"#utility.yul\":31742:31756   */\n      add\n        /* \"#utility.yul\":31735:31773   */\n      mstore\n        /* \"#utility.yul\":31794:31867   */\n      tag_749\n        /* \"#utility.yul\":31862:31866   */\n      dup3\n        /* \"#utility.yul\":31848:31860   */\n      dup3\n        /* \"#utility.yul\":31794:31867   */\n      tag_422\n      jump\t// in\n    tag_749:\n        /* \"#utility.yul\":31786:31867   */\n      swap2\n      pop\n        /* \"#utility.yul\":31635:31878   */\n      pop\n        /* \"#utility.yul\":31958:31962   */\n      0x60\n        /* \"#utility.yul\":31951:31956   */\n      dup4\n        /* \"#utility.yul\":31947:31963   */\n      add\n        /* \"#utility.yul\":31941:31964   */\n      mload\n        /* \"#utility.yul\":31977:32040   */\n      tag_750\n        /* \"#utility.yul\":32034:32038   */\n      0x60\n        /* \"#utility.yul\":32029:32032   */\n      dup7\n        /* \"#utility.yul\":32025:32039   */\n      add\n        /* \"#utility.yul\":32011:32023   */\n      dup3\n        /* \"#utility.yul\":31977:32040   */\n      tag_423\n      jump\t// in\n    tag_750:\n        /* \"#utility.yul\":31888:32050   */\n      pop\n        /* \"#utility.yul\":32136:32140   */\n      0x80\n        /* \"#utility.yul\":32129:32134   */\n      dup4\n        /* \"#utility.yul\":32125:32141   */\n      add\n        /* \"#utility.yul\":32119:32142   */\n      mload\n        /* \"#utility.yul\":32189:32192   */\n      dup5\n        /* \"#utility.yul\":32183:32187   */\n      dup3\n        /* \"#utility.yul\":32179:32193   */\n      sub\n        /* \"#utility.yul\":32172:32176   */\n      0x80\n        /* \"#utility.yul\":32167:32170   */\n      dup7\n        /* \"#utility.yul\":32163:32177   */\n      add\n        /* \"#utility.yul\":32156:32194   */\n      mstore\n        /* \"#utility.yul\":32215:32288   */\n      tag_751\n        /* \"#utility.yul\":32283:32287   */\n      dup3\n        /* \"#utility.yul\":32269:32281   */\n      dup3\n        /* \"#utility.yul\":32215:32288   */\n      tag_422\n      jump\t// in\n    tag_751:\n        /* \"#utility.yul\":32207:32288   */\n      swap2\n      pop\n        /* \"#utility.yul\":32060:32299   */\n      pop\n        /* \"#utility.yul\":32316:32320   */\n      dup1\n        /* \"#utility.yul\":32309:32320   */\n      swap2\n      pop\n        /* \"#utility.yul\":31159:32326   */\n      pop\n        /* \"#utility.yul\":31021:32326   */\n      swap3\n      swap2\n      pop\n      pop\n      jump\t// out\n        /* \"#utility.yul\":32332:32475   */\n    tag_436:\n        /* \"#utility.yul\":32428:32434   */\n      0x00\n        /* \"#utility.yul\":32462:32467   */\n      dup2\n        /* \"#utility.yul\":32456:32468   */\n      mload\n        /* \"#utility.yul\":32446:32468   */\n      swap1\n      pop\n        /* \"#utility.yul\":32332:32475   */\n      swap2\n      swap1\n      pop\n      jump\t// out\n        /* \"#utility.yul\":32481:32694   */\n    tag_437:\n        /* \"#utility.yul\":32609:32620   */\n      0x00\n        /* \"#utility.yul\":32643:32649   */\n      dup3\n        /* \"#utility.yul\":32638:32641   */\n      dup3\n        /* \"#utility.yul\":32631:32650   */\n      mstore\n        /* \"#utility.yul\":32683:32687   */\n      0x20\n        /* \"#utility.yul\":32678:32681   */\n      dup3\n        /* \"#utility.yul\":32674:32688   */\n      add\n        /* \"#utility.yul\":32659:32688   */\n      swap1\n      pop\n        /* \"#utility.yul\":32481:32694   */\n      swap3\n      swap2\n      pop\n      pop\n      jump\t// out\n        /* \"#utility.yul\":32700:32861   */\n    tag_438:\n        /* \"#utility.yul\":32796:32800   */\n      0x00\n        /* \"#utility.yul\":32819:32822   */\n      dup2\n        /* \"#utility.yul\":32811:32822   */\n      swap1\n      pop\n        /* \"#utility.yul\":32849:32853   */\n      0x20\n        /* \"#utility.yul\":32844:32847   */\n      dup3\n        /* \"#utility.yul\":32840:32854   */\n      add\n        /* \"#utility.yul\":32832:32854   */\n      swap1\n      pop\n        /* \"#utility.yul\":32700:32861   */\n      swap2\n      swap1\n      pop\n      jump\t// out\n        /* \"#utility.yul\":32947:36326   */\n    tag_439:\n        /* \"#utility.yul\":33064:33067   */\n      0x00\n        /* \"#utility.yul\":33100:33106   */\n      0x01a0\n        /* \"#utility.yul\":33095:33098   */\n      dup4\n        /* \"#utility.yul\":33091:33107   */\n      add\n        /* \"#utility.yul\":33200:33204   */\n      0x00\n        /* \"#utility.yul\":33193:33198   */\n      dup4\n        /* \"#utility.yul\":33189:33205   */\n      add\n        /* \"#utility.yul\":33183:33206   */\n      mload\n        /* \"#utility.yul\":33219:33282   */\n      tag_756\n        /* \"#utility.yul\":33276:33280   */\n      0x00\n        /* \"#utility.yul\":33271:33274   */\n      dup7\n        /* \"#utility.yul\":33267:33281   */\n      add\n        /* \"#utility.yul\":33253:33265   */\n      dup3\n        /* \"#utility.yul\":33219:33282   */\n      tag_418\n      jump\t// in\n    tag_756:\n        /* \"#utility.yul\":33117:33292   */\n      pop\n        /* \"#utility.yul\":33375:33379   */\n      0x20\n        /* \"#utility.yul\":33368:33373   */\n      dup4\n        /* \"#utility.yul\":33364:33380   */\n      add\n        /* \"#utility.yul\":33358:33381   */\n      mload\n        /* \"#utility.yul\":33428:33431   */\n      dup5\n        /* \"#utility.yul\":33422:33426   */\n      dup3\n        /* \"#utility.yul\":33418:33432   */\n      sub\n        /* \"#utility.yul\":33411:33415   */\n      0x20\n        /* \"#utility.yul\":33406:33409   */\n      dup7\n        /* \"#utility.yul\":33402:33416   */\n      add\n        /* \"#utility.yul\":33395:33433   */\n      mstore\n        /* \"#utility.yul\":33454:33527   */\n      tag_757\n        /* \"#utility.yul\":33522:33526   */\n      dup3\n        /* \"#utility.yul\":33508:33520   */\n      dup3\n        /* \"#utility.yul\":33454:33527   */\n      tag_422\n      jump\t// in\n    tag_757:\n        /* \"#utility.yul\":33446:33527   */\n      swap2\n      pop\n        /* \"#utility.yul\":33302:33538   */\n      pop\n        /* \"#utility.yul\":33628:33632   */\n      0x40\n        /* \"#utility.yul\":33621:33626   */\n      dup4\n        /* \"#utility.yul\":33617:33633   */\n      add\n        /* \"#utility.yul\":33611:33634   */\n      mload\n        /* \"#utility.yul\":33681:33684   */\n      dup5\n        /* \"#utility.yul\":33675:33679   */\n      dup3\n        /* \"#utility.yul\":33671:33685   */\n      sub\n        /* \"#utility.yul\":33664:33668   */\n      0x40\n        /* \"#utility.yul\":33659:33662   */\n      dup7\n        /* \"#utility.yul\":33655:33669   */\n      add\n        /* \"#utility.yul\":33648:33686   */\n      mstore\n        /* \"#utility.yul\":33707:33780   */\n      tag_758\n        /* \"#utility.yul\":33775:33779   */\n      dup3\n        /* \"#utility.yul\":33761:33773   */\n      dup3\n        /* \"#utility.yul\":33707:33780   */\n      tag_422\n      jump\t// in\n    tag_758:\n        /* \"#utility.yul\":33699:33780   */\n      swap2\n      pop\n        /* \"#utility.yul\":33548:33791   */\n      pop\n        /* \"#utility.yul\":33875:33879   */\n      0x60\n        /* \"#utility.yul\":33868:33873   */\n      dup4\n        /* \"#utility.yul\":33864:33880   */\n      add\n        /* \"#utility.yul\":33858:33881   */\n      mload\n        /* \"#utility.yul\":33928:33931   */\n      dup5\n        /* \"#utility.yul\":33922:33926   */\n      dup3\n        /* \"#utility.yul\":33918:33932   */\n      sub\n        /* \"#utility.yul\":33911:33915   */\n      0x60\n        /* \"#utility.yul\":33906:33909   */\n      dup7\n        /* \"#utility.yul\":33902:33916   */\n      add\n        /* \"#utility.yul\":33895:33933   */\n      mstore\n        /* \"#utility.yul\":33954:34027   */\n      tag_759\n        /* \"#utility.yul\":34022:34026   */\n      dup3\n        /* \"#utility.yul\":34008:34020   */\n      dup3\n        /* \"#utility.yul\":33954:34027   */\n      tag_422\n      jump\t// in\n    tag_759:\n        /* \"#utility.yul\":33946:34027   */\n      swap2\n      pop\n        /* \"#utility.yul\":33801:34038   */\n      pop\n        /* \"#utility.yul\":34123:34127   */\n      0x80\n        /* \"#utility.yul\":34116:34121   */\n      dup4\n        /* \"#utility.yul\":34112:34128   */\n      add\n        /* \"#utility.yul\":34106:34129   */\n      mload\n        /* \"#utility.yul\":34176:34179   */\n      dup5\n        /* \"#utility.yul\":34170:34174   */\n      dup3\n        /* \"#utility.yul\":34166:34180   */\n      sub\n        /* \"#utility.yul\":34159:34163   */\n      0x80\n        /* \"#utility.yul\":34154:34157   */\n      dup7\n        /* \"#utility.yul\":34150:34164   */\n      add\n        /* \"#utility.yul\":34143:34181   */\n      mstore\n        /* \"#utility.yul\":34202:34275   */\n      tag_760\n        /* \"#utility.yul\":34270:34274   */\n      dup3\n        /* \"#utility.yul\":34256:34268   */\n      dup3\n        /* \"#utility.yul\":34202:34275   */\n      tag_422\n      jump\t// in\n    tag_760:\n        /* \"#utility.yul\":34194:34275   */\n      swap2\n      pop\n        /* \"#utility.yul\":34048:34286   */\n      pop\n        /* \"#utility.yul\":34377:34381   */\n      0xa0\n        /* \"#utility.yul\":34370:34375   */\n      dup4\n        /* \"#utility.yul\":34366:34382   */\n      add\n        /* \"#utility.yul\":34360:34383   */\n      mload\n        /* \"#utility.yul\":34430:34433   */\n      dup5\n        /* \"#utility.yul\":34424:34428   */\n      dup3\n        /* \"#utility.yul\":34420:34434   */\n      sub\n        /* \"#utility.yul\":34413:34417   */\n      0xa0\n        /* \"#utility.yul\":34408:34411   */\n      dup7\n        /* \"#utility.yul\":34404:34418   */\n      add\n        /* \"#utility.yul\":34397:34435   */\n      mstore\n        /* \"#utility.yul\":34456:34529   */\n      tag_761\n        /* \"#utility.yul\":34524:34528   */\n      dup3\n        /* \"#utility.yul\":34510:34522   */\n      dup3\n        /* \"#utility.yul\":34456:34529   */\n      tag_422\n      jump\t// in\n    tag_761:\n        /* \"#utility.yul\":34448:34529   */\n      swap2\n      pop\n        /* \"#utility.yul\":34296:34540   */\n      pop\n        /* \"#utility.yul\":34627:34631   */\n      0xc0\n        /* \"#utility.yul\":34620:34625   */\n      dup4\n        /* \"#utility.yul\":34616:34632   */\n      add\n        /* \"#utility.yul\":34610:34633   */\n      mload\n        /* \"#utility.yul\":34680:34683   */\n      dup5\n        /* \"#utility.yul\":34674:34678   */\n      dup3\n        /* \"#utility.yul\":34670:34684   */\n      sub\n        /* \"#utility.yul\":34663:34667   */\n      0xc0\n        /* \"#utility.yul\":34658:34661   */\n      dup7\n        /* \"#utility.yul\":34654:34668   */\n      add\n        /* \"#utility.yul\":34647:34685   */\n      mstore\n        /* \"#utility.yul\":34706:34779   */\n      tag_762\n        /* \"#utility.yul\":34774:34778   */\n      dup3\n        /* \"#utility.yul\":34760:34772   */\n      dup3\n        /* \"#utility.yul\":34706:34779   */\n      tag_422\n      jump\t// in\n    tag_762:\n        /* \"#utility.yul\":34698:34779   */\n      swap2\n      pop\n        /* \"#utility.yul\":34550:34790   */\n      pop\n        /* \"#utility.yul\":34873:34877   */\n      0xe0\n        /* \"#utility.yul\":34866:34871   */\n      dup4\n        /* \"#utility.yul\":34862:34878   */\n      add\n        /* \"#utility.yul\":34856:34879   */\n      mload\n        /* \"#utility.yul\":34926:34929   */\n      dup5\n        /* \"#utility.yul\":34920:34924   */\n      dup3\n        /* \"#utility.yul\":34916:34930   */\n      sub\n        /* \"#utility.yul\":34909:34913   */\n      0xe0\n        /* \"#utility.yul\":34904:34907   */\n      dup7\n        /* \"#utility.yul\":34900:34914   */\n      add\n        /* \"#utility.yul\":34893:34931   */\n      mstore\n        /* \"#utility.yul\":34952:35025   */\n      tag_763\n        /* \"#utility.yul\":35020:35024   */\n      dup3\n        /* \"#utility.yul\":35006:35018   */\n      dup3\n        /* \"#utility.yul\":34952:35025   */\n      tag_422\n      jump\t// in\n    tag_763:\n        /* \"#utility.yul\":34944:35025   */\n      swap2\n      pop\n        /* \"#utility.yul\":34800:35036   */\n      pop\n        /* \"#utility.yul\":35123:35129   */\n      0x0100\n        /* \"#utility.yul\":35116:35121   */\n      dup4\n        /* \"#utility.yul\":35112:35130   */\n      add\n        /* \"#utility.yul\":35106:35131   */\n      mload\n        /* \"#utility.yul\":35180:35183   */\n      dup5\n        /* \"#utility.yul\":35174:35178   */\n      dup3\n        /* \"#utility.yul\":35170:35184   */\n      sub\n        /* \"#utility.yul\":35161:35167   */\n      0x0100\n        /* \"#utility.yul\":35156:35159   */\n      dup7\n        /* \"#utility.yul\":35152:35168   */\n      add\n        /* \"#utility.yul\":35145:35185   */\n      mstore\n        /* \"#utility.yul\":35206:35279   */\n      tag_764\n        /* \"#utility.yul\":35274:35278   */\n      dup3\n        /* \"#utility.yul\":35260:35272   */\n      dup3\n        /* \"#utility.yul\":35206:35279   */\n      tag_422\n      jump\t// in\n    tag_764:\n        /* \"#utility.yul\":35198:35279   */\n      swap2\n      pop\n        /* \"#utility.yul\":35046:35290   */\n      pop\n        /* \"#utility.yul\":35378:35384   */\n      0x0120\n        /* \"#utility.yul\":35371:35376   */\n      dup4\n        /* \"#utility.yul\":35367:35385   */\n      add\n        /* \"#utility.yul\":35361:35386   */\n      mload\n        /* \"#utility.yul\":35435:35438   */\n      dup5\n        /* \"#utility.yul\":35429:35433   */\n      dup3\n        /* \"#utility.yul\":35425:35439   */\n      sub\n        /* \"#utility.yul\":35416:35422   */\n      0x0120\n        /* \"#utility.yul\":35411:35414   */\n      dup7\n        /* \"#utility.yul\":35407:35423   */\n      add\n        /* \"#utility.yul\":35400:35440   */\n      mstore\n        /* \"#utility.yul\":35461:35534   */\n      tag_765\n        /* \"#utility.yul\":35529:35533   */\n      dup3\n        /* \"#utility.yul\":35515:35527   */\n      dup3\n        /* \"#utility.yul\":35461:35534   */\n      tag_422\n      jump\t// in\n    tag_765:\n        /* \"#utility.yul\":35453:35534   */\n      swap2\n      pop\n        /* \"#utility.yul\":35300:35545   */\n      pop\n        /* \"#utility.yul\":35631:35637   */\n      0x0140\n        /* \"#utility.yul\":35624:35629   */\n      dup4\n        /* \"#utility.yul\":35620:35638   */\n      add\n        /* \"#utility.yul\":35614:35639   */\n      mload\n        /* \"#utility.yul\":35688:35691   */\n      dup5\n        /* \"#utility.yul\":35682:35686   */\n      dup3\n        /* \"#utility.yul\":35678:35692   */\n      sub\n        /* \"#utility.yul\":35669:35675   */\n      0x0140\n        /* \"#utility.yul\":35664:35667   */\n      dup7\n        /* \"#utility.yul\":35660:35676   */\n      add\n        /* \"#utility.yul\":35653:35693   */\n      mstore\n        /* \"#utility.yul\":35714:35787   */\n      tag_766\n        /* \"#utility.yul\":35782:35786   */\n      dup3\n        /* \"#utility.yul\":35768:35780   */\n      dup3\n        /* \"#utility.yul\":35714:35787   */\n      tag_422\n      jump\t// in\n    tag_766:\n        /* \"#utility.yul\":35706:35787   */\n      swap2\n      pop\n        /* \"#utility.yul\":35555:35798   */\n      pop\n        /* \"#utility.yul\":35878:35884   */\n      0x0160\n        /* \"#utility.yul\":35871:35876   */\n      dup4\n        /* \"#utility.yul\":35867:35885   */\n      add\n        /* \"#utility.yul\":35861:35886   */\n      mload\n        /* \"#utility.yul\":35935:35938   */\n      dup5\n        /* \"#utility.yul\":35929:35933   */\n      dup3\n        /* \"#utility.yul\":35925:35939   */\n      sub\n        /* \"#utility.yul\":35916:35922   */\n      0x0160\n        /* \"#utility.yul\":35911:35914   */\n      dup7\n        /* \"#utility.yul\":35907:35923   */\n      add\n        /* \"#utility.yul\":35900:35940   */\n      mstore\n        /* \"#utility.yul\":35961:36034   */\n      tag_767\n        /* \"#utility.yul\":36029:36033   */\n      dup3\n        /* \"#utility.yul\":36015:36027   */\n      dup3\n        /* \"#utility.yul\":35961:36034   */\n      tag_422\n      jump\t// in\n    tag_767:\n        /* \"#utility.yul\":35953:36034   */\n      swap2\n      pop\n        /* \"#utility.yul\":35808:36045   */\n      pop\n        /* \"#utility.yul\":36132:36138   */\n      0x0180\n        /* \"#utility.yul\":36125:36130   */\n      dup4\n        /* \"#utility.yul\":36121:36139   */\n      add\n        /* \"#utility.yul\":36115:36140   */\n      mload\n        /* \"#utility.yul\":36189:36192   */\n      dup5\n        /* \"#utility.yul\":36183:36187   */\n      dup3\n        /* \"#utility.yul\":36179:36193   */\n      sub\n        /* \"#utility.yul\":36170:36176   */\n      0x0180\n        /* \"#utility.yul\":36165:36168   */\n      dup7\n        /* \"#utility.yul\":36161:36177   */\n      add\n        /* \"#utility.yul\":36154:36194   */\n      mstore\n        /* \"#utility.yul\":36215:36288   */\n      tag_768\n        /* \"#utility.yul\":36283:36287   */\n      dup3\n        /* \"#utility.yul\":36269:36281   */\n      dup3\n        /* \"#utility.yul\":36215:36288   */\n      tag_422\n      jump\t// in\n    tag_768:\n        /* \"#utility.yul\":36207:36288   */\n      swap2\n      pop\n        /* \"#utility.yul\":36055:36299   */\n      pop\n        /* \"#utility.yul\":36316:36320   */\n      dup1\n        /* \"#utility.yul\":36309:36320   */\n      swap2\n      pop\n        /* \"#utility.yul\":33069:36326   */\n      pop\n        /* \"#utility.yul\":32947:36326   */\n      swap3\n      swap2\n      pop\n      pop\n      jump\t// out\n        /* \"#utility.yul\":36332:36604   */\n    tag_440:\n        /* \"#utility.yul\":36459:36469   */\n      0x00\n        /* \"#utility.yul\":36494:36598   */\n      tag_770\n        /* \"#utility.yul\":36594:36597   */\n      dup4\n        /* \"#utility.yul\":36586:36592   */\n      dup4\n        /* \"#utility.yul\":36494:36598   */\n      tag_439\n      jump\t// in\n    tag_770:\n        /* \"#utility.yul\":36480:36598   */\n      swap1\n      pop\n        /* \"#utility.yul\":36332:36604   */\n      swap3\n      swap2\n      pop\n      pop\n      jump\t// out\n        /* \"#utility.yul\":36610:36752   */\n    tag_441:\n        /* \"#utility.yul\":36709:36713   */\n      0x00\n        /* \"#utility.yul\":36741:36745   */\n      0x20\n        /* \"#utility.yul\":36736:36739   */\n      dup3\n        /* \"#utility.yul\":36732:36746   */\n      add\n        /* \"#utility.yul\":36724:36746   */\n      swap1\n      pop\n        /* \"#utility.yul\":36610:36752   */\n      swap2\n      swap1\n      pop\n      jump\t// out\n        /* \"#utility.yul\":36842:37985   */\n    tag_442:\n        /* \"#utility.yul\":37019:37022   */\n      0x00\n        /* \"#utility.yul\":37048:37131   */\n      tag_773\n        /* \"#utility.yul\":37125:37130   */\n      dup3\n        /* \"#utility.yul\":37048:37131   */\n      tag_436\n      jump\t// in\n    tag_773:\n        /* \"#utility.yul\":37147:37262   */\n      tag_774\n        /* \"#utility.yul\":37255:37261   */\n      dup2\n        /* \"#utility.yul\":37250:37253   */\n      dup6\n        /* \"#utility.yul\":37147:37262   */\n      tag_437\n      jump\t// in\n    tag_774:\n        /* \"#utility.yul\":37140:37262   */\n      swap4\n      pop\n        /* \"#utility.yul\":37288:37291   */\n      dup4\n        /* \"#utility.yul\":37333:37337   */\n      0x20\n        /* \"#utility.yul\":37325:37331   */\n      dup3\n        /* \"#utility.yul\":37321:37338   */\n      mul\n        /* \"#utility.yul\":37316:37319   */\n      dup6\n        /* \"#utility.yul\":37312:37339   */\n      add\n        /* \"#utility.yul\":37363:37448   */\n      tag_775\n        /* \"#utility.yul\":37442:37447   */\n      dup6\n        /* \"#utility.yul\":37363:37448   */\n      tag_438\n      jump\t// in\n    tag_775:\n        /* \"#utility.yul\":37471:37478   */\n      dup1\n        /* \"#utility.yul\":37502:37503   */\n      0x00\n        /* \"#utility.yul\":37487:37940   */\n    tag_776:\n        /* \"#utility.yul\":37512:37518   */\n      dup6\n        /* \"#utility.yul\":37509:37510   */\n      dup2\n        /* \"#utility.yul\":37506:37519   */\n      lt\n        /* \"#utility.yul\":37487:37940   */\n      iszero\n      tag_778\n      jumpi\n        /* \"#utility.yul\":37583:37592   */\n      dup5\n        /* \"#utility.yul\":37577:37581   */\n      dup5\n        /* \"#utility.yul\":37573:37593   */\n      sub\n        /* \"#utility.yul\":37568:37571   */\n      dup10\n        /* \"#utility.yul\":37561:37594   */\n      mstore\n        /* \"#utility.yul\":37634:37640   */\n      dup2\n        /* \"#utility.yul\":37628:37641   */\n      mload\n        /* \"#utility.yul\":37662:37784   */\n      tag_779\n        /* \"#utility.yul\":37779:37783   */\n      dup6\n        /* \"#utility.yul\":37764:37777   */\n      dup3\n        /* \"#utility.yul\":37662:37784   */\n      tag_440\n      jump\t// in\n    tag_779:\n        /* \"#utility.yul\":37654:37784   */\n      swap5\n      pop\n        /* \"#utility.yul\":37807:37896   */\n      tag_780\n        /* \"#utility.yul\":37889:37895   */\n      dup4\n        /* \"#utility.yul\":37807:37896   */\n      tag_441\n      jump\t// in\n    tag_780:\n        /* \"#utility.yul\":37797:37896   */\n      swap3\n      pop\n        /* \"#utility.yul\":37925:37929   */\n      0x20\n        /* \"#utility.yul\":37920:37923   */\n      dup11\n        /* \"#utility.yul\":37916:37930   */\n      add\n        /* \"#utility.yul\":37909:37930   */\n      swap10\n      pop\n        /* \"#utility.yul\":37547:37940   */\n      pop\n        /* \"#utility.yul\":37534:37535   */\n      0x01\n        /* \"#utility.yul\":37531:37532   */\n      dup2\n        /* \"#utility.yul\":37527:37536   */\n      add\n        /* \"#utility.yul\":37522:37536   */\n      swap1\n      pop\n        /* \"#utility.yul\":37487:37940   */\n      jump(tag_776)\n    tag_778:\n        /* \"#utility.yul\":37491:37505   */\n      pop\n        /* \"#utility.yul\":37956:37960   */\n      dup3\n        /* \"#utility.yul\":37949:37960   */\n      swap8\n      pop\n        /* \"#utility.yul\":37976:37979   */\n      dup8\n        /* \"#utility.yul\":37969:37979   */\n      swap6\n      pop\n        /* \"#utility.yul\":37024:37985   */\n      pop\n      pop\n      pop\n      pop\n      pop\n        /* \"#utility.yul\":36842:37985   */\n      swap3\n      swap2\n      pop\n      pop\n      jump\t// out\n        /* \"#utility.yul\":37991:38769   */\n    tag_44:\n        /* \"#utility.yul\":38284:38288   */\n      0x00\n        /* \"#utility.yul\":38322:38324   */\n      0x40\n        /* \"#utility.yul\":38311:38320   */\n      dup3\n        /* \"#utility.yul\":38307:38325   */\n      add\n        /* \"#utility.yul\":38299:38325   */\n      swap1\n      pop\n        /* \"#utility.yul\":38371:38380   */\n      dup2\n        /* \"#utility.yul\":38365:38369   */\n      dup2\n        /* \"#utility.yul\":38361:38381   */\n      sub\n        /* \"#utility.yul\":38357:38358   */\n      0x00\n        /* \"#utility.yul\":38346:38355   */\n      dup4\n        /* \"#utility.yul\":38342:38359   */\n      add\n        /* \"#utility.yul\":38335:38382   */\n      mstore\n        /* \"#utility.yul\":38399:38521   */\n      tag_782\n        /* \"#utility.yul\":38516:38520   */\n      dup2\n        /* \"#utility.yul\":38507:38513   */\n      dup6\n        /* \"#utility.yul\":38399:38521   */\n      tag_435\n      jump\t// in\n    tag_782:\n        /* \"#utility.yul\":38391:38521   */\n      swap1\n      pop\n        /* \"#utility.yul\":38568:38577   */\n      dup2\n        /* \"#utility.yul\":38562:38566   */\n      dup2\n        /* \"#utility.yul\":38558:38578   */\n      sub\n        /* \"#utility.yul\":38553:38555   */\n      0x20\n        /* \"#utility.yul\":38542:38551   */\n      dup4\n        /* \"#utility.yul\":38538:38556   */\n      add\n        /* \"#utility.yul\":38531:38579   */\n      mstore\n        /* \"#utility.yul\":38596:38762   */\n      tag_783\n        /* \"#utility.yul\":38757:38761   */\n      dup2\n        /* \"#utility.yul\":38748:38754   */\n      dup5\n        /* \"#utility.yul\":38596:38762   */\n      tag_442\n      jump\t// in\n    tag_783:\n        /* \"#utility.yul\":38588:38762   */\n      swap1\n      pop\n        /* \"#utility.yul\":37991:38769   */\n      swap4\n      swap3\n      pop\n      pop\n      pop\n      jump\t// out\n        /* \"#utility.yul\":38775:38915   */\n    tag_443:\n        /* \"#utility.yul\":38868:38874   */\n      0x00\n        /* \"#utility.yul\":38902:38907   */\n      dup2\n        /* \"#utility.yul\":38896:38908   */\n      mload\n        /* \"#utility.yul\":38886:38908   */\n      swap1\n      pop\n        /* \"#utility.yul\":38775:38915   */\n      swap2\n      swap1\n      pop\n      jump\t// out\n        /* \"#utility.yul\":38921:39131   */\n    tag_444:\n        /* \"#utility.yul\":39046:39057   */\n      0x00\n        /* \"#utility.yul\":39080:39086   */\n      dup3\n        /* \"#utility.yul\":39075:39078   */\n      dup3\n        /* \"#utility.yul\":39068:39087   */\n      mstore\n        /* \"#utility.yul\":39120:39124   */\n      0x20\n        /* \"#utility.yul\":39115:39118   */\n      dup3\n        /* \"#utility.yul\":39111:39125   */\n      add\n        /* \"#utility.yul\":39096:39125   */\n      swap1\n      pop\n        /* \"#utility.yul\":38921:39131   */\n      swap3\n      swap2\n      pop\n      pop\n      jump\t// out\n        /* \"#utility.yul\":39137:39295   */\n    tag_445:\n        /* \"#utility.yul\":39230:39234   */\n      0x00\n        /* \"#utility.yul\":39253:39256   */\n      dup2\n        /* \"#utility.yul\":39245:39256   */\n      swap1\n      pop\n        /* \"#utility.yul\":39283:39287   */\n      0x20\n        /* \"#utility.yul\":39278:39281   */\n      dup3\n        /* \"#utility.yul\":39274:39288   */\n      add\n        /* \"#utility.yul\":39266:39288   */\n      swap1\n      pop\n        /* \"#utility.yul\":39137:39295   */\n      swap2\n      swap1\n      pop\n      jump\t// out\n        /* \"#utility.yul\":39375:42840   */\n    tag_446:\n        /* \"#utility.yul\":39486:39489   */\n      0x00\n        /* \"#utility.yul\":39522:39528   */\n      0x01c0\n        /* \"#utility.yul\":39517:39520   */\n      dup4\n        /* \"#utility.yul\":39513:39529   */\n      add\n        /* \"#utility.yul\":39622:39626   */\n      0x00\n        /* \"#utility.yul\":39615:39620   */\n      dup4\n        /* \"#utility.yul\":39611:39627   */\n      add\n        /* \"#utility.yul\":39605:39628   */\n      mload\n        /* \"#utility.yul\":39641:39704   */\n      tag_788\n        /* \"#utility.yul\":39698:39702   */\n      0x00\n        /* \"#utility.yul\":39693:39696   */\n      dup7\n        /* \"#utility.yul\":39689:39703   */\n      add\n        /* \"#utility.yul\":39675:39687   */\n      dup3\n        /* \"#utility.yul\":39641:39704   */\n      tag_418\n      jump\t// in\n    tag_788:\n        /* \"#utility.yul\":39539:39714   */\n      pop\n        /* \"#utility.yul\":39797:39801   */\n      0x20\n        /* \"#utility.yul\":39790:39795   */\n      dup4\n        /* \"#utility.yul\":39786:39802   */\n      add\n        /* \"#utility.yul\":39780:39803   */\n      mload\n        /* \"#utility.yul\":39850:39853   */\n      dup5\n        /* \"#utility.yul\":39844:39848   */\n      dup3\n        /* \"#utility.yul\":39840:39854   */\n      sub\n        /* \"#utility.yul\":39833:39837   */\n      0x20\n        /* \"#utility.yul\":39828:39831   */\n      dup7\n        /* \"#utility.yul\":39824:39838   */\n      add\n        /* \"#utility.yul\":39817:39855   */\n      mstore\n        /* \"#utility.yul\":39876:39949   */\n      tag_789\n        /* \"#utility.yul\":39944:39948   */\n      dup3\n        /* \"#utility.yul\":39930:39942   */\n      dup3\n        /* \"#utility.yul\":39876:39949   */\n      tag_422\n      jump\t// in\n    tag_789:\n        /* \"#utility.yul\":39868:39949   */\n      swap2\n      pop\n        /* \"#utility.yul\":39724:39960   */\n      pop\n        /* \"#utility.yul\":40051:40055   */\n      0x40\n        /* \"#utility.yul\":40044:40049   */\n      dup4\n        /* \"#utility.yul\":40040:40056   */\n      add\n        /* \"#utility.yul\":40034:40057   */\n      mload\n        /* \"#utility.yul\":40104:40107   */\n      dup5\n        /* \"#utility.yul\":40098:40102   */\n      dup3\n        /* \"#utility.yul\":40094:40108   */\n      sub\n        /* \"#utility.yul\":40087:40091   */\n      0x40\n        /* \"#utility.yul\":40082:40085   */\n      dup7\n        /* \"#utility.yul\":40078:40092   */\n      add\n        /* \"#utility.yul\":40071:40109   */\n      mstore\n        /* \"#utility.yul\":40130:40203   */\n      tag_790\n        /* \"#utility.yul\":40198:40202   */\n      dup3\n        /* \"#utility.yul\":40184:40196   */\n      dup3\n        /* \"#utility.yul\":40130:40203   */\n      tag_422\n      jump\t// in\n    tag_790:\n        /* \"#utility.yul\":40122:40203   */\n      swap2\n      pop\n        /* \"#utility.yul\":39970:40214   */\n      pop\n        /* \"#utility.yul\":40301:40305   */\n      0x60\n        /* \"#utility.yul\":40294:40299   */\n      dup4\n        /* \"#utility.yul\":40290:40306   */\n      add\n        /* \"#utility.yul\":40284:40307   */\n      mload\n        /* \"#utility.yul\":40354:40357   */\n      dup5\n        /* \"#utility.yul\":40348:40352   */\n      dup3\n        /* \"#utility.yul\":40344:40358   */\n      sub\n        /* \"#utility.yul\":40337:40341   */\n      0x60\n        /* \"#utility.yul\":40332:40335   */\n      dup7\n        /* \"#utility.yul\":40328:40342   */\n      add\n        /* \"#utility.yul\":40321:40359   */\n      mstore\n        /* \"#utility.yul\":40380:40453   */\n      tag_791\n        /* \"#utility.yul\":40448:40452   */\n      dup3\n        /* \"#utility.yul\":40434:40446   */\n      dup3\n        /* \"#utility.yul\":40380:40453   */\n      tag_422\n      jump\t// in\n    tag_791:\n        /* \"#utility.yul\":40372:40453   */\n      swap2\n      pop\n        /* \"#utility.yul\":40224:40464   */\n      pop\n        /* \"#utility.yul\":40547:40551   */\n      0x80\n        /* \"#utility.yul\":40540:40545   */\n      dup4\n        /* \"#utility.yul\":40536:40552   */\n      add\n        /* \"#utility.yul\":40530:40553   */\n      mload\n        /* \"#utility.yul\":40600:40603   */\n      dup5\n        /* \"#utility.yul\":40594:40598   */\n      dup3\n        /* \"#utility.yul\":40590:40604   */\n      sub\n        /* \"#utility.yul\":40583:40587   */\n      0x80\n        /* \"#utility.yul\":40578:40581   */\n      dup7\n        /* \"#utility.yul\":40574:40588   */\n      add\n        /* \"#utility.yul\":40567:40605   */\n      mstore\n        /* \"#utility.yul\":40626:40699   */\n      tag_792\n        /* \"#utility.yul\":40694:40698   */\n      dup3\n        /* \"#utility.yul\":40680:40692   */\n      dup3\n        /* \"#utility.yul\":40626:40699   */\n      tag_422\n      jump\t// in\n    tag_792:\n        /* \"#utility.yul\":40618:40699   */\n      swap2\n      pop\n        /* \"#utility.yul\":40474:40710   */\n      pop\n        /* \"#utility.yul\":40797:40801   */\n      0xa0\n        /* \"#utility.yul\":40790:40795   */\n      dup4\n        /* \"#utility.yul\":40786:40802   */\n      add\n        /* \"#utility.yul\":40780:40803   */\n      mload\n        /* \"#utility.yul\":40850:40853   */\n      dup5\n        /* \"#utility.yul\":40844:40848   */\n      dup3\n        /* \"#utility.yul\":40840:40854   */\n      sub\n        /* \"#utility.yul\":40833:40837   */\n      0xa0\n        /* \"#utility.yul\":40828:40831   */\n      dup7\n        /* \"#utility.yul\":40824:40838   */\n      add\n        /* \"#utility.yul\":40817:40855   */\n      mstore\n        /* \"#utility.yul\":40876:40949   */\n      tag_793\n        /* \"#utility.yul\":40944:40948   */\n      dup3\n        /* \"#utility.yul\":40930:40942   */\n      dup3\n        /* \"#utility.yul\":40876:40949   */\n      tag_422\n      jump\t// in\n    tag_793:\n        /* \"#utility.yul\":40868:40949   */\n      swap2\n      pop\n        /* \"#utility.yul\":40720:40960   */\n      pop\n        /* \"#utility.yul\":41040:41044   */\n      0xc0\n        /* \"#utility.yul\":41033:41038   */\n      dup4\n        /* \"#utility.yul\":41029:41045   */\n      add\n        /* \"#utility.yul\":41023:41046   */\n      mload\n        /* \"#utility.yul\":41093:41096   */\n      dup5\n        /* \"#utility.yul\":41087:41091   */\n      dup3\n        /* \"#utility.yul\":41083:41097   */\n      sub\n        /* \"#utility.yul\":41076:41080   */\n      0xc0\n        /* \"#utility.yul\":41071:41074   */\n      dup7\n        /* \"#utility.yul\":41067:41081   */\n      add\n        /* \"#utility.yul\":41060:41098   */\n      mstore\n        /* \"#utility.yul\":41119:41192   */\n      tag_794\n        /* \"#utility.yul\":41187:41191   */\n      dup3\n        /* \"#utility.yul\":41173:41185   */\n      dup3\n        /* \"#utility.yul\":41119:41192   */\n      tag_422\n      jump\t// in\n    tag_794:\n        /* \"#utility.yul\":41111:41192   */\n      swap2\n      pop\n        /* \"#utility.yul\":40970:41203   */\n      pop\n        /* \"#utility.yul\":41291:41295   */\n      0xe0\n        /* \"#utility.yul\":41284:41289   */\n      dup4\n        /* \"#utility.yul\":41280:41296   */\n      add\n        /* \"#utility.yul\":41274:41297   */\n      mload\n        /* \"#utility.yul\":41344:41347   */\n      dup5\n        /* \"#utility.yul\":41338:41342   */\n      dup3\n        /* \"#utility.yul\":41334:41348   */\n      sub\n        /* \"#utility.yul\":41327:41331   */\n      0xe0\n        /* \"#utility.yul\":41322:41325   */\n      dup7\n        /* \"#utility.yul\":41318:41332   */\n      add\n        /* \"#utility.yul\":41311:41349   */\n      mstore\n        /* \"#utility.yul\":41370:41443   */\n      tag_795\n        /* \"#utility.yul\":41438:41442   */\n      dup3\n        /* \"#utility.yul\":41424:41436   */\n      dup3\n        /* \"#utility.yul\":41370:41443   */\n      tag_422\n      jump\t// in\n    tag_795:\n        /* \"#utility.yul\":41362:41443   */\n      swap2\n      pop\n        /* \"#utility.yul\":41213:41454   */\n      pop\n        /* \"#utility.yul\":41540:41546   */\n      0x0100\n        /* \"#utility.yul\":41533:41538   */\n      dup4\n        /* \"#utility.yul\":41529:41547   */\n      add\n        /* \"#utility.yul\":41523:41548   */\n      mload\n        /* \"#utility.yul\":41597:41600   */\n      dup5\n        /* \"#utility.yul\":41591:41595   */\n      dup3\n        /* \"#utility.yul\":41587:41601   */\n      sub\n        /* \"#utility.yul\":41578:41584   */\n      0x0100\n        /* \"#utility.yul\":41573:41576   */\n      dup7\n        /* \"#utility.yul\":41569:41585   */\n      add\n        /* \"#utility.yul\":41562:41602   */\n      mstore\n        /* \"#utility.yul\":41623:41696   */\n      tag_796\n        /* \"#utility.yul\":41691:41695   */\n      dup3\n        /* \"#utility.yul\":41677:41689   */\n      dup3\n        /* \"#utility.yul\":41623:41696   */\n      tag_422\n      jump\t// in\n    tag_796:\n        /* \"#utility.yul\":41615:41696   */\n      swap2\n      pop\n        /* \"#utility.yul\":41464:41707   */\n      pop\n        /* \"#utility.yul\":41794:41800   */\n      0x0120\n        /* \"#utility.yul\":41787:41792   */\n      dup4\n        /* \"#utility.yul\":41783:41801   */\n      add\n        /* \"#utility.yul\":41777:41802   */\n      mload\n        /* \"#utility.yul\":41815:41874   */\n      tag_797\n        /* \"#utility.yul\":41866:41872   */\n      0x0120\n        /* \"#utility.yul\":41861:41864   */\n      dup7\n        /* \"#utility.yul\":41857:41873   */\n      add\n        /* \"#utility.yul\":41843:41855   */\n      dup3\n        /* \"#utility.yul\":41815:41874   */\n      tag_428\n      jump\t// in\n    tag_797:\n        /* \"#utility.yul\":41717:41884   */\n      pop\n        /* \"#utility.yul\":41965:41971   */\n      0x0140\n        /* \"#utility.yul\":41958:41963   */\n      dup4\n        /* \"#utility.yul\":41954:41972   */\n      add\n        /* \"#utility.yul\":41948:41973   */\n      mload\n        /* \"#utility.yul\":42022:42025   */\n      dup5\n        /* \"#utility.yul\":42016:42020   */\n      dup3\n        /* \"#utility.yul\":42012:42026   */\n      sub\n        /* \"#utility.yul\":42003:42009   */\n      0x0140\n        /* \"#utility.yul\":41998:42001   */\n      dup7\n        /* \"#utility.yul\":41994:42010   */\n      add\n        /* \"#utility.yul\":41987:42027   */\n      mstore\n        /* \"#utility.yul\":42048:42121   */\n      tag_798\n        /* \"#utility.yul\":42116:42120   */\n      dup3\n        /* \"#utility.yul\":42102:42114   */\n      dup3\n        /* \"#utility.yul\":42048:42121   */\n      tag_422\n      jump\t// in\n    tag_798:\n        /* \"#utility.yul\":42040:42121   */\n      swap2\n      pop\n        /* \"#utility.yul\":41894:42132   */\n      pop\n        /* \"#utility.yul\":42212:42218   */\n      0x0160\n        /* \"#utility.yul\":42205:42210   */\n      dup4\n        /* \"#utility.yul\":42201:42219   */\n      add\n        /* \"#utility.yul\":42195:42220   */\n      mload\n        /* \"#utility.yul\":42269:42272   */\n      dup5\n        /* \"#utility.yul\":42263:42267   */\n      dup3\n        /* \"#utility.yul\":42259:42273   */\n      sub\n        /* \"#utility.yul\":42250:42256   */\n      0x0160\n        /* \"#utility.yul\":42245:42248   */\n      dup7\n        /* \"#utility.yul\":42241:42257   */\n      add\n        /* \"#utility.yul\":42234:42274   */\n      mstore\n        /* \"#utility.yul\":42295:42368   */\n      tag_799\n        /* \"#utility.yul\":42363:42367   */\n      dup3\n        /* \"#utility.yul\":42349:42361   */\n      dup3\n        /* \"#utility.yul\":42295:42368   */\n      tag_422\n      jump\t// in\n    tag_799:\n        /* \"#utility.yul\":42287:42368   */\n      swap2\n      pop\n        /* \"#utility.yul\":42142:42379   */\n      pop\n        /* \"#utility.yul\":42463:42469   */\n      0x0180\n        /* \"#utility.yul\":42456:42461   */\n      dup4\n        /* \"#utility.yul\":42452:42470   */\n      add\n        /* \"#utility.yul\":42446:42471   */\n      mload\n        /* \"#utility.yul\":42484:42549   */\n      tag_800\n        /* \"#utility.yul\":42541:42547   */\n      0x0180\n        /* \"#utility.yul\":42536:42539   */\n      dup7\n        /* \"#utility.yul\":42532:42548   */\n      add\n        /* \"#utility.yul\":42518:42530   */\n      dup3\n        /* \"#utility.yul\":42484:42549   */\n      tag_418\n      jump\t// in\n    tag_800:\n        /* \"#utility.yul\":42389:42559   */\n      pop\n        /* \"#utility.yul\":42646:42652   */\n      0x01a0\n        /* \"#utility.yul\":42639:42644   */\n      dup4\n        /* \"#utility.yul\":42635:42653   */\n      add\n        /* \"#utility.yul\":42629:42654   */\n      mload\n        /* \"#utility.yul\":42703:42706   */\n      dup5\n        /* \"#utility.yul\":42697:42701   */\n      dup3\n        /* \"#utility.yul\":42693:42707   */\n      sub\n        /* \"#utility.yul\":42684:42690   */\n      0x01a0\n        /* \"#utility.yul\":42679:42682   */\n      dup7\n        /* \"#utility.yul\":42675:42691   */\n      add\n        /* \"#utility.yul\":42668:42708   */\n      mstore\n        /* \"#utility.yul\":42729:42802   */\n      tag_801\n        /* \"#utility.yul\":42797:42801   */\n      dup3\n        /* \"#utility.yul\":42783:42795   */\n      dup3\n        /* \"#utility.yul\":42729:42802   */\n      tag_422\n      jump\t// in\n    tag_801:\n        /* \"#utility.yul\":42721:42802   */\n      swap2\n      pop\n        /* \"#utility.yul\":42569:42813   */\n      pop\n        /* \"#utility.yul\":42830:42834   */\n      dup1\n        /* \"#utility.yul\":42823:42834   */\n      swap2\n      pop\n        /* \"#utility.yul\":39491:42840   */\n      pop\n        /* \"#utility.yul\":39375:42840   */\n      swap3\n      swap2\n      pop\n      pop\n      jump\t// out\n        /* \"#utility.yul\":42846:43106   */\n    tag_447:\n        /* \"#utility.yul\":42967:42977   */\n      0x00\n        /* \"#utility.yul\":43002:43100   */\n      tag_803\n        /* \"#utility.yul\":43096:43099   */\n      dup4\n        /* \"#utility.yul\":43088:43094   */\n      dup4\n        /* \"#utility.yul\":43002:43100   */\n      tag_446\n      jump\t// in\n    tag_803:\n        /* \"#utility.yul\":42988:43100   */\n      swap1\n      pop\n        /* \"#utility.yul\":42846:43106   */\n      swap3\n      swap2\n      pop\n      pop\n      jump\t// out\n        /* \"#utility.yul\":43112:43251   */\n    tag_448:\n        /* \"#utility.yul\":43208:43212   */\n      0x00\n        /* \"#utility.yul\":43240:43244   */\n      0x20\n        /* \"#utility.yul\":43235:43238   */\n      dup3\n        /* \"#utility.yul\":43231:43245   */\n      add\n        /* \"#utility.yul\":43223:43245   */\n      swap1\n      pop\n        /* \"#utility.yul\":43112:43251   */\n      swap2\n      swap1\n      pop\n      jump\t// out\n        /* \"#utility.yul\":43335:44454   */\n    tag_449:\n        /* \"#utility.yul\":43506:43509   */\n      0x00\n        /* \"#utility.yul\":43535:43615   */\n      tag_806\n        /* \"#utility.yul\":43609:43614   */\n      dup3\n        /* \"#utility.yul\":43535:43615   */\n      tag_443\n      jump\t// in\n    tag_806:\n        /* \"#utility.yul\":43631:43743   */\n      tag_807\n        /* \"#utility.yul\":43736:43742   */\n      dup2\n        /* \"#utility.yul\":43731:43734   */\n      dup6\n        /* \"#utility.yul\":43631:43743   */\n      tag_444\n      jump\t// in\n    tag_807:\n        /* \"#utility.yul\":43624:43743   */\n      swap4\n      pop\n        /* \"#utility.yul\":43769:43772   */\n      dup4\n        /* \"#utility.yul\":43814:43818   */\n      0x20\n        /* \"#utility.yul\":43806:43812   */\n      dup3\n        /* \"#utility.yul\":43802:43819   */\n      mul\n        /* \"#utility.yul\":43797:43800   */\n      dup6\n        /* \"#utility.yul\":43793:43820   */\n      add\n        /* \"#utility.yul\":43844:43926   */\n      tag_808\n        /* \"#utility.yul\":43920:43925   */\n      dup6\n        /* \"#utility.yul\":43844:43926   */\n      tag_445\n      jump\t// in\n    tag_808:\n        /* \"#utility.yul\":43949:43956   */\n      dup1\n        /* \"#utility.yul\":43980:43981   */\n      0x00\n        /* \"#utility.yul\":43965:44409   */\n    tag_809:\n        /* \"#utility.yul\":43990:43996   */\n      dup6\n        /* \"#utility.yul\":43987:43988   */\n      dup2\n        /* \"#utility.yul\":43984:43997   */\n      lt\n        /* \"#utility.yul\":43965:44409   */\n      iszero\n      tag_811\n      jumpi\n        /* \"#utility.yul\":44061:44070   */\n      dup5\n        /* \"#utility.yul\":44055:44059   */\n      dup5\n        /* \"#utility.yul\":44051:44071   */\n      sub\n        /* \"#utility.yul\":44046:44049   */\n      dup10\n        /* \"#utility.yul\":44039:44072   */\n      mstore\n        /* \"#utility.yul\":44112:44118   */\n      dup2\n        /* \"#utility.yul\":44106:44119   */\n      mload\n        /* \"#utility.yul\":44140:44256   */\n      tag_812\n        /* \"#utility.yul\":44251:44255   */\n      dup6\n        /* \"#utility.yul\":44236:44249   */\n      dup3\n        /* \"#utility.yul\":44140:44256   */\n      tag_447\n      jump\t// in\n    tag_812:\n        /* \"#utility.yul\":44132:44256   */\n      swap5\n      pop\n        /* \"#utility.yul\":44279:44365   */\n      tag_813\n        /* \"#utility.yul\":44358:44364   */\n      dup4\n        /* \"#utility.yul\":44279:44365   */\n      tag_448\n      jump\t// in\n    tag_813:\n        /* \"#utility.yul\":44269:44365   */\n      swap3\n      pop\n        /* \"#utility.yul\":44394:44398   */\n      0x20\n        /* \"#utility.yul\":44389:44392   */\n      dup11\n        /* \"#utility.yul\":44385:44399   */\n      add\n        /* \"#utility.yul\":44378:44399   */\n      swap10\n      pop\n        /* \"#utility.yul\":44025:44409   */\n      pop\n        /* \"#utility.yul\":44012:44013   */\n      0x01\n        /* \"#utility.yul\":44009:44010   */\n      dup2\n        /* \"#utility.yul\":44005:44014   */\n      add\n        /* \"#utility.yul\":44000:44014   */\n      swap1\n      pop\n        /* \"#utility.yul\":43965:44409   */\n      jump(tag_809)\n    tag_811:\n        /* \"#utility.yul\":43969:43983   */\n      pop\n        /* \"#utility.yul\":44425:44429   */\n      dup3\n        /* \"#utility.yul\":44418:44429   */\n      swap8\n      pop\n        /* \"#utility.yul\":44445:44448   */\n      dup8\n        /* \"#utility.yul\":44438:44448   */\n      swap6\n      pop\n        /* \"#utility.yul\":43511:44454   */\n      pop\n      pop\n      pop\n      pop\n      pop\n        /* \"#utility.yul\":43335:44454   */\n      swap3\n      swap2\n      pop\n      pop\n      jump\t// out\n        /* \"#utility.yul\":44460:45226   */\n    tag_49:\n        /* \"#utility.yul\":44747:44751   */\n      0x00\n        /* \"#utility.yul\":44785:44787   */\n      0x40\n        /* \"#utility.yul\":44774:44783   */\n      dup3\n        /* \"#utility.yul\":44770:44788   */\n      add\n        /* \"#utility.yul\":44762:44788   */\n      swap1\n      pop\n        /* \"#utility.yul\":44834:44843   */\n      dup2\n        /* \"#utility.yul\":44828:44832   */\n      dup2\n        /* \"#utility.yul\":44824:44844   */\n      sub\n        /* \"#utility.yul\":44820:44821   */\n      0x00\n        /* \"#utility.yul\":44809:44818   */\n      dup4\n        /* \"#utility.yul\":44805:44822   */\n      add\n        /* \"#utility.yul\":44798:44845   */\n      mstore\n        /* \"#utility.yul\":44862:44984   */\n      tag_815\n        /* \"#utility.yul\":44979:44983   */\n      dup2\n        /* \"#utility.yul\":44970:44976   */\n      dup6\n        /* \"#utility.yul\":44862:44984   */\n      tag_424\n      jump\t// in\n    tag_815:\n        /* \"#utility.yul\":44854:44984   */\n      swap1\n      pop\n        /* \"#utility.yul\":45031:45040   */\n      dup2\n        /* \"#utility.yul\":45025:45029   */\n      dup2\n        /* \"#utility.yul\":45021:45041   */\n      sub\n        /* \"#utility.yul\":45016:45018   */\n      0x20\n        /* \"#utility.yul\":45005:45014   */\n      dup4\n        /* \"#utility.yul\":45001:45019   */\n      add\n        /* \"#utility.yul\":44994:45042   */\n      mstore\n        /* \"#utility.yul\":45059:45219   */\n      tag_816\n        /* \"#utility.yul\":45214:45218   */\n      dup2\n        /* \"#utility.yul\":45205:45211   */\n      dup5\n        /* \"#utility.yul\":45059:45219   */\n      tag_449\n      jump\t// in\n    tag_816:\n        /* \"#utility.yul\":45051:45219   */\n      swap1\n      pop\n        /* \"#utility.yul\":44460:45226   */\n      swap4\n      swap3\n      pop\n      pop\n      pop\n      jump\t// out\n        /* \"#utility.yul\":45232:45350   */\n    tag_450:\n        /* \"#utility.yul\":45319:45343   */\n      tag_818\n        /* \"#utility.yul\":45337:45342   */\n      dup2\n        /* \"#utility.yul\":45319:45343   */\n      tag_394\n      jump\t// in\n    tag_818:\n        /* \"#utility.yul\":45314:45317   */\n      dup3\n        /* \"#utility.yul\":45307:45344   */\n      mstore\n        /* \"#utility.yul\":45232:45350   */\n      pop\n      pop\n      jump\t// out\n        /* \"#utility.yul\":45356:45578   */\n    tag_53:\n        /* \"#utility.yul\":45449:45453   */\n      0x00\n        /* \"#utility.yul\":45487:45489   */\n      0x20\n        /* \"#utility.yul\":45476:45485   */\n      dup3\n        /* \"#utility.yul\":45472:45490   */\n      add\n        /* \"#utility.yul\":45464:45490   */\n      swap1\n      pop\n        /* \"#utility.yul\":45500:45571   */\n      tag_820\n        /* \"#utility.yul\":45568:45569   */\n      0x00\n        /* \"#utility.yul\":45557:45566   */\n      dup4\n        /* \"#utility.yul\":45553:45570   */\n      add\n        /* \"#utility.yul\":45544:45550   */\n      dup5\n        /* \"#utility.yul\":45500:45571   */\n      tag_450\n      jump\t// in\n    tag_820:\n        /* \"#utility.yul\":45356:45578   */\n      swap3\n      swap2\n      pop\n      pop\n      jump\t// out\n        /* \"#utility.yul\":45584:45721   */\n    tag_451:\n        /* \"#utility.yul\":45638:45643   */\n      0x00\n        /* \"#utility.yul\":45669:45675   */\n      dup2\n        /* \"#utility.yul\":45663:45676   */\n      mload\n        /* \"#utility.yul\":45654:45676   */\n      swap1\n      pop\n        /* \"#utility.yul\":45685:45715   */\n      tag_822\n        /* \"#utility.yul\":45709:45714   */\n      dup2\n        /* \"#utility.yul\":45685:45715   */\n      tag_414\n      jump\t// in\n    tag_822:\n        /* \"#utility.yul\":45584:45721   */\n      swap3\n      swap2\n      pop\n      pop\n      jump\t// out\n        /* \"#utility.yul\":45727:46072   */\n    tag_57:\n        /* \"#utility.yul\":45794:45800   */\n      0x00\n        /* \"#utility.yul\":45843:45845   */\n      0x20\n        /* \"#utility.yul\":45831:45840   */\n      dup3\n        /* \"#utility.yul\":45822:45829   */\n      dup5\n        /* \"#utility.yul\":45818:45841   */\n      sub\n        /* \"#utility.yul\":45814:45846   */\n      slt\n        /* \"#utility.yul\":45811:45930   */\n      iszero\n      tag_824\n      jumpi\n        /* \"#utility.yul\":45849:45928   */\n      tag_825\n      tag_391\n      jump\t// in\n    tag_825:\n        /* \"#utility.yul\":45811:45930   */\n    tag_824:\n        /* \"#utility.yul\":45969:45970   */\n      0x00\n        /* \"#utility.yul\":45994:46055   */\n      tag_826\n        /* \"#utility.yul\":46047:46054   */\n      dup5\n        /* \"#utility.yul\":46038:46044   */\n      dup3\n        /* \"#utility.yul\":46027:46036   */\n      dup6\n        /* \"#utility.yul\":46023:46045   */\n      add\n        /* \"#utility.yul\":45994:46055   */\n      tag_451\n      jump\t// in\n    tag_826:\n        /* \"#utility.yul\":45984:46055   */\n      swap2\n      pop\n        /* \"#utility.yul\":45940:46065   */\n      pop\n        /* \"#utility.yul\":45727:46072   */\n      swap3\n      swap2\n      pop\n      pop\n      jump\t// out\n        /* \"#utility.yul\":46078:46258   */\n    tag_452:\n        /* \"#utility.yul\":46126:46203   */\n      0x4e487b7100000000000000000000000000000000000000000000000000000000\n        /* \"#utility.yul\":46123:46124   */\n      0x00\n        /* \"#utility.yul\":46116:46204   */\n      mstore\n        /* \"#utility.yul\":46223:46227   */\n      0x22\n        /* \"#utility.yul\":46220:46221   */\n      0x04\n        /* \"#utility.yul\":46213:46228   */\n      mstore\n        /* \"#utility.yul\":46247:46251   */\n      0x24\n        /* \"#utility.yul\":46244:46245   */\n      0x00\n        /* \"#utility.yul\":46237:46252   */\n      revert\n        /* \"#utility.yul\":46264:46584   */\n    tag_130:\n        /* \"#utility.yul\":46308:46314   */\n      0x00\n        /* \"#utility.yul\":46345:46346   */\n      0x02\n        /* \"#utility.yul\":46339:46343   */\n      dup3\n        /* \"#utility.yul\":46335:46347   */\n      div\n        /* \"#utility.yul\":46325:46347   */\n      swap1\n      pop\n        /* \"#utility.yul\":46392:46393   */\n      0x01\n        /* \"#utility.yul\":46386:46390   */\n      dup3\n        /* \"#utility.yul\":46382:46394   */\n      and\n        /* \"#utility.yul\":46413:46431   */\n      dup1\n        /* \"#utility.yul\":46403:46484   */\n      tag_829\n      jumpi\n        /* \"#utility.yul\":46469:46473   */\n      0x7f\n        /* \"#utility.yul\":46461:46467   */\n      dup3\n        /* \"#utility.yul\":46457:46474   */\n      and\n        /* \"#utility.yul\":46447:46474   */\n      swap2\n      pop\n        /* \"#utility.yul\":46403:46484   */\n    tag_829:\n        /* \"#utility.yul\":46531:46533   */\n      0x20\n        /* \"#utility.yul\":46523:46529   */\n      dup3\n        /* \"#utility.yul\":46520:46534   */\n      lt\n        /* \"#utility.yul\":46500:46518   */\n      dup2\n        /* \"#utility.yul\":46497:46535   */\n      sub\n        /* \"#utility.yul\":46494:46578   */\n      tag_830\n      jumpi\n        /* \"#utility.yul\":46550:46568   */\n      tag_831\n      tag_452\n      jump\t// in\n    tag_831:\n        /* \"#utility.yul\":46494:46578   */\n    tag_830:\n        /* \"#utility.yul\":46315:46584   */\n      pop\n        /* \"#utility.yul\":46264:46584   */\n      swap2\n      swap1\n      pop\n      jump\t// out\n        /* \"#utility.yul\":46590:46731   */\n    tag_453:\n        /* \"#utility.yul\":46639:46643   */\n      0x00\n        /* \"#utility.yul\":46662:46665   */\n      dup2\n        /* \"#utility.yul\":46654:46665   */\n      swap1\n      pop\n        /* \"#utility.yul\":46685:46688   */\n      dup2\n        /* \"#utility.yul\":46682:46683   */\n      0x00\n        /* \"#utility.yul\":46675:46689   */\n      mstore\n        /* \"#utility.yul\":46719:46723   */\n      0x20\n        /* \"#utility.yul\":46716:46717   */\n      0x00\n        /* \"#utility.yul\":46706:46724   */\n      keccak256\n        /* \"#utility.yul\":46698:46724   */\n      swap1\n      pop\n        /* \"#utility.yul\":46590:46731   */\n      swap2\n      swap1\n      pop\n      jump\t// out\n        /* \"#utility.yul\":46737:46830   */\n    tag_454:\n        /* \"#utility.yul\":46774:46780   */\n      0x00\n        /* \"#utility.yul\":46821:46823   */\n      0x20\n        /* \"#utility.yul\":46816:46818   */\n      0x1f\n        /* \"#utility.yul\":46809:46814   */\n      dup4\n        /* \"#utility.yul\":46805:46819   */\n      add\n        /* \"#utility.yul\":46801:46824   */\n      div\n        /* \"#utility.yul\":46791:46824   */\n      swap1\n      pop\n        /* \"#utility.yul\":46737:46830   */\n      swap2\n      swap1\n      pop\n      jump\t// out\n        /* \"#utility.yul\":46836:46943   */\n    tag_455:\n        /* \"#utility.yul\":46880:46888   */\n      0x00\n        /* \"#utility.yul\":46930:46935   */\n      dup3\n        /* \"#utility.yul\":46924:46928   */\n      dup3\n        /* \"#utility.yul\":46920:46936   */\n      shl\n        /* \"#utility.yul\":46899:46936   */\n      swap1\n      pop\n        /* \"#utility.yul\":46836:46943   */\n      swap3\n      swap2\n      pop\n      pop\n      jump\t// out\n        /* \"#utility.yul\":46949:47342   */\n    tag_456:\n        /* \"#utility.yul\":47018:47024   */\n      0x00\n        /* \"#utility.yul\":47068:47069   */\n      0x08\n        /* \"#utility.yul\":47056:47066   */\n      dup4\n        /* \"#utility.yul\":47052:47070   */\n      mul\n        /* \"#utility.yul\":47091:47188   */\n      tag_836\n        /* \"#utility.yul\":47121:47187   */\n      0xffffffffffffffffffffffffffffffffffffffffffffffffffffffffffffffff\n        /* \"#utility.yul\":47110:47119   */\n      dup3\n        /* \"#utility.yul\":47091:47188   */\n      tag_455\n      jump\t// in\n    tag_836:\n        /* \"#utility.yul\":47209:47248   */\n      tag_837\n        /* \"#utility.yul\":47239:47247   */\n      dup7\n        /* \"#utility.yul\":47228:47237   */\n      dup4\n        /* \"#utility.yul\":47209:47248   */\n      tag_455\n      jump\t// in\n    tag_837:\n        /* \"#utility.yul\":47197:47248   */\n      swap6\n      pop\n        /* \"#utility.yul\":47281:47285   */\n      dup1\n        /* \"#utility.yul\":47277:47286   */\n      not\n        /* \"#utility.yul\":47270:47275   */\n      dup5\n        /* \"#utility.yul\":47266:47287   */\n      and\n        /* \"#utility.yul\":47257:47287   */\n      swap4\n      pop\n        /* \"#utility.yul\":47330:47334   */\n      dup1\n        /* \"#utility.yul\":47320:47328   */\n      dup7\n        /* \"#utility.yul\":47316:47335   */\n      and\n        /* \"#utility.yul\":47309:47314   */\n      dup5\n        /* \"#utility.yul\":47306:47336   */\n      or\n        /* \"#utility.yul\":47296:47336   */\n      swap3\n      pop\n        /* \"#utility.yul\":47025:47342   */\n      pop\n      pop\n        /* \"#utility.yul\":46949:47342   */\n      swap4\n      swap3\n      pop\n      pop\n      pop\n      jump\t// out\n        /* \"#utility.yul\":47348:47408   */\n    tag_457:\n        /* \"#utility.yul\":47376:47379   */\n      0x00\n        /* \"#utility.yul\":47397:47402   */\n      dup2\n        /* \"#utility.yul\":47390:47402   */\n      swap1\n      pop\n        /* \"#utility.yul\":47348:47408   */\n      swap2\n      swap1\n      pop\n      jump\t// out\n        /* \"#utility.yul\":47414:47556   */\n    tag_458:\n        /* \"#utility.yul\":47464:47473   */\n      0x00\n        /* \"#utility.yul\":47497:47550   */\n      tag_840\n        /* \"#utility.yul\":47515:47549   */\n      tag_841\n        /* \"#utility.yul\":47524:47548   */\n      tag_842\n        /* \"#utility.yul\":47542:47547   */\n      dup5\n        /* \"#utility.yul\":47524:47548   */\n      tag_409\n      jump\t// in\n    tag_842:\n        /* \"#utility.yul\":47515:47549   */\n      tag_457\n      jump\t// in\n    tag_841:\n        /* \"#utility.yul\":47497:47550   */\n      tag_409\n      jump\t// in\n    tag_840:\n        /* \"#utility.yul\":47484:47550   */\n      swap1\n      pop\n        /* \"#utility.yul\":47414:47556   */\n      swap2\n      swap1\n      pop\n      jump\t// out\n        /* \"#utility.yul\":47562:47637   */\n    tag_459:\n        /* \"#utility.yul\":47605:47608   */\n      0x00\n        /* \"#utility.yul\":47626:47631   */\n      dup2\n        /* \"#utility.yul\":47619:47631   */\n      swap1\n      pop\n        /* \"#utility.yul\":47562:47637   */\n      swap2\n      swap1\n      pop\n      jump\t// out\n        /* \"#utility.yul\":47643:47912   */\n    tag_460:\n        /* \"#utility.yul\":47753:47792   */\n      tag_845\n        /* \"#utility.yul\":47784:47791   */\n      dup4\n        /* \"#utility.yul\":47753:47792   */\n      tag_458\n      jump\t// in\n    tag_845:\n        /* \"#utility.yul\":47814:47905   */\n      tag_846\n        /* \"#utility.yul\":47863:47904   */\n      tag_847\n        /* \"#utility.yul\":47887:47903   */\n      dup3\n        /* \"#utility.yul\":47863:47904   */\n      tag_459\n      jump\t// in\n    tag_847:\n        /* \"#utility.yul\":47855:47861   */\n      dup5\n        /* \"#utility.yul\":47848:47852   */\n      dup5\n        /* \"#utility.yul\":47842:47853   */\n      sload\n        /* \"#utility.yul\":47814:47905   */\n      tag_456\n      jump\t// in\n    tag_846:\n        /* \"#utility.yul\":47808:47812   */\n      dup3\n        /* \"#utility.yul\":47801:47906   */\n      sstore\n        /* \"#utility.yul\":47719:47912   */\n      pop\n        /* \"#utility.yul\":47643:47912   */\n      pop\n      pop\n      pop\n      jump\t// out\n        /* \"#utility.yul\":47918:47991   */\n    tag_461:\n        /* \"#utility.yul\":47963:47966   */\n      0x00\n        /* \"#utility.yul\":47918:47991   */\n      swap1\n      jump\t// out\n        /* \"#utility.yul\":47997:48186   */\n    tag_462:\n        /* \"#utility.yul\":48074:48106   */\n      tag_850\n      tag_461\n      jump\t// in\n    tag_850:\n        /* \"#utility.yul\":48115:48180   */\n      tag_851\n        /* \"#utility.yul\":48173:48179   */\n      dup2\n        /* \"#utility.yul\":48165:48171   */\n      dup5\n        /* \"#utility.yul\":48159:48163   */\n      dup5\n        /* \"#utility.yul\":48115:48180   */\n      tag_460\n      jump\t// in\n    tag_851:\n        /* \"#utility.yul\":48050:48186   */\n      pop\n        /* \"#utility.yul\":47997:48186   */\n      pop\n      pop\n      jump\t// out\n        /* \"#utility.yul\":48192:48378   */\n    tag_463:\n        /* \"#utility.yul\":48252:48372   */\n    tag_853:\n        /* \"#utility.yul\":48269:48272   */\n      dup2\n        /* \"#utility.yul\":48262:48267   */\n      dup2\n        /* \"#utility.yul\":48259:48273   */\n      lt\n        /* \"#utility.yul\":48252:48372   */\n      iszero\n      tag_855\n      jumpi\n        /* \"#utility.yul\":48323:48362   */\n      tag_856\n        /* \"#utility.yul\":48360:48361   */\n      0x00\n        /* \"#utility.yul\":48353:48358   */\n      dup3\n        /* \"#utility.yul\":48323:48362   */\n      tag_462\n      jump\t// in\n    tag_856:\n        /* \"#utility.yul\":48296:48297   */\n      0x01\n        /* \"#utility.yul\":48289:48294   */\n      dup2\n        /* \"#utility.yul\":48285:48298   */\n      add\n        /* \"#utility.yul\":48276:48298   */\n      swap1\n      pop\n        /* \"#utility.yul\":48252:48372   */\n      jump(tag_853)\n    tag_855:\n        /* \"#utility.yul\":48192:48378   */\n      pop\n      pop\n      jump\t// out\n        /* \"#utility.yul\":48384:48927   */\n    tag_464:\n        /* \"#utility.yul\":48485:48487   */\n      0x1f\n        /* \"#utility.yul\":48480:48483   */\n      dup3\n        /* \"#utility.yul\":48477:48488   */\n      gt\n        /* \"#utility.yul\":48474:48920   */\n      iszero\n      tag_858\n      jumpi\n        /* \"#utility.yul\":48519:48557   */\n      tag_859\n        /* \"#utility.yul\":48551:48556   */\n      dup2\n        /* \"#utility.yul\":48519:48557   */\n      tag_453\n      jump\t// in\n    tag_859:\n        /* \"#utility.yul\":48603:48632   */\n      tag_860\n        /* \"#utility.yul\":48621:48631   */\n      dup5\n        /* \"#utility.yul\":48603:48632   */\n      tag_454\n      jump\t// in\n    tag_860:\n        /* \"#utility.yul\":48593:48601   */\n      dup2\n        /* \"#utility.yul\":48589:48633   */\n      add\n        /* \"#utility.yul\":48786:48788   */\n      0x20\n        /* \"#utility.yul\":48774:48784   */\n      dup6\n        /* \"#utility.yul\":48771:48789   */\n      lt\n        /* \"#utility.yul\":48768:48817   */\n      iszero\n      tag_861\n      jumpi\n        /* \"#utility.yul\":48807:48815   */\n      dup2\n        /* \"#utility.yul\":48792:48815   */\n      swap1\n      pop\n        /* \"#utility.yul\":48768:48817   */\n    tag_861:\n        /* \"#utility.yul\":48830:48910   */\n      tag_862\n        /* \"#utility.yul\":48886:48908   */\n      tag_863\n        /* \"#utility.yul\":48904:48907   */\n      dup6\n        /* \"#utility.yul\":48886:48908   */\n      tag_454\n      jump\t// in\n    tag_863:\n        /* \"#utility.yul\":48876:48884   */\n      dup4\n        /* \"#utility.yul\":48872:48909   */\n      add\n        /* \"#utility.yul\":48859:48870   */\n      dup3\n        /* \"#utility.yul\":48830:48910   */\n      tag_463\n      jump\t// in\n    tag_862:\n        /* \"#utility.yul\":48489:48920   */\n      pop\n      pop\n        /* \"#utility.yul\":48474:48920   */\n    tag_858:\n        /* \"#utility.yul\":48384:48927   */\n      pop\n      pop\n      pop\n      jump\t// out\n        /* \"#utility.yul\":48933:49050   */\n    tag_465:\n        /* \"#utility.yul\":48987:48995   */\n      0x00\n        /* \"#utility.yul\":49037:49042   */\n      dup3\n        /* \"#utility.yul\":49031:49035   */\n      dup3\n        /* \"#utility.yul\":49027:49043   */\n      shr\n        /* \"#utility.yul\":49006:49043   */\n      swap1\n      pop\n        /* \"#utility.yul\":48933:49050   */\n      swap3\n      swap2\n      pop\n      pop\n      jump\t// out\n        /* \"#utility.yul\":49056:49225   */\n    tag_466:\n        /* \"#utility.yul\":49100:49106   */\n      0x00\n        /* \"#utility.yul\":49133:49184   */\n      tag_866\n        /* \"#utility.yul\":49181:49182   */\n      0x00\n        /* \"#utility.yul\":49177:49183   */\n      not\n        /* \"#utility.yul\":49169:49174   */\n      dup5\n        /* \"#utility.yul\":49166:49167   */\n      0x08\n        /* \"#utility.yul\":49162:49175   */\n      mul\n        /* \"#utility.yul\":49133:49184   */\n      tag_465\n      jump\t// in\n    tag_866:\n        /* \"#utility.yul\":49129:49185   */\n      not\n        /* \"#utility.yul\":49214:49218   */\n      dup1\n        /* \"#utility.yul\":49208:49212   */\n      dup4\n        /* \"#utility.yul\":49204:49219   */\n      and\n        /* \"#utility.yul\":49194:49219   */\n      swap2\n      pop\n        /* \"#utility.yul\":49107:49225   */\n      pop\n        /* \"#utility.yul\":49056:49225   */\n      swap3\n      swap2\n      pop\n      pop\n      jump\t// out\n        /* \"#utility.yul\":49230:49525   */\n    tag_467:\n        /* \"#utility.yul\":49306:49310   */\n      0x00\n        /* \"#utility.yul\":49452:49481   */\n      tag_868\n        /* \"#utility.yul\":49477:49480   */\n      dup4\n        /* \"#utility.yul\":49471:49475   */\n      dup4\n        /* \"#utility.yul\":49452:49481   */\n      tag_466\n      jump\t// in\n    tag_868:\n        /* \"#utility.yul\":49444:49481   */\n      swap2\n      pop\n        /* \"#utility.yul\":49514:49517   */\n      dup3\n        /* \"#utility.yul\":49511:49512   */\n      0x02\n        /* \"#utility.yul\":49507:49518   */\n      mul\n        /* \"#utility.yul\":49501:49505   */\n      dup3\n        /* \"#utility.yul\":49498:49519   */\n      or\n        /* \"#utility.yul\":49490:49519   */\n      swap1\n      pop\n        /* \"#utility.yul\":49230:49525   */\n      swap3\n      swap2\n      pop\n      pop\n      jump\t// out\n        /* \"#utility.yul\":49530:50925   */\n    tag_63:\n        /* \"#utility.yul\":49647:49684   */\n      tag_870\n        /* \"#utility.yul\":49680:49683   */\n      dup3\n        /* \"#utility.yul\":49647:49684   */\n      tag_419\n      jump\t// in\n    tag_870:\n        /* \"#utility.yul\":49749:49767   */\n      0xffffffffffffffff\n        /* \"#utility.yul\":49741:49747   */\n      dup2\n        /* \"#utility.yul\":49738:49768   */\n      gt\n        /* \"#utility.yul\":49735:49791   */\n      iszero\n      tag_871\n      jumpi\n        /* \"#utility.yul\":49771:49789   */\n      tag_872\n      tag_399\n      jump\t// in\n    tag_872:\n        /* \"#utility.yul\":49735:49791   */\n    tag_871:\n        /* \"#utility.yul\":49815:49853   */\n      tag_873\n        /* \"#utility.yul\":49847:49851   */\n      dup3\n        /* \"#utility.yul\":49841:49852   */\n      sload\n        /* \"#utility.yul\":49815:49853   */\n      tag_130\n      jump\t// in\n    tag_873:\n        /* \"#utility.yul\":49900:49967   */\n      tag_874\n        /* \"#utility.yul\":49960:49966   */\n      dup3\n        /* \"#utility.yul\":49952:49958   */\n      dup3\n        /* \"#utility.yul\":49946:49950   */\n      dup6\n        /* \"#utility.yul\":49900:49967   */\n      tag_464\n      jump\t// in\n    tag_874:\n        /* \"#utility.yul\":49994:49995   */\n      0x00\n        /* \"#utility.yul\":50018:50022   */\n      0x20\n        /* \"#utility.yul\":50005:50022   */\n      swap1\n      pop\n        /* \"#utility.yul\":50050:50052   */\n      0x1f\n        /* \"#utility.yul\":50042:50048   */\n      dup4\n        /* \"#utility.yul\":50039:50053   */\n      gt\n        /* \"#utility.yul\":50067:50068   */\n      0x01\n        /* \"#utility.yul\":50062:50680   */\n      dup2\n      eq\n      tag_876\n      jumpi\n        /* \"#utility.yul\":50724:50725   */\n      0x00\n        /* \"#utility.yul\":50741:50747   */\n      dup5\n        /* \"#utility.yul\":50738:50815   */\n      iszero\n      tag_877\n      jumpi\n        /* \"#utility.yul\":50790:50799   */\n      dup3\n        /* \"#utility.yul\":50785:50788   */\n      dup8\n        /* \"#utility.yul\":50781:50800   */\n      add\n        /* \"#utility.yul\":50775:50801   */\n      mload\n        /* \"#utility.yul\":50766:50801   */\n      swap1\n      pop\n        /* \"#utility.yul\":50738:50815   */\n    tag_877:\n        /* \"#utility.yul\":50841:50908   */\n      tag_878\n        /* \"#utility.yul\":50901:50907   */\n      dup6\n        /* \"#utility.yul\":50894:50899   */\n      dup3\n        /* \"#utility.yul\":50841:50908   */\n      tag_467\n      jump\t// in\n    tag_878:\n        /* \"#utility.yul\":50835:50839   */\n      dup7\n        /* \"#utility.yul\":50828:50909   */\n      sstore\n        /* \"#utility.yul\":50697:50919   */\n      pop\n        /* \"#utility.yul\":50032:50919   */\n      jump(tag_875)\n        /* \"#utility.yul\":50062:50680   */\n    tag_876:\n        /* \"#utility.yul\":50114:50118   */\n      0x1f\n        /* \"#utility.yul\":50110:50119   */\n      not\n        /* \"#utility.yul\":50102:50108   */\n      dup5\n        /* \"#utility.yul\":50098:50120   */\n      and\n        /* \"#utility.yul\":50148:50185   */\n      tag_879\n        /* \"#utility.yul\":50180:50184   */\n      dup7\n        /* \"#utility.yul\":50148:50185   */\n      tag_453\n      jump\t// in\n    tag_879:\n        /* \"#utility.yul\":50207:50208   */\n      0x00\n        /* \"#utility.yul\":50221:50429   */\n    tag_880:\n        /* \"#utility.yul\":50235:50242   */\n      dup3\n        /* \"#utility.yul\":50232:50233   */\n      dup2\n        /* \"#utility.yul\":50229:50243   */\n      lt\n        /* \"#utility.yul\":50221:50429   */\n      iszero\n      tag_882\n      jumpi\n        /* \"#utility.yul\":50314:50323   */\n      dup5\n        /* \"#utility.yul\":50309:50312   */\n      dup10\n        /* \"#utility.yul\":50305:50324   */\n      add\n        /* \"#utility.yul\":50299:50325   */\n      mload\n        /* \"#utility.yul\":50291:50297   */\n      dup3\n        /* \"#utility.yul\":50284:50326   */\n      sstore\n        /* \"#utility.yul\":50365:50366   */\n      0x01\n        /* \"#utility.yul\":50357:50363   */\n      dup3\n        /* \"#utility.yul\":50353:50367   */\n      add\n        /* \"#utility.yul\":50343:50367   */\n      swap2\n      pop\n        /* \"#utility.yul\":50412:50414   */\n      0x20\n        /* \"#utility.yul\":50401:50410   */\n      dup6\n        /* \"#utility.yul\":50397:50415   */\n      add\n        /* \"#utility.yul\":50384:50415   */\n      swap5\n      pop\n        /* \"#utility.yul\":50258:50262   */\n      0x20\n        /* \"#utility.yul\":50255:50256   */\n      dup2\n        /* \"#utility.yul\":50251:50263   */\n      add\n        /* \"#utility.yul\":50246:50263   */\n      swap1\n      pop\n        /* \"#utility.yul\":50221:50429   */\n      jump(tag_880)\n    tag_882:\n        /* \"#utility.yul\":50457:50463   */\n      dup7\n        /* \"#utility.yul\":50448:50455   */\n      dup4\n        /* \"#utility.yul\":50445:50464   */\n      lt\n        /* \"#utility.yul\":50442:50621   */\n      iszero\n      tag_883\n      jumpi\n        /* \"#utility.yul\":50515:50524   */\n      dup5\n        /* \"#utility.yul\":50510:50513   */\n      dup10\n        /* \"#utility.yul\":50506:50525   */\n      add\n        /* \"#utility.yul\":50500:50526   */\n      mload\n        /* \"#utility.yul\":50558:50606   */\n      tag_884\n        /* \"#utility.yul\":50600:50604   */\n      0x1f\n        /* \"#utility.yul\":50592:50598   */\n      dup10\n        /* \"#utility.yul\":50588:50605   */\n      and\n        /* \"#utility.yul\":50577:50586   */\n      dup3\n        /* \"#utility.yul\":50558:50606   */\n      tag_466\n      jump\t// in\n    tag_884:\n        /* \"#utility.yul\":50550:50556   */\n      dup4\n        /* \"#utility.yul\":50543:50607   */\n      sstore\n        /* \"#utility.yul\":50465:50621   */\n      pop\n        /* \"#utility.yul\":50442:50621   */\n    tag_883:\n        /* \"#utility.yul\":50667:50668   */\n      0x01\n        /* \"#utility.yul\":50663:50664   */\n      0x02\n        /* \"#utility.yul\":50655:50661   */\n      dup9\n        /* \"#utility.yul\":50651:50665   */\n      mul\n        /* \"#utility.yul\":50647:50669   */\n      add\n        /* \"#utility.yul\":50641:50645   */\n      dup9\n        /* \"#utility.yul\":50634:50670   */\n      sstore\n        /* \"#utility.yul\":50069:50680   */\n      pop\n      pop\n      pop\n        /* \"#utility.yul\":50032:50919   */\n    tag_875:\n      pop\n        /* \"#utility.yul\":49622:50925   */\n      pop\n      pop\n      pop\n        /* \"#utility.yul\":49530:50925   */\n      pop\n      pop\n      jump\t// out\n        /* \"#utility.yul\":50931:51100   */\n    tag_468:\n        /* \"#utility.yul\":51015:51026   */\n      0x00\n        /* \"#utility.yul\":51049:51055   */\n      dup3\n        /* \"#utility.yul\":51044:51047   */\n      dup3\n        /* \"#utility.yul\":51037:51056   */\n      mstore\n        /* \"#utility.yul\":51089:51093   */\n      0x20\n        /* \"#utility.yul\":51084:51087   */\n      dup3\n        /* \"#utility.yul\":51080:51094   */\n      add\n        /* \"#utility.yul\":51065:51094   */\n      swap1\n      pop\n        /* \"#utility.yul\":50931:51100   */\n      swap3\n      swap2\n      pop\n      pop\n      jump\t// out\n        /* \"#utility.yul\":51106:51483   */\n    tag_469:\n        /* \"#utility.yul\":51194:51197   */\n      0x00\n        /* \"#utility.yul\":51222:51261   */\n      tag_887\n        /* \"#utility.yul\":51255:51260   */\n      dup3\n        /* \"#utility.yul\":51222:51261   */\n      tag_419\n      jump\t// in\n    tag_887:\n        /* \"#utility.yul\":51277:51348   */\n      tag_888\n        /* \"#utility.yul\":51341:51347   */\n      dup2\n        /* \"#utility.yul\":51336:51339   */\n      dup6\n        /* \"#utility.yul\":51277:51348   */\n      tag_468\n      jump\t// in\n    tag_888:\n        /* \"#utility.yul\":51270:51348   */\n      swap4\n      pop\n        /* \"#utility.yul\":51357:51422   */\n      tag_889\n        /* \"#utility.yul\":51415:51421   */\n      dup2\n        /* \"#utility.yul\":51410:51413   */\n      dup6\n        /* \"#utility.yul\":51403:51407   */\n      0x20\n        /* \"#utility.yul\":51396:51401   */\n      dup7\n        /* \"#utility.yul\":51392:51408   */\n      add\n        /* \"#utility.yul\":51357:51422   */\n      tag_421\n      jump\t// in\n    tag_889:\n        /* \"#utility.yul\":51447:51476   */\n      tag_890\n        /* \"#utility.yul\":51469:51475   */\n      dup2\n        /* \"#utility.yul\":51447:51476   */\n      tag_398\n      jump\t// in\n    tag_890:\n        /* \"#utility.yul\":51442:51445   */\n      dup5\n        /* \"#utility.yul\":51438:51477   */\n      add\n        /* \"#utility.yul\":51431:51477   */\n      swap2\n      pop\n        /* \"#utility.yul\":51198:51483   */\n      pop\n        /* \"#utility.yul\":51106:51483   */\n      swap3\n      swap2\n      pop\n      pop\n      jump\t// out\n        /* \"#utility.yul\":51489:52224   */\n    tag_82:\n        /* \"#utility.yul\":51706:51710   */\n      0x00\n        /* \"#utility.yul\":51744:51747   */\n      0x80\n        /* \"#utility.yul\":51733:51742   */\n      dup3\n        /* \"#utility.yul\":51729:51748   */\n      add\n        /* \"#utility.yul\":51721:51748   */\n      swap1\n      pop\n        /* \"#utility.yul\":51758:51829   */\n      tag_892\n        /* \"#utility.yul\":51826:51827   */\n      0x00\n        /* \"#utility.yul\":51815:51824   */\n      dup4\n        /* \"#utility.yul\":51811:51828   */\n      add\n        /* \"#utility.yul\":51802:51808   */\n      dup8\n        /* \"#utility.yul\":51758:51829   */\n      tag_450\n      jump\t// in\n    tag_892:\n        /* \"#utility.yul\":51876:51885   */\n      dup2\n        /* \"#utility.yul\":51870:51874   */\n      dup2\n        /* \"#utility.yul\":51866:51886   */\n      sub\n        /* \"#utility.yul\":51861:51863   */\n      0x20\n        /* \"#utility.yul\":51850:51859   */\n      dup4\n        /* \"#utility.yul\":51846:51864   */\n      add\n        /* \"#utility.yul\":51839:51887   */\n      mstore\n        /* \"#utility.yul\":51904:51982   */\n      tag_893\n        /* \"#utility.yul\":51977:51981   */\n      dup2\n        /* \"#utility.yul\":51968:51974   */\n      dup7\n        /* \"#utility.yul\":51904:51982   */\n      tag_469\n      jump\t// in\n    tag_893:\n        /* \"#utility.yul\":51896:51982   */\n      swap1\n      pop\n        /* \"#utility.yul\":52029:52038   */\n      dup2\n        /* \"#utility.yul\":52023:52027   */\n      dup2\n        /* \"#utility.yul\":52019:52039   */\n      sub\n        /* \"#utility.yul\":52014:52016   */\n      0x40\n        /* \"#utility.yul\":52003:52012   */\n      dup4\n        /* \"#utility.yul\":51999:52017   */\n      add\n        /* \"#utility.yul\":51992:52040   */\n      mstore\n        /* \"#utility.yul\":52057:52135   */\n      tag_894\n        /* \"#utility.yul\":52130:52134   */\n      dup2\n        /* \"#utility.yul\":52121:52127   */\n      dup6\n        /* \"#utility.yul\":52057:52135   */\n      tag_469\n      jump\t// in\n    tag_894:\n        /* \"#utility.yul\":52049:52135   */\n      swap1\n      pop\n        /* \"#utility.yul\":52145:52217   */\n      tag_895\n        /* \"#utility.yul\":52213:52215   */\n      0x60\n        /* \"#utility.yul\":52202:52211   */\n      dup4\n        /* \"#utility.yul\":52198:52216   */\n      add\n        /* \"#utility.yul\":52189:52195   */\n      dup5\n        /* \"#utility.yul\":52145:52217   */\n      tag_450\n      jump\t// in\n    tag_895:\n        /* \"#utility.yul\":51489:52224   */\n      swap6\n      swap5\n      pop\n      pop\n      pop\n      pop\n      pop\n      jump\t// out\n\n    auxdata: 0xa26469706673582212204ee99b0dd7713f7ab0c5d78e8a3808f8353f5b778fdc27d3ff8963d6b5d8db5364736f6c63430008110033\n}\n","bytecode":{"linkReferences":{},"object":"60806040523480156200001157600080fd5b5060405162004efb38038062004efb8339818101604052810190620000379190620000e9565b80600560006101000a81548173ffffffffffffffffffffffffffffffffffffffff021916908373ffffffffffffffffffffffffffffffffffffffff160217905550506200011b565b600080fd5b600073ffffffffffffffffffffffffffffffffffffffff82169050919050565b6000620000b18262000084565b9050919050565b620000c381620000a4565b8114620000cf57600080fd5b50565b600081519050620000e381620000b8565b92915050565b6000602082840312156200010257620001016200007f565b5b60006200011284828501620000d2565b91505092915050565b614dd0806200012b6000396000f3fe608060405234801561001057600080fd5b50600436106100935760003560e01c80639cbc4dba116100665780639cbc4dba14610108578063b2c24a3414610124578063b374adff14610155578063eb7353d114610171578063f539fe6c146101a257610093565b80631107747e146100985780634da7580f146100b45780635db185c7146100d05780637621df6f146100ec575b600080fd5b6100b260048036038101906100ad919061353c565b6101d3565b005b6100ce60048036038101906100c991906139dd565b610217565b005b6100ea60048036038101906100e5919061353c565b610790565b005b6101066004803603810190610101919061353c565b6107d4565b005b610122600480360381019061011d9190613cd7565b610818565b005b61013e6004803603810190610139919061353c565b610e89565b60405161014c92919061404c565b60405180910390f35b61016f600480360381019061016a91906143eb565b61173d565b005b61018b6004803603810190610186919061353c565b611d18565b60405161019992919061470f565b60405180910390f35b6101bc60048036038101906101b7919061353c565b6127fa565b6040516101ca92919061497c565b60405180910390f35b80600660006101000a81548173ffffffffffffffffffffffffffffffffffffffff021916908373ffffffffffffffffffffffffffffffffffffffff16021790555050565b600660009054906101000a900473ffffffffffffffffffffffffffffffffffffffff1673ffffffffffffffffffffffffffffffffffffffff166363a9c3d7336040518263ffffffff1660e01b815260040161027291906149c2565b602060405180830381865afa15801561028f573d6000803e3d6000fd5b505050506040513d601f19601f820116820180604052508101906102b391906149f2565b6102bc57600080fd5b6102c46132ba565b8260000151816000019073ffffffffffffffffffffffffffffffffffffffff16908173ffffffffffffffffffffffffffffffffffffffff1681525050826020015181602001819052508260400151816040018181525050826060015181606001819052508260800151816080018190525080600080856000015173ffffffffffffffffffffffffffffffffffffffff1673ffffffffffffffffffffffffffffffffffffffff16815260200190815260200160002060008201518160000160006101000a81548173ffffffffffffffffffffffffffffffffffffffff021916908373ffffffffffffffffffffffffffffffffffffffff16021790555060208201518160010190816103d49190614c2b565b506040820151816002015560608201518160030190816103f49190614c2b565b50608082015181600401908161040a9190614c2b565b509050506104166132ff565b8260000151816000019073ffffffffffffffffffffffffffffffffffffffff16908173ffffffffffffffffffffffffffffffffffffffff1681525050826020015181602001819052508260400151816040018190525082606001518160600181905250826080015181608001819052508260a001518160a001819052508260c001518160c001819052508260e001518160e001819052508261010001518161010001819052508261012001518161012001901515908115158152505060026000856000015173ffffffffffffffffffffffffffffffffffffffff1673ffffffffffffffffffffffffffffffffffffffff1681526020019081526020016000208190806001815401808255809150506001900390600052602060002090600a020160009091909190915060008201518160000160006101000a81548173ffffffffffffffffffffffffffffffffffffffff021916908373ffffffffffffffffffffffffffffffffffffffff160217905550602082015181600101908161059b9190614c2b565b5060408201518160020190816105b19190614c2b565b5060608201518160030190816105c79190614c2b565b5060808201518160040190816105dd9190614c2b565b5060a08201518160050190816105f39190614c2b565b5060c08201518160060190816106099190614c2b565b5060e082015181600701908161061f9190614c2b565b506101008201518160080190816106369190614c2b565b506101208201518160090160006101000a81548160ff0219169083151502179055505050600760009054906101000a900473ffffffffffffffffffffffffffffffffffffffff1673ffffffffffffffffffffffffffffffffffffffff16636d263ceb85600001516040518263ffffffff1660e01b81526004016106b991906149c2565b600060405180830381600087803b1580156106d357600080fd5b505af11580156106e7573d6000803e3d6000fd5b50505050600860009054906101000a900473ffffffffffffffffffffffffffffffffffffffff1673ffffffffffffffffffffffffffffffffffffffff166343a0e44a338660200151866020015188600001516040518563ffffffff1660e01b81526004016107589493929190614d47565b600060405180830381600087803b15801561077257600080fd5b505af1158015610786573d6000803e3d6000fd5b5050505050505050565b80600760006101000a81548173ffffffffffffffffffffffffffffffffffffffff021916908373ffffffffffffffffffffffffffffffffffffffff16021790555050565b80600860006101000a81548173ffffffffffffffffffffffffffffffffffffffff021916908373ffffffffffffffffffffffffffffffffffffffff16021790555050565b600660009054906101000a900473ffffffffffffffffffffffffffffffffffffffff1673ffffffffffffffffffffffffffffffffffffffff166363a9c3d7336040518263ffffffff1660e01b815260040161087391906149c2565b602060405180830381865afa158015610890573d6000803e3d6000fd5b505050506040513d601f19601f820116820180604052508101906108b491906149f2565b6108bd57600080fd5b6108c56132ba565b8260000151816000019073ffffffffffffffffffffffffffffffffffffffff16908173ffffffffffffffffffffffffffffffffffffffff1681525050826020015181602001819052508260400151816040018181525050826060015181606001819052508260800151816080018190525080600080856000015173ffffffffffffffffffffffffffffffffffffffff1673ffffffffffffffffffffffffffffffffffffffff16815260200190815260200160002060008201518160000160006101000a81548173ffffffffffffffffffffffffffffffffffffffff021916908373ffffffffffffffffffffffffffffffffffffffff16021790555060208201518160010190816109d59190614c2b565b506040820151816002015560608201518160030190816109f59190614c2b565b506080820151816004019081610a0b9190614c2b565b50905050610a1761336a565b8260000151816000019073ffffffffffffffffffffffffffffffffffffffff16908173ffffffffffffffffffffffffffffffffffffffff1681525050826020015181602001819052508260400151816040018190525082606001518160600181905250826080015181608001819052508260a001518160a001819052508260c001518160c001819052508260e001518160e001819052508261010001518161010001819052508261012001518161012001901515908115158152505082610140015181610140018190525082610160015181610160018190525082610180015181610180019073ffffffffffffffffffffffffffffffffffffffff16908173ffffffffffffffffffffffffffffffffffffffff1681525050826101a00151816101a0018190525060036000846000015173ffffffffffffffffffffffffffffffffffffffff1673ffffffffffffffffffffffffffffffffffffffff1681526020019081526020016000208190806001815401808255809150506001900390600052602060002090600e020160009091909190915060008201518160000160006101000a81548173ffffffffffffffffffffffffffffffffffffffff021916908373ffffffffffffffffffffffffffffffffffffffff1602179055506020820151816001019081610c079190614c2b565b506040820151816002019081610c1d9190614c2b565b506060820151816003019081610c339190614c2b565b506080820151816004019081610c499190614c2b565b5060a0820151816005019081610c5f9190614c2b565b5060c0820151816006019081610c759190614c2b565b5060e0820151816007019081610c8b9190614c2b565b50610100820151816008019081610ca29190614c2b565b506101208201518160090160006101000a81548160ff02191690831515021790555061014082015181600a019081610cda9190614c2b565b5061016082015181600b019081610cf19190614c2b565b5061018082015181600c0160006101000a81548173ffffffffffffffffffffffffffffffffffffffff021916908373ffffffffffffffffffffffffffffffffffffffff1602179055506101a082015181600d019081610d509190614c2b565b505050600760009054906101000a900473ffffffffffffffffffffffffffffffffffffffff1673ffffffffffffffffffffffffffffffffffffffff16636d263ceb85600001516040518263ffffffff1660e01b8152600401610db291906149c2565b600060405180830381600087803b158015610dcc57600080fd5b505af1158015610de0573d6000803e3d6000fd5b50505050600860009054906101000a900473ffffffffffffffffffffffffffffffffffffffff1673ffffffffffffffffffffffffffffffffffffffff166343a0e44a338660200151866020015188600001516040518563ffffffff1660e01b8152600401610e519493929190614d47565b600060405180830381600087803b158015610e6b57600080fd5b505af1158015610e7f573d6000803e3d6000fd5b5050505050505050565b610e916132ba565b6060600660009054906101000a900473ffffffffffffffffffffffffffffffffffffffff1673ffffffffffffffffffffffffffffffffffffffff166363a9c3d7336040518263ffffffff1660e01b8152600401610eee91906149c2565b602060405180830381865afa158015610f0b573d6000803e3d6000fd5b505050506040513d601f19601f82011682018060405250810190610f2f91906149f2565b610f3857600080fd5b6000808473ffffffffffffffffffffffffffffffffffffffff1673ffffffffffffffffffffffffffffffffffffffff168152602001908152602001600020600260008573ffffffffffffffffffffffffffffffffffffffff1673ffffffffffffffffffffffffffffffffffffffff168152602001908152602001600020816040518060a00160405290816000820160009054906101000a900473ffffffffffffffffffffffffffffffffffffffff1673ffffffffffffffffffffffffffffffffffffffff1673ffffffffffffffffffffffffffffffffffffffff16815260200160018201805461102790614a4e565b80601f016020809104026020016040519081016040528092919081815260200182805461105390614a4e565b80156110a05780601f10611075576101008083540402835291602001916110a0565b820191906000526020600020905b81548152906001019060200180831161108357829003601f168201915b50505050508152602001600282015481526020016003820180546110c390614a4e565b80601f01602080910402602001604051908101604052809291908181526020018280546110ef90614a4e565b801561113c5780601f106111115761010080835404028352916020019161113c565b820191906000526020600020905b81548152906001019060200180831161111f57829003601f168201915b5050505050815260200160048201805461115590614a4e565b80601f016020809104026020016040519081016040528092919081815260200182805461118190614a4e565b80156111ce5780601f106111a3576101008083540402835291602001916111ce565b820191906000526020600020905b8154815290600101906020018083116111b157829003601f168201915b505050505081525050915080805480602002602001604051908101604052809291908181526020016000905b8282101561172e57838290600052602060002090600a0201604051806101400160405290816000820160009054906101000a900473ffffffffffffffffffffffffffffffffffffffff1673ffffffffffffffffffffffffffffffffffffffff1673ffffffffffffffffffffffffffffffffffffffff16815260200160018201805461128490614a4e565b80601f01602080910402602001604051908101604052809291908181526020018280546112b090614a4e565b80156112fd5780601f106112d2576101008083540402835291602001916112fd565b820191906000526020600020905b8154815290600101906020018083116112e057829003601f168201915b5050505050815260200160028201805461131690614a4e565b80601f016020809104026020016040519081016040528092919081815260200182805461134290614a4e565b801561138f5780601f106113645761010080835404028352916020019161138f565b820191906000526020600020905b81548152906001019060200180831161137257829003601f168201915b505050505081526020016003820180546113a890614a4e565b80601f01602080910402602001604051908101604052809291908181526020018280546113d490614a4e565b80156114215780601f106113f657610100808354040283529160200191611421565b820191906000526020600020905b81548152906001019060200180831161140457829003601f168201915b5050505050815260200160048201805461143a90614a4e565b80601f016020809104026020016040519081016040528092919081815260200182805461146690614a4e565b80156114b35780601f10611488576101008083540402835291602001916114b3565b820191906000526020600020905b81548152906001019060200180831161149657829003601f168201915b505050505081526020016005820180546114cc90614a4e565b80601f01602080910402602001604051908101604052809291908181526020018280546114f890614a4e565b80156115455780601f1061151a57610100808354040283529160200191611545565b820191906000526020600020905b81548152906001019060200180831161152857829003601f168201915b5050505050815260200160068201805461155e90614a4e565b80601f016020809104026020016040519081016040528092919081815260200182805461158a90614a4e565b80156115d75780601f106115ac576101008083540402835291602001916115d7565b820191906000526020600020905b8154815290600101906020018083116115ba57829003601f168201915b505050505081526020016007820180546115f090614a4e565b80601f016020809104026020016040519081016040528092919081815260200182805461161c90614a4e565b80156116695780601f1061163e57610100808354040283529160200191611669565b820191906000526020600020905b81548152906001019060200180831161164c57829003601f168201915b5050505050815260200160088201805461168290614a4e565b80601f01602080910402602001604051908101604052809291908181526020018280546116ae90614a4e565b80156116fb5780601f106116d0576101008083540402835291602001916116fb565b820191906000526020600020905b8154815290600101906020018083116116de57829003601f168201915b505050505081526020016009820160009054906101000a900460ff161515151581525050815260200190600101906111fa565b50505050905091509150915091565b600660009054906101000a900473ffffffffffffffffffffffffffffffffffffffff1673ffffffffffffffffffffffffffffffffffffffff166363a9c3d7336040518263ffffffff1660e01b815260040161179891906149c2565b602060405180830381865afa1580156117b5573d6000803e3d6000fd5b505050506040513d601f19601f820116820180604052508101906117d991906149f2565b6117e257600080fd5b6117ea613407565b8260000151816000019073ffffffffffffffffffffffffffffffffffffffff16908173ffffffffffffffffffffffffffffffffffffffff168152505082602001518160200181905250826040015181604001819052508260600151816060018181525050826080015181608001819052508060016000846000015173ffffffffffffffffffffffffffffffffffffffff1673ffffffffffffffffffffffffffffffffffffffff16815260200190815260200160002060008201518160000160006101000a81548173ffffffffffffffffffffffffffffffffffffffff021916908373ffffffffffffffffffffffffffffffffffffffff16021790555060208201518160010190816118fb9190614c2b565b5060408201518160020190816119119190614c2b565b506060820151816003015560808201518160040190816119319190614c2b565b5090505061193d61344c565b8260000151816000019073ffffffffffffffffffffffffffffffffffffffff16908173ffffffffffffffffffffffffffffffffffffffff1681525050826040015181604001819052508260600151816060018190525082602001518160200181905250826080015181608001819052508260a001518160a001819052508260c001518160c001819052508260e001518160e0018190525082610100015181610100018190525082610120015181610120018190525082610140015181610140018190525082610160015181610160018190525082610180015181610180018190525060046000846000015173ffffffffffffffffffffffffffffffffffffffff1673ffffffffffffffffffffffffffffffffffffffff1681526020019081526020016000208190806001815401808255809150506001900390600052602060002090600d020160009091909190915060008201518160000160006101000a81548173ffffffffffffffffffffffffffffffffffffffff021916908373ffffffffffffffffffffffffffffffffffffffff1602179055506020820151816001019081611ae89190614c2b565b506040820151816002019081611afe9190614c2b565b506060820151816003019081611b149190614c2b565b506080820151816004019081611b2a9190614c2b565b5060a0820151816005019081611b409190614c2b565b5060c0820151816006019081611b569190614c2b565b5060e0820151816007019081611b6c9190614c2b565b50610100820151816008019081611b839190614c2b565b50610120820151816009019081611b9a9190614c2b565b5061014082015181600a019081611bb19190614c2b565b5061016082015181600b019081611bc89190614c2b565b5061018082015181600c019081611bdf9190614c2b565b505050600760009054906101000a900473ffffffffffffffffffffffffffffffffffffffff1673ffffffffffffffffffffffffffffffffffffffff16636d263ceb84600001516040518263ffffffff1660e01b8152600401611c4191906149c2565b600060405180830381600087803b158015611c5b57600080fd5b505af1158015611c6f573d6000803e3d6000fd5b50505050600860009054906101000a900473ffffffffffffffffffffffffffffffffffffffff1673ffffffffffffffffffffffffffffffffffffffff166343a0e44a338560400151866020015187600001516040518563ffffffff1660e01b8152600401611ce09493929190614d47565b600060405180830381600087803b158015611cfa57600080fd5b505af1158015611d0e573d6000803e3d6000fd5b5050505050505050565b611d20613407565b6060600660009054906101000a900473ffffffffffffffffffffffffffffffffffffffff1673ffffffffffffffffffffffffffffffffffffffff166363a9c3d7336040518263ffffffff1660e01b8152600401611d7d91906149c2565b602060405180830381865afa158015611d9a573d6000803e3d6000fd5b505050506040513d601f19601f82011682018060405250810190611dbe91906149f2565b611dc757600080fd5b600160008473ffffffffffffffffffffffffffffffffffffffff1673ffffffffffffffffffffffffffffffffffffffff168152602001908152602001600020600460008573ffffffffffffffffffffffffffffffffffffffff1673ffffffffffffffffffffffffffffffffffffffff168152602001908152602001600020816040518060a00160405290816000820160009054906101000a900473ffffffffffffffffffffffffffffffffffffffff1673ffffffffffffffffffffffffffffffffffffffff1673ffffffffffffffffffffffffffffffffffffffff168152602001600182018054611eb790614a4e565b80601f0160208091040260200160405190810160405280929190818152602001828054611ee390614a4e565b8015611f305780601f10611f0557610100808354040283529160200191611f30565b820191906000526020600020905b815481529060010190602001808311611f1357829003601f168201915b50505050508152602001600282018054611f4990614a4e565b80601f0160208091040260200160405190810160405280929190818152602001828054611f7590614a4e565b8015611fc25780601f10611f9757610100808354040283529160200191611fc2565b820191906000526020600020905b815481529060010190602001808311611fa557829003601f168201915b5050505050815260200160038201548152602001600482018054611fe590614a4e565b80601f016020809104026020016040519081016040528092919081815260200182805461201190614a4e565b801561205e5780601f106120335761010080835404028352916020019161205e565b820191906000526020600020905b81548152906001019060200180831161204157829003601f168201915b505050505081525050915080805480602002602001604051908101604052809291908181526020016000905b828210156127eb57838290600052602060002090600d0201604051806101a00160405290816000820160009054906101000a900473ffffffffffffffffffffffffffffffffffffffff1673ffffffffffffffffffffffffffffffffffffffff1673ffffffffffffffffffffffffffffffffffffffff16815260200160018201805461211490614a4e565b80601f016020809104026020016040519081016040528092919081815260200182805461214090614a4e565b801561218d5780601f106121625761010080835404028352916020019161218d565b820191906000526020600020905b81548152906001019060200180831161217057829003601f168201915b505050505081526020016002820180546121a690614a4e565b80601f01602080910402602001604051908101604052809291908181526020018280546121d290614a4e565b801561221f5780601f106121f45761010080835404028352916020019161221f565b820191906000526020600020905b81548152906001019060200180831161220257829003601f168201915b5050505050815260200160038201805461223890614a4e565b80601f016020809104026020016040519081016040528092919081815260200182805461226490614a4e565b80156122b15780601f10612286576101008083540402835291602001916122b1565b820191906000526020600020905b81548152906001019060200180831161229457829003601f168201915b505050505081526020016004820180546122ca90614a4e565b80601f01602080910402602001604051908101604052809291908181526020018280546122f690614a4e565b80156123435780601f1061231857610100808354040283529160200191612343565b820191906000526020600020905b81548152906001019060200180831161232657829003601f168201915b5050505050815260200160058201805461235c90614a4e565b80601f016020809104026020016040519081016040528092919081815260200182805461238890614a4e565b80156123d55780601f106123aa576101008083540402835291602001916123d5565b820191906000526020600020905b8154815290600101906020018083116123b857829003601f168201915b505050505081526020016006820180546123ee90614a4e565b80601f016020809104026020016040519081016040528092919081815260200182805461241a90614a4e565b80156124675780601f1061243c57610100808354040283529160200191612467565b820191906000526020600020905b81548152906001019060200180831161244a57829003601f168201915b5050505050815260200160078201805461248090614a4e565b80601f01602080910402602001604051908101604052809291908181526020018280546124ac90614a4e565b80156124f95780601f106124ce576101008083540402835291602001916124f9565b820191906000526020600020905b8154815290600101906020018083116124dc57829003601f168201915b5050505050815260200160088201805461251290614a4e565b80601f016020809104026020016040519081016040528092919081815260200182805461253e90614a4e565b801561258b5780601f106125605761010080835404028352916020019161258b565b820191906000526020600020905b81548152906001019060200180831161256e57829003601f168201915b505050505081526020016009820180546125a490614a4e565b80601f01602080910402602001604051908101604052809291908181526020018280546125d090614a4e565b801561261d5780601f106125f25761010080835404028352916020019161261d565b820191906000526020600020905b81548152906001019060200180831161260057829003601f168201915b50505050508152602001600a8201805461263690614a4e565b80601f016020809104026020016040519081016040528092919081815260200182805461266290614a4e565b80156126af5780601f10612684576101008083540402835291602001916126af565b820191906000526020600020905b81548152906001019060200180831161269257829003601f168201915b50505050508152602001600b820180546126c890614a4e565b80601f01602080910402602001604051908101604052809291908181526020018280546126f490614a4e565b80156127415780601f1061271657610100808354040283529160200191612741565b820191906000526020600020905b81548152906001019060200180831161272457829003601f168201915b50505050508152602001600c8201805461275a90614a4e565b80601f016020809104026020016040519081016040528092919081815260200182805461278690614a4e565b80156127d35780601f106127a8576101008083540402835291602001916127d3565b820191906000526020600020905b8154815290600101906020018083116127b657829003601f168201915b5050505050815250508152602001906001019061208a565b50505050905091509150915091565b6128026132ba565b6060600660009054906101000a900473ffffffffffffffffffffffffffffffffffffffff1673ffffffffffffffffffffffffffffffffffffffff166363a9c3d7336040518263ffffffff1660e01b815260040161285f91906149c2565b602060405180830381865afa15801561287c573d6000803e3d6000fd5b505050506040513d601f19601f820116820180604052508101906128a091906149f2565b6128a957600080fd5b6000808473ffffffffffffffffffffffffffffffffffffffff1673ffffffffffffffffffffffffffffffffffffffff168152602001908152602001600020600360008573ffffffffffffffffffffffffffffffffffffffff1673ffffffffffffffffffffffffffffffffffffffff168152602001908152602001600020816040518060a00160405290816000820160009054906101000a900473ffffffffffffffffffffffffffffffffffffffff1673ffffffffffffffffffffffffffffffffffffffff1673ffffffffffffffffffffffffffffffffffffffff16815260200160018201805461299890614a4e565b80601f01602080910402602001604051908101604052809291908181526020018280546129c490614a4e565b8015612a115780601f106129e657610100808354040283529160200191612a11565b820191906000526020600020905b8154815290600101906020018083116129f457829003601f168201915b5050505050815260200160028201548152602001600382018054612a3490614a4e565b80601f0160208091040260200160405190810160405280929190818152602001828054612a6090614a4e565b8015612aad5780601f10612a8257610100808354040283529160200191612aad565b820191906000526020600020905b815481529060010190602001808311612a9057829003601f168201915b50505050508152602001600482018054612ac690614a4e565b80601f0160208091040260200160405190810160405280929190818152602001828054612af290614a4e565b8015612b3f5780601f10612b1457610100808354040283529160200191612b3f565b820191906000526020600020905b815481529060010190602001808311612b2257829003601f168201915b505050505081525050915080805480602002602001604051908101604052809291908181526020016000905b828210156132ab57838290600052602060002090600e0201604051806101c00160405290816000820160009054906101000a900473ffffffffffffffffffffffffffffffffffffffff1673ffffffffffffffffffffffffffffffffffffffff1673ffffffffffffffffffffffffffffffffffffffff168152602001600182018054612bf590614a4e565b80601f0160208091040260200160405190810160405280929190818152602001828054612c2190614a4e565b8015612c6e5780601f10612c4357610100808354040283529160200191612c6e565b820191906000526020600020905b815481529060010190602001808311612c5157829003601f168201915b50505050508152602001600282018054612c8790614a4e565b80601f0160208091040260200160405190810160405280929190818152602001828054612cb390614a4e565b8015612d005780601f10612cd557610100808354040283529160200191612d00565b820191906000526020600020905b815481529060010190602001808311612ce357829003601f168201915b50505050508152602001600382018054612d1990614a4e565b80601f0160208091040260200160405190810160405280929190818152602001828054612d4590614a4e565b8015612d925780601f10612d6757610100808354040283529160200191612d92565b820191906000526020600020905b815481529060010190602001808311612d7557829003601f168201915b50505050508152602001600482018054612dab90614a4e565b80601f0160208091040260200160405190810160405280929190818152602001828054612dd790614a4e565b8015612e245780601f10612df957610100808354040283529160200191612e24565b820191906000526020600020905b815481529060010190602001808311612e0757829003601f168201915b50505050508152602001600582018054612e3d90614a4e565b80601f0160208091040260200160405190810160405280929190818152602001828054612e6990614a4e565b8015612eb65780601f10612e8b57610100808354040283529160200191612eb6565b820191906000526020600020905b815481529060010190602001808311612e9957829003601f168201915b50505050508152602001600682018054612ecf90614a4e565b80601f0160208091040260200160405190810160405280929190818152602001828054612efb90614a4e565b8015612f485780601f10612f1d57610100808354040283529160200191612f48565b820191906000526020600020905b815481529060010190602001808311612f2b57829003601f168201915b50505050508152602001600782018054612f6190614a4e565b80601f0160208091040260200160405190810160405280929190818152602001828054612f8d90614a4e565b8015612fda5780601f10612faf57610100808354040283529160200191612fda565b820191906000526020600020905b815481529060010190602001808311612fbd57829003601f168201915b50505050508152602001600882018054612ff390614a4e565b80601f016020809104026020016040519081016040528092919081815260200182805461301f90614a4e565b801561306c5780601f106130415761010080835404028352916020019161306c565b820191906000526020600020905b81548152906001019060200180831161304f57829003601f168201915b505050505081526020016009820160009054906101000a900460ff16151515158152602001600a820180546130a090614a4e565b80601f01602080910402602001604051908101604052809291908181526020018280546130cc90614a4e565b80156131195780601f106130ee57610100808354040283529160200191613119565b820191906000526020600020905b8154815290600101906020018083116130fc57829003601f168201915b50505050508152602001600b8201805461313290614a4e565b80601f016020809104026020016040519081016040528092919081815260200182805461315e90614a4e565b80156131ab5780601f10613180576101008083540402835291602001916131ab565b820191906000526020600020905b81548152906001019060200180831161318e57829003601f168201915b50505050508152602001600c820160009054906101000a900473ffffffffffffffffffffffffffffffffffffffff1673ffffffffffffffffffffffffffffffffffffffff1673ffffffffffffffffffffffffffffffffffffffff168152602001600d8201805461321a90614a4e565b80601f016020809104026020016040519081016040528092919081815260200182805461324690614a4e565b80156132935780601f1061326857610100808354040283529160200191613293565b820191906000526020600020905b81548152906001019060200180831161327657829003601f168201915b50505050508152505081526020019060010190612b6b565b50505050905091509150915091565b6040518060a00160405280600073ffffffffffffffffffffffffffffffffffffffff168152602001606081526020016000815260200160608152602001606081525090565b604051806101400160405280600073ffffffffffffffffffffffffffffffffffffffff16815260200160608152602001606081526020016060815260200160608152602001606081526020016060815260200160608152602001606081526020016000151581525090565b604051806101c00160405280600073ffffffffffffffffffffffffffffffffffffffff16815260200160608152602001606081526020016060815260200160608152602001606081526020016060815260200160608152602001606081526020016000151581526020016060815260200160608152602001600073ffffffffffffffffffffffffffffffffffffffff168152602001606081525090565b6040518060a00160405280600073ffffffffffffffffffffffffffffffffffffffff168152602001606081526020016060815260200160008152602001606081525090565b604051806101a00160405280600073ffffffffffffffffffffffffffffffffffffffff1681526020016060815260200160608152602001606081526020016060815260200160608152602001606081526020016060815260200160608152602001606081526020016060815260200160608152602001606081525090565b6000604051905090565b600080fd5b600080fd5b600073ffffffffffffffffffffffffffffffffffffffff82169050919050565b6000613509826134de565b9050919050565b613519816134fe565b811461352457600080fd5b50565b60008135905061353681613510565b92915050565b600060208284031215613552576135516134d4565b5b600061356084828501613527565b91505092915050565b600080fd5b6000601f19601f8301169050919050565b7f4e487b7100000000000000000000000000000000000000000000000000000000600052604160045260246000fd5b6135b78261356e565b810181811067ffffffffffffffff821117156135d6576135d561357f565b5b80604052505050565b60006135e96134ca565b90506135f582826135ae565b919050565b600080fd5b600080fd5b600080fd5b600067ffffffffffffffff8211156136245761362361357f565b5b61362d8261356e565b9050602081019050919050565b82818337600083830152505050565b600061365c61365784613609565b6135df565b90508281526020810184848401111561367857613677613604565b5b61368384828561363a565b509392505050565b600082601f8301126136a05761369f6135ff565b5b81356136b0848260208601613649565b91505092915050565b6000819050919050565b6136cc816136b9565b81146136d757600080fd5b50565b6000813590506136e9816136c3565b92915050565b600060a0828403121561370557613704613569565b5b61370f60a06135df565b9050600061371f84828501613527565b600083015250602082013567ffffffffffffffff811115613743576137426135fa565b5b61374f8482850161368b565b6020830152506040613763848285016136da565b604083015250606082013567ffffffffffffffff811115613787576137866135fa565b5b6137938482850161368b565b606083015250608082013567ffffffffffffffff8111156137b7576137b66135fa565b5b6137c38482850161368b565b60808301525092915050565b60008115159050919050565b6137e4816137cf565b81146137ef57600080fd5b50565b600081359050613801816137db565b92915050565b6000610140828403121561381e5761381d613569565b5b6138296101406135df565b9050600061383984828501613527565b600083015250602082013567ffffffffffffffff81111561385d5761385c6135fa565b5b6138698482850161368b565b602083015250604082013567ffffffffffffffff81111561388d5761388c6135fa565b5b6138998482850161368b565b604083015250606082013567ffffffffffffffff8111156138bd576138bc6135fa565b5b6138c98482850161368b565b606083015250608082013567ffffffffffffffff8111156138ed576138ec6135fa565b5b6138f98482850161368b565b60808301525060a082013567ffffffffffffffff81111561391d5761391c6135fa565b5b6139298482850161368b565b60a08301525060c082013567ffffffffffffffff81111561394d5761394c6135fa565b5b6139598482850161368b565b60c08301525060e082013567ffffffffffffffff81111561397d5761397c6135fa565b5b6139898482850161368b565b60e08301525061010082013567ffffffffffffffff8111156139ae576139ad6135fa565b5b6139ba8482850161368b565b610100830152506101206139d0848285016137f2565b6101208301525092915050565b600080604083850312156139f4576139f36134d4565b5b600083013567ffffffffffffffff811115613a1257613a116134d9565b5b613a1e858286016136ef565b925050602083013567ffffffffffffffff811115613a3f57613a3e6134d9565b5b613a4b85828601613807565b9150509250929050565b60006101c08284031215613a6c57613a6b613569565b5b613a776101c06135df565b90506000613a8784828501613527565b600083015250602082013567ffffffffffffffff811115613aab57613aaa6135fa565b5b613ab78482850161368b565b602083015250604082013567ffffffffffffffff811115613adb57613ada6135fa565b5b613ae78482850161368b565b604083015250606082013567ffffffffffffffff811115613b0b57613b0a6135fa565b5b613b178482850161368b565b606083015250608082013567ffffffffffffffff811115613b3b57613b3a6135fa565b5b613b478482850161368b565b60808301525060a082013567ffffffffffffffff811115613b6b57613b6a6135fa565b5b613b778482850161368b565b60a08301525060c082013567ffffffffffffffff811115613b9b57613b9a6135fa565b5b613ba78482850161368b565b60c08301525060e082013567ffffffffffffffff811115613bcb57613bca6135fa565b5b613bd78482850161368b565b60e08301525061010082013567ffffffffffffffff811115613bfc57613bfb6135fa565b5b613c088482850161368b565b61010083015250610120613c1e848285016137f2565b6101208301525061014082013567ffffffffffffffff811115613c4457613c436135fa565b5b613c508482850161368b565b6101408301525061016082013567ffffffffffffffff811115613c7657613c756135fa565b5b613c828482850161368b565b61016083015250610180613c9884828501613527565b610180830152506101a082013567ffffffffffffffff811115613cbe57613cbd6135fa565b5b613cca8482850161368b565b6101a08301525092915050565b60008060408385031215613cee57613ced6134d4565b5b600083013567ffffffffffffffff811115613d0c57613d0b6134d9565b5b613d18858286016136ef565b925050602083013567ffffffffffffffff811115613d3957613d386134d9565b5b613d4585828601613a55565b9150509250929050565b613d58816134fe565b82525050565b600081519050919050565b600082825260208201905092915050565b60005b83811015613d98578082015181840152602081019050613d7d565b60008484015250505050565b6000613daf82613d5e565b613db98185613d69565b9350613dc9818560208601613d7a565b613dd28161356e565b840191505092915050565b613de6816136b9565b82525050565b600060a083016000830151613e046000860182613d4f565b5060208301518482036020860152613e1c8282613da4565b9150506040830151613e316040860182613ddd565b5060608301518482036060860152613e498282613da4565b91505060808301518482036080860152613e638282613da4565b9150508091505092915050565b600081519050919050565b600082825260208201905092915050565b6000819050602082019050919050565b613ea5816137cf565b82525050565b600061014083016000830151613ec46000860182613d4f565b5060208301518482036020860152613edc8282613da4565b91505060408301518482036040860152613ef68282613da4565b91505060608301518482036060860152613f108282613da4565b91505060808301518482036080860152613f2a8282613da4565b91505060a083015184820360a0860152613f448282613da4565b91505060c083015184820360c0860152613f5e8282613da4565b91505060e083015184820360e0860152613f788282613da4565b915050610100830151848203610100860152613f948282613da4565b915050610120830151613fab610120860182613e9c565b508091505092915050565b6000613fc28383613eab565b905092915050565b6000602082019050919050565b6000613fe282613e70565b613fec8185613e7b565b935083602082028501613ffe85613e8c565b8060005b8581101561403a578484038952815161401b8582613fb6565b945061402683613fca565b925060208a01995050600181019050614002565b50829750879550505050505092915050565b600060408201905081810360008301526140668185613dec565b9050818103602083015261407a8184613fd7565b90509392505050565b600060a0828403121561409957614098613569565b5b6140a360a06135df565b905060006140b384828501613527565b600083015250602082013567ffffffffffffffff8111156140d7576140d66135fa565b5b6140e38482850161368b565b602083015250604082013567ffffffffffffffff811115614107576141066135fa565b5b6141138482850161368b565b6040830152506060614127848285016136da565b606083015250608082013567ffffffffffffffff81111561414b5761414a6135fa565b5b6141578482850161368b565b60808301525092915050565b60006101a0828403121561417a57614179613569565b5b6141856101a06135df565b9050600061419584828501613527565b600083015250602082013567ffffffffffffffff8111156141b9576141b86135fa565b5b6141c58482850161368b565b602083015250604082013567ffffffffffffffff8111156141e9576141e86135fa565b5b6141f58482850161368b565b604083015250606082013567ffffffffffffffff811115614219576142186135fa565b5b6142258482850161368b565b606083015250608082013567ffffffffffffffff811115614249576142486135fa565b5b6142558482850161368b565b60808301525060a082013567ffffffffffffffff811115614279576142786135fa565b5b6142858482850161368b565b60a08301525060c082013567ffffffffffffffff8111156142a9576142a86135fa565b5b6142b58482850161368b565b60c08301525060e082013567ffffffffffffffff8111156142d9576142d86135fa565b5b6142e58482850161368b565b60e08301525061010082013567ffffffffffffffff81111561430a576143096135fa565b5b6143168482850161368b565b6101008301525061012082013567ffffffffffffffff81111561433c5761433b6135fa565b5b6143488482850161368b565b6101208301525061014082013567ffffffffffffffff81111561436e5761436d6135fa565b5b61437a8482850161368b565b6101408301525061016082013567ffffffffffffffff8111156143a05761439f6135fa565b5b6143ac8482850161368b565b6101608301525061018082013567ffffffffffffffff8111156143d2576143d16135fa565b5b6143de8482850161368b565b6101808301525092915050565b60008060408385031215614402576144016134d4565b5b600083013567ffffffffffffffff8111156144205761441f6134d9565b5b61442c85828601614083565b925050602083013567ffffffffffffffff81111561444d5761444c6134d9565b5b61445985828601614163565b9150509250929050565b600060a08301600083015161447b6000860182613d4f565b50602083015184820360208601526144938282613da4565b915050604083015184820360408601526144ad8282613da4565b91505060608301516144c26060860182613ddd565b50608083015184820360808601526144da8282613da4565b9150508091505092915050565b600081519050919050565b600082825260208201905092915050565b6000819050602082019050919050565b60006101a08301600083015161452c6000860182613d4f565b50602083015184820360208601526145448282613da4565b9150506040830151848203604086015261455e8282613da4565b915050606083015184820360608601526145788282613da4565b915050608083015184820360808601526145928282613da4565b91505060a083015184820360a08601526145ac8282613da4565b91505060c083015184820360c08601526145c68282613da4565b91505060e083015184820360e08601526145e08282613da4565b9150506101008301518482036101008601526145fc8282613da4565b9150506101208301518482036101208601526146188282613da4565b9150506101408301518482036101408601526146348282613da4565b9150506101608301518482036101608601526146508282613da4565b91505061018083015184820361018086015261466c8282613da4565b9150508091505092915050565b60006146858383614513565b905092915050565b6000602082019050919050565b60006146a5826144e7565b6146af81856144f2565b9350836020820285016146c185614503565b8060005b858110156146fd57848403895281516146de8582614679565b94506146e98361468d565b925060208a019950506001810190506146c5565b50829750879550505050505092915050565b600060408201905081810360008301526147298185614463565b9050818103602083015261473d818461469a565b90509392505050565b600081519050919050565b600082825260208201905092915050565b6000819050602082019050919050565b60006101c08301600083015161478b6000860182613d4f565b50602083015184820360208601526147a38282613da4565b915050604083015184820360408601526147bd8282613da4565b915050606083015184820360608601526147d78282613da4565b915050608083015184820360808601526147f18282613da4565b91505060a083015184820360a086015261480b8282613da4565b91505060c083015184820360c08601526148258282613da4565b91505060e083015184820360e086015261483f8282613da4565b91505061010083015184820361010086015261485b8282613da4565b915050610120830151614872610120860182613e9c565b5061014083015184820361014086015261488c8282613da4565b9150506101608301518482036101608601526148a88282613da4565b9150506101808301516148bf610180860182613d4f565b506101a08301518482036101a08601526148d98282613da4565b9150508091505092915050565b60006148f28383614772565b905092915050565b6000602082019050919050565b600061491282614746565b61491c8185614751565b93508360208202850161492e85614762565b8060005b8581101561496a578484038952815161494b85826148e6565b9450614956836148fa565b925060208a01995050600181019050614932565b50829750879550505050505092915050565b600060408201905081810360008301526149968185613dec565b905081810360208301526149aa8184614907565b90509392505050565b6149bc816134fe565b82525050565b60006020820190506149d760008301846149b3565b92915050565b6000815190506149ec816137db565b92915050565b600060208284031215614a0857614a076134d4565b5b6000614a16848285016149dd565b91505092915050565b7f4e487b7100000000000000000000000000000000000000000000000000000000600052602260045260246000fd5b60006002820490506001821680614a6657607f821691505b602082108103614a7957614a78614a1f565b5b50919050565b60008190508160005260206000209050919050565b60006020601f8301049050919050565b600082821b905092915050565b600060088302614ae17fffffffffffffffffffffffffffffffffffffffffffffffffffffffffffffffff82614aa4565b614aeb8683614aa4565b95508019841693508086168417925050509392505050565b6000819050919050565b6000614b28614b23614b1e846136b9565b614b03565b6136b9565b9050919050565b6000819050919050565b614b4283614b0d565b614b56614b4e82614b2f565b848454614ab1565b825550505050565b600090565b614b6b614b5e565b614b76818484614b39565b505050565b5b81811015614b9a57614b8f600082614b63565b600181019050614b7c565b5050565b601f821115614bdf57614bb081614a7f565b614bb984614a94565b81016020851015614bc8578190505b614bdc614bd485614a94565b830182614b7b565b50505b505050565b600082821c905092915050565b6000614c0260001984600802614be4565b1980831691505092915050565b6000614c1b8383614bf1565b9150826002028217905092915050565b614c3482613d5e565b67ffffffffffffffff811115614c4d57614c4c61357f565b5b614c578254614a4e565b614c62828285614b9e565b600060209050601f831160018114614c955760008415614c83578287015190505b614c8d8582614c0f565b865550614cf5565b601f198416614ca386614a7f565b60005b82811015614ccb57848901518255600182019150602085019450602081019050614ca6565b86831015614ce85784890151614ce4601f891682614bf1565b8355505b6001600288020188555050505b505050505050565b600082825260208201905092915050565b6000614d1982613d5e565b614d238185614cfd565b9350614d33818560208601613d7a565b614d3c8161356e565b840191505092915050565b6000608082019050614d5c60008301876149b3565b8181036020830152614d6e8186614d0e565b90508181036040830152614d828185614d0e565b9050614d9160608301846149b3565b9594505050505056fea26469706673582212204ee99b0dd7713f7ab0c5d78e8a3808f8353f5b778fdc27d3ff8963d6b5d8db5364736f6c63430008110033","opcodes":"PUSH1 0x80 PUSH1 0x40 MSTORE CALLVALUE DUP1 ISZERO PUSH3 0x11 JUMPI PUSH1 0x0 DUP1 REVERT JUMPDEST POP PUSH1 0x40 MLOAD PUSH3 0x4EFB CODESIZE SUB DUP1 PUSH3 0x4EFB DUP4 CODECOPY DUP2 DUP2 ADD PUSH1 0x40 MSTORE DUP2 ADD SWAP1 PUSH3 0x37 SWAP2 SWAP1 PUSH3 0xE9 JUMP JUMPDEST DUP1 PUSH1 0x5 PUSH1 0x0 PUSH2 0x100 EXP DUP2 SLOAD DUP2 PUSH20 0xFFFFFFFFFFFFFFFFFFFFFFFFFFFFFFFFFFFFFFFF MUL NOT AND SWAP1 DUP4 PUSH20 0xFFFFFFFFFFFFFFFFFFFFFFFFFFFFFFFFFFFFFFFF AND MUL OR SWAP1 SSTORE POP POP PUSH3 0x11B JUMP JUMPDEST PUSH1 0x0 DUP1 REVERT JUMPDEST PUSH1 0x0 PUSH20 0xFFFFFFFFFFFFFFFFFFFFFFFFFFFFFFFFFFFFFFFF DUP3 AND SWAP1 POP SWAP2 SWAP1 POP JUMP JUMPDEST PUSH1 0x0 PUSH3 0xB1 DUP3 PUSH3 0x84 JUMP JUMPDEST SWAP1 POP SWAP2 SWAP1 POP JUMP JUMPDEST PUSH3 0xC3 DUP2 PUSH3 0xA4 JUMP JUMPDEST DUP2 EQ PUSH3 0xCF JUMPI PUSH1 0x0 DUP1 REVERT JUMPDEST POP JUMP JUMPDEST PUSH1 0x0 DUP2 MLOAD SWAP1 POP PUSH3 0xE3 DUP2 PUSH3 0xB8 JUMP JUMPDEST SWAP3 SWAP2 POP POP JUMP JUMPDEST PUSH1 0x0 PUSH1 0x20 DUP3 DUP5 SUB SLT ISZERO PUSH3 0x102 JUMPI PUSH3 0x101 PUSH3 0x7F JUMP JUMPDEST JUMPDEST PUSH1 0x0 PUSH3 0x112 DUP5 DUP3 DUP6 ADD PUSH3 0xD2 JUMP JUMPDEST SWAP2 POP POP SWAP3 SWAP2 POP POP JUMP JUMPDEST PUSH2 0x4DD0 DUP1 PUSH3 0x12B PUSH1 0x0 CODECOPY PUSH1 0x0 RETURN INVALID PUSH1 0x80 PUSH1 0x40 MSTORE CALLVALUE DUP1 ISZERO PUSH2 0x10 JUMPI PUSH1 0x0 DUP1 REVERT JUMPDEST POP PUSH1 0x4 CALLDATASIZE LT PUSH2 0x93 JUMPI PUSH1 0x0 CALLDATALOAD PUSH1 0xE0 SHR DUP1 PUSH4 0x9CBC4DBA GT PUSH2 0x66 JUMPI DUP1 PUSH4 0x9CBC4DBA EQ PUSH2 0x108 JUMPI DUP1 PUSH4 0xB2C24A34 EQ PUSH2 0x124 JUMPI DUP1 PUSH4 0xB374ADFF EQ PUSH2 0x155 JUMPI DUP1 PUSH4 0xEB7353D1 EQ PUSH2 0x171 JUMPI DUP1 PUSH4 0xF539FE6C EQ PUSH2 0x1A2 JUMPI PUSH2 0x93 JUMP JUMPDEST DUP1 PUSH4 0x1107747E EQ PUSH2 0x98 JUMPI DUP1 PUSH4 0x4DA7580F EQ PUSH2 0xB4 JUMPI DUP1 PUSH4 0x5DB185C7 EQ PUSH2 0xD0 JUMPI DUP1 PUSH4 0x7621DF6F EQ PUSH2 0xEC JUMPI JUMPDEST PUSH1 0x0 DUP1 REVERT JUMPDEST PUSH2 0xB2 PUSH1 0x4 DUP1 CALLDATASIZE SUB DUP2 ADD SWAP1 PUSH2 0xAD SWAP2 SWAP1 PUSH2 0x353C JUMP JUMPDEST PUSH2 0x1D3 JUMP JUMPDEST STOP JUMPDEST PUSH2 0xCE PUSH1 0x4 DUP1 CALLDATASIZE SUB DUP2 ADD SWAP1 PUSH2 0xC9 SWAP2 SWAP1 PUSH2 0x39DD JUMP JUMPDEST PUSH2 0x217 JUMP JUMPDEST STOP JUMPDEST PUSH2 0xEA PUSH1 0x4 DUP1 CALLDATASIZE SUB DUP2 ADD SWAP1 PUSH2 0xE5 SWAP2 SWAP1 PUSH2 0x353C JUMP JUMPDEST PUSH2 0x790 JUMP JUMPDEST STOP JUMPDEST PUSH2 0x106 PUSH1 0x4 DUP1 CALLDATASIZE SUB DUP2 ADD SWAP1 PUSH2 0x101 SWAP2 SWAP1 PUSH2 0x353C JUMP JUMPDEST PUSH2 0x7D4 JUMP JUMPDEST STOP JUMPDEST PUSH2 0x122 PUSH1 0x4 DUP1 CALLDATASIZE SUB DUP2 ADD SWAP1 PUSH2 0x11D SWAP2 SWAP1 PUSH2 0x3CD7 JUMP JUMPDEST PUSH2 0x818 JUMP JUMPDEST STOP JUMPDEST PUSH2 0x13E PUSH1 0x4 DUP1 CALLDATASIZE SUB DUP2 ADD SWAP1 PUSH2 0x139 SWAP2 SWAP1 PUSH2 0x353C JUMP JUMPDEST PUSH2 0xE89 JUMP JUMPDEST PUSH1 0x40 MLOAD PUSH2 0x14C SWAP3 SWAP2 SWAP1 PUSH2 0x404C JUMP JUMPDEST PUSH1 0x40 MLOAD DUP1 SWAP2 SUB SWAP1 RETURN JUMPDEST PUSH2 0x16F PUSH1 0x4 DUP1 CALLDATASIZE SUB DUP2 ADD SWAP1 PUSH2 0x16A SWAP2 SWAP1 PUSH2 0x43EB JUMP JUMPDEST PUSH2 0x173D JUMP JUMPDEST STOP JUMPDEST PUSH2 0x18B PUSH1 0x4 DUP1 CALLDATASIZE SUB DUP2 ADD SWAP1 PUSH2 0x186 SWAP2 SWAP1 PUSH2 0x353C JUMP JUMPDEST PUSH2 0x1D18 JUMP JUMPDEST PUSH1 0x40 MLOAD PUSH2 0x199 SWAP3 SWAP2 SWAP1 PUSH2 0x470F JUMP JUMPDEST PUSH1 0x40 MLOAD DUP1 SWAP2 SUB SWAP1 RETURN JUMPDEST PUSH2 0x1BC PUSH1 0x4 DUP1 CALLDATASIZE SUB DUP2 ADD SWAP1 PUSH2 0x1B7 SWAP2 SWAP1 PUSH2 0x353C JUMP JUMPDEST PUSH2 0x27FA JUMP JUMPDEST PUSH1 0x40 MLOAD PUSH2 0x1CA SWAP3 SWAP2 SWAP1 PUSH2 0x497C JUMP JUMPDEST PUSH1 0x40 MLOAD DUP1 SWAP2 SUB SWAP1 RETURN JUMPDEST DUP1 PUSH1 0x6 PUSH1 0x0 PUSH2 0x100 EXP DUP2 SLOAD DUP2 PUSH20 0xFFFFFFFFFFFFFFFFFFFFFFFFFFFFFFFFFFFFFFFF MUL NOT AND SWAP1 DUP4 PUSH20 0xFFFFFFFFFFFFFFFFFFFFFFFFFFFFFFFFFFFFFFFF AND MUL OR SWAP1 SSTORE POP POP JUMP JUMPDEST PUSH1 0x6 PUSH1 0x0 SWAP1 SLOAD SWAP1 PUSH2 0x100 EXP SWAP1 DIV PUSH20 0xFFFFFFFFFFFFFFFFFFFFFFFFFFFFFFFFFFFFFFFF AND PUSH20 0xFFFFFFFFFFFFFFFFFFFFFFFFFFFFFFFFFFFFFFFF AND PUSH4 0x63A9C3D7 CALLER PUSH1 0x40 MLOAD DUP3 PUSH4 0xFFFFFFFF AND PUSH1 0xE0 SHL DUP2 MSTORE PUSH1 0x4 ADD PUSH2 0x272 SWAP2 SWAP1 PUSH2 0x49C2 JUMP JUMPDEST PUSH1 0x20 PUSH1 0x40 MLOAD DUP1 DUP4 SUB DUP2 DUP7 GAS STATICCALL ISZERO DUP1 ISZERO PUSH2 0x28F JUMPI RETURNDATASIZE PUSH1 0x0 DUP1 RETURNDATACOPY RETURNDATASIZE PUSH1 0x0 REVERT JUMPDEST POP POP POP POP PUSH1 0x40 MLOAD RETURNDATASIZE PUSH1 0x1F NOT PUSH1 0x1F DUP3 ADD AND DUP3 ADD DUP1 PUSH1 0x40 MSTORE POP DUP2 ADD SWAP1 PUSH2 0x2B3 SWAP2 SWAP1 PUSH2 0x49F2 JUMP JUMPDEST PUSH2 0x2BC JUMPI PUSH1 0x0 DUP1 REVERT JUMPDEST PUSH2 0x2C4 PUSH2 0x32BA JUMP JUMPDEST DUP3 PUSH1 0x0 ADD MLOAD DUP2 PUSH1 0x0 ADD SWAP1 PUSH20 0xFFFFFFFFFFFFFFFFFFFFFFFFFFFFFFFFFFFFFFFF AND SWAP1 DUP2 PUSH20 0xFFFFFFFFFFFFFFFFFFFFFFFFFFFFFFFFFFFFFFFF AND DUP2 MSTORE POP POP DUP3 PUSH1 0x20 ADD MLOAD DUP2 PUSH1 0x20 ADD DUP2 SWAP1 MSTORE POP DUP3 PUSH1 0x40 ADD MLOAD DUP2 PUSH1 0x40 ADD DUP2 DUP2 MSTORE POP POP DUP3 PUSH1 0x60 ADD MLOAD DUP2 PUSH1 0x60 ADD DUP2 SWAP1 MSTORE POP DUP3 PUSH1 0x80 ADD MLOAD DUP2 PUSH1 0x80 ADD DUP2 SWAP1 MSTORE POP DUP1 PUSH1 0x0 DUP1 DUP6 PUSH1 0x0 ADD MLOAD PUSH20 0xFFFFFFFFFFFFFFFFFFFFFFFFFFFFFFFFFFFFFFFF AND PUSH20 0xFFFFFFFFFFFFFFFFFFFFFFFFFFFFFFFFFFFFFFFF AND DUP2 MSTORE PUSH1 0x20 ADD SWAP1 DUP2 MSTORE PUSH1 0x20 ADD PUSH1 0x0 KECCAK256 PUSH1 0x0 DUP3 ADD MLOAD DUP2 PUSH1 0x0 ADD PUSH1 0x0 PUSH2 0x100 EXP DUP2 SLOAD DUP2 PUSH20 0xFFFFFFFFFFFFFFFFFFFFFFFFFFFFFFFFFFFFFFFF MUL NOT AND SWAP1 DUP4 PUSH20 0xFFFFFFFFFFFFFFFFFFFFFFFFFFFFFFFFFFFFFFFF AND MUL OR SWAP1 SSTORE POP PUSH1 0x20 DUP3 ADD MLOAD DUP2 PUSH1 0x1 ADD SWAP1 DUP2 PUSH2 0x3D4 SWAP2 SWAP1 PUSH2 0x4C2B JUMP JUMPDEST POP PUSH1 0x40 DUP3 ADD MLOAD DUP2 PUSH1 0x2 ADD SSTORE PUSH1 0x60 DUP3 ADD MLOAD DUP2 PUSH1 0x3 ADD SWAP1 DUP2 PUSH2 0x3F4 SWAP2 SWAP1 PUSH2 0x4C2B JUMP JUMPDEST POP PUSH1 0x80 DUP3 ADD MLOAD DUP2 PUSH1 0x4 ADD SWAP1 DUP2 PUSH2 0x40A SWAP2 SWAP1 PUSH2 0x4C2B JUMP JUMPDEST POP SWAP1 POP POP PUSH2 0x416 PUSH2 0x32FF JUMP JUMPDEST DUP3 PUSH1 0x0 ADD MLOAD DUP2 PUSH1 0x0 ADD SWAP1 PUSH20 0xFFFFFFFFFFFFFFFFFFFFFFFFFFFFFFFFFFFFFFFF AND SWAP1 DUP2 PUSH20 0xFFFFFFFFFFFFFFFFFFFFFFFFFFFFFFFFFFFFFFFF AND DUP2 MSTORE POP POP DUP3 PUSH1 0x20 ADD MLOAD DUP2 PUSH1 0x20 ADD DUP2 SWAP1 MSTORE POP DUP3 PUSH1 0x40 ADD MLOAD DUP2 PUSH1 0x40 ADD DUP2 SWAP1 MSTORE POP DUP3 PUSH1 0x60 ADD MLOAD DUP2 PUSH1 0x60 ADD DUP2 SWAP1 MSTORE POP DUP3 PUSH1 0x80 ADD MLOAD DUP2 PUSH1 0x80 ADD DUP2 SWAP1 MSTORE POP DUP3 PUSH1 0xA0 ADD MLOAD DUP2 PUSH1 0xA0 ADD DUP2 SWAP1 MSTORE POP DUP3 PUSH1 0xC0 ADD MLOAD DUP2 PUSH1 0xC0 ADD DUP2 SWAP1 MSTORE POP DUP3 PUSH1 0xE0 ADD MLOAD DUP2 PUSH1 0xE0 ADD DUP2 SWAP1 MSTORE POP DUP3 PUSH2 0x100 ADD MLOAD DUP2 PUSH2 0x100 ADD DUP2 SWAP1 MSTORE POP DUP3 PUSH2 0x120 ADD MLOAD DUP2 PUSH2 0x120 ADD SWAP1 ISZERO ISZERO SWAP1 DUP2 ISZERO ISZERO DUP2 MSTORE POP POP PUSH1 0x2 PUSH1 0x0 DUP6 PUSH1 0x0 ADD MLOAD PUSH20 0xFFFFFFFFFFFFFFFFFFFFFFFFFFFFFFFFFFFFFFFF AND PUSH20 0xFFFFFFFFFFFFFFFFFFFFFFFFFFFFFFFFFFFFFFFF AND DUP2 MSTORE PUSH1 0x20 ADD SWAP1 DUP2 MSTORE PUSH1 0x20 ADD PUSH1 0x0 KECCAK256 DUP2 SWAP1 DUP1 PUSH1 0x1 DUP2 SLOAD ADD DUP1 DUP3 SSTORE DUP1 SWAP2 POP POP PUSH1 0x1 SWAP1 SUB SWAP1 PUSH1 0x0 MSTORE PUSH1 0x20 PUSH1 0x0 KECCAK256 SWAP1 PUSH1 0xA MUL ADD PUSH1 0x0 SWAP1 SWAP2 SWAP1 SWAP2 SWAP1 SWAP2 POP PUSH1 0x0 DUP3 ADD MLOAD DUP2 PUSH1 0x0 ADD PUSH1 0x0 PUSH2 0x100 EXP DUP2 SLOAD DUP2 PUSH20 0xFFFFFFFFFFFFFFFFFFFFFFFFFFFFFFFFFFFFFFFF MUL NOT AND SWAP1 DUP4 PUSH20 0xFFFFFFFFFFFFFFFFFFFFFFFFFFFFFFFFFFFFFFFF AND MUL OR SWAP1 SSTORE POP PUSH1 0x20 DUP3 ADD MLOAD DUP2 PUSH1 0x1 ADD SWAP1 DUP2 PUSH2 0x59B SWAP2 SWAP1 PUSH2 0x4C2B JUMP JUMPDEST POP PUSH1 0x40 DUP3 ADD MLOAD DUP2 PUSH1 0x2 ADD SWAP1 DUP2 PUSH2 0x5B1 SWAP2 SWAP1 PUSH2 0x4C2B JUMP JUMPDEST POP PUSH1 0x60 DUP3 ADD MLOAD DUP2 PUSH1 0x3 ADD SWAP1 DUP2 PUSH2 0x5C7 SWAP2 SWAP1 PUSH2 0x4C2B JUMP JUMPDEST POP PUSH1 0x80 DUP3 ADD MLOAD DUP2 PUSH1 0x4 ADD SWAP1 DUP2 PUSH2 0x5DD SWAP2 SWAP1 PUSH2 0x4C2B JUMP JUMPDEST POP PUSH1 0xA0 DUP3 ADD MLOAD DUP2 PUSH1 0x5 ADD SWAP1 DUP2 PUSH2 0x5F3 SWAP2 SWAP1 PUSH2 0x4C2B JUMP JUMPDEST POP PUSH1 0xC0 DUP3 ADD MLOAD DUP2 PUSH1 0x6 ADD SWAP1 DUP2 PUSH2 0x609 SWAP2 SWAP1 PUSH2 0x4C2B JUMP JUMPDEST POP PUSH1 0xE0 DUP3 ADD MLOAD DUP2 PUSH1 0x7 ADD SWAP1 DUP2 PUSH2 0x61F SWAP2 SWAP1 PUSH2 0x4C2B JUMP JUMPDEST POP PUSH2 0x100 DUP3 ADD MLOAD DUP2 PUSH1 0x8 ADD SWAP1 DUP2 PUSH2 0x636 SWAP2 SWAP1 PUSH2 0x4C2B JUMP JUMPDEST POP PUSH2 0x120 DUP3 ADD MLOAD DUP2 PUSH1 0x9 ADD PUSH1 0x0 PUSH2 0x100 EXP DUP2 SLOAD DUP2 PUSH1 0xFF MUL NOT AND SWAP1 DUP4 ISZERO ISZERO MUL OR SWAP1 SSTORE POP POP POP PUSH1 0x7 PUSH1 0x0 SWAP1 SLOAD SWAP1 PUSH2 0x100 EXP SWAP1 DIV PUSH20 0xFFFFFFFFFFFFFFFFFFFFFFFFFFFFFFFFFFFFFFFF AND PUSH20 0xFFFFFFFFFFFFFFFFFFFFFFFFFFFFFFFFFFFFFFFF AND PUSH4 0x6D263CEB DUP6 PUSH1 0x0 ADD MLOAD PUSH1 0x40 MLOAD DUP3 PUSH4 0xFFFFFFFF AND PUSH1 0xE0 SHL DUP2 MSTORE PUSH1 0x4 ADD PUSH2 0x6B9 SWAP2 SWAP1 PUSH2 0x49C2 JUMP JUMPDEST PUSH1 0x0 PUSH1 0x40 MLOAD DUP1 DUP4 SUB DUP2 PUSH1 0x0 DUP8 DUP1 EXTCODESIZE ISZERO DUP1 ISZERO PUSH2 0x6D3 JUMPI PUSH1 0x0 DUP1 REVERT JUMPDEST POP GAS CALL ISZERO DUP1 ISZERO PUSH2 0x6E7 JUMPI RETURNDATASIZE PUSH1 0x0 DUP1 RETURNDATACOPY RETURNDATASIZE PUSH1 0x0 REVERT JUMPDEST POP POP POP POP PUSH1 0x8 PUSH1 0x0 SWAP1 SLOAD SWAP1 PUSH2 0x100 EXP SWAP1 DIV PUSH20 0xFFFFFFFFFFFFFFFFFFFFFFFFFFFFFFFFFFFFFFFF AND PUSH20 0xFFFFFFFFFFFFFFFFFFFFFFFFFFFFFFFFFFFFFFFF AND PUSH4 0x43A0E44A CALLER DUP7 PUSH1 0x20 ADD MLOAD DUP7 PUSH1 0x20 ADD MLOAD DUP9 PUSH1 0x0 ADD MLOAD PUSH1 0x40 MLOAD DUP6 PUSH4 0xFFFFFFFF AND PUSH1 0xE0 SHL DUP2 MSTORE PUSH1 0x4 ADD PUSH2 0x758 SWAP5 SWAP4 SWAP3 SWAP2 SWAP1 PUSH2 0x4D47 JUMP JUMPDEST PUSH1 0x0 PUSH1 0x40 MLOAD DUP1 DUP4 SUB DUP2 PUSH1 0x0 DUP8 DUP1 EXTCODESIZE ISZERO DUP1 ISZERO PUSH2 0x772 JUMPI PUSH1 0x0 DUP1 REVERT JUMPDEST POP GAS CALL ISZERO DUP1 ISZERO PUSH2 0x786 JUMPI RETURNDATASIZE PUSH1 0x0 DUP1 RETURNDATACOPY RETURNDATASIZE PUSH1 0x0 REVERT JUMPDEST POP POP POP POP POP POP POP POP JUMP JUMPDEST DUP1 PUSH1 0x7 PUSH1 0x0 PUSH2 0x100 EXP DUP2 SLOAD DUP2 PUSH20 0xFFFFFFFFFFFFFFFFFFFFFFFFFFFFFFFFFFFFFFFF MUL NOT AND SWAP1 DUP4 PUSH20 0xFFFFFFFFFFFFFFFFFFFFFFFFFFFFFFFFFFFFFFFF AND MUL OR SWAP1 SSTORE POP POP JUMP JUMPDEST DUP1 PUSH1 0x8 PUSH1 0x0 PUSH2 0x100 EXP DUP2 SLOAD DUP2 PUSH20 0xFFFFFFFFFFFFFFFFFFFFFFFFFFFFFFFFFFFFFFFF MUL NOT AND SWAP1 DUP4 PUSH20 0xFFFFFFFFFFFFFFFFFFFFFFFFFFFFFFFFFFFFFFFF AND MUL OR SWAP1 SSTORE POP POP JUMP JUMPDEST PUSH1 0x6 PUSH1 0x0 SWAP1 SLOAD SWAP1 PUSH2 0x100 EXP SWAP1 DIV PUSH20 0xFFFFFFFFFFFFFFFFFFFFFFFFFFFFFFFFFFFFFFFF AND PUSH20 0xFFFFFFFFFFFFFFFFFFFFFFFFFFFFFFFFFFFFFFFF AND PUSH4 0x63A9C3D7 CALLER PUSH1 0x40 MLOAD DUP3 PUSH4 0xFFFFFFFF AND PUSH1 0xE0 SHL DUP2 MSTORE PUSH1 0x4 ADD PUSH2 0x873 SWAP2 SWAP1 PUSH2 0x49C2 JUMP JUMPDEST PUSH1 0x20 PUSH1 0x40 MLOAD DUP1 DUP4 SUB DUP2 DUP7 GAS STATICCALL ISZERO DUP1 ISZERO PUSH2 0x890 JUMPI RETURNDATASIZE PUSH1 0x0 DUP1 RETURNDATACOPY RETURNDATASIZE PUSH1 0x0 REVERT JUMPDEST POP POP POP POP PUSH1 0x40 MLOAD RETURNDATASIZE PUSH1 0x1F NOT PUSH1 0x1F DUP3 ADD AND DUP3 ADD DUP1 PUSH1 0x40 MSTORE POP DUP2 ADD SWAP1 PUSH2 0x8B4 SWAP2 SWAP1 PUSH2 0x49F2 JUMP JUMPDEST PUSH2 0x8BD JUMPI PUSH1 0x0 DUP1 REVERT JUMPDEST PUSH2 0x8C5 PUSH2 0x32BA JUMP JUMPDEST DUP3 PUSH1 0x0 ADD MLOAD DUP2 PUSH1 0x0 ADD SWAP1 PUSH20 0xFFFFFFFFFFFFFFFFFFFFFFFFFFFFFFFFFFFFFFFF AND SWAP1 DUP2 PUSH20 0xFFFFFFFFFFFFFFFFFFFFFFFFFFFFFFFFFFFFFFFF AND DUP2 MSTORE POP POP DUP3 PUSH1 0x20 ADD MLOAD DUP2 PUSH1 0x20 ADD DUP2 SWAP1 MSTORE POP DUP3 PUSH1 0x40 ADD MLOAD DUP2 PUSH1 0x40 ADD DUP2 DUP2 MSTORE POP POP DUP3 PUSH1 0x60 ADD MLOAD DUP2 PUSH1 0x60 ADD DUP2 SWAP1 MSTORE POP DUP3 PUSH1 0x80 ADD MLOAD DUP2 PUSH1 0x80 ADD DUP2 SWAP1 MSTORE POP DUP1 PUSH1 0x0 DUP1 DUP6 PUSH1 0x0 ADD MLOAD PUSH20 0xFFFFFFFFFFFFFFFFFFFFFFFFFFFFFFFFFFFFFFFF AND PUSH20 0xFFFFFFFFFFFFFFFFFFFFFFFFFFFFFFFFFFFFFFFF AND DUP2 MSTORE PUSH1 0x20 ADD SWAP1 DUP2 MSTORE PUSH1 0x20 ADD PUSH1 0x0 KECCAK256 PUSH1 0x0 DUP3 ADD MLOAD DUP2 PUSH1 0x0 ADD PUSH1 0x0 PUSH2 0x100 EXP DUP2 SLOAD DUP2 PUSH20 0xFFFFFFFFFFFFFFFFFFFFFFFFFFFFFFFFFFFFFFFF MUL NOT AND SWAP1 DUP4 PUSH20 0xFFFFFFFFFFFFFFFFFFFFFFFFFFFFFFFFFFFFFFFF AND MUL OR SWAP1 SSTORE POP PUSH1 0x20 DUP3 ADD MLOAD DUP2 PUSH1 0x1 ADD SWAP1 DUP2 PUSH2 0x9D5 SWAP2 SWAP1 PUSH2 0x4C2B JUMP JUMPDEST POP PUSH1 0x40 DUP3 ADD MLOAD DUP2 PUSH1 0x2 ADD SSTORE PUSH1 0x60 DUP3 ADD MLOAD DUP2 PUSH1 0x3 ADD SWAP1 DUP2 PUSH2 0x9F5 SWAP2 SWAP1 PUSH2 0x4C2B JUMP JUMPDEST POP PUSH1 0x80 DUP3 ADD MLOAD DUP2 PUSH1 0x4 ADD SWAP1 DUP2 PUSH2 0xA0B SWAP2 SWAP1 PUSH2 0x4C2B JUMP JUMPDEST POP SWAP1 POP POP PUSH2 0xA17 PUSH2 0x336A JUMP JUMPDEST DUP3 PUSH1 0x0 ADD MLOAD DUP2 PUSH1 0x0 ADD SWAP1 PUSH20 0xFFFFFFFFFFFFFFFFFFFFFFFFFFFFFFFFFFFFFFFF AND SWAP1 DUP2 PUSH20 0xFFFFFFFFFFFFFFFFFFFFFFFFFFFFFFFFFFFFFFFF AND DUP2 MSTORE POP POP DUP3 PUSH1 0x20 ADD MLOAD DUP2 PUSH1 0x20 ADD DUP2 SWAP1 MSTORE POP DUP3 PUSH1 0x40 ADD MLOAD DUP2 PUSH1 0x40 ADD DUP2 SWAP1 MSTORE POP DUP3 PUSH1 0x60 ADD MLOAD DUP2 PUSH1 0x60 ADD DUP2 SWAP1 MSTORE POP DUP3 PUSH1 0x80 ADD MLOAD DUP2 PUSH1 0x80 ADD DUP2 SWAP1 MSTORE POP DUP3 PUSH1 0xA0 ADD MLOAD DUP2 PUSH1 0xA0 ADD DUP2 SWAP1 MSTORE POP DUP3 PUSH1 0xC0 ADD MLOAD DUP2 PUSH1 0xC0 ADD DUP2 SWAP1 MSTORE POP DUP3 PUSH1 0xE0 ADD MLOAD DUP2 PUSH1 0xE0 ADD DUP2 SWAP1 MSTORE POP DUP3 PUSH2 0x100 ADD MLOAD DUP2 PUSH2 0x100 ADD DUP2 SWAP1 MSTORE POP DUP3 PUSH2 0x120 ADD MLOAD DUP2 PUSH2 0x120 ADD SWAP1 ISZERO ISZERO SWAP1 DUP2 ISZERO ISZERO DUP2 MSTORE POP POP DUP3 PUSH2 0x140 ADD MLOAD DUP2 PUSH2 0x140 ADD DUP2 SWAP1 MSTORE POP DUP3 PUSH2 0x160 ADD MLOAD DUP2 PUSH2 0x160 ADD DUP2 SWAP1 MSTORE POP DUP3 PUSH2 0x180 ADD MLOAD DUP2 PUSH2 0x180 ADD SWAP1 PUSH20 0xFFFFFFFFFFFFFFFFFFFFFFFFFFFFFFFFFFFFFFFF AND SWAP1 DUP2 PUSH20 0xFFFFFFFFFFFFFFFFFFFFFFFFFFFFFFFFFFFFFFFF AND DUP2 MSTORE POP POP DUP3 PUSH2 0x1A0 ADD MLOAD DUP2 PUSH2 0x1A0 ADD DUP2 SWAP1 MSTORE POP PUSH1 0x3 PUSH1 0x0 DUP5 PUSH1 0x0 ADD MLOAD PUSH20 0xFFFFFFFFFFFFFFFFFFFFFFFFFFFFFFFFFFFFFFFF AND PUSH20 0xFFFFFFFFFFFFFFFFFFFFFFFFFFFFFFFFFFFFFFFF AND DUP2 MSTORE PUSH1 0x20 ADD SWAP1 DUP2 MSTORE PUSH1 0x20 ADD PUSH1 0x0 KECCAK256 DUP2 SWAP1 DUP1 PUSH1 0x1 DUP2 SLOAD ADD DUP1 DUP3 SSTORE DUP1 SWAP2 POP POP PUSH1 0x1 SWAP1 SUB SWAP1 PUSH1 0x0 MSTORE PUSH1 0x20 PUSH1 0x0 KECCAK256 SWAP1 PUSH1 0xE MUL ADD PUSH1 0x0 SWAP1 SWAP2 SWAP1 SWAP2 SWAP1 SWAP2 POP PUSH1 0x0 DUP3 ADD MLOAD DUP2 PUSH1 0x0 ADD PUSH1 0x0 PUSH2 0x100 EXP DUP2 SLOAD DUP2 PUSH20 0xFFFFFFFFFFFFFFFFFFFFFFFFFFFFFFFFFFFFFFFF MUL NOT AND SWAP1 DUP4 PUSH20 0xFFFFFFFFFFFFFFFFFFFFFFFFFFFFFFFFFFFFFFFF AND MUL OR SWAP1 SSTORE POP PUSH1 0x20 DUP3 ADD MLOAD DUP2 PUSH1 0x1 ADD SWAP1 DUP2 PUSH2 0xC07 SWAP2 SWAP1 PUSH2 0x4C2B JUMP JUMPDEST POP PUSH1 0x40 DUP3 ADD MLOAD DUP2 PUSH1 0x2 ADD SWAP1 DUP2 PUSH2 0xC1D SWAP2 SWAP1 PUSH2 0x4C2B JUMP JUMPDEST POP PUSH1 0x60 DUP3 ADD MLOAD DUP2 PUSH1 0x3 ADD SWAP1 DUP2 PUSH2 0xC33 SWAP2 SWAP1 PUSH2 0x4C2B JUMP JUMPDEST POP PUSH1 0x80 DUP3 ADD MLOAD DUP2 PUSH1 0x4 ADD SWAP1 DUP2 PUSH2 0xC49 SWAP2 SWAP1 PUSH2 0x4C2B JUMP JUMPDEST POP PUSH1 0xA0 DUP3 ADD MLOAD DUP2 PUSH1 0x5 ADD SWAP1 DUP2 PUSH2 0xC5F SWAP2 SWAP1 PUSH2 0x4C2B JUMP JUMPDEST POP PUSH1 0xC0 DUP3 ADD MLOAD DUP2 PUSH1 0x6 ADD SWAP1 DUP2 PUSH2 0xC75 SWAP2 SWAP1 PUSH2 0x4C2B JUMP JUMPDEST POP PUSH1 0xE0 DUP3 ADD MLOAD DUP2 PUSH1 0x7 ADD SWAP1 DUP2 PUSH2 0xC8B SWAP2 SWAP1 PUSH2 0x4C2B JUMP JUMPDEST POP PUSH2 0x100 DUP3 ADD MLOAD DUP2 PUSH1 0x8 ADD SWAP1 DUP2 PUSH2 0xCA2 SWAP2 SWAP1 PUSH2 0x4C2B JUMP JUMPDEST POP PUSH2 0x120 DUP3 ADD MLOAD DUP2 PUSH1 0x9 ADD PUSH1 0x0 PUSH2 0x100 EXP DUP2 SLOAD DUP2 PUSH1 0xFF MUL NOT AND SWAP1 DUP4 ISZERO ISZERO MUL OR SWAP1 SSTORE POP PUSH2 0x140 DUP3 ADD MLOAD DUP2 PUSH1 0xA ADD SWAP1 DUP2 PUSH2 0xCDA SWAP2 SWAP1 PUSH2 0x4C2B JUMP JUMPDEST POP PUSH2 0x160 DUP3 ADD MLOAD DUP2 PUSH1 0xB ADD SWAP1 DUP2 PUSH2 0xCF1 SWAP2 SWAP1 PUSH2 0x4C2B JUMP JUMPDEST POP PUSH2 0x180 DUP3 ADD MLOAD DUP2 PUSH1 0xC ADD PUSH1 0x0 PUSH2 0x100 EXP DUP2 SLOAD DUP2 PUSH20 0xFFFFFFFFFFFFFFFFFFFFFFFFFFFFFFFFFFFFFFFF MUL NOT AND SWAP1 DUP4 PUSH20 0xFFFFFFFFFFFFFFFFFFFFFFFFFFFFFFFFFFFFFFFF AND MUL OR SWAP1 SSTORE POP PUSH2 0x1A0 DUP3 ADD MLOAD DUP2 PUSH1 0xD ADD SWAP1 DUP2 PUSH2 0xD50 SWAP2 SWAP1 PUSH2 0x4C2B JUMP JUMPDEST POP POP POP PUSH1 0x7 PUSH1 0x0 SWAP1 SLOAD SWAP1 PUSH2 0x100 EXP SWAP1 DIV PUSH20 0xFFFFFFFFFFFFFFFFFFFFFFFFFFFFFFFFFFFFFFFF AND PUSH20 0xFFFFFFFFFFFFFFFFFFFFFFFFFFFFFFFFFFFFFFFF AND PUSH4 0x6D263CEB DUP6 PUSH1 0x0 ADD MLOAD PUSH1 0x40 MLOAD DUP3 PUSH4 0xFFFFFFFF AND PUSH1 0xE0 SHL DUP2 MSTORE PUSH1 0x4 ADD PUSH2 0xDB2 SWAP2 SWAP1 PUSH2 0x49C2 JUMP JUMPDEST PUSH1 0x0 PUSH1 0x40 MLOAD DUP1 DUP4 SUB DUP2 PUSH1 0x0 DUP8 DUP1 EXTCODESIZE ISZERO DUP1 ISZERO PUSH2 0xDCC JUMPI PUSH1 0x0 DUP1 REVERT JUMPDEST POP GAS CALL ISZERO DUP1 ISZERO PUSH2 0xDE0 JUMPI RETURNDATASIZE PUSH1 0x0 DUP1 RETURNDATACOPY RETURNDATASIZE PUSH1 0x0 REVERT JUMPDEST POP POP POP POP PUSH1 0x8 PUSH1 0x0 SWAP1 SLOAD SWAP1 PUSH2 0x100 EXP SWAP1 DIV PUSH20 0xFFFFFFFFFFFFFFFFFFFFFFFFFFFFFFFFFFFFFFFF AND PUSH20 0xFFFFFFFFFFFFFFFFFFFFFFFFFFFFFFFFFFFFFFFF AND PUSH4 0x43A0E44A CALLER DUP7 PUSH1 0x20 ADD MLOAD DUP7 PUSH1 0x20 ADD MLOAD DUP9 PUSH1 0x0 ADD MLOAD PUSH1 0x40 MLOAD DUP6 PUSH4 0xFFFFFFFF AND PUSH1 0xE0 SHL DUP2 MSTORE PUSH1 0x4 ADD PUSH2 0xE51 SWAP5 SWAP4 SWAP3 SWAP2 SWAP1 PUSH2 0x4D47 JUMP JUMPDEST PUSH1 0x0 PUSH1 0x40 MLOAD DUP1 DUP4 SUB DUP2 PUSH1 0x0 DUP8 DUP1 EXTCODESIZE ISZERO DUP1 ISZERO PUSH2 0xE6B JUMPI PUSH1 0x0 DUP1 REVERT JUMPDEST POP GAS CALL ISZERO DUP1 ISZERO PUSH2 0xE7F JUMPI RETURNDATASIZE PUSH1 0x0 DUP1 RETURNDATACOPY RETURNDATASIZE PUSH1 0x0 REVERT JUMPDEST POP POP POP POP POP POP POP POP JUMP JUMPDEST PUSH2 0xE91 PUSH2 0x32BA JUMP JUMPDEST PUSH1 0x60 PUSH1 0x6 PUSH1 0x0 SWAP1 SLOAD SWAP1 PUSH2 0x100 EXP SWAP1 DIV PUSH20 0xFFFFFFFFFFFFFFFFFFFFFFFFFFFFFFFFFFFFFFFF AND PUSH20 0xFFFFFFFFFFFFFFFFFFFFFFFFFFFFFFFFFFFFFFFF AND PUSH4 0x63A9C3D7 CALLER PUSH1 0x40 MLOAD DUP3 PUSH4 0xFFFFFFFF AND PUSH1 0xE0 SHL DUP2 MSTORE PUSH1 0x4 ADD PUSH2 0xEEE SWAP2 SWAP1 PUSH2 0x49C2 JUMP JUMPDEST PUSH1 0x20 PUSH1 0x40 MLOAD DUP1 DUP4 SUB DUP2 DUP7 GAS STATICCALL ISZERO DUP1 ISZERO PUSH2 0xF0B JUMPI RETURNDATASIZE PUSH1 0x0 DUP1 RETURNDATACOPY RETURNDATASIZE PUSH1 0x0 REVERT JUMPDEST POP POP POP POP PUSH1 0x40 MLOAD RETURNDATASIZE PUSH1 0x1F NOT PUSH1 0x1F DUP3 ADD AND DUP3 ADD DUP1 PUSH1 0x40 MSTORE POP DUP2 ADD SWAP1 PUSH2 0xF2F SWAP2 SWAP1 PUSH2 0x49F2 JUMP JUMPDEST PUSH2 0xF38 JUMPI PUSH1 0x0 DUP1 REVERT JUMPDEST PUSH1 0x0 DUP1 DUP5 PUSH20 0xFFFFFFFFFFFFFFFFFFFFFFFFFFFFFFFFFFFFFFFF AND PUSH20 0xFFFFFFFFFFFFFFFFFFFFFFFFFFFFFFFFFFFFFFFF AND DUP2 MSTORE PUSH1 0x20 ADD SWAP1 DUP2 MSTORE PUSH1 0x20 ADD PUSH1 0x0 KECCAK256 PUSH1 0x2 PUSH1 0x0 DUP6 PUSH20 0xFFFFFFFFFFFFFFFFFFFFFFFFFFFFFFFFFFFFFFFF AND PUSH20 0xFFFFFFFFFFFFFFFFFFFFFFFFFFFFFFFFFFFFFFFF AND DUP2 MSTORE PUSH1 0x20 ADD SWAP1 DUP2 MSTORE PUSH1 0x20 ADD PUSH1 0x0 KECCAK256 DUP2 PUSH1 0x40 MLOAD DUP1 PUSH1 0xA0 ADD PUSH1 0x40 MSTORE SWAP1 DUP2 PUSH1 0x0 DUP3 ADD PUSH1 0x0 SWAP1 SLOAD SWAP1 PUSH2 0x100 EXP SWAP1 DIV PUSH20 0xFFFFFFFFFFFFFFFFFFFFFFFFFFFFFFFFFFFFFFFF AND PUSH20 0xFFFFFFFFFFFFFFFFFFFFFFFFFFFFFFFFFFFFFFFF AND PUSH20 0xFFFFFFFFFFFFFFFFFFFFFFFFFFFFFFFFFFFFFFFF AND DUP2 MSTORE PUSH1 0x20 ADD PUSH1 0x1 DUP3 ADD DUP1 SLOAD PUSH2 0x1027 SWAP1 PUSH2 0x4A4E JUMP JUMPDEST DUP1 PUSH1 0x1F ADD PUSH1 0x20 DUP1 SWAP2 DIV MUL PUSH1 0x20 ADD PUSH1 0x40 MLOAD SWAP1 DUP2 ADD PUSH1 0x40 MSTORE DUP1 SWAP3 SWAP2 SWAP1 DUP2 DUP2 MSTORE PUSH1 0x20 ADD DUP3 DUP1 SLOAD PUSH2 0x1053 SWAP1 PUSH2 0x4A4E JUMP JUMPDEST DUP1 ISZERO PUSH2 0x10A0 JUMPI DUP1 PUSH1 0x1F LT PUSH2 0x1075 JUMPI PUSH2 0x100 DUP1 DUP4 SLOAD DIV MUL DUP4 MSTORE SWAP2 PUSH1 0x20 ADD SWAP2 PUSH2 0x10A0 JUMP JUMPDEST DUP3 ADD SWAP2 SWAP1 PUSH1 0x0 MSTORE PUSH1 0x20 PUSH1 0x0 KECCAK256 SWAP1 JUMPDEST DUP2 SLOAD DUP2 MSTORE SWAP1 PUSH1 0x1 ADD SWAP1 PUSH1 0x20 ADD DUP1 DUP4 GT PUSH2 0x1083 JUMPI DUP3 SWAP1 SUB PUSH1 0x1F AND DUP3 ADD SWAP2 JUMPDEST POP POP POP POP POP DUP2 MSTORE PUSH1 0x20 ADD PUSH1 0x2 DUP3 ADD SLOAD DUP2 MSTORE PUSH1 0x20 ADD PUSH1 0x3 DUP3 ADD DUP1 SLOAD PUSH2 0x10C3 SWAP1 PUSH2 0x4A4E JUMP JUMPDEST DUP1 PUSH1 0x1F ADD PUSH1 0x20 DUP1 SWAP2 DIV MUL PUSH1 0x20 ADD PUSH1 0x40 MLOAD SWAP1 DUP2 ADD PUSH1 0x40 MSTORE DUP1 SWAP3 SWAP2 SWAP1 DUP2 DUP2 MSTORE PUSH1 0x20 ADD DUP3 DUP1 SLOAD PUSH2 0x10EF SWAP1 PUSH2 0x4A4E JUMP JUMPDEST DUP1 ISZERO PUSH2 0x113C JUMPI DUP1 PUSH1 0x1F LT PUSH2 0x1111 JUMPI PUSH2 0x100 DUP1 DUP4 SLOAD DIV MUL DUP4 MSTORE SWAP2 PUSH1 0x20 ADD SWAP2 PUSH2 0x113C JUMP JUMPDEST DUP3 ADD SWAP2 SWAP1 PUSH1 0x0 MSTORE PUSH1 0x20 PUSH1 0x0 KECCAK256 SWAP1 JUMPDEST DUP2 SLOAD DUP2 MSTORE SWAP1 PUSH1 0x1 ADD SWAP1 PUSH1 0x20 ADD DUP1 DUP4 GT PUSH2 0x111F JUMPI DUP3 SWAP1 SUB PUSH1 0x1F AND DUP3 ADD SWAP2 JUMPDEST POP POP POP POP POP DUP2 MSTORE PUSH1 0x20 ADD PUSH1 0x4 DUP3 ADD DUP1 SLOAD PUSH2 0x1155 SWAP1 PUSH2 0x4A4E JUMP JUMPDEST DUP1 PUSH1 0x1F ADD PUSH1 0x20 DUP1 SWAP2 DIV MUL PUSH1 0x20 ADD PUSH1 0x40 MLOAD SWAP1 DUP2 ADD PUSH1 0x40 MSTORE DUP1 SWAP3 SWAP2 SWAP1 DUP2 DUP2 MSTORE PUSH1 0x20 ADD DUP3 DUP1 SLOAD PUSH2 0x1181 SWAP1 PUSH2 0x4A4E JUMP JUMPDEST DUP1 ISZERO PUSH2 0x11CE JUMPI DUP1 PUSH1 0x1F LT PUSH2 0x11A3 JUMPI PUSH2 0x100 DUP1 DUP4 SLOAD DIV MUL DUP4 MSTORE SWAP2 PUSH1 0x20 ADD SWAP2 PUSH2 0x11CE JUMP JUMPDEST DUP3 ADD SWAP2 SWAP1 PUSH1 0x0 MSTORE PUSH1 0x20 PUSH1 0x0 KECCAK256 SWAP1 JUMPDEST DUP2 SLOAD DUP2 MSTORE SWAP1 PUSH1 0x1 ADD SWAP1 PUSH1 0x20 ADD DUP1 DUP4 GT PUSH2 0x11B1 JUMPI DUP3 SWAP1 SUB PUSH1 0x1F AND DUP3 ADD SWAP2 JUMPDEST POP POP POP POP POP DUP2 MSTORE POP POP SWAP2 POP DUP1 DUP1 SLOAD DUP1 PUSH1 0x20 MUL PUSH1 0x20 ADD PUSH1 0x40 MLOAD SWAP1 DUP2 ADD PUSH1 0x40 MSTORE DUP1 SWAP3 SWAP2 SWAP1 DUP2 DUP2 MSTORE PUSH1 0x20 ADD PUSH1 0x0 SWAP1 JUMPDEST DUP3 DUP3 LT ISZERO PUSH2 0x172E JUMPI DUP4 DUP3 SWAP1 PUSH1 0x0 MSTORE PUSH1 0x20 PUSH1 0x0 KECCAK256 SWAP1 PUSH1 0xA MUL ADD PUSH1 0x40 MLOAD DUP1 PUSH2 0x140 ADD PUSH1 0x40 MSTORE SWAP1 DUP2 PUSH1 0x0 DUP3 ADD PUSH1 0x0 SWAP1 SLOAD SWAP1 PUSH2 0x100 EXP SWAP1 DIV PUSH20 0xFFFFFFFFFFFFFFFFFFFFFFFFFFFFFFFFFFFFFFFF AND PUSH20 0xFFFFFFFFFFFFFFFFFFFFFFFFFFFFFFFFFFFFFFFF AND PUSH20 0xFFFFFFFFFFFFFFFFFFFFFFFFFFFFFFFFFFFFFFFF AND DUP2 MSTORE PUSH1 0x20 ADD PUSH1 0x1 DUP3 ADD DUP1 SLOAD PUSH2 0x1284 SWAP1 PUSH2 0x4A4E JUMP JUMPDEST DUP1 PUSH1 0x1F ADD PUSH1 0x20 DUP1 SWAP2 DIV MUL PUSH1 0x20 ADD PUSH1 0x40 MLOAD SWAP1 DUP2 ADD PUSH1 0x40 MSTORE DUP1 SWAP3 SWAP2 SWAP1 DUP2 DUP2 MSTORE PUSH1 0x20 ADD DUP3 DUP1 SLOAD PUSH2 0x12B0 SWAP1 PUSH2 0x4A4E JUMP JUMPDEST DUP1 ISZERO PUSH2 0x12FD JUMPI DUP1 PUSH1 0x1F LT PUSH2 0x12D2 JUMPI PUSH2 0x100 DUP1 DUP4 SLOAD DIV MUL DUP4 MSTORE SWAP2 PUSH1 0x20 ADD SWAP2 PUSH2 0x12FD JUMP JUMPDEST DUP3 ADD SWAP2 SWAP1 PUSH1 0x0 MSTORE PUSH1 0x20 PUSH1 0x0 KECCAK256 SWAP1 JUMPDEST DUP2 SLOAD DUP2 MSTORE SWAP1 PUSH1 0x1 ADD SWAP1 PUSH1 0x20 ADD DUP1 DUP4 GT PUSH2 0x12E0 JUMPI DUP3 SWAP1 SUB PUSH1 0x1F AND DUP3 ADD SWAP2 JUMPDEST POP POP POP POP POP DUP2 MSTORE PUSH1 0x20 ADD PUSH1 0x2 DUP3 ADD DUP1 SLOAD PUSH2 0x1316 SWAP1 PUSH2 0x4A4E JUMP JUMPDEST DUP1 PUSH1 0x1F ADD PUSH1 0x20 DUP1 SWAP2 DIV MUL PUSH1 0x20 ADD PUSH1 0x40 MLOAD SWAP1 DUP2 ADD PUSH1 0x40 MSTORE DUP1 SWAP3 SWAP2 SWAP1 DUP2 DUP2 MSTORE PUSH1 0x20 ADD DUP3 DUP1 SLOAD PUSH2 0x1342 SWAP1 PUSH2 0x4A4E JUMP JUMPDEST DUP1 ISZERO PUSH2 0x138F JUMPI DUP1 PUSH1 0x1F LT PUSH2 0x1364 JUMPI PUSH2 0x100 DUP1 DUP4 SLOAD DIV MUL DUP4 MSTORE SWAP2 PUSH1 0x20 ADD SWAP2 PUSH2 0x138F JUMP JUMPDEST DUP3 ADD SWAP2 SWAP1 PUSH1 0x0 MSTORE PUSH1 0x20 PUSH1 0x0 KECCAK256 SWAP1 JUMPDEST DUP2 SLOAD DUP2 MSTORE SWAP1 PUSH1 0x1 ADD SWAP1 PUSH1 0x20 ADD DUP1 DUP4 GT PUSH2 0x1372 JUMPI DUP3 SWAP1 SUB PUSH1 0x1F AND DUP3 ADD SWAP2 JUMPDEST POP POP POP POP POP DUP2 MSTORE PUSH1 0x20 ADD PUSH1 0x3 DUP3 ADD DUP1 SLOAD PUSH2 0x13A8 SWAP1 PUSH2 0x4A4E JUMP JUMPDEST DUP1 PUSH1 0x1F ADD PUSH1 0x20 DUP1 SWAP2 DIV MUL PUSH1 0x20 ADD PUSH1 0x40 MLOAD SWAP1 DUP2 ADD PUSH1 0x40 MSTORE DUP1 SWAP3 SWAP2 SWAP1 DUP2 DUP2 MSTORE PUSH1 0x20 ADD DUP3 DUP1 SLOAD PUSH2 0x13D4 SWAP1 PUSH2 0x4A4E JUMP JUMPDEST DUP1 ISZERO PUSH2 0x1421 JUMPI DUP1 PUSH1 0x1F LT PUSH2 0x13F6 JUMPI PUSH2 0x100 DUP1 DUP4 SLOAD DIV MUL DUP4 MSTORE SWAP2 PUSH1 0x20 ADD SWAP2 PUSH2 0x1421 JUMP JUMPDEST DUP3 ADD SWAP2 SWAP1 PUSH1 0x0 MSTORE PUSH1 0x20 PUSH1 0x0 KECCAK256 SWAP1 JUMPDEST DUP2 SLOAD DUP2 MSTORE SWAP1 PUSH1 0x1 ADD SWAP1 PUSH1 0x20 ADD DUP1 DUP4 GT PUSH2 0x1404 JUMPI DUP3 SWAP1 SUB PUSH1 0x1F AND DUP3 ADD SWAP2 JUMPDEST POP POP POP POP POP DUP2 MSTORE PUSH1 0x20 ADD PUSH1 0x4 DUP3 ADD DUP1 SLOAD PUSH2 0x143A SWAP1 PUSH2 0x4A4E JUMP JUMPDEST DUP1 PUSH1 0x1F ADD PUSH1 0x20 DUP1 SWAP2 DIV MUL PUSH1 0x20 ADD PUSH1 0x40 MLOAD SWAP1 DUP2 ADD PUSH1 0x40 MSTORE DUP1 SWAP3 SWAP2 SWAP1 DUP2 DUP2 MSTORE PUSH1 0x20 ADD DUP3 DUP1 SLOAD PUSH2 0x1466 SWAP1 PUSH2 0x4A4E JUMP JUMPDEST DUP1 ISZERO PUSH2 0x14B3 JUMPI DUP1 PUSH1 0x1F LT PUSH2 0x1488 JUMPI PUSH2 0x100 DUP1 DUP4 SLOAD DIV MUL DUP4 MSTORE SWAP2 PUSH1 0x20 ADD SWAP2 PUSH2 0x14B3 JUMP JUMPDEST DUP3 ADD SWAP2 SWAP1 PUSH1 0x0 MSTORE PUSH1 0x20 PUSH1 0x0 KECCAK256 SWAP1 JUMPDEST DUP2 SLOAD DUP2 MSTORE SWAP1 PUSH1 0x1 ADD SWAP1 PUSH1 0x20 ADD DUP1 DUP4 GT PUSH2 0x1496 JUMPI DUP3 SWAP1 SUB PUSH1 0x1F AND DUP3 ADD SWAP2 JUMPDEST POP POP POP POP POP DUP2 MSTORE PUSH1 0x20 ADD PUSH1 0x5 DUP3 ADD DUP1 SLOAD PUSH2 0x14CC SWAP1 PUSH2 0x4A4E JUMP JUMPDEST DUP1 PUSH1 0x1F ADD PUSH1 0x20 DUP1 SWAP2 DIV MUL PUSH1 0x20 ADD PUSH1 0x40 MLOAD SWAP1 DUP2 ADD PUSH1 0x40 MSTORE DUP1 SWAP3 SWAP2 SWAP1 DUP2 DUP2 MSTORE PUSH1 0x20 ADD DUP3 DUP1 SLOAD PUSH2 0x14F8 SWAP1 PUSH2 0x4A4E JUMP JUMPDEST DUP1 ISZERO PUSH2 0x1545 JUMPI DUP1 PUSH1 0x1F LT PUSH2 0x151A JUMPI PUSH2 0x100 DUP1 DUP4 SLOAD DIV MUL DUP4 MSTORE SWAP2 PUSH1 0x20 ADD SWAP2 PUSH2 0x1545 JUMP JUMPDEST DUP3 ADD SWAP2 SWAP1 PUSH1 0x0 MSTORE PUSH1 0x20 PUSH1 0x0 KECCAK256 SWAP1 JUMPDEST DUP2 SLOAD DUP2 MSTORE SWAP1 PUSH1 0x1 ADD SWAP1 PUSH1 0x20 ADD DUP1 DUP4 GT PUSH2 0x1528 JUMPI DUP3 SWAP1 SUB PUSH1 0x1F AND DUP3 ADD SWAP2 JUMPDEST POP POP POP POP POP DUP2 MSTORE PUSH1 0x20 ADD PUSH1 0x6 DUP3 ADD DUP1 SLOAD PUSH2 0x155E SWAP1 PUSH2 0x4A4E JUMP JUMPDEST DUP1 PUSH1 0x1F ADD PUSH1 0x20 DUP1 SWAP2 DIV MUL PUSH1 0x20 ADD PUSH1 0x40 MLOAD SWAP1 DUP2 ADD PUSH1 0x40 MSTORE DUP1 SWAP3 SWAP2 SWAP1 DUP2 DUP2 MSTORE PUSH1 0x20 ADD DUP3 DUP1 SLOAD PUSH2 0x158A SWAP1 PUSH2 0x4A4E JUMP JUMPDEST DUP1 ISZERO PUSH2 0x15D7 JUMPI DUP1 PUSH1 0x1F LT PUSH2 0x15AC JUMPI PUSH2 0x100 DUP1 DUP4 SLOAD DIV MUL DUP4 MSTORE SWAP2 PUSH1 0x20 ADD SWAP2 PUSH2 0x15D7 JUMP JUMPDEST DUP3 ADD SWAP2 SWAP1 PUSH1 0x0 MSTORE PUSH1 0x20 PUSH1 0x0 KECCAK256 SWAP1 JUMPDEST DUP2 SLOAD DUP2 MSTORE SWAP1 PUSH1 0x1 ADD SWAP1 PUSH1 0x20 ADD DUP1 DUP4 GT PUSH2 0x15BA JUMPI DUP3 SWAP1 SUB PUSH1 0x1F AND DUP3 ADD SWAP2 JUMPDEST POP POP POP POP POP DUP2 MSTORE PUSH1 0x20 ADD PUSH1 0x7 DUP3 ADD DUP1 SLOAD PUSH2 0x15F0 SWAP1 PUSH2 0x4A4E JUMP JUMPDEST DUP1 PUSH1 0x1F ADD PUSH1 0x20 DUP1 SWAP2 DIV MUL PUSH1 0x20 ADD PUSH1 0x40 MLOAD SWAP1 DUP2 ADD PUSH1 0x40 MSTORE DUP1 SWAP3 SWAP2 SWAP1 DUP2 DUP2 MSTORE PUSH1 0x20 ADD DUP3 DUP1 SLOAD PUSH2 0x161C SWAP1 PUSH2 0x4A4E JUMP JUMPDEST DUP1 ISZERO PUSH2 0x1669 JUMPI DUP1 PUSH1 0x1F LT PUSH2 0x163E JUMPI PUSH2 0x100 DUP1 DUP4 SLOAD DIV MUL DUP4 MSTORE SWAP2 PUSH1 0x20 ADD SWAP2 PUSH2 0x1669 JUMP JUMPDEST DUP3 ADD SWAP2 SWAP1 PUSH1 0x0 MSTORE PUSH1 0x20 PUSH1 0x0 KECCAK256 SWAP1 JUMPDEST DUP2 SLOAD DUP2 MSTORE SWAP1 PUSH1 0x1 ADD SWAP1 PUSH1 0x20 ADD DUP1 DUP4 GT PUSH2 0x164C JUMPI DUP3 SWAP1 SUB PUSH1 0x1F AND DUP3 ADD SWAP2 JUMPDEST POP POP POP POP POP DUP2 MSTORE PUSH1 0x20 ADD PUSH1 0x8 DUP3 ADD DUP1 SLOAD PUSH2 0x1682 SWAP1 PUSH2 0x4A4E JUMP JUMPDEST DUP1 PUSH1 0x1F ADD PUSH1 0x20 DUP1 SWAP2 DIV MUL PUSH1 0x20 ADD PUSH1 0x40 MLOAD SWAP1 DUP2 ADD PUSH1 0x40 MSTORE DUP1 SWAP3 SWAP2 SWAP1 DUP2 DUP2 MSTORE PUSH1 0x20 ADD DUP3 DUP1 SLOAD PUSH2 0x16AE SWAP1 PUSH2 0x4A4E JUMP JUMPDEST DUP1 ISZERO PUSH2 0x16FB JUMPI DUP1 PUSH1 0x1F LT PUSH2 0x16D0 JUMPI PUSH2 0x100 DUP1 DUP4 SLOAD DIV MUL DUP4 MSTORE SWAP2 PUSH1 0x20 ADD SWAP2 PUSH2 0x16FB JUMP JUMPDEST DUP3 ADD SWAP2 SWAP1 PUSH1 0x0 MSTORE PUSH1 0x20 PUSH1 0x0 KECCAK256 SWAP1 JUMPDEST DUP2 SLOAD DUP2 MSTORE SWAP1 PUSH1 0x1 ADD SWAP1 PUSH1 0x20 ADD DUP1 DUP4 GT PUSH2 0x16DE JUMPI DUP3 SWAP1 SUB PUSH1 0x1F AND DUP3 ADD SWAP2 JUMPDEST POP POP POP POP POP DUP2 MSTORE PUSH1 0x20 ADD PUSH1 0x9 DUP3 ADD PUSH1 0x0 SWAP1 SLOAD SWAP1 PUSH2 0x100 EXP SWAP1 DIV PUSH1 0xFF AND ISZERO ISZERO ISZERO ISZERO DUP2 MSTORE POP POP DUP2 MSTORE PUSH1 0x20 ADD SWAP1 PUSH1 0x1 ADD SWAP1 PUSH2 0x11FA JUMP JUMPDEST POP POP POP POP SWAP1 POP SWAP2 POP SWAP2 POP SWAP2 POP SWAP2 JUMP JUMPDEST PUSH1 0x6 PUSH1 0x0 SWAP1 SLOAD SWAP1 PUSH2 0x100 EXP SWAP1 DIV PUSH20 0xFFFFFFFFFFFFFFFFFFFFFFFFFFFFFFFFFFFFFFFF AND PUSH20 0xFFFFFFFFFFFFFFFFFFFFFFFFFFFFFFFFFFFFFFFF AND PUSH4 0x63A9C3D7 CALLER PUSH1 0x40 MLOAD DUP3 PUSH4 0xFFFFFFFF AND PUSH1 0xE0 SHL DUP2 MSTORE PUSH1 0x4 ADD PUSH2 0x1798 SWAP2 SWAP1 PUSH2 0x49C2 JUMP JUMPDEST PUSH1 0x20 PUSH1 0x40 MLOAD DUP1 DUP4 SUB DUP2 DUP7 GAS STATICCALL ISZERO DUP1 ISZERO PUSH2 0x17B5 JUMPI RETURNDATASIZE PUSH1 0x0 DUP1 RETURNDATACOPY RETURNDATASIZE PUSH1 0x0 REVERT JUMPDEST POP POP POP POP PUSH1 0x40 MLOAD RETURNDATASIZE PUSH1 0x1F NOT PUSH1 0x1F DUP3 ADD AND DUP3 ADD DUP1 PUSH1 0x40 MSTORE POP DUP2 ADD SWAP1 PUSH2 0x17D9 SWAP2 SWAP1 PUSH2 0x49F2 JUMP JUMPDEST PUSH2 0x17E2 JUMPI PUSH1 0x0 DUP1 REVERT JUMPDEST PUSH2 0x17EA PUSH2 0x3407 JUMP JUMPDEST DUP3 PUSH1 0x0 ADD MLOAD DUP2 PUSH1 0x0 ADD SWAP1 PUSH20 0xFFFFFFFFFFFFFFFFFFFFFFFFFFFFFFFFFFFFFFFF AND SWAP1 DUP2 PUSH20 0xFFFFFFFFFFFFFFFFFFFFFFFFFFFFFFFFFFFFFFFF AND DUP2 MSTORE POP POP DUP3 PUSH1 0x20 ADD MLOAD DUP2 PUSH1 0x20 ADD DUP2 SWAP1 MSTORE POP DUP3 PUSH1 0x40 ADD MLOAD DUP2 PUSH1 0x40 ADD DUP2 SWAP1 MSTORE POP DUP3 PUSH1 0x60 ADD MLOAD DUP2 PUSH1 0x60 ADD DUP2 DUP2 MSTORE POP POP DUP3 PUSH1 0x80 ADD MLOAD DUP2 PUSH1 0x80 ADD DUP2 SWAP1 MSTORE POP DUP1 PUSH1 0x1 PUSH1 0x0 DUP5 PUSH1 0x0 ADD MLOAD PUSH20 0xFFFFFFFFFFFFFFFFFFFFFFFFFFFFFFFFFFFFFFFF AND PUSH20 0xFFFFFFFFFFFFFFFFFFFFFFFFFFFFFFFFFFFFFFFF AND DUP2 MSTORE PUSH1 0x20 ADD SWAP1 DUP2 MSTORE PUSH1 0x20 ADD PUSH1 0x0 KECCAK256 PUSH1 0x0 DUP3 ADD MLOAD DUP2 PUSH1 0x0 ADD PUSH1 0x0 PUSH2 0x100 EXP DUP2 SLOAD DUP2 PUSH20 0xFFFFFFFFFFFFFFFFFFFFFFFFFFFFFFFFFFFFFFFF MUL NOT AND SWAP1 DUP4 PUSH20 0xFFFFFFFFFFFFFFFFFFFFFFFFFFFFFFFFFFFFFFFF AND MUL OR SWAP1 SSTORE POP PUSH1 0x20 DUP3 ADD MLOAD DUP2 PUSH1 0x1 ADD SWAP1 DUP2 PUSH2 0x18FB SWAP2 SWAP1 PUSH2 0x4C2B JUMP JUMPDEST POP PUSH1 0x40 DUP3 ADD MLOAD DUP2 PUSH1 0x2 ADD SWAP1 DUP2 PUSH2 0x1911 SWAP2 SWAP1 PUSH2 0x4C2B JUMP JUMPDEST POP PUSH1 0x60 DUP3 ADD MLOAD DUP2 PUSH1 0x3 ADD SSTORE PUSH1 0x80 DUP3 ADD MLOAD DUP2 PUSH1 0x4 ADD SWAP1 DUP2 PUSH2 0x1931 SWAP2 SWAP1 PUSH2 0x4C2B JUMP JUMPDEST POP SWAP1 POP POP PUSH2 0x193D PUSH2 0x344C JUMP JUMPDEST DUP3 PUSH1 0x0 ADD MLOAD DUP2 PUSH1 0x0 ADD SWAP1 PUSH20 0xFFFFFFFFFFFFFFFFFFFFFFFFFFFFFFFFFFFFFFFF AND SWAP1 DUP2 PUSH20 0xFFFFFFFFFFFFFFFFFFFFFFFFFFFFFFFFFFFFFFFF AND DUP2 MSTORE POP POP DUP3 PUSH1 0x40 ADD MLOAD DUP2 PUSH1 0x40 ADD DUP2 SWAP1 MSTORE POP DUP3 PUSH1 0x60 ADD MLOAD DUP2 PUSH1 0x60 ADD DUP2 SWAP1 MSTORE POP DUP3 PUSH1 0x20 ADD MLOAD DUP2 PUSH1 0x20 ADD DUP2 SWAP1 MSTORE POP DUP3 PUSH1 0x80 ADD MLOAD DUP2 PUSH1 0x80 ADD DUP2 SWAP1 MSTORE POP DUP3 PUSH1 0xA0 ADD MLOAD DUP2 PUSH1 0xA0 ADD DUP2 SWAP1 MSTORE POP DUP3 PUSH1 0xC0 ADD MLOAD DUP2 PUSH1 0xC0 ADD DUP2 SWAP1 MSTORE POP DUP3 PUSH1 0xE0 ADD MLOAD DUP2 PUSH1 0xE0 ADD DUP2 SWAP1 MSTORE POP DUP3 PUSH2 0x100 ADD MLOAD DUP2 PUSH2 0x100 ADD DUP2 SWAP1 MSTORE POP DUP3 PUSH2 0x120 ADD MLOAD DUP2 PUSH2 0x120 ADD DUP2 SWAP1 MSTORE POP DUP3 PUSH2 0x140 ADD MLOAD DUP2 PUSH2 0x140 ADD DUP2 SWAP1 MSTORE POP DUP3 PUSH2 0x160 ADD MLOAD DUP2 PUSH2 0x160 ADD DUP2 SWAP1 MSTORE POP DUP3 PUSH2 0x180 ADD MLOAD DUP2 PUSH2 0x180 ADD DUP2 SWAP1 MSTORE POP PUSH1 0x4 PUSH1 0x0 DUP5 PUSH1 0x0 ADD MLOAD PUSH20 0xFFFFFFFFFFFFFFFFFFFFFFFFFFFFFFFFFFFFFFFF AND PUSH20 0xFFFFFFFFFFFFFFFFFFFFFFFFFFFFFFFFFFFFFFFF AND DUP2 MSTORE PUSH1 0x20 ADD SWAP1 DUP2 MSTORE PUSH1 0x20 ADD PUSH1 0x0 KECCAK256 DUP2 SWAP1 DUP1 PUSH1 0x1 DUP2 SLOAD ADD DUP1 DUP3 SSTORE DUP1 SWAP2 POP POP PUSH1 0x1 SWAP1 SUB SWAP1 PUSH1 0x0 MSTORE PUSH1 0x20 PUSH1 0x0 KECCAK256 SWAP1 PUSH1 0xD MUL ADD PUSH1 0x0 SWAP1 SWAP2 SWAP1 SWAP2 SWAP1 SWAP2 POP PUSH1 0x0 DUP3 ADD MLOAD DUP2 PUSH1 0x0 ADD PUSH1 0x0 PUSH2 0x100 EXP DUP2 SLOAD DUP2 PUSH20 0xFFFFFFFFFFFFFFFFFFFFFFFFFFFFFFFFFFFFFFFF MUL NOT AND SWAP1 DUP4 PUSH20 0xFFFFFFFFFFFFFFFFFFFFFFFFFFFFFFFFFFFFFFFF AND MUL OR SWAP1 SSTORE POP PUSH1 0x20 DUP3 ADD MLOAD DUP2 PUSH1 0x1 ADD SWAP1 DUP2 PUSH2 0x1AE8 SWAP2 SWAP1 PUSH2 0x4C2B JUMP JUMPDEST POP PUSH1 0x40 DUP3 ADD MLOAD DUP2 PUSH1 0x2 ADD SWAP1 DUP2 PUSH2 0x1AFE SWAP2 SWAP1 PUSH2 0x4C2B JUMP JUMPDEST POP PUSH1 0x60 DUP3 ADD MLOAD DUP2 PUSH1 0x3 ADD SWAP1 DUP2 PUSH2 0x1B14 SWAP2 SWAP1 PUSH2 0x4C2B JUMP JUMPDEST POP PUSH1 0x80 DUP3 ADD MLOAD DUP2 PUSH1 0x4 ADD SWAP1 DUP2 PUSH2 0x1B2A SWAP2 SWAP1 PUSH2 0x4C2B JUMP JUMPDEST POP PUSH1 0xA0 DUP3 ADD MLOAD DUP2 PUSH1 0x5 ADD SWAP1 DUP2 PUSH2 0x1B40 SWAP2 SWAP1 PUSH2 0x4C2B JUMP JUMPDEST POP PUSH1 0xC0 DUP3 ADD MLOAD DUP2 PUSH1 0x6 ADD SWAP1 DUP2 PUSH2 0x1B56 SWAP2 SWAP1 PUSH2 0x4C2B JUMP JUMPDEST POP PUSH1 0xE0 DUP3 ADD MLOAD DUP2 PUSH1 0x7 ADD SWAP1 DUP2 PUSH2 0x1B6C SWAP2 SWAP1 PUSH2 0x4C2B JUMP JUMPDEST POP PUSH2 0x100 DUP3 ADD MLOAD DUP2 PUSH1 0x8 ADD SWAP1 DUP2 PUSH2 0x1B83 SWAP2 SWAP1 PUSH2 0x4C2B JUMP JUMPDEST POP PUSH2 0x120 DUP3 ADD MLOAD DUP2 PUSH1 0x9 ADD SWAP1 DUP2 PUSH2 0x1B9A SWAP2 SWAP1 PUSH2 0x4C2B JUMP JUMPDEST POP PUSH2 0x140 DUP3 ADD MLOAD DUP2 PUSH1 0xA ADD SWAP1 DUP2 PUSH2 0x1BB1 SWAP2 SWAP1 PUSH2 0x4C2B JUMP JUMPDEST POP PUSH2 0x160 DUP3 ADD MLOAD DUP2 PUSH1 0xB ADD SWAP1 DUP2 PUSH2 0x1BC8 SWAP2 SWAP1 PUSH2 0x4C2B JUMP JUMPDEST POP PUSH2 0x180 DUP3 ADD MLOAD DUP2 PUSH1 0xC ADD SWAP1 DUP2 PUSH2 0x1BDF SWAP2 SWAP1 PUSH2 0x4C2B JUMP JUMPDEST POP POP POP PUSH1 0x7 PUSH1 0x0 SWAP1 SLOAD SWAP1 PUSH2 0x100 EXP SWAP1 DIV PUSH20 0xFFFFFFFFFFFFFFFFFFFFFFFFFFFFFFFFFFFFFFFF AND PUSH20 0xFFFFFFFFFFFFFFFFFFFFFFFFFFFFFFFFFFFFFFFF AND PUSH4 0x6D263CEB DUP5 PUSH1 0x0 ADD MLOAD PUSH1 0x40 MLOAD DUP3 PUSH4 0xFFFFFFFF AND PUSH1 0xE0 SHL DUP2 MSTORE PUSH1 0x4 ADD PUSH2 0x1C41 SWAP2 SWAP1 PUSH2 0x49C2 JUMP JUMPDEST PUSH1 0x0 PUSH1 0x40 MLOAD DUP1 DUP4 SUB DUP2 PUSH1 0x0 DUP8 DUP1 EXTCODESIZE ISZERO DUP1 ISZERO PUSH2 0x1C5B JUMPI PUSH1 0x0 DUP1 REVERT JUMPDEST POP GAS CALL ISZERO DUP1 ISZERO PUSH2 0x1C6F JUMPI RETURNDATASIZE PUSH1 0x0 DUP1 RETURNDATACOPY RETURNDATASIZE PUSH1 0x0 REVERT JUMPDEST POP POP POP POP PUSH1 0x8 PUSH1 0x0 SWAP1 SLOAD SWAP1 PUSH2 0x100 EXP SWAP1 DIV PUSH20 0xFFFFFFFFFFFFFFFFFFFFFFFFFFFFFFFFFFFFFFFF AND PUSH20 0xFFFFFFFFFFFFFFFFFFFFFFFFFFFFFFFFFFFFFFFF AND PUSH4 0x43A0E44A CALLER DUP6 PUSH1 0x40 ADD MLOAD DUP7 PUSH1 0x20 ADD MLOAD DUP8 PUSH1 0x0 ADD MLOAD PUSH1 0x40 MLOAD DUP6 PUSH4 0xFFFFFFFF AND PUSH1 0xE0 SHL DUP2 MSTORE PUSH1 0x4 ADD PUSH2 0x1CE0 SWAP5 SWAP4 SWAP3 SWAP2 SWAP1 PUSH2 0x4D47 JUMP JUMPDEST PUSH1 0x0 PUSH1 0x40 MLOAD DUP1 DUP4 SUB DUP2 PUSH1 0x0 DUP8 DUP1 EXTCODESIZE ISZERO DUP1 ISZERO PUSH2 0x1CFA JUMPI PUSH1 0x0 DUP1 REVERT JUMPDEST POP GAS CALL ISZERO DUP1 ISZERO PUSH2 0x1D0E JUMPI RETURNDATASIZE PUSH1 0x0 DUP1 RETURNDATACOPY RETURNDATASIZE PUSH1 0x0 REVERT JUMPDEST POP POP POP POP POP POP POP POP JUMP JUMPDEST PUSH2 0x1D20 PUSH2 0x3407 JUMP JUMPDEST PUSH1 0x60 PUSH1 0x6 PUSH1 0x0 SWAP1 SLOAD SWAP1 PUSH2 0x100 EXP SWAP1 DIV PUSH20 0xFFFFFFFFFFFFFFFFFFFFFFFFFFFFFFFFFFFFFFFF AND PUSH20 0xFFFFFFFFFFFFFFFFFFFFFFFFFFFFFFFFFFFFFFFF AND PUSH4 0x63A9C3D7 CALLER PUSH1 0x40 MLOAD DUP3 PUSH4 0xFFFFFFFF AND PUSH1 0xE0 SHL DUP2 MSTORE PUSH1 0x4 ADD PUSH2 0x1D7D SWAP2 SWAP1 PUSH2 0x49C2 JUMP JUMPDEST PUSH1 0x20 PUSH1 0x40 MLOAD DUP1 DUP4 SUB DUP2 DUP7 GAS STATICCALL ISZERO DUP1 ISZERO PUSH2 0x1D9A JUMPI RETURNDATASIZE PUSH1 0x0 DUP1 RETURNDATACOPY RETURNDATASIZE PUSH1 0x0 REVERT JUMPDEST POP POP POP POP PUSH1 0x40 MLOAD RETURNDATASIZE PUSH1 0x1F NOT PUSH1 0x1F DUP3 ADD AND DUP3 ADD DUP1 PUSH1 0x40 MSTORE POP DUP2 ADD SWAP1 PUSH2 0x1DBE SWAP2 SWAP1 PUSH2 0x49F2 JUMP JUMPDEST PUSH2 0x1DC7 JUMPI PUSH1 0x0 DUP1 REVERT JUMPDEST PUSH1 0x1 PUSH1 0x0 DUP5 PUSH20 0xFFFFFFFFFFFFFFFFFFFFFFFFFFFFFFFFFFFFFFFF AND PUSH20 0xFFFFFFFFFFFFFFFFFFFFFFFFFFFFFFFFFFFFFFFF AND DUP2 MSTORE PUSH1 0x20 ADD SWAP1 DUP2 MSTORE PUSH1 0x20 ADD PUSH1 0x0 KECCAK256 PUSH1 0x4 PUSH1 0x0 DUP6 PUSH20 0xFFFFFFFFFFFFFFFFFFFFFFFFFFFFFFFFFFFFFFFF AND PUSH20 0xFFFFFFFFFFFFFFFFFFFFFFFFFFFFFFFFFFFFFFFF AND DUP2 MSTORE PUSH1 0x20 ADD SWAP1 DUP2 MSTORE PUSH1 0x20 ADD PUSH1 0x0 KECCAK256 DUP2 PUSH1 0x40 MLOAD DUP1 PUSH1 0xA0 ADD PUSH1 0x40 MSTORE SWAP1 DUP2 PUSH1 0x0 DUP3 ADD PUSH1 0x0 SWAP1 SLOAD SWAP1 PUSH2 0x100 EXP SWAP1 DIV PUSH20 0xFFFFFFFFFFFFFFFFFFFFFFFFFFFFFFFFFFFFFFFF AND PUSH20 0xFFFFFFFFFFFFFFFFFFFFFFFFFFFFFFFFFFFFFFFF AND PUSH20 0xFFFFFFFFFFFFFFFFFFFFFFFFFFFFFFFFFFFFFFFF AND DUP2 MSTORE PUSH1 0x20 ADD PUSH1 0x1 DUP3 ADD DUP1 SLOAD PUSH2 0x1EB7 SWAP1 PUSH2 0x4A4E JUMP JUMPDEST DUP1 PUSH1 0x1F ADD PUSH1 0x20 DUP1 SWAP2 DIV MUL PUSH1 0x20 ADD PUSH1 0x40 MLOAD SWAP1 DUP2 ADD PUSH1 0x40 MSTORE DUP1 SWAP3 SWAP2 SWAP1 DUP2 DUP2 MSTORE PUSH1 0x20 ADD DUP3 DUP1 SLOAD PUSH2 0x1EE3 SWAP1 PUSH2 0x4A4E JUMP JUMPDEST DUP1 ISZERO PUSH2 0x1F30 JUMPI DUP1 PUSH1 0x1F LT PUSH2 0x1F05 JUMPI PUSH2 0x100 DUP1 DUP4 SLOAD DIV MUL DUP4 MSTORE SWAP2 PUSH1 0x20 ADD SWAP2 PUSH2 0x1F30 JUMP JUMPDEST DUP3 ADD SWAP2 SWAP1 PUSH1 0x0 MSTORE PUSH1 0x20 PUSH1 0x0 KECCAK256 SWAP1 JUMPDEST DUP2 SLOAD DUP2 MSTORE SWAP1 PUSH1 0x1 ADD SWAP1 PUSH1 0x20 ADD DUP1 DUP4 GT PUSH2 0x1F13 JUMPI DUP3 SWAP1 SUB PUSH1 0x1F AND DUP3 ADD SWAP2 JUMPDEST POP POP POP POP POP DUP2 MSTORE PUSH1 0x20 ADD PUSH1 0x2 DUP3 ADD DUP1 SLOAD PUSH2 0x1F49 SWAP1 PUSH2 0x4A4E JUMP JUMPDEST DUP1 PUSH1 0x1F ADD PUSH1 0x20 DUP1 SWAP2 DIV MUL PUSH1 0x20 ADD PUSH1 0x40 MLOAD SWAP1 DUP2 ADD PUSH1 0x40 MSTORE DUP1 SWAP3 SWAP2 SWAP1 DUP2 DUP2 MSTORE PUSH1 0x20 ADD DUP3 DUP1 SLOAD PUSH2 0x1F75 SWAP1 PUSH2 0x4A4E JUMP JUMPDEST DUP1 ISZERO PUSH2 0x1FC2 JUMPI DUP1 PUSH1 0x1F LT PUSH2 0x1F97 JUMPI PUSH2 0x100 DUP1 DUP4 SLOAD DIV MUL DUP4 MSTORE SWAP2 PUSH1 0x20 ADD SWAP2 PUSH2 0x1FC2 JUMP JUMPDEST DUP3 ADD SWAP2 SWAP1 PUSH1 0x0 MSTORE PUSH1 0x20 PUSH1 0x0 KECCAK256 SWAP1 JUMPDEST DUP2 SLOAD DUP2 MSTORE SWAP1 PUSH1 0x1 ADD SWAP1 PUSH1 0x20 ADD DUP1 DUP4 GT PUSH2 0x1FA5 JUMPI DUP3 SWAP1 SUB PUSH1 0x1F AND DUP3 ADD SWAP2 JUMPDEST POP POP POP POP POP DUP2 MSTORE PUSH1 0x20 ADD PUSH1 0x3 DUP3 ADD SLOAD DUP2 MSTORE PUSH1 0x20 ADD PUSH1 0x4 DUP3 ADD DUP1 SLOAD PUSH2 0x1FE5 SWAP1 PUSH2 0x4A4E JUMP JUMPDEST DUP1 PUSH1 0x1F ADD PUSH1 0x20 DUP1 SWAP2 DIV MUL PUSH1 0x20 ADD PUSH1 0x40 MLOAD SWAP1 DUP2 ADD PUSH1 0x40 MSTORE DUP1 SWAP3 SWAP2 SWAP1 DUP2 DUP2 MSTORE PUSH1 0x20 ADD DUP3 DUP1 SLOAD PUSH2 0x2011 SWAP1 PUSH2 0x4A4E JUMP JUMPDEST DUP1 ISZERO PUSH2 0x205E JUMPI DUP1 PUSH1 0x1F LT PUSH2 0x2033 JUMPI PUSH2 0x100 DUP1 DUP4 SLOAD DIV MUL DUP4 MSTORE SWAP2 PUSH1 0x20 ADD SWAP2 PUSH2 0x205E JUMP JUMPDEST DUP3 ADD SWAP2 SWAP1 PUSH1 0x0 MSTORE PUSH1 0x20 PUSH1 0x0 KECCAK256 SWAP1 JUMPDEST DUP2 SLOAD DUP2 MSTORE SWAP1 PUSH1 0x1 ADD SWAP1 PUSH1 0x20 ADD DUP1 DUP4 GT PUSH2 0x2041 JUMPI DUP3 SWAP1 SUB PUSH1 0x1F AND DUP3 ADD SWAP2 JUMPDEST POP POP POP POP POP DUP2 MSTORE POP POP SWAP2 POP DUP1 DUP1 SLOAD DUP1 PUSH1 0x20 MUL PUSH1 0x20 ADD PUSH1 0x40 MLOAD SWAP1 DUP2 ADD PUSH1 0x40 MSTORE DUP1 SWAP3 SWAP2 SWAP1 DUP2 DUP2 MSTORE PUSH1 0x20 ADD PUSH1 0x0 SWAP1 JUMPDEST DUP3 DUP3 LT ISZERO PUSH2 0x27EB JUMPI DUP4 DUP3 SWAP1 PUSH1 0x0 MSTORE PUSH1 0x20 PUSH1 0x0 KECCAK256 SWAP1 PUSH1 0xD MUL ADD PUSH1 0x40 MLOAD DUP1 PUSH2 0x1A0 ADD PUSH1 0x40 MSTORE SWAP1 DUP2 PUSH1 0x0 DUP3 ADD PUSH1 0x0 SWAP1 SLOAD SWAP1 PUSH2 0x100 EXP SWAP1 DIV PUSH20 0xFFFFFFFFFFFFFFFFFFFFFFFFFFFFFFFFFFFFFFFF AND PUSH20 0xFFFFFFFFFFFFFFFFFFFFFFFFFFFFFFFFFFFFFFFF AND PUSH20 0xFFFFFFFFFFFFFFFFFFFFFFFFFFFFFFFFFFFFFFFF AND DUP2 MSTORE PUSH1 0x20 ADD PUSH1 0x1 DUP3 ADD DUP1 SLOAD PUSH2 0x2114 SWAP1 PUSH2 0x4A4E JUMP JUMPDEST DUP1 PUSH1 0x1F ADD PUSH1 0x20 DUP1 SWAP2 DIV MUL PUSH1 0x20 ADD PUSH1 0x40 MLOAD SWAP1 DUP2 ADD PUSH1 0x40 MSTORE DUP1 SWAP3 SWAP2 SWAP1 DUP2 DUP2 MSTORE PUSH1 0x20 ADD DUP3 DUP1 SLOAD PUSH2 0x2140 SWAP1 PUSH2 0x4A4E JUMP JUMPDEST DUP1 ISZERO PUSH2 0x218D JUMPI DUP1 PUSH1 0x1F LT PUSH2 0x2162 JUMPI PUSH2 0x100 DUP1 DUP4 SLOAD DIV MUL DUP4 MSTORE SWAP2 PUSH1 0x20 ADD SWAP2 PUSH2 0x218D JUMP JUMPDEST DUP3 ADD SWAP2 SWAP1 PUSH1 0x0 MSTORE PUSH1 0x20 PUSH1 0x0 KECCAK256 SWAP1 JUMPDEST DUP2 SLOAD DUP2 MSTORE SWAP1 PUSH1 0x1 ADD SWAP1 PUSH1 0x20 ADD DUP1 DUP4 GT PUSH2 0x2170 JUMPI DUP3 SWAP1 SUB PUSH1 0x1F AND DUP3 ADD SWAP2 JUMPDEST POP POP POP POP POP DUP2 MSTORE PUSH1 0x20 ADD PUSH1 0x2 DUP3 ADD DUP1 SLOAD PUSH2 0x21A6 SWAP1 PUSH2 0x4A4E JUMP JUMPDEST DUP1 PUSH1 0x1F ADD PUSH1 0x20 DUP1 SWAP2 DIV MUL PUSH1 0x20 ADD PUSH1 0x40 MLOAD SWAP1 DUP2 ADD PUSH1 0x40 MSTORE DUP1 SWAP3 SWAP2 SWAP1 DUP2 DUP2 MSTORE PUSH1 0x20 ADD DUP3 DUP1 SLOAD PUSH2 0x21D2 SWAP1 PUSH2 0x4A4E JUMP JUMPDEST DUP1 ISZERO PUSH2 0x221F JUMPI DUP1 PUSH1 0x1F LT PUSH2 0x21F4 JUMPI PUSH2 0x100 DUP1 DUP4 SLOAD DIV MUL DUP4 MSTORE SWAP2 PUSH1 0x20 ADD SWAP2 PUSH2 0x221F JUMP JUMPDEST DUP3 ADD SWAP2 SWAP1 PUSH1 0x0 MSTORE PUSH1 0x20 PUSH1 0x0 KECCAK256 SWAP1 JUMPDEST DUP2 SLOAD DUP2 MSTORE SWAP1 PUSH1 0x1 ADD SWAP1 PUSH1 0x20 ADD DUP1 DUP4 GT PUSH2 0x2202 JUMPI DUP3 SWAP1 SUB PUSH1 0x1F AND DUP3 ADD SWAP2 JUMPDEST POP POP POP POP POP DUP2 MSTORE PUSH1 0x20 ADD PUSH1 0x3 DUP3 ADD DUP1 SLOAD PUSH2 0x2238 SWAP1 PUSH2 0x4A4E JUMP JUMPDEST DUP1 PUSH1 0x1F ADD PUSH1 0x20 DUP1 SWAP2 DIV MUL PUSH1 0x20 ADD PUSH1 0x40 MLOAD SWAP1 DUP2 ADD PUSH1 0x40 MSTORE DUP1 SWAP3 SWAP2 SWAP1 DUP2 DUP2 MSTORE PUSH1 0x20 ADD DUP3 DUP1 SLOAD PUSH2 0x2264 SWAP1 PUSH2 0x4A4E JUMP JUMPDEST DUP1 ISZERO PUSH2 0x22B1 JUMPI DUP1 PUSH1 0x1F LT PUSH2 0x2286 JUMPI PUSH2 0x100 DUP1 DUP4 SLOAD DIV MUL DUP4 MSTORE SWAP2 PUSH1 0x20 ADD SWAP2 PUSH2 0x22B1 JUMP JUMPDEST DUP3 ADD SWAP2 SWAP1 PUSH1 0x0 MSTORE PUSH1 0x20 PUSH1 0x0 KECCAK256 SWAP1 JUMPDEST DUP2 SLOAD DUP2 MSTORE SWAP1 PUSH1 0x1 ADD SWAP1 PUSH1 0x20 ADD DUP1 DUP4 GT PUSH2 0x2294 JUMPI DUP3 SWAP1 SUB PUSH1 0x1F AND DUP3 ADD SWAP2 JUMPDEST POP POP POP POP POP DUP2 MSTORE PUSH1 0x20 ADD PUSH1 0x4 DUP3 ADD DUP1 SLOAD PUSH2 0x22CA SWAP1 PUSH2 0x4A4E JUMP JUMPDEST DUP1 PUSH1 0x1F ADD PUSH1 0x20 DUP1 SWAP2 DIV MUL PUSH1 0x20 ADD PUSH1 0x40 MLOAD SWAP1 DUP2 ADD PUSH1 0x40 MSTORE DUP1 SWAP3 SWAP2 SWAP1 DUP2 DUP2 MSTORE PUSH1 0x20 ADD DUP3 DUP1 SLOAD PUSH2 0x22F6 SWAP1 PUSH2 0x4A4E JUMP JUMPDEST DUP1 ISZERO PUSH2 0x2343 JUMPI DUP1 PUSH1 0x1F LT PUSH2 0x2318 JUMPI PUSH2 0x100 DUP1 DUP4 SLOAD DIV MUL DUP4 MSTORE SWAP2 PUSH1 0x20 ADD SWAP2 PUSH2 0x2343 JUMP JUMPDEST DUP3 ADD SWAP2 SWAP1 PUSH1 0x0 MSTORE PUSH1 0x20 PUSH1 0x0 KECCAK256 SWAP1 JUMPDEST DUP2 SLOAD DUP2 MSTORE SWAP1 PUSH1 0x1 ADD SWAP1 PUSH1 0x20 ADD DUP1 DUP4 GT PUSH2 0x2326 JUMPI DUP3 SWAP1 SUB PUSH1 0x1F AND DUP3 ADD SWAP2 JUMPDEST POP POP POP POP POP DUP2 MSTORE PUSH1 0x20 ADD PUSH1 0x5 DUP3 ADD DUP1 SLOAD PUSH2 0x235C SWAP1 PUSH2 0x4A4E JUMP JUMPDEST DUP1 PUSH1 0x1F ADD PUSH1 0x20 DUP1 SWAP2 DIV MUL PUSH1 0x20 ADD PUSH1 0x40 MLOAD SWAP1 DUP2 ADD PUSH1 0x40 MSTORE DUP1 SWAP3 SWAP2 SWAP1 DUP2 DUP2 MSTORE PUSH1 0x20 ADD DUP3 DUP1 SLOAD PUSH2 0x2388 SWAP1 PUSH2 0x4A4E JUMP JUMPDEST DUP1 ISZERO PUSH2 0x23D5 JUMPI DUP1 PUSH1 0x1F LT PUSH2 0x23AA JUMPI PUSH2 0x100 DUP1 DUP4 SLOAD DIV MUL DUP4 MSTORE SWAP2 PUSH1 0x20 ADD SWAP2 PUSH2 0x23D5 JUMP JUMPDEST DUP3 ADD SWAP2 SWAP1 PUSH1 0x0 MSTORE PUSH1 0x20 PUSH1 0x0 KECCAK256 SWAP1 JUMPDEST DUP2 SLOAD DUP2 MSTORE SWAP1 PUSH1 0x1 ADD SWAP1 PUSH1 0x20 ADD DUP1 DUP4 GT PUSH2 0x23B8 JUMPI DUP3 SWAP1 SUB PUSH1 0x1F AND DUP3 ADD SWAP2 JUMPDEST POP POP POP POP POP DUP2 MSTORE PUSH1 0x20 ADD PUSH1 0x6 DUP3 ADD DUP1 SLOAD PUSH2 0x23EE SWAP1 PUSH2 0x4A4E JUMP JUMPDEST DUP1 PUSH1 0x1F ADD PUSH1 0x20 DUP1 SWAP2 DIV MUL PUSH1 0x20 ADD PUSH1 0x40 MLOAD SWAP1 DUP2 ADD PUSH1 0x40 MSTORE DUP1 SWAP3 SWAP2 SWAP1 DUP2 DUP2 MSTORE PUSH1 0x20 ADD DUP3 DUP1 SLOAD PUSH2 0x241A SWAP1 PUSH2 0x4A4E JUMP JUMPDEST DUP1 ISZERO PUSH2 0x2467 JUMPI DUP1 PUSH1 0x1F LT PUSH2 0x243C JUMPI PUSH2 0x100 DUP1 DUP4 SLOAD DIV MUL DUP4 MSTORE SWAP2 PUSH1 0x20 ADD SWAP2 PUSH2 0x2467 JUMP JUMPDEST DUP3 ADD SWAP2 SWAP1 PUSH1 0x0 MSTORE PUSH1 0x20 PUSH1 0x0 KECCAK256 SWAP1 JUMPDEST DUP2 SLOAD DUP2 MSTORE SWAP1 PUSH1 0x1 ADD SWAP1 PUSH1 0x20 ADD DUP1 DUP4 GT PUSH2 0x244A JUMPI DUP3 SWAP1 SUB PUSH1 0x1F AND DUP3 ADD SWAP2 JUMPDEST POP POP POP POP POP DUP2 MSTORE PUSH1 0x20 ADD PUSH1 0x7 DUP3 ADD DUP1 SLOAD PUSH2 0x2480 SWAP1 PUSH2 0x4A4E JUMP JUMPDEST DUP1 PUSH1 0x1F ADD PUSH1 0x20 DUP1 SWAP2 DIV MUL PUSH1 0x20 ADD PUSH1 0x40 MLOAD SWAP1 DUP2 ADD PUSH1 0x40 MSTORE DUP1 SWAP3 SWAP2 SWAP1 DUP2 DUP2 MSTORE PUSH1 0x20 ADD DUP3 DUP1 SLOAD PUSH2 0x24AC SWAP1 PUSH2 0x4A4E JUMP JUMPDEST DUP1 ISZERO PUSH2 0x24F9 JUMPI DUP1 PUSH1 0x1F LT PUSH2 0x24CE JUMPI PUSH2 0x100 DUP1 DUP4 SLOAD DIV MUL DUP4 MSTORE SWAP2 PUSH1 0x20 ADD SWAP2 PUSH2 0x24F9 JUMP JUMPDEST DUP3 ADD SWAP2 SWAP1 PUSH1 0x0 MSTORE PUSH1 0x20 PUSH1 0x0 KECCAK256 SWAP1 JUMPDEST DUP2 SLOAD DUP2 MSTORE SWAP1 PUSH1 0x1 ADD SWAP1 PUSH1 0x20 ADD DUP1 DUP4 GT PUSH2 0x24DC JUMPI DUP3 SWAP1 SUB PUSH1 0x1F AND DUP3 ADD SWAP2 JUMPDEST POP POP POP POP POP DUP2 MSTORE PUSH1 0x20 ADD PUSH1 0x8 DUP3 ADD DUP1 SLOAD PUSH2 0x2512 SWAP1 PUSH2 0x4A4E JUMP JUMPDEST DUP1 PUSH1 0x1F ADD PUSH1 0x20 DUP1 SWAP2 DIV MUL PUSH1 0x20 ADD PUSH1 0x40 MLOAD SWAP1 DUP2 ADD PUSH1 0x40 MSTORE DUP1 SWAP3 SWAP2 SWAP1 DUP2 DUP2 MSTORE PUSH1 0x20 ADD DUP3 DUP1 SLOAD PUSH2 0x253E SWAP1 PUSH2 0x4A4E JUMP JUMPDEST DUP1 ISZERO PUSH2 0x258B JUMPI DUP1 PUSH1 0x1F LT PUSH2 0x2560 JUMPI PUSH2 0x100 DUP1 DUP4 SLOAD DIV MUL DUP4 MSTORE SWAP2 PUSH1 0x20 ADD SWAP2 PUSH2 0x258B JUMP JUMPDEST DUP3 ADD SWAP2 SWAP1 PUSH1 0x0 MSTORE PUSH1 0x20 PUSH1 0x0 KECCAK256 SWAP1 JUMPDEST DUP2 SLOAD DUP2 MSTORE SWAP1 PUSH1 0x1 ADD SWAP1 PUSH1 0x20 ADD DUP1 DUP4 GT PUSH2 0x256E JUMPI DUP3 SWAP1 SUB PUSH1 0x1F AND DUP3 ADD SWAP2 JUMPDEST POP POP POP POP POP DUP2 MSTORE PUSH1 0x20 ADD PUSH1 0x9 DUP3 ADD DUP1 SLOAD PUSH2 0x25A4 SWAP1 PUSH2 0x4A4E JUMP JUMPDEST DUP1 PUSH1 0x1F ADD PUSH1 0x20 DUP1 SWAP2 DIV MUL PUSH1 0x20 ADD PUSH1 0x40 MLOAD SWAP1 DUP2 ADD PUSH1 0x40 MSTORE DUP1 SWAP3 SWAP2 SWAP1 DUP2 DUP2 MSTORE PUSH1 0x20 ADD DUP3 DUP1 SLOAD PUSH2 0x25D0 SWAP1 PUSH2 0x4A4E JUMP JUMPDEST DUP1 ISZERO PUSH2 0x261D JUMPI DUP1 PUSH1 0x1F LT PUSH2 0x25F2 JUMPI PUSH2 0x100 DUP1 DUP4 SLOAD DIV MUL DUP4 MSTORE SWAP2 PUSH1 0x20 ADD SWAP2 PUSH2 0x261D JUMP JUMPDEST DUP3 ADD SWAP2 SWAP1 PUSH1 0x0 MSTORE PUSH1 0x20 PUSH1 0x0 KECCAK256 SWAP1 JUMPDEST DUP2 SLOAD DUP2 MSTORE SWAP1 PUSH1 0x1 ADD SWAP1 PUSH1 0x20 ADD DUP1 DUP4 GT PUSH2 0x2600 JUMPI DUP3 SWAP1 SUB PUSH1 0x1F AND DUP3 ADD SWAP2 JUMPDEST POP POP POP POP POP DUP2 MSTORE PUSH1 0x20 ADD PUSH1 0xA DUP3 ADD DUP1 SLOAD PUSH2 0x2636 SWAP1 PUSH2 0x4A4E JUMP JUMPDEST DUP1 PUSH1 0x1F ADD PUSH1 0x20 DUP1 SWAP2 DIV MUL PUSH1 0x20 ADD PUSH1 0x40 MLOAD SWAP1 DUP2 ADD PUSH1 0x40 MSTORE DUP1 SWAP3 SWAP2 SWAP1 DUP2 DUP2 MSTORE PUSH1 0x20 ADD DUP3 DUP1 SLOAD PUSH2 0x2662 SWAP1 PUSH2 0x4A4E JUMP JUMPDEST DUP1 ISZERO PUSH2 0x26AF JUMPI DUP1 PUSH1 0x1F LT PUSH2 0x2684 JUMPI PUSH2 0x100 DUP1 DUP4 SLOAD DIV MUL DUP4 MSTORE SWAP2 PUSH1 0x20 ADD SWAP2 PUSH2 0x26AF JUMP JUMPDEST DUP3 ADD SWAP2 SWAP1 PUSH1 0x0 MSTORE PUSH1 0x20 PUSH1 0x0 KECCAK256 SWAP1 JUMPDEST DUP2 SLOAD DUP2 MSTORE SWAP1 PUSH1 0x1 ADD SWAP1 PUSH1 0x20 ADD DUP1 DUP4 GT PUSH2 0x2692 JUMPI DUP3 SWAP1 SUB PUSH1 0x1F AND DUP3 ADD SWAP2 JUMPDEST POP POP POP POP POP DUP2 MSTORE PUSH1 0x20 ADD PUSH1 0xB DUP3 ADD DUP1 SLOAD PUSH2 0x26C8 SWAP1 PUSH2 0x4A4E JUMP JUMPDEST DUP1 PUSH1 0x1F ADD PUSH1 0x20 DUP1 SWAP2 DIV MUL PUSH1 0x20 ADD PUSH1 0x40 MLOAD SWAP1 DUP2 ADD PUSH1 0x40 MSTORE DUP1 SWAP3 SWAP2 SWAP1 DUP2 DUP2 MSTORE PUSH1 0x20 ADD DUP3 DUP1 SLOAD PUSH2 0x26F4 SWAP1 PUSH2 0x4A4E JUMP JUMPDEST DUP1 ISZERO PUSH2 0x2741 JUMPI DUP1 PUSH1 0x1F LT PUSH2 0x2716 JUMPI PUSH2 0x100 DUP1 DUP4 SLOAD DIV MUL DUP4 MSTORE SWAP2 PUSH1 0x20 ADD SWAP2 PUSH2 0x2741 JUMP JUMPDEST DUP3 ADD SWAP2 SWAP1 PUSH1 0x0 MSTORE PUSH1 0x20 PUSH1 0x0 KECCAK256 SWAP1 JUMPDEST DUP2 SLOAD DUP2 MSTORE SWAP1 PUSH1 0x1 ADD SWAP1 PUSH1 0x20 ADD DUP1 DUP4 GT PUSH2 0x2724 JUMPI DUP3 SWAP1 SUB PUSH1 0x1F AND DUP3 ADD SWAP2 JUMPDEST POP POP POP POP POP DUP2 MSTORE PUSH1 0x20 ADD PUSH1 0xC DUP3 ADD DUP1 SLOAD PUSH2 0x275A SWAP1 PUSH2 0x4A4E JUMP JUMPDEST DUP1 PUSH1 0x1F ADD PUSH1 0x20 DUP1 SWAP2 DIV MUL PUSH1 0x20 ADD PUSH1 0x40 MLOAD SWAP1 DUP2 ADD PUSH1 0x40 MSTORE DUP1 SWAP3 SWAP2 SWAP1 DUP2 DUP2 MSTORE PUSH1 0x20 ADD DUP3 DUP1 SLOAD PUSH2 0x2786 SWAP1 PUSH2 0x4A4E JUMP JUMPDEST DUP1 ISZERO PUSH2 0x27D3 JUMPI DUP1 PUSH1 0x1F LT PUSH2 0x27A8 JUMPI PUSH2 0x100 DUP1 DUP4 SLOAD DIV MUL DUP4 MSTORE SWAP2 PUSH1 0x20 ADD SWAP2 PUSH2 0x27D3 JUMP JUMPDEST DUP3 ADD SWAP2 SWAP1 PUSH1 0x0 MSTORE PUSH1 0x20 PUSH1 0x0 KECCAK256 SWAP1 JUMPDEST DUP2 SLOAD DUP2 MSTORE SWAP1 PUSH1 0x1 ADD SWAP1 PUSH1 0x20 ADD DUP1 DUP4 GT PUSH2 0x27B6 JUMPI DUP3 SWAP1 SUB PUSH1 0x1F AND DUP3 ADD SWAP2 JUMPDEST POP POP POP POP POP DUP2 MSTORE POP POP DUP2 MSTORE PUSH1 0x20 ADD SWAP1 PUSH1 0x1 ADD SWAP1 PUSH2 0x208A JUMP JUMPDEST POP POP POP POP SWAP1 POP SWAP2 POP SWAP2 POP SWAP2 POP SWAP2 JUMP JUMPDEST PUSH2 0x2802 PUSH2 0x32BA JUMP JUMPDEST PUSH1 0x60 PUSH1 0x6 PUSH1 0x0 SWAP1 SLOAD SWAP1 PUSH2 0x100 EXP SWAP1 DIV PUSH20 0xFFFFFFFFFFFFFFFFFFFFFFFFFFFFFFFFFFFFFFFF AND PUSH20 0xFFFFFFFFFFFFFFFFFFFFFFFFFFFFFFFFFFFFFFFF AND PUSH4 0x63A9C3D7 CALLER PUSH1 0x40 MLOAD DUP3 PUSH4 0xFFFFFFFF AND PUSH1 0xE0 SHL DUP2 MSTORE PUSH1 0x4 ADD PUSH2 0x285F SWAP2 SWAP1 PUSH2 0x49C2 JUMP JUMPDEST PUSH1 0x20 PUSH1 0x40 MLOAD DUP1 DUP4 SUB DUP2 DUP7 GAS STATICCALL ISZERO DUP1 ISZERO PUSH2 0x287C JUMPI RETURNDATASIZE PUSH1 0x0 DUP1 RETURNDATACOPY RETURNDATASIZE PUSH1 0x0 REVERT JUMPDEST POP POP POP POP PUSH1 0x40 MLOAD RETURNDATASIZE PUSH1 0x1F NOT PUSH1 0x1F DUP3 ADD AND DUP3 ADD DUP1 PUSH1 0x40 MSTORE POP DUP2 ADD SWAP1 PUSH2 0x28A0 SWAP2 SWAP1 PUSH2 0x49F2 JUMP JUMPDEST PUSH2 0x28A9 JUMPI PUSH1 0x0 DUP1 REVERT JUMPDEST PUSH1 0x0 DUP1 DUP5 PUSH20 0xFFFFFFFFFFFFFFFFFFFFFFFFFFFFFFFFFFFFFFFF AND PUSH20 0xFFFFFFFFFFFFFFFFFFFFFFFFFFFFFFFFFFFFFFFF AND DUP2 MSTORE PUSH1 0x20 ADD SWAP1 DUP2 MSTORE PUSH1 0x20 ADD PUSH1 0x0 KECCAK256 PUSH1 0x3 PUSH1 0x0 DUP6 PUSH20 0xFFFFFFFFFFFFFFFFFFFFFFFFFFFFFFFFFFFFFFFF AND PUSH20 0xFFFFFFFFFFFFFFFFFFFFFFFFFFFFFFFFFFFFFFFF AND DUP2 MSTORE PUSH1 0x20 ADD SWAP1 DUP2 MSTORE PUSH1 0x20 ADD PUSH1 0x0 KECCAK256 DUP2 PUSH1 0x40 MLOAD DUP1 PUSH1 0xA0 ADD PUSH1 0x40 MSTORE SWAP1 DUP2 PUSH1 0x0 DUP3 ADD PUSH1 0x0 SWAP1 SLOAD SWAP1 PUSH2 0x100 EXP SWAP1 DIV PUSH20 0xFFFFFFFFFFFFFFFFFFFFFFFFFFFFFFFFFFFFFFFF AND PUSH20 0xFFFFFFFFFFFFFFFFFFFFFFFFFFFFFFFFFFFFFFFF AND PUSH20 0xFFFFFFFFFFFFFFFFFFFFFFFFFFFFFFFFFFFFFFFF AND DUP2 MSTORE PUSH1 0x20 ADD PUSH1 0x1 DUP3 ADD DUP1 SLOAD PUSH2 0x2998 SWAP1 PUSH2 0x4A4E JUMP JUMPDEST DUP1 PUSH1 0x1F ADD PUSH1 0x20 DUP1 SWAP2 DIV MUL PUSH1 0x20 ADD PUSH1 0x40 MLOAD SWAP1 DUP2 ADD PUSH1 0x40 MSTORE DUP1 SWAP3 SWAP2 SWAP1 DUP2 DUP2 MSTORE PUSH1 0x20 ADD DUP3 DUP1 SLOAD PUSH2 0x29C4 SWAP1 PUSH2 0x4A4E JUMP JUMPDEST DUP1 ISZERO PUSH2 0x2A11 JUMPI DUP1 PUSH1 0x1F LT PUSH2 0x29E6 JUMPI PUSH2 0x100 DUP1 DUP4 SLOAD DIV MUL DUP4 MSTORE SWAP2 PUSH1 0x20 ADD SWAP2 PUSH2 0x2A11 JUMP JUMPDEST DUP3 ADD SWAP2 SWAP1 PUSH1 0x0 MSTORE PUSH1 0x20 PUSH1 0x0 KECCAK256 SWAP1 JUMPDEST DUP2 SLOAD DUP2 MSTORE SWAP1 PUSH1 0x1 ADD SWAP1 PUSH1 0x20 ADD DUP1 DUP4 GT PUSH2 0x29F4 JUMPI DUP3 SWAP1 SUB PUSH1 0x1F AND DUP3 ADD SWAP2 JUMPDEST POP POP POP POP POP DUP2 MSTORE PUSH1 0x20 ADD PUSH1 0x2 DUP3 ADD SLOAD DUP2 MSTORE PUSH1 0x20 ADD PUSH1 0x3 DUP3 ADD DUP1 SLOAD PUSH2 0x2A34 SWAP1 PUSH2 0x4A4E JUMP JUMPDEST DUP1 PUSH1 0x1F ADD PUSH1 0x20 DUP1 SWAP2 DIV MUL PUSH1 0x20 ADD PUSH1 0x40 MLOAD SWAP1 DUP2 ADD PUSH1 0x40 MSTORE DUP1 SWAP3 SWAP2 SWAP1 DUP2 DUP2 MSTORE PUSH1 0x20 ADD DUP3 DUP1 SLOAD PUSH2 0x2A60 SWAP1 PUSH2 0x4A4E JUMP JUMPDEST DUP1 ISZERO PUSH2 0x2AAD JUMPI DUP1 PUSH1 0x1F LT PUSH2 0x2A82 JUMPI PUSH2 0x100 DUP1 DUP4 SLOAD DIV MUL DUP4 MSTORE SWAP2 PUSH1 0x20 ADD SWAP2 PUSH2 0x2AAD JUMP JUMPDEST DUP3 ADD SWAP2 SWAP1 PUSH1 0x0 MSTORE PUSH1 0x20 PUSH1 0x0 KECCAK256 SWAP1 JUMPDEST DUP2 SLOAD DUP2 MSTORE SWAP1 PUSH1 0x1 ADD SWAP1 PUSH1 0x20 ADD DUP1 DUP4 GT PUSH2 0x2A90 JUMPI DUP3 SWAP1 SUB PUSH1 0x1F AND DUP3 ADD SWAP2 JUMPDEST POP POP POP POP POP DUP2 MSTORE PUSH1 0x20 ADD PUSH1 0x4 DUP3 ADD DUP1 SLOAD PUSH2 0x2AC6 SWAP1 PUSH2 0x4A4E JUMP JUMPDEST DUP1 PUSH1 0x1F ADD PUSH1 0x20 DUP1 SWAP2 DIV MUL PUSH1 0x20 ADD PUSH1 0x40 MLOAD SWAP1 DUP2 ADD PUSH1 0x40 MSTORE DUP1 SWAP3 SWAP2 SWAP1 DUP2 DUP2 MSTORE PUSH1 0x20 ADD DUP3 DUP1 SLOAD PUSH2 0x2AF2 SWAP1 PUSH2 0x4A4E JUMP JUMPDEST DUP1 ISZERO PUSH2 0x2B3F JUMPI DUP1 PUSH1 0x1F LT PUSH2 0x2B14 JUMPI PUSH2 0x100 DUP1 DUP4 SLOAD DIV MUL DUP4 MSTORE SWAP2 PUSH1 0x20 ADD SWAP2 PUSH2 0x2B3F JUMP JUMPDEST DUP3 ADD SWAP2 SWAP1 PUSH1 0x0 MSTORE PUSH1 0x20 PUSH1 0x0 KECCAK256 SWAP1 JUMPDEST DUP2 SLOAD DUP2 MSTORE SWAP1 PUSH1 0x1 ADD SWAP1 PUSH1 0x20 ADD DUP1 DUP4 GT PUSH2 0x2B22 JUMPI DUP3 SWAP1 SUB PUSH1 0x1F AND DUP3 ADD SWAP2 JUMPDEST POP POP POP POP POP DUP2 MSTORE POP POP SWAP2 POP DUP1 DUP1 SLOAD DUP1 PUSH1 0x20 MUL PUSH1 0x20 ADD PUSH1 0x40 MLOAD SWAP1 DUP2 ADD PUSH1 0x40 MSTORE DUP1 SWAP3 SWAP2 SWAP1 DUP2 DUP2 MSTORE PUSH1 0x20 ADD PUSH1 0x0 SWAP1 JUMPDEST DUP3 DUP3 LT ISZERO PUSH2 0x32AB JUMPI DUP4 DUP3 SWAP1 PUSH1 0x0 MSTORE PUSH1 0x20 PUSH1 0x0 KECCAK256 SWAP1 PUSH1 0xE MUL ADD PUSH1 0x40 MLOAD DUP1 PUSH2 0x1C0 ADD PUSH1 0x40 MSTORE SWAP1 DUP2 PUSH1 0x0 DUP3 ADD PUSH1 0x0 SWAP1 SLOAD SWAP1 PUSH2 0x100 EXP SWAP1 DIV PUSH20 0xFFFFFFFFFFFFFFFFFFFFFFFFFFFFFFFFFFFFFFFF AND PUSH20 0xFFFFFFFFFFFFFFFFFFFFFFFFFFFFFFFFFFFFFFFF AND PUSH20 0xFFFFFFFFFFFFFFFFFFFFFFFFFFFFFFFFFFFFFFFF AND DUP2 MSTORE PUSH1 0x20 ADD PUSH1 0x1 DUP3 ADD DUP1 SLOAD PUSH2 0x2BF5 SWAP1 PUSH2 0x4A4E JUMP JUMPDEST DUP1 PUSH1 0x1F ADD PUSH1 0x20 DUP1 SWAP2 DIV MUL PUSH1 0x20 ADD PUSH1 0x40 MLOAD SWAP1 DUP2 ADD PUSH1 0x40 MSTORE DUP1 SWAP3 SWAP2 SWAP1 DUP2 DUP2 MSTORE PUSH1 0x20 ADD DUP3 DUP1 SLOAD PUSH2 0x2C21 SWAP1 PUSH2 0x4A4E JUMP JUMPDEST DUP1 ISZERO PUSH2 0x2C6E JUMPI DUP1 PUSH1 0x1F LT PUSH2 0x2C43 JUMPI PUSH2 0x100 DUP1 DUP4 SLOAD DIV MUL DUP4 MSTORE SWAP2 PUSH1 0x20 ADD SWAP2 PUSH2 0x2C6E JUMP JUMPDEST DUP3 ADD SWAP2 SWAP1 PUSH1 0x0 MSTORE PUSH1 0x20 PUSH1 0x0 KECCAK256 SWAP1 JUMPDEST DUP2 SLOAD DUP2 MSTORE SWAP1 PUSH1 0x1 ADD SWAP1 PUSH1 0x20 ADD DUP1 DUP4 GT PUSH2 0x2C51 JUMPI DUP3 SWAP1 SUB PUSH1 0x1F AND DUP3 ADD SWAP2 JUMPDEST POP POP POP POP POP DUP2 MSTORE PUSH1 0x20 ADD PUSH1 0x2 DUP3 ADD DUP1 SLOAD PUSH2 0x2C87 SWAP1 PUSH2 0x4A4E JUMP JUMPDEST DUP1 PUSH1 0x1F ADD PUSH1 0x20 DUP1 SWAP2 DIV MUL PUSH1 0x20 ADD PUSH1 0x40 MLOAD SWAP1 DUP2 ADD PUSH1 0x40 MSTORE DUP1 SWAP3 SWAP2 SWAP1 DUP2 DUP2 MSTORE PUSH1 0x20 ADD DUP3 DUP1 SLOAD PUSH2 0x2CB3 SWAP1 PUSH2 0x4A4E JUMP JUMPDEST DUP1 ISZERO PUSH2 0x2D00 JUMPI DUP1 PUSH1 0x1F LT PUSH2 0x2CD5 JUMPI PUSH2 0x100 DUP1 DUP4 SLOAD DIV MUL DUP4 MSTORE SWAP2 PUSH1 0x20 ADD SWAP2 PUSH2 0x2D00 JUMP JUMPDEST DUP3 ADD SWAP2 SWAP1 PUSH1 0x0 MSTORE PUSH1 0x20 PUSH1 0x0 KECCAK256 SWAP1 JUMPDEST DUP2 SLOAD DUP2 MSTORE SWAP1 PUSH1 0x1 ADD SWAP1 PUSH1 0x20 ADD DUP1 DUP4 GT PUSH2 0x2CE3 JUMPI DUP3 SWAP1 SUB PUSH1 0x1F AND DUP3 ADD SWAP2 JUMPDEST POP POP POP POP POP DUP2 MSTORE PUSH1 0x20 ADD PUSH1 0x3 DUP3 ADD DUP1 SLOAD PUSH2 0x2D19 SWAP1 PUSH2 0x4A4E JUMP JUMPDEST DUP1 PUSH1 0x1F ADD PUSH1 0x20 DUP1 SWAP2 DIV MUL PUSH1 0x20 ADD PUSH1 0x40 MLOAD SWAP1 DUP2 ADD PUSH1 0x40 MSTORE DUP1 SWAP3 SWAP2 SWAP1 DUP2 DUP2 MSTORE PUSH1 0x20 ADD DUP3 DUP1 SLOAD PUSH2 0x2D45 SWAP1 PUSH2 0x4A4E JUMP JUMPDEST DUP1 ISZERO PUSH2 0x2D92 JUMPI DUP1 PUSH1 0x1F LT PUSH2 0x2D67 JUMPI PUSH2 0x100 DUP1 DUP4 SLOAD DIV MUL DUP4 MSTORE SWAP2 PUSH1 0x20 ADD SWAP2 PUSH2 0x2D92 JUMP JUMPDEST DUP3 ADD SWAP2 SWAP1 PUSH1 0x0 MSTORE PUSH1 0x20 PUSH1 0x0 KECCAK256 SWAP1 JUMPDEST DUP2 SLOAD DUP2 MSTORE SWAP1 PUSH1 0x1 ADD SWAP1 PUSH1 0x20 ADD DUP1 DUP4 GT PUSH2 0x2D75 JUMPI DUP3 SWAP1 SUB PUSH1 0x1F AND DUP3 ADD SWAP2 JUMPDEST POP POP POP POP POP DUP2 MSTORE PUSH1 0x20 ADD PUSH1 0x4 DUP3 ADD DUP1 SLOAD PUSH2 0x2DAB SWAP1 PUSH2 0x4A4E JUMP JUMPDEST DUP1 PUSH1 0x1F ADD PUSH1 0x20 DUP1 SWAP2 DIV MUL PUSH1 0x20 ADD PUSH1 0x40 MLOAD SWAP1 DUP2 ADD PUSH1 0x40 MSTORE DUP1 SWAP3 SWAP2 SWAP1 DUP2 DUP2 MSTORE PUSH1 0x20 ADD DUP3 DUP1 SLOAD PUSH2 0x2DD7 SWAP1 PUSH2 0x4A4E JUMP JUMPDEST DUP1 ISZERO PUSH2 0x2E24 JUMPI DUP1 PUSH1 0x1F LT PUSH2 0x2DF9 JUMPI PUSH2 0x100 DUP1 DUP4 SLOAD DIV MUL DUP4 MSTORE SWAP2 PUSH1 0x20 ADD SWAP2 PUSH2 0x2E24 JUMP JUMPDEST DUP3 ADD SWAP2 SWAP1 PUSH1 0x0 MSTORE PUSH1 0x20 PUSH1 0x0 KECCAK256 SWAP1 JUMPDEST DUP2 SLOAD DUP2 MSTORE SWAP1 PUSH1 0x1 ADD SWAP1 PUSH1 0x20 ADD DUP1 DUP4 GT PUSH2 0x2E07 JUMPI DUP3 SWAP1 SUB PUSH1 0x1F AND DUP3 ADD SWAP2 JUMPDEST POP POP POP POP POP DUP2 MSTORE PUSH1 0x20 ADD PUSH1 0x5 DUP3 ADD DUP1 SLOAD PUSH2 0x2E3D SWAP1 PUSH2 0x4A4E JUMP JUMPDEST DUP1 PUSH1 0x1F ADD PUSH1 0x20 DUP1 SWAP2 DIV MUL PUSH1 0x20 ADD PUSH1 0x40 MLOAD SWAP1 DUP2 ADD PUSH1 0x40 MSTORE DUP1 SWAP3 SWAP2 SWAP1 DUP2 DUP2 MSTORE PUSH1 0x20 ADD DUP3 DUP1 SLOAD PUSH2 0x2E69 SWAP1 PUSH2 0x4A4E JUMP JUMPDEST DUP1 ISZERO PUSH2 0x2EB6 JUMPI DUP1 PUSH1 0x1F LT PUSH2 0x2E8B JUMPI PUSH2 0x100 DUP1 DUP4 SLOAD DIV MUL DUP4 MSTORE SWAP2 PUSH1 0x20 ADD SWAP2 PUSH2 0x2EB6 JUMP JUMPDEST DUP3 ADD SWAP2 SWAP1 PUSH1 0x0 MSTORE PUSH1 0x20 PUSH1 0x0 KECCAK256 SWAP1 JUMPDEST DUP2 SLOAD DUP2 MSTORE SWAP1 PUSH1 0x1 ADD SWAP1 PUSH1 0x20 ADD DUP1 DUP4 GT PUSH2 0x2E99 JUMPI DUP3 SWAP1 SUB PUSH1 0x1F AND DUP3 ADD SWAP2 JUMPDEST POP POP POP POP POP DUP2 MSTORE PUSH1 0x20 ADD PUSH1 0x6 DUP3 ADD DUP1 SLOAD PUSH2 0x2ECF SWAP1 PUSH2 0x4A4E JUMP JUMPDEST DUP1 PUSH1 0x1F ADD PUSH1 0x20 DUP1 SWAP2 DIV MUL PUSH1 0x20 ADD PUSH1 0x40 MLOAD SWAP1 DUP2 ADD PUSH1 0x40 MSTORE DUP1 SWAP3 SWAP2 SWAP1 DUP2 DUP2 MSTORE PUSH1 0x20 ADD DUP3 DUP1 SLOAD PUSH2 0x2EFB SWAP1 PUSH2 0x4A4E JUMP JUMPDEST DUP1 ISZERO PUSH2 0x2F48 JUMPI DUP1 PUSH1 0x1F LT PUSH2 0x2F1D JUMPI PUSH2 0x100 DUP1 DUP4 SLOAD DIV MUL DUP4 MSTORE SWAP2 PUSH1 0x20 ADD SWAP2 PUSH2 0x2F48 JUMP JUMPDEST DUP3 ADD SWAP2 SWAP1 PUSH1 0x0 MSTORE PUSH1 0x20 PUSH1 0x0 KECCAK256 SWAP1 JUMPDEST DUP2 SLOAD DUP2 MSTORE SWAP1 PUSH1 0x1 ADD SWAP1 PUSH1 0x20 ADD DUP1 DUP4 GT PUSH2 0x2F2B JUMPI DUP3 SWAP1 SUB PUSH1 0x1F AND DUP3 ADD SWAP2 JUMPDEST POP POP POP POP POP DUP2 MSTORE PUSH1 0x20 ADD PUSH1 0x7 DUP3 ADD DUP1 SLOAD PUSH2 0x2F61 SWAP1 PUSH2 0x4A4E JUMP JUMPDEST DUP1 PUSH1 0x1F ADD PUSH1 0x20 DUP1 SWAP2 DIV MUL PUSH1 0x20 ADD PUSH1 0x40 MLOAD SWAP1 DUP2 ADD PUSH1 0x40 MSTORE DUP1 SWAP3 SWAP2 SWAP1 DUP2 DUP2 MSTORE PUSH1 0x20 ADD DUP3 DUP1 SLOAD PUSH2 0x2F8D SWAP1 PUSH2 0x4A4E JUMP JUMPDEST DUP1 ISZERO PUSH2 0x2FDA JUMPI DUP1 PUSH1 0x1F LT PUSH2 0x2FAF JUMPI PUSH2 0x100 DUP1 DUP4 SLOAD DIV MUL DUP4 MSTORE SWAP2 PUSH1 0x20 ADD SWAP2 PUSH2 0x2FDA JUMP JUMPDEST DUP3 ADD SWAP2 SWAP1 PUSH1 0x0 MSTORE PUSH1 0x20 PUSH1 0x0 KECCAK256 SWAP1 JUMPDEST DUP2 SLOAD DUP2 MSTORE SWAP1 PUSH1 0x1 ADD SWAP1 PUSH1 0x20 ADD DUP1 DUP4 GT PUSH2 0x2FBD JUMPI DUP3 SWAP1 SUB PUSH1 0x1F AND DUP3 ADD SWAP2 JUMPDEST POP POP POP POP POP DUP2 MSTORE PUSH1 0x20 ADD PUSH1 0x8 DUP3 ADD DUP1 SLOAD PUSH2 0x2FF3 SWAP1 PUSH2 0x4A4E JUMP JUMPDEST DUP1 PUSH1 0x1F ADD PUSH1 0x20 DUP1 SWAP2 DIV MUL PUSH1 0x20 ADD PUSH1 0x40 MLOAD SWAP1 DUP2 ADD PUSH1 0x40 MSTORE DUP1 SWAP3 SWAP2 SWAP1 DUP2 DUP2 MSTORE PUSH1 0x20 ADD DUP3 DUP1 SLOAD PUSH2 0x301F SWAP1 PUSH2 0x4A4E JUMP JUMPDEST DUP1 ISZERO PUSH2 0x306C JUMPI DUP1 PUSH1 0x1F LT PUSH2 0x3041 JUMPI PUSH2 0x100 DUP1 DUP4 SLOAD DIV MUL DUP4 MSTORE SWAP2 PUSH1 0x20 ADD SWAP2 PUSH2 0x306C JUMP JUMPDEST DUP3 ADD SWAP2 SWAP1 PUSH1 0x0 MSTORE PUSH1 0x20 PUSH1 0x0 KECCAK256 SWAP1 JUMPDEST DUP2 SLOAD DUP2 MSTORE SWAP1 PUSH1 0x1 ADD SWAP1 PUSH1 0x20 ADD DUP1 DUP4 GT PUSH2 0x304F JUMPI DUP3 SWAP1 SUB PUSH1 0x1F AND DUP3 ADD SWAP2 JUMPDEST POP POP POP POP POP DUP2 MSTORE PUSH1 0x20 ADD PUSH1 0x9 DUP3 ADD PUSH1 0x0 SWAP1 SLOAD SWAP1 PUSH2 0x100 EXP SWAP1 DIV PUSH1 0xFF AND ISZERO ISZERO ISZERO ISZERO DUP2 MSTORE PUSH1 0x20 ADD PUSH1 0xA DUP3 ADD DUP1 SLOAD PUSH2 0x30A0 SWAP1 PUSH2 0x4A4E JUMP JUMPDEST DUP1 PUSH1 0x1F ADD PUSH1 0x20 DUP1 SWAP2 DIV MUL PUSH1 0x20 ADD PUSH1 0x40 MLOAD SWAP1 DUP2 ADD PUSH1 0x40 MSTORE DUP1 SWAP3 SWAP2 SWAP1 DUP2 DUP2 MSTORE PUSH1 0x20 ADD DUP3 DUP1 SLOAD PUSH2 0x30CC SWAP1 PUSH2 0x4A4E JUMP JUMPDEST DUP1 ISZERO PUSH2 0x3119 JUMPI DUP1 PUSH1 0x1F LT PUSH2 0x30EE JUMPI PUSH2 0x100 DUP1 DUP4 SLOAD DIV MUL DUP4 MSTORE SWAP2 PUSH1 0x20 ADD SWAP2 PUSH2 0x3119 JUMP JUMPDEST DUP3 ADD SWAP2 SWAP1 PUSH1 0x0 MSTORE PUSH1 0x20 PUSH1 0x0 KECCAK256 SWAP1 JUMPDEST DUP2 SLOAD DUP2 MSTORE SWAP1 PUSH1 0x1 ADD SWAP1 PUSH1 0x20 ADD DUP1 DUP4 GT PUSH2 0x30FC JUMPI DUP3 SWAP1 SUB PUSH1 0x1F AND DUP3 ADD SWAP2 JUMPDEST POP POP POP POP POP DUP2 MSTORE PUSH1 0x20 ADD PUSH1 0xB DUP3 ADD DUP1 SLOAD PUSH2 0x3132 SWAP1 PUSH2 0x4A4E JUMP JUMPDEST DUP1 PUSH1 0x1F ADD PUSH1 0x20 DUP1 SWAP2 DIV MUL PUSH1 0x20 ADD PUSH1 0x40 MLOAD SWAP1 DUP2 ADD PUSH1 0x40 MSTORE DUP1 SWAP3 SWAP2 SWAP1 DUP2 DUP2 MSTORE PUSH1 0x20 ADD DUP3 DUP1 SLOAD PUSH2 0x315E SWAP1 PUSH2 0x4A4E JUMP JUMPDEST DUP1 ISZERO PUSH2 0x31AB JUMPI DUP1 PUSH1 0x1F LT PUSH2 0x3180 JUMPI PUSH2 0x100 DUP1 DUP4 SLOAD DIV MUL DUP4 MSTORE SWAP2 PUSH1 0x20 ADD SWAP2 PUSH2 0x31AB JUMP JUMPDEST DUP3 ADD SWAP2 SWAP1 PUSH1 0x0 MSTORE PUSH1 0x20 PUSH1 0x0 KECCAK256 SWAP1 JUMPDEST DUP2 SLOAD DUP2 MSTORE SWAP1 PUSH1 0x1 ADD SWAP1 PUSH1 0x20 ADD DUP1 DUP4 GT PUSH2 0x318E JUMPI DUP3 SWAP1 SUB PUSH1 0x1F AND DUP3 ADD SWAP2 JUMPDEST POP POP POP POP POP DUP2 MSTORE PUSH1 0x20 ADD PUSH1 0xC DUP3 ADD PUSH1 0x0 SWAP1 SLOAD SWAP1 PUSH2 0x100 EXP SWAP1 DIV PUSH20 0xFFFFFFFFFFFFFFFFFFFFFFFFFFFFFFFFFFFFFFFF AND PUSH20 0xFFFFFFFFFFFFFFFFFFFFFFFFFFFFFFFFFFFFFFFF AND PUSH20 0xFFFFFFFFFFFFFFFFFFFFFFFFFFFFFFFFFFFFFFFF AND DUP2 MSTORE PUSH1 0x20 ADD PUSH1 0xD DUP3 ADD DUP1 SLOAD PUSH2 0x321A SWAP1 PUSH2 0x4A4E JUMP JUMPDEST DUP1 PUSH1 0x1F ADD PUSH1 0x20 DUP1 SWAP2 DIV MUL PUSH1 0x20 ADD PUSH1 0x40 MLOAD SWAP1 DUP2 ADD PUSH1 0x40 MSTORE DUP1 SWAP3 SWAP2 SWAP1 DUP2 DUP2 MSTORE PUSH1 0x20 ADD DUP3 DUP1 SLOAD PUSH2 0x3246 SWAP1 PUSH2 0x4A4E JUMP JUMPDEST DUP1 ISZERO PUSH2 0x3293 JUMPI DUP1 PUSH1 0x1F LT PUSH2 0x3268 JUMPI PUSH2 0x100 DUP1 DUP4 SLOAD DIV MUL DUP4 MSTORE SWAP2 PUSH1 0x20 ADD SWAP2 PUSH2 0x3293 JUMP JUMPDEST DUP3 ADD SWAP2 SWAP1 PUSH1 0x0 MSTORE PUSH1 0x20 PUSH1 0x0 KECCAK256 SWAP1 JUMPDEST DUP2 SLOAD DUP2 MSTORE SWAP1 PUSH1 0x1 ADD SWAP1 PUSH1 0x20 ADD DUP1 DUP4 GT PUSH2 0x3276 JUMPI DUP3 SWAP1 SUB PUSH1 0x1F AND DUP3 ADD SWAP2 JUMPDEST POP POP POP POP POP DUP2 MSTORE POP POP DUP2 MSTORE PUSH1 0x20 ADD SWAP1 PUSH1 0x1 ADD SWAP1 PUSH2 0x2B6B JUMP JUMPDEST POP POP POP POP SWAP1 POP SWAP2 POP SWAP2 POP SWAP2 POP SWAP2 JUMP JUMPDEST PUSH1 0x40 MLOAD DUP1 PUSH1 0xA0 ADD PUSH1 0x40 MSTORE DUP1 PUSH1 0x0 PUSH20 0xFFFFFFFFFFFFFFFFFFFFFFFFFFFFFFFFFFFFFFFF AND DUP2 MSTORE PUSH1 0x20 ADD PUSH1 0x60 DUP2 MSTORE PUSH1 0x20 ADD PUSH1 0x0 DUP2 MSTORE PUSH1 0x20 ADD PUSH1 0x60 DUP2 MSTORE PUSH1 0x20 ADD PUSH1 0x60 DUP2 MSTORE POP SWAP1 JUMP JUMPDEST PUSH1 0x40 MLOAD DUP1 PUSH2 0x140 ADD PUSH1 0x40 MSTORE DUP1 PUSH1 0x0 PUSH20 0xFFFFFFFFFFFFFFFFFFFFFFFFFFFFFFFFFFFFFFFF AND DUP2 MSTORE PUSH1 0x20 ADD PUSH1 0x60 DUP2 MSTORE PUSH1 0x20 ADD PUSH1 0x60 DUP2 MSTORE PUSH1 0x20 ADD PUSH1 0x60 DUP2 MSTORE PUSH1 0x20 ADD PUSH1 0x60 DUP2 MSTORE PUSH1 0x20 ADD PUSH1 0x60 DUP2 MSTORE PUSH1 0x20 ADD PUSH1 0x60 DUP2 MSTORE PUSH1 0x20 ADD PUSH1 0x60 DUP2 MSTORE PUSH1 0x20 ADD PUSH1 0x60 DUP2 MSTORE PUSH1 0x20 ADD PUSH1 0x0 ISZERO ISZERO DUP2 MSTORE POP SWAP1 JUMP JUMPDEST PUSH1 0x40 MLOAD DUP1 PUSH2 0x1C0 ADD PUSH1 0x40 MSTORE DUP1 PUSH1 0x0 PUSH20 0xFFFFFFFFFFFFFFFFFFFFFFFFFFFFFFFFFFFFFFFF AND DUP2 MSTORE PUSH1 0x20 ADD PUSH1 0x60 DUP2 MSTORE PUSH1 0x20 ADD PUSH1 0x60 DUP2 MSTORE PUSH1 0x20 ADD PUSH1 0x60 DUP2 MSTORE PUSH1 0x20 ADD PUSH1 0x60 DUP2 MSTORE PUSH1 0x20 ADD PUSH1 0x60 DUP2 MSTORE PUSH1 0x20 ADD PUSH1 0x60 DUP2 MSTORE PUSH1 0x20 ADD PUSH1 0x60 DUP2 MSTORE PUSH1 0x20 ADD PUSH1 0x60 DUP2 MSTORE PUSH1 0x20 ADD PUSH1 0x0 ISZERO ISZERO DUP2 MSTORE PUSH1 0x20 ADD PUSH1 0x60 DUP2 MSTORE PUSH1 0x20 ADD PUSH1 0x60 DUP2 MSTORE PUSH1 0x20 ADD PUSH1 0x0 PUSH20 0xFFFFFFFFFFFFFFFFFFFFFFFFFFFFFFFFFFFFFFFF AND DUP2 MSTORE PUSH1 0x20 ADD PUSH1 0x60 DUP2 MSTORE POP SWAP1 JUMP JUMPDEST PUSH1 0x40 MLOAD DUP1 PUSH1 0xA0 ADD PUSH1 0x40 MSTORE DUP1 PUSH1 0x0 PUSH20 0xFFFFFFFFFFFFFFFFFFFFFFFFFFFFFFFFFFFFFFFF AND DUP2 MSTORE PUSH1 0x20 ADD PUSH1 0x60 DUP2 MSTORE PUSH1 0x20 ADD PUSH1 0x60 DUP2 MSTORE PUSH1 0x20 ADD PUSH1 0x0 DUP2 MSTORE PUSH1 0x20 ADD PUSH1 0x60 DUP2 MSTORE POP SWAP1 JUMP JUMPDEST PUSH1 0x40 MLOAD DUP1 PUSH2 0x1A0 ADD PUSH1 0x40 MSTORE DUP1 PUSH1 0x0 PUSH20 0xFFFFFFFFFFFFFFFFFFFFFFFFFFFFFFFFFFFFFFFF AND DUP2 MSTORE PUSH1 0x20 ADD PUSH1 0x60 DUP2 MSTORE PUSH1 0x20 ADD PUSH1 0x60 DUP2 MSTORE PUSH1 0x20 ADD PUSH1 0x60 DUP2 MSTORE PUSH1 0x20 ADD PUSH1 0x60 DUP2 MSTORE PUSH1 0x20 ADD PUSH1 0x60 DUP2 MSTORE PUSH1 0x20 ADD PUSH1 0x60 DUP2 MSTORE PUSH1 0x20 ADD PUSH1 0x60 DUP2 MSTORE PUSH1 0x20 ADD PUSH1 0x60 DUP2 MSTORE PUSH1 0x20 ADD PUSH1 0x60 DUP2 MSTORE PUSH1 0x20 ADD PUSH1 0x60 DUP2 MSTORE PUSH1 0x20 ADD PUSH1 0x60 DUP2 MSTORE PUSH1 0x20 ADD PUSH1 0x60 DUP2 MSTORE POP SWAP1 JUMP JUMPDEST PUSH1 0x0 PUSH1 0x40 MLOAD SWAP1 POP SWAP1 JUMP JUMPDEST PUSH1 0x0 DUP1 REVERT JUMPDEST PUSH1 0x0 DUP1 REVERT JUMPDEST PUSH1 0x0 PUSH20 0xFFFFFFFFFFFFFFFFFFFFFFFFFFFFFFFFFFFFFFFF DUP3 AND SWAP1 POP SWAP2 SWAP1 POP JUMP JUMPDEST PUSH1 0x0 PUSH2 0x3509 DUP3 PUSH2 0x34DE JUMP JUMPDEST SWAP1 POP SWAP2 SWAP1 POP JUMP JUMPDEST PUSH2 0x3519 DUP2 PUSH2 0x34FE JUMP JUMPDEST DUP2 EQ PUSH2 0x3524 JUMPI PUSH1 0x0 DUP1 REVERT JUMPDEST POP JUMP JUMPDEST PUSH1 0x0 DUP2 CALLDATALOAD SWAP1 POP PUSH2 0x3536 DUP2 PUSH2 0x3510 JUMP JUMPDEST SWAP3 SWAP2 POP POP JUMP JUMPDEST PUSH1 0x0 PUSH1 0x20 DUP3 DUP5 SUB SLT ISZERO PUSH2 0x3552 JUMPI PUSH2 0x3551 PUSH2 0x34D4 JUMP JUMPDEST JUMPDEST PUSH1 0x0 PUSH2 0x3560 DUP5 DUP3 DUP6 ADD PUSH2 0x3527 JUMP JUMPDEST SWAP2 POP POP SWAP3 SWAP2 POP POP JUMP JUMPDEST PUSH1 0x0 DUP1 REVERT JUMPDEST PUSH1 0x0 PUSH1 0x1F NOT PUSH1 0x1F DUP4 ADD AND SWAP1 POP SWAP2 SWAP1 POP JUMP JUMPDEST PUSH32 0x4E487B7100000000000000000000000000000000000000000000000000000000 PUSH1 0x0 MSTORE PUSH1 0x41 PUSH1 0x4 MSTORE PUSH1 0x24 PUSH1 0x0 REVERT JUMPDEST PUSH2 0x35B7 DUP3 PUSH2 0x356E JUMP JUMPDEST DUP2 ADD DUP2 DUP2 LT PUSH8 0xFFFFFFFFFFFFFFFF DUP3 GT OR ISZERO PUSH2 0x35D6 JUMPI PUSH2 0x35D5 PUSH2 0x357F JUMP JUMPDEST JUMPDEST DUP1 PUSH1 0x40 MSTORE POP POP POP JUMP JUMPDEST PUSH1 0x0 PUSH2 0x35E9 PUSH2 0x34CA JUMP JUMPDEST SWAP1 POP PUSH2 0x35F5 DUP3 DUP3 PUSH2 0x35AE JUMP JUMPDEST SWAP2 SWAP1 POP JUMP JUMPDEST PUSH1 0x0 DUP1 REVERT JUMPDEST PUSH1 0x0 DUP1 REVERT JUMPDEST PUSH1 0x0 DUP1 REVERT JUMPDEST PUSH1 0x0 PUSH8 0xFFFFFFFFFFFFFFFF DUP3 GT ISZERO PUSH2 0x3624 JUMPI PUSH2 0x3623 PUSH2 0x357F JUMP JUMPDEST JUMPDEST PUSH2 0x362D DUP3 PUSH2 0x356E JUMP JUMPDEST SWAP1 POP PUSH1 0x20 DUP2 ADD SWAP1 POP SWAP2 SWAP1 POP JUMP JUMPDEST DUP3 DUP2 DUP4 CALLDATACOPY PUSH1 0x0 DUP4 DUP4 ADD MSTORE POP POP POP JUMP JUMPDEST PUSH1 0x0 PUSH2 0x365C PUSH2 0x3657 DUP5 PUSH2 0x3609 JUMP JUMPDEST PUSH2 0x35DF JUMP JUMPDEST SWAP1 POP DUP3 DUP2 MSTORE PUSH1 0x20 DUP2 ADD DUP5 DUP5 DUP5 ADD GT ISZERO PUSH2 0x3678 JUMPI PUSH2 0x3677 PUSH2 0x3604 JUMP JUMPDEST JUMPDEST PUSH2 0x3683 DUP5 DUP3 DUP6 PUSH2 0x363A JUMP JUMPDEST POP SWAP4 SWAP3 POP POP POP JUMP JUMPDEST PUSH1 0x0 DUP3 PUSH1 0x1F DUP4 ADD SLT PUSH2 0x36A0 JUMPI PUSH2 0x369F PUSH2 0x35FF JUMP JUMPDEST JUMPDEST DUP2 CALLDATALOAD PUSH2 0x36B0 DUP5 DUP3 PUSH1 0x20 DUP7 ADD PUSH2 0x3649 JUMP JUMPDEST SWAP2 POP POP SWAP3 SWAP2 POP POP JUMP JUMPDEST PUSH1 0x0 DUP2 SWAP1 POP SWAP2 SWAP1 POP JUMP JUMPDEST PUSH2 0x36CC DUP2 PUSH2 0x36B9 JUMP JUMPDEST DUP2 EQ PUSH2 0x36D7 JUMPI PUSH1 0x0 DUP1 REVERT JUMPDEST POP JUMP JUMPDEST PUSH1 0x0 DUP2 CALLDATALOAD SWAP1 POP PUSH2 0x36E9 DUP2 PUSH2 0x36C3 JUMP JUMPDEST SWAP3 SWAP2 POP POP JUMP JUMPDEST PUSH1 0x0 PUSH1 0xA0 DUP3 DUP5 SUB SLT ISZERO PUSH2 0x3705 JUMPI PUSH2 0x3704 PUSH2 0x3569 JUMP JUMPDEST JUMPDEST PUSH2 0x370F PUSH1 0xA0 PUSH2 0x35DF JUMP JUMPDEST SWAP1 POP PUSH1 0x0 PUSH2 0x371F DUP5 DUP3 DUP6 ADD PUSH2 0x3527 JUMP JUMPDEST PUSH1 0x0 DUP4 ADD MSTORE POP PUSH1 0x20 DUP3 ADD CALLDATALOAD PUSH8 0xFFFFFFFFFFFFFFFF DUP2 GT ISZERO PUSH2 0x3743 JUMPI PUSH2 0x3742 PUSH2 0x35FA JUMP JUMPDEST JUMPDEST PUSH2 0x374F DUP5 DUP3 DUP6 ADD PUSH2 0x368B JUMP JUMPDEST PUSH1 0x20 DUP4 ADD MSTORE POP PUSH1 0x40 PUSH2 0x3763 DUP5 DUP3 DUP6 ADD PUSH2 0x36DA JUMP JUMPDEST PUSH1 0x40 DUP4 ADD MSTORE POP PUSH1 0x60 DUP3 ADD CALLDATALOAD PUSH8 0xFFFFFFFFFFFFFFFF DUP2 GT ISZERO PUSH2 0x3787 JUMPI PUSH2 0x3786 PUSH2 0x35FA JUMP JUMPDEST JUMPDEST PUSH2 0x3793 DUP5 DUP3 DUP6 ADD PUSH2 0x368B JUMP JUMPDEST PUSH1 0x60 DUP4 ADD MSTORE POP PUSH1 0x80 DUP3 ADD CALLDATALOAD PUSH8 0xFFFFFFFFFFFFFFFF DUP2 GT ISZERO PUSH2 0x37B7 JUMPI PUSH2 0x37B6 PUSH2 0x35FA JUMP JUMPDEST JUMPDEST PUSH2 0x37C3 DUP5 DUP3 DUP6 ADD PUSH2 0x368B JUMP JUMPDEST PUSH1 0x80 DUP4 ADD MSTORE POP SWAP3 SWAP2 POP POP JUMP JUMPDEST PUSH1 0x0 DUP2 ISZERO ISZERO SWAP1 POP SWAP2 SWAP1 POP JUMP JUMPDEST PUSH2 0x37E4 DUP2 PUSH2 0x37CF JUMP JUMPDEST DUP2 EQ PUSH2 0x37EF JUMPI PUSH1 0x0 DUP1 REVERT JUMPDEST POP JUMP JUMPDEST PUSH1 0x0 DUP2 CALLDATALOAD SWAP1 POP PUSH2 0x3801 DUP2 PUSH2 0x37DB JUMP JUMPDEST SWAP3 SWAP2 POP POP JUMP JUMPDEST PUSH1 0x0 PUSH2 0x140 DUP3 DUP5 SUB SLT ISZERO PUSH2 0x381E JUMPI PUSH2 0x381D PUSH2 0x3569 JUMP JUMPDEST JUMPDEST PUSH2 0x3829 PUSH2 0x140 PUSH2 0x35DF JUMP JUMPDEST SWAP1 POP PUSH1 0x0 PUSH2 0x3839 DUP5 DUP3 DUP6 ADD PUSH2 0x3527 JUMP JUMPDEST PUSH1 0x0 DUP4 ADD MSTORE POP PUSH1 0x20 DUP3 ADD CALLDATALOAD PUSH8 0xFFFFFFFFFFFFFFFF DUP2 GT ISZERO PUSH2 0x385D JUMPI PUSH2 0x385C PUSH2 0x35FA JUMP JUMPDEST JUMPDEST PUSH2 0x3869 DUP5 DUP3 DUP6 ADD PUSH2 0x368B JUMP JUMPDEST PUSH1 0x20 DUP4 ADD MSTORE POP PUSH1 0x40 DUP3 ADD CALLDATALOAD PUSH8 0xFFFFFFFFFFFFFFFF DUP2 GT ISZERO PUSH2 0x388D JUMPI PUSH2 0x388C PUSH2 0x35FA JUMP JUMPDEST JUMPDEST PUSH2 0x3899 DUP5 DUP3 DUP6 ADD PUSH2 0x368B JUMP JUMPDEST PUSH1 0x40 DUP4 ADD MSTORE POP PUSH1 0x60 DUP3 ADD CALLDATALOAD PUSH8 0xFFFFFFFFFFFFFFFF DUP2 GT ISZERO PUSH2 0x38BD JUMPI PUSH2 0x38BC PUSH2 0x35FA JUMP JUMPDEST JUMPDEST PUSH2 0x38C9 DUP5 DUP3 DUP6 ADD PUSH2 0x368B JUMP JUMPDEST PUSH1 0x60 DUP4 ADD MSTORE POP PUSH1 0x80 DUP3 ADD CALLDATALOAD PUSH8 0xFFFFFFFFFFFFFFFF DUP2 GT ISZERO PUSH2 0x38ED JUMPI PUSH2 0x38EC PUSH2 0x35FA JUMP JUMPDEST JUMPDEST PUSH2 0x38F9 DUP5 DUP3 DUP6 ADD PUSH2 0x368B JUMP JUMPDEST PUSH1 0x80 DUP4 ADD MSTORE POP PUSH1 0xA0 DUP3 ADD CALLDATALOAD PUSH8 0xFFFFFFFFFFFFFFFF DUP2 GT ISZERO PUSH2 0x391D JUMPI PUSH2 0x391C PUSH2 0x35FA JUMP JUMPDEST JUMPDEST PUSH2 0x3929 DUP5 DUP3 DUP6 ADD PUSH2 0x368B JUMP JUMPDEST PUSH1 0xA0 DUP4 ADD MSTORE POP PUSH1 0xC0 DUP3 ADD CALLDATALOAD PUSH8 0xFFFFFFFFFFFFFFFF DUP2 GT ISZERO PUSH2 0x394D JUMPI PUSH2 0x394C PUSH2 0x35FA JUMP JUMPDEST JUMPDEST PUSH2 0x3959 DUP5 DUP3 DUP6 ADD PUSH2 0x368B JUMP JUMPDEST PUSH1 0xC0 DUP4 ADD MSTORE POP PUSH1 0xE0 DUP3 ADD CALLDATALOAD PUSH8 0xFFFFFFFFFFFFFFFF DUP2 GT ISZERO PUSH2 0x397D JUMPI PUSH2 0x397C PUSH2 0x35FA JUMP JUMPDEST JUMPDEST PUSH2 0x3989 DUP5 DUP3 DUP6 ADD PUSH2 0x368B JUMP JUMPDEST PUSH1 0xE0 DUP4 ADD MSTORE POP PUSH2 0x100 DUP3 ADD CALLDATALOAD PUSH8 0xFFFFFFFFFFFFFFFF DUP2 GT ISZERO PUSH2 0x39AE JUMPI PUSH2 0x39AD PUSH2 0x35FA JUMP JUMPDEST JUMPDEST PUSH2 0x39BA DUP5 DUP3 DUP6 ADD PUSH2 0x368B JUMP JUMPDEST PUSH2 0x100 DUP4 ADD MSTORE POP PUSH2 0x120 PUSH2 0x39D0 DUP5 DUP3 DUP6 ADD PUSH2 0x37F2 JUMP JUMPDEST PUSH2 0x120 DUP4 ADD MSTORE POP SWAP3 SWAP2 POP POP JUMP JUMPDEST PUSH1 0x0 DUP1 PUSH1 0x40 DUP4 DUP6 SUB SLT ISZERO PUSH2 0x39F4 JUMPI PUSH2 0x39F3 PUSH2 0x34D4 JUMP JUMPDEST JUMPDEST PUSH1 0x0 DUP4 ADD CALLDATALOAD PUSH8 0xFFFFFFFFFFFFFFFF DUP2 GT ISZERO PUSH2 0x3A12 JUMPI PUSH2 0x3A11 PUSH2 0x34D9 JUMP JUMPDEST JUMPDEST PUSH2 0x3A1E DUP6 DUP3 DUP7 ADD PUSH2 0x36EF JUMP JUMPDEST SWAP3 POP POP PUSH1 0x20 DUP4 ADD CALLDATALOAD PUSH8 0xFFFFFFFFFFFFFFFF DUP2 GT ISZERO PUSH2 0x3A3F JUMPI PUSH2 0x3A3E PUSH2 0x34D9 JUMP JUMPDEST JUMPDEST PUSH2 0x3A4B DUP6 DUP3 DUP7 ADD PUSH2 0x3807 JUMP JUMPDEST SWAP2 POP POP SWAP3 POP SWAP3 SWAP1 POP JUMP JUMPDEST PUSH1 0x0 PUSH2 0x1C0 DUP3 DUP5 SUB SLT ISZERO PUSH2 0x3A6C JUMPI PUSH2 0x3A6B PUSH2 0x3569 JUMP JUMPDEST JUMPDEST PUSH2 0x3A77 PUSH2 0x1C0 PUSH2 0x35DF JUMP JUMPDEST SWAP1 POP PUSH1 0x0 PUSH2 0x3A87 DUP5 DUP3 DUP6 ADD PUSH2 0x3527 JUMP JUMPDEST PUSH1 0x0 DUP4 ADD MSTORE POP PUSH1 0x20 DUP3 ADD CALLDATALOAD PUSH8 0xFFFFFFFFFFFFFFFF DUP2 GT ISZERO PUSH2 0x3AAB JUMPI PUSH2 0x3AAA PUSH2 0x35FA JUMP JUMPDEST JUMPDEST PUSH2 0x3AB7 DUP5 DUP3 DUP6 ADD PUSH2 0x368B JUMP JUMPDEST PUSH1 0x20 DUP4 ADD MSTORE POP PUSH1 0x40 DUP3 ADD CALLDATALOAD PUSH8 0xFFFFFFFFFFFFFFFF DUP2 GT ISZERO PUSH2 0x3ADB JUMPI PUSH2 0x3ADA PUSH2 0x35FA JUMP JUMPDEST JUMPDEST PUSH2 0x3AE7 DUP5 DUP3 DUP6 ADD PUSH2 0x368B JUMP JUMPDEST PUSH1 0x40 DUP4 ADD MSTORE POP PUSH1 0x60 DUP3 ADD CALLDATALOAD PUSH8 0xFFFFFFFFFFFFFFFF DUP2 GT ISZERO PUSH2 0x3B0B JUMPI PUSH2 0x3B0A PUSH2 0x35FA JUMP JUMPDEST JUMPDEST PUSH2 0x3B17 DUP5 DUP3 DUP6 ADD PUSH2 0x368B JUMP JUMPDEST PUSH1 0x60 DUP4 ADD MSTORE POP PUSH1 0x80 DUP3 ADD CALLDATALOAD PUSH8 0xFFFFFFFFFFFFFFFF DUP2 GT ISZERO PUSH2 0x3B3B JUMPI PUSH2 0x3B3A PUSH2 0x35FA JUMP JUMPDEST JUMPDEST PUSH2 0x3B47 DUP5 DUP3 DUP6 ADD PUSH2 0x368B JUMP JUMPDEST PUSH1 0x80 DUP4 ADD MSTORE POP PUSH1 0xA0 DUP3 ADD CALLDATALOAD PUSH8 0xFFFFFFFFFFFFFFFF DUP2 GT ISZERO PUSH2 0x3B6B JUMPI PUSH2 0x3B6A PUSH2 0x35FA JUMP JUMPDEST JUMPDEST PUSH2 0x3B77 DUP5 DUP3 DUP6 ADD PUSH2 0x368B JUMP JUMPDEST PUSH1 0xA0 DUP4 ADD MSTORE POP PUSH1 0xC0 DUP3 ADD CALLDATALOAD PUSH8 0xFFFFFFFFFFFFFFFF DUP2 GT ISZERO PUSH2 0x3B9B JUMPI PUSH2 0x3B9A PUSH2 0x35FA JUMP JUMPDEST JUMPDEST PUSH2 0x3BA7 DUP5 DUP3 DUP6 ADD PUSH2 0x368B JUMP JUMPDEST PUSH1 0xC0 DUP4 ADD MSTORE POP PUSH1 0xE0 DUP3 ADD CALLDATALOAD PUSH8 0xFFFFFFFFFFFFFFFF DUP2 GT ISZERO PUSH2 0x3BCB JUMPI PUSH2 0x3BCA PUSH2 0x35FA JUMP JUMPDEST JUMPDEST PUSH2 0x3BD7 DUP5 DUP3 DUP6 ADD PUSH2 0x368B JUMP JUMPDEST PUSH1 0xE0 DUP4 ADD MSTORE POP PUSH2 0x100 DUP3 ADD CALLDATALOAD PUSH8 0xFFFFFFFFFFFFFFFF DUP2 GT ISZERO PUSH2 0x3BFC JUMPI PUSH2 0x3BFB PUSH2 0x35FA JUMP JUMPDEST JUMPDEST PUSH2 0x3C08 DUP5 DUP3 DUP6 ADD PUSH2 0x368B JUMP JUMPDEST PUSH2 0x100 DUP4 ADD MSTORE POP PUSH2 0x120 PUSH2 0x3C1E DUP5 DUP3 DUP6 ADD PUSH2 0x37F2 JUMP JUMPDEST PUSH2 0x120 DUP4 ADD MSTORE POP PUSH2 0x140 DUP3 ADD CALLDATALOAD PUSH8 0xFFFFFFFFFFFFFFFF DUP2 GT ISZERO PUSH2 0x3C44 JUMPI PUSH2 0x3C43 PUSH2 0x35FA JUMP JUMPDEST JUMPDEST PUSH2 0x3C50 DUP5 DUP3 DUP6 ADD PUSH2 0x368B JUMP JUMPDEST PUSH2 0x140 DUP4 ADD MSTORE POP PUSH2 0x160 DUP3 ADD CALLDATALOAD PUSH8 0xFFFFFFFFFFFFFFFF DUP2 GT ISZERO PUSH2 0x3C76 JUMPI PUSH2 0x3C75 PUSH2 0x35FA JUMP JUMPDEST JUMPDEST PUSH2 0x3C82 DUP5 DUP3 DUP6 ADD PUSH2 0x368B JUMP JUMPDEST PUSH2 0x160 DUP4 ADD MSTORE POP PUSH2 0x180 PUSH2 0x3C98 DUP5 DUP3 DUP6 ADD PUSH2 0x3527 JUMP JUMPDEST PUSH2 0x180 DUP4 ADD MSTORE POP PUSH2 0x1A0 DUP3 ADD CALLDATALOAD PUSH8 0xFFFFFFFFFFFFFFFF DUP2 GT ISZERO PUSH2 0x3CBE JUMPI PUSH2 0x3CBD PUSH2 0x35FA JUMP JUMPDEST JUMPDEST PUSH2 0x3CCA DUP5 DUP3 DUP6 ADD PUSH2 0x368B JUMP JUMPDEST PUSH2 0x1A0 DUP4 ADD MSTORE POP SWAP3 SWAP2 POP POP JUMP JUMPDEST PUSH1 0x0 DUP1 PUSH1 0x40 DUP4 DUP6 SUB SLT ISZERO PUSH2 0x3CEE JUMPI PUSH2 0x3CED PUSH2 0x34D4 JUMP JUMPDEST JUMPDEST PUSH1 0x0 DUP4 ADD CALLDATALOAD PUSH8 0xFFFFFFFFFFFFFFFF DUP2 GT ISZERO PUSH2 0x3D0C JUMPI PUSH2 0x3D0B PUSH2 0x34D9 JUMP JUMPDEST JUMPDEST PUSH2 0x3D18 DUP6 DUP3 DUP7 ADD PUSH2 0x36EF JUMP JUMPDEST SWAP3 POP POP PUSH1 0x20 DUP4 ADD CALLDATALOAD PUSH8 0xFFFFFFFFFFFFFFFF DUP2 GT ISZERO PUSH2 0x3D39 JUMPI PUSH2 0x3D38 PUSH2 0x34D9 JUMP JUMPDEST JUMPDEST PUSH2 0x3D45 DUP6 DUP3 DUP7 ADD PUSH2 0x3A55 JUMP JUMPDEST SWAP2 POP POP SWAP3 POP SWAP3 SWAP1 POP JUMP JUMPDEST PUSH2 0x3D58 DUP2 PUSH2 0x34FE JUMP JUMPDEST DUP3 MSTORE POP POP JUMP JUMPDEST PUSH1 0x0 DUP2 MLOAD SWAP1 POP SWAP2 SWAP1 POP JUMP JUMPDEST PUSH1 0x0 DUP3 DUP3 MSTORE PUSH1 0x20 DUP3 ADD SWAP1 POP SWAP3 SWAP2 POP POP JUMP JUMPDEST PUSH1 0x0 JUMPDEST DUP4 DUP2 LT ISZERO PUSH2 0x3D98 JUMPI DUP1 DUP3 ADD MLOAD DUP2 DUP5 ADD MSTORE PUSH1 0x20 DUP2 ADD SWAP1 POP PUSH2 0x3D7D JUMP JUMPDEST PUSH1 0x0 DUP5 DUP5 ADD MSTORE POP POP POP POP JUMP JUMPDEST PUSH1 0x0 PUSH2 0x3DAF DUP3 PUSH2 0x3D5E JUMP JUMPDEST PUSH2 0x3DB9 DUP2 DUP6 PUSH2 0x3D69 JUMP JUMPDEST SWAP4 POP PUSH2 0x3DC9 DUP2 DUP6 PUSH1 0x20 DUP7 ADD PUSH2 0x3D7A JUMP JUMPDEST PUSH2 0x3DD2 DUP2 PUSH2 0x356E JUMP JUMPDEST DUP5 ADD SWAP2 POP POP SWAP3 SWAP2 POP POP JUMP JUMPDEST PUSH2 0x3DE6 DUP2 PUSH2 0x36B9 JUMP JUMPDEST DUP3 MSTORE POP POP JUMP JUMPDEST PUSH1 0x0 PUSH1 0xA0 DUP4 ADD PUSH1 0x0 DUP4 ADD MLOAD PUSH2 0x3E04 PUSH1 0x0 DUP7 ADD DUP3 PUSH2 0x3D4F JUMP JUMPDEST POP PUSH1 0x20 DUP4 ADD MLOAD DUP5 DUP3 SUB PUSH1 0x20 DUP7 ADD MSTORE PUSH2 0x3E1C DUP3 DUP3 PUSH2 0x3DA4 JUMP JUMPDEST SWAP2 POP POP PUSH1 0x40 DUP4 ADD MLOAD PUSH2 0x3E31 PUSH1 0x40 DUP7 ADD DUP3 PUSH2 0x3DDD JUMP JUMPDEST POP PUSH1 0x60 DUP4 ADD MLOAD DUP5 DUP3 SUB PUSH1 0x60 DUP7 ADD MSTORE PUSH2 0x3E49 DUP3 DUP3 PUSH2 0x3DA4 JUMP JUMPDEST SWAP2 POP POP PUSH1 0x80 DUP4 ADD MLOAD DUP5 DUP3 SUB PUSH1 0x80 DUP7 ADD MSTORE PUSH2 0x3E63 DUP3 DUP3 PUSH2 0x3DA4 JUMP JUMPDEST SWAP2 POP POP DUP1 SWAP2 POP POP SWAP3 SWAP2 POP POP JUMP JUMPDEST PUSH1 0x0 DUP2 MLOAD SWAP1 POP SWAP2 SWAP1 POP JUMP JUMPDEST PUSH1 0x0 DUP3 DUP3 MSTORE PUSH1 0x20 DUP3 ADD SWAP1 POP SWAP3 SWAP2 POP POP JUMP JUMPDEST PUSH1 0x0 DUP2 SWAP1 POP PUSH1 0x20 DUP3 ADD SWAP1 POP SWAP2 SWAP1 POP JUMP JUMPDEST PUSH2 0x3EA5 DUP2 PUSH2 0x37CF JUMP JUMPDEST DUP3 MSTORE POP POP JUMP JUMPDEST PUSH1 0x0 PUSH2 0x140 DUP4 ADD PUSH1 0x0 DUP4 ADD MLOAD PUSH2 0x3EC4 PUSH1 0x0 DUP7 ADD DUP3 PUSH2 0x3D4F JUMP JUMPDEST POP PUSH1 0x20 DUP4 ADD MLOAD DUP5 DUP3 SUB PUSH1 0x20 DUP7 ADD MSTORE PUSH2 0x3EDC DUP3 DUP3 PUSH2 0x3DA4 JUMP JUMPDEST SWAP2 POP POP PUSH1 0x40 DUP4 ADD MLOAD DUP5 DUP3 SUB PUSH1 0x40 DUP7 ADD MSTORE PUSH2 0x3EF6 DUP3 DUP3 PUSH2 0x3DA4 JUMP JUMPDEST SWAP2 POP POP PUSH1 0x60 DUP4 ADD MLOAD DUP5 DUP3 SUB PUSH1 0x60 DUP7 ADD MSTORE PUSH2 0x3F10 DUP3 DUP3 PUSH2 0x3DA4 JUMP JUMPDEST SWAP2 POP POP PUSH1 0x80 DUP4 ADD MLOAD DUP5 DUP3 SUB PUSH1 0x80 DUP7 ADD MSTORE PUSH2 0x3F2A DUP3 DUP3 PUSH2 0x3DA4 JUMP JUMPDEST SWAP2 POP POP PUSH1 0xA0 DUP4 ADD MLOAD DUP5 DUP3 SUB PUSH1 0xA0 DUP7 ADD MSTORE PUSH2 0x3F44 DUP3 DUP3 PUSH2 0x3DA4 JUMP JUMPDEST SWAP2 POP POP PUSH1 0xC0 DUP4 ADD MLOAD DUP5 DUP3 SUB PUSH1 0xC0 DUP7 ADD MSTORE PUSH2 0x3F5E DUP3 DUP3 PUSH2 0x3DA4 JUMP JUMPDEST SWAP2 POP POP PUSH1 0xE0 DUP4 ADD MLOAD DUP5 DUP3 SUB PUSH1 0xE0 DUP7 ADD MSTORE PUSH2 0x3F78 DUP3 DUP3 PUSH2 0x3DA4 JUMP JUMPDEST SWAP2 POP POP PUSH2 0x100 DUP4 ADD MLOAD DUP5 DUP3 SUB PUSH2 0x100 DUP7 ADD MSTORE PUSH2 0x3F94 DUP3 DUP3 PUSH2 0x3DA4 JUMP JUMPDEST SWAP2 POP POP PUSH2 0x120 DUP4 ADD MLOAD PUSH2 0x3FAB PUSH2 0x120 DUP7 ADD DUP3 PUSH2 0x3E9C JUMP JUMPDEST POP DUP1 SWAP2 POP POP SWAP3 SWAP2 POP POP JUMP JUMPDEST PUSH1 0x0 PUSH2 0x3FC2 DUP4 DUP4 PUSH2 0x3EAB JUMP JUMPDEST SWAP1 POP SWAP3 SWAP2 POP POP JUMP JUMPDEST PUSH1 0x0 PUSH1 0x20 DUP3 ADD SWAP1 POP SWAP2 SWAP1 POP JUMP JUMPDEST PUSH1 0x0 PUSH2 0x3FE2 DUP3 PUSH2 0x3E70 JUMP JUMPDEST PUSH2 0x3FEC DUP2 DUP6 PUSH2 0x3E7B JUMP JUMPDEST SWAP4 POP DUP4 PUSH1 0x20 DUP3 MUL DUP6 ADD PUSH2 0x3FFE DUP6 PUSH2 0x3E8C JUMP JUMPDEST DUP1 PUSH1 0x0 JUMPDEST DUP6 DUP2 LT ISZERO PUSH2 0x403A JUMPI DUP5 DUP5 SUB DUP10 MSTORE DUP2 MLOAD PUSH2 0x401B DUP6 DUP3 PUSH2 0x3FB6 JUMP JUMPDEST SWAP5 POP PUSH2 0x4026 DUP4 PUSH2 0x3FCA JUMP JUMPDEST SWAP3 POP PUSH1 0x20 DUP11 ADD SWAP10 POP POP PUSH1 0x1 DUP2 ADD SWAP1 POP PUSH2 0x4002 JUMP JUMPDEST POP DUP3 SWAP8 POP DUP8 SWAP6 POP POP POP POP POP POP SWAP3 SWAP2 POP POP JUMP JUMPDEST PUSH1 0x0 PUSH1 0x40 DUP3 ADD SWAP1 POP DUP2 DUP2 SUB PUSH1 0x0 DUP4 ADD MSTORE PUSH2 0x4066 DUP2 DUP6 PUSH2 0x3DEC JUMP JUMPDEST SWAP1 POP DUP2 DUP2 SUB PUSH1 0x20 DUP4 ADD MSTORE PUSH2 0x407A DUP2 DUP5 PUSH2 0x3FD7 JUMP JUMPDEST SWAP1 POP SWAP4 SWAP3 POP POP POP JUMP JUMPDEST PUSH1 0x0 PUSH1 0xA0 DUP3 DUP5 SUB SLT ISZERO PUSH2 0x4099 JUMPI PUSH2 0x4098 PUSH2 0x3569 JUMP JUMPDEST JUMPDEST PUSH2 0x40A3 PUSH1 0xA0 PUSH2 0x35DF JUMP JUMPDEST SWAP1 POP PUSH1 0x0 PUSH2 0x40B3 DUP5 DUP3 DUP6 ADD PUSH2 0x3527 JUMP JUMPDEST PUSH1 0x0 DUP4 ADD MSTORE POP PUSH1 0x20 DUP3 ADD CALLDATALOAD PUSH8 0xFFFFFFFFFFFFFFFF DUP2 GT ISZERO PUSH2 0x40D7 JUMPI PUSH2 0x40D6 PUSH2 0x35FA JUMP JUMPDEST JUMPDEST PUSH2 0x40E3 DUP5 DUP3 DUP6 ADD PUSH2 0x368B JUMP JUMPDEST PUSH1 0x20 DUP4 ADD MSTORE POP PUSH1 0x40 DUP3 ADD CALLDATALOAD PUSH8 0xFFFFFFFFFFFFFFFF DUP2 GT ISZERO PUSH2 0x4107 JUMPI PUSH2 0x4106 PUSH2 0x35FA JUMP JUMPDEST JUMPDEST PUSH2 0x4113 DUP5 DUP3 DUP6 ADD PUSH2 0x368B JUMP JUMPDEST PUSH1 0x40 DUP4 ADD MSTORE POP PUSH1 0x60 PUSH2 0x4127 DUP5 DUP3 DUP6 ADD PUSH2 0x36DA JUMP JUMPDEST PUSH1 0x60 DUP4 ADD MSTORE POP PUSH1 0x80 DUP3 ADD CALLDATALOAD PUSH8 0xFFFFFFFFFFFFFFFF DUP2 GT ISZERO PUSH2 0x414B JUMPI PUSH2 0x414A PUSH2 0x35FA JUMP JUMPDEST JUMPDEST PUSH2 0x4157 DUP5 DUP3 DUP6 ADD PUSH2 0x368B JUMP JUMPDEST PUSH1 0x80 DUP4 ADD MSTORE POP SWAP3 SWAP2 POP POP JUMP JUMPDEST PUSH1 0x0 PUSH2 0x1A0 DUP3 DUP5 SUB SLT ISZERO PUSH2 0x417A JUMPI PUSH2 0x4179 PUSH2 0x3569 JUMP JUMPDEST JUMPDEST PUSH2 0x4185 PUSH2 0x1A0 PUSH2 0x35DF JUMP JUMPDEST SWAP1 POP PUSH1 0x0 PUSH2 0x4195 DUP5 DUP3 DUP6 ADD PUSH2 0x3527 JUMP JUMPDEST PUSH1 0x0 DUP4 ADD MSTORE POP PUSH1 0x20 DUP3 ADD CALLDATALOAD PUSH8 0xFFFFFFFFFFFFFFFF DUP2 GT ISZERO PUSH2 0x41B9 JUMPI PUSH2 0x41B8 PUSH2 0x35FA JUMP JUMPDEST JUMPDEST PUSH2 0x41C5 DUP5 DUP3 DUP6 ADD PUSH2 0x368B JUMP JUMPDEST PUSH1 0x20 DUP4 ADD MSTORE POP PUSH1 0x40 DUP3 ADD CALLDATALOAD PUSH8 0xFFFFFFFFFFFFFFFF DUP2 GT ISZERO PUSH2 0x41E9 JUMPI PUSH2 0x41E8 PUSH2 0x35FA JUMP JUMPDEST JUMPDEST PUSH2 0x41F5 DUP5 DUP3 DUP6 ADD PUSH2 0x368B JUMP JUMPDEST PUSH1 0x40 DUP4 ADD MSTORE POP PUSH1 0x60 DUP3 ADD CALLDATALOAD PUSH8 0xFFFFFFFFFFFFFFFF DUP2 GT ISZERO PUSH2 0x4219 JUMPI PUSH2 0x4218 PUSH2 0x35FA JUMP JUMPDEST JUMPDEST PUSH2 0x4225 DUP5 DUP3 DUP6 ADD PUSH2 0x368B JUMP JUMPDEST PUSH1 0x60 DUP4 ADD MSTORE POP PUSH1 0x80 DUP3 ADD CALLDATALOAD PUSH8 0xFFFFFFFFFFFFFFFF DUP2 GT ISZERO PUSH2 0x4249 JUMPI PUSH2 0x4248 PUSH2 0x35FA JUMP JUMPDEST JUMPDEST PUSH2 0x4255 DUP5 DUP3 DUP6 ADD PUSH2 0x368B JUMP JUMPDEST PUSH1 0x80 DUP4 ADD MSTORE POP PUSH1 0xA0 DUP3 ADD CALLDATALOAD PUSH8 0xFFFFFFFFFFFFFFFF DUP2 GT ISZERO PUSH2 0x4279 JUMPI PUSH2 0x4278 PUSH2 0x35FA JUMP JUMPDEST JUMPDEST PUSH2 0x4285 DUP5 DUP3 DUP6 ADD PUSH2 0x368B JUMP JUMPDEST PUSH1 0xA0 DUP4 ADD MSTORE POP PUSH1 0xC0 DUP3 ADD CALLDATALOAD PUSH8 0xFFFFFFFFFFFFFFFF DUP2 GT ISZERO PUSH2 0x42A9 JUMPI PUSH2 0x42A8 PUSH2 0x35FA JUMP JUMPDEST JUMPDEST PUSH2 0x42B5 DUP5 DUP3 DUP6 ADD PUSH2 0x368B JUMP JUMPDEST PUSH1 0xC0 DUP4 ADD MSTORE POP PUSH1 0xE0 DUP3 ADD CALLDATALOAD PUSH8 0xFFFFFFFFFFFFFFFF DUP2 GT ISZERO PUSH2 0x42D9 JUMPI PUSH2 0x42D8 PUSH2 0x35FA JUMP JUMPDEST JUMPDEST PUSH2 0x42E5 DUP5 DUP3 DUP6 ADD PUSH2 0x368B JUMP JUMPDEST PUSH1 0xE0 DUP4 ADD MSTORE POP PUSH2 0x100 DUP3 ADD CALLDATALOAD PUSH8 0xFFFFFFFFFFFFFFFF DUP2 GT ISZERO PUSH2 0x430A JUMPI PUSH2 0x4309 PUSH2 0x35FA JUMP JUMPDEST JUMPDEST PUSH2 0x4316 DUP5 DUP3 DUP6 ADD PUSH2 0x368B JUMP JUMPDEST PUSH2 0x100 DUP4 ADD MSTORE POP PUSH2 0x120 DUP3 ADD CALLDATALOAD PUSH8 0xFFFFFFFFFFFFFFFF DUP2 GT ISZERO PUSH2 0x433C JUMPI PUSH2 0x433B PUSH2 0x35FA JUMP JUMPDEST JUMPDEST PUSH2 0x4348 DUP5 DUP3 DUP6 ADD PUSH2 0x368B JUMP JUMPDEST PUSH2 0x120 DUP4 ADD MSTORE POP PUSH2 0x140 DUP3 ADD CALLDATALOAD PUSH8 0xFFFFFFFFFFFFFFFF DUP2 GT ISZERO PUSH2 0x436E JUMPI PUSH2 0x436D PUSH2 0x35FA JUMP JUMPDEST JUMPDEST PUSH2 0x437A DUP5 DUP3 DUP6 ADD PUSH2 0x368B JUMP JUMPDEST PUSH2 0x140 DUP4 ADD MSTORE POP PUSH2 0x160 DUP3 ADD CALLDATALOAD PUSH8 0xFFFFFFFFFFFFFFFF DUP2 GT ISZERO PUSH2 0x43A0 JUMPI PUSH2 0x439F PUSH2 0x35FA JUMP JUMPDEST JUMPDEST PUSH2 0x43AC DUP5 DUP3 DUP6 ADD PUSH2 0x368B JUMP JUMPDEST PUSH2 0x160 DUP4 ADD MSTORE POP PUSH2 0x180 DUP3 ADD CALLDATALOAD PUSH8 0xFFFFFFFFFFFFFFFF DUP2 GT ISZERO PUSH2 0x43D2 JUMPI PUSH2 0x43D1 PUSH2 0x35FA JUMP JUMPDEST JUMPDEST PUSH2 0x43DE DUP5 DUP3 DUP6 ADD PUSH2 0x368B JUMP JUMPDEST PUSH2 0x180 DUP4 ADD MSTORE POP SWAP3 SWAP2 POP POP JUMP JUMPDEST PUSH1 0x0 DUP1 PUSH1 0x40 DUP4 DUP6 SUB SLT ISZERO PUSH2 0x4402 JUMPI PUSH2 0x4401 PUSH2 0x34D4 JUMP JUMPDEST JUMPDEST PUSH1 0x0 DUP4 ADD CALLDATALOAD PUSH8 0xFFFFFFFFFFFFFFFF DUP2 GT ISZERO PUSH2 0x4420 JUMPI PUSH2 0x441F PUSH2 0x34D9 JUMP JUMPDEST JUMPDEST PUSH2 0x442C DUP6 DUP3 DUP7 ADD PUSH2 0x4083 JUMP JUMPDEST SWAP3 POP POP PUSH1 0x20 DUP4 ADD CALLDATALOAD PUSH8 0xFFFFFFFFFFFFFFFF DUP2 GT ISZERO PUSH2 0x444D JUMPI PUSH2 0x444C PUSH2 0x34D9 JUMP JUMPDEST JUMPDEST PUSH2 0x4459 DUP6 DUP3 DUP7 ADD PUSH2 0x4163 JUMP JUMPDEST SWAP2 POP POP SWAP3 POP SWAP3 SWAP1 POP JUMP JUMPDEST PUSH1 0x0 PUSH1 0xA0 DUP4 ADD PUSH1 0x0 DUP4 ADD MLOAD PUSH2 0x447B PUSH1 0x0 DUP7 ADD DUP3 PUSH2 0x3D4F JUMP JUMPDEST POP PUSH1 0x20 DUP4 ADD MLOAD DUP5 DUP3 SUB PUSH1 0x20 DUP7 ADD MSTORE PUSH2 0x4493 DUP3 DUP3 PUSH2 0x3DA4 JUMP JUMPDEST SWAP2 POP POP PUSH1 0x40 DUP4 ADD MLOAD DUP5 DUP3 SUB PUSH1 0x40 DUP7 ADD MSTORE PUSH2 0x44AD DUP3 DUP3 PUSH2 0x3DA4 JUMP JUMPDEST SWAP2 POP POP PUSH1 0x60 DUP4 ADD MLOAD PUSH2 0x44C2 PUSH1 0x60 DUP7 ADD DUP3 PUSH2 0x3DDD JUMP JUMPDEST POP PUSH1 0x80 DUP4 ADD MLOAD DUP5 DUP3 SUB PUSH1 0x80 DUP7 ADD MSTORE PUSH2 0x44DA DUP3 DUP3 PUSH2 0x3DA4 JUMP JUMPDEST SWAP2 POP POP DUP1 SWAP2 POP POP SWAP3 SWAP2 POP POP JUMP JUMPDEST PUSH1 0x0 DUP2 MLOAD SWAP1 POP SWAP2 SWAP1 POP JUMP JUMPDEST PUSH1 0x0 DUP3 DUP3 MSTORE PUSH1 0x20 DUP3 ADD SWAP1 POP SWAP3 SWAP2 POP POP JUMP JUMPDEST PUSH1 0x0 DUP2 SWAP1 POP PUSH1 0x20 DUP3 ADD SWAP1 POP SWAP2 SWAP1 POP JUMP JUMPDEST PUSH1 0x0 PUSH2 0x1A0 DUP4 ADD PUSH1 0x0 DUP4 ADD MLOAD PUSH2 0x452C PUSH1 0x0 DUP7 ADD DUP3 PUSH2 0x3D4F JUMP JUMPDEST POP PUSH1 0x20 DUP4 ADD MLOAD DUP5 DUP3 SUB PUSH1 0x20 DUP7 ADD MSTORE PUSH2 0x4544 DUP3 DUP3 PUSH2 0x3DA4 JUMP JUMPDEST SWAP2 POP POP PUSH1 0x40 DUP4 ADD MLOAD DUP5 DUP3 SUB PUSH1 0x40 DUP7 ADD MSTORE PUSH2 0x455E DUP3 DUP3 PUSH2 0x3DA4 JUMP JUMPDEST SWAP2 POP POP PUSH1 0x60 DUP4 ADD MLOAD DUP5 DUP3 SUB PUSH1 0x60 DUP7 ADD MSTORE PUSH2 0x4578 DUP3 DUP3 PUSH2 0x3DA4 JUMP JUMPDEST SWAP2 POP POP PUSH1 0x80 DUP4 ADD MLOAD DUP5 DUP3 SUB PUSH1 0x80 DUP7 ADD MSTORE PUSH2 0x4592 DUP3 DUP3 PUSH2 0x3DA4 JUMP JUMPDEST SWAP2 POP POP PUSH1 0xA0 DUP4 ADD MLOAD DUP5 DUP3 SUB PUSH1 0xA0 DUP7 ADD MSTORE PUSH2 0x45AC DUP3 DUP3 PUSH2 0x3DA4 JUMP JUMPDEST SWAP2 POP POP PUSH1 0xC0 DUP4 ADD MLOAD DUP5 DUP3 SUB PUSH1 0xC0 DUP7 ADD MSTORE PUSH2 0x45C6 DUP3 DUP3 PUSH2 0x3DA4 JUMP JUMPDEST SWAP2 POP POP PUSH1 0xE0 DUP4 ADD MLOAD DUP5 DUP3 SUB PUSH1 0xE0 DUP7 ADD MSTORE PUSH2 0x45E0 DUP3 DUP3 PUSH2 0x3DA4 JUMP JUMPDEST SWAP2 POP POP PUSH2 0x100 DUP4 ADD MLOAD DUP5 DUP3 SUB PUSH2 0x100 DUP7 ADD MSTORE PUSH2 0x45FC DUP3 DUP3 PUSH2 0x3DA4 JUMP JUMPDEST SWAP2 POP POP PUSH2 0x120 DUP4 ADD MLOAD DUP5 DUP3 SUB PUSH2 0x120 DUP7 ADD MSTORE PUSH2 0x4618 DUP3 DUP3 PUSH2 0x3DA4 JUMP JUMPDEST SWAP2 POP POP PUSH2 0x140 DUP4 ADD MLOAD DUP5 DUP3 SUB PUSH2 0x140 DUP7 ADD MSTORE PUSH2 0x4634 DUP3 DUP3 PUSH2 0x3DA4 JUMP JUMPDEST SWAP2 POP POP PUSH2 0x160 DUP4 ADD MLOAD DUP5 DUP3 SUB PUSH2 0x160 DUP7 ADD MSTORE PUSH2 0x4650 DUP3 DUP3 PUSH2 0x3DA4 JUMP JUMPDEST SWAP2 POP POP PUSH2 0x180 DUP4 ADD MLOAD DUP5 DUP3 SUB PUSH2 0x180 DUP7 ADD MSTORE PUSH2 0x466C DUP3 DUP3 PUSH2 0x3DA4 JUMP JUMPDEST SWAP2 POP POP DUP1 SWAP2 POP POP SWAP3 SWAP2 POP POP JUMP JUMPDEST PUSH1 0x0 PUSH2 0x4685 DUP4 DUP4 PUSH2 0x4513 JUMP JUMPDEST SWAP1 POP SWAP3 SWAP2 POP POP JUMP JUMPDEST PUSH1 0x0 PUSH1 0x20 DUP3 ADD SWAP1 POP SWAP2 SWAP1 POP JUMP JUMPDEST PUSH1 0x0 PUSH2 0x46A5 DUP3 PUSH2 0x44E7 JUMP JUMPDEST PUSH2 0x46AF DUP2 DUP6 PUSH2 0x44F2 JUMP JUMPDEST SWAP4 POP DUP4 PUSH1 0x20 DUP3 MUL DUP6 ADD PUSH2 0x46C1 DUP6 PUSH2 0x4503 JUMP JUMPDEST DUP1 PUSH1 0x0 JUMPDEST DUP6 DUP2 LT ISZERO PUSH2 0x46FD JUMPI DUP5 DUP5 SUB DUP10 MSTORE DUP2 MLOAD PUSH2 0x46DE DUP6 DUP3 PUSH2 0x4679 JUMP JUMPDEST SWAP5 POP PUSH2 0x46E9 DUP4 PUSH2 0x468D JUMP JUMPDEST SWAP3 POP PUSH1 0x20 DUP11 ADD SWAP10 POP POP PUSH1 0x1 DUP2 ADD SWAP1 POP PUSH2 0x46C5 JUMP JUMPDEST POP DUP3 SWAP8 POP DUP8 SWAP6 POP POP POP POP POP POP SWAP3 SWAP2 POP POP JUMP JUMPDEST PUSH1 0x0 PUSH1 0x40 DUP3 ADD SWAP1 POP DUP2 DUP2 SUB PUSH1 0x0 DUP4 ADD MSTORE PUSH2 0x4729 DUP2 DUP6 PUSH2 0x4463 JUMP JUMPDEST SWAP1 POP DUP2 DUP2 SUB PUSH1 0x20 DUP4 ADD MSTORE PUSH2 0x473D DUP2 DUP5 PUSH2 0x469A JUMP JUMPDEST SWAP1 POP SWAP4 SWAP3 POP POP POP JUMP JUMPDEST PUSH1 0x0 DUP2 MLOAD SWAP1 POP SWAP2 SWAP1 POP JUMP JUMPDEST PUSH1 0x0 DUP3 DUP3 MSTORE PUSH1 0x20 DUP3 ADD SWAP1 POP SWAP3 SWAP2 POP POP JUMP JUMPDEST PUSH1 0x0 DUP2 SWAP1 POP PUSH1 0x20 DUP3 ADD SWAP1 POP SWAP2 SWAP1 POP JUMP JUMPDEST PUSH1 0x0 PUSH2 0x1C0 DUP4 ADD PUSH1 0x0 DUP4 ADD MLOAD PUSH2 0x478B PUSH1 0x0 DUP7 ADD DUP3 PUSH2 0x3D4F JUMP JUMPDEST POP PUSH1 0x20 DUP4 ADD MLOAD DUP5 DUP3 SUB PUSH1 0x20 DUP7 ADD MSTORE PUSH2 0x47A3 DUP3 DUP3 PUSH2 0x3DA4 JUMP JUMPDEST SWAP2 POP POP PUSH1 0x40 DUP4 ADD MLOAD DUP5 DUP3 SUB PUSH1 0x40 DUP7 ADD MSTORE PUSH2 0x47BD DUP3 DUP3 PUSH2 0x3DA4 JUMP JUMPDEST SWAP2 POP POP PUSH1 0x60 DUP4 ADD MLOAD DUP5 DUP3 SUB PUSH1 0x60 DUP7 ADD MSTORE PUSH2 0x47D7 DUP3 DUP3 PUSH2 0x3DA4 JUMP JUMPDEST SWAP2 POP POP PUSH1 0x80 DUP4 ADD MLOAD DUP5 DUP3 SUB PUSH1 0x80 DUP7 ADD MSTORE PUSH2 0x47F1 DUP3 DUP3 PUSH2 0x3DA4 JUMP JUMPDEST SWAP2 POP POP PUSH1 0xA0 DUP4 ADD MLOAD DUP5 DUP3 SUB PUSH1 0xA0 DUP7 ADD MSTORE PUSH2 0x480B DUP3 DUP3 PUSH2 0x3DA4 JUMP JUMPDEST SWAP2 POP POP PUSH1 0xC0 DUP4 ADD MLOAD DUP5 DUP3 SUB PUSH1 0xC0 DUP7 ADD MSTORE PUSH2 0x4825 DUP3 DUP3 PUSH2 0x3DA4 JUMP JUMPDEST SWAP2 POP POP PUSH1 0xE0 DUP4 ADD MLOAD DUP5 DUP3 SUB PUSH1 0xE0 DUP7 ADD MSTORE PUSH2 0x483F DUP3 DUP3 PUSH2 0x3DA4 JUMP JUMPDEST SWAP2 POP POP PUSH2 0x100 DUP4 ADD MLOAD DUP5 DUP3 SUB PUSH2 0x100 DUP7 ADD MSTORE PUSH2 0x485B DUP3 DUP3 PUSH2 0x3DA4 JUMP JUMPDEST SWAP2 POP POP PUSH2 0x120 DUP4 ADD MLOAD PUSH2 0x4872 PUSH2 0x120 DUP7 ADD DUP3 PUSH2 0x3E9C JUMP JUMPDEST POP PUSH2 0x140 DUP4 ADD MLOAD DUP5 DUP3 SUB PUSH2 0x140 DUP7 ADD MSTORE PUSH2 0x488C DUP3 DUP3 PUSH2 0x3DA4 JUMP JUMPDEST SWAP2 POP POP PUSH2 0x160 DUP4 ADD MLOAD DUP5 DUP3 SUB PUSH2 0x160 DUP7 ADD MSTORE PUSH2 0x48A8 DUP3 DUP3 PUSH2 0x3DA4 JUMP JUMPDEST SWAP2 POP POP PUSH2 0x180 DUP4 ADD MLOAD PUSH2 0x48BF PUSH2 0x180 DUP7 ADD DUP3 PUSH2 0x3D4F JUMP JUMPDEST POP PUSH2 0x1A0 DUP4 ADD MLOAD DUP5 DUP3 SUB PUSH2 0x1A0 DUP7 ADD MSTORE PUSH2 0x48D9 DUP3 DUP3 PUSH2 0x3DA4 JUMP JUMPDEST SWAP2 POP POP DUP1 SWAP2 POP POP SWAP3 SWAP2 POP POP JUMP JUMPDEST PUSH1 0x0 PUSH2 0x48F2 DUP4 DUP4 PUSH2 0x4772 JUMP JUMPDEST SWAP1 POP SWAP3 SWAP2 POP POP JUMP JUMPDEST PUSH1 0x0 PUSH1 0x20 DUP3 ADD SWAP1 POP SWAP2 SWAP1 POP JUMP JUMPDEST PUSH1 0x0 PUSH2 0x4912 DUP3 PUSH2 0x4746 JUMP JUMPDEST PUSH2 0x491C DUP2 DUP6 PUSH2 0x4751 JUMP JUMPDEST SWAP4 POP DUP4 PUSH1 0x20 DUP3 MUL DUP6 ADD PUSH2 0x492E DUP6 PUSH2 0x4762 JUMP JUMPDEST DUP1 PUSH1 0x0 JUMPDEST DUP6 DUP2 LT ISZERO PUSH2 0x496A JUMPI DUP5 DUP5 SUB DUP10 MSTORE DUP2 MLOAD PUSH2 0x494B DUP6 DUP3 PUSH2 0x48E6 JUMP JUMPDEST SWAP5 POP PUSH2 0x4956 DUP4 PUSH2 0x48FA JUMP JUMPDEST SWAP3 POP PUSH1 0x20 DUP11 ADD SWAP10 POP POP PUSH1 0x1 DUP2 ADD SWAP1 POP PUSH2 0x4932 JUMP JUMPDEST POP DUP3 SWAP8 POP DUP8 SWAP6 POP POP POP POP POP POP SWAP3 SWAP2 POP POP JUMP JUMPDEST PUSH1 0x0 PUSH1 0x40 DUP3 ADD SWAP1 POP DUP2 DUP2 SUB PUSH1 0x0 DUP4 ADD MSTORE PUSH2 0x4996 DUP2 DUP6 PUSH2 0x3DEC JUMP JUMPDEST SWAP1 POP DUP2 DUP2 SUB PUSH1 0x20 DUP4 ADD MSTORE PUSH2 0x49AA DUP2 DUP5 PUSH2 0x4907 JUMP JUMPDEST SWAP1 POP SWAP4 SWAP3 POP POP POP JUMP JUMPDEST PUSH2 0x49BC DUP2 PUSH2 0x34FE JUMP JUMPDEST DUP3 MSTORE POP POP JUMP JUMPDEST PUSH1 0x0 PUSH1 0x20 DUP3 ADD SWAP1 POP PUSH2 0x49D7 PUSH1 0x0 DUP4 ADD DUP5 PUSH2 0x49B3 JUMP JUMPDEST SWAP3 SWAP2 POP POP JUMP JUMPDEST PUSH1 0x0 DUP2 MLOAD SWAP1 POP PUSH2 0x49EC DUP2 PUSH2 0x37DB JUMP JUMPDEST SWAP3 SWAP2 POP POP JUMP JUMPDEST PUSH1 0x0 PUSH1 0x20 DUP3 DUP5 SUB SLT ISZERO PUSH2 0x4A08 JUMPI PUSH2 0x4A07 PUSH2 0x34D4 JUMP JUMPDEST JUMPDEST PUSH1 0x0 PUSH2 0x4A16 DUP5 DUP3 DUP6 ADD PUSH2 0x49DD JUMP JUMPDEST SWAP2 POP POP SWAP3 SWAP2 POP POP JUMP JUMPDEST PUSH32 0x4E487B7100000000000000000000000000000000000000000000000000000000 PUSH1 0x0 MSTORE PUSH1 0x22 PUSH1 0x4 MSTORE PUSH1 0x24 PUSH1 0x0 REVERT JUMPDEST PUSH1 0x0 PUSH1 0x2 DUP3 DIV SWAP1 POP PUSH1 0x1 DUP3 AND DUP1 PUSH2 0x4A66 JUMPI PUSH1 0x7F DUP3 AND SWAP2 POP JUMPDEST PUSH1 0x20 DUP3 LT DUP2 SUB PUSH2 0x4A79 JUMPI PUSH2 0x4A78 PUSH2 0x4A1F JUMP JUMPDEST JUMPDEST POP SWAP2 SWAP1 POP JUMP JUMPDEST PUSH1 0x0 DUP2 SWAP1 POP DUP2 PUSH1 0x0 MSTORE PUSH1 0x20 PUSH1 0x0 KECCAK256 SWAP1 POP SWAP2 SWAP1 POP JUMP JUMPDEST PUSH1 0x0 PUSH1 0x20 PUSH1 0x1F DUP4 ADD DIV SWAP1 POP SWAP2 SWAP1 POP JUMP JUMPDEST PUSH1 0x0 DUP3 DUP3 SHL SWAP1 POP SWAP3 SWAP2 POP POP JUMP JUMPDEST PUSH1 0x0 PUSH1 0x8 DUP4 MUL PUSH2 0x4AE1 PUSH32 0xFFFFFFFFFFFFFFFFFFFFFFFFFFFFFFFFFFFFFFFFFFFFFFFFFFFFFFFFFFFFFFFF DUP3 PUSH2 0x4AA4 JUMP JUMPDEST PUSH2 0x4AEB DUP7 DUP4 PUSH2 0x4AA4 JUMP JUMPDEST SWAP6 POP DUP1 NOT DUP5 AND SWAP4 POP DUP1 DUP7 AND DUP5 OR SWAP3 POP POP POP SWAP4 SWAP3 POP POP POP JUMP JUMPDEST PUSH1 0x0 DUP2 SWAP1 POP SWAP2 SWAP1 POP JUMP JUMPDEST PUSH1 0x0 PUSH2 0x4B28 PUSH2 0x4B23 PUSH2 0x4B1E DUP5 PUSH2 0x36B9 JUMP JUMPDEST PUSH2 0x4B03 JUMP JUMPDEST PUSH2 0x36B9 JUMP JUMPDEST SWAP1 POP SWAP2 SWAP1 POP JUMP JUMPDEST PUSH1 0x0 DUP2 SWAP1 POP SWAP2 SWAP1 POP JUMP JUMPDEST PUSH2 0x4B42 DUP4 PUSH2 0x4B0D JUMP JUMPDEST PUSH2 0x4B56 PUSH2 0x4B4E DUP3 PUSH2 0x4B2F JUMP JUMPDEST DUP5 DUP5 SLOAD PUSH2 0x4AB1 JUMP JUMPDEST DUP3 SSTORE POP POP POP POP JUMP JUMPDEST PUSH1 0x0 SWAP1 JUMP JUMPDEST PUSH2 0x4B6B PUSH2 0x4B5E JUMP JUMPDEST PUSH2 0x4B76 DUP2 DUP5 DUP5 PUSH2 0x4B39 JUMP JUMPDEST POP POP POP JUMP JUMPDEST JUMPDEST DUP2 DUP2 LT ISZERO PUSH2 0x4B9A JUMPI PUSH2 0x4B8F PUSH1 0x0 DUP3 PUSH2 0x4B63 JUMP JUMPDEST PUSH1 0x1 DUP2 ADD SWAP1 POP PUSH2 0x4B7C JUMP JUMPDEST POP POP JUMP JUMPDEST PUSH1 0x1F DUP3 GT ISZERO PUSH2 0x4BDF JUMPI PUSH2 0x4BB0 DUP2 PUSH2 0x4A7F JUMP JUMPDEST PUSH2 0x4BB9 DUP5 PUSH2 0x4A94 JUMP JUMPDEST DUP2 ADD PUSH1 0x20 DUP6 LT ISZERO PUSH2 0x4BC8 JUMPI DUP2 SWAP1 POP JUMPDEST PUSH2 0x4BDC PUSH2 0x4BD4 DUP6 PUSH2 0x4A94 JUMP JUMPDEST DUP4 ADD DUP3 PUSH2 0x4B7B JUMP JUMPDEST POP POP JUMPDEST POP POP POP JUMP JUMPDEST PUSH1 0x0 DUP3 DUP3 SHR SWAP1 POP SWAP3 SWAP2 POP POP JUMP JUMPDEST PUSH1 0x0 PUSH2 0x4C02 PUSH1 0x0 NOT DUP5 PUSH1 0x8 MUL PUSH2 0x4BE4 JUMP JUMPDEST NOT DUP1 DUP4 AND SWAP2 POP POP SWAP3 SWAP2 POP POP JUMP JUMPDEST PUSH1 0x0 PUSH2 0x4C1B DUP4 DUP4 PUSH2 0x4BF1 JUMP JUMPDEST SWAP2 POP DUP3 PUSH1 0x2 MUL DUP3 OR SWAP1 POP SWAP3 SWAP2 POP POP JUMP JUMPDEST PUSH2 0x4C34 DUP3 PUSH2 0x3D5E JUMP JUMPDEST PUSH8 0xFFFFFFFFFFFFFFFF DUP2 GT ISZERO PUSH2 0x4C4D JUMPI PUSH2 0x4C4C PUSH2 0x357F JUMP JUMPDEST JUMPDEST PUSH2 0x4C57 DUP3 SLOAD PUSH2 0x4A4E JUMP JUMPDEST PUSH2 0x4C62 DUP3 DUP3 DUP6 PUSH2 0x4B9E JUMP JUMPDEST PUSH1 0x0 PUSH1 0x20 SWAP1 POP PUSH1 0x1F DUP4 GT PUSH1 0x1 DUP2 EQ PUSH2 0x4C95 JUMPI PUSH1 0x0 DUP5 ISZERO PUSH2 0x4C83 JUMPI DUP3 DUP8 ADD MLOAD SWAP1 POP JUMPDEST PUSH2 0x4C8D DUP6 DUP3 PUSH2 0x4C0F JUMP JUMPDEST DUP7 SSTORE POP PUSH2 0x4CF5 JUMP JUMPDEST PUSH1 0x1F NOT DUP5 AND PUSH2 0x4CA3 DUP7 PUSH2 0x4A7F JUMP JUMPDEST PUSH1 0x0 JUMPDEST DUP3 DUP2 LT ISZERO PUSH2 0x4CCB JUMPI DUP5 DUP10 ADD MLOAD DUP3 SSTORE PUSH1 0x1 DUP3 ADD SWAP2 POP PUSH1 0x20 DUP6 ADD SWAP5 POP PUSH1 0x20 DUP2 ADD SWAP1 POP PUSH2 0x4CA6 JUMP JUMPDEST DUP7 DUP4 LT ISZERO PUSH2 0x4CE8 JUMPI DUP5 DUP10 ADD MLOAD PUSH2 0x4CE4 PUSH1 0x1F DUP10 AND DUP3 PUSH2 0x4BF1 JUMP JUMPDEST DUP4 SSTORE POP JUMPDEST PUSH1 0x1 PUSH1 0x2 DUP9 MUL ADD DUP9 SSTORE POP POP POP JUMPDEST POP POP POP POP POP POP JUMP JUMPDEST PUSH1 0x0 DUP3 DUP3 MSTORE PUSH1 0x20 DUP3 ADD SWAP1 POP SWAP3 SWAP2 POP POP JUMP JUMPDEST PUSH1 0x0 PUSH2 0x4D19 DUP3 PUSH2 0x3D5E JUMP JUMPDEST PUSH2 0x4D23 DUP2 DUP6 PUSH2 0x4CFD JUMP JUMPDEST SWAP4 POP PUSH2 0x4D33 DUP2 DUP6 PUSH1 0x20 DUP7 ADD PUSH2 0x3D7A JUMP JUMPDEST PUSH2 0x4D3C DUP2 PUSH2 0x356E JUMP JUMPDEST DUP5 ADD SWAP2 POP POP SWAP3 SWAP2 POP POP JUMP JUMPDEST PUSH1 0x0 PUSH1 0x80 DUP3 ADD SWAP1 POP PUSH2 0x4D5C PUSH1 0x0 DUP4 ADD DUP8 PUSH2 0x49B3 JUMP JUMPDEST DUP2 DUP2 SUB PUSH1 0x20 DUP4 ADD MSTORE PUSH2 0x4D6E DUP2 DUP7 PUSH2 0x4D0E JUMP JUMPDEST SWAP1 POP DUP2 DUP2 SUB PUSH1 0x40 DUP4 ADD MSTORE PUSH2 0x4D82 DUP2 DUP6 PUSH2 0x4D0E JUMP JUMPDEST SWAP1 POP PUSH2 0x4D91 PUSH1 0x60 DUP4 ADD DUP5 PUSH2 0x49B3 JUMP JUMPDEST SWAP6 SWAP5 POP POP POP POP POP JUMP INVALID LOG2 PUSH5 0x6970667358 0x22 SLT KECCAK256 0x4E 0xE9 SWAP12 0xD 0xD7 PUSH18 0x3F7AB0C5D78E8A3808F8353F5B778FDC27D3 SELFDESTRUCT DUP10 PUSH4 0xD6B5D8DB MSTORE8 PUSH5 0x736F6C6343 STOP ADDMOD GT STOP CALLER "},"gasEstimates":{"creation":{"codeDepositCost":"3984000","executionCost":"infinite","totalCost":"infinite"},"external":{"addEmergencyPatient((address,string,string,uint256,string),(address,string,string,string,string,string,string,string,string,string,string,string,string))":"infinite","addInPatient((address,string,uint256,string,string),(address,string,string,string,string,string,string,string,string,bool,string,string,address,string))":"infinite","addOutPatient((address,string,uint256,string,string),(address,string,string,string,string,string,string,string,string,bool))":"infinite","getEmergencyPatient(address)":"infinite","getInPatient(address)":"infinite","getOutPatient(address)":"infinite","setDoctorRelationAddress(address)":"24789","setDoctorVerificatorAddress(address)":"24723","setPatientVerificatorAddress(address)":"24767"}},"methodIdentifiers":{"addEmergencyPatient((address,string,string,uint256,string),(address,string,string,string,string,string,string,string,string,string,string,string,string))":"b374adff","addInPatient((address,string,uint256,string,string),(address,string,string,string,string,string,string,string,string,bool,string,string,address,string))":"9cbc4dba","addOutPatient((address,string,uint256,string,string),(address,string,string,string,string,string,string,string,string,bool))":"4da7580f","getEmergencyPatient(address)":"eb7353d1","getInPatient(address)":"f539fe6c","getOutPatient(address)":"b2c24a34","setDoctorRelationAddress(address)":"7621df6f","setDoctorVerificatorAddress(address)":"1107747e","setPatientVerificatorAddress(address)":"5db185c7"}},"storageLayout":{"storage":[{"astId":237,"contract":"ElectronicMedicalRecords.sol:MedicalRecords","label":"patientId","offset":0,"slot":"0","type":"t_mapping(t_address,t_struct(IdentitasPasien)144_storage)"},{"astId":242,"contract":"ElectronicMedicalRecords.sol:MedicalRecords","label":"pengantar_pasien","offset":0,"slot":"1","type":"t_mapping(t_address,t_struct(PengantarPasien)232_storage)"},{"astId":248,"contract":"ElectronicMedicalRecords.sol:MedicalRecords","label":"outPatient","offset":0,"slot":"2","type":"t_mapping(t_address,t_array(t_struct(RawatJalan)165_storage)dyn_storage)"},{"astId":254,"contract":"ElectronicMedicalRecords.sol:MedicalRecords","label":"inPatient","offset":0,"slot":"3","type":"t_mapping(t_address,t_array(t_struct(RawatInap)194_storage)dyn_storage)"},{"astId":260,"contract":"ElectronicMedicalRecords.sol:MedicalRecords","label":"emergencyPatient","offset":0,"slot":"4","type":"t_mapping(t_address,t_array(t_struct(GawatDarurat)221_storage)dyn_storage)"},{"astId":262,"contract":"ElectronicMedicalRecords.sol:MedicalRecords","label":"admin","offset":0,"slot":"5","type":"t_address"},{"astId":265,"contract":"ElectronicMedicalRecords.sol:MedicalRecords","label":"doctor_verificator","offset":0,"slot":"6","type":"t_contract(DoctorVerificator)1117"},{"astId":268,"contract":"ElectronicMedicalRecords.sol:MedicalRecords","label":"patient_verificator","offset":0,"slot":"7","type":"t_contract(PatientVerificator)1030"},{"astId":271,"contract":"ElectronicMedicalRecords.sol:MedicalRecords","label":"doctor_relation","offset":0,"slot":"8","type":"t_contract(DoctorRelation)1240"}],"types":{"t_address":{"encoding":"inplace","label":"address","numberOfBytes":"20"},"t_array(t_struct(GawatDarurat)221_storage)dyn_storage":{"base":"t_struct(GawatDarurat)221_storage","encoding":"dynamic_array","label":"struct MedicalRecords.GawatDarurat[]","numberOfBytes":"32"},"t_array(t_struct(RawatInap)194_storage)dyn_storage":{"base":"t_struct(RawatInap)194_storage","encoding":"dynamic_array","label":"struct MedicalRecords.RawatInap[]","numberOfBytes":"32"},"t_array(t_struct(RawatJalan)165_storage)dyn_storage":{"base":"t_struct(RawatJalan)165_storage","encoding":"dynamic_array","label":"struct MedicalRecords.RawatJalan[]","numberOfBytes":"32"},"t_bool":{"encoding":"inplace","label":"bool","numberOfBytes":"1"},"t_contract(DoctorRelation)1240":{"encoding":"inplace","label":"contract DoctorRelation","numberOfBytes":"20"},"t_contract(DoctorVerificator)1117":{"encoding":"inplace","label":"contract DoctorVerificator","numberOfBytes":"20"},"t_contract(PatientVerificator)1030":{"encoding":"inplace","label":"contract PatientVerificator","numberOfBytes":"20"},"t_mapping(t_address,t_array(t_struct(GawatDarurat)221_storage)dyn_storage)":{"encoding":"mapping","key":"t_address","label":"mapping(address => struct MedicalRecords.GawatDarurat[])","numberOfBytes":"32","value":"t_array(t_struct(GawatDarurat)221_storage)dyn_storage"},"t_mapping(t_address,t_array(t_struct(RawatInap)194_storage)dyn_storage)":{"encoding":"mapping","key":"t_address","label":"mapping(address => struct MedicalRecords.RawatInap[])","numberOfBytes":"32","value":"t_array(t_struct(RawatInap)194_storage)dyn_storage"},"t_mapping(t_address,t_array(t_struct(RawatJalan)165_storage)dyn_storage)":{"encoding":"mapping","key":"t_address","label":"mapping(address => struct MedicalRecords.RawatJalan[])","numberOfBytes":"32","value":"t_array(t_struct(RawatJalan)165_storage)dyn_storage"},"t_mapping(t_address,t_struct(IdentitasPasien)144_storage)":{"encoding":"mapping","key":"t_address","label":"mapping(address => struct MedicalRecords.IdentitasPasien)","numberOfBytes":"32","value":"t_struct(IdentitasPasien)144_storage"},"t_mapping(t_address,t_struct(PengantarPasien)232_storage)":{"encoding":"mapping","key":"t_address","label":"mapping(address => struct MedicalRecords.PengantarPasien)","numberOfBytes":"32","value":"t_struct(PengantarPasien)232_storage"},"t_string_storage":{"encoding":"bytes","label":"string","numberOfBytes":"32"},"t_struct(GawatDarurat)221_storage":{"encoding":"inplace","label":"struct MedicalRecords.GawatDarurat","members":[{"astId":196,"contract":"ElectronicMedicalRecords.sol:MedicalRecords","label":"patient_address","offset":0,"slot":"0","type":"t_address"},{"astId":198,"contract":"ElectronicMedicalRecords.sol:MedicalRecords","label":"jenis","offset":0,"slot":"1","type":"t_string_storage"},{"astId":200,"contract":"ElectronicMedicalRecords.sol:MedicalRecords","label":"nama_lengkap","offset":0,"slot":"2","type":"t_string_storage"},{"astId":202,"contract":"ElectronicMedicalRecords.sol:MedicalRecords","label":"gender","offset":0,"slot":"3","type":"t_string_storage"},{"astId":204,"contract":"ElectronicMedicalRecords.sol:MedicalRecords","label":"kondisi","offset":0,"slot":"4","type":"t_string_storage"},{"astId":206,"contract":"ElectronicMedicalRecords.sol:MedicalRecords","label":"date_and_time","offset":0,"slot":"5","type":"t_string_storage"},{"astId":208,"contract":"ElectronicMedicalRecords.sol:MedicalRecords","label":"anamnesis","offset":0,"slot":"6","type":"t_string_storage"},{"astId":210,"contract":"ElectronicMedicalRecords.sol:MedicalRecords","label":"fisik","offset":0,"slot":"7","type":"t_string_storage"},{"astId":212,"contract":"ElectronicMedicalRecords.sol:MedicalRecords","label":"diagnosis","offset":0,"slot":"8","type":"t_string_storage"},{"astId":214,"contract":"ElectronicMedicalRecords.sol:MedicalRecords","label":"pengobatan","offset":0,"slot":"9","type":"t_string_storage"},{"astId":216,"contract":"ElectronicMedicalRecords.sol:MedicalRecords","label":"tindakan","offset":0,"slot":"10","type":"t_string_storage"},{"astId":218,"contract":"ElectronicMedicalRecords.sol:MedicalRecords","label":"lc","offset":0,"slot":"11","type":"t_string_storage"},{"astId":220,"contract":"ElectronicMedicalRecords.sol:MedicalRecords","label":"transport","offset":0,"slot":"12","type":"t_string_storage"}],"numberOfBytes":"416"},"t_struct(IdentitasPasien)144_storage":{"encoding":"inplace","label":"struct MedicalRecords.IdentitasPasien","members":[{"astId":135,"contract":"ElectronicMedicalRecords.sol:MedicalRecords","label":"patientAddress","offset":0,"slot":"0","type":"t_address"},{"astId":137,"contract":"ElectronicMedicalRecords.sol:MedicalRecords","label":"nama_lengkap","offset":0,"slot":"1","type":"t_string_storage"},{"astId":139,"contract":"ElectronicMedicalRecords.sol:MedicalRecords","label":"umur","offset":0,"slot":"2","type":"t_uint256"},{"astId":141,"contract":"ElectronicMedicalRecords.sol:MedicalRecords","label":"tanggal_lahir","offset":0,"slot":"3","type":"t_string_storage"},{"astId":143,"contract":"ElectronicMedicalRecords.sol:MedicalRecords","label":"gender","offset":0,"slot":"4","type":"t_string_storage"}],"numberOfBytes":"160"},"t_struct(PengantarPasien)232_storage":{"encoding":"inplace","label":"struct MedicalRecords.PengantarPasien","members":[{"astId":223,"contract":"ElectronicMedicalRecords.sol:MedicalRecords","label":"add","offset":0,"slot":"0","type":"t_address"},{"astId":225,"contract":"ElectronicMedicalRecords.sol:MedicalRecords","label":"pengantar_pasien","offset":0,"slot":"1","type":"t_string_storage"},{"astId":227,"contract":"ElectronicMedicalRecords.sol:MedicalRecords","label":"nama_lengkap","offset":0,"slot":"2","type":"t_string_storage"},{"astId":229,"contract":"ElectronicMedicalRecords.sol:MedicalRecords","label":"hp","offset":0,"slot":"3","type":"t_uint256"},{"astId":231,"contract":"ElectronicMedicalRecords.sol:MedicalRecords","label":"hubungan","offset":0,"slot":"4","type":"t_string_storage"}],"numberOfBytes":"160"},"t_struct(RawatInap)194_storage":{"encoding":"inplace","label":"struct MedicalRecords.RawatInap","members":[{"astId":167,"contract":"ElectronicMedicalRecords.sol:MedicalRecords","label":"patient_address","offset":0,"slot":"0","type":"t_address"},{"astId":169,"contract":"ElectronicMedicalRecords.sol:MedicalRecords","label":"jenis","offset":0,"slot":"1","type":"t_string_storage"},{"astId":171,"contract":"ElectronicMedicalRecords.sol:MedicalRecords","label":"date_and_time","offset":0,"slot":"2","type":"t_string_storage"},{"astId":173,"contract":"ElectronicMedicalRecords.sol:MedicalRecords","label":"anamnesis","offset":0,"slot":"3","type":"t_string_storage"},{"astId":175,"contract":"ElectronicMedicalRecords.sol:MedicalRecords","label":"fisik","offset":0,"slot":"4","type":"t_string_storage"},{"astId":177,"contract":"ElectronicMedicalRecords.sol:MedicalRecords","label":"diagnosis","offset":0,"slot":"5","type":"t_string_storage"},{"astId":179,"contract":"ElectronicMedicalRecords.sol:MedicalRecords","label":"rp","offset":0,"slot":"6","type":"t_string_storage"},{"astId":181,"contract":"ElectronicMedicalRecords.sol:MedicalRecords","label":"pengobatan","offset":0,"slot":"7","type":"t_string_storage"},{"astId":183,"contract":"ElectronicMedicalRecords.sol:MedicalRecords","label":"tindakan","offset":0,"slot":"8","type":"t_string_storage"},{"astId":185,"contract":"ElectronicMedicalRecords.sol:MedicalRecords","label":"agreement","offset":0,"slot":"9","type":"t_bool"},{"astId":187,"contract":"ElectronicMedicalRecords.sol:MedicalRecords","label":"obs","offset":0,"slot":"10","type":"t_string_storage"},{"astId":189,"contract":"ElectronicMedicalRecords.sol:MedicalRecords","label":"ds","offset":0,"slot":"11","type":"t_string_storage"},{"astId":191,"contract":"ElectronicMedicalRecords.sol:MedicalRecords","label":"doctor","offset":0,"slot":"12","type":"t_address"},{"astId":193,"contract":"ElectronicMedicalRecords.sol:MedicalRecords","label":"pelayanan","offset":0,"slot":"13","type":"t_string_storage"}],"numberOfBytes":"448"},"t_struct(RawatJalan)165_storage":{"encoding":"inplace","label":"struct MedicalRecords.RawatJalan","members":[{"astId":146,"contract":"ElectronicMedicalRecords.sol:MedicalRecords","label":"patient_address","offset":0,"slot":"0","type":"t_address"},{"astId":148,"contract":"ElectronicMedicalRecords.sol:MedicalRecords","label":"jenis","offset":0,"slot":"1","type":"t_string_storage"},{"astId":150,"contract":"ElectronicMedicalRecords.sol:MedicalRecords","label":"date_and_time","offset":0,"slot":"2","type":"t_string_storage"},{"astId":152,"contract":"ElectronicMedicalRecords.sol:MedicalRecords","label":"anamnesis","offset":0,"slot":"3","type":"t_string_storage"},{"astId":154,"contract":"ElectronicMedicalRecords.sol:MedicalRecords","label":"diagnosis","offset":0,"slot":"4","type":"t_string_storage"},{"astId":156,"contract":"ElectronicMedicalRecords.sol:MedicalRecords","label":"rp","offset":0,"slot":"5","type":"t_string_storage"},{"astId":158,"contract":"ElectronicMedicalRecords.sol:MedicalRecords","label":"pengobatan","offset":0,"slot":"6","type":"t_string_storage"},{"astId":160,"contract":"ElectronicMedicalRecords.sol:MedicalRecords","label":"tindakan","offset":0,"slot":"7","type":"t_string_storage"},{"astId":162,"contract":"ElectronicMedicalRecords.sol:MedicalRecords","label":"pelayanan","offset":0,"slot":"8","type":"t_string_storage"},{"astId":164,"contract":"ElectronicMedicalRecords.sol:MedicalRecords","label":"agreement","offset":0,"slot":"9","type":"t_bool"}],"numberOfBytes":"320"},"t_uint256":{"encoding":"inplace","label":"uint256","numberOfBytes":"32"}}},"userdoc":{"kind":"user","methods":{},"version":1}}